{
  "_format": "hh-sol-artifact-1",
  "contractName": "IexecEscrowNativeFacet",
  "sourceName": "contracts/facets/IexecEscrowNativeFacet.sol",
  "abi": [
    {
      "anonymous": false,
      "inputs": [
        {
          "indexed": true,
          "internalType": "address",
          "name": "owner",
          "type": "address"
        },
        {
          "indexed": true,
          "internalType": "address",
          "name": "spender",
          "type": "address"
        },
        {
          "indexed": false,
          "internalType": "uint256",
          "name": "value",
          "type": "uint256"
        }
      ],
      "name": "Approval",
      "type": "event"
    },
    {
      "anonymous": false,
      "inputs": [
        {
          "indexed": true,
          "internalType": "address",
          "name": "from",
          "type": "address"
        },
        {
          "indexed": true,
          "internalType": "address",
          "name": "to",
          "type": "address"
        },
        {
          "indexed": false,
          "internalType": "uint256",
          "name": "value",
          "type": "uint256"
        }
      ],
      "name": "Transfer",
      "type": "event"
    },
    {
      "stateMutability": "payable",
      "type": "fallback"
    },
    {
      "inputs": [],
      "name": "deposit",
      "outputs": [
        {
          "internalType": "bool",
          "name": "",
          "type": "bool"
        }
      ],
      "stateMutability": "payable",
      "type": "function"
    },
    {
      "inputs": [
        {
          "internalType": "address",
          "name": "target",
          "type": "address"
        }
      ],
      "name": "depositFor",
      "outputs": [
        {
          "internalType": "bool",
          "name": "",
          "type": "bool"
        }
      ],
      "stateMutability": "payable",
      "type": "function"
    },
    {
      "inputs": [
        {
          "internalType": "uint256[]",
          "name": "amounts",
          "type": "uint256[]"
        },
        {
          "internalType": "address[]",
          "name": "targets",
          "type": "address[]"
        }
      ],
      "name": "depositForArray",
      "outputs": [
        {
          "internalType": "bool",
          "name": "",
          "type": "bool"
        }
      ],
      "stateMutability": "payable",
      "type": "function"
    },
    {
      "inputs": [],
      "name": "recover",
      "outputs": [
        {
          "internalType": "uint256",
          "name": "",
          "type": "uint256"
        }
      ],
      "stateMutability": "nonpayable",
      "type": "function"
    },
    {
      "inputs": [
        {
          "internalType": "uint256",
          "name": "amount",
          "type": "uint256"
        }
      ],
      "name": "withdraw",
      "outputs": [
        {
          "internalType": "bool",
          "name": "",
          "type": "bool"
        }
      ],
      "stateMutability": "nonpayable",
      "type": "function"
    },
    {
      "inputs": [
        {
          "internalType": "uint256",
          "name": "amount",
          "type": "uint256"
        },
        {
          "internalType": "address",
          "name": "target",
          "type": "address"
        }
      ],
      "name": "withdrawTo",
      "outputs": [
        {
          "internalType": "bool",
          "name": "",
          "type": "bool"
        }
      ],
      "stateMutability": "nonpayable",
      "type": "function"
    },
    {
      "stateMutability": "payable",
      "type": "receive"
    }
  ],
  "bytecode": "0x608060405234801561001057600080fd5b5061090b806100206000396000f3fe6080604052600436106100595760003560e01c80632e1a7d4d1461007b5780633354f8a5146100b1578063aa67c919146100c4578063c86283c8146100d7578063ce746024146100f7578063d0e30db01461011957610070565b366100705761006e610069610121565b610125565b005b61006e610069610121565b34801561008757600080fd5b5061009b610096366004610757565b61015d565b6040516100a891906107a1565b60405180910390f35b61009b6100bf3660046106ee565b610191565b61009b6100d23660046106b6565b61025e565b3480156100e357600080fd5b5061009b6100f236600461076f565b610269565b34801561010357600080fd5b5061010c610298565b6040516100a891906108b7565b61009b610325565b3390565b61013c8161013734633b9aca00610338565b61035a565b61015a610147610121565b61015534633b9aca00610424565b610441565b50565b600061017061016a610121565b836104c2565b61018961017b610121565b61015584633b9aca0061057c565b506001919050565b60008382146101bb5760405162461bcd60e51b81526004016101b2906107ac565b60405180910390fd5b3460005b85811015610240576102038585838181106101d657fe5b90506020020160208101906101eb91906106b6565b8888848181106101f757fe5b9050602002013561035a565b61023661022f633b9aca0089898581811061021a57fe5b9050602002013561057c90919063ffffffff16565b83906105aa565b91506001016101bf565b5061025261024c610121565b82610441565b50600195945050505050565b600061018982610125565b600061027c610276610121565b846104c2565b61028e8261015585633b9aca0061057c565b5060015b92915050565b60006102a26105bf565b6001600160a01b03166102b3610121565b6001600160a01b0316146102d95760405162461bcd60e51b81526004016101b2906107da565b60006102e3610637565b9050600061030c8260070154610306633b9aca004761033890919063ffffffff16565b906105aa565b905061031f6103196105bf565b8261035a565b91505090565b6000610332610069610121565b50600190565b600080821161034657600080fd5b600082848161035157fe5b04949350505050565b6001600160a01b0382166103805760405162461bcd60e51b81526004016101b290610880565b600061038a610637565b600781015490915061039c908361065b565b60078201556001600160a01b03831660009081526008820160205260409020546103c6908361065b565b6001600160a01b03841660008181526008840160205260408082209390935591519091907fddf252ad1be2c89b69c2b068fc378daa952ba7f163c4a11628f55a4df523b3ef906104179086906108b7565b60405180910390a3505050565b60008161043057600080fd5b81838161043957fe5b069392505050565b6000826001600160a01b03168260405161045a9061079e565b60006040518083038185875af1925050503d8060008114610497576040519150601f19603f3d011682016040523d82523d6000602084013e61049c565b606091505b50509050806104bd5760405162461bcd60e51b81526004016101b290610850565b505050565b6001600160a01b0382166104e85760405162461bcd60e51b81526004016101b29061080f565b60006104f2610637565b600781015490915061050490836105aa565b60078201556001600160a01b038316600090815260088201602052604090205461052e90836105aa565b6001600160a01b03841660008181526008840160205260408082209390935591517fddf252ad1be2c89b69c2b068fc378daa952ba7f163c4a11628f55a4df523b3ef906104179086906108b7565b60008261058b57506000610292565b8282028284828161059857fe5b04146105a357600080fd5b9392505050565b6000828211156105b957600080fd5b50900390565b6000306001600160a01b0316638da5cb5b6040518163ffffffff1660e01b815260040160206040518083038186803b1580156105fa57600080fd5b505afa15801561060e573d6000803e3d6000fd5b505050506040513d601f19601f8201168201806040525081019061063291906106d2565b905090565b7f5862653c6982c162832160cf30593645e8487b257e44d77cdd6b51eee2651b0090565b6000828201838110156105a357600080fd5b60008083601f84011261067e578182fd5b50813567ffffffffffffffff811115610695578182fd5b60208301915083602080830285010111156106af57600080fd5b9250929050565b6000602082840312156106c7578081fd5b81356105a3816108c0565b6000602082840312156106e3578081fd5b81516105a3816108c0565b60008060008060408587031215610703578283fd5b843567ffffffffffffffff8082111561071a578485fd5b6107268883890161066d565b9096509450602087013591508082111561073e578384fd5b5061074b8782880161066d565b95989497509550505050565b600060208284031215610768578081fd5b5035919050565b60008060408385031215610781578182fd5b823591506020830135610793816108c0565b809150509250929050565b90565b901515815260200190565b6020808252601490820152730d2dcecc2d8d2c85ac2e4e4c2f25ad8cadccee8d60631b604082015260600190565b6020808252818101527f4f776e61626c653a2063616c6c6572206973206e6f7420746865206f776e6572604082015260600190565b60208082526021908201527f45524332303a206275726e2066726f6d20746865207a65726f206164647265736040820152607360f81b606082015260800190565b6020808252601690820152751b985d1a5d994b5d1c985b9cd9995c8b59985a5b195960521b604082015260600190565b6020808252601f908201527f45524332303a206d696e7420746f20746865207a65726f206164647265737300604082015260600190565b90815260200190565b6001600160a01b038116811461015a57600080fdfea2646970667358221220e50fe01b32cee28678e51afe92f54340dae0730b4447e06f972cdeeb7c125f4264736f6c634300060c0033",
  "linkReferences": {},
  "deployedLinkReferences": {}
}