{
  "_format": "hh-sol-artifact-1",
  "contractName": "IexecConfigurationFacet",
  "sourceName": "contracts/facets/IexecConfigurationFacet.sol",
  "abi": [
    {
      "inputs": [
        {
          "internalType": "address",
          "name": "_token",
          "type": "address"
        },
        {
          "internalType": "string",
          "name": "_name",
          "type": "string"
        },
        {
          "internalType": "string",
          "name": "_symbol",
          "type": "string"
        },
        {
          "internalType": "uint8",
          "name": "_decimal",
          "type": "uint8"
        },
        {
          "internalType": "address",
          "name": "_appregistryAddress",
          "type": "address"
        },
        {
          "internalType": "address",
          "name": "_datasetregistryAddress",
          "type": "address"
        },
        {
          "internalType": "address",
          "name": "_workerpoolregistryAddress",
          "type": "address"
        },
        {
          "internalType": "address",
          "name": "_v3_iexecHubAddress",
          "type": "address"
        }
      ],
      "name": "configure",
      "outputs": [],
      "stateMutability": "nonpayable",
      "type": "function"
    },
    {
      "inputs": [],
      "name": "domain",
      "outputs": [
        {
          "components": [
            {
              "internalType": "string",
              "name": "name",
              "type": "string"
            },
            {
              "internalType": "string",
              "name": "version",
              "type": "string"
            },
            {
              "internalType": "uint256",
              "name": "chainId",
              "type": "uint256"
            },
            {
              "internalType": "address",
              "name": "verifyingContract",
              "type": "address"
            }
          ],
          "internalType": "struct IexecLibOrders_v5.EIP712Domain",
          "name": "",
          "type": "tuple"
        }
      ],
      "stateMutability": "view",
      "type": "function"
    },
    {
      "inputs": [
        {
          "internalType": "address",
          "name": "_worker",
          "type": "address"
        }
      ],
      "name": "importScore",
      "outputs": [],
      "stateMutability": "nonpayable",
      "type": "function"
    },
    {
      "inputs": [
        {
          "internalType": "uint256",
          "name": "_callbackgas",
          "type": "uint256"
        }
      ],
      "name": "setCallbackGas",
      "outputs": [],
      "stateMutability": "nonpayable",
      "type": "function"
    },
    {
      "inputs": [
        {
          "internalType": "address",
          "name": "_teebroker",
          "type": "address"
        }
      ],
      "name": "setTeeBroker",
      "outputs": [],
      "stateMutability": "nonpayable",
      "type": "function"
    },
    {
      "inputs": [],
      "name": "updateDomainSeparator",
      "outputs": [],
      "stateMutability": "nonpayable",
      "type": "function"
    }
  ],
  "bytecode": "0x608060405234801561001057600080fd5b50610aa7806100206000396000f3fe608060405234801561001057600080fd5b50600436106100625760003560e01c806301d09a3c1461006757806389ccfe891461007c578063a9b20cee14610084578063aefb52b414610097578063b5521817146100aa578063c2fb26a6146100bd575b600080fd5b61007a6100753660046108c4565b6100db565b005b61007a610137565b61007a61009236600461078f565b6101fb565b61007a6100a536600461078f565b610320565b61007a6100b83660046107ce565b61038e565b6100c5610543565b6040516100d291906109f4565b60405180910390f35b6100e3610558565b6001600160a01b03166100f46105cb565b6001600160a01b0316146101235760405162461bcd60e51b815260040161011a90610967565b60405180910390fd5b600061012d6105cf565b6014019190915550565b60006101416105cf565b600b8101549091506101655760405162461bcd60e51b815260040161011a906109cc565b61016d6105f3565b6040516374147c4d60e01b815273__$9d824026d0515d8abd681f0f0f4707f16a$__916374147c4d916101a391906004016109f4565b60206040518083038186803b1580156101bb57600080fd5b505af41580156101cf573d6000803e3d6000fd5b505050506040513d601f19601f820116820180604052508101906101f391906108ac565b600b90910155565b60006102056105cf565b6001600160a01b038316600090815260178201602052604090205490915060ff16156102435760405162461bcd60e51b815260040161011a9061099c565b6016810154604051636d9185a960e11b81526102e8916001600160a01b03169063db230b5290610277908690600401610927565b60206040518083038186803b15801561028f57600080fd5b505afa1580156102a3573d6000803e3d6000fd5b505050506040513d601f19601f820116820180604052508101906102c791906108ac565b6001600160a01b03841660009081526012840160205260409020549061065a565b6001600160a01b039092166000908152601282016020908152604080832094909455601790920190915220805460ff19166001179055565b610328610558565b6001600160a01b03166103396105cb565b6001600160a01b03161461035f5760405162461bcd60e51b815260040161011a90610967565b60006103696105cf565b60130180546001600160a01b0319166001600160a01b03939093169290921790915550565b610396610558565b6001600160a01b03166103a76105cb565b6001600160a01b0316146103cd5760405162461bcd60e51b815260040161011a90610967565b60006103d76105cf565b600b810154909150156103fc5760405162461bcd60e51b815260040161011a9061093b565b6104046105f3565b6040516374147c4d60e01b815273__$9d824026d0515d8abd681f0f0f4707f16a$__916374147c4d9161043a91906004016109f4565b60206040518083038186803b15801561045257600080fd5b505af4158015610466573d6000803e3d6000fd5b505050506040513d601f19601f8201168201806040525081019061048a91906108ac565b600b8201556003810180546001600160a01b0319166001600160a01b038d161790556104ba600482018b8b610679565b506104c9600582018989610679565b5060068101805460ff191660ff979097169690961790955584546001600160a01b03199081166001600160a01b039586161786556001860180548216948616949094179093556002850180548416928516929092179091556016840180549092169216919091179055620186a06014909101555050505050565b61054b6106f7565b6105536105f3565b905090565b6000306001600160a01b0316638da5cb5b6040518163ffffffff1660e01b815260040160206040518083038186803b15801561059357600080fd5b505afa1580156105a7573d6000803e3d6000fd5b505050506040513d601f19601f8201168201806040525081019061055391906107b2565b3390565b7f5862653c6982c162832160cf30593645e8487b257e44d77cdd6b51eee2651b0090565b6105fb6106f7565b6040805160c0810182526008608082019081526734a2bc32b1a7a22160c11b60a083015281528151808301835260058152640352e302e360dc1b60208281019190915282015290810161064c610675565b815230602090910152905090565b60008183101561066a578161066c565b825b90505b92915050565b4690565b828054600181600116156101000203166002900490600052602060002090601f016020900481019282601f106106ba5782800160ff198235161785556106e7565b828001600101855582156106e7579182015b828111156106e75782358255916020019190600101906106cc565b506106f3929150610728565b5090565b604051806080016040528060608152602001606081526020016000815260200160006001600160a01b031681525090565b5b808211156106f35760008155600101610729565b803561066f81610a59565b60008083601f840112610759578182fd5b50813567ffffffffffffffff811115610770578182fd5b60208301915083602082850101111561078857600080fd5b9250929050565b6000602082840312156107a0578081fd5b81356107ab81610a59565b9392505050565b6000602082840312156107c3578081fd5b81516107ab81610a59565b6000806000806000806000806000806101008b8d0312156107ed578586fd5b8a356107f881610a59565b995060208b013567ffffffffffffffff80821115610814578788fd5b6108208e838f01610748565b909b50995060408d0135915080821115610838578788fd5b506108458d828e01610748565b90985096505060608b013560ff8116811461085e578586fd5b945060808b013561086e81610a59565b935061087d8c60a08d0161073d565b925061088c8c60c08d0161073d565b915061089b8c60e08d0161073d565b90509295989b9194979a5092959850565b6000602082840312156108bd578081fd5b5051919050565b6000602082840312156108d5578081fd5b5035919050565b60008151808452815b81811015610901576020818501810151868301820152016108e5565b818111156109125782602083870101525b50601f01601f19169290920160200192915050565b6001600160a01b0391909116815260200190565b602080825260129082015271185b1c9958591e4b58dbdb999a59dd5c995960721b604082015260600190565b6020808252818101527f4f776e61626c653a2063616c6c6572206973206e6f7420746865206f776e6572604082015260600190565b6020808252601690820152751cd8dbdc994b585b1c9958591e4b5a5b5c1bdc9d195960521b604082015260600190565b6020808252600e908201526d1b9bdd0b58dbdb999a59dd5c995960921b604082015260600190565b600060208252825160806020840152610a1060a08401826108dc565b90506020840151601f19848303016040850152610a2d82826108dc565b6040860151606086810191909152909501516001600160a01b0316608090940193909352509192915050565b6001600160a01b0381168114610a6e57600080fd5b5056fea264697066735822122081b7ca689ac79719e7f329c37a913719d7a8953bff4295fd625ffbdce27c112664736f6c634300060c0033",
  "linkReferences": {
    "contracts/libs/IexecLibOrders_v5.sol": {
      "IexecLibOrders_v5": [
        {
          "length": 20,
          "start": 412
        },
        {
          "length": 20,
          "start": 1075
        }
      ]
    }
  },
  "deployedLinkReferences": {
    "contracts/libs/IexecLibOrders_v5.sol": {
      "IexecLibOrders_v5": [
        {
          "length": 20,
          "start": 380
        },
        {
          "length": 20,
          "start": 1043
        }
      ]
    }
  }
}