{
  "_format": "hh-sol-artifact-1",
  "contractName": "IexecCategoryManagerFacet",
  "sourceName": "contracts/facets/IexecCategoryManagerFacet.sol",
  "abi": [
    {
      "anonymous": false,
      "inputs": [
        {
          "indexed": false,
          "internalType": "uint256",
          "name": "catid",
          "type": "uint256"
        },
        {
          "indexed": false,
          "internalType": "string",
          "name": "name",
          "type": "string"
        },
        {
          "indexed": false,
          "internalType": "string",
          "name": "description",
          "type": "string"
        },
        {
          "indexed": false,
          "internalType": "uint256",
          "name": "workClockTimeRef",
          "type": "uint256"
        }
      ],
      "name": "CreateCategory",
      "type": "event"
    },
    {
      "inputs": [
        {
          "internalType": "string",
          "name": "name",
          "type": "string"
        },
        {
          "internalType": "string",
          "name": "description",
          "type": "string"
        },
        {
          "internalType": "uint256",
          "name": "workClockTimeRef",
          "type": "uint256"
        }
      ],
      "name": "createCategory",
      "outputs": [
        {
          "internalType": "uint256",
          "name": "",
          "type": "uint256"
        }
      ],
      "stateMutability": "nonpayable",
      "type": "function"
    }
  ],
  "bytecode": "0x608060405234801561001057600080fd5b506104d7806100206000396000f3fe608060405234801561001057600080fd5b506004361061002b5760003560e01c8063298503d914610030575b600080fd5b61004361003e366004610387565b610059565b6040516100509190610457565b60405180910390f35b60006100636101df565b6001600160a01b0316610074610257565b6001600160a01b0316146100a35760405162461bcd60e51b815260040161009a90610422565b60405180910390fd5b60006100ad61025b565b905080601501604051806060016040528089898080601f016020809104026020016040519081016040528093929190818152602001838380828437600092019190915250505090825250604080516020601f8a018190048102820181019092528881529181019190899089908190840183828082843760009201829052509385525050506020918201879052835460018101855593815281902082518051939460030290910192610161928492019061027f565b50602082810151805161017a926001850192019061027f565b5060409182015160029091015560158201549051600019909101907f62bf08360c9d561749c54eaf4f8bf8cb6c8b6f4f40607bcec39a8172e714d25c906101cc9083908b908b908b908b908b90610460565b60405180910390a1979650505050505050565b6000306001600160a01b0316638da5cb5b6040518163ffffffff1660e01b815260040160206040518083038186803b15801561021a57600080fd5b505afa15801561022e573d6000803e3d6000fd5b505050506040513d601f19601f820116820180604052508101906102529190610359565b905090565b3390565b7f5862653c6982c162832160cf30593645e8487b257e44d77cdd6b51eee2651b0090565b828054600181600116156101000203166002900490600052602060002090601f016020900481019282601f106102c057805160ff19168380011785556102ed565b828001600101855582156102ed579182015b828111156102ed5782518255916020019190600101906102d2565b506102f99291506102fd565b5090565b5b808211156102f957600081556001016102fe565b60008083601f840112610323578182fd5b50813567ffffffffffffffff81111561033a578182fd5b60208301915083602082850101111561035257600080fd5b9250929050565b60006020828403121561036a578081fd5b81516001600160a01b0381168114610380578182fd5b9392505050565b60008060008060006060868803121561039e578081fd5b853567ffffffffffffffff808211156103b5578283fd5b6103c189838a01610312565b909750955060208801359150808211156103d9578283fd5b506103e688828901610312565b96999598509660400135949350505050565b60008284528282602086013780602084860101526020601f19601f85011685010190509392505050565b6020808252818101527f4f776e61626c653a2063616c6c6572206973206e6f7420746865206f776e6572604082015260600190565b90815260200190565b60008782526080602083015261047a6080830187896103f8565b828103604084015261048d8186886103f8565b91505082606083015297965050505050505056fea2646970667358221220a20c8b2d0f601050349401d70adb88c74f29cecc45943aec826c77b095a1b4d864736f6c634300060c0033",
  "linkReferences": {},
  "deployedLinkReferences": {}
}