{
  "_format": "hh-sol-artifact-1",
  "contractName": "IexecPoco1Facet",
  "sourceName": "contracts/facets/IexecPoco1Facet.sol",
  "abi": [
    {
      "anonymous": false,
      "inputs": [
        {
          "indexed": false,
          "internalType": "bytes32",
          "name": "dealId",
          "type": "bytes32"
        },
        {
          "indexed": false,
          "internalType": "address",
          "name": "sponsor",
          "type": "address"
        }
      ],
      "name": "DealSponsored",
      "type": "event"
    },
    {
      "anonymous": false,
      "inputs": [
        {
          "indexed": false,
          "internalType": "address",
          "name": "owner",
          "type": "address"
        },
        {
          "indexed": false,
          "internalType": "uint256",
          "name": "amount",
          "type": "uint256"
        }
      ],
      "name": "Lock",
      "type": "event"
    },
    {
      "anonymous": false,
      "inputs": [
        {
          "indexed": false,
          "internalType": "bytes32",
          "name": "dealid",
          "type": "bytes32"
        },
        {
          "indexed": false,
          "internalType": "bytes32",
          "name": "appHash",
          "type": "bytes32"
        },
        {
          "indexed": false,
          "internalType": "bytes32",
          "name": "datasetHash",
          "type": "bytes32"
        },
        {
          "indexed": false,
          "internalType": "bytes32",
          "name": "workerpoolHash",
          "type": "bytes32"
        },
        {
          "indexed": false,
          "internalType": "bytes32",
          "name": "requestHash",
          "type": "bytes32"
        },
        {
          "indexed": false,
          "internalType": "uint256",
          "name": "volume",
          "type": "uint256"
        }
      ],
      "name": "OrdersMatched",
      "type": "event"
    },
    {
      "anonymous": false,
      "inputs": [
        {
          "indexed": false,
          "internalType": "address",
          "name": "owner",
          "type": "address"
        },
        {
          "indexed": false,
          "internalType": "uint256",
          "name": "amount",
          "type": "uint256"
        },
        {
          "indexed": false,
          "internalType": "bytes32",
          "name": "ref",
          "type": "bytes32"
        }
      ],
      "name": "Reward",
      "type": "event"
    },
    {
      "anonymous": false,
      "inputs": [
        {
          "indexed": true,
          "internalType": "address",
          "name": "workerpool",
          "type": "address"
        },
        {
          "indexed": false,
          "internalType": "bytes32",
          "name": "dealid",
          "type": "bytes32"
        }
      ],
      "name": "SchedulerNotice",
      "type": "event"
    },
    {
      "anonymous": false,
      "inputs": [
        {
          "indexed": false,
          "internalType": "address",
          "name": "owner",
          "type": "address"
        },
        {
          "indexed": false,
          "internalType": "uint256",
          "name": "amount",
          "type": "uint256"
        },
        {
          "indexed": false,
          "internalType": "bytes32",
          "name": "ref",
          "type": "bytes32"
        }
      ],
      "name": "Seize",
      "type": "event"
    },
    {
      "anonymous": false,
      "inputs": [
        {
          "indexed": true,
          "internalType": "address",
          "name": "from",
          "type": "address"
        },
        {
          "indexed": true,
          "internalType": "address",
          "name": "to",
          "type": "address"
        },
        {
          "indexed": false,
          "internalType": "uint256",
          "name": "value",
          "type": "uint256"
        }
      ],
      "name": "Transfer",
      "type": "event"
    },
    {
      "anonymous": false,
      "inputs": [
        {
          "indexed": false,
          "internalType": "address",
          "name": "owner",
          "type": "address"
        },
        {
          "indexed": false,
          "internalType": "uint256",
          "name": "amount",
          "type": "uint256"
        }
      ],
      "name": "Unlock",
      "type": "event"
    },
    {
      "inputs": [
        {
          "components": [
            {
              "internalType": "address",
              "name": "dataset",
              "type": "address"
            },
            {
              "internalType": "uint256",
              "name": "datasetprice",
              "type": "uint256"
            },
            {
              "internalType": "uint256",
              "name": "volume",
              "type": "uint256"
            },
            {
              "internalType": "bytes32",
              "name": "tag",
              "type": "bytes32"
            },
            {
              "internalType": "address",
              "name": "apprestrict",
              "type": "address"
            },
            {
              "internalType": "address",
              "name": "workerpoolrestrict",
              "type": "address"
            },
            {
              "internalType": "address",
              "name": "requesterrestrict",
              "type": "address"
            },
            {
              "internalType": "bytes32",
              "name": "salt",
              "type": "bytes32"
            },
            {
              "internalType": "bytes",
              "name": "sign",
              "type": "bytes"
            }
          ],
          "internalType": "struct IexecLibOrders_v5.DatasetOrder",
          "name": "datasetOrder",
          "type": "tuple"
        },
        {
          "internalType": "bytes32",
          "name": "dealid",
          "type": "bytes32"
        }
      ],
      "name": "isDatasetCompatibleWithDeal",
      "outputs": [
        {
          "internalType": "bool",
          "name": "result",
          "type": "bool"
        },
        {
          "internalType": "string",
          "name": "reason",
          "type": "string"
        }
      ],
      "stateMutability": "view",
      "type": "function"
    },
    {
      "inputs": [
        {
          "components": [
            {
              "internalType": "address",
              "name": "app",
              "type": "address"
            },
            {
              "internalType": "uint256",
              "name": "appprice",
              "type": "uint256"
            },
            {
              "internalType": "uint256",
              "name": "volume",
              "type": "uint256"
            },
            {
              "internalType": "bytes32",
              "name": "tag",
              "type": "bytes32"
            },
            {
              "internalType": "address",
              "name": "datasetrestrict",
              "type": "address"
            },
            {
              "internalType": "address",
              "name": "workerpoolrestrict",
              "type": "address"
            },
            {
              "internalType": "address",
              "name": "requesterrestrict",
              "type": "address"
            },
            {
              "internalType": "bytes32",
              "name": "salt",
              "type": "bytes32"
            },
            {
              "internalType": "bytes",
              "name": "sign",
              "type": "bytes"
            }
          ],
          "internalType": "struct IexecLibOrders_v5.AppOrder",
          "name": "_apporder",
          "type": "tuple"
        },
        {
          "components": [
            {
              "internalType": "address",
              "name": "dataset",
              "type": "address"
            },
            {
              "internalType": "uint256",
              "name": "datasetprice",
              "type": "uint256"
            },
            {
              "internalType": "uint256",
              "name": "volume",
              "type": "uint256"
            },
            {
              "internalType": "bytes32",
              "name": "tag",
              "type": "bytes32"
            },
            {
              "internalType": "address",
              "name": "apprestrict",
              "type": "address"
            },
            {
              "internalType": "address",
              "name": "workerpoolrestrict",
              "type": "address"
            },
            {
              "internalType": "address",
              "name": "requesterrestrict",
              "type": "address"
            },
            {
              "internalType": "bytes32",
              "name": "salt",
              "type": "bytes32"
            },
            {
              "internalType": "bytes",
              "name": "sign",
              "type": "bytes"
            }
          ],
          "internalType": "struct IexecLibOrders_v5.DatasetOrder",
          "name": "_datasetorder",
          "type": "tuple"
        },
        {
          "components": [
            {
              "internalType": "address",
              "name": "workerpool",
              "type": "address"
            },
            {
              "internalType": "uint256",
              "name": "workerpoolprice",
              "type": "uint256"
            },
            {
              "internalType": "uint256",
              "name": "volume",
              "type": "uint256"
            },
            {
              "internalType": "bytes32",
              "name": "tag",
              "type": "bytes32"
            },
            {
              "internalType": "uint256",
              "name": "category",
              "type": "uint256"
            },
            {
              "internalType": "uint256",
              "name": "trust",
              "type": "uint256"
            },
            {
              "internalType": "address",
              "name": "apprestrict",
              "type": "address"
            },
            {
              "internalType": "address",
              "name": "datasetrestrict",
              "type": "address"
            },
            {
              "internalType": "address",
              "name": "requesterrestrict",
              "type": "address"
            },
            {
              "internalType": "bytes32",
              "name": "salt",
              "type": "bytes32"
            },
            {
              "internalType": "bytes",
              "name": "sign",
              "type": "bytes"
            }
          ],
          "internalType": "struct IexecLibOrders_v5.WorkerpoolOrder",
          "name": "_workerpoolorder",
          "type": "tuple"
        },
        {
          "components": [
            {
              "internalType": "address",
              "name": "app",
              "type": "address"
            },
            {
              "internalType": "uint256",
              "name": "appmaxprice",
              "type": "uint256"
            },
            {
              "internalType": "address",
              "name": "dataset",
              "type": "address"
            },
            {
              "internalType": "uint256",
              "name": "datasetmaxprice",
              "type": "uint256"
            },
            {
              "internalType": "address",
              "name": "workerpool",
              "type": "address"
            },
            {
              "internalType": "uint256",
              "name": "workerpoolmaxprice",
              "type": "uint256"
            },
            {
              "internalType": "address",
              "name": "requester",
              "type": "address"
            },
            {
              "internalType": "uint256",
              "name": "volume",
              "type": "uint256"
            },
            {
              "internalType": "bytes32",
              "name": "tag",
              "type": "bytes32"
            },
            {
              "internalType": "uint256",
              "name": "category",
              "type": "uint256"
            },
            {
              "internalType": "uint256",
              "name": "trust",
              "type": "uint256"
            },
            {
              "internalType": "address",
              "name": "beneficiary",
              "type": "address"
            },
            {
              "internalType": "address",
              "name": "callback",
              "type": "address"
            },
            {
              "internalType": "string",
              "name": "params",
              "type": "string"
            },
            {
              "internalType": "bytes32",
              "name": "salt",
              "type": "bytes32"
            },
            {
              "internalType": "bytes",
              "name": "sign",
              "type": "bytes"
            }
          ],
          "internalType": "struct IexecLibOrders_v5.RequestOrder",
          "name": "_requestorder",
          "type": "tuple"
        }
      ],
      "name": "matchOrders",
      "outputs": [
        {
          "internalType": "bytes32",
          "name": "",
          "type": "bytes32"
        }
      ],
      "stateMutability": "nonpayable",
      "type": "function"
    },
    {
      "inputs": [
        {
          "components": [
            {
              "internalType": "address",
              "name": "app",
              "type": "address"
            },
            {
              "internalType": "uint256",
              "name": "appprice",
              "type": "uint256"
            },
            {
              "internalType": "uint256",
              "name": "volume",
              "type": "uint256"
            },
            {
              "internalType": "bytes32",
              "name": "tag",
              "type": "bytes32"
            },
            {
              "internalType": "address",
              "name": "datasetrestrict",
              "type": "address"
            },
            {
              "internalType": "address",
              "name": "workerpoolrestrict",
              "type": "address"
            },
            {
              "internalType": "address",
              "name": "requesterrestrict",
              "type": "address"
            },
            {
              "internalType": "bytes32",
              "name": "salt",
              "type": "bytes32"
            },
            {
              "internalType": "bytes",
              "name": "sign",
              "type": "bytes"
            }
          ],
          "internalType": "struct IexecLibOrders_v5.AppOrder",
          "name": "_apporder",
          "type": "tuple"
        },
        {
          "components": [
            {
              "internalType": "address",
              "name": "dataset",
              "type": "address"
            },
            {
              "internalType": "uint256",
              "name": "datasetprice",
              "type": "uint256"
            },
            {
              "internalType": "uint256",
              "name": "volume",
              "type": "uint256"
            },
            {
              "internalType": "bytes32",
              "name": "tag",
              "type": "bytes32"
            },
            {
              "internalType": "address",
              "name": "apprestrict",
              "type": "address"
            },
            {
              "internalType": "address",
              "name": "workerpoolrestrict",
              "type": "address"
            },
            {
              "internalType": "address",
              "name": "requesterrestrict",
              "type": "address"
            },
            {
              "internalType": "bytes32",
              "name": "salt",
              "type": "bytes32"
            },
            {
              "internalType": "bytes",
              "name": "sign",
              "type": "bytes"
            }
          ],
          "internalType": "struct IexecLibOrders_v5.DatasetOrder",
          "name": "_datasetorder",
          "type": "tuple"
        },
        {
          "components": [
            {
              "internalType": "address",
              "name": "workerpool",
              "type": "address"
            },
            {
              "internalType": "uint256",
              "name": "workerpoolprice",
              "type": "uint256"
            },
            {
              "internalType": "uint256",
              "name": "volume",
              "type": "uint256"
            },
            {
              "internalType": "bytes32",
              "name": "tag",
              "type": "bytes32"
            },
            {
              "internalType": "uint256",
              "name": "category",
              "type": "uint256"
            },
            {
              "internalType": "uint256",
              "name": "trust",
              "type": "uint256"
            },
            {
              "internalType": "address",
              "name": "apprestrict",
              "type": "address"
            },
            {
              "internalType": "address",
              "name": "datasetrestrict",
              "type": "address"
            },
            {
              "internalType": "address",
              "name": "requesterrestrict",
              "type": "address"
            },
            {
              "internalType": "bytes32",
              "name": "salt",
              "type": "bytes32"
            },
            {
              "internalType": "bytes",
              "name": "sign",
              "type": "bytes"
            }
          ],
          "internalType": "struct IexecLibOrders_v5.WorkerpoolOrder",
          "name": "_workerpoolorder",
          "type": "tuple"
        },
        {
          "components": [
            {
              "internalType": "address",
              "name": "app",
              "type": "address"
            },
            {
              "internalType": "uint256",
              "name": "appmaxprice",
              "type": "uint256"
            },
            {
              "internalType": "address",
              "name": "dataset",
              "type": "address"
            },
            {
              "internalType": "uint256",
              "name": "datasetmaxprice",
              "type": "uint256"
            },
            {
              "internalType": "address",
              "name": "workerpool",
              "type": "address"
            },
            {
              "internalType": "uint256",
              "name": "workerpoolmaxprice",
              "type": "uint256"
            },
            {
              "internalType": "address",
              "name": "requester",
              "type": "address"
            },
            {
              "internalType": "uint256",
              "name": "volume",
              "type": "uint256"
            },
            {
              "internalType": "bytes32",
              "name": "tag",
              "type": "bytes32"
            },
            {
              "internalType": "uint256",
              "name": "category",
              "type": "uint256"
            },
            {
              "internalType": "uint256",
              "name": "trust",
              "type": "uint256"
            },
            {
              "internalType": "address",
              "name": "beneficiary",
              "type": "address"
            },
            {
              "internalType": "address",
              "name": "callback",
              "type": "address"
            },
            {
              "internalType": "string",
              "name": "params",
              "type": "string"
            },
            {
              "internalType": "bytes32",
              "name": "salt",
              "type": "bytes32"
            },
            {
              "internalType": "bytes",
              "name": "sign",
              "type": "bytes"
            }
          ],
          "internalType": "struct IexecLibOrders_v5.RequestOrder",
          "name": "_requestorder",
          "type": "tuple"
        }
      ],
      "name": "sponsorMatchOrders",
      "outputs": [
        {
          "internalType": "bytes32",
          "name": "",
          "type": "bytes32"
        }
      ],
      "stateMutability": "nonpayable",
      "type": "function"
    },
    {
      "inputs": [
        {
          "internalType": "address",
          "name": "_identity",
          "type": "address"
        },
        {
          "internalType": "bytes32",
          "name": "_hash",
          "type": "bytes32"
        }
      ],
      "name": "verifyPresignature",
      "outputs": [
        {
          "internalType": "bool",
          "name": "",
          "type": "bool"
        }
      ],
      "stateMutability": "view",
      "type": "function"
    },
    {
      "inputs": [
        {
          "internalType": "address",
          "name": "_identity",
          "type": "address"
        },
        {
          "internalType": "bytes32",
          "name": "_hash",
          "type": "bytes32"
        },
        {
          "internalType": "bytes",
          "name": "_signature",
          "type": "bytes"
        }
      ],
      "name": "verifyPresignatureOrSignature",
      "outputs": [
        {
          "internalType": "bool",
          "name": "",
          "type": "bool"
        }
      ],
      "stateMutability": "view",
      "type": "function"
    },
    {
      "inputs": [
        {
          "internalType": "address",
          "name": "_identity",
          "type": "address"
        },
        {
          "internalType": "bytes32",
          "name": "_hash",
          "type": "bytes32"
        },
        {
          "internalType": "bytes",
          "name": "_signature",
          "type": "bytes"
        }
      ],
      "name": "verifySignature",
      "outputs": [
        {
          "internalType": "bool",
          "name": "",
          "type": "bool"
        }
      ],
      "stateMutability": "view",
      "type": "function"
    }
  ],
  "bytecode": "0x60806040523461001a57604051613588610020823961358890f35b600080fdfe60e0604052600436101561001257600080fd5b60003560e01c80630175199814610072578063156194d41461006d5780632f39153314610068578063bf36994e14610063578063c87b582a1461005e5763da4e63da0361009857610368565b6102ab565b610269565b61024a565b61021a565b610133565b6001600160a01b031690565b90565b6001600160a01b0381165b0361009857565b600080fd5b905035906100aa82610086565b565b80610091565b905035906100aa826100ac565b909182601f83011215610098578135916001600160401b03831161009857602001926001830284011161009857565b9160608383031261009857610103828461009d565b9261011183602083016100b2565b9260408201356001600160401b0381116100985761012f92016100bf565b9091565b34610098576101646101526101493660046100ee565b92919091610397565b60405191829182901515815260200190565b0390f35b90816101209103126100985790565b90816101609103126100985790565b90816102009103126100985790565b906080828203126100985781356001600160401b03811161009857816101bc918401610168565b9260208301356001600160401b03811161009857826101dc918501610168565b9260408101356001600160401b03811161009857836101fc918301610177565b9260608201356001600160401b038111610098576100839201610186565b3461009857610164610239610230366004610195565b92919091610c16565b6040515b9182918290815260200190565b3461009857610164610239610260366004610195565b92919091610c37565b346100985761016461015261027f3660046100ee565b929190916103ad565b919060408382031261009857610083906102a2818561009d565b936020016100b2565b34610098576101646101526102c1366004610288565b906103a3565b9190604083820312610098578235906001600160401b038211610098576102a281610083938601610168565b60005b8381106103065750506000910152565b81810151838201526020016102f6565b61033761034060209361034a9361032b815190565b80835293849260200190565b958691016102f3565b601f01601f191690565b0190565b901515815260406020820181905261008392910190610316565b346100985761038161037b3660046102c7565b90610904565b9061016461038e60405190565b9283928361034e565b61008393929190613004565b6100839190613380565b610083939291906133e5565b905b600052602052604060002090565b6100776100836100839290565b610083906103c9565b634e487b7160e01b600052604160045260246000fd5b90601f01601f191681019081106001600160401b0382111761041657604052565b6103df565b906100aa61042860405190565b92836103f5565b6001600160401b03811161041657602090601f01601f19160190565b9061045d6104588361042f565b61041b565b918252565b61046c601361044b565b721119585b08191bd95cc81b9bdd08195e1a5cdd606a1b602082015290565b610083610462565b61049d601a61044b565b7f4465616c20616c72656164792068617320612064617461736574000000000000602082015290565b610083610493565b90826000939282370152565b909291926104ea6104588261042f565b93818552602085019082840111610098576100aa926104ce565b9080601f8301121561009857816020610083933591016104da565b919091610120818403126100985761053861012061041b565b926000610545828461009d565b908501526020610557828285016100b2565b908501526040610569828285016100b2565b90850152606061057b828285016100b2565b90850152608061058d8282850161009d565b9085015260a061059f8282850161009d565b9085015260c06105b18282850161009d565b9085015260e06105c3828285016100b2565b908501526101008201356001600160401b038111610098576105e59201610504565b610100830152565b61008390369061051f565b905051906100aa826100ac565b9060208282031261009857610083916105f8565b80516001600160a01b03168252610083916101208101916101009061064360208201516020850152565b61065260408201516040850152565b61066160608201516060850152565b6080818101516001600160a01b03169084015260a0818101516001600160a01b03169084015260c0818101516001600160a01b0316908401526106a960e082015160e0850152565b015190610100818403910152610316565b602080825261008392910190610619565b6040513d6000823e3d90fd5b3561008381610086565b61008390610077906001600160a01b031682565b610083906106e1565b610083906106f5565b905051906100aa82610086565b906020828203126100985761008391610707565b903590601e19368290030182121561009857018035906001600160401b038211610098576020019136829003831361009857565b610766601f61044b565b7f496e76616c69642064617461736574206f72646572207369676e617475726500602082015290565b61008361075c565b6100839081565b6100839054610797565b35610083816100ac565b6107bc601f61044b565b7f44617461736574206f726465722069732066756c6c7920636f6e73756d656400602082015290565b6100836107b2565b6107f7601d61044b565b7f417070207265737472696374696f6e206e6f7420736174697366696564000000602082015290565b6100836107ed565b610832602461044b565b7f576f726b6572706f6f6c207265737472696374696f6e206e6f74207361746973602082015263199a595960e21b604082015290565b610083610828565b61087a602361044b565b7f526571756573746572207265737472696374696f6e206e6f74207361746973666020820152621a595960ea1b604082015290565b610083610870565b6108c1601f61044b565b7f54616720636f6d7061746962696c697479206e6f742073617469736669656400602082015290565b6100836108b7565b610083600061044b565b6100836108f2565b61092361008360008051602061353383398151915293600e85016103b9565b600c810180546001600160a01b03169360009461093f866103d6565b9061095b6001600160a01b0383165b916001600160a01b031690565b14610c085761098961094e61097c886003880101546001600160a01b031690565b926001600160a01b031690565b03610bfb576109da602061099c866105ed565b73__$9d824026d0515d8abd681f0f0f4707f16a$__6109cf6311b2eee26109c260405190565b9586948593849360e01b90565b8352600483016106ba565b03915af48015610bc8576109f691600091610bcd575b50612f0c565b90610a2a6020610a12610a0d610a0d8a8a016106d7565b6106fe565b638da5cb5b90610a2160405190565b93849260e01b90565b825260049082905afa8015610bc85783610a6191610a6593600091610b9a575b50610a596101008a018a610728565b9290916133e5565b1590565b610b8c57610a7e91600d610a7992016103b9565b61079e565b610a94610a90610083604087016107a8565b9190565b1015610b8057610ac2610a61610aac608086016106d7565b8487018701546001600160a01b03165b90613443565b610b7457610aed610a61610ad860a086016106d7565b848701600601546001600160a01b0316610abc565b610b6857610a61610b1591610abc610b0760c087016106d7565b91546001600160a01b031690565b610b5d57610a906100836060610b30600b610b43950161079e565b940193610b3c856107a8565b16936107a8565b03610b5457506001906100836108fc565b906100836108ea565b5050906100836108af565b50505090610083610868565b50505090610083610820565b505050906100836107e5565b50505050509061008361078f565b610bbb915060203d8111610bc1575b610bb381836103f5565b810190610714565b38610a4a565b503d610ba9565b6106cb565b610bee915060203d8111610bf4575b610be681836103f5565b810190610605565b386109f0565b503d610bdc565b50505050906100836104c6565b50505050509061008361048b565b916100839391610c24600090565b50610c3160c084016106d7565b93611ceb565b9092610c469233948593611ceb565b90610c927f81eec3d5401bb1693dbef61f0800bc16602905d6677d691c1262d6f08456e9a091610c7560405190565b8481526001600160a01b0390911660208201529081906040820190565b0390a190565b15610c9f57565b60405162461bcd60e51b815260206004820152601860248201527f694578656356352d6d617463684f72646572732d3078303000000000000000006044820152606490fd5b15610ceb57565b60405162461bcd60e51b815260206004820152601860248201527f694578656356352d6d617463684f72646572732d3078303100000000000000006044820152606490fd5b15610d3757565b60405162461bcd60e51b815260206004820152601860248201527f694578656356352d6d617463684f72646572732d3078303200000000000000006044820152606490fd5b15610d8357565b60405162461bcd60e51b815260206004820152601860248201527f694578656356352d6d617463684f72646572732d3078303300000000000000006044820152606490fd5b15610dcf57565b60405162461bcd60e51b815260206004820152601860248201527f694578656356352d6d617463684f72646572732d3078303400000000000000006044820152606490fd5b15610e1b57565b60405162461bcd60e51b815260206004820152601860248201527f694578656356352d6d617463684f72646572732d3078303500000000000000006044820152606490fd5b6100836100836100839290565b15610e7457565b60405162461bcd60e51b815260206004820152601860248201527f694578656356352d6d617463684f72646572732d3078303600000000000000006044820152606490fd5b634e487b7160e01b600052603260045260246000fd5b610ee2610edc6100839290565b60f81b90565b6001600160f81b03191690565b15610ef657565b60405162461bcd60e51b815260206004820152601860248201527f694578656356352d6d617463684f72646572732d3078303700000000000000006044820152606490fd5b15610f4257565b60405162461bcd60e51b815260206004820152601860248201527f694578656356352d6d617463684f72646572732d3078313000000000000000006044820152606490fd5b15610f8e57565b60405162461bcd60e51b815260206004820152601860248201527f694578656356352d6d617463684f72646572732d3078313100000000000000006044820152606490fd5b15610fda57565b60405162461bcd60e51b815260206004820152601860248201527f694578656356352d6d617463684f72646572732d3078313200000000000000006044820152606490fd5b1561102657565b60405162461bcd60e51b815260206004820152601860248201527f694578656356352d6d617463684f72646572732d3078313300000000000000006044820152606490fd5b1561107257565b60405162461bcd60e51b815260206004820152601860248201527f694578656356352d6d617463684f72646572732d3078313400000000000000006044820152606490fd5b156110be57565b60405162461bcd60e51b815260206004820152601860248201527f694578656356352d6d617463684f72646572732d3078313500000000000000006044820152606490fd5b1561110a57565b60405162461bcd60e51b815260206004820152601860248201527f694578656356352d6d617463684f72646572732d3078313600000000000000006044820152606490fd5b1561115657565b60405162461bcd60e51b815260206004820152601860248201527f694578656356352d6d617463684f72646572732d3078313700000000000000006044820152606490fd5b156111a257565b60405162461bcd60e51b815260206004820152601860248201527f694578656356352d6d617463684f72646572732d3078313800000000000000006044820152606490fd5b156111ee57565b60405162461bcd60e51b815260206004820152601860248201527f694578656356352d6d617463684f72646572732d3078313900000000000000006044820152606490fd5b1561123a57565b60405162461bcd60e51b815260206004820152601860248201527f694578656356352d6d617463684f72646572732d3078316100000000000000006044820152606490fd5b1561128657565b60405162461bcd60e51b815260206004820152601860248201527f694578656356352d6d617463684f72646572732d3078316200000000000000006044820152606490fd5b61008361010061041b565b6112de6112cb565b906000825260208080808080808089016000815201600081520160008152016000815201600081520160008152016000905250565b6100836112d6565b801515610091565b905051906100aa8261131b565b906020828203126100985761008391611323565b1561134b57565b60405162461bcd60e51b815260206004820152601860248201527f694578656356352d6d617463684f72646572732d3078323000000000000000006044820152606490fd5b1561139757565b60405162461bcd60e51b815260206004820152601860248201527f694578656356352d6d617463684f72646572732d3078323100000000000000006044820152606490fd5b156113e357565b60405162461bcd60e51b815260206004820152601860248201527f694578656356352d6d617463684f72646572732d3078333000000000000000006044820152606490fd5b1561142f57565b60405162461bcd60e51b815260206004820152601860248201527f694578656356352d6d617463684f72646572732d3078333100000000000000006044820152606490fd5b919091610160818403126100985761148d61016061041b565b92600061149a828461009d565b9085015260206114ac828285016100b2565b9085015260406114be828285016100b2565b9085015260606114d0828285016100b2565b9085015260806114e2828285016100b2565b9085015260a06114f4828285016100b2565b9085015260c06115068282850161009d565b9085015260e06115188282850161009d565b9085015261010061152b8282850161009d565b9085015261012061153e828285016100b2565b908501526101408201356001600160401b038111610098576115609201610504565b610140830152565b610083903690611474565b80516001600160a01b03168252610083916101608101916101409061159d60208201516020850152565b6115ac60408201516040850152565b6115bb60608201516060850152565b6115ca60808201516080850152565b6115d960a082015160a0850152565b60c0818101516001600160a01b03169084015260e0818101516001600160a01b031690840152610100818101516001600160a01b031690840152611624610120820151610120850152565b015190610140818403910152610316565b602080825261008392910190611573565b1561164d57565b60405162461bcd60e51b815260206004820152601860248201527f694578656356352d6d617463684f72646572732d3078343000000000000000006044820152606490fd5b1561169957565b60405162461bcd60e51b815260206004820152601860248201527f694578656356352d6d617463684f72646572732d3078343100000000000000006044820152606490fd5b91909161020081840312610098576116f761020061041b565b926000611704828461009d565b908501526020611716828285016100b2565b9085015260406117288282850161009d565b90850152606061173a828285016100b2565b90850152608061174c8282850161009d565b9085015260a061175e828285016100b2565b9085015260c06117708282850161009d565b9085015260e0611782828285016100b2565b90850152610100611795828285016100b2565b908501526101206117a8828285016100b2565b908501526101406117bb828285016100b2565b908501526101606117ce8282850161009d565b908501526101806117e18282850161009d565b908501526101a08201356001600160401b0381116100985781611805918401610504565b6101a08501526101c061181a828285016100b2565b908501526101e08201356001600160401b0381116100985761183c9201610504565b6101e0830152565b6100839036906116de565b80516001600160a01b03168252610083916101e061194f610200830161187a60208601516020860152565b6040858101516001600160a01b03169085015261189c60608601516060860152565b6080858101516001600160a01b0316908501526118be60a086015160a0860152565b60c0858101516001600160a01b0316908501526118e060e086015160e0860152565b6118f1610100860151610100860152565b611902610120860151610120860152565b611913610140860151610140860152565b610160858101516001600160a01b031690850152610180858101516001600160a01b0316908501526101a08501518482036101a0860152610316565b926119616101c08201516101c0850152565b0151906101e0818403910152610316565b60208082526100839291019061184f565b1561198a57565b60405162461bcd60e51b815260206004820152601860248201527f694578656356352d6d617463684f72646572732d3078353000000000000000006044820152606490fd5b156119d657565b60405162461bcd60e51b815260206004820152601860248201527f694578656356352d6d617463684f72646572732d3078363000000000000000006044820152606490fd5b01918252565b906001600160a01b03905b9181191691161790565b90611a46610083611a4d926106fe565b8254611a21565b9055565b9060001990611a2c565b90611a6b610083611a4d92610e60565b8254611a51565b90611a6b610083611a4d9290565b634e487b7160e01b600052602260045260246000fd5b9060016002830492168015611ab6575b6020831014611ab157565b611a80565b91607f1691611aa6565b9160001960089290920291821b911b611a2c565b9190611ae5610083611a4d93610e60565b908354611ac0565b6100aa91600091611ad4565b818110611b04575050565b80611b126000600193611aed565b01611af9565b9190601f8111611b2757505050565b611b396100aa93600052602060002090565b906020601f840181900483019310611b5b575b6020601f909101040190611af9565b9091508190611b4c565b91906001600160401b03821161041657611b8982611b838554611a96565b85611b18565b600090601f8311600114611bc457611a4d929160009183611bb9575b5050600019600883021c1916906002021790565b013590503880611ba5565b601f19831691611bd985600052602060002090565b92815b818110611c1657509160029391856001969410611bfd575b50505002019055565b0135600019601f84166008021c19169055388080611bf4565b91936020600181928787013581550195019201611bdc565b906100aa9291611b65565b634e487b7160e01b600052601160045260246000fd5b81810292918115918404141715611c6257565b611c39565b634e487b7160e01b600052601260045260246000fd5b8115611c87570490565b611c67565b91908201809211611c6257565b610083601e610e60565b9194611ce0611ce792989795611cd960a096611cd26100aa9a611ccb60c08a019e60008b0152565b6020890152565b6040870152565b6060850152565b6080830152565b0152565b9390929190600080516020613533833981519152916060860190611d0e826107a8565b611d1a606088016107a8565b1794611e49611d2c61010083016107a8565b93611d55611d3d61012085016107a8565b611d4f610a90610083608089016107a8565b14610c98565b611d7c611d6561012085016107a8565b611d76610a9061008360158c015490565b10610ce4565b611da5611d8c61014085016107a8565b611d9e610a9061008360a089016107a8565b1115610d30565b611dcd8a611dc6610a906100836020611dbf818a016107a8565b94016107a8565b1015610d7c565b611def89611de8610a906100836020611dbf60608a016107a8565b1015610dc8565b611e17611dfe60a085016107a8565b611e10610a90610083602089016107a8565b1015610e14565b611e44611e2d611e29606087016107a8565b1990565b868a1716611e3e610a906000610e60565b14610e6d565b6107a8565b83871718611e57601f610e60565b6020811015612b8357611e9591901a60f81b611e736001610ecf565b16611e8f611e816000610ecf565b916001600160f81b03191690565b14610eef565b611eb6611ea1826106d7565b611eb061094e6100778c6106d7565b14610f3b565b611eda611ec5604083016106d7565b611ed461094e6100778b6106d7565b14610f87565b611efa611ef5611eec608084016106d7565b610abc856106d7565b610fd3565b611f1a611f15611f0c60808b016106d7565b610abc8a6106d7565b61101f565b611f31611f2c611eec60a08b016106d7565b61106b565b611f54611f4f611f4360c08b016106d7565b610abc60c085016106d7565b6110b7565b611f74611f6f611f6660808a016106d7565b610abc8b6106d7565b611103565b611f8b611f86611eec60a08a016106d7565b61114f565b611fa2611f9d611f4360c08a016106d7565b61119b565b611fb9611fb4611f6660c085016106d7565b6111e7565b611fd0611fcb611f0c60e085016106d7565b611233565b611fe8611fe3611f4361010085016106d7565b61127f565b611ff0611313565b96612016611ffd826106d7565b61200d61094e61007760006103d6565b141560e08a0152565b61201f896105ed565b60206109cf637c0d54d361204061203560405190565b948593849360e01b90565b038173__$9d824026d0515d8abd681f0f0f4707f16a$__5af4908115610bc8576120799161207591600091610bcd5750612f0c565b8952565b612086610a0d808b6106d7565b602061209160405190565b638da5cb5b60e01b815291829060049082905afa8015610bc8576120c891600091612b65575b506001600160a01b031660208a0152565b61211c60206120e1610a0d89546001600160a01b031690565b6120ea8c6106d7565b906120f460405190565b9384928391829163c3c5a54760e01b8352600483016001600160a01b03909116815260200190565b03915afa8015610bc85761213891600091612b47575b50611344565b61216861216361215260208b01516001600160a01b031690565b8a5190610a596101008e018e610728565b611390565b60e08801516129ed575b61217b83611568565b602061219163fed985fe61219c61203560405190565b835260048301611635565b038173__$9d824026d0515d8abd681f0f0f4707f16a$__5af4908115610bc8576121d8916121d191600091610bcd5750612f0c565b60808a0152565b6121e5610a0d80856106d7565b60206121f060405190565b638da5cb5b60e01b815291829060049082905afa8015610bc857612227916000916129cf575b506001600160a01b031660a08a0152565b61224c6020612243610a0d60028a01546001600160a01b031690565b6120ea866106d7565b03915afa8015610bc857612268916000916129a1575b50611646565b61229b61229661228260a08b01516001600160a01b031690565b60808b015190610a59610140880188610728565b611692565b6122a482611844565b9160206122c6638ac03f336122d16122bb60405190565b968793849360e01b90565b835260048301611972565b038173__$9d824026d0515d8abd681f0f0f4707f16a$__5af4928315610bc857899361230491600091610bcd5750612f0c565b60c084015261231560c082016106d7565b60c08401516123286101e0840184610728565b91612332936133e5565b61233b90611983565b61234760408b016107a8565b835160e0850151151561235c604086016107a8565b604087015161236d60408a016107a8565b9061237960808a015190565b9261238660e089016107a8565b9461239260c08c015190565b9661239c98612e54565b976123a76000610e60565b89116123b2906119cf565b60c08401516123c481600d8b016103b9565b6123cd9061079e565b906123d760405190565b602080820192835290928392916123f29161034a8285611a1b565b90810382520361240290826103f5565b805190602001209a6124178c600e8b016103b9565b60a052612423816106d7565b60a0516124309190611a36565b60208501516001600160a01b031660a05161244e9190600101611a36565b60200161245a906107a8565b60a05161246a9190600201611a5b565b60608401516001600160a01b031660a0516124889190600401611a36565b612491836106d7565b60a0516124a19190600301611a36565b60e08401511515906000916000149661251561250a60a06125ed986124e66125e199612586986126669e612992575060206124dc91016107a8565b8351600501611a5b565b6124fc6124f28c6106d7565b8351600601611a36565b01516001600160a01b031690565b60a051600701611a36565b61252f612524602089016107a8565b60a051600801611a5b565b61255d61255261254261014087016107a8565b61254c6001610e60565b90612b88565b600960a05101611a5b565b61257861256d61012086016107a8565b600a60a05101611a5b565b600b60a05101911790611a72565b6125a061259560c083016106d7565b600c60a05101611a36565b6125bb6125b061016083016106d7565b600d60a05101611a36565b6125d66125cb61018083016106d7565b600e60a05101611a36565b6101a0810190610728565b90600f60a05101611c2e565b6125fc42601060a05101611a5b565b612624612619610a7961261060c08a015190565b600d88016103b9565b601160a05101611a5b565b61263385601260a05101611a5b565b61263f602082016107a8565b602061264e610a0d80856106d7565b63b55e75af9061265d60405190565b95869260e01b90565b825260049082905afa908115610bc85760006126be936126b86126ad61269d610a0d96610a0d9660209a8792612973575b50611c4f565b6126a76064610e60565b90611c7d565b601360a05101611a5b565b016106d7565b6126d86387639c686126cf60405190565b60805260e01b90565b608051526126eb60046080510160000190565b60805191908290039082905afa60c05260c05115610bc85761280461284e92600060c05161293b575b61272390601460a05101611a5b565b61273283601560a05101611a36565b61276e61275586612750610a796127478b5190565b600d87016103b9565b611c8c565b612769612760895190565b600d85016103b9565b611a5b565b6127b16127a361278e610a7961278560408b015190565b600d86016103b9565b60e08901516000901561293257508790611c8c565b61276961276060408a015190565b6127d76127c986612750610a7961274760808c015190565b61276961276060808a015190565b6127696127ef86612750610a7961274760c08c015190565b91600d6127fd60c08a015190565b91016103b9565b6128488361284361283461281f6002600060a051010161079e565b60a05161282e9060050161079e565b90611c8c565b60a05161282e9060080161079e565b611c4f565b90612bc1565b60a0516007015461288b906001600160a01b03166128488361284361269d61287d6002600660a051010161079e565b612885611c99565b90611c4f565b60a051600601546001600160a01b03166128c57f692ad61076dceddd0f1a861f737553dd61fc8501cf4190d29c4e90af6607f765916106fe565b906128cf60405190565b858152602090a28151610c926128e6604085015190565b926128fd60c06128f7608088015190565b96015190565b7fd811b592ed0899225773e8933d8df64bd0b62761a9d7aad4ed5b22735f4610a49561292860405190565b9586958987611ca3565b61282e90610e60565b5060203d811161296c575b61296581612959612723936080516103f5565b60805101608051610605565b9050612714565b503d612946565b61298b9192508b3d8111610bf457610be681836103f5565b9038612697565b61299c9150610e60565b6124dc565b6129c2915060203d81116129c8575b6129ba81836103f5565b810190611330565b38612262565b503d6129b0565b6129e7915060203d8111610bc157610bb381836103f5565b38612216565b6129f6816105ed565b60206109cf6311b2eee2612a0c61203560405190565b038173__$9d824026d0515d8abd681f0f0f4707f16a$__5af4908115610bc857612a4891612a4191600091610bcd5750612f0c565b60408a0152565b612a55610a0d80836106d7565b6020612a6060405190565b638da5cb5b60e01b815291829060049082905afa908115610bc857600091612b29575b506001600160a01b031660608901908152612ab96020612ab0610a0d60018b01546001600160a01b031690565b6120ea856106d7565b03915afa8015610bc857612b0692612ae0612aed92612b0194600091612b0b575b506113dc565b516001600160a01b031690565b60408b015190610a59610100860186610728565b611428565b612172565b612b23915060203d81116129c8576129ba81836103f5565b38612ada565b612b41915060203d8111610bc157610bb381836103f5565b38612a83565b612b5f915060203d81116129c8576129ba81836103f5565b38612132565b612b7d915060203d8111610bc157610bb381836103f5565b386120b7565b610eb9565b9080821115612b95575090565b905090565b906103bb906106fe565b6001600160a01b0390911681526040810192916100aa9160200152565b90612c06612bf3836009600080516020613533833981519152612bed86612be7306106fe565b85612d5b565b01612b9a565b612c00836127508361079e565b90611a5b565b7f625fed9875dada8643f2418b838ae0bc78d9a148a18eee4ee1979ff0f3f5d42791612c3d612c3460405190565b92839283612ba4565b0390a1565b15612c4957565b60405162461bcd60e51b815260206004820152602860248201527f4965786563457363726f773a205472616e736665722066726f6d20656d707479604482015267206164647265737360c01b6064820152608490fd5b15612ca657565b60405162461bcd60e51b815260206004820152602660248201527f4965786563457363726f773a205472616e7366657220746f20656d707479206160448201526564647265737360d01b6064820152608490fd5b15612d0157565b60405162461bcd60e51b815260206004820152602c60248201527f4965786563457363726f773a205472616e7366657220616d6f756e742065786360448201526b656564732062616c616e636560a01b6064820152608490fd5b612d9a612d89612d6b60006103d6565b6100776001600160a01b0382166001600160a01b0386161415612c42565b6001600160a01b0384161415612c9f565b612e02612df5837f5862653c6982c162832160cf30593645e8487b257e44d77cdd6b51eee2651b08612df0612de688612dd6610a798986612b9a565b612de281831115612cfa565b0390565b6127698784612b9a565b612b9a565b612c008561034a8361079e565b612e42612e38612e327fddf252ad1be2c89b69c2b068fc378daa952ba7f163c4a11628f55a4df523b3ef936106fe565b936106fe565b9361023d60405190565b0390a3565b91908203918211611c6257565b9694979195939093612e64600090565b507f5862653c6982c162832160cf30593645e8487b257e44d77cdd6b51eee2651b0d978895612e9390876103b9565b612e9c9061079e565b612ea591612e47565b9660001461008399612ede610a79612eea612ee49b612ede9a610a799a612ef199612ee498612ef757610a79612ede91612ee4946103b9565b90612e47565b90612eff565b948c6103b9565b956103b9565b505050600019905b9080821015612b95575090565b61008390612f397f5862653c6982c162832160cf30593645e8487b257e44d77cdd6b51eee2651b0b61079e565b6042916040519161190160f01b8352600283015260228201522090565b6001600160e01b03198116610091565b905051906100aa82612f56565b906020828203126100985761008391612f66565b919061034081612f9e8161034a9560209181520190565b80956104ce565b90815260406020820181905261008393910191612f87565b90939293848311610098578411610098578101920390565b359060208110612fe3575090565b612ff590600019906020036008021b90565b1690565b6100839136916104da565b9290916000843b613017610a9083610e60565b116130ff57613025816103d6565b50826130316041610e60565b81036130665750506130629261304d61094e9361305393612ff9565b9061319e565b5050926001600160a01b031690565b1490565b613077610a90604096939496610e60565b036130ba57613062936130b46130a8856130539561094e976130ae6130a861309f6020610e60565b8094848a612fbd565b90612fd5565b95612fbd565b91613247565b60405162461bcd60e51b815260206004820152601860248201527f696e76616c69642d7369676e61747572652d666f726d617400000000000000006044820152606490fd5b9391613135613115610a0d6020959694966106fe565b91613140631626ba7e9161312860405190565b9788968795869560e01b90565b855260048501612fa5565b03915afa6000918161316e575b50613156575090565b630b135d3f60e11b91506001600160e01b0319161490565b61319091925060203d8111613197575b61318881836103f5565b810190612f73565b903861314d565b503d61317e565b91906000926131ab825190565b6131b8610a906041610e60565b036131ec576131e59293506131cb600090565b506020820151906060604084015193015160001a906132c6565b9192909190565b5091506131f960006103d6565b9061320c6132076002945190565b610e60565b91929190565b61008390610e60565b6132286100836100839290565b60ff1690565b61008390613242610a906100839460ff1690565b901c90565b6131e592919061329061328b6132816132716132696001600160ff1b03610e60565b871696613212565b61327b60ff61321b565b9061322e565b61034a601b610e60565b61321b565b906132c6565b611ce76100aa946132bf6060949897956132b5608086019a6000870152565b60ff166020850152565b6040830152565b90916132d184613212565b6132fd610a907f7fffffffffffffffffffffffffffffff5d576e7357a4501ddfe92f46681b20a0610e60565b1161336c579061331f6020946000949361331660405190565b94859485613296565b838052039060015afa15610bc85760005160009161333c836103d6565b6001600160a01b0381166001600160a01b0384161461335f575061320c83610e60565b915061320c600193610e60565b50505061337960006103d6565b9160039190565b6000805160206135338339815191529161339d61007760006103d6565b6001600160a01b038316141592836133b6575b50505090565b6133dc9293506133cf61094e92600c61007793016103b9565b546001600160a01b031690565b143880806133b0565b9291906133f28185613380565b938415613401575b5050505090565b61340b9450613004565b388080806133fa565b6100839081906001600160a01b031681565b6100836004610e60565b9081526040810192916100aa9160200152565b90600091613453610077846103d6565b6001600160a01b038216148015613517575b61350f57803b613477610a9085610e60565b1161348157505090565b61348f610a0d6020926106fe565b6134a86132076134a363d202158d956106f5565b613414565b906134ce6134b4613426565b946134d96134c160405190565b9687958694859460e01b90565b845260048401613430565b03915afa600091816134ef575b50612b95575090565b61350891925060203d81116129c8576129ba81836103f5565b90386134e6565b505050600190565b506001600160a01b0382166001600160a01b0382161461346556fe5862653c6982c162832160cf30593645e8487b257e44d77cdd6b51eee2651b00a26469706673582212205421a18f49cfeca9bea3abaaa63cdf82685807e09aed6de35dc04ebc25ecd3bb64736f6c63430008150033",
  "linkReferences": {
    "contracts/libs/IexecLibOrders_v5.sol": {
      "IexecLibOrders_v5": [
        {
          "length": 20,
          "start": 2494
        },
        {
          "length": 20,
          "start": 8292
        },
        {
          "length": 20,
          "start": 8640
        },
        {
          "length": 20,
          "start": 8949
        },
        {
          "length": 20,
          "start": 10800
        }
      ]
    }
  },
  "deployedLinkReferences": {
    "contracts/libs/IexecLibOrders_v5.sol": {
      "IexecLibOrders_v5": [
        {
          "length": 20,
          "start": 2462
        },
        {
          "length": 20,
          "start": 8260
        },
        {
          "length": 20,
          "start": 8608
        },
        {
          "length": 20,
          "start": 8917
        },
        {
          "length": 20,
          "start": 10768
        }
      ]
    }
  }
}