{
  "address": "0x128be96D16080ffb49AB6d381F0494fd93360a36",
  "abi": [
    {
      "inputs": [
        {
          "internalType": "contract ENS",
          "name": "ensAddr",
          "type": "address"
        },
        {
          "internalType": "bytes32",
          "name": "node",
          "type": "bytes32"
        }
      ],
      "stateMutability": "nonpayable",
      "type": "constructor"
    },
    {
      "inputs": [
        {
          "internalType": "bytes32",
          "name": "label",
          "type": "bytes32"
        },
        {
          "internalType": "address",
          "name": "owner",
          "type": "address"
        }
      ],
      "name": "register",
      "outputs": [],
      "stateMutability": "nonpayable",
      "type": "function"
    }
  ],
  "args": [
    "0x32643B79787Eb41E806d5f07d1D68121FDCF244c",
    "0xeee9453934c3673cd3b82cb3b5211f977c81a56cd2192e73bd782374f0d537e6"
  ],
  "numDeployments": 16,
  "bytecode": "0x60806040523461002b5761001a6100146100e6565b9061017d565b6040516103c461019482396103c490f35b600080fd5b634e487b7160e01b600052604160045260246000fd5b90601f01601f191681019081106001600160401b0382111761006757604052565b610030565b9061008061007960405190565b9283610046565b565b6001600160a01b031690565b90565b6001600160a01b0381165b0361002b57565b9050519061008082610091565b8061009c565b90505190610080826100b0565b919060408382031261002b5761008e906100dd81856100a3565b936020016100b6565b610104610558803803806100f98161006c565b9283398101906100c3565b9091565b906001600160a01b03905b9181191691161790565b61008e90610082906001600160a01b031682565b61008e9061011d565b61008e90610131565b9061015361008e61015a9261013a565b8254610108565b9055565b9060001990610113565b9061017661008e61015a9290565b825461015e565b9061018c610080926000610143565b600161016856fe6080604052600436101561001257600080fd5b60003560e01c63d22057a90361003057610092565b805b0361003057565b600080fd5b9050359061004282610027565b565b6001600160a01b031690565b90565b6001600160a01b038116610029565b9050359061004282610053565b919060408382031261003057610050906100898185610035565b93602001610062565b34610030576100ab6100a536600461006f565b90610384565b604051005b61005090610044906001600160a01b031682565b610050906100b0565b610050906100c4565b6100509081565b61005090546100d6565b6020816100f86100fe938396959052565b01918252565b0190565b634e487b7160e01b600052604160045260246000fd5b90601f01601f1916810190811067ffffffffffffffff82111761013a57604052565b610102565b9050519061004282610053565b90602082820312610030576100509161013f565b6040513d6000823e3d90fd5b6100446100506100509290565b6100509061016c565b1561003057565b9061021d9160206101aa6101a56000546001600160a01b031690565b6100cd565b6302571be39061020f6101bd60016100dd565b6101e56101c960405190565b80926101d98989840192836100e7565b90810382520382610118565b6101f76101f0825190565b9160200190565b209261020260405190565b9788948593849360e01b90565b835260048301526024820190565b03915afa9283156102a5576100429361025f91600091610277575b506102466100446000610179565b6001600160a01b03821614908115610264575b50610182565b6102f7565b3391506001600160a01b03161438610259565b610298915060203d811161029e575b6102908183610118565b81019061014c565b38610238565b503d610286565b610160565b9050519061004282610027565b9060208282031261003057610050916102aa565b9081526060810193926100429290916040916102e8906020830152565b01906001600160a01b03169052565b906020906103106101a56000546001600160a01b031690565b61033e60006306ab592361034961032760016100dd565b9561033160405190565b9889978896879560e01b90565b8552600485016102cb565b03925af180156102a55761035a5750565b61037a9060203d811161037d575b6103728183610118565b8101906102b7565b50565b503d610368565b906100429161018956fea2646970667358221220937ebd91cda6fe1e046e8bf8cf2bb254f81170357de87bed1973edff4bf40d7e64736f6c63430008150033",
  "deployedBytecode": "0x60806040523461002b5761001a6100146100e6565b9061017d565b6040516103c461019482396103c490f35b600080fd5b634e487b7160e01b600052604160045260246000fd5b90601f01601f191681019081106001600160401b0382111761006757604052565b610030565b9061008061007960405190565b9283610046565b565b6001600160a01b031690565b90565b6001600160a01b0381165b0361002b57565b9050519061008082610091565b8061009c565b90505190610080826100b0565b919060408382031261002b5761008e906100dd81856100a3565b936020016100b6565b610104610558803803806100f98161006c565b9283398101906100c3565b9091565b906001600160a01b03905b9181191691161790565b61008e90610082906001600160a01b031682565b61008e9061011d565b61008e90610131565b9061015361008e61015a9261013a565b8254610108565b9055565b9060001990610113565b9061017661008e61015a9290565b825461015e565b9061018c610080926000610143565b600161016856fe6080604052600436101561001257600080fd5b60003560e01c63d22057a90361003057610092565b805b0361003057565b600080fd5b9050359061004282610027565b565b6001600160a01b031690565b90565b6001600160a01b038116610029565b9050359061004282610053565b919060408382031261003057610050906100898185610035565b93602001610062565b34610030576100ab6100a536600461006f565b90610384565b604051005b61005090610044906001600160a01b031682565b610050906100b0565b610050906100c4565b6100509081565b61005090546100d6565b6020816100f86100fe938396959052565b01918252565b0190565b634e487b7160e01b600052604160045260246000fd5b90601f01601f1916810190811067ffffffffffffffff82111761013a57604052565b610102565b9050519061004282610053565b90602082820312610030576100509161013f565b6040513d6000823e3d90fd5b6100446100506100509290565b6100509061016c565b1561003057565b9061021d9160206101aa6101a56000546001600160a01b031690565b6100cd565b6302571be39061020f6101bd60016100dd565b6101e56101c960405190565b80926101d98989840192836100e7565b90810382520382610118565b6101f76101f0825190565b9160200190565b209261020260405190565b9788948593849360e01b90565b835260048301526024820190565b03915afa9283156102a5576100429361025f91600091610277575b506102466100446000610179565b6001600160a01b03821614908115610264575b50610182565b6102f7565b3391506001600160a01b03161438610259565b610298915060203d811161029e575b6102908183610118565b81019061014c565b38610238565b503d610286565b610160565b9050519061004282610027565b9060208282031261003057610050916102aa565b9081526060810193926100429290916040916102e8906020830152565b01906001600160a01b03169052565b906020906103106101a56000546001600160a01b031690565b61033e60006306ab592361034961032760016100dd565b9561033160405190565b9889978896879560e01b90565b8552600485016102cb565b03925af180156102a55761035a5750565b61037a9060203d811161037d575b6103728183610118565b8101906102b7565b50565b503d610368565b906100429161018956fea2646970667358221220937ebd91cda6fe1e046e8bf8cf2bb254f81170357de87bed1973edff4bf40d7e64736f6c6343000815003300000000000000000000000032643b79787eb41e806d5f07d1d68121fdcf244ceee9453934c3673cd3b82cb3b5211f977c81a56cd2192e73bd782374f0d537e6"
}