{
  "address": "0x9326Be6289C2e9e514cC5B1ef566f6E84EaCf554",
  "abi": [
    {
      "inputs": [
        {
          "internalType": "contract ENS",
          "name": "_ens",
          "type": "address"
        }
      ],
      "stateMutability": "nonpayable",
      "type": "constructor"
    },
    {
      "anonymous": false,
      "inputs": [
        {
          "indexed": true,
          "internalType": "bytes32",
          "name": "node",
          "type": "bytes32"
        },
        {
          "indexed": true,
          "internalType": "uint256",
          "name": "contentType",
          "type": "uint256"
        }
      ],
      "name": "ABIChanged",
      "type": "event"
    },
    {
      "anonymous": false,
      "inputs": [
        {
          "indexed": true,
          "internalType": "bytes32",
          "name": "node",
          "type": "bytes32"
        },
        {
          "indexed": false,
          "internalType": "address",
          "name": "a",
          "type": "address"
        }
      ],
      "name": "AddrChanged",
      "type": "event"
    },
    {
      "anonymous": false,
      "inputs": [
        {
          "indexed": true,
          "internalType": "bytes32",
          "name": "node",
          "type": "bytes32"
        },
        {
          "indexed": false,
          "internalType": "uint256",
          "name": "coinType",
          "type": "uint256"
        },
        {
          "indexed": false,
          "internalType": "bytes",
          "name": "newAddress",
          "type": "bytes"
        }
      ],
      "name": "AddressChanged",
      "type": "event"
    },
    {
      "anonymous": false,
      "inputs": [
        {
          "indexed": true,
          "internalType": "bytes32",
          "name": "node",
          "type": "bytes32"
        },
        {
          "indexed": true,
          "internalType": "address",
          "name": "owner",
          "type": "address"
        },
        {
          "indexed": true,
          "internalType": "address",
          "name": "target",
          "type": "address"
        },
        {
          "indexed": false,
          "internalType": "bool",
          "name": "isAuthorised",
          "type": "bool"
        }
      ],
      "name": "AuthorisationChanged",
      "type": "event"
    },
    {
      "anonymous": false,
      "inputs": [
        {
          "indexed": true,
          "internalType": "bytes32",
          "name": "node",
          "type": "bytes32"
        },
        {
          "indexed": false,
          "internalType": "bytes",
          "name": "hash",
          "type": "bytes"
        }
      ],
      "name": "ContenthashChanged",
      "type": "event"
    },
    {
      "anonymous": false,
      "inputs": [
        {
          "indexed": true,
          "internalType": "bytes32",
          "name": "node",
          "type": "bytes32"
        },
        {
          "indexed": false,
          "internalType": "bytes",
          "name": "name",
          "type": "bytes"
        },
        {
          "indexed": false,
          "internalType": "uint16",
          "name": "resource",
          "type": "uint16"
        },
        {
          "indexed": false,
          "internalType": "bytes",
          "name": "record",
          "type": "bytes"
        }
      ],
      "name": "DNSRecordChanged",
      "type": "event"
    },
    {
      "anonymous": false,
      "inputs": [
        {
          "indexed": true,
          "internalType": "bytes32",
          "name": "node",
          "type": "bytes32"
        },
        {
          "indexed": false,
          "internalType": "bytes",
          "name": "name",
          "type": "bytes"
        },
        {
          "indexed": false,
          "internalType": "uint16",
          "name": "resource",
          "type": "uint16"
        }
      ],
      "name": "DNSRecordDeleted",
      "type": "event"
    },
    {
      "anonymous": false,
      "inputs": [
        {
          "indexed": true,
          "internalType": "bytes32",
          "name": "node",
          "type": "bytes32"
        }
      ],
      "name": "DNSZoneCleared",
      "type": "event"
    },
    {
      "anonymous": false,
      "inputs": [
        {
          "indexed": true,
          "internalType": "bytes32",
          "name": "node",
          "type": "bytes32"
        },
        {
          "indexed": false,
          "internalType": "bytes",
          "name": "lastzonehash",
          "type": "bytes"
        },
        {
          "indexed": false,
          "internalType": "bytes",
          "name": "zonehash",
          "type": "bytes"
        }
      ],
      "name": "DNSZonehashChanged",
      "type": "event"
    },
    {
      "anonymous": false,
      "inputs": [
        {
          "indexed": true,
          "internalType": "bytes32",
          "name": "node",
          "type": "bytes32"
        },
        {
          "indexed": true,
          "internalType": "bytes4",
          "name": "interfaceID",
          "type": "bytes4"
        },
        {
          "indexed": false,
          "internalType": "address",
          "name": "implementer",
          "type": "address"
        }
      ],
      "name": "InterfaceChanged",
      "type": "event"
    },
    {
      "anonymous": false,
      "inputs": [
        {
          "indexed": true,
          "internalType": "bytes32",
          "name": "node",
          "type": "bytes32"
        },
        {
          "indexed": false,
          "internalType": "string",
          "name": "name",
          "type": "string"
        }
      ],
      "name": "NameChanged",
      "type": "event"
    },
    {
      "anonymous": false,
      "inputs": [
        {
          "indexed": true,
          "internalType": "bytes32",
          "name": "node",
          "type": "bytes32"
        },
        {
          "indexed": false,
          "internalType": "bytes32",
          "name": "x",
          "type": "bytes32"
        },
        {
          "indexed": false,
          "internalType": "bytes32",
          "name": "y",
          "type": "bytes32"
        }
      ],
      "name": "PubkeyChanged",
      "type": "event"
    },
    {
      "anonymous": false,
      "inputs": [
        {
          "indexed": true,
          "internalType": "bytes32",
          "name": "node",
          "type": "bytes32"
        },
        {
          "indexed": true,
          "internalType": "string",
          "name": "indexedKey",
          "type": "string"
        },
        {
          "indexed": false,
          "internalType": "string",
          "name": "key",
          "type": "string"
        }
      ],
      "name": "TextChanged",
      "type": "event"
    },
    {
      "inputs": [
        {
          "internalType": "bytes32",
          "name": "node",
          "type": "bytes32"
        },
        {
          "internalType": "uint256",
          "name": "contentTypes",
          "type": "uint256"
        }
      ],
      "name": "ABI",
      "outputs": [
        {
          "internalType": "uint256",
          "name": "",
          "type": "uint256"
        },
        {
          "internalType": "bytes",
          "name": "",
          "type": "bytes"
        }
      ],
      "stateMutability": "view",
      "type": "function"
    },
    {
      "inputs": [
        {
          "internalType": "bytes32",
          "name": "node",
          "type": "bytes32"
        }
      ],
      "name": "addr",
      "outputs": [
        {
          "internalType": "address payable",
          "name": "",
          "type": "address"
        }
      ],
      "stateMutability": "view",
      "type": "function"
    },
    {
      "inputs": [
        {
          "internalType": "bytes32",
          "name": "node",
          "type": "bytes32"
        },
        {
          "internalType": "uint256",
          "name": "coinType",
          "type": "uint256"
        }
      ],
      "name": "addr",
      "outputs": [
        {
          "internalType": "bytes",
          "name": "",
          "type": "bytes"
        }
      ],
      "stateMutability": "view",
      "type": "function"
    },
    {
      "inputs": [
        {
          "internalType": "bytes32",
          "name": "",
          "type": "bytes32"
        },
        {
          "internalType": "address",
          "name": "",
          "type": "address"
        },
        {
          "internalType": "address",
          "name": "",
          "type": "address"
        }
      ],
      "name": "authorisations",
      "outputs": [
        {
          "internalType": "bool",
          "name": "",
          "type": "bool"
        }
      ],
      "stateMutability": "view",
      "type": "function"
    },
    {
      "inputs": [
        {
          "internalType": "bytes32",
          "name": "node",
          "type": "bytes32"
        }
      ],
      "name": "clearDNSZone",
      "outputs": [],
      "stateMutability": "nonpayable",
      "type": "function"
    },
    {
      "inputs": [
        {
          "internalType": "bytes32",
          "name": "node",
          "type": "bytes32"
        }
      ],
      "name": "contenthash",
      "outputs": [
        {
          "internalType": "bytes",
          "name": "",
          "type": "bytes"
        }
      ],
      "stateMutability": "view",
      "type": "function"
    },
    {
      "inputs": [
        {
          "internalType": "bytes32",
          "name": "node",
          "type": "bytes32"
        },
        {
          "internalType": "bytes32",
          "name": "name",
          "type": "bytes32"
        },
        {
          "internalType": "uint16",
          "name": "resource",
          "type": "uint16"
        }
      ],
      "name": "dnsRecord",
      "outputs": [
        {
          "internalType": "bytes",
          "name": "",
          "type": "bytes"
        }
      ],
      "stateMutability": "view",
      "type": "function"
    },
    {
      "inputs": [
        {
          "internalType": "bytes32",
          "name": "node",
          "type": "bytes32"
        },
        {
          "internalType": "bytes32",
          "name": "name",
          "type": "bytes32"
        }
      ],
      "name": "hasDNSRecords",
      "outputs": [
        {
          "internalType": "bool",
          "name": "",
          "type": "bool"
        }
      ],
      "stateMutability": "view",
      "type": "function"
    },
    {
      "inputs": [
        {
          "internalType": "bytes32",
          "name": "node",
          "type": "bytes32"
        },
        {
          "internalType": "bytes4",
          "name": "interfaceID",
          "type": "bytes4"
        }
      ],
      "name": "interfaceImplementer",
      "outputs": [
        {
          "internalType": "address",
          "name": "",
          "type": "address"
        }
      ],
      "stateMutability": "view",
      "type": "function"
    },
    {
      "inputs": [
        {
          "internalType": "bytes[]",
          "name": "data",
          "type": "bytes[]"
        }
      ],
      "name": "multicall",
      "outputs": [
        {
          "internalType": "bytes[]",
          "name": "results",
          "type": "bytes[]"
        }
      ],
      "stateMutability": "nonpayable",
      "type": "function"
    },
    {
      "inputs": [
        {
          "internalType": "bytes32",
          "name": "node",
          "type": "bytes32"
        }
      ],
      "name": "name",
      "outputs": [
        {
          "internalType": "string",
          "name": "",
          "type": "string"
        }
      ],
      "stateMutability": "view",
      "type": "function"
    },
    {
      "inputs": [
        {
          "internalType": "bytes32",
          "name": "node",
          "type": "bytes32"
        }
      ],
      "name": "pubkey",
      "outputs": [
        {
          "internalType": "bytes32",
          "name": "x",
          "type": "bytes32"
        },
        {
          "internalType": "bytes32",
          "name": "y",
          "type": "bytes32"
        }
      ],
      "stateMutability": "view",
      "type": "function"
    },
    {
      "inputs": [
        {
          "internalType": "bytes32",
          "name": "node",
          "type": "bytes32"
        },
        {
          "internalType": "uint256",
          "name": "contentType",
          "type": "uint256"
        },
        {
          "internalType": "bytes",
          "name": "data",
          "type": "bytes"
        }
      ],
      "name": "setABI",
      "outputs": [],
      "stateMutability": "nonpayable",
      "type": "function"
    },
    {
      "inputs": [
        {
          "internalType": "bytes32",
          "name": "node",
          "type": "bytes32"
        },
        {
          "internalType": "uint256",
          "name": "coinType",
          "type": "uint256"
        },
        {
          "internalType": "bytes",
          "name": "a",
          "type": "bytes"
        }
      ],
      "name": "setAddr",
      "outputs": [],
      "stateMutability": "nonpayable",
      "type": "function"
    },
    {
      "inputs": [
        {
          "internalType": "bytes32",
          "name": "node",
          "type": "bytes32"
        },
        {
          "internalType": "address",
          "name": "a",
          "type": "address"
        }
      ],
      "name": "setAddr",
      "outputs": [],
      "stateMutability": "nonpayable",
      "type": "function"
    },
    {
      "inputs": [
        {
          "internalType": "bytes32",
          "name": "node",
          "type": "bytes32"
        },
        {
          "internalType": "address",
          "name": "target",
          "type": "address"
        },
        {
          "internalType": "bool",
          "name": "isAuthorised",
          "type": "bool"
        }
      ],
      "name": "setAuthorisation",
      "outputs": [],
      "stateMutability": "nonpayable",
      "type": "function"
    },
    {
      "inputs": [
        {
          "internalType": "bytes32",
          "name": "node",
          "type": "bytes32"
        },
        {
          "internalType": "bytes",
          "name": "hash",
          "type": "bytes"
        }
      ],
      "name": "setContenthash",
      "outputs": [],
      "stateMutability": "nonpayable",
      "type": "function"
    },
    {
      "inputs": [
        {
          "internalType": "bytes32",
          "name": "node",
          "type": "bytes32"
        },
        {
          "internalType": "bytes",
          "name": "data",
          "type": "bytes"
        }
      ],
      "name": "setDNSRecords",
      "outputs": [],
      "stateMutability": "nonpayable",
      "type": "function"
    },
    {
      "inputs": [
        {
          "internalType": "bytes32",
          "name": "node",
          "type": "bytes32"
        },
        {
          "internalType": "bytes4",
          "name": "interfaceID",
          "type": "bytes4"
        },
        {
          "internalType": "address",
          "name": "implementer",
          "type": "address"
        }
      ],
      "name": "setInterface",
      "outputs": [],
      "stateMutability": "nonpayable",
      "type": "function"
    },
    {
      "inputs": [
        {
          "internalType": "bytes32",
          "name": "node",
          "type": "bytes32"
        },
        {
          "internalType": "string",
          "name": "name",
          "type": "string"
        }
      ],
      "name": "setName",
      "outputs": [],
      "stateMutability": "nonpayable",
      "type": "function"
    },
    {
      "inputs": [
        {
          "internalType": "bytes32",
          "name": "node",
          "type": "bytes32"
        },
        {
          "internalType": "bytes32",
          "name": "x",
          "type": "bytes32"
        },
        {
          "internalType": "bytes32",
          "name": "y",
          "type": "bytes32"
        }
      ],
      "name": "setPubkey",
      "outputs": [],
      "stateMutability": "nonpayable",
      "type": "function"
    },
    {
      "inputs": [
        {
          "internalType": "bytes32",
          "name": "node",
          "type": "bytes32"
        },
        {
          "internalType": "string",
          "name": "key",
          "type": "string"
        },
        {
          "internalType": "string",
          "name": "value",
          "type": "string"
        }
      ],
      "name": "setText",
      "outputs": [],
      "stateMutability": "nonpayable",
      "type": "function"
    },
    {
      "inputs": [
        {
          "internalType": "bytes32",
          "name": "node",
          "type": "bytes32"
        },
        {
          "internalType": "bytes",
          "name": "hash",
          "type": "bytes"
        }
      ],
      "name": "setZonehash",
      "outputs": [],
      "stateMutability": "nonpayable",
      "type": "function"
    },
    {
      "inputs": [
        {
          "internalType": "bytes4",
          "name": "interfaceID",
          "type": "bytes4"
        }
      ],
      "name": "supportsInterface",
      "outputs": [
        {
          "internalType": "bool",
          "name": "",
          "type": "bool"
        }
      ],
      "stateMutability": "pure",
      "type": "function"
    },
    {
      "inputs": [
        {
          "internalType": "bytes32",
          "name": "node",
          "type": "bytes32"
        },
        {
          "internalType": "string",
          "name": "key",
          "type": "string"
        }
      ],
      "name": "text",
      "outputs": [
        {
          "internalType": "string",
          "name": "",
          "type": "string"
        }
      ],
      "stateMutability": "view",
      "type": "function"
    },
    {
      "inputs": [
        {
          "internalType": "bytes32",
          "name": "node",
          "type": "bytes32"
        }
      ],
      "name": "zonehash",
      "outputs": [
        {
          "internalType": "bytes",
          "name": "",
          "type": "bytes"
        }
      ],
      "stateMutability": "view",
      "type": "function"
    }
  ],
  "args": [
    "0xf22C8889C06F3f9206b92b6A8e7f9B763Bd86974"
  ],
  "numDeployments": 1,
  "bytecode": "0x60806040523462000030576200001e62000018620000d3565b62000156565b604051612c1f620001648239612c1f90f35b600080fd5b634e487b7160e01b600052604160045260246000fd5b90601f01601f191681019081106001600160401b038211176200006d57604052565b62000035565b906200008a6200008260405190565b92836200004b565b565b6001600160a01b031690565b90565b6001600160a01b038116036200003057565b905051906200008a826200009b565b9060208282031262000030576200009891620000ad565b6200009862002d8380380380620000ea8162000073565b928339810190620000bc565b62000098906200008c906001600160a01b031682565b6200009890620000f6565b62000098906200010c565b906200013662000098620001529262000117565b82546001600160a01b0319166001600160a01b03919091161790565b9055565b6200008a90600b6200012256fe6080604052600436101561001257600080fd5b60003560e01c806301ffc9a7146101b25780630af179d7146101ad57806310f13a8c146101a8578063124a319c146101a35780632203ab561461019e57806329cd62ea14610199578063304e6ade146101945780633b3b57de1461018f5780633e9ce7941461018a5780634cbf6ba41461018557806359d1d43c146101805780635c98042b1461017b578063623195b014610176578063691f343114610171578063773722131461016c5780638b95dd7114610167578063a8fa568214610162578063ac9650d81461015d578063ad5780af14610158578063bc1c58d114610153578063c86902331461014e578063ce3decdc14610149578063d5fa2b0014610144578063e59d895d1461013f578063f1cb7e061461013a5763f86bc879036101ca57610ac0565b6109ff565b6109e6565b61099d565b610961565b610933565b610905565b6108ed565b6108c5565b6107ce565b61076e565b610652565b610637565b61061b565b6105bf565b610597565b61056a565b610551565b6104d5565b6104a8565b61048f565b610430565b610363565b610318565b6102a6565b6101f9565b6001600160e01b031981165b036101ca57565b600080fd5b905035906101dc826101b7565b565b906020828203126101ca576101f2916101cf565b90565b9052565b346101ca5761022761021461020f3660046101de565b610d72565b6040515b91829182901515815260200190565b0390f35b806101c3565b905035906101dc8261022b565b909182601f830112156101ca578135916001600160401b0383116101ca5760200192600183028401116101ca57565b9190916040818403126101ca576102848382610231565b9260208201356001600160401b0381116101ca576102a2920161023e565b9091565b346101ca576102bf6102b936600461026d565b916118af565b604051005b6060818303126101ca576102d88282610231565b9260208201356001600160401b0381116101ca57836102f891840161023e565b92909360408201356001600160401b0381116101ca576102a2920161023e565b346101ca576102bf61032b3660046102c4565b9392909261295f565b91906040838203126101ca576101f29061034e8185610231565b936020016101cf565b6001600160a01b031690565b346101ca5761022761037f610379366004610334565b90612451565b6040515b918291826001600160a01b03909116815260200190565b91906040838203126101ca576101f2906103b48185610231565b93602001610231565b60005b8381106103d05750506000910152565b81810151838201526020016103c0565b61040161040a602093610414936103f5815190565b80835293849260200190565b958691016103bd565b601f01601f191690565b0190565b9081526040602082018190526101f2929101906103e0565b346101ca5761044961044336600461039a565b90611232565b9061022761045660405190565b92839283610418565b90916060828403126101ca576101f26104788484610231565b936104868160208601610231565b93604001610231565b346101ca576102bf6104a236600461045f565b9161287d565b346101ca576102bf6104bb36600461026d565b91611641565b906020828203126101ca576101f291610231565b346101ca5761022761037f6104eb3660046104c1565b611389565b6001600160a01b0381166101c3565b905035906101dc826104f0565b8015156101c3565b905035906101dc8261050c565b90916060828403126101ca576101f261053a8484610231565b9361054881602086016104ff565b93604001610514565b346101ca576102bf610564366004610521565b91610b06565b346101ca5761022761021461058036600461039a565b90611dce565b60208082526101f2929101906103e0565b346101ca576102276105b36105ad36600461026d565b9161296c565b60405191829182610586565b346101ca576102276105b36105d53660046104c1565b611f4d565b916060838303126101ca576105ef8284610231565b926105fd8360208301610231565b9260408201356001600160401b0381116101ca576102a2920161023e565b346101ca576102bf61062e3660046105da565b92919091611016565b346101ca576102276105b361064d3660046104c1565b6127a3565b346101ca576102bf61066536600461026d565b91612706565b634e487b7160e01b600052604160045260246000fd5b90601f01601f191681019081106001600160401b038211176106a257604052565b61066b565b906101dc6106b460405190565b9283610681565b6001600160401b0381116106a257602090601f01601f19160190565b90826000939282370152565b909291926106f86106f3826106bb565b6106a7565b938185526020850190828401116101ca576101dc926106d7565b9080601f830112156101ca578160206101f2933591016106e3565b916060838303126101ca576107428284610231565b926107508360208301610231565b9260408201356001600160401b0381116101ca576101f29201610712565b346101ca576102bf61078136600461072d565b9161158d565b61ffff81166101c3565b905035906101dc82610787565b90916060828403126101ca576101f26107b78484610231565b936107c58160208601610231565b93604001610791565b346101ca576102276105b36107e436600461079e565b91611d7a565b909182601f830112156101ca578135916001600160401b0383116101ca5760200192602083028401116101ca57565b906020828203126101ca5781356001600160401b0381116101ca576102a292016107ea565b906101f2916103e0565b9061085e610854835190565b8083529160200190565b90816108706020830284019460200190565b926000915b83831061088457505050505090565b909192939460206108a76108a08385600195038752895161083e565b9760200190565b9301930191939290610875565b60208082526101f292910190610848565b346101ca576102276108e16108db366004610819565b90610cdd565b604051918291826108b4565b346101ca576102bf6109003660046104c1565b611e9e565b346101ca576102276105b361091b3660046104c1565b61164c565b9081526040810192916101dc9160200152565b346101ca5761094b6109463660046104c1565b612888565b9061022761095860405190565b92839283610920565b346101ca576102bf61097436600461026d565b91611f42565b91906040838203126101ca576101f2906109948185610231565b936020016104ff565b346101ca576102bf6109b036600461097a565b9061131f565b90916060828403126101ca576101f26109cf8484610231565b936109dd81602086016101cf565b936040016104ff565b346101ca576102bf6109f93660046109b6565b91612406565b346101ca576102276105b3610a1536600461039a565b90611598565b90916060828403126101ca576101f2610a348484610231565b936109dd81602086016104ff565b905b600052602052604060002090565b6101f290610357906001600160a01b031682565b6101f290610a52565b6101f290610a66565b90610a4490610a6f565b6101f2916008021c5b60ff1690565b906101f29154610a82565b906101f292610ab6610abb92610ab6600c95600096610a42565b610a78565b610a91565b346101ca57610227610214610ad6366004610a1b565b91610a9c565b9060ff905b9181191691161790565b90610afb6101f2610b0292151590565b8254610adc565b9055565b610b1181600c610a42565b90610b2a84610b2585610ab6338097610a78565b610aeb565b610b6b610b61610b5b610b5b7fe1c5610a6e0cbe10764ecd182adcef1ec338dc4e199c99c32ce98f38e12791df9490565b94610a6f565b9461021860405190565b0390a4565b6001600160401b0381116106a25760208091020190565b90610b946106f383610b70565b918252565b60005b828110610ba857505050565b606082820152602001610b9c565b906101dc610bcc610bc684610b87565b93610b70565b601f190160208401610b99565b6101f26101f26101f29290565b634e487b7160e01b600052601160045260246000fd5b6000198114610c0b5760010190565b610be6565b634e487b7160e01b600052603260045260246000fd5b903590601e1936829003018212156101ca57018035906001600160401b0382116101ca57602001913682900383136101ca57565b90821015610c715760206102a29202810190610c26565b610c10565b909161041490839080936106d7565b90916101f292610c76565b90610b946106f3836106bb565b3d15610cb757610cac3d610c90565b903d6000602084013e565b606090565b156101ca57565b90610ccc825190565b811015610c71576020809102010190565b90918291610cea83610bb6565b93600092610cf784610bd9565b855b811015610d6a57610d63610cf9918680610d1230610a6f565b610d1d84898b610c5a565b90610d33610d2a60405190565b92839283610c85565b03915af4610d48610d42610c9d565b91610cbc565b610d52828b610cc3565b52610d5d818a610cc3565b50610bfc565b9050610cf7565b509350505050565b6101f290612995565b906101dc939291610d93610d8e82611075565b610cbc565b610f85565b91908203918211610c0b57565b90610a4490610bd9565b634e487b7160e01b600052600060045260246000fd5b634e487b7160e01b600052602260045260246000fd5b9060016002830492168015610dfb575b6020831014610df657565b610dc5565b91607f1691610deb565b9160001960089290920291821b911b610ae1565b9190610e2a6101f2610b0293610bd9565b908354610e05565b6101dc91600091610e19565b818110610e49575050565b80610e576000600193610e32565b01610e3e565b9190601f8111610e6c57505050565b610e7e6101dc93600052602060002090565b906020601f840181900483019310610ea1575b6020601f909101045b0190610e3e565b9091508190610e91565b600019600883021c1916906002021790565b91906001600160401b0382116106a257610ee182610edb8554610ddb565b85610e5d565b600090601f8311600114610f0f57610b02929160009183610f04575b5050610eab565b013590503880610efd565b601f19831691610f2485600052602060002090565b92815b818110610f6257509160029391856001969410610f48575b50505002019055565b0135600019601f84166008021c19165b9055388080610f3f565b91936020600181928787013581550195019201610f27565b906101dc9291610ebd565b92610fd39192610fce84610fc98782610fa7610fa16001610bd9565b82610d98565b16610fc4600091610fbe610fba84610bd9565b9190565b14610cbc565b610a42565b610da5565b610f7a565b611004610ffe7faa121bbeef5f32f5961a2a28966e769023910fc9479059ee3495d4c1a696efe39390565b91610bd9565b9161100e60405190565b80805b0390a3565b906101dc939291610d7b565b6101f290610357565b6101f29054611022565b905051906101dc826104f0565b906020828203126101ca576101f291611035565b6040513d6000823e3d90fd5b6101f290610a8b565b6101f29054611062565b6110a4602061108c611087600b61102b565b610a6f565b6302571be39061109b60405190565b93849260e01b90565b82526004820185905260249082905afa90811561113357600091611105575b503390816001600160a01b038216149283156110e0575b50505090565b6110fd93506110f89291610ab6610ab692600c610a42565b61106b565b3880806110da565b611126915060203d811161112c575b61111e8183610681565b810190611042565b386110c3565b503d611114565b611056565b610a8b6101f26101f29290565b6101f290611159610fba6101f29460ff1690565b901b90565b6101f29054610ddb565b8054600093929161118561117b83610ddb565b8085529360200190565b91600181169081156111d7575060011461119e57505050565b6111b19192939450600052602060002090565b916000925b8184106111c35750500190565b8054848401526020909301926001016111b6565b92949550505060ff1916825215156020020190565b906101f291611168565b906101dc6112109261120760405190565b938480926111ec565b0383610681565b6101f2906111f6565b6101f26000610c90565b6101f2611220565b919061124060009384610a42565b6001918261124d81610bd9565b905b611269575b50505050610fba61126361122a565b92610bd9565b8181116112e55781811661127f610fba88610bd9565b1415806112c0575b6112a957906112a184939261129b85611138565b90611145565b90919261124f565b9450506101f29150836112bb91610da5565b611217565b506112d36112ce8285610da5565b61115e565b6112df610fba88610bd9565b11611287565b611254565b906101dc916112fb610d8e82611075565b61130a565b6101f2603c610bd9565b6101dc91610781611319611300565b91611351565b906101dc916112ea565b369037565b906101dc61134461133e84610c90565b936106bb565b601f190160208401611329565b9061136461135f6014610bd9565b61132e565b600160601b9092026020830152565b6103576101f26101f29290565b6101f290611373565b61139590610a15611300565b80516000906113a6610fba83610bd9565b146113b557506101f2906113bf565b6101f29150611380565b6113d76113ca825190565b610fbe610fba6014610bd9565b60200151600160601b900490565b906101dc92916113f7610d8e82611075565b6114d7565b6101f590610a6f565b6020810192916101dc91906113fc565b9061141e815190565b906001600160401b0382116106a25761143b82610edb8554610ddb565b602090601f831160011461146857610b0292916000918361145d575050610eab565b015190503880610efd565b601f1983169161147d85600052602060002090565b9260005b8181106114b5575091600293918560019694106114a15750505002019055565b01516000196008601f8516021c1916610f58565b91936020600181928787015181550195019201611481565b906101dc91611415565b6101dc9291610fc961153f927f65412581168e88a1e60c6459d7f44ae83ad0832e670826c05a4e2476b57af75261150b8290565b809161151660405190565b806115228a8983610418565b0390a26115306101f2611300565b8414611544575b506001610a42565b6114cd565b61154d866113bf565b6115847f52d7d861f09ab3d26239d492e8968629f95e9e318cf0b73bfddc441522a15fd29161157b60405190565b91829182611405565b0390a238611537565b906101dc92916113e5565b6101f291610fc96112bb92611537606090565b906101dc92916115bd610d8e82611075565b6115f1565b919061040a816115d9816104149560209181520190565b80956106d7565b60208082526101f2939101916115c2565b90916116038184610fce856002610a42565b7fe379c1624ed7e714cc0937528a32359d69d5281337765313dba4e081b72d7578915b9261163c61163360405190565b928392836115e0565b0390a2565b906101dc92916115ab565b6112bb6101f29161165b606090565b506002610a42565b906101dc9291611675610d8e82611075565b6116c3565b6116876101f26101f29290565b61ffff1690565b6101f29136916106e3565b6104146116b1926020926116ab815190565b94859290565b938491016103bd565b6101f291611699565b909291926000916116d38361167a565b946116dd84610bd9565b94606096876116f5886116f0868961168e565b61199d565b985b6117076117038b6119bf565b1590565b15611847576117158861167a565b61ffff84160361179057505050604087015161ffff169561173588611c2c565b8061175e61174260405190565b80926117526020830191826116ba565b90810382520382610681565b611770611769825190565b9160200190565b205061177b89611d28565b925b6117868a6119f2565b92909791976116f7565b909289989298506117a08a611c2c565b60408b016117b3611687825161ffff1690565b61ffff8c1614158015611834575b6117cd575b505061177d565b929194879a91949a5060208c019a6117e38c5190565b816117ed91610d98565b91516117f88c610bd9565b1492611804898c61168e565b9061180f958b6121ac565b5161ffff1696519080611820815190565b5061182c905089611d28565b9238806117c6565b5061184261170383866118ba565b6117c1565b91929850949596939296611859825190565b611865610fba83610bd9565b11611875575b5050505050505050565b6118a29761189c91611895610fba6112636118908a86610d98565b9a5190565b149761168e565b926121ac565b388080808080808061186b565b906101dc9291611663565b9081516118cb610fba6101f2845190565b1491826118d757505090565b6101f292506000916118f06118ea835190565b93610bd9565b80929361191893611912826101f294610fba969861190c600090565b50611929565b95611929565b1490565b91908201809211610c0b57565b60209061194e611939858561191c565b611947610fba6101f2855190565b1115610cbc565b01012090565b6101f260e06106a7565b611966611954565b906060825260208080808080808801600081520160008152016000815201600081520160008152016000905250565b6101f261195e565b91906101dc906119ba6119ae611995565b948552849160c0830152565b6119f2565b6119dc610fba6101f260006119d5602086015190565b9401515190565b101590565b6101f26101f26101f29261ffff1690565b60c08101906119ff825190565b91611a0c60208301938452565b8251926000830193611a23610fba6101f287515190565b1015611b00576101dc93611af0611a98611a5c611afb94611a56611a45825190565b91611a508751915190565b90611b75565b9061191c565b92611a76611a6b858351611b06565b61ffff166040890152565b611ae9611ae4611adc611ab7600297611a8e89610bd9565b968791829061191c565b611ab28d6060611aa9848b51611b06565b61ffff16910152565b61191c565b611ad2611ac5828751611b2a565b63ffffffff1660808d0152565b611a566004610bd9565b809351611b06565b6119e1565b935061191c565b611ab28160a0870152565b915052565b50505050565b61ffff9190600290611b23611939611b1d84610bd9565b8561191c565b0101511690565b63ffffffff9190600490611b23611939611b1d84610bd9565b634e487b7160e01b600052600160045260246000fd5b15611b6057565b611b43565b6101f26101f26101f29260ff1690565b90805b8251600191611bb091611b8c908210611b59565b611a56611baa611ba4611b9f8489611c00565b611b65565b94610bd9565b8461191c565b90611bbe610fba6000610bd9565b03611b78576101f29250610d98565b90611bd6825190565b811015610c71570160200190565b610a8b6101f26101f29260ff1690565b6101f29060f81c611be4565b611c196101f292611c2792611c13600090565b50611bcd565b516001600160f81b03191690565b611bf4565b6101f290805190611c4e81611a5060208201611c46815190565b945192505190565b915b90916101f291611c63611939838661191c565b611c6c8261132e565b93602080860192010190611c8e565b90611c89610fba6101f29390565b900a90565b9190915b602092611c9e84610bd9565b8310611ce357611cdc9181611ccb92518252611cc4611cbc87610bd9565b92839061191c565b955061191c565b91611cd66020610bd9565b90610d98565b9091611c92565b91611d1a919350611d0b90611d06610ffe61010092611d026020610bd9565b0390565b611c7b565b611d156001610bd9565b900390565b905182518216911916179052565b805160a0820180516101f293611c4e91611cd69093611d4860c084015190565b92505190565b6101f29081565b6101f29054611d4e565b6116876101f26101f29261ffff1690565b90610a4490611d5f565b91611db66112bb92610fc46101f295611d91606090565b50611db0611dab611da3836005610a42565b926004610a42565b611d55565b90610da5565b611d70565b6101f290611687565b6101f29054611dbb565b611df891610fc4611df392611de1600090565b50611db0611dab611da3836006610a42565b611dc4565b611e0d611e05600061167a565b9161ffff1690565b141590565b6101dc90611e22610d8e82611075565b611e48565b9060001990610ae1565b90611e416101f2610b0292610bd9565b8254611e27565b611e6d611e56826004610a42565b611e67611e6282611d55565b610bfc565b90611e31565b7fb757169b8492ca2f1c6619d9d76ce22803035c3b1d5f6930dffe7b127c1a1983611e9760405190565b808061163c565b6101dc90611e12565b906101dc9291611eb9610d8e82611075565b611ee5565b60408082526101f29491939192611ed7918501906103e0565b9260208185039101526115c2565b906003611f048483610fce86611efe6112bb8288610a42565b95610a42565b61163c611f2f7f8f15ed4b723ef428f250961da8315675b507046737e19319fc1a4d81bfe87f859490565b94611f3960405190565b93849384611ebe565b906101dc9291611ea7565b6112bb6101f291611f5c606090565b506003610a42565b61ffff1661ffff8114610c0b5760010190565b9061ffff90610ae1565b90611f916101f2610b0292611d5f565b8254611f77565b60608082526101f29492611fc091611fb391908401906103e0565b61ffff9094166020830152565b60408184039101526103e0565b61ffff168015610c0b576000190190565b90611ff190600019906020036008021c90565b8154169055565b9060009161201661200e82600052602060002090565b928354610eab565b905555565b919290602082101561207357601f841160011461203d57610b02929350610eab565b509061206e6101dc93600161206561205a85600052602060002090565b92601f602091010490565b82019101610e3e565b611ff8565b506120ac829361208a600194600052602060002090565b610e9a6020601f860104820192601f8616806120b4575b50601f602091010490565b600202179055565b6120c090888603611fde565b386120a1565b9290916801000000000000000082116106a257602011156121125760208110156120f357610b0291610eab565b60019160ff191661210984600052602060002090565b55600202019055565b60019150600202019055565b90815461212a81610ddb565b90818311612152575b8183106121405750505050565b6121499361201b565b38808080611b00565b61215e838383876120c6565b612133565b60006101dc9161211e565b9060000361217f576101dc90612163565b610daf565b929160206121a16101dc93604087019087820360008901526103e0565b94019061ffff169052565b946121da90969196949392946121c6611dab886004610a42565b946121cf895190565b60208a012094611c50565b90156122ab5750838360056121ef8382610a42565b856121f991610da5565b8461220391610a42565b8261220d91611d70565b6122169061115e565b9360009461222386610bd9565b141561224696610fc961224196611db695610fc49461227e57610a42565b61216e565b7f03528ed0c2a3ebc993b12ce3c16bb382f9c7d88ef7d8a1bf290eaf35955a1207919261163c61227560405190565b92839283612184565b610fc461229487610fc487610fc9876006610a42565b6122a56122a082611dc4565b611fcd565b90611f81565b61153f84611db66122f294610fc4859a97610fc98b60056122db6112ce89611db689610fc489610fc98989610a42565b6122e8610fba6000610bd9565b1461233057610a42565b61163c61231d7f52a608b3303a48862d07a73d82fa221318c0027fbbcfb1b2329bface3f19ff2b9490565b9461232760405190565b93849384611f98565b610fc461234687610fc487610fc9876006610a42565b6122a561235282611dc4565b611f64565b906101dc9291612369610d8e82611075565b6123ab565b6001600160e01b03191690565b90610a449061236e565b906001600160a01b0390610ae1565b906123a46101f2610b0292610a6f565b8254612385565b6123c8836123c3846123be856007610a42565b61237b565b612394565b6110116123fc6123f67f7c69f06bea0bdef565b709e93a147836b0063ba2dd89f02d0b7e8d931e6a6daa9390565b9361236e565b9361038360405190565b906101dc9291612357565b61236e61241e6101f29290565b60e01b90565b6101f26301ffc9a7612411565b61244461243e6101f29290565b60f81b90565b6001600160f81b03191690565b612468612463836123be846007610a42565b61102b565b9060009061247582611380565b926001600160a01b0384166001600160a01b0382160361260e575061249d9061108790611389565b926001600160a01b0383166001600160a01b038516146125c75781806124f36125026124c7612424565b6040515b6301ffc9a760e01b6020820152928391602483016001600160e01b0319909116815260200190565b60208201810382520382610681565b805190602001875afa61251b612516610c9d565b911590565b9081156125f5575b81156125cf575b506125c757816124f361254182936124cb60405190565b805190602001865afa612555612516610c9d565b9081156125ae575b8115612574575b5061256e57505090565b50919050565b61258d9150611c1990612587601f610bd9565b90611bcd565b6125a761259983612431565b916001600160f81b03191690565b1438612564565b80519091506125c0610fba6020610bd9565b109061255d565b509091505090565b6125e29150611c1990612587601f610bd9565b6125ee61259984612431565b143861252a565b8051909150612607610fba6020610bd9565b1090612523565b935050505090565b906101dc9291612628610d8e82611075565b6126c8565b91906001600160401b0382116106a25761264b82610edb8554610ddb565b600090601f831160011461266d57610b02929160009183610f04575050610eab565b601f1983169161268285600052602060002090565b92815b8181106126a557509160029391856001969410610f485750505002019055565b91936020600181928787013581550195019201612685565b906101dc929161262d565b90916126df81846126da856008610a42565b6126bd565b7fb7d29e911041e8d9b843369e890bcb72c9388692ba48b65ac54e7214c4c348f791611626565b906101dc9291612616565b8054600093929161272461117b83610ddb565b91600181169081156111d7575060011461273d57505050565b6127509192939450600052602060002090565b916000925b8184106127625750500190565b805484840152602090930192600101612755565b906101f291612711565b906101dc6112109261279160405190565b93848092612776565b6101f290612780565b6127ba6101f2916127b2606090565b506008610a42565b61279a565b906101dc92916127d1610d8e82611075565b61281e565b6101f260406106a7565b90611e416101f2610b029290565b6101dc91906128079060209060019061280d8185875190565b906127e0565b0192015190565b906101dc916127ee565b909161284e61282b6127d6565b612833858252565b61283e836020830152565b612849846009610a42565b612814565b7f1d6f5e03d3f63eb58751986629a5439baee5079ff04f345becb66e23eb154e46919261163c61095860405190565b906101dc92916127bf565b906101f260016128a3600994611efe60006128a38389610a42565b01611d55565b906101dc949392916128bd610d8e82611075565b612908565b610b94906020949361041493610c76565b90916128eb906128e260405190565b938493846128c2565b03902090565b90916101f2926128d3565b6128eb610d2a60405190565b91929361292591946126da858761292087600a610a42565b6128f1565b7fd8c9334b1a9c2f9da342a0a2b32629c1a229b6445dad78947f674b44444a7550909161295281856128fc565b9361101161163360405190565b906101dc949392916128a9565b916127ba916129206101f294612980606090565b50600a610a42565b6101f26359d1d43c612411565b6129a061236e612988565b6001600160e01b03198216149081156129b7575090565b6101f291506129ce565b6101f263c8690233612411565b6129d961236e6129c1565b6001600160e01b03198216149081156129f0575090565b6101f29150612a07565b6101f263691f3431612411565b612a1261236e6129fa565b6001600160e01b0319821614908115612a29575090565b6101f29150612a5c565b6101f27f124a319c1247f4318c3c16c7e9cc865d0fb5d80d7bf02f56cafc0d14da02085061236e565b612a6761236e612a33565b6001600160e01b0319821614908115612a7e575090565b6101f29150612aa2565b6101f263a8fa5682612411565b6101f2635c47637c612411565b612aad61236e612a88565b6001600160e01b0319821614908115612ad5575b8115612acb575090565b6101f29150612b01565b9050612ae261236e612a95565b6001600160e01b031982161490612ac1565b6101f263bc1c58d1612411565b612b0c61236e612af4565b6001600160e01b0319821614908115612b23575090565b6101f29150612b47565b6101f2633b3b57de612411565b6101f263f1cb7e06612411565b612b5261236e612b2d565b6001600160e01b0319821614908115612b7a575b8115612b70575090565b6101f29150612ba6565b9050612b8761236e612b3a565b6001600160e01b031982161490612b66565b6101f2632203ab56612411565b612bb161236e612b99565b6001600160e01b0319821614908115612bc8575090565b6101f29150611918612bdb61236e612424565b916001600160e01b0319169056fea2646970667358221220b6a1f42f5154996e5e82899da1eb236475df66ad0ec98548ef3420672caa93f964736f6c63430008150033",
  "deployedBytecode": "0x60806040523462000030576200001e62000018620000d3565b62000156565b604051612c1f620001648239612c1f90f35b600080fd5b634e487b7160e01b600052604160045260246000fd5b90601f01601f191681019081106001600160401b038211176200006d57604052565b62000035565b906200008a6200008260405190565b92836200004b565b565b6001600160a01b031690565b90565b6001600160a01b038116036200003057565b905051906200008a826200009b565b9060208282031262000030576200009891620000ad565b6200009862002d8380380380620000ea8162000073565b928339810190620000bc565b62000098906200008c906001600160a01b031682565b6200009890620000f6565b62000098906200010c565b906200013662000098620001529262000117565b82546001600160a01b0319166001600160a01b03919091161790565b9055565b6200008a90600b6200012256fe6080604052600436101561001257600080fd5b60003560e01c806301ffc9a7146101b25780630af179d7146101ad57806310f13a8c146101a8578063124a319c146101a35780632203ab561461019e57806329cd62ea14610199578063304e6ade146101945780633b3b57de1461018f5780633e9ce7941461018a5780634cbf6ba41461018557806359d1d43c146101805780635c98042b1461017b578063623195b014610176578063691f343114610171578063773722131461016c5780638b95dd7114610167578063a8fa568214610162578063ac9650d81461015d578063ad5780af14610158578063bc1c58d114610153578063c86902331461014e578063ce3decdc14610149578063d5fa2b0014610144578063e59d895d1461013f578063f1cb7e061461013a5763f86bc879036101ca57610ac0565b6109ff565b6109e6565b61099d565b610961565b610933565b610905565b6108ed565b6108c5565b6107ce565b61076e565b610652565b610637565b61061b565b6105bf565b610597565b61056a565b610551565b6104d5565b6104a8565b61048f565b610430565b610363565b610318565b6102a6565b6101f9565b6001600160e01b031981165b036101ca57565b600080fd5b905035906101dc826101b7565b565b906020828203126101ca576101f2916101cf565b90565b9052565b346101ca5761022761021461020f3660046101de565b610d72565b6040515b91829182901515815260200190565b0390f35b806101c3565b905035906101dc8261022b565b909182601f830112156101ca578135916001600160401b0383116101ca5760200192600183028401116101ca57565b9190916040818403126101ca576102848382610231565b9260208201356001600160401b0381116101ca576102a2920161023e565b9091565b346101ca576102bf6102b936600461026d565b916118af565b604051005b6060818303126101ca576102d88282610231565b9260208201356001600160401b0381116101ca57836102f891840161023e565b92909360408201356001600160401b0381116101ca576102a2920161023e565b346101ca576102bf61032b3660046102c4565b9392909261295f565b91906040838203126101ca576101f29061034e8185610231565b936020016101cf565b6001600160a01b031690565b346101ca5761022761037f610379366004610334565b90612451565b6040515b918291826001600160a01b03909116815260200190565b91906040838203126101ca576101f2906103b48185610231565b93602001610231565b60005b8381106103d05750506000910152565b81810151838201526020016103c0565b61040161040a602093610414936103f5815190565b80835293849260200190565b958691016103bd565b601f01601f191690565b0190565b9081526040602082018190526101f2929101906103e0565b346101ca5761044961044336600461039a565b90611232565b9061022761045660405190565b92839283610418565b90916060828403126101ca576101f26104788484610231565b936104868160208601610231565b93604001610231565b346101ca576102bf6104a236600461045f565b9161287d565b346101ca576102bf6104bb36600461026d565b91611641565b906020828203126101ca576101f291610231565b346101ca5761022761037f6104eb3660046104c1565b611389565b6001600160a01b0381166101c3565b905035906101dc826104f0565b8015156101c3565b905035906101dc8261050c565b90916060828403126101ca576101f261053a8484610231565b9361054881602086016104ff565b93604001610514565b346101ca576102bf610564366004610521565b91610b06565b346101ca5761022761021461058036600461039a565b90611dce565b60208082526101f2929101906103e0565b346101ca576102276105b36105ad36600461026d565b9161296c565b60405191829182610586565b346101ca576102276105b36105d53660046104c1565b611f4d565b916060838303126101ca576105ef8284610231565b926105fd8360208301610231565b9260408201356001600160401b0381116101ca576102a2920161023e565b346101ca576102bf61062e3660046105da565b92919091611016565b346101ca576102276105b361064d3660046104c1565b6127a3565b346101ca576102bf61066536600461026d565b91612706565b634e487b7160e01b600052604160045260246000fd5b90601f01601f191681019081106001600160401b038211176106a257604052565b61066b565b906101dc6106b460405190565b9283610681565b6001600160401b0381116106a257602090601f01601f19160190565b90826000939282370152565b909291926106f86106f3826106bb565b6106a7565b938185526020850190828401116101ca576101dc926106d7565b9080601f830112156101ca578160206101f2933591016106e3565b916060838303126101ca576107428284610231565b926107508360208301610231565b9260408201356001600160401b0381116101ca576101f29201610712565b346101ca576102bf61078136600461072d565b9161158d565b61ffff81166101c3565b905035906101dc82610787565b90916060828403126101ca576101f26107b78484610231565b936107c58160208601610231565b93604001610791565b346101ca576102276105b36107e436600461079e565b91611d7a565b909182601f830112156101ca578135916001600160401b0383116101ca5760200192602083028401116101ca57565b906020828203126101ca5781356001600160401b0381116101ca576102a292016107ea565b906101f2916103e0565b9061085e610854835190565b8083529160200190565b90816108706020830284019460200190565b926000915b83831061088457505050505090565b909192939460206108a76108a08385600195038752895161083e565b9760200190565b9301930191939290610875565b60208082526101f292910190610848565b346101ca576102276108e16108db366004610819565b90610cdd565b604051918291826108b4565b346101ca576102bf6109003660046104c1565b611e9e565b346101ca576102276105b361091b3660046104c1565b61164c565b9081526040810192916101dc9160200152565b346101ca5761094b6109463660046104c1565b612888565b9061022761095860405190565b92839283610920565b346101ca576102bf61097436600461026d565b91611f42565b91906040838203126101ca576101f2906109948185610231565b936020016104ff565b346101ca576102bf6109b036600461097a565b9061131f565b90916060828403126101ca576101f26109cf8484610231565b936109dd81602086016101cf565b936040016104ff565b346101ca576102bf6109f93660046109b6565b91612406565b346101ca576102276105b3610a1536600461039a565b90611598565b90916060828403126101ca576101f2610a348484610231565b936109dd81602086016104ff565b905b600052602052604060002090565b6101f290610357906001600160a01b031682565b6101f290610a52565b6101f290610a66565b90610a4490610a6f565b6101f2916008021c5b60ff1690565b906101f29154610a82565b906101f292610ab6610abb92610ab6600c95600096610a42565b610a78565b610a91565b346101ca57610227610214610ad6366004610a1b565b91610a9c565b9060ff905b9181191691161790565b90610afb6101f2610b0292151590565b8254610adc565b9055565b610b1181600c610a42565b90610b2a84610b2585610ab6338097610a78565b610aeb565b610b6b610b61610b5b610b5b7fe1c5610a6e0cbe10764ecd182adcef1ec338dc4e199c99c32ce98f38e12791df9490565b94610a6f565b9461021860405190565b0390a4565b6001600160401b0381116106a25760208091020190565b90610b946106f383610b70565b918252565b60005b828110610ba857505050565b606082820152602001610b9c565b906101dc610bcc610bc684610b87565b93610b70565b601f190160208401610b99565b6101f26101f26101f29290565b634e487b7160e01b600052601160045260246000fd5b6000198114610c0b5760010190565b610be6565b634e487b7160e01b600052603260045260246000fd5b903590601e1936829003018212156101ca57018035906001600160401b0382116101ca57602001913682900383136101ca57565b90821015610c715760206102a29202810190610c26565b610c10565b909161041490839080936106d7565b90916101f292610c76565b90610b946106f3836106bb565b3d15610cb757610cac3d610c90565b903d6000602084013e565b606090565b156101ca57565b90610ccc825190565b811015610c71576020809102010190565b90918291610cea83610bb6565b93600092610cf784610bd9565b855b811015610d6a57610d63610cf9918680610d1230610a6f565b610d1d84898b610c5a565b90610d33610d2a60405190565b92839283610c85565b03915af4610d48610d42610c9d565b91610cbc565b610d52828b610cc3565b52610d5d818a610cc3565b50610bfc565b9050610cf7565b509350505050565b6101f290612995565b906101dc939291610d93610d8e82611075565b610cbc565b610f85565b91908203918211610c0b57565b90610a4490610bd9565b634e487b7160e01b600052600060045260246000fd5b634e487b7160e01b600052602260045260246000fd5b9060016002830492168015610dfb575b6020831014610df657565b610dc5565b91607f1691610deb565b9160001960089290920291821b911b610ae1565b9190610e2a6101f2610b0293610bd9565b908354610e05565b6101dc91600091610e19565b818110610e49575050565b80610e576000600193610e32565b01610e3e565b9190601f8111610e6c57505050565b610e7e6101dc93600052602060002090565b906020601f840181900483019310610ea1575b6020601f909101045b0190610e3e565b9091508190610e91565b600019600883021c1916906002021790565b91906001600160401b0382116106a257610ee182610edb8554610ddb565b85610e5d565b600090601f8311600114610f0f57610b02929160009183610f04575b5050610eab565b013590503880610efd565b601f19831691610f2485600052602060002090565b92815b818110610f6257509160029391856001969410610f48575b50505002019055565b0135600019601f84166008021c19165b9055388080610f3f565b91936020600181928787013581550195019201610f27565b906101dc9291610ebd565b92610fd39192610fce84610fc98782610fa7610fa16001610bd9565b82610d98565b16610fc4600091610fbe610fba84610bd9565b9190565b14610cbc565b610a42565b610da5565b610f7a565b611004610ffe7faa121bbeef5f32f5961a2a28966e769023910fc9479059ee3495d4c1a696efe39390565b91610bd9565b9161100e60405190565b80805b0390a3565b906101dc939291610d7b565b6101f290610357565b6101f29054611022565b905051906101dc826104f0565b906020828203126101ca576101f291611035565b6040513d6000823e3d90fd5b6101f290610a8b565b6101f29054611062565b6110a4602061108c611087600b61102b565b610a6f565b6302571be39061109b60405190565b93849260e01b90565b82526004820185905260249082905afa90811561113357600091611105575b503390816001600160a01b038216149283156110e0575b50505090565b6110fd93506110f89291610ab6610ab692600c610a42565b61106b565b3880806110da565b611126915060203d811161112c575b61111e8183610681565b810190611042565b386110c3565b503d611114565b611056565b610a8b6101f26101f29290565b6101f290611159610fba6101f29460ff1690565b901b90565b6101f29054610ddb565b8054600093929161118561117b83610ddb565b8085529360200190565b91600181169081156111d7575060011461119e57505050565b6111b19192939450600052602060002090565b916000925b8184106111c35750500190565b8054848401526020909301926001016111b6565b92949550505060ff1916825215156020020190565b906101f291611168565b906101dc6112109261120760405190565b938480926111ec565b0383610681565b6101f2906111f6565b6101f26000610c90565b6101f2611220565b919061124060009384610a42565b6001918261124d81610bd9565b905b611269575b50505050610fba61126361122a565b92610bd9565b8181116112e55781811661127f610fba88610bd9565b1415806112c0575b6112a957906112a184939261129b85611138565b90611145565b90919261124f565b9450506101f29150836112bb91610da5565b611217565b506112d36112ce8285610da5565b61115e565b6112df610fba88610bd9565b11611287565b611254565b906101dc916112fb610d8e82611075565b61130a565b6101f2603c610bd9565b6101dc91610781611319611300565b91611351565b906101dc916112ea565b369037565b906101dc61134461133e84610c90565b936106bb565b601f190160208401611329565b9061136461135f6014610bd9565b61132e565b600160601b9092026020830152565b6103576101f26101f29290565b6101f290611373565b61139590610a15611300565b80516000906113a6610fba83610bd9565b146113b557506101f2906113bf565b6101f29150611380565b6113d76113ca825190565b610fbe610fba6014610bd9565b60200151600160601b900490565b906101dc92916113f7610d8e82611075565b6114d7565b6101f590610a6f565b6020810192916101dc91906113fc565b9061141e815190565b906001600160401b0382116106a25761143b82610edb8554610ddb565b602090601f831160011461146857610b0292916000918361145d575050610eab565b015190503880610efd565b601f1983169161147d85600052602060002090565b9260005b8181106114b5575091600293918560019694106114a15750505002019055565b01516000196008601f8516021c1916610f58565b91936020600181928787015181550195019201611481565b906101dc91611415565b6101dc9291610fc961153f927f65412581168e88a1e60c6459d7f44ae83ad0832e670826c05a4e2476b57af75261150b8290565b809161151660405190565b806115228a8983610418565b0390a26115306101f2611300565b8414611544575b506001610a42565b6114cd565b61154d866113bf565b6115847f52d7d861f09ab3d26239d492e8968629f95e9e318cf0b73bfddc441522a15fd29161157b60405190565b91829182611405565b0390a238611537565b906101dc92916113e5565b6101f291610fc96112bb92611537606090565b906101dc92916115bd610d8e82611075565b6115f1565b919061040a816115d9816104149560209181520190565b80956106d7565b60208082526101f2939101916115c2565b90916116038184610fce856002610a42565b7fe379c1624ed7e714cc0937528a32359d69d5281337765313dba4e081b72d7578915b9261163c61163360405190565b928392836115e0565b0390a2565b906101dc92916115ab565b6112bb6101f29161165b606090565b506002610a42565b906101dc9291611675610d8e82611075565b6116c3565b6116876101f26101f29290565b61ffff1690565b6101f29136916106e3565b6104146116b1926020926116ab815190565b94859290565b938491016103bd565b6101f291611699565b909291926000916116d38361167a565b946116dd84610bd9565b94606096876116f5886116f0868961168e565b61199d565b985b6117076117038b6119bf565b1590565b15611847576117158861167a565b61ffff84160361179057505050604087015161ffff169561173588611c2c565b8061175e61174260405190565b80926117526020830191826116ba565b90810382520382610681565b611770611769825190565b9160200190565b205061177b89611d28565b925b6117868a6119f2565b92909791976116f7565b909289989298506117a08a611c2c565b60408b016117b3611687825161ffff1690565b61ffff8c1614158015611834575b6117cd575b505061177d565b929194879a91949a5060208c019a6117e38c5190565b816117ed91610d98565b91516117f88c610bd9565b1492611804898c61168e565b9061180f958b6121ac565b5161ffff1696519080611820815190565b5061182c905089611d28565b9238806117c6565b5061184261170383866118ba565b6117c1565b91929850949596939296611859825190565b611865610fba83610bd9565b11611875575b5050505050505050565b6118a29761189c91611895610fba6112636118908a86610d98565b9a5190565b149761168e565b926121ac565b388080808080808061186b565b906101dc9291611663565b9081516118cb610fba6101f2845190565b1491826118d757505090565b6101f292506000916118f06118ea835190565b93610bd9565b80929361191893611912826101f294610fba969861190c600090565b50611929565b95611929565b1490565b91908201809211610c0b57565b60209061194e611939858561191c565b611947610fba6101f2855190565b1115610cbc565b01012090565b6101f260e06106a7565b611966611954565b906060825260208080808080808801600081520160008152016000815201600081520160008152016000905250565b6101f261195e565b91906101dc906119ba6119ae611995565b948552849160c0830152565b6119f2565b6119dc610fba6101f260006119d5602086015190565b9401515190565b101590565b6101f26101f26101f29261ffff1690565b60c08101906119ff825190565b91611a0c60208301938452565b8251926000830193611a23610fba6101f287515190565b1015611b00576101dc93611af0611a98611a5c611afb94611a56611a45825190565b91611a508751915190565b90611b75565b9061191c565b92611a76611a6b858351611b06565b61ffff166040890152565b611ae9611ae4611adc611ab7600297611a8e89610bd9565b968791829061191c565b611ab28d6060611aa9848b51611b06565b61ffff16910152565b61191c565b611ad2611ac5828751611b2a565b63ffffffff1660808d0152565b611a566004610bd9565b809351611b06565b6119e1565b935061191c565b611ab28160a0870152565b915052565b50505050565b61ffff9190600290611b23611939611b1d84610bd9565b8561191c565b0101511690565b63ffffffff9190600490611b23611939611b1d84610bd9565b634e487b7160e01b600052600160045260246000fd5b15611b6057565b611b43565b6101f26101f26101f29260ff1690565b90805b8251600191611bb091611b8c908210611b59565b611a56611baa611ba4611b9f8489611c00565b611b65565b94610bd9565b8461191c565b90611bbe610fba6000610bd9565b03611b78576101f29250610d98565b90611bd6825190565b811015610c71570160200190565b610a8b6101f26101f29260ff1690565b6101f29060f81c611be4565b611c196101f292611c2792611c13600090565b50611bcd565b516001600160f81b03191690565b611bf4565b6101f290805190611c4e81611a5060208201611c46815190565b945192505190565b915b90916101f291611c63611939838661191c565b611c6c8261132e565b93602080860192010190611c8e565b90611c89610fba6101f29390565b900a90565b9190915b602092611c9e84610bd9565b8310611ce357611cdc9181611ccb92518252611cc4611cbc87610bd9565b92839061191c565b955061191c565b91611cd66020610bd9565b90610d98565b9091611c92565b91611d1a919350611d0b90611d06610ffe61010092611d026020610bd9565b0390565b611c7b565b611d156001610bd9565b900390565b905182518216911916179052565b805160a0820180516101f293611c4e91611cd69093611d4860c084015190565b92505190565b6101f29081565b6101f29054611d4e565b6116876101f26101f29261ffff1690565b90610a4490611d5f565b91611db66112bb92610fc46101f295611d91606090565b50611db0611dab611da3836005610a42565b926004610a42565b611d55565b90610da5565b611d70565b6101f290611687565b6101f29054611dbb565b611df891610fc4611df392611de1600090565b50611db0611dab611da3836006610a42565b611dc4565b611e0d611e05600061167a565b9161ffff1690565b141590565b6101dc90611e22610d8e82611075565b611e48565b9060001990610ae1565b90611e416101f2610b0292610bd9565b8254611e27565b611e6d611e56826004610a42565b611e67611e6282611d55565b610bfc565b90611e31565b7fb757169b8492ca2f1c6619d9d76ce22803035c3b1d5f6930dffe7b127c1a1983611e9760405190565b808061163c565b6101dc90611e12565b906101dc9291611eb9610d8e82611075565b611ee5565b60408082526101f29491939192611ed7918501906103e0565b9260208185039101526115c2565b906003611f048483610fce86611efe6112bb8288610a42565b95610a42565b61163c611f2f7f8f15ed4b723ef428f250961da8315675b507046737e19319fc1a4d81bfe87f859490565b94611f3960405190565b93849384611ebe565b906101dc9291611ea7565b6112bb6101f291611f5c606090565b506003610a42565b61ffff1661ffff8114610c0b5760010190565b9061ffff90610ae1565b90611f916101f2610b0292611d5f565b8254611f77565b60608082526101f29492611fc091611fb391908401906103e0565b61ffff9094166020830152565b60408184039101526103e0565b61ffff168015610c0b576000190190565b90611ff190600019906020036008021c90565b8154169055565b9060009161201661200e82600052602060002090565b928354610eab565b905555565b919290602082101561207357601f841160011461203d57610b02929350610eab565b509061206e6101dc93600161206561205a85600052602060002090565b92601f602091010490565b82019101610e3e565b611ff8565b506120ac829361208a600194600052602060002090565b610e9a6020601f860104820192601f8616806120b4575b50601f602091010490565b600202179055565b6120c090888603611fde565b386120a1565b9290916801000000000000000082116106a257602011156121125760208110156120f357610b0291610eab565b60019160ff191661210984600052602060002090565b55600202019055565b60019150600202019055565b90815461212a81610ddb565b90818311612152575b8183106121405750505050565b6121499361201b565b38808080611b00565b61215e838383876120c6565b612133565b60006101dc9161211e565b9060000361217f576101dc90612163565b610daf565b929160206121a16101dc93604087019087820360008901526103e0565b94019061ffff169052565b946121da90969196949392946121c6611dab886004610a42565b946121cf895190565b60208a012094611c50565b90156122ab5750838360056121ef8382610a42565b856121f991610da5565b8461220391610a42565b8261220d91611d70565b6122169061115e565b9360009461222386610bd9565b141561224696610fc961224196611db695610fc49461227e57610a42565b61216e565b7f03528ed0c2a3ebc993b12ce3c16bb382f9c7d88ef7d8a1bf290eaf35955a1207919261163c61227560405190565b92839283612184565b610fc461229487610fc487610fc9876006610a42565b6122a56122a082611dc4565b611fcd565b90611f81565b61153f84611db66122f294610fc4859a97610fc98b60056122db6112ce89611db689610fc489610fc98989610a42565b6122e8610fba6000610bd9565b1461233057610a42565b61163c61231d7f52a608b3303a48862d07a73d82fa221318c0027fbbcfb1b2329bface3f19ff2b9490565b9461232760405190565b93849384611f98565b610fc461234687610fc487610fc9876006610a42565b6122a561235282611dc4565b611f64565b906101dc9291612369610d8e82611075565b6123ab565b6001600160e01b03191690565b90610a449061236e565b906001600160a01b0390610ae1565b906123a46101f2610b0292610a6f565b8254612385565b6123c8836123c3846123be856007610a42565b61237b565b612394565b6110116123fc6123f67f7c69f06bea0bdef565b709e93a147836b0063ba2dd89f02d0b7e8d931e6a6daa9390565b9361236e565b9361038360405190565b906101dc9291612357565b61236e61241e6101f29290565b60e01b90565b6101f26301ffc9a7612411565b61244461243e6101f29290565b60f81b90565b6001600160f81b03191690565b612468612463836123be846007610a42565b61102b565b9060009061247582611380565b926001600160a01b0384166001600160a01b0382160361260e575061249d9061108790611389565b926001600160a01b0383166001600160a01b038516146125c75781806124f36125026124c7612424565b6040515b6301ffc9a760e01b6020820152928391602483016001600160e01b0319909116815260200190565b60208201810382520382610681565b805190602001875afa61251b612516610c9d565b911590565b9081156125f5575b81156125cf575b506125c757816124f361254182936124cb60405190565b805190602001865afa612555612516610c9d565b9081156125ae575b8115612574575b5061256e57505090565b50919050565b61258d9150611c1990612587601f610bd9565b90611bcd565b6125a761259983612431565b916001600160f81b03191690565b1438612564565b80519091506125c0610fba6020610bd9565b109061255d565b509091505090565b6125e29150611c1990612587601f610bd9565b6125ee61259984612431565b143861252a565b8051909150612607610fba6020610bd9565b1090612523565b935050505090565b906101dc9291612628610d8e82611075565b6126c8565b91906001600160401b0382116106a25761264b82610edb8554610ddb565b600090601f831160011461266d57610b02929160009183610f04575050610eab565b601f1983169161268285600052602060002090565b92815b8181106126a557509160029391856001969410610f485750505002019055565b91936020600181928787013581550195019201612685565b906101dc929161262d565b90916126df81846126da856008610a42565b6126bd565b7fb7d29e911041e8d9b843369e890bcb72c9388692ba48b65ac54e7214c4c348f791611626565b906101dc9291612616565b8054600093929161272461117b83610ddb565b91600181169081156111d7575060011461273d57505050565b6127509192939450600052602060002090565b916000925b8184106127625750500190565b805484840152602090930192600101612755565b906101f291612711565b906101dc6112109261279160405190565b93848092612776565b6101f290612780565b6127ba6101f2916127b2606090565b506008610a42565b61279a565b906101dc92916127d1610d8e82611075565b61281e565b6101f260406106a7565b90611e416101f2610b029290565b6101dc91906128079060209060019061280d8185875190565b906127e0565b0192015190565b906101dc916127ee565b909161284e61282b6127d6565b612833858252565b61283e836020830152565b612849846009610a42565b612814565b7f1d6f5e03d3f63eb58751986629a5439baee5079ff04f345becb66e23eb154e46919261163c61095860405190565b906101dc92916127bf565b906101f260016128a3600994611efe60006128a38389610a42565b01611d55565b906101dc949392916128bd610d8e82611075565b612908565b610b94906020949361041493610c76565b90916128eb906128e260405190565b938493846128c2565b03902090565b90916101f2926128d3565b6128eb610d2a60405190565b91929361292591946126da858761292087600a610a42565b6128f1565b7fd8c9334b1a9c2f9da342a0a2b32629c1a229b6445dad78947f674b44444a7550909161295281856128fc565b9361101161163360405190565b906101dc949392916128a9565b916127ba916129206101f294612980606090565b50600a610a42565b6101f26359d1d43c612411565b6129a061236e612988565b6001600160e01b03198216149081156129b7575090565b6101f291506129ce565b6101f263c8690233612411565b6129d961236e6129c1565b6001600160e01b03198216149081156129f0575090565b6101f29150612a07565b6101f263691f3431612411565b612a1261236e6129fa565b6001600160e01b0319821614908115612a29575090565b6101f29150612a5c565b6101f27f124a319c1247f4318c3c16c7e9cc865d0fb5d80d7bf02f56cafc0d14da02085061236e565b612a6761236e612a33565b6001600160e01b0319821614908115612a7e575090565b6101f29150612aa2565b6101f263a8fa5682612411565b6101f2635c47637c612411565b612aad61236e612a88565b6001600160e01b0319821614908115612ad5575b8115612acb575090565b6101f29150612b01565b9050612ae261236e612a95565b6001600160e01b031982161490612ac1565b6101f263bc1c58d1612411565b612b0c61236e612af4565b6001600160e01b0319821614908115612b23575090565b6101f29150612b47565b6101f2633b3b57de612411565b6101f263f1cb7e06612411565b612b5261236e612b2d565b6001600160e01b0319821614908115612b7a575b8115612b70575090565b6101f29150612ba6565b9050612b8761236e612b3a565b6001600160e01b031982161490612b66565b6101f2632203ab56612411565b612bb161236e612b99565b6001600160e01b0319821614908115612bc8575090565b6101f29150611918612bdb61236e612424565b916001600160e01b0319169056fea2646970667358221220b6a1f42f5154996e5e82899da1eb236475df66ad0ec98548ef3420672caa93f964736f6c63430008150033000000000000000000000000f22c8889c06f3f9206b92b6a8e7f9b763bd86974"
}