{
  "address": "0x82793b160c6aD59953d397A5a1fA380b868441A4",
  "abi": [
    {
      "inputs": [
        {
          "internalType": "contract ENS",
          "name": "ensAddr",
          "type": "address"
        },
        {
          "internalType": "contract NameResolver",
          "name": "resolverAddr",
          "type": "address"
        }
      ],
      "stateMutability": "nonpayable",
      "type": "constructor"
    },
    {
      "inputs": [],
      "name": "ADDR_REVERSE_NODE",
      "outputs": [
        {
          "internalType": "bytes32",
          "name": "",
          "type": "bytes32"
        }
      ],
      "stateMutability": "view",
      "type": "function"
    },
    {
      "inputs": [
        {
          "internalType": "address",
          "name": "owner",
          "type": "address"
        }
      ],
      "name": "claim",
      "outputs": [
        {
          "internalType": "bytes32",
          "name": "",
          "type": "bytes32"
        }
      ],
      "stateMutability": "nonpayable",
      "type": "function"
    },
    {
      "inputs": [
        {
          "internalType": "address",
          "name": "owner",
          "type": "address"
        },
        {
          "internalType": "address",
          "name": "resolver",
          "type": "address"
        }
      ],
      "name": "claimWithResolver",
      "outputs": [
        {
          "internalType": "bytes32",
          "name": "",
          "type": "bytes32"
        }
      ],
      "stateMutability": "nonpayable",
      "type": "function"
    },
    {
      "inputs": [],
      "name": "defaultResolver",
      "outputs": [
        {
          "internalType": "contract NameResolver",
          "name": "",
          "type": "address"
        }
      ],
      "stateMutability": "view",
      "type": "function"
    },
    {
      "inputs": [],
      "name": "ens",
      "outputs": [
        {
          "internalType": "contract ENS",
          "name": "",
          "type": "address"
        }
      ],
      "stateMutability": "view",
      "type": "function"
    },
    {
      "inputs": [
        {
          "internalType": "address",
          "name": "addr",
          "type": "address"
        }
      ],
      "name": "node",
      "outputs": [
        {
          "internalType": "bytes32",
          "name": "",
          "type": "bytes32"
        }
      ],
      "stateMutability": "pure",
      "type": "function"
    },
    {
      "inputs": [
        {
          "internalType": "string",
          "name": "name",
          "type": "string"
        }
      ],
      "name": "setName",
      "outputs": [
        {
          "internalType": "bytes32",
          "name": "",
          "type": "bytes32"
        }
      ],
      "stateMutability": "nonpayable",
      "type": "function"
    }
  ],
  "args": [
    "0x32643B79787Eb41E806d5f07d1D68121FDCF244c",
    "0x87ae3705a3Bd7DE9F75c017BA695a894d9248EE5"
  ],
  "numDeployments": 2,
  "bytecode": "0x60806040523462000031576200001f62000018620000e6565b9062000232565b60405161096e620003bf823961096e90f35b600080fd5b634e487b7160e01b600052604160045260246000fd5b90601f01601f191681019081106001600160401b038211176200006e57604052565b62000036565b906200008b6200008360405190565b92836200004c565b565b6001600160a01b031690565b90565b6001600160a01b0381165b036200003157565b905051906200008b826200009c565b919060408382031262000031576200009990620000dc8185620000af565b93602001620000af565b6200010962000d2d80380380620000fd8162000074565b928339810190620000be565b9091565b62000099906200008d906001600160a01b031682565b62000099906200010d565b620000999062000123565b906200014d6200009962000169926200012e565b82546001600160a01b0319166001600160a01b03919091161790565b9055565b6200009962000099620000999290565b620000997f91d1777781884d03a6757a803996e38de2a42967fb37eeaca72729271025a9e26200016d565b6001600160a01b038116620000a7565b905051906200008b82620001a8565b9060208282031262000031576200009991620001b8565b6040513d6000823e3d90fd5b6200008d62000099620000999290565b6200009990620001ea565b80620000a7565b905051906200008b8262000205565b90602082820312620000315762000099916200020c565b90620002446200024c92600062000139565b600162000139565b620002a960206200026f620002696000546001600160a01b031690565b6200012e565b6302571be3906200029b620002836200017d565b926200028e60405190565b9586948593849360e01b90565b835260048301526024820190565b03915afa80156200038357620002c99160009162000389575b506200012e565b620002d4816200012e565b906000620002e66200008d82620001fa565b6001600160a01b03841603620002fb57505050565b620003409282602093505062000329631e83409a9233936200031c60405190565b9687958694859360e01b90565b83526001600160a01b031660048301526024820190565b03925af180156200038357620003535750565b620003789060203d81116200037b575b6200036f81836200004c565b8101906200021b565b50565b503d62000363565b620001de565b620003af915060203d8111620003b6575b620003a681836200004c565b810190620001c7565b38620002c2565b503d6200039a56fe6080604052600436101561001257600080fd5b60003560e01c80630f5a5466146100825780631e83409a1461007d5780633f15457f146100785780637cf8a2eb14610073578063828eab0e1461006e578063bffbe61c146100695763c47f0027036100a857610366565b61025d565b610242565b61021b565b6101b6565b610127565b6100e3565b6001600160a01b031690565b90565b6001600160a01b0381165b036100a857565b600080fd5b905035906100ba82610096565b565b91906040838203126100a857610093906100d681856100ad565b936020016100ad565b9052565b346100a85761010f6100ff6100f93660046100bc565b90610453565b6040519182918290815260200190565b0390f35b906020828203126100a857610093916100ad565b346100a85761010f6100ff61013d366004610113565b610397565b60009103126100a857565b610093916008021c6001600160a01b031690565b90610093915461014d565b610093600080610161565b61009390610087906001600160a01b031682565b61009390610177565b6100939061018b565b6100df90610194565b6020810192916100ba919061019d565b346100a8576101c6366004610142565b61010f6101d161016c565b604051918291826101a6565b6100936100936100939290565b6100937f91d1777781884d03a6757a803996e38de2a42967fb37eeaca72729271025a9e26101dd565b6100936101ea565b346100a85761022b366004610142565b61010f6100ff610213565b61009360006001610161565b346100a857610252366004610142565b61010f6101d1610236565b346100a85761010f6100ff610273366004610113565b610896565b634e487b7160e01b600052604160045260246000fd5b90601f01601f1916810190811067ffffffffffffffff8211176102b057604052565b610278565b906100ba6102c260405190565b928361028e565b67ffffffffffffffff81116102b057602090601f01601f19160190565b0190565b90826000939282370152565b9092919261030b610306826102c9565b6102b5565b938185526020850190828401116100a8576100ba926102ea565b9080601f830112156100a857816020610093933591016102f6565b906020828203126100a857813567ffffffffffffffff81116100a8576100939201610325565b346100a85761010f6100ff61037c366004610340565b610812565b6100876100936100939290565b61009390610381565b610093906100f9600061038e565b01918252565b61009390610087565b61009390546103ab565b905051906100ba82610096565b906020828203126100a857610093916103be565b6040513d6000823e3d90fd5b806100a1565b905051906100ba826103eb565b906020828203126100a857610093916103f1565b9081526060810193926100ba92909160409161042f906020830152565b01906001600160a01b03169052565b9081526040810192916100ba9160209061042f565b6104dd61045f336108ea565b916104686101ea565b9061047260405190565b61049d81602081016104918887836020816103a56102e6938396959052565b9081038252038261028e565b6104af6104a8825190565b9160200190565b209460206104c56104c060006103b4565b610194565b6302571be3906104d460405190565b96879260e01b90565b82526004820189905260249082905afa9384156105d457600094610783575b50839060009461050e6100878761038e565b6001600160a01b0383161415806106e2575b6105d9575b505061054761053a836001600160a01b031690565b916001600160a01b031690565b03610554575b5050505090565b610586836105666104c06020966103b4565b926105916306ab59239161057960405190565b9889978896879560e01b90565b855260048501610412565b03925af180156105d4576105a8575b80808061054d565b6105c89060203d81116105cd575b6105c0818361028e565b8101906103fe565b6105a0565b503d6105b6565b6103df565b306105e381610194565b916105f66001600160a01b03841661053a565b03610683575b505061060a6104c0866103b4565b631896f70a813b156100a8578691610637838b9361064261062a60405190565b9788968795869460e01b90565b84526004840161043e565b03925af180156105d457610657575b80610525565b61067690853d871161067c575b61066e818361028e565b810190610142565b38610651565b503d610664565b90919250866020866106976104c08a6103b4565b6105868a6306ab59236106ad8961057960405190565b03925af180156105d4576106c6575b50509038806105fc565b6106dd9060203d81116105cd576105c0818361028e565b6106bc565b506107216020896106f56104c08a6103b4565b610713630178b8bf61070660405190565b9586948593849360e01b90565b835260048301526024820190565b03915afa80156105d45761074491600091610755575b506001600160a01b031690565b6001600160a01b0383161415610520565b610776915060203d811161077c575b61076e818361028e565b8101906103cb565b38610737565b503d610764565b61079c91945060203d811161077c5761076e818361028e565b92386104fc565b60005b8381106107b65750506000910152565b81810151838201526020016107a6565b6107e76107f06020936102e6936107db815190565b80835293849260200190565b958691016107a3565b601f01601f191690565b908152604060208201819052610093929101906107c6565b61082b61081e30610194565b6100f96104c060016103b4565b906108396104c060016103b4565b90637737221390823b156100a857610874926108686000809461085b60405190565b9687958694859360e01b90565b835289600484016107fa565b03925af180156105d457610886575090565b61009390600061066e818361028e565b6108db610491916108a5600090565b506108b76108b16101ea565b916108ea565b906108c160405190565b9384926020840192836020816103a56102e6938396959052565b6108e66104a8825190565b2090565b6f181899199a1a9b1b9c1cb0b131b232b360811b60285b6000811161091457505050602860002090565b60016010818193039484600f82161a86530493039282600f82161a8453049161090156fea26469706673582212203ae882e2072579e8e6d643b4f7073e098c58cb390de921f7a87d9b18658d2ffd64736f6c63430008150033",
  "deployedBytecode": "0x60806040523462000031576200001f62000018620000e6565b9062000232565b60405161096e620003bf823961096e90f35b600080fd5b634e487b7160e01b600052604160045260246000fd5b90601f01601f191681019081106001600160401b038211176200006e57604052565b62000036565b906200008b6200008360405190565b92836200004c565b565b6001600160a01b031690565b90565b6001600160a01b0381165b036200003157565b905051906200008b826200009c565b919060408382031262000031576200009990620000dc8185620000af565b93602001620000af565b6200010962000d2d80380380620000fd8162000074565b928339810190620000be565b9091565b62000099906200008d906001600160a01b031682565b62000099906200010d565b620000999062000123565b906200014d6200009962000169926200012e565b82546001600160a01b0319166001600160a01b03919091161790565b9055565b6200009962000099620000999290565b620000997f91d1777781884d03a6757a803996e38de2a42967fb37eeaca72729271025a9e26200016d565b6001600160a01b038116620000a7565b905051906200008b82620001a8565b9060208282031262000031576200009991620001b8565b6040513d6000823e3d90fd5b6200008d62000099620000999290565b6200009990620001ea565b80620000a7565b905051906200008b8262000205565b90602082820312620000315762000099916200020c565b90620002446200024c92600062000139565b600162000139565b620002a960206200026f620002696000546001600160a01b031690565b6200012e565b6302571be3906200029b620002836200017d565b926200028e60405190565b9586948593849360e01b90565b835260048301526024820190565b03915afa80156200038357620002c99160009162000389575b506200012e565b620002d4816200012e565b906000620002e66200008d82620001fa565b6001600160a01b03841603620002fb57505050565b620003409282602093505062000329631e83409a9233936200031c60405190565b9687958694859360e01b90565b83526001600160a01b031660048301526024820190565b03925af180156200038357620003535750565b620003789060203d81116200037b575b6200036f81836200004c565b8101906200021b565b50565b503d62000363565b620001de565b620003af915060203d8111620003b6575b620003a681836200004c565b810190620001c7565b38620002c2565b503d6200039a56fe6080604052600436101561001257600080fd5b60003560e01c80630f5a5466146100825780631e83409a1461007d5780633f15457f146100785780637cf8a2eb14610073578063828eab0e1461006e578063bffbe61c146100695763c47f0027036100a857610366565b61025d565b610242565b61021b565b6101b6565b610127565b6100e3565b6001600160a01b031690565b90565b6001600160a01b0381165b036100a857565b600080fd5b905035906100ba82610096565b565b91906040838203126100a857610093906100d681856100ad565b936020016100ad565b9052565b346100a85761010f6100ff6100f93660046100bc565b90610453565b6040519182918290815260200190565b0390f35b906020828203126100a857610093916100ad565b346100a85761010f6100ff61013d366004610113565b610397565b60009103126100a857565b610093916008021c6001600160a01b031690565b90610093915461014d565b610093600080610161565b61009390610087906001600160a01b031682565b61009390610177565b6100939061018b565b6100df90610194565b6020810192916100ba919061019d565b346100a8576101c6366004610142565b61010f6101d161016c565b604051918291826101a6565b6100936100936100939290565b6100937f91d1777781884d03a6757a803996e38de2a42967fb37eeaca72729271025a9e26101dd565b6100936101ea565b346100a85761022b366004610142565b61010f6100ff610213565b61009360006001610161565b346100a857610252366004610142565b61010f6101d1610236565b346100a85761010f6100ff610273366004610113565b610896565b634e487b7160e01b600052604160045260246000fd5b90601f01601f1916810190811067ffffffffffffffff8211176102b057604052565b610278565b906100ba6102c260405190565b928361028e565b67ffffffffffffffff81116102b057602090601f01601f19160190565b0190565b90826000939282370152565b9092919261030b610306826102c9565b6102b5565b938185526020850190828401116100a8576100ba926102ea565b9080601f830112156100a857816020610093933591016102f6565b906020828203126100a857813567ffffffffffffffff81116100a8576100939201610325565b346100a85761010f6100ff61037c366004610340565b610812565b6100876100936100939290565b61009390610381565b610093906100f9600061038e565b01918252565b61009390610087565b61009390546103ab565b905051906100ba82610096565b906020828203126100a857610093916103be565b6040513d6000823e3d90fd5b806100a1565b905051906100ba826103eb565b906020828203126100a857610093916103f1565b9081526060810193926100ba92909160409161042f906020830152565b01906001600160a01b03169052565b9081526040810192916100ba9160209061042f565b6104dd61045f336108ea565b916104686101ea565b9061047260405190565b61049d81602081016104918887836020816103a56102e6938396959052565b9081038252038261028e565b6104af6104a8825190565b9160200190565b209460206104c56104c060006103b4565b610194565b6302571be3906104d460405190565b96879260e01b90565b82526004820189905260249082905afa9384156105d457600094610783575b50839060009461050e6100878761038e565b6001600160a01b0383161415806106e2575b6105d9575b505061054761053a836001600160a01b031690565b916001600160a01b031690565b03610554575b5050505090565b610586836105666104c06020966103b4565b926105916306ab59239161057960405190565b9889978896879560e01b90565b855260048501610412565b03925af180156105d4576105a8575b80808061054d565b6105c89060203d81116105cd575b6105c0818361028e565b8101906103fe565b6105a0565b503d6105b6565b6103df565b306105e381610194565b916105f66001600160a01b03841661053a565b03610683575b505061060a6104c0866103b4565b631896f70a813b156100a8578691610637838b9361064261062a60405190565b9788968795869460e01b90565b84526004840161043e565b03925af180156105d457610657575b80610525565b61067690853d871161067c575b61066e818361028e565b810190610142565b38610651565b503d610664565b90919250866020866106976104c08a6103b4565b6105868a6306ab59236106ad8961057960405190565b03925af180156105d4576106c6575b50509038806105fc565b6106dd9060203d81116105cd576105c0818361028e565b6106bc565b506107216020896106f56104c08a6103b4565b610713630178b8bf61070660405190565b9586948593849360e01b90565b835260048301526024820190565b03915afa80156105d45761074491600091610755575b506001600160a01b031690565b6001600160a01b0383161415610520565b610776915060203d811161077c575b61076e818361028e565b8101906103cb565b38610737565b503d610764565b61079c91945060203d811161077c5761076e818361028e565b92386104fc565b60005b8381106107b65750506000910152565b81810151838201526020016107a6565b6107e76107f06020936102e6936107db815190565b80835293849260200190565b958691016107a3565b601f01601f191690565b908152604060208201819052610093929101906107c6565b61082b61081e30610194565b6100f96104c060016103b4565b906108396104c060016103b4565b90637737221390823b156100a857610874926108686000809461085b60405190565b9687958694859360e01b90565b835289600484016107fa565b03925af180156105d457610886575090565b61009390600061066e818361028e565b6108db610491916108a5600090565b506108b76108b16101ea565b916108ea565b906108c160405190565b9384926020840192836020816103a56102e6938396959052565b6108e66104a8825190565b2090565b6f181899199a1a9b1b9c1cb0b131b232b360811b60285b6000811161091457505050602860002090565b60016010818193039484600f82161a86530493039282600f82161a8453049161090156fea26469706673582212203ae882e2072579e8e6d643b4f7073e098c58cb390de921f7a87d9b18658d2ffd64736f6c6343000815003300000000000000000000000032643b79787eb41e806d5f07d1d68121fdcf244c00000000000000000000000087ae3705a3bd7de9f75c017ba695a894d9248ee5"
}