{
  "_format": "hh-sol-artifact-1",
  "contractName": "IexecEscrowTokenSwapFacet",
  "sourceName": "contracts/facets/IexecEscrowTokenSwapFacet.sol",
  "abi": [
    {
      "anonymous": false,
      "inputs": [
        {
          "indexed": true,
          "internalType": "address",
          "name": "owner",
          "type": "address"
        },
        {
          "indexed": true,
          "internalType": "address",
          "name": "spender",
          "type": "address"
        },
        {
          "indexed": false,
          "internalType": "uint256",
          "name": "value",
          "type": "uint256"
        }
      ],
      "name": "Approval",
      "type": "event"
    },
    {
      "anonymous": false,
      "inputs": [
        {
          "indexed": true,
          "internalType": "address",
          "name": "from",
          "type": "address"
        },
        {
          "indexed": true,
          "internalType": "address",
          "name": "to",
          "type": "address"
        },
        {
          "indexed": false,
          "internalType": "uint256",
          "name": "value",
          "type": "uint256"
        }
      ],
      "name": "Transfer",
      "type": "event"
    },
    {
      "stateMutability": "payable",
      "type": "fallback"
    },
    {
      "inputs": [],
      "name": "UniswapV2Router",
      "outputs": [
        {
          "internalType": "contract IUniswapV2Router02",
          "name": "",
          "type": "address"
        }
      ],
      "stateMutability": "view",
      "type": "function"
    },
    {
      "inputs": [],
      "name": "depositEth",
      "outputs": [],
      "stateMutability": "payable",
      "type": "function"
    },
    {
      "inputs": [
        {
          "internalType": "address",
          "name": "target",
          "type": "address"
        }
      ],
      "name": "depositEthFor",
      "outputs": [],
      "stateMutability": "payable",
      "type": "function"
    },
    {
      "inputs": [
        {
          "internalType": "uint256",
          "name": "eth",
          "type": "uint256"
        }
      ],
      "name": "estimateDepositEthSent",
      "outputs": [
        {
          "internalType": "uint256",
          "name": "token",
          "type": "uint256"
        }
      ],
      "stateMutability": "view",
      "type": "function"
    },
    {
      "inputs": [
        {
          "internalType": "uint256",
          "name": "token",
          "type": "uint256"
        }
      ],
      "name": "estimateDepositTokenWanted",
      "outputs": [
        {
          "internalType": "uint256",
          "name": "eth",
          "type": "uint256"
        }
      ],
      "stateMutability": "view",
      "type": "function"
    },
    {
      "inputs": [
        {
          "internalType": "uint256",
          "name": "eth",
          "type": "uint256"
        }
      ],
      "name": "estimateWithdrawEthWanted",
      "outputs": [
        {
          "internalType": "uint256",
          "name": "token",
          "type": "uint256"
        }
      ],
      "stateMutability": "view",
      "type": "function"
    },
    {
      "inputs": [
        {
          "internalType": "uint256",
          "name": "token",
          "type": "uint256"
        }
      ],
      "name": "estimateWithdrawTokenSent",
      "outputs": [
        {
          "internalType": "uint256",
          "name": "eth",
          "type": "uint256"
        }
      ],
      "stateMutability": "view",
      "type": "function"
    },
    {
      "inputs": [
        {
          "components": [
            {
              "internalType": "address",
              "name": "app",
              "type": "address"
            },
            {
              "internalType": "uint256",
              "name": "appprice",
              "type": "uint256"
            },
            {
              "internalType": "uint256",
              "name": "volume",
              "type": "uint256"
            },
            {
              "internalType": "bytes32",
              "name": "tag",
              "type": "bytes32"
            },
            {
              "internalType": "address",
              "name": "datasetrestrict",
              "type": "address"
            },
            {
              "internalType": "address",
              "name": "workerpoolrestrict",
              "type": "address"
            },
            {
              "internalType": "address",
              "name": "requesterrestrict",
              "type": "address"
            },
            {
              "internalType": "bytes32",
              "name": "salt",
              "type": "bytes32"
            },
            {
              "internalType": "bytes",
              "name": "sign",
              "type": "bytes"
            }
          ],
          "internalType": "struct IexecLibOrders_v5.AppOrder",
          "name": "_apporder",
          "type": "tuple"
        },
        {
          "components": [
            {
              "internalType": "address",
              "name": "dataset",
              "type": "address"
            },
            {
              "internalType": "uint256",
              "name": "datasetprice",
              "type": "uint256"
            },
            {
              "internalType": "uint256",
              "name": "volume",
              "type": "uint256"
            },
            {
              "internalType": "bytes32",
              "name": "tag",
              "type": "bytes32"
            },
            {
              "internalType": "address",
              "name": "apprestrict",
              "type": "address"
            },
            {
              "internalType": "address",
              "name": "workerpoolrestrict",
              "type": "address"
            },
            {
              "internalType": "address",
              "name": "requesterrestrict",
              "type": "address"
            },
            {
              "internalType": "bytes32",
              "name": "salt",
              "type": "bytes32"
            },
            {
              "internalType": "bytes",
              "name": "sign",
              "type": "bytes"
            }
          ],
          "internalType": "struct IexecLibOrders_v5.DatasetOrder",
          "name": "_datasetorder",
          "type": "tuple"
        },
        {
          "components": [
            {
              "internalType": "address",
              "name": "workerpool",
              "type": "address"
            },
            {
              "internalType": "uint256",
              "name": "workerpoolprice",
              "type": "uint256"
            },
            {
              "internalType": "uint256",
              "name": "volume",
              "type": "uint256"
            },
            {
              "internalType": "bytes32",
              "name": "tag",
              "type": "bytes32"
            },
            {
              "internalType": "uint256",
              "name": "category",
              "type": "uint256"
            },
            {
              "internalType": "uint256",
              "name": "trust",
              "type": "uint256"
            },
            {
              "internalType": "address",
              "name": "apprestrict",
              "type": "address"
            },
            {
              "internalType": "address",
              "name": "datasetrestrict",
              "type": "address"
            },
            {
              "internalType": "address",
              "name": "requesterrestrict",
              "type": "address"
            },
            {
              "internalType": "bytes32",
              "name": "salt",
              "type": "bytes32"
            },
            {
              "internalType": "bytes",
              "name": "sign",
              "type": "bytes"
            }
          ],
          "internalType": "struct IexecLibOrders_v5.WorkerpoolOrder",
          "name": "_workerpoolorder",
          "type": "tuple"
        },
        {
          "components": [
            {
              "internalType": "address",
              "name": "app",
              "type": "address"
            },
            {
              "internalType": "uint256",
              "name": "appmaxprice",
              "type": "uint256"
            },
            {
              "internalType": "address",
              "name": "dataset",
              "type": "address"
            },
            {
              "internalType": "uint256",
              "name": "datasetmaxprice",
              "type": "uint256"
            },
            {
              "internalType": "address",
              "name": "workerpool",
              "type": "address"
            },
            {
              "internalType": "uint256",
              "name": "workerpoolmaxprice",
              "type": "uint256"
            },
            {
              "internalType": "address",
              "name": "requester",
              "type": "address"
            },
            {
              "internalType": "uint256",
              "name": "volume",
              "type": "uint256"
            },
            {
              "internalType": "bytes32",
              "name": "tag",
              "type": "bytes32"
            },
            {
              "internalType": "uint256",
              "name": "category",
              "type": "uint256"
            },
            {
              "internalType": "uint256",
              "name": "trust",
              "type": "uint256"
            },
            {
              "internalType": "address",
              "name": "beneficiary",
              "type": "address"
            },
            {
              "internalType": "address",
              "name": "callback",
              "type": "address"
            },
            {
              "internalType": "string",
              "name": "params",
              "type": "string"
            },
            {
              "internalType": "bytes32",
              "name": "salt",
              "type": "bytes32"
            },
            {
              "internalType": "bytes",
              "name": "sign",
              "type": "bytes"
            }
          ],
          "internalType": "struct IexecLibOrders_v5.RequestOrder",
          "name": "_requestorder",
          "type": "tuple"
        }
      ],
      "name": "matchOrdersWithEth",
      "outputs": [
        {
          "internalType": "bytes32",
          "name": "",
          "type": "bytes32"
        }
      ],
      "stateMutability": "payable",
      "type": "function"
    },
    {
      "inputs": [
        {
          "internalType": "uint256",
          "name": "amount",
          "type": "uint256"
        }
      ],
      "name": "requestToken",
      "outputs": [],
      "stateMutability": "payable",
      "type": "function"
    },
    {
      "inputs": [
        {
          "internalType": "uint256",
          "name": "amount",
          "type": "uint256"
        },
        {
          "internalType": "address",
          "name": "target",
          "type": "address"
        }
      ],
      "name": "requestTokenFor",
      "outputs": [],
      "stateMutability": "payable",
      "type": "function"
    },
    {
      "inputs": [
        {
          "internalType": "uint256",
          "name": "minimum",
          "type": "uint256"
        }
      ],
      "name": "safeDepositEth",
      "outputs": [],
      "stateMutability": "payable",
      "type": "function"
    },
    {
      "inputs": [
        {
          "internalType": "uint256",
          "name": "minimum",
          "type": "uint256"
        },
        {
          "internalType": "address",
          "name": "target",
          "type": "address"
        }
      ],
      "name": "safeDepositEthFor",
      "outputs": [],
      "stateMutability": "payable",
      "type": "function"
    },
    {
      "inputs": [
        {
          "internalType": "uint256",
          "name": "amount",
          "type": "uint256"
        },
        {
          "internalType": "uint256",
          "name": "minimum",
          "type": "uint256"
        }
      ],
      "name": "safeWithdrawEth",
      "outputs": [],
      "stateMutability": "nonpayable",
      "type": "function"
    },
    {
      "inputs": [
        {
          "internalType": "uint256",
          "name": "amount",
          "type": "uint256"
        },
        {
          "internalType": "uint256",
          "name": "minimum",
          "type": "uint256"
        },
        {
          "internalType": "address",
          "name": "target",
          "type": "address"
        }
      ],
      "name": "safeWithdrawEthTo",
      "outputs": [],
      "stateMutability": "nonpayable",
      "type": "function"
    },
    {
      "inputs": [
        {
          "internalType": "uint256",
          "name": "amount",
          "type": "uint256"
        }
      ],
      "name": "withdrawEth",
      "outputs": [],
      "stateMutability": "nonpayable",
      "type": "function"
    },
    {
      "inputs": [
        {
          "internalType": "uint256",
          "name": "amount",
          "type": "uint256"
        },
        {
          "internalType": "address",
          "name": "target",
          "type": "address"
        }
      ],
      "name": "withdrawEthTo",
      "outputs": [],
      "stateMutability": "nonpayable",
      "type": "function"
    },
    {
      "stateMutability": "payable",
      "type": "receive"
    }
  ],
  "bytecode": "0x608060405234801561001057600080fd5b50611d3d806100206000396000f3fe6080604052600436106100f75760003560e01c8063439370b11161008a578063a885d19a11610059578063a885d19a1461029d578063c311d049146102bd578063ed52d5cb146102dd578063eee3f07a146102fd5761013b565b8063439370b114610242578063602881da1461024a57806397eb97641461026a578063a1ac77ed1461028a5761013b565b80632b4df9d3116100c65780632b4df9d3146101e9578063350d3d30146101fc5780633bec2cbc1461020f57806342f32b80146102225761013b565b8063055add0d1461015c5780631991f410146101875780631cdec20c146101b4578063235e7ab1146101d45761013b565b3661013b576000610106610310565b90506001600160a01b038116737a250d5630b4cf539739df2c5dacb4c659f2488d146101385761013881346000610314565b50005b60405162461bcd60e51b815260040161015390611896565b60405180910390fd5b34801561016857600080fd5b506101716103da565b60405161017e9190611882565b60405180910390f35b34801561019357600080fd5b506101a76101a2366004611577565b6103f2565b60405161017e9190611879565b3480156101c057600080fd5b506101a76101cf366004611577565b6104a3565b6101e76101e236600461158f565b610545565b005b6101e76101f7366004611577565b610554565b6101e761020a36600461158f565b610569565b6101a761021d366004611413565b610574565b34801561022e57600080fd5b506101e761023d3660046115be565b6108de565b6101e76108f0565b34801561025657600080fd5b506101e761026536600461158f565b610905565b34801561027657600080fd5b506101a7610285366004611577565b610911565b6101e7610298366004611577565b610936565b3480156102a957600080fd5b506101a76102b8366004611577565b610948565b3480156102c957600080fd5b506101e76102d8366004611577565b61096d565b3480156102e957600080fd5b506101e76102f83660046115df565b610980565b6101e761030b36600461130e565b610990565b3390565b6060737a250d5630b4cf539739df2c5dacb4c659f2488d637ff36ab5848461033a61099c565b30426001016040518663ffffffff1660e01b815260040161035e9493929190611c3a565b6000604051808303818588803b15801561037757600080fd5b505af115801561038b573d6000803e3d6000fd5b50505050506040513d6000823e601f3d908101601f191682016040526103b49190810190611346565b90506103d484826001815181106103c757fe5b6020026020010151610aa9565b50505050565b737a250d5630b4cf539739df2c5dacb4c659f2488d90565b6000737a250d5630b4cf539739df2c5dacb4c659f2488d631f00ca7483610417610b73565b6040518363ffffffff1660e01b8152600401610434929190611c21565b60006040518083038186803b15801561044c57600080fd5b505afa158015610460573d6000803e3d6000fd5b505050506040513d6000823e601f3d908101601f191682016040526104889190810190611346565b60008151811061049457fe5b60200260200101519050919050565b6000737a250d5630b4cf539739df2c5dacb4c659f2488d63d06ca61f836104c861099c565b6040518363ffffffff1660e01b81526004016104e5929190611c21565b60006040518083038186803b1580156104fd57600080fd5b505afa158015610511573d6000803e3d6000fd5b505050506040513d6000823e601f3d908101601f191682016040526105399190810190611346565b60018151811061049457fe5b610550813484610c71565b5050565b61056661055f610310565b3483610c71565b50565b610550813484610314565b60008061057f610dd4565b9050600061064b82600d0160006106228a73__$9d824026d0515d8abd681f0f0f4707f16a$__637c0d54d390916040518263ffffffff1660e01b81526004016105c89190611969565b60206040518083038186803b1580156105e057600080fd5b505af41580156105f4573d6000803e3d6000fd5b505050506040513d601f19601f8201168201806040525081019061061891906113fb565b86600b0154610df8565b805190602001208152602001908152602001600020548860400151610e2590919063ffffffff16565b86519091506001600160a01b03161561070a5761070761070083600d0160006106228a73__$9d824026d0515d8abd681f0f0f4707f16a$__6311b2eee290916040518263ffffffff1660e01b81526004016106a69190611969565b60206040518083038186803b1580156106be57600080fd5b505af41580156106d2573d6000803e3d6000fd5b505050506040513d601f19601f820116820180604052508101906106f691906113fb565b87600b0154610df8565b8290610e3a565b90505b61077b61070083600d0160006107528973__$9d824026d0515d8abd681f0f0f4707f16a$__63fed985fe90916040518263ffffffff1660e01b81526004016106a69190611b71565b805190602001208152602001908152602001600020548760400151610e2590919063ffffffff16565b90506107ee61070083600d0160006107c58873__$9d824026d0515d8abd681f0f0f4707f16a$__638ac03f3390916040518263ffffffff1660e01b81526004016106a69190611a61565b805190602001208152602001908152602001600020548660e00151610e2590919063ffffffff16565b90506108588460c00151346108538461084d8a6020015161084760006001600160a01b03168e600001516001600160a01b0316141561082e576000610834565b8d602001515b8f60200151610e5290919063ffffffff16565b90610e52565b90610e64565b610c71565b604051630558653560e21b8152309063156194d490610881908a908a908a908a9060040161197c565b602060405180830381600087803b15801561089b57600080fd5b505af11580156108af573d6000803e3d6000fd5b505050506040513d601f19601f820116820180604052508101906108d391906113fb565b979650505050505050565b6105506108e9610310565b8383610e8b565b6109036108fb610310565b346000610314565b565b61055081836000610e8b565b6000737a250d5630b4cf539739df2c5dacb4c659f2488d631f00ca748361041761099c565b610566610941610310565b3483610314565b6000737a250d5630b4cf539739df2c5dacb4c659f2488d63d06ca61f836104c8610b73565b610566610978610310565b826000610e8b565b61098b818484610e8b565b505050565b61056681346000610314565b606060006109a8610dd4565b604080516002808252606080830184529394509091602083019080368337019050509050737a250d5630b4cf539739df2c5dacb4c659f2488d6001600160a01b031663ad5c46486040518163ffffffff1660e01b815260040160206040518083038186803b158015610a1957600080fd5b505afa158015610a2d573d6000803e3d6000fd5b505050506040513d601f19601f82011682018060405250810190610a51919061132a565b81600081518110610a5e57fe5b6001600160a01b0392831660209182029290920101526003830154825191169082906001908110610a8b57fe5b6001600160a01b039092166020928302919091019091015291505090565b6001600160a01b038216610acf5760405162461bcd60e51b815260040161015390611932565b6000610ad9610dd4565b6007810154909150610aeb9083610e52565b60078201556001600160a01b0383166000908152600882016020526040902054610b159083610e52565b6001600160a01b03841660008181526008840160205260408082209390935591519091907fddf252ad1be2c89b69c2b068fc378daa952ba7f163c4a11628f55a4df523b3ef90610b66908690611879565b60405180910390a3505050565b60606000610b7f610dd4565b604080516002808252606080830184529394509091602083019080368337505050600383015481519192506001600160a01b0316908290600090610bbf57fe5b60200260200101906001600160a01b031690816001600160a01b031681525050737a250d5630b4cf539739df2c5dacb4c659f2488d6001600160a01b031663ad5c46486040518163ffffffff1660e01b815260040160206040518083038186803b158015610c2c57600080fd5b505afa158015610c40573d6000803e3d6000fd5b505050506040513d601f19601f82011682018060405250810190610c64919061132a565b81600181518110610a8b57fe5b6060737a250d5630b4cf539739df2c5dacb4c659f2488d63fb3bdb418484610c9761099c565b30426001016040518663ffffffff1660e01b8152600401610cbb9493929190611c3a565b6000604051808303818588803b158015610cd457600080fd5b505af1158015610ce8573d6000803e3d6000fd5b50505050506040513d6000823e601f3d908101601f19168201604052610d119190810190611346565b9050610d2484826001815181106103c757fe5b6000610d2e610310565b6001600160a01b0316610d5e83600081518110610d4757fe5b602002602001015186610e2590919063ffffffff16565b604051610d6a9061185d565b60006040518083038185875af1925050503d8060008114610da7576040519150601f19603f3d011682016040523d82523d6000602084013e610dac565b606091505b5050905080610dcd5760405162461bcd60e51b815260040161015390611902565b5050505050565b7f5862653c6982c162832160cf30593645e8487b257e44d77cdd6b51eee2651b0090565b60608183604051602001610e0d929190611842565b60405160208183030381529060405290505b92915050565b600082821115610e3457600080fd5b50900390565b6000818310610e495781610e4b565b825b9392505050565b600082820183811015610e4b57600080fd5b600082610e7357506000610e1f565b82820282848281610e8057fe5b0414610e4b57600080fd5b6000610e95610dd4565b600381015460405163095ea7b360e01b81529192506001600160a01b03169063095ea7b390610ede90737a250d5630b4cf539739df2c5dacb4c659f2488d908790600401611860565b602060405180830381600087803b158015610ef857600080fd5b505af1158015610f0c573d6000803e3d6000fd5b505050506040513d601f19601f82011682018060405250810190610f3091906113db565b506060737a250d5630b4cf539739df2c5dacb4c659f2488d6318cbafe58585610f57610b73565b89426001016040518663ffffffff1660e01b8152600401610f7c959493929190611c6f565b600060405180830381600087803b158015610f9657600080fd5b505af1158015610faa573d6000803e3d6000fd5b505050506040513d6000823e601f3d908101601f19168201604052610fd29190810190611346565b9050610dcd610fdf610310565b82600081518110610fec57fe5b60200260200101516001600160a01b03821661101a5760405162461bcd60e51b8152600401610153906118c1565b6000611024610dd4565b60078101549091506110369083610e25565b60078201556001600160a01b03831660009081526008820160205260409020546110609083610e25565b6001600160a01b03841660008181526008840160205260408082209390935591517fddf252ad1be2c89b69c2b068fc378daa952ba7f163c4a11628f55a4df523b3ef90610b66908690611879565b8035610e1f81611cf2565b600082601f8301126110c9578081fd5b813567ffffffffffffffff8111156110df578182fd5b6110f2601f8201601f1916602001611cab565b915080825283602082850101111561110957600080fd5b8060208401602084013760009082016020015292915050565b6000610120808385031215611135578182fd5b61113e81611cab565b91505061114b83836110ae565b815260208201356020820152604082013560408201526060820135606082015261117883608084016110ae565b608082015261118a8360a084016110ae565b60a082015261119c8360c084016110ae565b60c082015260e082013560e08201526101008083013567ffffffffffffffff8111156111c757600080fd5b6111d3858286016110b9565b82840152505092915050565b60006102008083850312156111f2578182fd5b6111fb81611cab565b91505061120883836110ae565b81526020820135602082015261122183604084016110ae565b60408201526060820135606082015261123d83608084016110ae565b608082015260a082013560a08201526112598360c084016110ae565b60c082015260e08281013590820152610100808301359082015261012080830135908201526101408083013590820152610160611298848285016110ae565b908201526101806112ab848483016110ae565b908201526101a08281013567ffffffffffffffff808211156112cc57600080fd5b6112d8868387016110b9565b838501526101c0925082850135838501526101e092508285013591508082111561130157600080fd5b506111d3858286016110b9565b60006020828403121561131f578081fd5b8135610e4b81611cf2565b60006020828403121561133b578081fd5b8151610e4b81611cf2565b60006020808385031215611358578182fd5b825167ffffffffffffffff81111561136e578283fd5b8301601f8101851361137e578283fd5b805161139161138c82611cd2565b611cab565b81815283810190838501858402850186018910156113ad578687fd5b8694505b838510156113cf5780518352600194909401939185019185016113b1565b50979650505050505050565b6000602082840312156113ec578081fd5b81518015158114610e4b578182fd5b60006020828403121561140c578081fd5b5051919050565b60008060008060808587031215611428578283fd5b843567ffffffffffffffff8082111561143f578485fd5b61144b88838901611122565b95506020870135915080821115611460578485fd5b61146c88838901611122565b94506040870135915080821115611481578384fd5b818701915061016080838a031215611497578485fd5b6114a081611cab565b90506114ac89846110ae565b81526020830135602082015260408301356040820152606083013560608201526080830135608082015260a083013560a08201526114ed8960c085016110ae565b60c08201526114ff8960e085016110ae565b60e08201526101006115138a8286016110ae565b9082015261012083810135908201526101408084013583811115611535578687fd5b6115418b8287016110b9565b82840152505080945050606087013591508082111561155e578283fd5b5061156b878288016111df565b91505092959194509250565b600060208284031215611588578081fd5b5035919050565b600080604083850312156115a1578182fd5b8235915060208301356115b381611cf2565b809150509250929050565b600080604083850312156115d0578182fd5b50508035926020909101359150565b6000806000606084860312156115f3578081fd5b8335925060208401359150604084013561160c81611cf2565b809150509250925092565b6001600160a01b03169052565b6000815180845260208085019450808401835b8381101561165c5781516001600160a01b031687529582019590820190600101611637565b509495945050505050565b60008151808452815b8181101561168c57602081850181015186830182015201611670565b8181111561169d5782602083870101525b50601f01601f19169290920160200192915050565b600061012060018060a01b03835116845260208301516020850152604083015160408501526060830151606085015260808301516116f36080860182611617565b5060a083015161170660a0860182611617565b5060c083015161171960c0860182611617565b5060e083015160e085015261010080840151828287015261173c83870182611667565b9695505050505050565b6000610200611756848451611617565b6020830151602085015260408301516117726040860182611617565b5060608301516060850152608083015161178f6080860182611617565b5060a083015160a085015260c08301516117ac60c0860182611617565b5060e08381015190850152610100808401519085015261012080840151908501526101408084015190850152610160808401516117eb82870182611617565b50506101808084015161180082870182611617565b50506101a080840151828287015261181a83870182611667565b925050506101c08084015181860152506101e0808401518583038287015261173c8382611667565b61190160f01b81526002810192909252602282015260420190565b90565b6001600160a01b03929092168252602082015260400190565b90815260200190565b6001600160a01b0391909116815260200190565b60208082526011908201527019985b1b189858dacb591a5cd8589b1959607a1b604082015260600190565b60208082526021908201527f45524332303a206275726e2066726f6d20746865207a65726f206164647265736040820152607360f81b606082015260800190565b6020808252601690820152751b985d1a5d994b5d1c985b9cd9995c8b59985a5b195960521b604082015260600190565b6020808252601f908201527f45524332303a206d696e7420746f20746865207a65726f206164647265737300604082015260600190565b600060208252610e4b60208301846116b2565b60006080825261198f60808301876116b2565b82810360208401526119a181876116b2565b905082810360408401526101606119b9828751611617565b6020860151602083015260408601516040830152606086015160608301526080860151608083015260a086015160a083015260c08601516119fd60c0840182611617565b5060e0860151611a1060e0840182611617565b5061010080870151611a2482850182611617565b5050610120808701518184015250610140808701518282850152611a4a83850182611667565b935050505082810360608401526108d38185611746565b600060208252611a75602083018451611617565b602083015160408301526040830151611a916060840182611617565b50606083015160808301526080830151611aae60a0840182611617565b5060a083015160c083015260c0830151611acb60e0840182611617565b5060e083015161010083810191909152830151610120808401919091528301516101408084019190915283015161016080840191909152830151610180611b1481850183611617565b84015190506101a0611b2884820183611617565b808501519150506102006101c08181860152611b48610220860184611667565b908601516101e086810191909152860151858203601f19018387015290925061173c8382611667565b600060208252611b85602083018451611617565b602083015160408301526040830151606083015260608301516080830152608083015160a083015260a083015160c083015260c0830151611bc960e0840182611617565b5060e0830151610100611bde81850183611617565b8401519050610120611bf284820183611617565b84015161014084810191909152840151610160808501529050611c19610180840182611667565b949350505050565b600083825260406020830152611c196040830184611624565b600085825260806020830152611c536080830186611624565b6001600160a01b03949094166040830152506060015292915050565b600086825285602083015260a06040830152611c8e60a0830186611624565b6001600160a01b0394909416606083015250608001529392505050565b60405181810167ffffffffffffffff81118282101715611cca57600080fd5b604052919050565b600067ffffffffffffffff821115611ce8578081fd5b5060209081020190565b6001600160a01b038116811461056657600080fdfea2646970667358221220e5c25f6c20b4bec0b265a3b330bde953050c3abb9a188fa9374852fe513c5ca464736f6c634300060c0033",
  "linkReferences": {
    "contracts/libs/IexecLibOrders_v5.sol": {
      "IexecLibOrders_v5": [
        {
          "length": 20,
          "start": 1458
        },
        {
          "length": 20,
          "start": 1680
        },
        {
          "length": 20,
          "start": 1852
        },
        {
          "length": 20,
          "start": 1967
        }
      ]
    }
  },
  "deployedLinkReferences": {
    "contracts/libs/IexecLibOrders_v5.sol": {
      "IexecLibOrders_v5": [
        {
          "length": 20,
          "start": 1426
        },
        {
          "length": 20,
          "start": 1648
        },
        {
          "length": 20,
          "start": 1820
        },
        {
          "length": 20,
          "start": 1935
        }
      ]
    }
  }
}