{
  "_format": "hh-sol-artifact-1",
  "contractName": "IexecAccessorsABILegacyFacet",
  "sourceName": "contracts/facets/IexecAccessorsABILegacyFacet.sol",
  "abi": [
    {
      "inputs": [
        {
          "internalType": "address",
          "name": "account",
          "type": "address"
        }
      ],
      "name": "viewAccountABILegacy",
      "outputs": [
        {
          "internalType": "uint256",
          "name": "",
          "type": "uint256"
        },
        {
          "internalType": "uint256",
          "name": "",
          "type": "uint256"
        }
      ],
      "stateMutability": "view",
      "type": "function"
    },
    {
      "inputs": [
        {
          "internalType": "uint256",
          "name": "_catid",
          "type": "uint256"
        }
      ],
      "name": "viewCategoryABILegacy",
      "outputs": [
        {
          "internalType": "string",
          "name": "",
          "type": "string"
        },
        {
          "internalType": "string",
          "name": "",
          "type": "string"
        },
        {
          "internalType": "uint256",
          "name": "",
          "type": "uint256"
        }
      ],
      "stateMutability": "view",
      "type": "function"
    },
    {
      "inputs": [
        {
          "internalType": "bytes32",
          "name": "_id",
          "type": "bytes32"
        }
      ],
      "name": "viewConfigABILegacy",
      "outputs": [
        {
          "internalType": "uint256",
          "name": "",
          "type": "uint256"
        },
        {
          "internalType": "uint256",
          "name": "",
          "type": "uint256"
        },
        {
          "internalType": "uint256",
          "name": "",
          "type": "uint256"
        },
        {
          "internalType": "uint256",
          "name": "",
          "type": "uint256"
        },
        {
          "internalType": "uint256",
          "name": "",
          "type": "uint256"
        },
        {
          "internalType": "uint256",
          "name": "",
          "type": "uint256"
        }
      ],
      "stateMutability": "view",
      "type": "function"
    },
    {
      "inputs": [
        {
          "internalType": "bytes32",
          "name": "_taskid",
          "type": "bytes32"
        },
        {
          "internalType": "address",
          "name": "_worker",
          "type": "address"
        }
      ],
      "name": "viewContributionABILegacy",
      "outputs": [
        {
          "internalType": "enum IexecLibCore_v5.ContributionStatusEnum",
          "name": "",
          "type": "uint8"
        },
        {
          "internalType": "bytes32",
          "name": "",
          "type": "bytes32"
        },
        {
          "internalType": "bytes32",
          "name": "",
          "type": "bytes32"
        },
        {
          "internalType": "address",
          "name": "",
          "type": "address"
        }
      ],
      "stateMutability": "view",
      "type": "function"
    },
    {
      "inputs": [
        {
          "internalType": "bytes32",
          "name": "_id",
          "type": "bytes32"
        }
      ],
      "name": "viewDealABILegacy_pt1",
      "outputs": [
        {
          "internalType": "address",
          "name": "",
          "type": "address"
        },
        {
          "internalType": "address",
          "name": "",
          "type": "address"
        },
        {
          "internalType": "uint256",
          "name": "",
          "type": "uint256"
        },
        {
          "internalType": "address",
          "name": "",
          "type": "address"
        },
        {
          "internalType": "address",
          "name": "",
          "type": "address"
        },
        {
          "internalType": "uint256",
          "name": "",
          "type": "uint256"
        },
        {
          "internalType": "address",
          "name": "",
          "type": "address"
        },
        {
          "internalType": "address",
          "name": "",
          "type": "address"
        },
        {
          "internalType": "uint256",
          "name": "",
          "type": "uint256"
        }
      ],
      "stateMutability": "view",
      "type": "function"
    },
    {
      "inputs": [
        {
          "internalType": "bytes32",
          "name": "_id",
          "type": "bytes32"
        }
      ],
      "name": "viewDealABILegacy_pt2",
      "outputs": [
        {
          "internalType": "uint256",
          "name": "",
          "type": "uint256"
        },
        {
          "internalType": "bytes32",
          "name": "",
          "type": "bytes32"
        },
        {
          "internalType": "address",
          "name": "",
          "type": "address"
        },
        {
          "internalType": "address",
          "name": "",
          "type": "address"
        },
        {
          "internalType": "address",
          "name": "",
          "type": "address"
        },
        {
          "internalType": "string",
          "name": "",
          "type": "string"
        }
      ],
      "stateMutability": "view",
      "type": "function"
    },
    {
      "inputs": [
        {
          "internalType": "bytes32",
          "name": "_taskid",
          "type": "bytes32"
        }
      ],
      "name": "viewTaskABILegacy",
      "outputs": [
        {
          "internalType": "enum IexecLibCore_v5.TaskStatusEnum",
          "name": "",
          "type": "uint8"
        },
        {
          "internalType": "bytes32",
          "name": "",
          "type": "bytes32"
        },
        {
          "internalType": "uint256",
          "name": "",
          "type": "uint256"
        },
        {
          "internalType": "uint256",
          "name": "",
          "type": "uint256"
        },
        {
          "internalType": "uint256",
          "name": "",
          "type": "uint256"
        },
        {
          "internalType": "uint256",
          "name": "",
          "type": "uint256"
        },
        {
          "internalType": "uint256",
          "name": "",
          "type": "uint256"
        },
        {
          "internalType": "bytes32",
          "name": "",
          "type": "bytes32"
        },
        {
          "internalType": "uint256",
          "name": "",
          "type": "uint256"
        },
        {
          "internalType": "uint256",
          "name": "",
          "type": "uint256"
        },
        {
          "internalType": "address[]",
          "name": "",
          "type": "address[]"
        },
        {
          "internalType": "bytes",
          "name": "",
          "type": "bytes"
        }
      ],
      "stateMutability": "view",
      "type": "function"
    }
  ],
  "bytecode": "0x608060405234801561001057600080fd5b50611281806100206000396000f3fe608060405234801561001057600080fd5b506004361061007d5760003560e01c8063bd19a4f31161005b578063bd19a4f3146100fa578063ce5f789514610122578063d5922f5014610147578063f9353b8d1461016c5761007d565b806311e35aba14610082578063248ad6a0146100ae5780635b3ae3e4146100d9575b600080fd5b610095610090366004610fce565b61018e565b6040516100a594939291906110a4565b60405180910390f35b6100c16100bc366004610fb6565b61026e565b6040516100a59c9b9a999897969594939291906110d7565b6100ec6100e7366004610f88565b610531565b6040516100a5929190611215565b61010d610108366004610fb6565b610571565b6040516100a599989796959493929190611053565b610135610130366004610fb6565b6107e6565b6040516100a5969594939291906111c8565b61015a610155366004610fb6565b610a04565b6040516100a596959493929190611223565b61017f61017a366004610fb6565b610c22565b6040516100a593929190611192565b600080600080600061019e610dbd565b90506101a8610de1565b600088815260118301602090815260408083206001600160a01b038b16845290915290819020815160a081019092528054829060ff1660038111156101e957fe5b60038111156101f457fe5b815260200160018201548152602001600282015481526020016003820160009054906101000a90046001600160a01b03166001600160a01b03166001600160a01b03168152602001600482015481525050905080600001518160200151826040015183606001519550955095509550505092959194509250565b600080600080600080600080600080606080610288610e11565b610290610dbd565b60008f8152600f9190910160205260409081902081516101e081019092528054829060ff1660048111156102c057fe5b60048111156102cb57fe5b8152602001600182015481526020016002820154815260200160038201548152602001600482015481526020016005820154815260200160068201548152602001600782015481526020016008820154815260200160098201548152602001600a820180548060200260200160405190810160405280929190818152602001828054801561038257602002820191906000526020600020905b81546001600160a01b03168152600190910190602001808311610364575b5050509183525050600b820154602080830191909152600c8301805460408051601f600260001961010060018716150201909416939093049283018590048502810185018252828152940193928301828280156104205780601f106103f557610100808354040283529160200191610420565b820191906000526020600020905b81548152906001019060200180831161040357829003601f168201915b5050509183525050600d820154602080830191909152600e8301805460408051601f600260001961010060018716150201909416939093049283018590048502810185018252828152940193928301828280156104be5780601f10610493576101008083540402835291602001916104be565b820191906000526020600020905b8154815290600101906020018083116104a157829003601f168201915b5050505050815250509050806000015181602001518260400151836060015184608001518560a001518660c001518760e001518861010001518961012001518a61014001518b61018001519c509c509c509c509c509c509c509c509c509c509c509c505091939597999b5091939597999b565b600080600061053e610dbd565b6001600160a01b039490941660009081526008850160209081526040808320546009909701909152902054939492505050565b600080600080600080600080600080610588610dbd565b9050610592610e91565b60008c8152600e838101602090815260409283902083516102608101855281546001600160a01b0390811661020083019081526001808501548316610220850152600280860154610240860152918452875160608082018a5260038701548516825260048701548516828901526005870154828b01528588019190915288518082018a5260068701548516815260078701548516818901526008870154818b0152858a0152600986015490850152600a8501546080850152600b85015460a0850152600c850154831660c0850152600d850154831660e08501529584015490911661010080840191909152600f840180548851978116159092026000190190911691909104601f8101859004850286018501909652858552909491936101208601939092908301828280156107085780601f106106dd57610100808354040283529160200191610708565b820191906000526020600020905b8154815290600101906020018083116106eb57829003601f168201915b5050505050815260200160108201548152602001601182015481526020016012820154815260200160138201548152602001601482015481526020016015820160009054906101000a90046001600160a01b03166001600160a01b03166001600160a01b03168152505090508060000151600001518160000151602001518260000151604001518360200151600001518460200151602001518560200151604001518660400151600001518760400151602001518860400151604001519a509a509a509a509a509a509a509a509a5050509193959799909294969850565b6000806000806000606060006107fa610dbd565b9050610804610e91565b6000898152600e838101602090815260409283902083516102608101855281546001600160a01b0390811661020083019081526001808501548316610220850152600280860154610240860152918452875160608082018a5260038701548516825260048701548516828901526005870154828b01528588019190915288518082018a5260068701548516815260078701548516818901526008870154818b0152858a0152600986015490850152600a8501546080850152600b85015460a0850152600c850154831660c0850152600d850154831660e08501529584015490911661010080840191909152600f840180548851978116159092026000190190911691909104601f81018590048502860185019096528585529094919361012086019390929083018282801561097a5780601f1061094f5761010080835404028352916020019161097a565b820191906000526020600020905b81548152906001019060200180831161095d57829003601f168201915b50505091835250506010820154602082015260118201546040820152601282015460608083019190915260138301546080830152601483015460a0808401919091526015909301546001600160a01b031660c092830152830151918301519083015160e084015161010085015161012090950151939e929d50909b50995091975095509350505050565b6000806000806000806000610a17610dbd565b9050610a21610e91565b6000898152600e838101602090815260409283902083516102608101855281546001600160a01b0390811661020083019081526001808501548316610220850152600280860154610240860152918452875160608082018a5260038701548516825260048701548516828901526005870154828b01528588019190915288518082018a5260068701548516815260078701548516818901526008870154818b0152858a0152600986015490850152600a8501546080850152600b85015460a0850152600c850154831660c0850152600d850154831660e08501529584015490911661010080840191909152600f840180548851978116159092026000190190911691909104601f810185900485028601850190965285855290949193610120860193909290830182828015610b975780601f10610b6c57610100808354040283529160200191610b97565b820191906000526020600020905b815481529060010190602001808311610b7a57829003601f168201915b50505091835250506010820154602082015260118201546040820152601282015460608201526013820154608080830191909152601483015460a08301526015909201546001600160a01b031660c0909101528101516101408201516101608301516101808401516101a08501516101c090950151939e929d50909b50995091975095509350505050565b606080600080610c30610dbd565b9050610c3a610f47565b816015018681548110610c4957fe5b600091825260209182902060408051600393909302909101805460026001821615610100026000190190911604601f8101859004909402830160809081019092526060830184815292939092849290918491840182828015610cec5780601f10610cc157610100808354040283529160200191610cec565b820191906000526020600020905b815481529060010190602001808311610ccf57829003601f168201915b50505050508152602001600182018054600181600116156101000203166002900480601f016020809104026020016040519081016040528092919081815260200182805460018160011615610100020316600290048015610d8e5780601f10610d6357610100808354040283529160200191610d8e565b820191906000526020600020905b815481529060010190602001808311610d7157829003601f168201915b505050918352505060029190910154602091820152815190820151604090920151909891975095509350505050565b7f5862653c6982c162832160cf30593645e8487b257e44d77cdd6b51eee2651b0090565b6040805160a081019091528060008152600060208201819052604082018190526060820181905260809091015290565b604080516101e08101909152806000815260200160008019168152602001600081526020016000815260200160008152602001600081526020016000815260200160008019168152602001600081526020016000815260200160608152602001600080191681526020016060815260200160008152602001606081525090565b604051806102000160405280610ea5610f68565b8152602001610eb2610f68565b8152602001610ebf610f68565b815260200160008152602001600081526020016000801916815260200160006001600160a01b0316815260200160006001600160a01b0316815260200160006001600160a01b0316815260200160608152602001600081526020016000815260200160008152602001600081526020016000815260200160006001600160a01b031681525090565b60405180606001604052806060815260200160608152602001600081525090565b604080516060810182526000808252602082018190529181019190915290565b600060208284031215610f99578081fd5b81356001600160a01b0381168114610faf578182fd5b9392505050565b600060208284031215610fc7578081fd5b5035919050565b60008060408385031215610fe0578081fd5b8235915060208301356001600160a01b0381168114610ffd578182fd5b809150509250929050565b60008151808452815b8181101561102d57602081850181015186830182015201611011565b8181111561103e5782602083870101525b50601f01601f19169290920160200192915050565b6001600160a01b03998a168152978916602089015260408801969096529387166060870152918616608086015260a0850152841660c084015290921660e08201526101008101919091526101200190565b60808101600486106110b257fe5b948152602081019390935260408301919091526001600160a01b031660609091015290565b6000610180820160058f106110e857fe5b8e83528d60208401528c60408401528b60608401528a60808401528960a08401528860c08401528760e084015286610100840152856101208401526101806101408401528085518083526101a085019150602087019250835b818110156111685783516001600160a01b0316835260209384019390920191600101611141565b505083810361016085015261117d8186611008565b925050509d9c50505050505050505050505050565b6000606082526111a56060830186611008565b82810360208401526111b78186611008565b915050826040830152949350505050565b868152602081018690526001600160a01b03858116604083015284811660608301528316608082015260c060a0820181905260009061120990830184611008565b98975050505050505050565b918252602082015260400190565b958652602086019490945260408501929092526060840152608083015260a082015260c0019056fea26469706673582212200080a879aea4668462bb0d53139c10d595fd7490849b660971f94baa2589a2c064736f6c634300060c0033",
  "linkReferences": {},
  "deployedLinkReferences": {}
}