{
  "_format": "hh-sol-artifact-1",
  "contractName": "IexecRelayFacet",
  "sourceName": "contracts/facets/IexecRelayFacet.sol",
  "abi": [
    {
      "anonymous": false,
      "inputs": [
        {
          "components": [
            {
              "internalType": "address",
              "name": "app",
              "type": "address"
            },
            {
              "internalType": "uint256",
              "name": "appprice",
              "type": "uint256"
            },
            {
              "internalType": "uint256",
              "name": "volume",
              "type": "uint256"
            },
            {
              "internalType": "bytes32",
              "name": "tag",
              "type": "bytes32"
            },
            {
              "internalType": "address",
              "name": "datasetrestrict",
              "type": "address"
            },
            {
              "internalType": "address",
              "name": "workerpoolrestrict",
              "type": "address"
            },
            {
              "internalType": "address",
              "name": "requesterrestrict",
              "type": "address"
            },
            {
              "internalType": "bytes32",
              "name": "salt",
              "type": "bytes32"
            },
            {
              "internalType": "bytes",
              "name": "sign",
              "type": "bytes"
            }
          ],
          "indexed": false,
          "internalType": "struct IexecLibOrders_v5.AppOrder",
          "name": "apporder",
          "type": "tuple"
        }
      ],
      "name": "BroadcastAppOrder",
      "type": "event"
    },
    {
      "anonymous": false,
      "inputs": [
        {
          "components": [
            {
              "internalType": "address",
              "name": "dataset",
              "type": "address"
            },
            {
              "internalType": "uint256",
              "name": "datasetprice",
              "type": "uint256"
            },
            {
              "internalType": "uint256",
              "name": "volume",
              "type": "uint256"
            },
            {
              "internalType": "bytes32",
              "name": "tag",
              "type": "bytes32"
            },
            {
              "internalType": "address",
              "name": "apprestrict",
              "type": "address"
            },
            {
              "internalType": "address",
              "name": "workerpoolrestrict",
              "type": "address"
            },
            {
              "internalType": "address",
              "name": "requesterrestrict",
              "type": "address"
            },
            {
              "internalType": "bytes32",
              "name": "salt",
              "type": "bytes32"
            },
            {
              "internalType": "bytes",
              "name": "sign",
              "type": "bytes"
            }
          ],
          "indexed": false,
          "internalType": "struct IexecLibOrders_v5.DatasetOrder",
          "name": "datasetorder",
          "type": "tuple"
        }
      ],
      "name": "BroadcastDatasetOrder",
      "type": "event"
    },
    {
      "anonymous": false,
      "inputs": [
        {
          "components": [
            {
              "internalType": "address",
              "name": "app",
              "type": "address"
            },
            {
              "internalType": "uint256",
              "name": "appmaxprice",
              "type": "uint256"
            },
            {
              "internalType": "address",
              "name": "dataset",
              "type": "address"
            },
            {
              "internalType": "uint256",
              "name": "datasetmaxprice",
              "type": "uint256"
            },
            {
              "internalType": "address",
              "name": "workerpool",
              "type": "address"
            },
            {
              "internalType": "uint256",
              "name": "workerpoolmaxprice",
              "type": "uint256"
            },
            {
              "internalType": "address",
              "name": "requester",
              "type": "address"
            },
            {
              "internalType": "uint256",
              "name": "volume",
              "type": "uint256"
            },
            {
              "internalType": "bytes32",
              "name": "tag",
              "type": "bytes32"
            },
            {
              "internalType": "uint256",
              "name": "category",
              "type": "uint256"
            },
            {
              "internalType": "uint256",
              "name": "trust",
              "type": "uint256"
            },
            {
              "internalType": "address",
              "name": "beneficiary",
              "type": "address"
            },
            {
              "internalType": "address",
              "name": "callback",
              "type": "address"
            },
            {
              "internalType": "string",
              "name": "params",
              "type": "string"
            },
            {
              "internalType": "bytes32",
              "name": "salt",
              "type": "bytes32"
            },
            {
              "internalType": "bytes",
              "name": "sign",
              "type": "bytes"
            }
          ],
          "indexed": false,
          "internalType": "struct IexecLibOrders_v5.RequestOrder",
          "name": "requestorder",
          "type": "tuple"
        }
      ],
      "name": "BroadcastRequestOrder",
      "type": "event"
    },
    {
      "anonymous": false,
      "inputs": [
        {
          "components": [
            {
              "internalType": "address",
              "name": "workerpool",
              "type": "address"
            },
            {
              "internalType": "uint256",
              "name": "workerpoolprice",
              "type": "uint256"
            },
            {
              "internalType": "uint256",
              "name": "volume",
              "type": "uint256"
            },
            {
              "internalType": "bytes32",
              "name": "tag",
              "type": "bytes32"
            },
            {
              "internalType": "uint256",
              "name": "category",
              "type": "uint256"
            },
            {
              "internalType": "uint256",
              "name": "trust",
              "type": "uint256"
            },
            {
              "internalType": "address",
              "name": "apprestrict",
              "type": "address"
            },
            {
              "internalType": "address",
              "name": "datasetrestrict",
              "type": "address"
            },
            {
              "internalType": "address",
              "name": "requesterrestrict",
              "type": "address"
            },
            {
              "internalType": "bytes32",
              "name": "salt",
              "type": "bytes32"
            },
            {
              "internalType": "bytes",
              "name": "sign",
              "type": "bytes"
            }
          ],
          "indexed": false,
          "internalType": "struct IexecLibOrders_v5.WorkerpoolOrder",
          "name": "workerpoolorder",
          "type": "tuple"
        }
      ],
      "name": "BroadcastWorkerpoolOrder",
      "type": "event"
    },
    {
      "inputs": [
        {
          "components": [
            {
              "internalType": "address",
              "name": "app",
              "type": "address"
            },
            {
              "internalType": "uint256",
              "name": "appprice",
              "type": "uint256"
            },
            {
              "internalType": "uint256",
              "name": "volume",
              "type": "uint256"
            },
            {
              "internalType": "bytes32",
              "name": "tag",
              "type": "bytes32"
            },
            {
              "internalType": "address",
              "name": "datasetrestrict",
              "type": "address"
            },
            {
              "internalType": "address",
              "name": "workerpoolrestrict",
              "type": "address"
            },
            {
              "internalType": "address",
              "name": "requesterrestrict",
              "type": "address"
            },
            {
              "internalType": "bytes32",
              "name": "salt",
              "type": "bytes32"
            },
            {
              "internalType": "bytes",
              "name": "sign",
              "type": "bytes"
            }
          ],
          "internalType": "struct IexecLibOrders_v5.AppOrder",
          "name": "_apporder",
          "type": "tuple"
        }
      ],
      "name": "broadcastAppOrder",
      "outputs": [],
      "stateMutability": "nonpayable",
      "type": "function"
    },
    {
      "inputs": [
        {
          "components": [
            {
              "internalType": "address",
              "name": "dataset",
              "type": "address"
            },
            {
              "internalType": "uint256",
              "name": "datasetprice",
              "type": "uint256"
            },
            {
              "internalType": "uint256",
              "name": "volume",
              "type": "uint256"
            },
            {
              "internalType": "bytes32",
              "name": "tag",
              "type": "bytes32"
            },
            {
              "internalType": "address",
              "name": "apprestrict",
              "type": "address"
            },
            {
              "internalType": "address",
              "name": "workerpoolrestrict",
              "type": "address"
            },
            {
              "internalType": "address",
              "name": "requesterrestrict",
              "type": "address"
            },
            {
              "internalType": "bytes32",
              "name": "salt",
              "type": "bytes32"
            },
            {
              "internalType": "bytes",
              "name": "sign",
              "type": "bytes"
            }
          ],
          "internalType": "struct IexecLibOrders_v5.DatasetOrder",
          "name": "_datasetorder",
          "type": "tuple"
        }
      ],
      "name": "broadcastDatasetOrder",
      "outputs": [],
      "stateMutability": "nonpayable",
      "type": "function"
    },
    {
      "inputs": [
        {
          "components": [
            {
              "internalType": "address",
              "name": "app",
              "type": "address"
            },
            {
              "internalType": "uint256",
              "name": "appmaxprice",
              "type": "uint256"
            },
            {
              "internalType": "address",
              "name": "dataset",
              "type": "address"
            },
            {
              "internalType": "uint256",
              "name": "datasetmaxprice",
              "type": "uint256"
            },
            {
              "internalType": "address",
              "name": "workerpool",
              "type": "address"
            },
            {
              "internalType": "uint256",
              "name": "workerpoolmaxprice",
              "type": "uint256"
            },
            {
              "internalType": "address",
              "name": "requester",
              "type": "address"
            },
            {
              "internalType": "uint256",
              "name": "volume",
              "type": "uint256"
            },
            {
              "internalType": "bytes32",
              "name": "tag",
              "type": "bytes32"
            },
            {
              "internalType": "uint256",
              "name": "category",
              "type": "uint256"
            },
            {
              "internalType": "uint256",
              "name": "trust",
              "type": "uint256"
            },
            {
              "internalType": "address",
              "name": "beneficiary",
              "type": "address"
            },
            {
              "internalType": "address",
              "name": "callback",
              "type": "address"
            },
            {
              "internalType": "string",
              "name": "params",
              "type": "string"
            },
            {
              "internalType": "bytes32",
              "name": "salt",
              "type": "bytes32"
            },
            {
              "internalType": "bytes",
              "name": "sign",
              "type": "bytes"
            }
          ],
          "internalType": "struct IexecLibOrders_v5.RequestOrder",
          "name": "_requestorder",
          "type": "tuple"
        }
      ],
      "name": "broadcastRequestOrder",
      "outputs": [],
      "stateMutability": "nonpayable",
      "type": "function"
    },
    {
      "inputs": [
        {
          "components": [
            {
              "internalType": "address",
              "name": "workerpool",
              "type": "address"
            },
            {
              "internalType": "uint256",
              "name": "workerpoolprice",
              "type": "uint256"
            },
            {
              "internalType": "uint256",
              "name": "volume",
              "type": "uint256"
            },
            {
              "internalType": "bytes32",
              "name": "tag",
              "type": "bytes32"
            },
            {
              "internalType": "uint256",
              "name": "category",
              "type": "uint256"
            },
            {
              "internalType": "uint256",
              "name": "trust",
              "type": "uint256"
            },
            {
              "internalType": "address",
              "name": "apprestrict",
              "type": "address"
            },
            {
              "internalType": "address",
              "name": "datasetrestrict",
              "type": "address"
            },
            {
              "internalType": "address",
              "name": "requesterrestrict",
              "type": "address"
            },
            {
              "internalType": "bytes32",
              "name": "salt",
              "type": "bytes32"
            },
            {
              "internalType": "bytes",
              "name": "sign",
              "type": "bytes"
            }
          ],
          "internalType": "struct IexecLibOrders_v5.WorkerpoolOrder",
          "name": "_workerpoolorder",
          "type": "tuple"
        }
      ],
      "name": "broadcastWorkerpoolOrder",
      "outputs": [],
      "stateMutability": "nonpayable",
      "type": "function"
    }
  ],
  "bytecode": "0x608060405234801561001057600080fd5b50610626806100206000396000f3fe608060405234801561001057600080fd5b506004361061004c5760003560e01c80634693d172146100515780634c4692de14610066578063947f517814610079578063c52e9de11461008c575b600080fd5b61006461005f3660046101d6565b61009f565b005b61006461007436600461019b565b6100d9565b610064610087366004610216565b610108565b61006461009a36600461019b565b610137565b7f54bee205d9b03332d6dc82bc907476dfef6ed4fd86058d49a72994baee781175816040516100ce919061035a565b60405180910390a150565b7fc56d982ad2fd39ebadca073cc88d9bdaee0f4c8e7b2b6be50227169daefc7b3f816040516100ce9190610347565b7faf81a046e31ebb2be305579e585ac6b2ee3fdc2dc9dba806bb826879bb2c7851816040516100ce91906104b1565b7f6fd493f856b22df174df46975d6dcf0895c7dfb3c63d20179c0dcd5563e2f565816040516100ce9190610347565b80356001600160a01b038116811461017d57600080fd5b92915050565b60006101208284031215610195578081fd5b50919050565b6000602082840312156101ac578081fd5b813567ffffffffffffffff8111156101c2578182fd5b6101ce84828501610183565b949350505050565b6000602082840312156101e7578081fd5b813567ffffffffffffffff8111156101fd578182fd5b8201610200818503121561020f578182fd5b9392505050565b600060208284031215610227578081fd5b813567ffffffffffffffff81111561023d578182fd5b8201610160818503121561020f578182fd5b6001600160a01b03169052565b60008284528282602086013780602084860101526020601f19601f85011685010190509392505050565b6000610120602083016001600160a01b036102a18286610166565b168552803560208601525060408301356040850152606083013560608501526102cd608084018461058c565b6102da608086018261024f565b506102e860a084018461058c565b6102f560a086018261024f565b5061030360c084018461058c565b61031060c086018261024f565b5060e083013560e085015261010061032a818501856105a4565b838388015261033c848801828461025c565b979650505050505050565b60006020825261020f6020830184610286565b6000602082526020830161037a602084016103758387610166565b61024f565b803560408401525061038f604084018461058c565b61039c606084018261024f565b50606083013560808301526103b4608084018461058c565b6103c160a084018261024f565b5060a083013560c08301526103d960c084018461058c565b6103e660e084018261024f565b5061010060e0840135818401526101208185013581850152610140915080850135828501525061016081850135818501526104238186018661058c565b9150506101806104358185018361024f565b6104418186018661058c565b9150506101a06104538185018361024f565b61045f818601866105a4565b925090506102006101c0818187015261047d6102208701858561025c565b93506101e09250808701358387015250610499828701876105a4565b868503601f190183880152925061033c84848361025c565b600060208252602083016104cc602084016103758387610166565b80356040840152506040830135606083015260608301356080830152608083013560a083015260a083013560c083015261050960c084018461058c565b61051660e084018261024f565b5061052460e084018461058c565b6101006105338185018361024f565b61053f8186018661058c565b9150506101206105518185018361024f565b610140915080850135828501525061056b818501856105a4565b6101608581015291506105836101808501838361025c565b95945050505050565b600082356001600160a01b038116811461020f578182fd5b6000808335601e198436030181126105ba578283fd5b830160208101925035905067ffffffffffffffff8111156105da57600080fd5b8036038313156105e957600080fd5b925092905056fea264697066735822122033d8a87976cf142280299f2247a1c5f8d64da3bd131851201523695d9e2a561464736f6c634300060c0033",
  "linkReferences": {},
  "deployedLinkReferences": {}
}