{
  "_format": "hh-sol-artifact-1",
  "contractName": "IexecERC20Facet",
  "sourceName": "contracts/facets/IexecERC20Facet.sol",
  "abi": [
    {
      "anonymous": false,
      "inputs": [
        {
          "indexed": true,
          "internalType": "address",
          "name": "owner",
          "type": "address"
        },
        {
          "indexed": true,
          "internalType": "address",
          "name": "spender",
          "type": "address"
        },
        {
          "indexed": false,
          "internalType": "uint256",
          "name": "value",
          "type": "uint256"
        }
      ],
      "name": "Approval",
      "type": "event"
    },
    {
      "anonymous": false,
      "inputs": [
        {
          "indexed": true,
          "internalType": "address",
          "name": "from",
          "type": "address"
        },
        {
          "indexed": true,
          "internalType": "address",
          "name": "to",
          "type": "address"
        },
        {
          "indexed": false,
          "internalType": "uint256",
          "name": "value",
          "type": "uint256"
        }
      ],
      "name": "Transfer",
      "type": "event"
    },
    {
      "inputs": [
        {
          "internalType": "address",
          "name": "spender",
          "type": "address"
        },
        {
          "internalType": "uint256",
          "name": "value",
          "type": "uint256"
        }
      ],
      "name": "approve",
      "outputs": [
        {
          "internalType": "bool",
          "name": "",
          "type": "bool"
        }
      ],
      "stateMutability": "nonpayable",
      "type": "function"
    },
    {
      "inputs": [
        {
          "internalType": "address",
          "name": "spender",
          "type": "address"
        },
        {
          "internalType": "uint256",
          "name": "value",
          "type": "uint256"
        },
        {
          "internalType": "bytes",
          "name": "extraData",
          "type": "bytes"
        }
      ],
      "name": "approveAndCall",
      "outputs": [
        {
          "internalType": "bool",
          "name": "",
          "type": "bool"
        }
      ],
      "stateMutability": "nonpayable",
      "type": "function"
    },
    {
      "inputs": [
        {
          "internalType": "address",
          "name": "spender",
          "type": "address"
        },
        {
          "internalType": "uint256",
          "name": "subtractedValue",
          "type": "uint256"
        }
      ],
      "name": "decreaseAllowance",
      "outputs": [
        {
          "internalType": "bool",
          "name": "",
          "type": "bool"
        }
      ],
      "stateMutability": "nonpayable",
      "type": "function"
    },
    {
      "inputs": [
        {
          "internalType": "address",
          "name": "spender",
          "type": "address"
        },
        {
          "internalType": "uint256",
          "name": "addedValue",
          "type": "uint256"
        }
      ],
      "name": "increaseAllowance",
      "outputs": [
        {
          "internalType": "bool",
          "name": "",
          "type": "bool"
        }
      ],
      "stateMutability": "nonpayable",
      "type": "function"
    },
    {
      "inputs": [
        {
          "internalType": "address",
          "name": "recipient",
          "type": "address"
        },
        {
          "internalType": "uint256",
          "name": "amount",
          "type": "uint256"
        }
      ],
      "name": "transfer",
      "outputs": [
        {
          "internalType": "bool",
          "name": "",
          "type": "bool"
        }
      ],
      "stateMutability": "nonpayable",
      "type": "function"
    },
    {
      "inputs": [
        {
          "internalType": "address",
          "name": "sender",
          "type": "address"
        },
        {
          "internalType": "address",
          "name": "recipient",
          "type": "address"
        },
        {
          "internalType": "uint256",
          "name": "amount",
          "type": "uint256"
        }
      ],
      "name": "transferFrom",
      "outputs": [
        {
          "internalType": "bool",
          "name": "",
          "type": "bool"
        }
      ],
      "stateMutability": "nonpayable",
      "type": "function"
    }
  ],
  "bytecode": "0x608060405234801561001057600080fd5b50610857806100206000396000f3fe608060405234801561001057600080fd5b50600436106100625760003560e01c8063095ea7b31461006757806323b872dd1461009057806339509351146100a3578063a457c2d7146100b6578063a9059cbb146100c9578063cae9ca51146100dc575b600080fd5b61007a610075366004610592565b6100ef565b60405161008791906106bd565b60405180910390f35b61007a61009e366004610552565b61010c565b61007a6100b1366004610592565b610189565b61007a6100c4366004610592565b6101ee565b61007a6100d7366004610592565b610249565b61007a6100ea3660046105c8565b61025d565b60006101036100fc610323565b8484610327565b50600192915050565b6000806101176103ed565b9050610124858585610411565b61017e85610130610323565b6001600160a01b0388166000908152600a85016020526040812061017991889190610159610323565b6001600160a01b0316815260208101919091526040016000205490610421565b610327565b506001949350505050565b6000806101946103ed565b90506101e46101a1610323565b856101798685600a0160006101b4610323565b6001600160a01b03908116825260208083019390935260409182016000908120918d168152925290205490610436565b5060019392505050565b6000806101f96103ed565b90506101e4610206610323565b856101798685600a016000610219610323565b6001600160a01b03908116825260208083019390935260409182016000908120918d168152925290205490610421565b6000610103610256610323565b8484610411565b600061027161026a610323565b8686610327565b846001600160a01b0316638f4ffcb1610288610323565b863087876040518663ffffffff1660e01b81526004016102ac95949392919061066c565b602060405180830381600087803b1580156102c657600080fd5b505af11580156102da573d6000803e3d6000fd5b505050506040513d601f19601f820116820180604052508101906102fe919061064c565b61017e5760405162461bcd60e51b815260040161031a9061074d565b60405180910390fd5b3390565b6001600160a01b03831661034d5760405162461bcd60e51b815260040161031a906107bc565b6001600160a01b0382166103735760405162461bcd60e51b815260040161031a9061070b565b600061037d6103ed565b6001600160a01b038086166000818152600a84016020908152604080832094891680845294909152908190208690555192935090917f8c5be1e5ebec7d5bd14f71427d1e84f3dd0314c0f7b2291e5b200ac8c7c3b925906103df908690610800565b60405180910390a350505050565b7f5862653c6982c162832160cf30593645e8487b257e44d77cdd6b51eee2651b0090565b61041c83838361044f565b505050565b60008282111561043057600080fd5b50900390565b60008282018381101561044857600080fd5b9392505050565b6001600160a01b0383166104755760405162461bcd60e51b815260040161031a90610777565b6001600160a01b03821661049b5760405162461bcd60e51b815260040161031a906106c8565b60006104a56103ed565b6001600160a01b03851660009081526008820160205260409020549091506104cd9083610421565b6001600160a01b03808616600090815260088401602052604080822093909355908516815220546104fe9083610436565b6001600160a01b03808516600081815260088501602052604090819020939093559151908616907fddf252ad1be2c89b69c2b068fc378daa952ba7f163c4a11628f55a4df523b3ef906103df908690610800565b600080600060608486031215610566578283fd5b833561057181610809565b9250602084013561058181610809565b929592945050506040919091013590565b600080604083850312156105a4578182fd5b82356001600160a01b03811681146105ba578283fd5b946020939093013593505050565b600080600080606085870312156105dd578081fd5b84356105e881610809565b935060208501359250604085013567ffffffffffffffff8082111561060b578283fd5b818701915087601f83011261061e578283fd5b81358181111561062c578384fd5b88602082850101111561063d578384fd5b95989497505060200194505050565b60006020828403121561065d578081fd5b81518015158114610448578182fd5b6001600160a01b038681168252602082018690528416604082015260806060820181905281018290526000828460a084013781830160a090810191909152601f909201601f19160101949350505050565b901515815260200190565b60208082526023908201527f45524332303a207472616e7366657220746f20746865207a65726f206164647260408201526265737360e81b606082015260800190565b60208082526022908201527f45524332303a20617070726f766520746f20746865207a65726f206164647265604082015261737360f01b606082015260800190565b60208082526010908201526f185c1c1c9bdd985b0b5c99599d5cd95960821b604082015260600190565b60208082526025908201527f45524332303a207472616e736665722066726f6d20746865207a65726f206164604082015264647265737360d81b606082015260800190565b60208082526024908201527f45524332303a20617070726f76652066726f6d20746865207a65726f206164646040820152637265737360e01b606082015260800190565b90815260200190565b6001600160a01b038116811461081e57600080fd5b5056fea26469706673582212208647c531c3c5978487f80bb5b6c1eb288b1f9add4d67649297b9ac4be7f9f6bd64736f6c634300060c0033",
  "linkReferences": {},
  "deployedLinkReferences": {}
}