{
  "_format": "hh-sol-artifact-1",
  "contractName": "IexecOrderManagementFacet",
  "sourceName": "contracts/facets/IexecOrderManagementFacet.sol",
  "abi": [
    {
      "anonymous": false,
      "inputs": [
        {
          "indexed": false,
          "internalType": "bytes32",
          "name": "appHash",
          "type": "bytes32"
        }
      ],
      "name": "ClosedAppOrder",
      "type": "event"
    },
    {
      "anonymous": false,
      "inputs": [
        {
          "indexed": false,
          "internalType": "bytes32",
          "name": "datasetHash",
          "type": "bytes32"
        }
      ],
      "name": "ClosedDatasetOrder",
      "type": "event"
    },
    {
      "anonymous": false,
      "inputs": [
        {
          "indexed": false,
          "internalType": "bytes32",
          "name": "requestHash",
          "type": "bytes32"
        }
      ],
      "name": "ClosedRequestOrder",
      "type": "event"
    },
    {
      "anonymous": false,
      "inputs": [
        {
          "indexed": false,
          "internalType": "bytes32",
          "name": "workerpoolHash",
          "type": "bytes32"
        }
      ],
      "name": "ClosedWorkerpoolOrder",
      "type": "event"
    },
    {
      "anonymous": false,
      "inputs": [
        {
          "indexed": false,
          "internalType": "bytes32",
          "name": "appHash",
          "type": "bytes32"
        }
      ],
      "name": "SignedAppOrder",
      "type": "event"
    },
    {
      "anonymous": false,
      "inputs": [
        {
          "indexed": false,
          "internalType": "bytes32",
          "name": "datasetHash",
          "type": "bytes32"
        }
      ],
      "name": "SignedDatasetOrder",
      "type": "event"
    },
    {
      "anonymous": false,
      "inputs": [
        {
          "indexed": false,
          "internalType": "bytes32",
          "name": "requestHash",
          "type": "bytes32"
        }
      ],
      "name": "SignedRequestOrder",
      "type": "event"
    },
    {
      "anonymous": false,
      "inputs": [
        {
          "indexed": false,
          "internalType": "bytes32",
          "name": "workerpoolHash",
          "type": "bytes32"
        }
      ],
      "name": "SignedWorkerpoolOrder",
      "type": "event"
    },
    {
      "inputs": [
        {
          "components": [
            {
              "components": [
                {
                  "internalType": "address",
                  "name": "app",
                  "type": "address"
                },
                {
                  "internalType": "uint256",
                  "name": "appprice",
                  "type": "uint256"
                },
                {
                  "internalType": "uint256",
                  "name": "volume",
                  "type": "uint256"
                },
                {
                  "internalType": "bytes32",
                  "name": "tag",
                  "type": "bytes32"
                },
                {
                  "internalType": "address",
                  "name": "datasetrestrict",
                  "type": "address"
                },
                {
                  "internalType": "address",
                  "name": "workerpoolrestrict",
                  "type": "address"
                },
                {
                  "internalType": "address",
                  "name": "requesterrestrict",
                  "type": "address"
                },
                {
                  "internalType": "bytes32",
                  "name": "salt",
                  "type": "bytes32"
                },
                {
                  "internalType": "bytes",
                  "name": "sign",
                  "type": "bytes"
                }
              ],
              "internalType": "struct IexecLibOrders_v5.AppOrder",
              "name": "order",
              "type": "tuple"
            },
            {
              "internalType": "enum IexecLibOrders_v5.OrderOperationEnum",
              "name": "operation",
              "type": "uint8"
            },
            {
              "internalType": "bytes",
              "name": "sign",
              "type": "bytes"
            }
          ],
          "internalType": "struct IexecLibOrders_v5.AppOrderOperation",
          "name": "_apporderoperation",
          "type": "tuple"
        }
      ],
      "name": "manageAppOrder",
      "outputs": [],
      "stateMutability": "nonpayable",
      "type": "function"
    },
    {
      "inputs": [
        {
          "components": [
            {
              "components": [
                {
                  "internalType": "address",
                  "name": "dataset",
                  "type": "address"
                },
                {
                  "internalType": "uint256",
                  "name": "datasetprice",
                  "type": "uint256"
                },
                {
                  "internalType": "uint256",
                  "name": "volume",
                  "type": "uint256"
                },
                {
                  "internalType": "bytes32",
                  "name": "tag",
                  "type": "bytes32"
                },
                {
                  "internalType": "address",
                  "name": "apprestrict",
                  "type": "address"
                },
                {
                  "internalType": "address",
                  "name": "workerpoolrestrict",
                  "type": "address"
                },
                {
                  "internalType": "address",
                  "name": "requesterrestrict",
                  "type": "address"
                },
                {
                  "internalType": "bytes32",
                  "name": "salt",
                  "type": "bytes32"
                },
                {
                  "internalType": "bytes",
                  "name": "sign",
                  "type": "bytes"
                }
              ],
              "internalType": "struct IexecLibOrders_v5.DatasetOrder",
              "name": "order",
              "type": "tuple"
            },
            {
              "internalType": "enum IexecLibOrders_v5.OrderOperationEnum",
              "name": "operation",
              "type": "uint8"
            },
            {
              "internalType": "bytes",
              "name": "sign",
              "type": "bytes"
            }
          ],
          "internalType": "struct IexecLibOrders_v5.DatasetOrderOperation",
          "name": "_datasetorderoperation",
          "type": "tuple"
        }
      ],
      "name": "manageDatasetOrder",
      "outputs": [],
      "stateMutability": "nonpayable",
      "type": "function"
    },
    {
      "inputs": [
        {
          "components": [
            {
              "components": [
                {
                  "internalType": "address",
                  "name": "app",
                  "type": "address"
                },
                {
                  "internalType": "uint256",
                  "name": "appmaxprice",
                  "type": "uint256"
                },
                {
                  "internalType": "address",
                  "name": "dataset",
                  "type": "address"
                },
                {
                  "internalType": "uint256",
                  "name": "datasetmaxprice",
                  "type": "uint256"
                },
                {
                  "internalType": "address",
                  "name": "workerpool",
                  "type": "address"
                },
                {
                  "internalType": "uint256",
                  "name": "workerpoolmaxprice",
                  "type": "uint256"
                },
                {
                  "internalType": "address",
                  "name": "requester",
                  "type": "address"
                },
                {
                  "internalType": "uint256",
                  "name": "volume",
                  "type": "uint256"
                },
                {
                  "internalType": "bytes32",
                  "name": "tag",
                  "type": "bytes32"
                },
                {
                  "internalType": "uint256",
                  "name": "category",
                  "type": "uint256"
                },
                {
                  "internalType": "uint256",
                  "name": "trust",
                  "type": "uint256"
                },
                {
                  "internalType": "address",
                  "name": "beneficiary",
                  "type": "address"
                },
                {
                  "internalType": "address",
                  "name": "callback",
                  "type": "address"
                },
                {
                  "internalType": "string",
                  "name": "params",
                  "type": "string"
                },
                {
                  "internalType": "bytes32",
                  "name": "salt",
                  "type": "bytes32"
                },
                {
                  "internalType": "bytes",
                  "name": "sign",
                  "type": "bytes"
                }
              ],
              "internalType": "struct IexecLibOrders_v5.RequestOrder",
              "name": "order",
              "type": "tuple"
            },
            {
              "internalType": "enum IexecLibOrders_v5.OrderOperationEnum",
              "name": "operation",
              "type": "uint8"
            },
            {
              "internalType": "bytes",
              "name": "sign",
              "type": "bytes"
            }
          ],
          "internalType": "struct IexecLibOrders_v5.RequestOrderOperation",
          "name": "_requestorderoperation",
          "type": "tuple"
        }
      ],
      "name": "manageRequestOrder",
      "outputs": [],
      "stateMutability": "nonpayable",
      "type": "function"
    },
    {
      "inputs": [
        {
          "components": [
            {
              "components": [
                {
                  "internalType": "address",
                  "name": "workerpool",
                  "type": "address"
                },
                {
                  "internalType": "uint256",
                  "name": "workerpoolprice",
                  "type": "uint256"
                },
                {
                  "internalType": "uint256",
                  "name": "volume",
                  "type": "uint256"
                },
                {
                  "internalType": "bytes32",
                  "name": "tag",
                  "type": "bytes32"
                },
                {
                  "internalType": "uint256",
                  "name": "category",
                  "type": "uint256"
                },
                {
                  "internalType": "uint256",
                  "name": "trust",
                  "type": "uint256"
                },
                {
                  "internalType": "address",
                  "name": "apprestrict",
                  "type": "address"
                },
                {
                  "internalType": "address",
                  "name": "datasetrestrict",
                  "type": "address"
                },
                {
                  "internalType": "address",
                  "name": "requesterrestrict",
                  "type": "address"
                },
                {
                  "internalType": "bytes32",
                  "name": "salt",
                  "type": "bytes32"
                },
                {
                  "internalType": "bytes",
                  "name": "sign",
                  "type": "bytes"
                }
              ],
              "internalType": "struct IexecLibOrders_v5.WorkerpoolOrder",
              "name": "order",
              "type": "tuple"
            },
            {
              "internalType": "enum IexecLibOrders_v5.OrderOperationEnum",
              "name": "operation",
              "type": "uint8"
            },
            {
              "internalType": "bytes",
              "name": "sign",
              "type": "bytes"
            }
          ],
          "internalType": "struct IexecLibOrders_v5.WorkerpoolOrderOperation",
          "name": "_workerpoolorderoperation",
          "type": "tuple"
        }
      ],
      "name": "manageWorkerpoolOrder",
      "outputs": [],
      "stateMutability": "nonpayable",
      "type": "function"
    }
  ],
  "bytecode": "0x60806040523461001a57604051611ac86100208239611ac890f35b600080fdfe6080604052600436101561001257600080fd5b60003560e01c80634b747106146100525780637e34a0771461004d5780638dd971d5146100485763b2b07e6603610065576100e0565b6100c8565b6100b0565b610093565b908160609103126100655790565b600080fd5b9060208282031261006557813567ffffffffffffffff8111610065576100909201610057565b90565b34610065576100ab6100a636600461006a565b6109ca565b604051005b34610065576100ab6100c336600461006a565b610e48565b34610065576100ab6100db36600461006a565b6113bb565b34610065576100ab6100f336600461006a565b610690565b90359061011e193682900301821215610065570190565b6001600160a01b031690565b6001600160a01b0381165b0361006557565b356100908161011b565b6100909061010f906001600160a01b031682565b61009090610137565b6100909061014b565b634e487b7160e01b600052604160045260246000fd5b90601f01601f1916810190811067ffffffffffffffff82111761019557604052565b61015d565b905051906101a78261011b565b565b90602082820312610065576100909161019a565b6040513d6000823e3d90fd5b906101a76101d660405190565b9283610173565b905035906101a78261011b565b80610126565b905035906101a7826101ea565b67ffffffffffffffff811161019557602090601f01601f19160190565b0190565b90826000939282370152565b9092919261023f61023a826101fd565b6101c9565b93818552602085019082840111610065576101a79261021e565b9080601f83011215610065578160206100909335910161022a565b919091610120818403126100655761028d6101206101c9565b92600061029a82846101dd565b9085015260206102ac828285016101f0565b9085015260406102be828285016101f0565b9085015260606102d0828285016101f0565b9085015260806102e2828285016101dd565b9085015260a06102f4828285016101dd565b9085015260c0610306828285016101dd565b9085015260e0610318828285016101f0565b9085015261010082013567ffffffffffffffff81116100655761033b9201610259565b610100830152565b6002111561006557565b905035906101a782610343565b9190916060818403126100655761037160606101c9565b92813567ffffffffffffffff8111610065578161038f918401610274565b8452602061039f8284830161034d565b90850152604082013567ffffffffffffffff8111610065576103c19201610259565b6040830152565b61009090369061035a565b905051906101a7826101ea565b9060208282031261006557610090916103d3565b9052565b60005b83811061040b5750506000910152565b81810151838201526020016103fb565b61043c61044560209361021a93610430815190565b80835293849260200190565b958691016103f8565b601f01601f191690565b80516001600160a01b03168252610090916101208101916101009061047960208201516020850152565b61048860408201516040850152565b61049760608201516060850152565b6080818101516001600160a01b03169084015260a0818101516001600160a01b03169084015260c0818101516001600160a01b0316908401526104df60e082015160e0850152565b01519061010081840391015261041b565b634e487b7160e01b600052602160045260246000fd5b6002111561051057565b6104f0565b906101a782610506565b61009090610515565b6103f49061051f565b80516060808452610090939160409161054d919084019061044f565b9261056060208201516020850190610528565b015190604081840391015261041b565b602080825261009092910190610531565b903590601e193682900301821215610065570180359067ffffffffffffffff8211610065576020019136829003831361006557565b156105bd57565b60405162461bcd60e51b815260206004820152601b60248201527f696e76616c69642d73656e6465722d6f722d7369676e617475726500000000006044820152606490fd5b610090903690610274565b60208082526100909291019061044f565b3561009081610343565b35610090816101ea565b90600019905b9181191691161790565b6100906100906100909290565b9061065f61009061066692610642565b8254610632565b9055565b906001600160a01b0390610638565b9061068961009061066692610154565b825461066a565b600080516020611a73833981519152906106dc8160206106c46106bf8060006106b986806100f8565b0161012d565b610154565b638da5cb5b906106d360405190565b94859260e01b90565b825260049082905afa9182156108e15760009261099a575b506106fe3361010f565b6001600160a01b0383161480156108e6575b61073061072b61076e936107256020946105b6565b866100f8565b610602565b73__$9d824026d0515d8abd681f0f0f4707f16a$__610763637c0d54d361075660405190565b9586948593849360e01b90565b83526004830161060d565b03915af480156108e15761078a916000916108b3575b506115d3565b928392602081019061079b8261061e565b916000926107b16107ab85610515565b91610515565b03610818575050506107d892600c6107d3920190600052602052604060002090565b610679565b6108137f50933cf5a9c44d5ed66b895deb27212aa33d811b46a7b41093e047e213c0bcab9161080660405190565b9182918290815260200190565b0390a1565b9194509192506108279061061e565b6108346107ab6001610515565b14610840575b50505050565b83600d610863604061085d856108799861087497508101906100f8565b01610628565b930190600052602052604060002090565b61064f565b6108a77f7343f75be43aba524f85326508cd975d016ef7884676377366c69a7c32e306689161080660405190565b0390a13880808061083a565b6108d4915060203d81116108da575b6108cc8183610173565b8101906103e0565b38610784565b503d6108c2565b6101bd565b506109349060206108f6856103c8565b73__$9d824026d0515d8abd681f0f0f4707f16a$__610929636cf30b8b61091c60405190565b9687948593849360e01b90565b835260048301610570565b03915af49182156108e15761072b60209261072561097761096361076e976107309660009161098357506115d3565b61097060408b018b610581565b918a6116e1565b94505093505050610710565b6108d49150883d81116108da576108cc8183610173565b6109bc91925060203d81116109c3575b6109b48183610173565b8101906101a9565b90386106f4565b503d6109aa565b600080516020611a73833981519152906109f38160206106c46106bf8060006106b986806100f8565b825260049082905afa9182156108e157600092610bd1575b50610a153361010f565b6001600160a01b038316148015610b60575b610a3c61072b610a62936107256020946105b6565b73__$9d824026d0515d8abd681f0f0f4707f16a$__6107636311b2eee261075660405190565b03915af480156108e157610a7d916000916108b357506115d3565b9283926020810190610a8e8261061e565b91600092610a9e6107ab85610515565b03610aee57505050610ac092600c6107d3920190600052602052604060002090565b6108137f79ce85909be2c590a728d1634ce6ec8a7cbf815260bacc05387890a313da81309161080660405190565b919450919250610afd9061061e565b610b0a6107ab6001610515565b14610b155750505050565b83600d610863604061085d85610b329861087497508101906100f8565b6108a77fcf52e3228bc482a6656d8ab56c09888b1c5bf6aaadba0185e96a34836f2bb1d49161080660405190565b50610b96906020610b70856103c8565b73__$9d824026d0515d8abd681f0f0f4707f16a$__610929634118eb9861091c60405190565b03915af49182156108e15761072b602092610725610bc5610963610a6297610a3c9660009161098357506115d3565b94505093505050610a27565b610bea91925060203d81116109c3576109b48183610173565b9038610a0b565b90359061015e193682900301821215610065570190565b9190916101608184031261006557610c216101606101c9565b926000610c2e82846101dd565b908501526020610c40828285016101f0565b908501526040610c52828285016101f0565b908501526060610c64828285016101f0565b908501526080610c76828285016101f0565b9085015260a0610c88828285016101f0565b9085015260c0610c9a828285016101dd565b9085015260e0610cac828285016101dd565b90850152610100610cbf828285016101dd565b90850152610120610cd2828285016101f0565b9085015261014082013567ffffffffffffffff811161006557610cf59201610259565b610140830152565b91909160608184031261006557610d1460606101c9565b92813567ffffffffffffffff8111610065578161038f918401610c08565b610090903690610cfd565b80516001600160a01b031682526100909161016081019161014090610d6760208201516020850152565b610d7660408201516040850152565b610d8560608201516060850152565b610d9460808201516080850152565b610da360a082015160a0850152565b60c0818101516001600160a01b03169084015260e0818101516001600160a01b031690840152610100818101516001600160a01b031690840152610dee610120820151610120850152565b01519061014081840391015261041b565b80516060808452610090939160409161054d9190840190610d3d565b602080825261009092910190610dff565b610090903690610c08565b602080825261009092910190610d3d565b600080516020611a7383398151915290610e718160206106c46106bf8060006106b98680610bf1565b825260049082905afa9182156108e157600092611070575b50610e933361010f565b6001600160a01b038316148015610ff4575b610ec5610ec0610ef693610eba6020946105b6565b86610bf1565b610e2c565b73__$9d824026d0515d8abd681f0f0f4707f16a$__610eeb63fed985fe61075660405190565b835260048301610e37565b03915af480156108e157610f11916000916108b357506115d3565b9283926020810190610f228261061e565b91600092610f326107ab85610515565b03610f8257505050610f5492600c6107d3920190600052602052604060002090565b6108137f3a61aabf2ab04790d082ff1e332853b2f66944c2e951a146121f80272812a4769161080660405190565b919450919250610f919061061e565b610f9e6107ab6001610515565b14610fa95750505050565b83600d610863604061085d85610fc6986108749750810190610bf1565b6108a77f145ad51e4496173bca15e24e7eb46f9ab3a10eea0497e2801a3a6806c06113a39161080660405190565b5061103590602061100485610d32565b73__$9d824026d0515d8abd681f0f0f4707f16a$__61102a635b559f6a61091c60405190565b835260048301610e1b565b03915af49182156108e157610ec0602092610eba611064610963610ef697610ec59660009161098357506115d3565b94505093505050610ea5565b61108991925060203d81116109c3576109b48183610173565b9038610e89565b9035906101fe193682900301821215610065570190565b91909161020081840312610065576110c06102006101c9565b9260006110cd82846101dd565b9085015260206110df828285016101f0565b9085015260406110f1828285016101dd565b908501526060611103828285016101f0565b908501526080611115828285016101dd565b9085015260a0611127828285016101f0565b9085015260c0611139828285016101dd565b9085015260e061114b828285016101f0565b9085015261010061115e828285016101f0565b90850152610120611171828285016101f0565b90850152610140611184828285016101f0565b90850152610160611197828285016101dd565b908501526101806111aa828285016101dd565b908501526101a082013567ffffffffffffffff811161006557816111cf918401610259565b6101a08501526101c06111e4828285016101f0565b908501526101e082013567ffffffffffffffff8111610065576112079201610259565b6101e0830152565b9190916060818403126100655761122660606101c9565b92813567ffffffffffffffff8111610065578161038f9184016110a7565b61009090369061120f565b80516001600160a01b03168252610090916101e061134f610200830161127a60208601516020860152565b6040858101516001600160a01b03169085015261129c60608601516060860152565b6080858101516001600160a01b0316908501526112be60a086015160a0860152565b60c0858101516001600160a01b0316908501526112e060e086015160e0860152565b6112f1610100860151610100860152565b611302610120860151610120860152565b611313610140860151610140860152565b610160858101516001600160a01b031690850152610180858101516001600160a01b0316908501526101a08501518482036101a086015261041b565b926113616101c08201516101c0850152565b0151906101e081840391015261041b565b80516060808452610090939160409161054d919084019061124f565b602080825261009092910190611372565b6100909036906110a7565b60208082526100909291019061124f565b600080516020611a7383398151915290806113db60c06106b98380611090565b906113e53361010f565b6001600160a01b038316148015611546575b6114176114126114489361140c6020946105b6565b86611090565b61139f565b73__$9d824026d0515d8abd681f0f0f4707f16a$__61143d638ac03f3361075660405190565b8352600483016113aa565b03915af480156108e157611463916000916108b357506115d3565b92839260208101906114748261061e565b916000926114846107ab85610515565b036114d4575050506114a692600c6107d3920190600052602052604060002090565b6108137f3b0ac04165536d6b11d04220f998c840bd6e439d59c5d8721bba8a4e1fb9ebfd9161080660405190565b9194509192506114e39061061e565b6114f06107ab6001610515565b146114fb5750505050565b83600d61086360e061085d85611518986108749750810190611090565b6108a77f582f43f2a741cbe708aae3b8d38a4efc3d09d7e81919697b3ca693f4c444cc059161080660405190565b5061158790602061155685611244565b73__$9d824026d0515d8abd681f0f0f4707f16a$__61157c6320aabe5361091c60405190565b83526004830161138e565b03915af49182156108e15761141260209261140c6115b6610963611448976114179660009161098357506115d3565b945050935050506113f7565b6100909081565b61009090546115c2565b610090906116007f5862653c6982c162832160cf30593645e8487b257e44d77cdd6b51eee2651b0b6115c9565b6042916040519161190160f01b8352600283015260228201522090565b6001600160e01b03198116610126565b905051906101a78261161d565b90602082820312610065576100909161162d565b9190610445816116658161021a9560209181520190565b809561021e565b9081526040602082018190526100909391019161164e565b61010f6100906100909290565b61009090611684565b90939293848311610065578411610065578101920390565b3590602081106116c0575090565b6116d290600019906020036008021b90565b1690565b61009091369161022a565b9290916000843b6116f86116f483610642565b9190565b116117f25761170681611691565b50826117126041610642565b810361175657505082611730611745936117369361175296506116d6565b90611893565b5050926001600160a01b031690565b916001600160a01b031690565b1490565b919390916117676116f46040610642565b036117ad57611752936117a761179a6117459561173695816020956117a061179a61179189610642565b8095858561169a565b906116b2565b965061169a565b9161193c565b60405162461bcd60e51b815260206004820152601860248201527f696e76616c69642d7369676e61747572652d666f726d617400000000000000006044820152606490fd5b939161182a61180a6106bf8560209697959750610154565b91611835631626ba7e9161181d60405190565b9788968795869560e01b90565b85526004850161166c565b03915afa60009181611863575b5061184b575090565b630b135d3f60e11b91506001600160e01b0319161490565b61188591925060203d811161188c575b61187d8183610173565b81019061163a565b9038611842565b503d611873565b91906000926118a0825190565b6118ad6116f46041610642565b036118e1576118da9293506118c0600090565b506020820151906060604084015193015160001a906119b8565b9192909190565b5091506118ee6000611691565b906119016118fc6002945190565b610642565b91929190565b61009090610642565b61191d6100906100909290565b60ff1690565b610090906119376116f46100909460ff1690565b901c90565b6118da92919061198561198061197661196661195e6001600160ff1b03610642565b871696611907565b61197060ff611910565b90611923565b61021a601b610642565b611910565b906119b8565b6119b46101a7946103c16060949897956119aa608086019a6000870152565b60ff166020850152565b0152565b90916119c384611907565b6119ef6116f47f7fffffffffffffffffffffffffffffff5d576e7357a4501ddfe92f46681b20a0610642565b11611a5e5790611a1160209460009493611a0860405190565b9485948561198b565b838052039060015afa156108e157600051600091611a2e83611691565b6001600160a01b0381166001600160a01b03841614611a51575061190183610642565b9150611901600193610642565b505050611a6b6000611691565b916003919056fe5862653c6982c162832160cf30593645e8487b257e44d77cdd6b51eee2651b00a26469706673582212202fa17c6744bc4155272aad1019227431095a072b8272066db3a78f21d501893a64736f6c63430008150033",
  "linkReferences": {
    "contracts/libs/IexecLibOrders_v5.sol": {
      "IexecLibOrders_v5": [
        {
          "length": 20,
          "start": 1874
        },
        {
          "length": 20,
          "start": 2328
        },
        {
          "length": 20,
          "start": 2654
        },
        {
          "length": 20,
          "start": 2962
        },
        {
          "length": 20,
          "start": 3815
        },
        {
          "length": 20,
          "start": 4134
        },
        {
          "length": 20,
          "start": 5177
        },
        {
          "length": 20,
          "start": 5496
        }
      ]
    }
  },
  "deployedLinkReferences": {
    "contracts/libs/IexecLibOrders_v5.sol": {
      "IexecLibOrders_v5": [
        {
          "length": 20,
          "start": 1842
        },
        {
          "length": 20,
          "start": 2296
        },
        {
          "length": 20,
          "start": 2622
        },
        {
          "length": 20,
          "start": 2930
        },
        {
          "length": 20,
          "start": 3783
        },
        {
          "length": 20,
          "start": 4102
        },
        {
          "length": 20,
          "start": 5145
        },
        {
          "length": 20,
          "start": 5464
        }
      ]
    }
  }
}