{
  "_format": "hh-sol-artifact-1",
  "contractName": "IexecEscrowTokenFacet",
  "sourceName": "contracts/facets/IexecEscrowTokenFacet.sol",
  "abi": [
    {
      "anonymous": false,
      "inputs": [
        {
          "indexed": true,
          "internalType": "address",
          "name": "owner",
          "type": "address"
        },
        {
          "indexed": true,
          "internalType": "address",
          "name": "spender",
          "type": "address"
        },
        {
          "indexed": false,
          "internalType": "uint256",
          "name": "value",
          "type": "uint256"
        }
      ],
      "name": "Approval",
      "type": "event"
    },
    {
      "anonymous": false,
      "inputs": [
        {
          "indexed": true,
          "internalType": "address",
          "name": "from",
          "type": "address"
        },
        {
          "indexed": true,
          "internalType": "address",
          "name": "to",
          "type": "address"
        },
        {
          "indexed": false,
          "internalType": "uint256",
          "name": "value",
          "type": "uint256"
        }
      ],
      "name": "Transfer",
      "type": "event"
    },
    {
      "stateMutability": "payable",
      "type": "fallback"
    },
    {
      "inputs": [
        {
          "internalType": "uint256",
          "name": "amount",
          "type": "uint256"
        }
      ],
      "name": "deposit",
      "outputs": [
        {
          "internalType": "bool",
          "name": "",
          "type": "bool"
        }
      ],
      "stateMutability": "nonpayable",
      "type": "function"
    },
    {
      "inputs": [
        {
          "internalType": "uint256",
          "name": "amount",
          "type": "uint256"
        },
        {
          "internalType": "address",
          "name": "target",
          "type": "address"
        }
      ],
      "name": "depositFor",
      "outputs": [
        {
          "internalType": "bool",
          "name": "",
          "type": "bool"
        }
      ],
      "stateMutability": "nonpayable",
      "type": "function"
    },
    {
      "inputs": [
        {
          "internalType": "uint256[]",
          "name": "amounts",
          "type": "uint256[]"
        },
        {
          "internalType": "address[]",
          "name": "targets",
          "type": "address[]"
        }
      ],
      "name": "depositForArray",
      "outputs": [
        {
          "internalType": "bool",
          "name": "",
          "type": "bool"
        }
      ],
      "stateMutability": "nonpayable",
      "type": "function"
    },
    {
      "inputs": [
        {
          "internalType": "address",
          "name": "sender",
          "type": "address"
        },
        {
          "internalType": "uint256",
          "name": "amount",
          "type": "uint256"
        },
        {
          "internalType": "address",
          "name": "token",
          "type": "address"
        },
        {
          "internalType": "bytes",
          "name": "",
          "type": "bytes"
        }
      ],
      "name": "receiveApproval",
      "outputs": [
        {
          "internalType": "bool",
          "name": "",
          "type": "bool"
        }
      ],
      "stateMutability": "nonpayable",
      "type": "function"
    },
    {
      "inputs": [],
      "name": "recover",
      "outputs": [
        {
          "internalType": "uint256",
          "name": "",
          "type": "uint256"
        }
      ],
      "stateMutability": "nonpayable",
      "type": "function"
    },
    {
      "inputs": [
        {
          "internalType": "uint256",
          "name": "amount",
          "type": "uint256"
        }
      ],
      "name": "withdraw",
      "outputs": [
        {
          "internalType": "bool",
          "name": "",
          "type": "bool"
        }
      ],
      "stateMutability": "nonpayable",
      "type": "function"
    },
    {
      "inputs": [
        {
          "internalType": "uint256",
          "name": "amount",
          "type": "uint256"
        },
        {
          "internalType": "address",
          "name": "target",
          "type": "address"
        }
      ],
      "name": "withdrawTo",
      "outputs": [
        {
          "internalType": "bool",
          "name": "",
          "type": "bool"
        }
      ],
      "stateMutability": "nonpayable",
      "type": "function"
    },
    {
      "stateMutability": "payable",
      "type": "receive"
    }
  ],
  "bytecode": "0x608060405234801561001057600080fd5b50610be0806100206000396000f3fe6080604052600436106100745760003560e01c80638f4ffcb11161004e5780638f4ffcb114610128578063b6b55f2514610148578063c86283c814610168578063ce746024146101885761009a565b80632e1a7d4d146100b25780633354f8a5146100e857806336efd16f146101085761009a565b3661009a5760405162461bcd60e51b815260040161009190610ac1565b60405180910390fd5b60405162461bcd60e51b815260040161009190610ac1565b3480156100be57600080fd5b506100d26100cd366004610975565b6101aa565b6040516100df9190610a25565b60405180910390f35b3480156100f457600080fd5b506100d26101033660046108ec565b6101d6565b34801561011457600080fd5b506100d26101233660046109a5565b610275565b34801561013457600080fd5b506100d2610143366004610852565b61029b565b34801561015457600080fd5b506100d2610163366004610975565b6102f9565b34801561017457600080fd5b506100d26101833660046109a5565b61031d565b34801561019457600080fd5b5061019d61033a565b6040516100df9190610b89565b60006101bd6101b7610434565b83610438565b6101ce6101c8610434565b836104ff565b506001919050565b60008382146101f75760405162461bcd60e51b815260040161009190610a5e565b60005b848110156102695761022561020d610434565b87878481811061021957fe5b90506020020135610596565b61026184848381811061023457fe5b9050602002016020810190610249919061081a565b87878481811061025557fe5b9050602002013561064a565b6001016101fa565b50600195945050505050565b6000610288610282610434565b84610596565b610292828461064a565b50600192915050565b6000806102a6610707565b60038101549091506001600160a01b038681169116146102d85760405162461bcd60e51b815260040161009190610b2d565b6102e28787610596565b6102ec878761064a565b5060019695505050505050565b600061030c610306610434565b83610596565b6101ce610317610434565b8361064a565b600061033061032a610434565b84610438565b61029282846104ff565b600061034461072b565b6001600160a01b0316610355610434565b6001600160a01b03161461037b5760405162461bcd60e51b815260040161009190610a8c565b6000610385610707565b600781015460038201546040516370a0823160e01b815292935060009261041b92916001600160a01b0316906370a08231906103c59030906004016109d4565b60206040518083038186803b1580156103dd57600080fd5b505afa1580156103f1573d6000803e3d6000fd5b505050506040513d601f19601f82011682018060405250810190610415919061098d565b906107a3565b905061042e61042861072b565b8261064a565b91505090565b3390565b6001600160a01b03821661045e5760405162461bcd60e51b815260040161009190610aec565b6000610468610707565b600781015490915061047a90836107a3565b60078201556001600160a01b03831660009081526008820160205260409020546104a490836107a3565b6001600160a01b03841660008181526008840160205260408082209390935591517fddf252ad1be2c89b69c2b068fc378daa952ba7f163c4a11628f55a4df523b3ef906104f2908690610b89565b60405180910390a3505050565b6000610509610707565b600381015460405163a9059cbb60e01b81529192506001600160a01b03169063a9059cbb9061053e9086908690600401610a0c565b602060405180830381600087803b15801561055857600080fd5b505af115801561056c573d6000803e3d6000fd5b505050506040513d601f19601f820116820180604052508101906105909190610955565b50505050565b60006105a0610707565b60038101546040516323b872dd60e01b81529192506001600160a01b0316906323b872dd906105d7908690309087906004016109e8565b602060405180830381600087803b1580156105f157600080fd5b505af1158015610605573d6000803e3d6000fd5b505050506040513d601f19601f820116820180604052508101906106299190610955565b6106455760405162461bcd60e51b815260040161009190610a30565b505050565b6001600160a01b0382166106705760405162461bcd60e51b815260040161009190610b52565b600061067a610707565b600781015490915061068c90836107b8565b60078201556001600160a01b03831660009081526008820160205260409020546106b690836107b8565b6001600160a01b03841660008181526008840160205260408082209390935591519091907fddf252ad1be2c89b69c2b068fc378daa952ba7f163c4a11628f55a4df523b3ef906104f2908690610b89565b7f5862653c6982c162832160cf30593645e8487b257e44d77cdd6b51eee2651b0090565b6000306001600160a01b0316638da5cb5b6040518163ffffffff1660e01b815260040160206040518083038186803b15801561076657600080fd5b505afa15801561077a573d6000803e3d6000fd5b505050506040513d601f19601f8201168201806040525081019061079e9190610836565b905090565b6000828211156107b257600080fd5b50900390565b6000828201838110156107ca57600080fd5b9392505050565b60008083601f8401126107e2578182fd5b50813567ffffffffffffffff8111156107f9578182fd5b602083019150836020808302850101111561081357600080fd5b9250929050565b60006020828403121561082b578081fd5b81356107ca81610b92565b600060208284031215610847578081fd5b81516107ca81610b92565b600080600080600060808688031215610869578081fd5b853561087481610b92565b945060208601359350604086013561088b81610b92565b9250606086013567ffffffffffffffff808211156108a7578283fd5b818801915088601f8301126108ba578283fd5b8135818111156108c8578384fd5b8960208285010111156108d9578384fd5b9699959850939650602001949392505050565b60008060008060408587031215610901578384fd5b843567ffffffffffffffff80821115610918578586fd5b610924888389016107d1565b9096509450602087013591508082111561093c578384fd5b50610949878288016107d1565b95989497509550505050565b600060208284031215610966578081fd5b815180151581146107ca578182fd5b600060208284031215610986578081fd5b5035919050565b60006020828403121561099e578081fd5b5051919050565b600080604083850312156109b7578182fd5b8235915060208301356109c981610b92565b809150509250929050565b6001600160a01b0391909116815260200190565b6001600160a01b039384168152919092166020820152604081019190915260600190565b6001600160a01b03929092168252602082015260400190565b901515815260200190565b6020808252601490820152736661696c6c65642d7472616e7366657246726f6d60601b604082015260600190565b6020808252601490820152730d2dcecc2d8d2c85ac2e4e4c2f25ad8cadccee8d60631b604082015260600190565b6020808252818101527f4f776e61626c653a2063616c6c6572206973206e6f7420746865206f776e6572604082015260600190565b60208082526011908201527019985b1b189858dacb591a5cd8589b1959607a1b604082015260600190565b60208082526021908201527f45524332303a206275726e2066726f6d20746865207a65726f206164647265736040820152607360f81b606082015260800190565b6020808252600b908201526a3bb937b73396ba37b5b2b760a91b604082015260600190565b6020808252601f908201527f45524332303a206d696e7420746f20746865207a65726f206164647265737300604082015260600190565b90815260200190565b6001600160a01b0381168114610ba757600080fd5b5056fea2646970667358221220096f493cf5942c5d124badf396dc796bc99da96f40b529ab94e2a1db7ff9200c64736f6c634300060c0033",
  "linkReferences": {},
  "deployedLinkReferences": {}
}