{
  "contractName": "OwnableOZ",
  "abi": [
    {
      "constant": true,
      "inputs": [],
      "name": "m_owner",
      "outputs": [
        {
          "name": "",
          "type": "address"
        }
      ],
      "payable": false,
      "stateMutability": "view",
      "type": "function"
    },
    {
      "constant": true,
      "inputs": [],
      "name": "m_changeable",
      "outputs": [
        {
          "name": "",
          "type": "bool"
        }
      ],
      "payable": false,
      "stateMutability": "view",
      "type": "function"
    },
    {
      "inputs": [],
      "payable": false,
      "stateMutability": "nonpayable",
      "type": "constructor"
    },
    {
      "anonymous": false,
      "inputs": [
        {
          "indexed": true,
          "name": "previousOwner",
          "type": "address"
        },
        {
          "indexed": true,
          "name": "newOwner",
          "type": "address"
        }
      ],
      "name": "OwnershipTransferred",
      "type": "event"
    },
    {
      "constant": false,
      "inputs": [
        {
          "name": "_newOwner",
          "type": "address"
        }
      ],
      "name": "setImmutableOwnership",
      "outputs": [],
      "payable": false,
      "stateMutability": "nonpayable",
      "type": "function"
    }
  ],
  "bytecode": "0x6060604052341561000f57600080fd5b6000805474010000000000000000000000000000000000000000600160a060020a031990911633600160a060020a03161760a060020a60ff02191617815561020a90819061005d90396000f3006060604052600436106100565763ffffffff7c0100000000000000000000000000000000000000000000000000000000600035041663bbac78a9811461005b578063deff41c11461007c578063e21b9d08146100ab575b600080fd5b341561006657600080fd5b61007a600160a060020a03600435166100d2565b005b341561008757600080fd5b61008f6101ae565b604051600160a060020a03909116815260200160405180910390f35b34156100b657600080fd5b6100be6101bd565b604051901515815260200160405180910390f35b60005433600160a060020a039081169116146100ed57600080fd5b60005474010000000000000000000000000000000000000000900460ff16151561011657600080fd5b600160a060020a038116151561012b57600080fd5b600054600160a060020a0380831691167f8be0079c531659141344cd1fd0a4f28419497f9722a3daafe3b4186f6b6457e060405160405180910390a36000805473ffffffffffffffffffffffffffffffffffffffff1916600160a060020a03929092169190911774ff000000000000000000000000000000000000000019169055565b600054600160a060020a031681565b60005474010000000000000000000000000000000000000000900460ff16815600a165627a7a723058206dc7dd83acdf1fb6761165c084534671752be8df9847ee74aacfa7cc50f721a60029",
  "source": "pragma solidity ^0.4.21;\n\n/**\n * @title Ownable\n * @dev The Ownable contract has an owner address, and provides basic authorization control\n * functions, this simplifies the implementation of \"user permissions\".\n */\ncontract OwnableOZ\n{\n\taddress public m_owner;\n\tbool    public m_changeable;\n\n\tevent OwnershipTransferred(address indexed previousOwner, address indexed newOwner);\n\n\t/**\n\t * @dev Throws if called by any account other than the owner.\n\t */\n\tmodifier onlyOwner()\n\t{\n\t\trequire(msg.sender == m_owner);\n\t\t_;\n\t}\n\n\t/**\n\t * @dev The Ownable constructor sets the original `owner` of the contract to the sender\n\t * account.\n\t */\n\tfunction OwnableOZ() public\n\t{\n\t\tm_owner      = msg.sender;\n\t\tm_changeable = true;\n\t}\n\n\t/**\n\t * @dev Allows the current owner to transfer control of the contract to a newOwner.\n\t * @param _newOwner The address to transfer ownership to.\n\t */\n\tfunction setImmutableOwnership(address _newOwner) public onlyOwner\n\t{\n\t\trequire(m_changeable);\n\t\trequire(_newOwner != address(0));\n\t\temit OwnershipTransferred(m_owner, _newOwner);\n\t\tm_owner      = _newOwner;\n\t\tm_changeable = false;\n\t}\n\n}\n",
  "sourcePath": "/Users/fbranci/iexecdev/PoCo/contracts/OwnableOZ.sol",
  "compiler": {
    "name": "solc",
    "version": "0.4.21+commit.dfe3193c.Emscripten.clang"
  },
  "schemaVersion": "2.0.0",
  "updatedAt": "2018-06-12T14:56:21.149Z"
}