{
  "_format": "hh-sol-artifact-1",
  "contractName": "IexecPocoAccessorsFacet",
  "sourceName": "contracts/facets/IexecPocoAccessorsFacet.sol",
  "abi": [
    {
      "inputs": [
        {
          "internalType": "address",
          "name": "account",
          "type": "address"
        },
        {
          "internalType": "address",
          "name": "spender",
          "type": "address"
        }
      ],
      "name": "allowance",
      "outputs": [
        {
          "internalType": "uint256",
          "name": "",
          "type": "uint256"
        }
      ],
      "stateMutability": "view",
      "type": "function"
    },
    {
      "inputs": [],
      "name": "appregistry",
      "outputs": [
        {
          "internalType": "contract IRegistry",
          "name": "",
          "type": "address"
        }
      ],
      "stateMutability": "view",
      "type": "function"
    },
    {
      "inputs": [
        {
          "internalType": "address",
          "name": "account",
          "type": "address"
        }
      ],
      "name": "balanceOf",
      "outputs": [
        {
          "internalType": "uint256",
          "name": "",
          "type": "uint256"
        }
      ],
      "stateMutability": "view",
      "type": "function"
    },
    {
      "inputs": [],
      "name": "callbackgas",
      "outputs": [
        {
          "internalType": "uint256",
          "name": "",
          "type": "uint256"
        }
      ],
      "stateMutability": "view",
      "type": "function"
    },
    {
      "inputs": [
        {
          "components": [
            {
              "internalType": "address",
              "name": "app",
              "type": "address"
            },
            {
              "internalType": "uint256",
              "name": "appprice",
              "type": "uint256"
            },
            {
              "internalType": "uint256",
              "name": "volume",
              "type": "uint256"
            },
            {
              "internalType": "bytes32",
              "name": "tag",
              "type": "bytes32"
            },
            {
              "internalType": "address",
              "name": "datasetrestrict",
              "type": "address"
            },
            {
              "internalType": "address",
              "name": "workerpoolrestrict",
              "type": "address"
            },
            {
              "internalType": "address",
              "name": "requesterrestrict",
              "type": "address"
            },
            {
              "internalType": "bytes32",
              "name": "salt",
              "type": "bytes32"
            },
            {
              "internalType": "bytes",
              "name": "sign",
              "type": "bytes"
            }
          ],
          "internalType": "struct IexecLibOrders_v5.AppOrder",
          "name": "appOrder",
          "type": "tuple"
        },
        {
          "components": [
            {
              "internalType": "address",
              "name": "dataset",
              "type": "address"
            },
            {
              "internalType": "uint256",
              "name": "datasetprice",
              "type": "uint256"
            },
            {
              "internalType": "uint256",
              "name": "volume",
              "type": "uint256"
            },
            {
              "internalType": "bytes32",
              "name": "tag",
              "type": "bytes32"
            },
            {
              "internalType": "address",
              "name": "apprestrict",
              "type": "address"
            },
            {
              "internalType": "address",
              "name": "workerpoolrestrict",
              "type": "address"
            },
            {
              "internalType": "address",
              "name": "requesterrestrict",
              "type": "address"
            },
            {
              "internalType": "bytes32",
              "name": "salt",
              "type": "bytes32"
            },
            {
              "internalType": "bytes",
              "name": "sign",
              "type": "bytes"
            }
          ],
          "internalType": "struct IexecLibOrders_v5.DatasetOrder",
          "name": "datasetOrder",
          "type": "tuple"
        },
        {
          "components": [
            {
              "internalType": "address",
              "name": "workerpool",
              "type": "address"
            },
            {
              "internalType": "uint256",
              "name": "workerpoolprice",
              "type": "uint256"
            },
            {
              "internalType": "uint256",
              "name": "volume",
              "type": "uint256"
            },
            {
              "internalType": "bytes32",
              "name": "tag",
              "type": "bytes32"
            },
            {
              "internalType": "uint256",
              "name": "category",
              "type": "uint256"
            },
            {
              "internalType": "uint256",
              "name": "trust",
              "type": "uint256"
            },
            {
              "internalType": "address",
              "name": "apprestrict",
              "type": "address"
            },
            {
              "internalType": "address",
              "name": "datasetrestrict",
              "type": "address"
            },
            {
              "internalType": "address",
              "name": "requesterrestrict",
              "type": "address"
            },
            {
              "internalType": "bytes32",
              "name": "salt",
              "type": "bytes32"
            },
            {
              "internalType": "bytes",
              "name": "sign",
              "type": "bytes"
            }
          ],
          "internalType": "struct IexecLibOrders_v5.WorkerpoolOrder",
          "name": "workerpoolOrder",
          "type": "tuple"
        },
        {
          "components": [
            {
              "internalType": "address",
              "name": "app",
              "type": "address"
            },
            {
              "internalType": "uint256",
              "name": "appmaxprice",
              "type": "uint256"
            },
            {
              "internalType": "address",
              "name": "dataset",
              "type": "address"
            },
            {
              "internalType": "uint256",
              "name": "datasetmaxprice",
              "type": "uint256"
            },
            {
              "internalType": "address",
              "name": "workerpool",
              "type": "address"
            },
            {
              "internalType": "uint256",
              "name": "workerpoolmaxprice",
              "type": "uint256"
            },
            {
              "internalType": "address",
              "name": "requester",
              "type": "address"
            },
            {
              "internalType": "uint256",
              "name": "volume",
              "type": "uint256"
            },
            {
              "internalType": "bytes32",
              "name": "tag",
              "type": "bytes32"
            },
            {
              "internalType": "uint256",
              "name": "category",
              "type": "uint256"
            },
            {
              "internalType": "uint256",
              "name": "trust",
              "type": "uint256"
            },
            {
              "internalType": "address",
              "name": "beneficiary",
              "type": "address"
            },
            {
              "internalType": "address",
              "name": "callback",
              "type": "address"
            },
            {
              "internalType": "string",
              "name": "params",
              "type": "string"
            },
            {
              "internalType": "bytes32",
              "name": "salt",
              "type": "bytes32"
            },
            {
              "internalType": "bytes",
              "name": "sign",
              "type": "bytes"
            }
          ],
          "internalType": "struct IexecLibOrders_v5.RequestOrder",
          "name": "requestOrder",
          "type": "tuple"
        }
      ],
      "name": "computeDealVolume",
      "outputs": [
        {
          "internalType": "uint256",
          "name": "",
          "type": "uint256"
        }
      ],
      "stateMutability": "view",
      "type": "function"
    },
    {
      "inputs": [],
      "name": "contribution_deadline_ratio",
      "outputs": [
        {
          "internalType": "uint256",
          "name": "",
          "type": "uint256"
        }
      ],
      "stateMutability": "pure",
      "type": "function"
    },
    {
      "inputs": [],
      "name": "countCategory",
      "outputs": [
        {
          "internalType": "uint256",
          "name": "count",
          "type": "uint256"
        }
      ],
      "stateMutability": "view",
      "type": "function"
    },
    {
      "inputs": [],
      "name": "datasetregistry",
      "outputs": [
        {
          "internalType": "contract IRegistry",
          "name": "",
          "type": "address"
        }
      ],
      "stateMutability": "view",
      "type": "function"
    },
    {
      "inputs": [],
      "name": "decimals",
      "outputs": [
        {
          "internalType": "uint8",
          "name": "",
          "type": "uint8"
        }
      ],
      "stateMutability": "view",
      "type": "function"
    },
    {
      "inputs": [],
      "name": "eip712domain_separator",
      "outputs": [
        {
          "internalType": "bytes32",
          "name": "",
          "type": "bytes32"
        }
      ],
      "stateMutability": "view",
      "type": "function"
    },
    {
      "inputs": [],
      "name": "final_deadline_ratio",
      "outputs": [
        {
          "internalType": "uint256",
          "name": "",
          "type": "uint256"
        }
      ],
      "stateMutability": "pure",
      "type": "function"
    },
    {
      "inputs": [
        {
          "internalType": "address",
          "name": "account",
          "type": "address"
        }
      ],
      "name": "frozenOf",
      "outputs": [
        {
          "internalType": "uint256",
          "name": "",
          "type": "uint256"
        }
      ],
      "stateMutability": "view",
      "type": "function"
    },
    {
      "inputs": [],
      "name": "groupmember_purpose",
      "outputs": [
        {
          "internalType": "uint256",
          "name": "",
          "type": "uint256"
        }
      ],
      "stateMutability": "pure",
      "type": "function"
    },
    {
      "inputs": [],
      "name": "kitty_address",
      "outputs": [
        {
          "internalType": "address",
          "name": "",
          "type": "address"
        }
      ],
      "stateMutability": "pure",
      "type": "function"
    },
    {
      "inputs": [],
      "name": "kitty_min",
      "outputs": [
        {
          "internalType": "uint256",
          "name": "",
          "type": "uint256"
        }
      ],
      "stateMutability": "pure",
      "type": "function"
    },
    {
      "inputs": [],
      "name": "kitty_ratio",
      "outputs": [
        {
          "internalType": "uint256",
          "name": "",
          "type": "uint256"
        }
      ],
      "stateMutability": "pure",
      "type": "function"
    },
    {
      "inputs": [],
      "name": "name",
      "outputs": [
        {
          "internalType": "string",
          "name": "",
          "type": "string"
        }
      ],
      "stateMutability": "view",
      "type": "function"
    },
    {
      "inputs": [
        {
          "internalType": "bytes32",
          "name": "id",
          "type": "bytes32"
        }
      ],
      "name": "resultFor",
      "outputs": [
        {
          "internalType": "bytes",
          "name": "",
          "type": "bytes"
        }
      ],
      "stateMutability": "view",
      "type": "function"
    },
    {
      "inputs": [],
      "name": "reveal_deadline_ratio",
      "outputs": [
        {
          "internalType": "uint256",
          "name": "",
          "type": "uint256"
        }
      ],
      "stateMutability": "pure",
      "type": "function"
    },
    {
      "inputs": [],
      "name": "symbol",
      "outputs": [
        {
          "internalType": "string",
          "name": "",
          "type": "string"
        }
      ],
      "stateMutability": "view",
      "type": "function"
    },
    {
      "inputs": [],
      "name": "teebroker",
      "outputs": [
        {
          "internalType": "address",
          "name": "",
          "type": "address"
        }
      ],
      "stateMutability": "view",
      "type": "function"
    },
    {
      "inputs": [],
      "name": "token",
      "outputs": [
        {
          "internalType": "address",
          "name": "",
          "type": "address"
        }
      ],
      "stateMutability": "view",
      "type": "function"
    },
    {
      "inputs": [],
      "name": "totalSupply",
      "outputs": [
        {
          "internalType": "uint256",
          "name": "",
          "type": "uint256"
        }
      ],
      "stateMutability": "view",
      "type": "function"
    },
    {
      "inputs": [
        {
          "internalType": "address",
          "name": "account",
          "type": "address"
        }
      ],
      "name": "viewAccount",
      "outputs": [
        {
          "components": [
            {
              "internalType": "uint256",
              "name": "stake",
              "type": "uint256"
            },
            {
              "internalType": "uint256",
              "name": "locked",
              "type": "uint256"
            }
          ],
          "internalType": "struct IexecLibCore_v5.Account",
          "name": "",
          "type": "tuple"
        }
      ],
      "stateMutability": "view",
      "type": "function"
    },
    {
      "inputs": [
        {
          "internalType": "address",
          "name": "app",
          "type": "address"
        }
      ],
      "name": "viewApp",
      "outputs": [
        {
          "components": [
            {
              "internalType": "address",
              "name": "owner",
              "type": "address"
            },
            {
              "internalType": "string",
              "name": "m_appName",
              "type": "string"
            },
            {
              "internalType": "string",
              "name": "m_appType",
              "type": "string"
            },
            {
              "internalType": "bytes",
              "name": "m_appMultiaddr",
              "type": "bytes"
            },
            {
              "internalType": "bytes32",
              "name": "m_appChecksum",
              "type": "bytes32"
            },
            {
              "internalType": "bytes",
              "name": "m_appMREnclave",
              "type": "bytes"
            }
          ],
          "internalType": "struct IexecLibCore_v5.AppInfo",
          "name": "",
          "type": "tuple"
        }
      ],
      "stateMutability": "view",
      "type": "function"
    },
    {
      "inputs": [
        {
          "internalType": "uint256",
          "name": "_catid",
          "type": "uint256"
        }
      ],
      "name": "viewCategory",
      "outputs": [
        {
          "components": [
            {
              "internalType": "string",
              "name": "name",
              "type": "string"
            },
            {
              "internalType": "string",
              "name": "description",
              "type": "string"
            },
            {
              "internalType": "uint256",
              "name": "workClockTimeRef",
              "type": "uint256"
            }
          ],
          "internalType": "struct IexecLibCore_v5.Category",
          "name": "category",
          "type": "tuple"
        }
      ],
      "stateMutability": "view",
      "type": "function"
    },
    {
      "inputs": [
        {
          "internalType": "bytes32",
          "name": "_id",
          "type": "bytes32"
        }
      ],
      "name": "viewConsumed",
      "outputs": [
        {
          "internalType": "uint256",
          "name": "consumed",
          "type": "uint256"
        }
      ],
      "stateMutability": "view",
      "type": "function"
    },
    {
      "inputs": [
        {
          "internalType": "bytes32",
          "name": "_taskid",
          "type": "bytes32"
        },
        {
          "internalType": "address",
          "name": "_worker",
          "type": "address"
        }
      ],
      "name": "viewContribution",
      "outputs": [
        {
          "components": [
            {
              "internalType": "enum IexecLibCore_v5.ContributionStatusEnum",
              "name": "status",
              "type": "uint8"
            },
            {
              "internalType": "bytes32",
              "name": "resultHash",
              "type": "bytes32"
            },
            {
              "internalType": "bytes32",
              "name": "resultSeal",
              "type": "bytes32"
            },
            {
              "internalType": "address",
              "name": "enclaveChallenge",
              "type": "address"
            },
            {
              "internalType": "uint256",
              "name": "weight",
              "type": "uint256"
            }
          ],
          "internalType": "struct IexecLibCore_v5.Contribution",
          "name": "",
          "type": "tuple"
        }
      ],
      "stateMutability": "view",
      "type": "function"
    },
    {
      "inputs": [
        {
          "internalType": "address",
          "name": "dataset",
          "type": "address"
        }
      ],
      "name": "viewDataset",
      "outputs": [
        {
          "components": [
            {
              "internalType": "address",
              "name": "owner",
              "type": "address"
            },
            {
              "internalType": "string",
              "name": "m_datasetName",
              "type": "string"
            },
            {
              "internalType": "bytes",
              "name": "m_datasetMultiaddr",
              "type": "bytes"
            },
            {
              "internalType": "bytes32",
              "name": "m_datasetChecksum",
              "type": "bytes32"
            }
          ],
          "internalType": "struct IexecLibCore_v5.DatasetInfo",
          "name": "",
          "type": "tuple"
        }
      ],
      "stateMutability": "view",
      "type": "function"
    },
    {
      "inputs": [
        {
          "internalType": "bytes32",
          "name": "id",
          "type": "bytes32"
        }
      ],
      "name": "viewDeal",
      "outputs": [
        {
          "components": [
            {
              "components": [
                {
                  "internalType": "address",
                  "name": "pointer",
                  "type": "address"
                },
                {
                  "internalType": "address",
                  "name": "owner",
                  "type": "address"
                },
                {
                  "internalType": "uint256",
                  "name": "price",
                  "type": "uint256"
                }
              ],
              "internalType": "struct IexecLibCore_v5.Resource",
              "name": "app",
              "type": "tuple"
            },
            {
              "components": [
                {
                  "internalType": "address",
                  "name": "pointer",
                  "type": "address"
                },
                {
                  "internalType": "address",
                  "name": "owner",
                  "type": "address"
                },
                {
                  "internalType": "uint256",
                  "name": "price",
                  "type": "uint256"
                }
              ],
              "internalType": "struct IexecLibCore_v5.Resource",
              "name": "dataset",
              "type": "tuple"
            },
            {
              "components": [
                {
                  "internalType": "address",
                  "name": "pointer",
                  "type": "address"
                },
                {
                  "internalType": "address",
                  "name": "owner",
                  "type": "address"
                },
                {
                  "internalType": "uint256",
                  "name": "price",
                  "type": "uint256"
                }
              ],
              "internalType": "struct IexecLibCore_v5.Resource",
              "name": "workerpool",
              "type": "tuple"
            },
            {
              "internalType": "uint256",
              "name": "trust",
              "type": "uint256"
            },
            {
              "internalType": "uint256",
              "name": "category",
              "type": "uint256"
            },
            {
              "internalType": "bytes32",
              "name": "tag",
              "type": "bytes32"
            },
            {
              "internalType": "address",
              "name": "requester",
              "type": "address"
            },
            {
              "internalType": "address",
              "name": "beneficiary",
              "type": "address"
            },
            {
              "internalType": "address",
              "name": "callback",
              "type": "address"
            },
            {
              "internalType": "string",
              "name": "params",
              "type": "string"
            },
            {
              "internalType": "uint256",
              "name": "startTime",
              "type": "uint256"
            },
            {
              "internalType": "uint256",
              "name": "botFirst",
              "type": "uint256"
            },
            {
              "internalType": "uint256",
              "name": "botSize",
              "type": "uint256"
            },
            {
              "internalType": "uint256",
              "name": "workerStake",
              "type": "uint256"
            },
            {
              "internalType": "uint256",
              "name": "schedulerRewardRatio",
              "type": "uint256"
            },
            {
              "internalType": "address",
              "name": "sponsor",
              "type": "address"
            }
          ],
          "internalType": "struct IexecLibCore_v5.Deal",
          "name": "deal",
          "type": "tuple"
        }
      ],
      "stateMutability": "view",
      "type": "function"
    },
    {
      "inputs": [
        {
          "internalType": "bytes32",
          "name": "_id",
          "type": "bytes32"
        }
      ],
      "name": "viewPresigned",
      "outputs": [
        {
          "internalType": "address",
          "name": "signer",
          "type": "address"
        }
      ],
      "stateMutability": "view",
      "type": "function"
    },
    {
      "inputs": [
        {
          "internalType": "address",
          "name": "_worker",
          "type": "address"
        }
      ],
      "name": "viewScore",
      "outputs": [
        {
          "internalType": "uint256",
          "name": "",
          "type": "uint256"
        }
      ],
      "stateMutability": "view",
      "type": "function"
    },
    {
      "inputs": [
        {
          "internalType": "bytes32",
          "name": "id",
          "type": "bytes32"
        }
      ],
      "name": "viewTask",
      "outputs": [
        {
          "components": [
            {
              "internalType": "enum IexecLibCore_v5.TaskStatusEnum",
              "name": "status",
              "type": "uint8"
            },
            {
              "internalType": "bytes32",
              "name": "dealid",
              "type": "bytes32"
            },
            {
              "internalType": "uint256",
              "name": "idx",
              "type": "uint256"
            },
            {
              "internalType": "uint256",
              "name": "timeref",
              "type": "uint256"
            },
            {
              "internalType": "uint256",
              "name": "contributionDeadline",
              "type": "uint256"
            },
            {
              "internalType": "uint256",
              "name": "revealDeadline",
              "type": "uint256"
            },
            {
              "internalType": "uint256",
              "name": "finalDeadline",
              "type": "uint256"
            },
            {
              "internalType": "bytes32",
              "name": "consensusValue",
              "type": "bytes32"
            },
            {
              "internalType": "uint256",
              "name": "revealCounter",
              "type": "uint256"
            },
            {
              "internalType": "uint256",
              "name": "winnerCounter",
              "type": "uint256"
            },
            {
              "internalType": "address[]",
              "name": "contributors",
              "type": "address[]"
            },
            {
              "internalType": "bytes32",
              "name": "resultDigest",
              "type": "bytes32"
            },
            {
              "internalType": "bytes",
              "name": "results",
              "type": "bytes"
            },
            {
              "internalType": "uint256",
              "name": "resultsTimestamp",
              "type": "uint256"
            },
            {
              "internalType": "bytes",
              "name": "resultsCallback",
              "type": "bytes"
            }
          ],
          "internalType": "struct IexecLibCore_v5.Task",
          "name": "",
          "type": "tuple"
        }
      ],
      "stateMutability": "view",
      "type": "function"
    },
    {
      "inputs": [
        {
          "internalType": "address",
          "name": "workerpool",
          "type": "address"
        }
      ],
      "name": "viewWorkerpool",
      "outputs": [
        {
          "components": [
            {
              "internalType": "address",
              "name": "owner",
              "type": "address"
            },
            {
              "internalType": "string",
              "name": "m_workerpoolDescription",
              "type": "string"
            },
            {
              "internalType": "uint256",
              "name": "m_workerStakeRatioPolicy",
              "type": "uint256"
            },
            {
              "internalType": "uint256",
              "name": "m_schedulerRewardRatioPolicy",
              "type": "uint256"
            }
          ],
          "internalType": "struct IexecLibCore_v5.WorkerpoolInfo",
          "name": "",
          "type": "tuple"
        }
      ],
      "stateMutability": "view",
      "type": "function"
    },
    {
      "inputs": [],
      "name": "workerpool_stake_ratio",
      "outputs": [
        {
          "internalType": "uint256",
          "name": "",
          "type": "uint256"
        }
      ],
      "stateMutability": "pure",
      "type": "function"
    },
    {
      "inputs": [],
      "name": "workerpoolregistry",
      "outputs": [
        {
          "internalType": "contract IRegistry",
          "name": "",
          "type": "address"
        }
      ],
      "stateMutability": "view",
      "type": "function"
    }
  ],
  "bytecode": "0x60806040523461001a57604051612a5e6100208239612a5e90f35b600080fdfe6080604052600436101561001257600080fd5b60003560e01c806306fdde031461024d57806318160ddd146102485780631bf6e00d146102435780631e143ef71461023e57806325eacba8146102395780632b8857c114610234578063313ce5671461022f57806345b637a91461022a5780634b2bec8c146102255780634f5f44ec146102205780635975b8fc1461021b5780636112f6fd1461021657806366517ca6146102115780636b55f4a51461020c57806370a082311461020757806374ed52441461020257806377a99692146101fd57806390a0f546146101f857806395d89b41146101f35780639910fd72146101ee578063a47e7f80146101e9578063adccf0d5146101e4578063b1b11d2c146101df578063b74861b2146101da578063bd8ab058146101d5578063c140996f146101d0578063d09cc57e146101cb578063d286eb16146101c6578063db230b52146101c1578063db8aaa26146101bc578063dcb03241146101bc578063dd62ed3e146101b7578063e1523fb4146101b2578063e63ec07d146101ad578063e741363b146101a85763fc0c546a0361025d57610e19565b610df1565b610d36565b610d0f565b610c6c565b610c2e565b610c13565b610bf8565b610bdd565b610bc2565b610b9b565b610b32565b6109a9565b610982565b610799565b61077e565b610763565b610748565b61072d565b610712565b6106f7565b6106d0565b61068b565b6105ba565b610585565b61055e565b6104fc565b6104ae565b610440565b610425565b61040a565b6103e3565b61036c565b610302565b6102d1565b600091031261025d57565b600080fd5b60005b8381106102755750506000910152565b8181015183820152602001610265565b6102a66102af6020936102b99361029a815190565b80835293849260200190565b95869101610262565b601f01601f191690565b0190565b60208082526102ce92910190610285565b90565b3461025d576102e1366004610252565b6102f86102ec612001565b604051918291826102bd565b0390f35b9052565b565b3461025d57610312366004610252565b6102f861031d612036565b6040519182918290815260200190565b6001600160a01b031690565b6001600160a01b0381165b0361025d57565b9050359061030082610339565b9060208282031261025d576102ce9161034b565b3461025d576102f861031d610382366004610358565b61205d565b80516001600160a01b03168252906102ce906060806103ca6103b86080850160208801518682036020880152610285565b60408701518582036040870152610285565b940151910152565b60208082526102ce92910190610387565b3461025d576102f86103fe6103f9366004610358565b6122ff565b604051918291826103d2565b3461025d5761041a366004610252565b6102f861031d6128ee565b3461025d57610435366004610252565b6102f861031d6128a3565b3461025d57610450366004610252565b6102f861045b612021565b6040519182918260ff909116815260200190565b6102ce9061032d906001600160a01b031682565b6102ce9061046f565b6102ce90610483565b6102fc9061048c565b6020810192916103009190610495565b3461025d576104be366004610252565b6102f86104c9612201565b6040519182918261049e565b80610344565b90503590610300826104d5565b9060208282031261025d576102ce916104db565b3461025d576102f861031d6105123660046104e8565b611e2d565b906102ce906040806103ca61053b6060850160008801518682036000880152610285565b60208701518582036020870152610285565b60208082526102ce92910190610517565b3461025d576102f86105796105743660046104e8565b6121b3565b6040519182918261054d565b3461025d57610595366004610252565b6102f86105a0612228565b604051918291826001600160a01b03909116815260200190565b3461025d576105ca366004610252565b6102f861031d6128c7565b908161012091031261025d5790565b908161016091031261025d5790565b908161020091031261025d5790565b9060808282031261025d57813567ffffffffffffffff811161025d578161062a9184016105d5565b92602083013567ffffffffffffffff811161025d578261064b9185016105d5565b92604081013567ffffffffffffffff811161025d578361066c9183016105e4565b92606082013567ffffffffffffffff811161025d576102ce92016105f3565b3461025d576102f861031d6106a1366004610602565b92919091611c2e565b80518252610300919060209081905b0151910152565b60408101929161030091906106aa565b3461025d576102f86106eb6106e6366004610358565b6120bd565b604051918291826106c0565b3461025d576102f861031d61070d366004610358565b612043565b3461025d57610722366004610252565b6102f861031d612891565b3461025d5761073d366004610252565b6102f861031d6128dc565b3461025d57610758366004610252565b6102f86104c961221b565b3461025d57610773366004610252565b6102f86102ec612014565b3461025d5761078e366004610252565b6102f861031d6128f6565b3461025d576107a9366004610252565b6102f87399c2268479b93fde36232351229815df80837e236105a0565b634e487b7160e01b600052602160045260246000fd5b600511156107e657565b6107c6565b90610300826107dc565b6102ce906107eb565b6102fc906107f5565b90610827610820610816845190565b8084529260200190565b9260200190565b9060005b8181106108385750505090565b90919261085e61085760019286516001600160a01b0316815260200190565b9460200190565b92910161082b565b6102ce916101c061094e6109296101e0840161088a600087015160008701906107fe565b61089960208701516020870152565b6108a860408701516040870152565b6108b760608701516060870152565b6108c660808701516080870152565b6108d560a087015160a0870152565b6108e460c087015160c0870152565b6108f360e087015160e0870152565b610904610100870151610100870152565b610915610120870151610120870152565b610140860151858203610140870152610807565b61093a610160860151610160860152565b610180850151848203610180860152610285565b926109606101a08201516101a0850152565b0151906101c0818403910152610285565b60208082526102ce92910190610866565b3461025d576102f861099d6109983660046104e8565b61153f565b60405191829182610971565b3461025d576109b9366004610252565b6102f86104c961220e565b80516001600160a01b03168252610300919060409081906020818101516001600160a01b0316908501526106b9565b906102ce906102a06101e0610abb6102c08401610a18600088015160008701906109c4565b610a2a602088015160608701906109c4565b610a3c604088015160c08701906109c4565b610a4c6060880151610120870152565b610a5c6080880151610140870152565b610a6c60a0880151610160870152565b60c08701516001600160a01b031661018086015260e08701516001600160a01b03166101a08601526101008701516001600160a01b03166101c086015261012087015185820384870152610285565b94610acd610140820151610200860152565b610ade610160820151610220860152565b610aef610180820151610240860152565b610b006101a0820151610260860152565b610b116101c0820151610280860152565b01516001600160a01b0316910152565b60208082526102ce929101906109f3565b3461025d576102f8610b4d610b483660046104e8565b611267565b60405191829182610b21565b80516001600160a01b03168252906102ce90606080610b7a6080840161053b565b946106b960408201516040860152565b60208082526102ce92910190610b59565b3461025d576102f8610bb6610bb1366004610358565b61276a565b60405191829182610b8a565b3461025d57610bd2366004610252565b6102f861031d6121ef565b3461025d576102f86102ec610bf33660046104e8565b611fb7565b3461025d576102f86105a0610c0e3660046104e8565b611e4c565b3461025d576102f861031d610c29366004610358565b611f53565b3461025d57610c3e366004610252565b6102f861031d6128b5565b919060408382031261025d576102ce90610c63818561034b565b9360200161034b565b3461025d576102f861031d610c82366004610c49565b90612077565b80516001600160a01b031682526102ce9160a0610cde610ccc610cba60c0850160208701518682036020880152610285565b60408601518582036040870152610285565b60608501518482036060860152610285565b92610cee60808201516080850152565b01519060a0818403910152610285565b60208082526102ce92910190610c88565b3461025d576102f8610d2a610d25366004610358565b612500565b60405191829182610cfe565b3461025d57610d46366004610252565b6102f861031d612235565b919060408382031261025d576102ce90610c6381856104db565b600411156107e657565b9061030082610d6b565b6102ce90610d75565b6102fc90610d7f565b9060808061030093610dab60008201516000860190610d88565b610dba60208201516020860152565b610dc960408201516040860152565b6060818101516001600160a01b0316908501526106b9565b60a0810192916103009190610d91565b3461025d576102f8610e0d610e07366004610d51565b90611f2b565b60405191829182610de1565b3461025d57610e29366004610252565b6102f86105a0612108565b634e487b7160e01b600052604160045260246000fd5b90601f01601f1916810190811067ffffffffffffffff821117610e6c57604052565b610e34565b90610300610e7e60405190565b9283610e4a565b6102ce610200610e71565b6102ce6060610e71565b610ea2610e90565b906000825260208080840160005b8152016000905250565b6102ce610e9a565b610eca610e85565b90610ed3610eba565b825260208201610ee1610eba565b8152602001610eee610eba565b815260200160008152602001600081526020016000815260200160008152602001600081526020016000815260200160608152602001600081526020016000815260200160008152602001600081526020016000815260200160009052565b6102ce610ec2565b905b600052602052604060002090565b6102ce9061032d565b6102ce9054610f65565b6102ce9081565b6102ce9054610f78565b90610300610fd96002610f9a610e90565b94610fb4610fa782610f6e565b6001600160a01b03168752565b610fd3610fc360018301610f6e565b6001600160a01b03166020880152565b01610f7f565b6040840152565b634e487b7160e01b600052602260045260246000fd5b9060016002830492168015611016575b602083101461101157565b610fe0565b91607f1691611006565b8054600093929161103d61103383610ff6565b8085529360200190565b916001811690811561108f575060011461105657505050565b6110699192939450600052602060002090565b916000925b81841061107b5750500190565b80548484015260209093019260010161106e565b92949550505060ff1916825215156020020190565b906102ce91611020565b906103006110c8926110bf60405190565b938480926110a4565b0383610e4a565b9061030061124d60156110e0610e85565b946110f16110ed82610f89565b8752565b61110761110060038301610f89565b6020880152565b61111d61111660068301610f89565b6040880152565b61113361112c60098301610f7f565b6060880152565b611149611142600a8301610f7f565b6080880152565b61115f611158600b8301610f7f565b60a0880152565b61117e61116e600c8301610f6e565b6001600160a01b031660c0880152565b61119d61118d600d8301610f6e565b6001600160a01b031660e0880152565b6111bd6111ac600e8301610f6e565b6001600160a01b0316610100880152565b6111d46111cc600f83016110ae565b610120880152565b6111eb6111e360108301610f7f565b610140880152565b6112026111fa60118301610f7f565b610160880152565b61121961121160128301610f7f565b610180880152565b61123061122860138301610f7f565b6101a0880152565b61124761123f60148301610f7f565b6101c0880152565b01610f6e565b6001600160a01b03166101e0840152565b6102ce906110cf565b6112876102ce91611276610f4d565b50600e611281612a04565b01610f55565b61125e565b6102ce6101e0610e71565b61129f61128c565b9060008252602082016000815260200160008152602001600081526020016000815260200160008152602001600081526020016000815260200160008152602001600081526020016060815260200160008152602001606081526020016000815260200160609052565b6102ce611297565b906102fc906107eb565b9061133661132a610816845490565b92600052602060002090565b9060005b8181106113475750505090565b90919261137461136d60019261135c87610f6e565b6001600160a01b0316815260200190565b9460010190565b92910161133a565b906102ce9161131b565b906103006110c89261139760405190565b9384809261137c565b805460009392916113b361103383610ff6565b916001811690811561108f57506001146113cc57505050565b6113df9192939450600052602060002090565b916000925b8184106113f15750500190565b8054848401526020909301926001016113e4565b906102ce916113a0565b906103006110c89261142060405190565b93848092611405565b9061030061152e600e61143a61128c565b9461144f611449825460ff1690565b87611311565b61145e61110060018301610f7f565b61146d61111660028301610f7f565b61147c61112c60038301610f7f565b61148b61114260048301610f7f565b61149a61115860058301610f7f565b6114b06114a960068301610f7f565b60c0880152565b6114c66114bf60078301610f7f565b60e0880152565b6114dd6114d560088301610f7f565b610100880152565b6114ec6111cc60098301610f7f565b6114fb6111e3600a8301611386565b61150a6111fa600b8301610f7f565b611519611211600c830161140f565b611528611228600d8301610f7f565b0161140f565b6101c0840152565b6102ce90611429565b6115596102ce9161154e611309565b50600f611281612a04565b611536565b356102ce816104d5565b67ffffffffffffffff8111610e6c57602090601f01601f19160190565b90826000939282370152565b909291926115a66115a182611568565b610e71565b9381855260208501908284011161025d5761030092611585565b9080601f8301121561025d578160206102ce93359101611591565b9190916101208184031261025d576115f4610120610e71565b926000611601828461034b565b908501526020611613828285016104db565b908501526040611625828285016104db565b908501526060611637828285016104db565b9085015260806116498282850161034b565b9085015260a061165b8282850161034b565b9085015260c061166d8282850161034b565b9085015260e061167f828285016104db565b9085015261010082013567ffffffffffffffff811161025d576116a292016115c0565b610100830152565b6102ce9036906115db565b90505190610300826104d5565b9060208282031261025d576102ce916116b5565b80516001600160a01b031682526102ce916101208101916101009061170060208201516020850152565b61170f60408201516040850152565b61171e60608201516060850152565b6080818101516001600160a01b03169084015260a0818101516001600160a01b03169084015260c0818101516001600160a01b03169084015261176660e082015160e0850152565b015190610100818403910152610285565b60208082526102ce929101906116d6565b6040513d6000823e3d90fd5b356102ce81610339565b61032d6102ce6102ce9290565b6102ce9061179e565b9190916101608184031261025d576117cd610160610e71565b9260006117da828461034b565b9085015260206117ec828285016104db565b9085015260406117fe828285016104db565b908501526060611810828285016104db565b908501526080611822828285016104db565b9085015260a0611834828285016104db565b9085015260c06118468282850161034b565b9085015260e06118588282850161034b565b9085015261010061186b8282850161034b565b9085015261012061187e828285016104db565b9085015261014082013567ffffffffffffffff811161025d576118a192016115c0565b610140830152565b6102ce9036906117b4565b80516001600160a01b031682526102ce91610160810191610140906118de60208201516020850152565b6118ed60408201516040850152565b6118fc60608201516060850152565b61190b60808201516080850152565b61191a60a082015160a0850152565b60c0818101516001600160a01b03169084015260e0818101516001600160a01b031690840152610100818101516001600160a01b031690840152611965610120820151610120850152565b015190610140818403910152610285565b60208082526102ce929101906118b4565b9190916102008184031261025d576119a0610200610e71565b9260006119ad828461034b565b9085015260206119bf828285016104db565b9085015260406119d18282850161034b565b9085015260606119e3828285016104db565b9085015260806119f58282850161034b565b9085015260a0611a07828285016104db565b9085015260c0611a198282850161034b565b9085015260e0611a2b828285016104db565b90850152610100611a3e828285016104db565b90850152610120611a51828285016104db565b90850152610140611a64828285016104db565b90850152610160611a778282850161034b565b90850152610180611a8a8282850161034b565b908501526101a082013567ffffffffffffffff811161025d5781611aaf9184016115c0565b6101a08501526101c0611ac4828285016104db565b908501526101e082013567ffffffffffffffff811161025d57611ae792016115c0565b6101e0830152565b6102ce903690611987565b80516001600160a01b031682526102ce916101e0611bfa6102008301611b2560208601516020860152565b6040858101516001600160a01b031690850152611b4760608601516060860152565b6080858101516001600160a01b031690850152611b6960a086015160a0860152565b60c0858101516001600160a01b031690850152611b8b60e086015160e0860152565b611b9c610100860151610100860152565b611bad610120860151610120860152565b611bbe610140860151610140860152565b610160858101516001600160a01b031690850152610180858101516001600160a01b0316908501526101a08501518482036101a0860152610285565b92611c0c6101c08201516101c0850152565b0151906101e0818403910152610285565b60208082526102ce92910190611afa565b90929091611c47611c416040850161155e565b936116aa565b9073__$9d824026d0515d8abd681f0f0f4707f16a$__916020611c7f637c0d54d3611c8a611c7460405190565b948593849360e01b90565b835260048301611777565b0381865af48015611e1157611ca791600091611de3575b506129d6565b94611cb181611794565b611cce611cc161032d60006117ab565b916001600160a01b031690565b141590611ce6611ce06040830161155e565b916116aa565b6020611c7f6311b2eee2611cfc611c7460405190565b0381885af48015611e1157611d1891600091611de357506129d6565b91611d2e611d286040860161155e565b946118a9565b976020611d5063fed985fe611d5b611d4560405190565b9c8d93849360e01b90565b835260048301611976565b0381895af48015611e1157611d7d602091611dbd9b600091611e1657506129d6565b96611d93611d8d60e08b0161155e565b99611aef565b90611db2638ac03f33611da560405190565b9d8e948593849360e01b90565b835260048301611c1d565b03915af4988915611e11576102ce99611ddd91600091611de357506129d6565b9761292b565b611e04915060203d8111611e0a575b611dfc8183610e4a565b8101906116c2565b38611ca1565b503d611df2565b611788565b611e049150833d8111611e0a57611dfc8183610e4a565b611e476102ce91611e3c600090565b50600d611281612a04565b610f7f565b611e666102ce91611e5b600090565b50600c611281612a04565b610f6e565b6102ce60a0610e71565b611e7d611e6b565b90600082526020808080808601600081520160005b8152016000610eb0565b6102ce611e75565b90610f579061048c565b906102fc90610d75565b90610300611f1b6004611ec9611e6b565b94611ede611ed8825460ff1690565b87611eae565b611eed61110060018301610f7f565b611efc61111660028301610f7f565b610fd3611f0b60038301610f6e565b6001600160a01b03166060880152565b6080840152565b6102ce90611eb8565b6102ce91611f49611f4e92611f3e611e9c565b506011611281612a04565b611ea4565b611f22565b611e476102ce91611f62600090565b506012611f6d612a04565b01611ea4565b15611f7a57565b60405162461bcd60e51b815260206004820152600c60248201526b7461736b2d70656e64696e6760a01b6044820152606490fd5b6102ce9061140f565b600e611fcb6102ce6102ce9361154e606090565b611ff2611fd9825460ff1690565b611fec611fe660036107eb565b916107eb565b14611f73565b01611fae565b6102ce906110ae565b6102ce600461200e612a04565b01611ff8565b6102ce600561200e612a04565b6102ce600661202e612a04565b015460ff1690565b6102ce6007610fd3612a04565b611e476102ce91612052600090565b506008611f6d612a04565b611e476102ce9161206c600090565b506009611f6d612a04565b6102ce91611f49611e479261208a600090565b50600a611f6d612a04565b6102ce6040610e71565b6120a7612095565b906000825260006020830152565b6102ce61209f565b6120c56120b5565b506102ce6120f1611e476120d7612a04565b9360096120ea611e478360088901611ea4565b9501611ea4565b6121016120fc612095565b938452565b6020830152565b6102ce6121186003611247612a04565b61048c565b612125610e90565b90606082526020808084016060610eb0565b6102ce61211d565b634e487b7160e01b600052603260045260246000fd5b80548210156121785761216f600391600052602060002090565b91020190600090565b61213f565b90610300610fd9600261218e610e90565b9461219b6110ed826110ae565b610fd3611100600183016110ae565b6102ce9061217d565b6121bb612137565b506121c4612a04565b60158101916121d46102ce845490565b81101561025d576102ce926121e99250612155565b506121aa565b6102ce60156121fc612a04565b015490565b6102ce6000611247612a04565b6102ce6001611247612a04565b6102ce6002611247612a04565b6102ce6013611247612a04565b6102ce6014610fd3612a04565b6102ce6080610e71565b612254612242565b90600082526020808080850160608152016060610eb0565b6102ce61224c565b9050519061030082610339565b9060208282031261025d576102ce91612274565b909291926122a56115a182611568565b9381855260208501908284011161025d5761030092610262565b9080601f8301121561025d5781516102ce92602001612295565b9060208282031261025d57815167ffffffffffffffff811161025d576102ce92016122bf565b6123119061230b61226c565b5061048c565b61231a8161048c565b638da5cb5b9161233361232c60405190565b9360e01b90565b8352602083600481855afa928315611e115760009361248d575b50630847c4319061236761236060405190565b9260e01b90565b8252600082600481865afa918215611e1157600092612472575b5063a61ca6c59261239b61239460405190565b9460e01b90565b8452600084600481845afa908115611e11576123d49460009261244e575b50604051919250602091631ba99d7e91905b95869260e01b90565b825260049082905afa908115611e11576102ce93600092612428575b5061241a6124219293612413612404612242565b6001600160a01b039098168852565b6020870152565b6040850152565b6060830152565b612421925061244761241a9160203d8111611e0a57611dfc8183610e4a565b92506123f0565b61246c906020933d8091833e6124648183610e4a565b8101906122d9565b916123b9565b61248691923d8091833e6124648183610e4a565b9038612381565b6124af91935060203d81116124b6575b6124a78183610e4a565b810190612281565b913861234d565b503d61249d565b6102ce60c0610e71565b6124cf6124bd565b906000825260208080808080870160608152016060815201606081520160008152016060905250565b6102ce6124c7565b61250c9061230b6124f8565b6125158161048c565b638da5cb5b9161252761232c60405190565b8352602083600481855afa928315611e1157600093612727575b5063358982a39061255461236060405190565b8252600082600481865afa918215611e115760009261270c575b5063f8c2ceb39061258161236060405190565b8252600082600481875afa918215611e11576000926126f1575b506339e75d456125b46125ad60405190565b9160e01b90565b8152600081600481885afa908115611e11576000916126d8575b506384aaf12e946125e86125e160405190565b9660e01b90565b8652602086600481845afa928315611e115761261c966000946126b3575b5050604051956000918791631c61a4d560e31b90565b825260049082905afa928315611e11576102ce95600094612686575b50906126716126789261266a61267f96976126636126546124bd565b6001600160a01b03909c168c52565b60208b0152565b6040890152565b6060870152565b6080850152565b60a0830152565b612678929161266a6126a86126719361267f983d8091833e6124648183610e4a565b965050919250612638565b6000929194506126d09060203d8111611e0a57611dfc8183610e4a565b939091612606565b6126eb913d8091833e6124648183610e4a565b386125ce565b61270591923d8091833e6124648183610e4a565b903861259b565b61272091923d8091833e6124648183610e4a565b903861256e565b61274091935060203d81116124b6576124a78183610e4a565b9138612541565b61274f612242565b9060008252602080808085016060611e92565b6102ce612747565b6127769061230b612762565b61277f8161048c565b638da5cb5b9161279161232c60405190565b8352602083600481855afa928315611e115760009361285a575b5063584feb3a906127be61236060405190565b8252600082600481865afa918215611e115760009261283f575b5063b55e75af926127eb61239460405190565b8452602084600481845afa908115611e11576123d49460009261281f575b506040519192506020916387639c6891906123cb565b6020925061283990833d8111611e0a57611dfc8183610e4a565b91612809565b61285391923d8091833e6124648183610e4a565b90386127d8565b61287391935060203d81116124b6576124a78183610e4a565b91386127ab565b6102ce6102ce6102ce9290565b6102ce600761287a565b6102ce612887565b6102ce600261287a565b6102ce612899565b6102ce600a61287a565b6102ce6128ab565b6102ce601e61287a565b6102ce6128bd565b6102ce633b9aca0061287a565b6102ce6128cf565b6102ce600461287a565b6102ce6128e4565b6102ce600b610fd3612a04565b634e487b7160e01b600052601160045260246000fd5b9190820391821161292657565b612903565b9397919596949761293a600090565b50612943612a04565b978895600d8701936129559085610f55565b61295e90610f7f565b61296791612919565b976000146102ce9a6129a2611e476129ae6129a89c6129a29b611e479b6129b5996129a8986129bc57611e476129a2916129a894508d610f55565b90612919565b906129c4565b9487610f55565b9650610f55565b505050600019905b90808210156129d1575090565b919050565b6102ce906129e7600b610fd3612a04565b6042916040519161190160f01b8352600283015260228201522090565b7f5862653c6982c162832160cf30593645e8487b257e44d77cdd6b51eee2651b009056fea2646970667358221220f26251b4c8f8b5cfd4bed30b9fcb54e144b09ce8b747d517003c112da7f2b75764736f6c63430008150033",
  "linkReferences": {
    "contracts/libs/IexecLibOrders_v5.sol": {
      "IexecLibOrders_v5": [
        {
          "length": 20,
          "start": 7274
        }
      ]
    }
  },
  "deployedLinkReferences": {
    "contracts/libs/IexecLibOrders_v5.sol": {
      "IexecLibOrders_v5": [
        {
          "length": 20,
          "start": 7242
        }
      ]
    }
  }
}