{
  "_format": "hh-sol-artifact-1",
  "contractName": "IexecPocoBoostAccessorsFacet",
  "sourceName": "contracts/facets/IexecPocoBoostAccessorsFacet.sol",
  "abi": [
    {
      "inputs": [
        {
          "internalType": "bytes32",
          "name": "id",
          "type": "bytes32"
        }
      ],
      "name": "viewDealBoost",
      "outputs": [
        {
          "components": [
            {
              "internalType": "address",
              "name": "appOwner",
              "type": "address"
            },
            {
              "internalType": "uint96",
              "name": "appPrice",
              "type": "uint96"
            },
            {
              "internalType": "address",
              "name": "datasetOwner",
              "type": "address"
            },
            {
              "internalType": "uint96",
              "name": "datasetPrice",
              "type": "uint96"
            },
            {
              "internalType": "address",
              "name": "workerpoolOwner",
              "type": "address"
            },
            {
              "internalType": "uint96",
              "name": "workerpoolPrice",
              "type": "uint96"
            },
            {
              "internalType": "address",
              "name": "requester",
              "type": "address"
            },
            {
              "internalType": "uint96",
              "name": "workerReward",
              "type": "uint96"
            },
            {
              "internalType": "address",
              "name": "callback",
              "type": "address"
            },
            {
              "internalType": "uint40",
              "name": "deadline",
              "type": "uint40"
            },
            {
              "internalType": "uint16",
              "name": "botFirst",
              "type": "uint16"
            },
            {
              "internalType": "uint16",
              "name": "botSize",
              "type": "uint16"
            },
            {
              "internalType": "bytes3",
              "name": "shortTag",
              "type": "bytes3"
            },
            {
              "internalType": "address",
              "name": "sponsor",
              "type": "address"
            }
          ],
          "internalType": "struct IexecLibCore_v5.DealBoost",
          "name": "deal",
          "type": "tuple"
        }
      ],
      "stateMutability": "view",
      "type": "function"
    }
  ],
  "bytecode": "0x60806040523461001a5760405161050c610020823961050c90f35b600080fdfe6080604052600436101561001257600080fd5b6363fbac1760003560e01c1461015f575b600080fd5b905035905b565b906020828203126100235761004391610028565b90565b80516001600160a01b0316825261002d91906101a09081906020818101516001600160601b0316908501526040808201516001600160a01b0316908501526060818101516001600160601b0316908501526080808201516001600160a01b03169085015260a0818101516001600160601b03169085015260c0808201516001600160a01b03169085015260e0818101516001600160601b031690850152610100808201516001600160a01b0316908501526101208181015164ffffffffff16908501526101408181015161ffff16908501526101608181015161ffff1690850152610180818101516001600160e81b0319169085015201519101906001600160a01b03169052565b6101c08101929161002d9190610046565b346100235761018661017a61017536600461002f565b610491565b6040519182918261014e565b0390f35b634e487b7160e01b600052604160045260246000fd5b90601f01601f1916810190811067ffffffffffffffff8211176101c257604052565b61018a565b9061002d6101d460405190565b92836101a0565b6100436101c06101c7565b602090818080808080808080808080806101fe6101db565b9e8f60008152016000815201600081520160008152016000815201600081520160008152016000815201600081520160008152016000815201600081520160008152016000905250565b6100436101e6565b6100439060a01c64ffffffffff1690565b6100439054610250565b6100439060c81c5b61ffff1690565b610043905461026b565b6100439060d81c610273565b6100439054610284565b9061002d61047760056102ab6101db565b946102cd6102c082546001600160a01b031690565b6001600160a01b03168752565b6102eb6102db825460a01c90565b6001600160601b03166020880152565b61031261030260018301546001600160a01b031690565b6001600160a01b03166040880152565b610333610323600183015460a01c90565b6001600160601b03166060880152565b61035a61034a60028301546001600160a01b031690565b6001600160a01b03166080880152565b61037b61036b600283015460a01c90565b6001600160601b031660a0880152565b6103a261039260038301546001600160a01b031690565b6001600160a01b031660c0880152565b6103c36103b3600383015460a01c90565b6001600160601b031660e0880152565b6103eb6103da60048301546001600160a01b031690565b6001600160a01b0316610100880152565b6104096103fa60048301610261565b64ffffffffff16610120880152565b6104246104186004830161027a565b61ffff16610140880152565b61043f61043360048301610290565b61ffff16610160880152565b61046961045760048301546001600160e81b03191690565b6001600160e81b031916610180880152565b01546001600160a01b031690565b6001600160a01b03166101a0840152565b6100439061029a565b6104d1610043916104a0610248565b507f5862653c6982c162832160cf30593645e8487b257e44d77cdd6b51eee2651b1890600052602052604060002090565b61048856fea2646970667358221220d924397a6b75fe18259bdad2ab2a4981dd0cd3f9ab03da183fbf487fd29aa01f64736f6c63430008150033",
  "linkReferences": {},
  "deployedLinkReferences": {}
}