{
  "_format": "hh-sol-artifact-1",
  "contractName": "IexecPocoBoostFacet",
  "sourceName": "contracts/facets/IexecPocoBoostFacet.sol",
  "abi": [
    {
      "inputs": [
        {
          "internalType": "uint8",
          "name": "bits",
          "type": "uint8"
        },
        {
          "internalType": "uint256",
          "name": "value",
          "type": "uint256"
        }
      ],
      "name": "SafeCastOverflowedUintDowncast",
      "type": "error"
    },
    {
      "anonymous": false,
      "inputs": [
        {
          "indexed": false,
          "internalType": "bytes32",
          "name": "dealId",
          "type": "bytes32"
        },
        {
          "indexed": false,
          "internalType": "address",
          "name": "sponsor",
          "type": "address"
        }
      ],
      "name": "DealSponsoredBoost",
      "type": "event"
    },
    {
      "anonymous": false,
      "inputs": [
        {
          "indexed": false,
          "internalType": "address",
          "name": "owner",
          "type": "address"
        },
        {
          "indexed": false,
          "internalType": "uint256",
          "name": "amount",
          "type": "uint256"
        }
      ],
      "name": "Lock",
      "type": "event"
    },
    {
      "anonymous": false,
      "inputs": [
        {
          "indexed": false,
          "internalType": "bytes32",
          "name": "dealid",
          "type": "bytes32"
        },
        {
          "indexed": false,
          "internalType": "bytes32",
          "name": "appHash",
          "type": "bytes32"
        },
        {
          "indexed": false,
          "internalType": "bytes32",
          "name": "datasetHash",
          "type": "bytes32"
        },
        {
          "indexed": false,
          "internalType": "bytes32",
          "name": "workerpoolHash",
          "type": "bytes32"
        },
        {
          "indexed": false,
          "internalType": "bytes32",
          "name": "requestHash",
          "type": "bytes32"
        },
        {
          "indexed": false,
          "internalType": "uint256",
          "name": "volume",
          "type": "uint256"
        }
      ],
      "name": "OrdersMatched",
      "type": "event"
    },
    {
      "anonymous": false,
      "inputs": [
        {
          "indexed": false,
          "internalType": "bytes32",
          "name": "dealId",
          "type": "bytes32"
        },
        {
          "indexed": false,
          "internalType": "uint256",
          "name": "index",
          "type": "uint256"
        },
        {
          "indexed": false,
          "internalType": "bytes",
          "name": "results",
          "type": "bytes"
        }
      ],
      "name": "ResultPushedBoost",
      "type": "event"
    },
    {
      "anonymous": false,
      "inputs": [
        {
          "indexed": false,
          "internalType": "address",
          "name": "owner",
          "type": "address"
        },
        {
          "indexed": false,
          "internalType": "uint256",
          "name": "amount",
          "type": "uint256"
        },
        {
          "indexed": false,
          "internalType": "bytes32",
          "name": "ref",
          "type": "bytes32"
        }
      ],
      "name": "Reward",
      "type": "event"
    },
    {
      "anonymous": false,
      "inputs": [
        {
          "indexed": true,
          "internalType": "address",
          "name": "workerpool",
          "type": "address"
        },
        {
          "indexed": false,
          "internalType": "bytes32",
          "name": "dealId",
          "type": "bytes32"
        },
        {
          "indexed": false,
          "internalType": "address",
          "name": "app",
          "type": "address"
        },
        {
          "indexed": false,
          "internalType": "address",
          "name": "dataset",
          "type": "address"
        },
        {
          "indexed": false,
          "internalType": "uint256",
          "name": "category",
          "type": "uint256"
        },
        {
          "indexed": false,
          "internalType": "bytes32",
          "name": "tag",
          "type": "bytes32"
        },
        {
          "indexed": false,
          "internalType": "string",
          "name": "params",
          "type": "string"
        },
        {
          "indexed": false,
          "internalType": "address",
          "name": "beneficiary",
          "type": "address"
        }
      ],
      "name": "SchedulerNoticeBoost",
      "type": "event"
    },
    {
      "anonymous": false,
      "inputs": [
        {
          "indexed": false,
          "internalType": "address",
          "name": "owner",
          "type": "address"
        },
        {
          "indexed": false,
          "internalType": "uint256",
          "name": "amount",
          "type": "uint256"
        },
        {
          "indexed": false,
          "internalType": "bytes32",
          "name": "ref",
          "type": "bytes32"
        }
      ],
      "name": "Seize",
      "type": "event"
    },
    {
      "anonymous": false,
      "inputs": [
        {
          "indexed": true,
          "internalType": "bytes32",
          "name": "taskid",
          "type": "bytes32"
        }
      ],
      "name": "TaskClaimed",
      "type": "event"
    },
    {
      "anonymous": false,
      "inputs": [
        {
          "indexed": true,
          "internalType": "address",
          "name": "from",
          "type": "address"
        },
        {
          "indexed": true,
          "internalType": "address",
          "name": "to",
          "type": "address"
        },
        {
          "indexed": false,
          "internalType": "uint256",
          "name": "value",
          "type": "uint256"
        }
      ],
      "name": "Transfer",
      "type": "event"
    },
    {
      "anonymous": false,
      "inputs": [
        {
          "indexed": false,
          "internalType": "address",
          "name": "owner",
          "type": "address"
        },
        {
          "indexed": false,
          "internalType": "uint256",
          "name": "amount",
          "type": "uint256"
        }
      ],
      "name": "Unlock",
      "type": "event"
    },
    {
      "inputs": [
        {
          "internalType": "bytes32",
          "name": "dealId",
          "type": "bytes32"
        },
        {
          "internalType": "uint256",
          "name": "index",
          "type": "uint256"
        }
      ],
      "name": "claimBoost",
      "outputs": [],
      "stateMutability": "nonpayable",
      "type": "function"
    },
    {
      "inputs": [
        {
          "components": [
            {
              "internalType": "address",
              "name": "app",
              "type": "address"
            },
            {
              "internalType": "uint256",
              "name": "appprice",
              "type": "uint256"
            },
            {
              "internalType": "uint256",
              "name": "volume",
              "type": "uint256"
            },
            {
              "internalType": "bytes32",
              "name": "tag",
              "type": "bytes32"
            },
            {
              "internalType": "address",
              "name": "datasetrestrict",
              "type": "address"
            },
            {
              "internalType": "address",
              "name": "workerpoolrestrict",
              "type": "address"
            },
            {
              "internalType": "address",
              "name": "requesterrestrict",
              "type": "address"
            },
            {
              "internalType": "bytes32",
              "name": "salt",
              "type": "bytes32"
            },
            {
              "internalType": "bytes",
              "name": "sign",
              "type": "bytes"
            }
          ],
          "internalType": "struct IexecLibOrders_v5.AppOrder",
          "name": "appOrder",
          "type": "tuple"
        },
        {
          "components": [
            {
              "internalType": "address",
              "name": "dataset",
              "type": "address"
            },
            {
              "internalType": "uint256",
              "name": "datasetprice",
              "type": "uint256"
            },
            {
              "internalType": "uint256",
              "name": "volume",
              "type": "uint256"
            },
            {
              "internalType": "bytes32",
              "name": "tag",
              "type": "bytes32"
            },
            {
              "internalType": "address",
              "name": "apprestrict",
              "type": "address"
            },
            {
              "internalType": "address",
              "name": "workerpoolrestrict",
              "type": "address"
            },
            {
              "internalType": "address",
              "name": "requesterrestrict",
              "type": "address"
            },
            {
              "internalType": "bytes32",
              "name": "salt",
              "type": "bytes32"
            },
            {
              "internalType": "bytes",
              "name": "sign",
              "type": "bytes"
            }
          ],
          "internalType": "struct IexecLibOrders_v5.DatasetOrder",
          "name": "datasetOrder",
          "type": "tuple"
        },
        {
          "components": [
            {
              "internalType": "address",
              "name": "workerpool",
              "type": "address"
            },
            {
              "internalType": "uint256",
              "name": "workerpoolprice",
              "type": "uint256"
            },
            {
              "internalType": "uint256",
              "name": "volume",
              "type": "uint256"
            },
            {
              "internalType": "bytes32",
              "name": "tag",
              "type": "bytes32"
            },
            {
              "internalType": "uint256",
              "name": "category",
              "type": "uint256"
            },
            {
              "internalType": "uint256",
              "name": "trust",
              "type": "uint256"
            },
            {
              "internalType": "address",
              "name": "apprestrict",
              "type": "address"
            },
            {
              "internalType": "address",
              "name": "datasetrestrict",
              "type": "address"
            },
            {
              "internalType": "address",
              "name": "requesterrestrict",
              "type": "address"
            },
            {
              "internalType": "bytes32",
              "name": "salt",
              "type": "bytes32"
            },
            {
              "internalType": "bytes",
              "name": "sign",
              "type": "bytes"
            }
          ],
          "internalType": "struct IexecLibOrders_v5.WorkerpoolOrder",
          "name": "workerpoolOrder",
          "type": "tuple"
        },
        {
          "components": [
            {
              "internalType": "address",
              "name": "app",
              "type": "address"
            },
            {
              "internalType": "uint256",
              "name": "appmaxprice",
              "type": "uint256"
            },
            {
              "internalType": "address",
              "name": "dataset",
              "type": "address"
            },
            {
              "internalType": "uint256",
              "name": "datasetmaxprice",
              "type": "uint256"
            },
            {
              "internalType": "address",
              "name": "workerpool",
              "type": "address"
            },
            {
              "internalType": "uint256",
              "name": "workerpoolmaxprice",
              "type": "uint256"
            },
            {
              "internalType": "address",
              "name": "requester",
              "type": "address"
            },
            {
              "internalType": "uint256",
              "name": "volume",
              "type": "uint256"
            },
            {
              "internalType": "bytes32",
              "name": "tag",
              "type": "bytes32"
            },
            {
              "internalType": "uint256",
              "name": "category",
              "type": "uint256"
            },
            {
              "internalType": "uint256",
              "name": "trust",
              "type": "uint256"
            },
            {
              "internalType": "address",
              "name": "beneficiary",
              "type": "address"
            },
            {
              "internalType": "address",
              "name": "callback",
              "type": "address"
            },
            {
              "internalType": "string",
              "name": "params",
              "type": "string"
            },
            {
              "internalType": "bytes32",
              "name": "salt",
              "type": "bytes32"
            },
            {
              "internalType": "bytes",
              "name": "sign",
              "type": "bytes"
            }
          ],
          "internalType": "struct IexecLibOrders_v5.RequestOrder",
          "name": "requestOrder",
          "type": "tuple"
        }
      ],
      "name": "matchOrdersBoost",
      "outputs": [
        {
          "internalType": "bytes32",
          "name": "",
          "type": "bytes32"
        }
      ],
      "stateMutability": "nonpayable",
      "type": "function"
    },
    {
      "inputs": [
        {
          "internalType": "bytes32",
          "name": "dealId",
          "type": "bytes32"
        },
        {
          "internalType": "uint256",
          "name": "index",
          "type": "uint256"
        },
        {
          "internalType": "bytes",
          "name": "results",
          "type": "bytes"
        },
        {
          "internalType": "bytes",
          "name": "resultsCallback",
          "type": "bytes"
        },
        {
          "internalType": "bytes",
          "name": "authorizationSign",
          "type": "bytes"
        },
        {
          "internalType": "address",
          "name": "enclaveChallenge",
          "type": "address"
        },
        {
          "internalType": "bytes",
          "name": "enclaveSign",
          "type": "bytes"
        }
      ],
      "name": "pushResultBoost",
      "outputs": [],
      "stateMutability": "nonpayable",
      "type": "function"
    },
    {
      "inputs": [
        {
          "components": [
            {
              "internalType": "address",
              "name": "app",
              "type": "address"
            },
            {
              "internalType": "uint256",
              "name": "appprice",
              "type": "uint256"
            },
            {
              "internalType": "uint256",
              "name": "volume",
              "type": "uint256"
            },
            {
              "internalType": "bytes32",
              "name": "tag",
              "type": "bytes32"
            },
            {
              "internalType": "address",
              "name": "datasetrestrict",
              "type": "address"
            },
            {
              "internalType": "address",
              "name": "workerpoolrestrict",
              "type": "address"
            },
            {
              "internalType": "address",
              "name": "requesterrestrict",
              "type": "address"
            },
            {
              "internalType": "bytes32",
              "name": "salt",
              "type": "bytes32"
            },
            {
              "internalType": "bytes",
              "name": "sign",
              "type": "bytes"
            }
          ],
          "internalType": "struct IexecLibOrders_v5.AppOrder",
          "name": "appOrder",
          "type": "tuple"
        },
        {
          "components": [
            {
              "internalType": "address",
              "name": "dataset",
              "type": "address"
            },
            {
              "internalType": "uint256",
              "name": "datasetprice",
              "type": "uint256"
            },
            {
              "internalType": "uint256",
              "name": "volume",
              "type": "uint256"
            },
            {
              "internalType": "bytes32",
              "name": "tag",
              "type": "bytes32"
            },
            {
              "internalType": "address",
              "name": "apprestrict",
              "type": "address"
            },
            {
              "internalType": "address",
              "name": "workerpoolrestrict",
              "type": "address"
            },
            {
              "internalType": "address",
              "name": "requesterrestrict",
              "type": "address"
            },
            {
              "internalType": "bytes32",
              "name": "salt",
              "type": "bytes32"
            },
            {
              "internalType": "bytes",
              "name": "sign",
              "type": "bytes"
            }
          ],
          "internalType": "struct IexecLibOrders_v5.DatasetOrder",
          "name": "datasetOrder",
          "type": "tuple"
        },
        {
          "components": [
            {
              "internalType": "address",
              "name": "workerpool",
              "type": "address"
            },
            {
              "internalType": "uint256",
              "name": "workerpoolprice",
              "type": "uint256"
            },
            {
              "internalType": "uint256",
              "name": "volume",
              "type": "uint256"
            },
            {
              "internalType": "bytes32",
              "name": "tag",
              "type": "bytes32"
            },
            {
              "internalType": "uint256",
              "name": "category",
              "type": "uint256"
            },
            {
              "internalType": "uint256",
              "name": "trust",
              "type": "uint256"
            },
            {
              "internalType": "address",
              "name": "apprestrict",
              "type": "address"
            },
            {
              "internalType": "address",
              "name": "datasetrestrict",
              "type": "address"
            },
            {
              "internalType": "address",
              "name": "requesterrestrict",
              "type": "address"
            },
            {
              "internalType": "bytes32",
              "name": "salt",
              "type": "bytes32"
            },
            {
              "internalType": "bytes",
              "name": "sign",
              "type": "bytes"
            }
          ],
          "internalType": "struct IexecLibOrders_v5.WorkerpoolOrder",
          "name": "workerpoolOrder",
          "type": "tuple"
        },
        {
          "components": [
            {
              "internalType": "address",
              "name": "app",
              "type": "address"
            },
            {
              "internalType": "uint256",
              "name": "appmaxprice",
              "type": "uint256"
            },
            {
              "internalType": "address",
              "name": "dataset",
              "type": "address"
            },
            {
              "internalType": "uint256",
              "name": "datasetmaxprice",
              "type": "uint256"
            },
            {
              "internalType": "address",
              "name": "workerpool",
              "type": "address"
            },
            {
              "internalType": "uint256",
              "name": "workerpoolmaxprice",
              "type": "uint256"
            },
            {
              "internalType": "address",
              "name": "requester",
              "type": "address"
            },
            {
              "internalType": "uint256",
              "name": "volume",
              "type": "uint256"
            },
            {
              "internalType": "bytes32",
              "name": "tag",
              "type": "bytes32"
            },
            {
              "internalType": "uint256",
              "name": "category",
              "type": "uint256"
            },
            {
              "internalType": "uint256",
              "name": "trust",
              "type": "uint256"
            },
            {
              "internalType": "address",
              "name": "beneficiary",
              "type": "address"
            },
            {
              "internalType": "address",
              "name": "callback",
              "type": "address"
            },
            {
              "internalType": "string",
              "name": "params",
              "type": "string"
            },
            {
              "internalType": "bytes32",
              "name": "salt",
              "type": "bytes32"
            },
            {
              "internalType": "bytes",
              "name": "sign",
              "type": "bytes"
            }
          ],
          "internalType": "struct IexecLibOrders_v5.RequestOrder",
          "name": "requestOrder",
          "type": "tuple"
        }
      ],
      "name": "sponsorMatchOrdersBoost",
      "outputs": [
        {
          "internalType": "bytes32",
          "name": "",
          "type": "bytes32"
        }
      ],
      "stateMutability": "nonpayable",
      "type": "function"
    }
  ],
  "bytecode": "0x60806040523461001a576040516140d661002082396140d690f35b600080fdfe6104e0604052600436101561001357600080fd5b60003560e01c80638a8b3607146100535780639bced28b1461004e578063af24ba0b146100495763c1f9a20e03610067576102d7565b6102be565b610271565b610118565b90816101209103126100675790565b600080fd5b90816101609103126100675790565b90816102009103126100675790565b906080828203126100675781356001600160401b03811161006757816100b1918401610058565b9260208301356001600160401b03811161006757826100d1918501610058565b9260408101356001600160401b03811161006757836100f191830161006c565b9260608201356001600160401b0381116100675761010f920161007b565b90565b9052565b565b346100675761014861013761012e36600461008a565b92919091610300565b6040515b9182918290815260200190565b0390f35b805b0361006757565b905035906101168261014c565b909182601f83011215610067578135916001600160401b03831161006757602001926001830284011161006757565b6001600160a01b031690565b6001600160a01b03811661014e565b905035906101168261019d565b60e081830312610067576101cd8282610155565b926101db8360208401610155565b9260408301356001600160401b03811161006757816101fb918501610162565b92909360608101356001600160401b038111610067578361021d918301610162565b92909360808301356001600160401b038111610067578161023f918501610162565b92909361024f8360a083016101ac565b9260c08201356001600160401b0381116100675761026d9201610162565b9091565b34610067576102966102843660046101b9565b99989098979197969296959395612f57565b604051005b91906040838203126100675761010f906102b58185610155565b93602001610155565b34610067576102966102d136600461029b565b906136ed565b34610067576101486101376102ed36600461008a565b92919091610341565b3561010f8161019d565b9161010f939161030e600090565b5061031b60c084016102f6565b936118ec565b908152604081019291610116916020905b01906001600160a01b03169052565b909261035092339485936118ec565b906103897f30d8c59de5f54b676eb3410d971831f2cd83fcf445559b287cecadb1900fc4549161037f60405190565b9182918583610321565b0390a190565b3561010f8161014c565b61010f61010f61010f9290565b0190565b156103b157565b60405162461bcd60e51b815260206004820152601a60248201527f506f636f426f6f73743a20426164207472757374206c6576656c0000000000006044820152606490fd5b0390fd5b1561040157565b60405162461bcd60e51b815260206004820152601c60248201527f506f636f426f6f73743a2043617465676f7279206d69736d61746368000000006044820152606490fd5b1561044d57565b60405162461bcd60e51b815260206004820152601b60248201527f506f636f426f6f73743a20556e6b6e6f776e2063617465676f727900000000006044820152606490fd5b1561049957565b60405162461bcd60e51b815260206004820152601960248201527f506f636f426f6f73743a204f76657270726963656420617070000000000000006044820152606490fd5b156104e557565b60405162461bcd60e51b815260206004820152601d60248201527f506f636f426f6f73743a204f76657270726963656420646174617365740000006044820152606490fd5b1561053157565b60405162461bcd60e51b8152806103f6600482016020808252818101527f506f636f426f6f73743a204f76657270726963656420776f726b6572706f6f6c604082015260600190565b1561058157565b60405162461bcd60e51b815260206004820152602f60248201527f506f636f426f6f73743a20576f726b6572706f6f6c2074616720646f6573206e60448201526e1bdd081b585d18da0819195b585b99608a1b6064820152608490fd5b634e487b7160e01b600052603260045260246000fd5b61060761060161010f9290565b60f81b90565b6001600160f81b03191690565b1561061b57565b60405162461bcd60e51b815260206004820152602860248201527f506f636f426f6f73743a204170702074616720646f6573206e6f74206d6174636044820152671a0819195b585b9960c21b6064820152608490fd5b1561067857565b60405162461bcd60e51b815260206004820152601760248201527f506f636f426f6f73743a20417070206d69736d617463680000000000000000006044820152606490fd5b156106c457565b60405162461bcd60e51b815260206004820152601b60248201527f506f636f426f6f73743a2044617461736574206d69736d6174636800000000006044820152606490fd5b1561071057565b60405162461bcd60e51b815260206004820152603160248201527f506f636f426f6f73743a20576f726b6572706f6f6c207265737472696374656460448201527010313c903932b8bab2b9ba1037b93232b960791b6064820152608490fd5b1561077657565b60405162461bcd60e51b815260206004820152602a60248201527f506f636f426f6f73743a204461746173657420726573747269637465642062796044820152691030b8381037b93232b960b11b6064820152608490fd5b156107d557565b60405162461bcd60e51b815260206004820152602d60248201527f506f636f426f6f73743a20576f726b6572706f6f6c207265737472696374656460448201526c10313c9030b8381037b93232b960991b6064820152608490fd5b1561083757565b60405162461bcd60e51b815260206004820152602c60248201527f506f636f426f6f73743a2052657175657374657220726573747269637465642060448201526b313c9030b8381037b93232b960a11b6064820152608490fd5b1561089857565b60405162461bcd60e51b815260206004820152602a60248201527f506f636f426f6f73743a2041707020726573747269637465642062792064617460448201526930b9b2ba1037b93232b960b11b6064820152608490fd5b156108f757565b60405162461bcd60e51b815260206004820152603160248201527f506f636f426f6f73743a20576f726b6572706f6f6c207265737472696374656460448201527010313c903230ba30b9b2ba1037b93232b960791b6064820152608490fd5b1561095d57565b60405162461bcd60e51b815260206004820152603060248201527f506f636f426f6f73743a2052657175657374657220726573747269637465642060448201526f313c903230ba30b9b2ba1037b93232b960811b6064820152608490fd5b156109c257565b60405162461bcd60e51b815260206004820152602d60248201527f506f636f426f6f73743a20417070207265737472696374656420627920776f7260448201526c35b2b93837b7b61037b93232b960991b6064820152608490fd5b15610a2457565b60405162461bcd60e51b815260206004820152603160248201527f506f636f426f6f73743a20446174617365742072657374726963746564206279604482015270103bb7b935b2b93837b7b61037b93232b960791b6064820152608490fd5b15610a8a57565b60405162461bcd60e51b815260206004820152603360248201527f506f636f426f6f73743a20526571756573746572207265737472696374656420604482015272313c903bb7b935b2b93837b7b61037b93232b960691b6064820152608490fd5b61010f90610191906001600160a01b031682565b61010f90610aeb565b61010f90610aff565b634e487b7160e01b600052604160045260246000fd5b90601f01601f191681019081106001600160401b03821117610b4857604052565b610b11565b80151561014e565b9050519061011682610b4d565b906020828203126100675761010f91610b55565b6040513d6000823e3d90fd5b15610b8957565b60405162461bcd60e51b815260206004820152601d60248201527f506f636f426f6f73743a20417070206e6f7420726567697374657265640000006044820152606490fd5b905051906101168261019d565b906020828203126100675761010f91610bce565b90610116610bfc60405190565b9283610b27565b6001600160401b038111610b4857602090601f01601f19160190565b90826000939282370152565b90929192610c40610c3b82610c03565b610bef565b938185526020850190828401116100675761011692610c1f565b9080601f830112156100675781602061010f93359101610c2b565b9190916101208184031261006757610c8e610120610bef565b926000610c9b82846101ac565b908501526020610cad82828501610155565b908501526040610cbf82828501610155565b908501526060610cd182828501610155565b908501526080610ce3828285016101ac565b9085015260a0610cf5828285016101ac565b9085015260c0610d07828285016101ac565b9085015260e0610d1982828501610155565b908501526101008201356001600160401b03811161006757610d3b9201610c5a565b610100830152565b61010f903690610c75565b905051906101168261014c565b906020828203126100675761010f91610d4e565b60005b838110610d825750506000910152565b8181015183820152602001610d72565b610db3610dbc6020936103a693610da7815190565b80835293849260200190565b95869101610d6f565b601f01601f191690565b80516001600160a01b0316825261010f9161012081019161010090610df060208201516020850152565b610dff60408201516040850152565b610e0e60608201516060850152565b6080818101516001600160a01b03169084015260a0818101516001600160a01b03169084015260c0818101516001600160a01b031690840152610e5660e082015160e0850152565b015190610100818403910152610d92565b602080825261010f92910190610dc6565b903590601e19368290030182121561006757018035906001600160401b038211610067576020019136829003831361006757565b15610eb357565b60405162461bcd60e51b815260206004820152602660248201527f506f636f426f6f73743a20496e76616c696420617070206f72646572207369676044820152656e617475726560d01b6064820152608490fd5b61019161010f61010f9290565b61010f90610f07565b15610f2457565b60405162461bcd60e51b815260206004820152602160248201527f506f636f426f6f73743a2044617461736574206e6f74207265676973746572656044820152601960fa1b6064820152608490fd5b15610f7a57565b60405162461bcd60e51b815260206004820152602a60248201527f506f636f426f6f73743a20496e76616c69642064617461736574206f72646572604482015269207369676e617475726560b01b6064820152608490fd5b15610fd957565b60405162461bcd60e51b8152602060048201526024808201527f506f636f426f6f73743a20576f726b6572706f6f6c206e6f7420726567697374604482015263195c995960e21b6064820152608490fd5b9190916101608184031261006757611043610160610bef565b92600061105082846101ac565b90850152602061106282828501610155565b90850152604061107482828501610155565b90850152606061108682828501610155565b90850152608061109882828501610155565b9085015260a06110aa82828501610155565b9085015260c06110bc828285016101ac565b9085015260e06110ce828285016101ac565b908501526101006110e1828285016101ac565b908501526101206110f482828501610155565b908501526101408201356001600160401b038111610067576111169201610c5a565b610140830152565b61010f90369061102a565b80516001600160a01b0316825261010f916101608101916101409061115360208201516020850152565b61116260408201516040850152565b61117160608201516060850152565b61118060808201516080850152565b61118f60a082015160a0850152565b60c0818101516001600160a01b03169084015260e0818101516001600160a01b031690840152610100818101516001600160a01b0316908401526111da610120820151610120850152565b015190610140818403910152610d92565b602080825261010f92910190611129565b1561120357565b60405162461bcd60e51b815260206004820152602d60248201527f506f636f426f6f73743a20496e76616c696420776f726b6572706f6f6c206f7260448201526c646572207369676e617475726560981b6064820152608490fd5b9190916102008184031261006757611277610200610bef565b92600061128482846101ac565b90850152602061129682828501610155565b9085015260406112a8828285016101ac565b9085015260606112ba82828501610155565b9085015260806112cc828285016101ac565b9085015260a06112de82828501610155565b9085015260c06112f0828285016101ac565b9085015260e061130282828501610155565b9085015261010061131582828501610155565b9085015261012061132882828501610155565b9085015261014061133b82828501610155565b9085015261016061134e828285016101ac565b90850152610180611361828285016101ac565b908501526101a08201356001600160401b0381116100675781611385918401610c5a565b6101a08501526101c061139a82828501610155565b908501526101e08201356001600160401b038111610067576113bc9201610c5a565b6101e0830152565b61010f90369061125e565b80516001600160a01b0316825261010f916101e06114cf61020083016113fa60208601516020860152565b6040858101516001600160a01b03169085015261141c60608601516060860152565b6080858101516001600160a01b03169085015261143e60a086015160a0860152565b60c0858101516001600160a01b03169085015261146060e086015160e0860152565b611471610100860151610100860152565b611482610120860151610120860152565b611493610140860151610140860152565b610160858101516001600160a01b031690850152610180858101516001600160a01b0316908501526101a08501518482036101a0860152610d92565b926114e16101c08201516101c0850152565b0151906101e0818403910152610d92565b602080825261010f929101906113cf565b1561150a57565b60405162461bcd60e51b815260206004820152602a60248201527f506f636f426f6f73743a20496e76616c69642072657175657374206f72646572604482015269207369676e617475726560b01b6064820152608490fd5b905b600052602052604060002090565b61010f9081565b61010f9054611572565b01918252565b1561159057565b60405162461bcd60e51b815260206004820152602660248201527f506f636f426f6f73743a204f6e65206f72206d6f7265206f726465727320636f6044820152651b9cdd5b595960d21b6064820152608490fd5b906001600160a01b03905b9181191691161790565b9061160961010f61161092610b08565b82546115e4565b9055565b906001600160a01b03199060a01b6115ef565b61163d61010f61010f926001600160601b031690565b6001600160601b031690565b9061165961010f61161092611627565b8254611614565b634e487b7160e01b600052601160045260246000fd5b9190820391821161168357565b611660565b8181029291811591840414171561168357565b634e487b7160e01b600052601260045260246000fd5b906116bb565b9190565b9081156116c6570490565b61169b565b9061ffff60c81b9060c81b6115ef565b6116ec61010f61010f9261ffff1690565b61ffff1690565b9061170361010f611610926116db565b82546116cb565b805482101561172d57611724600391600052602060002090565b91020190600090565b6105de565b61010f6007610399565b9190820180921161168357565b9064ffffffffff60a01b9060a01b6115ef565b61177061010f61010f9264ffffffffff1690565b64ffffffffff1690565b9061178a61010f6116109261175c565b8254611749565b9061ffff60d81b9060d81b6115ef565b906117b161010f611610926116db565b8254611791565b906001600160e81b03199060e81b6115ef565b906117e96117e3611610926001600160e81b03191690565b60e81c90565b82546117b8565b90600019906115ef565b9061180a61010f61161092610399565b82546117f0565b61010f601e610399565b9190610dbc81611832816103a69560209181520190565b8095610c1f565b989795909260c095611880611894966118796118879460408f6103326101169f9a61186960e084019d6000850152565b6001600160a01b03166020830152565b60608d0152565b60808b0152565b88830360a08a015261181b565b9401906001600160a01b03169052565b91946118e16118e8929897956118da60a0966118d36101169a6118cc60c08a019e60008b0152565b6020890152565b6040870152565b6060850152565b6080830152565b0152565b610440526104805261022052610400526103205260006000805160206140818339815191526102e05261193c611928610140610400510161038f565b6119356116b76001610399565b11156103aa565b61194c610120610400510161038f565b6102005261196f61196561010f6080610220510161038f565b61020051146103fa565b61198d61198361010f60156102e051015490565b6102005110610446565b61199c6020610440510161038f565b6103a0526119c66119b26020610400510161038f565b6119bf6116b76103a05190565b1015610492565b6119d56020610480510161038f565b6101c0526119ff6119eb6060610400510161038f565b6119f86116b76101c05190565b10156104de565b611a0e6020610220510161038f565b61026052611a38611a2460a0610400510161038f565b611a316116b76102605190565b101561052a565b611a476060610440510161038f565b611a566060610480510161038f565b811761038052611a6c610100610400510161038f565b61036052611aa6611a89611a856060610220510161038f565b1990565b61036051610380511716611aa06116b76000610399565b1461057a565b61036051610380511718611aba601f610399565b602081101561172d57611af891901a60f81b611ad660016105f4565b16611af2611ae460006105f4565b916001600160f81b03191690565b14610614565b61044051611b05906102f6565b6104c052611b44611b1b600061040051016102f6565b611b3e611b316104c0516001600160a01b031690565b916001600160a01b031690565b14610671565b61048051611b51906102f6565b61034052611b83611b67604061040051016102f6565b611b7d611b31610340516001600160a01b031690565b146106bd565b61022051611b90906102f6565b6104a052611bb8611bb3611ba9608061040051016102f6565b6104a05190613f91565b610709565b611bdc611bd7611bcd608061044051016102f6565b6103405190613f91565b61076f565b611bf6611bf1611ba960a061044051016102f6565b6107ce565b611c0560c061040051016102f6565b61046052611c2d611c28611c1e60c061044051016102f6565b6104605190613f91565b610830565b611c51611c4c611c42608061048051016102f6565b6104c05190613f91565b610891565b611c6b611c66611ba960a061048051016102f6565b6108f0565b611c85611c80611c1e60c061048051016102f6565b610956565b611c9f611c9a611c4260c061022051016102f6565b6109bb565b611cb9611cb4611bcd60e061022051016102f6565b610a1d565b611cd4611ccf611c1e61010061022051016102f6565b610a83565b6102e05154611cf0906001600160a01b0316610b08565b610b08565b6020611cfb60405190565b63c3c5a54760e01b81526104c0516001600160a01b0316600482015291829060249082905afa801561250c57611d3991600091612754575b50610b82565b611d48611ceb6104c051610b08565b6020611d5360405190565b638da5cb5b60e01b815291829060049082905afa801561250c5760006101e052612733575b50611d8561044051610d43565b6020611da6637c0d54d3611db1611d9b60405190565b948593849360e01b90565b835260048301610e67565b038173__$9d824026d0515d8abd681f0f0f4707f16a$__5af4801561250c57611de291600091612511575b50613a68565b61042052611e13611e0e611e00610100610440510161044051610e78565b90610420516101e051613edb565b610eac565b611e206101916000610f14565b610340516001600160a01b031614156103e05260006101a052611e41600090565b6101a0526103c0526103e05161258e575b611e6c611ceb60026102e05101546001600160a01b031690565b6020611e7760405190565b63c3c5a54760e01b81526104a0516001600160a01b0316600482015291829060249082905afa801561250c57611eb591600091612560575b50610fd2565b611ec4611ceb6104a051610b08565b6020611ecf60405190565b638da5cb5b60e01b815291829060049082905afa801561250c5760006102405261252f575b50611f016102205161111e565b6020611f1763fed985fe611f22611d9b60405190565b8352600483016111eb565b038173__$9d824026d0515d8abd681f0f0f4707f16a$__5af4801561250c57611f52916000916125115750613a68565b61018052611f83611f7e611f70610140610220510161022051610e78565b906101805161024051613edb565b6111fc565b611f8f610400516113c4565b6020611fa5638ac03f33611fb0611d9b60405190565b8352600483016114f2565b038173__$9d824026d0515d8abd681f0f0f4707f16a$__5af4801561250c57611fe0916000916125115750613a68565b6101405261201161200c611ffe6101e0610400510161040051610e78565b906101405161046051613edb565b611503565b61202c61202761014051600d6102e05101611562565b611579565b6101205261204661202761042051600d6102e05101611562565b6101005261206061202761018051600d6102e05101611562565b60e052604051612097816020810161208b6101205161014051836020816115836103a6938396959052565b90810382520382610b27565b6120a96120a2825190565b9160200190565b2060c05261210c6120bf6040610440510161038f565b6120ce6040610480510161038f565b6120dd6040610220510161038f565b906120ed60e0610400510161038f565b91610140519361018051926103c051916103e0519061042051906139b9565b60a05261212561211c6000610399565b60a05111611589565b61213b61010f60186102e0510160c05190611562565b6080526121666000608051016121546101e051826115f9565b6121606103a0516127cc565b90611649565b61218860026080510161217c61024051826115f9565b612160610260516127cc565b6121b4602061219c611ceb6104a051610b08565b6387639c68906121ab60405190565b93849260e01b90565b825260049082905afa801561250c576122056121f56121ec61220a93612224956000916124de575b506121e76064610399565b611676565b61026051611688565b6121ff6064610399565b906116b1565b6127cc565b61221a6003608051019182611649565b61046051906115f9565b6122cd61223361012051612879565b61224360046080510191826116f3565b61228e6122886122834261227d61226f60026122686102005160156102e0510161170a565b5001611579565b612277611732565b90611688565b9061173c565b612830565b8261177a565b6122a261229c60a051612879565b826117a1565b6122b761036051610380511760e81b826117cb565b6122c761018061040051016102f6565b906115f9565b6103e051612486575b6122e960056080510161032051906115f9565b6123136122fb60a0516101005161173c565b61230e61042051600d6102e05101611562565b6117fa565b61233761232460a05160e05161173c565b61230e61018051600d6102e05101611562565b61235c61234960a0516101205161173c565b61230e61014051600d6102e05101611562565b61239161238861237f6123756101c0516103a05161173c565b610260519061173c565b60a05190611688565b610320516128c8565b6123ae6123a561237f6121f56121ec611811565b610240516128c8565b6123c26101a0610400510161040051610e78565b906123d361016061040051016102f6565b917f90edec6d368fb8a52f3cba8ef8adbc79511b2b7a6d1df663e38ae6f4775c11a6916124306124056104a051610b08565b9461240f60405190565b93849361036051610380511761020051610340516104c05160c05189611839565b0390a27fd811b592ed0899225773e8933d8df64bd0b62761a9d7aad4ed5b22735f4610a461245d60405190565b8061247d60a05161014051610180516103c0516104205160c051876118a4565b0390a160c05190565b6124a860016080510161249c6101a051826115f9565b6121606101c0516127cc565b6124d96124be6103c051600d6102e05101611562565b6124d36124ca82611579565b60a0519061173c565b906117fa565b6122d6565b6124ff915060203d8111612505575b6124f78183610b27565b810190610d5b565b386121dc565b503d6124ed565b610b76565b612529915060203d8111612505576124f78183610b27565b38611ddc565b61254f9060203d8111612559575b6125478183610b27565b810190610bdb565b6102405238611ef4565b503d61253d565b612581915060203d8111612587575b6125798183610b27565b810190610b62565b38611eaf565b503d61256f565b6125a8611ceb60016102e05101546001600160a01b031690565b60206125b360405190565b63c3c5a54760e01b8152610340516001600160a01b0316600482015291829060249082905afa801561250c576125f191600091612715575b50610f1d565b612600611ceb61034051610b08565b6103009081526040516102c0818152638da5cb5b60e01b9091525190516020919060049082905afa6102a0526102a0511561250c576000610280526102a0516126dc575b610280516101a05261265861048051610d43565b6020611da66311b2eee261266e611d9b60405190565b038173__$9d824026d0515d8abd681f0f0f4707f16a$__5af4801561250c5761269e916000916125115750613a68565b61016052610160516103c0526126d76126d26126c4610100610480510161048051610e78565b906101605161028051613edb565b610f73565b611e52565b60203d811161270e575b806126f7612705926102c051610b27565b6102c051016102c051610bdb565b61028052612644565b503d6126e6565b61272d915060203d8111612587576125798183610b27565b386125eb565b61274a9060203d8111612559576125478183610b27565b6101e05238611d78565b61276c915060203d8111612587576125798183610b27565b38611d33565b61010f61010f61010f926001600160601b031690565b61279561010f61010f9290565b60ff1690565b61011290612788565b9160206101169294936118e86040820196600083019061279b565b61163d61010f61010f9290565b6127dc6001600160601b03612772565b81116127eb5761010f906127bf565b60606103f66127f960405190565b6306dfcc6560e41b8152928392600484016127a4565b61010f61010f61010f9264ffffffffff1690565b61177061010f61010f9290565b61283e64ffffffffff61280f565b811161284d5761010f90612823565b60286103f66127f960405190565b61010f61010f61010f9261ffff1690565b6116ec61010f61010f9290565b61288461ffff61285b565b81116128935761010f9061286c565b60106103f66127f960405190565b9061156490610b08565b6001600160a01b0390911681526040810192916101169160200152565b9061290c6128fa8360096000805160206140818339815191526128f4866128ee30610b08565b85612a61565b016128a1565b6124d38361290783611579565b61173c565b7f625fed9875dada8643f2418b838ae0bc78d9a148a18eee4ee1979ff0f3f5d4279161294361293a60405190565b928392836128ab565b0390a1565b1561294f57565b60405162461bcd60e51b815260206004820152602860248201527f4965786563457363726f773a205472616e736665722066726f6d20656d707479604482015267206164647265737360c01b6064820152608490fd5b156129ac57565b60405162461bcd60e51b815260206004820152602660248201527f4965786563457363726f773a205472616e7366657220746f20656d707479206160448201526564647265737360d01b6064820152608490fd5b15612a0757565b60405162461bcd60e51b815260206004820152602c60248201527f4965786563457363726f773a205472616e7366657220616d6f756e742065786360448201526b656564732062616c616e636560a01b6064820152608490fd5b612aa0612a8f612a716000610f14565b6101916001600160a01b0382166001600160a01b0386161415612948565b6001600160a01b03841614156129a5565b612b08612afb837f5862653c6982c162832160cf30593645e8487b257e44d77cdd6b51eee2651b08612af6612aec88612adc61202789866128a1565b612ae881831115612a00565b0390565b61230e87846128a1565b6128a1565b6124d3856103a683611579565b612b48612b3e612b387fddf252ad1be2c89b69c2b068fc378daa952ba7f163c4a11628f55a4df523b3ef93610b08565b93610b08565b9361013b60405190565b0390a3565b61010f90612795565b61010f9054612b4d565b61010f9060d81c6116ec565b61010f9054612b60565b61010f9060a01c611770565b61010f9054612b76565b15612b9357565b60405162461bcd60e51b815260206004820152601b60248201527f506f636f426f6f73743a20446561646c696e65207265616368656400000000006044820152606490fd5b15612bdf57565b60405162461bcd60e51b815260206004820152602960248201527f506f636f426f6f73743a2054616720726571756972657320656e636c617665206044820152686368616c6c656e676560b81b6064820152608490fd5b610112906001600160a01b031660601b90565b60149392612c6185836115836020956103a697612c36565b018092612c36565b15612c7057565b60405162461bcd60e51b815260206004820152603760248201527f506f636f426f6f73743a20496e76616c696420636f6e747269627574696f6e2060448201527f617574686f72697a6174696f6e207369676e61747572650000000000000000006064820152608490fd5b61010f913691610c2b565b6020939261158360148361158388956103a697612c36565b15612d0557565b60405162461bcd60e51b8152602060048201526024808201527f506f636f426f6f73743a20496e76616c696420656e636c617665207369676e616044820152637475726560e01b6064820152608490fd5b9060ff906115ef565b634e487b7160e01b600052602160045260246000fd5b60051115612d7f57565b612d5f565b9061011682612d75565b61010f90612d84565b90612da761010f61161092612d8e565b8254612d56565b61010f9060a01c61163d565b61010f9054612dae565b612ddf906001600160601b03165b916001600160601b031690565b01906001600160601b03821161168357565b61010f633b9aca00610399565b61010f600a610399565b612e1a906001600160601b0316612dd2565b9003906001600160601b03821161168357565b612e4e61010f9593949294612e4760608401966000850152565b6020830152565b604081850391015261181b565b15612e6257565b60405162461bcd60e51b815260206004820152602160248201527f506f636f426f6f73743a2043616c6c6261636b207265717569726573206461746044820152606160f81b6064820152608490fd5b90815260406020820181905261010f9391019161181b565b90612ed6610c3b83610c03565b918252565b3d15612ef557612eea3d612ec9565b903d6000602084013e565b606090565b15612f0157565b60405162461bcd60e51b815260206004820152602860248201527f506f636f426f6f73743a204e6f7420656e6f756768206761732061667465722060448201526763616c6c6261636b60c01b6064820152608490fd5b999795989699610380526103a0526103e0526103405261036052610440526104c0526104205261048052612f9660008051602061408183398151915290565b6104a052612fb161010f60186104a051016103805190611562565b604051612fd9816020810161208b6103a05161038051836020816115836103a6938396959052565b612fe46120a2825190565b206104605261300061010f600f6104a051016104605190611562565b9261302461300d85612b56565b61301960048501612b6c565b906103a05190613986565b6130454261303f6116b761303a60048701612b82565b61280f565b10612b8c565b61304f6000610f14565b6104008190526001600160a01b03166104c0516001600160a01b03161415928384156134dd575b600061326c966130f76130f2613262979661313a96613096600397612bd8565b60028901546001600160a01b03169a806134ae575b86146134a8576104a051601301546001600160a01b03165b604051906130ed82602081016130e16104c051610460513384612c49565b90810382520383610b27565b613ab2565b612c69565b60048501546001600160a01b03166103c052610400516001600160a01b03166104c0516001600160a01b0316148015613411575b61313490612cfe565b01612d97565b61314381612dba565b61314f60018301612dba565b9161315c60028201612dba565b926131a26003830161319d61317882546001600160a01b031690565b61319361318e89613189888b612dc4565b612dc4565b612772565b6104605191613649565b612dba565b926131ba6131af85612772565b610460519033613604565b6131c460006127bf565b6001600160601b038216116133f3575b506131df60006127bf565b6001600160601b038216116133cc575b50506132166132106121f5613202611811565b61320b86612772565b611688565b85613578565b6104a051600901916132406120277399c2268479b93fde36232351229815df80837e2380956128a1565b928361324c6000610399565b811161337e575b50506129079161318e91612e08565b6104605191613604565b7ffbd7641f7e58d072f2d358846c1b7880d83d9293a71a4b04880b8eaf7e54306f61329660405190565b806132b0610340516103e0516103a0516103805185612e2d565b0390a1610400516001600160a01b03166103c0516001600160a01b0316036132d457565b610440516132ef906132e96116b76000610399565b11612e5b565b61011660146104a0510160008061330583611579565b604051635dd8085560e01b60208201526104405161036051610460516133439284926133349260248501612eb1565b60208201810382520382610b27565b82602082019151926103c05190f15061335a612edb565b506133786116b761010f61336e5a94611579565b6121ff603f610399565b11612efa565b61290793919450916133c36133b761318e946133b261339b612df1565b6133ac6133a6612dfe565b846116b1565b90613559565b61356b565b95866104605191613649565b91819350613253565b6132626133e660016133ec9401546001600160a01b031690565b91612772565b38806131ef565b61340b906132626133e685546001600160a01b031690565b386131d4565b50610400516001600160a01b03166103c0516001600160a01b03161482146134915761313461348a61344a6103e0516103405190612cdb565b6134556120a2825190565b2061347761346260405190565b809261208b6020830191610460513384612ce6565b610480519061042051906104c051613ab2565b905061312b565b61313461348a61344a610360516104405190612cdb565b8a6130c3565b506104a051601301546001600160a01b03166134d6611b31610400516001600160a01b031690565b14156130ab565b506134f5600484939401546001600160e81b03191690565b926135006002610399565b91600383101561172d5761326c966130f76130f260039460009461309661352f6132629b61313a9a1a60f81b90565b61353960016105f4565b16613546611ae4896105f4565b1497505096509697505050965050613076565b9080821115613566575090565b905090565b9080821015613566575090565b906135b16135a48360096000805160206140818339815191526128f4868461359f30610b08565b612a61565b6124d3836121e783611579565b7f6381d9813cabeb57471b5a7e05078e64845ccdb563146a6911d536f24ce960f19161294361293a60405190565b6001600160a01b0390911681526060810193926101169290916040916118e890612e47565b613612828261359f30610b08565b6129437fc2aca55aa696938c7e95842e8939ca0fbb2120a3eeb8948cdcee2b70da5666729361364060405190565b938493846135df565b6136736136668260096000805160206140818339815191526128f4565b6124d3846121e783611579565b6129437f1bccc549c38561cd5b57f0db11ceb8dde1b0b6ee05ab5e155b51c7c5ba64becb9361364060405190565b156136a857565b60405162461bcd60e51b815260206004820152601f60248201527f506f636f426f6f73743a20446561646c696e65206e6f742072656163686564006044820152606490fd5b600961318e9161382b6137af9461370f60008051602061408183398151915290565b9261372061010f8260188701611562565b9061374861372d60405190565b60208082019384529092839161208b90876103a68285611583565b6137536120a2825190565b209687926137a7613796600061376f61010f88600f8c01611562565b019261379161377d85612b56565b600488019261378b84612b6c565b91613986565b612b82565b6137a0429161280f565b11156136a1565b600490612d97565b613826600282016138196137c282612dba565b936138136137dd6121f56137d4611811565b61320b89612772565b9a8b966131896137f760058601546001600160a01b031690565b9461380d600161380683612dba565b9201612dba565b90612dc4565b90613578565b546001600160a01b031690565b613649565b019061384f6128fa7399c2268479b93fde36232351229815df80837e2380946128a1565b7fc2aca55aa696938c7e95842e8939ca0fbb2120a3eeb8948cdcee2b70da56667261387960405190565b80613886868587846135df565b0390a17f625fed9875dada8643f2418b838ae0bc78d9a148a18eee4ee1979ff0f3f5d427916138b761293a60405190565b0390a17fcbc308b5f91040d2659a5201858344b0b583cd2f9e18e8470c2fa052c5b21ff86138e460405190565b600090a2565b156138f157565b60405162461bcd60e51b815260206004820152601760248201527f506f636f426f6f73743a20556e6b6e6f776e207461736b0000000000000000006044820152606490fd5b1561393d57565b60405162461bcd60e51b8152806103f6600482016020808252818101527f506f636f426f6f73743a205461736b20737461747573206e6f7420756e736574604082015260600190565b906139a09061399a6116b76101169561285b565b106138ea565b6139b36139ad6000612d84565b91612d84565b14613936565b96949791959390936139c9600090565b507f5862653c6982c162832160cf30593645e8487b257e44d77cdd6b51eee2651b0d9788956139f89087611562565b613a0190611579565b613a0a91611676565b9660001461010f99613a43612027613a4f613a499b613a439a6120279a613a5699613a4998613a5c57612027613a4391613a4994611562565b90611676565b9061356b565b948c611562565b95611562565b5050506000199061356b565b61010f90613a957f5862653c6982c162832160cf30593645e8487b257e44d77cdd6b51eee2651b0b611579565b6042916040519161190160f01b8352600283015260228201522090565b613aff61010f949392613ac3600090565b50613acf6120a2825190565b207f19457468657265756d205369676e6564204d6573736167653a0a333200000000600052601c52603c60002090565b90613b72565b6001600160e01b0319811661014e565b9050519061011682613b05565b906020828203126100675761010f91613b15565b90939293848311610067578411610067578101920390565b359060208110613b5c575090565b613b6e90600019906020036008021b90565b1690565b9290916000843b613b856116b783610399565b11613c6d57613b9381610f14565b5082613b9f6041610399565b8103613bd4575050613bd092613bbb611b3193613bc193612cdb565b90613d0c565b5050926001600160a01b031690565b1490565b613be56116b7604096939496610399565b03613c2857613bd093613c22613c1685613bc195611b3197613c1c613c16613c0d6020610399565b8094848a613b36565b90613b4e565b95613b36565b91613da2565b60405162461bcd60e51b815260206004820152601860248201527f696e76616c69642d7369676e61747572652d666f726d617400000000000000006044820152606490fd5b9391613ca3613c83611ceb602095969496610b08565b91613cae631626ba7e91613c9660405190565b9788968795869560e01b90565b855260048501612eb1565b03915afa60009181613cdc575b50613cc4575090565b630b135d3f60e11b91506001600160e01b0319161490565b613cfe91925060203d8111613d05575b613cf68183610b27565b810190613b22565b9038613cbb565b503d613cec565b9190600092613d19825190565b613d266116b76041610399565b03613d5a57613d53929350613d39600090565b506020820151906060604084015193015160001a90613e21565b9192909190565b509150613d676000610f14565b90613d7a613d756002945190565b610399565b91929190565b61010f90610399565b61010f90613d9d6116b761010f9460ff1690565b901c90565b613d53929190613deb613de6613ddc613dcc613dc46001600160ff1b03610399565b871696613d80565b613dd660ff612788565b90613d89565b6103a6601b610399565b612788565b90613e21565b6118e861011694613e1a606094989795613e10608086019a6000870152565b60ff166020850152565b6040830152565b9091613e2c84613d80565b613e586116b77f7fffffffffffffffffffffffffffffff5d576e7357a4501ddfe92f46681b20a0610399565b11613ec75790613e7a60209460009493613e7160405190565b94859485613df1565b838052039060015afa1561250c57600051600091613e9783610f14565b6001600160a01b0381166001600160a01b03841614613eba5750613d7a83610399565b9150613d7a600193610399565b505050613ed46000610f14565b9160039190565b929190613ee88185613f0a565b938415613ef7575b5050505090565b613f019450613b72565b38808080613ef0565b60008051602061408183398151915291613f276101916000610f14565b6001600160a01b03831614159283613f40575b50505090565b613f59929350613819611b3192600c6101919301611562565b14388080613f3a565b61010f9081906001600160a01b031681565b61010f6004610399565b9081526040810192916101169160200152565b90600091613fa161019184610f14565b6001600160a01b038216148015614065575b61405d57803b613fc56116b785610399565b11613fcf57505090565b613fdd611ceb602092610b08565b613ff6613d75613ff163d202158d95610aff565b613f62565b9061401c614002613f74565b9461402761400f60405190565b9687958694859460e01b90565b845260048401613f7e565b03915afa6000918161403d575b50613566575090565b61405691925060203d8111612587576125798183610b27565b9038614034565b505050600190565b506001600160a01b0382166001600160a01b03821614613fb356fe5862653c6982c162832160cf30593645e8487b257e44d77cdd6b51eee2651b00a2646970667358221220f094ce8d9d5f7863df4b57c73124b6668fbc3f5f9e76637c8bb856f9e8bfc5e864736f6c63430008150033",
  "linkReferences": {
    "contracts/libs/IexecLibOrders_v5.sol": {
      "IexecLibOrders_v5": [
        {
          "length": 20,
          "start": 7637
        },
        {
          "length": 20,
          "start": 8006
        },
        {
          "length": 20,
          "start": 8148
        },
        {
          "length": 20,
          "start": 9874
        }
      ]
    }
  },
  "deployedLinkReferences": {
    "contracts/libs/IexecLibOrders_v5.sol": {
      "IexecLibOrders_v5": [
        {
          "length": 20,
          "start": 7605
        },
        {
          "length": 20,
          "start": 7974
        },
        {
          "length": 20,
          "start": 8116
        },
        {
          "length": 20,
          "start": 9842
        }
      ]
    }
  }
}