{
  "_format": "hh-sol-artifact-1",
  "contractName": "IexecPoco2Facet",
  "sourceName": "contracts/facets/IexecPoco2Facet.sol",
  "abi": [
    {
      "inputs": [],
      "name": "MathOverflowedMulDiv",
      "type": "error"
    },
    {
      "anonymous": false,
      "inputs": [
        {
          "indexed": true,
          "internalType": "address",
          "name": "worker",
          "type": "address"
        },
        {
          "indexed": true,
          "internalType": "bytes32",
          "name": "taskId",
          "type": "bytes32"
        }
      ],
      "name": "AccurateContribution",
      "type": "event"
    },
    {
      "anonymous": false,
      "inputs": [
        {
          "indexed": true,
          "internalType": "address",
          "name": "worker",
          "type": "address"
        },
        {
          "indexed": true,
          "internalType": "bytes32",
          "name": "taskId",
          "type": "bytes32"
        }
      ],
      "name": "FaultyContribution",
      "type": "event"
    },
    {
      "anonymous": false,
      "inputs": [
        {
          "indexed": false,
          "internalType": "address",
          "name": "owner",
          "type": "address"
        },
        {
          "indexed": false,
          "internalType": "uint256",
          "name": "amount",
          "type": "uint256"
        }
      ],
      "name": "Lock",
      "type": "event"
    },
    {
      "anonymous": false,
      "inputs": [
        {
          "indexed": false,
          "internalType": "address",
          "name": "owner",
          "type": "address"
        },
        {
          "indexed": false,
          "internalType": "uint256",
          "name": "amount",
          "type": "uint256"
        },
        {
          "indexed": false,
          "internalType": "bytes32",
          "name": "ref",
          "type": "bytes32"
        }
      ],
      "name": "Reward",
      "type": "event"
    },
    {
      "anonymous": false,
      "inputs": [
        {
          "indexed": false,
          "internalType": "address",
          "name": "owner",
          "type": "address"
        },
        {
          "indexed": false,
          "internalType": "uint256",
          "name": "amount",
          "type": "uint256"
        },
        {
          "indexed": false,
          "internalType": "bytes32",
          "name": "ref",
          "type": "bytes32"
        }
      ],
      "name": "Seize",
      "type": "event"
    },
    {
      "anonymous": false,
      "inputs": [
        {
          "indexed": true,
          "internalType": "bytes32",
          "name": "taskId",
          "type": "bytes32"
        }
      ],
      "name": "TaskClaimed",
      "type": "event"
    },
    {
      "anonymous": false,
      "inputs": [
        {
          "indexed": true,
          "internalType": "bytes32",
          "name": "taskId",
          "type": "bytes32"
        },
        {
          "indexed": false,
          "internalType": "bytes32",
          "name": "consensus",
          "type": "bytes32"
        }
      ],
      "name": "TaskConsensus",
      "type": "event"
    },
    {
      "anonymous": false,
      "inputs": [
        {
          "indexed": true,
          "internalType": "bytes32",
          "name": "taskId",
          "type": "bytes32"
        },
        {
          "indexed": true,
          "internalType": "address",
          "name": "worker",
          "type": "address"
        },
        {
          "indexed": false,
          "internalType": "bytes32",
          "name": "hash",
          "type": "bytes32"
        }
      ],
      "name": "TaskContribute",
      "type": "event"
    },
    {
      "anonymous": false,
      "inputs": [
        {
          "indexed": true,
          "internalType": "bytes32",
          "name": "taskId",
          "type": "bytes32"
        },
        {
          "indexed": false,
          "internalType": "bytes",
          "name": "results",
          "type": "bytes"
        }
      ],
      "name": "TaskFinalize",
      "type": "event"
    },
    {
      "anonymous": false,
      "inputs": [
        {
          "indexed": true,
          "internalType": "bytes32",
          "name": "taskId",
          "type": "bytes32"
        },
        {
          "indexed": true,
          "internalType": "address",
          "name": "workerpool",
          "type": "address"
        }
      ],
      "name": "TaskInitialize",
      "type": "event"
    },
    {
      "anonymous": false,
      "inputs": [
        {
          "indexed": true,
          "internalType": "bytes32",
          "name": "taskId",
          "type": "bytes32"
        }
      ],
      "name": "TaskReopen",
      "type": "event"
    },
    {
      "anonymous": false,
      "inputs": [
        {
          "indexed": true,
          "internalType": "bytes32",
          "name": "taskId",
          "type": "bytes32"
        },
        {
          "indexed": true,
          "internalType": "address",
          "name": "worker",
          "type": "address"
        },
        {
          "indexed": false,
          "internalType": "bytes32",
          "name": "digest",
          "type": "bytes32"
        }
      ],
      "name": "TaskReveal",
      "type": "event"
    },
    {
      "anonymous": false,
      "inputs": [
        {
          "indexed": true,
          "internalType": "address",
          "name": "from",
          "type": "address"
        },
        {
          "indexed": true,
          "internalType": "address",
          "name": "to",
          "type": "address"
        },
        {
          "indexed": false,
          "internalType": "uint256",
          "name": "value",
          "type": "uint256"
        }
      ],
      "name": "Transfer",
      "type": "event"
    },
    {
      "anonymous": false,
      "inputs": [
        {
          "indexed": false,
          "internalType": "address",
          "name": "owner",
          "type": "address"
        },
        {
          "indexed": false,
          "internalType": "uint256",
          "name": "amount",
          "type": "uint256"
        }
      ],
      "name": "Unlock",
      "type": "event"
    },
    {
      "inputs": [
        {
          "internalType": "bytes32",
          "name": "_taskid",
          "type": "bytes32"
        }
      ],
      "name": "claim",
      "outputs": [],
      "stateMutability": "nonpayable",
      "type": "function"
    },
    {
      "inputs": [
        {
          "internalType": "bytes32[]",
          "name": "_taskid",
          "type": "bytes32[]"
        }
      ],
      "name": "claimArray",
      "outputs": [
        {
          "internalType": "bool",
          "name": "",
          "type": "bool"
        }
      ],
      "stateMutability": "nonpayable",
      "type": "function"
    },
    {
      "inputs": [
        {
          "internalType": "bytes32",
          "name": "_taskid",
          "type": "bytes32"
        },
        {
          "internalType": "bytes32",
          "name": "_resultHash",
          "type": "bytes32"
        },
        {
          "internalType": "bytes32",
          "name": "_resultSeal",
          "type": "bytes32"
        },
        {
          "internalType": "address",
          "name": "_enclaveChallenge",
          "type": "address"
        },
        {
          "internalType": "bytes",
          "name": "_enclaveSign",
          "type": "bytes"
        },
        {
          "internalType": "bytes",
          "name": "_authorizationSign",
          "type": "bytes"
        }
      ],
      "name": "contribute",
      "outputs": [],
      "stateMutability": "nonpayable",
      "type": "function"
    },
    {
      "inputs": [
        {
          "internalType": "bytes32",
          "name": "_taskid",
          "type": "bytes32"
        },
        {
          "internalType": "bytes32",
          "name": "_resultDigest",
          "type": "bytes32"
        },
        {
          "internalType": "bytes",
          "name": "_results",
          "type": "bytes"
        },
        {
          "internalType": "bytes",
          "name": "_resultsCallback",
          "type": "bytes"
        },
        {
          "internalType": "address",
          "name": "_enclaveChallenge",
          "type": "address"
        },
        {
          "internalType": "bytes",
          "name": "_enclaveSign",
          "type": "bytes"
        },
        {
          "internalType": "bytes",
          "name": "_authorizationSign",
          "type": "bytes"
        }
      ],
      "name": "contributeAndFinalize",
      "outputs": [],
      "stateMutability": "nonpayable",
      "type": "function"
    },
    {
      "inputs": [
        {
          "internalType": "bytes32",
          "name": "_taskid",
          "type": "bytes32"
        },
        {
          "internalType": "bytes",
          "name": "_results",
          "type": "bytes"
        },
        {
          "internalType": "bytes",
          "name": "_resultsCallback",
          "type": "bytes"
        }
      ],
      "name": "finalize",
      "outputs": [],
      "stateMutability": "nonpayable",
      "type": "function"
    },
    {
      "inputs": [
        {
          "internalType": "bytes32",
          "name": "_dealid",
          "type": "bytes32"
        },
        {
          "internalType": "uint256",
          "name": "idx",
          "type": "uint256"
        }
      ],
      "name": "initialize",
      "outputs": [
        {
          "internalType": "bytes32",
          "name": "",
          "type": "bytes32"
        }
      ],
      "stateMutability": "nonpayable",
      "type": "function"
    },
    {
      "inputs": [
        {
          "internalType": "bytes32[]",
          "name": "_dealid",
          "type": "bytes32[]"
        },
        {
          "internalType": "uint256[]",
          "name": "_idx",
          "type": "uint256[]"
        }
      ],
      "name": "initializeAndClaimArray",
      "outputs": [
        {
          "internalType": "bool",
          "name": "",
          "type": "bool"
        }
      ],
      "stateMutability": "nonpayable",
      "type": "function"
    },
    {
      "inputs": [
        {
          "internalType": "bytes32[]",
          "name": "_dealid",
          "type": "bytes32[]"
        },
        {
          "internalType": "uint256[]",
          "name": "_idx",
          "type": "uint256[]"
        }
      ],
      "name": "initializeArray",
      "outputs": [
        {
          "internalType": "bool",
          "name": "",
          "type": "bool"
        }
      ],
      "stateMutability": "nonpayable",
      "type": "function"
    },
    {
      "inputs": [
        {
          "internalType": "bytes32",
          "name": "_taskid",
          "type": "bytes32"
        }
      ],
      "name": "reopen",
      "outputs": [],
      "stateMutability": "nonpayable",
      "type": "function"
    },
    {
      "inputs": [
        {
          "internalType": "bytes32",
          "name": "_taskid",
          "type": "bytes32"
        },
        {
          "internalType": "bytes32",
          "name": "_resultDigest",
          "type": "bytes32"
        }
      ],
      "name": "reveal",
      "outputs": [],
      "stateMutability": "nonpayable",
      "type": "function"
    }
  ],
  "bytecode": "0x60806040523461001a57604051613b1d6100208239613b1d90f35b600080fdfe6102a0604052600436101561001357600080fd5b60003560e01c806334623484146100b35780635b36c66b146100ae5780635facd761146100a95780638fc375e5146100a4578063b504681d1461009f578063bd66528a1461009a578063f6c68e1014610095578063f722cb3214610090578063fa055d7e1461008b5763fc334e8c036100c1576104cf565b6104b3565b610467565b61044f565b610437565b6103f2565b61035f565b6102e6565b610203565b6101b1565b805b036100c157565b600080fd5b905035906100d3826100b8565b565b6001600160a01b031690565b90565b6001600160a01b0381166100ba565b905035906100d3826100e4565b909182601f830112156100c1578135916001600160401b0383116100c15760200192600183028401116100c157565b60c0818303126100c15761014382826100c6565b9261015183602084016100c6565b9261015f81604085016100c6565b9261016d82606083016100f3565b9260808201356001600160401b0381116100c1578361018d918401610100565b92909360a08201356001600160401b0381116100c1576101ad9201610100565b9091565b346100c1576101d36101c436600461012f565b96959095949194939293610d77565b604051005b0390f35b91906040838203126100c1576100e1906101f681856100c6565b936020016100c6565b9052565b346100c1576101d861021f6102193660046101dc565b906109fc565b6040515b9182918290815260200190565b909160e0828403126100c15761024683836100c6565b9261025481602085016100c6565b9260408101356001600160401b0381116100c15782610274918301610100565b92909360608301356001600160401b0381116100c15782610296918501610100565b9290936102a682608083016100f3565b9260a08201356001600160401b0381116100c157836102c6918401610100565b92909360c08201356001600160401b0381116100c1576101ad9201610100565b346100c1576101d36102f9366004610230565b999890989791979692969593956118f3565b6060818303126100c15761031f82826100c6565b9260208201356001600160401b0381116100c1578361033f918401610100565b92909360408201356001600160401b0381116100c1576101ad9201610100565b346100c1576101d361037236600461030b565b93929092612869565b909182601f830112156100c1578135916001600160401b0383116100c15760200192602083028401116100c157565b90916040828403126100c15781356001600160401b0381116100c157836103d291840161037b565b92909360208201356001600160401b0381116100c1576101ad920161037b565b346100c1576101d86104116104083660046103aa565b929190916135b2565b60405191829182901515815260200190565b906020828203126100c1576100e1916100c6565b346100c1576101d361044a366004610423565b612876565b346100c1576101d3610462366004610423565b61266c565b346100c1576101d861041161047d3660046103aa565b9291909392918193613652846135bd565b906020828203126100c15781356001600160401b0381116100c1576101ad920161037b565b346100c1576101d86104116104c936600461048e565b9061361b565b346100c1576101d36104e23660046101dc565b90612244565b905b600052602052604060002090565b6100e19081565b6100e190546104f8565b634e487b7160e01b600052604160045260246000fd5b90601f01601f191681019081106001600160401b0382111761054057604052565b610509565b906100d361055260405190565b928361051f565b6100e16060610545565b906100d36105c36002610574610559565b9461059661058982546001600160a01b031690565b6001600160a01b03168752565b6105bd6105ad60018301546001600160a01b031690565b6001600160a01b03166020880152565b016104ff565b6040840152565b634e487b7160e01b600052602260045260246000fd5b9060016002830492168015610600575b60208310146105fb57565b6105ca565b91607f16916105f0565b8054600093929161062761061d836105e0565b8085529360200190565b9160018116908115610679575060011461064057505050565b6106539192939450600052602060002090565b916000925b8184106106655750500190565b805484840152602090930192600101610658565b92949550505060ff1916825215156020020190565b906100e19161060a565b906100d36106b2926106a960405190565b9384809261068e565b038361051f565b6100e1610200610545565b906100d361086260156106d56106b9565b946106e66106e282610563565b8752565b6106fc6106f560038301610563565b6020880152565b61071261070b60068301610563565b6040880152565b610728610721600983016104ff565b6060880152565b61073e610737600a83016104ff565b6080880152565b61075461074d600b83016104ff565b60a0880152565b61077b61076b600c8301546001600160a01b031690565b6001600160a01b031660c0880152565b6107a2610792600d8301546001600160a01b031690565b6001600160a01b031660e0880152565b6107ca6107b9600e8301546001600160a01b031690565b6001600160a01b0316610100880152565b6107e16107d9600f8301610698565b610120880152565b6107f86107f0601083016104ff565b610140880152565b61080f610807601183016104ff565b610160880152565b61082661081e601283016104ff565b610180880152565b61083d610835601383016104ff565b6101a0880152565b61085461084c601483016104ff565b6101c0880152565b01546001600160a01b031690565b6001600160a01b03166101e0840152565b6100e1906106c4565b156100c157565b634e487b7160e01b600052601160045260246000fd5b91906108a4565b9290565b82018092116108af57565b610883565b01918252565b0190565b6100e1905b60ff1690565b6100e190546108be565b634e487b7160e01b600052602160045260246000fd5b600511156108f357565b6108d3565b906100d3826108e9565b9060ff905b9181191691161790565b6100e1906108f8565b9061092a6100e161093192610911565b8254610902565b9055565b9060001990610907565b9061094d6100e16109319290565b8254610935565b6100e16100e16100e19290565b9061094d6100e161093192610954565b634e487b7160e01b600052603260045260246000fd5b80548210156109aa576109a1600391600052602060002090565b91020190600090565b610971565b6100e16007610954565b818102929181159184041417156108af57565b6100e1600a610954565b6100e1906100d5906001600160a01b031682565b6100e1906109d6565b6100e1906109ea565b90610bbd906040610a0b613ac3565b610bad610a23610a1e87600e85016104e8565b610873565b91610a63610a5c6100e1610a4f6101608701610a4b610a436100e1835190565b8b101561087c565b5190565b6101808701515b90610899565b861061087c565b604051610a918160208101610a85898c836020816108b46108ba938396959052565b9081038252038261051f565b610aa3610a9c825190565b9160200190565b2096610b91610ab86100e18a600f86016104e8565b610b06610ac4826108c9565b98610ae360009a610add610ad78d6108f8565b916108f8565b1461087c565b610afd600195610af5878d870161091a565b86850161093f565b60028301610961565b6006610b8a610b2f6002610b2860158901610b2260808d015190565b90610987565b50016104ff565b610b3d600385019182610961565b610a56610b82610b7c6101408c01610a4b610b73610b59835190565b610a56610b65896104ff565b610b6d6109af565b906109b9565b60048a01610961565b926104ff565b610b6d6109cc565b9101610961565b610ba7886010610ba084610954565b94016104e8565b01610961565b015101516001600160a01b031690565b7f252992fb0468d68d6a5784ec03214f0d0a362083f2d7ebd157af43b017a22e0690610be983916109f3565b91610bf360405190565b600090a390565b906104ea906109f3565b600411156108f357565b906100d382610c04565b6100d56100e16100e19290565b6100e190610c18565b610c41610c3b6100e19290565b60f81b90565b6001600160f81b03191690565b6101ff906001600160a01b031660601b90565b60149392610c7985836108b46020956108ba97610c4e565b018092610c4e565b6100e190610c0e565b9061092a6100e161093192610c81565b906001600160a01b0390610907565b90610cb96100e1610931926109f3565b8254610c9a565b80548210156109aa576109a1600191600052602060002090565b916001600160a01b0360089290920291821b911b610907565b9190610d046100e1610931936109f3565b908354610cda565b90815491680100000000000000008310156105405782610d349160016100d395018155610cc0565b90610cf3565b634e487b7160e01b600052601260045260246000fd5b90610d5a565b9190565b908115610d65570490565b610d3a565b919082039182116108af57565b61024052610260526101e05261012052610180526102005260a05260e052610d9d613ac3565b6101a052610db86100e1600f6101a0510161024051906104e8565b60c052610de46100e1610dd560116101a0510161024051906104e8565b33610280526102805190610bfa565b61016052610e09610a1e600e6101a05101610e03600160c051016104ff565b906104e8565b61014052610e2b610e1e600060c051016108c9565b610add610ad760016108f8565b610e45610e3c600460c051016104ff565b42905b1161087c565b610e6a610e57600061016051016108c9565b610add610e646000610c0e565b91610c0e565b610e746000610c25565b6101c08190526001600160a01b0316610120516001600160a01b03161480156080819052906111bf575b610ea79061087c565b60805180611183575b1561115d57610f11610f0c610ed260136101a05101546001600160a01b031690565b60405190610eff8260208101610ef361012051610240516102805184610c61565b9081038252038361051f565b60e0519160a05191613690565b61087c565b6101c0516001600160a01b0316610120516001600160a01b031614801561110e575b610f3c9061087c565b610f4d600160006101605101610c8a565b610f6160016101605101610260519061093f565b610f75600261016051016101e0519061093f565b610f89600361016051016101205190610ca9565b610fa2610f98600a60c0510190565b6102805190610d0c565b610fbd610fb46101a061014051015190565b6102805161145a565b7f3fdb8d7797562d49a81078dbf7fa1771958ea452f8b13d1148383bd9506aecfb610fe86102405190565b610ff4610280516109f3565b91610ffe60405190565b610260518152602090a36110fe6110cc6110f8600161102a6100e160106101a0510161024051906104e8565b6110ed61108261107361104f61104a60126101a051016102805190610bfa565b6104ff565b61106d61106760039261106184610954565b90610d50565b91610954565b90611229565b61107c85610954565b90610d6a565b6110e86110dd600085019261109d61104a61026051866104e8565b6110d86110c4826110bf856110ba6110b48e610954565b84611229565b6109b9565b610d6a565b9a8b93611261565b60046101605101610961565b610899565b9161026051906104e8565b610961565b01916110d8836104ff565b90610961565b6100d36102605161024051612aec565b50610f3c61115661111e60405190565b6111438160208101610a856101e05161026051836020816108b46108ba938396959052565b6102005190610180519061012051613690565b9050610f33565b610f11610f0c61117e6020604061014051015101516001600160a01b031690565b610ed2565b506101a051601301546001600160a01b03166111b86111ab6101c0516001600160a01b031690565b916001600160a01b031690565b1415610eb0565b506101405160a00151610100526111d6601f610954565b6102205260206102205110156109aa57610ea76111fb61010051610220511a60f81b90565b6112056001610c2e565b166112216112136000610c2e565b916001600160f81b03191690565b149050610e9e565b9080821115611236575090565b905090565b6108c36100e16100e19290565b6100e19061125c610d566100e19460ff1690565b901c90565b60009061126d82610954565b91608061128261127c8261123b565b84611248565b84811161141f575b5050604061129a61127c8261123b565b6112a383610954565b8111611405575b505060206112ba61127c8261123b565b6112c383610954565b81116113eb575b505060106112da61127c8261123b565b6112e383610954565b81116113d1575b505060086112fa61127c8261123b565b61130383610954565b81116113b7575b5050600461131a61127c8261123b565b61132383610954565b811161139d575b5050600261133a61127c8261123b565b61134383610954565b8111611383575b505061136d610d566113676001946113618661123b565b90611248565b92610954565b11611376575090565b906108ba6100e192610954565b61139592949193506108ba9093610954565b91388061134a565b6113af92949193506108ba9093610954565b91388061132a565b6113c992949193506108ba9093610954565b91388061130a565b6113e392949193506108ba9093610954565b9138806112ea565b6113fd92949193506108ba9093610954565b9138806112ca565b61141792949193506108ba9093610954565b9138806112aa565b61143192949193506108ba9093610954565b91388061128a565b6001600160a01b0390911681526040810192916100d39160200152565b0152565b9061149261148583600961146c613ac3565b61147f86611479306109f3565b856115e7565b01610bfa565b6110f8836110d8836104ff565b7f625fed9875dada8643f2418b838ae0bc78d9a148a18eee4ee1979ff0f3f5d427916114c96114c060405190565b92839283611439565b0390a1565b156114d557565b60405162461bcd60e51b815260206004820152602860248201527f4965786563457363726f773a205472616e736665722066726f6d20656d707479604482015267206164647265737360c01b6064820152608490fd5b1561153257565b60405162461bcd60e51b815260206004820152602660248201527f4965786563457363726f773a205472616e7366657220746f20656d707479206160448201526564647265737360d01b6064820152608490fd5b1561158d57565b60405162461bcd60e51b815260206004820152602c60248201527f4965786563457363726f773a205472616e7366657220616d6f756e742065786360448201526b656564732062616c616e636560a01b6064820152608490fd5b6116266116156115f76000610c25565b6100d56001600160a01b0382166001600160a01b03861614156114ce565b6001600160a01b038416141561152b565b61167861166b836008611637613ac3565b0161166661165c8861164c61104a8986610bfa565b61165881831115611586565b0390565b6110e88784610bfa565b610bfa565b6110f8856108ba836104ff565b6116b86116ae6116a87fddf252ad1be2c89b69c2b068fc378daa952ba7f163c4a11628f55a4df523b3ef936109f3565b936109f3565b9361022360405190565b0390a3565b602093926108b46014836108b488956108ba97610c4e565b6001600160401b03811161054057602090601f01601f19160190565b90826000939282370152565b9092919261171261170d826116d5565b610545565b938185526020850190828401116100c1576100d3926116f1565b6100e19136916116fd565b6100e16002610954565b9160001960089290920291821b911b610907565b91906117666100e161093193610954565b908354611741565b6100d391600091611755565b818110611785575050565b80611793600060019361176e565b0161177a565b9190601f81116117a857505050565b6117ba6100d393600052602060002090565b906020601f8401819004830193106117dc575b6020601f90910104019061177a565b90915081906117cd565b91906001600160401b0382116105405761180a8261180485546105e0565b85611799565b600090601f83116001146118455761093192916000918361183a575b5050600019600883021c1916906002021790565b013590503880611826565b601f1983169161185a85600052602060002090565b92815b8181106118975750916002939185600196941061187e575b50505002019055565b0135600019601f84166008021c19169055388080611875565b9193602060018192878701358155019501920161185d565b906100d392916117e6565b91906118d8816118d1816108ba9560209181520190565b80956116f1565b601f01601f191690565b60208082526100e1939101916118ba565b9997999896959861028052610100526102205261020052610240526102605260e05261191d613ac3565b610120526119386100e1600f610120510161028051906104e8565b610160526119656100e16119566011610120510161028051906104e8565b336101e0526101e05190610bfa565b6101a052611985610a1e600e6101205101610e03600161016051016104ff565b60c05261199a610e1e600061016051016108c9565b6119ac610e3c600461016051016104ff565b6119ca6119bd600a61016051015490565b610add610d566000610954565b6119e76119da606060c051015190565b610add610d566001610954565b604051611a0f8160208101610a856101005161028051836020816108b46108ba938396959052565b611a1a610a9c825190565b206101c052604051611a3f8160208101610a8561010051610280516101e051846116bd565b611a4a610a9c825190565b206101405260c05161010001516001600160a01b0316611a6a6000610c25565b60a052611a826111ab60a0516001600160a01b031690565b1480611ecb575b8015611e96575b611a999061087c565b60a0516001600160a01b03166001600160a01b038416141580610180528015611e21575b92611b48611bda95611b23610f0c611bc896611bc096611bce99611ae36101805161087c565b80611df3575b15611dda5761012051601301546001600160a01b03165b60405190611b1e8260208101610ef38c610280516101e05184610c61565b613690565b60a0516001600160a01b03166001600160a01b03841614908115611d9d575b5061087c565b611b91600291611b5e8360006101a05101610c8a565b611b8560016101a0510193611b766101c0518661093f565b6101a05101610140519061093f565b60036101a05101610ca9565b611bb6611baa60039261104a846000610160510161091a565b6007610160510161093f565b61016051016104ff565b610b6d611737565b42610899565b60056101605101610961565b611c03611be76001610954565b611bf78160086101605101610961565b60096101605101610961565b611c17600b6101605101610100519061093f565b610160516102005161022051611c2f92600c016118af565b610160516102605161024051611c4792600e016118af565b611c61611c57600a610160510190565b6101e05190610d0c565b611c7d611c73600161016051016104ff565b6102805190611efa565b611c896102805161338d565b7f3fdb8d7797562d49a81078dbf7fa1771958ea452f8b13d1148383bd9506aecfb611cb46102805190565b8091611cc26101e0516109f3565b918291611cce60405190565b6101c0518152602090a3817ff6d49bf3e05d33a4bc497d3c793fb5756388bb96b947cf51bb60aaecb0e022e3611d0360405190565b6101c0518152602090a2817f4b1763d473ac8fa80b4432ba90047e1b92444d8fabc55e6a002d9b1a316d7959611d3860405190565b610100518152602090a37f78ce8a8bc0fcb704e8ba3b3dbb36aa88002df8038128b4af2f27ef65db665044611d6c60405190565b80611d7e6102005161022051836118e2565b0390a26100d3611d94610260516102405161172c565b610280516134cb565b604051611dd49250611dca8160208101610a85610140516101c051836020816108b46108ba938396959052565b60e0519085613690565b38611b42565b60c05160400151602001516001600160a01b0316611b00565b5061012051601301546001600160a01b0316611e1a6111ab60a0516001600160a01b031690565b1415611ae9565b92611e2f60a060c051015190565b93611e3a601f610954565b9560208710156109aa57611b23610f0c611bc896611bc096611b4895611e68611bce9b611bda9d1a60f81b90565b611e726001610c2e565b16611e806112136000610c2e565b1461018052969950965096505050955050611abd565b50611a99611eaa610260516102405161172c565b611eb5610a9c825190565b20611ec3610d566101005190565b149050611a90565b5061026051611edd610d566000610954565b14611a89565b6100e1601e610954565b6100e1633b9aca00610954565b90611f03613ac3565b91611f1190600e84016104e8565b600281019290611f20846104ff565b906003810192846002850193611f35856104ff565b611f3e91610899565b94600684016002810196611f51886104ff565b611f5a91610899565b96611f64906104ff565b611f6c611ee3565b611f75916109b9565b98606499611f828b610954565b611f8b91610d50565b9784611fa160158901546001600160a01b031690565b91611fab926121f8565b611fb4906104ff565b91836000978894611fc486610954565b10976120149660019660099a6120f3575b505050611fe1816104ff565b611fed610d568b610954565b11806120cf575b6120a2575b505050019461200f86546001600160a01b031690565b61212c565b019161203b61136761104a7399c2268479b93fde36232351229815df80837e238096610bfa565b8211612049575b5050505050565b6120868461207f6120939461207a6120726120989a61106161106761206c6109cc565b866109b9565b61106d611eed565b61211f565b80956121f8565b546001600160a01b031690565b6121b3565b3880808080612042565b6120c16120bb866120c79501546001600160a01b031690565b916104ff565b906121b3565b388881611ff9565b50828901546001600160a01b03166120ec6111ab6100d58c610c25565b1415611ff4565b61211792016120c160026121108a8401546001600160a01b031690565b92016104ff565b38828a611fd5565b9080821015611236575090565b9061215e61215183600961213e613ac3565b61147f868461214c306109f3565b6115e7565b6110f8836110bf836104ff565b7f6381d9813cabeb57471b5a7e05078e64845ccdb563146a6911d536f24ce960f1916114c96114c060405190565b6001600160a01b0390911681526060810193926100d3929091604091611456906020830152565b6121c1828261214c306109f3565b6114c97fc2aca55aa696938c7e95842e8939ca0fbb2120a3eeb8948cdcee2b70da566672936121ef60405190565b9384938461218c565b61221661220982600961147f613ac3565b6110f8846110bf836104ff565b6114c97f1bccc549c38561cd5b57f0db11ceb8dde1b0b6ee05ab5e155b51c7c5ba64becb936121ef60405190565b61224c613ac3565b90828161225c81600f86016104e8565b936011019061226a916104e8565b9233938461227791610bfa565b612280826108c9565b60029061228c826108f8565b90612296906108f8565b146122a09061087c565b6122ac600584016104ff565b42106122b79061087c565b8190806122c3836108c9565b936001946122d086610c0e565b906122da90610c0e565b146122e49061087c565b8481016122f0816104ff565b6122fc600789016104ff565b146123069061087c565b61230f906104ff565b60405160208082018b8152829161232b908c6108ba82856108b4565b90810382520361233b908261051f565b805190602001201461234c9061087c565b01612356906104ff565b604051806020810161236a898b8d846116bd565b90810382520361237a908261051f565b805190602001201461238b9061087c565b61239491610c8a565b60088201906123a2826104ff565b906123ac90610954565b6123b591610899565b6123be91610961565b600b01906123cb9161093f565b7f4b1763d473ac8fa80b4432ba90047e1b92444d8fabc55e6a002d9b1a316d795990916123f7906109f3565b9261240160405190565b90815280602081016116b8565b6100d39061245361241d613ac3565b610add6111ab6100d5600160066124443396610e03846105bd8c600f600e860195016104e8565b0101546001600160a01b031690565b61247f565b60001981146108af5760010190565b6100e1916008021c6100d5565b906100e19154612467565b90612488613ac3565b6124986100e184600f84016104e8565b6124b16124a4826108c9565b610add610ad760026108f8565b6124bd600682016104ff565b936124cd4295610e3f610d568890565b60058201946124e1610d566108a0886104ff565b111580612647575b6124f29061087c565b6000906124fe82610954565b600a840161250d6100e1825490565b821015612589579061252b6125258261256394610cc0565b90612474565b601187018561254360016105bd856116668a876104e8565b612555610d566100e160078c016104ff565b14612568575b505050612458565b6124fe565b61257b61258193611666886003956104e8565b01610c8a565b38808561255b565b5050939491610ba76009926110e8946110e86125ae6100e18a60106126149b016104e8565b61260e60018201946125e3816125c3886104ff565b9401966110f860078b019561107c61104a6125dd896104ff565b8c6104e8565b6125fc6125ef82610954565b809b8198610e03876104ff565b6126096001828a0161091a565b610954565b9061093f565b7f3afe0f24796ce653c6ab1f3e7aba5ce564eece5e82aee724aff28253e829f07b905b9061264160405190565b600090a2565b506124f2612657600884016104ff565b612664610d566000610954565b1490506124e9565b6100d39061240e565b906100d39493929161268861241d613ac3565b926100d394916127d79361278d866127886126a1613ac3565b61104a8888600e806126b96100e189600f89016104e8565b9501946127746127416101006126d9610a1e600186019a610e038c6104ff565b6126e56124a4866108c9565b6127336126f4600687016104ff565b6127034291610e3f610d568490565b6008870190612711826104ff565b612723610d566100e160098c016104ff565b14918215612825575b505061087c565b01516001600160a01b031690565b6000906127536111ab6100d584610c25565b1480612811575b80156127dd575b61276a9061087c565b600390830161091a565b6127828a8c600c84016118af565b016118af565b611efa565b61279686612f4e565b7f78ce8a8bc0fcb704e8ba3b3dbb36aa88002df8038128b4af2f27ef65db6650449086926127cf6127c660405190565b928392836118e2565b0390a261172c565b906134cb565b5061276a6127eb878761172c565b6127f6610a9c825190565b20612809610d566100e1600b88016104ff565b149050612761565b508561281f610d5683610954565b1461275a565b6128309192506104ff565b61283d610d566000610954565b11908161284d575b50388061272c565b9050612861610d566108a060058a016104ff565b111538612845565b906100d394939291612675565b61287e613ac3565b61288e6100e183600f84016104e8565b806128db61289b826108c9565b926001936128ab610ad7866108f8565b148015612986575b6128bc9061087c565b6128d36128cb600685016104ff565b42101561087c565b60049061091a565b818101906128f1856128ec846104ff565b6129a8565b826128fc6000610954565b905b612930575b50505050506126377fcbc308b5f91040d2659a5201858344b0b583cd2f9e18e8470c2fa052c5b21ff89190565b600a8201906129406100e1835490565b8110156129805761297561295a6125258361297a95610cc0565b61296f60136105bd600e8b01610e038a6104ff565b9061212c565b612458565b836128fe565b50612903565b506128bc612993826108c9565b6129a0610ad760026108f8565b1490506128b3565b60096101e091612a51846129ca610a1e6129c0613ac3565b94600e86016104e8565b612a4c60206129ee6129e160406000860151015190565b8483015160400151610a56565b612a3d612a056040860192610a5660408551015190565b61200f612a2c612a22612a1a60408751015190565b610b6d611ee3565b6110616064610954565b9b8c9701516001600160a01b031690565b5101516001600160a01b031690565b6121f8565b0191612a82612a757399c2268479b93fde36232351229815df80837e238095610bfa565b6110f8846110d8836104ff565b612abb7fc2aca55aa696938c7e95842e8939ca0fbb2120a3eeb8948cdcee2b70da56667291612ab060405190565b91829185878461218c565b0390a17f625fed9875dada8643f2418b838ae0bc78d9a148a18eee4ee1979ff0f3f5d427916114c96114c060405190565b612af4613ac3565b612b0182600f83016104e8565b612b0e83601084016104e8565b600e8301612b1e600184016104ff565b612b27916104e8565b600901612b33906104ff565b9081612b3f87836104e8565b612b48906104ff565b90612b52916109b9565b90600101612b5f906104ff565b600192612b6b84610954565b612b7491610d6a565b612b7d916109b9565b10612b89575050505050565b600090612b9582610954565b9384825b612c33575b505050612bf19291610ba7612be8600993612bbc600282860161091a565b612bc9896007860161093f565b612609612bdf42610a56611bc0600389016104ff565b60058601610961565b60088301610961565b612c26612c1c7ff6d49bf3e05d33a4bc497d3c793fb5756388bb96b947cf51bb60aaecb0e022e39290565b9261022360405190565b0390a23880808080612042565b600a8501612c426100e1825490565b821015612ce55761252582612c5692610cc0565b846011840191898b612c76610d566108a08a6105bd87611666888c6104e8565b149384612cb6575b50505050612c99575b90612c928392612458565b9091612b99565b9490612c92612cac8493610a5685610954565b9691925050612c87565b612ccf9450612cc99291611666916104e8565b016108c9565b612cdb610e6485610c0e565b1484388981612c7e565b50612b9e565b906101ff906108f8565b90612d1a612d0e612d04845490565b8084529260200190565b92600052602060002090565b9060005b818110612d2b5750505090565b909192612d60612d59600192612d4887546001600160a01b031690565b6001600160a01b0316815260200190565b9460010190565b929101612d1e565b906100e191612cf5565b906100d36106b292612d8360405190565b93848092612d68565b80546000939291612d9f61061d836105e0565b91600181169081156106795750600114612db857505050565b612dcb9192939450600052602060002090565b916000925b818410612ddd5750500190565b805484840152602090930192600101612dd0565b906100e191612d8c565b906100d36106b292612e0c60405190565b93848092612df1565b6100e16101e0610545565b906100d3612f23600e612e31612e15565b94612e44612e3e826108c9565b87612ceb565b612e536106f5600183016104ff565b612e6261070b600283016104ff565b612e71610721600383016104ff565b612e80610737600483016104ff565b612e8f61074d600583016104ff565b612ea5612e9e600683016104ff565b60c0880152565b612ebb612eb4600783016104ff565b60e0880152565b612ed2612eca600883016104ff565b610100880152565b612ee16107d9600983016104ff565b612ef06107f0600a8301612d72565b612eff610807600b83016104ff565b612f0e61081e600c8301612dfb565b612f1d610835600d83016104ff565b01612dfb565b6101c0840152565b6100e190612e20565b90612f3d825190565b8110156109aa576020809102010190565b90612f57613ac3565b90612f6d612f6884600f85016104e8565b612f2b565b91612f83610a1e600e8301610e03602087015190565b91600090612f9082610954565b9260408501612fa160408251015190565b92855b6101408901612fb56100e182515190565b881015613042576100e1612fdd612fd08a612fea9451612f34565b516001600160a01b031690565b6116668d601189016104e8565b612ff58782016108c9565b613002610e646002610c0e565b036130265761302091610a56600461301a93016104ff565b96612458565b95612fa4565b50959361303c61302091610a566101a08b015190565b94612458565b509098955095909291939561307660646110616110676130706130676101c088015190565b6110bf85610954565b876109b9565b9861308088610954565b6101408a016130916100e182515190565b8210156132515781818d868d8d6130cf6130c78f998a611666856130be612fd06100e19560119f51612f34565b9c8d93016104e8565b9283016108c9565b908b6002926130e0610e6485610c0e565b036131bc575050506004016130f4906104ff565b6130fd92613276565b978861310891610d6a565b978b6131166101a08a015190565b613120908661212c565b61312a91856121b3565b51519160019261313984610954565b109361314f936101409561315657505050612458565b9050613080565b6110e883613175601261317b950193610a5661106761104a8588610bfa565b92610bfa565b6131a57f9703f4589802246c80b822e63697180da799e363cd1b6fd9465a5e5574d53492916109f3565b8b916131b060405190565b600090a338898161255b565b889650613213955061314f989294506110e89350610140996131ef613175936131e96101a0601295015190565b866121f8565b01936131fe61104a8487610bfa565b9061320d611067600392610954565b91613276565b61323d7ff868788948d55240774fdbad06555105ef20bbc70d1b7eccda982b65e11e79bb916109f3565b8b9161324860405190565b600090a3612458565b5050985050509293506100d3945061209391506020905101516001600160a01b031690565b818102929160009190600019818309858082109103039460009261329984610954565b871461337e578686111561336c576100e196866132e2946001936132f59850099083821190039203956132cf8161165887610954565b8116908180928192049804950304010290565b17916132f56132f9826132f56003610954565b0290565b61165861106761336661335761334861333961332a60029761331a89610954565b186132f58b82026116588b610954565b6132f58a82026116588a610954565b6132f589820261165889610954565b6132f588820261165888610954565b6132f587820261165887610954565b80950290565b60405163227bc15360e01b8152600490fd5b50925050506100e19250610d50565b6100d3906133be610a1e61339f613ac3565b610e036020600e6133b6612f6888600f87016104e8565b930192015190565b61209360206133f760408401936110616110676133dd60408851015190565b610b6d6133ee6101c0606496015190565b6110bf86610954565b92612a3d8561340c866110bf60408651015190565b95336121b3565b60005b8381106134265750506000910152565b8181015183820152602001613416565b6134576118d86020936108ba9361344b815190565b80835293849260200190565b95869101613413565b9081526040602082018190526100e192910190613436565b9061348561170d836116d5565b918252565b3d156134a4576134993d613478565b903d6000602084013e565b606090565b634e487b7160e01b600052600160045260246000fd5b156134c657565b6134a9565b6134d3613ac3565b906134f1600e610854818501610e0360016105bd87600f8a016104e8565b916000916135016100d584610c25565b6001600160a01b03851603613517575050505050565b612098948360148194019561356361352e886104ff565b9461355461353b60405190565b635dd8085560e01b602082015295869260248401613460565b6020820181038252038461051f565b60208301925193f15061357461348a565b50613592610d566100e16135885a946104ff565b611061603f610954565b116134bf565b91908110156109aa576020020190565b356100e1816100b8565b9193929181936135c3845b86610add565b6135cd6000610954565b855b81101561360f5761360881613602896102196135f7848b6135fc6135f76135cf9a8e8e613598565b6135a8565b94613598565b50612458565b90506135cd565b50945050505050600190565b9091906136286000610954565b8381101561364a578061297561044a6135f7613645948887613598565b613628565b506001925050565b61365c6000610954565b855b81101561360f576136898161297561044a8a6102196135f7858c6135fc6135f761365e9b8f8f613598565b905061365c565b6136dd6100e19493926136a1600090565b506136ad610a9c825190565b207f19457468657265756d205369676e6564204d6573736167653a0a333200000000600052601c52603c60002090565b90613774565b6001600160e01b031981166100ba565b905051906100d3826136e3565b906020828203126100c1576100e1916136f3565b9081526040602082018190526100e1939101916118ba565b6040513d6000823e3d90fd5b909392938483116100c15784116100c1578101920390565b35906020811061375e575090565b61377090600019906020036008021b90565b1690565b9290916000843b613787610d5683610954565b1161386f5761379581610c25565b50826137a16041610954565b81036137d65750506137d2926137bd6111ab936137c39361172c565b90613913565b5050926001600160a01b031690565b1490565b6137e7610d56604096939496610954565b0361382a576137d293613824613818856137c3956111ab9761381e61381861380f6020610954565b8094848a613738565b90613750565b95613738565b9161398b565b60405162461bcd60e51b815260206004820152601860248201527f696e76616c69642d7369676e61747572652d666f726d617400000000000000006044820152606490fd5b93916138aa61388a6138856020959694966109f3565b6109f3565b916138b5631626ba7e9161389d60405190565b9788968795869560e01b90565b855260048501613714565b03915afa600091816138e3575b506138cb575090565b630b135d3f60e11b91506001600160e01b0319161490565b61390591925060203d811161390c575b6138fd818361051f565b810190613700565b90386138c2565b503d6138f3565b9190600092613920825190565b61392d610d566041610954565b036139615761395a929350613940600090565b506020820151906060604084015193015160001a90613a04565b9192909190565b50915061396e6000610c25565b9061397c6126096002945190565b91929190565b6100e190610954565b61395a9291906139ce6139c96139bf6139b56139ad6001600160ff1b03610954565b871696613982565b61136160ff61123b565b6108ba601b610954565b61123b565b90613a04565b6114566100d3946139fd6060949897956139f3608086019a6000870152565b60ff166020850152565b6040830152565b9091613a0f84613982565b613a3b610d567f7fffffffffffffffffffffffffffffff5d576e7357a4501ddfe92f46681b20a0610954565b11613aaf5790613a5d60209460009493613a5460405190565b948594856139d4565b838052039060015afa15613aaa57600051600091613a7a83610c25565b6001600160a01b0381166001600160a01b03841614613a9d575061397c83610954565b915061397c600193610954565b61372c565b505050613abc6000610c25565b9160039190565b7f5862653c6982c162832160cf30593645e8487b257e44d77cdd6b51eee2651b009056fea2646970667358221220b5e737014690d44507234b8497f392b8c15908d5b313d1588e7eb36c95b502b764736f6c63430008150033",
  "linkReferences": {},
  "deployedLinkReferences": {}
}