{
  "contractName": "App",
  "abi": [
    {
      "constant": true,
      "inputs": [],
      "name": "m_appPrice",
      "outputs": [
        {
          "name": "",
          "type": "uint256"
        }
      ],
      "payable": false,
      "stateMutability": "view",
      "type": "function"
    },
    {
      "constant": true,
      "inputs": [],
      "name": "m_appName",
      "outputs": [
        {
          "name": "",
          "type": "string"
        }
      ],
      "payable": false,
      "stateMutability": "view",
      "type": "function"
    },
    {
      "constant": true,
      "inputs": [],
      "name": "m_appParams",
      "outputs": [
        {
          "name": "",
          "type": "string"
        }
      ],
      "payable": false,
      "stateMutability": "view",
      "type": "function"
    },
    {
      "constant": true,
      "inputs": [],
      "name": "m_owner",
      "outputs": [
        {
          "name": "",
          "type": "address"
        }
      ],
      "payable": false,
      "stateMutability": "view",
      "type": "function"
    },
    {
      "constant": false,
      "inputs": [
        {
          "name": "_newOwner",
          "type": "address"
        }
      ],
      "name": "transferOwnership",
      "outputs": [],
      "payable": false,
      "stateMutability": "nonpayable",
      "type": "function"
    },
    {
      "inputs": [
        {
          "name": "_iexecHubAddress",
          "type": "address"
        },
        {
          "name": "_appName",
          "type": "string"
        },
        {
          "name": "_appPrice",
          "type": "uint256"
        },
        {
          "name": "_appParams",
          "type": "string"
        }
      ],
      "payable": false,
      "stateMutability": "nonpayable",
      "type": "constructor"
    },
    {
      "anonymous": false,
      "inputs": [
        {
          "indexed": true,
          "name": "previousOwner",
          "type": "address"
        },
        {
          "indexed": true,
          "name": "newOwner",
          "type": "address"
        }
      ],
      "name": "OwnershipTransferred",
      "type": "event"
    }
  ],
  "bytecode": "0x6060604052341561000f57600080fd5b60405161055c38038061055c83398101604052808051919060200180518201919060200180519190602001805160008054600160a060020a03338116600160a060020a03199092168217909255919093019232161415905061007057600080fd5b610086326401000000006102a16100bc82021704565b600183805161009992916020019061014a565b50600282905560038180516100b292916020019061014a565b50505050506101e5565b60005433600160a060020a039081169116146100d757600080fd5b600160a060020a03811615156100ec57600080fd5b600054600160a060020a0380831691167f8be0079c531659141344cd1fd0a4f28419497f9722a3daafe3b4186f6b6457e060405160405180910390a360008054600160a060020a031916600160a060020a0392909216919091179055565b828054600181600116156101000203166002900490600052602060002090601f016020900481019282601f1061018b57805160ff19168380011785556101b8565b828001600101855582156101b8579182015b828111156101b857825182559160200191906001019061019d565b506101c49291506101c8565b5090565b6101e291905b808211156101c457600081556001016101ce565b90565b610368806101f46000396000f30060606040526004361061006c5763ffffffff7c010000000000000000000000000000000000000000000000000000000060003504166326137e6b8114610071578063358982a31461009657806388fc56c014610120578063deff41c114610133578063f2fde38b14610162575b600080fd5b341561007c57600080fd5b610084610183565b60405190815260200160405180910390f35b34156100a157600080fd5b6100a9610189565b60405160208082528190810183818151815260200191508051906020019080838360005b838110156100e55780820151838201526020016100cd565b50505050905090810190601f1680156101125780820380516001836020036101000a031916815260200191505b509250505060405180910390f35b341561012b57600080fd5b6100a9610227565b341561013e57600080fd5b610146610292565b604051600160a060020a03909116815260200160405180910390f35b341561016d57600080fd5b610181600160a060020a03600435166102a1565b005b60025481565b60018054600181600116156101000203166002900480601f01602080910402602001604051908101604052809291908181526020018280546001816001161561010002031660029004801561021f5780601f106101f45761010080835404028352916020019161021f565b820191906000526020600020905b81548152906001019060200180831161020257829003601f168201915b505050505081565b60038054600181600116156101000203166002900480601f01602080910402602001604051908101604052809291908181526020018280546001816001161561010002031660029004801561021f5780601f106101f45761010080835404028352916020019161021f565b600054600160a060020a031681565b60005433600160a060020a039081169116146102bc57600080fd5b600160a060020a03811615156102d157600080fd5b600054600160a060020a0380831691167f8be0079c531659141344cd1fd0a4f28419497f9722a3daafe3b4186f6b6457e060405160405180910390a36000805473ffffffffffffffffffffffffffffffffffffffff1916600160a060020a03929092169190911790555600a165627a7a72305820f6655a9229a5e1e45c3db75b4a66dcad1b846a602652f393192d98c933bcc4ea0029",
  "source": "pragma solidity ^0.4.21;\n\nimport './OwnableOZ.sol';\n/* import './IexecHubAccessor.sol'; */\n\ncontract App is OwnableOZ //, IexecHubAccessor\n{\n\n\t/**\n\t * Members\n\t */\n\tstring  public m_appName;\n\tuint256 public m_appPrice;\n\tstring  public m_appParams;\n\n\t/**\n\t * Constructor\n\t */\n\tfunction App(\n\t\taddress _iexecHubAddress,\n\t\tstring  _appName,\n\t\tuint256 _appPrice,\n\t\tstring  _appParams)\n\t/* IexecHubAccessor(_iexecHubAddress) */\n\tpublic\n\t{\n\t\t// tx.origin == owner\n\t\t// msg.sender == DatasetHub\n\t\trequire(tx.origin != msg.sender);\n\t\ttransferOwnership(tx.origin); // owner → tx.origin\n\n\t\tm_appName   = _appName;\n\t\tm_appPrice  = _appPrice;\n\t\tm_appParams = _appParams;\n\n\t}\n\n\n\n}\n",
  "sourcePath": "/home/amxx/Work/iExec/PoCo-dev/contracts/App.sol",
  "compiler": {
    "name": "solc",
    "version": "0.4.21+commit.dfe3193c.Emscripten.clang"
  },
  "schemaVersion": "2.0.0",
  "updatedAt": "2018-05-19T17:45:04.197Z"
}