{
  "contractName": "App",
  "abi": [
    {
      "constant": true,
      "inputs": [],
      "name": "m_appPrice",
      "outputs": [
        {
          "name": "",
          "type": "uint256"
        }
      ],
      "payable": false,
      "stateMutability": "view",
      "type": "function"
    },
    {
      "constant": true,
      "inputs": [],
      "name": "m_appName",
      "outputs": [
        {
          "name": "",
          "type": "string"
        }
      ],
      "payable": false,
      "stateMutability": "view",
      "type": "function"
    },
    {
      "constant": true,
      "inputs": [],
      "name": "m_appParams",
      "outputs": [
        {
          "name": "",
          "type": "string"
        }
      ],
      "payable": false,
      "stateMutability": "view",
      "type": "function"
    },
    {
      "constant": false,
      "inputs": [
        {
          "name": "_newOwner",
          "type": "address"
        }
      ],
      "name": "setImmutableOwnership",
      "outputs": [],
      "payable": false,
      "stateMutability": "nonpayable",
      "type": "function"
    },
    {
      "constant": true,
      "inputs": [],
      "name": "m_owner",
      "outputs": [
        {
          "name": "",
          "type": "address"
        }
      ],
      "payable": false,
      "stateMutability": "view",
      "type": "function"
    },
    {
      "constant": true,
      "inputs": [],
      "name": "m_changeable",
      "outputs": [
        {
          "name": "",
          "type": "bool"
        }
      ],
      "payable": false,
      "stateMutability": "view",
      "type": "function"
    },
    {
      "inputs": [
        {
          "name": "_iexecHubAddress",
          "type": "address"
        },
        {
          "name": "_appName",
          "type": "string"
        },
        {
          "name": "_appPrice",
          "type": "uint256"
        },
        {
          "name": "_appParams",
          "type": "string"
        }
      ],
      "payable": false,
      "stateMutability": "nonpayable",
      "type": "constructor"
    },
    {
      "anonymous": false,
      "inputs": [
        {
          "indexed": true,
          "name": "previousOwner",
          "type": "address"
        },
        {
          "indexed": true,
          "name": "newOwner",
          "type": "address"
        }
      ],
      "name": "OwnershipTransferred",
      "type": "event"
    }
  ],
  "bytecode": "0x6060604052341561000f57600080fd5b6040516106733803806106738339810160405280805191906020018051820191906020018051919060200180516000805460a060020a60ff0219600160a060020a03338116600160a060020a0319909316929092171674010000000000000000000000000000000000000000179091559201918591508116151561009257600080fd5b60018054600160a060020a031916600160a060020a039283161790553381163290911614156100c057600080fd5b6100d6326401000000006102c461010c82021704565b60028380516100e99291602001906101cd565b50600382905560048180516101029291602001906101cd565b5050505050610268565b60005433600160a060020a0390811691161461012757600080fd5b60005474010000000000000000000000000000000000000000900460ff16151561015057600080fd5b600160a060020a038116151561016557600080fd5b600054600160a060020a0380831691167f8be0079c531659141344cd1fd0a4f28419497f9722a3daafe3b4186f6b6457e060405160405180910390a360008054600160a060020a031916600160a060020a03929092169190911760a060020a60ff0219169055565b828054600181600116156101000203166002900490600052602060002090601f016020900481019282601f1061020e57805160ff191683800117855561023b565b8280016001018555821561023b579182015b8281111561023b578251825591602001919060010190610220565b5061024792915061024b565b5090565b61026591905b808211156102475760008155600101610251565b90565b6103fc806102776000396000f3006060604052600436106100775763ffffffff7c010000000000000000000000000000000000000000000000000000000060003504166326137e6b811461007c578063358982a3146100a157806388fc56c01461012b578063bbac78a91461013e578063deff41c11461015f578063e21b9d081461018e575b600080fd5b341561008757600080fd5b61008f6101b5565b60405190815260200160405180910390f35b34156100ac57600080fd5b6100b46101bb565b60405160208082528190810183818151815260200191508051906020019080838360005b838110156100f05780820151838201526020016100d8565b50505050905090810190601f16801561011d5780820380516001836020036101000a031916815260200191505b509250505060405180910390f35b341561013657600080fd5b6100b4610259565b341561014957600080fd5b61015d600160a060020a03600435166102c4565b005b341561016a57600080fd5b6101726103a0565b604051600160a060020a03909116815260200160405180910390f35b341561019957600080fd5b6101a16103af565b604051901515815260200160405180910390f35b60035481565b60028054600181600116156101000203166002900480601f0160208091040260200160405190810160405280929190818152602001828054600181600116156101000203166002900480156102515780601f1061022657610100808354040283529160200191610251565b820191906000526020600020905b81548152906001019060200180831161023457829003601f168201915b505050505081565b60048054600181600116156101000203166002900480601f0160208091040260200160405190810160405280929190818152602001828054600181600116156101000203166002900480156102515780601f1061022657610100808354040283529160200191610251565b60005433600160a060020a039081169116146102df57600080fd5b60005474010000000000000000000000000000000000000000900460ff16151561030857600080fd5b600160a060020a038116151561031d57600080fd5b600054600160a060020a0380831691167f8be0079c531659141344cd1fd0a4f28419497f9722a3daafe3b4186f6b6457e060405160405180910390a36000805473ffffffffffffffffffffffffffffffffffffffff1916600160a060020a03929092169190911774ff000000000000000000000000000000000000000019169055565b600054600160a060020a031681565b60005474010000000000000000000000000000000000000000900460ff16815600a165627a7a723058206d99b62a46fd6c98aa2d6fdc4f0dc4efd9a258d38aa451bf0086c59b301c301c0029",
  "source": "pragma solidity ^0.4.21;\n\nimport './OwnableOZ.sol';\nimport './IexecHubAccessor.sol';\n\ncontract App is OwnableOZ, IexecHubAccessor\n{\n\n\t/**\n\t * Members\n\t */\n\tstring        public m_appName;\n\tuint256       public m_appPrice;\n\tstring        public m_appParams;\n\n\t/**\n\t * Constructor\n\t */\n\tfunction App(\n\t\taddress _iexecHubAddress,\n\t\tstring  _appName,\n\t\tuint256 _appPrice,\n\t\tstring  _appParams)\n\tIexecHubAccessor(_iexecHubAddress)\n\tpublic\n\t{\n\t\t// tx.origin == owner\n\t\t// msg.sender == DatasetHub\n\t\trequire(tx.origin != msg.sender);\n\t\tsetImmutableOwnership(tx.origin); // owner → tx.origin\n\n\t\tm_appName   = _appName;\n\t\tm_appPrice  = _appPrice;\n\t\tm_appParams = _appParams;\n\n\t}\n\n\n\n}\n",
  "sourcePath": "/Users/fbranci/iexecdev/PoCo/contracts/App.sol",
  "compiler": {
    "name": "solc",
    "version": "0.4.21+commit.dfe3193c.Emscripten.clang"
  },
  "schemaVersion": "2.0.0",
  "updatedAt": "2018-05-20T20:12:33.541Z"
}