{
  "contractName": "App",
  "abi": [
    {
      "constant": true,
      "inputs": [],
      "name": "m_appPrice",
      "outputs": [
        {
          "name": "",
          "type": "uint256"
        }
      ],
      "payable": false,
      "stateMutability": "view",
      "type": "function"
    },
    {
      "constant": true,
      "inputs": [],
      "name": "m_requestersAuthorizedListAddress",
      "outputs": [
        {
          "name": "",
          "type": "address"
        }
      ],
      "payable": false,
      "stateMutability": "view",
      "type": "function"
    },
    {
      "constant": true,
      "inputs": [],
      "name": "m_appName",
      "outputs": [
        {
          "name": "",
          "type": "string"
        }
      ],
      "payable": false,
      "stateMutability": "view",
      "type": "function"
    },
    {
      "constant": false,
      "inputs": [],
      "name": "close",
      "outputs": [
        {
          "name": "",
          "type": "bool"
        }
      ],
      "payable": false,
      "stateMutability": "nonpayable",
      "type": "function"
    },
    {
      "constant": true,
      "inputs": [],
      "name": "isOpen",
      "outputs": [
        {
          "name": "",
          "type": "bool"
        }
      ],
      "payable": false,
      "stateMutability": "view",
      "type": "function"
    },
    {
      "constant": false,
      "inputs": [
        {
          "name": "_workerPoolsAuthorizedListAddress",
          "type": "address"
        }
      ],
      "name": "attachWorkerPoolsAuthorizedListContract",
      "outputs": [],
      "payable": false,
      "stateMutability": "nonpayable",
      "type": "function"
    },
    {
      "constant": true,
      "inputs": [],
      "name": "m_datasetsAuthorizedListAddress",
      "outputs": [
        {
          "name": "",
          "type": "address"
        }
      ],
      "payable": false,
      "stateMutability": "view",
      "type": "function"
    },
    {
      "constant": false,
      "inputs": [
        {
          "name": "_requestersAuthorizedListAddress",
          "type": "address"
        }
      ],
      "name": "attachRequestersAuthorizedListContract",
      "outputs": [],
      "payable": false,
      "stateMutability": "nonpayable",
      "type": "function"
    },
    {
      "constant": false,
      "inputs": [
        {
          "name": "_datasetsAuthorizedListAddress",
          "type": "address"
        }
      ],
      "name": "attachDatasetsAuthorizedListContract",
      "outputs": [],
      "payable": false,
      "stateMutability": "nonpayable",
      "type": "function"
    },
    {
      "constant": true,
      "inputs": [],
      "name": "m_appParam",
      "outputs": [
        {
          "name": "",
          "type": "string"
        }
      ],
      "payable": false,
      "stateMutability": "view",
      "type": "function"
    },
    {
      "constant": false,
      "inputs": [
        {
          "name": "_dataset",
          "type": "address"
        }
      ],
      "name": "isDatasetAllowed",
      "outputs": [
        {
          "name": "",
          "type": "bool"
        }
      ],
      "payable": false,
      "stateMutability": "nonpayable",
      "type": "function"
    },
    {
      "constant": true,
      "inputs": [],
      "name": "m_appUri",
      "outputs": [
        {
          "name": "",
          "type": "string"
        }
      ],
      "payable": false,
      "stateMutability": "view",
      "type": "function"
    },
    {
      "constant": true,
      "inputs": [],
      "name": "m_appStatus",
      "outputs": [
        {
          "name": "",
          "type": "uint8"
        }
      ],
      "payable": false,
      "stateMutability": "view",
      "type": "function"
    },
    {
      "constant": true,
      "inputs": [],
      "name": "m_owner",
      "outputs": [
        {
          "name": "",
          "type": "address"
        }
      ],
      "payable": false,
      "stateMutability": "view",
      "type": "function"
    },
    {
      "constant": false,
      "inputs": [
        {
          "name": "_requester",
          "type": "address"
        }
      ],
      "name": "isRequesterAllowed",
      "outputs": [
        {
          "name": "",
          "type": "bool"
        }
      ],
      "payable": false,
      "stateMutability": "nonpayable",
      "type": "function"
    },
    {
      "constant": false,
      "inputs": [
        {
          "name": "_workerPool",
          "type": "address"
        }
      ],
      "name": "isWorkerPoolAllowed",
      "outputs": [
        {
          "name": "",
          "type": "bool"
        }
      ],
      "payable": false,
      "stateMutability": "nonpayable",
      "type": "function"
    },
    {
      "constant": false,
      "inputs": [
        {
          "name": "_newOwner",
          "type": "address"
        }
      ],
      "name": "transferOwnership",
      "outputs": [],
      "payable": false,
      "stateMutability": "nonpayable",
      "type": "function"
    },
    {
      "constant": true,
      "inputs": [],
      "name": "m_workerPoolsAuthorizedListAddress",
      "outputs": [
        {
          "name": "",
          "type": "address"
        }
      ],
      "payable": false,
      "stateMutability": "view",
      "type": "function"
    },
    {
      "constant": false,
      "inputs": [],
      "name": "open",
      "outputs": [
        {
          "name": "",
          "type": "bool"
        }
      ],
      "payable": false,
      "stateMutability": "nonpayable",
      "type": "function"
    },
    {
      "inputs": [
        {
          "name": "_iexecHubAddress",
          "type": "address"
        },
        {
          "name": "_appName",
          "type": "string"
        },
        {
          "name": "_appPrice",
          "type": "uint256"
        },
        {
          "name": "_appParam",
          "type": "string"
        },
        {
          "name": "_appUri",
          "type": "string"
        }
      ],
      "payable": false,
      "stateMutability": "nonpayable",
      "type": "constructor"
    },
    {
      "anonymous": false,
      "inputs": [
        {
          "indexed": true,
          "name": "previousOwner",
          "type": "address"
        },
        {
          "indexed": true,
          "name": "newOwner",
          "type": "address"
        }
      ],
      "name": "OwnershipTransferred",
      "type": "event"
    }
  ],
  "bytecode": "0x606060405234156200001057600080fd5b60405162001559380380620015598339810160405280805190602001909190805182019190602001805190602001909190805182019190602001805182019190505084336000806101000a81548173ffffffffffffffffffffffffffffffffffffffff021916908373ffffffffffffffffffffffffffffffffffffffff160217905550600073ffffffffffffffffffffffffffffffffffffffff168173ffffffffffffffffffffffffffffffffffffffff1614151515620000d057600080fd5b80600160006101000a81548173ffffffffffffffffffffffffffffffffffffffff021916908373ffffffffffffffffffffffffffffffffffffffff16021790555080600260006101000a81548173ffffffffffffffffffffffffffffffffffffffff021916908373ffffffffffffffffffffffffffffffffffffffff160217905550503373ffffffffffffffffffffffffffffffffffffffff163273ffffffffffffffffffffffffffffffffffffffff16141515156200018f57600080fd5b620001ae32620002306401000000000262000eb0176401000000009004565b8360039080519060200190620001c692919062000387565b50826004819055508160059080519060200190620001e692919062000387565b508060069080519060200190620001ff92919062000387565b506000600760006101000a81548160ff021916908360018111156200022057fe5b0217905550505050505062000436565b6000809054906101000a900473ffffffffffffffffffffffffffffffffffffffff1673ffffffffffffffffffffffffffffffffffffffff163373ffffffffffffffffffffffffffffffffffffffff161415156200028c57600080fd5b600073ffffffffffffffffffffffffffffffffffffffff168173ffffffffffffffffffffffffffffffffffffffff1614151515620002c957600080fd5b8073ffffffffffffffffffffffffffffffffffffffff166000809054906101000a900473ffffffffffffffffffffffffffffffffffffffff1673ffffffffffffffffffffffffffffffffffffffff167f8be0079c531659141344cd1fd0a4f28419497f9722a3daafe3b4186f6b6457e060405160405180910390a3806000806101000a81548173ffffffffffffffffffffffffffffffffffffffff021916908373ffffffffffffffffffffffffffffffffffffffff16021790555050565b828054600181600116156101000203166002900490600052602060002090601f016020900481019282601f10620003ca57805160ff1916838001178555620003fb565b82800160010185558215620003fb579182015b82811115620003fa578251825591602001919060010190620003dd565b5b5090506200040a91906200040e565b5090565b6200043391905b808211156200042f57600081600090555060010162000415565b5090565b90565b61111380620004466000396000f300606060405260043610610107576000357c0100000000000000000000000000000000000000000000000000000000900463ffffffff16806326137e6b1461010c57806328e77d1f14610135578063358982a31461018a57806343d726d61461021857806347535d7b1461024557806361d62c63146102725780636bad89a5146102ab578063797eda2d146103005780637a851493146103395780638128aa9c146103725780638f384d3914610400578063946cb19014610451578063bf2b67ec146104df578063deff41c114610516578063e1041aa11461056b578063e52e8b81146105bc578063f2fde38b1461060d578063f6269ab514610646578063fcfff16f1461069b575b600080fd5b341561011757600080fd5b61011f6106c8565b6040518082815260200191505060405180910390f35b341561014057600080fd5b6101486106ce565b604051808273ffffffffffffffffffffffffffffffffffffffff1673ffffffffffffffffffffffffffffffffffffffff16815260200191505060405180910390f35b341561019557600080fd5b61019d6106f4565b6040518080602001828103825283818151815260200191508051906020019080838360005b838110156101dd5780820151818401526020810190506101c2565b50505050905090810190601f16801561020a5780820380516001836020036101000a031916815260200191505b509250505060405180910390f35b341561022357600080fd5b61022b610792565b604051808215151515815260200191505060405180910390f35b341561025057600080fd5b61025861084f565b604051808215151515815260200191505060405180910390f35b341561027d57600080fd5b6102a9600480803573ffffffffffffffffffffffffffffffffffffffff1690602001909190505061087e565b005b34156102b657600080fd5b6102be61091d565b604051808273ffffffffffffffffffffffffffffffffffffffff1673ffffffffffffffffffffffffffffffffffffffff16815260200191505060405180910390f35b341561030b57600080fd5b610337600480803573ffffffffffffffffffffffffffffffffffffffff16906020019091905050610943565b005b341561034457600080fd5b610370600480803573ffffffffffffffffffffffffffffffffffffffff169060200190919050506109e2565b005b341561037d57600080fd5b610385610a81565b6040518080602001828103825283818151815260200191508051906020019080838360005b838110156103c55780820151818401526020810190506103aa565b50505050905090810190601f1680156103f25780820380516001836020036101000a031916815260200191505b509250505060405180910390f35b341561040b57600080fd5b610437600480803573ffffffffffffffffffffffffffffffffffffffff16906020019091905050610b1f565b604051808215151515815260200191505060405180910390f35b341561045c57600080fd5b610464610c08565b6040518080602001828103825283818151815260200191508051906020019080838360005b838110156104a4578082015181840152602081019050610489565b50505050905090810190601f1680156104d15780820380516001836020036101000a031916815260200191505b509250505060405180910390f35b34156104ea57600080fd5b6104f2610ca6565b6040518082600181111561050257fe5b60ff16815260200191505060405180910390f35b341561052157600080fd5b610529610cb9565b604051808273ffffffffffffffffffffffffffffffffffffffff1673ffffffffffffffffffffffffffffffffffffffff16815260200191505060405180910390f35b341561057657600080fd5b6105a2600480803573ffffffffffffffffffffffffffffffffffffffff16906020019091905050610cde565b604051808215151515815260200191505060405180910390f35b34156105c757600080fd5b6105f3600480803573ffffffffffffffffffffffffffffffffffffffff16906020019091905050610dc7565b604051808215151515815260200191505060405180910390f35b341561061857600080fd5b610644600480803573ffffffffffffffffffffffffffffffffffffffff16906020019091905050610eb0565b005b341561065157600080fd5b610659611005565b604051808273ffffffffffffffffffffffffffffffffffffffff1673ffffffffffffffffffffffffffffffffffffffff16815260200191505060405180910390f35b34156106a657600080fd5b6106ae61102b565b604051808215151515815260200191505060405180910390f35b60045481565b600960009054906101000a900473ffffffffffffffffffffffffffffffffffffffff1681565b60038054600181600116156101000203166002900480601f01602080910402602001604051908101604052809291908181526020018280546001816001161561010002031660029004801561078a5780601f1061075f5761010080835404028352916020019161078a565b820191906000526020600020905b81548152906001019060200180831161076d57829003601f168201915b505050505081565b6000600160009054906101000a900473ffffffffffffffffffffffffffffffffffffffff1673ffffffffffffffffffffffffffffffffffffffff163373ffffffffffffffffffffffffffffffffffffffff161415156107f057600080fd5b600060018111156107fd57fe5b600760009054906101000a900460ff16600181111561081857fe5b14151561082457600080fd5b6001600760006101000a81548160ff0219169083600181111561084357fe5b02179055506001905090565b600080600181111561085d57fe5b600760009054906101000a900460ff16600181111561087857fe5b14905090565b6000809054906101000a900473ffffffffffffffffffffffffffffffffffffffff1673ffffffffffffffffffffffffffffffffffffffff163373ffffffffffffffffffffffffffffffffffffffff161415156108d957600080fd5b80600760016101000a81548173ffffffffffffffffffffffffffffffffffffffff021916908373ffffffffffffffffffffffffffffffffffffffff16021790555050565b600860009054906101000a900473ffffffffffffffffffffffffffffffffffffffff1681565b6000809054906101000a900473ffffffffffffffffffffffffffffffffffffffff1673ffffffffffffffffffffffffffffffffffffffff163373ffffffffffffffffffffffffffffffffffffffff1614151561099e57600080fd5b80600960006101000a81548173ffffffffffffffffffffffffffffffffffffffff021916908373ffffffffffffffffffffffffffffffffffffffff16021790555050565b6000809054906101000a900473ffffffffffffffffffffffffffffffffffffffff1673ffffffffffffffffffffffffffffffffffffffff163373ffffffffffffffffffffffffffffffffffffffff16141515610a3d57600080fd5b80600860006101000a81548173ffffffffffffffffffffffffffffffffffffffff021916908373ffffffffffffffffffffffffffffffffffffffff16021790555050565b60058054600181600116156101000203166002900480601f016020809104026020016040519081016040528092919081815260200182805460018160011615610100020316600290048015610b175780601f10610aec57610100808354040283529160200191610b17565b820191906000526020600020905b815481529060010190602001808311610afa57829003601f168201915b505050505081565b6000600860009054906101000a900473ffffffffffffffffffffffffffffffffffffffff1673ffffffffffffffffffffffffffffffffffffffff1663361895c8836000604051602001526040518263ffffffff167c0100000000000000000000000000000000000000000000000000000000028152600401808273ffffffffffffffffffffffffffffffffffffffff1673ffffffffffffffffffffffffffffffffffffffff168152602001915050602060405180830381600087803b1515610be657600080fd5b6102c65a03f11515610bf757600080fd5b505050604051805190509050919050565b60068054600181600116156101000203166002900480601f016020809104026020016040519081016040528092919081815260200182805460018160011615610100020316600290048015610c9e5780601f10610c7357610100808354040283529160200191610c9e565b820191906000526020600020905b815481529060010190602001808311610c8157829003601f168201915b505050505081565b600760009054906101000a900460ff1681565b6000809054906101000a900473ffffffffffffffffffffffffffffffffffffffff1681565b6000600960009054906101000a900473ffffffffffffffffffffffffffffffffffffffff1673ffffffffffffffffffffffffffffffffffffffff1663361895c8836000604051602001526040518263ffffffff167c0100000000000000000000000000000000000000000000000000000000028152600401808273ffffffffffffffffffffffffffffffffffffffff1673ffffffffffffffffffffffffffffffffffffffff168152602001915050602060405180830381600087803b1515610da557600080fd5b6102c65a03f11515610db657600080fd5b505050604051805190509050919050565b6000600760019054906101000a900473ffffffffffffffffffffffffffffffffffffffff1673ffffffffffffffffffffffffffffffffffffffff1663361895c8836000604051602001526040518263ffffffff167c0100000000000000000000000000000000000000000000000000000000028152600401808273ffffffffffffffffffffffffffffffffffffffff1673ffffffffffffffffffffffffffffffffffffffff168152602001915050602060405180830381600087803b1515610e8e57600080fd5b6102c65a03f11515610e9f57600080fd5b505050604051805190509050919050565b6000809054906101000a900473ffffffffffffffffffffffffffffffffffffffff1673ffffffffffffffffffffffffffffffffffffffff163373ffffffffffffffffffffffffffffffffffffffff16141515610f0b57600080fd5b600073ffffffffffffffffffffffffffffffffffffffff168173ffffffffffffffffffffffffffffffffffffffff1614151515610f4757600080fd5b8073ffffffffffffffffffffffffffffffffffffffff166000809054906101000a900473ffffffffffffffffffffffffffffffffffffffff1673ffffffffffffffffffffffffffffffffffffffff167f8be0079c531659141344cd1fd0a4f28419497f9722a3daafe3b4186f6b6457e060405160405180910390a3806000806101000a81548173ffffffffffffffffffffffffffffffffffffffff021916908373ffffffffffffffffffffffffffffffffffffffff16021790555050565b600760019054906101000a900473ffffffffffffffffffffffffffffffffffffffff1681565b6000600160009054906101000a900473ffffffffffffffffffffffffffffffffffffffff1673ffffffffffffffffffffffffffffffffffffffff163373ffffffffffffffffffffffffffffffffffffffff1614151561108957600080fd5b60018081111561109557fe5b600760009054906101000a900460ff1660018111156110b057fe5b1415156110bc57600080fd5b6000600760006101000a81548160ff021916908360018111156110db57fe5b021790555060019050905600a165627a7a723058207a1df8068ac142c0b799dadbde1c14416792f8b7251eb479729cb925fd4e86b40029",
  "source": "pragma solidity ^0.4.18;\n\nimport './OwnableOZ.sol';\nimport './IexecHubAccessor.sol';\nimport \"./AuthorizedList.sol\";\n\ncontract App is OwnableOZ, IexecHubAccessor //Owned by a D(w){\n{\n\n\tenum AppStatusEnum { OPEN, CLOSE }\n\n\t/**\n\t * Members\n\t */\n\tstring        public m_appName;\n\tuint256       public m_appPrice;\n\tstring        public m_appParam;\n\tstring        public m_appUri;\n\tAppStatusEnum public m_appStatus;\n\n\t/**\n\t * Address of slave contracts\n\t */\n\taddress       public m_workerPoolsAuthorizedListAddress;\n\taddress       public m_datasetsAuthorizedListAddress;\n\taddress       public m_requestersAuthorizedListAddress;\n\n\t/**\n\t * Constructor\n\t */\n\tfunction App(\n\t\taddress _iexecHubAddress,\n\t\tstring  _appName,\n\t\tuint256 _appPrice,\n\t\tstring  _appParam,\n\t\tstring  _appUri)\n\tIexecHubAccessor(_iexecHubAddress)\n\tpublic\n\t{\n\t\t// tx.origin == owner\n\t\t// msg.sender == DatasetHub\n\t\trequire(tx.origin != msg.sender);\n\t\ttransferOwnership(tx.origin); // owner → tx.origin\n\n\t\tm_appName   = _appName;\n\t\tm_appPrice  = _appPrice;\n\t\tm_appParam  = _appParam;\n\t\tm_appUri    = _appUri;\n\t\tm_appStatus = AppStatusEnum.OPEN;\n\t}\n\n\t/**\n\t * Methods\n\t */\n\tfunction open() public onlyIexecHub /*for staking management*/ returns (bool)\n\t{\n\t\trequire(m_appStatus == AppStatusEnum.CLOSE);\n\t\tm_appStatus = AppStatusEnum.OPEN;\n\t\treturn true;\n\t}\n\n\tfunction close() public onlyIexecHub /*for staking management*/ returns (bool)\n\t{\n\t\trequire(m_appStatus == AppStatusEnum.OPEN);\n\t\tm_appStatus = AppStatusEnum.CLOSE;\n\t\treturn true;\n\t}\n\n\tfunction isOpen() public view returns (bool)\n\t{\n\t\treturn m_appStatus == AppStatusEnum.OPEN;\n\t}\n\n\tfunction attachWorkerPoolsAuthorizedListContract(address _workerPoolsAuthorizedListAddress) public onlyOwner\n\t{\n\t\tm_workerPoolsAuthorizedListAddress =_workerPoolsAuthorizedListAddress;\n\t}\n\n\tfunction attachDatasetsAuthorizedListContract(address _datasetsAuthorizedListAddress) public onlyOwner\n\t{\n\t\tm_datasetsAuthorizedListAddress =_datasetsAuthorizedListAddress;\n\t}\n\n\tfunction attachRequestersAuthorizedListContract(address _requestersAuthorizedListAddress) public onlyOwner\n\t{\n\t\tm_requestersAuthorizedListAddress =_requestersAuthorizedListAddress;\n\t}\n\n\tfunction isWorkerPoolAllowed(address _workerPool) public returns (bool)\n\t{\n\t\treturn AuthorizedList(m_workerPoolsAuthorizedListAddress).isActorAllowed(_workerPool);\n\t}\n\n\tfunction isDatasetAllowed(address _dataset) public returns (bool)\n\t{\n\t\treturn AuthorizedList(m_datasetsAuthorizedListAddress).isActorAllowed(_dataset);\n\t}\n\n\tfunction isRequesterAllowed(address _requester) public returns (bool)\n\t{\n\t\treturn AuthorizedList(m_requestersAuthorizedListAddress).isActorAllowed(_requester);\n\t}\n\n}\n",
  "sourcePath": "/home/vagrant/iexecdev/PoCo/contracts/App.sol",
  "compiler": {
    "name": "solc",
    "version": "0.4.18+commit.9cf6e910.Emscripten.clang"
  },
  "schemaVersion": "1.0.1",
  "updatedAt": "2018-01-29T14:56:05.509Z"
}