{
  "contractName": "App",
  "abi": [
    {
      "constant": true,
      "inputs": [],
      "name": "m_appName",
      "outputs": [
        {
          "name": "",
          "type": "string"
        }
      ],
      "payable": false,
      "stateMutability": "view",
      "type": "function"
    },
    {
      "constant": true,
      "inputs": [],
      "name": "m_appMultiaddr",
      "outputs": [
        {
          "name": "",
          "type": "bytes"
        }
      ],
      "payable": false,
      "stateMutability": "view",
      "type": "function"
    },
    {
      "constant": false,
      "inputs": [],
      "name": "renounceOwnership",
      "outputs": [],
      "payable": false,
      "stateMutability": "nonpayable",
      "type": "function"
    },
    {
      "constant": true,
      "inputs": [],
      "name": "m_appChecksum",
      "outputs": [
        {
          "name": "",
          "type": "bytes32"
        }
      ],
      "payable": false,
      "stateMutability": "view",
      "type": "function"
    },
    {
      "constant": true,
      "inputs": [],
      "name": "owner",
      "outputs": [
        {
          "name": "",
          "type": "address"
        }
      ],
      "payable": false,
      "stateMutability": "view",
      "type": "function"
    },
    {
      "constant": true,
      "inputs": [],
      "name": "isOwner",
      "outputs": [
        {
          "name": "",
          "type": "bool"
        }
      ],
      "payable": false,
      "stateMutability": "view",
      "type": "function"
    },
    {
      "constant": true,
      "inputs": [],
      "name": "m_appMREnclave",
      "outputs": [
        {
          "name": "",
          "type": "bytes"
        }
      ],
      "payable": false,
      "stateMutability": "view",
      "type": "function"
    },
    {
      "constant": true,
      "inputs": [],
      "name": "m_appType",
      "outputs": [
        {
          "name": "",
          "type": "string"
        }
      ],
      "payable": false,
      "stateMutability": "view",
      "type": "function"
    },
    {
      "inputs": [
        {
          "name": "_appOwner",
          "type": "address"
        },
        {
          "name": "_appName",
          "type": "string"
        },
        {
          "name": "_appType",
          "type": "string"
        },
        {
          "name": "_appMultiaddr",
          "type": "bytes"
        },
        {
          "name": "_appChecksum",
          "type": "bytes32"
        },
        {
          "name": "_appMREnclave",
          "type": "bytes"
        }
      ],
      "payable": false,
      "stateMutability": "nonpayable",
      "type": "constructor"
    },
    {
      "anonymous": false,
      "inputs": [
        {
          "indexed": true,
          "name": "previousOwner",
          "type": "address"
        },
        {
          "indexed": true,
          "name": "newOwner",
          "type": "address"
        }
      ],
      "name": "OwnershipTransferred",
      "type": "event"
    },
    {
      "constant": false,
      "inputs": [
        {
          "name": "",
          "type": "address"
        }
      ],
      "name": "transferOwnership",
      "outputs": [],
      "payable": false,
      "stateMutability": "nonpayable",
      "type": "function"
    }
  ],
  "bytecode": "0x608060405234801561001057600080fd5b5060405161082f38038061082f833981018060405260c081101561003357600080fd5b81516020830180519193928301929164010000000081111561005457600080fd5b8201602081018481111561006757600080fd5b815164010000000081118282018710171561008157600080fd5b5050929190602001805164010000000081111561009d57600080fd5b820160208101848111156100b057600080fd5b81516401000000008111828201871017156100ca57600080fd5b505092919060200180516401000000008111156100e657600080fd5b820160208101848111156100f957600080fd5b815164010000000081118282018710171561011357600080fd5b5050602082015160409092018051919492939164010000000081111561013857600080fd5b8201602081018481111561014b57600080fd5b815164010000000081118282018710171561016557600080fd5b5050600080546001600160a01b03191633178082556040519295506001600160a01b03169350915060008051602061080f833981519152908290a36101af8661020f60201b60201c565b84516101c29060019060208801906102b7565b5083516101d69060029060208701906102b7565b5082516101ea9060039060208601906102b7565b50600482905580516102039060059060208401906102b7565b50505050505050610352565b6001600160a01b03811661026e576040517f08c379a00000000000000000000000000000000000000000000000000000000081526004018080602001828103825260268152602001806107e96026913960400191505060405180910390fd5b600080546040516001600160a01b038085169392169160008051602061080f83398151915291a3600080546001600160a01b0319166001600160a01b0392909216919091179055565b828054600181600116156101000203166002900490600052602060002090601f016020900481019282601f106102f857805160ff1916838001178555610325565b82800160010185558215610325579182015b8281111561032557825182559160200191906001019061030a565b50610331929150610335565b5090565b61034f91905b80821115610331576000815560010161033b565b90565b610488806103616000396000f3fe608060405234801561001057600080fd5b50600436106100935760003560e01c80638da5cb5b116100665780638da5cb5b146101415780638f32d59b14610165578063e30d26a814610181578063f2fde38b14610189578063f8c2ceb3146101af57610093565b8063358982a31461009857806339e75d4514610115578063715018a61461011d57806384aaf12e14610127575b600080fd5b6100a06101b7565b6040805160208082528351818301528351919283929083019185019080838360005b838110156100da5781810151838201526020016100c2565b50505050905090810190601f1680156101075780820380516001836020036101000a031916815260200191505b509250505060405180910390f35b6100a0610244565b61012561029f565b005b61012f610345565b60408051918252519081900360200190f35b61014961034b565b604080516001600160a01b039092168252519081900360200190f35b61016d61035a565b604080519115158252519081900360200190f35b6100a061036b565b6101256004803603602081101561019f57600080fd5b50356001600160a01b03166103c6565b6100a0610404565b60018054604080516020600284861615610100026000190190941693909304601f8101849004840282018401909252818152929183018282801561023c5780601f106102115761010080835404028352916020019161023c565b820191906000526020600020905b81548152906001019060200180831161021f57829003601f168201915b505050505081565b6003805460408051602060026001851615610100026000190190941693909304601f8101849004840282018401909252818152929183018282801561023c5780601f106102115761010080835404028352916020019161023c565b6102a761035a565b6102fb5760408051600160e51b62461bcd02815260206004820181905260248201527f4f776e61626c653a2063616c6c6572206973206e6f7420746865206f776e6572604482015290519081900360640190fd5b600080546040516001600160a01b03909116907f8be0079c531659141344cd1fd0a4f28419497f9722a3daafe3b4186f6b6457e0908390a3600080546001600160a01b0319169055565b60045481565b6000546001600160a01b031690565b6000546001600160a01b0316331490565b6005805460408051602060026001851615610100026000190190941693909304601f8101849004840282018401909252818152929183018282801561023c5780601f106102115761010080835404028352916020019161023c565b60408051600160e51b62461bcd0281526020600482015260086024820152600160c21b67191a5cd8589b195902604482015290519081900360640190fd5b6002805460408051602060018416156101000260001901909316849004601f8101849004840282018401909252818152929183018282801561023c5780601f106102115761010080835404028352916020019161023c56fea165627a7a7230582078511e5c33b607a1e286b4a6d1b0d08d70ee98fe6e45038645d9208370f4c61c00294f776e61626c653a206e6577206f776e657220697320746865207a65726f20616464726573738be0079c531659141344cd1fd0a4f28419497f9722a3daafe3b4186f6b6457e0",
  "source": "pragma solidity ^0.5.8;\n\nimport \"openzeppelin-solidity/contracts/ownership/Ownable.sol\";\n\ncontract App is Ownable\n{\n\t/**\n\t * Members\n\t */\n\tstring  public m_appName;\n\tstring  public m_appType;\n\tbytes   public m_appMultiaddr;\n\tbytes32 public m_appChecksum;\n\tbytes   public m_appMREnclave;\n\n\t/**\n\t * Constructor\n\t */\n\tconstructor(\n\t\taddress        _appOwner,\n\t\tstring  memory _appName,\n\t\tstring  memory _appType,\n\t\tbytes   memory _appMultiaddr,\n\t\tbytes32        _appChecksum,\n\t\tbytes   memory _appMREnclave)\n\tpublic\n\t{\n\t\t_transferOwnership(_appOwner);\n\t\tm_appName      = _appName;\n\t\tm_appType      = _appType;\n\t\tm_appMultiaddr = _appMultiaddr;\n\t\tm_appChecksum  = _appChecksum;\n\t\tm_appMREnclave = _appMREnclave;\n\t}\n\n\tfunction transferOwnership(address) public { revert(\"disabled\"); }\n\n}\n",
  "sourcePath": "/home/amxx/Work/iExec/code/PoCo-dev/contracts/registries/App.sol",
  "compiler": {
    "name": "solc",
    "version": "0.5.8+commit.23d335f2.Emscripten.clang"
  },
  "schemaVersion": "3.0.13",
  "updatedAt": "2019-08-28T13:06:42.679Z",
  "devdoc": {
    "methods": {
      "isOwner()": {
        "details": "Returns true if the caller is the current owner."
      },
      "owner()": {
        "details": "Returns the address of the current owner."
      },
      "renounceOwnership()": {
        "details": "Leaves the contract without owner. It will not be possible to call `onlyOwner` functions anymore. Can only be called by the current owner.     * > Note: Renouncing ownership will leave the contract without an owner, thereby removing any functionality that is only available to the owner."
      }
    }
  },
  "userdoc": {
    "methods": {
      "constructor": "Constructor"
    }
  }
}