{
  "contractName": "App",
  "abi": [
    {
      "constant": true,
      "inputs": [],
      "name": "m_appPrice",
      "outputs": [
        {
          "name": "",
          "type": "uint256"
        }
      ],
      "payable": false,
      "stateMutability": "view",
      "type": "function"
    },
    {
      "constant": true,
      "inputs": [],
      "name": "m_appName",
      "outputs": [
        {
          "name": "",
          "type": "string"
        }
      ],
      "payable": false,
      "stateMutability": "view",
      "type": "function"
    },
    {
      "constant": true,
      "inputs": [],
      "name": "m_appParams",
      "outputs": [
        {
          "name": "",
          "type": "string"
        }
      ],
      "payable": false,
      "stateMutability": "view",
      "type": "function"
    },
    {
      "constant": true,
      "inputs": [],
      "name": "changeable",
      "outputs": [
        {
          "name": "",
          "type": "bool"
        }
      ],
      "payable": false,
      "stateMutability": "view",
      "type": "function"
    },
    {
      "constant": false,
      "inputs": [
        {
          "name": "_newOwner",
          "type": "address"
        }
      ],
      "name": "setImmutableOwnership",
      "outputs": [],
      "payable": false,
      "stateMutability": "nonpayable",
      "type": "function"
    },
    {
      "constant": true,
      "inputs": [],
      "name": "m_owner",
      "outputs": [
        {
          "name": "",
          "type": "address"
        }
      ],
      "payable": false,
      "stateMutability": "view",
      "type": "function"
    },
    {
      "inputs": [
        {
          "name": "_iexecHubAddress",
          "type": "address"
        },
        {
          "name": "_appName",
          "type": "string"
        },
        {
          "name": "_appPrice",
          "type": "uint256"
        },
        {
          "name": "_appParams",
          "type": "string"
        }
      ],
      "payable": false,
      "stateMutability": "nonpayable",
      "type": "constructor"
    },
    {
      "anonymous": false,
      "inputs": [
        {
          "indexed": true,
          "name": "previousOwner",
          "type": "address"
        },
        {
          "indexed": true,
          "name": "newOwner",
          "type": "address"
        }
      ],
      "name": "OwnershipTransferred",
      "type": "event"
    }
  ],
  "bytecode": "0x6060604052341561000f57600080fd5b6040516106b93803806106b98339810160405280805191906020018051820191906020018051919060200180516000805460a060020a60ff0219600160a060020a03338116600160a060020a0319909316929092171674010000000000000000000000000000000000000000179091559201918591508116151561009257600080fd5b60018054600160a060020a03928316600160a060020a031991821681179092556002805490911690911790553281163390911614156100d057600080fd5b6100e6326401000000006102ff61011c82021704565b60038380516100f99291602001906101d1565b50600482905560058180516101129291602001906101d1565b505050505061026c565b60005433600160a060020a0390811691161461013757600080fd5b60005474010000000000000000000000000000000000000000900460ff16151561016057600080fd5b600160a060020a038116151561017557600080fd5b60008054600160a060020a031916600160a060020a0383811691821760a060020a60ff021981169093559091167f8be0079c531659141344cd1fd0a4f28419497f9722a3daafe3b4186f6b6457e060405160405180910390a350565b828054600181600116156101000203166002900490600052602060002090601f016020900481019282601f1061021257805160ff191683800117855561023f565b8280016001018555821561023f579182015b8281111561023f578251825591602001919060010190610224565b5061024b92915061024f565b5090565b61026991905b8082111561024b5760008155600101610255565b90565b61043e8061027b6000396000f3006060604052600436106100775763ffffffff7c010000000000000000000000000000000000000000000000000000000060003504166326137e6b811461007c578063358982a3146100a157806388fc56c01461012b578063951b26a31461013e578063bbac78a914610165578063deff41c114610193575b600080fd5b341561008757600080fd5b61008f6101cf565b60405190815260200160405180910390f35b34156100ac57600080fd5b6100b46101d5565b60405160208082528190810183818151815260200191508051906020019080838360005b838110156100f05780820151838201526020016100d8565b50505050905090810190601f16801561011d5780820380516001836020036101000a031916815260200191505b509250505060405180910390f35b341561013657600080fd5b6100b4610273565b341561014957600080fd5b6101516102de565b604051901515815260200160405180910390f35b341561017057600080fd5b61019173ffffffffffffffffffffffffffffffffffffffff600435166102ff565b005b341561019e57600080fd5b6101a66103f6565b60405173ffffffffffffffffffffffffffffffffffffffff909116815260200160405180910390f35b60045481565b60038054600181600116156101000203166002900480601f01602080910402602001604051908101604052809291908181526020018280546001816001161561010002031660029004801561026b5780601f106102405761010080835404028352916020019161026b565b820191906000526020600020905b81548152906001019060200180831161024e57829003601f168201915b505050505081565b60058054600181600116156101000203166002900480601f01602080910402602001604051908101604052809291908181526020018280546001816001161561010002031660029004801561026b5780601f106102405761010080835404028352916020019161026b565b60005474010000000000000000000000000000000000000000900460ff1681565b6000543373ffffffffffffffffffffffffffffffffffffffff90811691161461032757600080fd5b60005474010000000000000000000000000000000000000000900460ff16151561035057600080fd5b73ffffffffffffffffffffffffffffffffffffffff8116151561037257600080fd5b6000805473ffffffffffffffffffffffffffffffffffffffff191673ffffffffffffffffffffffffffffffffffffffff83811691821774ff00000000000000000000000000000000000000001981169093559091167f8be0079c531659141344cd1fd0a4f28419497f9722a3daafe3b4186f6b6457e060405160405180910390a350565b60005473ffffffffffffffffffffffffffffffffffffffff16815600a165627a7a723058209808f6223df7c61299cda8ea3f7fe1c29ed7dcb8d0fa3703a3eef9d584313f130029",
  "source": "pragma solidity ^0.4.21;\n\nimport './OwnableOZ.sol';\nimport './IexecHubAccessor.sol';\n\ncontract App is OwnableOZ, IexecHubAccessor\n{\n\n\t/**\n\t * Members\n\t */\n\tstring        public m_appName;\n\tuint256       public m_appPrice;\n\tstring        public m_appParams;\n\n\t/**\n\t * Constructor\n\t */\n\tfunction App(\n\t\taddress _iexecHubAddress,\n\t\tstring  _appName,\n\t\tuint256 _appPrice,\n\t\tstring  _appParams)\n\tIexecHubAccessor(_iexecHubAddress)\n\tpublic\n\t{\n\t\t// tx.origin == owner\n\t\t// msg.sender == DatasetHub\n\t\trequire(tx.origin != msg.sender);\n\t\tsetImmutableOwnership(tx.origin); // owner → tx.origin\n\n\t\tm_appName   = _appName;\n\t\tm_appPrice  = _appPrice;\n\t\tm_appParams = _appParams;\n\n\t}\n\n\n\n}\n",
  "sourcePath": "/Users/fbranci/iexecdev/PoCo/contracts/App.sol",
  "compiler": {
    "name": "solc",
    "version": "0.4.21+commit.dfe3193c.Emscripten.clang"
  },
  "schemaVersion": "2.0.0",
  "updatedAt": "2018-05-18T16:17:06.045Z"
}