{
  "contractName": "AppHub",
  "abi": [
    {
      "constant": true,
      "inputs": [],
      "name": "m_totalAppCount",
      "outputs": [
        {
          "name": "",
          "type": "uint256"
        }
      ],
      "payable": false,
      "stateMutability": "view",
      "type": "function"
    },
    {
      "constant": false,
      "inputs": [
        {
          "name": "_newOwner",
          "type": "address"
        }
      ],
      "name": "setImmutableOwnership",
      "outputs": [],
      "payable": false,
      "stateMutability": "nonpayable",
      "type": "function"
    },
    {
      "constant": true,
      "inputs": [],
      "name": "m_owner",
      "outputs": [
        {
          "name": "",
          "type": "address"
        }
      ],
      "payable": false,
      "stateMutability": "view",
      "type": "function"
    },
    {
      "constant": true,
      "inputs": [],
      "name": "m_changeable",
      "outputs": [
        {
          "name": "",
          "type": "bool"
        }
      ],
      "payable": false,
      "stateMutability": "view",
      "type": "function"
    },
    {
      "inputs": [],
      "payable": false,
      "stateMutability": "nonpayable",
      "type": "constructor"
    },
    {
      "anonymous": false,
      "inputs": [
        {
          "indexed": true,
          "name": "previousOwner",
          "type": "address"
        },
        {
          "indexed": true,
          "name": "newOwner",
          "type": "address"
        }
      ],
      "name": "OwnershipTransferred",
      "type": "event"
    },
    {
      "constant": true,
      "inputs": [
        {
          "name": "_app",
          "type": "address"
        }
      ],
      "name": "isAppRegistered",
      "outputs": [
        {
          "name": "",
          "type": "bool"
        }
      ],
      "payable": false,
      "stateMutability": "view",
      "type": "function"
    },
    {
      "constant": true,
      "inputs": [
        {
          "name": "_owner",
          "type": "address"
        }
      ],
      "name": "getAppsCount",
      "outputs": [
        {
          "name": "",
          "type": "uint256"
        }
      ],
      "payable": false,
      "stateMutability": "view",
      "type": "function"
    },
    {
      "constant": true,
      "inputs": [
        {
          "name": "_owner",
          "type": "address"
        },
        {
          "name": "_index",
          "type": "uint256"
        }
      ],
      "name": "getApp",
      "outputs": [
        {
          "name": "",
          "type": "address"
        }
      ],
      "payable": false,
      "stateMutability": "view",
      "type": "function"
    },
    {
      "constant": true,
      "inputs": [
        {
          "name": "_index",
          "type": "uint256"
        }
      ],
      "name": "getAppByIndex",
      "outputs": [
        {
          "name": "",
          "type": "address"
        }
      ],
      "payable": false,
      "stateMutability": "view",
      "type": "function"
    },
    {
      "constant": false,
      "inputs": [
        {
          "name": "_appName",
          "type": "string"
        },
        {
          "name": "_appPrice",
          "type": "uint256"
        },
        {
          "name": "_appParams",
          "type": "string"
        }
      ],
      "name": "createApp",
      "outputs": [
        {
          "name": "createdApp",
          "type": "address"
        }
      ],
      "payable": false,
      "stateMutability": "nonpayable",
      "type": "function"
    }
  ],
  "bytecode": "0x6060604052341561000f57600080fd5b6000805474010000000000000000000000000000000000000000600160a060020a031990911633600160a060020a03161760a060020a60ff021916178155610ca490819061005d90396000f3006060604052600436106100985763ffffffff7c010000000000000000000000000000000000000000000000000000000060003504166323797ed9811461009d5780633a911d30146100cf5780635476f49d146101005780638403be9114610113578063baebcaf014610146578063bbac78a914610168578063deff41c114610189578063e21b9d081461019c578063fc06a877146101af575b600080fd5b34156100a857600080fd5b6100b360043561024b565b604051600160a060020a03909116815260200160405180910390f35b34156100da57600080fd5b6100ee600160a060020a0360043516610266565b60405190815260200160405180910390f35b341561010b57600080fd5b6100ee610281565b341561011e57600080fd5b610132600160a060020a0360043516610287565b604051901515815260200160405180910390f35b341561015157600080fd5b6100b3600160a060020a03600435166024356102a5565b341561017357600080fd5b610187600160a060020a03600435166102cd565b005b341561019457600080fd5b6100b36103a9565b34156101a757600080fd5b6101326103b8565b34156101ba57600080fd5b6100b360046024813581810190830135806020601f8201819004810201604051908101604052818152929190602084018383808284378201915050505050509190803590602001909190803590602001908201803590602001908080601f0160208091040260200160405190810160405281815292919060208401838380828437509496506103d995505050505050565b600090815260046020526040902054600160a060020a031690565b600160a060020a031660009081526001602052604090205490565b60055481565b600160a060020a031660009081526003602052604090205460ff1690565b600160a060020a03918216600090815260026020908152604080832093835292905220541690565b60005433600160a060020a039081169116146102e857600080fd5b60005474010000000000000000000000000000000000000000900460ff16151561031157600080fd5b600160a060020a038116151561032657600080fd5b600054600160a060020a0380831691167f8be0079c531659141344cd1fd0a4f28419497f9722a3daafe3b4186f6b6457e060405160405180910390a36000805473ffffffffffffffffffffffffffffffffffffffff1916600160a060020a03929092169190911774ff000000000000000000000000000000000000000019169055565b600054600160a060020a031681565b60005474010000000000000000000000000000000000000000900460ff1681565b60008054819033600160a060020a039081169116146103f757600080fd5b338585856104036105f5565b600160a060020a038516815260408101839052608060208201818152906060830190830186818151815260200191508051906020019080838360005b8381101561045757808201518382015260200161043f565b50505050905090810190601f1680156104845780820380516001836020036101000a031916815260200191505b50838103825284818151815260200191508051906020019080838360005b838110156104ba5780820151838201526020016104a2565b50505050905090810190601f1680156104e75780820380516001836020036101000a031916815260200191505b509650505050505050604051809103906000f080151561050657600080fd5b9050610512328261051a565b949350505050565b600160a060020a03821660009081526001602081905260408220546105449163ffffffff6105df16565b60055490915061055b90600163ffffffff6105df16565b600581905560009081526004602090815260408083208054600160a060020a0396871673ffffffffffffffffffffffffffffffffffffffff199182168117909255969095168352600180835281842085905560028352818420948452938252808320805490961685179095559281526003909252919020805460ff19169091179055565b6000828201838110156105ee57fe5b9392505050565b604051610673806106068339019056006060604052341561000f57600080fd5b6040516106733803806106738339810160405280805191906020018051820191906020018051919060200180516000805460a060020a60ff0219600160a060020a03338116600160a060020a0319909316929092171674010000000000000000000000000000000000000000179091559201918591508116151561009257600080fd5b60018054600160a060020a031916600160a060020a039283161790553381163290911614156100c057600080fd5b6100d6326401000000006102c461010c82021704565b60028380516100e99291602001906101cd565b50600382905560048180516101029291602001906101cd565b5050505050610268565b60005433600160a060020a0390811691161461012757600080fd5b60005474010000000000000000000000000000000000000000900460ff16151561015057600080fd5b600160a060020a038116151561016557600080fd5b600054600160a060020a0380831691167f8be0079c531659141344cd1fd0a4f28419497f9722a3daafe3b4186f6b6457e060405160405180910390a360008054600160a060020a031916600160a060020a03929092169190911760a060020a60ff0219169055565b828054600181600116156101000203166002900490600052602060002090601f016020900481019282601f1061020e57805160ff191683800117855561023b565b8280016001018555821561023b579182015b8281111561023b578251825591602001919060010190610220565b5061024792915061024b565b5090565b61026591905b808211156102475760008155600101610251565b90565b6103fc806102776000396000f3006060604052600436106100775763ffffffff7c010000000000000000000000000000000000000000000000000000000060003504166326137e6b811461007c578063358982a3146100a157806388fc56c01461012b578063bbac78a91461013e578063deff41c11461015f578063e21b9d081461018e575b600080fd5b341561008757600080fd5b61008f6101b5565b60405190815260200160405180910390f35b34156100ac57600080fd5b6100b46101bb565b60405160208082528190810183818151815260200191508051906020019080838360005b838110156100f05780820151838201526020016100d8565b50505050905090810190601f16801561011d5780820380516001836020036101000a031916815260200191505b509250505060405180910390f35b341561013657600080fd5b6100b4610259565b341561014957600080fd5b61015d600160a060020a03600435166102c4565b005b341561016a57600080fd5b6101726103a0565b604051600160a060020a03909116815260200160405180910390f35b341561019957600080fd5b6101a16103af565b604051901515815260200160405180910390f35b60035481565b60028054600181600116156101000203166002900480601f0160208091040260200160405190810160405280929190818152602001828054600181600116156101000203166002900480156102515780601f1061022657610100808354040283529160200191610251565b820191906000526020600020905b81548152906001019060200180831161023457829003601f168201915b505050505081565b60048054600181600116156101000203166002900480601f0160208091040260200160405190810160405280929190818152602001828054600181600116156101000203166002900480156102515780601f1061022657610100808354040283529160200191610251565b60005433600160a060020a039081169116146102df57600080fd5b60005474010000000000000000000000000000000000000000900460ff16151561030857600080fd5b600160a060020a038116151561031d57600080fd5b600054600160a060020a0380831691167f8be0079c531659141344cd1fd0a4f28419497f9722a3daafe3b4186f6b6457e060405160405180910390a36000805473ffffffffffffffffffffffffffffffffffffffff1916600160a060020a03929092169190911774ff000000000000000000000000000000000000000019169055565b600054600160a060020a031681565b60005474010000000000000000000000000000000000000000900460ff16815600a165627a7a723058206d99b62a46fd6c98aa2d6fdc4f0dc4efd9a258d38aa451bf0086c59b301c301c0029a165627a7a72305820b9a0e370247ae1efb1243ba4f2d6e809f8d7bc2d2060445732251051820b3dfa0029",
  "source": "pragma solidity ^0.4.21;\n\nimport './App.sol';\nimport \"./OwnableOZ.sol\";\nimport \"./SafeMathOZ.sol\";\n\ncontract AppHub is OwnableOZ // is Owned by IexecHub\n{\n\n\tusing SafeMathOZ for uint256;\n\n\t/**\n\t * Members\n\t */\n\tmapping(address => uint256)                     m_appCountByOwner;\n\tmapping(address => mapping(uint256 => address)) m_appByOwnerByIndex;\n\tmapping(address => bool)                        m_appRegistered;\n\n\tmapping(uint256 => address)                     m_appByIndex;\n\tuint256 public                                  m_totalAppCount;\n\n\t/**\n\t * Constructor\n\t */\n\tfunction AppHub() public\n\t{\n\t}\n\n\t/**\n\t * Methods\n\t */\n\tfunction isAppRegistered(address _app) public view returns (bool)\n\t{\n\t\treturn m_appRegistered[_app];\n\t}\n\tfunction getAppsCount(address _owner) public view returns (uint256)\n\t{\n\t\treturn m_appCountByOwner[_owner];\n\t}\n\tfunction getApp(address _owner, uint256 _index) public view returns (address)\n\t{\n\t\treturn m_appByOwnerByIndex[_owner][_index];\n\t}\n\tfunction getAppByIndex(uint256 _index) public view returns (address)\n\t{\n\t\treturn m_appByIndex[_index];\n\t}\n\n\tfunction addApp(address _owner, address _app) internal\n\t{\n\t\tuint id = m_appCountByOwner[_owner].add(1);\n\t\tm_totalAppCount=m_totalAppCount.add(1);\n\t\tm_appByIndex       [m_totalAppCount] = _app;\n\t\tm_appCountByOwner  [_owner]          = id;\n\t\tm_appByOwnerByIndex[_owner][id]      = _app;\n\t\tm_appRegistered    [_app]            = true;\n\t}\n\n\tfunction createApp(\n\t\tstring  _appName,\n\t\tuint256 _appPrice,\n\t\tstring  _appParams)\n\tpublic onlyOwner /*owner == IexecHub*/ returns (address createdApp)\n\t{\n\t\t// tx.origin == owner\n\t\t// msg.sender == IexecHub\n\t\taddress newApp = new App(\n\t\t\tmsg.sender,\n\t\t\t_appName,\n\t\t\t_appPrice,\n\t\t\t_appParams\n\t\t);\n\t\taddApp(tx.origin, newApp);\n\t\treturn newApp;\n\t}\n\n}\n",
  "sourcePath": "/Users/fbranci/iexecdev/PoCo/contracts/AppHub.sol",
  "compiler": {
    "name": "solc",
    "version": "0.4.21+commit.dfe3193c.Emscripten.clang"
  },
  "schemaVersion": "2.0.0",
  "updatedAt": "2018-05-21T11:48:56.455Z"
}