{
  "contractName": "AppHub",
  "abi": [
    {
      "constant": true,
      "inputs": [],
      "name": "m_owner",
      "outputs": [
        {
          "name": "",
          "type": "address"
        }
      ],
      "payable": false,
      "stateMutability": "view",
      "type": "function"
    },
    {
      "constant": false,
      "inputs": [
        {
          "name": "_newOwner",
          "type": "address"
        }
      ],
      "name": "transferOwnership",
      "outputs": [],
      "payable": false,
      "stateMutability": "nonpayable",
      "type": "function"
    },
    {
      "inputs": [],
      "payable": false,
      "stateMutability": "nonpayable",
      "type": "constructor"
    },
    {
      "anonymous": false,
      "inputs": [
        {
          "indexed": true,
          "name": "previousOwner",
          "type": "address"
        },
        {
          "indexed": true,
          "name": "newOwner",
          "type": "address"
        }
      ],
      "name": "OwnershipTransferred",
      "type": "event"
    },
    {
      "constant": true,
      "inputs": [
        {
          "name": "_app",
          "type": "address"
        }
      ],
      "name": "isAppRegistered",
      "outputs": [
        {
          "name": "",
          "type": "bool"
        }
      ],
      "payable": false,
      "stateMutability": "view",
      "type": "function"
    },
    {
      "constant": true,
      "inputs": [
        {
          "name": "_owner",
          "type": "address"
        }
      ],
      "name": "getAppsCount",
      "outputs": [
        {
          "name": "",
          "type": "uint256"
        }
      ],
      "payable": false,
      "stateMutability": "view",
      "type": "function"
    },
    {
      "constant": true,
      "inputs": [
        {
          "name": "_owner",
          "type": "address"
        },
        {
          "name": "_index",
          "type": "uint256"
        }
      ],
      "name": "getApp",
      "outputs": [
        {
          "name": "",
          "type": "address"
        }
      ],
      "payable": false,
      "stateMutability": "view",
      "type": "function"
    },
    {
      "constant": false,
      "inputs": [
        {
          "name": "_appName",
          "type": "string"
        },
        {
          "name": "_appPrice",
          "type": "uint256"
        },
        {
          "name": "_appParams",
          "type": "string"
        }
      ],
      "name": "createApp",
      "outputs": [
        {
          "name": "createdApp",
          "type": "address"
        }
      ],
      "payable": false,
      "stateMutability": "nonpayable",
      "type": "function"
    }
  ],
  "bytecode": "0x6060604052341561000f57600080fd5b60008054600160a060020a033316600160a060020a0319909116179055610a7d8061003b6000396000f3006060604052600436106100775763ffffffff7c01000000000000000000000000000000000000000000000000000000006000350416633a911d30811461007c5780638403be91146100ad578063baebcaf0146100e0578063deff41c11461011e578063f2fde38b14610131578063fc06a87714610152575b600080fd5b341561008757600080fd5b61009b600160a060020a03600435166101ee565b60405190815260200160405180910390f35b34156100b857600080fd5b6100cc600160a060020a0360043516610209565b604051901515815260200160405180910390f35b34156100eb57600080fd5b610102600160a060020a0360043516602435610227565b604051600160a060020a03909116815260200160405180910390f35b341561012957600080fd5b61010261024f565b341561013c57600080fd5b610150600160a060020a036004351661025e565b005b341561015d57600080fd5b61010260046024813581810190830135806020601f8201819004810201604051908101604052818152929190602084018383808284378201915050505050509190803590602001909190803590602001908201803590602001908080601f0160208091040260200160405190810160405281815292919060208401838380828437509496506102f995505050505050565b600160a060020a031660009081526001602052604090205490565b600160a060020a031660009081526003602052604090205460ff1690565b600160a060020a03918216600090815260026020908152604080832093835292905220541690565b600054600160a060020a031681565b60005433600160a060020a0390811691161461027957600080fd5b600160a060020a038116151561028e57600080fd5b600054600160a060020a0380831691167f8be0079c531659141344cd1fd0a4f28419497f9722a3daafe3b4186f6b6457e060405160405180910390a36000805473ffffffffffffffffffffffffffffffffffffffff1916600160a060020a0392909216919091179055565b60008054819033600160a060020a0390811691161461031757600080fd5b338585856103236104e5565b600160a060020a038516815260408101839052608060208201818152906060830190830186818151815260200191508051906020019080838360005b8381101561037757808201518382015260200161035f565b50505050905090810190601f1680156103a45780820380516001836020036101000a031916815260200191505b50838103825284818151815260200191508051906020019080838360005b838110156103da5780820151838201526020016103c2565b50505050905090810190601f1680156104075780820380516001836020036101000a031916815260200191505b509650505050505050604051809103906000f080151561042657600080fd5b9050610432328261043a565b949350505050565b600160a060020a03821660009081526001602081905260408220546104649163ffffffff6104cf16565b600160a060020a03938416600090815260016020818152604080842085905560028252808420948452938152838320805473ffffffffffffffffffffffffffffffffffffffff1916969097169586179096559381526003909452909220805460ff1916909117905550565b6000828201838110156104de57fe5b9392505050565b60405161055c806104f68339019056006060604052341561000f57600080fd5b60405161055c38038061055c83398101604052808051919060200180518201919060200180519190602001805160008054600160a060020a03338116600160a060020a03199092168217909255919093019232161415905061007057600080fd5b610086326401000000006102a16100bc82021704565b600183805161009992916020019061014a565b50600282905560038180516100b292916020019061014a565b50505050506101e5565b60005433600160a060020a039081169116146100d757600080fd5b600160a060020a03811615156100ec57600080fd5b600054600160a060020a0380831691167f8be0079c531659141344cd1fd0a4f28419497f9722a3daafe3b4186f6b6457e060405160405180910390a360008054600160a060020a031916600160a060020a0392909216919091179055565b828054600181600116156101000203166002900490600052602060002090601f016020900481019282601f1061018b57805160ff19168380011785556101b8565b828001600101855582156101b8579182015b828111156101b857825182559160200191906001019061019d565b506101c49291506101c8565b5090565b6101e291905b808211156101c457600081556001016101ce565b90565b610368806101f46000396000f30060606040526004361061006c5763ffffffff7c010000000000000000000000000000000000000000000000000000000060003504166326137e6b8114610071578063358982a31461009657806388fc56c014610120578063deff41c114610133578063f2fde38b14610162575b600080fd5b341561007c57600080fd5b610084610183565b60405190815260200160405180910390f35b34156100a157600080fd5b6100a9610189565b60405160208082528190810183818151815260200191508051906020019080838360005b838110156100e55780820151838201526020016100cd565b50505050905090810190601f1680156101125780820380516001836020036101000a031916815260200191505b509250505060405180910390f35b341561012b57600080fd5b6100a9610227565b341561013e57600080fd5b610146610292565b604051600160a060020a03909116815260200160405180910390f35b341561016d57600080fd5b610181600160a060020a03600435166102a1565b005b60025481565b60018054600181600116156101000203166002900480601f01602080910402602001604051908101604052809291908181526020018280546001816001161561010002031660029004801561021f5780601f106101f45761010080835404028352916020019161021f565b820191906000526020600020905b81548152906001019060200180831161020257829003601f168201915b505050505081565b60038054600181600116156101000203166002900480601f01602080910402602001604051908101604052809291908181526020018280546001816001161561010002031660029004801561021f5780601f106101f45761010080835404028352916020019161021f565b600054600160a060020a031681565b60005433600160a060020a039081169116146102bc57600080fd5b600160a060020a03811615156102d157600080fd5b600054600160a060020a0380831691167f8be0079c531659141344cd1fd0a4f28419497f9722a3daafe3b4186f6b6457e060405160405180910390a36000805473ffffffffffffffffffffffffffffffffffffffff1916600160a060020a03929092169190911790555600a165627a7a72305820f6655a9229a5e1e45c3db75b4a66dcad1b846a602652f393192d98c933bcc4ea0029a165627a7a72305820a4c7b1493caa9b101284814b43583a16fae66b9e5db99e6908e5426585b385aa0029",
  "source": "pragma solidity ^0.4.21;\n\nimport './App.sol';\nimport \"./OwnableOZ.sol\";\nimport \"./SafeMathOZ.sol\";\n\ncontract AppHub is OwnableOZ // is Owned by IexecHub\n{\n\n\tusing SafeMathOZ for uint256;\n\n\t/**\n\t * Members\n\t */\n\tmapping(address => uint256)                     m_appCountByOwner;\n\tmapping(address => mapping(uint256 => address)) m_appByOwnerByIndex;\n\tmapping(address => bool)                        m_appRegistered;\n\n\t/**\n\t * Constructor\n\t */\n\tfunction AppHub() public\n\t{\n\t}\n\n\t/**\n\t * Methods\n\t */\n\tfunction isAppRegistered(address _app) public view returns (bool)\n\t{\n\t\treturn m_appRegistered[_app];\n\t}\n\tfunction getAppsCount(address _owner) public view returns (uint256)\n\t{\n\t\treturn m_appCountByOwner[_owner];\n\t}\n\tfunction getApp(address _owner, uint256 _index) public view returns (address)\n\t{\n\t\treturn m_appByOwnerByIndex[_owner][_index];\n\t}\n\n\tfunction addApp(address _owner, address _app) internal\n\t{\n\t\tuint id = m_appCountByOwner[_owner].add(1);\n\t\tm_appCountByOwner  [_owner]      = id;\n\t\tm_appByOwnerByIndex[_owner][id]  = _app;\n\t\tm_appRegistered    [_app]        = true;\n\t}\n\n\tfunction createApp(\n\t\tstring  _appName,\n\t\tuint256 _appPrice,\n\t\tstring  _appParams)\n\tpublic onlyOwner /*owner == IexecHub*/ returns (address createdApp)\n\t{\n\t\t// tx.origin == owner\n\t\t// msg.sender == IexecHub\n\t\taddress newApp = new App(\n\t\t\tmsg.sender,\n\t\t\t_appName,\n\t\t\t_appPrice,\n\t\t\t_appParams\n\t\t);\n\t\taddApp(tx.origin, newApp);\n\t\treturn newApp;\n\t}\n\n}\n",
  "sourcePath": "/home/amxx/Work/iExec/PoCo-dev/contracts/AppHub.sol",
  "compiler": {
    "name": "solc",
    "version": "0.4.21+commit.dfe3193c.Emscripten.clang"
  },
  "schemaVersion": "2.0.0",
  "updatedAt": "2018-05-19T17:46:30.150Z"
}