{
  "contractName": "AppRegistry",
  "abi": [
    {
      "constant": true,
      "inputs": [
        {
          "name": "_owner",
          "type": "address"
        },
        {
          "name": "_index",
          "type": "uint256"
        }
      ],
      "name": "viewEntry",
      "outputs": [
        {
          "name": "",
          "type": "address"
        }
      ],
      "payable": false,
      "stateMutability": "view",
      "type": "function"
    },
    {
      "constant": true,
      "inputs": [
        {
          "name": "_owner",
          "type": "address"
        }
      ],
      "name": "viewCount",
      "outputs": [
        {
          "name": "",
          "type": "uint256"
        }
      ],
      "payable": false,
      "stateMutability": "view",
      "type": "function"
    },
    {
      "constant": true,
      "inputs": [
        {
          "name": "_entry",
          "type": "address"
        }
      ],
      "name": "isRegistered",
      "outputs": [
        {
          "name": "",
          "type": "bool"
        }
      ],
      "payable": false,
      "stateMutability": "view",
      "type": "function"
    },
    {
      "inputs": [],
      "payable": false,
      "stateMutability": "nonpayable",
      "type": "constructor"
    },
    {
      "anonymous": false,
      "inputs": [
        {
          "indexed": true,
          "name": "appOwner",
          "type": "address"
        },
        {
          "indexed": false,
          "name": "app",
          "type": "address"
        }
      ],
      "name": "CreateApp",
      "type": "event"
    },
    {
      "constant": false,
      "inputs": [
        {
          "name": "_appOwner",
          "type": "address"
        },
        {
          "name": "_appName",
          "type": "string"
        },
        {
          "name": "_appType",
          "type": "string"
        },
        {
          "name": "_appMultiaddr",
          "type": "bytes"
        },
        {
          "name": "_appChecksum",
          "type": "bytes32"
        },
        {
          "name": "_appMREnclave",
          "type": "bytes"
        }
      ],
      "name": "createApp",
      "outputs": [
        {
          "name": "",
          "type": "address"
        }
      ],
      "payable": false,
      "stateMutability": "nonpayable",
      "type": "function"
    }
  ],
  "bytecode": "0x608060405234801561001057600080fd5b50610d59806100206000396000f3fe608060405234801561001057600080fd5b506004361061004c5760003560e01c80633f7868ff1461005157806365a2c104146101df578063c0a8cae21461020b578063c3c5a54714610243575b600080fd5b6101c3600480360360c081101561006757600080fd5b6001600160a01b038235169190810190604081016020820135600160201b81111561009157600080fd5b8201836020820111156100a357600080fd5b803590602001918460018302840111600160201b831117156100c457600080fd5b919390929091602081019035600160201b8111156100e157600080fd5b8201836020820111156100f357600080fd5b803590602001918460018302840111600160201b8311171561011457600080fd5b919390929091602081019035600160201b81111561013157600080fd5b82018360208201111561014357600080fd5b803590602001918460018302840111600160201b8311171561016457600080fd5b91939092823592604081019060200135600160201b81111561018557600080fd5b82018360208201111561019757600080fd5b803590602001918460018302840111600160201b831117156101b857600080fd5b50909250905061027d565b604080516001600160a01b039092168252519081900360200190f35b6101c3600480360360408110156101f557600080fd5b506001600160a01b0381351690602001356103e0565b6102316004803603602081101561022157600080fd5b50356001600160a01b0316610408565b60408051918252519081900360200190f35b6102696004803603602081101561025957600080fd5b50356001600160a01b0316610423565b604080519115158252519081900360200190f35b6000808b8b8b8b8b8b8b8b8b8b604051610296906104e5565b6001600160a01b038b1681526080810184905260c0602082018181529082018a9052604082016060830160a0840160e085018e8e80828437600083820152601f01601f191690910186810385528c815260200190508c8c80828437600083820152601f01601f191690910186810384528a815260200190508a8a80828437600083820152601f01601f191690910186810383528781526020019050878780828437600081840152601f19601f8201169050808301925050509e505050505050505050505050505050604051809103906000f08015801561037a573d6000803e3d6000fd5b509050610387818d610441565b61039057600080fd5b604080516001600160a01b0383811682529151918e16917f5ba7d57c324ec2334af956c7950558163a5c6871ef98815cd971f14607e97d509181900360200190a29b9a5050505050505050505050565b6001600160a01b03918216600090815260016020908152604080832093835292905220541690565b6001600160a01b031660009081526002602052604090205490565b6001600160a01b031660009081526020819052604090205460ff1690565b6001600160a01b038116600090815260026020526040812054819061046d90600163ffffffff6104cc16565b6001600160a01b03808516600090815260026020908152604080832085905560018083528184209584529482528083208054948a166001600160a01b03199095168517905592825281905220805460ff19168217905591505092915050565b6000828201838110156104de57600080fd5b9392505050565b610832806104f38339019056fe608060405234801561001057600080fd5b50604051610832380380610832833981810160405260c081101561003357600080fd5b81516020830180519193928301929164010000000081111561005457600080fd5b8201602081018481111561006757600080fd5b815164010000000081118282018710171561008157600080fd5b5050929190602001805164010000000081111561009d57600080fd5b820160208101848111156100b057600080fd5b81516401000000008111828201871017156100ca57600080fd5b505092919060200180516401000000008111156100e657600080fd5b820160208101848111156100f957600080fd5b815164010000000081118282018710171561011357600080fd5b5050602082015160409092018051919492939164010000000081111561013857600080fd5b8201602081018481111561014b57600080fd5b815164010000000081118282018710171561016557600080fd5b5050600080546001600160a01b03191633178082556040519295506001600160a01b031693509150600080516020610812833981519152908290a36101b2866001600160e01b0361021216565b84516101c59060019060208801906102ba565b5083516101d99060029060208701906102ba565b5082516101ed9060039060208601906102ba565b50600482905580516102069060059060208401906102ba565b50505050505050610355565b6001600160a01b038116610271576040517f08c379a00000000000000000000000000000000000000000000000000000000081526004018080602001828103825260268152602001806107ec6026913960400191505060405180910390fd5b600080546040516001600160a01b038085169392169160008051602061081283398151915291a3600080546001600160a01b0319166001600160a01b0392909216919091179055565b828054600181600116156101000203166002900490600052602060002090601f016020900481019282601f106102fb57805160ff1916838001178555610328565b82800160010185558215610328579182015b8281111561032857825182559160200191906001019061030d565b50610334929150610338565b5090565b61035291905b80821115610334576000815560010161033e565b90565b610488806103646000396000f3fe608060405234801561001057600080fd5b50600436106100935760003560e01c80638da5cb5b116100665780638da5cb5b146101415780638f32d59b14610165578063e30d26a814610181578063f2fde38b14610189578063f8c2ceb3146101af57610093565b8063358982a31461009857806339e75d4514610115578063715018a61461011d57806384aaf12e14610127575b600080fd5b6100a06101b7565b6040805160208082528351818301528351919283929083019185019080838360005b838110156100da5781810151838201526020016100c2565b50505050905090810190601f1680156101075780820380516001836020036101000a031916815260200191505b509250505060405180910390f35b6100a0610244565b61012561029f565b005b61012f610342565b60408051918252519081900360200190f35b610149610348565b604080516001600160a01b039092168252519081900360200190f35b61016d610357565b604080519115158252519081900360200190f35b6100a0610368565b6101256004803603602081101561019f57600080fd5b50356001600160a01b03166103c3565b6100a06103fb565b60018054604080516020600284861615610100026000190190941693909304601f8101849004840282018401909252818152929183018282801561023c5780601f106102115761010080835404028352916020019161023c565b820191906000526020600020905b81548152906001019060200180831161021f57829003601f168201915b505050505081565b6003805460408051602060026001851615610100026000190190941693909304601f8101849004840282018401909252818152929183018282801561023c5780601f106102115761010080835404028352916020019161023c565b6102a7610357565b6102f8576040805162461bcd60e51b815260206004820181905260248201527f4f776e61626c653a2063616c6c6572206973206e6f7420746865206f776e6572604482015290519081900360640190fd5b600080546040516001600160a01b03909116907f8be0079c531659141344cd1fd0a4f28419497f9722a3daafe3b4186f6b6457e0908390a3600080546001600160a01b0319169055565b60045481565b6000546001600160a01b031690565b6000546001600160a01b0316331490565b6005805460408051602060026001851615610100026000190190941693909304601f8101849004840282018401909252818152929183018282801561023c5780601f106102115761010080835404028352916020019161023c565b6040805162461bcd60e51b8152602060048201526008602482015267191a5cd8589b195960c21b604482015290519081900360640190fd5b6002805460408051602060018416156101000260001901909316849004601f8101849004840282018401909252818152929183018282801561023c5780601f106102115761010080835404028352916020019161023c56fea265627a7a72305820fdaec4279c44e0a36c76a84a8a060553d17d4fadb595932facbcde60d248d37764736f6c634300050900324f776e61626c653a206e6577206f776e657220697320746865207a65726f20616464726573738be0079c531659141344cd1fd0a4f28419497f9722a3daafe3b4186f6b6457e0a265627a7a7230582057a74c89e38ff3119ef329ddc243767ff89de4a3df9f8a1a6bf087263321fb4164736f6c63430005090032",
  "source": "pragma solidity ^0.5.9;\n\nimport './App.sol';\nimport './RegistryBase.sol';\n\ncontract AppRegistry is RegistryBase //, OwnableMutable // is Owned by IexecHub\n{\n\tevent CreateApp(address indexed appOwner, address app);\n\n\t/**\n\t * Constructor\n\t */\n\tconstructor()\n\tpublic\n\t{\n\t}\n\n\t/**\n\t * App creation\n\t */\n\tfunction createApp(\n\t\taddress          _appOwner,\n\t\tstring  calldata _appName,\n\t\tstring  calldata _appType,\n\t\tbytes   calldata _appMultiaddr,\n\t\tbytes32          _appChecksum,\n\t\tbytes   calldata _appMREnclave)\n\texternal /* onlyOwner /*owner == IexecHub*/ returns (App)\n\t{\n\t\tApp newApp = new App(\n\t\t\t_appOwner,\n\t\t\t_appName,\n\t\t\t_appType,\n\t\t\t_appMultiaddr,\n\t\t\t_appChecksum,\n\t\t\t_appMREnclave\n\t\t);\n\t\trequire(insert(address(newApp), _appOwner));\n\t\temit CreateApp(_appOwner, address(newApp));\n\t\treturn newApp;\n\t}\n\n}\n",
  "sourcePath": "/home/amxx/Work/iExec/code/PoCo-dev/contracts/registries/AppRegistry.sol",
  "compiler": {
    "name": "solc",
    "version": "0.5.9+commit.e560f70d.Emscripten.clang"
  },
  "schemaVersion": "3.0.11",
  "updatedAt": "2019-06-26T13:43:41.417Z",
  "devdoc": {
    "methods": {}
  },
  "userdoc": {
    "methods": {
      "constructor": "Constructor",
      "createApp(address,string,string,bytes,bytes32,bytes)": {
        "notice": "App creation"
      },
      "isRegistered(address)": {
        "notice": "Accessors"
      }
    }
  }
}