{
  "contractName": "AppRegistry",
  "abi": [
    {
      "inputs": [],
      "stateMutability": "nonpayable",
      "type": "constructor"
    },
    {
      "anonymous": false,
      "inputs": [
        {
          "indexed": true,
          "internalType": "address",
          "name": "owner",
          "type": "address"
        },
        {
          "indexed": true,
          "internalType": "address",
          "name": "approved",
          "type": "address"
        },
        {
          "indexed": true,
          "internalType": "uint256",
          "name": "tokenId",
          "type": "uint256"
        }
      ],
      "name": "Approval",
      "type": "event"
    },
    {
      "anonymous": false,
      "inputs": [
        {
          "indexed": true,
          "internalType": "address",
          "name": "owner",
          "type": "address"
        },
        {
          "indexed": true,
          "internalType": "address",
          "name": "operator",
          "type": "address"
        },
        {
          "indexed": false,
          "internalType": "bool",
          "name": "approved",
          "type": "bool"
        }
      ],
      "name": "ApprovalForAll",
      "type": "event"
    },
    {
      "anonymous": false,
      "inputs": [
        {
          "indexed": true,
          "internalType": "address",
          "name": "previousOwner",
          "type": "address"
        },
        {
          "indexed": true,
          "internalType": "address",
          "name": "newOwner",
          "type": "address"
        }
      ],
      "name": "OwnershipTransferred",
      "type": "event"
    },
    {
      "anonymous": false,
      "inputs": [
        {
          "indexed": true,
          "internalType": "address",
          "name": "from",
          "type": "address"
        },
        {
          "indexed": true,
          "internalType": "address",
          "name": "to",
          "type": "address"
        },
        {
          "indexed": true,
          "internalType": "uint256",
          "name": "tokenId",
          "type": "uint256"
        }
      ],
      "name": "Transfer",
      "type": "event"
    },
    {
      "inputs": [
        {
          "internalType": "address",
          "name": "to",
          "type": "address"
        },
        {
          "internalType": "uint256",
          "name": "tokenId",
          "type": "uint256"
        }
      ],
      "name": "approve",
      "outputs": [],
      "stateMutability": "nonpayable",
      "type": "function"
    },
    {
      "inputs": [
        {
          "internalType": "address",
          "name": "owner",
          "type": "address"
        }
      ],
      "name": "balanceOf",
      "outputs": [
        {
          "internalType": "uint256",
          "name": "",
          "type": "uint256"
        }
      ],
      "stateMutability": "view",
      "type": "function"
    },
    {
      "inputs": [],
      "name": "baseURI",
      "outputs": [
        {
          "internalType": "string",
          "name": "",
          "type": "string"
        }
      ],
      "stateMutability": "view",
      "type": "function"
    },
    {
      "inputs": [
        {
          "internalType": "uint256",
          "name": "tokenId",
          "type": "uint256"
        }
      ],
      "name": "getApproved",
      "outputs": [
        {
          "internalType": "address",
          "name": "",
          "type": "address"
        }
      ],
      "stateMutability": "view",
      "type": "function"
    },
    {
      "inputs": [
        {
          "internalType": "address",
          "name": "_previous",
          "type": "address"
        }
      ],
      "name": "initialize",
      "outputs": [],
      "stateMutability": "nonpayable",
      "type": "function"
    },
    {
      "inputs": [],
      "name": "initialized",
      "outputs": [
        {
          "internalType": "bool",
          "name": "",
          "type": "bool"
        }
      ],
      "stateMutability": "view",
      "type": "function"
    },
    {
      "inputs": [
        {
          "internalType": "address",
          "name": "owner",
          "type": "address"
        },
        {
          "internalType": "address",
          "name": "operator",
          "type": "address"
        }
      ],
      "name": "isApprovedForAll",
      "outputs": [
        {
          "internalType": "bool",
          "name": "",
          "type": "bool"
        }
      ],
      "stateMutability": "view",
      "type": "function"
    },
    {
      "inputs": [
        {
          "internalType": "address",
          "name": "_entry",
          "type": "address"
        }
      ],
      "name": "isRegistered",
      "outputs": [
        {
          "internalType": "bool",
          "name": "",
          "type": "bool"
        }
      ],
      "stateMutability": "view",
      "type": "function"
    },
    {
      "inputs": [],
      "name": "master",
      "outputs": [
        {
          "internalType": "address",
          "name": "",
          "type": "address"
        }
      ],
      "stateMutability": "view",
      "type": "function"
    },
    {
      "inputs": [],
      "name": "name",
      "outputs": [
        {
          "internalType": "string",
          "name": "",
          "type": "string"
        }
      ],
      "stateMutability": "view",
      "type": "function"
    },
    {
      "inputs": [],
      "name": "owner",
      "outputs": [
        {
          "internalType": "address",
          "name": "",
          "type": "address"
        }
      ],
      "stateMutability": "view",
      "type": "function"
    },
    {
      "inputs": [
        {
          "internalType": "uint256",
          "name": "tokenId",
          "type": "uint256"
        }
      ],
      "name": "ownerOf",
      "outputs": [
        {
          "internalType": "address",
          "name": "",
          "type": "address"
        }
      ],
      "stateMutability": "view",
      "type": "function"
    },
    {
      "inputs": [],
      "name": "previous",
      "outputs": [
        {
          "internalType": "contract IRegistry",
          "name": "",
          "type": "address"
        }
      ],
      "stateMutability": "view",
      "type": "function"
    },
    {
      "inputs": [],
      "name": "proxyCode",
      "outputs": [
        {
          "internalType": "bytes",
          "name": "",
          "type": "bytes"
        }
      ],
      "stateMutability": "view",
      "type": "function"
    },
    {
      "inputs": [],
      "name": "proxyCodeHash",
      "outputs": [
        {
          "internalType": "bytes32",
          "name": "",
          "type": "bytes32"
        }
      ],
      "stateMutability": "view",
      "type": "function"
    },
    {
      "inputs": [],
      "name": "renounceOwnership",
      "outputs": [],
      "stateMutability": "nonpayable",
      "type": "function"
    },
    {
      "inputs": [
        {
          "internalType": "address",
          "name": "from",
          "type": "address"
        },
        {
          "internalType": "address",
          "name": "to",
          "type": "address"
        },
        {
          "internalType": "uint256",
          "name": "tokenId",
          "type": "uint256"
        }
      ],
      "name": "safeTransferFrom",
      "outputs": [],
      "stateMutability": "nonpayable",
      "type": "function"
    },
    {
      "inputs": [
        {
          "internalType": "address",
          "name": "from",
          "type": "address"
        },
        {
          "internalType": "address",
          "name": "to",
          "type": "address"
        },
        {
          "internalType": "uint256",
          "name": "tokenId",
          "type": "uint256"
        },
        {
          "internalType": "bytes",
          "name": "_data",
          "type": "bytes"
        }
      ],
      "name": "safeTransferFrom",
      "outputs": [],
      "stateMutability": "nonpayable",
      "type": "function"
    },
    {
      "inputs": [
        {
          "internalType": "address",
          "name": "operator",
          "type": "address"
        },
        {
          "internalType": "bool",
          "name": "approved",
          "type": "bool"
        }
      ],
      "name": "setApprovalForAll",
      "outputs": [],
      "stateMutability": "nonpayable",
      "type": "function"
    },
    {
      "inputs": [
        {
          "internalType": "string",
          "name": "_baseURI",
          "type": "string"
        }
      ],
      "name": "setBaseURI",
      "outputs": [],
      "stateMutability": "nonpayable",
      "type": "function"
    },
    {
      "inputs": [
        {
          "internalType": "address",
          "name": "_ens",
          "type": "address"
        },
        {
          "internalType": "string",
          "name": "_name",
          "type": "string"
        }
      ],
      "name": "setName",
      "outputs": [],
      "stateMutability": "nonpayable",
      "type": "function"
    },
    {
      "inputs": [
        {
          "internalType": "bytes4",
          "name": "interfaceId",
          "type": "bytes4"
        }
      ],
      "name": "supportsInterface",
      "outputs": [
        {
          "internalType": "bool",
          "name": "",
          "type": "bool"
        }
      ],
      "stateMutability": "view",
      "type": "function"
    },
    {
      "inputs": [],
      "name": "symbol",
      "outputs": [
        {
          "internalType": "string",
          "name": "",
          "type": "string"
        }
      ],
      "stateMutability": "view",
      "type": "function"
    },
    {
      "inputs": [
        {
          "internalType": "uint256",
          "name": "index",
          "type": "uint256"
        }
      ],
      "name": "tokenByIndex",
      "outputs": [
        {
          "internalType": "uint256",
          "name": "",
          "type": "uint256"
        }
      ],
      "stateMutability": "view",
      "type": "function"
    },
    {
      "inputs": [
        {
          "internalType": "address",
          "name": "owner",
          "type": "address"
        },
        {
          "internalType": "uint256",
          "name": "index",
          "type": "uint256"
        }
      ],
      "name": "tokenOfOwnerByIndex",
      "outputs": [
        {
          "internalType": "uint256",
          "name": "",
          "type": "uint256"
        }
      ],
      "stateMutability": "view",
      "type": "function"
    },
    {
      "inputs": [
        {
          "internalType": "uint256",
          "name": "tokenId",
          "type": "uint256"
        }
      ],
      "name": "tokenURI",
      "outputs": [
        {
          "internalType": "string",
          "name": "",
          "type": "string"
        }
      ],
      "stateMutability": "view",
      "type": "function"
    },
    {
      "inputs": [],
      "name": "totalSupply",
      "outputs": [
        {
          "internalType": "uint256",
          "name": "",
          "type": "uint256"
        }
      ],
      "stateMutability": "view",
      "type": "function"
    },
    {
      "inputs": [
        {
          "internalType": "address",
          "name": "from",
          "type": "address"
        },
        {
          "internalType": "address",
          "name": "to",
          "type": "address"
        },
        {
          "internalType": "uint256",
          "name": "tokenId",
          "type": "uint256"
        }
      ],
      "name": "transferFrom",
      "outputs": [],
      "stateMutability": "nonpayable",
      "type": "function"
    },
    {
      "inputs": [
        {
          "internalType": "address",
          "name": "newOwner",
          "type": "address"
        }
      ],
      "name": "transferOwnership",
      "outputs": [],
      "stateMutability": "nonpayable",
      "type": "function"
    },
    {
      "inputs": [
        {
          "internalType": "address",
          "name": "_appOwner",
          "type": "address"
        },
        {
          "internalType": "string",
          "name": "_appName",
          "type": "string"
        },
        {
          "internalType": "string",
          "name": "_appType",
          "type": "string"
        },
        {
          "internalType": "bytes",
          "name": "_appMultiaddr",
          "type": "bytes"
        },
        {
          "internalType": "bytes32",
          "name": "_appChecksum",
          "type": "bytes32"
        },
        {
          "internalType": "bytes",
          "name": "_appMREnclave",
          "type": "bytes"
        }
      ],
      "name": "createApp",
      "outputs": [
        {
          "internalType": "contract App",
          "name": "",
          "type": "address"
        }
      ],
      "stateMutability": "nonpayable",
      "type": "function"
    },
    {
      "inputs": [
        {
          "internalType": "address",
          "name": "_appOwner",
          "type": "address"
        },
        {
          "internalType": "string",
          "name": "_appName",
          "type": "string"
        },
        {
          "internalType": "string",
          "name": "_appType",
          "type": "string"
        },
        {
          "internalType": "bytes",
          "name": "_appMultiaddr",
          "type": "bytes"
        },
        {
          "internalType": "bytes32",
          "name": "_appChecksum",
          "type": "bytes32"
        },
        {
          "internalType": "bytes",
          "name": "_appMREnclave",
          "type": "bytes"
        }
      ],
      "name": "predictApp",
      "outputs": [
        {
          "internalType": "contract App",
          "name": "",
          "type": "address"
        }
      ],
      "stateMutability": "view",
      "type": "function"
    }
  ],
  "bytecode": "0x60806040523480156200001157600080fd5b506040516200002090620002f1565b604051809103906000f0801580156200003d573d6000803e3d6000fd5b50604080518082018252601f81527f6945786563204170706c69636174696f6e2052656769737472792028563529006020808301919091528251808401909352600b83526a694578656341707073563560a81b90830152908181620000b26301ffc9a760e01b6001600160e01b036200026716565b8151620000c7906006906020850190620002ff565b508051620000dd906007906020840190620002ff565b50620000f96380ac58cd60e01b6001600160e01b036200026716565b62000114635b5e139f60e01b6001600160e01b036200026716565b6200012f63780e9d6360e01b6001600160e01b036200026716565b5060009050620001476001600160e01b03620002ec16565b600a80546001600160a01b0319166001600160a01b038316908117909155604051919250906000907f8be0079c531659141344cd1fd0a4f28419497f9722a3daafe3b4186f6b6457e0908290a350600b80546001600160a01b0319166001600160a01b038516179055604051620001c16020820162000384565b601f1982820381018352601f909101166040528051620001eb91600c9160209190910190620002ff565b50600c60405180828054600181600116156101000203166002900480156200024d5780601f106200022a5761010080835404028352918201916200024d565b820191906000526020600020905b81548152906001019060200180831162000238575b5050604051908190039020600d5550620003af9350505050565b6001600160e01b03198082161415620002c7576040805162461bcd60e51b815260206004820152601c60248201527f4552433136353a20696e76616c696420696e7465726661636520696400000000604482015290519081900360640190fd5b6001600160e01b0319166000908152602081905260409020805460ff19166001179055565b335b90565b610a39806200332783390190565b828054600181600116156101000203166002900490600052602060002090601f016020900481019282601f106200034257805160ff191683800117855562000372565b8280016001018555821562000372579182015b828111156200037257825182559160200191906001019062000355565b506200038092915062000392565b5090565b6103cd8062003d6083390190565b620002ee91905b8082111562000380576000815560010162000399565b612f6880620003bf6000396000f3fe608060405234801561001057600080fd5b50600436106101e55760003560e01c80636fa59bbc1161010f578063c3c5a547116100a2578063e985e9c511610071578063e985e9c51461097e578063ee97f7f3146109ac578063eee39111146109b4578063f2fde38b146109bc576101e5565b8063c3c5a547146107a3578063c4d66de8146107c9578063c87b56dd146107ef578063e92118ed1461080c576101e5565b80638da5cb5b116100de5780638da5cb5b146106a157806395d89b41146106a9578063a22cb465146106b1578063b88d4fde146106df576101e5565b80636fa59bbc1461066357806370a082311461066b578063715018a6146106915780637c2b2e7114610699576101e5565b80632f745c59116101875780634f6ccce7116101565780634f6ccce7146105b357806355f804b3146105d05780636352211e1461063e5780636c0360eb1461065b576101e5565b80632f745c59146103615780633121db1c1461038d5780633f7868ff1461040b57806342842e0e1461057d576101e5565b8063095ea7b3116101c3578063095ea7b3146102db578063158ef93e1461030957806318160ddd1461031157806323b872dd1461032b576101e5565b806301ffc9a7146101ea57806306fdde0314610225578063081812fc146102a2575b600080fd5b6102116004803603602081101561020057600080fd5b50356001600160e01b0319166109e2565b604080519115158252519081900360200190f35b61022d610a05565b6040805160208082528351818301528351919283929083019185019080838360005b8381101561026757818101518382015260200161024f565b50505050905090810190601f1680156102945780820380516001836020036101000a031916815260200191505b509250505060405180910390f35b6102bf600480360360208110156102b857600080fd5b5035610a9c565b604080516001600160a01b039092168252519081900360200190f35b610307600480360360408110156102f157600080fd5b506001600160a01b038135169060200135610afe565b005b610211610bd9565b610319610be9565b60408051918252519081900360200190f35b6103076004803603606081101561034157600080fd5b506001600160a01b03813581169160208101359091169060400135610bfa565b6103196004803603604081101561037757600080fd5b506001600160a01b038135169060200135610c51565b610307600480360360408110156103a357600080fd5b6001600160a01b038235169190810190604081016020820135600160201b8111156103cd57600080fd5b8201836020820111156103df57600080fd5b803590602001918460018302840111600160201b8311171561040057600080fd5b509092509050610c82565b6102bf600480360360c081101561042157600080fd5b6001600160a01b038235169190810190604081016020820135600160201b81111561044b57600080fd5b82018360208201111561045d57600080fd5b803590602001918460018302840111600160201b8311171561047e57600080fd5b919390929091602081019035600160201b81111561049b57600080fd5b8201836020820111156104ad57600080fd5b803590602001918460018302840111600160201b831117156104ce57600080fd5b919390929091602081019035600160201b8111156104eb57600080fd5b8201836020820111156104fd57600080fd5b803590602001918460018302840111600160201b8311171561051e57600080fd5b91939092823592604081019060200135600160201b81111561053f57600080fd5b82018360208201111561055157600080fd5b803590602001918460018302840111600160201b8311171561057257600080fd5b509092509050610d1a565b6103076004803603606081101561059357600080fd5b506001600160a01b03813581169160208101359091169060400135610e22565b610319600480360360208110156105c957600080fd5b5035610e3d565b610307600480360360208110156105e657600080fd5b810190602081018135600160201b81111561060057600080fd5b82018360208201111561061257600080fd5b803590602001918460018302840111600160201b8311171561063357600080fd5b509092509050610e59565b6102bf6004803603602081101561065457600080fd5b5035610ef4565b61022d610f22565b61022d610f83565b6103196004803603602081101561068157600080fd5b50356001600160a01b0316611011565b610307611079565b6102bf61111b565b6102bf61112a565b61022d611139565b610307600480360360408110156106c757600080fd5b506001600160a01b038135169060200135151561119a565b610307600480360360808110156106f557600080fd5b6001600160a01b03823581169260208101359091169160408201359190810190608081016060820135600160201b81111561072f57600080fd5b82018360208201111561074157600080fd5b803590602001918460018302840111600160201b8311171561076257600080fd5b91908080601f01602080910402602001604051908101604052809392919081815260200183838082843760009201919091525092955061129f945050505050565b610211600480360360208110156107b957600080fd5b50356001600160a01b03166112fd565b610307600480360360208110156107df57600080fd5b50356001600160a01b03166113ab565b61022d6004803603602081101561080557600080fd5b503561144b565b6102bf600480360360c081101561082257600080fd5b6001600160a01b038235169190810190604081016020820135600160201b81111561084c57600080fd5b82018360208201111561085e57600080fd5b803590602001918460018302840111600160201b8311171561087f57600080fd5b919390929091602081019035600160201b81111561089c57600080fd5b8201836020820111156108ae57600080fd5b803590602001918460018302840111600160201b831117156108cf57600080fd5b919390929091602081019035600160201b8111156108ec57600080fd5b8201836020820111156108fe57600080fd5b803590602001918460018302840111600160201b8311171561091f57600080fd5b91939092823592604081019060200135600160201b81111561094057600080fd5b82018360208201111561095257600080fd5b803590602001918460018302840111600160201b8311171561097357600080fd5b5090925090506116f2565b6102116004803603604081101561099457600080fd5b506001600160a01b03813581169160200135166117eb565b6102bf611819565b610319611828565b610307600480360360208110156109d257600080fd5b50356001600160a01b031661182e565b6001600160e01b0319811660009081526020819052604090205460ff165b919050565b60068054604080516020601f6002600019610100600188161502019095169490940493840181900481028201810190925282815260609390929091830182828015610a915780601f10610a6657610100808354040283529160200191610a91565b820191906000526020600020905b815481529060010190602001808311610a7457829003601f168201915b505050505090505b90565b6000610aa782611927565b610ae25760405162461bcd60e51b815260040180806020018281038252602c815260200180612e3d602c913960400191505060405180910390fd5b506000908152600460205260409020546001600160a01b031690565b6000610b0982610ef4565b9050806001600160a01b0316836001600160a01b03161415610b5c5760405162461bcd60e51b8152600401808060200182810382526021815260200180612ee16021913960400191505060405180910390fd5b806001600160a01b0316610b6e61193a565b6001600160a01b03161480610b8f5750610b8f81610b8a61193a565b6117eb565b610bca5760405162461bcd60e51b8152600401808060200182810382526038815260200180612d906038913960400191505060405180910390fd5b610bd4838361193e565b505050565b600e54600160a01b900460ff1681565b6000610bf560026119ac565b905090565b610c0b610c0561193a565b826119b7565b610c465760405162461bcd60e51b8152600401808060200182810382526031815260200180612f026031913960400191505060405180910390fd5b610bd4838383611a5b565b6001600160a01b0382166000908152600160205260408120610c79908363ffffffff611bb916565b90505b92915050565b610c8a61193a565b600a546001600160a01b03908116911614610cda576040805162461bcd60e51b81526020600482018190526024820152600080516020612e69833981519152604482015290519081900360640190fd5b610bd48383838080601f016020809104026020016040519081016040528093929190818152602001838380828437600092019190915250611bc592505050565b6000610e138b610e0e8c8c8080601f016020809104026020016040519081016040528093929190818152602001838380828437600081840152601f19601f820116905080830192505050505050508b8b8080601f01602080910402602001604051908101604052809392919081815260200183838082843760009201919091525050604080516020601f8f018190048102820181019092528d815292508d91508c908190840183828082843760009201919091525050604080516020601f8d018190048102820181019092528b81528d935091508b908b9081908401838280828437600092019190915250611d2a92505050565b611f10565b9b9a5050505050505050505050565b610bd48383836040518060200160405280600081525061129f565b600080610e5160028463ffffffff61213a16565b509392505050565b610e6161193a565b600a546001600160a01b03908116911614610eb1576040805162461bcd60e51b81526020600482018190526024820152600080516020612e69833981519152604482015290519081900360640190fd5b610ef082828080601f01602080910402602001604051908101604052809392919081815260200183838082843760009201919091525061215692505050565b5050565b6000610c7c82604051806060016040528060298152602001612df2602991396002919063ffffffff61216916565b60098054604080516020601f6002600019610100600188161502019095169490940493840181900481028201810190925282815260609390929091830182828015610a915780601f10610a6657610100808354040283529160200191610a91565b600c805460408051602060026001851615610100026000190190941693909304601f810184900484028201840190925281815292918301828280156110095780601f10610fde57610100808354040283529160200191611009565b820191906000526020600020905b815481529060010190602001808311610fec57829003601f168201915b505050505081565b60006001600160a01b0382166110585760405162461bcd60e51b815260040180806020018281038252602a815260200180612dc8602a913960400191505060405180910390fd5b6001600160a01b0382166000908152600160205260409020610c7c906119ac565b61108161193a565b600a546001600160a01b039081169116146110d1576040805162461bcd60e51b81526020600482018190526024820152600080516020612e69833981519152604482015290519081900360640190fd5b600a546040516000916001600160a01b0316907f8be0079c531659141344cd1fd0a4f28419497f9722a3daafe3b4186f6b6457e0908390a3600a80546001600160a01b0319169055565b600e546001600160a01b031681565b600a546001600160a01b031690565b60078054604080516020601f6002600019610100600188161502019095169490940493840181900481028201810190925282815260609390929091830182828015610a915780601f10610a6657610100808354040283529160200191610a91565b6111a261193a565b6001600160a01b0316826001600160a01b03161415611208576040805162461bcd60e51b815260206004820152601960248201527f4552433732313a20617070726f766520746f2063616c6c657200000000000000604482015290519081900360640190fd5b806005600061121561193a565b6001600160a01b03908116825260208083019390935260409182016000908120918716808252919093529120805460ff19169215159290921790915561125961193a565b60408051841515815290516001600160a01b0392909216917f17307eab39ab6107e8899845ad3d59bd9653f200f220920489ca2b5937696c319181900360200190a35050565b6112b06112aa61193a565b836119b7565b6112eb5760405162461bcd60e51b8152600401808060200182810382526031815260200180612f026031913960400191505060405180910390fd5b6112f784848484612180565b50505050565b6000611311826001600160a01b0316611927565b80610c7c5750600e546001600160a01b031615801590610c7c5750600e546040805163c3c5a54760e01b81526001600160a01b0385811660048301529151919092169163c3c5a547916024808301926020929190829003018186803b15801561137957600080fd5b505afa15801561138d573d6000803e3d6000fd5b505050506040513d60208110156113a357600080fd5b505192915050565b6113b361193a565b600a546001600160a01b03908116911614611403576040805162461bcd60e51b81526020600482018190526024820152600080516020612e69833981519152604482015290519081900360640190fd5b600e54600160a01b900460ff161561141a57600080fd5b600e8054600160a01b60ff60a01b19909116176001600160a01b0319166001600160a01b0392909216919091179055565b606061145682611927565b6114915760405162461bcd60e51b815260040180806020018281038252602f815260200180612eb2602f913960400191505060405180910390fd5b60008281526008602090815260409182902080548351601f60026000196101006001861615020190931692909204918201849004840281018401909452808452606093928301828280156115265780601f106114fb57610100808354040283529160200191611526565b820191906000526020600020905b81548152906001019060200180831161150957829003601f168201915b50506009549394505050506002600019610100600184161502019091160461154f579050610a00565b8051156116205760098160405160200180838054600181600116156101000203166002900480156115b75780601f106115955761010080835404028352918201916115b7565b820191906000526020600020905b8154815290600101906020018083116115a3575b5050825160208401908083835b602083106115e35780518252601f1990920191602091820191016115c4565b6001836020036101000a03801982511681845116808217855250505050505090500192505050604051602081830303815290604052915050610a00565b600961162b846121d2565b60405160200180838054600181600116156101000203166002900480156116895780601f10611667576101008083540402835291820191611689565b820191906000526020600020905b815481529060010190602001808311611675575b5050825160208401908083835b602083106116b55780518252601f199092019160209182019101611696565b6001836020036101000a03801982511681845116808217855250505050505090500192505050604051602081830303815290604052915050919050565b6000610e138b6117e68c8c8080601f016020809104026020016040519081016040528093929190818152602001838380828437600081840152601f19601f820116905080830192505050505050508b8b8080601f01602080910402602001604051908101604052809392919081815260200183838082843760009201919091525050604080516020601f8f018190048102820181019092528d815292508d91508c908190840183828082843760009201919091525050604080516020601f8d018190048102820181019092528b81528d935091508b908b9081908401838280828437600092019190915250611d2a92505050565b6122ad565b6001600160a01b03918216600090815260056020908152604080832093909416825291909152205460ff1690565b600b546001600160a01b031681565b600d5481565b61183661193a565b600a546001600160a01b03908116911614611886576040805162461bcd60e51b81526020600482018190526024820152600080516020612e69833981519152604482015290519081900360640190fd5b6001600160a01b0381166118cb5760405162461bcd60e51b8152600401808060200182810382526026815260200180612d1a6026913960400191505060405180910390fd5b600a546040516001600160a01b038084169216907f8be0079c531659141344cd1fd0a4f28419497f9722a3daafe3b4186f6b6457e090600090a3600a80546001600160a01b0319166001600160a01b0392909216919091179055565b6000610c7c60028363ffffffff61235716565b3390565b600081815260046020526040902080546001600160a01b0319166001600160a01b038416908117909155819061197382610ef4565b6001600160a01b03167f8c5be1e5ebec7d5bd14f71427d1e84f3dd0314c0f7b2291e5b200ac8c7c3b92560405160405180910390a45050565b6000610c7c82612363565b60006119c282611927565b6119fd5760405162461bcd60e51b815260040180806020018281038252602c815260200180612d64602c913960400191505060405180910390fd5b6000611a0883610ef4565b9050806001600160a01b0316846001600160a01b03161480611a435750836001600160a01b0316611a3884610a9c565b6001600160a01b0316145b80611a535750611a5381856117eb565b949350505050565b826001600160a01b0316611a6e82610ef4565b6001600160a01b031614611ab35760405162461bcd60e51b8152600401808060200182810382526029815260200180612e896029913960400191505060405180910390fd5b6001600160a01b038216611af85760405162461bcd60e51b8152600401808060200182810382526024815260200180612d406024913960400191505060405180910390fd5b611b03838383610bd4565b611b0e60008261193e565b6001600160a01b0383166000908152600160205260409020611b36908263ffffffff61236716565b506001600160a01b0382166000908152600160205260409020611b5f908263ffffffff61237316565b50611b726002828463ffffffff61237f16565b5080826001600160a01b0316846001600160a01b03167fddf252ad1be2c89b69c2b068fc378daa952ba7f163c4a11628f55a4df523b3ef60405160405180910390a4505050565b6000610c798383612395565b604080516302571be360e01b81527f91d1777781884d03a6757a803996e38de2a42967fb37eeaca72729271025a9e2600482015290516001600160a01b038416916302571be3916024808301926020929190829003018186803b158015611c2b57600080fd5b505afa158015611c3f573d6000803e3d6000fd5b505050506040513d6020811015611c5557600080fd5b505160405163c47f002760e01b81526020600482018181528451602484015284516001600160a01b039094169363c47f002793869383926044909201919085019080838360005b83811015611cb4578181015183820152602001611c9c565b50505050905090810190601f168015611ce15780820380516001836020036101000a031916815260200191505b5092505050602060405180830381600087803b158015611d0057600080fd5b505af1158015611d14573d6000803e3d6000fd5b505050506040513d60208110156112f757600080fd5b60608585858585604051602401808060200180602001806020018681526020018060200185810385528a818151815260200191508051906020019080838360005b83811015611d83578181015183820152602001611d6b565b50505050905090810190601f168015611db05780820380516001836020036101000a031916815260200191505b5085810384528951815289516020918201918b019080838360005b83811015611de3578181015183820152602001611dcb565b50505050905090810190601f168015611e105780820380516001836020036101000a031916815260200191505b5085810383528851815288516020918201918a019080838360005b83811015611e43578181015183820152602001611e2b565b50505050905090810190601f168015611e705780820380516001836020036101000a031916815260200191505b50858103825286518152865160209182019188019080838360005b83811015611ea3578181015183820152602001611e8b565b50505050905090810190601f168015611ed05780820380516001836020036101000a031916815260200191505b5060408051601f198184030181529190526020810180516001600160e01b03166386c02c8f60e01b1790529a505050505050505050505095945050505050565b600080612043600084866040516020018083805190602001908083835b60208310611f4c5780518252601f199092019160209182019101611f2d565b6001836020036101000a038019825116818451168082178552505050505050905001826001600160a01b03166001600160a01b031660601b81526014019250505060405160208183030381529060405280519060200120600c8054600181600116156101000203166002900480601f0160208091040260200160405190810160405280929190818152602001828054600181600116156101000203166002900480156120395780601f1061200e57610100808354040283529160200191612039565b820191906000526020600020905b81548152906001019060200180831161201c57829003601f168201915b50505050506123f9565b600b546040805163347d5e2560e21b81526001600160a01b0392831660048201818152602483019384528851604484015288519596509386169463d1f5789494919389939091606490910190602085019080838360005b838110156120b257818101518382015260200161209a565b50505050905090810190601f1680156120df5780820380516001836020036101000a031916815260200191505b509350505050600060405180830381600087803b1580156120ff57600080fd5b505af1158015612113573d6000803e3d6000fd5b5050505061212a84826001600160a01b031661250a565b6001600160a01b03169392505050565b60008080806121498686612644565b9097909650945050505050565b8051610ef0906009906020840190612c2d565b60006121768484846126bf565b90505b9392505050565b61218b848484611a5b565b61219784848484612789565b6112f75760405162461bcd60e51b8152600401808060200182810382526032815260200180612ce86032913960400191505060405180910390fd5b6060816121f757506040805180820190915260018152600360fc1b6020820152610a00565b8160005b811561220f57600101600a820491506121fb565b60608167ffffffffffffffff8111801561222857600080fd5b506040519080825280601f01601f191660200182016040528015612253576020820181803683370190505b50859350905060001982015b83156122a457600a840660300160f81b8282806001900393508151811061228257fe5b60200101906001600160f81b031916908160001a905350600a8404935061225f565b50949350505050565b60008061234683856040516020018083805190602001908083835b602083106122e75780518252601f1990920191602091820191016122c8565b6001836020036101000a038019825116818451168082178552505050505050905001826001600160a01b03166001600160a01b031660601b81526014019250505060405160208183030381529060405280519060200120600d546129c4565b6001600160a01b0316949350505050565b6000610c7983836129d1565b5490565b6000610c7983836129e9565b6000610c798383612aaf565b600061217684846001600160a01b038516612af9565b815460009082106123d75760405162461bcd60e51b8152600401808060200182810382526022815260200180612cc66022913960400191505060405180910390fd5b8260000182815481106123e657fe5b9060005260206000200154905092915050565b60008084471015612451576040805162461bcd60e51b815260206004820152601d60248201527f437265617465323a20696e73756666696369656e742062616c616e6365000000604482015290519081900360640190fd5b82516124a4576040805162461bcd60e51b815260206004820181905260248201527f437265617465323a2062797465636f6465206c656e677468206973207a65726f604482015290519081900360640190fd5b8383516020850187f590506001600160a01b038116612176576040805162461bcd60e51b815260206004820152601960248201527f437265617465323a204661696c6564206f6e206465706c6f7900000000000000604482015290519081900360640190fd5b6001600160a01b038216612565576040805162461bcd60e51b815260206004820181905260248201527f4552433732313a206d696e7420746f20746865207a65726f2061646472657373604482015290519081900360640190fd5b61256e81611927565b156125c0576040805162461bcd60e51b815260206004820152601c60248201527f4552433732313a20746f6b656e20616c7265616479206d696e74656400000000604482015290519081900360640190fd5b6125cc60008383610bd4565b6001600160a01b03821660009081526001602052604090206125f4908263ffffffff61237316565b506126076002828463ffffffff61237f16565b5060405181906001600160a01b038416906000907fddf252ad1be2c89b69c2b068fc378daa952ba7f163c4a11628f55a4df523b3ef908290a45050565b8154600090819083106126885760405162461bcd60e51b8152600401808060200182810382526022815260200180612e1b6022913960400191505060405180910390fd5b600084600001848154811061269957fe5b906000526020600020906002020190508060000154816001015492509250509250929050565b6000828152600184016020526040812054828161275a5760405162461bcd60e51b81526004018080602001828103825283818151815260200191508051906020019080838360005b8381101561271f578181015183820152602001612707565b50505050905090810190601f16801561274c5780820380516001836020036101000a031916815260200191505b509250505060405180910390fd5b5084600001600182038154811061276d57fe5b9060005260206000209060020201600101549150509392505050565b600061279d846001600160a01b0316612b90565b6127a957506001611a53565b600060606001600160a01b038616630a85bd0160e11b6127c761193a565b89888860405160240180856001600160a01b03166001600160a01b03168152602001846001600160a01b03166001600160a01b0316815260200183815260200180602001828103825283818151815260200191508051906020019080838360005b83811015612840578181015183820152602001612828565b50505050905090810190601f16801561286d5780820380516001836020036101000a031916815260200191505b5060408051601f198184030181529181526020820180516001600160e01b03166001600160e01b0319909a16999099178952518151919890975087965094509250829150849050835b602083106128d55780518252601f1990920191602091820191016128b6565b6001836020036101000a0380198251168184511680821785525050505050509050019150506000604051808303816000865af19150503d8060008114612937576040519150601f19603f3d011682016040523d82523d6000602084013e61293c565b606091505b50915091508161298d578051156129565780518082602001fd5b60405162461bcd60e51b8152600401808060200182810382526032815260200180612ce86032913960400191505060405180910390fd5b60008180602001905160208110156129a457600080fd5b50516001600160e01b031916630a85bd0160e11b149350611a5392505050565b6000610c79838330612bc9565b60009081526001919091016020526040902054151590565b60008181526001830160205260408120548015612aa55783546000198083019190810190600090879083908110612a1c57fe5b9060005260206000200154905080876000018481548110612a3957fe5b600091825260208083209091019290925582815260018981019092526040902090840190558654879080612a6957fe5b60019003818190600052602060002001600090559055866001016000878152602001908152602001600020600090556001945050505050610c7c565b6000915050610c7c565b6000612abb83836129d1565b612af157508154600181810184556000848152602080822090930184905584548482528286019093526040902091909155610c7c565b506000610c7c565b600082815260018401602052604081205480612b5e575050604080518082018252838152602080820184815286546001818101895560008981528481209551600290930290950191825591519082015586548684528188019092529290912055612179565b82856000016001830381548110612b7157fe5b9060005260206000209060020201600101819055506000915050612179565b6000813f7fc5d2460186f7233c927e7db2dcc703c0e500b653ca82273b7bfad8045d85a470818114801590611a53575050151592915050565b604080516001600160f81b031960208083019190915260609390931b6bffffffffffffffffffffffff19166021820152603581019490945260558085019390935280518085039093018352607590930190925280519101206001600160a01b031690565b828054600181600116156101000203166002900490600052602060002090601f016020900481019282601f10612c6e57805160ff1916838001178555612c9b565b82800160010185558215612c9b579182015b82811115612c9b578251825591602001919060010190612c80565b50612ca7929150612cab565b5090565b610a9991905b80821115612ca75760008155600101612cb156fe456e756d657261626c655365743a20696e646578206f7574206f6620626f756e64734552433732313a207472616e7366657220746f206e6f6e20455243373231526563656976657220696d706c656d656e7465724f776e61626c653a206e6577206f776e657220697320746865207a65726f20616464726573734552433732313a207472616e7366657220746f20746865207a65726f20616464726573734552433732313a206f70657261746f7220717565727920666f72206e6f6e6578697374656e7420746f6b656e4552433732313a20617070726f76652063616c6c6572206973206e6f74206f776e6572206e6f7220617070726f76656420666f7220616c6c4552433732313a2062616c616e636520717565727920666f7220746865207a65726f20616464726573734552433732313a206f776e657220717565727920666f72206e6f6e6578697374656e7420746f6b656e456e756d657261626c654d61703a20696e646578206f7574206f6620626f756e64734552433732313a20617070726f76656420717565727920666f72206e6f6e6578697374656e7420746f6b656e4f776e61626c653a2063616c6c6572206973206e6f7420746865206f776e65724552433732313a207472616e73666572206f6620746f6b656e2074686174206973206e6f74206f776e4552433732314d657461646174613a2055524920717565727920666f72206e6f6e6578697374656e7420746f6b656e4552433732313a20617070726f76616c20746f2063757272656e74206f776e65724552433732313a207472616e736665722063616c6c6572206973206e6f74206f776e6572206e6f7220617070726f766564a264697066735822122050732edd3e01de82fc92779544bad36e3e8ff38be8267b5767861f4903e9cf6164736f6c63430006060033608060405234801561001057600080fd5b50610a19806100206000396000f3fe608060405234801561001057600080fd5b50600436106100935760003560e01c806384aaf12e1161006657806384aaf12e146101c157806386c02c8f146101db5780638da5cb5b14610416578063e30d26a81461041e578063f8c2ceb31461042657610093565b80633121db1c14610098578063358982a31461011857806339e75d45146101955780637b1039991461019d575b600080fd5b610116600480360360408110156100ae57600080fd5b6001600160a01b038235169190810190604081016020820135600160201b8111156100d857600080fd5b8201836020820111156100ea57600080fd5b803590602001918460018302840111600160201b8311171561010b57600080fd5b50909250905061042e565b005b6101206104d7565b6040805160208082528351818301528351919283929083019185019080838360005b8381101561015a578181015183820152602001610142565b50505050905090810190601f1680156101875780820380516001836020036101000a031916815260200191505b509250505060405180910390f35b610120610564565b6101a56105bf565b604080516001600160a01b039092168252519081900360200190f35b6101c96105ce565b60408051918252519081900360200190f35b610116600480360360a08110156101f157600080fd5b810190602081018135600160201b81111561020b57600080fd5b82018360208201111561021d57600080fd5b803590602001918460018302840111600160201b8311171561023e57600080fd5b91908080601f0160208091040260200160405190810160405280939291908181526020018383808284376000920191909152509295949360208101935035915050600160201b81111561029057600080fd5b8201836020820111156102a257600080fd5b803590602001918460018302840111600160201b831117156102c357600080fd5b91908080601f0160208091040260200160405190810160405280939291908181526020018383808284376000920191909152509295949360208101935035915050600160201b81111561031557600080fd5b82018360208201111561032757600080fd5b803590602001918460018302840111600160201b8311171561034857600080fd5b91908080601f01602080910402602001604051908101604052809392919081815260200183838082843760009201919091525092958435959094909350604081019250602001359050600160201b8111156103a257600080fd5b8201836020820111156103b457600080fd5b803590602001918460018302840111600160201b831117156103d557600080fd5b91908080601f0160208091040260200160405190810160405280939291908181526020018383808284376000920191909152509295506105d4945050505050565b6101a5610639565b6101206106b7565b610120610712565b33610437610639565b6001600160a01b031614610492576040805162461bcd60e51b815260206004820152601760248201527f63616c6c6572206973206e6f7420746865206f776e6572000000000000000000604482015290519081900360640190fd5b6104d28383838080601f01602080910402602001604051908101604052809392919081815260200183838082843760009201919091525061076a92505050565b505050565b60018054604080516020600284861615610100026000190190941693909304601f8101849004840282018401909252818152929183018282801561055c5780601f106105315761010080835404028352916020019161055c565b820191906000526020600020905b81548152906001019060200180831161053f57829003601f168201915b505050505081565b6003805460408051602060026001851615610100026000190190941693909304601f8101849004840282018401909252818152929183018282801561055c5780601f106105315761010080835404028352916020019161055c565b6000546001600160a01b031681565b60045481565b6105dd336108d5565b84516105f090600190602088019061094b565b50835161060490600290602087019061094b565b50825161061890600390602086019061094b565b506004829055805161063190600590602084019061094b565b505050505050565b60008054604080516331a9108f60e11b815230600482015290516001600160a01b0390921691636352211e91602480820192602092909190829003018186803b15801561068557600080fd5b505afa158015610699573d6000803e3d6000fd5b505050506040513d60208110156106af57600080fd5b505190505b90565b6005805460408051602060026001851615610100026000190190941693909304601f8101849004840282018401909252818152929183018282801561055c5780601f106105315761010080835404028352916020019161055c565b6002805460408051602060018416156101000260001901909316849004601f8101849004840282018401909252818152929183018282801561055c5780601f106105315761010080835404028352916020019161055c565b604080516302571be360e01b81527f91d1777781884d03a6757a803996e38de2a42967fb37eeaca72729271025a9e2600482015290516001600160a01b038416916302571be3916024808301926020929190829003018186803b1580156107d057600080fd5b505afa1580156107e4573d6000803e3d6000fd5b505050506040513d60208110156107fa57600080fd5b505160405163c47f002760e01b81526020600482018181528451602484015284516001600160a01b039094169363c47f002793869383926044909201919085019080838360005b83811015610859578181015183820152602001610841565b50505050905090810190601f1680156108865780820380516001836020036101000a031916815260200191505b5092505050602060405180830381600087803b1580156108a557600080fd5b505af11580156108b9573d6000803e3d6000fd5b505050506040513d60208110156108cf57600080fd5b50505050565b6000546001600160a01b031615610929576040805162461bcd60e51b8152602060048201526013602482015272185b1c9958591e481a5b9a5d1a585b1a5e9959606a1b604482015290519081900360640190fd5b600080546001600160a01b0319166001600160a01b0392909216919091179055565b828054600181600116156101000203166002900490600052602060002090601f016020900481019282601f1061098c57805160ff19168380011785556109b9565b828001600101855582156109b9579182015b828111156109b957825182559160200191906001019061099e565b506109c59291506109c9565b5090565b6106b491905b808211156109c557600081556001016109cf56fea26469706673582212202c608028e7b360813229f9625eab7667f24b1287646c4519461e6f424260575c64736f6c63430006060033608060405234801561001057600080fd5b506103ad806100206000396000f3fe6080604052600436106100225760003560e01c8063d1f578941461003957610031565b366100315761002f6100ef565b005b61002f6100ef565b61002f6004803603604081101561004f57600080fd5b6001600160a01b03823516919081019060408101602082013564010000000081111561007a57600080fd5b82018360208201111561008c57600080fd5b803590602001918460018302840111640100000000831117156100ae57600080fd5b91908080601f016020809104026020016040519081016040528093929190818152602001838380828437600092019190915250929550610109945050505050565b6100f7610107565b61010761010261022c565b610251565b565b600061011361022c565b6001600160a01b03161461012657600080fd5b60405180602361031a82396040519081900360230190207f7050c9e0f4ca769c69bd3a8ef740bc37934f8e2c036e5a723fd8ee048ed3f8c314905061016757fe5b61017082610275565b805115610228576000826001600160a01b0316826040518082805190602001908083835b602083106101b35780518252601f199092019160209182019101610194565b6001836020036101000a038019825116818451168082178552505050505050905001915050600060405180830381855af49150503d8060008114610213576040519150601f19603f3d011682016040523d82523d6000602084013e610218565b606091505b505090508061022657600080fd5b505b5050565b7f7050c9e0f4ca769c69bd3a8ef740bc37934f8e2c036e5a723fd8ee048ed3f8c35490565b3660008037600080366000845af43d6000803e808015610270573d6000f35b3d6000fd5b61027e816102dd565b6102b95760405162461bcd60e51b815260040180806020018281038252603b81526020018061033d603b913960400191505060405180910390fd5b7f7050c9e0f4ca769c69bd3a8ef740bc37934f8e2c036e5a723fd8ee048ed3f8c355565b6000813f7fc5d2460186f7233c927e7db2dcc703c0e500b653ca82273b7bfad8045d85a47081811480159061031157508115155b94935050505056fe6f72672e7a657070656c696e6f732e70726f78792e696d706c656d656e746174696f6e43616e6e6f742073657420612070726f787920696d706c656d656e746174696f6e20746f2061206e6f6e2d636f6e74726163742061646472657373a2646970667358221220f4af5f38b16e1ce890fd14497bea12d47bed23b9e542d8461f60b0d5a7952a1e64736f6c63430006060033",
  "immutableReferences": {},
  "source": "pragma solidity ^0.6.0;\n\nimport '../Registry.sol';\nimport './App.sol';\n\n\ncontract AppRegistry is Registry\n{\n\t/**\n\t * Constructor\n\t */\n\tconstructor()\n\tpublic Registry(\n\t\taddress(new App()),\n\t\t'iExec Application Registry (V5)',\n\t\t'iExecAppsV5')\n\t{\n\t}\n\n\t/**\n\t * App creation\n\t */\n\tfunction encodeInitializer(\n\t\tstring  memory _appName,\n\t\tstring  memory _appType,\n\t\tbytes   memory _appMultiaddr,\n\t\tbytes32        _appChecksum,\n\t\tbytes   memory _appMREnclave)\n\tinternal pure returns (bytes memory)\n\t{\n\t\treturn abi.encodeWithSignature(\n\t\t\t'initialize(string,string,bytes,bytes32,bytes)'\n\t\t,\t_appName\n\t\t,\t_appType\n\t\t,\t_appMultiaddr\n\t\t,\t_appChecksum\n\t\t,\t_appMREnclave\n\t\t);\n\t}\n\n\tfunction createApp(\n\t\taddress          _appOwner,\n\t\tstring  calldata _appName,\n\t\tstring  calldata _appType,\n\t\tbytes   calldata _appMultiaddr,\n\t\tbytes32          _appChecksum,\n\t\tbytes   calldata _appMREnclave)\n\texternal returns (App)\n\t{\n\t\treturn App(_mintCreate(_appOwner, encodeInitializer(_appName, _appType, _appMultiaddr, _appChecksum, _appMREnclave)));\n\t}\n\n\tfunction predictApp(\n\t\taddress          _appOwner,\n\t\tstring  calldata _appName,\n\t\tstring  calldata _appType,\n\t\tbytes   calldata _appMultiaddr,\n\t\tbytes32          _appChecksum,\n\t\tbytes   calldata _appMREnclave)\n\texternal view returns (App)\n\t{\n\t\treturn App(_mintPredict(_appOwner, encodeInitializer(_appName, _appType, _appMultiaddr, _appChecksum, _appMREnclave)));\n\t}\n}\n",
  "sourcePath": "/home/amxx/Work/iExec/code/PoCo/contracts/registries/apps/AppRegistry.sol",
  "compiler": {
    "name": "solc",
    "version": "0.6.6+commit.6c089d02.Emscripten.clang"
  },
  "schemaVersion": "3.1.0",
  "updatedAt": "2020-04-30T13:17:58.638Z",
  "devdoc": {
    "methods": {
      "approve(address,uint256)": {
        "details": "Approves another address to transfer the given token ID The zero address indicates there is no approved address. There can only be one approved address per token at a given time. Can only be called by the token owner or an approved operator.",
        "params": {
          "to": "address to be approved for the given token ID",
          "tokenId": "uint256 ID of the token to be approved"
        }
      },
      "balanceOf(address)": {
        "details": "Gets the balance of the specified address.",
        "params": {
          "owner": "address to query the balance of"
        },
        "returns": {
          "_0": "uint256 representing the amount owned by the passed address"
        }
      },
      "baseURI()": {
        "details": "Returns the base URI set via {_setBaseURI}. This will be automatically added as a prefix in {tokenURI} to each token's URI, or to the token ID if no specific URI is set for that token ID."
      },
      "getApproved(uint256)": {
        "details": "Gets the approved address for a token ID, or zero if no address set Reverts if the token ID does not exist.",
        "params": {
          "tokenId": "uint256 ID of the token to query the approval of"
        },
        "returns": {
          "_0": "address currently approved for the given token ID"
        }
      },
      "isApprovedForAll(address,address)": {
        "details": "Tells whether an operator is approved by a given owner.",
        "params": {
          "operator": "operator address which you want to query the approval of",
          "owner": "owner address which you want to query the approval of"
        },
        "returns": {
          "_0": "bool whether the given operator is approved by the given owner"
        }
      },
      "name()": {
        "details": "Gets the token name.",
        "returns": {
          "_0": "string representing the token name"
        }
      },
      "owner()": {
        "details": "Returns the address of the current owner."
      },
      "ownerOf(uint256)": {
        "details": "Gets the owner of the specified token ID.",
        "params": {
          "tokenId": "uint256 ID of the token to query the owner of"
        },
        "returns": {
          "_0": "address currently marked as the owner of the given token ID"
        }
      },
      "renounceOwnership()": {
        "details": "Leaves the contract without owner. It will not be possible to call `onlyOwner` functions anymore. Can only be called by the current owner.     * NOTE: Renouncing ownership will leave the contract without an owner, thereby removing any functionality that is only available to the owner."
      },
      "safeTransferFrom(address,address,uint256)": {
        "details": "Safely transfers the ownership of a given token ID to another address If the target address is a contract, it must implement {IERC721Receiver-onERC721Received}, which is called upon a safe transfer, and return the magic value `bytes4(keccak256(\"onERC721Received(address,address,uint256,bytes)\"))`; otherwise, the transfer is reverted. Requires the msg.sender to be the owner, approved, or operator",
        "params": {
          "from": "current owner of the token",
          "to": "address to receive the ownership of the given token ID",
          "tokenId": "uint256 ID of the token to be transferred"
        }
      },
      "safeTransferFrom(address,address,uint256,bytes)": {
        "details": "Safely transfers the ownership of a given token ID to another address If the target address is a contract, it must implement {IERC721Receiver-onERC721Received}, which is called upon a safe transfer, and return the magic value `bytes4(keccak256(\"onERC721Received(address,address,uint256,bytes)\"))`; otherwise, the transfer is reverted. Requires the _msgSender() to be the owner, approved, or operator",
        "params": {
          "_data": "bytes data to send along with a safe transfer check",
          "from": "current owner of the token",
          "to": "address to receive the ownership of the given token ID",
          "tokenId": "uint256 ID of the token to be transferred"
        }
      },
      "setApprovalForAll(address,bool)": {
        "details": "Sets or unsets the approval of a given operator An operator is allowed to transfer all tokens of the sender on their behalf.",
        "params": {
          "approved": "representing the status of the approval to be set",
          "operator": "operator address to set the approval"
        }
      },
      "supportsInterface(bytes4)": {
        "details": "See {IERC165-supportsInterface}.     * Time complexity O(1), guaranteed to always use less than 30 000 gas."
      },
      "symbol()": {
        "details": "Gets the token symbol.",
        "returns": {
          "_0": "string representing the token symbol"
        }
      },
      "tokenByIndex(uint256)": {
        "details": "Gets the token ID at a given index of all the tokens in this contract Reverts if the index is greater or equal to the total number of tokens.",
        "params": {
          "index": "uint256 representing the index to be accessed of the tokens list"
        },
        "returns": {
          "_0": "uint256 token ID at the given index of the tokens list"
        }
      },
      "tokenOfOwnerByIndex(address,uint256)": {
        "details": "Gets the token ID at a given index of the tokens list of the requested owner.",
        "params": {
          "index": "uint256 representing the index to be accessed of the requested tokens list",
          "owner": "address owning the tokens list to be accessed"
        },
        "returns": {
          "_0": "uint256 token ID at the given index of the tokens list owned by the requested address"
        }
      },
      "tokenURI(uint256)": {
        "details": "Returns the URI for a given token ID. May return an empty string.     * If a base URI is set (via {_setBaseURI}), it is added as a prefix to the token's own URI (via {_setTokenURI}).     * If there is a base URI but no token URI, the token's ID will be used as its URI when appending it to the base URI. This pattern for autogenerated token URIs can lead to large gas savings.     * .Examples |=== |`_setBaseURI()` |`_setTokenURI()` |`tokenURI()` | \"\" | \"\" | \"\" | \"\" | \"token.uri/123\" | \"token.uri/123\" | \"token.uri/\" | \"123\" | \"token.uri/123\" | \"token.uri/\" | \"\" | \"token.uri/<tokenId>\" |===     * Requirements:     * - `tokenId` must exist."
      },
      "totalSupply()": {
        "details": "Gets the total amount of tokens stored by the contract.",
        "returns": {
          "_0": "uint256 representing the total amount of tokens"
        }
      },
      "transferFrom(address,address,uint256)": {
        "details": "Transfers the ownership of a given token ID to another address. Usage of this method is discouraged, use {safeTransferFrom} whenever possible. Requires the msg.sender to be the owner, approved, or operator.",
        "params": {
          "from": "current owner of the token",
          "to": "address to receive the ownership of the given token ID",
          "tokenId": "uint256 ID of the token to be transferred"
        }
      },
      "transferOwnership(address)": {
        "details": "Transfers ownership of the contract to a new account (`newOwner`). Can only be called by the current owner."
      }
    }
  },
  "userdoc": {
    "methods": {
      "constructor": "Constructor"
    }
  }
}