{
  "contractName": "AppRegistry",
  "abi": [
    {
      "inputs": [
        {
          "internalType": "address",
          "name": "_previous",
          "type": "address"
        }
      ],
      "stateMutability": "nonpayable",
      "type": "constructor"
    },
    {
      "anonymous": false,
      "inputs": [
        {
          "indexed": true,
          "internalType": "address",
          "name": "owner",
          "type": "address"
        },
        {
          "indexed": true,
          "internalType": "address",
          "name": "approved",
          "type": "address"
        },
        {
          "indexed": true,
          "internalType": "uint256",
          "name": "tokenId",
          "type": "uint256"
        }
      ],
      "name": "Approval",
      "type": "event"
    },
    {
      "anonymous": false,
      "inputs": [
        {
          "indexed": true,
          "internalType": "address",
          "name": "owner",
          "type": "address"
        },
        {
          "indexed": true,
          "internalType": "address",
          "name": "operator",
          "type": "address"
        },
        {
          "indexed": false,
          "internalType": "bool",
          "name": "approved",
          "type": "bool"
        }
      ],
      "name": "ApprovalForAll",
      "type": "event"
    },
    {
      "anonymous": false,
      "inputs": [
        {
          "indexed": true,
          "internalType": "address",
          "name": "previousOwner",
          "type": "address"
        },
        {
          "indexed": true,
          "internalType": "address",
          "name": "newOwner",
          "type": "address"
        }
      ],
      "name": "OwnershipTransferred",
      "type": "event"
    },
    {
      "anonymous": false,
      "inputs": [
        {
          "indexed": true,
          "internalType": "address",
          "name": "from",
          "type": "address"
        },
        {
          "indexed": true,
          "internalType": "address",
          "name": "to",
          "type": "address"
        },
        {
          "indexed": true,
          "internalType": "uint256",
          "name": "tokenId",
          "type": "uint256"
        }
      ],
      "name": "Transfer",
      "type": "event"
    },
    {
      "inputs": [
        {
          "internalType": "address",
          "name": "to",
          "type": "address"
        },
        {
          "internalType": "uint256",
          "name": "tokenId",
          "type": "uint256"
        }
      ],
      "name": "approve",
      "outputs": [],
      "stateMutability": "nonpayable",
      "type": "function"
    },
    {
      "inputs": [
        {
          "internalType": "address",
          "name": "owner",
          "type": "address"
        }
      ],
      "name": "balanceOf",
      "outputs": [
        {
          "internalType": "uint256",
          "name": "",
          "type": "uint256"
        }
      ],
      "stateMutability": "view",
      "type": "function",
      "constant": true
    },
    {
      "inputs": [],
      "name": "baseURI",
      "outputs": [
        {
          "internalType": "string",
          "name": "",
          "type": "string"
        }
      ],
      "stateMutability": "view",
      "type": "function",
      "constant": true
    },
    {
      "inputs": [
        {
          "internalType": "uint256",
          "name": "tokenId",
          "type": "uint256"
        }
      ],
      "name": "getApproved",
      "outputs": [
        {
          "internalType": "address",
          "name": "",
          "type": "address"
        }
      ],
      "stateMutability": "view",
      "type": "function",
      "constant": true
    },
    {
      "inputs": [
        {
          "internalType": "address",
          "name": "owner",
          "type": "address"
        },
        {
          "internalType": "address",
          "name": "operator",
          "type": "address"
        }
      ],
      "name": "isApprovedForAll",
      "outputs": [
        {
          "internalType": "bool",
          "name": "",
          "type": "bool"
        }
      ],
      "stateMutability": "view",
      "type": "function",
      "constant": true
    },
    {
      "inputs": [],
      "name": "isOwner",
      "outputs": [
        {
          "internalType": "bool",
          "name": "",
          "type": "bool"
        }
      ],
      "stateMutability": "view",
      "type": "function",
      "constant": true
    },
    {
      "inputs": [
        {
          "internalType": "address",
          "name": "_entry",
          "type": "address"
        }
      ],
      "name": "isRegistered",
      "outputs": [
        {
          "internalType": "bool",
          "name": "",
          "type": "bool"
        }
      ],
      "stateMutability": "view",
      "type": "function",
      "constant": true
    },
    {
      "inputs": [],
      "name": "master",
      "outputs": [
        {
          "internalType": "address",
          "name": "",
          "type": "address"
        }
      ],
      "stateMutability": "view",
      "type": "function",
      "constant": true
    },
    {
      "inputs": [],
      "name": "name",
      "outputs": [
        {
          "internalType": "string",
          "name": "",
          "type": "string"
        }
      ],
      "stateMutability": "view",
      "type": "function",
      "constant": true
    },
    {
      "inputs": [],
      "name": "owner",
      "outputs": [
        {
          "internalType": "address",
          "name": "",
          "type": "address"
        }
      ],
      "stateMutability": "view",
      "type": "function",
      "constant": true
    },
    {
      "inputs": [
        {
          "internalType": "uint256",
          "name": "tokenId",
          "type": "uint256"
        }
      ],
      "name": "ownerOf",
      "outputs": [
        {
          "internalType": "address",
          "name": "",
          "type": "address"
        }
      ],
      "stateMutability": "view",
      "type": "function",
      "constant": true
    },
    {
      "inputs": [],
      "name": "previous",
      "outputs": [
        {
          "internalType": "contract IRegistry",
          "name": "",
          "type": "address"
        }
      ],
      "stateMutability": "view",
      "type": "function",
      "constant": true
    },
    {
      "inputs": [],
      "name": "proxyCode",
      "outputs": [
        {
          "internalType": "bytes",
          "name": "",
          "type": "bytes"
        }
      ],
      "stateMutability": "view",
      "type": "function",
      "constant": true
    },
    {
      "inputs": [],
      "name": "renounceOwnership",
      "outputs": [],
      "stateMutability": "nonpayable",
      "type": "function"
    },
    {
      "inputs": [
        {
          "internalType": "address",
          "name": "from",
          "type": "address"
        },
        {
          "internalType": "address",
          "name": "to",
          "type": "address"
        },
        {
          "internalType": "uint256",
          "name": "tokenId",
          "type": "uint256"
        }
      ],
      "name": "safeTransferFrom",
      "outputs": [],
      "stateMutability": "nonpayable",
      "type": "function"
    },
    {
      "inputs": [
        {
          "internalType": "address",
          "name": "from",
          "type": "address"
        },
        {
          "internalType": "address",
          "name": "to",
          "type": "address"
        },
        {
          "internalType": "uint256",
          "name": "tokenId",
          "type": "uint256"
        },
        {
          "internalType": "bytes",
          "name": "_data",
          "type": "bytes"
        }
      ],
      "name": "safeTransferFrom",
      "outputs": [],
      "stateMutability": "nonpayable",
      "type": "function"
    },
    {
      "inputs": [
        {
          "internalType": "address",
          "name": "operator",
          "type": "address"
        },
        {
          "internalType": "bool",
          "name": "approved",
          "type": "bool"
        }
      ],
      "name": "setApprovalForAll",
      "outputs": [],
      "stateMutability": "nonpayable",
      "type": "function"
    },
    {
      "inputs": [
        {
          "internalType": "address",
          "name": "_ens",
          "type": "address"
        },
        {
          "internalType": "string",
          "name": "_name",
          "type": "string"
        }
      ],
      "name": "setName",
      "outputs": [],
      "stateMutability": "nonpayable",
      "type": "function"
    },
    {
      "inputs": [
        {
          "internalType": "uint256",
          "name": "_tokenId",
          "type": "uint256"
        },
        {
          "internalType": "string",
          "name": "_uri",
          "type": "string"
        }
      ],
      "name": "setTokenURI",
      "outputs": [],
      "stateMutability": "nonpayable",
      "type": "function"
    },
    {
      "inputs": [
        {
          "internalType": "bytes4",
          "name": "interfaceId",
          "type": "bytes4"
        }
      ],
      "name": "supportsInterface",
      "outputs": [
        {
          "internalType": "bool",
          "name": "",
          "type": "bool"
        }
      ],
      "stateMutability": "view",
      "type": "function",
      "constant": true
    },
    {
      "inputs": [],
      "name": "symbol",
      "outputs": [
        {
          "internalType": "string",
          "name": "",
          "type": "string"
        }
      ],
      "stateMutability": "view",
      "type": "function",
      "constant": true
    },
    {
      "inputs": [
        {
          "internalType": "uint256",
          "name": "index",
          "type": "uint256"
        }
      ],
      "name": "tokenByIndex",
      "outputs": [
        {
          "internalType": "uint256",
          "name": "",
          "type": "uint256"
        }
      ],
      "stateMutability": "view",
      "type": "function",
      "constant": true
    },
    {
      "inputs": [
        {
          "internalType": "address",
          "name": "owner",
          "type": "address"
        },
        {
          "internalType": "uint256",
          "name": "index",
          "type": "uint256"
        }
      ],
      "name": "tokenOfOwnerByIndex",
      "outputs": [
        {
          "internalType": "uint256",
          "name": "",
          "type": "uint256"
        }
      ],
      "stateMutability": "view",
      "type": "function",
      "constant": true
    },
    {
      "inputs": [
        {
          "internalType": "uint256",
          "name": "tokenId",
          "type": "uint256"
        }
      ],
      "name": "tokenURI",
      "outputs": [
        {
          "internalType": "string",
          "name": "",
          "type": "string"
        }
      ],
      "stateMutability": "view",
      "type": "function",
      "constant": true
    },
    {
      "inputs": [],
      "name": "totalSupply",
      "outputs": [
        {
          "internalType": "uint256",
          "name": "",
          "type": "uint256"
        }
      ],
      "stateMutability": "view",
      "type": "function",
      "constant": true
    },
    {
      "inputs": [
        {
          "internalType": "address",
          "name": "from",
          "type": "address"
        },
        {
          "internalType": "address",
          "name": "to",
          "type": "address"
        },
        {
          "internalType": "uint256",
          "name": "tokenId",
          "type": "uint256"
        }
      ],
      "name": "transferFrom",
      "outputs": [],
      "stateMutability": "nonpayable",
      "type": "function"
    },
    {
      "inputs": [
        {
          "internalType": "address",
          "name": "newOwner",
          "type": "address"
        }
      ],
      "name": "transferOwnership",
      "outputs": [],
      "stateMutability": "nonpayable",
      "type": "function"
    },
    {
      "inputs": [
        {
          "internalType": "address",
          "name": "_appOwner",
          "type": "address"
        },
        {
          "internalType": "string",
          "name": "_appName",
          "type": "string"
        },
        {
          "internalType": "string",
          "name": "_appType",
          "type": "string"
        },
        {
          "internalType": "bytes",
          "name": "_appMultiaddr",
          "type": "bytes"
        },
        {
          "internalType": "bytes32",
          "name": "_appChecksum",
          "type": "bytes32"
        },
        {
          "internalType": "bytes",
          "name": "_appMREnclave",
          "type": "bytes"
        }
      ],
      "name": "createApp",
      "outputs": [
        {
          "internalType": "contract App",
          "name": "",
          "type": "address"
        }
      ],
      "stateMutability": "nonpayable",
      "type": "function"
    }
  ],
  "bytecode": "0x60806040523480156200001157600080fd5b5060405162003a2a38038062003a2a833981810160405260208110156200003757600080fd5b50516040516200004790620002c9565b604051809103906000f08015801562000064573d6000803e3d6000fd5b50604080518082018252601f81527f6945786563204170706c69636174696f6e2052656769737472792028563529006020808301919091528251808401909352600b83526a694578656341707073563560a81b90830152908382828181620000dc6301ffc9a760e01b6001600160e01b036200023f16565b620000f76380ac58cd60e01b6001600160e01b036200023f16565b6200011263780e9d6360e01b6001600160e01b036200023f16565b815162000127906009906020850190620002d7565b5080516200013d90600a906020840190620002d7565b5062000159635b5e139f60e01b6001600160e01b036200023f16565b5050505060006200016f620002c460201b60201c565b600d80546001600160a01b0319166001600160a01b038316908117909155604051919250906000907f8be0079c531659141344cd1fd0a4f28419497f9722a3daafe3b4186f6b6457e0908290a350600e80546001600160a01b0319166001600160a01b038616179055604051620001e9602082016200035c565b601f1982820381018352601f9091011660405280516200021391600f9160209190910190620002d7565b50601080546001600160a01b0319166001600160a01b0392909216919091179055506200038792505050565b6001600160e01b031980821614156200029f576040805162461bcd60e51b815260206004820152601c60248201527f4552433136353a20696e76616c696420696e7465726661636520696400000000604482015290519081900360640190fd5b6001600160e01b0319166000908152602081905260409020805460ff19166001179055565b335b90565b610a398062002c2483390190565b828054600181600116156101000203166002900490600052602060002090601f016020900481019282601f106200031a57805160ff19168380011785556200034a565b828001600101855582156200034a579182015b828111156200034a5782518255916020019190600101906200032d565b50620003589291506200036a565b5090565b6103cd806200365d83390190565b620002c691905b8082111562000358576000815560010162000371565b61288d80620003976000396000f3fe608060405234801561001057600080fd5b50600436106101c45760003560e01c80636fa59bbc116100f9578063a22cb46511610097578063c87b56dd11610071578063c87b56dd146107af578063e985e9c5146107cc578063ee97f7f3146107fa578063f2fde38b14610802576101c4565b8063a22cb46514610697578063b88d4fde146106c5578063c3c5a54714610789576101c4565b80637c2b2e71116100d35780637c2b2e71146106775780638da5cb5b1461067f5780638f32d59b1461068757806395d89b411461068f576101c4565b80636fa59bbc1461064157806370a0823114610649578063715018a61461066f576101c4565b80632f745c591161016657806342842e0e1161014057806342842e0e146105c95780634f6ccce7146105ff5780636352211e1461061c5780636c0360eb14610639576101c4565b80632f745c59146103ad5780633121db1c146103d95780633f7868ff14610457576101c4565b8063095ea7b3116101a2578063095ea7b3146102ba578063162094c4146102e857806318160ddd1461035d57806323b872dd14610377576101c4565b806301ffc9a7146101c957806306fdde0314610204578063081812fc14610281575b600080fd5b6101f0600480360360208110156101df57600080fd5b50356001600160e01b031916610828565b604080519115158252519081900360200190f35b61020c61084b565b6040805160208082528351818301528351919283929083019185019080838360005b8381101561024657818101518382015260200161022e565b50505050905090810190601f1680156102735780820380516001836020036101000a031916815260200191505b509250505060405180910390f35b61029e6004803603602081101561029757600080fd5b50356108e2565b604080516001600160a01b039092168252519081900360200190f35b6102e6600480360360408110156102d057600080fd5b506001600160a01b038135169060200135610944565b005b6102e6600480360360408110156102fe57600080fd5b81359190810190604081016020820135600160201b81111561031f57600080fd5b82018360208201111561033157600080fd5b803590602001918460018302840111600160201b8311171561035257600080fd5b509092509050610a1f565b610365610abe565b60408051918252519081900360200190f35b6102e66004803603606081101561038d57600080fd5b506001600160a01b03813581169160208101359091169060400135610ac4565b610365600480360360408110156103c357600080fd5b506001600160a01b038135169060200135610b1b565b6102e6600480360360408110156103ef57600080fd5b6001600160a01b038235169190810190604081016020820135600160201b81111561041957600080fd5b82018360208201111561042b57600080fd5b803590602001918460018302840111600160201b8311171561044c57600080fd5b509092509050610b9a565b61029e600480360360c081101561046d57600080fd5b6001600160a01b038235169190810190604081016020820135600160201b81111561049757600080fd5b8201836020820111156104a957600080fd5b803590602001918460018302840111600160201b831117156104ca57600080fd5b919390929091602081019035600160201b8111156104e757600080fd5b8201836020820111156104f957600080fd5b803590602001918460018302840111600160201b8311171561051a57600080fd5b919390929091602081019035600160201b81111561053757600080fd5b82018360208201111561054957600080fd5b803590602001918460018302840111600160201b8311171561056a57600080fd5b91939092823592604081019060200135600160201b81111561058b57600080fd5b82018360208201111561059d57600080fd5b803590602001918460018302840111600160201b831117156105be57600080fd5b509092509050610c33565b6102e6600480360360608110156105df57600080fd5b506001600160a01b03813581169160208101359091169060400135610d3d565b6103656004803603602081101561061557600080fd5b5035610d58565b61029e6004803603602081101561063257600080fd5b5035610dbe565b61020c610e18565b61020c610e79565b6103656004803603602081101561065f57600080fd5b50356001600160a01b0316610f07565b6102e6610f6f565b61029e611012565b61029e611021565b6101f0611030565b61020c611056565b6102e6600480360360408110156106ad57600080fd5b506001600160a01b03813516906020013515156110b7565b6102e6600480360360808110156106db57600080fd5b6001600160a01b03823581169260208101359091169160408201359190810190608081016060820135600160201b81111561071557600080fd5b82018360208201111561072757600080fd5b803590602001918460018302840111600160201b8311171561074857600080fd5b91908080601f0160208091040260200160405190810160405280939291908181526020018383808284376000920191909152509295506111bc945050505050565b6101f06004803603602081101561079f57600080fd5b50356001600160a01b031661121a565b61020c600480360360208110156107c557600080fd5b50356112c8565b6101f0600480360360408110156107e257600080fd5b506001600160a01b0381358116916020013516611494565b61029e6114c2565b6102e66004803603602081101561081857600080fd5b50356001600160a01b03166114d1565b6001600160e01b0319811660009081526020819052604090205460ff165b919050565b60098054604080516020601f60026000196101006001881615020190951694909404938401819004810282018101909252828152606093909290918301828280156108d75780601f106108ac576101008083540402835291602001916108d7565b820191906000526020600020905b8154815290600101906020018083116108ba57829003601f168201915b505050505090505b90565b60006108ed82611536565b6109285760405162461bcd60e51b815260040180806020018281038252602c81526020018061272a602c913960400191505060405180910390fd5b506000908152600260205260409020546001600160a01b031690565b600061094f82610dbe565b9050806001600160a01b0316836001600160a01b031614156109a25760405162461bcd60e51b81526004018080602001828103825260218152602001806127da6021913960400191505060405180910390fd5b806001600160a01b03166109b4611553565b6001600160a01b031614806109d557506109d5816109d0611553565b611494565b610a105760405162461bcd60e51b815260040180806020018281038252603881526020018061269f6038913960400191505060405180910390fd5b610a1a8383611557565b505050565b610a2883610dbe565b6001600160a01b0316610a39611553565b6001600160a01b031614610a7e5760405162461bcd60e51b81526004018080602001828103825260288152602001806125a46028913960400191505060405180910390fd5b610a1a8383838080601f0160208091040260200160405190810160405280939291908181526020018383808284376000920191909152506115c592505050565b60075490565b610ad5610acf611553565b82611628565b610b105760405162461bcd60e51b81526004018080602001828103825260318152602001806127fb6031913960400191505060405180910390fd5b610a1a8383836116cc565b6000610b2683610f07565b8210610b635760405162461bcd60e51b815260040180806020018281038252602b8152602001806125cc602b913960400191505060405180910390fd5b6001600160a01b0383166000908152600560205260409020805483908110610b8757fe5b9060005260206000200154905092915050565b610ba2611030565b610bf3576040805162461bcd60e51b815260206004820181905260248201527f4f776e61626c653a2063616c6c6572206973206e6f7420746865206f776e6572604482015290519081900360640190fd5b610a1a8383838080601f01602080910402602001604051908101604052809392919081815260200183838082843760009201919091525061181d92505050565b6000610d2e8b8b8b8b8b8b8b8b8b8b604051602401808060200180602001806020018781526020018060200185810385528e8e82818152602001925080828437600083820152601f01601f191690910186810385528c815260200190508c8c80828437600083820152601f01601f191690910186810384528a815260200190508a8a80828437600083820152601f01601f19169091018681038352878152602001905087878082843760008184015260408051601f19601f9093018316909401848103909201845252506020810180516386c02c8f60e01b6001600160e01b039091161790529d506119829c50505050505050505050505050565b9b9a5050505050505050505050565b610a1a838383604051806020016040528060008152506111bc565b6000610d62610abe565b8210610d9f5760405162461bcd60e51b815260040180806020018281038252602c81526020018061282c602c913960400191505060405180910390fd5b60078281548110610dac57fe5b90600052602060002001549050919050565b6000818152600160205260408120546001600160a01b031680610e125760405162461bcd60e51b81526004018080602001828103825260298152602001806127016029913960400191505060405180910390fd5b92915050565b600b8054604080516020601f60026000196101006001881615020190951694909404938401819004810282018101909252828152606093909290918301828280156108d75780601f106108ac576101008083540402835291602001916108d7565b600f805460408051602060026001851615610100026000190190941693909304601f81018490048402820184019092528181529291830182828015610eff5780601f10610ed457610100808354040283529160200191610eff565b820191906000526020600020905b815481529060010190602001808311610ee257829003601f168201915b505050505081565b60006001600160a01b038216610f4e5760405162461bcd60e51b815260040180806020018281038252602a8152602001806126d7602a913960400191505060405180910390fd5b6001600160a01b0382166000908152600360205260409020610e1290611baa565b610f77611030565b610fc8576040805162461bcd60e51b815260206004820181905260248201527f4f776e61626c653a2063616c6c6572206973206e6f7420746865206f776e6572604482015290519081900360640190fd5b600d546040516000916001600160a01b0316907f8be0079c531659141344cd1fd0a4f28419497f9722a3daafe3b4186f6b6457e0908390a3600d80546001600160a01b0319169055565b6010546001600160a01b031681565b600d546001600160a01b031690565b600d546000906001600160a01b0316611047611553565b6001600160a01b031614905090565b600a8054604080516020601f60026000196101006001881615020190951694909404938401819004810282018101909252828152606093909290918301828280156108d75780601f106108ac576101008083540402835291602001916108d7565b6110bf611553565b6001600160a01b0316826001600160a01b03161415611125576040805162461bcd60e51b815260206004820152601960248201527f4552433732313a20617070726f766520746f2063616c6c657200000000000000604482015290519081900360640190fd5b8060046000611132611553565b6001600160a01b03908116825260208083019390935260409182016000908120918716808252919093529120805460ff191692151592909217909155611176611553565b60408051841515815290516001600160a01b0392909216917f17307eab39ab6107e8899845ad3d59bd9653f200f220920489ca2b5937696c319181900360200190a35050565b6111cd6111c7611553565b83611628565b6112085760405162461bcd60e51b81526004018080602001828103825260318152602001806127fb6031913960400191505060405180910390fd5b61121484848484611bae565b50505050565b600061122e826001600160a01b0316611536565b80610e1257506010546001600160a01b031615801590610e1257506010546040805163c3c5a54760e01b81526001600160a01b0385811660048301529151919092169163c3c5a547916024808301926020929190829003018186803b15801561129657600080fd5b505afa1580156112aa573d6000803e3d6000fd5b505050506040513d60208110156112c057600080fd5b505192915050565b60606112d382611536565b61130e5760405162461bcd60e51b815260040180806020018281038252602f8152602001806127ab602f913960400191505060405180910390fd5b6000828152600c602090815260409182902080548351601f60026000196101006001861615020190931692909204918201849004840281018401909452808452606093928301828280156113a35780601f10611378576101008083540402835291602001916113a3565b820191906000526020600020905b81548152906001019060200180831161138657829003601f168201915b505050505090508051600014156113ca575050604080516020810190915260008152610846565b600b81604051602001808380546001816001161561010002031660029004801561142b5780601f1061140957610100808354040283529182019161142b565b820191906000526020600020905b815481529060010190602001808311611417575b5050825160208401908083835b602083106114575780518252601f199092019160209182019101611438565b6001836020036101000a03801982511681845116808217855250505050505090500192505050604051602081830303815290604052915050610846565b6001600160a01b03918216600090815260046020908152604080832093909416825291909152205460ff1690565b600e546001600160a01b031681565b6114d9611030565b61152a576040805162461bcd60e51b815260206004820181905260248201527f4f776e61626c653a2063616c6c6572206973206e6f7420746865206f776e6572604482015290519081900360640190fd5b61153381611c00565b50565b6000908152600160205260409020546001600160a01b0316151590565b3390565b600081815260026020526040902080546001600160a01b0319166001600160a01b038416908117909155819061158c82610dbe565b6001600160a01b03167f8c5be1e5ebec7d5bd14f71427d1e84f3dd0314c0f7b2291e5b200ac8c7c3b92560405160405180910390a45050565b6115ce82611536565b6116095760405162461bcd60e51b815260040180806020018281038252602c815260200180612756602c913960400191505060405180910390fd5b6000828152600c602090815260409091208251610a1a928401906124cb565b600061163382611536565b61166e5760405162461bcd60e51b815260040180806020018281038252602c815260200180612673602c913960400191505060405180910390fd5b600061167983610dbe565b9050806001600160a01b0316846001600160a01b031614806116b45750836001600160a01b03166116a9846108e2565b6001600160a01b0316145b806116c457506116c48185611494565b949350505050565b826001600160a01b03166116df82610dbe565b6001600160a01b0316146117245760405162461bcd60e51b81526004018080602001828103825260298152602001806127826029913960400191505060405180910390fd5b6001600160a01b0382166117695760405162461bcd60e51b815260040180806020018281038252602481526020018061264f6024913960400191505060405180910390fd5b611774838383611ca1565b61177f600082611557565b6001600160a01b03831660009081526003602052604090206117a090611cac565b6001600160a01b03821660009081526003602052604090206117c190611cc3565b60008181526001602052604080822080546001600160a01b0319166001600160a01b0386811691821790925591518493918716917fddf252ad1be2c89b69c2b068fc378daa952ba7f163c4a11628f55a4df523b3ef91a4505050565b604080516302571be360e01b81527f91d1777781884d03a6757a803996e38de2a42967fb37eeaca72729271025a9e2600482015290516001600160a01b038416916302571be3916024808301926020929190829003018186803b15801561188357600080fd5b505afa158015611897573d6000803e3d6000fd5b505050506040513d60208110156118ad57600080fd5b505160405163c47f002760e01b81526020600482018181528451602484015284516001600160a01b039094169363c47f002793869383926044909201919085019080838360005b8381101561190c5781810151838201526020016118f4565b50505050905090810190601f1680156119395780820380516001836020036101000a031916815260200191505b5092505050602060405180830381600087803b15801561195857600080fd5b505af115801561196c573d6000803e3d6000fd5b505050506040513d602081101561121457600080fd5b600080611ab383856040516020018083805190602001908083835b602083106119bc5780518252601f19909201916020918201910161199d565b6001836020036101000a038019825116818451168082178552505050505050905001826001600160a01b03166001600160a01b031660601b81526014019250505060405160208183030381529060405280519060200120600f8054600181600116156101000203166002900480601f016020809104026020016040519081016040528092919081815260200182805460018160011615610100020316600290048015611aa95780601f10611a7e57610100808354040283529160200191611aa9565b820191906000526020600020905b815481529060010190602001808311611a8c57829003601f168201915b5050505050611ccc565b600e546040805163347d5e2560e21b81526001600160a01b0392831660048201818152602483019384528851604484015288519596509386169463d1f5789494919389939091606490910190602085019080838360005b83811015611b22578181015183820152602001611b0a565b50505050905090810190601f168015611b4f5780820380516001836020036101000a031916815260200191505b509350505050600060405180830381600087803b158015611b6f57600080fd5b505af1158015611b83573d6000803e3d6000fd5b50505050611b9a84826001600160a01b0316611d3d565b6001600160a01b03169392505050565b5490565b611bb98484846116cc565b611bc584848484611e7a565b6112145760405162461bcd60e51b81526004018080602001828103825260328152602001806125f76032913960400191505060405180910390fd5b6001600160a01b038116611c455760405162461bcd60e51b81526004018080602001828103825260268152602001806126296026913960400191505060405180910390fd5b600d546040516001600160a01b038084169216907f8be0079c531659141344cd1fd0a4f28419497f9722a3daafe3b4186f6b6457e090600090a3600d80546001600160a01b0319166001600160a01b0392909216919091179055565b610a1a8383836120b5565b8054611cbf90600163ffffffff61210c16565b9055565b80546001019055565b600080838351602085016000f590506001600160a01b038116611d36576040805162461bcd60e51b815260206004820152601960248201527f437265617465323a204661696c6564206f6e206465706c6f7900000000000000604482015290519081900360640190fd5b9392505050565b6001600160a01b038216611d98576040805162461bcd60e51b815260206004820181905260248201527f4552433732313a206d696e7420746f20746865207a65726f2061646472657373604482015290519081900360640190fd5b611da181611536565b15611df3576040805162461bcd60e51b815260206004820152601c60248201527f4552433732313a20746f6b656e20616c7265616479206d696e74656400000000604482015290519081900360640190fd5b611dff60008383611ca1565b600081815260016020908152604080832080546001600160a01b0319166001600160a01b038716908117909155835260039091529020611e3e90611cc3565b60405181906001600160a01b038416906000907fddf252ad1be2c89b69c2b068fc378daa952ba7f163c4a11628f55a4df523b3ef908290a45050565b6000611e8e846001600160a01b031661214e565b611e9a575060016116c4565b600060606001600160a01b038616630a85bd0160e11b611eb8611553565b89888860405160240180856001600160a01b03166001600160a01b03168152602001846001600160a01b03166001600160a01b0316815260200183815260200180602001828103825283818151815260200191508051906020019080838360005b83811015611f31578181015183820152602001611f19565b50505050905090810190601f168015611f5e5780820380516001836020036101000a031916815260200191505b5060408051601f198184030181529181526020820180516001600160e01b03166001600160e01b0319909a16999099178952518151919890975087965094509250829150849050835b60208310611fc65780518252601f199092019160209182019101611fa7565b6001836020036101000a0380198251168184511680821785525050505050509050019150506000604051808303816000865af19150503d8060008114612028576040519150601f19603f3d011682016040523d82523d6000602084013e61202d565b606091505b50915091508161207e578051156120475780518082602001fd5b60405162461bcd60e51b81526004018080602001828103825260328152602001806125f76032913960400191505060405180910390fd5b600081806020019051602081101561209557600080fd5b50516001600160e01b031916630a85bd0160e11b1493506116c492505050565b6120c0838383612187565b6001600160a01b038216610a1a576000818152600c60205260409020546002600019610100600184161502019091160415610a1a576000818152600c60205260408120610a1a91612549565b6000611d3683836040518060400160405280601e81526020017f536166654d6174683a207375627472616374696f6e206f766572666c6f7700008152506121fc565b6000813f7fc5d2460186f7233c927e7db2dcc703c0e500b653ca82273b7bfad8045d85a4708181148015906116c4575050151592915050565b612192838383610a1a565b6001600160a01b0383166121b8576121aa8282612293565b6121b3816122d1565b610a1a565b6001600160a01b0382166121e8576121d08382612315565b6000818152600660205260408120556121b381612417565b6121f28382612315565b610a1a8282612293565b6000818484111561228b5760405162461bcd60e51b81526004018080602001828103825283818151815260200191508051906020019080838360005b83811015612250578181015183820152602001612238565b50505050905090810190601f16801561227d5780820380516001836020036101000a031916815260200191505b509250505060405180910390fd5b505050900390565b6001600160a01b0390911660009081526005602081815260408084208054868652600684529185208290559282526001810183559183529091200155565b600780546000838152600860205260408120829055600182018355919091527fa66cc928b5edb82af9bd49922954155ab7b0942694bea4ce44661d9a8736c6880155565b6001600160a01b03821660009081526005602052604081205461233f90600163ffffffff61210c16565b6000838152600660205260409020549091508082146123da576001600160a01b038416600090815260056020526040812080548490811061237c57fe5b906000526020600020015490508060056000876001600160a01b03166001600160a01b0316815260200190815260200160002083815481106123ba57fe5b600091825260208083209091019290925591825260069052604090208190555b6001600160a01b03841660009081526005602052604090208054806123fb57fe5b6001900381819060005260206000200160009055905550505050565b60075460009061242e90600163ffffffff61210c16565b6000838152600860205260408120546007805493945090928490811061245057fe5b90600052602060002001549050806007838154811061246b57fe5b6000918252602080832090910192909255828152600890915260409020829055600780548061249657fe5b600190038181906000526020600020016000905590556000600860008681526020019081526020016000208190555050505050565b828054600181600116156101000203166002900490600052602060002090601f016020900481019282601f1061250c57805160ff1916838001178555612539565b82800160010185558215612539579182015b8281111561253957825182559160200191906001019061251e565b50612545929150612589565b5090565b50805460018160011615610100020316600290046000825580601f1061256f5750611533565b601f01602090049060005260206000209081019061153391905b6108df91905b80821115612545576000815560010161258f56fe4552433732313a20616363657373207265737472696374656420746f20746f6b656e206f776e6572455243373231456e756d657261626c653a206f776e657220696e646578206f7574206f6620626f756e64734552433732313a207472616e7366657220746f206e6f6e20455243373231526563656976657220696d706c656d656e7465724f776e61626c653a206e6577206f776e657220697320746865207a65726f20616464726573734552433732313a207472616e7366657220746f20746865207a65726f20616464726573734552433732313a206f70657261746f7220717565727920666f72206e6f6e6578697374656e7420746f6b656e4552433732313a20617070726f76652063616c6c6572206973206e6f74206f776e6572206e6f7220617070726f76656420666f7220616c6c4552433732313a2062616c616e636520717565727920666f7220746865207a65726f20616464726573734552433732313a206f776e657220717565727920666f72206e6f6e6578697374656e7420746f6b656e4552433732313a20617070726f76656420717565727920666f72206e6f6e6578697374656e7420746f6b656e4552433732314d657461646174613a2055524920736574206f66206e6f6e6578697374656e7420746f6b656e4552433732313a207472616e73666572206f6620746f6b656e2074686174206973206e6f74206f776e4552433732314d657461646174613a2055524920717565727920666f72206e6f6e6578697374656e7420746f6b656e4552433732313a20617070726f76616c20746f2063757272656e74206f776e65724552433732313a207472616e736665722063616c6c6572206973206e6f74206f776e6572206e6f7220617070726f766564455243373231456e756d657261626c653a20676c6f62616c20696e646578206f7574206f6620626f756e6473a2646970667358221220b471a45d2850ae1501d929951d2cf2c8817fc42a399ae300c1a71849f4c0fad564736f6c63430006030033608060405234801561001057600080fd5b50610a19806100206000396000f3fe608060405234801561001057600080fd5b50600436106100935760003560e01c806384aaf12e1161006657806384aaf12e146101c157806386c02c8f146101db5780638da5cb5b14610416578063e30d26a81461041e578063f8c2ceb31461042657610093565b80633121db1c14610098578063358982a31461011857806339e75d45146101955780637b1039991461019d575b600080fd5b610116600480360360408110156100ae57600080fd5b6001600160a01b038235169190810190604081016020820135600160201b8111156100d857600080fd5b8201836020820111156100ea57600080fd5b803590602001918460018302840111600160201b8311171561010b57600080fd5b50909250905061042e565b005b6101206104d7565b6040805160208082528351818301528351919283929083019185019080838360005b8381101561015a578181015183820152602001610142565b50505050905090810190601f1680156101875780820380516001836020036101000a031916815260200191505b509250505060405180910390f35b610120610564565b6101a56105bf565b604080516001600160a01b039092168252519081900360200190f35b6101c96105ce565b60408051918252519081900360200190f35b610116600480360360a08110156101f157600080fd5b810190602081018135600160201b81111561020b57600080fd5b82018360208201111561021d57600080fd5b803590602001918460018302840111600160201b8311171561023e57600080fd5b91908080601f0160208091040260200160405190810160405280939291908181526020018383808284376000920191909152509295949360208101935035915050600160201b81111561029057600080fd5b8201836020820111156102a257600080fd5b803590602001918460018302840111600160201b831117156102c357600080fd5b91908080601f0160208091040260200160405190810160405280939291908181526020018383808284376000920191909152509295949360208101935035915050600160201b81111561031557600080fd5b82018360208201111561032757600080fd5b803590602001918460018302840111600160201b8311171561034857600080fd5b91908080601f01602080910402602001604051908101604052809392919081815260200183838082843760009201919091525092958435959094909350604081019250602001359050600160201b8111156103a257600080fd5b8201836020820111156103b457600080fd5b803590602001918460018302840111600160201b831117156103d557600080fd5b91908080601f0160208091040260200160405190810160405280939291908181526020018383808284376000920191909152509295506105d4945050505050565b6101a5610639565b6101206106b7565b610120610712565b33610437610639565b6001600160a01b031614610492576040805162461bcd60e51b815260206004820152601760248201527f63616c6c6572206973206e6f7420746865206f776e6572000000000000000000604482015290519081900360640190fd5b6104d28383838080601f01602080910402602001604051908101604052809392919081815260200183838082843760009201919091525061076a92505050565b505050565b60018054604080516020600284861615610100026000190190941693909304601f8101849004840282018401909252818152929183018282801561055c5780601f106105315761010080835404028352916020019161055c565b820191906000526020600020905b81548152906001019060200180831161053f57829003601f168201915b505050505081565b6003805460408051602060026001851615610100026000190190941693909304601f8101849004840282018401909252818152929183018282801561055c5780601f106105315761010080835404028352916020019161055c565b6000546001600160a01b031681565b60045481565b6105dd336108d5565b84516105f090600190602088019061094b565b50835161060490600290602087019061094b565b50825161061890600390602086019061094b565b506004829055805161063190600590602084019061094b565b505050505050565b60008054604080516331a9108f60e11b815230600482015290516001600160a01b0390921691636352211e91602480820192602092909190829003018186803b15801561068557600080fd5b505afa158015610699573d6000803e3d6000fd5b505050506040513d60208110156106af57600080fd5b505190505b90565b6005805460408051602060026001851615610100026000190190941693909304601f8101849004840282018401909252818152929183018282801561055c5780601f106105315761010080835404028352916020019161055c565b6002805460408051602060018416156101000260001901909316849004601f8101849004840282018401909252818152929183018282801561055c5780601f106105315761010080835404028352916020019161055c565b604080516302571be360e01b81527f91d1777781884d03a6757a803996e38de2a42967fb37eeaca72729271025a9e2600482015290516001600160a01b038416916302571be3916024808301926020929190829003018186803b1580156107d057600080fd5b505afa1580156107e4573d6000803e3d6000fd5b505050506040513d60208110156107fa57600080fd5b505160405163c47f002760e01b81526020600482018181528451602484015284516001600160a01b039094169363c47f002793869383926044909201919085019080838360005b83811015610859578181015183820152602001610841565b50505050905090810190601f1680156108865780820380516001836020036101000a031916815260200191505b5092505050602060405180830381600087803b1580156108a557600080fd5b505af11580156108b9573d6000803e3d6000fd5b505050506040513d60208110156108cf57600080fd5b50505050565b6000546001600160a01b031615610929576040805162461bcd60e51b8152602060048201526013602482015272185b1c9958591e481a5b9a5d1a585b1a5e9959606a1b604482015290519081900360640190fd5b600080546001600160a01b0319166001600160a01b0392909216919091179055565b828054600181600116156101000203166002900490600052602060002090601f016020900481019282601f1061098c57805160ff19168380011785556109b9565b828001600101855582156109b9579182015b828111156109b957825182559160200191906001019061099e565b506109c59291506109c9565b5090565b6106b491905b808211156109c557600081556001016109cf56fea2646970667358221220189868a3004df753f718ab9cbc680090a5ff4a101003a9f9607204d5d8f220ee64736f6c63430006030033608060405234801561001057600080fd5b506103ad806100206000396000f3fe6080604052600436106100225760003560e01c8063d1f578941461003957610031565b366100315761002f6100ef565b005b61002f6100ef565b61002f6004803603604081101561004f57600080fd5b6001600160a01b03823516919081019060408101602082013564010000000081111561007a57600080fd5b82018360208201111561008c57600080fd5b803590602001918460018302840111640100000000831117156100ae57600080fd5b91908080601f016020809104026020016040519081016040528093929190818152602001838380828437600092019190915250929550610109945050505050565b6100f7610107565b61010761010261022c565b610251565b565b600061011361022c565b6001600160a01b03161461012657600080fd5b60405180602361031a82396040519081900360230190207f7050c9e0f4ca769c69bd3a8ef740bc37934f8e2c036e5a723fd8ee048ed3f8c314905061016757fe5b61017082610275565b805115610228576000826001600160a01b0316826040518082805190602001908083835b602083106101b35780518252601f199092019160209182019101610194565b6001836020036101000a038019825116818451168082178552505050505050905001915050600060405180830381855af49150503d8060008114610213576040519150601f19603f3d011682016040523d82523d6000602084013e610218565b606091505b505090508061022657600080fd5b505b5050565b7f7050c9e0f4ca769c69bd3a8ef740bc37934f8e2c036e5a723fd8ee048ed3f8c35490565b3660008037600080366000845af43d6000803e808015610270573d6000f35b3d6000fd5b61027e816102dd565b6102b95760405162461bcd60e51b815260040180806020018281038252603b81526020018061033d603b913960400191505060405180910390fd5b7f7050c9e0f4ca769c69bd3a8ef740bc37934f8e2c036e5a723fd8ee048ed3f8c355565b6000813f7fc5d2460186f7233c927e7db2dcc703c0e500b653ca82273b7bfad8045d85a47081811480159061031157508115155b94935050505056fe6f72672e7a657070656c696e6f732e70726f78792e696d706c656d656e746174696f6e43616e6e6f742073657420612070726f787920696d706c656d656e746174696f6e20746f2061206e6f6e2d636f6e74726163742061646472657373a2646970667358221220c689741fe0e4d8735c2255691a7e0a15905936266210ddbdcdfd5d74591399df64736f6c63430006030033",
  "source": "pragma solidity ^0.6.0;\n\nimport '../Registry.sol';\nimport './App.sol';\n\n\ncontract AppRegistry is Registry\n{\n\t/**\n\t * Constructor\n\t */\n\tconstructor(address _previous)\n\tpublic Registry(\n\t\taddress(new App()),\n\t\t\"iExec Application Registry (V5)\",\n\t\t\"iExecAppsV5\",\n\t\t_previous)\n\t{\n\t}\n\n\t/**\n\t * App creation\n\t */\n\tfunction createApp(\n\t\taddress          _appOwner,\n\t\tstring  calldata _appName,\n\t\tstring  calldata _appType,\n\t\tbytes   calldata _appMultiaddr,\n\t\tbytes32          _appChecksum,\n\t\tbytes   calldata _appMREnclave)\n\texternal returns (App)\n\t{\n\t\treturn App(_mintCreate(\n\t\t\t_appOwner,\n\t\t\tabi.encodeWithSignature(\n\t\t\t\t\"initialize(string,string,bytes,bytes32,bytes)\",\n\t\t\t\t_appName,\n\t\t\t\t_appType,\n\t\t\t\t_appMultiaddr,\n\t\t\t\t_appChecksum,\n\t\t\t\t_appMREnclave\n\t\t\t)\n\t\t));\n\t}\n}\n",
  "sourcePath": "/home/amxx/Work/iExec/code/PoCo-dev/contracts/registries/apps/AppRegistry.sol",
  "compiler": {
    "name": "solc",
    "version": "0.6.3+commit.8dda9521.Emscripten.clang"
  },
  "schemaVersion": "3.0.23",
  "updatedAt": "2020-03-09T10:58:45.622Z",
  "networkType": "ethereum",
  "devdoc": {
    "methods": {
      "approve(address,uint256)": {
        "details": "Approves another address to transfer the given token ID The zero address indicates there is no approved address. There can only be one approved address per token at a given time. Can only be called by the token owner or an approved operator.",
        "params": {
          "to": "address to be approved for the given token ID",
          "tokenId": "uint256 ID of the token to be approved"
        }
      },
      "balanceOf(address)": {
        "details": "Gets the balance of the specified address.",
        "params": {
          "owner": "address to query the balance of"
        },
        "returns": {
          "_0": "uint256 representing the amount owned by the passed address"
        }
      },
      "baseURI()": {
        "details": "Returns the base URI set via {_setBaseURI}. This will be automatically added as a preffix in {tokenURI} to each token's URI, when they are non-empty.    * _Available since v2.5.0._"
      },
      "getApproved(uint256)": {
        "details": "Gets the approved address for a token ID, or zero if no address set Reverts if the token ID does not exist.",
        "params": {
          "tokenId": "uint256 ID of the token to query the approval of"
        },
        "returns": {
          "_0": "address currently approved for the given token ID"
        }
      },
      "isApprovedForAll(address,address)": {
        "details": "Tells whether an operator is approved by a given owner.",
        "params": {
          "operator": "operator address which you want to query the approval of",
          "owner": "owner address which you want to query the approval of"
        },
        "returns": {
          "_0": "bool whether the given operator is approved by the given owner"
        }
      },
      "isOwner()": {
        "details": "Returns true if the caller is the current owner."
      },
      "name()": {
        "details": "Gets the token name.",
        "returns": {
          "_0": "string representing the token name"
        }
      },
      "owner()": {
        "details": "Returns the address of the current owner."
      },
      "ownerOf(uint256)": {
        "details": "Gets the owner of the specified token ID.",
        "params": {
          "tokenId": "uint256 ID of the token to query the owner of"
        },
        "returns": {
          "_0": "address currently marked as the owner of the given token ID"
        }
      },
      "renounceOwnership()": {
        "details": "Leaves the contract without owner. It will not be possible to call `onlyOwner` functions anymore. Can only be called by the current owner.     * NOTE: Renouncing ownership will leave the contract without an owner, thereby removing any functionality that is only available to the owner."
      },
      "safeTransferFrom(address,address,uint256)": {
        "details": "Safely transfers the ownership of a given token ID to another address If the target address is a contract, it must implement {IERC721Receiver-onERC721Received}, which is called upon a safe transfer, and return the magic value `bytes4(keccak256(\"onERC721Received(address,address,uint256,bytes)\"))`; otherwise, the transfer is reverted. Requires the msg.sender to be the owner, approved, or operator",
        "params": {
          "from": "current owner of the token",
          "to": "address to receive the ownership of the given token ID",
          "tokenId": "uint256 ID of the token to be transferred"
        }
      },
      "safeTransferFrom(address,address,uint256,bytes)": {
        "details": "Safely transfers the ownership of a given token ID to another address If the target address is a contract, it must implement {IERC721Receiver-onERC721Received}, which is called upon a safe transfer, and return the magic value `bytes4(keccak256(\"onERC721Received(address,address,uint256,bytes)\"))`; otherwise, the transfer is reverted. Requires the _msgSender() to be the owner, approved, or operator",
        "params": {
          "_data": "bytes data to send along with a safe transfer check",
          "from": "current owner of the token",
          "to": "address to receive the ownership of the given token ID",
          "tokenId": "uint256 ID of the token to be transferred"
        }
      },
      "setApprovalForAll(address,bool)": {
        "details": "Sets or unsets the approval of a given operator An operator is allowed to transfer all tokens of the sender on their behalf.",
        "params": {
          "approved": "representing the status of the approval to be set",
          "operator": "operator address to set the approval"
        }
      },
      "supportsInterface(bytes4)": {
        "details": "See {IERC165-supportsInterface}.     * Time complexity O(1), guaranteed to always use less than 30 000 gas."
      },
      "symbol()": {
        "details": "Gets the token symbol.",
        "returns": {
          "_0": "string representing the token symbol"
        }
      },
      "tokenByIndex(uint256)": {
        "details": "Gets the token ID at a given index of all the tokens in this contract Reverts if the index is greater or equal to the total number of tokens.",
        "params": {
          "index": "uint256 representing the index to be accessed of the tokens list"
        },
        "returns": {
          "_0": "uint256 token ID at the given index of the tokens list"
        }
      },
      "tokenOfOwnerByIndex(address,uint256)": {
        "details": "Gets the token ID at a given index of the tokens list of the requested owner.",
        "params": {
          "index": "uint256 representing the index to be accessed of the requested tokens list",
          "owner": "address owning the tokens list to be accessed"
        },
        "returns": {
          "_0": "uint256 token ID at the given index of the tokens list owned by the requested address"
        }
      },
      "tokenURI(uint256)": {
        "details": "Returns the URI for a given token ID. May return an empty string.     * If the token's URI is non-empty and a base URI was set (via {_setBaseURI}), it will be added to the token ID's URI as a prefix.     * Reverts if the token ID does not exist."
      },
      "totalSupply()": {
        "details": "Gets the total amount of tokens stored by the contract.",
        "returns": {
          "_0": "uint256 representing the total amount of tokens"
        }
      },
      "transferFrom(address,address,uint256)": {
        "details": "Transfers the ownership of a given token ID to another address. Usage of this method is discouraged, use {safeTransferFrom} whenever possible. Requires the msg.sender to be the owner, approved, or operator.",
        "params": {
          "from": "current owner of the token",
          "to": "address to receive the ownership of the given token ID",
          "tokenId": "uint256 ID of the token to be transferred"
        }
      },
      "transferOwnership(address)": {
        "details": "Transfers ownership of the contract to a new account (`newOwner`). Can only be called by the current owner."
      }
    }
  },
  "userdoc": {
    "methods": {
      "constructor": "Constructor",
      "createApp(address,string,string,bytes,bytes32,bytes)": {
        "notice": "App creation"
      }
    }
  }
}