{
  "contractName": "AppRegistry",
  "abi": [
    {
      "inputs": [],
      "stateMutability": "nonpayable",
      "type": "constructor"
    },
    {
      "anonymous": false,
      "inputs": [
        {
          "indexed": true,
          "internalType": "address",
          "name": "owner",
          "type": "address"
        },
        {
          "indexed": true,
          "internalType": "address",
          "name": "approved",
          "type": "address"
        },
        {
          "indexed": true,
          "internalType": "uint256",
          "name": "tokenId",
          "type": "uint256"
        }
      ],
      "name": "Approval",
      "type": "event"
    },
    {
      "anonymous": false,
      "inputs": [
        {
          "indexed": true,
          "internalType": "address",
          "name": "owner",
          "type": "address"
        },
        {
          "indexed": true,
          "internalType": "address",
          "name": "operator",
          "type": "address"
        },
        {
          "indexed": false,
          "internalType": "bool",
          "name": "approved",
          "type": "bool"
        }
      ],
      "name": "ApprovalForAll",
      "type": "event"
    },
    {
      "anonymous": false,
      "inputs": [
        {
          "indexed": true,
          "internalType": "address",
          "name": "previousOwner",
          "type": "address"
        },
        {
          "indexed": true,
          "internalType": "address",
          "name": "newOwner",
          "type": "address"
        }
      ],
      "name": "OwnershipTransferred",
      "type": "event"
    },
    {
      "anonymous": false,
      "inputs": [
        {
          "indexed": true,
          "internalType": "address",
          "name": "from",
          "type": "address"
        },
        {
          "indexed": true,
          "internalType": "address",
          "name": "to",
          "type": "address"
        },
        {
          "indexed": true,
          "internalType": "uint256",
          "name": "tokenId",
          "type": "uint256"
        }
      ],
      "name": "Transfer",
      "type": "event"
    },
    {
      "inputs": [
        {
          "internalType": "address",
          "name": "to",
          "type": "address"
        },
        {
          "internalType": "uint256",
          "name": "tokenId",
          "type": "uint256"
        }
      ],
      "name": "approve",
      "outputs": [],
      "stateMutability": "nonpayable",
      "type": "function"
    },
    {
      "inputs": [
        {
          "internalType": "address",
          "name": "owner",
          "type": "address"
        }
      ],
      "name": "balanceOf",
      "outputs": [
        {
          "internalType": "uint256",
          "name": "",
          "type": "uint256"
        }
      ],
      "stateMutability": "view",
      "type": "function",
      "constant": true
    },
    {
      "inputs": [],
      "name": "baseURI",
      "outputs": [
        {
          "internalType": "string",
          "name": "",
          "type": "string"
        }
      ],
      "stateMutability": "view",
      "type": "function",
      "constant": true
    },
    {
      "inputs": [
        {
          "internalType": "uint256",
          "name": "tokenId",
          "type": "uint256"
        }
      ],
      "name": "getApproved",
      "outputs": [
        {
          "internalType": "address",
          "name": "",
          "type": "address"
        }
      ],
      "stateMutability": "view",
      "type": "function",
      "constant": true
    },
    {
      "inputs": [
        {
          "internalType": "address",
          "name": "_previous",
          "type": "address"
        }
      ],
      "name": "initialize",
      "outputs": [],
      "stateMutability": "nonpayable",
      "type": "function"
    },
    {
      "inputs": [],
      "name": "initialized",
      "outputs": [
        {
          "internalType": "bool",
          "name": "",
          "type": "bool"
        }
      ],
      "stateMutability": "view",
      "type": "function",
      "constant": true
    },
    {
      "inputs": [
        {
          "internalType": "address",
          "name": "owner",
          "type": "address"
        },
        {
          "internalType": "address",
          "name": "operator",
          "type": "address"
        }
      ],
      "name": "isApprovedForAll",
      "outputs": [
        {
          "internalType": "bool",
          "name": "",
          "type": "bool"
        }
      ],
      "stateMutability": "view",
      "type": "function",
      "constant": true
    },
    {
      "inputs": [
        {
          "internalType": "address",
          "name": "_entry",
          "type": "address"
        }
      ],
      "name": "isRegistered",
      "outputs": [
        {
          "internalType": "bool",
          "name": "",
          "type": "bool"
        }
      ],
      "stateMutability": "view",
      "type": "function",
      "constant": true
    },
    {
      "inputs": [],
      "name": "master",
      "outputs": [
        {
          "internalType": "address",
          "name": "",
          "type": "address"
        }
      ],
      "stateMutability": "view",
      "type": "function",
      "constant": true
    },
    {
      "inputs": [],
      "name": "name",
      "outputs": [
        {
          "internalType": "string",
          "name": "",
          "type": "string"
        }
      ],
      "stateMutability": "view",
      "type": "function",
      "constant": true
    },
    {
      "inputs": [],
      "name": "owner",
      "outputs": [
        {
          "internalType": "address",
          "name": "",
          "type": "address"
        }
      ],
      "stateMutability": "view",
      "type": "function",
      "constant": true
    },
    {
      "inputs": [
        {
          "internalType": "uint256",
          "name": "tokenId",
          "type": "uint256"
        }
      ],
      "name": "ownerOf",
      "outputs": [
        {
          "internalType": "address",
          "name": "",
          "type": "address"
        }
      ],
      "stateMutability": "view",
      "type": "function",
      "constant": true
    },
    {
      "inputs": [],
      "name": "previous",
      "outputs": [
        {
          "internalType": "contract IRegistry",
          "name": "",
          "type": "address"
        }
      ],
      "stateMutability": "view",
      "type": "function",
      "constant": true
    },
    {
      "inputs": [],
      "name": "proxyCode",
      "outputs": [
        {
          "internalType": "bytes",
          "name": "",
          "type": "bytes"
        }
      ],
      "stateMutability": "view",
      "type": "function",
      "constant": true
    },
    {
      "inputs": [],
      "name": "proxyCodeHash",
      "outputs": [
        {
          "internalType": "bytes32",
          "name": "",
          "type": "bytes32"
        }
      ],
      "stateMutability": "view",
      "type": "function",
      "constant": true
    },
    {
      "inputs": [],
      "name": "renounceOwnership",
      "outputs": [],
      "stateMutability": "nonpayable",
      "type": "function"
    },
    {
      "inputs": [
        {
          "internalType": "address",
          "name": "from",
          "type": "address"
        },
        {
          "internalType": "address",
          "name": "to",
          "type": "address"
        },
        {
          "internalType": "uint256",
          "name": "tokenId",
          "type": "uint256"
        }
      ],
      "name": "safeTransferFrom",
      "outputs": [],
      "stateMutability": "nonpayable",
      "type": "function"
    },
    {
      "inputs": [
        {
          "internalType": "address",
          "name": "from",
          "type": "address"
        },
        {
          "internalType": "address",
          "name": "to",
          "type": "address"
        },
        {
          "internalType": "uint256",
          "name": "tokenId",
          "type": "uint256"
        },
        {
          "internalType": "bytes",
          "name": "_data",
          "type": "bytes"
        }
      ],
      "name": "safeTransferFrom",
      "outputs": [],
      "stateMutability": "nonpayable",
      "type": "function"
    },
    {
      "inputs": [
        {
          "internalType": "address",
          "name": "operator",
          "type": "address"
        },
        {
          "internalType": "bool",
          "name": "approved",
          "type": "bool"
        }
      ],
      "name": "setApprovalForAll",
      "outputs": [],
      "stateMutability": "nonpayable",
      "type": "function"
    },
    {
      "inputs": [
        {
          "internalType": "string",
          "name": "_baseURI",
          "type": "string"
        }
      ],
      "name": "setBaseURI",
      "outputs": [],
      "stateMutability": "nonpayable",
      "type": "function"
    },
    {
      "inputs": [
        {
          "internalType": "address",
          "name": "_ens",
          "type": "address"
        },
        {
          "internalType": "string",
          "name": "_name",
          "type": "string"
        }
      ],
      "name": "setName",
      "outputs": [],
      "stateMutability": "nonpayable",
      "type": "function"
    },
    {
      "inputs": [
        {
          "internalType": "bytes4",
          "name": "interfaceId",
          "type": "bytes4"
        }
      ],
      "name": "supportsInterface",
      "outputs": [
        {
          "internalType": "bool",
          "name": "",
          "type": "bool"
        }
      ],
      "stateMutability": "view",
      "type": "function",
      "constant": true
    },
    {
      "inputs": [],
      "name": "symbol",
      "outputs": [
        {
          "internalType": "string",
          "name": "",
          "type": "string"
        }
      ],
      "stateMutability": "view",
      "type": "function",
      "constant": true
    },
    {
      "inputs": [
        {
          "internalType": "uint256",
          "name": "index",
          "type": "uint256"
        }
      ],
      "name": "tokenByIndex",
      "outputs": [
        {
          "internalType": "uint256",
          "name": "",
          "type": "uint256"
        }
      ],
      "stateMutability": "view",
      "type": "function",
      "constant": true
    },
    {
      "inputs": [
        {
          "internalType": "address",
          "name": "owner",
          "type": "address"
        },
        {
          "internalType": "uint256",
          "name": "index",
          "type": "uint256"
        }
      ],
      "name": "tokenOfOwnerByIndex",
      "outputs": [
        {
          "internalType": "uint256",
          "name": "",
          "type": "uint256"
        }
      ],
      "stateMutability": "view",
      "type": "function",
      "constant": true
    },
    {
      "inputs": [
        {
          "internalType": "uint256",
          "name": "tokenId",
          "type": "uint256"
        }
      ],
      "name": "tokenURI",
      "outputs": [
        {
          "internalType": "string",
          "name": "",
          "type": "string"
        }
      ],
      "stateMutability": "view",
      "type": "function",
      "constant": true
    },
    {
      "inputs": [],
      "name": "totalSupply",
      "outputs": [
        {
          "internalType": "uint256",
          "name": "",
          "type": "uint256"
        }
      ],
      "stateMutability": "view",
      "type": "function",
      "constant": true
    },
    {
      "inputs": [
        {
          "internalType": "address",
          "name": "from",
          "type": "address"
        },
        {
          "internalType": "address",
          "name": "to",
          "type": "address"
        },
        {
          "internalType": "uint256",
          "name": "tokenId",
          "type": "uint256"
        }
      ],
      "name": "transferFrom",
      "outputs": [],
      "stateMutability": "nonpayable",
      "type": "function"
    },
    {
      "inputs": [
        {
          "internalType": "address",
          "name": "newOwner",
          "type": "address"
        }
      ],
      "name": "transferOwnership",
      "outputs": [],
      "stateMutability": "nonpayable",
      "type": "function"
    },
    {
      "inputs": [
        {
          "internalType": "address",
          "name": "_appOwner",
          "type": "address"
        },
        {
          "internalType": "string",
          "name": "_appName",
          "type": "string"
        },
        {
          "internalType": "string",
          "name": "_appType",
          "type": "string"
        },
        {
          "internalType": "bytes",
          "name": "_appMultiaddr",
          "type": "bytes"
        },
        {
          "internalType": "bytes32",
          "name": "_appChecksum",
          "type": "bytes32"
        },
        {
          "internalType": "bytes",
          "name": "_appMREnclave",
          "type": "bytes"
        }
      ],
      "name": "createApp",
      "outputs": [
        {
          "internalType": "contract App",
          "name": "",
          "type": "address"
        }
      ],
      "stateMutability": "nonpayable",
      "type": "function"
    },
    {
      "inputs": [
        {
          "internalType": "address",
          "name": "_appOwner",
          "type": "address"
        },
        {
          "internalType": "string",
          "name": "_appName",
          "type": "string"
        },
        {
          "internalType": "string",
          "name": "_appType",
          "type": "string"
        },
        {
          "internalType": "bytes",
          "name": "_appMultiaddr",
          "type": "bytes"
        },
        {
          "internalType": "bytes32",
          "name": "_appChecksum",
          "type": "bytes32"
        },
        {
          "internalType": "bytes",
          "name": "_appMREnclave",
          "type": "bytes"
        }
      ],
      "name": "predictApp",
      "outputs": [
        {
          "internalType": "contract App",
          "name": "",
          "type": "address"
        }
      ],
      "stateMutability": "view",
      "type": "function",
      "constant": true
    }
  ],
  "bytecode": "0x60806040523480156200001157600080fd5b506040516200002090620002c3565b604051809103906000f0801580156200003d573d6000803e3d6000fd5b50604080518082018252601f81527f6945786563204170706c69636174696f6e2052656769737472792028563529006020808301919091528251808401909352600b83526a694578656341707073563560a81b90830152908181620000a96301ffc9a760e01b6200023a565b8151620000be906006906020850190620002d1565b508051620000d4906007906020840190620002d1565b50620000e76380ac58cd60e01b6200023a565b620000f9635b5e139f60e01b6200023a565b6200010b63780e9d6360e01b6200023a565b50600090506200011a620002bf565b600a80546001600160a01b0319166001600160a01b038316908117909155604051919250906000907f8be0079c531659141344cd1fd0a4f28419497f9722a3daafe3b4186f6b6457e0908290a350600b80546001600160a01b0319166001600160a01b038516179055604051620001946020820162000356565b601f1982820381018352601f909101166040528051620001be91600c9160209190910190620002d1565b50600c6040518082805460018160011615610100020316600290048015620002205780601f10620001fd57610100808354040283529182019162000220565b820191906000526020600020905b8154815290600101906020018083116200020b575b5050604051908190039020600d55506200037b9350505050565b6001600160e01b031980821614156200029a576040805162461bcd60e51b815260206004820152601c60248201527f4552433136353a20696e76616c696420696e7465726661636520696400000000604482015290519081900360640190fd5b6001600160e01b0319166000908152602081905260409020805460ff19166001179055565b3390565b610a33806200334583390190565b828054600181600116156101000203166002900490600052602060002090601f016020900481019282601f106200031457805160ff191683800117855562000344565b8280016001018555821562000344579182015b828111156200034457825182559160200191906001019062000327565b506200035292915062000364565b5090565b6103698062003d7883390190565b5b8082111562000352576000815560010162000365565b612fba806200038b6000396000f3fe608060405234801561001057600080fd5b50600436106101e55760003560e01c80636fa59bbc1161010f578063c3c5a547116100a2578063e985e9c511610071578063e985e9c51461097e578063ee97f7f3146109ac578063eee39111146109b4578063f2fde38b146109bc576101e5565b8063c3c5a547146107a3578063c4d66de8146107c9578063c87b56dd146107ef578063e92118ed1461080c576101e5565b80638da5cb5b116100de5780638da5cb5b146106a157806395d89b41146106a9578063a22cb465146106b1578063b88d4fde146106df576101e5565b80636fa59bbc1461066357806370a082311461066b578063715018a6146106915780637c2b2e7114610699576101e5565b80632f745c59116101875780634f6ccce7116101565780634f6ccce7146105b357806355f804b3146105d05780636352211e1461063e5780636c0360eb1461065b576101e5565b80632f745c59146103615780633121db1c1461038d5780633f7868ff1461040b57806342842e0e1461057d576101e5565b8063095ea7b3116101c3578063095ea7b3146102db578063158ef93e1461030957806318160ddd1461031157806323b872dd1461032b576101e5565b806301ffc9a7146101ea57806306fdde0314610225578063081812fc146102a2575b600080fd5b6102116004803603602081101561020057600080fd5b50356001600160e01b0319166109e2565b604080519115158252519081900360200190f35b61022d610a05565b6040805160208082528351818301528351919283929083019185019080838360005b8381101561026757818101518382015260200161024f565b50505050905090810190601f1680156102945780820380516001836020036101000a031916815260200191505b509250505060405180910390f35b6102bf600480360360208110156102b857600080fd5b5035610a9b565b604080516001600160a01b039092168252519081900360200190f35b610307600480360360408110156102f157600080fd5b506001600160a01b038135169060200135610afd565b005b610211610bd8565b610319610be8565b60408051918252519081900360200190f35b6103076004803603606081101561034157600080fd5b506001600160a01b03813581169160208101359091169060400135610bf9565b6103196004803603604081101561037757600080fd5b506001600160a01b038135169060200135610c50565b610307600480360360408110156103a357600080fd5b6001600160a01b038235169190810190604081016020820135600160201b8111156103cd57600080fd5b8201836020820111156103df57600080fd5b803590602001918460018302840111600160201b8311171561040057600080fd5b509092509050610c7b565b6102bf600480360360c081101561042157600080fd5b6001600160a01b038235169190810190604081016020820135600160201b81111561044b57600080fd5b82018360208201111561045d57600080fd5b803590602001918460018302840111600160201b8311171561047e57600080fd5b919390929091602081019035600160201b81111561049b57600080fd5b8201836020820111156104ad57600080fd5b803590602001918460018302840111600160201b831117156104ce57600080fd5b919390929091602081019035600160201b8111156104eb57600080fd5b8201836020820111156104fd57600080fd5b803590602001918460018302840111600160201b8311171561051e57600080fd5b91939092823592604081019060200135600160201b81111561053f57600080fd5b82018360208201111561055157600080fd5b803590602001918460018302840111600160201b8311171561057257600080fd5b509092509050610d13565b6103076004803603606081101561059357600080fd5b506001600160a01b03813581169160208101359091169060400135610e1b565b610319600480360360208110156105c957600080fd5b5035610e36565b610307600480360360208110156105e657600080fd5b810190602081018135600160201b81111561060057600080fd5b82018360208201111561061257600080fd5b803590602001918460018302840111600160201b8311171561063357600080fd5b509092509050610e4c565b6102bf6004803603602081101561065457600080fd5b5035610ee7565b61022d610f0f565b61022d610f70565b6103196004803603602081101561068157600080fd5b50356001600160a01b0316610ffe565b610307611066565b6102bf611108565b6102bf611117565b61022d611126565b610307600480360360408110156106c757600080fd5b506001600160a01b0381351690602001351515611187565b610307600480360360808110156106f557600080fd5b6001600160a01b03823581169260208101359091169160408201359190810190608081016060820135600160201b81111561072f57600080fd5b82018360208201111561074157600080fd5b803590602001918460018302840111600160201b8311171561076257600080fd5b91908080601f01602080910402602001604051908101604052809392919081815260200183838082843760009201919091525092955061128c945050505050565b610211600480360360208110156107b957600080fd5b50356001600160a01b03166112ea565b610307600480360360208110156107df57600080fd5b50356001600160a01b0316611398565b61022d6004803603602081101561080557600080fd5b5035611438565b6102bf600480360360c081101561082257600080fd5b6001600160a01b038235169190810190604081016020820135600160201b81111561084c57600080fd5b82018360208201111561085e57600080fd5b803590602001918460018302840111600160201b8311171561087f57600080fd5b919390929091602081019035600160201b81111561089c57600080fd5b8201836020820111156108ae57600080fd5b803590602001918460018302840111600160201b831117156108cf57600080fd5b919390929091602081019035600160201b8111156108ec57600080fd5b8201836020820111156108fe57600080fd5b803590602001918460018302840111600160201b8311171561091f57600080fd5b91939092823592604081019060200135600160201b81111561094057600080fd5b82018360208201111561095257600080fd5b803590602001918460018302840111600160201b8311171561097357600080fd5b5090925090506116df565b6102116004803603604081101561099457600080fd5b506001600160a01b03813581169160200135166117d8565b6102bf611806565b610319611815565b610307600480360360208110156109d257600080fd5b50356001600160a01b031661181b565b6001600160e01b0319811660009081526020819052604090205460ff165b919050565b60068054604080516020601f6002600019610100600188161502019095169490940493840181900481028201810190925282815260609390929091830182828015610a915780601f10610a6657610100808354040283529160200191610a91565b820191906000526020600020905b815481529060010190602001808311610a7457829003601f168201915b5050505050905090565b6000610aa682611914565b610ae15760405162461bcd60e51b815260040180806020018281038252602c815260200180612e8f602c913960400191505060405180910390fd5b506000908152600460205260409020546001600160a01b031690565b6000610b0882610ee7565b9050806001600160a01b0316836001600160a01b03161415610b5b5760405162461bcd60e51b8152600401808060200182810382526021815260200180612f336021913960400191505060405180910390fd5b806001600160a01b0316610b6d611921565b6001600160a01b03161480610b8e5750610b8e81610b89611921565b6117d8565b610bc95760405162461bcd60e51b8152600401808060200182810382526038815260200180612de26038913960400191505060405180910390fd5b610bd38383611925565b505050565b600e54600160a01b900460ff1681565b6000610bf46002611993565b905090565b610c0a610c04611921565b8261199e565b610c455760405162461bcd60e51b8152600401808060200182810382526031815260200180612f546031913960400191505060405180910390fd5b610bd3838383611a42565b6001600160a01b0382166000908152600160205260408120610c729083611b8e565b90505b92915050565b610c83611921565b600a546001600160a01b03908116911614610cd3576040805162461bcd60e51b81526020600482018190526024820152600080516020612ebb833981519152604482015290519081900360640190fd5b610bd38383838080601f016020809104026020016040519081016040528093929190818152602001838380828437600092019190915250611b9a92505050565b6000610e0c8b610e078c8c8080601f016020809104026020016040519081016040528093929190818152602001838380828437600081840152601f19601f820116905080830192505050505050508b8b8080601f01602080910402602001604051908101604052809392919081815260200183838082843760009201919091525050604080516020601f8f018190048102820181019092528d815292508d91508c908190840183828082843760009201919091525050604080516020601f8d018190048102820181019092528b81528d935091508b908b9081908401838280828437600092019190915250611cff92505050565b611ee5565b9b9a5050505050505050505050565b610bd38383836040518060200160405280600081525061128c565b600080610e44600284612106565b509392505050565b610e54611921565b600a546001600160a01b03908116911614610ea4576040805162461bcd60e51b81526020600482018190526024820152600080516020612ebb833981519152604482015290519081900360640190fd5b610ee382828080601f01602080910402602001604051908101604052809392919081815260200183838082843760009201919091525061212292505050565b5050565b6000610c7582604051806060016040528060298152602001612e446029913960029190612135565b60098054604080516020601f6002600019610100600188161502019095169490940493840181900481028201810190925282815260609390929091830182828015610a915780601f10610a6657610100808354040283529160200191610a91565b600c805460408051602060026001851615610100026000190190941693909304601f81018490048402820184019092528181529291830182828015610ff65780601f10610fcb57610100808354040283529160200191610ff6565b820191906000526020600020905b815481529060010190602001808311610fd957829003601f168201915b505050505081565b60006001600160a01b0382166110455760405162461bcd60e51b815260040180806020018281038252602a815260200180612e1a602a913960400191505060405180910390fd5b6001600160a01b0382166000908152600160205260409020610c7590611993565b61106e611921565b600a546001600160a01b039081169116146110be576040805162461bcd60e51b81526020600482018190526024820152600080516020612ebb833981519152604482015290519081900360640190fd5b600a546040516000916001600160a01b0316907f8be0079c531659141344cd1fd0a4f28419497f9722a3daafe3b4186f6b6457e0908390a3600a80546001600160a01b0319169055565b600e546001600160a01b031681565b600a546001600160a01b031690565b60078054604080516020601f6002600019610100600188161502019095169490940493840181900481028201810190925282815260609390929091830182828015610a915780601f10610a6657610100808354040283529160200191610a91565b61118f611921565b6001600160a01b0316826001600160a01b031614156111f5576040805162461bcd60e51b815260206004820152601960248201527f4552433732313a20617070726f766520746f2063616c6c657200000000000000604482015290519081900360640190fd5b8060056000611202611921565b6001600160a01b03908116825260208083019390935260409182016000908120918716808252919093529120805460ff191692151592909217909155611246611921565b6001600160a01b03167f17307eab39ab6107e8899845ad3d59bd9653f200f220920489ca2b5937696c318360405180821515815260200191505060405180910390a35050565b61129d611297611921565b8361199e565b6112d85760405162461bcd60e51b8152600401808060200182810382526031815260200180612f546031913960400191505060405180910390fd5b6112e48484848461214c565b50505050565b60006112fe826001600160a01b0316611914565b80610c755750600e546001600160a01b031615801590610c755750600e546040805163c3c5a54760e01b81526001600160a01b0385811660048301529151919092169163c3c5a547916024808301926020929190829003018186803b15801561136657600080fd5b505afa15801561137a573d6000803e3d6000fd5b505050506040513d602081101561139057600080fd5b505192915050565b6113a0611921565b600a546001600160a01b039081169116146113f0576040805162461bcd60e51b81526020600482018190526024820152600080516020612ebb833981519152604482015290519081900360640190fd5b600e54600160a01b900460ff161561140757600080fd5b600e8054600160a01b60ff60a01b19909116176001600160a01b0319166001600160a01b0392909216919091179055565b606061144382611914565b61147e5760405162461bcd60e51b815260040180806020018281038252602f815260200180612f04602f913960400191505060405180910390fd5b60008281526008602090815260409182902080548351601f60026000196101006001861615020190931692909204918201849004840281018401909452808452606093928301828280156115135780601f106114e857610100808354040283529160200191611513565b820191906000526020600020905b8154815290600101906020018083116114f657829003601f168201915b50506009549394505050506002600019610100600184161502019091160461153c579050610a00565b80511561160d5760098160405160200180838054600181600116156101000203166002900480156115a45780601f106115825761010080835404028352918201916115a4565b820191906000526020600020905b815481529060010190602001808311611590575b5050825160208401908083835b602083106115d05780518252601f1990920191602091820191016115b1565b6001836020036101000a03801982511681845116808217855250505050505090500192505050604051602081830303815290604052915050610a00565b60096116188461219e565b60405160200180838054600181600116156101000203166002900480156116765780601f10611654576101008083540402835291820191611676565b820191906000526020600020905b815481529060010190602001808311611662575b5050825160208401908083835b602083106116a25780518252601f199092019160209182019101611683565b6001836020036101000a03801982511681845116808217855250505050505090500192505050604051602081830303815290604052915050919050565b6000610e0c8b6117d38c8c8080601f016020809104026020016040519081016040528093929190818152602001838380828437600081840152601f19601f820116905080830192505050505050508b8b8080601f01602080910402602001604051908101604052809392919081815260200183838082843760009201919091525050604080516020601f8f018190048102820181019092528d815292508d91508c908190840183828082843760009201919091525050604080516020601f8d018190048102820181019092528b81528d935091508b908b9081908401838280828437600092019190915250611cff92505050565b612279565b6001600160a01b03918216600090815260056020908152604080832093909416825291909152205460ff1690565b600b546001600160a01b031681565b600d5481565b611823611921565b600a546001600160a01b03908116911614611873576040805162461bcd60e51b81526020600482018190526024820152600080516020612ebb833981519152604482015290519081900360640190fd5b6001600160a01b0381166118b85760405162461bcd60e51b8152600401808060200182810382526026815260200180612d6c6026913960400191505060405180910390fd5b600a546040516001600160a01b038084169216907f8be0079c531659141344cd1fd0a4f28419497f9722a3daafe3b4186f6b6457e090600090a3600a80546001600160a01b0319166001600160a01b0392909216919091179055565b6000610c7560028361231a565b3390565b600081815260046020526040902080546001600160a01b0319166001600160a01b038416908117909155819061195a82610ee7565b6001600160a01b03167f8c5be1e5ebec7d5bd14f71427d1e84f3dd0314c0f7b2291e5b200ac8c7c3b92560405160405180910390a45050565b6000610c7582612326565b60006119a982611914565b6119e45760405162461bcd60e51b815260040180806020018281038252602c815260200180612db6602c913960400191505060405180910390fd5b60006119ef83610ee7565b9050806001600160a01b0316846001600160a01b03161480611a2a5750836001600160a01b0316611a1f84610a9b565b6001600160a01b0316145b80611a3a5750611a3a81856117d8565b949350505050565b826001600160a01b0316611a5582610ee7565b6001600160a01b031614611a9a5760405162461bcd60e51b8152600401808060200182810382526029815260200180612edb6029913960400191505060405180910390fd5b6001600160a01b038216611adf5760405162461bcd60e51b8152600401808060200182810382526024815260200180612d926024913960400191505060405180910390fd5b611aea838383610bd3565b611af5600082611925565b6001600160a01b0383166000908152600160205260409020611b17908261232a565b506001600160a01b0382166000908152600160205260409020611b3a9082612336565b50611b4760028284612342565b5080826001600160a01b0316846001600160a01b03167fddf252ad1be2c89b69c2b068fc378daa952ba7f163c4a11628f55a4df523b3ef60405160405180910390a4505050565b6000610c728383612358565b604080516302571be360e01b81527f91d1777781884d03a6757a803996e38de2a42967fb37eeaca72729271025a9e2600482015290516001600160a01b038416916302571be3916024808301926020929190829003018186803b158015611c0057600080fd5b505afa158015611c14573d6000803e3d6000fd5b505050506040513d6020811015611c2a57600080fd5b505160405163c47f002760e01b81526020600482018181528451602484015284516001600160a01b039094169363c47f002793869383926044909201919085019080838360005b83811015611c89578181015183820152602001611c71565b50505050905090810190601f168015611cb65780820380516001836020036101000a031916815260200191505b5092505050602060405180830381600087803b158015611cd557600080fd5b505af1158015611ce9573d6000803e3d6000fd5b505050506040513d60208110156112e457600080fd5b60608585858585604051602401808060200180602001806020018681526020018060200185810385528a818151815260200191508051906020019080838360005b83811015611d58578181015183820152602001611d40565b50505050905090810190601f168015611d855780820380516001836020036101000a031916815260200191505b5085810384528951815289516020918201918b019080838360005b83811015611db8578181015183820152602001611da0565b50505050905090810190601f168015611de55780820380516001836020036101000a031916815260200191505b5085810383528851815288516020918201918a019080838360005b83811015611e18578181015183820152602001611e00565b50505050905090810190601f168015611e455780820380516001836020036101000a031916815260200191505b50858103825286518152865160209182019188019080838360005b83811015611e78578181015183820152602001611e60565b50505050905090810190601f168015611ea55780820380516001836020036101000a031916815260200191505b5060408051601f198184030181529190526020810180516001600160e01b03166386c02c8f60e01b1790529a505050505050505050505095945050505050565b60008061200f600084866040516020018083805190602001908083835b60208310611f215780518252601f199092019160209182019101611f02565b6001836020036101000a038019825116818451168082178552505050505050905001826001600160a01b031660601b81526014019250505060405160208183030381529060405280519060200120600c8054600181600116156101000203166002900480601f0160208091040260200160405190810160405280929190818152602001828054600181600116156101000203166002900480156120055780601f10611fda57610100808354040283529160200191612005565b820191906000526020600020905b815481529060010190602001808311611fe857829003601f168201915b50505050506123bc565b600b546040805163347d5e2560e21b81526001600160a01b0392831660048201818152602483019384528851604484015288519596509386169463d1f5789494919389939091606490910190602085019080838360005b8381101561207e578181015183820152602001612066565b50505050905090810190601f1680156120ab5780820380516001836020036101000a031916815260200191505b509350505050600060405180830381600087803b1580156120cb57600080fd5b505af11580156120df573d6000803e3d6000fd5b505050506120f684826001600160a01b03166124cd565b6001600160a01b03169392505050565b600080808061211586866125fb565b9097909650945050505050565b8051610ee3906009906020840190612c84565b6000612142848484612676565b90505b9392505050565b612157848484611a42565b61216384848484612740565b6112e45760405162461bcd60e51b8152600401808060200182810382526032815260200180612d3a6032913960400191505060405180910390fd5b6060816121c357506040805180820190915260018152600360fc1b6020820152610a00565b8160005b81156121db57600101600a820491506121c7565b60608167ffffffffffffffff811180156121f457600080fd5b506040519080825280601f01601f19166020018201604052801561221f576020820181803683370190505b50859350905060001982015b831561227057600a840660300160f81b8282806001900393508151811061224e57fe5b60200101906001600160f81b031916908160001a905350600a8404935061222b565b50949350505050565b60008061230983856040516020018083805190602001908083835b602083106122b35780518252601f199092019160209182019101612294565b6001836020036101000a038019825116818451168082178552505050505050905001826001600160a01b031660601b81526014019250505060405160208183030381529060405280519060200120600d546128a8565b6001600160a01b0316949350505050565b6000610c7283836128b5565b5490565b6000610c7283836128cd565b6000610c728383612993565b600061214284846001600160a01b0385166129dd565b8154600090821061239a5760405162461bcd60e51b8152600401808060200182810382526022815260200180612d186022913960400191505060405180910390fd5b8260000182815481106123a957fe5b9060005260206000200154905092915050565b60008084471015612414576040805162461bcd60e51b815260206004820152601d60248201527f437265617465323a20696e73756666696369656e742062616c616e6365000000604482015290519081900360640190fd5b8251612467576040805162461bcd60e51b815260206004820181905260248201527f437265617465323a2062797465636f6465206c656e677468206973207a65726f604482015290519081900360640190fd5b8383516020850187f590506001600160a01b038116612142576040805162461bcd60e51b815260206004820152601960248201527f437265617465323a204661696c6564206f6e206465706c6f7900000000000000604482015290519081900360640190fd5b6001600160a01b038216612528576040805162461bcd60e51b815260206004820181905260248201527f4552433732313a206d696e7420746f20746865207a65726f2061646472657373604482015290519081900360640190fd5b61253181611914565b15612583576040805162461bcd60e51b815260206004820152601c60248201527f4552433732313a20746f6b656e20616c7265616479206d696e74656400000000604482015290519081900360640190fd5b61258f60008383610bd3565b6001600160a01b03821660009081526001602052604090206125b19082612336565b506125be60028284612342565b5060405181906001600160a01b038416906000907fddf252ad1be2c89b69c2b068fc378daa952ba7f163c4a11628f55a4df523b3ef908290a45050565b81546000908190831061263f5760405162461bcd60e51b8152600401808060200182810382526022815260200180612e6d6022913960400191505060405180910390fd5b600084600001848154811061265057fe5b906000526020600020906002020190508060000154816001015492509250509250929050565b600082815260018401602052604081205482816127115760405162461bcd60e51b81526004018080602001828103825283818151815260200191508051906020019080838360005b838110156126d65781810151838201526020016126be565b50505050905090810190601f1680156127035780820380516001836020036101000a031916815260200191505b509250505060405180910390fd5b5084600001600182038154811061272457fe5b9060005260206000209060020201600101549150509392505050565b6000612754846001600160a01b0316612a74565b61276057506001611a3a565b606061286e630a85bd0160e11b612775611921565b88878760405160240180856001600160a01b03168152602001846001600160a01b0316815260200183815260200180602001828103825283818151815260200191508051906020019080838360005b838110156127dc5781810151838201526020016127c4565b50505050905090810190601f1680156128095780820380516001836020036101000a031916815260200191505b5095505050505050604051602081830303815290604052906001600160e01b0319166020820180516001600160e01b038381831617835250505050604051806060016040528060328152602001612d3a603291396001600160a01b0388169190612aad565b9050600081806020019051602081101561288757600080fd5b50516001600160e01b031916630a85bd0160e11b1492505050949350505050565b6000610c72838330612abc565b60009081526001919091016020526040902054151590565b60008181526001830160205260408120548015612989578354600019808301919081019060009087908390811061290057fe5b906000526020600020015490508087600001848154811061291d57fe5b60009182526020808320909101929092558281526001898101909252604090209084019055865487908061294d57fe5b60019003818190600052602060002001600090559055866001016000878152602001908152602001600020600090556001945050505050610c75565b6000915050610c75565b600061299f83836128b5565b6129d557508154600181810184556000848152602080822090930184905584548482528286019093526040902091909155610c75565b506000610c75565b600082815260018401602052604081205480612a42575050604080518082018252838152602080820184815286546001818101895560008981528481209551600290930290950191825591519082015586548684528188019092529290912055612145565b82856000016001830381548110612a5557fe5b9060005260206000209060020201600101819055506000915050612145565b6000813f7fc5d2460186f7233c927e7db2dcc703c0e500b653ca82273b7bfad8045d85a470818114801590611a3a575050151592915050565b60606121428484600085612b17565b604080516001600160f81b031960208083019190915260609390931b6bffffffffffffffffffffffff191660218201526035810194909452605580850193909352805180850390930183526075909301909252805191012090565b6060612b2285612a74565b612b73576040805162461bcd60e51b815260206004820152601d60248201527f416464726573733a2063616c6c20746f206e6f6e2d636f6e7472616374000000604482015290519081900360640190fd5b60006060866001600160a01b031685876040518082805190602001908083835b60208310612bb25780518252601f199092019160209182019101612b93565b6001836020036101000a03801982511681845116808217855250505050505090500191505060006040518083038185875af1925050503d8060008114612c14576040519150601f19603f3d011682016040523d82523d6000602084013e612c19565b606091505b50915091508115612c2d579150611a3a9050565b805115612c3d5780518082602001fd5b60405162461bcd60e51b81526020600482018181528651602484015286518793919283926044019190850190808383600083156126d65781810151838201526020016126be565b828054600181600116156101000203166002900490600052602060002090601f016020900481019282601f10612cc557805160ff1916838001178555612cf2565b82800160010185558215612cf2579182015b82811115612cf2578251825591602001919060010190612cd7565b50612cfe929150612d02565b5090565b5b80821115612cfe5760008155600101612d0356fe456e756d657261626c655365743a20696e646578206f7574206f6620626f756e64734552433732313a207472616e7366657220746f206e6f6e20455243373231526563656976657220696d706c656d656e7465724f776e61626c653a206e6577206f776e657220697320746865207a65726f20616464726573734552433732313a207472616e7366657220746f20746865207a65726f20616464726573734552433732313a206f70657261746f7220717565727920666f72206e6f6e6578697374656e7420746f6b656e4552433732313a20617070726f76652063616c6c6572206973206e6f74206f776e6572206e6f7220617070726f76656420666f7220616c6c4552433732313a2062616c616e636520717565727920666f7220746865207a65726f20616464726573734552433732313a206f776e657220717565727920666f72206e6f6e6578697374656e7420746f6b656e456e756d657261626c654d61703a20696e646578206f7574206f6620626f756e64734552433732313a20617070726f76656420717565727920666f72206e6f6e6578697374656e7420746f6b656e4f776e61626c653a2063616c6c6572206973206e6f7420746865206f776e65724552433732313a207472616e73666572206f6620746f6b656e2074686174206973206e6f74206f776e4552433732314d657461646174613a2055524920717565727920666f72206e6f6e6578697374656e7420746f6b656e4552433732313a20617070726f76616c20746f2063757272656e74206f776e65724552433732313a207472616e736665722063616c6c6572206973206e6f74206f776e6572206e6f7220617070726f766564a2646970667358221220035f5b4a521e958da21e468b207bdff717de6c0ebc4fa2b20c8edfa01c25664d64736f6c634300060c0033608060405234801561001057600080fd5b50610a13806100206000396000f3fe608060405234801561001057600080fd5b50600436106100935760003560e01c806384aaf12e1161006657806384aaf12e146101c157806386c02c8f146101db5780638da5cb5b14610416578063e30d26a81461041e578063f8c2ceb31461042657610093565b80633121db1c14610098578063358982a31461011857806339e75d45146101955780637b1039991461019d575b600080fd5b610116600480360360408110156100ae57600080fd5b6001600160a01b038235169190810190604081016020820135600160201b8111156100d857600080fd5b8201836020820111156100ea57600080fd5b803590602001918460018302840111600160201b8311171561010b57600080fd5b50909250905061042e565b005b6101206104d7565b6040805160208082528351818301528351919283929083019185019080838360005b8381101561015a578181015183820152602001610142565b50505050905090810190601f1680156101875780820380516001836020036101000a031916815260200191505b509250505060405180910390f35b610120610564565b6101a56105bf565b604080516001600160a01b039092168252519081900360200190f35b6101c96105ce565b60408051918252519081900360200190f35b610116600480360360a08110156101f157600080fd5b810190602081018135600160201b81111561020b57600080fd5b82018360208201111561021d57600080fd5b803590602001918460018302840111600160201b8311171561023e57600080fd5b91908080601f0160208091040260200160405190810160405280939291908181526020018383808284376000920191909152509295949360208101935035915050600160201b81111561029057600080fd5b8201836020820111156102a257600080fd5b803590602001918460018302840111600160201b831117156102c357600080fd5b91908080601f0160208091040260200160405190810160405280939291908181526020018383808284376000920191909152509295949360208101935035915050600160201b81111561031557600080fd5b82018360208201111561032757600080fd5b803590602001918460018302840111600160201b8311171561034857600080fd5b91908080601f01602080910402602001604051908101604052809392919081815260200183838082843760009201919091525092958435959094909350604081019250602001359050600160201b8111156103a257600080fd5b8201836020820111156103b457600080fd5b803590602001918460018302840111600160201b831117156103d557600080fd5b91908080601f0160208091040260200160405190810160405280939291908181526020018383808284376000920191909152509295506105d4945050505050565b6101a5610639565b6101206106b6565b610120610711565b33610437610639565b6001600160a01b031614610492576040805162461bcd60e51b815260206004820152601760248201527f63616c6c6572206973206e6f7420746865206f776e6572000000000000000000604482015290519081900360640190fd5b6104d28383838080601f01602080910402602001604051908101604052809392919081815260200183838082843760009201919091525061076992505050565b505050565b60018054604080516020600284861615610100026000190190941693909304601f8101849004840282018401909252818152929183018282801561055c5780601f106105315761010080835404028352916020019161055c565b820191906000526020600020905b81548152906001019060200180831161053f57829003601f168201915b505050505081565b6003805460408051602060026001851615610100026000190190941693909304601f8101849004840282018401909252818152929183018282801561055c5780601f106105315761010080835404028352916020019161055c565b6000546001600160a01b031681565b60045481565b6105dd336108d4565b84516105f090600190602088019061094a565b50835161060490600290602087019061094a565b50825161061890600390602086019061094a565b506004829055805161063190600590602084019061094a565b505050505050565b60008054604080516331a9108f60e11b815230600482015290516001600160a01b0390921691636352211e91602480820192602092909190829003018186803b15801561068557600080fd5b505afa158015610699573d6000803e3d6000fd5b505050506040513d60208110156106af57600080fd5b5051905090565b6005805460408051602060026001851615610100026000190190941693909304601f8101849004840282018401909252818152929183018282801561055c5780601f106105315761010080835404028352916020019161055c565b6002805460408051602060018416156101000260001901909316849004601f8101849004840282018401909252818152929183018282801561055c5780601f106105315761010080835404028352916020019161055c565b604080516302571be360e01b81527f91d1777781884d03a6757a803996e38de2a42967fb37eeaca72729271025a9e2600482015290516001600160a01b038416916302571be3916024808301926020929190829003018186803b1580156107cf57600080fd5b505afa1580156107e3573d6000803e3d6000fd5b505050506040513d60208110156107f957600080fd5b505160405163c47f002760e01b81526020600482018181528451602484015284516001600160a01b039094169363c47f002793869383926044909201919085019080838360005b83811015610858578181015183820152602001610840565b50505050905090810190601f1680156108855780820380516001836020036101000a031916815260200191505b5092505050602060405180830381600087803b1580156108a457600080fd5b505af11580156108b8573d6000803e3d6000fd5b505050506040513d60208110156108ce57600080fd5b50505050565b6000546001600160a01b031615610928576040805162461bcd60e51b8152602060048201526013602482015272185b1c9958591e481a5b9a5d1a585b1a5e9959606a1b604482015290519081900360640190fd5b600080546001600160a01b0319166001600160a01b0392909216919091179055565b828054600181600116156101000203166002900490600052602060002090601f016020900481019282601f1061098b57805160ff19168380011785556109b8565b828001600101855582156109b8579182015b828111156109b857825182559160200191906001019061099d565b506109c49291506109c8565b5090565b5b808211156109c457600081556001016109c956fea2646970667358221220ad5f2bc07d98b3a5413c9b96d555518769e7754e249f6c3e4364f5393f42efb464736f6c634300060c0033608060405234801561001057600080fd5b50610349806100206000396000f3fe6080604052600436106100225760003560e01c8063d1f578941461003957610031565b366100315761002f6100ef565b005b61002f6100ef565b61002f6004803603604081101561004f57600080fd5b6001600160a01b03823516919081019060408101602082013564010000000081111561007a57600080fd5b82018360208201111561008c57600080fd5b803590602001918460018302840111640100000000831117156100ae57600080fd5b91908080601f016020809104026020016040519081016040528093929190818152602001838380828437600092019190915250929550610109945050505050565b6100f7610107565b6101076101026101eb565b610210565b565b60006101136101eb565b6001600160a01b03161461012657600080fd5b61012f82610234565b8051156101e7576000826001600160a01b0316826040518082805190602001908083835b602083106101725780518252601f199092019160209182019101610153565b6001836020036101000a038019825116818451168082178552505050505050905001915050600060405180830381855af49150503d80600081146101d2576040519150601f19603f3d011682016040523d82523d6000602084013e6101d7565b606091505b50509050806101e557600080fd5b505b5050565b7f7050c9e0f4ca769c69bd3a8ef740bc37934f8e2c036e5a723fd8ee048ed3f8c35490565b3660008037600080366000845af43d6000803e80801561022f573d6000f35b3d6000fd5b61023d8161029c565b6102785760405162461bcd60e51b815260040180806020018281038252603b8152602001806102d9603b913960400191505060405180910390fd5b7f7050c9e0f4ca769c69bd3a8ef740bc37934f8e2c036e5a723fd8ee048ed3f8c355565b6000813f7fc5d2460186f7233c927e7db2dcc703c0e500b653ca82273b7bfad8045d85a4708181148015906102d057508115155b94935050505056fe43616e6e6f742073657420612070726f787920696d706c656d656e746174696f6e20746f2061206e6f6e2d636f6e74726163742061646472657373a2646970667358221220cdbb0f880f6bae03b83b0112d96e036096c0b7dccd11cf658a9770d11b49225264736f6c634300060c0033",
  "immutableReferences": {},
  "source": "// SPDX-License-Identifier: Apache-2.0\n\n/******************************************************************************\n * Copyright 2020 IEXEC BLOCKCHAIN TECH                                       *\n *                                                                            *\n * Licensed under the Apache License, Version 2.0 (the \"License\");            *\n * you may not use this file except in compliance with the License.           *\n * You may obtain a copy of the License at                                    *\n *                                                                            *\n *     http://www.apache.org/licenses/LICENSE-2.0                             *\n *                                                                            *\n * Unless required by applicable law or agreed to in writing, software        *\n * distributed under the License is distributed on an \"AS IS\" BASIS,          *\n * WITHOUT WARRANTIES OR CONDITIONS OF ANY KIND, either express or implied.   *\n * See the License for the specific language governing permissions and        *\n * limitations under the License.                                             *\n ******************************************************************************/\n\npragma solidity ^0.6.0;\n\nimport '../Registry.sol';\nimport './App.sol';\n\n\ncontract AppRegistry is Registry\n{\n\t/**\n\t * Constructor\n\t */\n\tconstructor()\n\tpublic Registry(\n\t\taddress(new App()),\n\t\t'iExec Application Registry (V5)',\n\t\t'iExecAppsV5')\n\t{\n\t}\n\n\t/**\n\t * App creation\n\t */\n\tfunction encodeInitializer(\n\t\tstring  memory _appName,\n\t\tstring  memory _appType,\n\t\tbytes   memory _appMultiaddr,\n\t\tbytes32        _appChecksum,\n\t\tbytes   memory _appMREnclave)\n\tinternal pure returns (bytes memory)\n\t{\n\t\treturn abi.encodeWithSignature(\n\t\t\t'initialize(string,string,bytes,bytes32,bytes)'\n\t\t,\t_appName\n\t\t,\t_appType\n\t\t,\t_appMultiaddr\n\t\t,\t_appChecksum\n\t\t,\t_appMREnclave\n\t\t);\n\t}\n\n\tfunction createApp(\n\t\taddress          _appOwner,\n\t\tstring  calldata _appName,\n\t\tstring  calldata _appType,\n\t\tbytes   calldata _appMultiaddr,\n\t\tbytes32          _appChecksum,\n\t\tbytes   calldata _appMREnclave)\n\texternal returns (App)\n\t{\n\t\treturn App(_mintCreate(_appOwner, encodeInitializer(_appName, _appType, _appMultiaddr, _appChecksum, _appMREnclave)));\n\t}\n\n\tfunction predictApp(\n\t\taddress          _appOwner,\n\t\tstring  calldata _appName,\n\t\tstring  calldata _appType,\n\t\tbytes   calldata _appMultiaddr,\n\t\tbytes32          _appChecksum,\n\t\tbytes   calldata _appMREnclave)\n\texternal view returns (App)\n\t{\n\t\treturn App(_mintPredict(_appOwner, encodeInitializer(_appName, _appType, _appMultiaddr, _appChecksum, _appMREnclave)));\n\t}\n}\n",
  "sourcePath": "/home/amxx/Work/iExec/code/PoCo-dev/contracts/registries/apps/AppRegistry.sol",
  "compiler": {
    "name": "solc",
    "version": "0.6.12+commit.27d51765.Emscripten.clang"
  },
  "schemaVersion": "3.2.2",
  "updatedAt": "2020-11-04T15:03:31.942Z",
  "networkType": "ethereum",
  "devdoc": {
    "kind": "dev",
    "methods": {
      "approve(address,uint256)": {
        "details": "See {IERC721-approve}."
      },
      "balanceOf(address)": {
        "details": "See {IERC721-balanceOf}."
      },
      "baseURI()": {
        "details": "Returns the base URI set via {_setBaseURI}. This will be automatically added as a prefix in {tokenURI} to each token's URI, or to the token ID if no specific URI is set for that token ID."
      },
      "getApproved(uint256)": {
        "details": "See {IERC721-getApproved}."
      },
      "isApprovedForAll(address,address)": {
        "details": "See {IERC721-isApprovedForAll}."
      },
      "name()": {
        "details": "See {IERC721Metadata-name}."
      },
      "owner()": {
        "details": "Returns the address of the current owner."
      },
      "ownerOf(uint256)": {
        "details": "See {IERC721-ownerOf}."
      },
      "renounceOwnership()": {
        "details": "Leaves the contract without owner. It will not be possible to call `onlyOwner` functions anymore. Can only be called by the current owner. NOTE: Renouncing ownership will leave the contract without an owner, thereby removing any functionality that is only available to the owner."
      },
      "safeTransferFrom(address,address,uint256)": {
        "details": "See {IERC721-safeTransferFrom}."
      },
      "safeTransferFrom(address,address,uint256,bytes)": {
        "details": "See {IERC721-safeTransferFrom}."
      },
      "setApprovalForAll(address,bool)": {
        "details": "See {IERC721-setApprovalForAll}."
      },
      "supportsInterface(bytes4)": {
        "details": "See {IERC165-supportsInterface}. Time complexity O(1), guaranteed to always use less than 30 000 gas."
      },
      "symbol()": {
        "details": "See {IERC721Metadata-symbol}."
      },
      "tokenByIndex(uint256)": {
        "details": "See {IERC721Enumerable-tokenByIndex}."
      },
      "tokenOfOwnerByIndex(address,uint256)": {
        "details": "See {IERC721Enumerable-tokenOfOwnerByIndex}."
      },
      "tokenURI(uint256)": {
        "details": "See {IERC721Metadata-tokenURI}."
      },
      "totalSupply()": {
        "details": "See {IERC721Enumerable-totalSupply}."
      },
      "transferFrom(address,address,uint256)": {
        "details": "See {IERC721-transferFrom}."
      },
      "transferOwnership(address)": {
        "details": "Transfers ownership of the contract to a new account (`newOwner`). Can only be called by the current owner."
      }
    },
    "version": 1
  },
  "userdoc": {
    "kind": "user",
    "methods": {
      "constructor": "Constructor"
    },
    "version": 1
  }
}