{
  "contractName": "AppRegistry",
  "abi": [
    {
      "constant": true,
      "inputs": [
        {
          "name": "_owner",
          "type": "address"
        },
        {
          "name": "_index",
          "type": "uint256"
        }
      ],
      "name": "viewEntry",
      "outputs": [
        {
          "name": "",
          "type": "address"
        }
      ],
      "payable": false,
      "stateMutability": "view",
      "type": "function",
      "signature": "0x65a2c104"
    },
    {
      "constant": true,
      "inputs": [
        {
          "name": "_owner",
          "type": "address"
        }
      ],
      "name": "viewCount",
      "outputs": [
        {
          "name": "",
          "type": "uint256"
        }
      ],
      "payable": false,
      "stateMutability": "view",
      "type": "function",
      "signature": "0xc0a8cae2"
    },
    {
      "constant": true,
      "inputs": [
        {
          "name": "_entry",
          "type": "address"
        }
      ],
      "name": "isRegistered",
      "outputs": [
        {
          "name": "",
          "type": "bool"
        }
      ],
      "payable": false,
      "stateMutability": "view",
      "type": "function",
      "signature": "0xc3c5a547"
    },
    {
      "inputs": [],
      "payable": false,
      "stateMutability": "nonpayable",
      "type": "constructor",
      "signature": "constructor"
    },
    {
      "anonymous": false,
      "inputs": [
        {
          "indexed": true,
          "name": "appOwner",
          "type": "address"
        },
        {
          "indexed": false,
          "name": "app",
          "type": "address"
        }
      ],
      "name": "CreateApp",
      "type": "event",
      "signature": "0x5ba7d57c324ec2334af956c7950558163a5c6871ef98815cd971f14607e97d50"
    },
    {
      "constant": false,
      "inputs": [
        {
          "name": "_appOwner",
          "type": "address"
        },
        {
          "name": "_appName",
          "type": "string"
        },
        {
          "name": "_appType",
          "type": "string"
        },
        {
          "name": "_appMultiaddr",
          "type": "bytes"
        },
        {
          "name": "_appChecksum",
          "type": "bytes32"
        },
        {
          "name": "_appMREnclave",
          "type": "bytes"
        }
      ],
      "name": "createApp",
      "outputs": [
        {
          "name": "",
          "type": "address"
        }
      ],
      "payable": false,
      "stateMutability": "nonpayable",
      "type": "function",
      "signature": "0x3f7868ff"
    }
  ],
  "bytecode": "0x608060405234801561001057600080fd5b50610d58806100206000396000f3fe608060405234801561001057600080fd5b5060043610610068577c010000000000000000000000000000000000000000000000000000000060003504633f7868ff811461006d57806365a2c10414610203578063c0a8cae21461022f578063c3c5a54714610267575b600080fd5b6101e7600480360360c081101561008357600080fd5b600160a060020a0382351691908101906040810160208201356401000000008111156100ae57600080fd5b8201836020820111156100c057600080fd5b803590602001918460018302840111640100000000831117156100e257600080fd5b91939092909160208101903564010000000081111561010057600080fd5b82018360208201111561011257600080fd5b8035906020019184600183028401116401000000008311171561013457600080fd5b91939092909160208101903564010000000081111561015257600080fd5b82018360208201111561016457600080fd5b8035906020019184600183028401116401000000008311171561018657600080fd5b919390928235926040810190602001356401000000008111156101a857600080fd5b8201836020820111156101ba57600080fd5b803590602001918460018302840111640100000000831117156101dc57600080fd5b5090925090506102a1565b60408051600160a060020a039092168252519081900360200190f35b6101e76004803603604081101561021957600080fd5b50600160a060020a038135169060200135610404565b6102556004803603602081101561024557600080fd5b5035600160a060020a031661042c565b60408051918252519081900360200190f35b61028d6004803603602081101561027d57600080fd5b5035600160a060020a0316610447565b604080519115158252519081900360200190f35b6000808b8b8b8b8b8b8b8b8b8b6040516102ba90610516565b600160a060020a038b1681526080810184905260c0602082018181529082018a9052604082016060830160a0840160e085018e8e80828437600083820152601f01601f191690910186810385528c815260200190508c8c80828437600083820152601f01601f191690910186810384528a815260200190508a8a80828437600083820152601f01601f191690910186810383528781526020019050878780828437600081840152601f19601f8201169050808301925050509e505050505050505050505050505050604051809103906000f08015801561039e573d6000803e3d6000fd5b5090506103ab818d610465565b6103b457600080fd5b60408051600160a060020a0383811682529151918e16917f5ba7d57c324ec2334af956c7950558163a5c6871ef98815cd971f14607e97d509181900360200190a29b9a5050505050505050505050565b600160a060020a03918216600090815260016020908152604080832093835292905220541690565b600160a060020a031660009081526002602052604090205490565b600160a060020a031660009081526020819052604090205460ff1690565b600160a060020a038116600090815260026020526040812054819061049190600163ffffffff6104fd16565b600160a060020a03808516600090815260026020908152604080832085905560018083528184209584529482528083208054948a1673ffffffffffffffffffffffffffffffffffffffff199095168517905592825281905220805460ff19168217905591505092915050565b60008282018381101561050f57600080fd5b9392505050565b610809806105248339019056fe608060405234801561001057600080fd5b50604051610809380380610809833981018060405260c081101561003357600080fd5b81516020830180519193928301929164010000000081111561005457600080fd5b8201602081018481111561006757600080fd5b815164010000000081118282018710171561008157600080fd5b5050929190602001805164010000000081111561009d57600080fd5b820160208101848111156100b057600080fd5b81516401000000008111828201871017156100ca57600080fd5b505092919060200180516401000000008111156100e657600080fd5b820160208101848111156100f957600080fd5b815164010000000081118282018710171561011357600080fd5b5050602082015160409092018051919492939164010000000081111561013857600080fd5b8201602081018481111561014b57600080fd5b815164010000000081118282018710171561016557600080fd5b505060008054600160a060020a0319163317808255604051929550600160a060020a0316935091506000805160206107e9833981519152908290a36101b286640100000000610212810204565b84516101c590600190602088019061026e565b5083516101d990600290602087019061026e565b5082516101ed90600390602086019061026e565b506004829055805161020690600590602084019061026e565b50505050505050610309565b600160a060020a03811661022557600080fd5b60008054604051600160a060020a03808516939216916000805160206107e983398151915291a360008054600160a060020a031916600160a060020a0392909216919091179055565b828054600181600116156101000203166002900490600052602060002090601f016020900481019282601f106102af57805160ff19168380011785556102dc565b828001600101855582156102dc579182015b828111156102dc5782518255916020019190600101906102c1565b506102e89291506102ec565b5090565b61030691905b808211156102e857600081556001016102f2565b90565b6104d1806103186000396000f3fe608060405234801561001057600080fd5b50600436106100b0576000357c0100000000000000000000000000000000000000000000000000000000900480638da5cb5b116100835780638da5cb5b1461015e5780638f32d59b1461018f578063e30d26a8146101ab578063f2fde38b146101b3578063f8c2ceb3146101e6576100b0565b8063358982a3146100b557806339e75d4514610132578063715018a61461013a57806384aaf12e14610144575b600080fd5b6100bd6101ee565b6040805160208082528351818301528351919283929083019185019080838360005b838110156100f75781810151838201526020016100df565b50505050905090810190601f1680156101245780820380516001836020036101000a031916815260200191505b509250505060405180910390f35b6100bd61027b565b6101426102d6565b005b61014c61034b565b60408051918252519081900360200190f35b610166610351565b6040805173ffffffffffffffffffffffffffffffffffffffff9092168252519081900360200190f35b61019761036d565b604080519115158252519081900360200190f35b6100bd61038b565b610142600480360360208110156101c957600080fd5b503573ffffffffffffffffffffffffffffffffffffffff166103e6565b6100bd61044d565b60018054604080516020600284861615610100026000190190941693909304601f810184900484028201840190925281815292918301828280156102735780601f1061024857610100808354040283529160200191610273565b820191906000526020600020905b81548152906001019060200180831161025657829003601f168201915b505050505081565b6003805460408051602060026001851615610100026000190190941693909304601f810184900484028201840190925281815292918301828280156102735780601f1061024857610100808354040283529160200191610273565b6102de61036d565b6102e757600080fd5b6000805460405173ffffffffffffffffffffffffffffffffffffffff909116907f8be0079c531659141344cd1fd0a4f28419497f9722a3daafe3b4186f6b6457e0908390a36000805473ffffffffffffffffffffffffffffffffffffffff19169055565b60045481565b60005473ffffffffffffffffffffffffffffffffffffffff1690565b60005473ffffffffffffffffffffffffffffffffffffffff16331490565b6005805460408051602060026001851615610100026000190190941693909304601f810184900484028201840190925281815292918301828280156102735780601f1061024857610100808354040283529160200191610273565b604080517f08c379a000000000000000000000000000000000000000000000000000000000815260206004820152600860248201527f64697361626c6564000000000000000000000000000000000000000000000000604482015290519081900360640190fd5b6002805460408051602060018416156101000260001901909316849004601f810184900484028201840190925281815292918301828280156102735780601f106102485761010080835404028352916020019161027356fea165627a7a7230582039ccdc9e6f2c1d1670a23b1a7e1207acd52d2c1283fe308ef2ccc9ab8e65d8c700298be0079c531659141344cd1fd0a4f28419497f9722a3daafe3b4186f6b6457e0a165627a7a7230582017987196d547ebd8c8060f0312a302711400a9e55fd2d6025a7c75905507ec5d0029",
  "source": "pragma solidity ^0.5.7;\n\nimport './App.sol';\nimport './RegistryBase.sol';\n\ncontract AppRegistry is RegistryBase //, OwnableMutable // is Owned by IexecHub\n{\n\tevent CreateApp(address indexed appOwner, address app);\n\n\t/**\n\t * Constructor\n\t */\n\tconstructor()\n\tpublic\n\t{\n\t}\n\n\t/**\n\t * App creation\n\t */\n\tfunction createApp(\n\t\taddress          _appOwner,\n\t\tstring  calldata _appName,\n\t\tstring  calldata _appType,\n\t\tbytes   calldata _appMultiaddr,\n\t\tbytes32          _appChecksum,\n\t\tbytes   calldata _appMREnclave)\n\texternal /* onlyOwner /*owner == IexecHub*/ returns (App)\n\t{\n\t\tApp newApp = new App(\n\t\t\t_appOwner,\n\t\t\t_appName,\n\t\t\t_appType,\n\t\t\t_appMultiaddr,\n\t\t\t_appChecksum,\n\t\t\t_appMREnclave\n\t\t);\n\t\trequire(insert(address(newApp), _appOwner));\n\t\temit CreateApp(_appOwner, address(newApp));\n\t\treturn newApp;\n\t}\n\n}\n",
  "sourcePath": "/home/ubuntu/jenkins-agent/workspace/PoCo-dev_lv3.0.30-3@2/contracts/registries/AppRegistry.sol",
  "compiler": {
    "name": "solc",
    "version": "0.5.7+commit.6da8b019.Emscripten.clang"
  },
  "schemaVersion": "3.0.6",
  "updatedAt": "2019-04-19T19:14:06.347Z",
  "devdoc": {
    "methods": {}
  },
  "userdoc": {
    "methods": {
      "constructor": "Constructor",
      "createApp(address,string,string,bytes,bytes32,bytes)": {
        "notice": "App creation"
      },
      "isRegistered(address)": {
        "notice": "Accessors"
      }
    }
  }
}