{
  "contractName": "AppRegistry",
  "abi": [
    {
      "inputs": [],
      "stateMutability": "nonpayable",
      "type": "constructor"
    },
    {
      "anonymous": false,
      "inputs": [
        {
          "indexed": true,
          "internalType": "address",
          "name": "owner",
          "type": "address"
        },
        {
          "indexed": true,
          "internalType": "address",
          "name": "approved",
          "type": "address"
        },
        {
          "indexed": true,
          "internalType": "uint256",
          "name": "tokenId",
          "type": "uint256"
        }
      ],
      "name": "Approval",
      "type": "event"
    },
    {
      "anonymous": false,
      "inputs": [
        {
          "indexed": true,
          "internalType": "address",
          "name": "owner",
          "type": "address"
        },
        {
          "indexed": true,
          "internalType": "address",
          "name": "operator",
          "type": "address"
        },
        {
          "indexed": false,
          "internalType": "bool",
          "name": "approved",
          "type": "bool"
        }
      ],
      "name": "ApprovalForAll",
      "type": "event"
    },
    {
      "anonymous": false,
      "inputs": [
        {
          "indexed": true,
          "internalType": "address",
          "name": "previousOwner",
          "type": "address"
        },
        {
          "indexed": true,
          "internalType": "address",
          "name": "newOwner",
          "type": "address"
        }
      ],
      "name": "OwnershipTransferred",
      "type": "event"
    },
    {
      "anonymous": false,
      "inputs": [
        {
          "indexed": true,
          "internalType": "address",
          "name": "from",
          "type": "address"
        },
        {
          "indexed": true,
          "internalType": "address",
          "name": "to",
          "type": "address"
        },
        {
          "indexed": true,
          "internalType": "uint256",
          "name": "tokenId",
          "type": "uint256"
        }
      ],
      "name": "Transfer",
      "type": "event"
    },
    {
      "inputs": [
        {
          "internalType": "address",
          "name": "to",
          "type": "address"
        },
        {
          "internalType": "uint256",
          "name": "tokenId",
          "type": "uint256"
        }
      ],
      "name": "approve",
      "outputs": [],
      "stateMutability": "nonpayable",
      "type": "function"
    },
    {
      "inputs": [
        {
          "internalType": "address",
          "name": "owner",
          "type": "address"
        }
      ],
      "name": "balanceOf",
      "outputs": [
        {
          "internalType": "uint256",
          "name": "",
          "type": "uint256"
        }
      ],
      "stateMutability": "view",
      "type": "function"
    },
    {
      "inputs": [],
      "name": "baseURI",
      "outputs": [
        {
          "internalType": "string",
          "name": "",
          "type": "string"
        }
      ],
      "stateMutability": "view",
      "type": "function"
    },
    {
      "inputs": [
        {
          "internalType": "uint256",
          "name": "tokenId",
          "type": "uint256"
        }
      ],
      "name": "getApproved",
      "outputs": [
        {
          "internalType": "address",
          "name": "",
          "type": "address"
        }
      ],
      "stateMutability": "view",
      "type": "function"
    },
    {
      "inputs": [
        {
          "internalType": "address",
          "name": "_previous",
          "type": "address"
        }
      ],
      "name": "initialize",
      "outputs": [],
      "stateMutability": "nonpayable",
      "type": "function"
    },
    {
      "inputs": [],
      "name": "initialized",
      "outputs": [
        {
          "internalType": "bool",
          "name": "",
          "type": "bool"
        }
      ],
      "stateMutability": "view",
      "type": "function"
    },
    {
      "inputs": [
        {
          "internalType": "address",
          "name": "owner",
          "type": "address"
        },
        {
          "internalType": "address",
          "name": "operator",
          "type": "address"
        }
      ],
      "name": "isApprovedForAll",
      "outputs": [
        {
          "internalType": "bool",
          "name": "",
          "type": "bool"
        }
      ],
      "stateMutability": "view",
      "type": "function"
    },
    {
      "inputs": [],
      "name": "isOwner",
      "outputs": [
        {
          "internalType": "bool",
          "name": "",
          "type": "bool"
        }
      ],
      "stateMutability": "view",
      "type": "function"
    },
    {
      "inputs": [
        {
          "internalType": "address",
          "name": "_entry",
          "type": "address"
        }
      ],
      "name": "isRegistered",
      "outputs": [
        {
          "internalType": "bool",
          "name": "",
          "type": "bool"
        }
      ],
      "stateMutability": "view",
      "type": "function"
    },
    {
      "inputs": [],
      "name": "master",
      "outputs": [
        {
          "internalType": "address",
          "name": "",
          "type": "address"
        }
      ],
      "stateMutability": "view",
      "type": "function"
    },
    {
      "inputs": [],
      "name": "name",
      "outputs": [
        {
          "internalType": "string",
          "name": "",
          "type": "string"
        }
      ],
      "stateMutability": "view",
      "type": "function"
    },
    {
      "inputs": [],
      "name": "owner",
      "outputs": [
        {
          "internalType": "address",
          "name": "",
          "type": "address"
        }
      ],
      "stateMutability": "view",
      "type": "function"
    },
    {
      "inputs": [
        {
          "internalType": "uint256",
          "name": "tokenId",
          "type": "uint256"
        }
      ],
      "name": "ownerOf",
      "outputs": [
        {
          "internalType": "address",
          "name": "",
          "type": "address"
        }
      ],
      "stateMutability": "view",
      "type": "function"
    },
    {
      "inputs": [],
      "name": "previous",
      "outputs": [
        {
          "internalType": "contract IRegistry",
          "name": "",
          "type": "address"
        }
      ],
      "stateMutability": "view",
      "type": "function"
    },
    {
      "inputs": [],
      "name": "proxyCode",
      "outputs": [
        {
          "internalType": "bytes",
          "name": "",
          "type": "bytes"
        }
      ],
      "stateMutability": "view",
      "type": "function"
    },
    {
      "inputs": [],
      "name": "renounceOwnership",
      "outputs": [],
      "stateMutability": "nonpayable",
      "type": "function"
    },
    {
      "inputs": [
        {
          "internalType": "address",
          "name": "from",
          "type": "address"
        },
        {
          "internalType": "address",
          "name": "to",
          "type": "address"
        },
        {
          "internalType": "uint256",
          "name": "tokenId",
          "type": "uint256"
        }
      ],
      "name": "safeTransferFrom",
      "outputs": [],
      "stateMutability": "nonpayable",
      "type": "function"
    },
    {
      "inputs": [
        {
          "internalType": "address",
          "name": "from",
          "type": "address"
        },
        {
          "internalType": "address",
          "name": "to",
          "type": "address"
        },
        {
          "internalType": "uint256",
          "name": "tokenId",
          "type": "uint256"
        },
        {
          "internalType": "bytes",
          "name": "_data",
          "type": "bytes"
        }
      ],
      "name": "safeTransferFrom",
      "outputs": [],
      "stateMutability": "nonpayable",
      "type": "function"
    },
    {
      "inputs": [
        {
          "internalType": "address",
          "name": "operator",
          "type": "address"
        },
        {
          "internalType": "bool",
          "name": "approved",
          "type": "bool"
        }
      ],
      "name": "setApprovalForAll",
      "outputs": [],
      "stateMutability": "nonpayable",
      "type": "function"
    },
    {
      "inputs": [
        {
          "internalType": "address",
          "name": "_ens",
          "type": "address"
        },
        {
          "internalType": "string",
          "name": "_name",
          "type": "string"
        }
      ],
      "name": "setName",
      "outputs": [],
      "stateMutability": "nonpayable",
      "type": "function"
    },
    {
      "inputs": [
        {
          "internalType": "uint256",
          "name": "_tokenId",
          "type": "uint256"
        },
        {
          "internalType": "string",
          "name": "_uri",
          "type": "string"
        }
      ],
      "name": "setTokenURI",
      "outputs": [],
      "stateMutability": "nonpayable",
      "type": "function"
    },
    {
      "inputs": [
        {
          "internalType": "bytes4",
          "name": "interfaceId",
          "type": "bytes4"
        }
      ],
      "name": "supportsInterface",
      "outputs": [
        {
          "internalType": "bool",
          "name": "",
          "type": "bool"
        }
      ],
      "stateMutability": "view",
      "type": "function"
    },
    {
      "inputs": [],
      "name": "symbol",
      "outputs": [
        {
          "internalType": "string",
          "name": "",
          "type": "string"
        }
      ],
      "stateMutability": "view",
      "type": "function"
    },
    {
      "inputs": [
        {
          "internalType": "uint256",
          "name": "index",
          "type": "uint256"
        }
      ],
      "name": "tokenByIndex",
      "outputs": [
        {
          "internalType": "uint256",
          "name": "",
          "type": "uint256"
        }
      ],
      "stateMutability": "view",
      "type": "function"
    },
    {
      "inputs": [
        {
          "internalType": "address",
          "name": "owner",
          "type": "address"
        },
        {
          "internalType": "uint256",
          "name": "index",
          "type": "uint256"
        }
      ],
      "name": "tokenOfOwnerByIndex",
      "outputs": [
        {
          "internalType": "uint256",
          "name": "",
          "type": "uint256"
        }
      ],
      "stateMutability": "view",
      "type": "function"
    },
    {
      "inputs": [
        {
          "internalType": "uint256",
          "name": "tokenId",
          "type": "uint256"
        }
      ],
      "name": "tokenURI",
      "outputs": [
        {
          "internalType": "string",
          "name": "",
          "type": "string"
        }
      ],
      "stateMutability": "view",
      "type": "function"
    },
    {
      "inputs": [],
      "name": "totalSupply",
      "outputs": [
        {
          "internalType": "uint256",
          "name": "",
          "type": "uint256"
        }
      ],
      "stateMutability": "view",
      "type": "function"
    },
    {
      "inputs": [
        {
          "internalType": "address",
          "name": "from",
          "type": "address"
        },
        {
          "internalType": "address",
          "name": "to",
          "type": "address"
        },
        {
          "internalType": "uint256",
          "name": "tokenId",
          "type": "uint256"
        }
      ],
      "name": "transferFrom",
      "outputs": [],
      "stateMutability": "nonpayable",
      "type": "function"
    },
    {
      "inputs": [
        {
          "internalType": "address",
          "name": "newOwner",
          "type": "address"
        }
      ],
      "name": "transferOwnership",
      "outputs": [],
      "stateMutability": "nonpayable",
      "type": "function"
    },
    {
      "inputs": [
        {
          "internalType": "address",
          "name": "_appOwner",
          "type": "address"
        },
        {
          "internalType": "string",
          "name": "_appName",
          "type": "string"
        },
        {
          "internalType": "string",
          "name": "_appType",
          "type": "string"
        },
        {
          "internalType": "bytes",
          "name": "_appMultiaddr",
          "type": "bytes"
        },
        {
          "internalType": "bytes32",
          "name": "_appChecksum",
          "type": "bytes32"
        },
        {
          "internalType": "bytes",
          "name": "_appMREnclave",
          "type": "bytes"
        }
      ],
      "name": "createApp",
      "outputs": [
        {
          "internalType": "contract App",
          "name": "",
          "type": "address"
        }
      ],
      "stateMutability": "nonpayable",
      "type": "function"
    },
    {
      "inputs": [
        {
          "internalType": "address",
          "name": "_appOwner",
          "type": "address"
        },
        {
          "internalType": "string",
          "name": "_appName",
          "type": "string"
        },
        {
          "internalType": "string",
          "name": "_appType",
          "type": "string"
        },
        {
          "internalType": "bytes",
          "name": "_appMultiaddr",
          "type": "bytes"
        },
        {
          "internalType": "bytes32",
          "name": "_appChecksum",
          "type": "bytes32"
        },
        {
          "internalType": "bytes",
          "name": "_appMREnclave",
          "type": "bytes"
        }
      ],
      "name": "predictApp",
      "outputs": [
        {
          "internalType": "contract App",
          "name": "",
          "type": "address"
        }
      ],
      "stateMutability": "view",
      "type": "function"
    }
  ],
  "bytecode": "0x60806040523480156200001157600080fd5b5060405162000020906200027f565b604051809103906000f0801580156200003d573d6000803e3d6000fd5b50604080518082018252601f81527f6945786563204170706c69636174696f6e2052656769737472792028563529006020808301919091528251808401909352600b83526a694578656341707073563560a81b908301529081818181620000b46301ffc9a760e01b6001600160e01b03620001f516565b620000cf6380ac58cd60e01b6001600160e01b03620001f516565b620000ea63780e9d6360e01b6001600160e01b03620001f516565b8151620000ff9060099060208501906200028d565b5080516200011590600a9060208401906200028d565b5062000131635b5e139f60e01b6001600160e01b03620001f516565b505050506000620001476200027a60201b60201c565b600d80546001600160a01b0319166001600160a01b038316908117909155604051919250906000907f8be0079c531659141344cd1fd0a4f28419497f9722a3daafe3b4186f6b6457e0908290a350600e80546001600160a01b0319166001600160a01b038516179055604051620001c16020820162000312565b601f1982820381018352601f909101166040528051620001eb91600f91602091909101906200028d565b505050506200033d565b6001600160e01b0319808216141562000255576040805162461bcd60e51b815260206004820152601c60248201527f4552433136353a20696e76616c696420696e7465726661636520696400000000604482015290519081900360640190fd5b6001600160e01b0319166000908152602081905260409020805460ff19166001179055565b335b90565b610a3980620032c883390190565b828054600181600116156101000203166002900490600052602060002090601f016020900481019282601f10620002d057805160ff191683800117855562000300565b8280016001018555821562000300579182015b8281111562000300578251825591602001919060010190620002e3565b506200030e92915062000320565b5090565b6103cd8062003d0183390190565b6200027c91905b808211156200030e576000815560010162000327565b612f7b806200034d6000396000f3fe608060405234801561001057600080fd5b50600436106101e55760003560e01c80636fa59bbc1161010f578063b88d4fde116100a2578063e92118ed11610071578063e92118ed1461081b578063e985e9c51461098d578063ee97f7f3146109bb578063f2fde38b146109c3576101e5565b8063b88d4fde146106ee578063c3c5a547146107b2578063c4d66de8146107d8578063c87b56dd146107fe576101e5565b80638da5cb5b116100de5780638da5cb5b146106a85780638f32d59b146106b057806395d89b41146106b8578063a22cb465146106c0576101e5565b80636fa59bbc1461066a57806370a0823114610672578063715018a6146106985780637c2b2e71146106a0576101e5565b806323b872dd1161018757806342842e0e1161015657806342842e0e146105f25780634f6ccce7146106285780636352211e146106455780636c0360eb14610662576101e5565b806323b872dd146103a05780632f745c59146103d65780633121db1c146104025780633f7868ff14610480576101e5565b8063095ea7b3116101c3578063095ea7b3146102db578063158ef93e14610309578063162094c41461031157806318160ddd14610386576101e5565b806301ffc9a7146101ea57806306fdde0314610225578063081812fc146102a2575b600080fd5b6102116004803603602081101561020057600080fd5b50356001600160e01b0319166109e9565b604080519115158252519081900360200190f35b61022d610a0c565b6040805160208082528351818301528351919283929083019185019080838360005b8381101561026757818101518382015260200161024f565b50505050905090810190601f1680156102945780820380516001836020036101000a031916815260200191505b509250505060405180910390f35b6102bf600480360360208110156102b857600080fd5b5035610aa3565b604080516001600160a01b039092168252519081900360200190f35b610307600480360360408110156102f157600080fd5b506001600160a01b038135169060200135610b05565b005b610211610be0565b6103076004803603604081101561032757600080fd5b81359190810190604081016020820135600160201b81111561034857600080fd5b82018360208201111561035a57600080fd5b803590602001918460018302840111600160201b8311171561037b57600080fd5b509092509050610bf0565b61038e610c8f565b60408051918252519081900360200190f35b610307600480360360608110156103b657600080fd5b506001600160a01b03813581169160208101359091169060400135610c95565b61038e600480360360408110156103ec57600080fd5b506001600160a01b038135169060200135610cec565b6103076004803603604081101561041857600080fd5b6001600160a01b038235169190810190604081016020820135600160201b81111561044257600080fd5b82018360208201111561045457600080fd5b803590602001918460018302840111600160201b8311171561047557600080fd5b509092509050610d6b565b6102bf600480360360c081101561049657600080fd5b6001600160a01b038235169190810190604081016020820135600160201b8111156104c057600080fd5b8201836020820111156104d257600080fd5b803590602001918460018302840111600160201b831117156104f357600080fd5b919390929091602081019035600160201b81111561051057600080fd5b82018360208201111561052257600080fd5b803590602001918460018302840111600160201b8311171561054357600080fd5b919390929091602081019035600160201b81111561056057600080fd5b82018360208201111561057257600080fd5b803590602001918460018302840111600160201b8311171561059357600080fd5b91939092823592604081019060200135600160201b8111156105b457600080fd5b8201836020820111156105c657600080fd5b803590602001918460018302840111600160201b831117156105e757600080fd5b509092509050610df2565b6103076004803603606081101561060857600080fd5b506001600160a01b03813581169160208101359091169060400135610efa565b61038e6004803603602081101561063e57600080fd5b5035610f15565b6102bf6004803603602081101561065b57600080fd5b5035610f7b565b61022d610fd5565b61022d611036565b61038e6004803603602081101561068857600080fd5b50356001600160a01b03166110c4565b61030761112c565b6102bf6111bd565b6102bf6111cc565b6102116111db565b61022d611201565b610307600480360360408110156106d657600080fd5b506001600160a01b0381351690602001351515611262565b6103076004803603608081101561070457600080fd5b6001600160a01b03823581169260208101359091169160408201359190810190608081016060820135600160201b81111561073e57600080fd5b82018360208201111561075057600080fd5b803590602001918460018302840111600160201b8311171561077157600080fd5b91908080601f016020809104026020016040519081016040528093929190818152602001838380828437600092019190915250929550611367945050505050565b610211600480360360208110156107c857600080fd5b50356001600160a01b03166113c5565b610307600480360360208110156107ee57600080fd5b50356001600160a01b0316611473565b61022d6004803603602081101561081457600080fd5b5035611502565b6102bf600480360360c081101561083157600080fd5b6001600160a01b038235169190810190604081016020820135600160201b81111561085b57600080fd5b82018360208201111561086d57600080fd5b803590602001918460018302840111600160201b8311171561088e57600080fd5b919390929091602081019035600160201b8111156108ab57600080fd5b8201836020820111156108bd57600080fd5b803590602001918460018302840111600160201b831117156108de57600080fd5b919390929091602081019035600160201b8111156108fb57600080fd5b82018360208201111561090d57600080fd5b803590602001918460018302840111600160201b8311171561092e57600080fd5b91939092823592604081019060200135600160201b81111561094f57600080fd5b82018360208201111561096157600080fd5b803590602001918460018302840111600160201b8311171561098257600080fd5b5090925090506116ce565b610211600480360360408110156109a357600080fd5b506001600160a01b03813581169160200135166117c7565b6102bf6117f5565b610307600480360360208110156109d957600080fd5b50356001600160a01b0316611804565b6001600160e01b0319811660009081526020819052604090205460ff165b919050565b60098054604080516020601f6002600019610100600188161502019095169490940493840181900481028201810190925282815260609390929091830182828015610a985780601f10610a6d57610100808354040283529160200191610a98565b820191906000526020600020905b815481529060010190602001808311610a7b57829003601f168201915b505050505090505b90565b6000610aae82611857565b610ae95760405162461bcd60e51b815260040180806020018281038252602c815260200180612df8602c913960400191505060405180910390fd5b506000908152600260205260409020546001600160a01b031690565b6000610b1082610f7b565b9050806001600160a01b0316836001600160a01b03161415610b635760405162461bcd60e51b8152600401808060200182810382526021815260200180612ec86021913960400191505060405180910390fd5b806001600160a01b0316610b75611874565b6001600160a01b03161480610b965750610b9681610b91611874565b6117c7565b610bd15760405162461bcd60e51b8152600401808060200182810382526038815260200180612d6d6038913960400191505060405180910390fd5b610bdb8383611878565b505050565b601054600160a01b900460ff1681565b610bf983610f7b565b6001600160a01b0316610c0a611874565b6001600160a01b031614610c4f5760405162461bcd60e51b8152600401808060200182810382526028815260200180612c726028913960400191505060405180910390fd5b610bdb8383838080601f0160208091040260200160405190810160405280939291908181526020018383808284376000920191909152506118e692505050565b60075490565b610ca6610ca0611874565b82611949565b610ce15760405162461bcd60e51b8152600401808060200182810382526031815260200180612ee96031913960400191505060405180910390fd5b610bdb8383836119ed565b6000610cf7836110c4565b8210610d345760405162461bcd60e51b815260040180806020018281038252602b815260200180612c9a602b913960400191505060405180910390fd5b6001600160a01b0383166000908152600560205260409020805483908110610d5857fe5b9060005260206000200154905092915050565b610d736111db565b610db2576040805162461bcd60e51b81526020600482018190526024820152600080516020612e50833981519152604482015290519081900360640190fd5b610bdb8383838080601f016020809104026020016040519081016040528093929190818152602001838380828437600092019190915250611b3e92505050565b6000610eeb8b610ee68c8c8080601f016020809104026020016040519081016040528093929190818152602001838380828437600081840152601f19601f820116905080830192505050505050508b8b8080601f01602080910402602001604051908101604052809392919081815260200183838082843760009201919091525050604080516020601f8f018190048102820181019092528d815292508d91508c908190840183828082843760009201919091525050604080516020601f8d018190048102820181019092528b81528d935091508b908b9081908401838280828437600092019190915250611ca392505050565b611e89565b9b9a5050505050505050505050565b610bdb83838360405180602001604052806000815250611367565b6000610f1f610c8f565b8210610f5c5760405162461bcd60e51b815260040180806020018281038252602c815260200180612f1a602c913960400191505060405180910390fd5b60078281548110610f6957fe5b90600052602060002001549050919050565b6000818152600160205260408120546001600160a01b031680610fcf5760405162461bcd60e51b8152600401808060200182810382526029815260200180612dcf6029913960400191505060405180910390fd5b92915050565b600b8054604080516020601f6002600019610100600188161502019095169490940493840181900481028201810190925282815260609390929091830182828015610a985780601f10610a6d57610100808354040283529160200191610a98565b600f805460408051602060026001851615610100026000190190941693909304601f810184900484028201840190925281815292918301828280156110bc5780601f10611091576101008083540402835291602001916110bc565b820191906000526020600020905b81548152906001019060200180831161109f57829003601f168201915b505050505081565b60006001600160a01b03821661110b5760405162461bcd60e51b815260040180806020018281038252602a815260200180612da5602a913960400191505060405180910390fd5b6001600160a01b0382166000908152600360205260409020610fcf906120b1565b6111346111db565b611173576040805162461bcd60e51b81526020600482018190526024820152600080516020612e50833981519152604482015290519081900360640190fd5b600d546040516000916001600160a01b0316907f8be0079c531659141344cd1fd0a4f28419497f9722a3daafe3b4186f6b6457e0908390a3600d80546001600160a01b0319169055565b6010546001600160a01b031681565b600d546001600160a01b031690565b600d546000906001600160a01b03166111f2611874565b6001600160a01b031614905090565b600a8054604080516020601f6002600019610100600188161502019095169490940493840181900481028201810190925282815260609390929091830182828015610a985780601f10610a6d57610100808354040283529160200191610a98565b61126a611874565b6001600160a01b0316826001600160a01b031614156112d0576040805162461bcd60e51b815260206004820152601960248201527f4552433732313a20617070726f766520746f2063616c6c657200000000000000604482015290519081900360640190fd5b80600460006112dd611874565b6001600160a01b03908116825260208083019390935260409182016000908120918716808252919093529120805460ff191692151592909217909155611321611874565b60408051841515815290516001600160a01b0392909216917f17307eab39ab6107e8899845ad3d59bd9653f200f220920489ca2b5937696c319181900360200190a35050565b611378611372611874565b83611949565b6113b35760405162461bcd60e51b8152600401808060200182810382526031815260200180612ee96031913960400191505060405180910390fd5b6113bf848484846120b5565b50505050565b60006113d9826001600160a01b0316611857565b80610fcf57506010546001600160a01b031615801590610fcf57506010546040805163c3c5a54760e01b81526001600160a01b0385811660048301529151919092169163c3c5a547916024808301926020929190829003018186803b15801561144157600080fd5b505afa158015611455573d6000803e3d6000fd5b505050506040513d602081101561146b57600080fd5b505192915050565b61147b6111db565b6114ba576040805162461bcd60e51b81526020600482018190526024820152600080516020612e50833981519152604482015290519081900360640190fd5b601054600160a01b900460ff16156114d157600080fd5b60108054600160a01b60ff60a01b19909116176001600160a01b0319166001600160a01b0392909216919091179055565b606061150d82611857565b6115485760405162461bcd60e51b815260040180806020018281038252602f815260200180612e99602f913960400191505060405180910390fd5b6000828152600c602090815260409182902080548351601f60026000196101006001861615020190931692909204918201849004840281018401909452808452606093928301828280156115dd5780601f106115b2576101008083540402835291602001916115dd565b820191906000526020600020905b8154815290600101906020018083116115c057829003601f168201915b50505050509050805160001415611604575050604080516020810190915260008152610a07565b600b8160405160200180838054600181600116156101000203166002900480156116655780601f10611643576101008083540402835291820191611665565b820191906000526020600020905b815481529060010190602001808311611651575b5050825160208401908083835b602083106116915780518252601f199092019160209182019101611672565b6001836020036101000a03801982511681845116808217855250505050505090500192505050604051602081830303815290604052915050610a07565b6000610eeb8b6117c28c8c8080601f016020809104026020016040519081016040528093929190818152602001838380828437600081840152601f19601f820116905080830192505050505050508b8b8080601f01602080910402602001604051908101604052809392919081815260200183838082843760009201919091525050604080516020601f8f018190048102820181019092528d815292508d91508c908190840183828082843760009201919091525050604080516020601f8d018190048102820181019092528b81528d935091508b908b9081908401838280828437600092019190915250611ca392505050565b612107565b6001600160a01b03918216600090815260046020908152604080832093909416825291909152205460ff1690565b600e546001600160a01b031681565b61180c6111db565b61184b576040805162461bcd60e51b81526020600482018190526024820152600080516020612e50833981519152604482015290519081900360640190fd5b61185481612249565b50565b6000908152600160205260409020546001600160a01b0316151590565b3390565b600081815260026020526040902080546001600160a01b0319166001600160a01b03841690811790915581906118ad82610f7b565b6001600160a01b03167f8c5be1e5ebec7d5bd14f71427d1e84f3dd0314c0f7b2291e5b200ac8c7c3b92560405160405180910390a45050565b6118ef82611857565b61192a5760405162461bcd60e51b815260040180806020018281038252602c815260200180612e24602c913960400191505060405180910390fd5b6000828152600c602090815260409091208251610bdb92840190612b99565b600061195482611857565b61198f5760405162461bcd60e51b815260040180806020018281038252602c815260200180612d41602c913960400191505060405180910390fd5b600061199a83610f7b565b9050806001600160a01b0316846001600160a01b031614806119d55750836001600160a01b03166119ca84610aa3565b6001600160a01b0316145b806119e557506119e581856117c7565b949350505050565b826001600160a01b0316611a0082610f7b565b6001600160a01b031614611a455760405162461bcd60e51b8152600401808060200182810382526029815260200180612e706029913960400191505060405180910390fd5b6001600160a01b038216611a8a5760405162461bcd60e51b8152600401808060200182810382526024815260200180612d1d6024913960400191505060405180910390fd5b611a958383836122ea565b611aa0600082611878565b6001600160a01b0383166000908152600360205260409020611ac1906122f5565b6001600160a01b0382166000908152600360205260409020611ae29061230c565b60008181526001602052604080822080546001600160a01b0319166001600160a01b0386811691821790925591518493918716917fddf252ad1be2c89b69c2b068fc378daa952ba7f163c4a11628f55a4df523b3ef91a4505050565b604080516302571be360e01b81527f91d1777781884d03a6757a803996e38de2a42967fb37eeaca72729271025a9e2600482015290516001600160a01b038416916302571be3916024808301926020929190829003018186803b158015611ba457600080fd5b505afa158015611bb8573d6000803e3d6000fd5b505050506040513d6020811015611bce57600080fd5b505160405163c47f002760e01b81526020600482018181528451602484015284516001600160a01b039094169363c47f002793869383926044909201919085019080838360005b83811015611c2d578181015183820152602001611c15565b50505050905090810190601f168015611c5a5780820380516001836020036101000a031916815260200191505b5092505050602060405180830381600087803b158015611c7957600080fd5b505af1158015611c8d573d6000803e3d6000fd5b505050506040513d60208110156113bf57600080fd5b60608585858585604051602401808060200180602001806020018681526020018060200185810385528a818151815260200191508051906020019080838360005b83811015611cfc578181015183820152602001611ce4565b50505050905090810190601f168015611d295780820380516001836020036101000a031916815260200191505b5085810384528951815289516020918201918b019080838360005b83811015611d5c578181015183820152602001611d44565b50505050905090810190601f168015611d895780820380516001836020036101000a031916815260200191505b5085810383528851815288516020918201918a019080838360005b83811015611dbc578181015183820152602001611da4565b50505050905090810190601f168015611de95780820380516001836020036101000a031916815260200191505b50858103825286518152865160209182019188019080838360005b83811015611e1c578181015183820152602001611e04565b50505050905090810190601f168015611e495780820380516001836020036101000a031916815260200191505b5060408051601f198184030181529190526020810180516001600160e01b03166386c02c8f60e01b1790529a505050505050505050505095945050505050565b600080611fba83856040516020018083805190602001908083835b60208310611ec35780518252601f199092019160209182019101611ea4565b6001836020036101000a038019825116818451168082178552505050505050905001826001600160a01b03166001600160a01b031660601b81526014019250505060405160208183030381529060405280519060200120600f8054600181600116156101000203166002900480601f016020809104026020016040519081016040528092919081815260200182805460018160011615610100020316600290048015611fb05780601f10611f8557610100808354040283529160200191611fb0565b820191906000526020600020905b815481529060010190602001808311611f9357829003601f168201915b5050505050612315565b600e546040805163347d5e2560e21b81526001600160a01b0392831660048201818152602483019384528851604484015288519596509386169463d1f5789494919389939091606490910190602085019080838360005b83811015612029578181015183820152602001612011565b50505050905090810190601f1680156120565780820380516001836020036101000a031916815260200191505b509350505050600060405180830381600087803b15801561207657600080fd5b505af115801561208a573d6000803e3d6000fd5b505050506120a184826001600160a01b0316612386565b6001600160a01b03169392505050565b5490565b6120c08484846119ed565b6120cc848484846124c3565b6113bf5760405162461bcd60e51b8152600401808060200182810382526032815260200180612cc56032913960400191505060405180910390fd5b60008061223883856040516020018083805190602001908083835b602083106121415780518252601f199092019160209182019101612122565b6001836020036101000a038019825116818451168082178552505050505050905001826001600160a01b03166001600160a01b031660601b81526014019250505060405160208183030381529060405280519060200120600f8054600181600116156101000203166002900480601f01602080910402602001604051908101604052809291908181526020018280546001816001161561010002031660029004801561222e5780601f106122035761010080835404028352916020019161222e565b820191906000526020600020905b81548152906001019060200180831161221157829003601f168201915b50505050506126fe565b6001600160a01b0316949350505050565b6001600160a01b03811661228e5760405162461bcd60e51b8152600401808060200182810382526026815260200180612cf76026913960400191505060405180910390fd5b600d546040516001600160a01b038084169216907f8be0079c531659141344cd1fd0a4f28419497f9722a3daafe3b4186f6b6457e090600090a3600d80546001600160a01b0319166001600160a01b0392909216919091179055565b610bdb83838361270b565b805461230890600163ffffffff61276216565b9055565b80546001019055565b600080838351602085016000f590506001600160a01b03811661237f576040805162461bcd60e51b815260206004820152601960248201527f437265617465323a204661696c6564206f6e206465706c6f7900000000000000604482015290519081900360640190fd5b9392505050565b6001600160a01b0382166123e1576040805162461bcd60e51b815260206004820181905260248201527f4552433732313a206d696e7420746f20746865207a65726f2061646472657373604482015290519081900360640190fd5b6123ea81611857565b1561243c576040805162461bcd60e51b815260206004820152601c60248201527f4552433732313a20746f6b656e20616c7265616479206d696e74656400000000604482015290519081900360640190fd5b612448600083836122ea565b600081815260016020908152604080832080546001600160a01b0319166001600160a01b0387169081179091558352600390915290206124879061230c565b60405181906001600160a01b038416906000907fddf252ad1be2c89b69c2b068fc378daa952ba7f163c4a11628f55a4df523b3ef908290a45050565b60006124d7846001600160a01b03166127a4565b6124e3575060016119e5565b600060606001600160a01b038616630a85bd0160e11b612501611874565b89888860405160240180856001600160a01b03166001600160a01b03168152602001846001600160a01b03166001600160a01b0316815260200183815260200180602001828103825283818151815260200191508051906020019080838360005b8381101561257a578181015183820152602001612562565b50505050905090810190601f1680156125a75780820380516001836020036101000a031916815260200191505b5060408051601f198184030181529181526020820180516001600160e01b03166001600160e01b0319909a16999099178952518151919890975087965094509250829150849050835b6020831061260f5780518252601f1990920191602091820191016125f0565b6001836020036101000a0380198251168184511680821785525050505050509050019150506000604051808303816000865af19150503d8060008114612671576040519150601f19603f3d011682016040523d82523d6000602084013e612676565b606091505b5091509150816126c7578051156126905780518082602001fd5b60405162461bcd60e51b8152600401808060200182810382526032815260200180612cc56032913960400191505060405180910390fd5b60008180602001905160208110156126de57600080fd5b50516001600160e01b031916630a85bd0160e11b1493506119e592505050565b600061237f8383306127dd565b6127168383836127f1565b6001600160a01b038216610bdb576000818152600c60205260409020546002600019610100600184161502019091160415610bdb576000818152600c60205260408120610bdb91612c17565b600061237f83836040518060400160405280601e81526020017f536166654d6174683a207375627472616374696f6e206f766572666c6f770000815250612866565b6000813f7fc5d2460186f7233c927e7db2dcc703c0e500b653ca82273b7bfad8045d85a4708181148015906119e5575050151592915050565b60006119e5848480519060200120846128fd565b6127fc838383610bdb565b6001600160a01b038316612822576128148282612961565b61281d8161299f565b610bdb565b6001600160a01b0382166128525761283a83826129e3565b60008181526006602052604081205561281d81612ae5565b61285c83826129e3565b610bdb8282612961565b600081848411156128f55760405162461bcd60e51b81526004018080602001828103825283818151815260200191508051906020019080838360005b838110156128ba5781810151838201526020016128a2565b50505050905090810190601f1680156128e75780820380516001836020036101000a031916815260200191505b509250505060405180910390fd5b505050900390565b604080516001600160f81b031960208083019190915260609390931b6bffffffffffffffffffffffff19166021820152603581019490945260558085019390935280518085039093018352607590930190925280519101206001600160a01b031690565b6001600160a01b0390911660009081526005602081815260408084208054868652600684529185208290559282526001810183559183529091200155565b600780546000838152600860205260408120829055600182018355919091527fa66cc928b5edb82af9bd49922954155ab7b0942694bea4ce44661d9a8736c6880155565b6001600160a01b038216600090815260056020526040812054612a0d90600163ffffffff61276216565b600083815260066020526040902054909150808214612aa8576001600160a01b0384166000908152600560205260408120805484908110612a4a57fe5b906000526020600020015490508060056000876001600160a01b03166001600160a01b031681526020019081526020016000208381548110612a8857fe5b600091825260208083209091019290925591825260069052604090208190555b6001600160a01b0384166000908152600560205260409020805480612ac957fe5b6001900381819060005260206000200160009055905550505050565b600754600090612afc90600163ffffffff61276216565b60008381526008602052604081205460078054939450909284908110612b1e57fe5b906000526020600020015490508060078381548110612b3957fe5b60009182526020808320909101929092558281526008909152604090208290556007805480612b6457fe5b600190038181906000526020600020016000905590556000600860008681526020019081526020016000208190555050505050565b828054600181600116156101000203166002900490600052602060002090601f016020900481019282601f10612bda57805160ff1916838001178555612c07565b82800160010185558215612c07579182015b82811115612c07578251825591602001919060010190612bec565b50612c13929150612c57565b5090565b50805460018160011615610100020316600290046000825580601f10612c3d5750611854565b601f01602090049060005260206000209081019061185491905b610aa091905b80821115612c135760008155600101612c5d56fe4552433732313a20616363657373207265737472696374656420746f20746f6b656e206f776e6572455243373231456e756d657261626c653a206f776e657220696e646578206f7574206f6620626f756e64734552433732313a207472616e7366657220746f206e6f6e20455243373231526563656976657220696d706c656d656e7465724f776e61626c653a206e6577206f776e657220697320746865207a65726f20616464726573734552433732313a207472616e7366657220746f20746865207a65726f20616464726573734552433732313a206f70657261746f7220717565727920666f72206e6f6e6578697374656e7420746f6b656e4552433732313a20617070726f76652063616c6c6572206973206e6f74206f776e6572206e6f7220617070726f76656420666f7220616c6c4552433732313a2062616c616e636520717565727920666f7220746865207a65726f20616464726573734552433732313a206f776e657220717565727920666f72206e6f6e6578697374656e7420746f6b656e4552433732313a20617070726f76656420717565727920666f72206e6f6e6578697374656e7420746f6b656e4552433732314d657461646174613a2055524920736574206f66206e6f6e6578697374656e7420746f6b656e4f776e61626c653a2063616c6c6572206973206e6f7420746865206f776e65724552433732313a207472616e73666572206f6620746f6b656e2074686174206973206e6f74206f776e4552433732314d657461646174613a2055524920717565727920666f72206e6f6e6578697374656e7420746f6b656e4552433732313a20617070726f76616c20746f2063757272656e74206f776e65724552433732313a207472616e736665722063616c6c6572206973206e6f74206f776e6572206e6f7220617070726f766564455243373231456e756d657261626c653a20676c6f62616c20696e646578206f7574206f6620626f756e6473a26469706673582212204e41213997edae41f15e178226182fe8cb57146c3240d50d6c300978686a4f0864736f6c63430006040033608060405234801561001057600080fd5b50610a19806100206000396000f3fe608060405234801561001057600080fd5b50600436106100935760003560e01c806384aaf12e1161006657806384aaf12e146101c157806386c02c8f146101db5780638da5cb5b14610416578063e30d26a81461041e578063f8c2ceb31461042657610093565b80633121db1c14610098578063358982a31461011857806339e75d45146101955780637b1039991461019d575b600080fd5b610116600480360360408110156100ae57600080fd5b6001600160a01b038235169190810190604081016020820135600160201b8111156100d857600080fd5b8201836020820111156100ea57600080fd5b803590602001918460018302840111600160201b8311171561010b57600080fd5b50909250905061042e565b005b6101206104d7565b6040805160208082528351818301528351919283929083019185019080838360005b8381101561015a578181015183820152602001610142565b50505050905090810190601f1680156101875780820380516001836020036101000a031916815260200191505b509250505060405180910390f35b610120610564565b6101a56105bf565b604080516001600160a01b039092168252519081900360200190f35b6101c96105ce565b60408051918252519081900360200190f35b610116600480360360a08110156101f157600080fd5b810190602081018135600160201b81111561020b57600080fd5b82018360208201111561021d57600080fd5b803590602001918460018302840111600160201b8311171561023e57600080fd5b91908080601f0160208091040260200160405190810160405280939291908181526020018383808284376000920191909152509295949360208101935035915050600160201b81111561029057600080fd5b8201836020820111156102a257600080fd5b803590602001918460018302840111600160201b831117156102c357600080fd5b91908080601f0160208091040260200160405190810160405280939291908181526020018383808284376000920191909152509295949360208101935035915050600160201b81111561031557600080fd5b82018360208201111561032757600080fd5b803590602001918460018302840111600160201b8311171561034857600080fd5b91908080601f01602080910402602001604051908101604052809392919081815260200183838082843760009201919091525092958435959094909350604081019250602001359050600160201b8111156103a257600080fd5b8201836020820111156103b457600080fd5b803590602001918460018302840111600160201b831117156103d557600080fd5b91908080601f0160208091040260200160405190810160405280939291908181526020018383808284376000920191909152509295506105d4945050505050565b6101a5610639565b6101206106b7565b610120610712565b33610437610639565b6001600160a01b031614610492576040805162461bcd60e51b815260206004820152601760248201527f63616c6c6572206973206e6f7420746865206f776e6572000000000000000000604482015290519081900360640190fd5b6104d28383838080601f01602080910402602001604051908101604052809392919081815260200183838082843760009201919091525061076a92505050565b505050565b60018054604080516020600284861615610100026000190190941693909304601f8101849004840282018401909252818152929183018282801561055c5780601f106105315761010080835404028352916020019161055c565b820191906000526020600020905b81548152906001019060200180831161053f57829003601f168201915b505050505081565b6003805460408051602060026001851615610100026000190190941693909304601f8101849004840282018401909252818152929183018282801561055c5780601f106105315761010080835404028352916020019161055c565b6000546001600160a01b031681565b60045481565b6105dd336108d5565b84516105f090600190602088019061094b565b50835161060490600290602087019061094b565b50825161061890600390602086019061094b565b506004829055805161063190600590602084019061094b565b505050505050565b60008054604080516331a9108f60e11b815230600482015290516001600160a01b0390921691636352211e91602480820192602092909190829003018186803b15801561068557600080fd5b505afa158015610699573d6000803e3d6000fd5b505050506040513d60208110156106af57600080fd5b505190505b90565b6005805460408051602060026001851615610100026000190190941693909304601f8101849004840282018401909252818152929183018282801561055c5780601f106105315761010080835404028352916020019161055c565b6002805460408051602060018416156101000260001901909316849004601f8101849004840282018401909252818152929183018282801561055c5780601f106105315761010080835404028352916020019161055c565b604080516302571be360e01b81527f91d1777781884d03a6757a803996e38de2a42967fb37eeaca72729271025a9e2600482015290516001600160a01b038416916302571be3916024808301926020929190829003018186803b1580156107d057600080fd5b505afa1580156107e4573d6000803e3d6000fd5b505050506040513d60208110156107fa57600080fd5b505160405163c47f002760e01b81526020600482018181528451602484015284516001600160a01b039094169363c47f002793869383926044909201919085019080838360005b83811015610859578181015183820152602001610841565b50505050905090810190601f1680156108865780820380516001836020036101000a031916815260200191505b5092505050602060405180830381600087803b1580156108a557600080fd5b505af11580156108b9573d6000803e3d6000fd5b505050506040513d60208110156108cf57600080fd5b50505050565b6000546001600160a01b031615610929576040805162461bcd60e51b8152602060048201526013602482015272185b1c9958591e481a5b9a5d1a585b1a5e9959606a1b604482015290519081900360640190fd5b600080546001600160a01b0319166001600160a01b0392909216919091179055565b828054600181600116156101000203166002900490600052602060002090601f016020900481019282601f1061098c57805160ff19168380011785556109b9565b828001600101855582156109b9579182015b828111156109b957825182559160200191906001019061099e565b506109c59291506109c9565b5090565b6106b491905b808211156109c557600081556001016109cf56fea2646970667358221220037376c91a13998abd4e6fd9debeb3bfa1df79cc5cec68a30adcedf64dac753264736f6c63430006040033608060405234801561001057600080fd5b506103ad806100206000396000f3fe6080604052600436106100225760003560e01c8063d1f578941461003957610031565b366100315761002f6100ef565b005b61002f6100ef565b61002f6004803603604081101561004f57600080fd5b6001600160a01b03823516919081019060408101602082013564010000000081111561007a57600080fd5b82018360208201111561008c57600080fd5b803590602001918460018302840111640100000000831117156100ae57600080fd5b91908080601f016020809104026020016040519081016040528093929190818152602001838380828437600092019190915250929550610109945050505050565b6100f7610107565b61010761010261022c565b610251565b565b600061011361022c565b6001600160a01b03161461012657600080fd5b60405180602361031a82396040519081900360230190207f7050c9e0f4ca769c69bd3a8ef740bc37934f8e2c036e5a723fd8ee048ed3f8c314905061016757fe5b61017082610275565b805115610228576000826001600160a01b0316826040518082805190602001908083835b602083106101b35780518252601f199092019160209182019101610194565b6001836020036101000a038019825116818451168082178552505050505050905001915050600060405180830381855af49150503d8060008114610213576040519150601f19603f3d011682016040523d82523d6000602084013e610218565b606091505b505090508061022657600080fd5b505b5050565b7f7050c9e0f4ca769c69bd3a8ef740bc37934f8e2c036e5a723fd8ee048ed3f8c35490565b3660008037600080366000845af43d6000803e808015610270573d6000f35b3d6000fd5b61027e816102dd565b6102b95760405162461bcd60e51b815260040180806020018281038252603b81526020018061033d603b913960400191505060405180910390fd5b7f7050c9e0f4ca769c69bd3a8ef740bc37934f8e2c036e5a723fd8ee048ed3f8c355565b6000813f7fc5d2460186f7233c927e7db2dcc703c0e500b653ca82273b7bfad8045d85a47081811480159061031157508115155b94935050505056fe6f72672e7a657070656c696e6f732e70726f78792e696d706c656d656e746174696f6e43616e6e6f742073657420612070726f787920696d706c656d656e746174696f6e20746f2061206e6f6e2d636f6e74726163742061646472657373a264697066735822122054d7aa3c843bf41b29a61ce539db1f2e9829491d85c504242e389b69b3c5f59164736f6c63430006040033",
  "source": "pragma solidity ^0.6.0;\n\nimport '../Registry.sol';\nimport './App.sol';\n\n\ncontract AppRegistry is Registry\n{\n\t/**\n\t * Constructor\n\t */\n\tconstructor()\n\tpublic Registry(\n\t\taddress(new App()),\n\t\t\"iExec Application Registry (V5)\",\n\t\t\"iExecAppsV5\")\n\t{\n\t}\n\n\t/**\n\t * App creation\n\t */\n\tfunction encodeInitializer(\n\t\tstring  memory _appName,\n\t\tstring  memory _appType,\n\t\tbytes   memory _appMultiaddr,\n\t\tbytes32        _appChecksum,\n\t\tbytes   memory _appMREnclave)\n\tinternal pure returns (bytes memory)\n\t{\n\t\treturn abi.encodeWithSignature(\n\t\t\t\"initialize(string,string,bytes,bytes32,bytes)\",\n\t\t\t_appName,\n\t\t\t_appType,\n\t\t\t_appMultiaddr,\n\t\t\t_appChecksum,\n\t\t\t_appMREnclave\n\t\t);\n\t}\n\n\tfunction createApp(\n\t\taddress          _appOwner,\n\t\tstring  calldata _appName,\n\t\tstring  calldata _appType,\n\t\tbytes   calldata _appMultiaddr,\n\t\tbytes32          _appChecksum,\n\t\tbytes   calldata _appMREnclave)\n\texternal returns (App)\n\t{\n\t\treturn App(_mintCreate(_appOwner, encodeInitializer(_appName, _appType, _appMultiaddr, _appChecksum, _appMREnclave)));\n\t}\n\n\tfunction predictApp(\n\t\taddress          _appOwner,\n\t\tstring  calldata _appName,\n\t\tstring  calldata _appType,\n\t\tbytes   calldata _appMultiaddr,\n\t\tbytes32          _appChecksum,\n\t\tbytes   calldata _appMREnclave)\n\texternal view returns (App)\n\t{\n\t\treturn App(_mintPredict(_appOwner, encodeInitializer(_appName, _appType, _appMultiaddr, _appChecksum, _appMREnclave)));\n\t}\n}\n",
  "sourcePath": "/home/amxx/Work/iExec/code/PoCo-dev/contracts/registries/apps/AppRegistry.sol",
  "compiler": {
    "name": "solc",
    "version": "0.6.4+commit.1dca32f3.Emscripten.clang"
  },
  "schemaVersion": "3.0.23",
  "updatedAt": "2020-03-16T11:20:17.330Z",
  "devdoc": {
    "methods": {
      "approve(address,uint256)": {
        "details": "Approves another address to transfer the given token ID The zero address indicates there is no approved address. There can only be one approved address per token at a given time. Can only be called by the token owner or an approved operator.",
        "params": {
          "to": "address to be approved for the given token ID",
          "tokenId": "uint256 ID of the token to be approved"
        }
      },
      "balanceOf(address)": {
        "details": "Gets the balance of the specified address.",
        "params": {
          "owner": "address to query the balance of"
        },
        "returns": {
          "_0": "uint256 representing the amount owned by the passed address"
        }
      },
      "baseURI()": {
        "details": "Returns the base URI set via {_setBaseURI}. This will be automatically added as a preffix in {tokenURI} to each token's URI, when they are non-empty.    * _Available since v2.5.0._"
      },
      "getApproved(uint256)": {
        "details": "Gets the approved address for a token ID, or zero if no address set Reverts if the token ID does not exist.",
        "params": {
          "tokenId": "uint256 ID of the token to query the approval of"
        },
        "returns": {
          "_0": "address currently approved for the given token ID"
        }
      },
      "isApprovedForAll(address,address)": {
        "details": "Tells whether an operator is approved by a given owner.",
        "params": {
          "operator": "operator address which you want to query the approval of",
          "owner": "owner address which you want to query the approval of"
        },
        "returns": {
          "_0": "bool whether the given operator is approved by the given owner"
        }
      },
      "isOwner()": {
        "details": "Returns true if the caller is the current owner."
      },
      "name()": {
        "details": "Gets the token name.",
        "returns": {
          "_0": "string representing the token name"
        }
      },
      "owner()": {
        "details": "Returns the address of the current owner."
      },
      "ownerOf(uint256)": {
        "details": "Gets the owner of the specified token ID.",
        "params": {
          "tokenId": "uint256 ID of the token to query the owner of"
        },
        "returns": {
          "_0": "address currently marked as the owner of the given token ID"
        }
      },
      "renounceOwnership()": {
        "details": "Leaves the contract without owner. It will not be possible to call `onlyOwner` functions anymore. Can only be called by the current owner.     * NOTE: Renouncing ownership will leave the contract without an owner, thereby removing any functionality that is only available to the owner."
      },
      "safeTransferFrom(address,address,uint256)": {
        "details": "Safely transfers the ownership of a given token ID to another address If the target address is a contract, it must implement {IERC721Receiver-onERC721Received}, which is called upon a safe transfer, and return the magic value `bytes4(keccak256(\"onERC721Received(address,address,uint256,bytes)\"))`; otherwise, the transfer is reverted. Requires the msg.sender to be the owner, approved, or operator",
        "params": {
          "from": "current owner of the token",
          "to": "address to receive the ownership of the given token ID",
          "tokenId": "uint256 ID of the token to be transferred"
        }
      },
      "safeTransferFrom(address,address,uint256,bytes)": {
        "details": "Safely transfers the ownership of a given token ID to another address If the target address is a contract, it must implement {IERC721Receiver-onERC721Received}, which is called upon a safe transfer, and return the magic value `bytes4(keccak256(\"onERC721Received(address,address,uint256,bytes)\"))`; otherwise, the transfer is reverted. Requires the _msgSender() to be the owner, approved, or operator",
        "params": {
          "_data": "bytes data to send along with a safe transfer check",
          "from": "current owner of the token",
          "to": "address to receive the ownership of the given token ID",
          "tokenId": "uint256 ID of the token to be transferred"
        }
      },
      "setApprovalForAll(address,bool)": {
        "details": "Sets or unsets the approval of a given operator An operator is allowed to transfer all tokens of the sender on their behalf.",
        "params": {
          "approved": "representing the status of the approval to be set",
          "operator": "operator address to set the approval"
        }
      },
      "supportsInterface(bytes4)": {
        "details": "See {IERC165-supportsInterface}.     * Time complexity O(1), guaranteed to always use less than 30 000 gas."
      },
      "symbol()": {
        "details": "Gets the token symbol.",
        "returns": {
          "_0": "string representing the token symbol"
        }
      },
      "tokenByIndex(uint256)": {
        "details": "Gets the token ID at a given index of all the tokens in this contract Reverts if the index is greater or equal to the total number of tokens.",
        "params": {
          "index": "uint256 representing the index to be accessed of the tokens list"
        },
        "returns": {
          "_0": "uint256 token ID at the given index of the tokens list"
        }
      },
      "tokenOfOwnerByIndex(address,uint256)": {
        "details": "Gets the token ID at a given index of the tokens list of the requested owner.",
        "params": {
          "index": "uint256 representing the index to be accessed of the requested tokens list",
          "owner": "address owning the tokens list to be accessed"
        },
        "returns": {
          "_0": "uint256 token ID at the given index of the tokens list owned by the requested address"
        }
      },
      "tokenURI(uint256)": {
        "details": "Returns the URI for a given token ID. May return an empty string.     * If the token's URI is non-empty and a base URI was set (via {_setBaseURI}), it will be added to the token ID's URI as a prefix.     * Reverts if the token ID does not exist."
      },
      "totalSupply()": {
        "details": "Gets the total amount of tokens stored by the contract.",
        "returns": {
          "_0": "uint256 representing the total amount of tokens"
        }
      },
      "transferFrom(address,address,uint256)": {
        "details": "Transfers the ownership of a given token ID to another address. Usage of this method is discouraged, use {safeTransferFrom} whenever possible. Requires the msg.sender to be the owner, approved, or operator.",
        "params": {
          "from": "current owner of the token",
          "to": "address to receive the ownership of the given token ID",
          "tokenId": "uint256 ID of the token to be transferred"
        }
      },
      "transferOwnership(address)": {
        "details": "Transfers ownership of the contract to a new account (`newOwner`). Can only be called by the current owner."
      }
    }
  },
  "userdoc": {
    "methods": {
      "constructor": "Constructor"
    }
  }
}