{
  "contractName": "AuthorizedList",
  "abi": [
    {
      "constant": false,
      "inputs": [
        {
          "name": "_actor",
          "type": "address"
        },
        {
          "name": "_isWhitelisted",
          "type": "bool"
        }
      ],
      "name": "updateWhitelist",
      "outputs": [],
      "payable": false,
      "stateMutability": "nonpayable",
      "type": "function"
    },
    {
      "constant": true,
      "inputs": [
        {
          "name": "_actor",
          "type": "address"
        }
      ],
      "name": "isActorAllowed",
      "outputs": [
        {
          "name": "",
          "type": "bool"
        }
      ],
      "payable": false,
      "stateMutability": "view",
      "type": "function"
    },
    {
      "constant": true,
      "inputs": [
        {
          "name": "_actor",
          "type": "address"
        }
      ],
      "name": "isWhitelisted",
      "outputs": [
        {
          "name": "",
          "type": "bool"
        }
      ],
      "payable": false,
      "stateMutability": "view",
      "type": "function"
    },
    {
      "constant": true,
      "inputs": [
        {
          "name": "",
          "type": "address"
        }
      ],
      "name": "m_blacklist",
      "outputs": [
        {
          "name": "",
          "type": "bool"
        }
      ],
      "payable": false,
      "stateMutability": "view",
      "type": "function"
    },
    {
      "constant": true,
      "inputs": [
        {
          "name": "",
          "type": "address"
        }
      ],
      "name": "m_whitelist",
      "outputs": [
        {
          "name": "",
          "type": "bool"
        }
      ],
      "payable": false,
      "stateMutability": "view",
      "type": "function"
    },
    {
      "constant": false,
      "inputs": [
        {
          "name": "_actor",
          "type": "address"
        },
        {
          "name": "_isBlacklisted",
          "type": "bool"
        }
      ],
      "name": "updateBlacklist",
      "outputs": [],
      "payable": false,
      "stateMutability": "nonpayable",
      "type": "function"
    },
    {
      "constant": false,
      "inputs": [
        {
          "name": "_actors",
          "type": "address[]"
        },
        {
          "name": "_isWhitelisted",
          "type": "bool"
        }
      ],
      "name": "updateWhitelist",
      "outputs": [],
      "payable": false,
      "stateMutability": "nonpayable",
      "type": "function"
    },
    {
      "constant": false,
      "inputs": [
        {
          "name": "_actors",
          "type": "address[]"
        },
        {
          "name": "_isBlacklisted",
          "type": "bool"
        }
      ],
      "name": "updateBlacklist",
      "outputs": [],
      "payable": false,
      "stateMutability": "nonpayable",
      "type": "function"
    },
    {
      "constant": false,
      "inputs": [
        {
          "name": "_policyEnum",
          "type": "uint8"
        }
      ],
      "name": "changeListPolicy",
      "outputs": [],
      "payable": false,
      "stateMutability": "nonpayable",
      "type": "function"
    },
    {
      "constant": true,
      "inputs": [],
      "name": "m_owner",
      "outputs": [
        {
          "name": "",
          "type": "address"
        }
      ],
      "payable": false,
      "stateMutability": "view",
      "type": "function"
    },
    {
      "constant": true,
      "inputs": [
        {
          "name": "_actor",
          "type": "address"
        }
      ],
      "name": "isblacklisted",
      "outputs": [
        {
          "name": "",
          "type": "bool"
        }
      ],
      "payable": false,
      "stateMutability": "view",
      "type": "function"
    },
    {
      "constant": false,
      "inputs": [
        {
          "name": "_newOwner",
          "type": "address"
        }
      ],
      "name": "transferOwnership",
      "outputs": [],
      "payable": false,
      "stateMutability": "nonpayable",
      "type": "function"
    },
    {
      "constant": true,
      "inputs": [],
      "name": "m_policy",
      "outputs": [
        {
          "name": "",
          "type": "uint8"
        }
      ],
      "payable": false,
      "stateMutability": "view",
      "type": "function"
    },
    {
      "inputs": [
        {
          "name": "_initialPolicy",
          "type": "uint8"
        }
      ],
      "payable": false,
      "stateMutability": "nonpayable",
      "type": "constructor"
    },
    {
      "anonymous": false,
      "inputs": [
        {
          "indexed": false,
          "name": "oldPolicy",
          "type": "uint8"
        },
        {
          "indexed": false,
          "name": "newPolicy",
          "type": "uint8"
        }
      ],
      "name": "PolicyChange",
      "type": "event"
    },
    {
      "anonymous": false,
      "inputs": [
        {
          "indexed": false,
          "name": "actor",
          "type": "address"
        },
        {
          "indexed": false,
          "name": "isWhitelisted",
          "type": "bool"
        }
      ],
      "name": "WhitelistChange",
      "type": "event"
    },
    {
      "anonymous": false,
      "inputs": [
        {
          "indexed": false,
          "name": "actor",
          "type": "address"
        },
        {
          "indexed": false,
          "name": "isBlacklisted",
          "type": "bool"
        }
      ],
      "name": "BlacklistChange",
      "type": "event"
    },
    {
      "anonymous": false,
      "inputs": [
        {
          "indexed": true,
          "name": "previousOwner",
          "type": "address"
        },
        {
          "indexed": true,
          "name": "newOwner",
          "type": "address"
        }
      ],
      "name": "OwnershipTransferred",
      "type": "event"
    }
  ],
  "bytecode": "0x6060604052341561000f57600080fd5b604051602080610c9d83398101604052808051906020019091905050336000806101000a81548173ffffffffffffffffffffffffffffffffffffffff021916908373ffffffffffffffffffffffffffffffffffffffff16021790555080600060146101000a81548160ff0219169083600181111561008957fe5b021790555050610bff8061009e6000396000f3006060604052600436106100c5576000357c0100000000000000000000000000000000000000000000000000000000900463ffffffff1680630d392cd9146100ca578063361895c81461010e5780633af32abf1461015f57806349c0a824146101b05780636c2e5bd2146102015780639155e08314610252578063aff177ca14610296578063bb0e69e8146102fb578063d821906d14610360578063deff41c114610386578063ed6a5965146103db578063f2fde38b1461042c578063f611754614610465575b600080fd5b34156100d557600080fd5b61010c600480803573ffffffffffffffffffffffffffffffffffffffff16906020019091908035151590602001909190505061049c565b005b341561011957600080fd5b610145600480803573ffffffffffffffffffffffffffffffffffffffff169060200190919050506105c1565b604051808215151515815260200191505060405180910390f35b341561016a57600080fd5b610196600480803573ffffffffffffffffffffffffffffffffffffffff16906020019091905050610612565b604051808215151515815260200191505060405180910390f35b34156101bb57600080fd5b6101e7600480803573ffffffffffffffffffffffffffffffffffffffff16906020019091905050610668565b604051808215151515815260200191505060405180910390f35b341561020c57600080fd5b610238600480803573ffffffffffffffffffffffffffffffffffffffff16906020019091905050610688565b604051808215151515815260200191505060405180910390f35b341561025d57600080fd5b610294600480803573ffffffffffffffffffffffffffffffffffffffff1690602001909190803515159060200190919050506106a8565b005b34156102a157600080fd5b6102f960048080359060200190820180359060200190808060200260200160405190810160405280939291908181526020018383602002808284378201915050505050509190803515159060200190919050506107cd565b005b341561030657600080fd5b61035e6004808035906020019082018035906020019080806020026020016040519081016040528093929190818152602001838360200280828437820191505050505050919080351515906020019091905050610869565b005b341561036b57600080fd5b610384600480803560ff16906020019091905050610905565b005b341561039157600080fd5b6103996109f0565b604051808273ffffffffffffffffffffffffffffffffffffffff1673ffffffffffffffffffffffffffffffffffffffff16815260200191505060405180910390f35b34156103e657600080fd5b610412600480803573ffffffffffffffffffffffffffffffffffffffff16906020019091905050610a15565b604051808215151515815260200191505060405180910390f35b341561043757600080fd5b610463600480803573ffffffffffffffffffffffffffffffffffffffff16906020019091905050610a6b565b005b341561047057600080fd5b610478610bc0565b6040518082600181111561048857fe5b60ff16815260200191505060405180910390f35b6000809054906101000a900473ffffffffffffffffffffffffffffffffffffffff1673ffffffffffffffffffffffffffffffffffffffff163373ffffffffffffffffffffffffffffffffffffffff161415156104f757600080fd5b80600160008473ffffffffffffffffffffffffffffffffffffffff1673ffffffffffffffffffffffffffffffffffffffff16815260200190815260200160002060006101000a81548160ff0219169083151502179055507f3f50d04114467f3ca25c50f1540e2864f8a852c0380bbbbb603ebfda10b5baf28282604051808373ffffffffffffffffffffffffffffffffffffffff1673ffffffffffffffffffffffffffffffffffffffff168152602001821515151581526020019250505060405180910390a15050565b60008060018111156105cf57fe5b600060149054906101000a900460ff1660018111156105ea57fe5b1415610600576105f982610612565b905061060d565b61060982610a15565b1590505b919050565b6000600160008373ffffffffffffffffffffffffffffffffffffffff1673ffffffffffffffffffffffffffffffffffffffff16815260200190815260200160002060009054906101000a900460ff169050919050565b60026020528060005260406000206000915054906101000a900460ff1681565b60016020528060005260406000206000915054906101000a900460ff1681565b6000809054906101000a900473ffffffffffffffffffffffffffffffffffffffff1673ffffffffffffffffffffffffffffffffffffffff163373ffffffffffffffffffffffffffffffffffffffff1614151561070357600080fd5b80600260008473ffffffffffffffffffffffffffffffffffffffff1673ffffffffffffffffffffffffffffffffffffffff16815260200190815260200160002060006101000a81548160ff0219169083151502179055507f739f0e2acc6e65f7a52f8eabe2ca426ca0fb5158e8232d7bcd21bebd59b4ea528282604051808373ffffffffffffffffffffffffffffffffffffffff1673ffffffffffffffffffffffffffffffffffffffff168152602001821515151581526020019250505060405180910390a15050565b60008060009054906101000a900473ffffffffffffffffffffffffffffffffffffffff1673ffffffffffffffffffffffffffffffffffffffff163373ffffffffffffffffffffffffffffffffffffffff1614151561082a57600080fd5b600090505b825181101561086457610859838281518110151561084957fe5b906020019060200201518361049c565b80600101905061082f565b505050565b60008060009054906101000a900473ffffffffffffffffffffffffffffffffffffffff1673ffffffffffffffffffffffffffffffffffffffff163373ffffffffffffffffffffffffffffffffffffffff161415156108c657600080fd5b600090505b8251811015610900576108f583828151811015156108e557fe5b90602001906020020151836106a8565b8060010190506108cb565b505050565b6000809054906101000a900473ffffffffffffffffffffffffffffffffffffffff1673ffffffffffffffffffffffffffffffffffffffff163373ffffffffffffffffffffffffffffffffffffffff1614151561096057600080fd5b7f587143794c2ab5603767c7ce3b183f9a3fca65156acc90d8ce888ffeabece64f600060149054906101000a900460ff1682604051808360018111156109a257fe5b60ff1681526020018260018111156109b657fe5b60ff1681526020019250505060405180910390a180600060146101000a81548160ff021916908360018111156109e857fe5b021790555050565b6000809054906101000a900473ffffffffffffffffffffffffffffffffffffffff1681565b6000600260008373ffffffffffffffffffffffffffffffffffffffff1673ffffffffffffffffffffffffffffffffffffffff16815260200190815260200160002060009054906101000a900460ff169050919050565b6000809054906101000a900473ffffffffffffffffffffffffffffffffffffffff1673ffffffffffffffffffffffffffffffffffffffff163373ffffffffffffffffffffffffffffffffffffffff16141515610ac657600080fd5b600073ffffffffffffffffffffffffffffffffffffffff168173ffffffffffffffffffffffffffffffffffffffff1614151515610b0257600080fd5b8073ffffffffffffffffffffffffffffffffffffffff166000809054906101000a900473ffffffffffffffffffffffffffffffffffffffff1673ffffffffffffffffffffffffffffffffffffffff167f8be0079c531659141344cd1fd0a4f28419497f9722a3daafe3b4186f6b6457e060405160405180910390a3806000806101000a81548173ffffffffffffffffffffffffffffffffffffffff021916908373ffffffffffffffffffffffffffffffffffffffff16021790555050565b600060149054906101000a900460ff16815600a165627a7a72305820b47d9d5e744c95bab82391c59f4ff9f469f6a66f2a18fb4dcdb360d8d6774cc90029",
  "source": "pragma solidity ^0.4.18;\nimport './OwnableOZ.sol';\n/**\n * WHITELIST AND BLACKLIST POLICY\n */\ncontract AuthorizedList is OwnableOZ\n{\n\tenum ListPolicyEnum { WHITELIST, BLACKLIST }\n\n\t/**\n\t * Members\n\t */\n\tListPolicyEnum           public m_policy;\n\tmapping(address => bool) public m_whitelist;\n\tmapping(address => bool) public m_blacklist;\n\n\t/**\n\t * Events\n\t */\n\tevent PolicyChange   (ListPolicyEnum oldPolicy, ListPolicyEnum newPolicy);\n\tevent WhitelistChange(address actor, bool isWhitelisted);\n\tevent BlacklistChange(address actor, bool isBlacklisted);\n\n\t/**\n\t* Constructor\n\t*/\n\tfunction AuthorizedList(ListPolicyEnum _initialPolicy) public\n\t{\n\t\tm_policy = _initialPolicy;\n\t}\n\n\t/**\n\t * Modifiers\n\t */\n\tmodifier checkWhitelist(address _actor)\n\t{\n\t\trequire(m_policy == ListPolicyEnum.BLACKLIST || m_whitelist[_actor] == true);\n\t\t_;\n\t}\n\n\tmodifier checkBlacklist(address _actor)\n\t{\n\t\trequire(m_policy == ListPolicyEnum.WHITELIST || m_blacklist[_actor] == false);\n\t\t_;\n\t}\n\n\t/**\n\t* Methods\n\t*/\n\tfunction changeListPolicy(ListPolicyEnum _policyEnum) public onlyOwner\n\t{\n\t\tPolicyChange(m_policy, _policyEnum);\n\t\tm_policy = _policyEnum;\n\t}\n\n\tfunction updateWhitelist(address _actor, bool _isWhitelisted) public onlyOwner\n\t{\n\t\tm_whitelist[_actor] = _isWhitelisted;\n\t\tWhitelistChange(_actor, _isWhitelisted);\n\t}\n\n\tfunction updateBlacklist(address _actor, bool _isBlacklisted) public onlyOwner\n\t{\n\t\tm_blacklist[_actor] = _isBlacklisted;\n\t\tBlacklistChange(_actor, _isBlacklisted);\n\t}\n\n\tfunction updateWhitelist(address[] _actors, bool _isWhitelisted) public onlyOwner\n\t{\n\t\tfor (uint i = 0; i < _actors.length; ++i)\n\t\t{\n\t\t\tupdateWhitelist(_actors[i], _isWhitelisted);\n\t\t}\n\t}\n\n\tfunction updateBlacklist(address[] _actors, bool _isBlacklisted) public onlyOwner\n\t{\n\t\tfor (uint i = 0; i < _actors.length; ++i)\n\t\t{\n\t\t\tupdateBlacklist(_actors[i], _isBlacklisted);\n\t\t}\n\t}\n\n\tfunction isWhitelisted(address _actor) public view returns (bool)\n\t{\n\t\treturn m_whitelist[_actor];\n\t}\n\n\tfunction isblacklisted(address _actor) public view returns (bool)\n\t{\n\t\treturn m_blacklist[_actor];\n\t}\n\n\tfunction isActorAllowed(address _actor) public view returns (bool)\n\t{\n\t\tif (m_policy == ListPolicyEnum.WHITELIST)\n\t\t{\n\t\t\treturn isWhitelisted(_actor);\n\t\t}\n\t\telse\n\t\t{\n\t\t\treturn !isblacklisted(_actor);\n\t\t}\n\t}\n}\n",
  "sourcePath": "/home/vagrant/iexecdev/PoCo/contracts/AuthorizedList.sol",
  "compiler": {
    "name": "solc",
    "version": "0.4.18+commit.9cf6e910.Emscripten.clang"
  },
  "schemaVersion": "1.0.1",
  "updatedAt": "2018-01-29T14:56:05.510Z"
}