{
  "contractName": "CategoryManager",
  "abi": [
    {
      "constant": false,
      "inputs": [],
      "name": "renounceOwnership",
      "outputs": [],
      "payable": false,
      "stateMutability": "nonpayable",
      "type": "function"
    },
    {
      "constant": true,
      "inputs": [],
      "name": "owner",
      "outputs": [
        {
          "name": "",
          "type": "address"
        }
      ],
      "payable": false,
      "stateMutability": "view",
      "type": "function"
    },
    {
      "constant": true,
      "inputs": [],
      "name": "isOwner",
      "outputs": [
        {
          "name": "",
          "type": "bool"
        }
      ],
      "payable": false,
      "stateMutability": "view",
      "type": "function"
    },
    {
      "constant": false,
      "inputs": [
        {
          "name": "newOwner",
          "type": "address"
        }
      ],
      "name": "transferOwnership",
      "outputs": [],
      "payable": false,
      "stateMutability": "nonpayable",
      "type": "function"
    },
    {
      "inputs": [],
      "payable": false,
      "stateMutability": "nonpayable",
      "type": "constructor"
    },
    {
      "anonymous": false,
      "inputs": [
        {
          "indexed": false,
          "name": "catid",
          "type": "uint256"
        },
        {
          "indexed": false,
          "name": "name",
          "type": "string"
        },
        {
          "indexed": false,
          "name": "description",
          "type": "string"
        },
        {
          "indexed": false,
          "name": "workClockTimeRef",
          "type": "uint256"
        }
      ],
      "name": "CreateCategory",
      "type": "event"
    },
    {
      "anonymous": false,
      "inputs": [
        {
          "indexed": true,
          "name": "previousOwner",
          "type": "address"
        },
        {
          "indexed": true,
          "name": "newOwner",
          "type": "address"
        }
      ],
      "name": "OwnershipTransferred",
      "type": "event"
    },
    {
      "constant": true,
      "inputs": [
        {
          "name": "_catid",
          "type": "uint256"
        }
      ],
      "name": "viewCategory",
      "outputs": [
        {
          "components": [
            {
              "name": "name",
              "type": "string"
            },
            {
              "name": "description",
              "type": "string"
            },
            {
              "name": "workClockTimeRef",
              "type": "uint256"
            }
          ],
          "name": "category",
          "type": "tuple"
        }
      ],
      "payable": false,
      "stateMutability": "view",
      "type": "function"
    },
    {
      "constant": true,
      "inputs": [],
      "name": "countCategory",
      "outputs": [
        {
          "name": "count",
          "type": "uint256"
        }
      ],
      "payable": false,
      "stateMutability": "view",
      "type": "function"
    },
    {
      "constant": false,
      "inputs": [
        {
          "name": "name",
          "type": "string"
        },
        {
          "name": "description",
          "type": "string"
        },
        {
          "name": "workClockTimeRef",
          "type": "uint256"
        }
      ],
      "name": "createCategory",
      "outputs": [
        {
          "name": "",
          "type": "uint256"
        }
      ],
      "payable": false,
      "stateMutability": "nonpayable",
      "type": "function"
    }
  ],
  "bytecode": "0x608060405234801561001057600080fd5b5060008054600160a060020a0319163317808255604051600160a060020a039190911691907f8be0079c531659141344cd1fd0a4f28419497f9722a3daafe3b4186f6b6457e0908290a361091a806100696000396000f3fe608060405234801561001057600080fd5b506004361061009a576000357c0100000000000000000000000000000000000000000000000000000000900480638da5cb5b116100785780638da5cb5b146100f25780638f32d59b14610107578063c140996f1461011c578063f2fde38b146101245761009a565b8063298503d91461009f5780634f5f44ec146100c8578063715018a6146100e8575b600080fd5b6100b26100ad366004610654565b610137565b6040516100bf91906107f6565b60405180910390f35b6100db6100d63660046106da565b610275565b6040516100bf91906107de565b6100f06103e9565b005b6100fa610451565b6040516100bf91906107c2565b61010f610461565b6040516100bf91906107d0565b6100b2610472565b6100f061013236600461062e565b610478565b6000610141610461565b61014a57600080fd5b600060018060405180606001604052808a8a8080601f016020809104026020016040519081016040528093929190818152602001838380828437600092019190915250505090825250604080516020601f8b0181900481028201810190925289815291810191908a908a908190840183828082843760009201829052509385525050506020918201889052835460018101808655948252908290208351805160039093029091019261020192849290910190610510565b50602082810151805161021a9260018501920190610510565b506040820151816002015550500390507f62bf08360c9d561749c54eaf4f8bf8cb6c8b6f4f40607bcec39a8172e714d25c81888888888860405161026396959493929190610804565b60405180910390a19695505050505050565b61027d61058e565b6001828154811061028a57fe5b600091825260209182902060408051600393909302909101805460026001821615610100026000190190911604601f810185900490940283016080908101909252606083018481529293909284929091849184018282801561032d5780601f106103025761010080835404028352916020019161032d565b820191906000526020600020905b81548152906001019060200180831161031057829003601f168201915b50505050508152602001600182018054600181600116156101000203166002900480601f0160208091040260200160405190810160405280929190818152602001828054600181600116156101000203166002900480156103cf5780601f106103a4576101008083540402835291602001916103cf565b820191906000526020600020905b8154815290600101906020018083116103b257829003601f168201915b505050505081526020016002820154815250509050919050565b6103f1610461565b6103fa57600080fd5b60008054604051600160a060020a03909116907f8be0079c531659141344cd1fd0a4f28419497f9722a3daafe3b4186f6b6457e0908390a36000805473ffffffffffffffffffffffffffffffffffffffff19169055565b600054600160a060020a03165b90565b600054600160a060020a0316331490565b60015490565b610480610461565b61048957600080fd5b61049281610495565b50565b600160a060020a0381166104a857600080fd5b60008054604051600160a060020a03808516939216917f8be0079c531659141344cd1fd0a4f28419497f9722a3daafe3b4186f6b6457e091a36000805473ffffffffffffffffffffffffffffffffffffffff1916600160a060020a0392909216919091179055565b828054600181600116156101000203166002900490600052602060002090601f016020900481019282601f1061055157805160ff191683800117855561057e565b8280016001018555821561057e579182015b8281111561057e578251825591602001919060010190610563565b5061058a9291506105af565b5090565b60405180606001604052806060815260200160608152602001600081525090565b61045e91905b8082111561058a57600081556001016105b5565b80356105d4816108c3565b92915050565b60008083601f8401126105ec57600080fd5b50813567ffffffffffffffff81111561060457600080fd5b60208301915083600182028301111561061c57600080fd5b9250929050565b80356105d4816108d7565b60006020828403121561064057600080fd5b600061064c84846105c9565b949350505050565b60008060008060006060868803121561066c57600080fd5b853567ffffffffffffffff81111561068357600080fd5b61068f888289016105da565b9550955050602086013567ffffffffffffffff8111156106ae57600080fd5b6106ba888289016105da565b935093505060406106cd88828901610623565b9150509295509295909350565b6000602082840312156106ec57600080fd5b600061064c8484610623565b61070181610861565b82525050565b6107018161086c565b600061071c8385610858565b935061072983858461087d565b610732836108b9565b9093019392505050565b600061074782610854565b6107518185610858565b9350610761818560208601610889565b610732816108b9565b8051606080845260009190840190610782828261073c565b9150506020830151848203602086015261079c828261073c565b91505060408301516107b160408601826107b9565b509392505050565b6107018161045e565b602081016105d482846106f8565b602081016105d48284610707565b602080825281016107ef818461076a565b9392505050565b602081016105d482846107b9565b6080810161081282896107b9565b8181036020830152610825818789610710565b9050818103604083015261083a818587610710565b905061084960608301846107b9565b979650505050505050565b5190565b90815260200190565b60006105d482610871565b151590565b600160a060020a031690565b82818337506000910152565b60005b838110156108a457818101518382015260200161088c565b838111156108b3576000848401525b50505050565b601f01601f191690565b6108cc81610861565b811461049257600080fd5b6108cc8161045e56fea265627a7a7230582016dc19d52622582dc1464987a2253df9dee59a8b64df1efc069e3a01d58a72196c6578706572696d656e74616cf50037",
  "source": "pragma solidity ^0.5.8;\npragma experimental ABIEncoderV2;\n\nimport \"openzeppelin-solidity/contracts/ownership/Ownable.sol\";\n\nimport \"./libs/IexecODBLibCore.sol\";\n\ncontract CategoryManager is Ownable\n{\n\t/**\n\t * Content\n\t */\n\tIexecODBLibCore.Category[] m_categories;\n\n\t/**\n\t * Event\n\t */\n\tevent CreateCategory(\n\t\tuint256 catid,\n\t\tstring  name,\n\t\tstring  description,\n\t\tuint256 workClockTimeRef);\n\n\t/**\n\t * Constructor\n\t */\n\tconstructor()\n\tpublic\n\t{\n\t}\n\n\t/**\n\t * Accessors\n\t */\n\tfunction viewCategory(uint256 _catid)\n\texternal view returns (IexecODBLibCore.Category memory category)\n\t{\n\t\treturn m_categories[_catid];\n\t}\n\n\tfunction countCategory()\n\texternal view returns (uint256 count)\n\t{\n\t\treturn m_categories.length;\n\t}\n\n\t/**\n\t * Methods\n\t */\n\tfunction createCategory(\n\t\tstring  calldata name,\n\t\tstring  calldata description,\n\t\tuint256          workClockTimeRef)\n\texternal onlyOwner returns (uint256)\n\t{\n\t\tuint256 catid = m_categories.push(IexecODBLibCore.Category(\n\t\t\tname,\n\t\t\tdescription,\n\t\t\tworkClockTimeRef\n\t\t)) - 1;\n\n\t\temit CreateCategory(\n\t\t\tcatid,\n\t\t\tname,\n\t\t\tdescription,\n\t\t\tworkClockTimeRef\n\t\t);\n\t\treturn catid;\n\t}\n\t/**\n\t * TODO: move to struct based initialization ?\n\t *\n\tfunction createCategory(IexecODBLib.Category _category)\n\tpublic onlyOwner returns (uint256)\n\t{\n\t\tuint256 catid = m_categories.push(_category);\n\t\temit CreateCategory(\n\t\t\tcatid,\n\t\t\t_category.name,\n\t\t\t_category.description,\n\t\t\t_category.workClockTimeRef\n\t\t);\n\t\treturn catid;\n\t}\n\t*/\n\n}\n",
  "sourcePath": "/home/amxx/Work/iExec/code/PoCo-dev/contracts/CategoryManager.sol",
  "compiler": {
    "name": "solc",
    "version": "0.5.8+commit.23d335f2.Emscripten.clang"
  },
  "schemaVersion": "3.0.8",
  "updatedAt": "2019-05-03T09:55:21.157Z",
  "devdoc": {
    "methods": {
      "isOwner()": {
        "return": "true if `msg.sender` is the owner of the contract."
      },
      "owner()": {
        "return": "the address of the owner."
      },
      "renounceOwnership()": {
        "details": "Allows the current owner to relinquish control of the contract. It will not be possible to call the functions with the `onlyOwner` modifier anymore."
      },
      "transferOwnership(address)": {
        "details": "Allows the current owner to transfer control of the contract to a newOwner.",
        "params": {
          "newOwner": "The address to transfer ownership to."
        }
      }
    }
  },
  "userdoc": {
    "methods": {
      "constructor": "Constructor",
      "createCategory(string,string,uint256)": {
        "notice": "Methods"
      },
      "renounceOwnership()": {
        "notice": "Renouncing ownership will leave the contract without an owner, thereby removing any functionality that is only available to the owner."
      },
      "viewCategory(uint256)": {
        "notice": "Accessors"
      }
    }
  }
}