{
  "contractName": "CategoryManager",
  "abi": [
    {
      "constant": false,
      "inputs": [],
      "name": "renounceOwnership",
      "outputs": [],
      "payable": false,
      "stateMutability": "nonpayable",
      "type": "function"
    },
    {
      "constant": true,
      "inputs": [],
      "name": "owner",
      "outputs": [
        {
          "name": "",
          "type": "address"
        }
      ],
      "payable": false,
      "stateMutability": "view",
      "type": "function"
    },
    {
      "constant": true,
      "inputs": [],
      "name": "isOwner",
      "outputs": [
        {
          "name": "",
          "type": "bool"
        }
      ],
      "payable": false,
      "stateMutability": "view",
      "type": "function"
    },
    {
      "constant": false,
      "inputs": [
        {
          "name": "newOwner",
          "type": "address"
        }
      ],
      "name": "transferOwnership",
      "outputs": [],
      "payable": false,
      "stateMutability": "nonpayable",
      "type": "function"
    },
    {
      "inputs": [],
      "payable": false,
      "stateMutability": "nonpayable",
      "type": "constructor"
    },
    {
      "anonymous": false,
      "inputs": [
        {
          "indexed": false,
          "name": "catid",
          "type": "uint256"
        },
        {
          "indexed": false,
          "name": "name",
          "type": "string"
        },
        {
          "indexed": false,
          "name": "description",
          "type": "string"
        },
        {
          "indexed": false,
          "name": "workClockTimeRef",
          "type": "uint256"
        }
      ],
      "name": "CreateCategory",
      "type": "event"
    },
    {
      "anonymous": false,
      "inputs": [
        {
          "indexed": true,
          "name": "previousOwner",
          "type": "address"
        },
        {
          "indexed": true,
          "name": "newOwner",
          "type": "address"
        }
      ],
      "name": "OwnershipTransferred",
      "type": "event"
    },
    {
      "constant": true,
      "inputs": [
        {
          "name": "_catid",
          "type": "uint256"
        }
      ],
      "name": "viewCategory",
      "outputs": [
        {
          "components": [
            {
              "name": "name",
              "type": "string"
            },
            {
              "name": "description",
              "type": "string"
            },
            {
              "name": "workClockTimeRef",
              "type": "uint256"
            }
          ],
          "name": "category",
          "type": "tuple"
        }
      ],
      "payable": false,
      "stateMutability": "view",
      "type": "function"
    },
    {
      "constant": true,
      "inputs": [],
      "name": "countCategory",
      "outputs": [
        {
          "name": "count",
          "type": "uint256"
        }
      ],
      "payable": false,
      "stateMutability": "view",
      "type": "function"
    },
    {
      "constant": false,
      "inputs": [
        {
          "name": "name",
          "type": "string"
        },
        {
          "name": "description",
          "type": "string"
        },
        {
          "name": "workClockTimeRef",
          "type": "uint256"
        }
      ],
      "name": "createCategory",
      "outputs": [
        {
          "name": "",
          "type": "uint256"
        }
      ],
      "payable": false,
      "stateMutability": "nonpayable",
      "type": "function"
    }
  ],
  "bytecode": "0x608060405234801561001057600080fd5b50600080546001600160a01b03191633178082556040516001600160a01b039190911691907f8be0079c531659141344cd1fd0a4f28419497f9722a3daafe3b4186f6b6457e0908290a36109e2806100696000396000f3fe608060405234801561001057600080fd5b506004361061007d5760003560e01c80638da5cb5b1161005b5780638da5cb5b146100d55780638f32d59b146100ea578063c140996f146100ff578063f2fde38b146101075761007d565b8063298503d9146100825780634f5f44ec146100ab578063715018a6146100cb575b600080fd5b610095610090366004610672565b61011a565b6040516100a291906108b5565b60405180910390f35b6100be6100b93660046106f8565b610274565b6040516100a2919061089d565b6100d36103e8565b005b6100dd610456565b6040516100a29190610861565b6100f2610466565b6040516100a2919061086f565b610095610477565b6100d361011536600461064c565b61047d565b6000610124610466565b6101495760405162461bcd60e51b81526004016101409061088d565b60405180910390fd5b600060018060405180606001604052808a8a8080601f016020809104026020016040519081016040528093929190818152602001838380828437600092019190915250505090825250604080516020601f8b0181900481028201810190925289815291810191908a908a90819084018382808284376000920182905250938552505050602091820188905283546001810180865594825290829020835180516003909302909101926102009284929091019061052e565b506020828101518051610219926001850192019061052e565b506040820151816002015550500390507f62bf08360c9d561749c54eaf4f8bf8cb6c8b6f4f40607bcec39a8172e714d25c818888888888604051610262969594939291906108c3565b60405180910390a19695505050505050565b61027c6105ac565b6001828154811061028957fe5b600091825260209182902060408051600393909302909101805460026001821615610100026000190190911604601f810185900490940283016080908101909252606083018481529293909284929091849184018282801561032c5780601f106103015761010080835404028352916020019161032c565b820191906000526020600020905b81548152906001019060200180831161030f57829003601f168201915b50505050508152602001600182018054600181600116156101000203166002900480601f0160208091040260200160405190810160405280929190818152602001828054600181600116156101000203166002900480156103ce5780601f106103a3576101008083540402835291602001916103ce565b820191906000526020600020905b8154815290600101906020018083116103b157829003601f168201915b505050505081526020016002820154815250509050919050565b6103f0610466565b61040c5760405162461bcd60e51b81526004016101409061088d565b600080546040516001600160a01b03909116907f8be0079c531659141344cd1fd0a4f28419497f9722a3daafe3b4186f6b6457e0908390a3600080546001600160a01b0319169055565b6000546001600160a01b03165b90565b6000546001600160a01b0316331490565b60015490565b610485610466565b6104a15760405162461bcd60e51b81526004016101409061088d565b6104aa816104ad565b50565b6001600160a01b0381166104d35760405162461bcd60e51b81526004016101409061087d565b600080546040516001600160a01b03808516939216917f8be0079c531659141344cd1fd0a4f28419497f9722a3daafe3b4186f6b6457e091a3600080546001600160a01b0319166001600160a01b0392909216919091179055565b828054600181600116156101000203166002900490600052602060002090601f016020900481019282601f1061056f57805160ff191683800117855561059c565b8280016001018555821561059c579182015b8281111561059c578251825591602001919060010190610581565b506105a89291506105cd565b5090565b60405180606001604052806060815260200160608152602001600081525090565b61046391905b808211156105a857600081556001016105d3565b80356105f281610982565b92915050565b60008083601f84011261060a57600080fd5b50813567ffffffffffffffff81111561062257600080fd5b60208301915083600182028301111561063a57600080fd5b9250929050565b80356105f281610996565b60006020828403121561065e57600080fd5b600061066a84846105e7565b949350505050565b60008060008060006060868803121561068a57600080fd5b853567ffffffffffffffff8111156106a157600080fd5b6106ad888289016105f8565b9550955050602086013567ffffffffffffffff8111156106cc57600080fd5b6106d8888289016105f8565b935093505060406106eb88828901610641565b9150509295509295909350565b60006020828403121561070a57600080fd5b600061066a8484610641565b61071f81610920565b82525050565b61071f8161092b565b600061073a8385610917565b935061074783858461093c565b61075083610978565b9093019392505050565b600061076582610913565b61076f8185610917565b935061077f818560208601610948565b61075081610978565b6000610795602683610917565b7f4f776e61626c653a206e6577206f776e657220697320746865207a65726f206181526564647265737360d01b602082015260400192915050565b60006107dd602083610917565b7f4f776e61626c653a2063616c6c6572206973206e6f7420746865206f776e6572815260200192915050565b8051606080845260009190840190610821828261075a565b9150506020830151848203602086015261083b828261075a565b91505060408301516108506040860182610858565b509392505050565b61071f81610463565b602081016105f28284610716565b602081016105f28284610725565b602080825281016105f281610788565b602080825281016105f2816107d0565b602080825281016108ae8184610809565b9392505050565b602081016105f28284610858565b608081016108d18289610858565b81810360208301526108e481878961072e565b905081810360408301526108f981858761072e565b90506109086060830184610858565b979650505050505050565b5190565b90815260200190565b60006105f282610930565b151590565b6001600160a01b031690565b82818337506000910152565b60005b8381101561096357818101518382015260200161094b565b83811115610972576000848401525b50505050565b601f01601f191690565b61098b81610920565b81146104aa57600080fd5b61098b8161046356fea365627a7a72305820b230d7db7b7bd6ef141741a62cfe9d3951e4e74c60ac7c55d115e5c54e49a4356c6578706572696d656e74616cf564736f6c634300050a0040",
  "source": "pragma solidity ^0.5.8;\npragma experimental ABIEncoderV2;\n\nimport \"openzeppelin-solidity/contracts/ownership/Ownable.sol\";\n\nimport \"./libs/IexecODBLibCore.sol\";\n\ncontract CategoryManager is Ownable\n{\n\t/**\n\t * Content\n\t */\n\tIexecODBLibCore.Category[] m_categories;\n\n\t/**\n\t * Event\n\t */\n\tevent CreateCategory(\n\t\tuint256 catid,\n\t\tstring  name,\n\t\tstring  description,\n\t\tuint256 workClockTimeRef);\n\n\t/**\n\t * Constructor\n\t */\n\tconstructor()\n\tpublic\n\t{\n\t}\n\n\t/**\n\t * Accessors\n\t */\n\tfunction viewCategory(uint256 _catid)\n\texternal view returns (IexecODBLibCore.Category memory category)\n\t{\n\t\treturn m_categories[_catid];\n\t}\n\n\tfunction countCategory()\n\texternal view returns (uint256 count)\n\t{\n\t\treturn m_categories.length;\n\t}\n\n\t/**\n\t * Methods\n\t */\n\tfunction createCategory(\n\t\tstring  calldata name,\n\t\tstring  calldata description,\n\t\tuint256          workClockTimeRef)\n\texternal onlyOwner returns (uint256)\n\t{\n\t\tuint256 catid = m_categories.push(IexecODBLibCore.Category(\n\t\t\tname,\n\t\t\tdescription,\n\t\t\tworkClockTimeRef\n\t\t)) - 1;\n\n\t\temit CreateCategory(\n\t\t\tcatid,\n\t\t\tname,\n\t\t\tdescription,\n\t\t\tworkClockTimeRef\n\t\t);\n\t\treturn catid;\n\t}\n\t/**\n\t * TODO: move to struct based initialization ?\n\t *\n\tfunction createCategory(IexecODBLib.Category _category)\n\tpublic onlyOwner returns (uint256)\n\t{\n\t\tuint256 catid = m_categories.push(_category);\n\t\temit CreateCategory(\n\t\t\tcatid,\n\t\t\t_category.name,\n\t\t\t_category.description,\n\t\t\t_category.workClockTimeRef\n\t\t);\n\t\treturn catid;\n\t}\n\t*/\n\n}\n",
  "sourcePath": "/home/amxx/Work/iExec/code/PoCo-dev/contracts/CategoryManager.sol",
  "compiler": {
    "name": "solc",
    "version": "0.5.10+commit.5a6ea5b1.Emscripten.clang"
  },
  "schemaVersion": "3.0.13",
  "updatedAt": "2019-08-28T13:12:26.069Z",
  "devdoc": {
    "methods": {
      "isOwner()": {
        "details": "Returns true if the caller is the current owner."
      },
      "owner()": {
        "details": "Returns the address of the current owner."
      },
      "renounceOwnership()": {
        "details": "Leaves the contract without owner. It will not be possible to call `onlyOwner` functions anymore. Can only be called by the current owner.     * > Note: Renouncing ownership will leave the contract without an owner, thereby removing any functionality that is only available to the owner."
      },
      "transferOwnership(address)": {
        "details": "Transfers ownership of the contract to a new account (`newOwner`). Can only be called by the current owner."
      }
    }
  },
  "userdoc": {
    "methods": {
      "constructor": "Constructor",
      "createCategory(string,string,uint256)": {
        "notice": "Methods"
      },
      "viewCategory(uint256)": {
        "notice": "Accessors"
      }
    }
  }
}