{
  "contractName": "Contributions",
  "abi": [
    {
      "constant": true,
      "inputs": [],
      "name": "m_workersReward",
      "outputs": [
        {
          "name": "",
          "type": "uint256"
        }
      ],
      "payable": false,
      "stateMutability": "view",
      "type": "function"
    },
    {
      "constant": true,
      "inputs": [],
      "name": "m_consensus",
      "outputs": [
        {
          "name": "",
          "type": "bytes32"
        }
      ],
      "payable": false,
      "stateMutability": "view",
      "type": "function"
    },
    {
      "constant": false,
      "inputs": [
        {
          "name": "_worker",
          "type": "address"
        }
      ],
      "name": "callForContribution",
      "outputs": [
        {
          "name": "",
          "type": "bool"
        }
      ],
      "payable": false,
      "stateMutability": "nonpayable",
      "type": "function"
    },
    {
      "constant": false,
      "inputs": [],
      "name": "claimFailedConsensus",
      "outputs": [
        {
          "name": "",
          "type": "bool"
        }
      ],
      "payable": false,
      "stateMutability": "nonpayable",
      "type": "function"
    },
    {
      "constant": false,
      "inputs": [
        {
          "name": "_stdout",
          "type": "string"
        },
        {
          "name": "_stderr",
          "type": "string"
        },
        {
          "name": "_uri",
          "type": "string"
        }
      ],
      "name": "finalizedTask",
      "outputs": [
        {
          "name": "",
          "type": "bool"
        }
      ],
      "payable": false,
      "stateMutability": "nonpayable",
      "type": "function"
    },
    {
      "constant": true,
      "inputs": [
        {
          "name": "",
          "type": "address"
        }
      ],
      "name": "m_tasksContributions",
      "outputs": [
        {
          "name": "status",
          "type": "uint8"
        },
        {
          "name": "resultHash",
          "type": "bytes32"
        },
        {
          "name": "resultSign",
          "type": "bytes32"
        },
        {
          "name": "balance",
          "type": "int256"
        }
      ],
      "payable": false,
      "stateMutability": "view",
      "type": "function"
    },
    {
      "constant": true,
      "inputs": [],
      "name": "m_revealCounter",
      "outputs": [
        {
          "name": "",
          "type": "uint256"
        }
      ],
      "payable": false,
      "stateMutability": "view",
      "type": "function"
    },
    {
      "constant": true,
      "inputs": [],
      "name": "m_revealDate",
      "outputs": [
        {
          "name": "",
          "type": "uint256"
        }
      ],
      "payable": false,
      "stateMutability": "view",
      "type": "function"
    },
    {
      "constant": false,
      "inputs": [
        {
          "name": "_consensus",
          "type": "bytes32"
        }
      ],
      "name": "revealConsensus",
      "outputs": [
        {
          "name": "",
          "type": "bool"
        }
      ],
      "payable": false,
      "stateMutability": "nonpayable",
      "type": "function"
    },
    {
      "constant": true,
      "inputs": [],
      "name": "m_consensusTimout",
      "outputs": [
        {
          "name": "",
          "type": "uint256"
        }
      ],
      "payable": false,
      "stateMutability": "view",
      "type": "function"
    },
    {
      "constant": true,
      "inputs": [],
      "name": "m_taskID",
      "outputs": [
        {
          "name": "",
          "type": "address"
        }
      ],
      "payable": false,
      "stateMutability": "view",
      "type": "function"
    },
    {
      "constant": true,
      "inputs": [],
      "name": "m_workerPool",
      "outputs": [
        {
          "name": "",
          "type": "address"
        }
      ],
      "payable": false,
      "stateMutability": "view",
      "type": "function"
    },
    {
      "constant": false,
      "inputs": [
        {
          "name": "_resultHash",
          "type": "bytes32"
        },
        {
          "name": "_resultSign",
          "type": "bytes32"
        }
      ],
      "name": "contribute",
      "outputs": [
        {
          "name": "workerStake",
          "type": "uint256"
        }
      ],
      "payable": false,
      "stateMutability": "nonpayable",
      "type": "function"
    },
    {
      "constant": true,
      "inputs": [],
      "name": "m_stakeAmount",
      "outputs": [
        {
          "name": "",
          "type": "uint256"
        }
      ],
      "payable": false,
      "stateMutability": "view",
      "type": "function"
    },
    {
      "constant": true,
      "inputs": [],
      "name": "m_schedulerReward",
      "outputs": [
        {
          "name": "",
          "type": "uint256"
        }
      ],
      "payable": false,
      "stateMutability": "view",
      "type": "function"
    },
    {
      "constant": true,
      "inputs": [],
      "name": "m_owner",
      "outputs": [
        {
          "name": "",
          "type": "address"
        }
      ],
      "payable": false,
      "stateMutability": "view",
      "type": "function"
    },
    {
      "constant": true,
      "inputs": [],
      "name": "m_status",
      "outputs": [
        {
          "name": "",
          "type": "uint8"
        }
      ],
      "payable": false,
      "stateMutability": "view",
      "type": "function"
    },
    {
      "constant": true,
      "inputs": [],
      "name": "REVEAL_PERIOD_DURATION",
      "outputs": [
        {
          "name": "",
          "type": "uint256"
        }
      ],
      "payable": false,
      "stateMutability": "view",
      "type": "function"
    },
    {
      "constant": false,
      "inputs": [
        {
          "name": "_newOwner",
          "type": "address"
        }
      ],
      "name": "transferOwnership",
      "outputs": [],
      "payable": false,
      "stateMutability": "nonpayable",
      "type": "function"
    },
    {
      "constant": false,
      "inputs": [
        {
          "name": "_result",
          "type": "bytes32"
        },
        {
          "name": "_salt",
          "type": "bytes32"
        }
      ],
      "name": "reveal",
      "outputs": [
        {
          "name": "",
          "type": "bool"
        }
      ],
      "payable": false,
      "stateMutability": "nonpayable",
      "type": "function"
    },
    {
      "constant": true,
      "inputs": [],
      "name": "CONSENSUS_DURATION_LIMIT",
      "outputs": [
        {
          "name": "",
          "type": "uint256"
        }
      ],
      "payable": false,
      "stateMutability": "view",
      "type": "function"
    },
    {
      "constant": true,
      "inputs": [
        {
          "name": "",
          "type": "uint256"
        }
      ],
      "name": "m_tasksWorkers",
      "outputs": [
        {
          "name": "",
          "type": "address"
        }
      ],
      "payable": false,
      "stateMutability": "view",
      "type": "function"
    },
    {
      "inputs": [
        {
          "name": "_iexecHubAddress",
          "type": "address"
        },
        {
          "name": "_taskID",
          "type": "address"
        },
        {
          "name": "_workersReward",
          "type": "uint256"
        },
        {
          "name": "_schedulerReward",
          "type": "uint256"
        },
        {
          "name": "_stakeAmount",
          "type": "uint256"
        }
      ],
      "payable": false,
      "stateMutability": "nonpayable",
      "type": "constructor"
    },
    {
      "anonymous": false,
      "inputs": [
        {
          "indexed": true,
          "name": "worker",
          "type": "address"
        },
        {
          "indexed": false,
          "name": "accurateContributions",
          "type": "uint256"
        },
        {
          "indexed": false,
          "name": "faultyContributions",
          "type": "uint256"
        }
      ],
      "name": "CallForContribution",
      "type": "event"
    },
    {
      "anonymous": false,
      "inputs": [
        {
          "indexed": true,
          "name": "worker",
          "type": "address"
        },
        {
          "indexed": false,
          "name": "resultHash",
          "type": "bytes32"
        }
      ],
      "name": "Contribute",
      "type": "event"
    },
    {
      "anonymous": false,
      "inputs": [
        {
          "indexed": false,
          "name": "consensus",
          "type": "bytes32"
        }
      ],
      "name": "RevealConsensus",
      "type": "event"
    },
    {
      "anonymous": false,
      "inputs": [
        {
          "indexed": true,
          "name": "worker",
          "type": "address"
        },
        {
          "indexed": false,
          "name": "result",
          "type": "bytes32"
        },
        {
          "indexed": false,
          "name": "pocoStatus",
          "type": "uint8"
        }
      ],
      "name": "Reveal",
      "type": "event"
    },
    {
      "anonymous": false,
      "inputs": [
        {
          "indexed": true,
          "name": "previousOwner",
          "type": "address"
        },
        {
          "indexed": true,
          "name": "newOwner",
          "type": "address"
        }
      ],
      "name": "OwnershipTransferred",
      "type": "event"
    }
  ],
  "bytecode": "0x606060405234156200001057600080fd5b60405160a080620027a58339810160405280805190602001909190805190602001909190805190602001909190805190602001909190805190602001909190505084336000806101000a81548173ffffffffffffffffffffffffffffffffffffffff021916908373ffffffffffffffffffffffffffffffffffffffff160217905550600073ffffffffffffffffffffffffffffffffffffffff168173ffffffffffffffffffffffffffffffffffffffff1614151515620000cf57600080fd5b80600160006101000a81548173ffffffffffffffffffffffffffffffffffffffff021916908373ffffffffffffffffffffffffffffffffffffffff16021790555080600260006101000a81548173ffffffffffffffffffffffffffffffffffffffff021916908373ffffffffffffffffffffffffffffffffffffffff1602179055505083600460006101000a81548173ffffffffffffffffffffffffffffffffffffffff021916908373ffffffffffffffffffffffffffffffffffffffff1602179055506001600460146101000a81548160ff02191690836004811115620001b357fe5b02179055508060078190555033600360006101000a81548173ffffffffffffffffffffffffffffffffffffffff021916908373ffffffffffffffffffffffffffffffffffffffff1602179055508260068190555081600581905550620002344262093a80620002646401000000000262002305179091906401000000009004565b600b8190555062000259326200028364010000000002620017ea176401000000009004565b5050505050620003da565b60008082840190508381101515156200027957fe5b8091505092915050565b6000809054906101000a900473ffffffffffffffffffffffffffffffffffffffff1673ffffffffffffffffffffffffffffffffffffffff163373ffffffffffffffffffffffffffffffffffffffff16141515620002df57600080fd5b600073ffffffffffffffffffffffffffffffffffffffff168173ffffffffffffffffffffffffffffffffffffffff16141515156200031c57600080fd5b8073ffffffffffffffffffffffffffffffffffffffff166000809054906101000a900473ffffffffffffffffffffffffffffffffffffffff1673ffffffffffffffffffffffffffffffffffffffff167f8be0079c531659141344cd1fd0a4f28419497f9722a3daafe3b4186f6b6457e060405160405180910390a3806000806101000a81548173ffffffffffffffffffffffffffffffffffffffff021916908373ffffffffffffffffffffffffffffffffffffffff16021790555050565b6123bb80620003ea6000396000f300606060405260043610610128576000357c0100000000000000000000000000000000000000000000000000000000900463ffffffff16806309eb6fba1461012d57806315ebe3fe146101565780631a3a8871146101875780631c656455146101d8578063453634c5146102055780634c8ea3b8146103005780635180ab80146103805780635d0923fc146103a95780635eec6c59146103d257806362cb5b011461041157806379e026051461043a5780639f9ef42b1461048f578063b3f6568e146104e4578063c1cc11831461052c578063dbd781f314610555578063deff41c11461057e578063e329c478146105d3578063f27f7be11461060a578063f2fde38b14610633578063fc334e8c1461066c578063fceeccb6146106b8578063ff773dee146106e1575b600080fd5b341561013857600080fd5b610140610744565b6040518082815260200191505060405180910390f35b341561016157600080fd5b61016961074a565b60405180826000191660001916815260200191505060405180910390f35b341561019257600080fd5b6101be600480803573ffffffffffffffffffffffffffffffffffffffff16906020019091905050610750565b604051808215151515815260200191505060405180910390f35b34156101e357600080fd5b6101eb610a73565b604051808215151515815260200191505060405180910390f35b341561021057600080fd5b6102e6600480803590602001908201803590602001908080601f0160208091040260200160405190810160405280939291908181526020018383808284378201915050505050509190803590602001908201803590602001908080601f0160208091040260200160405190810160405280939291908181526020018383808284378201915050505050509190803590602001908201803590602001908080601f01602080910402602001604051908101604052809392919081815260200183838082843782019150505050505091905050610e9b565b604051808215151515815260200191505060405180910390f35b341561030b57600080fd5b610337600480803573ffffffffffffffffffffffffffffffffffffffff169060200190919050506111ed565b6040518085600481111561034757fe5b60ff1681526020018460001916600019168152602001836000191660001916815260200182815260200194505050505060405180910390f35b341561038b57600080fd5b61039361122a565b6040518082815260200191505060405180910390f35b34156103b457600080fd5b6103bc611230565b6040518082815260200191505060405180910390f35b34156103dd57600080fd5b6103f7600480803560001916906020019091905050611236565b604051808215151515815260200191505060405180910390f35b341561041c57600080fd5b61042461136d565b6040518082815260200191505060405180910390f35b341561044557600080fd5b61044d611373565b604051808273ffffffffffffffffffffffffffffffffffffffff1673ffffffffffffffffffffffffffffffffffffffff16815260200191505060405180910390f35b341561049a57600080fd5b6104a2611399565b604051808273ffffffffffffffffffffffffffffffffffffffff1673ffffffffffffffffffffffffffffffffffffffff16815260200191505060405180910390f35b34156104ef57600080fd5b610516600480803560001916906020019091908035600019169060200190919050506113bf565b6040518082815260200191505060405180910390f35b341561053757600080fd5b61053f6117a0565b6040518082815260200191505060405180910390f35b341561056057600080fd5b6105686117a6565b6040518082815260200191505060405180910390f35b341561058957600080fd5b6105916117ac565b604051808273ffffffffffffffffffffffffffffffffffffffff1673ffffffffffffffffffffffffffffffffffffffff16815260200191505060405180910390f35b34156105de57600080fd5b6105e66117d1565b604051808260048111156105f657fe5b60ff16815260200191505060405180910390f35b341561061557600080fd5b61061d6117e4565b6040518082815260200191505060405180910390f35b341561063e57600080fd5b61066a600480803573ffffffffffffffffffffffffffffffffffffffff169060200190919050506117ea565b005b341561067757600080fd5b61069e6004808035600019169060200190919080356000191690602001909190505061193f565b604051808215151515815260200191505060405180910390f35b34156106c357600080fd5b6106cb611c44565b6040518082815260200191505060405180910390f35b34156106ec57600080fd5b6107026004808035906020019091905050611c4b565b604051808273ffffffffffffffffffffffffffffffffffffffff1673ffffffffffffffffffffffffffffffffffffffff16815260200191505060405180910390f35b60065481565b60085481565b6000806000806000809054906101000a900473ffffffffffffffffffffffffffffffffffffffff1673ffffffffffffffffffffffffffffffffffffffff163373ffffffffffffffffffffffffffffffffffffffff161415156107b157600080fd5b600160048111156107be57fe5b600460149054906101000a900460ff1660048111156107d957fe5b1415156107e557600080fd5b600260009054906101000a900473ffffffffffffffffffffffffffffffffffffffff1673ffffffffffffffffffffffffffffffffffffffff1663f69f190c866000604051606001526040518263ffffffff167c0100000000000000000000000000000000000000000000000000000000028152600401808273ffffffffffffffffffffffffffffffffffffffff1673ffffffffffffffffffffffffffffffffffffffff168152602001915050606060405180830381600087803b15156108aa57600080fd5b6102c65a03f115156108bb57600080fd5b50505060405180519060200180519060200180519050809350819450829550505050600360009054906101000a900473ffffffffffffffffffffffffffffffffffffffff1673ffffffffffffffffffffffffffffffffffffffff168373ffffffffffffffffffffffffffffffffffffffff1614151561093957600080fd5b6000600481111561094657fe5b600c60008773ffffffffffffffffffffffffffffffffffffffff1673ffffffffffffffffffffffffffffffffffffffff16815260200190815260200160002060000160009054906101000a900460ff1660048111156109a157fe5b1415156109ad57600080fd5b6001600c60008773ffffffffffffffffffffffffffffffffffffffff1673ffffffffffffffffffffffffffffffffffffffff16815260200190815260200160002060000160006101000a81548160ff02191690836004811115610a0c57fe5b02179055508473ffffffffffffffffffffffffffffffffffffffff167f365f313bc0acc37c5dbc5a4322047304f42beda33a59e1f1aa43dda78bc216128383604051808381526020018281526020019250505060405180910390a260019350505050919050565b6000806000600160009054906101000a900473ffffffffffffffffffffffffffffffffffffffff1673ffffffffffffffffffffffffffffffffffffffff163373ffffffffffffffffffffffffffffffffffffffff16141515610ad457600080fd5b60016004811115610ae157fe5b600460149054906101000a900460ff166004811115610afc57fe5b141515610b0857600080fd5b600b5442111515610b1857600080fd5b6003600460146101000a81548160ff02191690836004811115610b3757fe5b0217905550600091505b600d80549050821015610e9257600d82815481101515610b5d57fe5b906000526020600020900160009054906101000a900473ffffffffffffffffffffffffffffffffffffffff16905060016004811115610b9857fe5b600c60008373ffffffffffffffffffffffffffffffffffffffff1673ffffffffffffffffffffffffffffffffffffffff16815260200190815260200160002060000160009054906101000a900460ff166004811115610bf357fe5b141515610d4657600260009054906101000a900473ffffffffffffffffffffffffffffffffffffffff1673ffffffffffffffffffffffffffffffffffffffff16638d877dd3600460009054906101000a900473ffffffffffffffffffffffffffffffffffffffff16836007546000604051602001526040518463ffffffff167c0100000000000000000000000000000000000000000000000000000000028152600401808473ffffffffffffffffffffffffffffffffffffffff1673ffffffffffffffffffffffffffffffffffffffff1681526020018373ffffffffffffffffffffffffffffffffffffffff1673ffffffffffffffffffffffffffffffffffffffff1681526020018281526020019350505050602060405180830381600087803b1515610d1f57600080fd5b6102c65a03f11515610d3057600080fd5b505050604051805190501515610d4557600080fd5b5b600260009054906101000a900473ffffffffffffffffffffffffffffffffffffffff1673ffffffffffffffffffffffffffffffffffffffff1663237994f4600460009054906101000a900473ffffffffffffffffffffffffffffffffffffffff16836000604051602001526040518363ffffffff167c0100000000000000000000000000000000000000000000000000000000028152600401808373ffffffffffffffffffffffffffffffffffffffff1673ffffffffffffffffffffffffffffffffffffffff1681526020018273ffffffffffffffffffffffffffffffffffffffff1673ffffffffffffffffffffffffffffffffffffffff16815260200192505050602060405180830381600087803b1515610e6157600080fd5b6102c65a03f11515610e7257600080fd5b505050604051805190501515610e8757600080fd5b816001019150610b41565b60019250505090565b60008060009054906101000a900473ffffffffffffffffffffffffffffffffffffffff1673ffffffffffffffffffffffffffffffffffffffff163373ffffffffffffffffffffffffffffffffffffffff16141515610ef857600080fd5b60026004811115610f0557fe5b600460149054906101000a900460ff166004811115610f2057fe5b141515610f2c57600080fd5b42600954111580610f435750600d80549050600a54145b1515610f4e57600080fd5b60048060146101000a81548160ff02191690836004811115610f6c57fe5b0217905550610f79611c8a565b1515610f8457600080fd5b600260009054906101000a900473ffffffffffffffffffffffffffffffffffffffff1673ffffffffffffffffffffffffffffffffffffffff1663f8ecdc69600460009054906101000a900473ffffffffffffffffffffffffffffffffffffffff168686866005546000604051602001526040518663ffffffff167c0100000000000000000000000000000000000000000000000000000000028152600401808673ffffffffffffffffffffffffffffffffffffffff1673ffffffffffffffffffffffffffffffffffffffff168152602001806020018060200180602001858152602001848103845288818151815260200191508051906020019080838360005b8381101561109f578082015181840152602081019050611084565b50505050905090810190601f1680156110cc5780820380516001836020036101000a031916815260200191505b50848103835287818151815260200191508051906020019080838360005b838110156111055780820151818401526020810190506110ea565b50505050905090810190601f1680156111325780820380516001836020036101000a031916815260200191505b50848103825286818151815260200191508051906020019080838360005b8381101561116b578082015181840152602081019050611150565b50505050905090810190601f1680156111985780820380516001836020036101000a031916815260200191505b5098505050505050505050602060405180830381600087803b15156111bc57600080fd5b6102c65a03f115156111cd57600080fd5b5050506040518051905015156111e257600080fd5b600190509392505050565b600c6020528060005260406000206000915090508060000160009054906101000a900460ff16908060010154908060020154908060030154905084565b600a5481565b60095481565b60008060009054906101000a900473ffffffffffffffffffffffffffffffffffffffff1673ffffffffffffffffffffffffffffffffffffffff163373ffffffffffffffffffffffffffffffffffffffff1614151561129357600080fd5b600160048111156112a057fe5b600460149054906101000a900460ff1660048111156112bb57fe5b1415156112c757600080fd5b6000600d805490501115156112db57600080fd5b6002600460146101000a81548160ff021916908360048111156112fa57fe5b0217905550816008816000191690555061131f42612a3061230590919063ffffffff16565b6009819055507fca0146ecc42534204a8cfa1c47ffdf76e2bf77813e8df99e3faef81f66e13f6d8260405180826000191660001916815260200191505060405180910390a160019050919050565b600b5481565b600460009054906101000a900473ffffffffffffffffffffffffffffffffffffffff1681565b600360009054906101000a900473ffffffffffffffffffffffffffffffffffffffff1681565b6000600160048111156113ce57fe5b600460149054906101000a900460ff1660048111156113e957fe5b1415156113f557600080fd5b6001600481111561140257fe5b600c60003373ffffffffffffffffffffffffffffffffffffffff1673ffffffffffffffffffffffffffffffffffffffff16815260200190815260200160002060000160009054906101000a900460ff16600481111561145d57fe5b14151561146957600080fd5b600060010283600019161415151561148057600080fd5b600060010282600019161415151561149757600080fd5b600d80548060010182816114ab919061233e565b9160005260206000209001600033909190916101000a81548173ffffffffffffffffffffffffffffffffffffffff021916908373ffffffffffffffffffffffffffffffffffffffff160217905550506002600c60003373ffffffffffffffffffffffffffffffffffffffff1673ffffffffffffffffffffffffffffffffffffffff16815260200190815260200160002060000160006101000a81548160ff0219169083600481111561155957fe5b021790555082600c60003373ffffffffffffffffffffffffffffffffffffffff1673ffffffffffffffffffffffffffffffffffffffff168152602001908152602001600020600101816000191690555081600c60003373ffffffffffffffffffffffffffffffffffffffff1673ffffffffffffffffffffffffffffffffffffffff1681526020019081526020016000206002018160001916905550600260009054906101000a900473ffffffffffffffffffffffffffffffffffffffff1673ffffffffffffffffffffffffffffffffffffffff16638537c515600460009054906101000a900473ffffffffffffffffffffffffffffffffffffffff16336007546000604051602001526040518463ffffffff167c0100000000000000000000000000000000000000000000000000000000028152600401808473ffffffffffffffffffffffffffffffffffffffff1673ffffffffffffffffffffffffffffffffffffffff1681526020018373ffffffffffffffffffffffffffffffffffffffff1673ffffffffffffffffffffffffffffffffffffffff1681526020018281526020019350505050602060405180830381600087803b151561171957600080fd5b6102c65a03f1151561172a57600080fd5b50505060405180519050151561173f57600080fd5b3373ffffffffffffffffffffffffffffffffffffffff167ff3b129c47d42fbf6997bc710ea44fa651fb588be58d0f6cac7cd2224abdca7cf8460405180826000191660001916815260200191505060405180910390a2600754905092915050565b60075481565b60055481565b6000809054906101000a900473ffffffffffffffffffffffffffffffffffffffff1681565b600460149054906101000a900460ff1681565b612a3081565b6000809054906101000a900473ffffffffffffffffffffffffffffffffffffffff1673ffffffffffffffffffffffffffffffffffffffff163373ffffffffffffffffffffffffffffffffffffffff1614151561184557600080fd5b600073ffffffffffffffffffffffffffffffffffffffff168173ffffffffffffffffffffffffffffffffffffffff161415151561188157600080fd5b8073ffffffffffffffffffffffffffffffffffffffff166000809054906101000a900473ffffffffffffffffffffffffffffffffffffffff1673ffffffffffffffffffffffffffffffffffffffff167f8be0079c531659141344cd1fd0a4f28419497f9722a3daafe3b4186f6b6457e060405160405180910390a3806000806101000a81548173ffffffffffffffffffffffffffffffffffffffff021916908373ffffffffffffffffffffffffffffffffffffffff16021790555050565b6000806002600481111561194f57fe5b600460149054906101000a900460ff16600481111561196a57fe5b14151561197657600080fd5b4260095411151561198657600080fd5b6002600481111561199357fe5b600c60003373ffffffffffffffffffffffffffffffffffffffff1673ffffffffffffffffffffffffffffffffffffffff16815260200190815260200160002060000160009054906101000a900460ff1660048111156119ee57fe5b1415156119fa57600080fd5b6000600102846000191614151515611a1157600080fd5b600c60003373ffffffffffffffffffffffffffffffffffffffff1673ffffffffffffffffffffffffffffffffffffffff168152602001908152602001600020600101546000191684604051808260001916600019168152602001915050604051809103902060001916148015611aef5750600c60003373ffffffffffffffffffffffffffffffffffffffff1673ffffffffffffffffffffffffffffffffffffffff1681526020019081526020016000206002015460001916838518604051808260001916600019168152602001915050604051809103902060001916145b905080611afd576003611b00565b60045b600c60003373ffffffffffffffffffffffffffffffffffffffff1673ffffffffffffffffffffffffffffffffffffffff16815260200190815260200160002060000160006101000a81548160ff02191690836004811115611b5d57fe5b0217905550611b786001600a5461230590919063ffffffff16565b600a819055503373ffffffffffffffffffffffffffffffffffffffff167f3a55c2a687ae273233cfdd772c2ea17f60801bdccf7fab5c87e27927c1d1dcb785600c60003373ffffffffffffffffffffffffffffffffffffffff1673ffffffffffffffffffffffffffffffffffffffff16815260200190815260200160002060000160009054906101000a900460ff16604051808360001916600019168152602001826004811115611c2557fe5b60ff1681526020019250505060405180910390a2600191505092915050565b62093a8081565b600d81815481101515611c5a57fe5b90600052602060002090016000915054906101000a900473ffffffffffffffffffffffffffffffffffffffff1681565b600080600080600080600092506006549150600094505b600d80549050851015611d9657600d85815481101515611cbd57fe5b906000526020600020900160009054906101000a900473ffffffffffffffffffffffffffffffffffffffff169350600480811115611cf757fe5b600c60008673ffffffffffffffffffffffffffffffffffffffff1673ffffffffffffffffffffffffffffffffffffffff16815260200190815260200160002060000160009054906101000a900460ff166004811115611d5257fe5b1415611d7357611d6c60018461230590919063ffffffff16565b9250611d8b565b611d886007548361230590919063ffffffff16565b91505b846001019450611ca1565b600083111515611da557600080fd5b611db8838361232390919063ffffffff16565b9050600094505b600d805490508510156122f957600d85815481101515611ddb57fe5b906000526020600020900160009054906101000a900473ffffffffffffffffffffffffffffffffffffffff169350600480811115611e1557fe5b600c60008673ffffffffffffffffffffffffffffffffffffffff1673ffffffffffffffffffffffffffffffffffffffff16815260200190815260200160002060000160009054906101000a900460ff166004811115611e7057fe5b141561215657600260009054906101000a900473ffffffffffffffffffffffffffffffffffffffff1673ffffffffffffffffffffffffffffffffffffffff16638d877dd3600460009054906101000a900473ffffffffffffffffffffffffffffffffffffffff16866007546000604051602001526040518463ffffffff167c0100000000000000000000000000000000000000000000000000000000028152600401808473ffffffffffffffffffffffffffffffffffffffff1673ffffffffffffffffffffffffffffffffffffffff1681526020018373ffffffffffffffffffffffffffffffffffffffff1673ffffffffffffffffffffffffffffffffffffffff1681526020018281526020019350505050602060405180830381600087803b1515611f9b57600080fd5b6102c65a03f11515611fac57600080fd5b505050604051805190501515611fc157600080fd5b600260009054906101000a900473ffffffffffffffffffffffffffffffffffffffff1673ffffffffffffffffffffffffffffffffffffffff1663ca44a11f600460009054906101000a900473ffffffffffffffffffffffffffffffffffffffff1686846000604051602001526040518463ffffffff167c0100000000000000000000000000000000000000000000000000000000028152600401808473ffffffffffffffffffffffffffffffffffffffff1673ffffffffffffffffffffffffffffffffffffffff1681526020018373ffffffffffffffffffffffffffffffffffffffff1673ffffffffffffffffffffffffffffffffffffffff1681526020018281526020019350505050602060405180830381600087803b15156120e457600080fd5b6102c65a03f115156120f557600080fd5b50505060405180519050151561210a57600080fd5b80600c60008673ffffffffffffffffffffffffffffffffffffffff1673ffffffffffffffffffffffffffffffffffffffff168152602001908152602001600020600301819055506122ee565b600260009054906101000a900473ffffffffffffffffffffffffffffffffffffffff1673ffffffffffffffffffffffffffffffffffffffff1663855e9770600460009054906101000a900473ffffffffffffffffffffffffffffffffffffffff16866007546000604051602001526040518463ffffffff167c0100000000000000000000000000000000000000000000000000000000028152600401808473ffffffffffffffffffffffffffffffffffffffff1673ffffffffffffffffffffffffffffffffffffffff1681526020018373ffffffffffffffffffffffffffffffffffffffff1673ffffffffffffffffffffffffffffffffffffffff1681526020018281526020019350505050602060405180830381600087803b151561227b57600080fd5b6102c65a03f1151561228c57600080fd5b5050506040518051905015156122a157600080fd5b600754600003600c60008673ffffffffffffffffffffffffffffffffffffffff1673ffffffffffffffffffffffffffffffffffffffff168152602001908152602001600020600301819055505b846001019450611dbf565b60019550505050505090565b600080828401905083811015151561231957fe5b8091505092915050565b600080828481151561233157fe5b0490508091505092915050565b81548183558181151161236557818360005260206000209182019101612364919061236a565b5b505050565b61238c91905b80821115612388576000816000905550600101612370565b5090565b905600a165627a7a723058201aa21bf09be6b6a00774cfc05dfc39287d9d25f75f76abbd69cb6c76668c171c0029",
  "source": "pragma solidity ^0.4.18;\n\nimport './OwnableOZ.sol';\nimport \"./SafeMathOZ.sol\";\nimport './IexecHubAccessor.sol';\n\n\ncontract Contributions is OwnableOZ, IexecHubAccessor//Owned by a S(w)\n{\n\tusing SafeMathOZ for uint256;\n\n\tuint256 public constant REVEAL_PERIOD_DURATION = 3 hours;\n\tuint256 public constant CONSENSUS_DURATION_LIMIT = 7 days; // 7 days as the MVP here ;) https://ethresear.ch/t/minimal-viable-plasma/426\n\n  address        public m_workerPool;\n\taddress        public m_taskID;\n\tConsensusStatusEnum public m_status;\n\tuint256        public m_schedulerReward;\n\tuint256        public m_workersReward;\n\tuint256        public m_stakeAmount;\n\tbytes32        public m_consensus;\n\tuint256        public m_revealDate;\n\tuint256        public m_revealCounter;\n\tuint256        public m_consensusTimout;\n\n\n\tenum ConsensusStatusEnum\n\t{\n\t\tUNSET,\n\t\tIN_PROGRESS,\n\t\tREACHED,\n\t\t/**\n\t\t * FAILLED:\n\t\t * After sometime, if the consensus is not reach, anyone with stake in\n\t\t * it can abort the consensus and unlock all stake\n\t\t */\n\t\tFAILLED,\n\t\tFINALIZED\n\t}\n\n\n\tenum WorkStatusEnum\n\t{\n\t\tUNSET,\n\t\tREQUESTED,\n\t\tSUBMITTED,\n\t\tPOCO_REJECT,\n\t\tPOCO_ACCEPT\n\t}\n\n\tstruct Work\n\t{\n\t\tWorkStatusEnum status;\n\t\tbytes32        resultHash;\n\t\tbytes32        resultSign; // change from salt to tx.origin based signature\n\t\tint256         balance; //TO remove ? no getter on this.\n\t}\n\n\t/**\n\t * Events\n\t */\n\n\tevent CallForContribution(address indexed worker,uint256 accurateContributions, uint256 faultyContributions);\n\tevent Contribute(address indexed worker,bytes32 resultHash);\n\tevent RevealConsensus(bytes32 consensus);\n\tevent Reveal(address indexed worker, bytes32 result,WorkStatusEnum pocoStatus);\n\n\n\n\t/**\n\t * Members\n\t */\n\n\t// mapping( worker address => Work);\n\tmapping(address => Work) public m_tasksContributions;\n\n\taddress[]                public m_tasksWorkers;\n\n\n\t/**\n\t * Methods\n\t */\n\n\t//constructor\n\tfunction Contributions( address _iexecHubAddress, address _taskID,uint256 _workersReward,uint256 _schedulerReward, uint256 _stakeAmount)\n\tOwnableOZ()// owner is WorkerPool contract\n\tIexecHubAccessor(_iexecHubAddress)\n\tpublic\n\t{\n\t\tm_taskID=_taskID;\n\t\tm_status=ConsensusStatusEnum.IN_PROGRESS;\n\t  m_stakeAmount =_stakeAmount;\n\t\tm_workerPool = msg.sender;\n\t\tm_workersReward =_workersReward;\n\t\tm_schedulerReward = _schedulerReward;\n\t\tm_consensusTimout = CONSENSUS_DURATION_LIMIT.add(now);\n\t\ttransferOwnership(tx.origin); // scheduler (tx.origin) become owner at this moment\n\t\t// how  this m_stakeAmount  is used for ?\n\t\t//require(iexecHubInterface.lockForTask(_taskID, tx.origin, m_stakeAmount));\n\n\t}\n\n\n\tfunction claimFailedConsensus() public onlyIexecHub returns (bool)\n\t{\n\t\trequire(m_status == ConsensusStatusEnum.IN_PROGRESS);\n\t\trequire(now > m_consensusTimout);\n\t\tm_status    = ConsensusStatusEnum.FAILLED;\n\t\tuint256 i;\n\t\taddress w;\n\t\tfor (i=0; i<m_tasksWorkers.length; ++i)\n\t\t{\n\t\t\tw = m_tasksWorkers[i];\n\t\t\tif (m_tasksContributions[w].status != WorkStatusEnum.REQUESTED)\n\t\t\t{\n \t\t\t\trequire(iexecHubInterface.unlockForTask(m_taskID,w, m_stakeAmount));\n\t\t\t}\n\t\t\trequire(iexecHubInterface.addFaultyContribution(m_taskID,w));\n\t\t}\n\t\treturn true;\n\t}\n\n\tfunction callForContribution(address _worker) public onlyOwner /*=onlySheduler*/ returns (bool)\n\t{\n\t\trequire(m_status == ConsensusStatusEnum.IN_PROGRESS);\n\n\t\t// random worker selection ? :\n\t\t// Can use a random selection trick by using block.blockhash (256 most recent blocks accessible) and a modulo list of workers not yet called.\n\t\taddress workerPool;\n\t\tuint256 accurateContributions;\n\t\tuint256 faultyContributions;\n    (workerPool,accurateContributions,faultyContributions)=iexecHubInterface.getWorkerStatus(_worker);\n\t\trequire(workerPool == m_workerPool);\n\t\trequire(m_tasksContributions[_worker].status == WorkStatusEnum.UNSET );\n\t\tm_tasksContributions[_worker].status = WorkStatusEnum.REQUESTED;\n\t\tCallForContribution(_worker,accurateContributions,faultyContributions);\n\t\treturn true;\n\t}\n\n\tfunction contribute(bytes32 _resultHash, bytes32 _resultSign) public returns (uint256 workerStake)\n\t{\n\t\t// msg.sender = a worker\n\t\t// tx.origin= a worker\n\t\trequire(m_status == ConsensusStatusEnum.IN_PROGRESS);\n\t\trequire(m_tasksContributions[msg.sender].status == WorkStatusEnum.REQUESTED);\n\t\trequire(_resultHash != 0x0);\n\t\trequire(_resultSign != 0x0);\n\n\t\tm_tasksWorkers.push(msg.sender);\n\t\tm_tasksContributions[msg.sender].status     = WorkStatusEnum.SUBMITTED;\n\t\tm_tasksContributions[msg.sender].resultHash = _resultHash;\n\t\tm_tasksContributions[msg.sender].resultSign = _resultSign;\n\n\t\trequire(iexecHubInterface.lockForTask(m_taskID, msg.sender, m_stakeAmount));\n\t\tContribute(msg.sender,_resultHash);\n\t\treturn m_stakeAmount;\n\t}\n\n\tfunction revealConsensus(bytes32 _consensus) public onlyOwner /*=onlySheduler*/ returns (bool)\n\t{\n\t\trequire(m_status == ConsensusStatusEnum.IN_PROGRESS); //or state Locked to add ?\n\t\trequire(m_tasksWorkers.length >0);// you cannot revealConsensus if you do not have callForContribution and no worker have contribute\n\t\tm_status     = ConsensusStatusEnum.REACHED;\n\t\tm_consensus  = _consensus;\n\t\tm_revealDate = REVEAL_PERIOD_DURATION.add(now);\n\t\tRevealConsensus(_consensus);\n\t\treturn true;\n\t}\n\n\tfunction reveal(bytes32 _result, bytes32 _salt) public returns (bool)\n\t{\n\t\t// msg.sender = a worker\n\t\trequire(m_status == ConsensusStatusEnum.REACHED);\n\t\trequire(m_revealDate > now);\n\t\trequire(m_tasksContributions[msg.sender].status == WorkStatusEnum.SUBMITTED);\n\t\trequire(_result != 0x0);\n\n\t\tbool valid = keccak256(_result         ) == m_tasksContributions[msg.sender].resultHash\n\t\t          && keccak256(_result ^ _salt ) == m_tasksContributions[msg.sender].resultSign;\n\n\t\tm_tasksContributions[msg.sender].status = valid ? WorkStatusEnum.POCO_ACCEPT : WorkStatusEnum.POCO_REJECT;\n\t\tm_revealCounter=m_revealCounter.add(1);\n    Reveal(msg.sender,_result,m_tasksContributions[msg.sender].status); //TODO add WorkStatusEnum in LOG\n\t\treturn true;\n\t}\n\n\t// if sheduler never call finalized ? no incetive to do that. schedulermust be pay also at this time\n\tfunction finalizedTask( string _stdout, string _stderr, string _uri) public onlyOwner /*=onlySheduler*/ returns (bool)\n\t{\n\t\trequire(m_status == ConsensusStatusEnum.REACHED);\n\t\t//TODO add all workers have reveal so we do not have to wait until the end of REVEAL_PERIOD_DURATION\n\t\trequire(m_revealDate <= now || m_revealCounter == m_tasksWorkers.length);\n\t\tm_status  = ConsensusStatusEnum.FINALIZED;\n\n\t\t// add penalized to the call worker to contrubution and they never contribute ?\n\t\trequire(rewardTask());\n\n\t\trequire(iexecHubInterface.finalizedTask(m_taskID,_stdout,_stderr,_uri,m_schedulerReward));\n\t\treturn true;\n\t}\n\n\tfunction rewardTask() internal returns (bool)\n\t{\n\t\tuint256 i;\n\t\taddress w;\n\t\t/**\n\t\t * Reward distribution:\n\t\t * totalReward is to be distributed amoung the winners relative to their\n\t\t * contribution. I believe that the weight should be someting like:\n\t\t *\n\t\t * w ~= 1+log(max(1,score))\n\t\t *\n\t\t * But how to handle log in solidity ? Is it worth the gaz ?\n\t\t *  https://ethereum.stackexchange.com/questions/8086/logarithm-math-operation-in-solidity#8110\n\t\t *\n\t\t * Current code shows a simple distribution (equal shares)\n\t\t */\n\t\tuint256 cntWinners       = 0;\n\t\tuint256 totalReward      = m_workersReward;\n\t\tuint256 individualReward;\n\t\tfor (i=0; i<m_tasksWorkers.length; ++i)\n\t\t{\n\t\t\tw = m_tasksWorkers[i];\n\t\t\tif (m_tasksContributions[w].status == WorkStatusEnum.POCO_ACCEPT)\n\t\t\t{\n\t\t\t\tcntWinners = cntWinners.add(1);\n\t\t\t}\n\t\t\telse // WorkStatusEnum.POCO_REJECT\n\t\t\t{\n\t\t\t\ttotalReward = totalReward.add(m_stakeAmount);\n\t\t\t}\n\t\t}\n\t\trequire(cntWinners > 0);\n\n\t\tindividualReward = totalReward.div(cntWinners);\n\t\tfor (i=0; i<m_tasksWorkers.length; ++i)\n\t\t{\n\t\t\tw = m_tasksWorkers[i];\n\t\t\tif (m_tasksContributions[w].status == WorkStatusEnum.POCO_ACCEPT)\n\t\t\t{\n\t\t\t\trequire(iexecHubInterface.unlockForTask(m_taskID,w, m_stakeAmount));//should failed if no locked ?\n\t\t\t\trequire(iexecHubInterface.rewardForTask(m_taskID,w, individualReward));\n\t\t\t\tm_tasksContributions[w].balance = int256(individualReward);\n\t\t\t}\n\t\t\telse // WorkStatusEnum.POCO_REJECT\n\t\t\t{\n\t\t\t\trequire(iexecHubInterface.seizeForTask(m_taskID,w, m_stakeAmount));\n\t\t\t\t// No Reward\n\t\t\t\t//TO remove ? no getter on this.\n\t\t\t\tm_tasksContributions[w].balance = -int256(m_stakeAmount); // TODO: SafeMath\n\t\t\t}\n\t\t}\n\t  return true;\n\t}\n\n\n}\n",
  "sourcePath": "/home/vagrant/iexecdev/PoCo/contracts/Contributions.sol",
  "compiler": {
    "name": "solc",
    "version": "0.4.18+commit.9cf6e910.Emscripten.clang"
  },
  "schemaVersion": "1.0.1",
  "updatedAt": "2018-01-29T14:56:05.511Z"
}