{
  "contractName": "ENSIntegrationDelegate",
  "abi": [
    {
      "anonymous": false,
      "inputs": [
        {
          "indexed": true,
          "internalType": "address",
          "name": "previousOwner",
          "type": "address"
        },
        {
          "indexed": true,
          "internalType": "address",
          "name": "newOwner",
          "type": "address"
        }
      ],
      "name": "OwnershipTransferred",
      "type": "event"
    },
    {
      "inputs": [],
      "name": "isOwner",
      "outputs": [
        {
          "internalType": "bool",
          "name": "",
          "type": "bool"
        }
      ],
      "stateMutability": "view",
      "type": "function",
      "constant": true
    },
    {
      "inputs": [],
      "name": "owner",
      "outputs": [
        {
          "internalType": "address",
          "name": "",
          "type": "address"
        }
      ],
      "stateMutability": "view",
      "type": "function",
      "constant": true
    },
    {
      "inputs": [],
      "name": "renounceOwnership",
      "outputs": [],
      "stateMutability": "nonpayable",
      "type": "function"
    },
    {
      "inputs": [
        {
          "internalType": "address",
          "name": "newOwner",
          "type": "address"
        }
      ],
      "name": "transferOwnership",
      "outputs": [],
      "stateMutability": "nonpayable",
      "type": "function"
    },
    {
      "inputs": [
        {
          "internalType": "address",
          "name": "_ens",
          "type": "address"
        },
        {
          "internalType": "string",
          "name": "_name",
          "type": "string"
        }
      ],
      "name": "setName",
      "outputs": [],
      "stateMutability": "nonpayable",
      "type": "function"
    }
  ],
  "bytecode": "0x608060405260006100176001600160e01b0361006516565b600080546001600160a01b0319166001600160a01b0383169081178255604051929350916000805160206106fe833981519152908290a3506100606001600160e01b0361006916565b610139565b3390565b61007a6001600160e01b036100d716565b61009f5760405162461bcd60e51b815260040161009690610104565b60405180910390fd5b600080546040516001600160a01b03909116906000805160206106fe833981519152908390a3600080546001600160a01b0319169055565b600080546001600160a01b03166100f56001600160e01b0361006516565b6001600160a01b031614905090565b6020808252818101527f4f776e61626c653a2063616c6c6572206973206e6f7420746865206f776e6572604082015260600190565b6105b6806101486000396000f3fe608060405234801561001057600080fd5b50600436106100575760003560e01c80633121db1c1461005c578063715018a6146100715780638da5cb5b146100795780638f32d59b14610097578063f2fde38b146100ac575b600080fd5b61006f61006a3660046103df565b6100bf565b005b61006f610131565b61008161019f565b60405161008e9190610475565b60405180910390f35b61009f6101ae565b60405161008e9190610489565b61006f6100ba3660046103a0565b6101d2565b6100c76101ae565b6100ec5760405162461bcd60e51b81526004016100e390610536565b60405180910390fd5b61012c8383838080601f01602080910402602001604051908101604052809392919081815260200183838082843760009201919091525061020292505050565b505050565b6101396101ae565b6101555760405162461bcd60e51b81526004016100e390610536565b600080546040516001600160a01b03909116907f8be0079c531659141344cd1fd0a4f28419497f9722a3daafe3b4186f6b6457e0908390a3600080546001600160a01b0319169055565b6000546001600160a01b031690565b600080546001600160a01b03166101c361031b565b6001600160a01b031614905090565b6101da6101ae565b6101f65760405162461bcd60e51b81526004016100e390610536565b6101ff8161031f565b50565b6040516302571be360e01b81526001600160a01b038316906302571be39061024e907f91d1777781884d03a6757a803996e38de2a42967fb37eeaca72729271025a9e290600401610494565b60206040518083038186803b15801561026657600080fd5b505afa15801561027a573d6000803e3d6000fd5b505050506040513d601f19601f8201168201806040525061029e91908101906103c3565b6001600160a01b031663c47f0027826040518263ffffffff1660e01b81526004016102c9919061049d565b602060405180830381600087803b1580156102e357600080fd5b505af11580156102f7573d6000803e3d6000fd5b505050506040513d601f19601f8201168201806040525061012c919081019061045d565b3390565b6001600160a01b0381166103455760405162461bcd60e51b81526004016100e3906104f0565b600080546040516001600160a01b03808516939216917f8be0079c531659141344cd1fd0a4f28419497f9722a3daafe3b4186f6b6457e091a3600080546001600160a01b0319166001600160a01b0392909216919091179055565b6000602082840312156103b1578081fd5b81356103bc8161056b565b9392505050565b6000602082840312156103d4578081fd5b81516103bc8161056b565b6000806000604084860312156103f3578182fd5b83356103fe8161056b565b9250602084013567ffffffffffffffff8082111561041a578384fd5b81860187601f82011261042b578485fd5b803592508183111561043b578485fd5b87602084830101111561044c578485fd5b949760209095019650909450505050565b60006020828403121561046e578081fd5b5051919050565b6001600160a01b0391909116815260200190565b901515815260200190565b90815260200190565b6000602080835283518082850152825b818110156104c9578581018301518582016040015282016104ad565b818111156104da5783604083870101525b50601f01601f1916929092016040019392505050565b60208082526026908201527f4f776e61626c653a206e6577206f776e657220697320746865207a65726f206160408201526564647265737360d01b606082015260800190565b6020808252818101527f4f776e61626c653a2063616c6c6572206973206e6f7420746865206f776e6572604082015260600190565b6001600160a01b03811681146101ff57600080fdfea2646970667358221220c4ea077a6e1957102259937ad86ba34845fbd738f84a2ceb9985d116022d3d3a64736f6c634300060300338be0079c531659141344cd1fd0a4f28419497f9722a3daafe3b4186f6b6457e0",
  "source": "pragma solidity ^0.6.0;\npragma experimental ABIEncoderV2;\n\nimport \"@iexec/solidity/contracts/ENStools/ENSReverseRegistration.sol\";\nimport \"../DelegateBase.sol\";\nimport \"../interfaces/ENSIntegration.sol\";\n\n\ncontract ENSIntegrationDelegate is ENSIntegration, ENSReverseRegistration, DelegateBase\n{\n\tfunction setName(address _ens, string calldata _name)\n\texternal override onlyOwner()\n\t{\n\t\t_setName(ENS(_ens), _name);\n\t}\n}\n",
  "sourcePath": "/home/amxx/Work/iExec/code/PoCo-dev/contracts/modules/delegates/ENSIntegrationDelegate.sol",
  "compiler": {
    "name": "solc",
    "version": "0.6.3+commit.8dda9521.Emscripten.clang"
  },
  "schemaVersion": "3.0.23",
  "updatedAt": "2020-03-09T10:58:45.619Z",
  "networkType": "ethereum",
  "devdoc": {
    "methods": {
      "isOwner()": {
        "details": "Returns true if the caller is the current owner."
      },
      "owner()": {
        "details": "Returns the address of the current owner."
      },
      "renounceOwnership()": {
        "details": "Leaves the contract without owner. It will not be possible to call `onlyOwner` functions anymore. Can only be called by the current owner.     * NOTE: Renouncing ownership will leave the contract without an owner, thereby removing any functionality that is only available to the owner."
      },
      "transferOwnership(address)": {
        "details": "Transfers ownership of the contract to a new account (`newOwner`). Can only be called by the current owner."
      }
    }
  },
  "userdoc": {
    "methods": {}
  }
}