{
  "contractName": "ENSIntegrationDelegate",
  "abi": [
    {
      "anonymous": false,
      "inputs": [
        {
          "indexed": true,
          "internalType": "address",
          "name": "previousOwner",
          "type": "address"
        },
        {
          "indexed": true,
          "internalType": "address",
          "name": "newOwner",
          "type": "address"
        }
      ],
      "name": "OwnershipTransferred",
      "type": "event"
    },
    {
      "inputs": [],
      "name": "owner",
      "outputs": [
        {
          "internalType": "address",
          "name": "",
          "type": "address"
        }
      ],
      "stateMutability": "view",
      "type": "function"
    },
    {
      "inputs": [],
      "name": "renounceOwnership",
      "outputs": [],
      "stateMutability": "nonpayable",
      "type": "function"
    },
    {
      "inputs": [
        {
          "internalType": "address",
          "name": "newOwner",
          "type": "address"
        }
      ],
      "name": "transferOwnership",
      "outputs": [],
      "stateMutability": "nonpayable",
      "type": "function"
    },
    {
      "inputs": [
        {
          "internalType": "address",
          "name": "_ens",
          "type": "address"
        },
        {
          "internalType": "string",
          "name": "_name",
          "type": "string"
        }
      ],
      "name": "setName",
      "outputs": [],
      "stateMutability": "nonpayable",
      "type": "function"
    }
  ],
  "bytecode": "0x608060405234801561001057600080fd5b50600061001b610060565b600080546001600160a01b0319166001600160a01b0383169081178255604051929350916000805160206106b1833981519152908290a35061005b610064565b61010f565b3390565b61006c610060565b6000546001600160a01b039081169116146100a25760405162461bcd60e51b8152600401610099906100da565b60405180910390fd5b600080546040516001600160a01b03909116906000805160206106b1833981519152908390a3600080546001600160a01b0319169055565b6020808252818101527f4f776e61626c653a2063616c6c6572206973206e6f7420746865206f776e6572604082015260600190565b6105938061011e6000396000f3fe608060405234801561001057600080fd5b506004361061004c5760003560e01c80633121db1c14610051578063715018a6146100665780638da5cb5b1461006e578063f2fde38b1461008c575b600080fd5b61006461005f3660046103c2565b61009f565b005b610064610122565b6100766101a1565b604051610083919061045a565b60405180910390f35b61006461009a366004610383565b6101b0565b6100a7610266565b6000546001600160a01b039081169116146100dd5760405162461bcd60e51b81526004016100d490610510565b60405180910390fd5b61011d8383838080601f01602080910402602001604051908101604052809392919081815260200183838082843760009201919091525061026a92505050565b505050565b61012a610266565b6000546001600160a01b039081169116146101575760405162461bcd60e51b81526004016100d490610510565b600080546040516001600160a01b03909116907f8be0079c531659141344cd1fd0a4f28419497f9722a3daafe3b4186f6b6457e0908390a3600080546001600160a01b0319169055565b6000546001600160a01b031690565b6101b8610266565b6000546001600160a01b039081169116146101e55760405162461bcd60e51b81526004016100d490610510565b6001600160a01b03811661020b5760405162461bcd60e51b81526004016100d4906104ca565b600080546040516001600160a01b03808516939216917f8be0079c531659141344cd1fd0a4f28419497f9722a3daafe3b4186f6b6457e091a3600080546001600160a01b0319166001600160a01b0392909216919091179055565b3390565b6040516302571be360e01b81526001600160a01b038316906302571be3906102b6907f91d1777781884d03a6757a803996e38de2a42967fb37eeaca72729271025a9e29060040161046e565b60206040518083038186803b1580156102ce57600080fd5b505afa1580156102e2573d6000803e3d6000fd5b505050506040513d601f19601f8201168201806040525081019061030691906103a6565b6001600160a01b031663c47f0027826040518263ffffffff1660e01b81526004016103319190610477565b602060405180830381600087803b15801561034b57600080fd5b505af115801561035f573d6000803e3d6000fd5b505050506040513d601f19601f8201168201806040525081019061011d9190610442565b600060208284031215610394578081fd5b813561039f81610545565b9392505050565b6000602082840312156103b7578081fd5b815161039f81610545565b6000806000604084860312156103d6578182fd5b83356103e181610545565b9250602084013567ffffffffffffffff808211156103fd578384fd5b818601915086601f830112610410578384fd5b81358181111561041e578485fd5b87602082850101111561042f578485fd5b6020830194508093505050509250925092565b600060208284031215610453578081fd5b5051919050565b6001600160a01b0391909116815260200190565b90815260200190565b6000602080835283518082850152825b818110156104a357858101830151858201604001528201610487565b818111156104b45783604083870101525b50601f01601f1916929092016040019392505050565b60208082526026908201527f4f776e61626c653a206e6577206f776e657220697320746865207a65726f206160408201526564647265737360d01b606082015260800190565b6020808252818101527f4f776e61626c653a2063616c6c6572206973206e6f7420746865206f776e6572604082015260600190565b6001600160a01b038116811461055a57600080fd5b5056fea264697066735822122074a2932234ebf2421c6fb298be01f380fe05f232810bbf90d580bc9ccf02640164736f6c634300060c00338be0079c531659141344cd1fd0a4f28419497f9722a3daafe3b4186f6b6457e0",
  "immutableReferences": {},
  "source": "// SPDX-License-Identifier: Apache-2.0\n\n/******************************************************************************\n * Copyright 2020 IEXEC BLOCKCHAIN TECH                                       *\n *                                                                            *\n * Licensed under the Apache License, Version 2.0 (the \"License\");            *\n * you may not use this file except in compliance with the License.           *\n * You may obtain a copy of the License at                                    *\n *                                                                            *\n *     http://www.apache.org/licenses/LICENSE-2.0                             *\n *                                                                            *\n * Unless required by applicable law or agreed to in writing, software        *\n * distributed under the License is distributed on an \"AS IS\" BASIS,          *\n * WITHOUT WARRANTIES OR CONDITIONS OF ANY KIND, either express or implied.   *\n * See the License for the specific language governing permissions and        *\n * limitations under the License.                                             *\n ******************************************************************************/\n\npragma solidity ^0.6.0;\npragma experimental ABIEncoderV2;\n\nimport \"@iexec/solidity/contracts/ENStools/ENSReverseRegistration.sol\";\nimport \"../DelegateBase.sol\";\nimport \"../interfaces/ENSIntegration.sol\";\n\n\ncontract ENSIntegrationDelegate is ENSIntegration, ENSReverseRegistration, DelegateBase\n{\n\tfunction setName(address _ens, string calldata _name)\n\texternal override onlyOwner()\n\t{\n\t\t_setName(IENS(_ens), _name);\n\t}\n}\n",
  "sourcePath": "/home/amxx/Work/iExec/code/PoCo-dev/contracts/modules/delegates/ENSIntegrationDelegate.sol",
  "compiler": {
    "name": "solc",
    "version": "0.6.12+commit.27d51765.Emscripten.clang"
  },
  "schemaVersion": "3.2.2",
  "updatedAt": "2020-11-09T09:15:00.550Z",
  "devdoc": {
    "kind": "dev",
    "methods": {
      "owner()": {
        "details": "Returns the address of the current owner."
      },
      "renounceOwnership()": {
        "details": "Leaves the contract without owner. It will not be possible to call `onlyOwner` functions anymore. Can only be called by the current owner. NOTE: Renouncing ownership will leave the contract without an owner, thereby removing any functionality that is only available to the owner."
      },
      "transferOwnership(address)": {
        "details": "Transfers ownership of the contract to a new account (`newOwner`). Can only be called by the current owner."
      }
    },
    "version": 1
  },
  "userdoc": {
    "kind": "user",
    "methods": {},
    "version": 1
  }
}