{
  "contractName": "ENSIntegrationDelegate",
  "abi": [
    {
      "anonymous": false,
      "inputs": [
        {
          "indexed": true,
          "internalType": "address",
          "name": "previousOwner",
          "type": "address"
        },
        {
          "indexed": true,
          "internalType": "address",
          "name": "newOwner",
          "type": "address"
        }
      ],
      "name": "OwnershipTransferred",
      "type": "event"
    },
    {
      "inputs": [],
      "name": "owner",
      "outputs": [
        {
          "internalType": "address",
          "name": "",
          "type": "address"
        }
      ],
      "stateMutability": "view",
      "type": "function",
      "constant": true
    },
    {
      "inputs": [],
      "name": "renounceOwnership",
      "outputs": [],
      "stateMutability": "nonpayable",
      "type": "function"
    },
    {
      "inputs": [
        {
          "internalType": "address",
          "name": "newOwner",
          "type": "address"
        }
      ],
      "name": "transferOwnership",
      "outputs": [],
      "stateMutability": "nonpayable",
      "type": "function"
    },
    {
      "inputs": [
        {
          "internalType": "address",
          "name": "_ens",
          "type": "address"
        },
        {
          "internalType": "string",
          "name": "_name",
          "type": "string"
        }
      ],
      "name": "setName",
      "outputs": [],
      "stateMutability": "nonpayable",
      "type": "function"
    }
  ],
  "bytecode": "0x608060405260006100176001600160e01b0361006516565b600080546001600160a01b0319166001600160a01b0383169081178255604051929350916000805160206106bd833981519152908290a3506100606001600160e01b0361006916565b61011d565b3390565b61007a6001600160e01b0361006516565b6000546001600160a01b039081169116146100b05760405162461bcd60e51b81526004016100a7906100e8565b60405180910390fd5b600080546040516001600160a01b03909116906000805160206106bd833981519152908390a3600080546001600160a01b0319169055565b6020808252818101527f4f776e61626c653a2063616c6c6572206973206e6f7420746865206f776e6572604082015260600190565b6105918061012c6000396000f3fe608060405234801561001057600080fd5b506004361061004c5760003560e01c80633121db1c14610051578063715018a6146100665780638da5cb5b1461006e578063f2fde38b1461008c575b600080fd5b61006461005f3660046103c2565b61009f565b005b610064610122565b6100766101a1565b6040516100839190610458565b60405180910390f35b61006461009a366004610383565b6101b0565b6100a7610266565b6000546001600160a01b039081169116146100dd5760405162461bcd60e51b81526004016100d49061050e565b60405180910390fd5b61011d8383838080601f01602080910402602001604051908101604052809392919081815260200183838082843760009201919091525061026a92505050565b505050565b61012a610266565b6000546001600160a01b039081169116146101575760405162461bcd60e51b81526004016100d49061050e565b600080546040516001600160a01b03909116907f8be0079c531659141344cd1fd0a4f28419497f9722a3daafe3b4186f6b6457e0908390a3600080546001600160a01b0319169055565b6000546001600160a01b031690565b6101b8610266565b6000546001600160a01b039081169116146101e55760405162461bcd60e51b81526004016100d49061050e565b6001600160a01b03811661020b5760405162461bcd60e51b81526004016100d4906104c8565b600080546040516001600160a01b03808516939216917f8be0079c531659141344cd1fd0a4f28419497f9722a3daafe3b4186f6b6457e091a3600080546001600160a01b0319166001600160a01b0392909216919091179055565b3390565b6040516302571be360e01b81526001600160a01b038316906302571be3906102b6907f91d1777781884d03a6757a803996e38de2a42967fb37eeaca72729271025a9e29060040161046c565b60206040518083038186803b1580156102ce57600080fd5b505afa1580156102e2573d6000803e3d6000fd5b505050506040513d601f19601f8201168201806040525081019061030691906103a6565b6001600160a01b031663c47f0027826040518263ffffffff1660e01b81526004016103319190610475565b602060405180830381600087803b15801561034b57600080fd5b505af115801561035f573d6000803e3d6000fd5b505050506040513d601f19601f8201168201806040525081019061011d9190610440565b600060208284031215610394578081fd5b813561039f81610543565b9392505050565b6000602082840312156103b7578081fd5b815161039f81610543565b6000806000604084860312156103d6578182fd5b83356103e181610543565b9250602084013567ffffffffffffffff808211156103fd578384fd5b81860187601f82011261040e578485fd5b803592508183111561041e578485fd5b87602084830101111561042f578485fd5b949760209095019650909450505050565b600060208284031215610451578081fd5b5051919050565b6001600160a01b0391909116815260200190565b90815260200190565b6000602080835283518082850152825b818110156104a157858101830151858201604001528201610485565b818111156104b25783604083870101525b50601f01601f1916929092016040019392505050565b60208082526026908201527f4f776e61626c653a206e6577206f776e657220697320746865207a65726f206160408201526564647265737360d01b606082015260800190565b6020808252818101527f4f776e61626c653a2063616c6c6572206973206e6f7420746865206f776e6572604082015260600190565b6001600160a01b038116811461055857600080fd5b5056fea2646970667358221220f7b8e0c9c901f4749a109f038f2afa7819b786087a520e7596ecd3044dad394264736f6c634300060600338be0079c531659141344cd1fd0a4f28419497f9722a3daafe3b4186f6b6457e0",
  "immutableReferences": {},
  "source": "pragma solidity ^0.6.0;\npragma experimental ABIEncoderV2;\n\nimport \"@iexec/solidity/contracts/ENStools/ENSReverseRegistration.sol\";\nimport \"../DelegateBase.sol\";\nimport \"../interfaces/ENSIntegration.sol\";\n\n\ncontract ENSIntegrationDelegate is ENSIntegration, ENSReverseRegistration, DelegateBase\n{\n\tfunction setName(address _ens, string calldata _name)\n\texternal override onlyOwner()\n\t{\n\t\t_setName(ENS(_ens), _name);\n\t}\n}\n",
  "sourcePath": "/home/amxx/Work/iExec/code/PoCo-dev/contracts/modules/delegates/ENSIntegrationDelegate.sol",
  "compiler": {
    "name": "solc",
    "version": "0.6.6+commit.6c089d02.Emscripten.clang"
  },
  "schemaVersion": "3.1.0",
  "updatedAt": "2020-04-21T18:27:27.253Z",
  "networkType": "ethereum",
  "devdoc": {
    "methods": {
      "owner()": {
        "details": "Returns the address of the current owner."
      },
      "renounceOwnership()": {
        "details": "Leaves the contract without owner. It will not be possible to call `onlyOwner` functions anymore. Can only be called by the current owner.     * NOTE: Renouncing ownership will leave the contract without an owner, thereby removing any functionality that is only available to the owner."
      },
      "transferOwnership(address)": {
        "details": "Transfers ownership of the contract to a new account (`newOwner`). Can only be called by the current owner."
      }
    }
  },
  "userdoc": {
    "methods": {}
  }
}