{
  "contractName": "ERC1538QueryDelegate",
  "abi": [
    {
      "anonymous": false,
      "inputs": [
        {
          "indexed": true,
          "internalType": "address",
          "name": "previousOwner",
          "type": "address"
        },
        {
          "indexed": true,
          "internalType": "address",
          "name": "newOwner",
          "type": "address"
        }
      ],
      "name": "OwnershipTransferred",
      "type": "event"
    },
    {
      "inputs": [],
      "name": "owner",
      "outputs": [
        {
          "internalType": "address",
          "name": "",
          "type": "address"
        }
      ],
      "stateMutability": "view",
      "type": "function",
      "constant": true
    },
    {
      "inputs": [],
      "name": "renounceOwnership",
      "outputs": [],
      "stateMutability": "nonpayable",
      "type": "function"
    },
    {
      "inputs": [
        {
          "internalType": "address",
          "name": "newOwner",
          "type": "address"
        }
      ],
      "name": "transferOwnership",
      "outputs": [],
      "stateMutability": "nonpayable",
      "type": "function"
    },
    {
      "inputs": [],
      "name": "totalFunctions",
      "outputs": [
        {
          "internalType": "uint256",
          "name": "",
          "type": "uint256"
        }
      ],
      "stateMutability": "view",
      "type": "function",
      "constant": true
    },
    {
      "inputs": [
        {
          "internalType": "uint256",
          "name": "_index",
          "type": "uint256"
        }
      ],
      "name": "functionByIndex",
      "outputs": [
        {
          "internalType": "string",
          "name": "signature",
          "type": "string"
        },
        {
          "internalType": "bytes4",
          "name": "id",
          "type": "bytes4"
        },
        {
          "internalType": "address",
          "name": "delegate",
          "type": "address"
        }
      ],
      "stateMutability": "view",
      "type": "function",
      "constant": true
    },
    {
      "inputs": [
        {
          "internalType": "bytes4",
          "name": "_funcId",
          "type": "bytes4"
        }
      ],
      "name": "functionById",
      "outputs": [
        {
          "internalType": "string",
          "name": "signature",
          "type": "string"
        },
        {
          "internalType": "bytes4",
          "name": "id",
          "type": "bytes4"
        },
        {
          "internalType": "address",
          "name": "delegate",
          "type": "address"
        }
      ],
      "stateMutability": "view",
      "type": "function",
      "constant": true
    },
    {
      "inputs": [
        {
          "internalType": "string",
          "name": "_funcSignature",
          "type": "string"
        }
      ],
      "name": "functionExists",
      "outputs": [
        {
          "internalType": "bool",
          "name": "",
          "type": "bool"
        }
      ],
      "stateMutability": "view",
      "type": "function",
      "constant": true
    },
    {
      "inputs": [
        {
          "internalType": "string",
          "name": "_funcSignature",
          "type": "string"
        }
      ],
      "name": "delegateAddress",
      "outputs": [
        {
          "internalType": "address",
          "name": "",
          "type": "address"
        }
      ],
      "stateMutability": "view",
      "type": "function",
      "constant": true
    },
    {
      "inputs": [],
      "name": "functionSignatures",
      "outputs": [
        {
          "internalType": "string",
          "name": "",
          "type": "string"
        }
      ],
      "stateMutability": "view",
      "type": "function",
      "constant": true
    },
    {
      "inputs": [
        {
          "internalType": "address",
          "name": "_delegate",
          "type": "address"
        }
      ],
      "name": "delegateFunctionSignatures",
      "outputs": [
        {
          "internalType": "string",
          "name": "",
          "type": "string"
        }
      ],
      "stateMutability": "view",
      "type": "function",
      "constant": true
    },
    {
      "inputs": [],
      "name": "delegateAddresses",
      "outputs": [
        {
          "internalType": "address[]",
          "name": "",
          "type": "address[]"
        }
      ],
      "stateMutability": "view",
      "type": "function",
      "constant": true
    }
  ],
  "bytecode": "0x608060405260006100176001600160e01b0361006516565b600080546001600160a01b0319166001600160a01b038316908117825560405192935091600080516020610e54833981519152908290a3506100606001600160e01b0361006916565b610114565b3390565b61007a6001600160e01b0361006516565b6000546001600160a01b039081169116146100dc576040805162461bcd60e51b815260206004820181905260248201527f4f776e61626c653a2063616c6c6572206973206e6f7420746865206f776e6572604482015290519081900360640190fd5b600080546040516001600160a01b0390911690600080516020610e54833981519152908390a3600080546001600160a01b0319169055565b610d31806101236000396000f3fe608060405234801561001057600080fd5b50600436106100a95760003560e01c8063715018a611610071578063715018a61461032a5780638006a5d3146103345780638da5cb5b1461038c578063a08e8b3614610394578063a3f01e59146103ae578063f2fde38b146103d5576100a9565b80630164ee96146100ae5780630f0132b81461017757806349d0cd851461020357806351fc00ed146102805780635bfc7f77146102a6575b600080fd5b6100cb600480360360208110156100c457600080fd5b50356103fb565b6040518080602001846001600160e01b0319166001600160e01b0319168152602001836001600160a01b03166001600160a01b03168152602001828103825285818151815260200191508051906020019080838360005b8381101561013a578181015183820152602001610122565b50505050905090810190601f1680156101675780820380516001836020036101000a031916815260200191505b5094505050505060405180910390f35b6101e76004803603602081101561018d57600080fd5b8101906020810181356401000000008111156101a857600080fd5b8201836020820111156101ba57600080fd5b803590602001918460018302840111640100000000831117156101dc57600080fd5b509092509050610424565b604080516001600160a01b039092168252519081900360200190f35b61020b61045b565b6040805160208082528351818301528351919283929083019185019080838360005b8381101561024557818101518382015260200161022d565b50505050905090810190601f1680156102725780820380516001836020036101000a031916815260200191505b509250505060405180910390f35b61020b6004803603602081101561029657600080fd5b50356001600160a01b0316610591565b610316600480360360208110156102bc57600080fd5b8101906020810181356401000000008111156102d757600080fd5b8201836020820111156102e957600080fd5b8035906020019184600183028401116401000000008311171561030b57600080fd5b509092509050610742565b604080519115158252519081900360200190f35b610332610772565b005b61033c610826565b60408051602080825283518183015283519192839290830191858101910280838360005b83811015610378578181015183820152602001610360565b505050509050019250505060405180910390f35b6101e76109ab565b61039c6109ba565b60408051918252519081900360200190f35b6100cb600480360360208110156103c457600080fd5b50356001600160e01b0319166109cb565b610332600480360360208110156103eb57600080fd5b50356001600160a01b0316610a00565b6060600080808084610416600180890163ffffffff610a7616565b999198509650945050505050565b600061045483836040518083838082843760405192018290039091206001945092505063ffffffff610aac169050565b9392505050565b6060600060015b61046c6001610ad5565b81116104a25761049461048660018363ffffffff610ae616565b60019063ffffffff610af816565b516001920182019101610462565b506060816040519080825280601f01601f1916602001820160405280156104d0576020820181803683370190505b509050600060015b6104e26001610ad5565b81116105885760606104fe61048660018463ffffffff610ae616565b905060005b81518110156105525781818151811061051857fe5b602001015160f81c60f81b85858151811061052f57fe5b60200101906001600160f81b031916908160001a90535060019384019301610503565b50603b60f81b84848151811061056457fe5b60200101906001600160f81b031916908160001a90535050600191820191016104d8565b50909250505090565b60608061059e6001610ad5565b6040519080825280602002602001820160405280156105d157816020015b60608152602001906001900390816105bc5790505b50905060008060015b6105e46001610ad5565b811161065657600080606061060060018563ffffffff610a7616565b925092509250816001600160a01b0316896001600160a01b03161415610648578051600101850194508087878151811061063657fe5b60200260200101819052508560010195505b5050508060010190506105da565b506060816040519080825280601f01601f191660200182016040528015610684576020820181803683370190505b5090506000805b848110156107365760608682815181106106a157fe5b6020026020010151905060008090505b8151811015610700578181815181106106c657fe5b602001015160f81c60f81b8585815181106106dd57fe5b60200101906001600160f81b031916908160001a905350600193840193016106b1565b50603b60f81b84848151811061071257fe5b60200101906001600160f81b031916908160001a905350506001918201910161068b565b50909695505050505050565b600061045483836040518083838082843760405192018290039091206001945092505063ffffffff610ba7169050565b61077a610bb9565b6000546001600160a01b039081169116146107dc576040805162461bcd60e51b815260206004820181905260248201527f4f776e61626c653a2063616c6c6572206973206e6f7420746865206f776e6572604482015290519081900360640190fd5b600080546040516001600160a01b03909116907f8be0079c531659141344cd1fd0a4f28419497f9722a3daafe3b4186f6b6457e0908390a3600080546001600160a01b0319169055565b6060806108336001610ad5565b60405190808252806020026020018201604052801561085c578160200160208202803683370190505b509050600060015b61086e6001610ad5565b811161092857600061089861088a60018463ffffffff610ae616565b60019063ffffffff610aac16565b90506000805b848110156108e4578581815181106108b257fe5b60200260200101516001600160a01b0316836001600160a01b031614156108dc57600191506108e4565b60010161089e565b508061091e57818585815181106108f757fe5b60200260200101906001600160a01b031690816001600160a01b0316815250508360010193505b5050600101610864565b50606081604051908082528060200260200182016040528015610955578160200160208202803683370190505b50905060005b828110156109a35783818151811061096f57fe5b602002602001015182828151811061098357fe5b6001600160a01b039092166020928302919091019091015260010161095b565b509250505090565b6000546001600160a01b031690565b60006109c66001610ad5565b905090565b60606000806109e160018563ffffffff610af816565b846109f360018263ffffffff610aac16565b9250925092509193909250565b610a08610bb9565b6000546001600160a01b03908116911614610a6a576040805162461bcd60e51b815260206004820181905260248201527f4f776e61626c653a2063616c6c6572206973206e6f7420746865206f776e6572604482015290519081900360640190fd5b610a7381610bbd565b50565b60008060606000610a878686610ae6565b905080610a948783610aac565b610a9e8884610af8565b935093509350509250925092565b6001600160e01b031916600090815260029190910160205260409020546001600160a01b031690565b6000610ae082610c5d565b92915050565b6000610454838363ffffffff610c6116565b6001600160e01b03198116600090815260038301602090815260409182902080548351601f6002600019610100600186161502019093169290920491820184900484028101840190945280845260609392830182828015610b9a5780601f10610b6f57610100808354040283529160200191610b9a565b820191906000526020600020905b815481529060010190602001808311610b7d57829003601f168201915b5050505050905092915050565b6000610454838363ffffffff610ca016565b3390565b6001600160a01b038116610c025760405162461bcd60e51b8152600401808060200182810382526026815260200180610cd66026913960400191505060405180910390fd5b600080546040516001600160a01b03808516939216917f8be0079c531659141344cd1fd0a4f28419497f9722a3daafe3b4186f6b6457e091a3600080546001600160a01b0319166001600160a01b0392909216919091179055565b5490565b6000826000016001830381548110610c7557fe5b90600052602060002090600891828204019190066004029054906101000a900460e01b905092915050565b6000610cac8383610cb5565b15159392505050565b6001600160e01b031916600090815260019190910160205260409020549056fe4f776e61626c653a206e6577206f776e657220697320746865207a65726f2061646472657373a264697066735822122098fc9b58a1b5d0fdfeee180cfd826726897a2d24bca930c21ab2f4445c996f4064736f6c634300060400338be0079c531659141344cd1fd0a4f28419497f9722a3daafe3b4186f6b6457e0",
  "source": "pragma solidity ^0.6.0;\n\nimport \"../ERC1538Module.sol\";\n\n\ninterface ERC1538Query\n{\n\tfunction totalFunctions            (                           ) external view returns(uint256);\n\tfunction functionByIndex           (uint256          _index    ) external view returns(string memory, bytes4, address);\n\tfunction functionById              (bytes4           _id       ) external view returns(string memory, bytes4, address);\n\tfunction functionExists            (string  calldata _signature) external view returns(bool);\n\tfunction functionSignatures        (                           ) external view returns(string memory);\n\tfunction delegateFunctionSignatures(address          _delegate ) external view returns(string memory);\n\tfunction delegateAddress           (string  calldata _signature) external view returns(address);\n\tfunction delegateAddresses         (                           ) external view returns(address[] memory);\n}\n\ncontract ERC1538QueryDelegate is ERC1538Query, ERC1538Module\n{\n\tfunction totalFunctions()\n\texternal override view returns(uint256)\n\t{\n\t\treturn m_funcs.length();\n\t}\n\n\tfunction functionByIndex(uint256 _index)\n\texternal override view returns(string memory signature, bytes4 id, address delegate)\n\t{\n\t\t(bytes4 funcId, address funcDelegate, bytes memory funcSignature) = m_funcs.at(_index + 1);\n\t\treturn (string(funcSignature), funcId, funcDelegate);\n\t}\n\n\tfunction functionById(bytes4 _funcId)\n\texternal override view returns(string memory signature, bytes4 id, address delegate)\n\t{\n\t\treturn (string(m_funcs.value2(_funcId)), _funcId, m_funcs.value1(_funcId));\n\t}\n\n\tfunction functionExists(string calldata _funcSignature)\n\texternal override view returns(bool)\n\t{\n\t\treturn m_funcs.contains(bytes4(keccak256(bytes(_funcSignature))));\n\t}\n\n\tfunction delegateAddress(string calldata _funcSignature)\n\texternal override view returns(address)\n\t{\n\t\treturn m_funcs.value1(bytes4(keccak256(bytes(_funcSignature))));\n\t}\n\n\tfunction functionSignatures()\n\texternal override view returns(string memory)\n\t{\n\t\tuint256 signaturesLength = 0;\n\t\tfor (uint256 i = 1; i <= m_funcs.length(); ++i)\n\t\t{\n\t\t\tsignaturesLength += m_funcs.value2(m_funcs.keyAt(i)).length + 1; // EDIT\n\t\t}\n\n\t\tbytes memory signatures = new bytes(signaturesLength);\n\t\tuint256 charPos = 0;\n\t\tfor (uint256 i = 1; i <= m_funcs.length(); ++i)\n\t\t{\n\t\t\tbytes memory signature = m_funcs.value2(m_funcs.keyAt(i));\n\t\t\tfor (uint256 c = 0; c < signature.length; ++c)\n\t\t\t{\n\t\t\t\tsignatures[charPos] = signature[c];\n\t\t\t\t++charPos;\n\t\t\t}\n\t\t\tsignatures[charPos] = 0x3B;\n\t\t\t++charPos;\n\t\t}\n\n\t\treturn string(signatures);\n\t}\n\n\tfunction delegateFunctionSignatures(address _delegate)\n\texternal override view returns(string memory)\n\t{\n\t\tbytes[] memory delegateSignatures = new bytes[](m_funcs.length());\n\t\tuint256 delegateSignaturesLength = 0;\n\n\t\tuint256 signaturesLength = 0;\n\t\tfor (uint256 i = 1; i <= m_funcs.length(); ++i)\n\t\t{\n\t\t\t(bytes4 funcId, address funcDelegate, bytes memory funcSignature) = m_funcs.at(i);\n\t\t\tif (_delegate == funcDelegate)\n\t\t\t{\n\t\t\t\tsignaturesLength += funcSignature.length + 1;\n\t\t\t\tdelegateSignatures[delegateSignaturesLength] = funcSignature;\n\t\t\t\t++delegateSignaturesLength;\n\t\t\t}\n\t\t}\n\n\t\tbytes memory signatures = new bytes(signaturesLength);\n\t\tuint256 charPos = 0;\n\t\tfor (uint256 i = 0; i < delegateSignaturesLength; ++i)\n\t\t{\n\t\t\tbytes memory signature = delegateSignatures[i];\n\t\t\tfor (uint256 c = 0; c < signature.length; ++c)\n\t\t\t{\n\t\t\t\tsignatures[charPos] = signature[c];\n\t\t\t\t++charPos;\n\t\t\t}\n\t\t\tsignatures[charPos] = 0x3B;\n\t\t\t++charPos;\n\t\t}\n\n\t\treturn string(signatures);\n\t}\n\n\tfunction delegateAddresses()\n\texternal override view returns(address[] memory)\n\t{\n\t\taddress[] memory delegatesBucket = new address[](m_funcs.length());\n\n\t\tuint256 numDelegates = 0;\n\t\tfor (uint256 i = 1; i <= m_funcs.length(); ++i)\n\t\t{\n\t\t\taddress delegate = m_funcs.value1(m_funcs.keyAt(i));\n\t\t\tbool seen = false;\n\t\t\tfor (uint256 j = 0; j < numDelegates; ++j)\n\t\t\t{\n\t\t\t\tif (delegate == delegatesBucket[j])\n\t\t\t\t{\n\t\t\t\t\tseen = true;\n\t\t\t\t\tbreak;\n\t\t\t\t}\n\t\t\t}\n\t\t\tif (seen == false)\n\t\t\t{\n\t\t\t\tdelegatesBucket[numDelegates] = delegate;\n\t\t\t\t++numDelegates;\n\t\t\t}\n\t\t}\n\n\t\taddress[] memory delegates = new address[](numDelegates);\n\t\tfor (uint256 i = 0; i < numDelegates; ++i)\n\t\t{\n\t\t\tdelegates[i] = delegatesBucket[i];\n\t\t}\n\t\treturn delegates;\n\t}\n}\n",
  "sourcePath": "/home/amxx/Work/iExec/code/npm/iexec-solidity/contracts/ERC1538/ERC1538Modules/ERC1538Query.sol",
  "compiler": {
    "name": "solc",
    "version": "0.6.4+commit.1dca32f3.Emscripten.clang"
  },
  "schemaVersion": "3.2.2",
  "updatedAt": "2020-11-04T15:03:34.357Z",
  "networkType": "ethereum",
  "devdoc": {
    "methods": {
      "owner()": {
        "details": "Returns the address of the current owner."
      },
      "renounceOwnership()": {
        "details": "Leaves the contract without owner. It will not be possible to call `onlyOwner` functions anymore. Can only be called by the current owner.     * NOTE: Renouncing ownership will leave the contract without an owner, thereby removing any functionality that is only available to the owner."
      },
      "transferOwnership(address)": {
        "details": "Transfers ownership of the contract to a new account (`newOwner`). Can only be called by the current owner."
      }
    }
  },
  "userdoc": {
    "methods": {}
  }
}