{
  "contractName": "ERC1538UpdateDelegate",
  "abi": [
    {
      "anonymous": false,
      "inputs": [
        {
          "indexed": false,
          "internalType": "string",
          "name": "message",
          "type": "string"
        }
      ],
      "name": "CommitMessage",
      "type": "event"
    },
    {
      "anonymous": false,
      "inputs": [
        {
          "indexed": true,
          "internalType": "bytes4",
          "name": "functionId",
          "type": "bytes4"
        },
        {
          "indexed": true,
          "internalType": "address",
          "name": "oldDelegate",
          "type": "address"
        },
        {
          "indexed": true,
          "internalType": "address",
          "name": "newDelegate",
          "type": "address"
        },
        {
          "indexed": false,
          "internalType": "string",
          "name": "functionSignature",
          "type": "string"
        }
      ],
      "name": "FunctionUpdate",
      "type": "event"
    },
    {
      "anonymous": false,
      "inputs": [
        {
          "indexed": true,
          "internalType": "address",
          "name": "previousOwner",
          "type": "address"
        },
        {
          "indexed": true,
          "internalType": "address",
          "name": "newOwner",
          "type": "address"
        }
      ],
      "name": "OwnershipTransferred",
      "type": "event"
    },
    {
      "inputs": [],
      "name": "owner",
      "outputs": [
        {
          "internalType": "address",
          "name": "",
          "type": "address"
        }
      ],
      "stateMutability": "view",
      "type": "function",
      "constant": true
    },
    {
      "inputs": [],
      "name": "renounceOwnership",
      "outputs": [],
      "stateMutability": "nonpayable",
      "type": "function"
    },
    {
      "inputs": [
        {
          "internalType": "address",
          "name": "newOwner",
          "type": "address"
        }
      ],
      "name": "transferOwnership",
      "outputs": [],
      "stateMutability": "nonpayable",
      "type": "function"
    },
    {
      "inputs": [
        {
          "internalType": "address",
          "name": "_delegate",
          "type": "address"
        },
        {
          "internalType": "string",
          "name": "_functionSignatures",
          "type": "string"
        },
        {
          "internalType": "string",
          "name": "_commitMessage",
          "type": "string"
        }
      ],
      "name": "updateContract",
      "outputs": [],
      "stateMutability": "nonpayable",
      "type": "function"
    }
  ],
  "bytecode": "0x608060405260006100176001600160e01b0361006516565b600080546001600160a01b0319166001600160a01b038316908117825560405192935091600080516020610c09833981519152908290a3506100606001600160e01b0361006916565b610114565b3390565b61007a6001600160e01b0361006516565b6000546001600160a01b039081169116146100dc576040805162461bcd60e51b815260206004820181905260248201527f4f776e61626c653a2063616c6c6572206973206e6f7420746865206f776e6572604482015290519081900360640190fd5b600080546040516001600160a01b0390911690600080516020610c09833981519152908390a3600080546001600160a01b0319169055565b610ae6806101236000396000f3fe608060405234801561001057600080fd5b506004361061004c5760003560e01c80636145556714610051578063715018a6146101255780638da5cb5b1461012d578063f2fde38b14610151575b600080fd5b6101236004803603606081101561006757600080fd5b6001600160a01b03823516919081019060408101602082013564010000000081111561009257600080fd5b8201836020820111156100a457600080fd5b803590602001918460018302840111640100000000831117156100c657600080fd5b9193909290916020810190356401000000008111156100e457600080fd5b8201836020820111156100f657600080fd5b8035906020019184600183028401116401000000008311171561011857600080fd5b509092509050610177565b005b61012361032a565b6101356103de565b604080516001600160a01b039092168252519081900360200190f35b6101236004803603602081101561016757600080fd5b50356001600160a01b03166103ee565b61017f610464565b6000546001600160a01b039081169116146101e1576040805162461bcd60e51b815260206004820181905260248201527f4f776e61626c653a2063616c6c6572206973206e6f7420746865206f776e6572604482015290519081900360640190fd5b606084848080601f0160208091040260200160405190810160405280939291908181526020018383808284376000920182905250939450839250829150506001600160a01b0389161561026d5750873b8061026d5760405162461bcd60e51b8152600401808060200182810382526043815260200180610a6e6043913960600191505060405180910390fd5b60208401925083518301915060008390505b828110156102be57805160001a603b8114156102b5578482038087526102a5878d610468565b6001810187019650826001019550505b5060010161027f565b507faa1c0a0a78cec2470f9652e5d29540752e7a64d70f926933cebf13afaeda45de868660405180806020018281038252848482818152602001925080828437600083820152604051601f909101601f19169092018290039550909350505050a1505050505050505050565b610332610464565b6000546001600160a01b03908116911614610394576040805162461bcd60e51b815260206004820181905260248201527f4f776e61626c653a2063616c6c6572206973206e6f7420746865206f776e6572604482015290519081900360640190fd5b600080546040516001600160a01b03909116907f8be0079c531659141344cd1fd0a4f28419497f9722a3daafe3b4186f6b6457e0908390a3600080546001600160a01b0319169055565b6000546001600160a01b03165b90565b6103f6610464565b6000546001600160a01b03908116911614610458576040805162461bcd60e51b815260206004820181905260248201527f4f776e61626c653a2063616c6c6572206973206e6f7420746865206f776e6572604482015290519081900360640190fd5b610461816105df565b50565b3390565b815160208301206001600160e01b0319811663690bfe6360e11b141561048c575060005b6001600160e01b0319811663b32cdf4d60e01b14156104b057506001600160e01b03195b60006104c360018363ffffffff61067f16565b9050806001600160a01b0316836001600160a01b031614156104e65750506105db565b6001600160a01b03831661050b5761050560018363ffffffff6106ab16565b50610520565b61051e600183858763ffffffff61070516565b505b826001600160a01b0316816001600160a01b0316836001600160e01b0319167f3234040ce3bd4564874e44810f198910133a1b24c4e84aac87edbf6b458f5353876040518080602001828103825283818151815260200191508051906020019080838360005b8381101561059e578181015183820152602001610586565b50505050905090810190601f1680156105cb5780820380516001836020036101000a031916815260200191505b509250505060405180910390a450505b5050565b6001600160a01b0381166106245760405162461bcd60e51b8152600401808060200182810382526026815260200180610a486026913960400191505060405180910390fd5b600080546040516001600160a01b03808516939216917f8be0079c531659141344cd1fd0a4f28419497f9722a3daafe3b4186f6b6457e091a3600080546001600160a01b0319166001600160a01b0392909216919091179055565b6001600160e01b0319811660009081526002830160205260409020546001600160a01b03165b92915050565b60006106bd838363ffffffff61077216565b506001600160e01b031982166000908152600284016020908152604080832080546001600160a01b03191690556003860190915281206106fc9161096b565b50600192915050565b6000610717858563ffffffff6108b916565b506001600160e01b031984166000908152600286016020908152604080832080546001600160a01b0319166001600160a01b0388161790556003880182529091208351610766928501906109af565b50600195945050505050565b600061077e8383610932565b61078a575060006106a5565b60006107968484610947565b905060006107a385610967565b90508082146108585760008560000160018303815481106107c057fe5b90600052602060002090600891828204019190066004029054906101000a900460e01b9050808660000160018503815481106107f857fe5b90600052602060002090600891828204019190066004026101000a81548163ffffffff021916908360e01c021790555082866001016000836001600160e01b0319166001600160e01b031916815260200190815260200160002081905550505b6001600160e01b031984166000908152600186016020526040812055845485908061087f57fe5b600082815260209020600860001990920191820401805463ffffffff600460078516026101000a0219169055905550600191505092915050565b60006108c58383610932565b156108d2575060006106a5565b50815460018082018455600084815260208082206008850401805463ffffffff60079096166004026101000a958602191660e087901c959095029490941790935584546001600160e01b0319909416815293810190915260409092205590565b600061093e8383610947565b15159392505050565b6001600160e01b0319166000908152600191909101602052604090205490565b5490565b50805460018160011615610100020316600290046000825580601f106109915750610461565b601f0160209004906000526020600020908101906104619190610a2d565b828054600181600116156101000203166002900490600052602060002090601f016020900481019282601f106109f057805160ff1916838001178555610a1d565b82800160010185558215610a1d579182015b82811115610a1d578251825591602001919060010190610a02565b50610a29929150610a2d565b5090565b6103eb91905b80821115610a295760008155600101610a3356fe4f776e61626c653a206e6577206f776e657220697320746865207a65726f20616464726573735b455243313533385d205f64656c65676174652061646472657373206973206e6f74206120636f6e747261637420616e64206973206e6f742061646472657373283029a2646970667358221220ad7328f46f719b895046b880aef2dd7e0af9f6c04510d21a00e3c8bd9941103564736f6c634300060400338be0079c531659141344cd1fd0a4f28419497f9722a3daafe3b4186f6b6457e0",
  "source": "pragma solidity ^0.6.0;\n\nimport \"../ERC1538Core.sol\";\nimport \"../ERC1538Module.sol\";\n\n\ninterface ERC1538Update\n{\n\tfunction updateContract(address _delegate, string calldata _functionSignatures, string calldata commitMessage) external;\n}\n\ncontract ERC1538UpdateDelegate is ERC1538Update, ERC1538Core, ERC1538Module\n{\n\tfunction updateContract(\n\t\taddress         _delegate,\n\t\tstring calldata _functionSignatures,\n\t\tstring calldata _commitMessage\n\t)\n\texternal override onlyOwner\n\t{\n\t\tbytes memory signatures = bytes(_functionSignatures);\n\t\tuint256 start;\n\t\tuint256 end;\n\t\tuint256 size;\n\n\t\tif (_delegate != address(0))\n\t\t{\n\t\t\tassembly { size := extcodesize(_delegate) }\n\t\t\trequire(size > 0, \"[ERC1538] _delegate address is not a contract and is not address(0)\");\n\t\t}\n\t\tassembly\n\t\t{\n\t\t\tstart := add(signatures, 32)\n\t\t\tend   := add(start, mload(signatures))\n\t\t}\n\t\tfor (uint256 pos = start; pos < end; ++pos)\n\t\t{\n\t\t\tuint256 char;\n\t\t\tassembly { char := byte(0, mload(pos)) }\n\t\t\tif (char == 0x3B) // 0x3B = ';'\n\t\t\t{\n\t\t\t\tuint256 length = (pos - start);\n\t\t\t\tassembly { mstore(signatures, length) }\n\n\t\t\t\t_setFunc(string(signatures), _delegate);\n\n\t\t\t\tassembly { signatures := add(signatures, add(length, 1)) }\n\t\t\t\tstart = pos+1;\n\t\t\t}\n\t\t}\n\t\temit CommitMessage(_commitMessage);\n\t}\n}\n",
  "sourcePath": "/home/amxx/Work/iExec/code/npm/iexec-solidity/contracts/ERC1538/ERC1538Modules/ERC1538Update.sol",
  "compiler": {
    "name": "solc",
    "version": "0.6.4+commit.1dca32f3.Emscripten.clang"
  },
  "schemaVersion": "3.2.2",
  "updatedAt": "2020-11-04T15:03:28.776Z",
  "networkType": "ethereum",
  "devdoc": {
    "methods": {
      "owner()": {
        "details": "Returns the address of the current owner."
      },
      "renounceOwnership()": {
        "details": "Leaves the contract without owner. It will not be possible to call `onlyOwner` functions anymore. Can only be called by the current owner.     * NOTE: Renouncing ownership will leave the contract without an owner, thereby removing any functionality that is only available to the owner."
      },
      "transferOwnership(address)": {
        "details": "Transfers ownership of the contract to a new account (`newOwner`). Can only be called by the current owner."
      }
    }
  },
  "userdoc": {
    "methods": {}
  }
}