{
  "contractName": "ERC1538UpdateDelegate",
  "abi": [
    {
      "anonymous": false,
      "inputs": [
        {
          "indexed": false,
          "internalType": "string",
          "name": "message",
          "type": "string"
        }
      ],
      "name": "CommitMessage",
      "type": "event"
    },
    {
      "anonymous": false,
      "inputs": [
        {
          "indexed": true,
          "internalType": "bytes4",
          "name": "functionId",
          "type": "bytes4"
        },
        {
          "indexed": true,
          "internalType": "address",
          "name": "oldDelegate",
          "type": "address"
        },
        {
          "indexed": true,
          "internalType": "address",
          "name": "newDelegate",
          "type": "address"
        },
        {
          "indexed": false,
          "internalType": "string",
          "name": "functionSignature",
          "type": "string"
        }
      ],
      "name": "FunctionUpdate",
      "type": "event"
    },
    {
      "anonymous": false,
      "inputs": [
        {
          "indexed": true,
          "internalType": "address",
          "name": "previousOwner",
          "type": "address"
        },
        {
          "indexed": true,
          "internalType": "address",
          "name": "newOwner",
          "type": "address"
        }
      ],
      "name": "OwnershipTransferred",
      "type": "event"
    },
    {
      "inputs": [],
      "name": "isOwner",
      "outputs": [
        {
          "internalType": "bool",
          "name": "",
          "type": "bool"
        }
      ],
      "stateMutability": "view",
      "type": "function",
      "constant": true
    },
    {
      "inputs": [],
      "name": "owner",
      "outputs": [
        {
          "internalType": "address",
          "name": "",
          "type": "address"
        }
      ],
      "stateMutability": "view",
      "type": "function",
      "constant": true
    },
    {
      "inputs": [],
      "name": "renounceOwnership",
      "outputs": [],
      "stateMutability": "nonpayable",
      "type": "function"
    },
    {
      "inputs": [
        {
          "internalType": "address",
          "name": "newOwner",
          "type": "address"
        }
      ],
      "name": "transferOwnership",
      "outputs": [],
      "stateMutability": "nonpayable",
      "type": "function"
    },
    {
      "inputs": [
        {
          "internalType": "address",
          "name": "_delegate",
          "type": "address"
        },
        {
          "internalType": "string",
          "name": "_functionSignatures",
          "type": "string"
        },
        {
          "internalType": "string",
          "name": "_commitMessage",
          "type": "string"
        }
      ],
      "name": "updateContract",
      "outputs": [],
      "stateMutability": "nonpayable",
      "type": "function"
    }
  ],
  "bytecode": "0x608060405260006100176001600160e01b0361006516565b600080546001600160a01b0319166001600160a01b038316908117825560405192935091600080516020610c6c833981519152908290a3506100606001600160e01b0361006916565b610130565b3390565b61007a6001600160e01b0361010316565b6100cb576040805162461bcd60e51b815260206004820181905260248201527f4f776e61626c653a2063616c6c6572206973206e6f7420746865206f776e6572604482015290519081900360640190fd5b600080546040516001600160a01b0390911690600080516020610c6c833981519152908390a3600080546001600160a01b0319169055565b600080546001600160a01b03166101216001600160e01b0361006516565b6001600160a01b031614905090565b610b2d8061013f6000396000f3fe608060405234801561001057600080fd5b50600436106100575760003560e01c8063614555671461005c578063715018a6146101305780638da5cb5b146101385780638f32d59b1461015c578063f2fde38b14610178575b600080fd5b61012e6004803603606081101561007257600080fd5b6001600160a01b03823516919081019060408101602082013564010000000081111561009d57600080fd5b8201836020820111156100af57600080fd5b803590602001918460018302840111640100000000831117156100d157600080fd5b9193909290916020810190356401000000008111156100ef57600080fd5b82018360208201111561010157600080fd5b8035906020019184600183028401116401000000008311171561012357600080fd5b50909250905061019e565b005b61012e610340565b6101406103e3565b604080516001600160a01b039092168252519081900360200190f35b6101646103f3565b604080519115158252519081900360200190f35b61012e6004803603602081101561018e57600080fd5b50356001600160a01b0316610417565b6101a66103f3565b6101f7576040805162461bcd60e51b815260206004820181905260248201527f4f776e61626c653a2063616c6c6572206973206e6f7420746865206f776e6572604482015290519081900360640190fd5b606084848080601f0160208091040260200160405190810160405280939291908181526020018383808284376000920182905250939450839250829150506001600160a01b038916156102835750873b806102835760405162461bcd60e51b8152600401808060200182810382526043815260200180610ab56043913960600191505060405180910390fd5b60208401925083518301915060008390505b828110156102d457805160001a603b8114156102cb578482038087526102bb878d61047c565b6001960186019591909101935083905b50600101610295565b507faa1c0a0a78cec2470f9652e5d29540752e7a64d70f926933cebf13afaeda45de868660405180806020018281038252848482818152602001925080828437600083820152604051601f909101601f19169092018290039550909350505050a1505050505050505050565b6103486103f3565b610399576040805162461bcd60e51b815260206004820181905260248201527f4f776e61626c653a2063616c6c6572206973206e6f7420746865206f776e6572604482015290519081900360640190fd5b600080546040516001600160a01b03909116907f8be0079c531659141344cd1fd0a4f28419497f9722a3daafe3b4186f6b6457e0908390a3600080546001600160a01b0319169055565b6000546001600160a01b03165b90565b600080546001600160a01b0316610408610622565b6001600160a01b031614905090565b61041f6103f3565b610470576040805162461bcd60e51b815260206004820181905260248201527f4f776e61626c653a2063616c6c6572206973206e6f7420746865206f776e6572604482015290519081900360640190fd5b61047981610626565b50565b8151602083012060408051667265636569766560c81b815290519081900360070190206001600160e01b0319808316911614156104b7575060005b604080516766616c6c6261636b60c01b815290519081900360080190206001600160e01b0319828116911614156104f357506001600160e01b03195b600061050660018363ffffffff6106c616565b9050806001600160a01b0316836001600160a01b0316141561052957505061061e565b6001600160a01b03831661054e5761054860018363ffffffff6106f216565b50610563565b610561600183858763ffffffff61074c16565b505b826001600160a01b0316816001600160a01b0316836001600160e01b0319167f3234040ce3bd4564874e44810f198910133a1b24c4e84aac87edbf6b458f5353876040518080602001828103825283818151815260200191508051906020019080838360005b838110156105e15781810151838201526020016105c9565b50505050905090810190601f16801561060e5780820380516001836020036101000a031916815260200191505b509250505060405180910390a450505b5050565b3390565b6001600160a01b03811661066b5760405162461bcd60e51b8152600401808060200182810382526026815260200180610a8f6026913960400191505060405180910390fd5b600080546040516001600160a01b03808516939216917f8be0079c531659141344cd1fd0a4f28419497f9722a3daafe3b4186f6b6457e091a3600080546001600160a01b0319166001600160a01b0392909216919091179055565b6001600160e01b0319811660009081526002830160205260409020546001600160a01b03165b92915050565b6000610704838363ffffffff6107b916565b506001600160e01b031982166000908152600284016020908152604080832080546001600160a01b0319169055600386019091528120610743916109b2565b50600192915050565b600061075e858563ffffffff61090016565b506001600160e01b031984166000908152600286016020908152604080832080546001600160a01b0319166001600160a01b03881617905560038801825290912083516107ad928501906109f6565b50600195945050505050565b60006107c58383610979565b6107d1575060006106ec565b60006107dd848461098e565b905060006107ea856109ae565b905080821461089f57600085600001600183038154811061080757fe5b90600052602060002090600891828204019190066004029054906101000a900460e01b90508086600001600185038154811061083f57fe5b90600052602060002090600891828204019190066004026101000a81548163ffffffff021916908360e01c021790555082866001016000836001600160e01b0319166001600160e01b031916815260200190815260200160002081905550505b6001600160e01b03198416600090815260018601602052604081205584548590806108c657fe5b600082815260209020600860001990920191820401805463ffffffff600460078516026101000a0219169055905550600191505092915050565b600061090c8383610979565b15610919575060006106ec565b50815460018082018455600084815260208082206008850401805463ffffffff60079096166004026101000a958602191660e087901c959095029490941790935584546001600160e01b0319909416815293810190915260409092205590565b6000610985838361098e565b15159392505050565b6001600160e01b0319166000908152600191909101602052604090205490565b5490565b50805460018160011615610100020316600290046000825580601f106109d85750610479565b601f0160209004906000526020600020908101906104799190610a74565b828054600181600116156101000203166002900490600052602060002090601f016020900481019282601f10610a3757805160ff1916838001178555610a64565b82800160010185558215610a64579182015b82811115610a64578251825591602001919060010190610a49565b50610a70929150610a74565b5090565b6103f091905b80821115610a705760008155600101610a7a56fe4f776e61626c653a206e6577206f776e657220697320746865207a65726f20616464726573735b455243313533385d205f64656c65676174652061646472657373206973206e6f74206120636f6e747261637420616e64206973206e6f742061646472657373283029a2646970667358221220a7a59096f77a5e9c49f8b6f807ae5b816de61b396b4c4f9a9e413befe2fdf5c664736f6c634300060200338be0079c531659141344cd1fd0a4f28419497f9722a3daafe3b4186f6b6457e0",
  "source": "pragma solidity ^0.6.0;\n\nimport \"./ERC1538.sol\";\n\n\ninterface ERC1538Update\n{\n\tfunction updateContract(address _delegate, string calldata _functionSignatures, string calldata commitMessage) external;\n}\n\ncontract ERC1538UpdateDelegate is ERC1538Update, ERC1538\n{\n\tfunction updateContract(\n\t\taddress         _delegate,\n\t\tstring calldata _functionSignatures,\n\t\tstring calldata _commitMessage\n\t)\n\texternal override onlyOwner\n\t{\n\t\tbytes memory signatures = bytes(_functionSignatures);\n\t\tuint256 start;\n\t\tuint256 end;\n\t\tuint256 size;\n\n\t\tif (_delegate != address(0))\n\t\t{\n\t\t\tassembly { size := extcodesize(_delegate) }\n\t\t\trequire(size > 0, \"[ERC1538] _delegate address is not a contract and is not address(0)\");\n\t\t}\n\t\tassembly\n\t\t{\n\t\t\tstart := add(signatures, 32)\n\t\t\tend   := add(start, mload(signatures))\n\t\t}\n\t\tfor (uint256 pos = start; pos < end; ++pos)\n\t\t{\n\t\t\tuint256 char;\n\t\t\tassembly { char := byte(0, mload(pos)) }\n\t\t\tif (char == 0x3B) // 0x3B = ';'\n\t\t\t{\n\t\t\t\tuint256 length = (pos - start);\n\t\t\t\tassembly { mstore(signatures, length) }\n\n\t\t\t\t_setFunc(string(signatures), _delegate);\n\n\t\t\t\tassembly { signatures := add(signatures, add(length, 1)) }\n\t\t\t\tstart = ++pos;\n\t\t\t}\n\t\t}\n\t\temit CommitMessage(_commitMessage);\n\t}\n}\n",
  "sourcePath": "/home/amxx/Work/iExec/code/npm/iexec-solidity/contracts/ERC1538/ERC1538Update.sol",
  "compiler": {
    "name": "solc",
    "version": "0.6.2+commit.bacdbe57.Emscripten.clang"
  },
  "schemaVersion": "3.0.23",
  "updatedAt": "2020-03-09T19:23:38.203Z",
  "networkType": "ethereum",
  "devdoc": {
    "methods": {
      "isOwner()": {
        "details": "Returns true if the caller is the current owner."
      },
      "owner()": {
        "details": "Returns the address of the current owner."
      },
      "renounceOwnership()": {
        "details": "Leaves the contract without owner. It will not be possible to call `onlyOwner` functions anymore. Can only be called by the current owner.     * NOTE: Renouncing ownership will leave the contract without an owner, thereby removing any functionality that is only available to the owner."
      },
      "transferOwnership(address)": {
        "details": "Transfers ownership of the contract to a new account (`newOwner`). Can only be called by the current owner."
      }
    }
  },
  "userdoc": {
    "methods": {}
  }
}