{
  "contractName": "ERC1538QueryDelegate",
  "abi": [
    {
      "constant": false,
      "inputs": [],
      "name": "renounceOwnership",
      "outputs": [],
      "payable": false,
      "stateMutability": "nonpayable",
      "type": "function"
    },
    {
      "constant": true,
      "inputs": [],
      "name": "owner",
      "outputs": [
        {
          "name": "",
          "type": "address"
        }
      ],
      "payable": false,
      "stateMutability": "view",
      "type": "function"
    },
    {
      "constant": true,
      "inputs": [],
      "name": "isOwner",
      "outputs": [
        {
          "name": "",
          "type": "bool"
        }
      ],
      "payable": false,
      "stateMutability": "view",
      "type": "function"
    },
    {
      "constant": false,
      "inputs": [
        {
          "name": "newOwner",
          "type": "address"
        }
      ],
      "name": "transferOwnership",
      "outputs": [],
      "payable": false,
      "stateMutability": "nonpayable",
      "type": "function"
    },
    {
      "anonymous": false,
      "inputs": [
        {
          "indexed": true,
          "name": "previousOwner",
          "type": "address"
        },
        {
          "indexed": true,
          "name": "newOwner",
          "type": "address"
        }
      ],
      "name": "OwnershipTransferred",
      "type": "event"
    },
    {
      "constant": true,
      "inputs": [],
      "name": "totalFunctions",
      "outputs": [
        {
          "name": "",
          "type": "uint256"
        }
      ],
      "payable": false,
      "stateMutability": "view",
      "type": "function"
    },
    {
      "constant": true,
      "inputs": [
        {
          "name": "_index",
          "type": "uint256"
        }
      ],
      "name": "functionByIndex",
      "outputs": [
        {
          "name": "signature",
          "type": "string"
        },
        {
          "name": "id",
          "type": "bytes4"
        },
        {
          "name": "delegate",
          "type": "address"
        }
      ],
      "payable": false,
      "stateMutability": "view",
      "type": "function"
    },
    {
      "constant": true,
      "inputs": [
        {
          "name": "_id",
          "type": "bytes4"
        }
      ],
      "name": "functionById",
      "outputs": [
        {
          "name": "signature",
          "type": "string"
        },
        {
          "name": "id",
          "type": "bytes4"
        },
        {
          "name": "delegate",
          "type": "address"
        }
      ],
      "payable": false,
      "stateMutability": "view",
      "type": "function"
    },
    {
      "constant": true,
      "inputs": [
        {
          "name": "_signature",
          "type": "string"
        }
      ],
      "name": "functionExists",
      "outputs": [
        {
          "name": "",
          "type": "bool"
        }
      ],
      "payable": false,
      "stateMutability": "view",
      "type": "function"
    },
    {
      "constant": true,
      "inputs": [],
      "name": "functionSignatures",
      "outputs": [
        {
          "name": "",
          "type": "string"
        }
      ],
      "payable": false,
      "stateMutability": "view",
      "type": "function"
    },
    {
      "constant": true,
      "inputs": [
        {
          "name": "_delegate",
          "type": "address"
        }
      ],
      "name": "delegateFunctionSignatures",
      "outputs": [
        {
          "name": "",
          "type": "string"
        }
      ],
      "payable": false,
      "stateMutability": "view",
      "type": "function"
    },
    {
      "constant": true,
      "inputs": [
        {
          "name": "_signature",
          "type": "string"
        }
      ],
      "name": "delegateAddress",
      "outputs": [
        {
          "name": "",
          "type": "address"
        }
      ],
      "payable": false,
      "stateMutability": "view",
      "type": "function"
    },
    {
      "constant": true,
      "inputs": [],
      "name": "delegateAddresses",
      "outputs": [
        {
          "name": "",
          "type": "address[]"
        }
      ],
      "payable": false,
      "stateMutability": "view",
      "type": "function"
    }
  ],
  "bytecode": "0x60806040819052600080546001600160a01b03191633178082556001600160a01b0316917f8be0079c531659141344cd1fd0a4f28419497f9722a3daafe3b4186f6b6457e0908290a3611118806100576000396000f3fe608060405234801561001057600080fd5b50600436106100b45760003560e01c80638006a5d3116100715780638006a5d31461033f5780638da5cb5b146103975780638f32d59b1461039f578063a08e8b36146103a7578063a3f01e59146103c1578063f2fde38b146103e8576100b4565b80630164ee96146100b95780630f0132b81461018257806349d0cd851461020e57806351fc00ed1461028b5780635bfc7f77146102b1578063715018a614610335575b600080fd5b6100d6600480360360208110156100cf57600080fd5b503561040e565b6040518080602001846001600160e01b0319166001600160e01b0319168152602001836001600160a01b03166001600160a01b03168152602001828103825285818151815260200191508051906020019080838360005b8381101561014557818101518382015260200161012d565b50505050905090810190601f1680156101725780820380516001836020036101000a031916815260200191505b5094505050505060405180910390f35b6101f26004803603602081101561019857600080fd5b8101906020810181356401000000008111156101b357600080fd5b8201836020820111156101c557600080fd5b803590602001918460018302840111640100000000831117156101e757600080fd5b5090925090506105b0565b604080516001600160a01b039092168252519081900360200190f35b610216610679565b6040805160208082528351818301528351919283929083019185019080838360005b83811015610250578181015183820152602001610238565b50505050905090810190601f16801561027d5780820380516001836020036101000a031916815260200191505b509250505060405180910390f35b610216600480360360208110156102a157600080fd5b50356001600160a01b0316610887565b610321600480360360208110156102c757600080fd5b8101906020810181356401000000008111156102e257600080fd5b8201836020820111156102f457600080fd5b8035906020019184600183028401116401000000008311171561031657600080fd5b509092509050610aaf565b604080519115158252519081900360200190f35b61033d610ae2565b005b610347610b85565b60408051602080825283518183015283519192839290830191858101910280838360005b8381101561038357818101518382015260200161036b565b505050509050019250505060405180910390f35b6101f2610d9b565b610321610daa565b6103af610dbb565b60408051918252519081900360200190f35b6100d6600480360360208110156103d757600080fd5b50356001600160e01b031916610dc1565b61033d600480360360208110156103fe57600080fd5b50356001600160a01b0316610f90565b606060008060028054905084106104565760405162461bcd60e51b81526004018080602001828103825260288152602001806110bc6028913960400191505060405180910390fd5b6002848154811061046357fe5b9060005260206000200160405180828054600181600116156101000203166002900480156104c85780601f106104a65761010080835404028352918201916104c8565b820191906000526020600020905b8154815290600101906020018083116104b4575b505091505060405180910390209150600284815481106104e457fe5b600091825260208083206001600160e01b0319861684526001808352604094859020549390910180548551600261010094831615949094026000190190911692909204601f81018490048402830184019095528482529386936001600160a01b03169285919083018282801561059b5780601f106105705761010080835404028352916020019161059b565b820191906000526020600020905b81548152906001019060200180831161057e57829003601f168201915b505050505092509250925092505b9193909250565b6000600383836040518083838082843780830192505050925050509081526020016040518091039020546000141561062f576040805162461bcd60e51b815260206004820152601d60248201527f46756e6374696f6e207369676e6174757265206e6f7420666f756e642e000000604482015290519081900360640190fd5b60016000848460405180838380828437604080519190930181900390206001600160e01b031916865250602085019590955250505001600020546001600160a01b03169392505050565b60606000606080600080600060028054905090506060816040519080825280602002602001820160405280156106c357816020015b60608152602001906001900390816106ae5790505b5090505b8184101561079d57600284815481106106dc57fe5b600091825260209182902001805460408051601f600260001961010060018716150201909416939093049283018590048502810185019091528181529283018282801561076a5780601f1061073f5761010080835404028352916020019161076a565b820191906000526020600020905b81548152906001019060200180831161074d57829003601f168201915b505050505094508451600101870196508481858151811061078757fe5b60200260200101819052508360010193506106c7565b866040519080825280601f01601f1916602001820160405280156107c8576020820181803883390190505b509550600093505b8184101561087b578084815181106107e457fe5b6020026020010151945060008090505b85518110156108435785818151811061080957fe5b602001015160f81c60f81b87858151811061082057fe5b60200101906001600160f81b031916908160001a905350600193840193016107f4565b50603b60f81b86848151811061085557fe5b60200101906001600160f81b031916908160001a905350600193840193909201916107d0565b50939550505050505090565b6002546040805182815260208084028201019091526060919082908280156108c357816020015b60608152602001906001900390816108ae5790505b5090506000806060806000805b878210156109e257600282815481106108e557fe5b600091825260209182902001805460408051601f60026000196101006001871615020190941693909304928301859004850281018501909152818152928301828280156109735780601f1061094857610100808354040283529160200191610973565b820191906000526020600020905b81548152906001019060200180831161095657829003601f168201915b505083516020808601919091206001600160e01b0319166000908152600190915260409020549396505050506001600160a01b038b8116911614156109d757825185019450828787815181106109c557fe5b60200260200101819052508560010195505b8160010191506108d0565b846040519080825280601f01601f191660200182016040528015610a0d576020820181803883390190505b509350600091505b8651821015610aa157868281518110610a2a57fe5b60200260200101519250825160001415610a4357610aa1565b60005b8351811015610a9557838181518110610a5b57fe5b602001015160f81c60f81b858381518110610a7257fe5b60200101906001600160f81b031916908160001a90535060019182019101610a46565b50816001019150610a15565b509198975050505050505050565b60006003838360405180838380828437919091019485525050604051928390036020019092205415159250505092915050565b610aea610daa565b610b3b576040805162461bcd60e51b815260206004820181905260248201527f4f776e61626c653a2063616c6c6572206973206e6f7420746865206f776e6572604482015290519081900360640190fd5b600080546040516001600160a01b03909116907f8be0079c531659141344cd1fd0a4f28419497f9722a3daafe3b4186f6b6457e0908390a3600080546001600160a01b0319169055565b600254604080518281526020808402820101909152606091908290828015610bb7578160200160208202803883390190505b5090506000806000805b85831015610d09576001600060028581548110610bda57fe5b906000526020600020016040518082805460018160011615610100020316600290048015610c3f5780601f10610c1d576101008083540402835291820191610c3f565b820191906000526020600020905b815481529060010190602001808311610c2b575b505060408051918290039091206001600160e01b031916845260208401949094525050016000908120546001600160a01b031691505b84811015610cbb57858181518110610c8957fe5b60200260200101516001600160a01b0316826001600160a01b03161415610cb35760019250610cbb565b600101610c75565b5081610cf95780858581518110610cce57fe5b60200260200101906001600160a01b031690816001600160a01b031681525050836001019350610cfe565b600091505b826001019250610bc1565b606084604051908082528060200260200182016040528015610d35578160200160208202803883390190505b509050600093505b84841015610d9057858481518110610d5157fe5b6020026020010151818581518110610d6557fe5b60200260200101906001600160a01b031690816001600160a01b031681525050836001019350610d3d565b965050505050505090565b6000546001600160a01b031690565b6000546001600160a01b0316331490565b60025490565b6060600080805b600254811015610f4b5760028181548110610ddf57fe5b906000526020600020016040518082805460018160011615610100020316600290048015610e445780601f10610e22576101008083540402835291820191610e44565b820191906000526020600020905b815481529060010190602001808311610e30575b505091505060405180910390206001600160e01b031916856001600160e01b0319161415610f435760028181548110610e7957fe5b600091825260208083206001600160e01b0319891684526001808352604094859020549390910180548551600261010094831615949094026000190190911692909204601f81018490048402830184019095528482529389936001600160a01b031692859190830182828015610f305780601f10610f0557610100808354040283529160200191610f30565b820191906000526020600020905b815481529060010190602001808311610f1357829003601f168201915b50505050509250935093509350506105a9565b600101610dc8565b506040805162461bcd60e51b8152602060048201526014602482015273199d5b98dd1a5bdb9259081b9bdd08199bdd5b9960621b604482015290519081900360640190fd5b610f98610daa565b610fe9576040805162461bcd60e51b815260206004820181905260248201527f4f776e61626c653a2063616c6c6572206973206e6f7420746865206f776e6572604482015290519081900360640190fd5b610ff281610ff5565b50565b6001600160a01b03811661103a5760405162461bcd60e51b81526004018080602001828103825260268152602001806110966026913960400191505060405180910390fd5b600080546040516001600160a01b03808516939216917f8be0079c531659141344cd1fd0a4f28419497f9722a3daafe3b4186f6b6457e091a3600080546001600160a01b0319166001600160a01b039290921691909117905556fe4f776e61626c653a206e6577206f776e657220697320746865207a65726f206164647265737366756e6374696f6e5369676e61747572657320696e64657820646f6573206e6f742065786973742ea265627a7a72305820b20475a175540d2536014813194fab2dec957a9dc7a4f43955cc16f47739f51464736f6c634300050a0032",
  "source": "pragma solidity ^0.5.0;\n\nimport \"./ERC1538Store.sol\";\n\n\ninterface ERC1538Query\n{\n\tfunction totalFunctions            (                           ) external view returns(uint256);\n\tfunction functionByIndex           (uint256          _index    ) external view returns(string memory, bytes4, address);\n\tfunction functionById              (bytes4           _id       ) external view returns(string memory, bytes4, address);\n\tfunction functionExists            (string  calldata _signature) external view returns(bool);\n\tfunction functionSignatures        (                           ) external view returns(string memory);\n\tfunction delegateFunctionSignatures(address          _delegate ) external view returns(string memory);\n\tfunction delegateAddress           (string  calldata _signature) external view returns(address);\n\tfunction delegateAddresses         (                           ) external view returns(address[] memory);\n}\n\ncontract ERC1538QueryDelegate is ERC1538Query, ERC1538Store\n{\n\tfunction totalFunctions()\n\texternal view returns(uint256)\n\t{\n\t\treturn m_funcSignatures.length;\n\t}\n\n\tfunction functionByIndex(uint256 _index)\n\texternal view returns(string memory signature, bytes4 id, address delegate)\n\t{\n\t\trequire(_index < m_funcSignatures.length, \"functionSignatures index does not exist.\");\n\t\tid = bytes4(keccak256(m_funcSignatures[_index]));\n\t\treturn (string(m_funcSignatures[_index]), id, m_delegates[id]);\n\t}\n\n\tfunction functionById(bytes4 _id)\n\texternal view returns(string memory signature, bytes4 id, address delegate)\n\t{\n\t\tfor (uint256 index = 0; index < m_funcSignatures.length; ++index)\n\t\t{\n\t\t\tif (_id == bytes4(keccak256(m_funcSignatures[index])))\n\t\t\t{\n\t\t\t\treturn (string(m_funcSignatures[index]), _id, m_delegates[_id]);\n\t\t\t}\n\t\t}\n\t\trevert(\"functionId not found\");\n\t}\n\n\tfunction functionExists(string calldata _signature)\n\texternal view returns(bool)\n\t{\n\t\treturn m_funcSignatureToIndex[bytes(_signature)] != 0;\n\t}\n\n\tfunction functionSignatures()\n\texternal view returns(string memory)\n\t{\n\t\tuint256 signaturesLength;\n\t\tbytes memory signatures;\n\t\tbytes memory signature;\n\t\tuint256 functionIndex;\n\t\tuint256 charPos;\n\t\tuint256 funcSignaturesNum = m_funcSignatures.length;\n\t\tbytes[] memory memoryFuncSignatures = new bytes[](funcSignaturesNum);\n\t\tfor (; functionIndex < funcSignaturesNum; ++functionIndex)\n\t\t{\n\t\t\tsignature = m_funcSignatures[functionIndex];\n\t\t\tsignaturesLength += signature.length + 1; // EDIT\n\t\t\tmemoryFuncSignatures[functionIndex] = signature;\n\t\t}\n\t\tsignatures = new bytes(signaturesLength);\n\t\tfunctionIndex = 0;\n\t\tfor (; functionIndex < funcSignaturesNum; ++functionIndex)\n\t\t{\n\t\t\tsignature = memoryFuncSignatures[functionIndex];\n\t\t\tfor (uint256 i = 0; i < signature.length; ++i)\n\t\t\t{\n\t\t\t\tsignatures[charPos] = signature[i];\n\t\t\t\tcharPos++;\n\t\t\t}\n\t\t\tsignatures[charPos] = 0x3B; // EDIT: extra ';'\n\t\t\tcharPos++; // EDIT\n\t\t}\n\t\treturn string(signatures);\n\t}\n\n\tfunction delegateFunctionSignatures(address _delegate)\n\texternal view returns(string memory)\n\t{\n\t\tuint256 funcSignaturesNum = m_funcSignatures.length;\n\t\tbytes[] memory delegateSignatures = new bytes[](funcSignaturesNum);\n\t\tuint256 delegateSignaturesPos;\n\t\tuint256 signaturesLength;\n\t\tbytes memory signatures;\n\t\tbytes memory signature;\n\t\tuint256 functionIndex;\n\t\tuint256 charPos;\n\t\tfor (; functionIndex < funcSignaturesNum; ++functionIndex)\n\t\t{\n\t\t\tsignature = m_funcSignatures[functionIndex];\n\t\t\tif (_delegate == m_delegates[bytes4(keccak256(signature))])\n\t\t\t{\n\t\t\t\tsignaturesLength += signature.length;\n\t\t\t\tdelegateSignatures[delegateSignaturesPos] = signature;\n\t\t\t\t++delegateSignaturesPos;\n\t\t\t}\n\t\t}\n\t\tsignatures = new bytes(signaturesLength);\n\t\tfunctionIndex = 0;\n\t\tfor (; functionIndex < delegateSignatures.length; ++functionIndex)\n\t\t{\n\t\t\tsignature = delegateSignatures[functionIndex];\n\t\t\tif (signature.length == 0)\n\t\t\t{\n\t\t\t\tbreak;\n\t\t\t}\n\t\t\tfor (uint256 i = 0; i < signature.length; ++i)\n\t\t\t{\n\t\t\t\tsignatures[charPos] = signature[i];\n\t\t\t\t++charPos;\n\t\t\t}\n\t\t}\n\t\treturn string(signatures);\n\t}\n\n\tfunction delegateAddress(string calldata _signature)\n\texternal view returns(address)\n\t{\n\t\trequire(m_funcSignatureToIndex[bytes(_signature)] != 0, \"Function signature not found.\");\n\t\treturn m_delegates[bytes4(keccak256(bytes(_signature)))];\n\t}\n\n\tfunction delegateAddresses()\n\texternal view returns(address[] memory)\n\t{\n\t\tuint256 funcSignaturesNum = m_funcSignatures.length;\n\t\taddress[] memory delegatesBucket = new address[](funcSignaturesNum);\n\t\tuint256 numDelegates;\n\t\tuint256 functionIndex;\n\t\tbool foundDelegate;\n\t\taddress delegate;\n\t\tfor (; functionIndex < funcSignaturesNum; ++functionIndex)\n\t\t{\n\t\t\tdelegate = m_delegates[bytes4(keccak256(m_funcSignatures[functionIndex]))];\n\t\t\tfor (uint256 i = 0; i < numDelegates; ++i)\n\t\t\t{\n\t\t\t\tif (delegate == delegatesBucket[i])\n\t\t\t\t{\n\t\t\t\t\tfoundDelegate = true;\n\t\t\t\t\tbreak;\n\t\t\t\t}\n\t\t\t}\n\t\t\tif (foundDelegate == false)\n\t\t\t{\n\t\t\t\tdelegatesBucket[numDelegates] = delegate;\n\t\t\t\t++numDelegates;\n\t\t\t}\n\t\t\telse\n\t\t\t{\n\t\t\t\tfoundDelegate = false;\n\t\t\t}\n\t\t}\n\t\taddress[] memory delegates_ = new address[](numDelegates);\n\t\tfunctionIndex = 0;\n\t\tfor (; functionIndex < numDelegates; ++functionIndex)\n\t\t{\n\t\t\tdelegates_[functionIndex] = delegatesBucket[functionIndex];\n\t\t}\n\t\treturn delegates_;\n\t}\n}\n",
  "sourcePath": "/home/amxx/Work/iExec/code/iexec-solidity/contracts/ERC1538/ERC1538Query.sol",
  "compiler": {
    "name": "solc",
    "version": "0.5.10+commit.5a6ea5b1.Emscripten.clang"
  },
  "schemaVersion": "3.0.11",
  "updatedAt": "2019-06-27T11:33:55.727Z",
  "devdoc": {
    "methods": {
      "isOwner()": {
        "details": "Returns true if the caller is the current owner."
      },
      "owner()": {
        "details": "Returns the address of the current owner."
      },
      "renounceOwnership()": {
        "details": "Leaves the contract without owner. It will not be possible to call `onlyOwner` functions anymore. Can only be called by the current owner.     * > Note: Renouncing ownership will leave the contract without an owner, thereby removing any functionality that is only available to the owner."
      },
      "transferOwnership(address)": {
        "details": "Transfers ownership of the contract to a new account (`newOwner`). Can only be called by the current owner."
      }
    }
  },
  "userdoc": {
    "methods": {}
  }
}