{
  "contractName": "ERC1538Delegate",
  "abi": [
    {
      "constant": false,
      "inputs": [],
      "name": "renounceOwnership",
      "outputs": [],
      "payable": false,
      "stateMutability": "nonpayable",
      "type": "function"
    },
    {
      "constant": true,
      "inputs": [],
      "name": "owner",
      "outputs": [
        {
          "name": "",
          "type": "address"
        }
      ],
      "payable": false,
      "stateMutability": "view",
      "type": "function"
    },
    {
      "constant": true,
      "inputs": [],
      "name": "isOwner",
      "outputs": [
        {
          "name": "",
          "type": "bool"
        }
      ],
      "payable": false,
      "stateMutability": "view",
      "type": "function"
    },
    {
      "constant": false,
      "inputs": [
        {
          "name": "newOwner",
          "type": "address"
        }
      ],
      "name": "transferOwnership",
      "outputs": [],
      "payable": false,
      "stateMutability": "nonpayable",
      "type": "function"
    },
    {
      "anonymous": false,
      "inputs": [
        {
          "indexed": true,
          "name": "previousOwner",
          "type": "address"
        },
        {
          "indexed": true,
          "name": "newOwner",
          "type": "address"
        }
      ],
      "name": "OwnershipTransferred",
      "type": "event"
    },
    {
      "anonymous": false,
      "inputs": [
        {
          "indexed": false,
          "name": "message",
          "type": "string"
        }
      ],
      "name": "CommitMessage",
      "type": "event"
    },
    {
      "anonymous": false,
      "inputs": [
        {
          "indexed": true,
          "name": "functionId",
          "type": "bytes4"
        },
        {
          "indexed": true,
          "name": "oldDelegate",
          "type": "address"
        },
        {
          "indexed": true,
          "name": "newDelegate",
          "type": "address"
        },
        {
          "indexed": false,
          "name": "functionSignature",
          "type": "string"
        }
      ],
      "name": "FunctionUpdate",
      "type": "event"
    },
    {
      "constant": false,
      "inputs": [
        {
          "name": "_delegate",
          "type": "address"
        },
        {
          "name": "_functionSignatures",
          "type": "string"
        },
        {
          "name": "_commitMessage",
          "type": "string"
        }
      ],
      "name": "updateContract",
      "outputs": [],
      "payable": false,
      "stateMutability": "nonpayable",
      "type": "function"
    }
  ],
  "bytecode": "0x60806040819052600080546001600160a01b03191633178082556001600160a01b0316917f8be0079c531659141344cd1fd0a4f28419497f9722a3daafe3b4186f6b6457e0908290a3610e4f806100576000396000f3fe608060405234801561001057600080fd5b50600436106100575760003560e01c8063614555671461005c578063715018a6146101305780638da5cb5b146101385780638f32d59b1461015c578063f2fde38b14610178575b600080fd5b61012e6004803603606081101561007257600080fd5b6001600160a01b03823516919081019060408101602082013564010000000081111561009d57600080fd5b8201836020820111156100af57600080fd5b803590602001918460018302840111640100000000831117156100d157600080fd5b9193909290916020810190356401000000008111156100ef57600080fd5b82018360208201111561010157600080fd5b8035906020019184600183028401116401000000008311171561012357600080fd5b50909250905061019e565b005b61012e610a29565b610140610acc565b604080516001600160a01b039092168252519081900360200190f35b610164610adc565b604080519115158252519081900360200190f35b61012e6004803603602081101561018e57600080fd5b50356001600160a01b0316610aed565b6101a6610adc565b6101f7576040805162461bcd60e51b815260206004820181905260248201527f4f776e61626c653a2063616c6c6572206973206e6f7420746865206f776e6572604482015290519081900360640190fd5b606084848080601f01602080910402602001604051908101604052809392919081815260200183838082843760009201829052509394508392508291508190506001600160a01b038a16156102855750883b806102855760405162461bcd60e51b8152600401808060200182810382526043815260200180610dd86043913960600191505060405180910390fd5b6020850193508451840191508392505b818310156109bd57825160001a603b8114156109b15784840380875260208088018290206001600160e01b0319811660009081526001909252604090912054919350906001600160a01b03908116908d166105f35760006003896040518082805190602001908083835b6020831061031e5780518252601f1990920191602091820191016102ff565b51815160001960209485036101000a01908116901991909116179052920194855250604051938490030190922054925050508061038c5760405162461bcd60e51b8152600401808060200182810382526022815260200180610db66022913960400191505060405180910390fd5b600254600019918201910180821461047957600281815481106103ab57fe5b90600052602060002001600283815481106103c257fe5b9060005260206000200190805460018160011615610100020316600290046103eb929190610bf2565b50816001016003600283815481106103ff57fe5b9060005260206000200160405180828054600181600116156101000203166002900480156104645780601f10610442576101008083540402835291820191610464565b820191906000526020600020905b815481529060010190602001808311610450575b50509283525050604051908190036020019020555b600280549061048c906000198301610c77565b5060038a6040518082805190602001908083835b602083106104bf5780518252601f1990920191602091820191016104a0565b6001836020036101000a03801982511681845116808217855250505050505090500191505090815260200160405180910390206000905560016000856001600160e01b0319166001600160e01b031916815260200190815260200160002060006101000a8154906001600160a01b03021916905560006001600160a01b0316836001600160a01b0316856001600160e01b0319167f3234040ce3bd4564874e44810f198910133a1b24c4e84aac87edbf6b458f53538d6040518080602001828103825283818151815260200191508051906020019080838360005b838110156105b257818101518382015260200161059a565b50505050905090810190601f1680156105df5780820380516001836020036101000a031916815260200191505b509250505060405180910390a4505061099f565b6003886040518082805190602001908083835b602083106106255780518252601f199092019160209182019101610606565b51815160209384036101000a60001901801990921691161790529201948552506040519384900301909220541515915061086e9050576001600160a01b038116156106b7576040805162461bcd60e51b815260206004820152601760248201527f5b455243313533385d2066756e63496420636c6173682e000000000000000000604482015290519081900360640190fd5b8c60016000846001600160e01b0319166001600160e01b031916815260200190815260200160002060006101000a8154816001600160a01b0302191690836001600160a01b031602179055506002889080600181540180825580915050906001820390600052602060002001600090919290919091509080519060200190610740929190610ca0565b505060025460405189516003918b91819060208401908083835b602083106107795780518252601f19909201916020918201910161075a565b6001836020036101000a0380198251168184511680821785525050505050509050019150509081526020016040518091039020819055508c6001600160a01b031660006001600160a01b0316836001600160e01b0319167f3234040ce3bd4564874e44810f198910133a1b24c4e84aac87edbf6b458f53538b6040518080602001828103825283818151815260200191508051906020019080838360005b8381101561082f578181015183820152602001610817565b50505050905090810190601f16801561085c5780820380516001836020036101000a031916815260200191505b509250505060405180910390a461099f565b6001600160e01b031982166000908152600160205260409020546001600160a01b038e811691161461099f578c60016000846001600160e01b0319166001600160e01b031916815260200190815260200160002060006101000a8154816001600160a01b0302191690836001600160a01b031602179055508c6001600160a01b0316816001600160a01b0316836001600160e01b0319167f3234040ce3bd4564874e44810f198910133a1b24c4e84aac87edbf6b458f53538b6040518080602001828103825283818151815260200191508051906020019080838360005b8381101561096457818101518382015260200161094c565b50505050905090810190601f1680156109915780820380516001836020036101000a031916815260200191505b509250505060405180910390a45b50509481016001908101959301935083925b50826001019250610295565b7faa1c0a0a78cec2470f9652e5d29540752e7a64d70f926933cebf13afaeda45de878760405180806020018281038252848482818152602001925080828437600083820152604051601f909101601f19169092018290039550909350505050a150505050505050505050565b610a31610adc565b610a82576040805162461bcd60e51b815260206004820181905260248201527f4f776e61626c653a2063616c6c6572206973206e6f7420746865206f776e6572604482015290519081900360640190fd5b600080546040516001600160a01b03909116907f8be0079c531659141344cd1fd0a4f28419497f9722a3daafe3b4186f6b6457e0908390a3600080546001600160a01b0319169055565b6000546001600160a01b03165b90565b6000546001600160a01b0316331490565b610af5610adc565b610b46576040805162461bcd60e51b815260206004820181905260248201527f4f776e61626c653a2063616c6c6572206973206e6f7420746865206f776e6572604482015290519081900360640190fd5b610b4f81610b52565b50565b6001600160a01b038116610b975760405162461bcd60e51b8152600401808060200182810382526026815260200180610d906026913960400191505060405180910390fd5b600080546040516001600160a01b03808516939216917f8be0079c531659141344cd1fd0a4f28419497f9722a3daafe3b4186f6b6457e091a3600080546001600160a01b0319166001600160a01b0392909216919091179055565b828054600181600116156101000203166002900490600052602060002090601f016020900481019282601f10610c2b5780548555610c67565b82800160010185558215610c6757600052602060002091601f016020900482015b82811115610c67578254825591600101919060010190610c4c565b50610c73929150610d0e565b5090565b815481835581811115610c9b57600083815260209020610c9b918101908301610d28565b505050565b828054600181600116156101000203166002900490600052602060002090601f016020900481019282601f10610ce157805160ff1916838001178555610c67565b82800160010185558215610c67579182015b82811115610c67578251825591602001919060010190610cf3565b610ad991905b80821115610c735760008155600101610d14565b610ad991905b80821115610c73576000610d428282610d4b565b50600101610d2e565b50805460018160011615610100020316600290046000825580601f10610d715750610b4f565b601f016020900490600052602060002090810190610b4f9190610d0e56fe4f776e61626c653a206e6577206f776e657220697320746865207a65726f20616464726573735b455243313533385d2066756e6374696f6e20646f6573206e6f742065786973742e5b455243313533385d205f64656c65676174652061646472657373206973206e6f74206120636f6e747261637420616e64206973206e6f742061646472657373283029a265627a7a72305820c9d5da99d4941c925419350a4d3df077b589fe026043db913c97f325fca671cc64736f6c634300050a0032",
  "source": "pragma solidity ^0.5.10;\n\nimport \"./ERC1538Store.sol\";\n\n\ninterface ERC1538\n{\n\tevent CommitMessage(string message);\n\tevent FunctionUpdate(bytes4 indexed functionId, address indexed oldDelegate, address indexed newDelegate, string functionSignature);\n\tfunction updateContract(address _delegate, string calldata _functionSignatures, string calldata commitMessage) external;\n}\n\ncontract ERC1538Delegate is ERC1538, ERC1538Store\n{\n\tfunction updateContract(\n\t\taddress         _delegate,\n\t\tstring calldata _functionSignatures,\n\t\tstring calldata _commitMessage\n\t)\n\texternal onlyOwner\n\t{\n\t\tbytes memory signatures = bytes(_functionSignatures);\n\t\tuint256 start;\n\t\tuint256 pos;\n\t\tuint256 end;\n\t\tuint256 size;\n\n\t\tif (_delegate != address(0))\n\t\t{\n\t\t\tassembly\n\t\t\t{\n\t\t\t\tsize := extcodesize(_delegate)\n\t\t\t}\n\t\t\trequire(size > 0, \"[ERC1538] _delegate address is not a contract and is not address(0)\");\n\t\t}\n\t\tassembly\n\t\t{\n\t\t\tstart := add(signatures, 32)\n\t\t\tend   := add(start, mload(signatures))\n\t\t}\n\t\tfor (pos = start; pos < end; ++pos)\n\t\t{\n\t\t\tuint256 char;\n\t\t\tassembly\n\t\t\t{\n\t\t\t\tchar := byte(0, mload(pos))\n\t\t\t}\n\t\t\tif (char == 0x3B) // 0x3B = ';'\n\t\t\t{\n\t\t\t\tsize = (pos - start);\n\t\t\t\tassembly\n\t\t\t\t{\n\t\t\t\t\tmstore(signatures, size)\n\t\t\t\t}\n\t\t\t\tbytes4  funcId      = bytes4(keccak256(signatures));\n\t\t\t\taddress oldDelegate = m_delegates[funcId];\n\t\t\t\tif (_delegate == address(0))\n\t\t\t\t{\n\t\t\t\t\tuint256 index = m_funcSignatureToIndex[signatures];\n\t\t\t\t\trequire(index != 0, \"[ERC1538] function does not exist.\");\n\t\t\t\t\tindex--;\n\t\t\t\t\tuint256 lastIndex = m_funcSignatures.length - 1;\n\t\t\t\t\tif (index != lastIndex)\n\t\t\t\t\t{\n\t\t\t\t\t\tm_funcSignatures[index] = m_funcSignatures[lastIndex];\n\t\t\t\t\t\tm_funcSignatureToIndex[m_funcSignatures[lastIndex]] = index + 1;\n\t\t\t\t\t}\n\t\t\t\t\tm_funcSignatures.length--;\n\t\t\t\t\tdelete m_funcSignatureToIndex[signatures];\n\t\t\t\t\tdelete m_delegates[funcId];\n\t\t\t\t\temit FunctionUpdate(funcId, oldDelegate, address(0), string(signatures));\n\t\t\t\t}\n\t\t\t\telse if (m_funcSignatureToIndex[signatures] == 0)\n\t\t\t\t{\n\t\t\t\t\trequire(oldDelegate == address(0), \"[ERC1538] funcId clash.\");\n\t\t\t\t\tm_delegates[funcId] = _delegate;\n\t\t\t\t\tm_funcSignatures.push(signatures);\n\t\t\t\t\tm_funcSignatureToIndex[signatures] = m_funcSignatures.length;\n\t\t\t\t\temit FunctionUpdate(funcId, address(0), _delegate, string(signatures));\n\t\t\t\t}\n\t\t\t\telse if (m_delegates[funcId] != _delegate)\n\t\t\t\t{\n\t\t\t\t\tm_delegates[funcId] = _delegate;\n\t\t\t\t\temit FunctionUpdate(funcId, oldDelegate, _delegate, string(signatures));\n\t\t\t\t}\n\t\t\t\tassembly\n\t\t\t\t{\n\t\t\t\t\tsignatures := add(signatures, add(size, 1))\n\t\t\t\t}\n\t\t\t\tstart = ++pos;\n\t\t\t}\n\t\t}\n\t\temit CommitMessage(_commitMessage);\n\t}\n}\n",
  "sourcePath": "/home/amxx/Work/iExec/code/iexec-solidity/contracts/ERC1538/ERC1538.sol",
  "compiler": {
    "name": "solc",
    "version": "0.5.10+commit.5a6ea5b1.Emscripten.clang"
  },
  "schemaVersion": "3.0.11",
  "updatedAt": "2019-06-27T11:33:55.725Z",
  "devdoc": {
    "methods": {
      "isOwner()": {
        "details": "Returns true if the caller is the current owner."
      },
      "owner()": {
        "details": "Returns the address of the current owner."
      },
      "renounceOwnership()": {
        "details": "Leaves the contract without owner. It will not be possible to call `onlyOwner` functions anymore. Can only be called by the current owner.     * > Note: Renouncing ownership will leave the contract without an owner, thereby removing any functionality that is only available to the owner."
      },
      "transferOwnership(address)": {
        "details": "Transfers ownership of the contract to a new account (`newOwner`). Can only be called by the current owner."
      }
    }
  },
  "userdoc": {
    "methods": {}
  }
}