{
  "contractName": "ERC721Metadata",
  "abi": [
    {
      "inputs": [
        {
          "internalType": "string",
          "name": "name",
          "type": "string"
        },
        {
          "internalType": "string",
          "name": "symbol",
          "type": "string"
        }
      ],
      "stateMutability": "nonpayable",
      "type": "constructor"
    },
    {
      "anonymous": false,
      "inputs": [
        {
          "indexed": true,
          "internalType": "address",
          "name": "owner",
          "type": "address"
        },
        {
          "indexed": true,
          "internalType": "address",
          "name": "approved",
          "type": "address"
        },
        {
          "indexed": true,
          "internalType": "uint256",
          "name": "tokenId",
          "type": "uint256"
        }
      ],
      "name": "Approval",
      "type": "event"
    },
    {
      "anonymous": false,
      "inputs": [
        {
          "indexed": true,
          "internalType": "address",
          "name": "owner",
          "type": "address"
        },
        {
          "indexed": true,
          "internalType": "address",
          "name": "operator",
          "type": "address"
        },
        {
          "indexed": false,
          "internalType": "bool",
          "name": "approved",
          "type": "bool"
        }
      ],
      "name": "ApprovalForAll",
      "type": "event"
    },
    {
      "anonymous": false,
      "inputs": [
        {
          "indexed": true,
          "internalType": "address",
          "name": "from",
          "type": "address"
        },
        {
          "indexed": true,
          "internalType": "address",
          "name": "to",
          "type": "address"
        },
        {
          "indexed": true,
          "internalType": "uint256",
          "name": "tokenId",
          "type": "uint256"
        }
      ],
      "name": "Transfer",
      "type": "event"
    },
    {
      "inputs": [
        {
          "internalType": "address",
          "name": "to",
          "type": "address"
        },
        {
          "internalType": "uint256",
          "name": "tokenId",
          "type": "uint256"
        }
      ],
      "name": "approve",
      "outputs": [],
      "stateMutability": "nonpayable",
      "type": "function"
    },
    {
      "inputs": [
        {
          "internalType": "address",
          "name": "owner",
          "type": "address"
        }
      ],
      "name": "balanceOf",
      "outputs": [
        {
          "internalType": "uint256",
          "name": "",
          "type": "uint256"
        }
      ],
      "stateMutability": "view",
      "type": "function"
    },
    {
      "inputs": [
        {
          "internalType": "uint256",
          "name": "tokenId",
          "type": "uint256"
        }
      ],
      "name": "getApproved",
      "outputs": [
        {
          "internalType": "address",
          "name": "",
          "type": "address"
        }
      ],
      "stateMutability": "view",
      "type": "function"
    },
    {
      "inputs": [
        {
          "internalType": "address",
          "name": "owner",
          "type": "address"
        },
        {
          "internalType": "address",
          "name": "operator",
          "type": "address"
        }
      ],
      "name": "isApprovedForAll",
      "outputs": [
        {
          "internalType": "bool",
          "name": "",
          "type": "bool"
        }
      ],
      "stateMutability": "view",
      "type": "function"
    },
    {
      "inputs": [
        {
          "internalType": "uint256",
          "name": "tokenId",
          "type": "uint256"
        }
      ],
      "name": "ownerOf",
      "outputs": [
        {
          "internalType": "address",
          "name": "",
          "type": "address"
        }
      ],
      "stateMutability": "view",
      "type": "function"
    },
    {
      "inputs": [
        {
          "internalType": "address",
          "name": "from",
          "type": "address"
        },
        {
          "internalType": "address",
          "name": "to",
          "type": "address"
        },
        {
          "internalType": "uint256",
          "name": "tokenId",
          "type": "uint256"
        }
      ],
      "name": "safeTransferFrom",
      "outputs": [],
      "stateMutability": "nonpayable",
      "type": "function"
    },
    {
      "inputs": [
        {
          "internalType": "address",
          "name": "from",
          "type": "address"
        },
        {
          "internalType": "address",
          "name": "to",
          "type": "address"
        },
        {
          "internalType": "uint256",
          "name": "tokenId",
          "type": "uint256"
        },
        {
          "internalType": "bytes",
          "name": "_data",
          "type": "bytes"
        }
      ],
      "name": "safeTransferFrom",
      "outputs": [],
      "stateMutability": "nonpayable",
      "type": "function"
    },
    {
      "inputs": [
        {
          "internalType": "address",
          "name": "operator",
          "type": "address"
        },
        {
          "internalType": "bool",
          "name": "approved",
          "type": "bool"
        }
      ],
      "name": "setApprovalForAll",
      "outputs": [],
      "stateMutability": "nonpayable",
      "type": "function"
    },
    {
      "inputs": [
        {
          "internalType": "bytes4",
          "name": "interfaceId",
          "type": "bytes4"
        }
      ],
      "name": "supportsInterface",
      "outputs": [
        {
          "internalType": "bool",
          "name": "",
          "type": "bool"
        }
      ],
      "stateMutability": "view",
      "type": "function"
    },
    {
      "inputs": [
        {
          "internalType": "address",
          "name": "from",
          "type": "address"
        },
        {
          "internalType": "address",
          "name": "to",
          "type": "address"
        },
        {
          "internalType": "uint256",
          "name": "tokenId",
          "type": "uint256"
        }
      ],
      "name": "transferFrom",
      "outputs": [],
      "stateMutability": "nonpayable",
      "type": "function"
    },
    {
      "inputs": [],
      "name": "name",
      "outputs": [
        {
          "internalType": "string",
          "name": "",
          "type": "string"
        }
      ],
      "stateMutability": "view",
      "type": "function"
    },
    {
      "inputs": [],
      "name": "symbol",
      "outputs": [
        {
          "internalType": "string",
          "name": "",
          "type": "string"
        }
      ],
      "stateMutability": "view",
      "type": "function"
    },
    {
      "inputs": [
        {
          "internalType": "uint256",
          "name": "tokenId",
          "type": "uint256"
        }
      ],
      "name": "tokenURI",
      "outputs": [
        {
          "internalType": "string",
          "name": "",
          "type": "string"
        }
      ],
      "stateMutability": "view",
      "type": "function"
    },
    {
      "inputs": [],
      "name": "baseURI",
      "outputs": [
        {
          "internalType": "string",
          "name": "",
          "type": "string"
        }
      ],
      "stateMutability": "view",
      "type": "function"
    }
  ],
  "bytecode": "0x60806040523480156200001157600080fd5b50604051620017eb380380620017eb833981810160405260408110156200003757600080fd5b81019080805160405193929190846401000000008211156200005857600080fd5b9083019060208201858111156200006e57600080fd5b82516401000000008111828201881017156200008957600080fd5b82525081516020918201929091019080838360005b83811015620000b85781810151838201526020016200009e565b50505050905090810190601f168015620000e65780820380516001836020036101000a031916815260200191505b50604052602001805160405193929190846401000000008211156200010a57600080fd5b9083019060208201858111156200012057600080fd5b82516401000000008111828201881017156200013b57600080fd5b82525081516020918201929091019080838360005b838110156200016a57818101518382015260200162000150565b50505050905090810190601f168015620001985780820380516001836020036101000a031916815260200191505b5060405250620001bc91506301ffc9a760e01b90506001600160e01b036200022616565b620001d76380ac58cd60e01b6001600160e01b036200022616565b8151620001ec906005906020850190620002ab565b50805162000202906006906020840190620002ab565b506200021e635b5e139f60e01b6001600160e01b036200022616565b505062000350565b6001600160e01b0319808216141562000286576040805162461bcd60e51b815260206004820152601c60248201527f4552433136353a20696e76616c696420696e7465726661636520696400000000604482015290519081900360640190fd5b6001600160e01b0319166000908152602081905260409020805460ff19166001179055565b828054600181600116156101000203166002900490600052602060002090601f016020900481019282601f10620002ee57805160ff19168380011785556200031e565b828001600101855582156200031e579182015b828111156200031e57825182559160200191906001019062000301565b506200032c92915062000330565b5090565b6200034d91905b808211156200032c576000815560010162000337565b90565b61148b80620003606000396000f3fe608060405234801561001057600080fd5b50600436106100ea5760003560e01c80636c0360eb1161008c578063a22cb46511610066578063a22cb465146102df578063b88d4fde1461030d578063c87b56dd146103d3578063e985e9c5146103f0576100ea565b80636c0360eb1461029757806370a082311461029f57806395d89b41146102d7576100ea565b8063095ea7b3116100c8578063095ea7b3146101e057806323b872dd1461020e57806342842e0e146102445780636352211e1461027a576100ea565b806301ffc9a7146100ef57806306fdde031461012a578063081812fc146101a7575b600080fd5b6101166004803603602081101561010557600080fd5b50356001600160e01b03191661041e565b604080519115158252519081900360200190f35b610132610441565b6040805160208082528351818301528351919283929083019185019080838360005b8381101561016c578181015183820152602001610154565b50505050905090810190601f1680156101995780820380516001836020036101000a031916815260200191505b509250505060405180910390f35b6101c4600480360360208110156101bd57600080fd5b50356104d8565b604080516001600160a01b039092168252519081900360200190f35b61020c600480360360408110156101f657600080fd5b506001600160a01b03813516906020013561053a565b005b61020c6004803603606081101561022457600080fd5b506001600160a01b03813581169160208101359091169060400135610615565b61020c6004803603606081101561025a57600080fd5b506001600160a01b0381358116916020810135909116906040013561066c565b6101c46004803603602081101561029057600080fd5b5035610687565b6101326106e1565b6102c5600480360360208110156102b557600080fd5b50356001600160a01b0316610742565b60408051918252519081900360200190f35b6101326107aa565b61020c600480360360408110156102f557600080fd5b506001600160a01b038135169060200135151561080b565b61020c6004803603608081101561032357600080fd5b6001600160a01b0382358116926020810135909116916040820135919081019060808101606082013564010000000081111561035e57600080fd5b82018360208201111561037057600080fd5b8035906020019184600183028401116401000000008311171561039257600080fd5b91908080601f016020809104026020016040519081016040528093929190818152602001838380828437600092019190915250929550610910945050505050565b610132600480360360208110156103e957600080fd5b503561096e565b6101166004803603604081101561040657600080fd5b506001600160a01b0381358116916020013516610b3a565b6001600160e01b0319811660009081526020819052604090205460ff165b919050565b60058054604080516020601f60026000196101006001881615020190951694909404938401819004810282018101909252828152606093909290918301828280156104cd5780601f106104a2576101008083540402835291602001916104cd565b820191906000526020600020905b8154815290600101906020018083116104b057829003601f168201915b505050505090505b90565b60006104e382610b68565b61051e5760405162461bcd60e51b815260040180806020018281038252602c815260200180611380602c913960400191505060405180910390fd5b506000908152600260205260409020546001600160a01b031690565b600061054582610687565b9050806001600160a01b0316836001600160a01b031614156105985760405162461bcd60e51b81526004018080602001828103825260218152602001806114046021913960400191505060405180910390fd5b806001600160a01b03166105aa610b85565b6001600160a01b031614806105cb57506105cb816105c6610b85565b610b3a565b6106065760405162461bcd60e51b81526004018080602001828103825260388152602001806112f56038913960400191505060405180910390fd5b6106108383610b89565b505050565b610626610620610b85565b82610bf7565b6106615760405162461bcd60e51b81526004018080602001828103825260318152602001806114256031913960400191505060405180910390fd5b610610838383610c9b565b61061083838360405180602001604052806000815250610910565b6000818152600160205260408120546001600160a01b0316806106db5760405162461bcd60e51b81526004018080602001828103825260298152602001806113576029913960400191505060405180910390fd5b92915050565b60078054604080516020601f60026000196101006001881615020190951694909404938401819004810282018101909252828152606093909290918301828280156104cd5780601f106104a2576101008083540402835291602001916104cd565b60006001600160a01b0382166107895760405162461bcd60e51b815260040180806020018281038252602a81526020018061132d602a913960400191505060405180910390fd5b6001600160a01b03821660009081526003602052604090206106db90610dec565b60068054604080516020601f60026000196101006001881615020190951694909404938401819004810282018101909252828152606093909290918301828280156104cd5780601f106104a2576101008083540402835291602001916104cd565b610813610b85565b6001600160a01b0316826001600160a01b03161415610879576040805162461bcd60e51b815260206004820152601960248201527f4552433732313a20617070726f766520746f2063616c6c657200000000000000604482015290519081900360640190fd5b8060046000610886610b85565b6001600160a01b03908116825260208083019390935260409182016000908120918716808252919093529120805460ff1916921515929092179091556108ca610b85565b60408051841515815290516001600160a01b0392909216917f17307eab39ab6107e8899845ad3d59bd9653f200f220920489ca2b5937696c319181900360200190a35050565b61092161091b610b85565b83610bf7565b61095c5760405162461bcd60e51b81526004018080602001828103825260318152602001806114256031913960400191505060405180910390fd5b61096884848484610df0565b50505050565b606061097982610b68565b6109b45760405162461bcd60e51b815260040180806020018281038252602f8152602001806113d5602f913960400191505060405180910390fd5b60008281526008602090815260409182902080548351601f6002600019610100600186161502019093169290920491820184900484028101840190945280845260609392830182828015610a495780601f10610a1e57610100808354040283529160200191610a49565b820191906000526020600020905b815481529060010190602001808311610a2c57829003601f168201915b50505050509050805160001415610a7057505060408051602081019091526000815261043c565b6007816040516020018083805460018160011615610100020316600290048015610ad15780601f10610aaf576101008083540402835291820191610ad1565b820191906000526020600020905b815481529060010190602001808311610abd575b5050825160208401908083835b60208310610afd5780518252601f199092019160209182019101610ade565b6001836020036101000a0380198251168184511680821785525050505050509050019250505060405160208183030381529060405291505061043c565b6001600160a01b03918216600090815260046020908152604080832093909416825291909152205460ff1690565b6000908152600160205260409020546001600160a01b0316151590565b3390565b600081815260026020526040902080546001600160a01b0319166001600160a01b0384169081179091558190610bbe82610687565b6001600160a01b03167f8c5be1e5ebec7d5bd14f71427d1e84f3dd0314c0f7b2291e5b200ac8c7c3b92560405160405180910390a45050565b6000610c0282610b68565b610c3d5760405162461bcd60e51b815260040180806020018281038252602c8152602001806112c9602c913960400191505060405180910390fd5b6000610c4883610687565b9050806001600160a01b0316846001600160a01b03161480610c835750836001600160a01b0316610c78846104d8565b6001600160a01b0316145b80610c935750610c938185610b3a565b949350505050565b826001600160a01b0316610cae82610687565b6001600160a01b031614610cf35760405162461bcd60e51b81526004018080602001828103825260298152602001806113ac6029913960400191505060405180910390fd5b6001600160a01b038216610d385760405162461bcd60e51b81526004018080602001828103825260248152602001806112a56024913960400191505060405180910390fd5b610d43838383610e42565b610d4e600082610b89565b6001600160a01b0383166000908152600360205260409020610d6f90610e99565b6001600160a01b0382166000908152600360205260409020610d9090610eb0565b60008181526001602052604080822080546001600160a01b0319166001600160a01b0386811691821790925591518493918716917fddf252ad1be2c89b69c2b068fc378daa952ba7f163c4a11628f55a4df523b3ef91a4505050565b5490565b610dfb848484610c9b565b610e0784848484610eb9565b6109685760405162461bcd60e51b81526004018080602001828103825260328152602001806112736032913960400191505060405180910390fd5b610e4d838383610610565b6001600160a01b0382166106105760008181526008602052604090205460026000196101006001841615020190911604156106105760008181526008602052604081206106109161120d565b8054610eac90600163ffffffff6110f416565b9055565b80546001019055565b6000610ecd846001600160a01b031661113d565b610ed957506001610c93565b600060606001600160a01b038616630a85bd0160e11b610ef7610b85565b89888860405160240180856001600160a01b03166001600160a01b03168152602001846001600160a01b03166001600160a01b0316815260200183815260200180602001828103825283818151815260200191508051906020019080838360005b83811015610f70578181015183820152602001610f58565b50505050905090810190601f168015610f9d5780820380516001836020036101000a031916815260200191505b5060408051601f198184030181529181526020820180516001600160e01b03166001600160e01b0319909a16999099178952518151919890975087965094509250829150849050835b602083106110055780518252601f199092019160209182019101610fe6565b6001836020036101000a0380198251168184511680821785525050505050509050019150506000604051808303816000865af19150503d8060008114611067576040519150601f19603f3d011682016040523d82523d6000602084013e61106c565b606091505b5091509150816110bd578051156110865780518082602001fd5b60405162461bcd60e51b81526004018080602001828103825260328152602001806112736032913960400191505060405180910390fd5b60008180602001905160208110156110d457600080fd5b50516001600160e01b031916630a85bd0160e11b149350610c9392505050565b600061113683836040518060400160405280601e81526020017f536166654d6174683a207375627472616374696f6e206f766572666c6f770000815250611176565b9392505050565b6000813f7fc5d2460186f7233c927e7db2dcc703c0e500b653ca82273b7bfad8045d85a470818114801590610c93575050151592915050565b600081848411156112055760405162461bcd60e51b81526004018080602001828103825283818151815260200191508051906020019080838360005b838110156111ca5781810151838201526020016111b2565b50505050905090810190601f1680156111f75780820380516001836020036101000a031916815260200191505b509250505060405180910390fd5b505050900390565b50805460018160011615610100020316600290046000825580601f106112335750611251565b601f0160209004906000526020600020908101906112519190611254565b50565b6104d591905b8082111561126e576000815560010161125a565b509056fe4552433732313a207472616e7366657220746f206e6f6e20455243373231526563656976657220696d706c656d656e7465724552433732313a207472616e7366657220746f20746865207a65726f20616464726573734552433732313a206f70657261746f7220717565727920666f72206e6f6e6578697374656e7420746f6b656e4552433732313a20617070726f76652063616c6c6572206973206e6f74206f776e6572206e6f7220617070726f76656420666f7220616c6c4552433732313a2062616c616e636520717565727920666f7220746865207a65726f20616464726573734552433732313a206f776e657220717565727920666f72206e6f6e6578697374656e7420746f6b656e4552433732313a20617070726f76656420717565727920666f72206e6f6e6578697374656e7420746f6b656e4552433732313a207472616e73666572206f6620746f6b656e2074686174206973206e6f74206f776e4552433732314d657461646174613a2055524920717565727920666f72206e6f6e6578697374656e7420746f6b656e4552433732313a20617070726f76616c20746f2063757272656e74206f776e65724552433732313a207472616e736665722063616c6c6572206973206e6f74206f776e6572206e6f7220617070726f766564a26469706673582212200bfc609e20c6ce64604c1c01fbd53b7fad72650d99718170fcb12c2479548d3064736f6c63430006030033",
  "source": "pragma solidity ^0.6.0;\n\nimport \"../../GSN/Context.sol\";\nimport \"./ERC721.sol\";\nimport \"./IERC721Metadata.sol\";\nimport \"../../introspection/ERC165.sol\";\n\ncontract ERC721Metadata is Context, ERC165, ERC721, IERC721Metadata {\n    // Token name\n    string private _name;\n\n    // Token symbol\n    string private _symbol;\n\n    // Base URI\n    string private _baseURI;\n\n    // Optional mapping for token URIs\n    mapping(uint256 => string) private _tokenURIs;\n\n    /*\n     *     bytes4(keccak256('name()')) == 0x06fdde03\n     *     bytes4(keccak256('symbol()')) == 0x95d89b41\n     *     bytes4(keccak256('tokenURI(uint256)')) == 0xc87b56dd\n     *\n     *     => 0x06fdde03 ^ 0x95d89b41 ^ 0xc87b56dd == 0x5b5e139f\n     */\n    bytes4 private constant _INTERFACE_ID_ERC721_METADATA = 0x5b5e139f;\n\n    /**\n     * @dev Constructor function\n     */\n    constructor (string memory name, string memory symbol) public {\n        _name = name;\n        _symbol = symbol;\n\n        // register the supported interfaces to conform to ERC721 via ERC165\n        _registerInterface(_INTERFACE_ID_ERC721_METADATA);\n    }\n\n    /**\n     * @dev Gets the token name.\n     * @return string representing the token name\n     */\n    function name() external view override returns (string memory) {\n        return _name;\n    }\n\n    /**\n     * @dev Gets the token symbol.\n     * @return string representing the token symbol\n     */\n    function symbol() external view override returns (string memory) {\n        return _symbol;\n    }\n\n    /**\n     * @dev Returns the URI for a given token ID. May return an empty string.\n     *\n     * If the token's URI is non-empty and a base URI was set (via\n     * {_setBaseURI}), it will be added to the token ID's URI as a prefix.\n     *\n     * Reverts if the token ID does not exist.\n     */\n    function tokenURI(uint256 tokenId) external view override returns (string memory) {\n        require(_exists(tokenId), \"ERC721Metadata: URI query for nonexistent token\");\n\n        string memory _tokenURI = _tokenURIs[tokenId];\n\n        // Even if there is a base URI, it is only appended to non-empty token-specific URIs\n        if (bytes(_tokenURI).length == 0) {\n            return \"\";\n        } else {\n            // abi.encodePacked is being used to concatenate strings\n            return string(abi.encodePacked(_baseURI, _tokenURI));\n        }\n    }\n\n    /**\n     * @dev Internal function to set the token URI for a given token.\n     *\n     * Reverts if the token ID does not exist.\n     *\n     * TIP: if all token IDs share a prefix (e.g. if your URIs look like\n     * `http://api.myproject.com/token/<id>`), use {_setBaseURI} to store\n     * it and save gas.\n     */\n    function _setTokenURI(uint256 tokenId, string memory _tokenURI) internal virtual {\n        require(_exists(tokenId), \"ERC721Metadata: URI set of nonexistent token\");\n        _tokenURIs[tokenId] = _tokenURI;\n    }\n\n    /**\n     * @dev Internal function to set the base URI for all token IDs. It is\n     * automatically added as a prefix to the value returned in {tokenURI}.\n     *\n     * _Available since v2.5.0._\n     */\n    function _setBaseURI(string memory baseURI) internal virtual {\n        _baseURI = baseURI;\n    }\n\n    /**\n    * @dev Returns the base URI set via {_setBaseURI}. This will be\n    * automatically added as a preffix in {tokenURI} to each token's URI, when\n    * they are non-empty.\n    *\n    * _Available since v2.5.0._\n    */\n    function baseURI() external view returns (string memory) {\n        return _baseURI;\n    }\n\n\n    function _beforeTokenTransfer(address from, address to, uint256 tokenId) internal virtual override {\n        super._beforeTokenTransfer(from, to, tokenId);\n\n        if (to == address(0)) { // When burning tokens\n            // Clear metadata (if any)\n            if (bytes(_tokenURIs[tokenId]).length != 0) {\n                delete _tokenURIs[tokenId];\n            }\n        }\n    }\n}\n",
  "sourcePath": "@openzeppelin/contracts/token/ERC721/ERC721Metadata.sol",
  "compiler": {
    "name": "solc",
    "version": "0.6.3+commit.8dda9521.Emscripten.clang"
  },
  "schemaVersion": "3.0.23",
  "updatedAt": "2020-03-09T19:01:54.411Z",
  "devdoc": {
    "methods": {
      "approve(address,uint256)": {
        "details": "Approves another address to transfer the given token ID The zero address indicates there is no approved address. There can only be one approved address per token at a given time. Can only be called by the token owner or an approved operator.",
        "params": {
          "to": "address to be approved for the given token ID",
          "tokenId": "uint256 ID of the token to be approved"
        }
      },
      "balanceOf(address)": {
        "details": "Gets the balance of the specified address.",
        "params": {
          "owner": "address to query the balance of"
        },
        "returns": {
          "_0": "uint256 representing the amount owned by the passed address"
        }
      },
      "baseURI()": {
        "details": "Returns the base URI set via {_setBaseURI}. This will be automatically added as a preffix in {tokenURI} to each token's URI, when they are non-empty.    * _Available since v2.5.0._"
      },
      "constructor": {
        "details": "Constructor function"
      },
      "getApproved(uint256)": {
        "details": "Gets the approved address for a token ID, or zero if no address set Reverts if the token ID does not exist.",
        "params": {
          "tokenId": "uint256 ID of the token to query the approval of"
        },
        "returns": {
          "_0": "address currently approved for the given token ID"
        }
      },
      "isApprovedForAll(address,address)": {
        "details": "Tells whether an operator is approved by a given owner.",
        "params": {
          "operator": "operator address which you want to query the approval of",
          "owner": "owner address which you want to query the approval of"
        },
        "returns": {
          "_0": "bool whether the given operator is approved by the given owner"
        }
      },
      "name()": {
        "details": "Gets the token name.",
        "returns": {
          "_0": "string representing the token name"
        }
      },
      "ownerOf(uint256)": {
        "details": "Gets the owner of the specified token ID.",
        "params": {
          "tokenId": "uint256 ID of the token to query the owner of"
        },
        "returns": {
          "_0": "address currently marked as the owner of the given token ID"
        }
      },
      "safeTransferFrom(address,address,uint256)": {
        "details": "Safely transfers the ownership of a given token ID to another address If the target address is a contract, it must implement {IERC721Receiver-onERC721Received}, which is called upon a safe transfer, and return the magic value `bytes4(keccak256(\"onERC721Received(address,address,uint256,bytes)\"))`; otherwise, the transfer is reverted. Requires the msg.sender to be the owner, approved, or operator",
        "params": {
          "from": "current owner of the token",
          "to": "address to receive the ownership of the given token ID",
          "tokenId": "uint256 ID of the token to be transferred"
        }
      },
      "safeTransferFrom(address,address,uint256,bytes)": {
        "details": "Safely transfers the ownership of a given token ID to another address If the target address is a contract, it must implement {IERC721Receiver-onERC721Received}, which is called upon a safe transfer, and return the magic value `bytes4(keccak256(\"onERC721Received(address,address,uint256,bytes)\"))`; otherwise, the transfer is reverted. Requires the _msgSender() to be the owner, approved, or operator",
        "params": {
          "_data": "bytes data to send along with a safe transfer check",
          "from": "current owner of the token",
          "to": "address to receive the ownership of the given token ID",
          "tokenId": "uint256 ID of the token to be transferred"
        }
      },
      "setApprovalForAll(address,bool)": {
        "details": "Sets or unsets the approval of a given operator An operator is allowed to transfer all tokens of the sender on their behalf.",
        "params": {
          "approved": "representing the status of the approval to be set",
          "operator": "operator address to set the approval"
        }
      },
      "supportsInterface(bytes4)": {
        "details": "See {IERC165-supportsInterface}.     * Time complexity O(1), guaranteed to always use less than 30 000 gas."
      },
      "symbol()": {
        "details": "Gets the token symbol.",
        "returns": {
          "_0": "string representing the token symbol"
        }
      },
      "tokenURI(uint256)": {
        "details": "Returns the URI for a given token ID. May return an empty string.     * If the token's URI is non-empty and a base URI was set (via {_setBaseURI}), it will be added to the token ID's URI as a prefix.     * Reverts if the token ID does not exist."
      },
      "transferFrom(address,address,uint256)": {
        "details": "Transfers the ownership of a given token ID to another address. Usage of this method is discouraged, use {safeTransferFrom} whenever possible. Requires the msg.sender to be the owner, approved, or operator.",
        "params": {
          "from": "current owner of the token",
          "to": "address to receive the ownership of the given token ID",
          "tokenId": "uint256 ID of the token to be transferred"
        }
      }
    }
  },
  "userdoc": {
    "methods": {}
  }
}