{
  "contractName": "EscrowERC20",
  "abi": [
    {
      "constant": true,
      "inputs": [],
      "name": "name",
      "outputs": [
        {
          "name": "",
          "type": "string"
        }
      ],
      "payable": false,
      "stateMutability": "view",
      "type": "function"
    },
    {
      "constant": false,
      "inputs": [
        {
          "name": "spender",
          "type": "address"
        },
        {
          "name": "value",
          "type": "uint256"
        }
      ],
      "name": "approve",
      "outputs": [
        {
          "name": "",
          "type": "bool"
        }
      ],
      "payable": false,
      "stateMutability": "nonpayable",
      "type": "function"
    },
    {
      "constant": true,
      "inputs": [],
      "name": "totalSupply",
      "outputs": [
        {
          "name": "",
          "type": "uint256"
        }
      ],
      "payable": false,
      "stateMutability": "view",
      "type": "function"
    },
    {
      "constant": false,
      "inputs": [
        {
          "name": "from",
          "type": "address"
        },
        {
          "name": "to",
          "type": "address"
        },
        {
          "name": "value",
          "type": "uint256"
        }
      ],
      "name": "transferFrom",
      "outputs": [
        {
          "name": "",
          "type": "bool"
        }
      ],
      "payable": false,
      "stateMutability": "nonpayable",
      "type": "function"
    },
    {
      "constant": true,
      "inputs": [],
      "name": "decimals",
      "outputs": [
        {
          "name": "",
          "type": "uint8"
        }
      ],
      "payable": false,
      "stateMutability": "view",
      "type": "function"
    },
    {
      "constant": false,
      "inputs": [
        {
          "name": "spender",
          "type": "address"
        },
        {
          "name": "addedValue",
          "type": "uint256"
        }
      ],
      "name": "increaseAllowance",
      "outputs": [
        {
          "name": "",
          "type": "bool"
        }
      ],
      "payable": false,
      "stateMutability": "nonpayable",
      "type": "function"
    },
    {
      "constant": true,
      "inputs": [
        {
          "name": "owner",
          "type": "address"
        }
      ],
      "name": "balanceOf",
      "outputs": [
        {
          "name": "",
          "type": "uint256"
        }
      ],
      "payable": false,
      "stateMutability": "view",
      "type": "function"
    },
    {
      "constant": true,
      "inputs": [],
      "name": "symbol",
      "outputs": [
        {
          "name": "",
          "type": "string"
        }
      ],
      "payable": false,
      "stateMutability": "view",
      "type": "function"
    },
    {
      "constant": false,
      "inputs": [
        {
          "name": "spender",
          "type": "address"
        },
        {
          "name": "subtractedValue",
          "type": "uint256"
        }
      ],
      "name": "decreaseAllowance",
      "outputs": [
        {
          "name": "",
          "type": "bool"
        }
      ],
      "payable": false,
      "stateMutability": "nonpayable",
      "type": "function"
    },
    {
      "constant": false,
      "inputs": [
        {
          "name": "to",
          "type": "address"
        },
        {
          "name": "value",
          "type": "uint256"
        }
      ],
      "name": "transfer",
      "outputs": [
        {
          "name": "",
          "type": "bool"
        }
      ],
      "payable": false,
      "stateMutability": "nonpayable",
      "type": "function"
    },
    {
      "constant": true,
      "inputs": [
        {
          "name": "owner",
          "type": "address"
        },
        {
          "name": "spender",
          "type": "address"
        }
      ],
      "name": "allowance",
      "outputs": [
        {
          "name": "",
          "type": "uint256"
        }
      ],
      "payable": false,
      "stateMutability": "view",
      "type": "function"
    },
    {
      "inputs": [
        {
          "name": "_token",
          "type": "address"
        }
      ],
      "payable": false,
      "stateMutability": "nonpayable",
      "type": "constructor"
    },
    {
      "anonymous": false,
      "inputs": [
        {
          "indexed": false,
          "name": "owner",
          "type": "address"
        },
        {
          "indexed": false,
          "name": "amount",
          "type": "uint256"
        }
      ],
      "name": "Withdraw",
      "type": "event"
    },
    {
      "anonymous": false,
      "inputs": [
        {
          "indexed": false,
          "name": "user",
          "type": "address"
        },
        {
          "indexed": false,
          "name": "amount",
          "type": "uint256"
        },
        {
          "indexed": false,
          "name": "ref",
          "type": "bytes32"
        }
      ],
      "name": "Reward",
      "type": "event"
    },
    {
      "anonymous": false,
      "inputs": [
        {
          "indexed": false,
          "name": "user",
          "type": "address"
        },
        {
          "indexed": false,
          "name": "amount",
          "type": "uint256"
        },
        {
          "indexed": false,
          "name": "ref",
          "type": "bytes32"
        }
      ],
      "name": "Seize",
      "type": "event"
    },
    {
      "anonymous": false,
      "inputs": [
        {
          "indexed": false,
          "name": "user",
          "type": "address"
        },
        {
          "indexed": false,
          "name": "amount",
          "type": "uint256"
        }
      ],
      "name": "Lock",
      "type": "event"
    },
    {
      "anonymous": false,
      "inputs": [
        {
          "indexed": false,
          "name": "user",
          "type": "address"
        },
        {
          "indexed": false,
          "name": "amount",
          "type": "uint256"
        }
      ],
      "name": "Unlock",
      "type": "event"
    },
    {
      "anonymous": false,
      "inputs": [
        {
          "indexed": true,
          "name": "from",
          "type": "address"
        },
        {
          "indexed": true,
          "name": "to",
          "type": "address"
        },
        {
          "indexed": false,
          "name": "value",
          "type": "uint256"
        }
      ],
      "name": "Transfer",
      "type": "event"
    },
    {
      "anonymous": false,
      "inputs": [
        {
          "indexed": true,
          "name": "owner",
          "type": "address"
        },
        {
          "indexed": true,
          "name": "spender",
          "type": "address"
        },
        {
          "indexed": false,
          "name": "value",
          "type": "uint256"
        }
      ],
      "name": "Approval",
      "type": "event"
    },
    {
      "constant": true,
      "inputs": [
        {
          "name": "owner",
          "type": "address"
        }
      ],
      "name": "frozenOf",
      "outputs": [
        {
          "name": "",
          "type": "uint256"
        }
      ],
      "payable": false,
      "stateMutability": "view",
      "type": "function"
    },
    {
      "constant": true,
      "inputs": [
        {
          "name": "owner",
          "type": "address"
        }
      ],
      "name": "viewAccount",
      "outputs": [
        {
          "components": [
            {
              "name": "stake",
              "type": "uint256"
            },
            {
              "name": "locked",
              "type": "uint256"
            }
          ],
          "name": "account",
          "type": "tuple"
        }
      ],
      "payable": false,
      "stateMutability": "view",
      "type": "function"
    },
    {
      "constant": true,
      "inputs": [],
      "name": "token",
      "outputs": [
        {
          "name": "",
          "type": "address"
        }
      ],
      "payable": false,
      "stateMutability": "view",
      "type": "function"
    },
    {
      "constant": false,
      "inputs": [
        {
          "name": "amount",
          "type": "uint256"
        }
      ],
      "name": "deposit",
      "outputs": [
        {
          "name": "",
          "type": "bool"
        }
      ],
      "payable": false,
      "stateMutability": "nonpayable",
      "type": "function"
    },
    {
      "constant": false,
      "inputs": [
        {
          "name": "amount",
          "type": "uint256"
        },
        {
          "name": "target",
          "type": "address"
        }
      ],
      "name": "depositFor",
      "outputs": [
        {
          "name": "",
          "type": "bool"
        }
      ],
      "payable": false,
      "stateMutability": "nonpayable",
      "type": "function"
    },
    {
      "constant": false,
      "inputs": [
        {
          "name": "amounts",
          "type": "uint256[]"
        },
        {
          "name": "targets",
          "type": "address[]"
        }
      ],
      "name": "depositForArray",
      "outputs": [
        {
          "name": "",
          "type": "bool"
        }
      ],
      "payable": false,
      "stateMutability": "nonpayable",
      "type": "function"
    },
    {
      "constant": false,
      "inputs": [
        {
          "name": "amount",
          "type": "uint256"
        }
      ],
      "name": "withdraw",
      "outputs": [
        {
          "name": "",
          "type": "bool"
        }
      ],
      "payable": false,
      "stateMutability": "nonpayable",
      "type": "function"
    }
  ],
  "bytecode": "0x60806040523480156200001157600080fd5b506040516200102e3803806200102e8339810160408190526200003491620001c1565b604080518082018252600881527f7374616b65524c4300000000000000000000000000000000000000000000000060208083019182528351808501909452600484527f73524c4300000000000000000000000000000000000000000000000000000000908401528151919291600991620000b2916003919062000109565b508151620000c890600490602085019062000109565b50600580546001600160a01b0390951661010002610100600160a81b031960ff90931660ff1990961695909517919091169390931790925550620002169050565b828054600181600116156101000203166002900490600052602060002090601f016020900481019282601f106200014c57805160ff19168380011785556200017c565b828001600101855582156200017c579182015b828111156200017c5782518255916020019190600101906200015f565b506200018a9291506200018e565b5090565b620001ab91905b808211156200018a576000815560010162000195565b90565b8051620001bb81620001fc565b92915050565b600060208284031215620001d457600080fd5b6000620001e28484620001ae565b949350505050565b60006001600160a01b038216620001bb565b6200020781620001ea565b81146200021357600080fd5b50565b610e0880620002266000396000f3fe608060405234801561001057600080fd5b50600436106101165760003560e01c806339509351116100a2578063a457c2d711610071578063a457c2d714610230578063a9059cbb14610243578063b6b55f2514610256578063dd62ed3e14610269578063fc0c546a1461027c57610116565b806339509351146101e25780636b55f4a5146101f557806370a082311461021557806395d89b411461022857610116565b806323b872dd116100e957806323b872dd146101815780632e1a7d4d14610194578063313ce567146101a75780633354f8a5146101bc57806336efd16f146101cf57610116565b806306fdde031461011b578063095ea7b31461013957806318160ddd146101595780631bf6e00d1461016e575b600080fd5b610123610291565b6040516101309190610cf9565b60405180910390f35b61014c610147366004610b13565b610327565b6040516101309190610ceb565b61016161033e565b6040516101309190610d18565b61016161017c366004610a6e565b610344565b61014c61018f366004610ac6565b61035f565b61014c6101a2366004610bd1565b6103b7565b6101af6103d5565b6040516101309190610d26565b61014c6101ca366004610b43565b6103de565b61014c6101dd366004610bef565b610465565b61014c6101f0366004610b13565b61047b565b610208610203366004610a6e565b6104b7565b6040516101309190610d0a565b610161610223366004610a6e565b6104e9565b610123610504565b61014c61023e366004610b13565b610565565b61014c610251366004610b13565b6105a1565b61014c610264366004610bd1565b6105ae565b610161610277366004610a8c565b6105c4565b6102846105ef565b6040516101309190610c9a565b60038054604080516020601f600260001961010060018816150201909516949094049384018190048102820181019092528281526060939092909183018282801561031d5780601f106102f25761010080835404028352916020019161031d565b820191906000526020600020905b81548152906001019060200180831161030057829003601f168201915b5050505050905090565b6000610334338484610603565b5060015b92915050565b60025490565b6001600160a01b031660009081526006602052604090205490565b600061036c848484610691565b6001600160a01b0384166000908152600160209081526040808320338085529252909120546103ac9186916103a7908663ffffffff61075416565b610603565b5060015b9392505050565b60006103c33383610769565b6103cd3383610813565b506001919050565b60055460ff1690565b60008382146103ec57600080fd5b60005b84811015610457576104133387878481811061040757fe5b905060200201356108a0565b61044f84848381811061042257fe5b90506020020160206104379190810190610a6e565b87878481811061044357fe5b90506020020135610937565b6001016103ef565b50600190505b949350505050565b600061047133846108a0565b6103348284610937565b3360008181526001602090815260408083206001600160a01b038716845290915281205490916103349185906103a7908663ffffffff6109d816565b6104bf6109ea565b60405180604001604052806104d3846104e9565b81526020016104e184610344565b905292915050565b6001600160a01b031660009081526020819052604090205490565b60048054604080516020601f600260001961010060018816150201909516949094049384018190048102820181019092528281526060939092909183018282801561031d5780601f106102f25761010080835404028352916020019161031d565b3360008181526001602090815260408083206001600160a01b038716845290915281205490916103349185906103a7908663ffffffff61075416565b6000610334338484610691565b60006105ba33836108a0565b6103cd3383610937565b6001600160a01b03918216600090815260016020908152604080832093909416825291909152205490565b60055461010090046001600160a01b031690565b6001600160a01b03821661061657600080fd5b6001600160a01b03831661062957600080fd5b6001600160a01b0380841660008181526001602090815260408083209487168084529490915290819020849055517f8c5be1e5ebec7d5bd14f71427d1e84f3dd0314c0f7b2291e5b200ac8c7c3b92590610684908590610d18565b60405180910390a3505050565b6001600160a01b0382166106a457600080fd5b6001600160a01b0383166000908152602081905260409020546106cd908263ffffffff61075416565b6001600160a01b038085166000908152602081905260408082209390935590841681522054610702908263ffffffff6109d816565b6001600160a01b0380841660008181526020819052604090819020939093559151908516907fddf252ad1be2c89b69c2b068fc378daa952ba7f163c4a11628f55a4df523b3ef90610684908590610d18565b60008282111561076357600080fd5b50900390565b6001600160a01b03821661077c57600080fd5b60025461078f908263ffffffff61075416565b6002556001600160a01b0382166000908152602081905260409020546107bb908263ffffffff61075416565b6001600160a01b0383166000818152602081905260408082209390935591517fddf252ad1be2c89b69c2b068fc378daa952ba7f163c4a11628f55a4df523b3ef90610807908590610d18565b60405180910390a35050565b60055460405163a9059cbb60e01b81526101009091046001600160a01b03169063a9059cbb906108499085908590600401610cd0565b602060405180830381600087803b15801561086357600080fd5b505af1158015610877573d6000803e3d6000fd5b505050506040513d601f19601f8201168201806040525061089b9190810190610bb3565b505050565b6005546040516323b872dd60e01b81526101009091046001600160a01b0316906323b872dd906108d890859030908690600401610ca8565b602060405180830381600087803b1580156108f257600080fd5b505af1158015610906573d6000803e3d6000fd5b505050506040513d601f19601f8201168201806040525061092a9190810190610bb3565b61093357600080fd5b5050565b6001600160a01b03821661094a57600080fd5b60025461095d908263ffffffff6109d816565b6002556001600160a01b038216600090815260208190526040902054610989908263ffffffff6109d816565b6001600160a01b0383166000818152602081905260408082209390935591519091907fddf252ad1be2c89b69c2b068fc378daa952ba7f163c4a11628f55a4df523b3ef90610807908590610d18565b6000828201838110156103b057600080fd5b604051806040016040528060008152602001600081525090565b803561033881610d9c565b60008083601f840112610a2157600080fd5b50813567ffffffffffffffff811115610a3957600080fd5b602083019150836020820283011115610a5157600080fd5b9250929050565b805161033881610db3565b803561033881610dbc565b600060208284031215610a8057600080fd5b600061045d8484610a04565b60008060408385031215610a9f57600080fd5b6000610aab8585610a04565b9250506020610abc85828601610a04565b9150509250929050565b600080600060608486031215610adb57600080fd5b6000610ae78686610a04565b9350506020610af886828701610a04565b9250506040610b0986828701610a63565b9150509250925092565b60008060408385031215610b2657600080fd5b6000610b328585610a04565b9250506020610abc85828601610a63565b60008060008060408587031215610b5957600080fd5b843567ffffffffffffffff811115610b7057600080fd5b610b7c87828801610a0f565b9450945050602085013567ffffffffffffffff811115610b9b57600080fd5b610ba787828801610a0f565b95989497509550505050565b600060208284031215610bc557600080fd5b600061045d8484610a58565b600060208284031215610be357600080fd5b600061045d8484610a63565b60008060408385031215610c0257600080fd5b6000610aab8585610a63565b610c1781610d41565b82525050565b610c1781610d4c565b6000610c3182610d34565b610c3b8185610d38565b9350610c4b818560208601610d66565b610c5481610d92565b9093019392505050565b80516040830190610c6f8482610c88565b506020820151610c826020850182610c88565b50505050565b610c1781610d5d565b610c1781610d60565b602081016103388284610c0e565b60608101610cb68286610c0e565b610cc36020830185610c0e565b61045d6040830184610c88565b60408101610cde8285610c0e565b6103b06020830184610c88565b602081016103388284610c1d565b602080825281016103b08184610c26565b604081016103388284610c5e565b602081016103388284610c88565b602081016103388284610c91565b5190565b90815260200190565b600061033882610d51565b151590565b6001600160a01b031690565b90565b60ff1690565b60005b83811015610d81578181015183820152602001610d69565b83811115610c825750506000910152565b601f01601f191690565b610da581610d41565b8114610db057600080fd5b50565b610da581610d4c565b610da581610d5d56fea365627a7a723058201e8824ba6197ec2f33ebee389d436269af4d4d6d408eddeec313d3cc4a6415c06c6578706572696d656e74616cf564736f6c63430005090040",
  "source": "pragma solidity ^0.5.8;\npragma experimental ABIEncoderV2;\n\nimport \"iexec-solidity/contracts/ERC20_Token/IERC20.sol\";\nimport \"iexec-solidity/contracts/ERC20_Token/ERC20.sol\";\nimport \"iexec-solidity/contracts/ERC20_Token/ERC20Detailed.sol\";\nimport \"iexec-solidity/contracts/Libs/SafeMath.sol\";\n\nimport \"./libs/IexecODBLibCore.sol\";\n\n\ncontract EscrowERC20 is ERC20, ERC20Detailed\n{\n\tusing SafeMath for uint256;\n\n\t/**\n\t* token contract for transfers.\n\t*/\n\tIERC20 private _baseToken;\n\n\t/**\n\t * Escrow content\n\t */\n\tmapping (address => uint256) private _frozens;\n\n\t/**\n\t * Events\n\t */\n\tevent Withdraw  (address owner, uint256 amount);\n\tevent Reward    (address user,  uint256 amount, bytes32 ref);\n\tevent Seize     (address user,  uint256 amount, bytes32 ref);\n\tevent Lock      (address user,  uint256 amount);\n\tevent Unlock    (address user,  uint256 amount);\n\n\t/**\n\t * Constructor\n\t */\n\tconstructor(address _token)\n\t\tpublic\n\t\tERC20Detailed(\"stakeRLC\", \"sRLC\", 9)\n\t{\n\t\t_baseToken = IERC20(_token);\n\t}\n\n\t/**\n\t * Accessor\n\t */\n\n\tfunction frozenOf(address owner)\n\t\tpublic view returns (uint256)\n\t{\n\t\treturn _frozens[owner];\n\t}\n\n\tfunction viewAccount(address owner)\n\t\tpublic view returns (IexecODBLibCore.Account memory account)\n\t{\n\t\treturn IexecODBLibCore.Account(balanceOf(owner), frozenOf(owner));\n\t}\n\n\tfunction token()\n\t\texternal view returns (address)\n\t{\n\t\treturn address(_baseToken);\n\t}\n\n\t/**\n\t * Wallet methods: public\n\t */\n\tfunction deposit(uint256 amount)\n\t\texternal returns (bool)\n\t{\n\t\t_deposit(msg.sender, amount);\n\t\t_mint(msg.sender, amount);\n\t\treturn true;\n\t}\n\n\tfunction depositFor(uint256 amount, address target)\n\t\texternal returns (bool)\n\t{\n\t\t_deposit(msg.sender, amount);\n\t\t_mint(target, amount);\n\t\treturn true;\n\t}\n\n\tfunction depositForArray(uint256[] calldata amounts, address[] calldata targets)\n\t\texternal returns (bool)\n\t{\n\t\trequire(amounts.length == targets.length);\n\t\tfor (uint i = 0; i < amounts.length; ++i)\n\t\t{\n\t\t\t_deposit(msg.sender, amounts[i]);\n\t\t\t_mint(targets[i], amounts[i]);\n\t\t}\n\t\treturn true;\n\t}\n\n\tfunction withdraw(uint256 amount)\n\t\texternal returns (bool)\n\t{\n\t\t_burn(msg.sender, amount);\n\t\t_withdraw(msg.sender, amount);\n\t\treturn true;\n\t}\n\n\t// internal methods\n\tfunction _deposit(address from, uint256 amount)\n\t\tinternal\n\t{\n\t\trequire(_baseToken.transferFrom(from, address(this), amount));\n\t}\n\n\tfunction _withdraw(address to, uint256 amount)\n\t\tinternal\n\t{\n\t\t_baseToken.transfer(to, amount);\n\t}\n\n\t/**\n\t * Wallet methods: Internal\n\t */\n\tfunction reward(address user, uint256 amount, bytes32 ref)\n\t\tinternal /* returns (bool) */\n\t{\n\t\t_transfer(address(this), user, amount);\n\t\temit Reward(user, amount, ref);\n\t\t/* return true; */\n\t}\n\n\tfunction seize(address user, uint256 amount, bytes32 ref)\n\t\tinternal /* returns (bool) */\n\t{\n\t\t_frozens[user] = _frozens[user].sub(amount);\n\t\temit Seize(user, amount, ref);\n\t\t/* return true; */\n\t}\n\n\tfunction lock(address user, uint256 amount)\n\t\tinternal /* returns (bool) */\n\t{\n\t\t_transfer(user, address(this), amount);\n\t\t_frozens[user] = _frozens[user].add(amount);\n\t\temit Lock(user, amount);\n\t\t/* return true; */\n\t}\n\n\tfunction unlock(address user, uint256 amount)\n\t\tinternal /* returns (bool) */\n\t{\n\t\t_transfer(address(this), user, amount);\n\t\t_frozens[user] = _frozens[user].sub(amount);\n\t\temit Unlock(user, amount);\n\t\t/* return true; */\n\t}\n}\n",
  "sourcePath": "/home/amxx/Work/iExec/code/PoCo-dev/contracts/EscrowERC20.sol",
  "compiler": {
    "name": "solc",
    "version": "0.5.9+commit.e560f70d.Emscripten.clang"
  },
  "schemaVersion": "3.0.11",
  "updatedAt": "2019-06-26T08:31:13.466Z",
  "devdoc": {
    "methods": {
      "allowance(address,address)": {
        "details": "Function to check the amount of tokens that an owner allowed to a spender.",
        "params": {
          "owner": "address The address which owns the funds.",
          "spender": "address The address which will spend the funds."
        },
        "return": "A uint256 specifying the amount of tokens still available for the spender."
      },
      "approve(address,uint256)": {
        "details": "Approve the passed address to spend the specified amount of tokens on behalf of msg.sender. Beware that changing an allowance with this method brings the risk that someone may use both the old and the new allowance by unfortunate transaction ordering. One possible solution to mitigate this race condition is to first reduce the spender's allowance to 0 and set the desired value afterwards: https://github.com/ethereum/EIPs/issues/20#issuecomment-263524729",
        "params": {
          "spender": "The address which will spend the funds.",
          "value": "The amount of tokens to be spent."
        }
      },
      "balanceOf(address)": {
        "details": "Gets the balance of the specified address.",
        "params": {
          "owner": "The address to query the balance of."
        },
        "return": "A uint256 representing the amount owned by the passed address."
      },
      "decimals()": {
        "return": "the number of decimals of the token."
      },
      "decreaseAllowance(address,uint256)": {
        "details": "Decrease the amount of tokens that an owner allowed to a spender. approve should be called when _allowed[msg.sender][spender] == 0. To decrement allowed value is better to use this function to avoid 2 calls (and wait until the first transaction is mined) From MonolithDAO Token.sol Emits an Approval event.",
        "params": {
          "spender": "The address which will spend the funds.",
          "subtractedValue": "The amount of tokens to decrease the allowance by."
        }
      },
      "increaseAllowance(address,uint256)": {
        "details": "Increase the amount of tokens that an owner allowed to a spender. approve should be called when _allowed[msg.sender][spender] == 0. To increment allowed value is better to use this function to avoid 2 calls (and wait until the first transaction is mined) From MonolithDAO Token.sol Emits an Approval event.",
        "params": {
          "addedValue": "The amount of tokens to increase the allowance by.",
          "spender": "The address which will spend the funds."
        }
      },
      "name()": {
        "return": "the name of the token."
      },
      "symbol()": {
        "return": "the symbol of the token."
      },
      "totalSupply()": {
        "details": "Total number of tokens in existence"
      },
      "transfer(address,uint256)": {
        "details": "Transfer token to a specified address",
        "params": {
          "to": "The address to transfer to.",
          "value": "The amount to be transferred."
        }
      },
      "transferFrom(address,address,uint256)": {
        "details": "Transfer tokens from one address to another. Note that while this function emits an Approval event, this is not required as per the specification, and other compliant implementations may not emit the event.",
        "params": {
          "from": "address The address which you want to send tokens from",
          "to": "address The address which you want to transfer to",
          "value": "uint256 the amount of tokens to be transferred"
        }
      }
    }
  },
  "userdoc": {
    "methods": {
      "constructor": "Constructor",
      "deposit(uint256)": {
        "notice": "Wallet methods: public"
      },
      "frozenOf(address)": {
        "notice": "Accessor"
      }
    }
  }
}