{
  "contractName": "Escrow",
  "abi": [
    {
      "inputs": [],
      "payable": false,
      "stateMutability": "nonpayable",
      "type": "constructor"
    },
    {
      "payable": true,
      "stateMutability": "payable",
      "type": "fallback"
    },
    {
      "anonymous": false,
      "inputs": [
        {
          "indexed": false,
          "name": "owner",
          "type": "address"
        },
        {
          "indexed": false,
          "name": "amount",
          "type": "uint256"
        }
      ],
      "name": "Deposit",
      "type": "event"
    },
    {
      "anonymous": false,
      "inputs": [
        {
          "indexed": false,
          "name": "owner",
          "type": "address"
        },
        {
          "indexed": false,
          "name": "amount",
          "type": "uint256"
        },
        {
          "indexed": false,
          "name": "target",
          "type": "address"
        }
      ],
      "name": "DepositFor",
      "type": "event"
    },
    {
      "anonymous": false,
      "inputs": [
        {
          "indexed": false,
          "name": "owner",
          "type": "address"
        },
        {
          "indexed": false,
          "name": "amount",
          "type": "uint256"
        }
      ],
      "name": "Withdraw",
      "type": "event"
    },
    {
      "anonymous": false,
      "inputs": [
        {
          "indexed": false,
          "name": "user",
          "type": "address"
        },
        {
          "indexed": false,
          "name": "amount",
          "type": "uint256"
        },
        {
          "indexed": false,
          "name": "ref",
          "type": "bytes32"
        }
      ],
      "name": "Reward",
      "type": "event"
    },
    {
      "anonymous": false,
      "inputs": [
        {
          "indexed": false,
          "name": "user",
          "type": "address"
        },
        {
          "indexed": false,
          "name": "amount",
          "type": "uint256"
        },
        {
          "indexed": false,
          "name": "ref",
          "type": "bytes32"
        }
      ],
      "name": "Seize",
      "type": "event"
    },
    {
      "anonymous": false,
      "inputs": [
        {
          "indexed": false,
          "name": "user",
          "type": "address"
        },
        {
          "indexed": false,
          "name": "amount",
          "type": "uint256"
        }
      ],
      "name": "Lock",
      "type": "event"
    },
    {
      "anonymous": false,
      "inputs": [
        {
          "indexed": false,
          "name": "user",
          "type": "address"
        },
        {
          "indexed": false,
          "name": "amount",
          "type": "uint256"
        }
      ],
      "name": "Unlock",
      "type": "event"
    },
    {
      "constant": true,
      "inputs": [
        {
          "name": "_user",
          "type": "address"
        }
      ],
      "name": "viewAccount",
      "outputs": [
        {
          "components": [
            {
              "name": "stake",
              "type": "uint256"
            },
            {
              "name": "locked",
              "type": "uint256"
            }
          ],
          "name": "account",
          "type": "tuple"
        }
      ],
      "payable": false,
      "stateMutability": "view",
      "type": "function"
    },
    {
      "constant": false,
      "inputs": [],
      "name": "deposit",
      "outputs": [
        {
          "name": "",
          "type": "bool"
        }
      ],
      "payable": true,
      "stateMutability": "payable",
      "type": "function"
    },
    {
      "constant": false,
      "inputs": [
        {
          "name": "_target",
          "type": "address"
        }
      ],
      "name": "depositFor",
      "outputs": [
        {
          "name": "",
          "type": "bool"
        }
      ],
      "payable": true,
      "stateMutability": "payable",
      "type": "function"
    },
    {
      "constant": false,
      "inputs": [
        {
          "name": "_amounts",
          "type": "uint256[]"
        },
        {
          "name": "_targets",
          "type": "address[]"
        }
      ],
      "name": "depositForArray",
      "outputs": [
        {
          "name": "",
          "type": "bool"
        }
      ],
      "payable": true,
      "stateMutability": "payable",
      "type": "function"
    },
    {
      "constant": false,
      "inputs": [
        {
          "name": "_amount",
          "type": "uint256"
        }
      ],
      "name": "withdraw",
      "outputs": [
        {
          "name": "",
          "type": "bool"
        }
      ],
      "payable": false,
      "stateMutability": "nonpayable",
      "type": "function"
    }
  ],
  "bytecode": "0x6080604052633b9aca0060015534801561001857600080fd5b506107c5806100286000396000f3fe60806040526004361061004a5760003560e01c80632e1a7d4d146100ea5780633354f8a5146101205780636b55f4a514610133578063aa67c91914610160578063d0e30db014610173575b61005f33600154348161005957fe5b0461017b565b336001600160a01b03166108fc600154348161007757fe5b069081150290604051600060405180830381858888f193505050501580156100a3573d6000803e3d6000fd5b507fe1fffcc4923d04b559f4d29a8bfc6cda04eb5b0d3c460751c2402c5c5cc9109c3360015434816100d157fe5b046040516100e09291906106cc565b60405180910390a1005b3480156100f657600080fd5b5061010a61010536600461065a565b6101c4565b6040516101179190610716565b60405180910390f35b61010a61012e3660046105ea565b610269565b34801561013f57600080fd5b5061015361014e3660046105cc565b6103a3565b6040516101179190610724565b61010a61016e3660046105cc565b6103dc565b61010a610483565b6001600160a01b0382166000908152602081905260409020546101a4908263ffffffff61052316565b6001600160a01b0390921660009081526020819052604090209190915550565b336000908152602081905260408120546101e4908363ffffffff61053e16565b336000818152602081905260408082209390935560015492519192850280156108fc02929091818181858888f19350505050158015610227573d6000803e3d6000fd5b507f884edad9ce6fa2440d8a54cc123490eb96d2768479d49ff9c7366125a942436433836040516102599291906106cc565b60405180910390a1506001919050565b600083821461027757600080fd5b3460005b8581101561035f576102bf85858381811061029257fe5b90506020020160206102a791908101906105cc565b8888848181106102b357fe5b9050602002013561017b565b7fcce62bfcdb09eddbe4e5ff5ec3bafdbabc25a52e1cf34f014a0a7a0864f9634c338888848181106102ed57fe5b9050602002013587878581811061030057fe5b905060200201602061031591908101906105cc565b604051610324939291906106ee565b60405180910390a161035560015488888481811061033e57fe5b90506020020135028361053e90919063ffffffff16565b915060010161027b565b50801561039557604051339082156108fc029083906000818181858888f19350505050158015610393573d6000803e3d6000fd5b505b60019150505b949350505050565b6103ab610553565b506001600160a01b031660009081526020818152604091829020825180840190935280548352600101549082015290565b60006001600160a01b0382166103f157600080fd5b61040082600154348161005957fe5b336001600160a01b03166108fc600154348161041857fe5b069081150290604051600060405180830381858888f19350505050158015610444573d6000803e3d6000fd5b507fcce62bfcdb09eddbe4e5ff5ec3bafdbabc25a52e1cf34f014a0a7a0864f9634c33600154348161047257fe5b0484604051610259939291906106ee565b600061049433600154348161005957fe5b336001600160a01b03166108fc60015434816104ac57fe5b069081150290604051600060405180830381858888f193505050501580156104d8573d6000803e3d6000fd5b507fe1fffcc4923d04b559f4d29a8bfc6cda04eb5b0d3c460751c2402c5c5cc9109c33600154348161050657fe5b046040516105159291906106cc565b60405180910390a150600190565b60008282018381101561053557600080fd5b90505b92915050565b60008282111561054d57600080fd5b50900390565b604051806040016040528060008152602001600081525090565b803561053881610762565b60008083601f84011261058a57600080fd5b50813567ffffffffffffffff8111156105a257600080fd5b6020830191508360208202830111156105ba57600080fd5b9250929050565b803561053881610779565b6000602082840312156105de57600080fd5b600061039b848461056d565b6000806000806040858703121561060057600080fd5b843567ffffffffffffffff81111561061757600080fd5b61062387828801610578565b9450945050602085013567ffffffffffffffff81111561064257600080fd5b61064e87828801610578565b95989497509550505050565b60006020828403121561066c57600080fd5b600061039b84846105c1565b61068181610751565b82525050565b61068181610732565b6106818161073d565b805160408301906106aa84826106c3565b5060208201516106bd60208501826106c3565b50505050565b6106818161074e565b604081016106da8285610678565b6106e760208301846106c3565b9392505050565b606081016106fc8286610678565b61070960208301856106c3565b61039b6040830184610687565b602081016105388284610690565b604081016105388284610699565b600061053882610742565b151590565b6001600160a01b031690565b90565b600061053882600061053882610732565b61076b81610732565b811461077657600080fd5b50565b61076b8161074e56fea365627a7a72305820174ef6dbadbe262569f12fd05ec8c9a0cfdde8eb60eef019428978e93103c95f6c6578706572696d656e74616cf564736f6c634300050a0040",
  "source": "pragma solidity ^0.5.8;\npragma experimental ABIEncoderV2;\n\nimport \"iexec-solidity/contracts/ERC20_Token/IERC20.sol\";\nimport \"iexec-solidity/contracts/Libs/SafeMath.sol\";\n\nimport \"./libs/IexecODBLibCore.sol\";\n\ncontract Escrow\n{\n\tusing SafeMath for uint256;\n\n\t/**\n\t * Escrow content\n\t */\n\tmapping(address => IexecODBLibCore.Account) m_accounts;\n\n\tuint256 internal nRLC2wei = 10 ** 9;\n\n\t/**\n\t * Events\n\t */\n\tevent Deposit   (address owner, uint256 amount);\n\tevent DepositFor(address owner, uint256 amount, address target);\n\tevent Withdraw  (address owner, uint256 amount);\n\tevent Reward    (address user,  uint256 amount, bytes32 ref);\n\tevent Seize     (address user,  uint256 amount, bytes32 ref);\n\tevent Lock      (address user,  uint256 amount);\n\tevent Unlock    (address user,  uint256 amount);\n\n\t/**\n\t * Constructor\n\t */\n\tconstructor()\n\tpublic\n\t{\n\t}\n\n\t/**\n\t * Accessor\n\t */\n\tfunction viewAccount(address _user)\n\texternal view returns (IexecODBLibCore.Account memory account)\n\t{\n\t\treturn m_accounts[_user];\n\t}\n\n\t/**\n\t * Wallet methods: public\n\t */\n\tfunction ()\n\texternal payable\n\t{\n\t\t_deposit(msg.sender, msg.value / nRLC2wei);\n\t\tmsg.sender.transfer(msg.value % nRLC2wei);\n\t\temit Deposit(msg.sender, msg.value / nRLC2wei);\n\t}\n\n\tfunction deposit()\n\texternal payable returns (bool)\n\t{\n\t\t_deposit(msg.sender, msg.value / nRLC2wei);\n\t\tmsg.sender.transfer(msg.value % nRLC2wei);\n\t\temit Deposit(msg.sender, msg.value / nRLC2wei);\n\t\treturn true;\n\t}\n\n\tfunction depositFor(address _target)\n\tpublic payable returns (bool)\n\t{\n\t\trequire(_target != address(0));\n\t\t_deposit(_target, msg.value / nRLC2wei);\n\t\tmsg.sender.transfer(msg.value % nRLC2wei);\n\t\temit DepositFor(msg.sender, msg.value / nRLC2wei, _target);\n\t\treturn true;\n\t}\n\n\tfunction depositForArray(uint256[] calldata _amounts, address[] calldata _targets)\n\texternal payable returns (bool)\n\t{\n\t\trequire(_amounts.length == _targets.length);\n\t\tuint256 remaining = msg.value;\n\t\tfor (uint i = 0; i < _amounts.length; ++i)\n\t\t{\n\t\t\t_deposit(_targets[i], _amounts[i]);\n\t\t\temit DepositFor(msg.sender, _amounts[i], _targets[i]);\n\t\t\tremaining = remaining.sub(_amounts[i] * nRLC2wei);\n\t\t}\n\t\tif (remaining > 0)\n\t\t{\n\t\t\tmsg.sender.transfer(remaining);\n\t\t}\n\t\treturn true;\n\t}\n\n\tfunction _deposit(address _target, uint256 _amount)\n\tinternal\n\t{\n\t\tm_accounts[_target].stake = m_accounts[_target].stake.add(_amount);\n\t}\n\n\n\tfunction withdraw(uint256 _amount)\n\texternal returns (bool)\n\t{\n\t\tm_accounts[msg.sender].stake = m_accounts[msg.sender].stake.sub(_amount);\n\t\tmsg.sender.transfer(_amount * nRLC2wei);\n\t\temit Withdraw(msg.sender, _amount);\n\t\treturn true;\n\t}\n\n\t/**\n\t * Wallet methods: Internal\n\t */\n\tfunction reward(address _user, uint256 _amount, bytes32 _reference) internal /* returns (bool) */\n\t{\n\t\tm_accounts[_user].stake = m_accounts[_user].stake.add(_amount);\n\t\temit Reward(_user, _amount, _reference);\n\t\t/* return true; */\n\t}\n\tfunction seize(address _user, uint256 _amount, bytes32 _reference) internal /* returns (bool) */\n\t{\n\t\tm_accounts[_user].locked = m_accounts[_user].locked.sub(_amount);\n\t\temit Seize(_user, _amount, _reference);\n\t\t/* return true; */\n\t}\n\tfunction lock(address _user, uint256 _amount) internal /* returns (bool) */\n\t{\n\t\tm_accounts[_user].stake  = m_accounts[_user].stake.sub(_amount);\n\t\tm_accounts[_user].locked = m_accounts[_user].locked.add(_amount);\n\t\temit Lock(_user, _amount);\n\t\t/* return true; */\n\t}\n\tfunction unlock(address _user, uint256 _amount) internal /* returns (bool) */\n\t{\n\t\tm_accounts[_user].locked = m_accounts[_user].locked.sub(_amount);\n\t\tm_accounts[_user].stake  = m_accounts[_user].stake.add(_amount);\n\t\temit Unlock(_user, _amount);\n\t\t/* return true; */\n\t}\n}\n",
  "sourcePath": "/home/amxx/Work/iExec/code/PoCo-dev/contracts/Escrow.sol",
  "compiler": {
    "name": "solc",
    "version": "0.5.10+commit.5a6ea5b1.Emscripten.clang"
  },
  "schemaVersion": "3.0.13",
  "updatedAt": "2019-08-28T09:24:47.063Z",
  "devdoc": {
    "methods": {}
  },
  "userdoc": {
    "methods": {
      "constructor": "Constructor",
      "viewAccount(address)": {
        "notice": "Accessor"
      }
    }
  }
}