{
  "contractName": "Escrow",
  "abi": [
    {
      "inputs": [],
      "payable": false,
      "stateMutability": "nonpayable",
      "type": "constructor"
    },
    {
      "payable": true,
      "stateMutability": "payable",
      "type": "fallback"
    },
    {
      "anonymous": false,
      "inputs": [
        {
          "indexed": false,
          "name": "owner",
          "type": "address"
        },
        {
          "indexed": false,
          "name": "amount",
          "type": "uint256"
        }
      ],
      "name": "Deposit",
      "type": "event"
    },
    {
      "anonymous": false,
      "inputs": [
        {
          "indexed": false,
          "name": "owner",
          "type": "address"
        },
        {
          "indexed": false,
          "name": "amount",
          "type": "uint256"
        },
        {
          "indexed": false,
          "name": "target",
          "type": "address"
        }
      ],
      "name": "DepositFor",
      "type": "event"
    },
    {
      "anonymous": false,
      "inputs": [
        {
          "indexed": false,
          "name": "owner",
          "type": "address"
        },
        {
          "indexed": false,
          "name": "amount",
          "type": "uint256"
        }
      ],
      "name": "Withdraw",
      "type": "event"
    },
    {
      "anonymous": false,
      "inputs": [
        {
          "indexed": false,
          "name": "user",
          "type": "address"
        },
        {
          "indexed": false,
          "name": "amount",
          "type": "uint256"
        },
        {
          "indexed": false,
          "name": "ref",
          "type": "bytes32"
        }
      ],
      "name": "Reward",
      "type": "event"
    },
    {
      "anonymous": false,
      "inputs": [
        {
          "indexed": false,
          "name": "user",
          "type": "address"
        },
        {
          "indexed": false,
          "name": "amount",
          "type": "uint256"
        },
        {
          "indexed": false,
          "name": "ref",
          "type": "bytes32"
        }
      ],
      "name": "Seize",
      "type": "event"
    },
    {
      "anonymous": false,
      "inputs": [
        {
          "indexed": false,
          "name": "user",
          "type": "address"
        },
        {
          "indexed": false,
          "name": "amount",
          "type": "uint256"
        }
      ],
      "name": "Lock",
      "type": "event"
    },
    {
      "anonymous": false,
      "inputs": [
        {
          "indexed": false,
          "name": "user",
          "type": "address"
        },
        {
          "indexed": false,
          "name": "amount",
          "type": "uint256"
        }
      ],
      "name": "Unlock",
      "type": "event"
    },
    {
      "constant": true,
      "inputs": [
        {
          "name": "_user",
          "type": "address"
        }
      ],
      "name": "viewAccount",
      "outputs": [
        {
          "components": [
            {
              "name": "stake",
              "type": "uint256"
            },
            {
              "name": "locked",
              "type": "uint256"
            }
          ],
          "name": "account",
          "type": "tuple"
        }
      ],
      "payable": false,
      "stateMutability": "view",
      "type": "function"
    },
    {
      "constant": false,
      "inputs": [],
      "name": "deposit",
      "outputs": [
        {
          "name": "",
          "type": "bool"
        }
      ],
      "payable": true,
      "stateMutability": "payable",
      "type": "function"
    },
    {
      "constant": false,
      "inputs": [
        {
          "name": "_target",
          "type": "address"
        }
      ],
      "name": "depositFor",
      "outputs": [
        {
          "name": "",
          "type": "bool"
        }
      ],
      "payable": true,
      "stateMutability": "payable",
      "type": "function"
    },
    {
      "constant": false,
      "inputs": [
        {
          "name": "_amounts",
          "type": "uint256[]"
        },
        {
          "name": "_targets",
          "type": "address[]"
        }
      ],
      "name": "depositForArray",
      "outputs": [
        {
          "name": "",
          "type": "bool"
        }
      ],
      "payable": true,
      "stateMutability": "payable",
      "type": "function"
    },
    {
      "constant": false,
      "inputs": [
        {
          "name": "_amount",
          "type": "uint256"
        }
      ],
      "name": "withdraw",
      "outputs": [
        {
          "name": "",
          "type": "bool"
        }
      ],
      "payable": false,
      "stateMutability": "nonpayable",
      "type": "function"
    }
  ],
  "bytecode": "0x608060405234801561001057600080fd5b50610899806100206000396000f3fe60806040526004361061004a5760003560e01c80632e1a7d4d146100d25780633354f8a5146101085780636b55f4a51461011b578063aa67c91914610148578063d0e30db01461015b575b6100673361006234633b9aca0063ffffffff61016316565b610187565b6100843361007f34633b9aca0063ffffffff6101d016565b6101ed565b7fe1fffcc4923d04b559f4d29a8bfc6cda04eb5b0d3c460751c2402c5c5cc9109c336100ba34633b9aca0063ffffffff61016316565b6040516100c8929190610789565b60405180910390a1005b3480156100de57600080fd5b506100f26100ed3660046106c6565b610277565b6040516100ff91906107cc565b60405180910390f35b6100f2610116366004610656565b610303565b34801561012757600080fd5b5061013b610136366004610638565b610422565b6040516100ff91906107ea565b6100f2610156366004610638565b61045b565b6100f26104e6565b600080821161017157600080fd5b600082848161017c57fe5b049150505b92915050565b6001600160a01b0382166000908152602081905260409020546101b0908263ffffffff61056a16565b6001600160a01b0390921660009081526020819052604090209190915550565b6000816101dc57600080fd5b8183816101e557fe5b069392505050565b6000826001600160a01b0316826040516102069061077e565b60006040518083038185875af1925050503d8060008114610243576040519150601f19603f3d011682016040523d82523d6000602084013e610248565b606091505b50509050806102725760405162461bcd60e51b8152600401610269906107da565b60405180910390fd5b505050565b33600090815260208190526040812054610297908363ffffffff61058316565b336000818152602081905260409020919091556102c29061007f84633b9aca0063ffffffff61059816565b7f884edad9ce6fa2440d8a54cc123490eb96d2768479d49ff9c7366125a942436433836040516102f3929190610789565b60405180910390a1506001919050565b600083821461031157600080fd5b3460005b858110156104095761035985858381811061032c57fe5b90506020020160206103419190810190610638565b88888481811061034d57fe5b90506020020135610187565b610392610385633b9aca0089898581811061037057fe5b9050602002013561059890919063ffffffff16565b839063ffffffff61058316565b91507fcce62bfcdb09eddbe4e5ff5ec3bafdbabc25a52e1cf34f014a0a7a0864f9634c338888848181106103c257fe5b905060200201358787858181106103d557fe5b90506020020160206103ea9190810190610638565b6040516103f9939291906107a4565b60405180910390a1600101610315565b5061041433826101ed565b60019150505b949350505050565b61042a6105bf565b506001600160a01b031660009081526020818152604091829020825180840190935280548352600101549082015290565b60006001600160a01b03821661047057600080fd5b6104888261006234633b9aca0063ffffffff61016316565b6104a03361007f34633b9aca0063ffffffff6101d016565b7fcce62bfcdb09eddbe4e5ff5ec3bafdbabc25a52e1cf34f014a0a7a0864f9634c336104d634633b9aca0063ffffffff61016316565b846040516102f3939291906107a4565b60006105003361006234633b9aca0063ffffffff61016316565b6105183361007f34633b9aca0063ffffffff6101d016565b7fe1fffcc4923d04b559f4d29a8bfc6cda04eb5b0d3c460751c2402c5c5cc9109c3361054e34633b9aca0063ffffffff61016316565b60405161055c929190610789565b60405180910390a150600190565b60008282018381101561057c57600080fd5b9392505050565b60008282111561059257600080fd5b50900390565b6000826105a757506000610181565b828202828482816105b457fe5b041461057c57600080fd5b604051806040016040528060008152602001600081525090565b803561018181610836565b60008083601f8401126105f657600080fd5b50813567ffffffffffffffff81111561060e57600080fd5b60208301915083602082028301111561062657600080fd5b9250929050565b80356101818161084d565b60006020828403121561064a57600080fd5b600061041a84846105d9565b6000806000806040858703121561066c57600080fd5b843567ffffffffffffffff81111561068357600080fd5b61068f878288016105e4565b9450945050602085013567ffffffffffffffff8111156106ae57600080fd5b6106ba878288016105e4565b95989497509550505050565b6000602082840312156106d857600080fd5b600061041a848461062d565b6106ed81610825565b82525050565b6106ed81610806565b6106ed81610811565b60006107126017836107fd565b7f6e61746976652d7472616e736665722d6661696c6c6564000000000000000000815260200192915050565b60006101816000836107f8565b8051604083019061075c8482610775565b50602082015161076f6020850182610775565b50505050565b6106ed81610822565b60006101818261073e565b6040810161079782856106e4565b61057c6020830184610775565b606081016107b282866106e4565b6107bf6020830185610775565b61041a60408301846106f3565b6020810161018182846106fc565b6020808252810161018181610705565b60408101610181828461074b565b919050565b90815260200190565b600061018182610816565b151590565b6001600160a01b031690565b90565b600061018182600061018182610806565b61083f81610806565b811461084a57600080fd5b50565b61083f8161082256fea365627a7a72305820bed660917a1e996e292c43666acd6ad2caf64611387093431aaa1131b4e808d46c6578706572696d656e74616cf564736f6c634300050a0040",
  "source": "pragma solidity ^0.5.8;\npragma experimental ABIEncoderV2;\n\nimport \"iexec-solidity/contracts/ERC20_Token/IERC20.sol\";\nimport \"iexec-solidity/contracts/Libs/SafeMath.sol\";\n\nimport \"./libs/IexecODBLibCore.sol\";\n\ncontract Escrow\n{\n\tusing SafeMath for uint256;\n\n\t/**\n\t * Escrow content\n\t */\n\tmapping(address => IexecODBLibCore.Account) m_accounts;\n\n\tuint256 internal constant nRLCtoWei = 10 ** 9;\n\n\t/**\n\t * Events\n\t */\n\tevent Deposit   (address owner, uint256 amount);\n\tevent DepositFor(address owner, uint256 amount, address target);\n\tevent Withdraw  (address owner, uint256 amount);\n\tevent Reward    (address user,  uint256 amount, bytes32 ref);\n\tevent Seize     (address user,  uint256 amount, bytes32 ref);\n\tevent Lock      (address user,  uint256 amount);\n\tevent Unlock    (address user,  uint256 amount);\n\n\t/**\n\t * Constructor\n\t */\n\tconstructor()\n\tpublic\n\t{\n\t}\n\n\t/**\n\t * Accessor\n\t */\n\tfunction viewAccount(address _user)\n\texternal view returns (IexecODBLibCore.Account memory account)\n\t{\n\t\treturn m_accounts[_user];\n\t}\n\n\t/**\n\t * Wallet methods: public\n\t */\n\tfunction ()\n\texternal payable\n\t{\n\t\t_deposit     (msg.sender, msg.value.div(nRLCtoWei));\n\t\t_safeTransfer(msg.sender, msg.value.mod(nRLCtoWei));\n\t\temit Deposit(msg.sender, msg.value.div(nRLCtoWei));\n\t}\n\n\tfunction deposit()\n\texternal payable returns (bool)\n\t{\n\t\t_deposit     (msg.sender, msg.value.div(nRLCtoWei));\n\t\t_safeTransfer(msg.sender, msg.value.mod(nRLCtoWei));\n\t\temit Deposit(msg.sender, msg.value.div(nRLCtoWei));\n\t\treturn true;\n\t}\n\n\tfunction depositFor(address _target)\n\tpublic payable returns (bool)\n\t{\n\t\trequire      (_target != address(0));\n\t\t_deposit     (_target,    msg.value.div(nRLCtoWei));\n\t\t_safeTransfer(msg.sender, msg.value.mod(nRLCtoWei));\n\t\temit DepositFor(msg.sender, msg.value.div(nRLCtoWei), _target);\n\t\treturn true;\n\t}\n\n\tfunction depositForArray(uint256[] calldata _amounts, address[] calldata _targets)\n\texternal payable returns (bool)\n\t{\n\t\trequire(_amounts.length == _targets.length);\n\t\tuint256 remaining = msg.value;\n\t\tfor (uint i = 0; i < _amounts.length; ++i)\n\t\t{\n\t\t\t_deposit(_targets[i], _amounts[i]);\n\t\t\tremaining = remaining.sub(_amounts[i].mul(nRLCtoWei));\n\t\t\temit DepositFor(msg.sender, _amounts[i], _targets[i]);\n\t\t}\n\t\t_safeTransfer(msg.sender, remaining);\n\t\treturn true;\n\t}\n\n\tfunction _deposit(address _target, uint256 _amount)\n\tinternal\n\t{\n\t\tm_accounts[_target].stake = m_accounts[_target].stake.add(_amount);\n\t}\n\n\n\tfunction withdraw(uint256 _amount)\n\texternal returns (bool)\n\t{\n\t\tm_accounts[msg.sender].stake = m_accounts[msg.sender].stake.sub(_amount);\n\t\t_safeTransfer(msg.sender, _amount.mul(nRLCtoWei));\n\t\temit Withdraw(msg.sender, _amount);\n\t\treturn true;\n\t}\n\n\tfunction _safeTransfer(address payable to, uint256 value)\n\tinternal\n\t{\n\t\t(bool success, ) = to.call.value(value)('');\n\t\trequire(success, 'native-transfer-failled');\n\t}\n\n\t/**\n\t * Wallet methods: Internal\n\t */\n\tfunction reward(address _user, uint256 _amount, bytes32 _reference) internal /* returns (bool) */\n\t{\n\t\tm_accounts[_user].stake = m_accounts[_user].stake.add(_amount);\n\t\temit Reward(_user, _amount, _reference);\n\t\t/* return true; */\n\t}\n\tfunction seize(address _user, uint256 _amount, bytes32 _reference) internal /* returns (bool) */\n\t{\n\t\tm_accounts[_user].locked = m_accounts[_user].locked.sub(_amount);\n\t\temit Seize(_user, _amount, _reference);\n\t\t/* return true; */\n\t}\n\tfunction lock(address _user, uint256 _amount) internal /* returns (bool) */\n\t{\n\t\tm_accounts[_user].stake  = m_accounts[_user].stake.sub(_amount);\n\t\tm_accounts[_user].locked = m_accounts[_user].locked.add(_amount);\n\t\temit Lock(_user, _amount);\n\t\t/* return true; */\n\t}\n\tfunction unlock(address _user, uint256 _amount) internal /* returns (bool) */\n\t{\n\t\tm_accounts[_user].locked = m_accounts[_user].locked.sub(_amount);\n\t\tm_accounts[_user].stake  = m_accounts[_user].stake.add(_amount);\n\t\temit Unlock(_user, _amount);\n\t\t/* return true; */\n\t}\n}\n",
  "sourcePath": "/home/amxx/Work/iExec/code/PoCo-dev/contracts/Escrow.sol",
  "compiler": {
    "name": "solc",
    "version": "0.5.10+commit.5a6ea5b1.Emscripten.clang"
  },
  "schemaVersion": "3.0.16",
  "updatedAt": "2019-11-25T09:59:16.291Z",
  "devdoc": {
    "methods": {}
  },
  "userdoc": {
    "methods": {
      "constructor": "Constructor",
      "viewAccount(address)": {
        "notice": "Accessor"
      }
    }
  }
}