{
  "contractName": "IexecClerk",
  "abi": [
    {
      "constant": true,
      "inputs": [
        {
          "name": "_identity",
          "type": "address"
        },
        {
          "name": "_hash",
          "type": "bytes32"
        },
        {
          "name": "_signature",
          "type": "bytes"
        }
      ],
      "name": "verifySignature",
      "outputs": [
        {
          "name": "",
          "type": "bool"
        }
      ],
      "payable": false,
      "stateMutability": "view",
      "type": "function",
      "signature": "0x01751998"
    },
    {
      "constant": true,
      "inputs": [],
      "name": "EIP712DOMAIN_SEPARATOR",
      "outputs": [
        {
          "name": "",
          "type": "bytes32"
        }
      ],
      "payable": false,
      "stateMutability": "view",
      "type": "function",
      "signature": "0x047411e7"
    },
    {
      "constant": false,
      "inputs": [
        {
          "name": "_amount",
          "type": "uint256"
        }
      ],
      "name": "withdraw",
      "outputs": [
        {
          "name": "",
          "type": "bool"
        }
      ],
      "payable": false,
      "stateMutability": "nonpayable",
      "type": "function",
      "signature": "0x2e1a7d4d"
    },
    {
      "constant": false,
      "inputs": [
        {
          "name": "_amounts",
          "type": "uint256[]"
        },
        {
          "name": "_targets",
          "type": "address[]"
        }
      ],
      "name": "depositForArray",
      "outputs": [
        {
          "name": "",
          "type": "bool"
        }
      ],
      "payable": false,
      "stateMutability": "nonpayable",
      "type": "function",
      "signature": "0x3354f8a5"
    },
    {
      "constant": false,
      "inputs": [
        {
          "name": "_amount",
          "type": "uint256"
        },
        {
          "name": "_target",
          "type": "address"
        }
      ],
      "name": "depositFor",
      "outputs": [
        {
          "name": "",
          "type": "bool"
        }
      ],
      "payable": false,
      "stateMutability": "nonpayable",
      "type": "function",
      "signature": "0x36efd16f"
    },
    {
      "constant": true,
      "inputs": [
        {
          "name": "",
          "type": "bytes32"
        }
      ],
      "name": "m_presigned",
      "outputs": [
        {
          "name": "",
          "type": "bool"
        }
      ],
      "payable": false,
      "stateMutability": "view",
      "type": "function",
      "signature": "0x43f2c970"
    },
    {
      "constant": false,
      "inputs": [
        {
          "components": [
            {
              "name": "app",
              "type": "address"
            },
            {
              "name": "appmaxprice",
              "type": "uint256"
            },
            {
              "name": "dataset",
              "type": "address"
            },
            {
              "name": "datasetmaxprice",
              "type": "uint256"
            },
            {
              "name": "workerpool",
              "type": "address"
            },
            {
              "name": "workerpoolmaxprice",
              "type": "uint256"
            },
            {
              "name": "requester",
              "type": "address"
            },
            {
              "name": "volume",
              "type": "uint256"
            },
            {
              "name": "tag",
              "type": "bytes32"
            },
            {
              "name": "category",
              "type": "uint256"
            },
            {
              "name": "trust",
              "type": "uint256"
            },
            {
              "name": "beneficiary",
              "type": "address"
            },
            {
              "name": "callback",
              "type": "address"
            },
            {
              "name": "params",
              "type": "string"
            },
            {
              "name": "salt",
              "type": "bytes32"
            },
            {
              "name": "sign",
              "type": "bytes"
            }
          ],
          "name": "_requestorder",
          "type": "tuple"
        }
      ],
      "name": "broadcastRequestOrder",
      "outputs": [],
      "payable": false,
      "stateMutability": "nonpayable",
      "type": "function",
      "signature": "0x4693d172"
    },
    {
      "constant": false,
      "inputs": [
        {
          "components": [
            {
              "name": "dataset",
              "type": "address"
            },
            {
              "name": "datasetprice",
              "type": "uint256"
            },
            {
              "name": "volume",
              "type": "uint256"
            },
            {
              "name": "tag",
              "type": "bytes32"
            },
            {
              "name": "apprestrict",
              "type": "address"
            },
            {
              "name": "workerpoolrestrict",
              "type": "address"
            },
            {
              "name": "requesterrestrict",
              "type": "address"
            },
            {
              "name": "salt",
              "type": "bytes32"
            },
            {
              "name": "sign",
              "type": "bytes"
            }
          ],
          "name": "_datasetorder",
          "type": "tuple"
        }
      ],
      "name": "broadcastDatasetOrder",
      "outputs": [],
      "payable": false,
      "stateMutability": "nonpayable",
      "type": "function",
      "signature": "0x4c4692de"
    },
    {
      "constant": true,
      "inputs": [],
      "name": "WORKERPOOL_STAKE_RATIO",
      "outputs": [
        {
          "name": "",
          "type": "uint256"
        }
      ],
      "payable": false,
      "stateMutability": "view",
      "type": "function",
      "signature": "0x4ec3b9e3"
    },
    {
      "constant": true,
      "inputs": [],
      "name": "KITTY_RATIO",
      "outputs": [
        {
          "name": "",
          "type": "uint256"
        }
      ],
      "payable": false,
      "stateMutability": "view",
      "type": "function",
      "signature": "0x51152de1"
    },
    {
      "constant": true,
      "inputs": [],
      "name": "GROUPMEMBER_PURPOSE",
      "outputs": [
        {
          "name": "",
          "type": "uint256"
        }
      ],
      "payable": false,
      "stateMutability": "view",
      "type": "function",
      "signature": "0x68a9ef1c"
    },
    {
      "constant": true,
      "inputs": [
        {
          "name": "_user",
          "type": "address"
        }
      ],
      "name": "viewAccount",
      "outputs": [
        {
          "components": [
            {
              "name": "stake",
              "type": "uint256"
            },
            {
              "name": "locked",
              "type": "uint256"
            }
          ],
          "name": "account",
          "type": "tuple"
        }
      ],
      "payable": false,
      "stateMutability": "view",
      "type": "function",
      "signature": "0x6b55f4a5"
    },
    {
      "constant": true,
      "inputs": [],
      "name": "POOL_STAKE_RATIO",
      "outputs": [
        {
          "name": "",
          "type": "uint256"
        }
      ],
      "payable": false,
      "stateMutability": "view",
      "type": "function",
      "signature": "0x709ce02b"
    },
    {
      "constant": true,
      "inputs": [],
      "name": "iexechub",
      "outputs": [
        {
          "name": "",
          "type": "address"
        }
      ],
      "payable": false,
      "stateMutability": "view",
      "type": "function",
      "signature": "0x8d52e413"
    },
    {
      "constant": false,
      "inputs": [
        {
          "components": [
            {
              "name": "workerpool",
              "type": "address"
            },
            {
              "name": "workerpoolprice",
              "type": "uint256"
            },
            {
              "name": "volume",
              "type": "uint256"
            },
            {
              "name": "tag",
              "type": "bytes32"
            },
            {
              "name": "category",
              "type": "uint256"
            },
            {
              "name": "trust",
              "type": "uint256"
            },
            {
              "name": "apprestrict",
              "type": "address"
            },
            {
              "name": "datasetrestrict",
              "type": "address"
            },
            {
              "name": "requesterrestrict",
              "type": "address"
            },
            {
              "name": "salt",
              "type": "bytes32"
            },
            {
              "name": "sign",
              "type": "bytes"
            }
          ],
          "name": "_workerpoolorder",
          "type": "tuple"
        }
      ],
      "name": "broadcastWorkerpoolOrder",
      "outputs": [],
      "payable": false,
      "stateMutability": "nonpayable",
      "type": "function",
      "signature": "0x947f5178"
    },
    {
      "constant": true,
      "inputs": [
        {
          "name": "",
          "type": "bytes32"
        },
        {
          "name": "",
          "type": "uint256"
        }
      ],
      "name": "m_requestdeals",
      "outputs": [
        {
          "name": "",
          "type": "bytes32"
        }
      ],
      "payable": false,
      "stateMutability": "view",
      "type": "function",
      "signature": "0xb31231de"
    },
    {
      "constant": false,
      "inputs": [
        {
          "name": "_amount",
          "type": "uint256"
        }
      ],
      "name": "deposit",
      "outputs": [
        {
          "name": "",
          "type": "bool"
        }
      ],
      "payable": false,
      "stateMutability": "nonpayable",
      "type": "function",
      "signature": "0xb6b55f25"
    },
    {
      "constant": false,
      "inputs": [
        {
          "components": [
            {
              "name": "app",
              "type": "address"
            },
            {
              "name": "appprice",
              "type": "uint256"
            },
            {
              "name": "volume",
              "type": "uint256"
            },
            {
              "name": "tag",
              "type": "bytes32"
            },
            {
              "name": "datasetrestrict",
              "type": "address"
            },
            {
              "name": "workerpoolrestrict",
              "type": "address"
            },
            {
              "name": "requesterrestrict",
              "type": "address"
            },
            {
              "name": "salt",
              "type": "bytes32"
            },
            {
              "name": "sign",
              "type": "bytes"
            }
          ],
          "name": "_apporder",
          "type": "tuple"
        }
      ],
      "name": "broadcastAppOrder",
      "outputs": [],
      "payable": false,
      "stateMutability": "nonpayable",
      "type": "function",
      "signature": "0xc52e9de1"
    },
    {
      "constant": true,
      "inputs": [],
      "name": "KITTY_MIN",
      "outputs": [
        {
          "name": "",
          "type": "uint256"
        }
      ],
      "payable": false,
      "stateMutability": "view",
      "type": "function",
      "signature": "0xe2e7a8c1"
    },
    {
      "constant": true,
      "inputs": [
        {
          "name": "",
          "type": "bytes32"
        }
      ],
      "name": "m_consumed",
      "outputs": [
        {
          "name": "",
          "type": "uint256"
        }
      ],
      "payable": false,
      "stateMutability": "view",
      "type": "function",
      "signature": "0xe3035ace"
    },
    {
      "constant": true,
      "inputs": [],
      "name": "token",
      "outputs": [
        {
          "name": "",
          "type": "address"
        }
      ],
      "payable": false,
      "stateMutability": "view",
      "type": "function",
      "signature": "0xfc0c546a"
    },
    {
      "inputs": [
        {
          "name": "_token",
          "type": "address"
        },
        {
          "name": "_iexechub",
          "type": "address"
        },
        {
          "name": "_chainid",
          "type": "uint256"
        }
      ],
      "payable": false,
      "stateMutability": "nonpayable",
      "type": "constructor",
      "signature": "constructor"
    },
    {
      "anonymous": false,
      "inputs": [
        {
          "indexed": false,
          "name": "dealid",
          "type": "bytes32"
        },
        {
          "indexed": false,
          "name": "appHash",
          "type": "bytes32"
        },
        {
          "indexed": false,
          "name": "datasetHash",
          "type": "bytes32"
        },
        {
          "indexed": false,
          "name": "workerpoolHash",
          "type": "bytes32"
        },
        {
          "indexed": false,
          "name": "requestHash",
          "type": "bytes32"
        },
        {
          "indexed": false,
          "name": "volume",
          "type": "uint256"
        }
      ],
      "name": "OrdersMatched",
      "type": "event",
      "signature": "0xd811b592ed0899225773e8933d8df64bd0b62761a9d7aad4ed5b22735f4610a4"
    },
    {
      "anonymous": false,
      "inputs": [
        {
          "indexed": false,
          "name": "appHash",
          "type": "bytes32"
        }
      ],
      "name": "ClosedAppOrder",
      "type": "event",
      "signature": "0x7343f75be43aba524f85326508cd975d016ef7884676377366c69a7c32e30668"
    },
    {
      "anonymous": false,
      "inputs": [
        {
          "indexed": false,
          "name": "datasetHash",
          "type": "bytes32"
        }
      ],
      "name": "ClosedDatasetOrder",
      "type": "event",
      "signature": "0xcf52e3228bc482a6656d8ab56c09888b1c5bf6aaadba0185e96a34836f2bb1d4"
    },
    {
      "anonymous": false,
      "inputs": [
        {
          "indexed": false,
          "name": "workerpoolHash",
          "type": "bytes32"
        }
      ],
      "name": "ClosedWorkerpoolOrder",
      "type": "event",
      "signature": "0x145ad51e4496173bca15e24e7eb46f9ab3a10eea0497e2801a3a6806c06113a3"
    },
    {
      "anonymous": false,
      "inputs": [
        {
          "indexed": false,
          "name": "requestHash",
          "type": "bytes32"
        }
      ],
      "name": "ClosedRequestOrder",
      "type": "event",
      "signature": "0x582f43f2a741cbe708aae3b8d38a4efc3d09d7e81919697b3ca693f4c444cc05"
    },
    {
      "anonymous": false,
      "inputs": [
        {
          "indexed": true,
          "name": "workerpool",
          "type": "address"
        },
        {
          "indexed": false,
          "name": "dealid",
          "type": "bytes32"
        }
      ],
      "name": "SchedulerNotice",
      "type": "event",
      "signature": "0x692ad61076dceddd0f1a861f737553dd61fc8501cf4190d29c4e90af6607f765"
    },
    {
      "anonymous": false,
      "inputs": [
        {
          "components": [
            {
              "name": "app",
              "type": "address"
            },
            {
              "name": "appprice",
              "type": "uint256"
            },
            {
              "name": "volume",
              "type": "uint256"
            },
            {
              "name": "tag",
              "type": "bytes32"
            },
            {
              "name": "datasetrestrict",
              "type": "address"
            },
            {
              "name": "workerpoolrestrict",
              "type": "address"
            },
            {
              "name": "requesterrestrict",
              "type": "address"
            },
            {
              "name": "salt",
              "type": "bytes32"
            },
            {
              "name": "sign",
              "type": "bytes"
            }
          ],
          "indexed": false,
          "name": "apporder",
          "type": "tuple"
        }
      ],
      "name": "BroadcastAppOrder",
      "type": "event",
      "signature": "0x6fd493f856b22df174df46975d6dcf0895c7dfb3c63d20179c0dcd5563e2f565"
    },
    {
      "anonymous": false,
      "inputs": [
        {
          "components": [
            {
              "name": "dataset",
              "type": "address"
            },
            {
              "name": "datasetprice",
              "type": "uint256"
            },
            {
              "name": "volume",
              "type": "uint256"
            },
            {
              "name": "tag",
              "type": "bytes32"
            },
            {
              "name": "apprestrict",
              "type": "address"
            },
            {
              "name": "workerpoolrestrict",
              "type": "address"
            },
            {
              "name": "requesterrestrict",
              "type": "address"
            },
            {
              "name": "salt",
              "type": "bytes32"
            },
            {
              "name": "sign",
              "type": "bytes"
            }
          ],
          "indexed": false,
          "name": "datasetorder",
          "type": "tuple"
        }
      ],
      "name": "BroadcastDatasetOrder",
      "type": "event",
      "signature": "0xc56d982ad2fd39ebadca073cc88d9bdaee0f4c8e7b2b6be50227169daefc7b3f"
    },
    {
      "anonymous": false,
      "inputs": [
        {
          "components": [
            {
              "name": "workerpool",
              "type": "address"
            },
            {
              "name": "workerpoolprice",
              "type": "uint256"
            },
            {
              "name": "volume",
              "type": "uint256"
            },
            {
              "name": "tag",
              "type": "bytes32"
            },
            {
              "name": "category",
              "type": "uint256"
            },
            {
              "name": "trust",
              "type": "uint256"
            },
            {
              "name": "apprestrict",
              "type": "address"
            },
            {
              "name": "datasetrestrict",
              "type": "address"
            },
            {
              "name": "requesterrestrict",
              "type": "address"
            },
            {
              "name": "salt",
              "type": "bytes32"
            },
            {
              "name": "sign",
              "type": "bytes"
            }
          ],
          "indexed": false,
          "name": "workerpoolorder",
          "type": "tuple"
        }
      ],
      "name": "BroadcastWorkerpoolOrder",
      "type": "event",
      "signature": "0xaf81a046e31ebb2be305579e585ac6b2ee3fdc2dc9dba806bb826879bb2c7851"
    },
    {
      "anonymous": false,
      "inputs": [
        {
          "components": [
            {
              "name": "app",
              "type": "address"
            },
            {
              "name": "appmaxprice",
              "type": "uint256"
            },
            {
              "name": "dataset",
              "type": "address"
            },
            {
              "name": "datasetmaxprice",
              "type": "uint256"
            },
            {
              "name": "workerpool",
              "type": "address"
            },
            {
              "name": "workerpoolmaxprice",
              "type": "uint256"
            },
            {
              "name": "requester",
              "type": "address"
            },
            {
              "name": "volume",
              "type": "uint256"
            },
            {
              "name": "tag",
              "type": "bytes32"
            },
            {
              "name": "category",
              "type": "uint256"
            },
            {
              "name": "trust",
              "type": "uint256"
            },
            {
              "name": "beneficiary",
              "type": "address"
            },
            {
              "name": "callback",
              "type": "address"
            },
            {
              "name": "params",
              "type": "string"
            },
            {
              "name": "salt",
              "type": "bytes32"
            },
            {
              "name": "sign",
              "type": "bytes"
            }
          ],
          "indexed": false,
          "name": "requestorder",
          "type": "tuple"
        }
      ],
      "name": "BroadcastRequestOrder",
      "type": "event",
      "signature": "0x54bee205d9b03332d6dc82bc907476dfef6ed4fd86058d49a72994baee781175"
    },
    {
      "anonymous": false,
      "inputs": [
        {
          "indexed": false,
          "name": "owner",
          "type": "address"
        },
        {
          "indexed": false,
          "name": "amount",
          "type": "uint256"
        }
      ],
      "name": "Deposit",
      "type": "event",
      "signature": "0xe1fffcc4923d04b559f4d29a8bfc6cda04eb5b0d3c460751c2402c5c5cc9109c"
    },
    {
      "anonymous": false,
      "inputs": [
        {
          "indexed": false,
          "name": "owner",
          "type": "address"
        },
        {
          "indexed": false,
          "name": "amount",
          "type": "uint256"
        },
        {
          "indexed": false,
          "name": "target",
          "type": "address"
        }
      ],
      "name": "DepositFor",
      "type": "event",
      "signature": "0xcce62bfcdb09eddbe4e5ff5ec3bafdbabc25a52e1cf34f014a0a7a0864f9634c"
    },
    {
      "anonymous": false,
      "inputs": [
        {
          "indexed": false,
          "name": "owner",
          "type": "address"
        },
        {
          "indexed": false,
          "name": "amount",
          "type": "uint256"
        }
      ],
      "name": "Withdraw",
      "type": "event",
      "signature": "0x884edad9ce6fa2440d8a54cc123490eb96d2768479d49ff9c7366125a9424364"
    },
    {
      "anonymous": false,
      "inputs": [
        {
          "indexed": false,
          "name": "user",
          "type": "address"
        },
        {
          "indexed": false,
          "name": "amount",
          "type": "uint256"
        },
        {
          "indexed": false,
          "name": "ref",
          "type": "bytes32"
        }
      ],
      "name": "Reward",
      "type": "event",
      "signature": "0xc2aca55aa696938c7e95842e8939ca0fbb2120a3eeb8948cdcee2b70da566672"
    },
    {
      "anonymous": false,
      "inputs": [
        {
          "indexed": false,
          "name": "user",
          "type": "address"
        },
        {
          "indexed": false,
          "name": "amount",
          "type": "uint256"
        },
        {
          "indexed": false,
          "name": "ref",
          "type": "bytes32"
        }
      ],
      "name": "Seize",
      "type": "event",
      "signature": "0x1bccc549c38561cd5b57f0db11ceb8dde1b0b6ee05ab5e155b51c7c5ba64becb"
    },
    {
      "anonymous": false,
      "inputs": [
        {
          "indexed": false,
          "name": "user",
          "type": "address"
        },
        {
          "indexed": false,
          "name": "amount",
          "type": "uint256"
        }
      ],
      "name": "Lock",
      "type": "event",
      "signature": "0x625fed9875dada8643f2418b838ae0bc78d9a148a18eee4ee1979ff0f3f5d427"
    },
    {
      "anonymous": false,
      "inputs": [
        {
          "indexed": false,
          "name": "user",
          "type": "address"
        },
        {
          "indexed": false,
          "name": "amount",
          "type": "uint256"
        }
      ],
      "name": "Unlock",
      "type": "event",
      "signature": "0x6381d9813cabeb57471b5a7e05078e64845ccdb563146a6911d536f24ce960f1"
    },
    {
      "constant": true,
      "inputs": [
        {
          "name": "_id",
          "type": "bytes32"
        }
      ],
      "name": "viewRequestDeals",
      "outputs": [
        {
          "name": "requestdeals",
          "type": "bytes32[]"
        }
      ],
      "payable": false,
      "stateMutability": "view",
      "type": "function",
      "signature": "0x6dc2df05"
    },
    {
      "constant": true,
      "inputs": [
        {
          "name": "_id",
          "type": "bytes32"
        }
      ],
      "name": "viewDeal",
      "outputs": [
        {
          "components": [
            {
              "components": [
                {
                  "name": "pointer",
                  "type": "address"
                },
                {
                  "name": "owner",
                  "type": "address"
                },
                {
                  "name": "price",
                  "type": "uint256"
                }
              ],
              "name": "app",
              "type": "tuple"
            },
            {
              "components": [
                {
                  "name": "pointer",
                  "type": "address"
                },
                {
                  "name": "owner",
                  "type": "address"
                },
                {
                  "name": "price",
                  "type": "uint256"
                }
              ],
              "name": "dataset",
              "type": "tuple"
            },
            {
              "components": [
                {
                  "name": "pointer",
                  "type": "address"
                },
                {
                  "name": "owner",
                  "type": "address"
                },
                {
                  "name": "price",
                  "type": "uint256"
                }
              ],
              "name": "workerpool",
              "type": "tuple"
            },
            {
              "name": "trust",
              "type": "uint256"
            },
            {
              "name": "category",
              "type": "uint256"
            },
            {
              "name": "tag",
              "type": "bytes32"
            },
            {
              "name": "requester",
              "type": "address"
            },
            {
              "name": "beneficiary",
              "type": "address"
            },
            {
              "name": "callback",
              "type": "address"
            },
            {
              "name": "params",
              "type": "string"
            },
            {
              "name": "startTime",
              "type": "uint256"
            },
            {
              "name": "botFirst",
              "type": "uint256"
            },
            {
              "name": "botSize",
              "type": "uint256"
            },
            {
              "name": "workerStake",
              "type": "uint256"
            },
            {
              "name": "schedulerRewardRatio",
              "type": "uint256"
            }
          ],
          "name": "deal",
          "type": "tuple"
        }
      ],
      "payable": false,
      "stateMutability": "view",
      "type": "function",
      "signature": "0xb74861b2"
    },
    {
      "constant": true,
      "inputs": [
        {
          "name": "_id",
          "type": "bytes32"
        }
      ],
      "name": "viewConsumed",
      "outputs": [
        {
          "name": "consumed",
          "type": "uint256"
        }
      ],
      "payable": false,
      "stateMutability": "view",
      "type": "function",
      "signature": "0x4b2bec8c"
    },
    {
      "constant": true,
      "inputs": [
        {
          "name": "_id",
          "type": "bytes32"
        }
      ],
      "name": "viewPresigned",
      "outputs": [
        {
          "name": "presigned",
          "type": "bool"
        }
      ],
      "payable": false,
      "stateMutability": "view",
      "type": "function",
      "signature": "0xd286eb16"
    },
    {
      "constant": false,
      "inputs": [
        {
          "components": [
            {
              "name": "app",
              "type": "address"
            },
            {
              "name": "appprice",
              "type": "uint256"
            },
            {
              "name": "volume",
              "type": "uint256"
            },
            {
              "name": "tag",
              "type": "bytes32"
            },
            {
              "name": "datasetrestrict",
              "type": "address"
            },
            {
              "name": "workerpoolrestrict",
              "type": "address"
            },
            {
              "name": "requesterrestrict",
              "type": "address"
            },
            {
              "name": "salt",
              "type": "bytes32"
            },
            {
              "name": "sign",
              "type": "bytes"
            }
          ],
          "name": "_apporder",
          "type": "tuple"
        }
      ],
      "name": "signAppOrder",
      "outputs": [
        {
          "name": "",
          "type": "bool"
        }
      ],
      "payable": false,
      "stateMutability": "nonpayable",
      "type": "function",
      "signature": "0x6cb9012e"
    },
    {
      "constant": false,
      "inputs": [
        {
          "components": [
            {
              "name": "dataset",
              "type": "address"
            },
            {
              "name": "datasetprice",
              "type": "uint256"
            },
            {
              "name": "volume",
              "type": "uint256"
            },
            {
              "name": "tag",
              "type": "bytes32"
            },
            {
              "name": "apprestrict",
              "type": "address"
            },
            {
              "name": "workerpoolrestrict",
              "type": "address"
            },
            {
              "name": "requesterrestrict",
              "type": "address"
            },
            {
              "name": "salt",
              "type": "bytes32"
            },
            {
              "name": "sign",
              "type": "bytes"
            }
          ],
          "name": "_datasetorder",
          "type": "tuple"
        }
      ],
      "name": "signDatasetOrder",
      "outputs": [
        {
          "name": "",
          "type": "bool"
        }
      ],
      "payable": false,
      "stateMutability": "nonpayable",
      "type": "function",
      "signature": "0xa3b37a79"
    },
    {
      "constant": false,
      "inputs": [
        {
          "components": [
            {
              "name": "workerpool",
              "type": "address"
            },
            {
              "name": "workerpoolprice",
              "type": "uint256"
            },
            {
              "name": "volume",
              "type": "uint256"
            },
            {
              "name": "tag",
              "type": "bytes32"
            },
            {
              "name": "category",
              "type": "uint256"
            },
            {
              "name": "trust",
              "type": "uint256"
            },
            {
              "name": "apprestrict",
              "type": "address"
            },
            {
              "name": "datasetrestrict",
              "type": "address"
            },
            {
              "name": "requesterrestrict",
              "type": "address"
            },
            {
              "name": "salt",
              "type": "bytes32"
            },
            {
              "name": "sign",
              "type": "bytes"
            }
          ],
          "name": "_workerpoolorder",
          "type": "tuple"
        }
      ],
      "name": "signWorkerpoolOrder",
      "outputs": [
        {
          "name": "",
          "type": "bool"
        }
      ],
      "payable": false,
      "stateMutability": "nonpayable",
      "type": "function",
      "signature": "0x6a6e0bed"
    },
    {
      "constant": false,
      "inputs": [
        {
          "components": [
            {
              "name": "app",
              "type": "address"
            },
            {
              "name": "appmaxprice",
              "type": "uint256"
            },
            {
              "name": "dataset",
              "type": "address"
            },
            {
              "name": "datasetmaxprice",
              "type": "uint256"
            },
            {
              "name": "workerpool",
              "type": "address"
            },
            {
              "name": "workerpoolmaxprice",
              "type": "uint256"
            },
            {
              "name": "requester",
              "type": "address"
            },
            {
              "name": "volume",
              "type": "uint256"
            },
            {
              "name": "tag",
              "type": "bytes32"
            },
            {
              "name": "category",
              "type": "uint256"
            },
            {
              "name": "trust",
              "type": "uint256"
            },
            {
              "name": "beneficiary",
              "type": "address"
            },
            {
              "name": "callback",
              "type": "address"
            },
            {
              "name": "params",
              "type": "string"
            },
            {
              "name": "salt",
              "type": "bytes32"
            },
            {
              "name": "sign",
              "type": "bytes"
            }
          ],
          "name": "_requestorder",
          "type": "tuple"
        }
      ],
      "name": "signRequestOrder",
      "outputs": [
        {
          "name": "",
          "type": "bool"
        }
      ],
      "payable": false,
      "stateMutability": "nonpayable",
      "type": "function",
      "signature": "0x732e498d"
    },
    {
      "constant": false,
      "inputs": [
        {
          "components": [
            {
              "name": "app",
              "type": "address"
            },
            {
              "name": "appprice",
              "type": "uint256"
            },
            {
              "name": "volume",
              "type": "uint256"
            },
            {
              "name": "tag",
              "type": "bytes32"
            },
            {
              "name": "datasetrestrict",
              "type": "address"
            },
            {
              "name": "workerpoolrestrict",
              "type": "address"
            },
            {
              "name": "requesterrestrict",
              "type": "address"
            },
            {
              "name": "salt",
              "type": "bytes32"
            },
            {
              "name": "sign",
              "type": "bytes"
            }
          ],
          "name": "_apporder",
          "type": "tuple"
        },
        {
          "components": [
            {
              "name": "dataset",
              "type": "address"
            },
            {
              "name": "datasetprice",
              "type": "uint256"
            },
            {
              "name": "volume",
              "type": "uint256"
            },
            {
              "name": "tag",
              "type": "bytes32"
            },
            {
              "name": "apprestrict",
              "type": "address"
            },
            {
              "name": "workerpoolrestrict",
              "type": "address"
            },
            {
              "name": "requesterrestrict",
              "type": "address"
            },
            {
              "name": "salt",
              "type": "bytes32"
            },
            {
              "name": "sign",
              "type": "bytes"
            }
          ],
          "name": "_datasetorder",
          "type": "tuple"
        },
        {
          "components": [
            {
              "name": "workerpool",
              "type": "address"
            },
            {
              "name": "workerpoolprice",
              "type": "uint256"
            },
            {
              "name": "volume",
              "type": "uint256"
            },
            {
              "name": "tag",
              "type": "bytes32"
            },
            {
              "name": "category",
              "type": "uint256"
            },
            {
              "name": "trust",
              "type": "uint256"
            },
            {
              "name": "apprestrict",
              "type": "address"
            },
            {
              "name": "datasetrestrict",
              "type": "address"
            },
            {
              "name": "requesterrestrict",
              "type": "address"
            },
            {
              "name": "salt",
              "type": "bytes32"
            },
            {
              "name": "sign",
              "type": "bytes"
            }
          ],
          "name": "_workerpoolorder",
          "type": "tuple"
        },
        {
          "components": [
            {
              "name": "app",
              "type": "address"
            },
            {
              "name": "appmaxprice",
              "type": "uint256"
            },
            {
              "name": "dataset",
              "type": "address"
            },
            {
              "name": "datasetmaxprice",
              "type": "uint256"
            },
            {
              "name": "workerpool",
              "type": "address"
            },
            {
              "name": "workerpoolmaxprice",
              "type": "uint256"
            },
            {
              "name": "requester",
              "type": "address"
            },
            {
              "name": "volume",
              "type": "uint256"
            },
            {
              "name": "tag",
              "type": "bytes32"
            },
            {
              "name": "category",
              "type": "uint256"
            },
            {
              "name": "trust",
              "type": "uint256"
            },
            {
              "name": "beneficiary",
              "type": "address"
            },
            {
              "name": "callback",
              "type": "address"
            },
            {
              "name": "params",
              "type": "string"
            },
            {
              "name": "salt",
              "type": "bytes32"
            },
            {
              "name": "sign",
              "type": "bytes"
            }
          ],
          "name": "_requestorder",
          "type": "tuple"
        }
      ],
      "name": "matchOrders",
      "outputs": [
        {
          "name": "",
          "type": "bytes32"
        }
      ],
      "payable": false,
      "stateMutability": "nonpayable",
      "type": "function",
      "signature": "0x156194d4"
    },
    {
      "constant": false,
      "inputs": [
        {
          "components": [
            {
              "name": "app",
              "type": "address"
            },
            {
              "name": "appprice",
              "type": "uint256"
            },
            {
              "name": "volume",
              "type": "uint256"
            },
            {
              "name": "tag",
              "type": "bytes32"
            },
            {
              "name": "datasetrestrict",
              "type": "address"
            },
            {
              "name": "workerpoolrestrict",
              "type": "address"
            },
            {
              "name": "requesterrestrict",
              "type": "address"
            },
            {
              "name": "salt",
              "type": "bytes32"
            },
            {
              "name": "sign",
              "type": "bytes"
            }
          ],
          "name": "_apporder",
          "type": "tuple"
        }
      ],
      "name": "cancelAppOrder",
      "outputs": [
        {
          "name": "",
          "type": "bool"
        }
      ],
      "payable": false,
      "stateMutability": "nonpayable",
      "type": "function",
      "signature": "0x84724ddf"
    },
    {
      "constant": false,
      "inputs": [
        {
          "components": [
            {
              "name": "dataset",
              "type": "address"
            },
            {
              "name": "datasetprice",
              "type": "uint256"
            },
            {
              "name": "volume",
              "type": "uint256"
            },
            {
              "name": "tag",
              "type": "bytes32"
            },
            {
              "name": "apprestrict",
              "type": "address"
            },
            {
              "name": "workerpoolrestrict",
              "type": "address"
            },
            {
              "name": "requesterrestrict",
              "type": "address"
            },
            {
              "name": "salt",
              "type": "bytes32"
            },
            {
              "name": "sign",
              "type": "bytes"
            }
          ],
          "name": "_datasetorder",
          "type": "tuple"
        }
      ],
      "name": "cancelDatasetOrder",
      "outputs": [
        {
          "name": "",
          "type": "bool"
        }
      ],
      "payable": false,
      "stateMutability": "nonpayable",
      "type": "function",
      "signature": "0x555859c7"
    },
    {
      "constant": false,
      "inputs": [
        {
          "components": [
            {
              "name": "workerpool",
              "type": "address"
            },
            {
              "name": "workerpoolprice",
              "type": "uint256"
            },
            {
              "name": "volume",
              "type": "uint256"
            },
            {
              "name": "tag",
              "type": "bytes32"
            },
            {
              "name": "category",
              "type": "uint256"
            },
            {
              "name": "trust",
              "type": "uint256"
            },
            {
              "name": "apprestrict",
              "type": "address"
            },
            {
              "name": "datasetrestrict",
              "type": "address"
            },
            {
              "name": "requesterrestrict",
              "type": "address"
            },
            {
              "name": "salt",
              "type": "bytes32"
            },
            {
              "name": "sign",
              "type": "bytes"
            }
          ],
          "name": "_workerpoolorder",
          "type": "tuple"
        }
      ],
      "name": "cancelWorkerpoolOrder",
      "outputs": [
        {
          "name": "",
          "type": "bool"
        }
      ],
      "payable": false,
      "stateMutability": "nonpayable",
      "type": "function",
      "signature": "0xae510d19"
    },
    {
      "constant": false,
      "inputs": [
        {
          "components": [
            {
              "name": "app",
              "type": "address"
            },
            {
              "name": "appmaxprice",
              "type": "uint256"
            },
            {
              "name": "dataset",
              "type": "address"
            },
            {
              "name": "datasetmaxprice",
              "type": "uint256"
            },
            {
              "name": "workerpool",
              "type": "address"
            },
            {
              "name": "workerpoolmaxprice",
              "type": "uint256"
            },
            {
              "name": "requester",
              "type": "address"
            },
            {
              "name": "volume",
              "type": "uint256"
            },
            {
              "name": "tag",
              "type": "bytes32"
            },
            {
              "name": "category",
              "type": "uint256"
            },
            {
              "name": "trust",
              "type": "uint256"
            },
            {
              "name": "beneficiary",
              "type": "address"
            },
            {
              "name": "callback",
              "type": "address"
            },
            {
              "name": "params",
              "type": "string"
            },
            {
              "name": "salt",
              "type": "bytes32"
            },
            {
              "name": "sign",
              "type": "bytes"
            }
          ],
          "name": "_requestorder",
          "type": "tuple"
        }
      ],
      "name": "cancelRequestOrder",
      "outputs": [
        {
          "name": "",
          "type": "bool"
        }
      ],
      "payable": false,
      "stateMutability": "nonpayable",
      "type": "function",
      "signature": "0x38a754b4"
    },
    {
      "constant": false,
      "inputs": [
        {
          "name": "_dealid",
          "type": "bytes32"
        },
        {
          "name": "_worker",
          "type": "address"
        }
      ],
      "name": "lockContribution",
      "outputs": [],
      "payable": false,
      "stateMutability": "nonpayable",
      "type": "function",
      "signature": "0xe798491a"
    },
    {
      "constant": false,
      "inputs": [
        {
          "name": "_dealid",
          "type": "bytes32"
        },
        {
          "name": "_worker",
          "type": "address"
        }
      ],
      "name": "unlockContribution",
      "outputs": [],
      "payable": false,
      "stateMutability": "nonpayable",
      "type": "function",
      "signature": "0x6eb528b5"
    },
    {
      "constant": false,
      "inputs": [
        {
          "name": "_dealid",
          "type": "bytes32"
        },
        {
          "name": "_worker",
          "type": "address"
        },
        {
          "name": "_amount",
          "type": "uint256"
        },
        {
          "name": "_taskid",
          "type": "bytes32"
        }
      ],
      "name": "unlockAndRewardForContribution",
      "outputs": [],
      "payable": false,
      "stateMutability": "nonpayable",
      "type": "function",
      "signature": "0xa3f0ec58"
    },
    {
      "constant": false,
      "inputs": [
        {
          "name": "_dealid",
          "type": "bytes32"
        },
        {
          "name": "_worker",
          "type": "address"
        },
        {
          "name": "_taskid",
          "type": "bytes32"
        }
      ],
      "name": "seizeContribution",
      "outputs": [],
      "payable": false,
      "stateMutability": "nonpayable",
      "type": "function",
      "signature": "0x9f0c9d6e"
    },
    {
      "constant": false,
      "inputs": [
        {
          "name": "_dealid",
          "type": "bytes32"
        },
        {
          "name": "_amount",
          "type": "uint256"
        },
        {
          "name": "_taskid",
          "type": "bytes32"
        }
      ],
      "name": "rewardForScheduling",
      "outputs": [],
      "payable": false,
      "stateMutability": "nonpayable",
      "type": "function",
      "signature": "0xa1f3496c"
    },
    {
      "constant": false,
      "inputs": [
        {
          "name": "_dealid",
          "type": "bytes32"
        },
        {
          "name": "_taskid",
          "type": "bytes32"
        }
      ],
      "name": "successWork",
      "outputs": [],
      "payable": false,
      "stateMutability": "nonpayable",
      "type": "function",
      "signature": "0x70c4c277"
    },
    {
      "constant": false,
      "inputs": [
        {
          "name": "_dealid",
          "type": "bytes32"
        },
        {
          "name": "_taskid",
          "type": "bytes32"
        }
      ],
      "name": "failedWork",
      "outputs": [],
      "payable": false,
      "stateMutability": "nonpayable",
      "type": "function",
      "signature": "0x51a0942f"
    },
    {
      "constant": true,
      "inputs": [
        {
          "name": "_id",
          "type": "bytes32"
        }
      ],
      "name": "viewDealABILegacy_pt1",
      "outputs": [
        {
          "name": "",
          "type": "address"
        },
        {
          "name": "",
          "type": "address"
        },
        {
          "name": "",
          "type": "uint256"
        },
        {
          "name": "",
          "type": "address"
        },
        {
          "name": "",
          "type": "address"
        },
        {
          "name": "",
          "type": "uint256"
        },
        {
          "name": "",
          "type": "address"
        },
        {
          "name": "",
          "type": "address"
        },
        {
          "name": "",
          "type": "uint256"
        }
      ],
      "payable": false,
      "stateMutability": "view",
      "type": "function",
      "signature": "0xbd19a4f3"
    },
    {
      "constant": true,
      "inputs": [
        {
          "name": "_id",
          "type": "bytes32"
        }
      ],
      "name": "viewDealABILegacy_pt2",
      "outputs": [
        {
          "name": "",
          "type": "uint256"
        },
        {
          "name": "",
          "type": "bytes32"
        },
        {
          "name": "",
          "type": "address"
        },
        {
          "name": "",
          "type": "address"
        },
        {
          "name": "",
          "type": "address"
        },
        {
          "name": "",
          "type": "string"
        }
      ],
      "payable": false,
      "stateMutability": "view",
      "type": "function",
      "signature": "0xce5f7895"
    },
    {
      "constant": true,
      "inputs": [
        {
          "name": "_id",
          "type": "bytes32"
        }
      ],
      "name": "viewConfigABILegacy",
      "outputs": [
        {
          "name": "",
          "type": "uint256"
        },
        {
          "name": "",
          "type": "uint256"
        },
        {
          "name": "",
          "type": "uint256"
        },
        {
          "name": "",
          "type": "uint256"
        },
        {
          "name": "",
          "type": "uint256"
        },
        {
          "name": "",
          "type": "uint256"
        }
      ],
      "payable": false,
      "stateMutability": "view",
      "type": "function",
      "signature": "0xd5922f50"
    },
    {
      "constant": true,
      "inputs": [
        {
          "name": "_user",
          "type": "address"
        }
      ],
      "name": "viewAccountABILegacy",
      "outputs": [
        {
          "name": "",
          "type": "uint256"
        },
        {
          "name": "",
          "type": "uint256"
        }
      ],
      "payable": false,
      "stateMutability": "view",
      "type": "function",
      "signature": "0x5b3ae3e4"
    }
  ],
  "bytecode": "0x60806040523480156200001157600080fd5b50604051606080620051898339810180604052620000339190810190620001d4565b60008054600160a060020a031916600160a060020a0385811691909117909155829081166200006157600080fd5b60028054600160a060020a031916600160a060020a03929092169190911790556040805160c0810182526008608082019081527f69457865634f444200000000000000000000000000000000000000000000000060a0830152815281518083018352600981527f332e302d616c706861000000000000000000000000000000000000000000000060208083019190915282015280820183905230606082015290517feca34ccf00000000000000000000000000000000000000000000000000000000815273__IexecODBLibOrders_____________________9163eca34ccf9162000150919060040162000317565b60206040518083038186803b1580156200016957600080fd5b505af41580156200017e573d6000803e3d6000fd5b505050506040513d601f19601f82011682018060405250620001a4919081019062000228565b6007555062000396915050565b6000620001bf825162000337565b9392505050565b6000620001bf825162000356565b600080600060608486031215620001ea57600080fd5b6000620001f88686620001b1565b93505060206200020b86828701620001b1565b92505060406200021e86828701620001c6565b9150509250925092565b6000602082840312156200023b57600080fd5b6000620002498484620001c6565b949350505050565b6200025c8162000337565b82525050565b60006200026f826200032a565b6200027b81856200032e565b93506200028d81856020860162000359565b62000298816200038c565b9093019392505050565b8051608080845260009190840190620002bc828262000262565b91505060208301518482036020860152620002d8828262000262565b9150506040830151620002ef60408601826200030c565b50606083015162000304606086018262000251565b509392505050565b6200025c8162000356565b60208082528101620001bf8184620002a2565b5190565b90815260200190565b600062000344826200034a565b92915050565b600160a060020a031690565b90565b60005b83811015620003765781810151838201526020016200035c565b8381111562000386576000848401525b50505050565b601f01601f191690565b614de380620003a66000396000f3fe608060405234801561001057600080fd5b50600436106102835760003560e060020a90048063709ce02b11610160578063b31231de116100d2578063d286eb161161008b578063d286eb16146105b1578063d5922f50146105c4578063e2e7a8c1146105e9578063e3035ace146105f1578063e798491a14610604578063fc0c546a1461061757610283565b8063b31231de1461050b578063b6b55f251461051e578063b74861b214610531578063bd19a4f314610551578063c52e9de114610579578063ce5f78951461058c57610283565b8063947f517811610124578063947f5178146104995780639f0c9d6e146104ac578063a1f3496c146104bf578063a3b37a79146104d2578063a3f0ec58146104e5578063ae510d19146104f857610283565b8063709ce02b1461037357806370c4c2771461044b578063732e498d1461045e57806384724ddf146104715780638d52e4131461048457610283565b80634ec3b9e3116101f957806368a9ef1c116101bd57806368a9ef1c146103ca5780636a6e0bed146103d25780636b55f4a5146103e55780636cb9012e146104055780636dc2df05146104185780636eb528b51461043857610283565b80634ec3b9e31461037357806351152de11461037b57806351a0942f14610383578063555859c7146103965780635b3ae3e4146103a957610283565b806336efd16f1161024b57806336efd16f146102ff57806338a754b41461031257806343f2c970146103255780634693d172146103385780634b2bec8c1461034d5780634c4692de1461036057610283565b80630175199814610288578063047411e7146102b1578063156194d4146102c65780632e1a7d4d146102d95780633354f8a5146102ec575b600080fd5b61029b610296366004614089565b61061f565b6040516102a89190614b38565b60405180910390f35b6102b96106d3565b6040516102a89190614b46565b6102b96102d436600461432d565b6106d9565b61029b6102e736600461417c565b611806565b61029b6102fa3660046140ee565b61191c565b61029b61030d3660046141b8565b611981565b61029b6103203660046143e1565b611ac9565b61029b61033336600461417c565b611c64565b61034b6103463660046143e1565b611c79565b005b6102b961035b36600461417c565b611cb3565b61034b61036e3660046142f8565b611cc5565b6102b9611cf4565b6102b9611cf9565b61034b610391366004614296565b611cfe565b61029b6103a43660046142f8565b611db8565b6103bc6103b736600461404d565b611fc1565b6040516102a8929190614b54565b6102b9612002565b61029b6103e0366004614416565b612007565b6103f86103f336600461404d565b6121f9565b6040516102a89190614c1f565b61029b6104133660046142f8565b612234565b61042b61042636600461417c565b612324565b6040516102a89190614b27565b61034b6104463660046141b8565b612386565b61034b610459366004614296565b6123be565b61029b61046c3660046143e1565b612559565b61029b61047f3660046142f8565b6125d6565b61048c6127df565b6040516102a89190614c11565b61034b6104a7366004614416565b6127ee565b61034b6104ba3660046141f2565b61281d565b61034b6104cd3660046142c6565b612857565b61029b6104e03660046142f8565b612894565b61034b6104f3366004614235565b612984565b61029b610506366004614416565b6129c9565b6102b9610519366004614296565b612bd2565b61029b61052c36600461417c565b612c00565b61054461053f36600461417c565b612d0d565b6040516102a89190614c3e565b61056461055f36600461417c565b612ecd565b6040516102a899989796959493929190614a78565b61034b6105873660046142f8565b613107565b61059f61059a36600461417c565b613136565b6040516102a896959493929190614c71565b61029b6105bf36600461417c565b613334565b6105d76105d236600461417c565b613349565b6040516102a896959493929190614b62565b6102b9613546565b6102b96105ff36600461417c565b61354e565b61034b6106123660046141b8565b613560565b61048c613594565b600061062c8484846135a3565b806106c957506040517f1626ba7e000000000000000000000000000000000000000000000000000000008152600160a060020a03851690631626ba7e906106799086908690600401614bbc565b60206040518083038186803b15801561069157600080fd5b505afa1580156106a5573d6000803e3d6000fd5b505050506040513d601f19601f820116820180604052506106c9919081019061415e565b90505b9392505050565b60075481565b60008260800151826101200151146106f057600080fd5b8260a00151826101400151111561070657600080fd5b84602001518260200151101561071b57600080fd5b83602001518260600151101561073057600080fd5b82602001518260a00151101561074557600080fd5b8260600151198261010001518560600151876060015117171660006001021461076d57600080fd5b84518251600160a060020a0390811691161461078857600080fd5b8360000151600160a060020a03168260400151600160a060020a0316146107ae57600080fd5b6080820151600160a060020a031615806107d757506107d7826080015184600001516004613678565b6107e057600080fd5b6080850151600160a060020a031615806108095750610809856080015185600001516004613678565b61081257600080fd5b60a0850151600160a060020a0316158061083b575061083b8560a0015184600001516004613678565b61084457600080fd5b60c0850151600160a060020a0316158061086d575061086d8560c001518360c001516004613678565b61087657600080fd5b6080840151600160a060020a0316158061089f575061089f846080015186600001516004613678565b6108a857600080fd5b60a0840151600160a060020a031615806108d157506108d18460a0015184600001516004613678565b6108da57600080fd5b60c0840151600160a060020a0316158061090357506109038460c001518360c001516004613678565b61090c57600080fd5b60c0830151600160a060020a0316158061093557506109358360c0015186600001516004613678565b61093e57600080fd5b60e0830151600160a060020a0316158061096757506109678360e0015185600001516004613678565b61097057600080fd5b610100830151600160a060020a0316158061099b575061099b8361010001518360c001516004613678565b6109a457600080fd5b6002548551855185516040517f097d630d000000000000000000000000000000000000000000000000000000008152600160a060020a039094169363097d630d936109f59390929091600401614a5d565b60206040518083038186803b158015610a0d57600080fd5b505afa158015610a21573d6000803e3d6000fd5b505050506040513d601f19601f82011682018060405250610a45919081019061415e565b610a4e57600080fd5b610a56613a0a565b8451600160a060020a0316151560e08201526040517f0495132900000000000000000000000000000000000000000000000000000000815273__IexecODBLibOrders_____________________90630495132990610ab8908990600401614c2d565b60206040518083038186803b158015610ad057600080fd5b505af4158015610ae4573d6000803e3d6000fd5b505050506040513d601f19601f82011682018060405250610b08919081019061419a565b60075460405160e060020a63176eaa4902815273__IexecODBLibOrders_____________________9263176eaa4992610b4392600401614b54565b60206040518083038186803b158015610b5b57600080fd5b505af4158015610b6f573d6000803e3d6000fd5b505050506040513d601f19601f82011682018060405250610b93919081019061419a565b8160000181815250508560000151600160a060020a0316638da5cb5b6040518163ffffffff1660e060020a02815260040160206040518083038186803b158015610bdc57600080fd5b505afa158015610bf0573d6000803e3d6000fd5b505050506040513d601f19601f82011682018060405250610c14919081019061406b565b600160a060020a031660208083019190915281516000908152600b909152604090205460ff1680610c585750610c588160200151826000015188610100015161061f565b610c6157600080fd5b8060e0015115610e61576040517f2bd4c73400000000000000000000000000000000000000000000000000000000815273__IexecODBLibOrders_____________________90632bd4c73490610cbb908890600401614c2d565b60206040518083038186803b158015610cd357600080fd5b505af4158015610ce7573d6000803e3d6000fd5b505050506040513d601f19601f82011682018060405250610d0b919081019061419a565b60075460405160e060020a63176eaa4902815273__IexecODBLibOrders_____________________9263176eaa4992610d4692600401614b54565b60206040518083038186803b158015610d5e57600080fd5b505af4158015610d72573d6000803e3d6000fd5b505050506040513d601f19601f82011682018060405250610d96919081019061419a565b8160400181815250508460000151600160a060020a0316638da5cb5b6040518163ffffffff1660e060020a02815260040160206040518083038186803b158015610ddf57600080fd5b505afa158015610df3573d6000803e3d6000fd5b505050506040513d601f19601f82011682018060405250610e17919081019061406b565b600160a060020a031660608201526040808201516000908152600b602052205460ff1680610e585750610e588160600151826040015187610100015161061f565b610e6157600080fd5b6040517f58b5058600000000000000000000000000000000000000000000000000000000815273__IexecODBLibOrders_____________________906358b5058690610eb1908790600401614c60565b60206040518083038186803b158015610ec957600080fd5b505af4158015610edd573d6000803e3d6000fd5b505050506040513d601f19601f82011682018060405250610f01919081019061419a565b60075460405160e060020a63176eaa4902815273__IexecODBLibOrders_____________________9263176eaa4992610f3c92600401614b54565b60206040518083038186803b158015610f5457600080fd5b505af4158015610f68573d6000803e3d6000fd5b505050506040513d601f19601f82011682018060405250610f8c919081019061419a565b8160800181815250508360000151600160a060020a0316638da5cb5b6040518163ffffffff1660e060020a02815260040160206040518083038186803b158015610fd557600080fd5b505afa158015610fe9573d6000803e3d6000fd5b505050506040513d601f19601f8201168201806040525061100d919081019061406b565b600160a060020a031660a082015260808101516000908152600b602052604090205460ff168061105057506110508160a00151826080015186610140015161061f565b61105957600080fd5b6040517f0813424e00000000000000000000000000000000000000000000000000000000815273__IexecODBLibOrders_____________________90630813424e906110a9908690600401614c4f565b60206040518083038186803b1580156110c157600080fd5b505af41580156110d5573d6000803e3d6000fd5b505050506040513d601f19601f820116820180604052506110f9919081019061419a565b60075460405160e060020a63176eaa4902815273__IexecODBLibOrders_____________________9263176eaa499261113492600401614b54565b60206040518083038186803b15801561114c57600080fd5b505af4158015611160573d6000803e3d6000fd5b505050506040513d601f19601f82011682018060405250611184919081019061419a565b60c082018190526000908152600b602052604090205460ff16806111bb57506111bb8360c001518260c00151856101e0015161061f565b6111c457600080fd5b80516000908152600a602052604080822054908801516111e99163ffffffff6136ec16565b90508160e001516111fa5780611233565b6040808301516000908152600a602052819020549087015161123391611226919063ffffffff6136ec16565b829063ffffffff61370116565b60808301516000908152600a6020526040908190205490870151919250611263916112269163ffffffff6136ec16565b60c08301516000908152600a602052604090205460e0860151919250611292916112269163ffffffff6136ec16565b9050600081116112a157600080fd5b60c08201516000818152600a6020908152604080832054905192936112c8939092016149be565b60408051808303601f190181529181528151602092830120600081815260098452919091208a51815473ffffffffffffffffffffffffffffffffffffffff19908116600160a060020a03928316178355878501516001840180548316918416919091179055938c01516002830155606087015160048301805486169183169190911790558a5160038301805490951691161790925560e0850151909250611370576000611376565b87602001515b60058201558651600682018054600160a060020a0392831673ffffffffffffffffffffffffffffffffffffffff199182161790915560a0860151600784018054919093169116179055602087015160088201556101408601516113e090600163ffffffff61371716565b6009820155610120860151600a8201556101008601516060808a0151908b01511717600b82015560c0860151600c82018054600160a060020a0392831673ffffffffffffffffffffffffffffffffffffffff1991821617909155610160880151600d84018054918416918316919091179055610180880151600e840180549190931691161790556101a0860151805161148391600f840191602090910190613a4e565b5042601082015560c08401516000908152600a602090815260409182902054601184015560128301859055885182517fb55e75af000000000000000000000000000000000000000000000000000000008152925161155193600160a060020a039092169263b55e75af9260048082019391829003018186803b15801561150857600080fd5b505afa15801561151c573d6000803e3d6000fd5b505050506040513d601f19601f82011682018060405250611540919081019061419a565b60208901519063ffffffff61372716565b81601301819055508660000151600160a060020a03166387639c686040518163ffffffff1660e060020a02815260040160206040518083038186803b15801561159957600080fd5b505afa1580156115ad573d6000803e3d6000fd5b505050506040513d601f19601f820116820180604052506115d1919081019061419a565b601482015560c0840151600090815260086020908152604080832080546001810182559084528284200185905586518352600a90915290205461161a908463ffffffff61373516565b84516000908152600a602052604090205560e084015161165f9061163f576000611641565b835b6040808701516000908152600a60205220549063ffffffff61373516565b6040808601516000908152600a6020528181209290925560808601518252902054611690908463ffffffff61373516565b60808501516000908152600a60205260408082209290925560c0860151815220546116c1908463ffffffff61373516565b60c08501516000908152600a6020526040902055600c81015460088201546005830154600284015461172f93600160a060020a03169261172a92889261171e9291611712919063ffffffff61373516565b9063ffffffff61373516565b9063ffffffff61374716565b61376e565b6007810154600882015461175e91600160a060020a03169061172a90869061171e90601e63ffffffff61372716565b6006810154604051600160a060020a03909116907f692ad61076dceddd0f1a861f737553dd61fc8501cf4190d29c4e90af6607f7659061179f908590614b46565b60405180910390a27fd811b592ed0899225773e8933d8df64bd0b62761a9d7aad4ed5b22735f4610a4828560000151866040015187608001518860c00151886040516117f096959493929190614b62565b60405180910390a150925050505b949350505050565b33600090815260016020526040812054611826908363ffffffff6136ec16565b33600081815260016020526040808220939093555491517fa9059cbb000000000000000000000000000000000000000000000000000000008152600160a060020a039092169163a9059cbb91611880918690600401614a1a565b602060405180830381600087803b15801561189a57600080fd5b505af11580156118ae573d6000803e3d6000fd5b505050506040513d601f19601f820116820180604052506118d2919081019061415e565b6118db57600080fd5b7f884edad9ce6fa2440d8a54cc123490eb96d2768479d49ff9c7366125a9424364338360405161190c929190614a1a565b60405180910390a1506001919050565b600083821461192a57600080fd5b60005b848110156119755761196c86868381811061194457fe5b9050602002013585858481811061195757fe5b90506020020135600160a060020a0316611981565b5060010161192d565b50600195945050505050565b6000600160a060020a03821661199657600080fd5b6000546040517f23b872dd000000000000000000000000000000000000000000000000000000008152600160a060020a03909116906323b872dd906119e3903390309088906004016149f2565b602060405180830381600087803b1580156119fd57600080fd5b505af1158015611a11573d6000803e3d6000fd5b505050506040513d601f19601f82011682018060405250611a35919081019061415e565b611a3e57600080fd5b600160a060020a038216600090815260016020526040902054611a67908463ffffffff61373516565b600160a060020a0383166000908152600160205260409081902091909155517fcce62bfcdb09eddbe4e5ff5ec3bafdbabc25a52e1cf34f014a0a7a0864f9634c90611ab790339086908690614a35565b60405180910390a15060015b92915050565b6040517f0813424e000000000000000000000000000000000000000000000000000000008152600090819073__IexecODBLibOrders_____________________90630813424e90611b1e908690600401614c4f565b60206040518083038186803b158015611b3657600080fd5b505af4158015611b4a573d6000803e3d6000fd5b505050506040513d601f19601f82011682018060405250611b6e919081019061419a565b60075460405160e060020a63176eaa4902815273__IexecODBLibOrders_____________________9263176eaa4992611ba992600401614b54565b60206040518083038186803b158015611bc157600080fd5b505af4158015611bd5573d6000803e3d6000fd5b505050506040513d601f19601f82011682018060405250611bf9919081019061419a565b90508260c00151600160a060020a031633600160a060020a031614611c1d57600080fd5b60e08301516000828152600a60205260409081902091909155517f582f43f2a741cbe708aae3b8d38a4efc3d09d7e81919697b3ca693f4c444cc0590611ab7908390614b46565b60066020526000908152604090205460ff1681565b7f54bee205d9b03332d6dc82bc907476dfef6ed4fd86058d49a72994baee78117581604051611ca89190614c4f565b60405180910390a150565b6000908152600a602052604090205490565b7fc56d982ad2fd39ebadca073cc88d9bdaee0f4c8e7b2b6be50227169daefc7b3f81604051611ca89190614c2d565b601e81565b600a81565b600254600160a060020a03163314611d1557600080fd5b6000828152600960205260408120600881015460058201546002830154929392611d4a9291611712919063ffffffff61373516565b6008830154909150600090611d6690601e63ffffffff61372716565b600c840154909150611d8190600160a060020a031683613824565b6007830154611d9a90600160a060020a031682866138d2565b611da66000828661395f565b611db160008261376e565b5050505050565b6040517f2bd4c734000000000000000000000000000000000000000000000000000000008152600090819073__IexecODBLibOrders_____________________90632bd4c73490611e0d908690600401614c2d565b60206040518083038186803b158015611e2557600080fd5b505af4158015611e39573d6000803e3d6000fd5b505050506040513d601f19601f82011682018060405250611e5d919081019061419a565b60075460405160e060020a63176eaa4902815273__IexecODBLibOrders_____________________9263176eaa4992611e9892600401614b54565b60206040518083038186803b158015611eb057600080fd5b505af4158015611ec4573d6000803e3d6000fd5b505050506040513d601f19601f82011682018060405250611ee8919081019061419a565b90508260000151600160a060020a0316638da5cb5b6040518163ffffffff1660e060020a02815260040160206040518083038186803b158015611f2a57600080fd5b505afa158015611f3e573d6000803e3d6000fd5b505050506040513d601f19601f82011682018060405250611f62919081019061406b565b600160a060020a031633600160a060020a031614611f7f57600080fd5b6040808401516000838152600a60205282902055517fcf52e3228bc482a6656d8ab56c09888b1c5bf6aaadba0185e96a34836f2bb1d490611ab7908390614b46565b600080611fcc613acc565b505050600160a060020a031660009081526001602081815260409283902083518085019094528054808552920154920182905291565b600481565b60008160000151600160a060020a0316638da5cb5b6040518163ffffffff1660e060020a02815260040160206040518083038186803b15801561204957600080fd5b505afa15801561205d573d6000803e3d6000fd5b505050506040513d601f19601f82011682018060405250612081919081019061406b565b600160a060020a031633600160a060020a03161461209e57600080fd5b6040517f58b50586000000000000000000000000000000000000000000000000000000008152600190600b9060009073__IexecODBLibOrders_____________________906358b50586906120f7908890600401614c60565b60206040518083038186803b15801561210f57600080fd5b505af4158015612123573d6000803e3d6000fd5b505050506040513d601f19601f82011682018060405250612147919081019061419a565b60075460405160e060020a63176eaa4902815273__IexecODBLibOrders_____________________9263176eaa499261218292600401614b54565b60206040518083038186803b15801561219a57600080fd5b505af41580156121ae573d6000803e3d6000fd5b505050506040513d601f19601f820116820180604052506121d2919081019061419a565b81526020810191909152604001600020805460ff1916911515919091179055506001919050565b612201613acc565b50600160a060020a0316600090815260016020818152604092839020835180850190945280548452909101549082015290565b60008160000151600160a060020a0316638da5cb5b6040518163ffffffff1660e060020a02815260040160206040518083038186803b15801561227657600080fd5b505afa15801561228a573d6000803e3d6000fd5b505050506040513d601f19601f820116820180604052506122ae919081019061406b565b600160a060020a031633600160a060020a0316146122cb57600080fd5b6040517f04951329000000000000000000000000000000000000000000000000000000008152600190600b9060009073__IexecODBLibOrders_____________________906304951329906120f7908890600401614c2d565b60008181526008602090815260409182902080548351818402810184019094528084526060939283018282801561237a57602002820191906000526020600020905b815481526020019060010190808311612366575b50505050509050919050565b600254600160a060020a0316331461239d57600080fd5b6000828152600960205260409020601301546123ba908290613824565b5050565b600254600160a060020a031633146123d557600080fd5b600082815260096020526040812060088101546005820154600283015492939261240a9291611712919063ffffffff61373516565b600883015490915060009061242690601e63ffffffff61372716565b600c84015490915061244290600160a060020a031683866138d2565b60028301541561246a576001830154600284015461246a91600160a060020a0316908661395f565b60058301541580159061248957506003830154600160a060020a031615155b156124ac57600483015460058401546124ac91600160a060020a0316908661395f565b60078301546124c490600160a060020a031682613824565b6000805260016020527fa6eef7e35abe7026729641147f7915573c7e97b47efa546f5f6e3230263bcb4a5480156125515761252a8161251e633b9aca0061251283600a63ffffffff61372716565b9063ffffffff61371716565b9063ffffffff61370116565b9050612538600082876138d2565b600784015461255190600160a060020a0316828761395f565b505050505050565b60008160c00151600160a060020a031633600160a060020a03161461257d57600080fd5b6040517f0813424e000000000000000000000000000000000000000000000000000000008152600190600b9060009073__IexecODBLibOrders_____________________90630813424e906120f7908890600401614c4f565b6040517f04951329000000000000000000000000000000000000000000000000000000008152600090819073__IexecODBLibOrders_____________________9063049513299061262b908690600401614c2d565b60206040518083038186803b15801561264357600080fd5b505af4158015612657573d6000803e3d6000fd5b505050506040513d601f19601f8201168201806040525061267b919081019061419a565b60075460405160e060020a63176eaa4902815273__IexecODBLibOrders_____________________9263176eaa49926126b692600401614b54565b60206040518083038186803b1580156126ce57600080fd5b505af41580156126e2573d6000803e3d6000fd5b505050506040513d601f19601f82011682018060405250612706919081019061419a565b90508260000151600160a060020a0316638da5cb5b6040518163ffffffff1660e060020a02815260040160206040518083038186803b15801561274857600080fd5b505afa15801561275c573d6000803e3d6000fd5b505050506040513d601f19601f82011682018060405250612780919081019061406b565b600160a060020a031633600160a060020a03161461279d57600080fd5b6040808401516000838152600a60205282902055517f7343f75be43aba524f85326508cd975d016ef7884676377366c69a7c32e3066890611ab7908390614b46565b600254600160a060020a031681565b7faf81a046e31ebb2be305579e585ac6b2ee3fdc2dc9dba806bb826879bb2c785181604051611ca89190614c60565b600254600160a060020a0316331461283457600080fd5b600083815260096020526040902060130154612852908390836138d2565b505050565b600254600160a060020a0316331461286e57600080fd5b60008381526009602052604090206007015461285290600160a060020a0316838361395f565b60008160000151600160a060020a0316638da5cb5b6040518163ffffffff1660e060020a02815260040160206040518083038186803b1580156128d657600080fd5b505afa1580156128ea573d6000803e3d6000fd5b505050506040513d601f19601f8201168201806040525061290e919081019061406b565b600160a060020a031633600160a060020a03161461292b57600080fd5b6040517f2bd4c734000000000000000000000000000000000000000000000000000000008152600190600b9060009073__IexecODBLibOrders_____________________90632bd4c734906120f7908890600401614c2d565b600254600160a060020a0316331461299b57600080fd5b6000848152600960205260409020601301546129b8908490613824565b6129c383838361395f565b50505050565b6040517f58b50586000000000000000000000000000000000000000000000000000000008152600090819073__IexecODBLibOrders_____________________906358b5058690612a1e908690600401614c60565b60206040518083038186803b158015612a3657600080fd5b505af4158015612a4a573d6000803e3d6000fd5b505050506040513d601f19601f82011682018060405250612a6e919081019061419a565b60075460405160e060020a63176eaa4902815273__IexecODBLibOrders_____________________9263176eaa4992612aa992600401614b54565b60206040518083038186803b158015612ac157600080fd5b505af4158015612ad5573d6000803e3d6000fd5b505050506040513d601f19601f82011682018060405250612af9919081019061419a565b90508260000151600160a060020a0316638da5cb5b6040518163ffffffff1660e060020a02815260040160206040518083038186803b158015612b3b57600080fd5b505afa158015612b4f573d6000803e3d6000fd5b505050506040513d601f19601f82011682018060405250612b73919081019061406b565b600160a060020a031633600160a060020a031614612b9057600080fd5b6040808401516000838152600a60205282902055517f145ad51e4496173bca15e24e7eb46f9ab3a10eea0497e2801a3a6806c06113a390611ab7908390614b46565b60046020528160005260406000208181548110612beb57fe5b90600052602060002001600091509150505481565b600080546040517f23b872dd000000000000000000000000000000000000000000000000000000008152600160a060020a03909116906323b872dd90612c4e903390309087906004016149f2565b602060405180830381600087803b158015612c6857600080fd5b505af1158015612c7c573d6000803e3d6000fd5b505050506040513d601f19601f82011682018060405250612ca0919081019061415e565b612ca957600080fd5b33600090815260016020526040902054612cc9908363ffffffff61373516565b33600081815260016020526040908190209290925590517fe1fffcc4923d04b559f4d29a8bfc6cda04eb5b0d3c460751c2402c5c5cc9109c9161190c918590614a1a565b612d15613ae6565b6000828152600960208181526040928390208351610240810185528154600160a060020a039081166101e083019081526001808501548316610200850152600280860154610220860152918452875160608082018a5260038701548516825260048701548516828901526005870154828b01528588019190915288518082018a5260068701548516815260078701548516818901526008870154818b0152858a01529685015496840196909652600a8401546080840152600b84015460a0840152600c840154821660c0840152600d840154821660e0840152600e84015490911661010080840191909152600f840180548851978116159092026000190190911691909104601f810185900485028601850190965285855290949193610120860193909290830182828015612e8b5780601f10612e6057610100808354040283529160200191612e8b565b820191906000526020600020905b815481529060010190602001808311612e6e57829003601f168201915b50505050508152602001601082015481526020016011820154815260200160128201548152602001601382015481526020016014820154815250509050919050565b6000806000806000806000806000612ee3613ae6565b60008b8152600960208181526040928390208351610240810185528154600160a060020a039081166101e083019081526001808501548316610200850152600280860154610220860152918452875160608082018a5260038701548516825260048701548516828901526005870154828b01528588019190915288518082018a5260068701548516815260078701548516818901526008870154818b0152858a01529685015496840196909652600a8401546080840152600b84015460a0840152600c840154821660c0840152600d840154821660e0840152600e84015490911661010080840191909152600f840180548851978116159092026000190190911691909104601f8101859004850286018501909652858552909491936101208601939092908301828280156130595780601f1061302e57610100808354040283529160200191613059565b820191906000526020600020905b81548152906001019060200180831161303c57829003601f168201915b50505050508152602001601082015481526020016011820154815260200160128201548152602001601382015481526020016014820154815250509050806000015160000151816000015160200151826000015160400151836020015160000151846020015160200151856020015160400151866040015160000151876040015160200151886040015160400151995099509950995099509950995099509950509193959799909294969850565b7f6fd493f856b22df174df46975d6dcf0895c7dfb3c63d20179c0dcd5563e2f56581604051611ca89190614c2d565b60008060008060006060613148613ae6565b6000888152600960208181526040928390208351610240810185528154600160a060020a039081166101e083019081526001808501548316610200850152600280860154610220860152918452875160608082018a5260038701548516825260048701548516828901526005870154828b01528588019190915288518082018a5260068701548516815260078701548516818901526008870154818b0152858a01529685015496840196909652600a8401546080840152600b84015460a0840152600c840154821660c0840152600d840154821660e0840152600e84015490911661010080840191909152600f840180548851978116159092026000190190911691909104601f8101859004850286018501909652858552909491936101208601939092908301828280156132be5780601f10613293576101008083540402835291602001916132be565b820191906000526020600020905b8154815290600101906020018083116132a157829003601f168201915b5050505050815260200160108201548152602001601182015481526020016012820154815260200160138201548152602001601482015481525050905080606001518160a001518260c001518360e001518461010001518561012001518090509650965096509650965096505091939550919395565b6000908152600b602052604090205460ff1690565b60008060008060008061335a613ae6565b6000888152600960208181526040928390208351610240810185528154600160a060020a039081166101e083019081526001808501548316610200850152600280860154610220860152918452875160608082018a5260038701548516825260048701548516828901526005870154828b01528588019190915288518082018a5260068701548516815260078701548516818901526008870154818b0152858a01529685015496840196909652600a8401546080840152600b84015460a0840152600c840154821660c0840152600d840154821660e0840152600e84015490911661010080840191909152600f840180548851978116159092026000190190911691909104601f8101859004850286018501909652858552909491936101208601939092908301828280156134d05780601f106134a5576101008083540402835291602001916134d0565b820191906000526020600020905b8154815290600101906020018083116134b357829003601f168201915b505050505081526020016010820154815260200160118201548152602001601282015481526020016013820154815260200160148201548152505090508060800151816101400151826101600151836101800151846101a00151856101c001519650965096509650965096505091939550919395565b633b9aca0081565b60056020526000908152604090205481565b600254600160a060020a0316331461357757600080fd5b6000828152600960205260409020601301546123ba90829061376e565b600054600160a060020a031681565b60008060008084516041146135be57600093505050506106cc565b50505060208201516040830151606084015160001a601b8110156135e057601b015b8060ff16601b141580156135f857508060ff16601c14155b1561360957600093505050506106cc565b6001868285856040516000815260200160405260405161362c9493929190614bdc565b6020604051602081039080840390855afa15801561364e573d6000803e3d6000fd5b50505060206040510351600160a060020a031687600160a060020a03161493505050509392505050565b600082600160a060020a031684600160a060020a031614806106c9575083600160a060020a031663d202158d846040516020016136b591906149e4565b60405160208183030381529060405280519060200120846040518363ffffffff1660e060020a028152600401610679929190614b54565b6000828211156136fb57600080fd5b50900390565b600081831061371057816106cc565b5090919050565b60008183101561371057816106cc565b60006106cc838360646139d8565b6000828201838110156106cc57600080fd5b60008261375657506000611ac3565b8282028284828161376357fe5b04146106cc57600080fd5b600160a060020a038216600090815260016020526040902054613797908263ffffffff6136ec16565b600160a060020a038316600090815260016020819052604090912091825501546137c7908263ffffffff61373516565b600160a060020a0383166000908152600160208190526040918290200191909155517f625fed9875dada8643f2418b838ae0bc78d9a148a18eee4ee1979ff0f3f5d427906138189084908490614afe565b60405180910390a15050565b600160a060020a03821660009081526001602081905260409091200154613851908263ffffffff6136ec16565b600160a060020a03831660009081526001602081905260409091209081019190915554613884908263ffffffff61373516565b600160a060020a0383166000908152600160205260409081902091909155517f6381d9813cabeb57471b5a7e05078e64845ccdb563146a6911d536f24ce960f1906138189084908490614afe565b600160a060020a038316600090815260016020819052604090912001546138ff908363ffffffff6136ec16565b600160a060020a0384166000908152600160208190526040918290200191909155517f1bccc549c38561cd5b57f0db11ceb8dde1b0b6ee05ab5e155b51c7c5ba64becb9061395290859085908590614b0c565b60405180910390a1505050565b600160a060020a038316600090815260016020526040902054613988908363ffffffff61373516565b600160a060020a0384166000908152600160205260409081902091909155517fc2aca55aa696938c7e95842e8939ca0fbb2120a3eeb8948cdcee2b70da5666729061395290859085908590614b0c565b60006106c96139e78585613747565b8360008082116139f657600080fd5b6000828481613a0157fe5b04949350505050565b6040805161010081018252600080825260208201819052918101829052606081018290526080810182905260a0810182905260c0810182905260e081019190915290565b828054600181600116156101000203166002900490600052602060002090601f016020900481019282601f10613a8f57805160ff1916838001178555613abc565b82800160010185558215613abc579182015b82811115613abc578251825591602001919060010190613aa1565b50613ac8929150613b8c565b5090565b604051806040016040528060008152602001600081525090565b604051806102a00160405280613afa613ba9565b8152602001613b07613ba9565b8152602001613b14613ba9565b81526020016000815260200160008152602001600080191681526020016000600160a060020a031681526020016000600160a060020a031681526020016000600160a060020a031681526020016060815260200160008152602001600081526020016000815260200160008152602001600081525090565b613ba691905b80821115613ac85760008155600101613b92565b90565b604080516060810182526000808252602082018190529181019190915290565b60006106cc8235614d33565b60006106cc8251614d33565b60008083601f840112613bf357600080fd5b50813567ffffffffffffffff811115613c0b57600080fd5b602083019150836020820283011115613c2357600080fd5b9250929050565b60006106cc8251614d3e565b60006106cc8235613ba6565b60006106cc8251613ba6565b600082601f830112613c5f57600080fd5b8135613c72613c6d82614cf8565b614cd1565b91508082526020830160208301858383011115613c8e57600080fd5b613c99838284614d67565b50505092915050565b60006101208284031215613cb557600080fd5b613cc0610120614cd1565b90506000613cce8484613bc9565b8252506020613cdf84848301613c36565b6020830152506040613cf384828501613c36565b6040830152506060613d0784828501613c36565b6060830152506080613d1b84828501613bc9565b60808301525060a0613d2f84828501613bc9565b60a08301525060c0613d4384828501613bc9565b60c08301525060e0613d5784828501613c36565b60e08301525061010082013567ffffffffffffffff811115613d7857600080fd5b613d8484828501613c4e565b6101008301525092915050565b60006102008284031215613da457600080fd5b613daf610200614cd1565b90506000613dbd8484613bc9565b8252506020613dce84848301613c36565b6020830152506040613de284828501613bc9565b6040830152506060613df684828501613c36565b6060830152506080613e0a84828501613bc9565b60808301525060a0613e1e84828501613c36565b60a08301525060c0613e3284828501613bc9565b60c08301525060e0613e4684828501613c36565b60e083015250610100613e5b84828501613c36565b61010083015250610120613e7184828501613c36565b61012083015250610140613e8784828501613c36565b61014083015250610160613e9d84828501613bc9565b61016083015250610180613eb384828501613bc9565b610180830152506101a082013567ffffffffffffffff811115613ed557600080fd5b613ee184828501613c4e565b6101a0830152506101c0613ef784828501613c36565b6101c0830152506101e082013567ffffffffffffffff811115613f1957600080fd5b613f2584828501613c4e565b6101e08301525092915050565b60006101608284031215613f4557600080fd5b613f50610160614cd1565b90506000613f5e8484613bc9565b8252506020613f6f84848301613c36565b6020830152506040613f8384828501613c36565b6040830152506060613f9784828501613c36565b6060830152506080613fab84828501613c36565b60808301525060a0613fbf84828501613c36565b60a08301525060c0613fd384828501613bc9565b60c08301525060e0613fe784828501613bc9565b60e083015250610100613ffc84828501613bc9565b6101008301525061012061401284828501613c36565b6101208301525061014082013567ffffffffffffffff81111561403457600080fd5b61404084828501613c4e565b6101408301525092915050565b60006020828403121561405f57600080fd5b60006117fe8484613bc9565b60006020828403121561407d57600080fd5b60006117fe8484613bd5565b60008060006060848603121561409e57600080fd5b60006140aa8686613bc9565b93505060206140bb86828701613c36565b925050604084013567ffffffffffffffff8111156140d857600080fd5b6140e486828701613c4e565b9150509250925092565b6000806000806040858703121561410457600080fd5b843567ffffffffffffffff81111561411b57600080fd5b61412787828801613be1565b9450945050602085013567ffffffffffffffff81111561414657600080fd5b61415287828801613be1565b95989497509550505050565b60006020828403121561417057600080fd5b60006117fe8484613c2a565b60006020828403121561418e57600080fd5b60006117fe8484613c36565b6000602082840312156141ac57600080fd5b60006117fe8484613c42565b600080604083850312156141cb57600080fd5b60006141d78585613c36565b92505060206141e885828601613bc9565b9150509250929050565b60008060006060848603121561420757600080fd5b60006142138686613c36565b935050602061422486828701613bc9565b92505060406140e486828701613c36565b6000806000806080858703121561424b57600080fd5b60006142578787613c36565b945050602061426887828801613bc9565b935050604061427987828801613c36565b925050606061428a87828801613c36565b91505092959194509250565b600080604083850312156142a957600080fd5b60006142b58585613c36565b92505060206141e885828601613c36565b6000806000606084860312156142db57600080fd5b60006142e78686613c36565b935050602061422486828701613c36565b60006020828403121561430a57600080fd5b813567ffffffffffffffff81111561432157600080fd5b6117fe84828501613ca2565b6000806000806080858703121561434357600080fd5b843567ffffffffffffffff81111561435a57600080fd5b61436687828801613ca2565b945050602085013567ffffffffffffffff81111561438357600080fd5b61438f87828801613ca2565b935050604085013567ffffffffffffffff8111156143ac57600080fd5b6143b887828801613f32565b925050606085013567ffffffffffffffff8111156143d557600080fd5b61428a87828801613d91565b6000602082840312156143f357600080fd5b813567ffffffffffffffff81111561440a57600080fd5b6117fe84828501613d91565b60006020828403121561442857600080fd5b813567ffffffffffffffff81111561443f57600080fd5b6117fe84828501613f32565b600061445783836144d5565b505060200190565b61446881614d55565b82525050565b61446881614d33565b600061448282614d26565b61448c8185614d2a565b935061449783614d20565b60005b828110156144c2576144ad86835161444b565b95506144b882614d20565b915060010161449a565b5093949350505050565b61446881614d3e565b61446881613ba6565b6144686144ea82613ba6565b613ba6565b60006144fa82614d26565b6145048185614d2a565b9350614514818560208601614d73565b61451d81614d9f565b9093019392505050565b61446881614d5c565b8051604083019061454184826144d5565b5060208201516129c360208501826144d5565b8051600090610120840190614569858261446e565b50602083015161457c60208601826144d5565b50604083015161458f60408601826144d5565b5060608301516145a260608601826144d5565b5060808301516145b5608086018261446e565b5060a08301516145c860a086018261446e565b5060c08301516145db60c086018261446e565b5060e08301516145ee60e08601826144d5565b5061010083015184820361010086015261460882826144ef565b95945050505050565b80516000906102a084019061462685826148a0565b50602083015161463960608601826148a0565b50604083015161464c60c08601826148a0565b5060608301516146606101208601826144d5565b5060808301516146746101408601826144d5565b5060a08301516146886101608601826144d5565b5060c083015161469c61018086018261446e565b5060e08301516146b06101a086018261446e565b506101008301516146c56101c086018261446e565b506101208301518482036101e08601526146df82826144ef565b9150506101408301516146f66102008601826144d5565b5061016083015161470b6102208601826144d5565b506101808301516147206102408601826144d5565b506101a08301516147356102608601826144d5565b506101c083015161474a6102808601826144d5565b509392505050565b8051600090610200840190614767858261446e565b50602083015161477a60208601826144d5565b50604083015161478d604086018261446e565b5060608301516147a060608601826144d5565b5060808301516147b3608086018261446e565b5060a08301516147c660a08601826144d5565b5060c08301516147d960c086018261446e565b5060e08301516147ec60e08601826144d5565b506101008301516148016101008601826144d5565b506101208301516148166101208601826144d5565b5061014083015161482b6101408601826144d5565b5061016083015161484061016086018261446e565b5061018083015161485561018086018261446e565b506101a08301518482036101a086015261486f82826144ef565b9150506101c08301516148866101c08601826144d5565b506101e08301518482036101e086015261460882826144ef565b805160608301906148b1848261446e565b5060208201516148c4602085018261446e565b5060408201516129c360408501826144d5565b80516000906101608401906148ec858261446e565b5060208301516148ff60208601826144d5565b50604083015161491260408601826144d5565b50606083015161492560608601826144d5565b50608083015161493860808601826144d5565b5060a083015161494b60a08601826144d5565b5060c083015161495e60c086018261446e565b5060e083015161497160e086018261446e565b5061010083015161498661010086018261446e565b5061012083015161499b6101208601826144d5565b5061014083015184820361014086015261460882826144ef565b61446881614d4f565b60006149ca82856144de565b6020820191506149da82846144de565b5060200192915050565b60208101611ac3828461446e565b60608101614a00828661445f565b614a0d602083018561446e565b6117fe60408301846144d5565b60408101614a28828561445f565b6106cc60208301846144d5565b60608101614a43828661445f565b614a5060208301856144d5565b6117fe604083018461446e565b60608101614a6b828661446e565b614a50602083018561446e565b6101208101614a87828c61446e565b614a94602083018b61446e565b614aa1604083018a6144d5565b614aae606083018961446e565b614abb608083018861446e565b614ac860a08301876144d5565b614ad560c083018661446e565b614ae260e083018561446e565b614af06101008301846144d5565b9a9950505050505050505050565b60408101614a28828561446e565b60608101614b1a828661446e565b614a0d60208301856144d5565b602080825281016106cc8184614477565b60208101611ac382846144cc565b60208101611ac382846144d5565b60408101614a2882856144d5565b60c08101614b7082896144d5565b614b7d60208301886144d5565b614b8a60408301876144d5565b614b9760608301866144d5565b614ba460808301856144d5565b614bb160a08301846144d5565b979650505050505050565b60408101614bca82856144d5565b81810360208301526106c981846144ef565b60808101614bea82876144d5565b614bf760208301866149b5565b614c0460408301856144d5565b61460860608301846144d5565b60208101611ac38284614527565b60408101611ac38284614530565b602080825281016106cc8184614554565b602080825281016106cc8184614611565b602080825281016106cc8184614752565b602080825281016106cc81846148d7565b60c08101614c7f82896144d5565b614c8c60208301886144d5565b614c99604083018761446e565b614ca6606083018661446e565b614cb3608083018561446e565b81810360a0830152614cc581846144ef565b98975050505050505050565b60405181810167ffffffffffffffff81118282101715614cf057600080fd5b604052919050565b600067ffffffffffffffff821115614d0f57600080fd5b506020601f91909101601f19160190565b60200190565b5190565b90815260200190565b6000611ac382614d43565b151590565b600160a060020a031690565b60ff1690565b6000611ac3825b6000611ac382614d33565b82818337506000910152565b60005b83811015614d8e578181015183820152602001614d76565b838111156129c35750506000910152565b601f01601f19169056fea265627a7a72305820f2118900917af6583887524699f8d1e4ebd082048a119a0e7e72978c13423d996c6578706572696d656e74616cf50037",
  "source": "pragma solidity ^0.5.7;\npragma experimental ABIEncoderV2;\n\nimport \"iexec-solidity/contracts/Libs/SafeMath.sol\";\n\nimport \"./libs/IexecODBLibCore.sol\";\nimport \"./libs/IexecODBLibOrders.sol\";\nimport \"./registries/App.sol\";\nimport \"./registries/Dataset.sol\";\nimport \"./registries/Workerpool.sol\";\nimport \"./Escrow.sol\";\nimport \"./Relay.sol\";\nimport \"./SignatureVerifier.sol\";\nimport \"./IexecHubAccessor.sol\";\n\n/**\n * /!\\ TEMPORARY LEGACY /!\\\n */\nimport \"./IexecClerkABILegacy.sol\";\n\ncontract IexecClerk is Escrow, Relay, IexecHubAccessor, SignatureVerifier, IexecClerkABILegacy\n{\n\tusing SafeMath          for uint256;\n\tusing IexecODBLibOrders for bytes32;\n\tusing IexecODBLibOrders for IexecODBLibOrders.EIP712Domain;\n\tusing IexecODBLibOrders for IexecODBLibOrders.AppOrder;\n\tusing IexecODBLibOrders for IexecODBLibOrders.DatasetOrder;\n\tusing IexecODBLibOrders for IexecODBLibOrders.WorkerpoolOrder;\n\tusing IexecODBLibOrders for IexecODBLibOrders.RequestOrder;\n\n\t/***************************************************************************\n\t *                                Constants                                *\n\t ***************************************************************************/\n\tuint256 public constant WORKERPOOL_STAKE_RATIO = 30;\n\tuint256 public constant KITTY_RATIO            = 10;\n\tuint256 public constant KITTY_MIN              = 1000000000; // TODO: 1RLC ?\n\n\t// For authorizations\n\tuint256 public constant GROUPMEMBER_PURPOSE    = 4;\n\n\t/***************************************************************************\n\t *                            EIP712 signature                             *\n\t ***************************************************************************/\n\tbytes32 public /* immutable */ EIP712DOMAIN_SEPARATOR;\n\n\t/***************************************************************************\n\t *                               Clerk data                                *\n\t ***************************************************************************/\n\tmapping(bytes32 => bytes32[]           ) m_requestdeals;\n\tmapping(bytes32 => IexecODBLibCore.Deal) m_deals;\n\tmapping(bytes32 => uint256             ) m_consumed;\n\tmapping(bytes32 => bool                ) m_presigned;\n\n\t/***************************************************************************\n\t *                                 Events                                  *\n\t ***************************************************************************/\n\tevent OrdersMatched        (bytes32 dealid, bytes32 appHash, bytes32 datasetHash, bytes32 workerpoolHash, bytes32 requestHash, uint256 volume);\n\tevent ClosedAppOrder       (bytes32 appHash);\n\tevent ClosedDatasetOrder   (bytes32 datasetHash);\n\tevent ClosedWorkerpoolOrder(bytes32 workerpoolHash);\n\tevent ClosedRequestOrder   (bytes32 requestHash);\n\tevent SchedulerNotice      (address indexed workerpool, bytes32 dealid);\n\n\t/***************************************************************************\n\t *                               Constructor                               *\n\t ***************************************************************************/\n\tconstructor(\n\t\taddress _token,\n\t\taddress _iexechub,\n\t\tuint256 _chainid)\n\tpublic\n\tEscrow(_token)\n\tIexecHubAccessor(_iexechub)\n\t{\n\t\tEIP712DOMAIN_SEPARATOR = IexecODBLibOrders.EIP712Domain({\n\t\t\tname:              \"iExecODB\"\n\t\t, version:           \"3.0-alpha\"\n\t\t, chainId:           _chainid\n\t\t, verifyingContract: address(this)\n\t\t}).hash();\n\t}\n\n\t/***************************************************************************\n\t *                                Accessor                                 *\n\t ***************************************************************************/\n\tfunction viewRequestDeals(bytes32 _id)\n\texternal view returns (bytes32[] memory requestdeals)\n\t{\n\t\treturn m_requestdeals[_id];\n\t}\n\n\tfunction viewDeal(bytes32 _id)\n\texternal view returns (IexecODBLibCore.Deal memory deal)\n\t{\n\t\treturn m_deals[_id];\n\t}\n\n\tfunction viewConsumed(bytes32 _id)\n\texternal view returns (uint256 consumed)\n\t{\n\t\treturn m_consumed[_id];\n\t}\n\n\tfunction viewPresigned(bytes32 _id)\n\texternal view returns (bool presigned)\n\t{\n\t\treturn m_presigned[_id];\n\t}\n\n\t/***************************************************************************\n\t *                            pre-signing tools                            *\n\t ***************************************************************************/\n\t// should be external\n\tfunction signAppOrder(IexecODBLibOrders.AppOrder memory _apporder)\n\tpublic returns (bool)\n\t{\n\t\trequire(msg.sender == App(_apporder.app).owner());\n\t\tm_presigned[_apporder.hash().toEthTypedStructHash(EIP712DOMAIN_SEPARATOR)] = true;\n\t\treturn true;\n\t}\n\n\t// should be external\n\tfunction signDatasetOrder(IexecODBLibOrders.DatasetOrder memory _datasetorder)\n\tpublic returns (bool)\n\t{\n\t\trequire(msg.sender == Dataset(_datasetorder.dataset).owner());\n\t\tm_presigned[_datasetorder.hash().toEthTypedStructHash(EIP712DOMAIN_SEPARATOR)] = true;\n\t\treturn true;\n\t}\n\n\t// should be external\n\tfunction signWorkerpoolOrder(IexecODBLibOrders.WorkerpoolOrder memory _workerpoolorder)\n\tpublic returns (bool)\n\t{\n\t\trequire(msg.sender == Workerpool(_workerpoolorder.workerpool).owner());\n\t\tm_presigned[_workerpoolorder.hash().toEthTypedStructHash(EIP712DOMAIN_SEPARATOR)] = true;\n\t\treturn true;\n\t}\n\n\t// should be external\n\tfunction signRequestOrder(IexecODBLibOrders.RequestOrder memory _requestorder)\n\tpublic returns (bool)\n\t{\n\t\trequire(msg.sender == _requestorder.requester);\n\t\tm_presigned[_requestorder.hash().toEthTypedStructHash(EIP712DOMAIN_SEPARATOR)] = true;\n\t\treturn true;\n\t}\n\n\t/***************************************************************************\n\t *                              Clerk methods                              *\n\t ***************************************************************************/\n\tstruct Identities\n\t{\n\t\tbytes32 appHash;\n\t\taddress appOwner;\n\t\tbytes32 datasetHash;\n\t\taddress datasetOwner;\n\t\tbytes32 workerpoolHash;\n\t\taddress workerpoolOwner;\n\t\tbytes32 requestHash;\n\t\tbool    hasDataset;\n\t}\n\n\t// should be external\n\tfunction matchOrders(\n\t\tIexecODBLibOrders.AppOrder        memory _apporder,\n\t\tIexecODBLibOrders.DatasetOrder    memory _datasetorder,\n\t\tIexecODBLibOrders.WorkerpoolOrder memory _workerpoolorder,\n\t\tIexecODBLibOrders.RequestOrder    memory _requestorder)\n\tpublic returns (bytes32)\n\t{\n\t\t/**\n\t\t * Check orders compatibility\n\t\t */\n\n\t\t// computation environment & allowed enough funds\n\t\trequire(_requestorder.category           == _workerpoolorder.category       );\n\t\trequire(_requestorder.trust              <= _workerpoolorder.trust          );\n\t\trequire(_requestorder.appmaxprice        >= _apporder.appprice              );\n\t\trequire(_requestorder.datasetmaxprice    >= _datasetorder.datasetprice      );\n\t\trequire(_requestorder.workerpoolmaxprice >= _workerpoolorder.workerpoolprice);\n\t\trequire((_apporder.tag | _datasetorder.tag | _requestorder.tag) & ~_workerpoolorder.tag == 0x0);\n\n\t\t// Check matching and restrictions\n\t\trequire(_requestorder.app     == _apporder.app        );\n\t\trequire(_requestorder.dataset == _datasetorder.dataset);\n\t\trequire(_requestorder.workerpool           == address(0) || checkIdentity(_requestorder.workerpool,           _workerpoolorder.workerpool, GROUPMEMBER_PURPOSE)); // requestorder.workerpool is a restriction\n\t\trequire(_apporder.datasetrestrict          == address(0) || checkIdentity(_apporder.datasetrestrict,          _datasetorder.dataset,       GROUPMEMBER_PURPOSE));\n\t\trequire(_apporder.workerpoolrestrict       == address(0) || checkIdentity(_apporder.workerpoolrestrict,       _workerpoolorder.workerpool, GROUPMEMBER_PURPOSE));\n\t\trequire(_apporder.requesterrestrict        == address(0) || checkIdentity(_apporder.requesterrestrict,        _requestorder.requester,     GROUPMEMBER_PURPOSE));\n\t\trequire(_datasetorder.apprestrict          == address(0) || checkIdentity(_datasetorder.apprestrict,          _apporder.app,               GROUPMEMBER_PURPOSE));\n\t\trequire(_datasetorder.workerpoolrestrict   == address(0) || checkIdentity(_datasetorder.workerpoolrestrict,   _workerpoolorder.workerpool, GROUPMEMBER_PURPOSE));\n\t\trequire(_datasetorder.requesterrestrict    == address(0) || checkIdentity(_datasetorder.requesterrestrict,    _requestorder.requester,     GROUPMEMBER_PURPOSE));\n\t\trequire(_workerpoolorder.apprestrict       == address(0) || checkIdentity(_workerpoolorder.apprestrict,       _apporder.app,               GROUPMEMBER_PURPOSE));\n\t\trequire(_workerpoolorder.datasetrestrict   == address(0) || checkIdentity(_workerpoolorder.datasetrestrict,   _datasetorder.dataset,       GROUPMEMBER_PURPOSE));\n\t\trequire(_workerpoolorder.requesterrestrict == address(0) || checkIdentity(_workerpoolorder.requesterrestrict, _requestorder.requester,     GROUPMEMBER_PURPOSE));\n\n\t\trequire(iexechub.checkResources(_apporder.app, _datasetorder.dataset, _workerpoolorder.workerpool));\n\n\t\t/**\n\t\t * Check orders authenticity\n\t\t */\n\t\tIdentities memory ids;\n\t\tids.hasDataset = _datasetorder.dataset != address(0);\n\n\t\t// app\n\t\tids.appHash  = _apporder.hash().toEthTypedStructHash(EIP712DOMAIN_SEPARATOR);\n\t\tids.appOwner = App(_apporder.app).owner();\n\t\trequire(m_presigned[ids.appHash] || verifySignature(ids.appOwner, ids.appHash, _apporder.sign));\n\n\t\t// dataset\n\t\tif (ids.hasDataset) // only check if dataset is enabled\n\t\t{\n\t\t\tids.datasetHash  = _datasetorder.hash().toEthTypedStructHash(EIP712DOMAIN_SEPARATOR);\n\t\t\tids.datasetOwner = Dataset(_datasetorder.dataset).owner();\n\t\t\trequire(m_presigned[ids.datasetHash] || verifySignature(ids.datasetOwner, ids.datasetHash, _datasetorder.sign));\n\t\t}\n\n\t\t// workerpool\n\t\tids.workerpoolHash  = _workerpoolorder.hash().toEthTypedStructHash(EIP712DOMAIN_SEPARATOR);\n\t\tids.workerpoolOwner = Workerpool(_workerpoolorder.workerpool).owner();\n\t\trequire(m_presigned[ids.workerpoolHash] || verifySignature(ids.workerpoolOwner, ids.workerpoolHash, _workerpoolorder.sign));\n\n\t\t// request\n\t\tids.requestHash = _requestorder.hash().toEthTypedStructHash(EIP712DOMAIN_SEPARATOR);\n\t\trequire(m_presigned[ids.requestHash] || verifySignature(_requestorder.requester, ids.requestHash, _requestorder.sign));\n\n\t\t/**\n\t\t * Check availability\n\t\t */\n\t\tuint256 volume;\n\t\tvolume =                             _apporder.volume.sub       (m_consumed[ids.appHash       ]);\n\t\tvolume = ids.hasDataset ? volume.min(_datasetorder.volume.sub   (m_consumed[ids.datasetHash   ])) : volume;\n\t\tvolume =                  volume.min(_workerpoolorder.volume.sub(m_consumed[ids.workerpoolHash]));\n\t\tvolume =                  volume.min(_requestorder.volume.sub   (m_consumed[ids.requestHash   ]));\n\t\trequire(volume > 0);\n\n\t\t/**\n\t\t * Record\n\t\t */\n\t\tbytes32 dealid = keccak256(abi.encodePacked(\n\t\t\tids.requestHash,            // requestHash\n\t\t\tm_consumed[ids.requestHash] // idx of first subtask\n\t\t));\n\n\t\tIexecODBLibCore.Deal storage deal = m_deals[dealid];\n\t\tdeal.app.pointer          = _apporder.app;\n\t\tdeal.app.owner            = ids.appOwner;\n\t\tdeal.app.price            = _apporder.appprice;\n\t\tdeal.dataset.owner        = ids.datasetOwner;\n\t\tdeal.dataset.pointer      = _datasetorder.dataset;\n\t\tdeal.dataset.price        = ids.hasDataset ? _datasetorder.datasetprice : 0;\n\t\tdeal.workerpool.pointer   = _workerpoolorder.workerpool;\n\t\tdeal.workerpool.owner     = ids.workerpoolOwner;\n\t\tdeal.workerpool.price     = _workerpoolorder.workerpoolprice;\n\t\tdeal.trust                = _requestorder.trust.max(1);\n\t\tdeal.category             = _requestorder.category;\n\t\tdeal.tag                  = _apporder.tag | _datasetorder.tag | _requestorder.tag;\n\t\tdeal.requester            = _requestorder.requester;\n\t\tdeal.beneficiary          = _requestorder.beneficiary;\n\t\tdeal.callback             = _requestorder.callback;\n\t\tdeal.params               = _requestorder.params;\n\t\tdeal.startTime            = now;\n\t\tdeal.botFirst             = m_consumed[ids.requestHash];\n\t\tdeal.botSize              = volume;\n\t\tdeal.workerStake          = _workerpoolorder.workerpoolprice.percentage(Workerpool(_workerpoolorder.workerpool).m_workerStakeRatioPolicy());\n\t\tdeal.schedulerRewardRatio = Workerpool(_workerpoolorder.workerpool).m_schedulerRewardRatioPolicy();\n\n\t\tm_requestdeals[ids.requestHash].push(dealid);\n\n\t\t/**\n\t\t * Update consumed\n\t\t */\n\t\tm_consumed[ids.appHash       ] = m_consumed[ids.appHash       ].add(                 volume    );\n\t\tm_consumed[ids.datasetHash   ] = m_consumed[ids.datasetHash   ].add(ids.hasDataset ? volume : 0);\n\t\tm_consumed[ids.workerpoolHash] = m_consumed[ids.workerpoolHash].add(                 volume    );\n\t\tm_consumed[ids.requestHash   ] = m_consumed[ids.requestHash   ].add(                 volume    );\n\n\t\t/**\n\t\t * Lock\n\t\t */\n\t\tlock(\n\t\t\tdeal.requester,\n\t\t\tdeal.app.price\n\t\t\t.add(deal.dataset.price)\n\t\t\t.add(deal.workerpool.price)\n\t\t\t.mul(volume)\n\t\t);\n\t\tlock(\n\t\t\tdeal.workerpool.owner,\n\t\t\tdeal.workerpool.price\n\t\t\t.percentage(WORKERPOOL_STAKE_RATIO) // ORDER IS IMPORTANT HERE!\n\t\t\t.mul(volume)                        // ORDER IS IMPORTANT HERE!\n\t\t);\n\n\t\t/**\n\t\t * Advertize deal\n\t\t */\n\t\temit SchedulerNotice(deal.workerpool.pointer, dealid);\n\n\t\t/**\n\t\t * Advertize consumption\n\t\t */\n\t\temit OrdersMatched(\n\t\t\tdealid,\n\t\t\tids.appHash,\n\t\t\tids.datasetHash,\n\t\t\tids.workerpoolHash,\n\t\t\tids.requestHash,\n\t\t\tvolume\n\t\t);\n\n\t\treturn dealid;\n\t}\n\n\t// should be external\n\tfunction cancelAppOrder(IexecODBLibOrders.AppOrder memory _apporder)\n\tpublic returns (bool)\n\t{\n\t\tbytes32 dapporderHash = _apporder.hash().toEthTypedStructHash(EIP712DOMAIN_SEPARATOR);\n\t\trequire(msg.sender == App(_apporder.app).owner());\n\t\tm_consumed[dapporderHash] = _apporder.volume;\n\t\temit ClosedAppOrder(dapporderHash);\n\t\treturn true;\n\t}\n\n\t// should be external\n\tfunction cancelDatasetOrder(IexecODBLibOrders.DatasetOrder memory _datasetorder)\n\tpublic returns (bool)\n\t{\n\t\tbytes32 dataorderHash = _datasetorder.hash().toEthTypedStructHash(EIP712DOMAIN_SEPARATOR);\n\t\trequire(msg.sender == Dataset(_datasetorder.dataset).owner());\n\t\tm_consumed[dataorderHash] = _datasetorder.volume;\n\t\temit ClosedDatasetOrder(dataorderHash);\n\t\treturn true;\n\t}\n\n\t// should be external\n\tfunction cancelWorkerpoolOrder(IexecODBLibOrders.WorkerpoolOrder memory _workerpoolorder)\n\tpublic returns (bool)\n\t{\n\t\tbytes32 poolorderHash = _workerpoolorder.hash().toEthTypedStructHash(EIP712DOMAIN_SEPARATOR);\n\t\trequire(msg.sender == Workerpool(_workerpoolorder.workerpool).owner());\n\t\tm_consumed[poolorderHash] = _workerpoolorder.volume;\n\t\temit ClosedWorkerpoolOrder(poolorderHash);\n\t\treturn true;\n\t}\n\n\t// should be external\n\tfunction cancelRequestOrder(IexecODBLibOrders.RequestOrder memory _requestorder)\n\tpublic returns (bool)\n\t{\n\t\tbytes32 requestorderHash = _requestorder.hash().toEthTypedStructHash(EIP712DOMAIN_SEPARATOR);\n\t\trequire(msg.sender == _requestorder.requester);\n\t\tm_consumed[requestorderHash] = _requestorder.volume;\n\t\temit ClosedRequestOrder(requestorderHash);\n\t\treturn true;\n\t}\n\n\t/***************************************************************************\n\t *                    Escrow overhead for contribution                     *\n\t ***************************************************************************/\n\tfunction lockContribution(bytes32 _dealid, address _worker)\n\texternal onlyIexecHub\n\t{\n\t\tlock(_worker, m_deals[_dealid].workerStake);\n\t}\n\n\tfunction unlockContribution(bytes32 _dealid, address _worker)\n\texternal onlyIexecHub\n\t{\n\t\tunlock(_worker, m_deals[_dealid].workerStake);\n\t}\n\n\tfunction unlockAndRewardForContribution(bytes32 _dealid, address _worker, uint256 _amount, bytes32 _taskid)\n\texternal onlyIexecHub\n\t{\n\t\tunlock(_worker, m_deals[_dealid].workerStake);\n\t\treward(_worker, _amount, _taskid);\n\t}\n\n\tfunction seizeContribution(bytes32 _dealid, address _worker, bytes32 _taskid)\n\texternal onlyIexecHub\n\t{\n\t\tseize(_worker, m_deals[_dealid].workerStake, _taskid);\n\t}\n\n\tfunction rewardForScheduling(bytes32 _dealid, uint256 _amount, bytes32 _taskid)\n\texternal onlyIexecHub\n\t{\n\t\treward(m_deals[_dealid].workerpool.owner, _amount, _taskid);\n\t}\n\n\tfunction successWork(bytes32 _dealid, bytes32 _taskid)\n\texternal onlyIexecHub\n\t{\n\t\tIexecODBLibCore.Deal storage deal = m_deals[_dealid];\n\n\t\tuint256 requesterstake = deal.app.price\n\t\t                         .add(deal.dataset.price)\n\t\t                         .add(deal.workerpool.price);\n\t\tuint256 poolstake = deal.workerpool.price\n\t\t                    .percentage(WORKERPOOL_STAKE_RATIO);\n\n\t\t// seize requester funds\n\t\tseize(deal.requester, requesterstake, _taskid);\n\t\t// dapp reward\n\t\tif (deal.app.price > 0)\n\t\t{\n\t\t\treward(deal.app.owner, deal.app.price, _taskid);\n\t\t}\n\t\t// data reward\n\t\tif (deal.dataset.price > 0 && deal.dataset.pointer != address(0))\n\t\t{\n\t\t\treward(deal.dataset.owner, deal.dataset.price, _taskid);\n\t\t}\n\t\t// unlock pool stake\n\t\tunlock(deal.workerpool.owner, poolstake);\n\t\t// pool reward performed by consensus manager\n\n\t\t/**\n\t\t * Retrieve part of the kitty\n\t\t * TODO: remove / keep ?\n\t\t */\n\t\tuint256 kitty = m_accounts[address(0)].locked;\n\t\tif (kitty > 0)\n\t\t{\n\t\t\tkitty = kitty\n\t\t\t        .percentage(KITTY_RATIO) // fraction\n\t\t\t        .max(KITTY_MIN)          // at least this\n\t\t\t        .min(kitty);             // but not more than available\n\t\t\tseize (address(0),            kitty, _taskid);\n\t\t\treward(deal.workerpool.owner, kitty, _taskid);\n\t\t}\n\t}\n\n\tfunction failedWork(bytes32 _dealid, bytes32 _taskid)\n\texternal onlyIexecHub\n\t{\n\t\tIexecODBLibCore.Deal storage deal = m_deals[_dealid];\n\n\t\tuint256 requesterstake = deal.app.price\n\t\t                         .add(deal.dataset.price)\n\t\t                         .add(deal.workerpool.price);\n\t\tuint256 poolstake = deal.workerpool.price\n\t\t                    .percentage(WORKERPOOL_STAKE_RATIO);\n\n\t\tunlock(deal.requester,        requesterstake    );\n\t\tseize (deal.workerpool.owner, poolstake, _taskid);\n\t\treward(address(0),            poolstake, _taskid); //  Kitty / Burn\n\t\tlock  (address(0),            poolstake         ); //  Kitty / Burn\n\t}\n\n\n\n\n\n\n\n\n\n\n\n\n\n\n\n\n\n\n\t/**\n\t * /!\\ TEMPORARY LEGACY /!\\\n\t */\n\n\tfunction viewDealABILegacy_pt1(bytes32 _id)\n\texternal view returns\n\t( address\n\t, address\n\t, uint256\n\t, address\n\t, address\n\t, uint256\n\t, address\n\t, address\n\t, uint256\n\t)\n\t{\n\t\tIexecODBLibCore.Deal memory deal = m_deals[_id];\n\t\treturn (\n\t\t\tdeal.app.pointer,\n\t\t\tdeal.app.owner,\n\t\t\tdeal.app.price,\n\t\t\tdeal.dataset.pointer,\n\t\t\tdeal.dataset.owner,\n\t\t\tdeal.dataset.price,\n\t\t\tdeal.workerpool.pointer,\n\t\t\tdeal.workerpool.owner,\n\t\t\tdeal.workerpool.price\n\t\t);\n\t}\n\n\tfunction viewDealABILegacy_pt2(bytes32 _id)\n\texternal view returns\n\t( uint256\n\t, bytes32\n\t, address\n\t, address\n\t, address\n\t, string memory\n\t)\n\t{\n\t\tIexecODBLibCore.Deal memory deal = m_deals[_id];\n\t\treturn (\n\t\t\tdeal.trust,\n\t\t\tdeal.tag,\n\t\t\tdeal.requester,\n\t\t\tdeal.beneficiary,\n\t\t\tdeal.callback,\n\t\t\tdeal.params\n\t\t);\n\t}\n\n\tfunction viewConfigABILegacy(bytes32 _id)\n\texternal view returns\n\t( uint256\n\t, uint256\n\t, uint256\n\t, uint256\n\t, uint256\n\t, uint256\n\t)\n\t{\n\t\tIexecODBLibCore.Deal memory deal = m_deals[_id];\n\t\treturn (\n\t\t\tdeal.category,\n\t\t\tdeal.startTime,\n\t\t\tdeal.botFirst,\n\t\t\tdeal.botSize,\n\t\t\tdeal.workerStake,\n\t\t\tdeal.schedulerRewardRatio\n\t\t);\n\t}\n\n\tfunction viewAccountABILegacy(address _user)\n\texternal view returns (uint256, uint256)\n\t{\n\t\tIexecODBLibCore.Account memory account = m_accounts[_user];\n\t\treturn ( account.stake, account.locked );\n\t}\n}\n",
  "sourcePath": "/home/ubuntu/jenkins-agent/workspace/PoCo-dev_lv3.0.30-3@2/contracts/IexecClerk.sol",
  "compiler": {
    "name": "solc",
    "version": "0.5.7+commit.6da8b019.Emscripten.clang"
  },
  "schemaVersion": "3.0.6",
  "updatedAt": "2019-04-19T19:14:06.320Z",
  "devdoc": {
    "methods": {}
  },
  "userdoc": {
    "methods": {
      "constructor": "*************************************************************************                              Constructor                               ***************************************************************************",
      "deposit(uint256)": {
        "notice": "Wallet methods: public"
      },
      "lockContribution(bytes32,address)": {
        "notice": "*************************************************************************                   Escrow overhead for contribution                     ***************************************************************************"
      },
      "signAppOrder((address,uint256,uint256,bytes32,address,address,address,bytes32,bytes))": {
        "notice": "*************************************************************************                           pre-signing tools                            ***************************************************************************"
      },
      "viewAccount(address)": {
        "notice": "Accessor"
      },
      "viewDealABILegacy_pt1(bytes32)": {
        "notice": "/!\\ TEMPORARY LEGACY /!\\"
      },
      "viewRequestDeals(bytes32)": {
        "notice": "*************************************************************************                               Accessor                                 ***************************************************************************"
      }
    }
  }
}