{
  "contractName": "IexecMaintenanceExtraDelegate",
  "abi": [
    {
      "anonymous": false,
      "inputs": [
        {
          "indexed": true,
          "internalType": "address",
          "name": "previousOwner",
          "type": "address"
        },
        {
          "indexed": true,
          "internalType": "address",
          "name": "newOwner",
          "type": "address"
        }
      ],
      "name": "OwnershipTransferred",
      "type": "event"
    },
    {
      "inputs": [],
      "name": "owner",
      "outputs": [
        {
          "internalType": "address",
          "name": "",
          "type": "address"
        }
      ],
      "stateMutability": "view",
      "type": "function"
    },
    {
      "inputs": [],
      "name": "renounceOwnership",
      "outputs": [],
      "stateMutability": "nonpayable",
      "type": "function"
    },
    {
      "inputs": [
        {
          "internalType": "address",
          "name": "newOwner",
          "type": "address"
        }
      ],
      "name": "transferOwnership",
      "outputs": [],
      "stateMutability": "nonpayable",
      "type": "function"
    },
    {
      "inputs": [
        {
          "internalType": "address",
          "name": "_appregistryAddress",
          "type": "address"
        },
        {
          "internalType": "address",
          "name": "_datasetregistryAddress",
          "type": "address"
        },
        {
          "internalType": "address",
          "name": "_workerpoolregistryAddress",
          "type": "address"
        }
      ],
      "name": "changeRegistries",
      "outputs": [],
      "stateMutability": "nonpayable",
      "type": "function"
    }
  ],
  "bytecode": "0x608060405234801561001057600080fd5b50600061001b610060565b600080546001600160a01b0319166001600160a01b0383169081178255604051929350916000805160206104cb833981519152908290a35061005b610064565b61010f565b3390565b61006c610060565b6000546001600160a01b039081169116146100a25760405162461bcd60e51b8152600401610099906100da565b60405180910390fd5b600080546040516001600160a01b03909116906000805160206104cb833981519152908390a3600080546001600160a01b0319169055565b6020808252818101527f4f776e61626c653a2063616c6c6572206973206e6f7420746865206f776e6572604082015260600190565b6103ad8061011e6000396000f3fe608060405234801561001057600080fd5b506004361061004c5760003560e01c80630e7c403314610051578063715018a6146100665780638da5cb5b1461006e578063f2fde38b1461008c575b600080fd5b61006461005f3660046102a3565b61009f565b005b61006461011c565b61007661019b565b60405161008391906102e8565b60405180910390f35b61006461009a366004610281565b6101aa565b6100a7610260565b6000546001600160a01b039081169116146100dd5760405162461bcd60e51b81526004016100d490610342565b60405180910390fd5b600580546001600160a01b039485166001600160a01b031991821617909155600680549385169382169390931790925560078054919093169116179055565b610124610260565b6000546001600160a01b039081169116146101515760405162461bcd60e51b81526004016100d490610342565b600080546040516001600160a01b03909116907f8be0079c531659141344cd1fd0a4f28419497f9722a3daafe3b4186f6b6457e0908390a3600080546001600160a01b0319169055565b6000546001600160a01b031690565b6101b2610260565b6000546001600160a01b039081169116146101df5760405162461bcd60e51b81526004016100d490610342565b6001600160a01b0381166102055760405162461bcd60e51b81526004016100d4906102fc565b600080546040516001600160a01b03808516939216917f8be0079c531659141344cd1fd0a4f28419497f9722a3daafe3b4186f6b6457e091a3600080546001600160a01b0319166001600160a01b0392909216919091179055565b3390565b80356001600160a01b038116811461027b57600080fd5b92915050565b600060208284031215610292578081fd5b61029c8383610264565b9392505050565b6000806000606084860312156102b7578182fd5b6102c18585610264565b92506102d08560208601610264565b91506102df8560408601610264565b90509250925092565b6001600160a01b0391909116815260200190565b60208082526026908201527f4f776e61626c653a206e6577206f776e657220697320746865207a65726f206160408201526564647265737360d01b606082015260800190565b6020808252818101527f4f776e61626c653a2063616c6c6572206973206e6f7420746865206f776e657260408201526060019056fea26469706673582212203d040efe607ab7e054060c33c43679c88b85232a1fb51de4713f5c0249bdb01f64736f6c634300060c00338be0079c531659141344cd1fd0a4f28419497f9722a3daafe3b4186f6b6457e0",
  "immutableReferences": {},
  "source": "// SPDX-License-Identifier: Apache-2.0\n\n/******************************************************************************\n * Copyright 2020 IEXEC BLOCKCHAIN TECH                                       *\n *                                                                            *\n * Licensed under the Apache License, Version 2.0 (the \"License\");            *\n * you may not use this file except in compliance with the License.           *\n * You may obtain a copy of the License at                                    *\n *                                                                            *\n *     http://www.apache.org/licenses/LICENSE-2.0                             *\n *                                                                            *\n * Unless required by applicable law or agreed to in writing, software        *\n * distributed under the License is distributed on an \"AS IS\" BASIS,          *\n * WITHOUT WARRANTIES OR CONDITIONS OF ANY KIND, either express or implied.   *\n * See the License for the specific language governing permissions and        *\n * limitations under the License.                                             *\n ******************************************************************************/\n\npragma solidity ^0.6.0;\npragma experimental ABIEncoderV2;\n\nimport \"../DelegateBase.sol\";\nimport \"../interfaces/IexecMaintenanceExtra.sol\";\n\n\ncontract IexecMaintenanceExtraDelegate is IexecMaintenanceExtra, DelegateBase\n{\n\tfunction changeRegistries(\n\t\taddress _appregistryAddress,\n\t\taddress _datasetregistryAddress,\n\t\taddress _workerpoolregistryAddress)\n\texternal override onlyOwner()\n\t{\n\t\tm_appregistry        = IRegistry(_appregistryAddress);\n\t\tm_datasetregistry    = IRegistry(_datasetregistryAddress);\n\t\tm_workerpoolregistry = IRegistry(_workerpoolregistryAddress);\n\t}\n}\n",
  "sourcePath": "/home/amxx/Work/iExec/code/PoCo-dev/contracts/modules/delegates/IexecMaintenanceExtraDelegate.sol",
  "compiler": {
    "name": "solc",
    "version": "0.6.12+commit.27d51765.Emscripten.clang"
  },
  "schemaVersion": "3.2.2",
  "updatedAt": "2020-11-09T09:15:00.600Z",
  "devdoc": {
    "kind": "dev",
    "methods": {
      "owner()": {
        "details": "Returns the address of the current owner."
      },
      "renounceOwnership()": {
        "details": "Leaves the contract without owner. It will not be possible to call `onlyOwner` functions anymore. Can only be called by the current owner. NOTE: Renouncing ownership will leave the contract without an owner, thereby removing any functionality that is only available to the owner."
      },
      "transferOwnership(address)": {
        "details": "Transfers ownership of the contract to a new account (`newOwner`). Can only be called by the current owner."
      }
    },
    "version": 1
  },
  "userdoc": {
    "kind": "user",
    "methods": {},
    "version": 1
  }
}