{
  "contractName": "IexecAPI",
  "abi": [
    {
      "constant": true,
      "inputs": [],
      "name": "changeable",
      "outputs": [
        {
          "name": "",
          "type": "bool"
        }
      ],
      "payable": false,
      "stateMutability": "view",
      "type": "function"
    },
    {
      "constant": false,
      "inputs": [
        {
          "name": "_newOwner",
          "type": "address"
        }
      ],
      "name": "setImmutableOwnership",
      "outputs": [],
      "payable": false,
      "stateMutability": "nonpayable",
      "type": "function"
    },
    {
      "constant": true,
      "inputs": [],
      "name": "m_callbackProofAddress",
      "outputs": [
        {
          "name": "",
          "type": "address"
        }
      ],
      "payable": false,
      "stateMutability": "view",
      "type": "function"
    },
    {
      "constant": true,
      "inputs": [],
      "name": "m_rlcAddress",
      "outputs": [
        {
          "name": "",
          "type": "address"
        }
      ],
      "payable": false,
      "stateMutability": "view",
      "type": "function"
    },
    {
      "constant": true,
      "inputs": [],
      "name": "m_owner",
      "outputs": [
        {
          "name": "",
          "type": "address"
        }
      ],
      "payable": false,
      "stateMutability": "view",
      "type": "function"
    },
    {
      "inputs": [
        {
          "name": "_iexecHubAddress",
          "type": "address"
        },
        {
          "name": "_callbackProofAddress",
          "type": "address"
        },
        {
          "name": "_rlcAddress",
          "type": "address"
        }
      ],
      "payable": false,
      "stateMutability": "nonpayable",
      "type": "constructor"
    },
    {
      "anonymous": false,
      "inputs": [
        {
          "indexed": false,
          "name": "woid",
          "type": "address"
        }
      ],
      "name": "WorkOrder",
      "type": "event"
    },
    {
      "anonymous": false,
      "inputs": [
        {
          "indexed": false,
          "name": "to",
          "type": "address"
        },
        {
          "indexed": false,
          "name": "amount",
          "type": "uint256"
        }
      ],
      "name": "WithdrawRLCFromIexecAPI",
      "type": "event"
    },
    {
      "anonymous": false,
      "inputs": [
        {
          "indexed": false,
          "name": "iexecHub",
          "type": "address"
        },
        {
          "indexed": false,
          "name": "amount",
          "type": "uint256"
        }
      ],
      "name": "ApproveIexecHub",
      "type": "event"
    },
    {
      "anonymous": false,
      "inputs": [
        {
          "indexed": false,
          "name": "iexecHub",
          "type": "address"
        },
        {
          "indexed": false,
          "name": "amount",
          "type": "uint256"
        }
      ],
      "name": "DepositRLCOnIexecHub",
      "type": "event"
    },
    {
      "anonymous": false,
      "inputs": [
        {
          "indexed": false,
          "name": "iexecHub",
          "type": "address"
        },
        {
          "indexed": false,
          "name": "amount",
          "type": "uint256"
        }
      ],
      "name": "WithdrawRLCFromIexecHub",
      "type": "event"
    },
    {
      "anonymous": false,
      "inputs": [
        {
          "indexed": false,
          "name": "woid",
          "type": "address"
        },
        {
          "indexed": false,
          "name": "stdout",
          "type": "string"
        },
        {
          "indexed": false,
          "name": "stderr",
          "type": "string"
        },
        {
          "indexed": false,
          "name": "uri",
          "type": "string"
        }
      ],
      "name": "WorkOrderCallback",
      "type": "event"
    },
    {
      "anonymous": false,
      "inputs": [
        {
          "indexed": true,
          "name": "previousOwner",
          "type": "address"
        },
        {
          "indexed": true,
          "name": "newOwner",
          "type": "address"
        }
      ],
      "name": "OwnershipTransferred",
      "type": "event"
    },
    {
      "constant": false,
      "inputs": [
        {
          "name": "_marketorderIdx",
          "type": "uint256"
        },
        {
          "name": "_workerpool",
          "type": "address"
        },
        {
          "name": "_app",
          "type": "address"
        },
        {
          "name": "_dataset",
          "type": "address"
        },
        {
          "name": "_params",
          "type": "string"
        },
        {
          "name": "_callback",
          "type": "address"
        },
        {
          "name": "_beneficiary",
          "type": "address"
        }
      ],
      "name": "buyForWorkOrder",
      "outputs": [],
      "payable": false,
      "stateMutability": "nonpayable",
      "type": "function"
    },
    {
      "constant": false,
      "inputs": [
        {
          "name": "_woid",
          "type": "address"
        },
        {
          "name": "_stdout",
          "type": "string"
        },
        {
          "name": "_stderr",
          "type": "string"
        },
        {
          "name": "_uri",
          "type": "string"
        }
      ],
      "name": "workOrderCallback",
      "outputs": [
        {
          "name": "",
          "type": "bool"
        }
      ],
      "payable": false,
      "stateMutability": "nonpayable",
      "type": "function"
    },
    {
      "constant": false,
      "inputs": [
        {
          "name": "amount",
          "type": "uint256"
        }
      ],
      "name": "approveIexecHub",
      "outputs": [
        {
          "name": "",
          "type": "bool"
        }
      ],
      "payable": false,
      "stateMutability": "nonpayable",
      "type": "function"
    },
    {
      "constant": false,
      "inputs": [
        {
          "name": "amount",
          "type": "uint256"
        }
      ],
      "name": "withdrawRLCFromIexecAPI",
      "outputs": [
        {
          "name": "",
          "type": "bool"
        }
      ],
      "payable": false,
      "stateMutability": "nonpayable",
      "type": "function"
    },
    {
      "constant": false,
      "inputs": [
        {
          "name": "amount",
          "type": "uint256"
        }
      ],
      "name": "depositRLCOnIexecHub",
      "outputs": [
        {
          "name": "",
          "type": "bool"
        }
      ],
      "payable": false,
      "stateMutability": "nonpayable",
      "type": "function"
    },
    {
      "constant": false,
      "inputs": [
        {
          "name": "amount",
          "type": "uint256"
        }
      ],
      "name": "withdrawRLCFromIexecHub",
      "outputs": [
        {
          "name": "",
          "type": "bool"
        }
      ],
      "payable": false,
      "stateMutability": "nonpayable",
      "type": "function"
    }
  ],
  "bytecode": "0x6060604052341561000f57600080fd5b604051606080610bc58339810160405280805191906020018051919060200180516000805460a060020a60ff0219600160a060020a03338116600160a060020a0319909316929092171674010000000000000000000000000000000000000000179091559092508491508116151561008657600080fd5b60018054600160a060020a0319908116600160a060020a039384169081179092556002805482169092179091556003805482169483169490941790935560048054909316911617905550610ae6806100df6000396000f3006060604052600436106100955763ffffffff60e060020a6000350416634c0f5342811461009a578063514d7067146100c4578063536e2800146101a757806356af48ca1461022b57806379117b2e14610241578063951b26a314610257578063a56620f71461026a578063bbac78a914610280578063c2cc42141461029f578063d1e0a644146102ce578063deff41c1146102e1575b600080fd5b34156100a557600080fd5b6100b06004356102f4565b604051901515815260200160405180910390f35b34156100cf57600080fd5b6100b060048035600160a060020a03169060446024803590810190830135806020601f8201819004810201604051908101604052818152929190602084018383808284378201915050505050509190803590602001908201803590602001908080601f01602080910402602001604051908101604052818152929190602084018383808284378201915050505050509190803590602001908201803590602001908080601f0160208091040260200160405190810160405281815292919060208401838380828437509496506103ed95505050505050565b34156101b257600080fd5b6102296004803590600160a060020a0360248035821692604435831692606435169160a49060843590810190830135806020601f8201819004810201604051908101604052818152929190602084018383808284375094965050600160a060020a0385358116956020013516935061059592505050565b005b341561023657600080fd5b6100b06004356106e7565b341561024c57600080fd5b6100b06004356107c5565b341561026257600080fd5b6100b06108b7565b341561027557600080fd5b6100b06004356108d8565b341561028b57600080fd5b610229600160a060020a03600435166109bd565b34156102aa57600080fd5b6102b2610a8d565b604051600160a060020a03909116815260200160405180910390f35b34156102d957600080fd5b6102b2610a9c565b34156102ec57600080fd5b6102b2610aab565b60008054819033600160a060020a0390811691161461031257600080fd5b50600454600154600160a060020a0391821691829163095ea7b391168560405160e060020a63ffffffff8516028152600160a060020a0390921660048301526024820152604401602060405180830381600087803b151561037257600080fd5b5af1151561037f57600080fd5b50505060405180519050151561039457600080fd5b6001547f5e9a23944fb3d019925ad84f8e1696436c1c7229787674a8ef8e08c776050df590600160a060020a031684604051600160a060020a03909216825260208201526040908101905180910390a150600192915050565b60035460009033600160a060020a0390811691161461040b57600080fd5b7f708463eccdafadafbe7022c0f4909af2e585cd08c63eaefa786159e156227e3785858585604051600160a060020a03851681526080602082018181529060408301906060840190840187818151815260200191508051906020019080838360005b8381101561048557808201518382015260200161046d565b50505050905090810190601f1680156104b25780820380516001836020036101000a031916815260200191505b50848103835286818151815260200191508051906020019080838360005b838110156104e85780820151838201526020016104d0565b50505050905090810190601f1680156105155780820380516001836020036101000a031916815260200191505b50848103825285818151815260200191508051906020019080838360005b8381101561054b578082015183820152602001610533565b50505050905090810190601f1680156105785780820380516001836020036101000a031916815260200191505b5097505050505050505060405180910390a1506001949350505050565b600254600090600160a060020a031663536e28008989898989898960405160e060020a63ffffffff8a1602815260048101888152600160a060020a0380891660248401528781166044840152868116606484015284811660a4840152831660c483015260e060848301908152909160e40185818151815260200191508051906020019080838360005b8381101561063657808201518382015260200161061e565b50505050905090810190601f1680156106635780820380516001836020036101000a031916815260200191505b5098505050505050505050602060405180830381600087803b151561068757600080fd5b5af1151561069457600080fd5b5050506040518051905090507f6390dedee0bf0cde258f2f3d4d4b5ec3a03d5bbad3850033ae166acb369f065381604051600160a060020a03909116815260200160405180910390a15050505050505050565b6000805433600160a060020a0390811691161461070357600080fd5b600254600160a060020a031663b6b55f258360405160e060020a63ffffffff84160281526004810191909152602401602060405180830381600087803b151561074b57600080fd5b5af1151561075857600080fd5b50505060405180519050151561076d57600080fd5b6001547fbaa053b1e17bc83190da4939238743339cd734d83d7413a6d3c117df790dd1a590600160a060020a031683604051600160a060020a03909216825260208201526040908101905180910390a1506001919050565b6000805433600160a060020a039081169116146107e157600080fd5b600254600160a060020a0316632e1a7d4d8360405160e060020a63ffffffff84160281526004810191909152602401602060405180830381600087803b151561082957600080fd5b5af1151561083657600080fd5b50505060405180519050151561084b57600080fd5b610854826108d8565b151561085f57600080fd5b6001547f2114edfbc766dd13ecebe139c59b657991c87b94518361feb5db86f05b0570f190600160a060020a031683604051600160a060020a03909216825260208201526040908101905180910390a1506001919050565b60005474010000000000000000000000000000000000000000900460ff1681565b60008054819033600160a060020a039081169116146108f657600080fd5b50600454600160a060020a03168063a9059cbb338560405160e060020a63ffffffff8516028152600160a060020a0390921660048301526024820152604401602060405180830381600087803b151561094e57600080fd5b5af1151561095b57600080fd5b50505060405180519050151561097057600080fd5b7f3cab9babe8fba8f5cfad7cac37057781ced585f6af63c4e64aedbb12a5c96d993384604051600160a060020a03909216825260208201526040908101905180910390a150600192915050565b60005433600160a060020a039081169116146109d857600080fd5b60005474010000000000000000000000000000000000000000900460ff161515610a0157600080fd5b600160a060020a0381161515610a1657600080fd5b6000805473ffffffffffffffffffffffffffffffffffffffff1916600160a060020a0383811691821774ff00000000000000000000000000000000000000001981169093559091167f8be0079c531659141344cd1fd0a4f28419497f9722a3daafe3b4186f6b6457e060405160405180910390a350565b600354600160a060020a031681565b600454600160a060020a031681565b600054600160a060020a0316815600a165627a7a72305820d52c4e1a327b2e55caa8939d55033039e9b0d268dbdd873cb3fc75afa81b43ae0029",
  "source": "pragma solidity ^0.4.21;\nimport './OwnableOZ.sol';\nimport './IexecHubAccessor.sol';\nimport './IexecCallbackInterface.sol';\nimport \"rlc-token/contracts/RLC.sol\";\n\n\ncontract IexecAPI is OwnableOZ, IexecHubAccessor, IexecCallbackInterface\n{\n\tevent WorkOrder              (address woid);\n\tevent WithdrawRLCFromIexecAPI(address to,       uint256 amount);\n\tevent ApproveIexecHub        (address iexecHub, uint256 amount);\n\tevent DepositRLCOnIexecHub   (address iexecHub, uint256 amount);\n\tevent WithdrawRLCFromIexecHub(address iexecHub, uint256 amount);\n\n\taddress public m_callbackProofAddress;\n\taddress public m_rlcAddress;\n\n\t// Constructor\n\tfunction IexecAPI(address _iexecHubAddress,address _callbackProofAddress, address _rlcAddress)\n\tIexecHubAccessor(_iexecHubAddress)\n\tpublic\n\t{\n    m_callbackProofAddress=_callbackProofAddress;\n\t\tm_rlcAddress =_rlcAddress;\n\t}\n\n\tfunction buyForWorkOrder(\n\t\tuint256 _marketorderIdx,\n\t\taddress _workerpool,\n\t\taddress _app,\n\t\taddress _dataset,\n\t\tstring  _params,\n\t\taddress _callback,\n\t\taddress _beneficiary)\n\tpublic\n\t{\n\t\taddress woid = iexecHubInterface.buyForWorkOrder(_marketorderIdx, _workerpool, _app, _dataset, _params, _callback, _beneficiary);\n\t\temit WorkOrder(woid);\n\t}\n\n\tfunction workOrderCallback(\n\t\taddress _woid,\n\t\tstring  _stdout,\n\t\tstring  _stderr,\n\t\tstring  _uri)\n\tpublic returns (bool)\n\t{\n\t\trequire(msg.sender == m_callbackProofAddress);\n\t\temit WorkOrderCallback(_woid, _stdout, _stderr, _uri);\n\t\treturn true;\n\t}\n\n\tfunction approveIexecHub(uint256 amount) public onlyOwner returns (bool)\n\t{\n\t\tRLC rlc = RLC(m_rlcAddress);\n\t\trequire(rlc.approve(iexecHubAddress, amount));\n\t\temit ApproveIexecHub(iexecHubAddress, amount);\n\t\treturn true;\n\t}\n\n\tfunction withdrawRLCFromIexecAPI(uint256 amount) public onlyOwner returns (bool)\n\t{\n\t\tRLC rlc = RLC(m_rlcAddress);\n\t\trequire(rlc.transfer(msg.sender, amount));\n\t\temit WithdrawRLCFromIexecAPI(msg.sender, amount);\n\t\treturn true;\n\t}\n\n\tfunction depositRLCOnIexecHub(uint256 amount) public onlyOwner returns (bool)\n\t{\n\t\trequire(iexecHubInterface.deposit(amount));\n\t\temit DepositRLCOnIexecHub(iexecHubAddress, amount);\n\t\treturn true;\n\t}\n\n\tfunction withdrawRLCFromIexecHub(uint256 amount) public onlyOwner returns (bool)\n\t{\n\t\trequire(iexecHubInterface.withdraw(amount));\n\t\trequire(withdrawRLCFromIexecAPI(amount));\n\t\temit WithdrawRLCFromIexecHub(iexecHubAddress, amount);\n\t\treturn true;\n\t}\n\n\n\n}\n",
  "sourcePath": "/Users/fbranci/iexecdev/PoCo/contracts/IexecAPI.sol",
  "compiler": {
    "name": "solc",
    "version": "0.4.21+commit.dfe3193c.Emscripten.clang"
  },
  "schemaVersion": "2.0.0",
  "updatedAt": "2018-05-18T16:17:06.047Z"
}