{
  "contractName": "IexecHubAccessor",
  "abi": [
    {
      "constant": true,
      "inputs": [],
      "name": "iexechub",
      "outputs": [
        {
          "name": "",
          "type": "address"
        }
      ],
      "payable": false,
      "stateMutability": "view",
      "type": "function"
    },
    {
      "inputs": [
        {
          "name": "_iexechub",
          "type": "address"
        }
      ],
      "payable": false,
      "stateMutability": "nonpayable",
      "type": "constructor"
    }
  ],
  "bytecode": "0x608060405234801561001057600080fd5b506040516020806100fe8339810180604052602081101561003057600080fd5b50516001600160a01b03811661004557600080fd5b600080546001600160a01b039092166001600160a01b0319909216919091179055608a806100746000396000f3fe6080604052348015600f57600080fd5b506004361060285760003560e01c80638d52e41314602d575b600080fd5b6033604f565b604080516001600160a01b039092168252519081900360200190f35b6000546001600160a01b03168156fea165627a7a72305820aa45f660f3e2a74ca180c39e5cf3420fb3ebd22f92d2805b9608f550cb7b1a5c0029",
  "source": "pragma solidity ^0.5.8;\n\nimport \"./IexecHubInterface.sol\";\n\ncontract IexecHubAccessor\n{\n\tIexecHubInterface public iexechub;\n\n\tmodifier onlyIexecHub()\n\t{\n\t\trequire(msg.sender == address(iexechub));\n\t\t_;\n\t}\n\n\tconstructor(address _iexechub)\n\tpublic\n\t{\n\t\trequire(_iexechub != address(0));\n\t\tiexechub = IexecHubInterface(_iexechub);\n\t}\n\n}\n",
  "sourcePath": "/home/amxx/Work/iExec/code/PoCo-dev/contracts/IexecHubAccessor.sol",
  "compiler": {
    "name": "solc",
    "version": "0.5.8+commit.23d335f2.Emscripten.clang"
  },
  "schemaVersion": "3.0.13",
  "updatedAt": "2019-09-03T07:54:45.282Z",
  "devdoc": {
    "methods": {}
  },
  "userdoc": {
    "methods": {}
  }
}