{
  "contractName": "IexecAccessorsDelegate",
  "abi": [
    {
      "constant": true,
      "inputs": [],
      "name": "EIP712DOMAIN_SEPARATOR",
      "outputs": [
        {
          "name": "",
          "type": "bytes32"
        }
      ],
      "payable": false,
      "stateMutability": "view",
      "type": "function"
    },
    {
      "constant": true,
      "inputs": [],
      "name": "appregistry",
      "outputs": [
        {
          "name": "",
          "type": "address"
        }
      ],
      "payable": false,
      "stateMutability": "view",
      "type": "function"
    },
    {
      "constant": true,
      "inputs": [],
      "name": "WORKERPOOL_STAKE_RATIO",
      "outputs": [
        {
          "name": "",
          "type": "uint256"
        }
      ],
      "payable": false,
      "stateMutability": "view",
      "type": "function"
    },
    {
      "constant": true,
      "inputs": [],
      "name": "KITTY_RATIO",
      "outputs": [
        {
          "name": "",
          "type": "uint256"
        }
      ],
      "payable": false,
      "stateMutability": "view",
      "type": "function"
    },
    {
      "constant": true,
      "inputs": [],
      "name": "REVEAL_DEADLINE_RATIO",
      "outputs": [
        {
          "name": "",
          "type": "uint256"
        }
      ],
      "payable": false,
      "stateMutability": "view",
      "type": "function"
    },
    {
      "constant": true,
      "inputs": [],
      "name": "GROUPMEMBER_PURPOSE",
      "outputs": [
        {
          "name": "",
          "type": "uint256"
        }
      ],
      "payable": false,
      "stateMutability": "view",
      "type": "function"
    },
    {
      "constant": false,
      "inputs": [],
      "name": "renounceOwnership",
      "outputs": [],
      "payable": false,
      "stateMutability": "nonpayable",
      "type": "function"
    },
    {
      "constant": true,
      "inputs": [],
      "name": "CONTRIBUTION_DEADLINE_RATIO",
      "outputs": [
        {
          "name": "",
          "type": "uint256"
        }
      ],
      "payable": false,
      "stateMutability": "view",
      "type": "function"
    },
    {
      "constant": true,
      "inputs": [],
      "name": "owner",
      "outputs": [
        {
          "name": "",
          "type": "address"
        }
      ],
      "payable": false,
      "stateMutability": "view",
      "type": "function"
    },
    {
      "constant": true,
      "inputs": [],
      "name": "isOwner",
      "outputs": [
        {
          "name": "",
          "type": "bool"
        }
      ],
      "payable": false,
      "stateMutability": "view",
      "type": "function"
    },
    {
      "constant": true,
      "inputs": [],
      "name": "workerpoolregistry",
      "outputs": [
        {
          "name": "",
          "type": "address"
        }
      ],
      "payable": false,
      "stateMutability": "view",
      "type": "function"
    },
    {
      "constant": true,
      "inputs": [],
      "name": "FINAL_DEADLINE_RATIO",
      "outputs": [
        {
          "name": "",
          "type": "uint256"
        }
      ],
      "payable": false,
      "stateMutability": "view",
      "type": "function"
    },
    {
      "constant": true,
      "inputs": [],
      "name": "KITTY_ADDRESS",
      "outputs": [
        {
          "name": "",
          "type": "address"
        }
      ],
      "payable": false,
      "stateMutability": "view",
      "type": "function"
    },
    {
      "constant": true,
      "inputs": [],
      "name": "datasetregistry",
      "outputs": [
        {
          "name": "",
          "type": "address"
        }
      ],
      "payable": false,
      "stateMutability": "view",
      "type": "function"
    },
    {
      "constant": true,
      "inputs": [],
      "name": "KITTY_MIN",
      "outputs": [
        {
          "name": "",
          "type": "uint256"
        }
      ],
      "payable": false,
      "stateMutability": "view",
      "type": "function"
    },
    {
      "constant": false,
      "inputs": [
        {
          "name": "newOwner",
          "type": "address"
        }
      ],
      "name": "transferOwnership",
      "outputs": [],
      "payable": false,
      "stateMutability": "nonpayable",
      "type": "function"
    },
    {
      "anonymous": false,
      "inputs": [
        {
          "indexed": true,
          "name": "previousOwner",
          "type": "address"
        },
        {
          "indexed": true,
          "name": "newOwner",
          "type": "address"
        }
      ],
      "name": "OwnershipTransferred",
      "type": "event"
    },
    {
      "constant": true,
      "inputs": [],
      "name": "name",
      "outputs": [
        {
          "name": "",
          "type": "string"
        }
      ],
      "payable": false,
      "stateMutability": "view",
      "type": "function"
    },
    {
      "constant": true,
      "inputs": [],
      "name": "symbol",
      "outputs": [
        {
          "name": "",
          "type": "string"
        }
      ],
      "payable": false,
      "stateMutability": "view",
      "type": "function"
    },
    {
      "constant": true,
      "inputs": [],
      "name": "decimals",
      "outputs": [
        {
          "name": "",
          "type": "uint8"
        }
      ],
      "payable": false,
      "stateMutability": "view",
      "type": "function"
    },
    {
      "constant": true,
      "inputs": [],
      "name": "totalSupply",
      "outputs": [
        {
          "name": "",
          "type": "uint256"
        }
      ],
      "payable": false,
      "stateMutability": "view",
      "type": "function"
    },
    {
      "constant": true,
      "inputs": [
        {
          "name": "account",
          "type": "address"
        }
      ],
      "name": "balanceOf",
      "outputs": [
        {
          "name": "",
          "type": "uint256"
        }
      ],
      "payable": false,
      "stateMutability": "view",
      "type": "function"
    },
    {
      "constant": true,
      "inputs": [
        {
          "name": "account",
          "type": "address"
        }
      ],
      "name": "frozenOf",
      "outputs": [
        {
          "name": "",
          "type": "uint256"
        }
      ],
      "payable": false,
      "stateMutability": "view",
      "type": "function"
    },
    {
      "constant": true,
      "inputs": [
        {
          "name": "account",
          "type": "address"
        },
        {
          "name": "spender",
          "type": "address"
        }
      ],
      "name": "allowance",
      "outputs": [
        {
          "name": "",
          "type": "uint256"
        }
      ],
      "payable": false,
      "stateMutability": "view",
      "type": "function"
    },
    {
      "constant": true,
      "inputs": [
        {
          "name": "account",
          "type": "address"
        }
      ],
      "name": "viewAccount",
      "outputs": [
        {
          "components": [
            {
              "name": "stake",
              "type": "uint256"
            },
            {
              "name": "locked",
              "type": "uint256"
            }
          ],
          "name": "",
          "type": "tuple"
        }
      ],
      "payable": false,
      "stateMutability": "view",
      "type": "function"
    },
    {
      "constant": true,
      "inputs": [],
      "name": "token",
      "outputs": [
        {
          "name": "",
          "type": "address"
        }
      ],
      "payable": false,
      "stateMutability": "view",
      "type": "function"
    },
    {
      "constant": true,
      "inputs": [
        {
          "name": "_id",
          "type": "bytes32"
        }
      ],
      "name": "viewDeal",
      "outputs": [
        {
          "components": [
            {
              "components": [
                {
                  "name": "pointer",
                  "type": "address"
                },
                {
                  "name": "owner",
                  "type": "address"
                },
                {
                  "name": "price",
                  "type": "uint256"
                }
              ],
              "name": "app",
              "type": "tuple"
            },
            {
              "components": [
                {
                  "name": "pointer",
                  "type": "address"
                },
                {
                  "name": "owner",
                  "type": "address"
                },
                {
                  "name": "price",
                  "type": "uint256"
                }
              ],
              "name": "dataset",
              "type": "tuple"
            },
            {
              "components": [
                {
                  "name": "pointer",
                  "type": "address"
                },
                {
                  "name": "owner",
                  "type": "address"
                },
                {
                  "name": "price",
                  "type": "uint256"
                }
              ],
              "name": "workerpool",
              "type": "tuple"
            },
            {
              "name": "trust",
              "type": "uint256"
            },
            {
              "name": "category",
              "type": "uint256"
            },
            {
              "name": "tag",
              "type": "bytes32"
            },
            {
              "name": "requester",
              "type": "address"
            },
            {
              "name": "beneficiary",
              "type": "address"
            },
            {
              "name": "callback",
              "type": "address"
            },
            {
              "name": "params",
              "type": "string"
            },
            {
              "name": "startTime",
              "type": "uint256"
            },
            {
              "name": "botFirst",
              "type": "uint256"
            },
            {
              "name": "botSize",
              "type": "uint256"
            },
            {
              "name": "workerStake",
              "type": "uint256"
            },
            {
              "name": "schedulerRewardRatio",
              "type": "uint256"
            }
          ],
          "name": "deal",
          "type": "tuple"
        }
      ],
      "payable": false,
      "stateMutability": "view",
      "type": "function"
    },
    {
      "constant": true,
      "inputs": [
        {
          "name": "_id",
          "type": "bytes32"
        }
      ],
      "name": "viewRequestDeals",
      "outputs": [
        {
          "name": "",
          "type": "bytes32[]"
        }
      ],
      "payable": false,
      "stateMutability": "view",
      "type": "function"
    },
    {
      "constant": true,
      "inputs": [
        {
          "name": "_id",
          "type": "bytes32"
        }
      ],
      "name": "viewConsumed",
      "outputs": [
        {
          "name": "consumed",
          "type": "uint256"
        }
      ],
      "payable": false,
      "stateMutability": "view",
      "type": "function"
    },
    {
      "constant": true,
      "inputs": [
        {
          "name": "_id",
          "type": "bytes32"
        }
      ],
      "name": "viewPresigned",
      "outputs": [
        {
          "name": "presigned",
          "type": "bool"
        }
      ],
      "payable": false,
      "stateMutability": "view",
      "type": "function"
    },
    {
      "constant": true,
      "inputs": [
        {
          "name": "_taskid",
          "type": "bytes32"
        }
      ],
      "name": "viewTask",
      "outputs": [
        {
          "components": [
            {
              "name": "status",
              "type": "uint8"
            },
            {
              "name": "dealid",
              "type": "bytes32"
            },
            {
              "name": "idx",
              "type": "uint256"
            },
            {
              "name": "timeref",
              "type": "uint256"
            },
            {
              "name": "contributionDeadline",
              "type": "uint256"
            },
            {
              "name": "revealDeadline",
              "type": "uint256"
            },
            {
              "name": "finalDeadline",
              "type": "uint256"
            },
            {
              "name": "consensusValue",
              "type": "bytes32"
            },
            {
              "name": "revealCounter",
              "type": "uint256"
            },
            {
              "name": "winnerCounter",
              "type": "uint256"
            },
            {
              "name": "contributors",
              "type": "address[]"
            },
            {
              "name": "resultDigest",
              "type": "bytes32"
            },
            {
              "name": "results",
              "type": "bytes"
            }
          ],
          "name": "",
          "type": "tuple"
        }
      ],
      "payable": false,
      "stateMutability": "view",
      "type": "function"
    },
    {
      "constant": true,
      "inputs": [
        {
          "name": "_taskid",
          "type": "bytes32"
        },
        {
          "name": "_worker",
          "type": "address"
        }
      ],
      "name": "viewContribution",
      "outputs": [
        {
          "components": [
            {
              "name": "status",
              "type": "uint8"
            },
            {
              "name": "resultHash",
              "type": "bytes32"
            },
            {
              "name": "resultSeal",
              "type": "bytes32"
            },
            {
              "name": "enclaveChallenge",
              "type": "address"
            }
          ],
          "name": "",
          "type": "tuple"
        }
      ],
      "payable": false,
      "stateMutability": "view",
      "type": "function"
    },
    {
      "constant": true,
      "inputs": [
        {
          "name": "_worker",
          "type": "address"
        }
      ],
      "name": "viewScore",
      "outputs": [
        {
          "name": "",
          "type": "uint256"
        }
      ],
      "payable": false,
      "stateMutability": "view",
      "type": "function"
    },
    {
      "constant": true,
      "inputs": [
        {
          "name": "id",
          "type": "bytes32"
        }
      ],
      "name": "resultFor",
      "outputs": [
        {
          "name": "",
          "type": "bytes"
        }
      ],
      "payable": false,
      "stateMutability": "view",
      "type": "function"
    },
    {
      "constant": true,
      "inputs": [
        {
          "name": "_catid",
          "type": "uint256"
        }
      ],
      "name": "viewCategory",
      "outputs": [
        {
          "components": [
            {
              "name": "name",
              "type": "string"
            },
            {
              "name": "description",
              "type": "string"
            },
            {
              "name": "workClockTimeRef",
              "type": "uint256"
            }
          ],
          "name": "category",
          "type": "tuple"
        }
      ],
      "payable": false,
      "stateMutability": "view",
      "type": "function"
    },
    {
      "constant": true,
      "inputs": [],
      "name": "countCategory",
      "outputs": [
        {
          "name": "count",
          "type": "uint256"
        }
      ],
      "payable": false,
      "stateMutability": "view",
      "type": "function"
    },
    {
      "constant": true,
      "inputs": [
        {
          "name": "_id",
          "type": "bytes32"
        }
      ],
      "name": "viewDealABILegacy_pt1",
      "outputs": [
        {
          "name": "",
          "type": "address"
        },
        {
          "name": "",
          "type": "address"
        },
        {
          "name": "",
          "type": "uint256"
        },
        {
          "name": "",
          "type": "address"
        },
        {
          "name": "",
          "type": "address"
        },
        {
          "name": "",
          "type": "uint256"
        },
        {
          "name": "",
          "type": "address"
        },
        {
          "name": "",
          "type": "address"
        },
        {
          "name": "",
          "type": "uint256"
        }
      ],
      "payable": false,
      "stateMutability": "view",
      "type": "function"
    },
    {
      "constant": true,
      "inputs": [
        {
          "name": "_id",
          "type": "bytes32"
        }
      ],
      "name": "viewDealABILegacy_pt2",
      "outputs": [
        {
          "name": "",
          "type": "uint256"
        },
        {
          "name": "",
          "type": "bytes32"
        },
        {
          "name": "",
          "type": "address"
        },
        {
          "name": "",
          "type": "address"
        },
        {
          "name": "",
          "type": "address"
        },
        {
          "name": "",
          "type": "string"
        }
      ],
      "payable": false,
      "stateMutability": "view",
      "type": "function"
    },
    {
      "constant": true,
      "inputs": [
        {
          "name": "_id",
          "type": "bytes32"
        }
      ],
      "name": "viewConfigABILegacy",
      "outputs": [
        {
          "name": "",
          "type": "uint256"
        },
        {
          "name": "",
          "type": "uint256"
        },
        {
          "name": "",
          "type": "uint256"
        },
        {
          "name": "",
          "type": "uint256"
        },
        {
          "name": "",
          "type": "uint256"
        },
        {
          "name": "",
          "type": "uint256"
        }
      ],
      "payable": false,
      "stateMutability": "view",
      "type": "function"
    },
    {
      "constant": true,
      "inputs": [
        {
          "name": "account",
          "type": "address"
        }
      ],
      "name": "viewAccountABILegacy",
      "outputs": [
        {
          "name": "",
          "type": "uint256"
        },
        {
          "name": "",
          "type": "uint256"
        }
      ],
      "payable": false,
      "stateMutability": "view",
      "type": "function"
    },
    {
      "constant": true,
      "inputs": [
        {
          "name": "_taskid",
          "type": "bytes32"
        }
      ],
      "name": "viewTaskABILegacy",
      "outputs": [
        {
          "name": "",
          "type": "uint8"
        },
        {
          "name": "",
          "type": "bytes32"
        },
        {
          "name": "",
          "type": "uint256"
        },
        {
          "name": "",
          "type": "uint256"
        },
        {
          "name": "",
          "type": "uint256"
        },
        {
          "name": "",
          "type": "uint256"
        },
        {
          "name": "",
          "type": "uint256"
        },
        {
          "name": "",
          "type": "bytes32"
        },
        {
          "name": "",
          "type": "uint256"
        },
        {
          "name": "",
          "type": "uint256"
        },
        {
          "name": "",
          "type": "address[]"
        },
        {
          "name": "",
          "type": "bytes"
        }
      ],
      "payable": false,
      "stateMutability": "view",
      "type": "function"
    },
    {
      "constant": true,
      "inputs": [
        {
          "name": "_taskid",
          "type": "bytes32"
        },
        {
          "name": "_worker",
          "type": "address"
        }
      ],
      "name": "viewContributionABILegacy",
      "outputs": [
        {
          "name": "",
          "type": "uint8"
        },
        {
          "name": "",
          "type": "bytes32"
        },
        {
          "name": "",
          "type": "bytes32"
        },
        {
          "name": "",
          "type": "address"
        }
      ],
      "payable": false,
      "stateMutability": "view",
      "type": "function"
    },
    {
      "constant": true,
      "inputs": [
        {
          "name": "_catid",
          "type": "uint256"
        }
      ],
      "name": "viewCategoryABILegacy",
      "outputs": [
        {
          "name": "",
          "type": "string"
        },
        {
          "name": "",
          "type": "string"
        },
        {
          "name": "",
          "type": "uint256"
        }
      ],
      "payable": false,
      "stateMutability": "view",
      "type": "function"
    }
  ],
  "bytecode": "0x60806040819052600080546001600160a01b03191633178082556001600160a01b0316917f8be0079c531659141344cd1fd0a4f28419497f9722a3daafe3b4186f6b6457e0908290a36126eb806100576000396000f3fe608060405234801561001057600080fd5b506004361061025e5760003560e01c80638f32d59b11610146578063ce5f7895116100c3578063dd62ed3e11610087578063dd62ed3e1461053f578063e2e7a8c114610552578063e741363b1461055a578063f2fde38b1461057a578063f9353b8d1461058d578063fc0c546a146105af5761025e565b8063ce5f7895146104bc578063d09cc57e146104e1578063d286eb16146104f4578063d5922f5014610507578063db230b521461052c5761025e565b8063adccf0d51161010a578063adccf0d514610444578063b1b11d2c14610464578063b74861b21461046c578063bd19a4f31461048c578063c140996f146104b45761025e565b80638f32d59b1461041757806390a0f5461461042c57806390fc26b11461036457806395d89b41146104345780639e986e811461043c5761025e565b80634f5f44ec116101df5780636b55f4a5116101a35780636b55f4a51461039d5780636dc2df05146103bd57806370a08231146103dd578063715018a6146103f05780637b244832146103fa5780638da5cb5b146104025761025e565b80634f5f44ec1461034457806351152de1146103645780635b3ae3e41461036c5780635fde601d1461038d57806368a9ef1c146103955761025e565b8063248ad6a011610226578063248ad6a0146102d4578063313ce567146102ff57806345b637a9146103145780634b2bec8c146103295780634ec3b9e31461033c5761025e565b8063047411e71461026357806306fdde031461028157806311e35aba1461029657806318160ddd146102b95780631bf6e00d146102c1575b600080fd5b61026b6105b7565b604051610278919061232c565b60405180910390f35b6102896105bd565b604051610278919061233a565b6102a96102a4366004611cf5565b610653565b6040516102789493929190612359565b61026b6106ff565b61026b6102cf366004611c77565b610705565b6102e76102e2366004611cd7565b610724565b6040516102789c9b9a9998979695949392919061238e565b610307610943565b60405161027891906125c6565b61031c61094c565b604051610278919061234b565b61026b610337366004611cd7565b61095b565b61026b61096d565b610357610352366004611cd7565b610972565b60405161027891906124b0565b61026b610ae6565b61037f61037a366004611c77565b610aeb565b604051610278929190612551565b61026b610b13565b61026b610b18565b6103b06103ab366004611c77565b610b1d565b60405161027891906124a2565b6103d06103cb366004611cd7565b610b60565b6040516102789190612306565b61026b6103eb366004611c77565b610bc2565b6103f8610bdd565b005b61026b610c54565b61040a610c59565b6040516102789190612272565b61041f610c68565b604051610278919061231e565b61031c610c79565b610289610c88565b61040a610ce9565b610457610452366004611cd7565b610d23565b60405161027891906124e0565b61031c610ec7565b61047f61047a366004611cd7565b610ed6565b60405161027891906124cf565b61049f61049a366004611cd7565b611095565b60405161027899989796959493929190612280565b61026b6112ce565b6104cf6104ca366004611cd7565b6112d4565b604051610278969594939291906124f1565b6102896104ef366004611cd7565b6114d1565b61041f610502366004611cd7565b611593565b61051a610515366004611cd7565b6115a8565b6040516102789695949392919061256c565b61026b61053a366004611c77565b6117a4565b61026b61054d366004611c9d565b6117bf565b61026b6117ec565b61056d610568366004611cf5565b6117f4565b60405161027891906124c1565b6103f8610588366004611c77565b611878565b6105a061059b366004611cd7565b6118a8565b6040516102789392919061244e565b61040a611a35565b600f5481565b60088054604080516020601f60026000196101006001881615020190951694909404938401819004810282018101909252828152606093909290918301828280156106495780601f1061061e57610100808354040283529160200191610649565b820191906000526020600020905b81548152906001019060200180831161062c57829003601f168201915b5050505050905090565b600080600080610661611ac5565b60008781526015602090815260408083206001600160a01b038a168452909152908190208151608081019092528054829060ff1660038111156106a057fe5b60038111156106ab57fe5b8152600182015460208083019190915260028301546040808401919091526003909301546001600160a01b0316606092830152835190840151928401519390910151909a9199509197509095509350505050565b600b5490565b6001600160a01b0381166000908152600d60205260409020545b919050565b60008060008060008060008060008060608061073e611aee565b60008e8152601460205260409081902081516101a081019092528054829060ff16600481111561076a57fe5b600481111561077557fe5b8152602001600182015481526020016002820154815260200160038201548152602001600482015481526020016005820154815260200160068201548152602001600782015481526020016008820154815260200160098201548152602001600a820180548060200260200160405190810160405280929190818152602001828054801561082c57602002820191906000526020600020905b81546001600160a01b0316815260019091019060200180831161080e575b5050509183525050600b820154602080830191909152600c8301805460408051601f600260001961010060018716150201909416939093049283018590048502810185018252828152940193928301828280156108ca5780601f1061089f576101008083540402835291602001916108ca565b820191906000526020600020905b8154815290600101906020018083116108ad57829003601f168201915b5050505050815250509050806000015181602001518260400151836060015184608001518560a001518660c001518760e001518861010001518961012001518a61014001518b61018001518191508090509c509c509c509c509c509c509c509c509c509c509c509c505091939597999b5091939597999b565b600a5460ff1690565b6004546001600160a01b031681565b60009081526012602052604090205490565b601e81565b61097a611b60565b601a828154811061098757fe5b600091825260209182902060408051600393909302909101805460026001821615610100026000190190911604601f8101859004909402830160809081019092526060830184815292939092849290918491840182828015610a2a5780601f106109ff57610100808354040283529160200191610a2a565b820191906000526020600020905b815481529060010190602001808311610a0d57829003601f168201915b50505050508152602001600182018054600181600116156101000203166002900480601f016020809104026020016040519081016040528092919081815260200182805460018160011615610100020316600290048015610acc5780601f10610aa157610100808354040283529160200191610acc565b820191906000526020600020905b815481529060010190602001808311610aaf57829003601f168201915b505050505081526020016002820154815250509050919050565b600a81565b6001600160a01b03166000908152600c6020908152604080832054600d909252909120549091565b600281565b600481565b610b25611b81565b506040805180820182526001600160a01b03929092166000818152600c6020908152838220548552918152600d825291909120549082015290565b600081815260116020908152604091829020805483518184028101840190945280845260609392830182828015610bb657602002820191906000526020600020905b815481526020019060010190808311610ba2575b50505050509050919050565b6001600160a01b03166000908152600c602052604090205490565b610be5610c68565b610c0a5760405162461bcd60e51b8152600401610c0190612492565b60405180910390fd5b600080546040516001600160a01b03909116907f8be0079c531659141344cd1fd0a4f28419497f9722a3daafe3b4186f6b6457e0908390a3600080546001600160a01b0319169055565b600781565b6000546001600160a01b031690565b6000546001600160a01b0316331490565b6006546001600160a01b031681565b60098054604080516020601f60026000196101006001881615020190951694909404938401819004810282018101909252828152606093909290918301828280156106495780601f1061061e57610100808354040283529160200191610649565b60408051808201909152600a81526969457865634b6974747960b01b6020909101527399c2268479b93fde36232351229815df80837e2481565b610d2b611aee565b6000828152601460205260409081902081516101a081019092528054829060ff166004811115610d5757fe5b6004811115610d6257fe5b8152602001600182015481526020016002820154815260200160038201548152602001600482015481526020016005820154815260200160068201548152602001600782015481526020016008820154815260200160098201548152602001600a8201805480602002602001604051908101604052809291908181526020018280548015610e1957602002820191906000526020600020905b81546001600160a01b03168152600190910190602001808311610dfb575b5050509183525050600b820154602080830191909152600c8301805460408051601f60026000196101006001871615020190941693909304928301859004850281018501825282815294019392830182828015610eb75780601f10610e8c57610100808354040283529160200191610eb7565b820191906000526020600020905b815481529060010190602001808311610e9a57829003601f168201915b5050505050815250509050919050565b6005546001600160a01b031681565b610ede611b9b565b60008281526010602090815260409182902082516102408101845281546001600160a01b039081166101e08301908152600180850154831661020085015260028086015461022086015291845286516060808201895260038701548516825260048701548516828901526005870154828a0152858801919091528751808201895260068701548516815260078701548516818901526008870154818a015285890152600986015490850152600a8501546080850152600b85015460a0850152600c850154831660c0850152600d850154831660e0850152600e85015490921661010080850191909152600f850180548851948116159092026000190190911691909104601f810186900486028301860190965285825291949293610120860193919291908301828280156110535780601f1061102857610100808354040283529160200191611053565b820191906000526020600020905b81548152906001019060200180831161103657829003601f168201915b50505050508152602001601082015481526020016011820154815260200160128201548152602001601382015481526020016014820154815250509050919050565b60008060008060008060008060006110ab611b9b565b60008b81526010602090815260409182902082516102408101845281546001600160a01b039081166101e08301908152600180850154831661020085015260028086015461022086015291845286516060808201895260038701548516825260048701548516828901526005870154828a0152858801919091528751808201895260068701548516815260078701548516818901526008870154818a015285890152600986015490850152600a8501546080850152600b85015460a0850152600c850154831660c0850152600d850154831660e0850152600e85015490921661010080850191909152600f850180548851948116159092026000190190911691909104601f810186900486028301860190965285825291949293610120860193919291908301828280156112205780601f106111f557610100808354040283529160200191611220565b820191906000526020600020905b81548152906001019060200180831161120357829003601f168201915b50505050508152602001601082015481526020016011820154815260200160128201548152602001601382015481526020016014820154815250509050806000015160000151816000015160200151826000015160400151836020015160000151846020015160200151856020015160400151866040015160000151876040015160200151886040015160400151995099509950995099509950995099509950509193959799909294969850565b601a5490565b600080600080600060606112e6611b9b565b60008881526010602090815260409182902082516102408101845281546001600160a01b039081166101e08301908152600180850154831661020085015260028086015461022086015291845286516060808201895260038701548516825260048701548516828901526005870154828a0152858801919091528751808201895260068701548516815260078701548516818901526008870154818a015285890152600986015490850152600a8501546080850152600b85015460a0850152600c850154831660c0850152600d850154831660e0850152600e85015490921661010080850191909152600f850180548851948116159092026000190190911691909104601f8101869004860283018601909652858252919492936101208601939192919083018282801561145b5780601f106114305761010080835404028352916020019161145b565b820191906000526020600020905b81548152906001019060200180831161143e57829003601f168201915b5050505050815260200160108201548152602001601182015481526020016012820154815260200160138201548152602001601482015481525050905080606001518160a001518260c001518360e001518461010001518561012001518090509650965096509650965096505091939550919395565b60008181526014602052604090206060906003815460ff1660048111156114f457fe5b146114fe57600080fd5b600c8101805460408051602060026001851615610100026000190190941693909304601f810184900484028201840190925281815292918301828280156115865780601f1061155b57610100808354040283529160200191611586565b820191906000526020600020905b81548152906001019060200180831161156957829003601f168201915b5050505050915050919050565b60009081526013602052604090205460ff1690565b6000806000806000806115b9611b9b565b60008881526010602090815260409182902082516102408101845281546001600160a01b039081166101e08301908152600180850154831661020085015260028086015461022086015291845286516060808201895260038701548516825260048701548516828901526005870154828a0152858801919091528751808201895260068701548516815260078701548516818901526008870154818a015285890152600986015490850152600a8501546080850152600b85015460a0850152600c850154831660c0850152600d850154831660e0850152600e85015490921661010080850191909152600f850180548851948116159092026000190190911691909104601f8101869004860283018601909652858252919492936101208601939192919083018282801561172e5780601f106117035761010080835404028352916020019161172e565b820191906000526020600020905b81548152906001019060200180831161171157829003601f168201915b505050505081526020016010820154815260200160118201548152602001601282015481526020016013820154815260200160148201548152505090508060800151816101400151826101600151836101800151846101a00151856101c001519650965096509650965096505091939550919395565b6001600160a01b031660009081526016602052604090205490565b6001600160a01b038083166000908152600e60209081526040808320938516835292905220545b92915050565b633b9aca0081565b6117fc611ac5565b60008381526015602090815260408083206001600160a01b0386168452909152908190208151608081019092528054829060ff16600381111561183b57fe5b600381111561184657fe5b815260018201546020820152600282015460408201526003909101546001600160a01b03166060909101529392505050565b611880610c68565b61189c5760405162461bcd60e51b8152600401610c0190612492565b6118a581611a44565b50565b60608060006118b5611b60565b601a85815481106118c257fe5b600091825260209182902060408051600393909302909101805460026001821615610100026000190190911604601f81018590049094028301608090810190925260608301848152929390928492909184918401828280156119655780601f1061193a57610100808354040283529160200191611965565b820191906000526020600020905b81548152906001019060200180831161194857829003601f168201915b50505050508152602001600182018054600181600116156101000203166002900480601f016020809104026020016040519081016040528092919081815260200182805460018160011615610100020316600290048015611a075780601f106119dc57610100808354040283529160200191611a07565b820191906000526020600020905b8154815290600101906020018083116119ea57829003601f168201915b5050509183525050600291909101546020918201528151908201516040909201519097919650945092505050565b6007546001600160a01b031690565b6001600160a01b038116611a6a5760405162461bcd60e51b8152600401610c0190612482565b600080546040516001600160a01b03808516939216917f8be0079c531659141344cd1fd0a4f28419497f9722a3daafe3b4186f6b6457e091a3600080546001600160a01b0319166001600160a01b0392909216919091179055565b604080516080810190915280600081526000602082018190526040820181905260609091015290565b604080516101a0810190915280600081526020016000801916815260200160008152602001600081526020016000815260200160008152602001600081526020016000801916815260200160008152602001600081526020016060815260200160008019168152602001606081525090565b60405180606001604052806060815260200160608152602001600081525090565b604051806040016040528060008152602001600081525090565b604051806102a00160405280611baf611c41565b8152602001611bbc611c41565b8152602001611bc9611c41565b815260200160008152602001600081526020016000801916815260200160006001600160a01b0316815260200160006001600160a01b0316815260200160006001600160a01b031681526020016060815260200160008152602001600081526020016000815260200160008152602001600081525090565b604080516060810182526000808252602082018190529181019190915290565b80356117e68161268b565b80356117e68161269f565b600060208284031215611c8957600080fd5b6000611c958484611c61565b949350505050565b60008060408385031215611cb057600080fd5b6000611cbc8585611c61565b9250506020611ccd85828601611c61565b9150509250929050565b600060208284031215611ce957600080fd5b6000611c958484611c6c565b60008060408385031215611d0857600080fd5b6000611cbc8585611c6c565b6000611d208383611d34565b505060200190565b6000611d208383611e41565b611d3d816125e7565b82525050565b6000611d4e826125da565b611d5881856125de565b9350611d63836125d4565b8060005b83811015611d91578151611d7b8882611d14565b9750611d86836125d4565b925050600101611d67565b509495945050505050565b6000611da7826125da565b611db181856125de565b9350611dbc836125d4565b8060005b83811015611d91578151611dd48882611d14565b9750611ddf836125d4565b925050600101611dc0565b6000611df5826125da565b611dff81856125de565b9350611e0a836125d4565b8060005b83811015611d91578151611e228882611d28565b9750611e2d836125d4565b925050600101611e0e565b611d3d816125f2565b611d3d816125f7565b6000611e55826125da565b611e5f81856125de565b9350611e6f818560208601612641565b611e788161266d565b9093019392505050565b611d3d81612620565b611d3d8161262b565b611d3d81612636565b6000611eaa6026836125de565b7f4f776e61626c653a206e6577206f776e657220697320746865207a65726f206181526564647265737360d01b602082015260400192915050565b6000611ef26020836125de565b7f4f776e61626c653a2063616c6c6572206973206e6f7420746865206f776e6572815260200192915050565b80516040830190611f2f8482611e41565b506020820151611f426020850182611e41565b50505050565b8051606080845260009190840190611f608282611e4a565b91505060208301518482036020860152611f7a8282611e4a565b9150506040830151611f8f6040860182611e41565b509392505050565b80516080830190611fa88482611e8b565b506020820151611fbb6020850182611e41565b506040820151611fce6040850182611e41565b506060820151611f426060850182611d34565b80516000906102a0840190611ff6858261211a565b506020830151612009606086018261211a565b50604083015161201c60c086018261211a565b506060830151612030610120860182611e41565b506080830151612044610140860182611e41565b5060a0830151612058610160860182611e41565b5060c083015161206c610180860182611d34565b5060e08301516120806101a0860182611d34565b506101008301516120956101c0860182611d34565b506101208301518482036101e08601526120af8282611e4a565b9150506101408301516120c6610200860182611e41565b506101608301516120db610220860182611e41565b506101808301516120f0610240860182611e41565b506101a0830151612105610260860182611e41565b506101c0830151611f8f610280860182611e41565b8051606083019061212b8482611d34565b50602082015161213e6020850182611d34565b506040820151611f426040850182611e41565b80516000906101a08401906121668582611e94565b5060208301516121796020860182611e41565b50604083015161218c6040860182611e41565b50606083015161219f6060860182611e41565b5060808301516121b26080860182611e41565b5060a08301516121c560a0860182611e41565b5060c08301516121d860c0860182611e41565b5060e08301516121eb60e0860182611e41565b50610100830151612200610100860182611e41565b50610120830151612215610120860182611e41565b5061014083015184820361014086015261222f8282611d9c565b915050610160830151612246610160860182611e41565b506101808301518482036101808601526122608282611e4a565b95945050505050565b611d3d8161261a565b602081016117e68284611d34565b610120810161228f828c611d34565b61229c602083018b611d34565b6122a9604083018a611e41565b6122b66060830189611d34565b6122c36080830188611d34565b6122d060a0830187611e41565b6122dd60c0830186611d34565b6122ea60e0830185611d34565b6122f8610100830184611e41565b9a9950505050505050505050565b602080825281016123178184611dea565b9392505050565b602081016117e68284611e38565b602081016117e68284611e41565b602080825281016123178184611e4a565b602081016117e68284611e82565b608081016123678287611e8b565b6123746020830186611e41565b6123816040830185611e41565b6122606060830184611d34565b610180810161239d828f611e94565b6123aa602083018e611e41565b6123b7604083018d611e41565b6123c4606083018c611e41565b6123d1608083018b611e41565b6123de60a083018a611e41565b6123eb60c0830189611e41565b6123f860e0830188611e41565b612406610100830187611e41565b612414610120830186611e41565b8181036101408301526124278185611d43565b905081810361016083015261243c8184611e4a565b9e9d5050505050505050505050505050565b6060808252810161245f8186611e4a565b905081810360208301526124738185611e4a565b9050611c956040830184611e41565b602080825281016117e681611e9d565b602080825281016117e681611ee5565b604081016117e68284611f1e565b602080825281016123178184611f48565b608081016117e68284611f97565b602080825281016123178184611fe1565b602080825281016123178184612151565b60c081016124ff8289611e41565b61250c6020830188611e41565b6125196040830187611d34565b6125266060830186611d34565b6125336080830185611d34565b81810360a08301526125458184611e4a565b98975050505050505050565b6040810161255f8285611e41565b6123176020830184611e41565b60c0810161257a8289611e41565b6125876020830188611e41565b6125946040830187611e41565b6125a16060830186611e41565b6125ae6080830185611e41565b6125bb60a0830184611e41565b979650505050505050565b602081016117e68284612269565b60200190565b5190565b90815260200190565b60006117e68261260e565b151590565b90565b8061071f81612677565b8061071f81612681565b6001600160a01b031690565b60ff1690565b60006117e6826125e7565b60006117e6826125fa565b60006117e682612604565b60005b8381101561265c578181015183820152602001612644565b83811115611f425750506000910152565b601f01601f191690565b600481106118a557fe5b600581106118a557fe5b612694816125e7565b81146118a557600080fd5b612694816125f756fea365627a7a72305820521473ade7966171d96a73665d05d4cb2a49a9016e4bbe2b44cbde8d5e62c78f6c6578706572696d656e74616cf564736f6c63430005090040",
  "source": "pragma solidity ^0.5.9;\npragma experimental ABIEncoderV2;\n\nimport \"../IexecStore.sol\";\n\n\ninterface IexecAccessors\n{\n\tfunction name() external view returns (string memory);\n\tfunction symbol() external view returns (string memory);\n\tfunction decimals() external view returns (uint8);\n\tfunction totalSupply() external view returns (uint256);\n\tfunction balanceOf(address) external view returns (uint256);\n\tfunction frozenOf(address) external view returns (uint256);\n\tfunction allowance(address,address) external view returns (uint256);\n\tfunction viewAccount(address) external view returns (IexecODBLibCore.Account memory);\n\tfunction token() external view returns (address);\n\tfunction viewDeal(bytes32) external view returns (IexecODBLibCore.Deal memory);\n\tfunction viewRequestDeals(bytes32) external view returns (bytes32[] memory);\n\tfunction viewConsumed(bytes32) external view returns (uint256);\n\tfunction viewPresigned(bytes32) external view returns (bool);\n\tfunction viewTask(bytes32) external view returns (IexecODBLibCore.Task memory);\n\tfunction viewContribution(bytes32,address) external view returns (IexecODBLibCore.Contribution memory);\n\tfunction viewScore(address) external view returns (uint256);\n\tfunction resultFor(bytes32) external view returns (bytes memory);\n\tfunction viewCategory(uint256) external view returns (IexecODBLibCore.Category memory);\n\tfunction countCategory() external view returns (uint256);\n}\n\ncontract IexecAccessorsDelegate is IexecAccessors, IexecStore\n{\n\n\tfunction name()\n\texternal view returns (string memory)\n\t{\n\t\treturn m_name;\n\t}\n\n\tfunction symbol()\n\texternal view returns (string memory)\n\t{\n\t\treturn m_symbol;\n\t}\n\n\tfunction decimals()\n\texternal view returns (uint8)\n\t{\n\t\treturn m_decimals;\n\t}\n\n\tfunction totalSupply()\n\texternal view returns (uint256)\n\t{\n\t\treturn m_totalSupply;\n\t}\n\n\tfunction balanceOf(address account)\n\texternal view returns (uint256)\n\t{\n\t\treturn m_balances[account];\n\t}\n\n\tfunction frozenOf(address account)\n\texternal view returns (uint256)\n\t{\n\t\treturn m_frozens[account];\n\t}\n\n\tfunction allowance(address account, address spender)\n\texternal view returns (uint256)\n\t{\n\t\treturn m_allowances[account][spender];\n\t}\n\n\tfunction viewAccount(address account)\n\texternal view returns (IexecODBLibCore.Account memory)\n\t{\n\t\treturn IexecODBLibCore.Account(m_balances[account], m_frozens[account]);\n\t}\n\n\tfunction token()\n\texternal view returns (address)\n\t{\n\t\treturn address(m_baseToken);\n\t}\n\n\tfunction viewDeal(bytes32 _id)\n\texternal view returns (IexecODBLibCore.Deal memory deal)\n\t{\n\t\treturn m_deals[_id];\n\t}\n\n\tfunction viewRequestDeals(bytes32 _id)\n\texternal view returns (bytes32[] memory)\n\t{\n\t\treturn m_requestdeals[_id];\n\t}\n\n\tfunction viewConsumed(bytes32 _id)\n\texternal view returns (uint256 consumed)\n\t{\n\t\treturn m_consumed[_id];\n\t}\n\n\tfunction viewPresigned(bytes32 _id)\n\texternal view returns (bool presigned)\n\t{\n\t\treturn m_presigned[_id];\n\t}\n\n\tfunction viewTask(bytes32 _taskid)\n\texternal view returns (IexecODBLibCore.Task memory)\n\t{\n\t\treturn m_tasks[_taskid];\n\t}\n\n\tfunction viewContribution(bytes32 _taskid, address _worker)\n\texternal view returns (IexecODBLibCore.Contribution memory)\n\t{\n\t\treturn m_contributions[_taskid][_worker];\n\t}\n\n\tfunction viewScore(address _worker)\n\texternal view returns (uint256)\n\t{\n\t\treturn m_workerScores[_worker];\n\t}\n\n\tfunction resultFor(bytes32 id)\n\texternal view returns (bytes memory)\n\t{\n\t\tIexecODBLibCore.Task storage task = m_tasks[id];\n\t\trequire(task.status == IexecODBLibCore.TaskStatusEnum.COMPLETED);\n\t\treturn task.results;\n\t}\n\n\tfunction viewCategory(uint256 _catid)\n\texternal view returns (IexecODBLibCore.Category memory category)\n\t{\n\t\treturn m_categories[_catid];\n\t}\n\n\tfunction countCategory()\n\texternal view returns (uint256 count)\n\t{\n\t\treturn m_categories.length;\n\t}\n\n\n\n\n\n\tfunction viewDealABILegacy_pt1(bytes32 _id)\n\texternal view returns\n\t( address\n\t, address\n\t, uint256\n\t, address\n\t, address\n\t, uint256\n\t, address\n\t, address\n\t, uint256\n\t)\n\t{\n\t\tIexecODBLibCore.Deal memory deal = m_deals[_id];\n\t\treturn (\n\t\t\tdeal.app.pointer,\n\t\t\tdeal.app.owner,\n\t\t\tdeal.app.price,\n\t\t\tdeal.dataset.pointer,\n\t\t\tdeal.dataset.owner,\n\t\t\tdeal.dataset.price,\n\t\t\tdeal.workerpool.pointer,\n\t\t\tdeal.workerpool.owner,\n\t\t\tdeal.workerpool.price\n\t\t);\n\t}\n\n\tfunction viewDealABILegacy_pt2(bytes32 _id)\n\texternal view returns\n\t( uint256\n\t, bytes32\n\t, address\n\t, address\n\t, address\n\t, string memory\n\t)\n\t{\n\t\tIexecODBLibCore.Deal memory deal = m_deals[_id];\n\t\treturn (\n\t\t\tdeal.trust,\n\t\t\tdeal.tag,\n\t\t\tdeal.requester,\n\t\t\tdeal.beneficiary,\n\t\t\tdeal.callback,\n\t\t\tdeal.params\n\t\t);\n\t}\n\n\tfunction viewConfigABILegacy(bytes32 _id)\n\texternal view returns\n\t( uint256\n\t, uint256\n\t, uint256\n\t, uint256\n\t, uint256\n\t, uint256\n\t)\n\t{\n\t\tIexecODBLibCore.Deal memory deal = m_deals[_id];\n\t\treturn (\n\t\t\tdeal.category,\n\t\t\tdeal.startTime,\n\t\t\tdeal.botFirst,\n\t\t\tdeal.botSize,\n\t\t\tdeal.workerStake,\n\t\t\tdeal.schedulerRewardRatio\n\t\t);\n\t}\n\n\tfunction viewAccountABILegacy(address account)\n\texternal view returns (uint256, uint256)\n\t{\n\t\treturn ( m_balances[account], m_frozens[account] );\n\t}\n\n\tfunction viewTaskABILegacy(bytes32 _taskid)\n\texternal view returns\n\t( IexecODBLibCore.TaskStatusEnum\n\t, bytes32\n\t, uint256\n\t, uint256\n\t, uint256\n\t, uint256\n\t, uint256\n\t, bytes32\n\t, uint256\n\t, uint256\n\t, address[] memory\n\t, bytes     memory\n\t)\n\t{\n\t\tIexecODBLibCore.Task memory task = m_tasks[_taskid];\n\t\treturn (\n\t\t\ttask.status,\n\t\t\ttask.dealid,\n\t\t\ttask.idx,\n\t\t\ttask.timeref,\n\t\t\ttask.contributionDeadline,\n\t\t\ttask.revealDeadline,\n\t\t\ttask.finalDeadline,\n\t\t\ttask.consensusValue,\n\t\t\ttask.revealCounter,\n\t\t\ttask.winnerCounter,\n\t\t\ttask.contributors,\n\t\t\ttask.results\n\t\t);\n\t}\n\n\tfunction viewContributionABILegacy(bytes32 _taskid, address _worker)\n\texternal view returns\n\t( IexecODBLibCore.ContributionStatusEnum\n\t, bytes32\n\t, bytes32\n\t, address\n\t)\n\t{\n\t\tIexecODBLibCore.Contribution memory contribution = m_contributions[_taskid][_worker];\n\t\treturn (\n\t\t\tcontribution.status,\n\t\t\tcontribution.resultHash,\n\t\t\tcontribution.resultSeal,\n\t\t\tcontribution.enclaveChallenge\n\t\t);\n\t}\n\n\tfunction viewCategoryABILegacy(uint256 _catid)\n\texternal view returns (string memory, string memory, uint256)\n\t{\n\t\tIexecODBLibCore.Category memory category = m_categories[_catid];\n\t\treturn ( category.name, category.description, category.workClockTimeRef );\n\t}\n}\n",
  "sourcePath": "/home/amxx/Work/iExec/code/PoCo-dev/contracts/delegates/IexecAccessors.sol",
  "compiler": {
    "name": "solc",
    "version": "0.5.9+commit.e560f70d.Emscripten.clang"
  },
  "schemaVersion": "3.0.11",
  "updatedAt": "2019-06-26T15:15:59.119Z",
  "devdoc": {
    "methods": {
      "isOwner()": {
        "details": "Returns true if the caller is the current owner."
      },
      "owner()": {
        "details": "Returns the address of the current owner."
      },
      "renounceOwnership()": {
        "details": "Leaves the contract without owner. It will not be possible to call `onlyOwner` functions anymore. Can only be called by the current owner.     * > Note: Renouncing ownership will leave the contract without an owner, thereby removing any functionality that is only available to the owner."
      },
      "transferOwnership(address)": {
        "details": "Transfers ownership of the contract to a new account (`newOwner`). Can only be called by the current owner."
      }
    }
  },
  "userdoc": {
    "methods": {}
  }
}