{
  "contractName": "IexecClerk",
  "abi": [
    {
      "constant": true,
      "inputs": [
        {
          "name": "_identity",
          "type": "address"
        },
        {
          "name": "_hash",
          "type": "bytes32"
        },
        {
          "name": "_signature",
          "type": "bytes"
        }
      ],
      "name": "verifySignature",
      "outputs": [
        {
          "name": "",
          "type": "bool"
        }
      ],
      "payable": false,
      "stateMutability": "view",
      "type": "function"
    },
    {
      "constant": true,
      "inputs": [],
      "name": "EIP712DOMAIN_SEPARATOR",
      "outputs": [
        {
          "name": "",
          "type": "bytes32"
        }
      ],
      "payable": false,
      "stateMutability": "view",
      "type": "function"
    },
    {
      "constant": true,
      "inputs": [],
      "name": "name",
      "outputs": [
        {
          "name": "",
          "type": "string"
        }
      ],
      "payable": false,
      "stateMutability": "view",
      "type": "function"
    },
    {
      "constant": false,
      "inputs": [
        {
          "name": "spender",
          "type": "address"
        },
        {
          "name": "value",
          "type": "uint256"
        }
      ],
      "name": "approve",
      "outputs": [
        {
          "name": "",
          "type": "bool"
        }
      ],
      "payable": false,
      "stateMutability": "nonpayable",
      "type": "function"
    },
    {
      "constant": true,
      "inputs": [],
      "name": "totalSupply",
      "outputs": [
        {
          "name": "",
          "type": "uint256"
        }
      ],
      "payable": false,
      "stateMutability": "view",
      "type": "function"
    },
    {
      "constant": true,
      "inputs": [
        {
          "name": "owner",
          "type": "address"
        }
      ],
      "name": "frozenOf",
      "outputs": [
        {
          "name": "",
          "type": "uint256"
        }
      ],
      "payable": false,
      "stateMutability": "view",
      "type": "function"
    },
    {
      "constant": false,
      "inputs": [
        {
          "name": "from",
          "type": "address"
        },
        {
          "name": "to",
          "type": "address"
        },
        {
          "name": "value",
          "type": "uint256"
        }
      ],
      "name": "transferFrom",
      "outputs": [
        {
          "name": "",
          "type": "bool"
        }
      ],
      "payable": false,
      "stateMutability": "nonpayable",
      "type": "function"
    },
    {
      "constant": false,
      "inputs": [
        {
          "name": "amount",
          "type": "uint256"
        }
      ],
      "name": "withdraw",
      "outputs": [
        {
          "name": "",
          "type": "bool"
        }
      ],
      "payable": false,
      "stateMutability": "nonpayable",
      "type": "function"
    },
    {
      "constant": true,
      "inputs": [],
      "name": "decimals",
      "outputs": [
        {
          "name": "",
          "type": "uint8"
        }
      ],
      "payable": false,
      "stateMutability": "view",
      "type": "function"
    },
    {
      "constant": false,
      "inputs": [
        {
          "name": "amounts",
          "type": "uint256[]"
        },
        {
          "name": "targets",
          "type": "address[]"
        }
      ],
      "name": "depositForArray",
      "outputs": [
        {
          "name": "",
          "type": "bool"
        }
      ],
      "payable": false,
      "stateMutability": "nonpayable",
      "type": "function"
    },
    {
      "constant": false,
      "inputs": [
        {
          "name": "amount",
          "type": "uint256"
        },
        {
          "name": "target",
          "type": "address"
        }
      ],
      "name": "depositFor",
      "outputs": [
        {
          "name": "",
          "type": "bool"
        }
      ],
      "payable": false,
      "stateMutability": "nonpayable",
      "type": "function"
    },
    {
      "constant": false,
      "inputs": [
        {
          "name": "spender",
          "type": "address"
        },
        {
          "name": "addedValue",
          "type": "uint256"
        }
      ],
      "name": "increaseAllowance",
      "outputs": [
        {
          "name": "",
          "type": "bool"
        }
      ],
      "payable": false,
      "stateMutability": "nonpayable",
      "type": "function"
    },
    {
      "constant": true,
      "inputs": [
        {
          "name": "",
          "type": "bytes32"
        }
      ],
      "name": "m_presigned",
      "outputs": [
        {
          "name": "",
          "type": "bool"
        }
      ],
      "payable": false,
      "stateMutability": "view",
      "type": "function"
    },
    {
      "constant": false,
      "inputs": [
        {
          "components": [
            {
              "name": "app",
              "type": "address"
            },
            {
              "name": "appmaxprice",
              "type": "uint256"
            },
            {
              "name": "dataset",
              "type": "address"
            },
            {
              "name": "datasetmaxprice",
              "type": "uint256"
            },
            {
              "name": "workerpool",
              "type": "address"
            },
            {
              "name": "workerpoolmaxprice",
              "type": "uint256"
            },
            {
              "name": "requester",
              "type": "address"
            },
            {
              "name": "volume",
              "type": "uint256"
            },
            {
              "name": "tag",
              "type": "bytes32"
            },
            {
              "name": "category",
              "type": "uint256"
            },
            {
              "name": "trust",
              "type": "uint256"
            },
            {
              "name": "beneficiary",
              "type": "address"
            },
            {
              "name": "callback",
              "type": "address"
            },
            {
              "name": "params",
              "type": "string"
            },
            {
              "name": "salt",
              "type": "bytes32"
            },
            {
              "name": "sign",
              "type": "bytes"
            }
          ],
          "name": "_requestorder",
          "type": "tuple"
        }
      ],
      "name": "broadcastRequestOrder",
      "outputs": [],
      "payable": false,
      "stateMutability": "nonpayable",
      "type": "function"
    },
    {
      "constant": false,
      "inputs": [
        {
          "components": [
            {
              "name": "dataset",
              "type": "address"
            },
            {
              "name": "datasetprice",
              "type": "uint256"
            },
            {
              "name": "volume",
              "type": "uint256"
            },
            {
              "name": "tag",
              "type": "bytes32"
            },
            {
              "name": "apprestrict",
              "type": "address"
            },
            {
              "name": "workerpoolrestrict",
              "type": "address"
            },
            {
              "name": "requesterrestrict",
              "type": "address"
            },
            {
              "name": "salt",
              "type": "bytes32"
            },
            {
              "name": "sign",
              "type": "bytes"
            }
          ],
          "name": "_datasetorder",
          "type": "tuple"
        }
      ],
      "name": "broadcastDatasetOrder",
      "outputs": [],
      "payable": false,
      "stateMutability": "nonpayable",
      "type": "function"
    },
    {
      "constant": true,
      "inputs": [],
      "name": "WORKERPOOL_STAKE_RATIO",
      "outputs": [
        {
          "name": "",
          "type": "uint256"
        }
      ],
      "payable": false,
      "stateMutability": "view",
      "type": "function"
    },
    {
      "constant": true,
      "inputs": [],
      "name": "KITTY_RATIO",
      "outputs": [
        {
          "name": "",
          "type": "uint256"
        }
      ],
      "payable": false,
      "stateMutability": "view",
      "type": "function"
    },
    {
      "constant": true,
      "inputs": [],
      "name": "GROUPMEMBER_PURPOSE",
      "outputs": [
        {
          "name": "",
          "type": "uint256"
        }
      ],
      "payable": false,
      "stateMutability": "view",
      "type": "function"
    },
    {
      "constant": true,
      "inputs": [
        {
          "name": "owner",
          "type": "address"
        }
      ],
      "name": "viewAccount",
      "outputs": [
        {
          "components": [
            {
              "name": "stake",
              "type": "uint256"
            },
            {
              "name": "locked",
              "type": "uint256"
            }
          ],
          "name": "account",
          "type": "tuple"
        }
      ],
      "payable": false,
      "stateMutability": "view",
      "type": "function"
    },
    {
      "constant": true,
      "inputs": [],
      "name": "POOL_STAKE_RATIO",
      "outputs": [
        {
          "name": "",
          "type": "uint256"
        }
      ],
      "payable": false,
      "stateMutability": "view",
      "type": "function"
    },
    {
      "constant": true,
      "inputs": [
        {
          "name": "owner",
          "type": "address"
        }
      ],
      "name": "balanceOf",
      "outputs": [
        {
          "name": "",
          "type": "uint256"
        }
      ],
      "payable": false,
      "stateMutability": "view",
      "type": "function"
    },
    {
      "constant": true,
      "inputs": [],
      "name": "iexechub",
      "outputs": [
        {
          "name": "",
          "type": "address"
        }
      ],
      "payable": false,
      "stateMutability": "view",
      "type": "function"
    },
    {
      "constant": false,
      "inputs": [
        {
          "components": [
            {
              "name": "workerpool",
              "type": "address"
            },
            {
              "name": "workerpoolprice",
              "type": "uint256"
            },
            {
              "name": "volume",
              "type": "uint256"
            },
            {
              "name": "tag",
              "type": "bytes32"
            },
            {
              "name": "category",
              "type": "uint256"
            },
            {
              "name": "trust",
              "type": "uint256"
            },
            {
              "name": "apprestrict",
              "type": "address"
            },
            {
              "name": "datasetrestrict",
              "type": "address"
            },
            {
              "name": "requesterrestrict",
              "type": "address"
            },
            {
              "name": "salt",
              "type": "bytes32"
            },
            {
              "name": "sign",
              "type": "bytes"
            }
          ],
          "name": "_workerpoolorder",
          "type": "tuple"
        }
      ],
      "name": "broadcastWorkerpoolOrder",
      "outputs": [],
      "payable": false,
      "stateMutability": "nonpayable",
      "type": "function"
    },
    {
      "constant": true,
      "inputs": [],
      "name": "symbol",
      "outputs": [
        {
          "name": "",
          "type": "string"
        }
      ],
      "payable": false,
      "stateMutability": "view",
      "type": "function"
    },
    {
      "constant": true,
      "inputs": [],
      "name": "KITTY_ADDRESS",
      "outputs": [
        {
          "name": "",
          "type": "address"
        }
      ],
      "payable": false,
      "stateMutability": "view",
      "type": "function"
    },
    {
      "constant": false,
      "inputs": [
        {
          "name": "spender",
          "type": "address"
        },
        {
          "name": "subtractedValue",
          "type": "uint256"
        }
      ],
      "name": "decreaseAllowance",
      "outputs": [
        {
          "name": "",
          "type": "bool"
        }
      ],
      "payable": false,
      "stateMutability": "nonpayable",
      "type": "function"
    },
    {
      "constant": false,
      "inputs": [
        {
          "name": "to",
          "type": "address"
        },
        {
          "name": "value",
          "type": "uint256"
        }
      ],
      "name": "transfer",
      "outputs": [
        {
          "name": "",
          "type": "bool"
        }
      ],
      "payable": false,
      "stateMutability": "nonpayable",
      "type": "function"
    },
    {
      "constant": true,
      "inputs": [
        {
          "name": "",
          "type": "bytes32"
        },
        {
          "name": "",
          "type": "uint256"
        }
      ],
      "name": "m_requestdeals",
      "outputs": [
        {
          "name": "",
          "type": "bytes32"
        }
      ],
      "payable": false,
      "stateMutability": "view",
      "type": "function"
    },
    {
      "constant": false,
      "inputs": [
        {
          "name": "amount",
          "type": "uint256"
        }
      ],
      "name": "deposit",
      "outputs": [
        {
          "name": "",
          "type": "bool"
        }
      ],
      "payable": false,
      "stateMutability": "nonpayable",
      "type": "function"
    },
    {
      "constant": false,
      "inputs": [
        {
          "components": [
            {
              "name": "app",
              "type": "address"
            },
            {
              "name": "appprice",
              "type": "uint256"
            },
            {
              "name": "volume",
              "type": "uint256"
            },
            {
              "name": "tag",
              "type": "bytes32"
            },
            {
              "name": "datasetrestrict",
              "type": "address"
            },
            {
              "name": "workerpoolrestrict",
              "type": "address"
            },
            {
              "name": "requesterrestrict",
              "type": "address"
            },
            {
              "name": "salt",
              "type": "bytes32"
            },
            {
              "name": "sign",
              "type": "bytes"
            }
          ],
          "name": "_apporder",
          "type": "tuple"
        }
      ],
      "name": "broadcastAppOrder",
      "outputs": [],
      "payable": false,
      "stateMutability": "nonpayable",
      "type": "function"
    },
    {
      "constant": true,
      "inputs": [
        {
          "name": "owner",
          "type": "address"
        },
        {
          "name": "spender",
          "type": "address"
        }
      ],
      "name": "allowance",
      "outputs": [
        {
          "name": "",
          "type": "uint256"
        }
      ],
      "payable": false,
      "stateMutability": "view",
      "type": "function"
    },
    {
      "constant": true,
      "inputs": [],
      "name": "KITTY_MIN",
      "outputs": [
        {
          "name": "",
          "type": "uint256"
        }
      ],
      "payable": false,
      "stateMutability": "view",
      "type": "function"
    },
    {
      "constant": true,
      "inputs": [
        {
          "name": "",
          "type": "bytes32"
        }
      ],
      "name": "m_consumed",
      "outputs": [
        {
          "name": "",
          "type": "uint256"
        }
      ],
      "payable": false,
      "stateMutability": "view",
      "type": "function"
    },
    {
      "constant": true,
      "inputs": [],
      "name": "token",
      "outputs": [
        {
          "name": "",
          "type": "address"
        }
      ],
      "payable": false,
      "stateMutability": "view",
      "type": "function"
    },
    {
      "inputs": [
        {
          "name": "_token",
          "type": "address"
        },
        {
          "name": "_iexechub",
          "type": "address"
        },
        {
          "name": "_chainid",
          "type": "uint256"
        }
      ],
      "payable": false,
      "stateMutability": "nonpayable",
      "type": "constructor"
    },
    {
      "anonymous": false,
      "inputs": [
        {
          "indexed": false,
          "name": "dealid",
          "type": "bytes32"
        },
        {
          "indexed": false,
          "name": "appHash",
          "type": "bytes32"
        },
        {
          "indexed": false,
          "name": "datasetHash",
          "type": "bytes32"
        },
        {
          "indexed": false,
          "name": "workerpoolHash",
          "type": "bytes32"
        },
        {
          "indexed": false,
          "name": "requestHash",
          "type": "bytes32"
        },
        {
          "indexed": false,
          "name": "volume",
          "type": "uint256"
        }
      ],
      "name": "OrdersMatched",
      "type": "event"
    },
    {
      "anonymous": false,
      "inputs": [
        {
          "indexed": false,
          "name": "appHash",
          "type": "bytes32"
        }
      ],
      "name": "ClosedAppOrder",
      "type": "event"
    },
    {
      "anonymous": false,
      "inputs": [
        {
          "indexed": false,
          "name": "datasetHash",
          "type": "bytes32"
        }
      ],
      "name": "ClosedDatasetOrder",
      "type": "event"
    },
    {
      "anonymous": false,
      "inputs": [
        {
          "indexed": false,
          "name": "workerpoolHash",
          "type": "bytes32"
        }
      ],
      "name": "ClosedWorkerpoolOrder",
      "type": "event"
    },
    {
      "anonymous": false,
      "inputs": [
        {
          "indexed": false,
          "name": "requestHash",
          "type": "bytes32"
        }
      ],
      "name": "ClosedRequestOrder",
      "type": "event"
    },
    {
      "anonymous": false,
      "inputs": [
        {
          "indexed": true,
          "name": "workerpool",
          "type": "address"
        },
        {
          "indexed": false,
          "name": "dealid",
          "type": "bytes32"
        }
      ],
      "name": "SchedulerNotice",
      "type": "event"
    },
    {
      "anonymous": false,
      "inputs": [
        {
          "components": [
            {
              "name": "app",
              "type": "address"
            },
            {
              "name": "appprice",
              "type": "uint256"
            },
            {
              "name": "volume",
              "type": "uint256"
            },
            {
              "name": "tag",
              "type": "bytes32"
            },
            {
              "name": "datasetrestrict",
              "type": "address"
            },
            {
              "name": "workerpoolrestrict",
              "type": "address"
            },
            {
              "name": "requesterrestrict",
              "type": "address"
            },
            {
              "name": "salt",
              "type": "bytes32"
            },
            {
              "name": "sign",
              "type": "bytes"
            }
          ],
          "indexed": false,
          "name": "apporder",
          "type": "tuple"
        }
      ],
      "name": "BroadcastAppOrder",
      "type": "event"
    },
    {
      "anonymous": false,
      "inputs": [
        {
          "components": [
            {
              "name": "dataset",
              "type": "address"
            },
            {
              "name": "datasetprice",
              "type": "uint256"
            },
            {
              "name": "volume",
              "type": "uint256"
            },
            {
              "name": "tag",
              "type": "bytes32"
            },
            {
              "name": "apprestrict",
              "type": "address"
            },
            {
              "name": "workerpoolrestrict",
              "type": "address"
            },
            {
              "name": "requesterrestrict",
              "type": "address"
            },
            {
              "name": "salt",
              "type": "bytes32"
            },
            {
              "name": "sign",
              "type": "bytes"
            }
          ],
          "indexed": false,
          "name": "datasetorder",
          "type": "tuple"
        }
      ],
      "name": "BroadcastDatasetOrder",
      "type": "event"
    },
    {
      "anonymous": false,
      "inputs": [
        {
          "components": [
            {
              "name": "workerpool",
              "type": "address"
            },
            {
              "name": "workerpoolprice",
              "type": "uint256"
            },
            {
              "name": "volume",
              "type": "uint256"
            },
            {
              "name": "tag",
              "type": "bytes32"
            },
            {
              "name": "category",
              "type": "uint256"
            },
            {
              "name": "trust",
              "type": "uint256"
            },
            {
              "name": "apprestrict",
              "type": "address"
            },
            {
              "name": "datasetrestrict",
              "type": "address"
            },
            {
              "name": "requesterrestrict",
              "type": "address"
            },
            {
              "name": "salt",
              "type": "bytes32"
            },
            {
              "name": "sign",
              "type": "bytes"
            }
          ],
          "indexed": false,
          "name": "workerpoolorder",
          "type": "tuple"
        }
      ],
      "name": "BroadcastWorkerpoolOrder",
      "type": "event"
    },
    {
      "anonymous": false,
      "inputs": [
        {
          "components": [
            {
              "name": "app",
              "type": "address"
            },
            {
              "name": "appmaxprice",
              "type": "uint256"
            },
            {
              "name": "dataset",
              "type": "address"
            },
            {
              "name": "datasetmaxprice",
              "type": "uint256"
            },
            {
              "name": "workerpool",
              "type": "address"
            },
            {
              "name": "workerpoolmaxprice",
              "type": "uint256"
            },
            {
              "name": "requester",
              "type": "address"
            },
            {
              "name": "volume",
              "type": "uint256"
            },
            {
              "name": "tag",
              "type": "bytes32"
            },
            {
              "name": "category",
              "type": "uint256"
            },
            {
              "name": "trust",
              "type": "uint256"
            },
            {
              "name": "beneficiary",
              "type": "address"
            },
            {
              "name": "callback",
              "type": "address"
            },
            {
              "name": "params",
              "type": "string"
            },
            {
              "name": "salt",
              "type": "bytes32"
            },
            {
              "name": "sign",
              "type": "bytes"
            }
          ],
          "indexed": false,
          "name": "requestorder",
          "type": "tuple"
        }
      ],
      "name": "BroadcastRequestOrder",
      "type": "event"
    },
    {
      "anonymous": false,
      "inputs": [
        {
          "indexed": false,
          "name": "owner",
          "type": "address"
        },
        {
          "indexed": false,
          "name": "amount",
          "type": "uint256"
        }
      ],
      "name": "Withdraw",
      "type": "event"
    },
    {
      "anonymous": false,
      "inputs": [
        {
          "indexed": false,
          "name": "user",
          "type": "address"
        },
        {
          "indexed": false,
          "name": "amount",
          "type": "uint256"
        },
        {
          "indexed": false,
          "name": "ref",
          "type": "bytes32"
        }
      ],
      "name": "Reward",
      "type": "event"
    },
    {
      "anonymous": false,
      "inputs": [
        {
          "indexed": false,
          "name": "user",
          "type": "address"
        },
        {
          "indexed": false,
          "name": "amount",
          "type": "uint256"
        },
        {
          "indexed": false,
          "name": "ref",
          "type": "bytes32"
        }
      ],
      "name": "Seize",
      "type": "event"
    },
    {
      "anonymous": false,
      "inputs": [
        {
          "indexed": false,
          "name": "user",
          "type": "address"
        },
        {
          "indexed": false,
          "name": "amount",
          "type": "uint256"
        }
      ],
      "name": "Lock",
      "type": "event"
    },
    {
      "anonymous": false,
      "inputs": [
        {
          "indexed": false,
          "name": "user",
          "type": "address"
        },
        {
          "indexed": false,
          "name": "amount",
          "type": "uint256"
        }
      ],
      "name": "Unlock",
      "type": "event"
    },
    {
      "anonymous": false,
      "inputs": [
        {
          "indexed": true,
          "name": "from",
          "type": "address"
        },
        {
          "indexed": true,
          "name": "to",
          "type": "address"
        },
        {
          "indexed": false,
          "name": "value",
          "type": "uint256"
        }
      ],
      "name": "Transfer",
      "type": "event"
    },
    {
      "anonymous": false,
      "inputs": [
        {
          "indexed": true,
          "name": "owner",
          "type": "address"
        },
        {
          "indexed": true,
          "name": "spender",
          "type": "address"
        },
        {
          "indexed": false,
          "name": "value",
          "type": "uint256"
        }
      ],
      "name": "Approval",
      "type": "event"
    },
    {
      "constant": true,
      "inputs": [
        {
          "name": "_id",
          "type": "bytes32"
        }
      ],
      "name": "viewRequestDeals",
      "outputs": [
        {
          "name": "requestdeals",
          "type": "bytes32[]"
        }
      ],
      "payable": false,
      "stateMutability": "view",
      "type": "function"
    },
    {
      "constant": true,
      "inputs": [
        {
          "name": "_id",
          "type": "bytes32"
        }
      ],
      "name": "viewDeal",
      "outputs": [
        {
          "components": [
            {
              "components": [
                {
                  "name": "pointer",
                  "type": "address"
                },
                {
                  "name": "owner",
                  "type": "address"
                },
                {
                  "name": "price",
                  "type": "uint256"
                }
              ],
              "name": "app",
              "type": "tuple"
            },
            {
              "components": [
                {
                  "name": "pointer",
                  "type": "address"
                },
                {
                  "name": "owner",
                  "type": "address"
                },
                {
                  "name": "price",
                  "type": "uint256"
                }
              ],
              "name": "dataset",
              "type": "tuple"
            },
            {
              "components": [
                {
                  "name": "pointer",
                  "type": "address"
                },
                {
                  "name": "owner",
                  "type": "address"
                },
                {
                  "name": "price",
                  "type": "uint256"
                }
              ],
              "name": "workerpool",
              "type": "tuple"
            },
            {
              "name": "trust",
              "type": "uint256"
            },
            {
              "name": "category",
              "type": "uint256"
            },
            {
              "name": "tag",
              "type": "bytes32"
            },
            {
              "name": "requester",
              "type": "address"
            },
            {
              "name": "beneficiary",
              "type": "address"
            },
            {
              "name": "callback",
              "type": "address"
            },
            {
              "name": "params",
              "type": "string"
            },
            {
              "name": "startTime",
              "type": "uint256"
            },
            {
              "name": "botFirst",
              "type": "uint256"
            },
            {
              "name": "botSize",
              "type": "uint256"
            },
            {
              "name": "workerStake",
              "type": "uint256"
            },
            {
              "name": "schedulerRewardRatio",
              "type": "uint256"
            }
          ],
          "name": "deal",
          "type": "tuple"
        }
      ],
      "payable": false,
      "stateMutability": "view",
      "type": "function"
    },
    {
      "constant": true,
      "inputs": [
        {
          "name": "_id",
          "type": "bytes32"
        }
      ],
      "name": "viewConsumed",
      "outputs": [
        {
          "name": "consumed",
          "type": "uint256"
        }
      ],
      "payable": false,
      "stateMutability": "view",
      "type": "function"
    },
    {
      "constant": true,
      "inputs": [
        {
          "name": "_id",
          "type": "bytes32"
        }
      ],
      "name": "viewPresigned",
      "outputs": [
        {
          "name": "presigned",
          "type": "bool"
        }
      ],
      "payable": false,
      "stateMutability": "view",
      "type": "function"
    },
    {
      "constant": false,
      "inputs": [
        {
          "components": [
            {
              "name": "app",
              "type": "address"
            },
            {
              "name": "appprice",
              "type": "uint256"
            },
            {
              "name": "volume",
              "type": "uint256"
            },
            {
              "name": "tag",
              "type": "bytes32"
            },
            {
              "name": "datasetrestrict",
              "type": "address"
            },
            {
              "name": "workerpoolrestrict",
              "type": "address"
            },
            {
              "name": "requesterrestrict",
              "type": "address"
            },
            {
              "name": "salt",
              "type": "bytes32"
            },
            {
              "name": "sign",
              "type": "bytes"
            }
          ],
          "name": "_apporder",
          "type": "tuple"
        }
      ],
      "name": "signAppOrder",
      "outputs": [
        {
          "name": "",
          "type": "bool"
        }
      ],
      "payable": false,
      "stateMutability": "nonpayable",
      "type": "function"
    },
    {
      "constant": false,
      "inputs": [
        {
          "components": [
            {
              "name": "dataset",
              "type": "address"
            },
            {
              "name": "datasetprice",
              "type": "uint256"
            },
            {
              "name": "volume",
              "type": "uint256"
            },
            {
              "name": "tag",
              "type": "bytes32"
            },
            {
              "name": "apprestrict",
              "type": "address"
            },
            {
              "name": "workerpoolrestrict",
              "type": "address"
            },
            {
              "name": "requesterrestrict",
              "type": "address"
            },
            {
              "name": "salt",
              "type": "bytes32"
            },
            {
              "name": "sign",
              "type": "bytes"
            }
          ],
          "name": "_datasetorder",
          "type": "tuple"
        }
      ],
      "name": "signDatasetOrder",
      "outputs": [
        {
          "name": "",
          "type": "bool"
        }
      ],
      "payable": false,
      "stateMutability": "nonpayable",
      "type": "function"
    },
    {
      "constant": false,
      "inputs": [
        {
          "components": [
            {
              "name": "workerpool",
              "type": "address"
            },
            {
              "name": "workerpoolprice",
              "type": "uint256"
            },
            {
              "name": "volume",
              "type": "uint256"
            },
            {
              "name": "tag",
              "type": "bytes32"
            },
            {
              "name": "category",
              "type": "uint256"
            },
            {
              "name": "trust",
              "type": "uint256"
            },
            {
              "name": "apprestrict",
              "type": "address"
            },
            {
              "name": "datasetrestrict",
              "type": "address"
            },
            {
              "name": "requesterrestrict",
              "type": "address"
            },
            {
              "name": "salt",
              "type": "bytes32"
            },
            {
              "name": "sign",
              "type": "bytes"
            }
          ],
          "name": "_workerpoolorder",
          "type": "tuple"
        }
      ],
      "name": "signWorkerpoolOrder",
      "outputs": [
        {
          "name": "",
          "type": "bool"
        }
      ],
      "payable": false,
      "stateMutability": "nonpayable",
      "type": "function"
    },
    {
      "constant": false,
      "inputs": [
        {
          "components": [
            {
              "name": "app",
              "type": "address"
            },
            {
              "name": "appmaxprice",
              "type": "uint256"
            },
            {
              "name": "dataset",
              "type": "address"
            },
            {
              "name": "datasetmaxprice",
              "type": "uint256"
            },
            {
              "name": "workerpool",
              "type": "address"
            },
            {
              "name": "workerpoolmaxprice",
              "type": "uint256"
            },
            {
              "name": "requester",
              "type": "address"
            },
            {
              "name": "volume",
              "type": "uint256"
            },
            {
              "name": "tag",
              "type": "bytes32"
            },
            {
              "name": "category",
              "type": "uint256"
            },
            {
              "name": "trust",
              "type": "uint256"
            },
            {
              "name": "beneficiary",
              "type": "address"
            },
            {
              "name": "callback",
              "type": "address"
            },
            {
              "name": "params",
              "type": "string"
            },
            {
              "name": "salt",
              "type": "bytes32"
            },
            {
              "name": "sign",
              "type": "bytes"
            }
          ],
          "name": "_requestorder",
          "type": "tuple"
        }
      ],
      "name": "signRequestOrder",
      "outputs": [
        {
          "name": "",
          "type": "bool"
        }
      ],
      "payable": false,
      "stateMutability": "nonpayable",
      "type": "function"
    },
    {
      "constant": false,
      "inputs": [
        {
          "components": [
            {
              "name": "app",
              "type": "address"
            },
            {
              "name": "appprice",
              "type": "uint256"
            },
            {
              "name": "volume",
              "type": "uint256"
            },
            {
              "name": "tag",
              "type": "bytes32"
            },
            {
              "name": "datasetrestrict",
              "type": "address"
            },
            {
              "name": "workerpoolrestrict",
              "type": "address"
            },
            {
              "name": "requesterrestrict",
              "type": "address"
            },
            {
              "name": "salt",
              "type": "bytes32"
            },
            {
              "name": "sign",
              "type": "bytes"
            }
          ],
          "name": "_apporder",
          "type": "tuple"
        },
        {
          "components": [
            {
              "name": "dataset",
              "type": "address"
            },
            {
              "name": "datasetprice",
              "type": "uint256"
            },
            {
              "name": "volume",
              "type": "uint256"
            },
            {
              "name": "tag",
              "type": "bytes32"
            },
            {
              "name": "apprestrict",
              "type": "address"
            },
            {
              "name": "workerpoolrestrict",
              "type": "address"
            },
            {
              "name": "requesterrestrict",
              "type": "address"
            },
            {
              "name": "salt",
              "type": "bytes32"
            },
            {
              "name": "sign",
              "type": "bytes"
            }
          ],
          "name": "_datasetorder",
          "type": "tuple"
        },
        {
          "components": [
            {
              "name": "workerpool",
              "type": "address"
            },
            {
              "name": "workerpoolprice",
              "type": "uint256"
            },
            {
              "name": "volume",
              "type": "uint256"
            },
            {
              "name": "tag",
              "type": "bytes32"
            },
            {
              "name": "category",
              "type": "uint256"
            },
            {
              "name": "trust",
              "type": "uint256"
            },
            {
              "name": "apprestrict",
              "type": "address"
            },
            {
              "name": "datasetrestrict",
              "type": "address"
            },
            {
              "name": "requesterrestrict",
              "type": "address"
            },
            {
              "name": "salt",
              "type": "bytes32"
            },
            {
              "name": "sign",
              "type": "bytes"
            }
          ],
          "name": "_workerpoolorder",
          "type": "tuple"
        },
        {
          "components": [
            {
              "name": "app",
              "type": "address"
            },
            {
              "name": "appmaxprice",
              "type": "uint256"
            },
            {
              "name": "dataset",
              "type": "address"
            },
            {
              "name": "datasetmaxprice",
              "type": "uint256"
            },
            {
              "name": "workerpool",
              "type": "address"
            },
            {
              "name": "workerpoolmaxprice",
              "type": "uint256"
            },
            {
              "name": "requester",
              "type": "address"
            },
            {
              "name": "volume",
              "type": "uint256"
            },
            {
              "name": "tag",
              "type": "bytes32"
            },
            {
              "name": "category",
              "type": "uint256"
            },
            {
              "name": "trust",
              "type": "uint256"
            },
            {
              "name": "beneficiary",
              "type": "address"
            },
            {
              "name": "callback",
              "type": "address"
            },
            {
              "name": "params",
              "type": "string"
            },
            {
              "name": "salt",
              "type": "bytes32"
            },
            {
              "name": "sign",
              "type": "bytes"
            }
          ],
          "name": "_requestorder",
          "type": "tuple"
        }
      ],
      "name": "matchOrders",
      "outputs": [
        {
          "name": "",
          "type": "bytes32"
        }
      ],
      "payable": false,
      "stateMutability": "nonpayable",
      "type": "function"
    },
    {
      "constant": false,
      "inputs": [
        {
          "components": [
            {
              "name": "app",
              "type": "address"
            },
            {
              "name": "appprice",
              "type": "uint256"
            },
            {
              "name": "volume",
              "type": "uint256"
            },
            {
              "name": "tag",
              "type": "bytes32"
            },
            {
              "name": "datasetrestrict",
              "type": "address"
            },
            {
              "name": "workerpoolrestrict",
              "type": "address"
            },
            {
              "name": "requesterrestrict",
              "type": "address"
            },
            {
              "name": "salt",
              "type": "bytes32"
            },
            {
              "name": "sign",
              "type": "bytes"
            }
          ],
          "name": "_apporder",
          "type": "tuple"
        }
      ],
      "name": "cancelAppOrder",
      "outputs": [
        {
          "name": "",
          "type": "bool"
        }
      ],
      "payable": false,
      "stateMutability": "nonpayable",
      "type": "function"
    },
    {
      "constant": false,
      "inputs": [
        {
          "components": [
            {
              "name": "dataset",
              "type": "address"
            },
            {
              "name": "datasetprice",
              "type": "uint256"
            },
            {
              "name": "volume",
              "type": "uint256"
            },
            {
              "name": "tag",
              "type": "bytes32"
            },
            {
              "name": "apprestrict",
              "type": "address"
            },
            {
              "name": "workerpoolrestrict",
              "type": "address"
            },
            {
              "name": "requesterrestrict",
              "type": "address"
            },
            {
              "name": "salt",
              "type": "bytes32"
            },
            {
              "name": "sign",
              "type": "bytes"
            }
          ],
          "name": "_datasetorder",
          "type": "tuple"
        }
      ],
      "name": "cancelDatasetOrder",
      "outputs": [
        {
          "name": "",
          "type": "bool"
        }
      ],
      "payable": false,
      "stateMutability": "nonpayable",
      "type": "function"
    },
    {
      "constant": false,
      "inputs": [
        {
          "components": [
            {
              "name": "workerpool",
              "type": "address"
            },
            {
              "name": "workerpoolprice",
              "type": "uint256"
            },
            {
              "name": "volume",
              "type": "uint256"
            },
            {
              "name": "tag",
              "type": "bytes32"
            },
            {
              "name": "category",
              "type": "uint256"
            },
            {
              "name": "trust",
              "type": "uint256"
            },
            {
              "name": "apprestrict",
              "type": "address"
            },
            {
              "name": "datasetrestrict",
              "type": "address"
            },
            {
              "name": "requesterrestrict",
              "type": "address"
            },
            {
              "name": "salt",
              "type": "bytes32"
            },
            {
              "name": "sign",
              "type": "bytes"
            }
          ],
          "name": "_workerpoolorder",
          "type": "tuple"
        }
      ],
      "name": "cancelWorkerpoolOrder",
      "outputs": [
        {
          "name": "",
          "type": "bool"
        }
      ],
      "payable": false,
      "stateMutability": "nonpayable",
      "type": "function"
    },
    {
      "constant": false,
      "inputs": [
        {
          "components": [
            {
              "name": "app",
              "type": "address"
            },
            {
              "name": "appmaxprice",
              "type": "uint256"
            },
            {
              "name": "dataset",
              "type": "address"
            },
            {
              "name": "datasetmaxprice",
              "type": "uint256"
            },
            {
              "name": "workerpool",
              "type": "address"
            },
            {
              "name": "workerpoolmaxprice",
              "type": "uint256"
            },
            {
              "name": "requester",
              "type": "address"
            },
            {
              "name": "volume",
              "type": "uint256"
            },
            {
              "name": "tag",
              "type": "bytes32"
            },
            {
              "name": "category",
              "type": "uint256"
            },
            {
              "name": "trust",
              "type": "uint256"
            },
            {
              "name": "beneficiary",
              "type": "address"
            },
            {
              "name": "callback",
              "type": "address"
            },
            {
              "name": "params",
              "type": "string"
            },
            {
              "name": "salt",
              "type": "bytes32"
            },
            {
              "name": "sign",
              "type": "bytes"
            }
          ],
          "name": "_requestorder",
          "type": "tuple"
        }
      ],
      "name": "cancelRequestOrder",
      "outputs": [
        {
          "name": "",
          "type": "bool"
        }
      ],
      "payable": false,
      "stateMutability": "nonpayable",
      "type": "function"
    },
    {
      "constant": false,
      "inputs": [
        {
          "name": "_dealid",
          "type": "bytes32"
        },
        {
          "name": "_worker",
          "type": "address"
        }
      ],
      "name": "lockContribution",
      "outputs": [],
      "payable": false,
      "stateMutability": "nonpayable",
      "type": "function"
    },
    {
      "constant": false,
      "inputs": [
        {
          "name": "_dealid",
          "type": "bytes32"
        },
        {
          "name": "_worker",
          "type": "address"
        }
      ],
      "name": "unlockContribution",
      "outputs": [],
      "payable": false,
      "stateMutability": "nonpayable",
      "type": "function"
    },
    {
      "constant": false,
      "inputs": [
        {
          "name": "_dealid",
          "type": "bytes32"
        },
        {
          "name": "_worker",
          "type": "address"
        },
        {
          "name": "_amount",
          "type": "uint256"
        },
        {
          "name": "_taskid",
          "type": "bytes32"
        }
      ],
      "name": "unlockAndRewardForContribution",
      "outputs": [],
      "payable": false,
      "stateMutability": "nonpayable",
      "type": "function"
    },
    {
      "constant": false,
      "inputs": [
        {
          "name": "_dealid",
          "type": "bytes32"
        },
        {
          "name": "_worker",
          "type": "address"
        },
        {
          "name": "_taskid",
          "type": "bytes32"
        }
      ],
      "name": "seizeContribution",
      "outputs": [],
      "payable": false,
      "stateMutability": "nonpayable",
      "type": "function"
    },
    {
      "constant": false,
      "inputs": [
        {
          "name": "_dealid",
          "type": "bytes32"
        },
        {
          "name": "_amount",
          "type": "uint256"
        },
        {
          "name": "_taskid",
          "type": "bytes32"
        }
      ],
      "name": "rewardForScheduling",
      "outputs": [],
      "payable": false,
      "stateMutability": "nonpayable",
      "type": "function"
    },
    {
      "constant": false,
      "inputs": [
        {
          "name": "_dealid",
          "type": "bytes32"
        },
        {
          "name": "_taskid",
          "type": "bytes32"
        }
      ],
      "name": "successWork",
      "outputs": [],
      "payable": false,
      "stateMutability": "nonpayable",
      "type": "function"
    },
    {
      "constant": false,
      "inputs": [
        {
          "name": "_dealid",
          "type": "bytes32"
        },
        {
          "name": "_taskid",
          "type": "bytes32"
        }
      ],
      "name": "failedWork",
      "outputs": [],
      "payable": false,
      "stateMutability": "nonpayable",
      "type": "function"
    },
    {
      "constant": true,
      "inputs": [
        {
          "name": "_id",
          "type": "bytes32"
        }
      ],
      "name": "viewDealABILegacy_pt1",
      "outputs": [
        {
          "name": "",
          "type": "address"
        },
        {
          "name": "",
          "type": "address"
        },
        {
          "name": "",
          "type": "uint256"
        },
        {
          "name": "",
          "type": "address"
        },
        {
          "name": "",
          "type": "address"
        },
        {
          "name": "",
          "type": "uint256"
        },
        {
          "name": "",
          "type": "address"
        },
        {
          "name": "",
          "type": "address"
        },
        {
          "name": "",
          "type": "uint256"
        }
      ],
      "payable": false,
      "stateMutability": "view",
      "type": "function"
    },
    {
      "constant": true,
      "inputs": [
        {
          "name": "_id",
          "type": "bytes32"
        }
      ],
      "name": "viewDealABILegacy_pt2",
      "outputs": [
        {
          "name": "",
          "type": "uint256"
        },
        {
          "name": "",
          "type": "bytes32"
        },
        {
          "name": "",
          "type": "address"
        },
        {
          "name": "",
          "type": "address"
        },
        {
          "name": "",
          "type": "address"
        },
        {
          "name": "",
          "type": "string"
        }
      ],
      "payable": false,
      "stateMutability": "view",
      "type": "function"
    },
    {
      "constant": true,
      "inputs": [
        {
          "name": "_id",
          "type": "bytes32"
        }
      ],
      "name": "viewConfigABILegacy",
      "outputs": [
        {
          "name": "",
          "type": "uint256"
        },
        {
          "name": "",
          "type": "uint256"
        },
        {
          "name": "",
          "type": "uint256"
        },
        {
          "name": "",
          "type": "uint256"
        },
        {
          "name": "",
          "type": "uint256"
        },
        {
          "name": "",
          "type": "uint256"
        }
      ],
      "payable": false,
      "stateMutability": "view",
      "type": "function"
    },
    {
      "constant": true,
      "inputs": [
        {
          "name": "owner",
          "type": "address"
        }
      ],
      "name": "viewAccountABILegacy",
      "outputs": [
        {
          "name": "",
          "type": "uint256"
        },
        {
          "name": "",
          "type": "uint256"
        }
      ],
      "payable": false,
      "stateMutability": "view",
      "type": "function"
    }
  ],
  "bytecode": "0x60806040523480156200001157600080fd5b506040516200559238038062005592833981016040819052620000349162000325565b81836040518060400160405280600881526020017f7374616b65524c430000000000000000000000000000000000000000000000008152506040518060400160405280600481526020017f73524c430000000000000000000000000000000000000000000000000000000081525060098260039080519060200190620000bc92919062000260565b508151620000d290600490602085019062000260565b506005805460ff191660ff9290921691909117610100600160a81b0319166101006001600160a01b0395861602179055505081166200011057600080fd5b600780546001600160a01b0319166001600160a01b03929092169190911790556040805160c0810182526008608082019081527f69457865634f444200000000000000000000000000000000000000000000000060a0830152815281518083018352600981527f332e302d616c706861000000000000000000000000000000000000000000000060208083019190915282015280820183905230606082015290517feca34ccf00000000000000000000000000000000000000000000000000000000815273__IexecODBLibOrders_____________________9163eca34ccf91620001ff919060040162000468565b60206040518083038186803b1580156200021857600080fd5b505af41580156200022d573d6000803e3d6000fd5b505050506040513d601f19601f8201168201806040525062000253919081019062000379565b600c555062000503915050565b828054600181600116156101000203166002900490600052602060002090601f016020900481019282601f10620002a357805160ff1916838001178555620002d3565b82800160010185558215620002d3579182015b82811115620002d3578251825591602001919060010190620002b6565b50620002e1929150620002e5565b5090565b6200030291905b80821115620002e15760008155600101620002ec565b90565b80516200031281620004de565b92915050565b80516200031281620004f8565b6000806000606084860312156200033b57600080fd5b600062000349868662000305565b93505060206200035c8682870162000305565b92505060406200036f8682870162000318565b9150509250925092565b6000602082840312156200038c57600080fd5b60006200039a848462000318565b949350505050565b620003ad816200048f565b82525050565b6000620003c08262000482565b620003cc818562000486565b9350620003de818560208601620004a1565b620003e981620004d4565b9093019392505050565b80516080808452600091908401906200040d8282620003b3565b91505060208301518482036020860152620004298282620003b3565b91505060408301516200044060408601826200045d565b506060830151620004556060860182620003a2565b509392505050565b620003ad8162000302565b602080825281016200047b8184620003f3565b9392505050565b5190565b90815260200190565b60006001600160a01b03821662000312565b60005b83811015620004be578181015183820152602001620004a4565b83811115620004ce576000848401525b50505050565b601f01601f191690565b620004e9816200048f565b8114620004f557600080fd5b50565b620004e98162000302565b61507f80620005136000396000f3fe608060405234801561001057600080fd5b506004361061038e5760003560e01c8063709ce02b116101de578063a9059cbb1161010f578063ce5f7895116100ad578063e2e7a8c11161007c578063e2e7a8c1146107db578063e3035ace146107e3578063e798491a146107f6578063fc0c546a146108095761038e565b8063ce5f78951461076b578063d286eb1614610790578063d5922f50146107a3578063dd62ed3e146107c85761038e565b8063b6b55f25116100e9578063b6b55f25146106fd578063b74861b214610710578063bd19a4f314610730578063c52e9de1146107585761038e565b8063a9059cbb146106c4578063ae510d19146106d7578063b31231de146106ea5761038e565b806395d89b411161017c578063a1f3496c11610156578063a1f3496c14610678578063a3b37a791461068b578063a3f0ec581461069e578063a457c2d7146106b15761038e565b806395d89b41146106485780639e986e81146106505780639f0c9d6e146106655761038e565b8063732e498d116101b8578063732e498d146105fa57806384724ddf1461060d5780638d52e41314610620578063947f5178146106355761038e565b8063709ce02b146104fc57806370a08231146105d457806370c4c277146105e75761038e565b806343f2c970116102c3578063555859c7116102615780636b55f4a5116102305780636b55f4a51461056e5780636cb9012e1461058e5780636dc2df05146105a15780636eb528b5146105c15761038e565b8063555859c71461051f5780635b3ae3e41461053257806368a9ef1c146105535780636a6e0bed1461055b5761038e565b80634c4692de1161029d5780634c4692de146104e95780634ec3b9e3146104fc57806351152de11461050457806351a0942f1461050c5761038e565b806343f2c970146104ae5780634693d172146104c15780634b2bec8c146104d65761038e565b806323b872dd116103305780633354f8a51161030a5780633354f8a51461046257806336efd16f1461047557806338a754b414610488578063395093511461049b5761038e565b806323b872dd146104275780632e1a7d4d1461043a578063313ce5671461044d5761038e565b8063095ea7b31161036c578063095ea7b3146103e6578063156194d4146103f957806318160ddd1461040c5780631bf6e00d146104145761038e565b80630175199814610393578063047411e7146103bc57806306fdde03146103d1575b600080fd5b6103a66103a1366004614349565b610811565b6040516103b39190614d98565b60405180910390f35b6103c46108ac565b6040516103b39190614da6565b6103d96108b2565b6040516103b39190614e7f565b6103a66103f43660046143a3565b610949565b6103c46104073660046145c1565b610960565b6103c46119b7565b6103c4610422366004614286565b6119bd565b6103a66104353660046142fc565b6119d8565b6103a661044836600461445f565b611a2f565b610455611a4d565b6040516103b39190614f42565b6103a66104703660046143d3565b611a56565b6103a661048336600461449b565b611adb565b6103a6610496366004614671565b611af1565b6103a66104a93660046143a3565b611c81565b6103a66104bc36600461445f565b611cbd565b6104d46104cf366004614671565b611cd2565b005b6103c46104e436600461445f565b611d0c565b6104d46104f736600461458d565b611d1e565b6103c4611d4d565b6103c4611d52565b6104d461051a36600461453c565b611d57565b6103a661052d36600461458d565b611e11565b610545610540366004614286565b611ffb565b6040516103b3929190614db4565b6103c4612019565b6103a66105693660046146a5565b61201e565b61058161057c366004614286565b6121f1565b6040516103b39190614e90565b6103a661059c36600461458d565b612223565b6105b46105af36600461445f565b6122f7565b6040516103b39190614d87565b6104d46105cf36600461449b565b612359565b6103c46105e2366004614286565b612391565b6104d46105f536600461453c565b6123ac565b6103a6610608366004614671565b61252a565b6103a661061b36600461458d565b61258e565b610628612778565b6040516103b39190614e71565b6104d46106433660046146a5565b612787565b6103d96127b6565b610658612817565b6040516103b39190614c6d565b6104d46106733660046144ba565b61281c565b6104d461068636600461455b565b612856565b6103a661069936600461458d565b612893565b6104d46106ac3660046144db565b612967565b6103a66106bf3660046143a3565b6129ac565b6103a66106d23660046143a3565b6129e8565b6103a66106e53660046146a5565b6129f5565b6103c46106f836600461453c565b612bdf565b6103a661070b36600461445f565b612c0d565b61072361071e36600461445f565b612c23565b6040516103b39190614eaf565b61074361073e36600461445f565b612de0565b6040516103b399989796959493929190614ccb565b6104d461076636600461458d565b613017565b61077e61077936600461445f565b613046565b6040516103b396959493929190614ee2565b6103a661079e36600461445f565b613241565b6107b66107b136600461445f565b613256565b6040516103b396959493929190614dc2565b6103c46107d63660046142c2565b613450565b6103c461347b565b6103c46107f136600461445f565b613483565b6104d461080436600461449b565b613495565b6106586134c9565b600061081e8484846134dd565b806108a25750604051630b135d3f60e11b81526001600160a01b03851690631626ba7e906108529086908690600401614e1c565b60206040518083038186803b15801561086a57600080fd5b505afa15801561087e573d6000803e3d6000fd5b505050506040513d601f19601f820116820180604052506108a29190810190614441565b90505b9392505050565b600c5481565b60038054604080516020601f600260001961010060018816150201909516949094049384018190048102820181019092528281526060939092909183018282801561093e5780601f106109135761010080835404028352916020019161093e565b820191906000526020600020905b81548152906001019060200180831161092157829003601f168201915b505050505090505b90565b60006109563384846135b2565b5060015b92915050565b600082608001518261012001511461097757600080fd5b8260a00151826101400151111561098d57600080fd5b8460200151826020015110156109a257600080fd5b8360200151826060015110156109b757600080fd5b82602001518260a0015110156109cc57600080fd5b826060015119826101000151856060015187606001511717166000801b146109f357600080fd5b845182516001600160a01b03908116911614610a0e57600080fd5b83600001516001600160a01b031682604001516001600160a01b031614610a3457600080fd5b60808201516001600160a01b03161580610a5d5750610a5d826080015184600001516004613640565b610a6657600080fd5b60808501516001600160a01b03161580610a8f5750610a8f856080015185600001516004613640565b610a9857600080fd5b60a08501516001600160a01b03161580610ac15750610ac18560a0015184600001516004613640565b610aca57600080fd5b60c08501516001600160a01b03161580610af35750610af38560c001518360c001516004613640565b610afc57600080fd5b60808401516001600160a01b03161580610b255750610b25846080015186600001516004613640565b610b2e57600080fd5b60a08401516001600160a01b03161580610b575750610b578460a0015184600001516004613640565b610b6057600080fd5b60c08401516001600160a01b03161580610b895750610b898460c001518360c001516004613640565b610b9257600080fd5b60c08301516001600160a01b03161580610bbb5750610bbb8360c0015186600001516004613640565b610bc457600080fd5b60e08301516001600160a01b03161580610bed5750610bed8360e0015185600001516004613640565b610bf657600080fd5b6101008301516001600160a01b03161580610c215750610c218361010001518360c001516004613640565b610c2a57600080fd5b60075485518551855160405163097d630d60e01b81526001600160a01b039094169363097d630d93610c629390929091600401614c7b565b60206040518083038186803b158015610c7a57600080fd5b505afa158015610c8e573d6000803e3d6000fd5b505050506040513d601f19601f82011682018060405250610cb29190810190614441565b610cbb57600080fd5b610cc3613c50565b84516001600160a01b0316151560e0820152604051630495132960e01b815273__IexecODBLibOrders_____________________90630495132990610d0c908990600401614e9e565b60206040518083038186803b158015610d2457600080fd5b505af4158015610d38573d6000803e3d6000fd5b505050506040513d601f19601f82011682018060405250610d5c919081019061447d565b600c5460405163176eaa4960e01b815273__IexecODBLibOrders_____________________9263176eaa4992610d9492600401614db4565b60206040518083038186803b158015610dac57600080fd5b505af4158015610dc0573d6000803e3d6000fd5b505050506040513d601f19601f82011682018060405250610de4919081019061447d565b81600001818152505085600001516001600160a01b0316638da5cb5b6040518163ffffffff1660e01b815260040160206040518083038186803b158015610e2a57600080fd5b505afa158015610e3e573d6000803e3d6000fd5b505050506040513d601f19601f82011682018060405250610e6291908101906142a4565b6001600160a01b0316602080830191909152815160009081526010909152604090205460ff1680610ea65750610ea681602001518260000151886101000151610811565b610eaf57600080fd5b8060e001511561109057604051630af531cd60e21b815273__IexecODBLibOrders_____________________90632bd4c73490610ef0908890600401614e9e565b60206040518083038186803b158015610f0857600080fd5b505af4158015610f1c573d6000803e3d6000fd5b505050506040513d601f19601f82011682018060405250610f40919081019061447d565b600c5460405163176eaa4960e01b815273__IexecODBLibOrders_____________________9263176eaa4992610f7892600401614db4565b60206040518083038186803b158015610f9057600080fd5b505af4158015610fa4573d6000803e3d6000fd5b505050506040513d601f19601f82011682018060405250610fc8919081019061447d565b81604001818152505084600001516001600160a01b0316638da5cb5b6040518163ffffffff1660e01b815260040160206040518083038186803b15801561100e57600080fd5b505afa158015611022573d6000803e3d6000fd5b505050506040513d601f19601f8201168201806040525061104691908101906142a4565b6001600160a01b0316606082015260408082015160009081526010602052205460ff1680611087575061108781606001518260400151876101000151610811565b61109057600080fd5b604051632c5a82c360e11b815273__IexecODBLibOrders_____________________906358b50586906110c7908790600401614ed1565b60206040518083038186803b1580156110df57600080fd5b505af41580156110f3573d6000803e3d6000fd5b505050506040513d601f19601f82011682018060405250611117919081019061447d565b600c5460405163176eaa4960e01b815273__IexecODBLibOrders_____________________9263176eaa499261114f92600401614db4565b60206040518083038186803b15801561116757600080fd5b505af415801561117b573d6000803e3d6000fd5b505050506040513d601f19601f8201168201806040525061119f919081019061447d565b81608001818152505083600001516001600160a01b0316638da5cb5b6040518163ffffffff1660e01b815260040160206040518083038186803b1580156111e557600080fd5b505afa1580156111f9573d6000803e3d6000fd5b505050506040513d601f19601f8201168201806040525061121d91908101906142a4565b6001600160a01b031660a0820152608081015160009081526010602052604090205460ff168061126057506112608160a001518260800151866101400151610811565b61126957600080fd5b604051630409a12760e11b815273__IexecODBLibOrders_____________________90630813424e906112a0908690600401614ec0565b60206040518083038186803b1580156112b857600080fd5b505af41580156112cc573d6000803e3d6000fd5b505050506040513d601f19601f820116820180604052506112f0919081019061447d565b600c5460405163176eaa4960e01b815273__IexecODBLibOrders_____________________9263176eaa499261132892600401614db4565b60206040518083038186803b15801561134057600080fd5b505af4158015611354573d6000803e3d6000fd5b505050506040513d601f19601f82011682018060405250611378919081019061447d565b60c0820181905260009081526010602052604090205460ff16806113af57506113af8360c001518260c00151856101e00151610811565b6113b857600080fd5b80516000908152600f602052604080822054908801516113dd9163ffffffff61369316565b90508160e001516113ee5780611427565b6040808301516000908152600f60205281902054908701516114279161141a919063ffffffff61369316565b829063ffffffff6136a816565b60808301516000908152600f60205260409081902054908701519192506114579161141a9163ffffffff61369316565b60c08301516000908152600f602052604090205460e08601519192506114869161141a9163ffffffff61369316565b90506000811161149557600080fd5b60c08201516000818152600f6020908152604080832054905192936114bc93909201614c47565b60408051808303601f1901815291815281516020928301206000818152600e8452919091208a5181546001600160a01b03199081166001600160a01b03928316178355878501516001840180548316918416919091179055938c01516002830155606087015160048301805486169183169190911790558a5160038301805490951691161790925560e085015190925061155757600061155d565b87602001515b600582015586516006820180546001600160a01b039283166001600160a01b03199182161790915560a0860151600784018054919093169116179055602087015160088201556101408601516115ba90600163ffffffff6136be16565b6009820155610120860151600a8201556101008601516060808a0151908b01511717600b82015560c0860151600c820180546001600160a01b039283166001600160a01b031991821617909155610160880151600d84018054918416918316919091179055610180880151600e840180549190931691161790556101a0860151805161165091600f840191602090910190613c94565b5042601082015560c08401516000908152600f6020908152604091829020546011840155601283018590558851825163b55e75af60e01b81529251611705936001600160a01b039092169263b55e75af9260048082019391829003018186803b1580156116bc57600080fd5b505afa1580156116d0573d6000803e3d6000fd5b505050506040513d601f19601f820116820180604052506116f4919081019061447d565b60208901519063ffffffff6136ce16565b816013018190555086600001516001600160a01b03166387639c686040518163ffffffff1660e01b815260040160206040518083038186803b15801561174a57600080fd5b505afa15801561175e573d6000803e3d6000fd5b505050506040513d601f19601f82011682018060405250611782919081019061447d565b601482015560c08401516000908152600d6020908152604080832080546001810182559084528284200185905586518352600f9091529020546117cb908463ffffffff6136dc16565b84516000908152600f602052604090205560e0840151611810906117f05760006117f2565b835b6040808701516000908152600f60205220549063ffffffff6136dc16565b6040808601516000908152600f6020528181209290925560808601518252902054611841908463ffffffff6136dc16565b60808501516000908152600f60205260408082209290925560c086015181522054611872908463ffffffff6136dc16565b60c08501516000908152600f6020526040902055600c8101546008820154600583015460028401546118e0936001600160a01b0316926118db9288926118cf92916118c3919063ffffffff6136dc16565b9063ffffffff6136dc16565b9063ffffffff6136ee16565b613715565b6007810154600882015461190f916001600160a01b0316906118db9086906118cf90601e63ffffffff6136ce16565b60068101546040516001600160a01b03909116907f692ad61076dceddd0f1a861f737553dd61fc8501cf4190d29c4e90af6607f76590611950908590614da6565b60405180910390a27fd811b592ed0899225773e8933d8df64bd0b62761a9d7aad4ed5b22735f4610a4828560000151866040015187608001518860c00151886040516119a196959493929190614dc2565b60405180910390a150925050505b949350505050565b60025490565b6001600160a01b031660009081526006602052604090205490565b60006119e58484846137a3565b6001600160a01b038416600090815260016020908152604080832033808552925290912054611a25918691611a20908663ffffffff61369316565b6135b2565b5060019392505050565b6000611a3b3383613866565b611a453383613910565b506001919050565b60055460ff1690565b6000838214611a6457600080fd5b60005b84811015611acf57611a8b33878784818110611a7f57fe5b90506020020135613998565b611ac7848483818110611a9a57fe5b9050602002016020611aaf9190810190614286565b878784818110611abb57fe5b90506020020135613a2b565b600101611a67565b50600195945050505050565b6000611ae73384613998565b6109568284613a2b565b604051630409a12760e11b8152600090819073__IexecODBLibOrders_____________________90630813424e90611b2d908690600401614ec0565b60206040518083038186803b158015611b4557600080fd5b505af4158015611b59573d6000803e3d6000fd5b505050506040513d601f19601f82011682018060405250611b7d919081019061447d565b600c5460405163176eaa4960e01b815273__IexecODBLibOrders_____________________9263176eaa4992611bb592600401614db4565b60206040518083038186803b158015611bcd57600080fd5b505af4158015611be1573d6000803e3d6000fd5b505050506040513d601f19601f82011682018060405250611c05919081019061447d565b90508260c001516001600160a01b0316336001600160a01b031614611c2957600080fd5b60e08301516000828152600f60205260409081902091909155517f582f43f2a741cbe708aae3b8d38a4efc3d09d7e81919697b3ca693f4c444cc0590611c70908390614da6565b60405180910390a150600192915050565b3360008181526001602090815260408083206001600160a01b03871684529091528120549091610956918590611a20908663ffffffff6136dc16565b600b6020526000908152604090205460ff1681565b7f54bee205d9b03332d6dc82bc907476dfef6ed4fd86058d49a72994baee78117581604051611d019190614ec0565b60405180910390a150565b6000908152600f602052604090205490565b7fc56d982ad2fd39ebadca073cc88d9bdaee0f4c8e7b2b6be50227169daefc7b3f81604051611d019190614e9e565b601e81565b600a81565b6007546001600160a01b03163314611d6e57600080fd5b6000828152600e60205260408120600881015460058201546002830154929392611da392916118c3919063ffffffff6136dc16565b6008830154909150600090611dbf90601e63ffffffff6136ce16565b600c840154909150611dda906001600160a01b031683613acc565b6007830154611df3906001600160a01b03168286613b4e565b611dff60008286613bd4565b611e0a600082613715565b5050505050565b604051630af531cd60e21b8152600090819073__IexecODBLibOrders_____________________90632bd4c73490611e4d908690600401614e9e565b60206040518083038186803b158015611e6557600080fd5b505af4158015611e79573d6000803e3d6000fd5b505050506040513d601f19601f82011682018060405250611e9d919081019061447d565b600c5460405163176eaa4960e01b815273__IexecODBLibOrders_____________________9263176eaa4992611ed592600401614db4565b60206040518083038186803b158015611eed57600080fd5b505af4158015611f01573d6000803e3d6000fd5b505050506040513d601f19601f82011682018060405250611f25919081019061447d565b905082600001516001600160a01b0316638da5cb5b6040518163ffffffff1660e01b815260040160206040518083038186803b158015611f6457600080fd5b505afa158015611f78573d6000803e3d6000fd5b505050506040513d601f19601f82011682018060405250611f9c91908101906142a4565b6001600160a01b0316336001600160a01b031614611fb957600080fd5b6040808401516000838152600f60205282902055517fcf52e3228bc482a6656d8ab56c09888b1c5bf6aaadba0185e96a34836f2bb1d490611c70908390614da6565b60008061200783612391565b612010846119bd565b91509150915091565b600481565b600081600001516001600160a01b0316638da5cb5b6040518163ffffffff1660e01b815260040160206040518083038186803b15801561205d57600080fd5b505afa158015612071573d6000803e3d6000fd5b505050506040513d601f19601f8201168201806040525061209591908101906142a4565b6001600160a01b0316336001600160a01b0316146120b257600080fd5b604051632c5a82c360e11b815260019060109060009073__IexecODBLibOrders_____________________906358b50586906120f2908890600401614ed1565b60206040518083038186803b15801561210a57600080fd5b505af415801561211e573d6000803e3d6000fd5b505050506040513d601f19601f82011682018060405250612142919081019061447d565b600c5460405163176eaa4960e01b815273__IexecODBLibOrders_____________________9263176eaa499261217a92600401614db4565b60206040518083038186803b15801561219257600080fd5b505af41580156121a6573d6000803e3d6000fd5b505050506040513d601f19601f820116820180604052506121ca919081019061447d565b81526020810191909152604001600020805460ff1916911515919091179055506001919050565b6121f9613d12565b604051806040016040528061220d84612391565b815260200161221b846119bd565b905292915050565b600081600001516001600160a01b0316638da5cb5b6040518163ffffffff1660e01b815260040160206040518083038186803b15801561226257600080fd5b505afa158015612276573d6000803e3d6000fd5b505050506040513d601f19601f8201168201806040525061229a91908101906142a4565b6001600160a01b0316336001600160a01b0316146122b757600080fd5b604051630495132960e01b815260019060109060009073__IexecODBLibOrders_____________________906304951329906120f2908890600401614e9e565b6000818152600d602090815260409182902080548351818402810184019094528084526060939283018282801561234d57602002820191906000526020600020905b815481526020019060010190808311612339575b50505050509050919050565b6007546001600160a01b0316331461237057600080fd5b6000828152600e602052604090206013015461238d908290613acc565b5050565b6001600160a01b031660009081526020819052604090205490565b6007546001600160a01b031633146123c357600080fd5b6000828152600e602052604081206008810154600582015460028301549293926123f892916118c3919063ffffffff6136dc16565b600883015490915060009061241490601e63ffffffff6136ce16565b600c840154909150612430906001600160a01b03168386613b4e565b6002830154156124585760018301546002840154612458916001600160a01b03169086613bd4565b600583015415801590612477575060038301546001600160a01b031615155b1561249a576004830154600584015461249a916001600160a01b03169086613bd4565b60078301546124b2906001600160a01b031682613acc565b60006124be6000612391565b90508015612522576124fb816124ef633b9aca006124e383600a63ffffffff6136ce16565b9063ffffffff6136be16565b9063ffffffff6136a816565b905061250960008287613b4e565b6007840154612522906001600160a01b03168287613bd4565b505050505050565b60008160c001516001600160a01b0316336001600160a01b03161461254e57600080fd5b604051630409a12760e11b815260019060109060009073__IexecODBLibOrders_____________________90630813424e906120f2908890600401614ec0565b604051630495132960e01b8152600090819073__IexecODBLibOrders_____________________906304951329906125ca908690600401614e9e565b60206040518083038186803b1580156125e257600080fd5b505af41580156125f6573d6000803e3d6000fd5b505050506040513d601f19601f8201168201806040525061261a919081019061447d565b600c5460405163176eaa4960e01b815273__IexecODBLibOrders_____________________9263176eaa499261265292600401614db4565b60206040518083038186803b15801561266a57600080fd5b505af415801561267e573d6000803e3d6000fd5b505050506040513d601f19601f820116820180604052506126a2919081019061447d565b905082600001516001600160a01b0316638da5cb5b6040518163ffffffff1660e01b815260040160206040518083038186803b1580156126e157600080fd5b505afa1580156126f5573d6000803e3d6000fd5b505050506040513d601f19601f8201168201806040525061271991908101906142a4565b6001600160a01b0316336001600160a01b03161461273657600080fd5b6040808401516000838152600f60205282902055517f7343f75be43aba524f85326508cd975d016ef7884676377366c69a7c32e3066890611c70908390614da6565b6007546001600160a01b031681565b7faf81a046e31ebb2be305579e585ac6b2ee3fdc2dc9dba806bb826879bb2c785181604051611d019190614ed1565b60048054604080516020601f600260001961010060018816150201909516949094049384018190048102820181019092528281526060939092909183018282801561093e5780601f106109135761010080835404028352916020019161093e565b600181565b6007546001600160a01b0316331461283357600080fd5b6000838152600e602052604090206013015461285190839083613b4e565b505050565b6007546001600160a01b0316331461286d57600080fd5b6000838152600e6020526040902060070154612851906001600160a01b03168383613bd4565b600081600001516001600160a01b0316638da5cb5b6040518163ffffffff1660e01b815260040160206040518083038186803b1580156128d257600080fd5b505afa1580156128e6573d6000803e3d6000fd5b505050506040513d601f19601f8201168201806040525061290a91908101906142a4565b6001600160a01b0316336001600160a01b03161461292757600080fd5b604051630af531cd60e21b815260019060109060009073__IexecODBLibOrders_____________________90632bd4c734906120f2908890600401614e9e565b6007546001600160a01b0316331461297e57600080fd5b6000848152600e602052604090206013015461299b908490613acc565b6129a6838383613bd4565b50505050565b3360008181526001602090815260408083206001600160a01b03871684529091528120549091610956918590611a20908663ffffffff61369316565b60006109563384846137a3565b604051632c5a82c360e11b8152600090819073__IexecODBLibOrders_____________________906358b5058690612a31908690600401614ed1565b60206040518083038186803b158015612a4957600080fd5b505af4158015612a5d573d6000803e3d6000fd5b505050506040513d601f19601f82011682018060405250612a81919081019061447d565b600c5460405163176eaa4960e01b815273__IexecODBLibOrders_____________________9263176eaa4992612ab992600401614db4565b60206040518083038186803b158015612ad157600080fd5b505af4158015612ae5573d6000803e3d6000fd5b505050506040513d601f19601f82011682018060405250612b09919081019061447d565b905082600001516001600160a01b0316638da5cb5b6040518163ffffffff1660e01b815260040160206040518083038186803b158015612b4857600080fd5b505afa158015612b5c573d6000803e3d6000fd5b505050506040513d601f19601f82011682018060405250612b8091908101906142a4565b6001600160a01b0316336001600160a01b031614612b9d57600080fd5b6040808401516000838152600f60205282902055517f145ad51e4496173bca15e24e7eb46f9ab3a10eea0497e2801a3a6806c06113a390611c70908390614da6565b60096020528160005260406000208181548110612bf857fe5b90600052602060002001600091509150505481565b6000612c193383613998565b611a453383613a2b565b612c2b613d2c565b6000828152600e602081815260409283902083516102408101855281546001600160a01b039081166101e083019081526001808501548316610200850152600280860154610220860152918452875160608082018a5260038701548516825260048701548516828901526005870154828b01528588019190915288518082018a5260068701548516815260078701548516818901526008870154818b0152858a0152600986015490850152600a8501546080850152600b85015460a0850152600c850154831660c0850152600d850154831660e08501529584015490911661010080840191909152600f840180548851978116159092026000190190911691909104601f810185900485028601850190965285855290949193610120860193909290830182828015612d9e5780601f10612d7357610100808354040283529160200191612d9e565b820191906000526020600020905b815481529060010190602001808311612d8157829003601f168201915b50505050508152602001601082015481526020016011820154815260200160128201548152602001601382015481526020016014820154815250509050919050565b6000806000806000806000806000612df6613d2c565b60008b8152600e602081815260409283902083516102408101855281546001600160a01b039081166101e083019081526001808501548316610200850152600280860154610220860152918452875160608082018a5260038701548516825260048701548516828901526005870154828b01528588019190915288518082018a5260068701548516815260078701548516818901526008870154818b0152858a0152600986015490850152600a8501546080850152600b85015460a0850152600c850154831660c0850152600d850154831660e08501529584015490911661010080840191909152600f840180548851978116159092026000190190911691909104601f810185900485028601850190965285855290949193610120860193909290830182828015612f695780601f10612f3e57610100808354040283529160200191612f69565b820191906000526020600020905b815481529060010190602001808311612f4c57829003601f168201915b50505050508152602001601082015481526020016011820154815260200160128201548152602001601382015481526020016014820154815250509050806000015160000151816000015160200151826000015160400151836020015160000151846020015160200151856020015160400151866040015160000151876040015160200151886040015160400151995099509950995099509950995099509950509193959799909294969850565b7f6fd493f856b22df174df46975d6dcf0895c7dfb3c63d20179c0dcd5563e2f56581604051611d019190614e9e565b60008060008060006060613058613d2c565b6000888152600e602081815260409283902083516102408101855281546001600160a01b039081166101e083019081526001808501548316610200850152600280860154610220860152918452875160608082018a5260038701548516825260048701548516828901526005870154828b01528588019190915288518082018a5260068701548516815260078701548516818901526008870154818b0152858a0152600986015490850152600a8501546080850152600b85015460a0850152600c850154831660c0850152600d850154831660e08501529584015490911661010080840191909152600f840180548851978116159092026000190190911691909104601f8101859004850286018501909652858552909491936101208601939092908301828280156131cb5780601f106131a0576101008083540402835291602001916131cb565b820191906000526020600020905b8154815290600101906020018083116131ae57829003601f168201915b5050505050815260200160108201548152602001601182015481526020016012820154815260200160138201548152602001601482015481525050905080606001518160a001518260c001518360e001518461010001518561012001518090509650965096509650965096505091939550919395565b60009081526010602052604090205460ff1690565b600080600080600080613267613d2c565b6000888152600e602081815260409283902083516102408101855281546001600160a01b039081166101e083019081526001808501548316610200850152600280860154610220860152918452875160608082018a5260038701548516825260048701548516828901526005870154828b01528588019190915288518082018a5260068701548516815260078701548516818901526008870154818b0152858a0152600986015490850152600a8501546080850152600b85015460a0850152600c850154831660c0850152600d850154831660e08501529584015490911661010080840191909152600f840180548851978116159092026000190190911691909104601f8101859004850286018501909652858552909491936101208601939092908301828280156133da5780601f106133af576101008083540402835291602001916133da565b820191906000526020600020905b8154815290600101906020018083116133bd57829003601f168201915b505050505081526020016010820154815260200160118201548152602001601282015481526020016013820154815260200160148201548152505090508060800151816101400151826101600151836101800151846101a00151856101c001519650965096509650965096505091939550919395565b6001600160a01b03918216600090815260016020908152604080832093909416825291909152205490565b633b9aca0081565b600a6020526000908152604090205481565b6007546001600160a01b031633146134ac57600080fd5b6000828152600e602052604090206013015461238d908290613715565b60055461010090046001600160a01b031690565b60008060008084516041146134f857600093505050506108a5565b50505060208201516040830151606084015160001a601b81101561351a57601b015b8060ff16601b1415801561353257508060ff16601c14155b1561354357600093505050506108a5565b600186828585604051600081526020016040526040516135669493929190614e3c565b6020604051602081039080840390855afa158015613588573d6000803e3d6000fd5b505050602060405103516001600160a01b0316876001600160a01b03161493505050509392505050565b6001600160a01b0382166135c557600080fd5b6001600160a01b0383166135d857600080fd5b6001600160a01b0380841660008181526001602090815260408083209487168084529490915290819020849055517f8c5be1e5ebec7d5bd14f71427d1e84f3dd0314c0f7b2291e5b200ac8c7c3b92590613633908590614da6565b60405180910390a3505050565b6000826001600160a01b0316846001600160a01b031614806108a25750836001600160a01b031663d202158d61367585613c12565b846040518363ffffffff1660e01b8152600401610852929190614db4565b6000828211156136a257600080fd5b50900390565b60008183106136b757816108a5565b5090919050565b6000818310156136b757816108a5565b60006108a583836064613c1e565b6000828201838110156108a557600080fd5b6000826136fd5750600061095a565b8282028284828161370a57fe5b04146108a557600080fd5b6137208230836137a3565b6001600160a01b038216600090815260066020526040902054613749908263ffffffff6136dc16565b6001600160a01b0383166000908152600660205260409081902091909155517f625fed9875dada8643f2418b838ae0bc78d9a148a18eee4ee1979ff0f3f5d427906137979084908490614d51565b60405180910390a15050565b6001600160a01b0382166137b657600080fd5b6001600160a01b0383166000908152602081905260409020546137df908263ffffffff61369316565b6001600160a01b038085166000908152602081905260408082209390935590841681522054613814908263ffffffff6136dc16565b6001600160a01b0380841660008181526020819052604090819020939093559151908516907fddf252ad1be2c89b69c2b068fc378daa952ba7f163c4a11628f55a4df523b3ef90613633908590614da6565b6001600160a01b03821661387957600080fd5b60025461388c908263ffffffff61369316565b6002556001600160a01b0382166000908152602081905260409020546138b8908263ffffffff61369316565b6001600160a01b0383166000818152602081905260408082209390935591517fddf252ad1be2c89b69c2b068fc378daa952ba7f163c4a11628f55a4df523b3ef90613904908590614da6565b60405180910390a35050565b60055460405163a9059cbb60e01b81526101009091046001600160a01b03169063a9059cbb906139469085908590600401614d51565b602060405180830381600087803b15801561396057600080fd5b505af1158015613974573d6000803e3d6000fd5b505050506040513d601f19601f820116820180604052506128519190810190614441565b6005546040516323b872dd60e01b81526101009091046001600160a01b0316906323b872dd906139d090859030908690600401614ca3565b602060405180830381600087803b1580156139ea57600080fd5b505af11580156139fe573d6000803e3d6000fd5b505050506040513d601f19601f82011682018060405250613a229190810190614441565b61238d57600080fd5b6001600160a01b038216613a3e57600080fd5b600254613a51908263ffffffff6136dc16565b6002556001600160a01b038216600090815260208190526040902054613a7d908263ffffffff6136dc16565b6001600160a01b0383166000818152602081905260408082209390935591519091907fddf252ad1be2c89b69c2b068fc378daa952ba7f163c4a11628f55a4df523b3ef90613904908590614da6565b613ad73083836137a3565b6001600160a01b038216600090815260066020526040902054613b00908263ffffffff61369316565b6001600160a01b0383166000908152600660205260409081902091909155517f6381d9813cabeb57471b5a7e05078e64845ccdb563146a6911d536f24ce960f1906137979084908490614d51565b6001600160a01b038316600090815260066020526040902054613b77908363ffffffff61369316565b6001600160a01b0384166000908152600660205260409081902091909155517f1bccc549c38561cd5b57f0db11ceb8dde1b0b6ee05ab5e155b51c7c5ba64becb90613bc790859085908590614d6c565b60405180910390a1505050565b613bdf3084846137a3565b7fc2aca55aa696938c7e95842e8939ca0fbb2120a3eeb8948cdcee2b70da566672838383604051613bc793929190614d6c565b6001600160a01b031690565b60006108a2613c2d85856136ee565b836000808211613c3c57600080fd5b6000828481613c4757fe5b04949350505050565b6040805161010081018252600080825260208201819052918101829052606081018290526080810182905260a0810182905260c0810182905260e081019190915290565b828054600181600116156101000203166002900490600052602060002090601f016020900481019282601f10613cd557805160ff1916838001178555613d02565b82800160010185558215613d02579182015b82811115613d02578251825591602001919060010190613ce7565b50613d0e929150613dd2565b5090565b604051806040016040528060008152602001600081525090565b604051806102a00160405280613d40613dec565b8152602001613d4d613dec565b8152602001613d5a613dec565b815260200160008152602001600081526020016000801916815260200160006001600160a01b0316815260200160006001600160a01b0316815260200160006001600160a01b031681526020016060815260200160008152602001600081526020016000815260200160008152602001600081525090565b61094691905b80821115613d0e5760008155600101613dd8565b604080516060810182526000808252602082018190529181019190915290565b803561095a81615013565b805161095a81615013565b60008083601f840112613e3457600080fd5b5081356001600160401b03811115613e4b57600080fd5b602083019150836020820283011115613e6357600080fd5b9250929050565b805161095a8161502a565b803561095a81615033565b805161095a81615033565b600082601f830112613e9c57600080fd5b8135613eaf613eaa82614f76565b614f50565b91508082526020830160208301858383011115613ecb57600080fd5b613ed6838284614fd1565b50505092915050565b60006101208284031215613ef257600080fd5b613efd610120614f50565b90506000613f0b8484613e0c565b8252506020613f1c84848301613e75565b6020830152506040613f3084828501613e75565b6040830152506060613f4484828501613e75565b6060830152506080613f5884828501613e0c565b60808301525060a0613f6c84828501613e0c565b60a08301525060c0613f8084828501613e0c565b60c08301525060e0613f9484828501613e75565b60e0830152506101008201356001600160401b03811115613fb457600080fd5b613fc084828501613e8b565b6101008301525092915050565b60006102008284031215613fe057600080fd5b613feb610200614f50565b90506000613ff98484613e0c565b825250602061400a84848301613e75565b602083015250604061401e84828501613e0c565b604083015250606061403284828501613e75565b606083015250608061404684828501613e0c565b60808301525060a061405a84828501613e75565b60a08301525060c061406e84828501613e0c565b60c08301525060e061408284828501613e75565b60e08301525061010061409784828501613e75565b610100830152506101206140ad84828501613e75565b610120830152506101406140c384828501613e75565b610140830152506101606140d984828501613e0c565b610160830152506101806140ef84828501613e0c565b610180830152506101a08201356001600160401b0381111561411057600080fd5b61411c84828501613e8b565b6101a0830152506101c061413284828501613e75565b6101c0830152506101e08201356001600160401b0381111561415357600080fd5b61415f84828501613e8b565b6101e08301525092915050565b6000610160828403121561417f57600080fd5b61418a610160614f50565b905060006141988484613e0c565b82525060206141a984848301613e75565b60208301525060406141bd84828501613e75565b60408301525060606141d184828501613e75565b60608301525060806141e584828501613e75565b60808301525060a06141f984828501613e75565b60a08301525060c061420d84828501613e0c565b60c08301525060e061422184828501613e0c565b60e08301525061010061423684828501613e0c565b6101008301525061012061424c84828501613e75565b610120830152506101408201356001600160401b0381111561426d57600080fd5b61427984828501613e8b565b6101408301525092915050565b60006020828403121561429857600080fd5b60006119af8484613e0c565b6000602082840312156142b657600080fd5b60006119af8484613e17565b600080604083850312156142d557600080fd5b60006142e18585613e0c565b92505060206142f285828601613e0c565b9150509250929050565b60008060006060848603121561431157600080fd5b600061431d8686613e0c565b935050602061432e86828701613e0c565b925050604061433f86828701613e75565b9150509250925092565b60008060006060848603121561435e57600080fd5b600061436a8686613e0c565b935050602061437b86828701613e75565b92505060408401356001600160401b0381111561439757600080fd5b61433f86828701613e8b565b600080604083850312156143b657600080fd5b60006143c28585613e0c565b92505060206142f285828601613e75565b600080600080604085870312156143e957600080fd5b84356001600160401b038111156143ff57600080fd5b61440b87828801613e22565b945094505060208501356001600160401b0381111561442957600080fd5b61443587828801613e22565b95989497509550505050565b60006020828403121561445357600080fd5b60006119af8484613e6a565b60006020828403121561447157600080fd5b60006119af8484613e75565b60006020828403121561448f57600080fd5b60006119af8484613e80565b600080604083850312156144ae57600080fd5b60006142e18585613e75565b6000806000606084860312156144cf57600080fd5b600061431d8686613e75565b600080600080608085870312156144f157600080fd5b60006144fd8787613e75565b945050602061450e87828801613e0c565b935050604061451f87828801613e75565b925050606061453087828801613e75565b91505092959194509250565b6000806040838503121561454f57600080fd5b60006143c28585613e75565b60008060006060848603121561457057600080fd5b600061457c8686613e75565b935050602061432e86828701613e75565b60006020828403121561459f57600080fd5b81356001600160401b038111156145b557600080fd5b6119af84828501613edf565b600080600080608085870312156145d757600080fd5b84356001600160401b038111156145ed57600080fd5b6145f987828801613edf565b94505060208501356001600160401b0381111561461557600080fd5b61462187828801613edf565b93505060408501356001600160401b0381111561463d57600080fd5b6146498782880161416c565b92505060608501356001600160401b0381111561466557600080fd5b61453087828801613fcd565b60006020828403121561468357600080fd5b81356001600160401b0381111561469957600080fd5b6119af84828501613fcd565b6000602082840312156146b757600080fd5b81356001600160401b038111156146cd57600080fd5b6119af8482850161416c565b60006146e5838361475e565b505060200190565b6146f681614fb0565b82525050565b600061470782614fa3565b6147118185614fa7565b935061471c83614f9d565b8060005b8381101561474a57815161473488826146d9565b975061473f83614f9d565b925050600101614720565b509495945050505050565b6146f681614fbb565b6146f681610946565b6146f661477382610946565b610946565b600061478382614fa3565b61478d8185614fa7565b935061479d818560208601614fdd565b6147a681615009565b9093019392505050565b6146f681614fc6565b805160408301906147ca848261475e565b5060208201516129a6602085018261475e565b80516000906101208401906147f285826146ed565b506020830151614805602086018261475e565b506040830151614818604086018261475e565b50606083015161482b606086018261475e565b50608083015161483e60808601826146ed565b5060a083015161485160a08601826146ed565b5060c083015161486460c08601826146ed565b5060e083015161487760e086018261475e565b506101008301518482036101008601526148918282614778565b95945050505050565b80516000906102a08401906148af8582614b29565b5060208301516148c26060860182614b29565b5060408301516148d560c0860182614b29565b5060608301516148e961012086018261475e565b5060808301516148fd61014086018261475e565b5060a083015161491161016086018261475e565b5060c08301516149256101808601826146ed565b5060e08301516149396101a08601826146ed565b5061010083015161494e6101c08601826146ed565b506101208301518482036101e08601526149688282614778565b91505061014083015161497f61020086018261475e565b5061016083015161499461022086018261475e565b506101808301516149a961024086018261475e565b506101a08301516149be61026086018261475e565b506101c08301516149d361028086018261475e565b509392505050565b80516000906102008401906149f085826146ed565b506020830151614a03602086018261475e565b506040830151614a1660408601826146ed565b506060830151614a29606086018261475e565b506080830151614a3c60808601826146ed565b5060a0830151614a4f60a086018261475e565b5060c0830151614a6260c08601826146ed565b5060e0830151614a7560e086018261475e565b50610100830151614a8a61010086018261475e565b50610120830151614a9f61012086018261475e565b50610140830151614ab461014086018261475e565b50610160830151614ac96101608601826146ed565b50610180830151614ade6101808601826146ed565b506101a08301518482036101a0860152614af88282614778565b9150506101c0830151614b0f6101c086018261475e565b506101e08301518482036101e08601526148918282614778565b80516060830190614b3a84826146ed565b506020820151614b4d60208501826146ed565b5060408201516129a6604085018261475e565b8051600090610160840190614b7585826146ed565b506020830151614b88602086018261475e565b506040830151614b9b604086018261475e565b506060830151614bae606086018261475e565b506080830151614bc1608086018261475e565b5060a0830151614bd460a086018261475e565b5060c0830151614be760c08601826146ed565b5060e0830151614bfa60e08601826146ed565b50610100830151614c0f6101008601826146ed565b50610120830151614c2461012086018261475e565b506101408301518482036101408601526148918282614778565b6146f681614fc0565b6000614c538285614767565b602082019150614c638284614767565b5060200192915050565b6020810161095a82846146ed565b60608101614c8982866146ed565b614c9660208301856146ed565b6119af60408301846146ed565b60608101614cb182866146ed565b614cbe60208301856146ed565b6119af604083018461475e565b6101208101614cda828c6146ed565b614ce7602083018b6146ed565b614cf4604083018a61475e565b614d0160608301896146ed565b614d0e60808301886146ed565b614d1b60a083018761475e565b614d2860c08301866146ed565b614d3560e08301856146ed565b614d4361010083018461475e565b9a9950505050505050505050565b60408101614d5f82856146ed565b6108a5602083018461475e565b60608101614d7a82866146ed565b614cbe602083018561475e565b602080825281016108a581846146fc565b6020810161095a8284614755565b6020810161095a828461475e565b60408101614d5f828561475e565b60c08101614dd0828961475e565b614ddd602083018861475e565b614dea604083018761475e565b614df7606083018661475e565b614e04608083018561475e565b614e1160a083018461475e565b979650505050505050565b60408101614e2a828561475e565b81810360208301526108a28184614778565b60808101614e4a828761475e565b614e576020830186614c3e565b614e64604083018561475e565b614891606083018461475e565b6020810161095a82846147b0565b602080825281016108a58184614778565b6040810161095a82846147b9565b602080825281016108a581846147dd565b602080825281016108a5818461489a565b602080825281016108a581846149db565b602080825281016108a58184614b60565b60c08101614ef0828961475e565b614efd602083018861475e565b614f0a60408301876146ed565b614f1760608301866146ed565b614f2460808301856146ed565b81810360a0830152614f368184614778565b98975050505050505050565b6020810161095a8284614c3e565b6040518181016001600160401b0381118282101715614f6e57600080fd5b604052919050565b60006001600160401b03821115614f8c57600080fd5b506020601f91909101601f19160190565b60200190565b5190565b90815260200190565b600061095a82613c12565b151590565b60ff1690565b600061095a82614fb0565b82818337506000910152565b60005b83811015614ff8578181015183820152602001614fe0565b838111156129a65750506000910152565b601f01601f191690565b61501c81614fb0565b811461502757600080fd5b50565b61501c81614fbb565b61501c8161094656fea365627a7a723058203e1463b6e71d121b5ceb5e8fcb8d0fe7767c834014884ba7329b9407e928da636c6578706572696d656e74616cf564736f6c63430005090040",
  "source": "pragma solidity ^0.5.8;\npragma experimental ABIEncoderV2;\n\nimport \"iexec-solidity/contracts/Libs/SafeMath.sol\";\n\nimport \"./libs/IexecODBLibCore.sol\";\nimport \"./libs/IexecODBLibOrders.sol\";\nimport \"./registries/App.sol\";\nimport \"./registries/Dataset.sol\";\nimport \"./registries/Workerpool.sol\";\nimport \"./EscrowERC20.sol\";\nimport \"./Relay.sol\";\nimport \"./SignatureVerifier.sol\";\nimport \"./IexecHubAccessor.sol\";\n\n/**\n * /!\\ TEMPORARY LEGACY /!\\\n */\nimport \"./IexecClerkABILegacy.sol\";\n\ncontract IexecClerk is EscrowERC20, Relay, IexecHubAccessor, SignatureVerifier, IexecClerkABILegacy\n{\n\tusing SafeMath          for uint256;\n\tusing IexecODBLibOrders for bytes32;\n\tusing IexecODBLibOrders for IexecODBLibOrders.EIP712Domain;\n\tusing IexecODBLibOrders for IexecODBLibOrders.AppOrder;\n\tusing IexecODBLibOrders for IexecODBLibOrders.DatasetOrder;\n\tusing IexecODBLibOrders for IexecODBLibOrders.WorkerpoolOrder;\n\tusing IexecODBLibOrders for IexecODBLibOrders.RequestOrder;\n\n\t/***************************************************************************\n\t *                                Constants                                *\n\t ***************************************************************************/\n\tuint256 public constant WORKERPOOL_STAKE_RATIO = 30;\n\tuint256 public constant KITTY_RATIO            = 10;\n\tuint256 public constant KITTY_MIN              = 1000000000; // TODO: 1RLC ?\n\taddress public constant KITTY_ADDRESS          = 0x0000000000000000000000000000000000000001;\n\n\t// For authorizations\n\tuint256 public constant GROUPMEMBER_PURPOSE    = 4;\n\n\t/***************************************************************************\n\t *                            EIP712 signature                             *\n\t ***************************************************************************/\n\tbytes32 public /* immutable */ EIP712DOMAIN_SEPARATOR;\n\n\t/***************************************************************************\n\t *                               Clerk data                                *\n\t ***************************************************************************/\n\tmapping(bytes32 => bytes32[]           ) m_requestdeals;\n\tmapping(bytes32 => IexecODBLibCore.Deal) m_deals;\n\tmapping(bytes32 => uint256             ) m_consumed;\n\tmapping(bytes32 => bool                ) m_presigned;\n\n\t/***************************************************************************\n\t *                                 Events                                  *\n\t ***************************************************************************/\n\tevent OrdersMatched        (bytes32 dealid, bytes32 appHash, bytes32 datasetHash, bytes32 workerpoolHash, bytes32 requestHash, uint256 volume);\n\tevent ClosedAppOrder       (bytes32 appHash);\n\tevent ClosedDatasetOrder   (bytes32 datasetHash);\n\tevent ClosedWorkerpoolOrder(bytes32 workerpoolHash);\n\tevent ClosedRequestOrder   (bytes32 requestHash);\n\tevent SchedulerNotice      (address indexed workerpool, bytes32 dealid);\n\n\t/***************************************************************************\n\t *                               Constructor                               *\n\t ***************************************************************************/\n\tconstructor(\n\t\taddress _token,\n\t\taddress _iexechub,\n\t\tuint256 _chainid)\n\tpublic\n\tEscrowERC20(_token)\n\tIexecHubAccessor(_iexechub)\n\t{\n\t\tEIP712DOMAIN_SEPARATOR = IexecODBLibOrders.EIP712Domain({\n\t\t\tname:              \"iExecODB\"\n\t\t, version:           \"3.0-alpha\"\n\t\t, chainId:           _chainid\n\t\t, verifyingContract: address(this)\n\t\t}).hash();\n\t}\n\n\t/***************************************************************************\n\t *                                Accessor                                 *\n\t ***************************************************************************/\n\tfunction viewRequestDeals(bytes32 _id)\n\texternal view returns (bytes32[] memory requestdeals)\n\t{\n\t\treturn m_requestdeals[_id];\n\t}\n\n\tfunction viewDeal(bytes32 _id)\n\texternal view returns (IexecODBLibCore.Deal memory deal)\n\t{\n\t\treturn m_deals[_id];\n\t}\n\n\tfunction viewConsumed(bytes32 _id)\n\texternal view returns (uint256 consumed)\n\t{\n\t\treturn m_consumed[_id];\n\t}\n\n\tfunction viewPresigned(bytes32 _id)\n\texternal view returns (bool presigned)\n\t{\n\t\treturn m_presigned[_id];\n\t}\n\n\t/***************************************************************************\n\t *                            pre-signing tools                            *\n\t ***************************************************************************/\n\t// should be external\n\tfunction signAppOrder(IexecODBLibOrders.AppOrder memory _apporder)\n\tpublic returns (bool)\n\t{\n\t\trequire(msg.sender == App(_apporder.app).owner());\n\t\tm_presigned[_apporder.hash().toEthTypedStructHash(EIP712DOMAIN_SEPARATOR)] = true;\n\t\treturn true;\n\t}\n\n\t// should be external\n\tfunction signDatasetOrder(IexecODBLibOrders.DatasetOrder memory _datasetorder)\n\tpublic returns (bool)\n\t{\n\t\trequire(msg.sender == Dataset(_datasetorder.dataset).owner());\n\t\tm_presigned[_datasetorder.hash().toEthTypedStructHash(EIP712DOMAIN_SEPARATOR)] = true;\n\t\treturn true;\n\t}\n\n\t// should be external\n\tfunction signWorkerpoolOrder(IexecODBLibOrders.WorkerpoolOrder memory _workerpoolorder)\n\tpublic returns (bool)\n\t{\n\t\trequire(msg.sender == Workerpool(_workerpoolorder.workerpool).owner());\n\t\tm_presigned[_workerpoolorder.hash().toEthTypedStructHash(EIP712DOMAIN_SEPARATOR)] = true;\n\t\treturn true;\n\t}\n\n\t// should be external\n\tfunction signRequestOrder(IexecODBLibOrders.RequestOrder memory _requestorder)\n\tpublic returns (bool)\n\t{\n\t\trequire(msg.sender == _requestorder.requester);\n\t\tm_presigned[_requestorder.hash().toEthTypedStructHash(EIP712DOMAIN_SEPARATOR)] = true;\n\t\treturn true;\n\t}\n\n\t/***************************************************************************\n\t *                              Clerk methods                              *\n\t ***************************************************************************/\n\tstruct Identities\n\t{\n\t\tbytes32 appHash;\n\t\taddress appOwner;\n\t\tbytes32 datasetHash;\n\t\taddress datasetOwner;\n\t\tbytes32 workerpoolHash;\n\t\taddress workerpoolOwner;\n\t\tbytes32 requestHash;\n\t\tbool    hasDataset;\n\t}\n\n\t// should be external\n\tfunction matchOrders(\n\t\tIexecODBLibOrders.AppOrder        memory _apporder,\n\t\tIexecODBLibOrders.DatasetOrder    memory _datasetorder,\n\t\tIexecODBLibOrders.WorkerpoolOrder memory _workerpoolorder,\n\t\tIexecODBLibOrders.RequestOrder    memory _requestorder)\n\tpublic returns (bytes32)\n\t{\n\t\t/**\n\t\t * Check orders compatibility\n\t\t */\n\n\t\t// computation environment & allowed enough funds\n\t\trequire(_requestorder.category           == _workerpoolorder.category       );\n\t\trequire(_requestorder.trust              <= _workerpoolorder.trust          );\n\t\trequire(_requestorder.appmaxprice        >= _apporder.appprice              );\n\t\trequire(_requestorder.datasetmaxprice    >= _datasetorder.datasetprice      );\n\t\trequire(_requestorder.workerpoolmaxprice >= _workerpoolorder.workerpoolprice);\n\t\trequire((_apporder.tag | _datasetorder.tag | _requestorder.tag) & ~_workerpoolorder.tag == 0x0);\n\n\t\t// Check matching and restrictions\n\t\trequire(_requestorder.app     == _apporder.app        );\n\t\trequire(_requestorder.dataset == _datasetorder.dataset);\n\t\trequire(_requestorder.workerpool           == address(0) || checkIdentity(_requestorder.workerpool,           _workerpoolorder.workerpool, GROUPMEMBER_PURPOSE)); // requestorder.workerpool is a restriction\n\t\trequire(_apporder.datasetrestrict          == address(0) || checkIdentity(_apporder.datasetrestrict,          _datasetorder.dataset,       GROUPMEMBER_PURPOSE));\n\t\trequire(_apporder.workerpoolrestrict       == address(0) || checkIdentity(_apporder.workerpoolrestrict,       _workerpoolorder.workerpool, GROUPMEMBER_PURPOSE));\n\t\trequire(_apporder.requesterrestrict        == address(0) || checkIdentity(_apporder.requesterrestrict,        _requestorder.requester,     GROUPMEMBER_PURPOSE));\n\t\trequire(_datasetorder.apprestrict          == address(0) || checkIdentity(_datasetorder.apprestrict,          _apporder.app,               GROUPMEMBER_PURPOSE));\n\t\trequire(_datasetorder.workerpoolrestrict   == address(0) || checkIdentity(_datasetorder.workerpoolrestrict,   _workerpoolorder.workerpool, GROUPMEMBER_PURPOSE));\n\t\trequire(_datasetorder.requesterrestrict    == address(0) || checkIdentity(_datasetorder.requesterrestrict,    _requestorder.requester,     GROUPMEMBER_PURPOSE));\n\t\trequire(_workerpoolorder.apprestrict       == address(0) || checkIdentity(_workerpoolorder.apprestrict,       _apporder.app,               GROUPMEMBER_PURPOSE));\n\t\trequire(_workerpoolorder.datasetrestrict   == address(0) || checkIdentity(_workerpoolorder.datasetrestrict,   _datasetorder.dataset,       GROUPMEMBER_PURPOSE));\n\t\trequire(_workerpoolorder.requesterrestrict == address(0) || checkIdentity(_workerpoolorder.requesterrestrict, _requestorder.requester,     GROUPMEMBER_PURPOSE));\n\n\t\trequire(iexechub.checkResources(_apporder.app, _datasetorder.dataset, _workerpoolorder.workerpool));\n\n\t\t/**\n\t\t * Check orders authenticity\n\t\t */\n\t\tIdentities memory ids;\n\t\tids.hasDataset = _datasetorder.dataset != address(0);\n\n\t\t// app\n\t\tids.appHash  = _apporder.hash().toEthTypedStructHash(EIP712DOMAIN_SEPARATOR);\n\t\tids.appOwner = App(_apporder.app).owner();\n\t\trequire(m_presigned[ids.appHash] || verifySignature(ids.appOwner, ids.appHash, _apporder.sign));\n\n\t\t// dataset\n\t\tif (ids.hasDataset) // only check if dataset is enabled\n\t\t{\n\t\t\tids.datasetHash  = _datasetorder.hash().toEthTypedStructHash(EIP712DOMAIN_SEPARATOR);\n\t\t\tids.datasetOwner = Dataset(_datasetorder.dataset).owner();\n\t\t\trequire(m_presigned[ids.datasetHash] || verifySignature(ids.datasetOwner, ids.datasetHash, _datasetorder.sign));\n\t\t}\n\n\t\t// workerpool\n\t\tids.workerpoolHash  = _workerpoolorder.hash().toEthTypedStructHash(EIP712DOMAIN_SEPARATOR);\n\t\tids.workerpoolOwner = Workerpool(_workerpoolorder.workerpool).owner();\n\t\trequire(m_presigned[ids.workerpoolHash] || verifySignature(ids.workerpoolOwner, ids.workerpoolHash, _workerpoolorder.sign));\n\n\t\t// request\n\t\tids.requestHash = _requestorder.hash().toEthTypedStructHash(EIP712DOMAIN_SEPARATOR);\n\t\trequire(m_presigned[ids.requestHash] || verifySignature(_requestorder.requester, ids.requestHash, _requestorder.sign));\n\n\t\t/**\n\t\t * Check availability\n\t\t */\n\t\tuint256 volume;\n\t\tvolume =                             _apporder.volume.sub       (m_consumed[ids.appHash       ]);\n\t\tvolume = ids.hasDataset ? volume.min(_datasetorder.volume.sub   (m_consumed[ids.datasetHash   ])) : volume;\n\t\tvolume =                  volume.min(_workerpoolorder.volume.sub(m_consumed[ids.workerpoolHash]));\n\t\tvolume =                  volume.min(_requestorder.volume.sub   (m_consumed[ids.requestHash   ]));\n\t\trequire(volume > 0);\n\n\t\t/**\n\t\t * Record\n\t\t */\n\t\tbytes32 dealid = keccak256(abi.encodePacked(\n\t\t\tids.requestHash,            // requestHash\n\t\t\tm_consumed[ids.requestHash] // idx of first subtask\n\t\t));\n\n\t\tIexecODBLibCore.Deal storage deal = m_deals[dealid];\n\t\tdeal.app.pointer          = _apporder.app;\n\t\tdeal.app.owner            = ids.appOwner;\n\t\tdeal.app.price            = _apporder.appprice;\n\t\tdeal.dataset.owner        = ids.datasetOwner;\n\t\tdeal.dataset.pointer      = _datasetorder.dataset;\n\t\tdeal.dataset.price        = ids.hasDataset ? _datasetorder.datasetprice : 0;\n\t\tdeal.workerpool.pointer   = _workerpoolorder.workerpool;\n\t\tdeal.workerpool.owner     = ids.workerpoolOwner;\n\t\tdeal.workerpool.price     = _workerpoolorder.workerpoolprice;\n\t\tdeal.trust                = _requestorder.trust.max(1);\n\t\tdeal.category             = _requestorder.category;\n\t\tdeal.tag                  = _apporder.tag | _datasetorder.tag | _requestorder.tag;\n\t\tdeal.requester            = _requestorder.requester;\n\t\tdeal.beneficiary          = _requestorder.beneficiary;\n\t\tdeal.callback             = _requestorder.callback;\n\t\tdeal.params               = _requestorder.params;\n\t\tdeal.startTime            = now;\n\t\tdeal.botFirst             = m_consumed[ids.requestHash];\n\t\tdeal.botSize              = volume;\n\t\tdeal.workerStake          = _workerpoolorder.workerpoolprice.percentage(Workerpool(_workerpoolorder.workerpool).m_workerStakeRatioPolicy());\n\t\tdeal.schedulerRewardRatio = Workerpool(_workerpoolorder.workerpool).m_schedulerRewardRatioPolicy();\n\n\t\tm_requestdeals[ids.requestHash].push(dealid);\n\n\t\t/**\n\t\t * Update consumed\n\t\t */\n\t\tm_consumed[ids.appHash       ] = m_consumed[ids.appHash       ].add(                 volume    );\n\t\tm_consumed[ids.datasetHash   ] = m_consumed[ids.datasetHash   ].add(ids.hasDataset ? volume : 0);\n\t\tm_consumed[ids.workerpoolHash] = m_consumed[ids.workerpoolHash].add(                 volume    );\n\t\tm_consumed[ids.requestHash   ] = m_consumed[ids.requestHash   ].add(                 volume    );\n\n\t\t/**\n\t\t * Lock\n\t\t */\n\t\tlock(\n\t\t\tdeal.requester,\n\t\t\tdeal.app.price\n\t\t\t.add(deal.dataset.price)\n\t\t\t.add(deal.workerpool.price)\n\t\t\t.mul(volume)\n\t\t);\n\t\tlock(\n\t\t\tdeal.workerpool.owner,\n\t\t\tdeal.workerpool.price\n\t\t\t.percentage(WORKERPOOL_STAKE_RATIO) // ORDER IS IMPORTANT HERE!\n\t\t\t.mul(volume)                        // ORDER IS IMPORTANT HERE!\n\t\t);\n\n\t\t/**\n\t\t * Advertize deal\n\t\t */\n\t\temit SchedulerNotice(deal.workerpool.pointer, dealid);\n\n\t\t/**\n\t\t * Advertize consumption\n\t\t */\n\t\temit OrdersMatched(\n\t\t\tdealid,\n\t\t\tids.appHash,\n\t\t\tids.datasetHash,\n\t\t\tids.workerpoolHash,\n\t\t\tids.requestHash,\n\t\t\tvolume\n\t\t);\n\n\t\treturn dealid;\n\t}\n\n\t// should be external\n\tfunction cancelAppOrder(IexecODBLibOrders.AppOrder memory _apporder)\n\tpublic returns (bool)\n\t{\n\t\tbytes32 dapporderHash = _apporder.hash().toEthTypedStructHash(EIP712DOMAIN_SEPARATOR);\n\t\trequire(msg.sender == App(_apporder.app).owner());\n\t\tm_consumed[dapporderHash] = _apporder.volume;\n\t\temit ClosedAppOrder(dapporderHash);\n\t\treturn true;\n\t}\n\n\t// should be external\n\tfunction cancelDatasetOrder(IexecODBLibOrders.DatasetOrder memory _datasetorder)\n\tpublic returns (bool)\n\t{\n\t\tbytes32 dataorderHash = _datasetorder.hash().toEthTypedStructHash(EIP712DOMAIN_SEPARATOR);\n\t\trequire(msg.sender == Dataset(_datasetorder.dataset).owner());\n\t\tm_consumed[dataorderHash] = _datasetorder.volume;\n\t\temit ClosedDatasetOrder(dataorderHash);\n\t\treturn true;\n\t}\n\n\t// should be external\n\tfunction cancelWorkerpoolOrder(IexecODBLibOrders.WorkerpoolOrder memory _workerpoolorder)\n\tpublic returns (bool)\n\t{\n\t\tbytes32 poolorderHash = _workerpoolorder.hash().toEthTypedStructHash(EIP712DOMAIN_SEPARATOR);\n\t\trequire(msg.sender == Workerpool(_workerpoolorder.workerpool).owner());\n\t\tm_consumed[poolorderHash] = _workerpoolorder.volume;\n\t\temit ClosedWorkerpoolOrder(poolorderHash);\n\t\treturn true;\n\t}\n\n\t// should be external\n\tfunction cancelRequestOrder(IexecODBLibOrders.RequestOrder memory _requestorder)\n\tpublic returns (bool)\n\t{\n\t\tbytes32 requestorderHash = _requestorder.hash().toEthTypedStructHash(EIP712DOMAIN_SEPARATOR);\n\t\trequire(msg.sender == _requestorder.requester);\n\t\tm_consumed[requestorderHash] = _requestorder.volume;\n\t\temit ClosedRequestOrder(requestorderHash);\n\t\treturn true;\n\t}\n\n\t/***************************************************************************\n\t *                    Escrow overhead for contribution                     *\n\t ***************************************************************************/\n\tfunction lockContribution(bytes32 _dealid, address _worker)\n\texternal onlyIexecHub\n\t{\n\t\tlock(_worker, m_deals[_dealid].workerStake);\n\t}\n\n\tfunction unlockContribution(bytes32 _dealid, address _worker)\n\texternal onlyIexecHub\n\t{\n\t\tunlock(_worker, m_deals[_dealid].workerStake);\n\t}\n\n\tfunction unlockAndRewardForContribution(bytes32 _dealid, address _worker, uint256 _amount, bytes32 _taskid)\n\texternal onlyIexecHub\n\t{\n\t\tunlock(_worker, m_deals[_dealid].workerStake);\n\t\treward(_worker, _amount, _taskid);\n\t}\n\n\tfunction seizeContribution(bytes32 _dealid, address _worker, bytes32 _taskid)\n\texternal onlyIexecHub\n\t{\n\t\tseize(_worker, m_deals[_dealid].workerStake, _taskid);\n\t}\n\n\tfunction rewardForScheduling(bytes32 _dealid, uint256 _amount, bytes32 _taskid)\n\texternal onlyIexecHub\n\t{\n\t\treward(m_deals[_dealid].workerpool.owner, _amount, _taskid);\n\t}\n\n\tfunction successWork(bytes32 _dealid, bytes32 _taskid)\n\texternal onlyIexecHub\n\t{\n\t\tIexecODBLibCore.Deal storage deal = m_deals[_dealid];\n\n\t\tuint256 requesterstake = deal.app.price\n\t\t                         .add(deal.dataset.price)\n\t\t                         .add(deal.workerpool.price);\n\t\tuint256 poolstake = deal.workerpool.price\n\t\t                    .percentage(WORKERPOOL_STAKE_RATIO);\n\n\t\t// seize requester funds\n\t\tseize(deal.requester, requesterstake, _taskid);\n\t\t// dapp reward\n\t\tif (deal.app.price > 0)\n\t\t{\n\t\t\treward(deal.app.owner, deal.app.price, _taskid);\n\t\t}\n\t\t// data reward\n\t\tif (deal.dataset.price > 0 && deal.dataset.pointer != address(0))\n\t\t{\n\t\t\treward(deal.dataset.owner, deal.dataset.price, _taskid);\n\t\t}\n\t\t// unlock pool stake\n\t\tunlock(deal.workerpool.owner, poolstake);\n\t\t// pool reward performed by consensus manager\n\n\t\t/**\n\t\t * Retrieve part of the kitty\n\t\t * TODO: remove / keep ?\n\t\t */\n\t\tuint256 kitty = balanceOf(address(0));\n\t\tif (kitty > 0)\n\t\t{\n\t\t\tkitty = kitty\n\t\t\t        .percentage(KITTY_RATIO) // fraction\n\t\t\t        .max(KITTY_MIN)          // at least this\n\t\t\t        .min(kitty);             // but not more than available\n\t\t\tseize (address(0),            kitty, _taskid);\n\t\t\treward(deal.workerpool.owner, kitty, _taskid);\n\t\t}\n\t}\n\n\tfunction failedWork(bytes32 _dealid, bytes32 _taskid)\n\texternal onlyIexecHub\n\t{\n\t\tIexecODBLibCore.Deal storage deal = m_deals[_dealid];\n\n\t\tuint256 requesterstake = deal.app.price\n\t\t                         .add(deal.dataset.price)\n\t\t                         .add(deal.workerpool.price);\n\t\tuint256 poolstake = deal.workerpool.price\n\t\t                    .percentage(WORKERPOOL_STAKE_RATIO);\n\n\t\tunlock(deal.requester,        requesterstake    );\n\t\tseize (deal.workerpool.owner, poolstake, _taskid);\n\t\treward(address(0),            poolstake, _taskid); //  Kitty / Burn\n\t\tlock  (address(0),            poolstake         ); //  Kitty / Burn\n\t}\n\n\n\n\n\n\n\n\n\n\n\n\n\n\n\n\n\n\n\t/**\n\t * /!\\ TEMPORARY LEGACY /!\\\n\t */\n\n\tfunction viewDealABILegacy_pt1(bytes32 _id)\n\texternal view returns\n\t( address\n\t, address\n\t, uint256\n\t, address\n\t, address\n\t, uint256\n\t, address\n\t, address\n\t, uint256\n\t)\n\t{\n\t\tIexecODBLibCore.Deal memory deal = m_deals[_id];\n\t\treturn (\n\t\t\tdeal.app.pointer,\n\t\t\tdeal.app.owner,\n\t\t\tdeal.app.price,\n\t\t\tdeal.dataset.pointer,\n\t\t\tdeal.dataset.owner,\n\t\t\tdeal.dataset.price,\n\t\t\tdeal.workerpool.pointer,\n\t\t\tdeal.workerpool.owner,\n\t\t\tdeal.workerpool.price\n\t\t);\n\t}\n\n\tfunction viewDealABILegacy_pt2(bytes32 _id)\n\texternal view returns\n\t( uint256\n\t, bytes32\n\t, address\n\t, address\n\t, address\n\t, string memory\n\t)\n\t{\n\t\tIexecODBLibCore.Deal memory deal = m_deals[_id];\n\t\treturn (\n\t\t\tdeal.trust,\n\t\t\tdeal.tag,\n\t\t\tdeal.requester,\n\t\t\tdeal.beneficiary,\n\t\t\tdeal.callback,\n\t\t\tdeal.params\n\t\t);\n\t}\n\n\tfunction viewConfigABILegacy(bytes32 _id)\n\texternal view returns\n\t( uint256\n\t, uint256\n\t, uint256\n\t, uint256\n\t, uint256\n\t, uint256\n\t)\n\t{\n\t\tIexecODBLibCore.Deal memory deal = m_deals[_id];\n\t\treturn (\n\t\t\tdeal.category,\n\t\t\tdeal.startTime,\n\t\t\tdeal.botFirst,\n\t\t\tdeal.botSize,\n\t\t\tdeal.workerStake,\n\t\t\tdeal.schedulerRewardRatio\n\t\t);\n\t}\n\n\tfunction viewAccountABILegacy(address owner)\n\texternal view returns (uint256, uint256)\n\t{\n\t\treturn ( balanceOf(owner), frozenOf(owner) );\n\t}\n}\n",
  "sourcePath": "/home/amxx/Work/iExec/code/PoCo-dev/contracts/IexecClerk.sol",
  "compiler": {
    "name": "solc",
    "version": "0.5.9+commit.e560f70d.Emscripten.clang"
  },
  "schemaVersion": "3.0.9",
  "updatedAt": "2019-06-13T09:54:41.688Z",
  "devdoc": {
    "methods": {
      "allowance(address,address)": {
        "details": "Function to check the amount of tokens that an owner allowed to a spender.",
        "params": {
          "owner": "address The address which owns the funds.",
          "spender": "address The address which will spend the funds."
        },
        "return": "A uint256 specifying the amount of tokens still available for the spender."
      },
      "approve(address,uint256)": {
        "details": "Approve the passed address to spend the specified amount of tokens on behalf of msg.sender. Beware that changing an allowance with this method brings the risk that someone may use both the old and the new allowance by unfortunate transaction ordering. One possible solution to mitigate this race condition is to first reduce the spender's allowance to 0 and set the desired value afterwards: https://github.com/ethereum/EIPs/issues/20#issuecomment-263524729",
        "params": {
          "spender": "The address which will spend the funds.",
          "value": "The amount of tokens to be spent."
        }
      },
      "balanceOf(address)": {
        "details": "Gets the balance of the specified address.",
        "params": {
          "owner": "The address to query the balance of."
        },
        "return": "A uint256 representing the amount owned by the passed address."
      },
      "decimals()": {
        "return": "the number of decimals of the token."
      },
      "decreaseAllowance(address,uint256)": {
        "details": "Decrease the amount of tokens that an owner allowed to a spender. approve should be called when _allowed[msg.sender][spender] == 0. To decrement allowed value is better to use this function to avoid 2 calls (and wait until the first transaction is mined) From MonolithDAO Token.sol Emits an Approval event.",
        "params": {
          "spender": "The address which will spend the funds.",
          "subtractedValue": "The amount of tokens to decrease the allowance by."
        }
      },
      "increaseAllowance(address,uint256)": {
        "details": "Increase the amount of tokens that an owner allowed to a spender. approve should be called when _allowed[msg.sender][spender] == 0. To increment allowed value is better to use this function to avoid 2 calls (and wait until the first transaction is mined) From MonolithDAO Token.sol Emits an Approval event.",
        "params": {
          "addedValue": "The amount of tokens to increase the allowance by.",
          "spender": "The address which will spend the funds."
        }
      },
      "name()": {
        "return": "the name of the token."
      },
      "symbol()": {
        "return": "the symbol of the token."
      },
      "totalSupply()": {
        "details": "Total number of tokens in existence"
      },
      "transfer(address,uint256)": {
        "details": "Transfer token to a specified address",
        "params": {
          "to": "The address to transfer to.",
          "value": "The amount to be transferred."
        }
      },
      "transferFrom(address,address,uint256)": {
        "details": "Transfer tokens from one address to another. Note that while this function emits an Approval event, this is not required as per the specification, and other compliant implementations may not emit the event.",
        "params": {
          "from": "address The address which you want to send tokens from",
          "to": "address The address which you want to transfer to",
          "value": "uint256 the amount of tokens to be transferred"
        }
      }
    }
  },
  "userdoc": {
    "methods": {
      "constructor": "*************************************************************************                              Constructor                               ***************************************************************************",
      "deposit(uint256)": {
        "notice": "Wallet methods: public"
      },
      "frozenOf(address)": {
        "notice": "Accessor"
      },
      "lockContribution(bytes32,address)": {
        "notice": "*************************************************************************                   Escrow overhead for contribution                     ***************************************************************************"
      },
      "signAppOrder((address,uint256,uint256,bytes32,address,address,address,bytes32,bytes))": {
        "notice": "*************************************************************************                           pre-signing tools                            ***************************************************************************"
      },
      "viewDealABILegacy_pt1(bytes32)": {
        "notice": "/!\\ TEMPORARY LEGACY /!\\"
      },
      "viewRequestDeals(bytes32)": {
        "notice": "*************************************************************************                               Accessor                                 ***************************************************************************"
      }
    }
  }
}