{
  "contractName": "IexecAccessorsABILegacyDelegate",
  "abi": [
    {
      "anonymous": false,
      "inputs": [
        {
          "indexed": true,
          "internalType": "address",
          "name": "previousOwner",
          "type": "address"
        },
        {
          "indexed": true,
          "internalType": "address",
          "name": "newOwner",
          "type": "address"
        }
      ],
      "name": "OwnershipTransferred",
      "type": "event"
    },
    {
      "inputs": [],
      "name": "isOwner",
      "outputs": [
        {
          "internalType": "bool",
          "name": "",
          "type": "bool"
        }
      ],
      "stateMutability": "view",
      "type": "function"
    },
    {
      "inputs": [],
      "name": "owner",
      "outputs": [
        {
          "internalType": "address",
          "name": "",
          "type": "address"
        }
      ],
      "stateMutability": "view",
      "type": "function"
    },
    {
      "inputs": [],
      "name": "renounceOwnership",
      "outputs": [],
      "stateMutability": "nonpayable",
      "type": "function"
    },
    {
      "inputs": [
        {
          "internalType": "address",
          "name": "newOwner",
          "type": "address"
        }
      ],
      "name": "transferOwnership",
      "outputs": [],
      "stateMutability": "nonpayable",
      "type": "function"
    },
    {
      "inputs": [
        {
          "internalType": "bytes32",
          "name": "_id",
          "type": "bytes32"
        }
      ],
      "name": "viewDealABILegacy_pt1",
      "outputs": [
        {
          "internalType": "address",
          "name": "",
          "type": "address"
        },
        {
          "internalType": "address",
          "name": "",
          "type": "address"
        },
        {
          "internalType": "uint256",
          "name": "",
          "type": "uint256"
        },
        {
          "internalType": "address",
          "name": "",
          "type": "address"
        },
        {
          "internalType": "address",
          "name": "",
          "type": "address"
        },
        {
          "internalType": "uint256",
          "name": "",
          "type": "uint256"
        },
        {
          "internalType": "address",
          "name": "",
          "type": "address"
        },
        {
          "internalType": "address",
          "name": "",
          "type": "address"
        },
        {
          "internalType": "uint256",
          "name": "",
          "type": "uint256"
        }
      ],
      "stateMutability": "view",
      "type": "function"
    },
    {
      "inputs": [
        {
          "internalType": "bytes32",
          "name": "_id",
          "type": "bytes32"
        }
      ],
      "name": "viewDealABILegacy_pt2",
      "outputs": [
        {
          "internalType": "uint256",
          "name": "",
          "type": "uint256"
        },
        {
          "internalType": "bytes32",
          "name": "",
          "type": "bytes32"
        },
        {
          "internalType": "address",
          "name": "",
          "type": "address"
        },
        {
          "internalType": "address",
          "name": "",
          "type": "address"
        },
        {
          "internalType": "address",
          "name": "",
          "type": "address"
        },
        {
          "internalType": "string",
          "name": "",
          "type": "string"
        }
      ],
      "stateMutability": "view",
      "type": "function"
    },
    {
      "inputs": [
        {
          "internalType": "bytes32",
          "name": "_id",
          "type": "bytes32"
        }
      ],
      "name": "viewConfigABILegacy",
      "outputs": [
        {
          "internalType": "uint256",
          "name": "",
          "type": "uint256"
        },
        {
          "internalType": "uint256",
          "name": "",
          "type": "uint256"
        },
        {
          "internalType": "uint256",
          "name": "",
          "type": "uint256"
        },
        {
          "internalType": "uint256",
          "name": "",
          "type": "uint256"
        },
        {
          "internalType": "uint256",
          "name": "",
          "type": "uint256"
        },
        {
          "internalType": "uint256",
          "name": "",
          "type": "uint256"
        }
      ],
      "stateMutability": "view",
      "type": "function"
    },
    {
      "inputs": [
        {
          "internalType": "address",
          "name": "account",
          "type": "address"
        }
      ],
      "name": "viewAccountABILegacy",
      "outputs": [
        {
          "internalType": "uint256",
          "name": "",
          "type": "uint256"
        },
        {
          "internalType": "uint256",
          "name": "",
          "type": "uint256"
        }
      ],
      "stateMutability": "view",
      "type": "function"
    },
    {
      "inputs": [
        {
          "internalType": "bytes32",
          "name": "_taskid",
          "type": "bytes32"
        }
      ],
      "name": "viewTaskABILegacy",
      "outputs": [
        {
          "internalType": "enum IexecLibCore_v5.TaskStatusEnum",
          "name": "",
          "type": "uint8"
        },
        {
          "internalType": "bytes32",
          "name": "",
          "type": "bytes32"
        },
        {
          "internalType": "uint256",
          "name": "",
          "type": "uint256"
        },
        {
          "internalType": "uint256",
          "name": "",
          "type": "uint256"
        },
        {
          "internalType": "uint256",
          "name": "",
          "type": "uint256"
        },
        {
          "internalType": "uint256",
          "name": "",
          "type": "uint256"
        },
        {
          "internalType": "uint256",
          "name": "",
          "type": "uint256"
        },
        {
          "internalType": "bytes32",
          "name": "",
          "type": "bytes32"
        },
        {
          "internalType": "uint256",
          "name": "",
          "type": "uint256"
        },
        {
          "internalType": "uint256",
          "name": "",
          "type": "uint256"
        },
        {
          "internalType": "address[]",
          "name": "",
          "type": "address[]"
        },
        {
          "internalType": "bytes",
          "name": "",
          "type": "bytes"
        }
      ],
      "stateMutability": "view",
      "type": "function"
    },
    {
      "inputs": [
        {
          "internalType": "bytes32",
          "name": "_taskid",
          "type": "bytes32"
        },
        {
          "internalType": "address",
          "name": "_worker",
          "type": "address"
        }
      ],
      "name": "viewContributionABILegacy",
      "outputs": [
        {
          "internalType": "enum IexecLibCore_v5.ContributionStatusEnum",
          "name": "",
          "type": "uint8"
        },
        {
          "internalType": "bytes32",
          "name": "",
          "type": "bytes32"
        },
        {
          "internalType": "bytes32",
          "name": "",
          "type": "bytes32"
        },
        {
          "internalType": "address",
          "name": "",
          "type": "address"
        }
      ],
      "stateMutability": "view",
      "type": "function"
    },
    {
      "inputs": [
        {
          "internalType": "uint256",
          "name": "_catid",
          "type": "uint256"
        }
      ],
      "name": "viewCategoryABILegacy",
      "outputs": [
        {
          "internalType": "string",
          "name": "",
          "type": "string"
        },
        {
          "internalType": "string",
          "name": "",
          "type": "string"
        },
        {
          "internalType": "uint256",
          "name": "",
          "type": "uint256"
        }
      ],
      "stateMutability": "view",
      "type": "function"
    }
  ],
  "bytecode": "0x60806040526000620000196001600160e01b036200006b16565b600080546001600160a01b0319166001600160a01b038316908117825560405192935091600080516020620014bb833981519152908290a350620000656001600160e01b036200006f16565b62000147565b3390565b620000826001600160e01b03620000e316565b620000aa5760405162461bcd60e51b8152600401620000a19062000112565b60405180910390fd5b600080546040516001600160a01b0390911690600080516020620014bb833981519152908390a3600080546001600160a01b0319169055565b600080546001600160a01b0316620001036001600160e01b036200006b16565b6001600160a01b031614905090565b6020808252818101527f4f776e61626c653a2063616c6c6572206973206e6f7420746865206f776e6572604082015260600190565b61136480620001576000396000f3fe608060405234801561001057600080fd5b50600436106100a95760003560e01c80638f32d59b116100715780638f32d59b14610145578063bd19a4f31461015a578063ce5f789514610182578063d5922f50146101a7578063f2fde38b146101cc578063f9353b8d146101df576100a9565b806311e35aba146100ae578063248ad6a0146100da5780635b3ae3e414610105578063715018a6146101265780638da5cb5b14610130575b600080fd5b6100c16100bc366004611017565b610201565b6040516100d1949392919061110c565b60405180910390f35b6100ed6100e8366004610fff565b6102d2565b6040516100d19c9b9a9998979695949392919061113f565b610118610113366004610fd1565b6104fb565b6040516100d19291906112f8565b61012e610523565b005b61013861059a565b6040516100d1919061109c565b61014d6105a9565b6040516100d19190611101565b61016d610168366004610fff565b6105cd565b6040516100d1999897969594939291906110b0565b610195610190366004610fff565b610806565b6040516100d1969594939291906112ab565b6101ba6101b5366004610fff565b610a03565b6040516100d196959493929190611306565b61012e6101da366004610fd1565b610bff565b6101f26101ed366004610fff565b610c2f565b6040516100d1939291906111fa565b60008060008061020f610e41565b60008781526016602090815260408083206001600160a01b038a16845290915290819020815160a081019092528054829060ff16600381111561024e57fe5b600381111561025957fe5b815260200160018201548152602001600282015481526020016003820160009054906101000a90046001600160a01b03166001600160a01b03166001600160a01b031681526020016004820154815250509050806000015181602001518260400151836060015194509450945094505092959194509250565b6000806000806000806000806000806060806102ec610e71565b60008e8152601460205260409081902081516101c081019092528054829060ff16600481111561031857fe5b600481111561032357fe5b8152602001600182015481526020016002820154815260200160038201548152602001600482015481526020016005820154815260200160068201548152602001600782015481526020016008820154815260200160098201548152602001600a82018054806020026020016040519081016040528092919081815260200182805480156103da57602002820191906000526020600020905b81546001600160a01b031681526001909101906020018083116103bc575b5050509183525050600b820154602080830191909152600c8301805460408051601f600260001961010060018716150201909416939093049283018590048502810185018252828152940193928301828280156104785780601f1061044d57610100808354040283529160200191610478565b820191906000526020600020905b81548152906001019060200180831161045b57829003601f168201915b50505050508152602001600d820154815250509050806000015181602001518260400151836060015184608001518560a001518660c001518760e001518861010001518961012001518a61014001518b61018001518191508090509c509c509c509c509c509c509c509c509c509c509c509c505091939597999b5091939597999b565b6001600160a01b03166000908152600d6020908152604080832054600e909252909120549091565b61052b6105a9565b6105505760405162461bcd60e51b815260040161054790611276565b60405180910390fd5b600080546040516001600160a01b03909116907f8be0079c531659141344cd1fd0a4f28419497f9722a3daafe3b4186f6b6457e0908390a3600080546001600160a01b0319169055565b6000546001600160a01b031690565b600080546001600160a01b03166105be610dbc565b6001600160a01b031614905090565b60008060008060008060008060006105e3610eea565b60008b81526013602090815260409182902082516102408101845281546001600160a01b039081166101e08301908152600180850154831661020085015260028086015461022086015291845286516060808201895260038701548516825260048701548516828901526005870154828a0152858801919091528751808201895260068701548516815260078701548516818901526008870154818a015285890152600986015490850152600a8501546080850152600b85015460a0850152600c850154831660c0850152600d850154831660e0850152600e85015490921661010080850191909152600f850180548851948116159092026000190190911691909104601f810186900486028301860190965285825291949293610120860193919291908301828280156107585780601f1061072d57610100808354040283529160200191610758565b820191906000526020600020905b81548152906001019060200180831161073b57829003601f168201915b50505050508152602001601082015481526020016011820154815260200160128201548152602001601382015481526020016014820154815250509050806000015160000151816000015160200151826000015160400151836020015160000151846020015160200151856020015160400151866040015160000151876040015160200151886040015160400151995099509950995099509950995099509950509193959799909294969850565b60008060008060006060610818610eea565b60008881526013602090815260409182902082516102408101845281546001600160a01b039081166101e08301908152600180850154831661020085015260028086015461022086015291845286516060808201895260038701548516825260048701548516828901526005870154828a0152858801919091528751808201895260068701548516815260078701548516818901526008870154818a015285890152600986015490850152600a8501546080850152600b85015460a0850152600c850154831660c0850152600d850154831660e0850152600e85015490921661010080850191909152600f850180548851948116159092026000190190911691909104601f8101869004860283018601909652858252919492936101208601939192919083018282801561098d5780601f106109625761010080835404028352916020019161098d565b820191906000526020600020905b81548152906001019060200180831161097057829003601f168201915b5050505050815260200160108201548152602001601182015481526020016012820154815260200160138201548152602001601482015481525050905080606001518160a001518260c001518360e001518461010001518561012001518090509650965096509650965096505091939550919395565b600080600080600080610a14610eea565b60008881526013602090815260409182902082516102408101845281546001600160a01b039081166101e08301908152600180850154831661020085015260028086015461022086015291845286516060808201895260038701548516825260048701548516828901526005870154828a0152858801919091528751808201895260068701548516815260078701548516818901526008870154818a015285890152600986015490850152600a8501546080850152600b85015460a0850152600c850154831660c0850152600d850154831660e0850152600e85015490921661010080850191909152600f850180548851948116159092026000190190911691909104601f81018690048602830186019096528582529194929361012086019391929190830182828015610b895780601f10610b5e57610100808354040283529160200191610b89565b820191906000526020600020905b815481529060010190602001808311610b6c57829003601f168201915b505050505081526020016010820154815260200160118201548152602001601282015481526020016013820154815260200160148201548152505090508060800151816101400151826101600151836101800151846101a00151856101c001519650965096509650965096505091939550919395565b610c076105a9565b610c235760405162461bcd60e51b815260040161054790611276565b610c2c81610dc0565b50565b6060806000610c3c610f90565b601a8581548110610c4957fe5b600091825260209182902060408051600393909302909101805460026001821615610100026000190190911604601f8101859004909402830160809081019092526060830184815292939092849290918491840182828015610cec5780601f10610cc157610100808354040283529160200191610cec565b820191906000526020600020905b815481529060010190602001808311610ccf57829003601f168201915b50505050508152602001600182018054600181600116156101000203166002900480601f016020809104026020016040519081016040528092919081815260200182805460018160011615610100020316600290048015610d8e5780601f10610d6357610100808354040283529160200191610d8e565b820191906000526020600020905b815481529060010190602001808311610d7157829003601f168201915b5050509183525050600291909101546020918201528151908201516040909201519097919650945092505050565b3390565b6001600160a01b038116610de65760405162461bcd60e51b815260040161054790611230565b600080546040516001600160a01b03808516939216917f8be0079c531659141344cd1fd0a4f28419497f9722a3daafe3b4186f6b6457e091a3600080546001600160a01b0319166001600160a01b0392909216919091179055565b6040805160a081019091528060008152600060208201819052604082018190526060820181905260809091015290565b604080516101c081019091528060008152602001600080191681526020016000815260200160008152602001600081526020016000815260200160008152602001600080191681526020016000815260200160008152602001606081526020016000801916815260200160608152602001600081525090565b604051806101e00160405280610efe610fb1565b8152602001610f0b610fb1565b8152602001610f18610fb1565b815260200160008152602001600081526020016000801916815260200160006001600160a01b0316815260200160006001600160a01b0316815260200160006001600160a01b031681526020016060815260200160008152602001600081526020016000815260200160008152602001600081525090565b60405180606001604052806060815260200160608152602001600081525090565b604080516060810182526000808252602082018190529181019190915290565b600060208284031215610fe2578081fd5b81356001600160a01b0381168114610ff8578182fd5b9392505050565b600060208284031215611010578081fd5b5035919050565b60008060408385031215611029578081fd5b8235915060208301356001600160a01b0381168114611046578182fd5b809150509250929050565b60008151808452815b818110156110765760208185018101518683018201520161105a565b818111156110875782602083870101525b50601f01601f19169290920160200192915050565b6001600160a01b0391909116815260200190565b6001600160a01b03998a168152978916602089015260408801969096529387166060870152918616608086015260a0850152841660c084015290921660e08201526101008101919091526101200190565b901515815260200190565b608081016004861061111a57fe5b948152602081019390935260408301919091526001600160a01b031660609091015290565b6000610180820160058f1061115057fe5b8e83528d60208401528c60408401528b60608401528a60808401528960a08401528860c08401528760e084015286610100840152856101208401526101806101408401528085518083526101a085019150602087019250835b818110156111d05783516001600160a01b03168352602093840193909201916001016111a9565b50508381036101608501526111e58186611051565b925050509d9c50505050505050505050505050565b60006060825261120d6060830186611051565b828103602084015261121f8186611051565b915050826040830152949350505050565b60208082526026908201527f4f776e61626c653a206e6577206f776e657220697320746865207a65726f206160408201526564647265737360d01b606082015260800190565b6020808252818101527f4f776e61626c653a2063616c6c6572206973206e6f7420746865206f776e6572604082015260600190565b868152602081018690526001600160a01b03858116604083015284811660608301528316608082015260c060a082018190526000906112ec90830184611051565b98975050505050505050565b918252602082015260400190565b958652602086019490945260408501929092526060840152608083015260a082015260c0019056fea26469706673582212207273cc47407471546c69c986525ab882d696a5abb880f49897e3b4617e9cb6a764736f6c634300060400338be0079c531659141344cd1fd0a4f28419497f9722a3daafe3b4186f6b6457e0",
  "source": "pragma solidity ^0.6.0;\npragma experimental ABIEncoderV2;\n\nimport \"../DelegateBase.sol\";\nimport \"../interfaces/IexecAccessorsABILegacy.sol\";\n\n\ncontract IexecAccessorsABILegacyDelegate is IexecAccessorsABILegacy, DelegateBase\n{\n\tfunction viewDealABILegacy_pt1(bytes32 _id)\n\texternal view override returns\n\t( address\n\t, address\n\t, uint256\n\t, address\n\t, address\n\t, uint256\n\t, address\n\t, address\n\t, uint256\n\t)\n\t{\n\t\tIexecLibCore_v5.Deal memory deal = m_deals[_id];\n\t\treturn (\n\t\t\tdeal.app.pointer,\n\t\t\tdeal.app.owner,\n\t\t\tdeal.app.price,\n\t\t\tdeal.dataset.pointer,\n\t\t\tdeal.dataset.owner,\n\t\t\tdeal.dataset.price,\n\t\t\tdeal.workerpool.pointer,\n\t\t\tdeal.workerpool.owner,\n\t\t\tdeal.workerpool.price\n\t\t);\n\t}\n\n\tfunction viewDealABILegacy_pt2(bytes32 _id)\n\texternal view override returns\n\t( uint256\n\t, bytes32\n\t, address\n\t, address\n\t, address\n\t, string memory\n\t)\n\t{\n\t\tIexecLibCore_v5.Deal memory deal = m_deals[_id];\n\t\treturn (\n\t\t\tdeal.trust,\n\t\t\tdeal.tag,\n\t\t\tdeal.requester,\n\t\t\tdeal.beneficiary,\n\t\t\tdeal.callback,\n\t\t\tdeal.params\n\t\t);\n\t}\n\n\tfunction viewConfigABILegacy(bytes32 _id)\n\texternal view override returns\n\t( uint256\n\t, uint256\n\t, uint256\n\t, uint256\n\t, uint256\n\t, uint256\n\t)\n\t{\n\t\tIexecLibCore_v5.Deal memory deal = m_deals[_id];\n\t\treturn (\n\t\t\tdeal.category,\n\t\t\tdeal.startTime,\n\t\t\tdeal.botFirst,\n\t\t\tdeal.botSize,\n\t\t\tdeal.workerStake,\n\t\t\tdeal.schedulerRewardRatio\n\t\t);\n\t}\n\n\tfunction viewAccountABILegacy(address account)\n\texternal view override returns (uint256, uint256)\n\t{\n\t\treturn ( m_balances[account], m_frozens[account] );\n\t}\n\n\tfunction viewTaskABILegacy(bytes32 _taskid)\n\texternal view override returns\n\t( IexecLibCore_v5.TaskStatusEnum\n\t, bytes32\n\t, uint256\n\t, uint256\n\t, uint256\n\t, uint256\n\t, uint256\n\t, bytes32\n\t, uint256\n\t, uint256\n\t, address[] memory\n\t, bytes     memory\n\t)\n\t{\n\t\tIexecLibCore_v5.Task memory task = m_tasks[_taskid];\n\t\treturn (\n\t\t\ttask.status,\n\t\t\ttask.dealid,\n\t\t\ttask.idx,\n\t\t\ttask.timeref,\n\t\t\ttask.contributionDeadline,\n\t\t\ttask.revealDeadline,\n\t\t\ttask.finalDeadline,\n\t\t\ttask.consensusValue,\n\t\t\ttask.revealCounter,\n\t\t\ttask.winnerCounter,\n\t\t\ttask.contributors,\n\t\t\ttask.results\n\t\t);\n\t}\n\n\tfunction viewContributionABILegacy(bytes32 _taskid, address _worker)\n\texternal view override returns\n\t( IexecLibCore_v5.ContributionStatusEnum\n\t, bytes32\n\t, bytes32\n\t, address\n\t)\n\t{\n\t\tIexecLibCore_v5.Contribution memory contribution = m_contributions[_taskid][_worker];\n\t\treturn (\n\t\t\tcontribution.status,\n\t\t\tcontribution.resultHash,\n\t\t\tcontribution.resultSeal,\n\t\t\tcontribution.enclaveChallenge\n\t\t);\n\t}\n\n\tfunction viewCategoryABILegacy(uint256 _catid)\n\texternal view override returns (string memory, string memory, uint256)\n\t{\n\t\tIexecLibCore_v5.Category memory category = m_categories[_catid];\n\t\treturn ( category.name, category.description, category.workClockTimeRef );\n\t}\n}\n",
  "sourcePath": "/home/amxx/Work/iExec/code/PoCo-dev/contracts/modules/delegates/IexecAccessorsABILegacyDelegate.sol",
  "compiler": {
    "name": "solc",
    "version": "0.6.4+commit.1dca32f3.Emscripten.clang"
  },
  "schemaVersion": "3.0.23",
  "updatedAt": "2020-03-13T16:37:49.017Z",
  "devdoc": {
    "methods": {
      "isOwner()": {
        "details": "Returns true if the caller is the current owner."
      },
      "owner()": {
        "details": "Returns the address of the current owner."
      },
      "renounceOwnership()": {
        "details": "Leaves the contract without owner. It will not be possible to call `onlyOwner` functions anymore. Can only be called by the current owner.     * NOTE: Renouncing ownership will leave the contract without an owner, thereby removing any functionality that is only available to the owner."
      },
      "transferOwnership(address)": {
        "details": "Transfers ownership of the contract to a new account (`newOwner`). Can only be called by the current owner."
      }
    }
  },
  "userdoc": {
    "methods": {}
  }
}