{
  "contractName": "IexecEscrowTokenSwapDelegate",
  "abi": [
    {
      "anonymous": false,
      "inputs": [
        {
          "indexed": true,
          "internalType": "address",
          "name": "owner",
          "type": "address"
        },
        {
          "indexed": true,
          "internalType": "address",
          "name": "spender",
          "type": "address"
        },
        {
          "indexed": false,
          "internalType": "uint256",
          "name": "value",
          "type": "uint256"
        }
      ],
      "name": "Approval",
      "type": "event"
    },
    {
      "anonymous": false,
      "inputs": [
        {
          "indexed": true,
          "internalType": "address",
          "name": "previousOwner",
          "type": "address"
        },
        {
          "indexed": true,
          "internalType": "address",
          "name": "newOwner",
          "type": "address"
        }
      ],
      "name": "OwnershipTransferred",
      "type": "event"
    },
    {
      "anonymous": false,
      "inputs": [
        {
          "indexed": true,
          "internalType": "address",
          "name": "from",
          "type": "address"
        },
        {
          "indexed": true,
          "internalType": "address",
          "name": "to",
          "type": "address"
        },
        {
          "indexed": false,
          "internalType": "uint256",
          "name": "value",
          "type": "uint256"
        }
      ],
      "name": "Transfer",
      "type": "event"
    },
    {
      "inputs": [],
      "name": "owner",
      "outputs": [
        {
          "internalType": "address",
          "name": "",
          "type": "address"
        }
      ],
      "stateMutability": "view",
      "type": "function"
    },
    {
      "inputs": [],
      "name": "renounceOwnership",
      "outputs": [],
      "stateMutability": "nonpayable",
      "type": "function"
    },
    {
      "inputs": [
        {
          "internalType": "address",
          "name": "newOwner",
          "type": "address"
        }
      ],
      "name": "transferOwnership",
      "outputs": [],
      "stateMutability": "nonpayable",
      "type": "function"
    },
    {
      "stateMutability": "payable",
      "type": "receive"
    },
    {
      "inputs": [],
      "name": "UniswapV2Router",
      "outputs": [
        {
          "internalType": "contract IUniswapV2Router02",
          "name": "",
          "type": "address"
        }
      ],
      "stateMutability": "view",
      "type": "function"
    },
    {
      "inputs": [],
      "name": "depositEth",
      "outputs": [],
      "stateMutability": "payable",
      "type": "function"
    },
    {
      "inputs": [
        {
          "internalType": "uint256",
          "name": "minimum",
          "type": "uint256"
        }
      ],
      "name": "safeDepositEth",
      "outputs": [],
      "stateMutability": "payable",
      "type": "function"
    },
    {
      "inputs": [
        {
          "internalType": "address",
          "name": "target",
          "type": "address"
        }
      ],
      "name": "depositEthFor",
      "outputs": [],
      "stateMutability": "payable",
      "type": "function"
    },
    {
      "inputs": [
        {
          "internalType": "uint256",
          "name": "minimum",
          "type": "uint256"
        },
        {
          "internalType": "address",
          "name": "target",
          "type": "address"
        }
      ],
      "name": "safeDepositEthFor",
      "outputs": [],
      "stateMutability": "payable",
      "type": "function"
    },
    {
      "inputs": [
        {
          "internalType": "uint256",
          "name": "amount",
          "type": "uint256"
        }
      ],
      "name": "withdrawEth",
      "outputs": [],
      "stateMutability": "nonpayable",
      "type": "function"
    },
    {
      "inputs": [
        {
          "internalType": "uint256",
          "name": "amount",
          "type": "uint256"
        },
        {
          "internalType": "uint256",
          "name": "minimum",
          "type": "uint256"
        }
      ],
      "name": "safeWithdrawEth",
      "outputs": [],
      "stateMutability": "nonpayable",
      "type": "function"
    },
    {
      "inputs": [
        {
          "internalType": "uint256",
          "name": "eth",
          "type": "uint256"
        }
      ],
      "name": "estimateDepositEthSent",
      "outputs": [
        {
          "internalType": "uint256",
          "name": "token",
          "type": "uint256"
        }
      ],
      "stateMutability": "view",
      "type": "function"
    },
    {
      "inputs": [
        {
          "internalType": "uint256",
          "name": "token",
          "type": "uint256"
        }
      ],
      "name": "estimateDepositTokenWanted",
      "outputs": [
        {
          "internalType": "uint256",
          "name": "eth",
          "type": "uint256"
        }
      ],
      "stateMutability": "view",
      "type": "function"
    },
    {
      "inputs": [
        {
          "internalType": "uint256",
          "name": "token",
          "type": "uint256"
        }
      ],
      "name": "estimateWithdrawTokenSent",
      "outputs": [
        {
          "internalType": "uint256",
          "name": "eth",
          "type": "uint256"
        }
      ],
      "stateMutability": "view",
      "type": "function"
    },
    {
      "inputs": [
        {
          "internalType": "uint256",
          "name": "eth",
          "type": "uint256"
        }
      ],
      "name": "estimateWithdrawEthWanted",
      "outputs": [
        {
          "internalType": "uint256",
          "name": "token",
          "type": "uint256"
        }
      ],
      "stateMutability": "view",
      "type": "function"
    },
    {
      "inputs": [
        {
          "components": [
            {
              "internalType": "address",
              "name": "app",
              "type": "address"
            },
            {
              "internalType": "uint256",
              "name": "appprice",
              "type": "uint256"
            },
            {
              "internalType": "uint256",
              "name": "volume",
              "type": "uint256"
            },
            {
              "internalType": "bytes32",
              "name": "tag",
              "type": "bytes32"
            },
            {
              "internalType": "address",
              "name": "datasetrestrict",
              "type": "address"
            },
            {
              "internalType": "address",
              "name": "workerpoolrestrict",
              "type": "address"
            },
            {
              "internalType": "address",
              "name": "requesterrestrict",
              "type": "address"
            },
            {
              "internalType": "bytes32",
              "name": "salt",
              "type": "bytes32"
            },
            {
              "internalType": "bytes",
              "name": "sign",
              "type": "bytes"
            }
          ],
          "internalType": "struct IexecLibOrders_v5.AppOrder",
          "name": "_apporder",
          "type": "tuple"
        },
        {
          "components": [
            {
              "internalType": "address",
              "name": "dataset",
              "type": "address"
            },
            {
              "internalType": "uint256",
              "name": "datasetprice",
              "type": "uint256"
            },
            {
              "internalType": "uint256",
              "name": "volume",
              "type": "uint256"
            },
            {
              "internalType": "bytes32",
              "name": "tag",
              "type": "bytes32"
            },
            {
              "internalType": "address",
              "name": "apprestrict",
              "type": "address"
            },
            {
              "internalType": "address",
              "name": "workerpoolrestrict",
              "type": "address"
            },
            {
              "internalType": "address",
              "name": "requesterrestrict",
              "type": "address"
            },
            {
              "internalType": "bytes32",
              "name": "salt",
              "type": "bytes32"
            },
            {
              "internalType": "bytes",
              "name": "sign",
              "type": "bytes"
            }
          ],
          "internalType": "struct IexecLibOrders_v5.DatasetOrder",
          "name": "_datasetorder",
          "type": "tuple"
        },
        {
          "components": [
            {
              "internalType": "address",
              "name": "workerpool",
              "type": "address"
            },
            {
              "internalType": "uint256",
              "name": "workerpoolprice",
              "type": "uint256"
            },
            {
              "internalType": "uint256",
              "name": "volume",
              "type": "uint256"
            },
            {
              "internalType": "bytes32",
              "name": "tag",
              "type": "bytes32"
            },
            {
              "internalType": "uint256",
              "name": "category",
              "type": "uint256"
            },
            {
              "internalType": "uint256",
              "name": "trust",
              "type": "uint256"
            },
            {
              "internalType": "address",
              "name": "apprestrict",
              "type": "address"
            },
            {
              "internalType": "address",
              "name": "datasetrestrict",
              "type": "address"
            },
            {
              "internalType": "address",
              "name": "requesterrestrict",
              "type": "address"
            },
            {
              "internalType": "bytes32",
              "name": "salt",
              "type": "bytes32"
            },
            {
              "internalType": "bytes",
              "name": "sign",
              "type": "bytes"
            }
          ],
          "internalType": "struct IexecLibOrders_v5.WorkerpoolOrder",
          "name": "_workerpoolorder",
          "type": "tuple"
        },
        {
          "components": [
            {
              "internalType": "address",
              "name": "app",
              "type": "address"
            },
            {
              "internalType": "uint256",
              "name": "appmaxprice",
              "type": "uint256"
            },
            {
              "internalType": "address",
              "name": "dataset",
              "type": "address"
            },
            {
              "internalType": "uint256",
              "name": "datasetmaxprice",
              "type": "uint256"
            },
            {
              "internalType": "address",
              "name": "workerpool",
              "type": "address"
            },
            {
              "internalType": "uint256",
              "name": "workerpoolmaxprice",
              "type": "uint256"
            },
            {
              "internalType": "address",
              "name": "requester",
              "type": "address"
            },
            {
              "internalType": "uint256",
              "name": "volume",
              "type": "uint256"
            },
            {
              "internalType": "bytes32",
              "name": "tag",
              "type": "bytes32"
            },
            {
              "internalType": "uint256",
              "name": "category",
              "type": "uint256"
            },
            {
              "internalType": "uint256",
              "name": "trust",
              "type": "uint256"
            },
            {
              "internalType": "address",
              "name": "beneficiary",
              "type": "address"
            },
            {
              "internalType": "address",
              "name": "callback",
              "type": "address"
            },
            {
              "internalType": "string",
              "name": "params",
              "type": "string"
            },
            {
              "internalType": "bytes32",
              "name": "salt",
              "type": "bytes32"
            },
            {
              "internalType": "bytes",
              "name": "sign",
              "type": "bytes"
            }
          ],
          "internalType": "struct IexecLibOrders_v5.RequestOrder",
          "name": "_requestorder",
          "type": "tuple"
        }
      ],
      "name": "matchOrdersWithEth",
      "outputs": [
        {
          "internalType": "bytes32",
          "name": "",
          "type": "bytes32"
        }
      ],
      "stateMutability": "payable",
      "type": "function"
    }
  ],
  "bytecode": "0x60806040523480156200001157600080fd5b506000620000276001600160e01b036200007916565b600080546001600160a01b0319166001600160a01b03831690811782556040519293509160008051602062001e7d833981519152908290a350620000736001600160e01b036200007d16565b62000137565b3390565b620000906001600160e01b036200007916565b6000546001600160a01b03908116911614620000c95760405162461bcd60e51b8152600401620000c09062000102565b60405180910390fd5b600080546040516001600160a01b039091169060008051602062001e7d833981519152908390a3600080546001600160a01b0319169055565b6020808252818101527f4f776e61626c653a2063616c6c6572206973206e6f7420746865206f776e6572604082015260600190565b611d3680620001476000396000f3fe6080604052600436106100ec5760003560e01c8063715018a61161008a578063a885d19a11610059578063a885d19a1461022e578063c311d0491461024e578063eee3f07a1461026e578063f2fde38b1461028157610106565b8063715018a6146101d15780638da5cb5b146101e657806397eb9764146101fb578063a1ac77ed1461021b57610106565b8063350d3d30116100c6578063350d3d30146101835780633bec2cbc1461019657806342f32b80146101a9578063439370b1146101c957610106565b8063055add0d1461010b5780631991f410146101365780631cdec20c1461016357610106565b36610106576101046100fc6102a1565b3460006102a5565b005b600080fd5b34801561011757600080fd5b5061012061036b565b60405161012d91906117f2565b60405180910390f35b34801561014257600080fd5b50610156610151366004611549565b610383565b60405161012d919061181f565b34801561016f57600080fd5b5061015661017e366004611549565b610434565b610104610191366004611561565b6104d6565b6101566101a43660046113e3565b6104e5565b3480156101b557600080fd5b506101046101c4366004611590565b6107ee565b610104610800565b3480156101dd57600080fd5b5061010461080d565b3480156101f257600080fd5b50610120610895565b34801561020757600080fd5b50610156610216366004611549565b6108a4565b610104610229366004611549565b6108c9565b34801561023a57600080fd5b50610156610249366004611549565b6108de565b34801561025a57600080fd5b50610104610269366004611549565b610903565b61010461027c3660046112db565b610916565b34801561028d57600080fd5b5061010461029c3660046112db565b610922565b3390565b6060737a250d5630b4cf539739df2c5dacb4c659f2488d637ff36ab584846102cb6109d8565b30426001016040518663ffffffff1660e01b81526004016102ef9493929190611c33565b6000604051808303818588803b15801561030857600080fd5b505af115801561031c573d6000803e3d6000fd5b50505050506040513d6000823e601f3d908101601f191682016040526103459190810190611313565b9050610365848260018151811061035857fe5b6020026020010151610ad6565b50505050565b737a250d5630b4cf539739df2c5dacb4c659f2488d90565b6000737a250d5630b4cf539739df2c5dacb4c659f2488d631f00ca74836103a8610b96565b6040518363ffffffff1660e01b81526004016103c5929190611c1a565b60006040518083038186803b1580156103dd57600080fd5b505afa1580156103f1573d6000803e3d6000fd5b505050506040513d6000823e601f3d908101601f191682016040526104199190810190611313565b60008151811061042557fe5b60200260200101519050919050565b6000737a250d5630b4cf539739df2c5dacb4c659f2488d63d06ca61f836104596109d8565b6040518363ffffffff1660e01b8152600401610476929190611c1a565b60006040518083038186803b15801561048e57600080fd5b505afa1580156104a2573d6000803e3d6000fd5b505050506040513d6000823e601f3d908101601f191682016040526104ca9190810190611313565b60018151811061042557fe5b6104e18134846102a5565b5050565b6000806105ac601260006105838973__IexecLibOrders_v5_____________________637c0d54d390916040518263ffffffff1660e01b815260040161052b919061194b565b60206040518083038186803b15801561054357600080fd5b505af4158015610557573d6000803e3d6000fd5b505050506040513d601f19601f8201168201806040525081019061057b91906113cb565b601054610c86565b805190602001208152602001908152602001600020548760400151610cb390919063ffffffff16565b85519091506001600160a01b03161561061557610612610605601260006105838973__IexecLibOrders_v5_____________________6311b2eee290916040518263ffffffff1660e01b815260040161052b919061194b565b829063ffffffff610cc816565b90505b6106846106056012600061065b8873__IexecLibOrders_v5_____________________63fed985fe90916040518263ffffffff1660e01b815260040161052b9190611b6a565b805190602001208152602001908152602001600020548660400151610cb390919063ffffffff16565b90506106f5610605601260006106cc8773__IexecLibOrders_v5_____________________638ac03f3390916040518263ffffffff1660e01b815260040161052b9190611a4e565b805190602001208152602001908152602001600020548560e00151610cb390919063ffffffff16565b90506107698360c001513461076484610758896020015161074c60006001600160a01b03168d600001516001600160a01b0316141561073557600061073b565b8c602001515b60208f01519063ffffffff610ce016565b9063ffffffff610ce016565b9063ffffffff610cf216565b610d19565b604051630558653560e21b8152309063156194d49061079290899089908990899060040161195e565b602060405180830381600087803b1580156107ac57600080fd5b505af11580156107c0573d6000803e3d6000fd5b505050506040513d601f19601f820116820180604052508101906107e491906113cb565b9695505050505050565b6104e16107f96102a1565b8383610e75565b61080b6100fc6102a1565b565b6108156102a1565b6000546001600160a01b0390811691161461084b5760405162461bcd60e51b81526004016108429061186e565b60405180910390fd5b600080546040516001600160a01b03909116907f8be0079c531659141344cd1fd0a4f28419497f9722a3daafe3b4186f6b6457e0908390a3600080546001600160a01b0319169055565b6000546001600160a01b031690565b6000737a250d5630b4cf539739df2c5dacb4c659f2488d631f00ca74836103a86109d8565b6108db6108d46102a1565b34836102a5565b50565b6000737a250d5630b4cf539739df2c5dacb4c659f2488d63d06ca61f83610459610b96565b6108db61090e6102a1565b826000610e75565b6108db813460006102a5565b61092a6102a1565b6000546001600160a01b039081169116146109575760405162461bcd60e51b81526004016108429061186e565b6001600160a01b03811661097d5760405162461bcd60e51b815260040161084290611828565b600080546040516001600160a01b03808516939216917f8be0079c531659141344cd1fd0a4f28419497f9722a3daafe3b4186f6b6457e091a3600080546001600160a01b0319166001600160a01b0392909216919091179055565b604080516002808252606080830184529283929190602083019080368337019050509050737a250d5630b4cf539739df2c5dacb4c659f2488d6001600160a01b031663ad5c46486040518163ffffffff1660e01b815260040160206040518083038186803b158015610a4957600080fd5b505afa158015610a5d573d6000803e3d6000fd5b505050506040513d601f19601f82011682018060405250810190610a8191906112f7565b81600081518110610a8e57fe5b6001600160a01b039283166020918202929092010152600854825191169082906001908110610ab957fe5b6001600160a01b0390921660209283029190910190910152905090565b6001600160a01b038216610afc5760405162461bcd60e51b815260040161084290611914565b600c54610b0f908263ffffffff610ce016565b600c556001600160a01b0382166000908152600d6020526040902054610b3b908263ffffffff610ce016565b6001600160a01b0383166000818152600d60205260408082209390935591519091907fddf252ad1be2c89b69c2b068fc378daa952ba7f163c4a11628f55a4df523b3ef90610b8a90859061181f565b60405180910390a35050565b604080516002808252606080830184529283929190602083019080368337505060085482519293506001600160a01b031691839150600090610bd457fe5b60200260200101906001600160a01b031690816001600160a01b031681525050737a250d5630b4cf539739df2c5dacb4c659f2488d6001600160a01b031663ad5c46486040518163ffffffff1660e01b815260040160206040518083038186803b158015610c4157600080fd5b505afa158015610c55573d6000803e3d6000fd5b505050506040513d601f19601f82011682018060405250810190610c7991906112f7565b81600181518110610ab957fe5b60608183604051602001610c9b9291906117d4565b60405160208183030381529060405290505b92915050565b600082821115610cc257600080fd5b50900390565b6000818310610cd75781610cd9565b825b9392505050565b600082820183811015610cd957600080fd5b600082610d0157506000610cad565b82820282848281610d0e57fe5b0414610cd957600080fd5b6060737a250d5630b4cf539739df2c5dacb4c659f2488d63fb3bdb418484610d3f6109d8565b30426001016040518663ffffffff1660e01b8152600401610d639493929190611c33565b6000604051808303818588803b158015610d7c57600080fd5b505af1158015610d90573d6000803e3d6000fd5b50505050506040513d6000823e601f3d908101601f19168201604052610db99190810190611313565b9050610dcc848260018151811061035857fe5b6000846001600160a01b0316610dff83600081518110610de857fe5b602002602001015186610cb390919063ffffffff16565b604051610e0b906117ef565b60006040518083038185875af1925050503d8060008114610e48576040519150601f19603f3d011682016040523d82523d6000602084013e610e4d565b606091505b5050905080610e6e5760405162461bcd60e51b8152600401610842906118e4565b5050505050565b60085460405163095ea7b360e01b81526001600160a01b039091169063095ea7b390610ebb90737a250d5630b4cf539739df2c5dacb4c659f2488d908690600401611806565b602060405180830381600087803b158015610ed557600080fd5b505af1158015610ee9573d6000803e3d6000fd5b505050506040513d601f19601f82011682018060405250810190610f0d91906113ab565b506060737a250d5630b4cf539739df2c5dacb4c659f2488d6318cbafe58484610f34610b96565b88426001016040518663ffffffff1660e01b8152600401610f59959493929190611c68565b600060405180830381600087803b158015610f7357600080fd5b505af1158015610f87573d6000803e3d6000fd5b505050506040513d6000823e601f3d908101601f19168201604052610faf9190810190611313565b90506103658482600081518110610fc257fe5b60200260200101516001600160a01b038216610ff05760405162461bcd60e51b8152600401610842906118a3565b600c54611003908263ffffffff610cb316565b600c556001600160a01b0382166000908152600d602052604090205461102f908263ffffffff610cb316565b6001600160a01b0383166000818152600d60205260408082209390935591517fddf252ad1be2c89b69c2b068fc378daa952ba7f163c4a11628f55a4df523b3ef90610b8a90859061181f565b8035610cad81611ceb565b600082601f830112611096578081fd5b813567ffffffffffffffff8111156110ac578182fd5b6110bf601f8201601f1916602001611ca4565b91508082528360208285010111156110d657600080fd5b8060208401602084013760009082016020015292915050565b6000610120808385031215611102578182fd5b61110b81611ca4565b915050611118838361107b565b8152602082013560208201526040820135604082015260608201356060820152611145836080840161107b565b60808201526111578360a0840161107b565b60a08201526111698360c0840161107b565b60c082015260e082013560e08201526101008083013567ffffffffffffffff81111561119457600080fd5b6111a085828601611086565b82840152505092915050565b60006102008083850312156111bf578182fd5b6111c881611ca4565b9150506111d5838361107b565b8152602082013560208201526111ee836040840161107b565b60408201526060820135606082015261120a836080840161107b565b608082015260a082013560a08201526112268360c0840161107b565b60c082015260e082810135908201526101008083013590820152610120808301359082015261014080830135908201526101606112658482850161107b565b908201526101806112788484830161107b565b908201526101a08281013567ffffffffffffffff8082111561129957600080fd5b6112a586838701611086565b838501526101c0925082850135838501526101e09250828501359150808211156112ce57600080fd5b506111a085828601611086565b6000602082840312156112ec578081fd5b8135610cd981611ceb565b600060208284031215611308578081fd5b8151610cd981611ceb565b60006020808385031215611325578182fd5b825167ffffffffffffffff81111561133b578283fd5b80840185601f82011261134c578384fd5b8051915061136161135c83611ccb565b611ca4565b828152838101908285018585028401860189101561137d578687fd5b8693505b8484101561139f578051835260019390930192918501918501611381565b50979650505050505050565b6000602082840312156113bc578081fd5b81518015158114610cd9578182fd5b6000602082840312156113dc578081fd5b5051919050565b600080600080608085870312156113f8578283fd5b843567ffffffffffffffff8082111561140f578485fd5b61141b888389016110ef565b95506020870135915080821115611430578485fd5b61143c888389016110ef565b94506040870135915080821115611451578384fd5b610160918701808903831315611465578485fd5b61146e83611ca4565b6114788a8361107b565b81526020820135602082015260408201356040820152606082013560608201526080820135608082015260a082013560a08201526114b98a60c0840161107b565b60c08201526114cb8a60e0840161107b565b60e082015261010093506114e18a85840161107b565b848201526101209350838201358482015261014093508382013583811115611507578687fd5b6115138b828501611086565b858301525080955050506060870135915080821115611530578283fd5b5061153d878288016111ac565b91505092959194509250565b60006020828403121561155a578081fd5b5035919050565b60008060408385031215611573578182fd5b82359150602083013561158581611ceb565b809150509250929050565b600080604083850312156115a2578182fd5b50508035926020909101359150565b6001600160a01b03169052565b6000815180845260208085019450808401835b838110156115f65781516001600160a01b0316875295820195908201906001016115d1565b509495945050505050565b60008151808452815b818110156116265760208185018101518683018201520161160a565b818111156116375782602083870101525b50601f01601f19169290920160200192915050565b600061012060018060a01b038351168452602083015160208501526040830151604085015260608301516060850152608083015161168d60808601826115b1565b5060a08301516116a060a08601826115b1565b5060c08301516116b360c08601826115b1565b5060e083015160e08501526101008084015182828701526107e483870182611601565b60006102006116e68484516115b1565b60208301516020850152604083015161170260408601826115b1565b5060608301516060850152608083015161171f60808601826115b1565b5060a083015160a085015260c083015161173c60c08601826115b1565b5060e083810151908501526101008084015190850152610120808401519085015261014080840151908501526101608084015161177b828701826115b1565b505061018080840151611790828701826115b1565b50506101a08084015182828701526117aa83870182611601565b9150506101c0915081840151828601526101e0915081840151858203838701526107e48282611601565b61190160f01b81526002810192909252602282015260420190565b90565b6001600160a01b0391909116815260200190565b6001600160a01b03929092168252602082015260400190565b90815260200190565b60208082526026908201527f4f776e61626c653a206e6577206f776e657220697320746865207a65726f206160408201526564647265737360d01b606082015260800190565b6020808252818101527f4f776e61626c653a2063616c6c6572206973206e6f7420746865206f776e6572604082015260600190565b60208082526021908201527f45524332303a206275726e2066726f6d20746865207a65726f206164647265736040820152607360f81b606082015260800190565b6020808252601690820152751b985d1a5d994b5d1c985b9cd9995c8b59985a5b195960521b604082015260600190565b6020808252601f908201527f45524332303a206d696e7420746f20746865207a65726f206164647265737300604082015260600190565b600060208252610cd9602083018461164c565b600060808252611971608083018761164c565b8281036020840152611983818761164c565b8381036040850152610160915061199b8187516115b1565b6020860151602082015260408601516040820152606086015160608201526080860151608082015260a086015160a082015260c08601516119df60c08301826115b1565b5060e08601516119f260e08301826115b1565b5061010080870151611a06828401826115b1565b5050610120808701518183015250610140808701518382840152611a2c84840182611601565b9150508481036060860152611a4181876116d6565b9998505050505050505050565b600060208252611a626020830184516115b1565b602083015160408301526040830151611a7e60608401826115b1565b50606083015160808301526080830151611a9b60a08401826115b1565b5060a083015160c083015260c0830151611ab860e08401826115b1565b5060e083015161010083810191909152830151610120808401919091528301516101408084019190915283015161016080840191909152830151610180611b01818501836115b1565b84015190506101a0611b15848201836115b1565b808501519150506102006101c08181860152611b35610220860184611601565b908601516101e08681019190915280870151868303601f190184880152935090611b5f8185611601565b979650505050505050565b600060208252611b7e6020830184516115b1565b602083015160408301526040830151606083015260608301516080830152608083015160a083015260a083015160c083015260c0830151611bc260e08401826115b1565b5060e0830151610100611bd7818501836115b1565b8401519050610120611beb848201836115b1565b84015161014084810191909152840151610160808501529050611c12610180840182611601565b949350505050565b600083825260406020830152611c1260408301846115be565b600085825260806020830152611c4c60808301866115be565b6001600160a01b03949094166040830152506060015292915050565b600086825285602083015260a06040830152611c8760a08301866115be565b6001600160a01b0394909416606083015250608001529392505050565b60405181810167ffffffffffffffff81118282101715611cc357600080fd5b604052919050565b600067ffffffffffffffff821115611ce1578081fd5b5060209081020190565b6001600160a01b03811681146108db57600080fdfea2646970667358221220be0c9440ceddeae187567a6e171cb5ccbc94b0f799b632c5207198a9a844231c64736f6c634300060a00338be0079c531659141344cd1fd0a4f28419497f9722a3daafe3b4186f6b6457e0",
  "immutableReferences": {},
  "source": "pragma solidity ^0.6.0;\npragma experimental ABIEncoderV2;\n\nimport \"./IexecERC20Common.sol\";\nimport \"./SignatureVerifier.sol\";\nimport \"../DelegateBase.sol\";\nimport \"../interfaces/IexecEscrowTokenSwap.sol\";\nimport \"../interfaces/IexecPoco.sol\";\n\n\ncontract IexecEscrowTokenSwapDelegate is IexecEscrowTokenSwap, DelegateBase, IexecERC20Common, SignatureVerifier\n{\n\tusing SafeMathExtended  for uint256;\n\tusing IexecLibOrders_v5 for IexecLibOrders_v5.AppOrder;\n\tusing IexecLibOrders_v5 for IexecLibOrders_v5.DatasetOrder;\n\tusing IexecLibOrders_v5 for IexecLibOrders_v5.WorkerpoolOrder;\n\tusing IexecLibOrders_v5 for IexecLibOrders_v5.RequestOrder;\n\n\tIUniswapV2Router02 internal constant router = IUniswapV2Router02(0x7a250d5630B4cF539739dF2C5dAcb4c659F2488D);\n\n\t/***************************************************************************\n\t *                                Accessor                                 *\n\t ***************************************************************************/\n\tfunction UniswapV2Router()\n\texternal view override returns (IUniswapV2Router02)\n\t{\n\t\treturn router;\n\t}\n\n\t/***************************************************************************\n\t *                        Swapping methods - Public                        *\n\t ***************************************************************************/\n\treceive()\n\texternal override payable\n\t{\n\t\t_deposit(_msgSender(), msg.value, 0);\n\t}\n\n\tfunction depositEth()\n\texternal override payable\n\t{\n\t\t_deposit(_msgSender(), msg.value, 0);\n\t}\n\n\tfunction safeDepositEth(uint256 minimum)\n\texternal override payable\n\t{\n\t\t_deposit(_msgSender(), msg.value, minimum);\n\t}\n\n\tfunction depositEthFor(address target)\n\texternal override payable\n\t{\n\t\t_deposit(target, msg.value, 0);\n\t}\n\n\tfunction safeDepositEthFor(uint256 minimum, address target)\n\texternal override payable\n\t{\n\t\t_deposit(target, msg.value, minimum);\n\t}\n\n\tfunction withdrawEth(uint256 amount)\n\texternal override\n\t{\n\t\t_withdraw(_msgSender(), amount, 0);\n\t}\n\n\tfunction safeWithdrawEth(uint256 amount, uint256 minimum)\n\texternal override\n\t{\n\t\t_withdraw(_msgSender(), amount, minimum);\n\t}\n\n\tfunction estimateDepositEthSent(uint256 eth)\n\texternal view override returns (uint256 token)\n\t{\n\t\treturn router.getAmountsOut(eth, _eth2token())[1];\n\t}\n\n\tfunction estimateDepositTokenWanted(uint256 token)\n\texternal view override returns (uint256 eth)\n\t{\n\t\treturn router.getAmountsIn(token, _eth2token())[0];\n\t}\n\n\tfunction estimateWithdrawTokenSent(uint256 token)\n\texternal view override returns (uint256 eth)\n\t{\n\t\treturn router.getAmountsOut(token, _token2eth())[1];\n\t}\n\n\tfunction estimateWithdrawEthWanted(uint256 eth)\n\texternal view override returns (uint256 token)\n\t{\n\t\treturn router.getAmountsIn(eth, _token2eth())[0];\n\t}\n\n\t/***************************************************************************\n\t *                       Swapping methods - Internal                       *\n\t ***************************************************************************/\n\tfunction _deposit(address user, uint256 value, uint256 minimum)\n\tinternal\n\t{\n\t\tuint256[] memory amounts = router.swapExactETHForTokens{value: value}(minimum, _eth2token(), address(this), now+1);\n\t\t_mint(user, amounts[1]);\n\t}\n\n\tfunction _depositExact(address user, uint256 value, uint256 exact)\n\tinternal\n\t{\n\t\tuint256[] memory amounts = router.swapETHForExactTokens{value: value}(exact, _eth2token(), address(this), now+1);\n\t\t_mint(user, amounts[1]);\n\t\t// Refund remaining ETH\n\t\t(bool success, ) = user.call{value: value.sub(amounts[0])}('');\n\t\trequire(success, 'native-transfer-failed');\n\t}\n\n\tfunction _withdraw(address user, uint256 amount, uint256 minimum)\n\tinternal\n\t{\n\t\tm_baseToken.approve(address(router), amount);\n\t\tuint256[] memory amounts = router.swapExactTokensForETH(amount, minimum, _token2eth(), user, now+1);\n\t\t_burn(user, amounts[0]);\n\t}\n\n\tfunction _eth2token()\n\tinternal view returns (address[] memory)\n\t{\n\t\taddress[] memory path = new address[](2);\n\t\tpath[0] = router.WETH();\n\t\tpath[1] = address(m_baseToken);\n\t\treturn path;\n\t}\n\n\tfunction _token2eth()\n\tinternal view returns (address[] memory)\n\t{\n\t\taddress[] memory path = new address[](2);\n\t\tpath[0] = address(m_baseToken);\n\t\tpath[1] = router.WETH();\n\t\treturn path;\n\t}\n\n\t/***************************************************************************\n\t *                          Extra public methods                           *\n\t ***************************************************************************/\n\tfunction matchOrdersWithEth(\n\t\tIexecLibOrders_v5.AppOrder        memory _apporder,\n\t\tIexecLibOrders_v5.DatasetOrder    memory _datasetorder,\n\t\tIexecLibOrders_v5.WorkerpoolOrder memory _workerpoolorder,\n\t\tIexecLibOrders_v5.RequestOrder    memory _requestorder)\n\tpublic payable override returns (bytes32)\n\t{\n\t\tuint256 volume;\n\t\tvolume =                   _apporder.volume.sub(m_consumed[keccak256(_toEthTypedStruct(       _apporder.hash(), EIP712DOMAIN_SEPARATOR))]);\n\t\tif (_datasetorder.dataset != address(0))\n\t\tvolume = volume.min(   _datasetorder.volume.sub(m_consumed[keccak256(_toEthTypedStruct(   _datasetorder.hash(), EIP712DOMAIN_SEPARATOR))]));\n\t\tvolume = volume.min(_workerpoolorder.volume.sub(m_consumed[keccak256(_toEthTypedStruct(_workerpoolorder.hash(), EIP712DOMAIN_SEPARATOR))]));\n\t\tvolume = volume.min(   _requestorder.volume.sub(m_consumed[keccak256(_toEthTypedStruct(   _requestorder.hash(), EIP712DOMAIN_SEPARATOR))]));\n\n\t\t_depositExact(\n\t\t\t_requestorder.requester,\n\t\t\tmsg.value,\n\t\t\t_apporder.appprice\n\t\t\t.add(_datasetorder.dataset != address(0) ? _datasetorder.datasetprice : 0)\n\t\t\t.add(_workerpoolorder.workerpoolprice)\n\t\t\t.mul(volume)\n\t\t);\n\n\t\treturn IexecPoco(address(this)).matchOrders(_apporder, _datasetorder, _workerpoolorder, _requestorder);\n\t}\n}\n",
  "sourcePath": "/home/amxx/Work/iExec/code/PoCo-dev/contracts/modules/delegates/IexecEscrowTokenSwapDelegate.sol",
  "compiler": {
    "name": "solc",
    "version": "0.6.10+commit.00c0fcaf.Emscripten.clang"
  },
  "schemaVersion": "3.2.0",
  "updatedAt": "2020-06-23T11:25:03.096Z",
  "devdoc": {
    "methods": {
      "owner()": {
        "details": "Returns the address of the current owner."
      },
      "renounceOwnership()": {
        "details": "Leaves the contract without owner. It will not be possible to call `onlyOwner` functions anymore. Can only be called by the current owner. NOTE: Renouncing ownership will leave the contract without an owner, thereby removing any functionality that is only available to the owner."
      },
      "transferOwnership(address)": {
        "details": "Transfers ownership of the contract to a new account (`newOwner`). Can only be called by the current owner."
      }
    }
  },
  "userdoc": {
    "methods": {
      "UniswapV2Router()": {
        "notice": "*************************************************************************                                Accessor                                 ***************************************************************************"
      },
      "matchOrdersWithEth((address,uint256,uint256,bytes32,address,address,address,bytes32,bytes),(address,uint256,uint256,bytes32,address,address,address,bytes32,bytes),(address,uint256,uint256,bytes32,uint256,uint256,address,address,address,bytes32,bytes),(address,uint256,address,uint256,address,uint256,address,uint256,bytes32,uint256,uint256,address,address,string,bytes32,bytes))": {
        "notice": "*************************************************************************                          Extra public methods                           ***************************************************************************"
      }
    }
  }
}