{
  "contractName": "IexecERC20Delegate",
  "abi": [
    {
      "anonymous": false,
      "inputs": [
        {
          "indexed": true,
          "internalType": "address",
          "name": "owner",
          "type": "address"
        },
        {
          "indexed": true,
          "internalType": "address",
          "name": "spender",
          "type": "address"
        },
        {
          "indexed": false,
          "internalType": "uint256",
          "name": "value",
          "type": "uint256"
        }
      ],
      "name": "Approval",
      "type": "event"
    },
    {
      "anonymous": false,
      "inputs": [
        {
          "indexed": true,
          "internalType": "address",
          "name": "previousOwner",
          "type": "address"
        },
        {
          "indexed": true,
          "internalType": "address",
          "name": "newOwner",
          "type": "address"
        }
      ],
      "name": "OwnershipTransferred",
      "type": "event"
    },
    {
      "anonymous": false,
      "inputs": [
        {
          "indexed": true,
          "internalType": "address",
          "name": "from",
          "type": "address"
        },
        {
          "indexed": true,
          "internalType": "address",
          "name": "to",
          "type": "address"
        },
        {
          "indexed": false,
          "internalType": "uint256",
          "name": "value",
          "type": "uint256"
        }
      ],
      "name": "Transfer",
      "type": "event"
    },
    {
      "inputs": [],
      "name": "isOwner",
      "outputs": [
        {
          "internalType": "bool",
          "name": "",
          "type": "bool"
        }
      ],
      "stateMutability": "view",
      "type": "function"
    },
    {
      "inputs": [],
      "name": "owner",
      "outputs": [
        {
          "internalType": "address",
          "name": "",
          "type": "address"
        }
      ],
      "stateMutability": "view",
      "type": "function"
    },
    {
      "inputs": [],
      "name": "renounceOwnership",
      "outputs": [],
      "stateMutability": "nonpayable",
      "type": "function"
    },
    {
      "inputs": [
        {
          "internalType": "address",
          "name": "newOwner",
          "type": "address"
        }
      ],
      "name": "transferOwnership",
      "outputs": [],
      "stateMutability": "nonpayable",
      "type": "function"
    },
    {
      "inputs": [
        {
          "internalType": "address",
          "name": "recipient",
          "type": "address"
        },
        {
          "internalType": "uint256",
          "name": "amount",
          "type": "uint256"
        }
      ],
      "name": "transfer",
      "outputs": [
        {
          "internalType": "bool",
          "name": "",
          "type": "bool"
        }
      ],
      "stateMutability": "nonpayable",
      "type": "function"
    },
    {
      "inputs": [
        {
          "internalType": "address",
          "name": "spender",
          "type": "address"
        },
        {
          "internalType": "uint256",
          "name": "value",
          "type": "uint256"
        }
      ],
      "name": "approve",
      "outputs": [
        {
          "internalType": "bool",
          "name": "",
          "type": "bool"
        }
      ],
      "stateMutability": "nonpayable",
      "type": "function"
    },
    {
      "inputs": [
        {
          "internalType": "address",
          "name": "spender",
          "type": "address"
        },
        {
          "internalType": "uint256",
          "name": "value",
          "type": "uint256"
        },
        {
          "internalType": "bytes",
          "name": "extraData",
          "type": "bytes"
        }
      ],
      "name": "approveAndCall",
      "outputs": [
        {
          "internalType": "bool",
          "name": "",
          "type": "bool"
        }
      ],
      "stateMutability": "nonpayable",
      "type": "function"
    },
    {
      "inputs": [
        {
          "internalType": "address",
          "name": "sender",
          "type": "address"
        },
        {
          "internalType": "address",
          "name": "recipient",
          "type": "address"
        },
        {
          "internalType": "uint256",
          "name": "amount",
          "type": "uint256"
        }
      ],
      "name": "transferFrom",
      "outputs": [
        {
          "internalType": "bool",
          "name": "",
          "type": "bool"
        }
      ],
      "stateMutability": "nonpayable",
      "type": "function"
    },
    {
      "inputs": [
        {
          "internalType": "address",
          "name": "spender",
          "type": "address"
        },
        {
          "internalType": "uint256",
          "name": "addedValue",
          "type": "uint256"
        }
      ],
      "name": "increaseAllowance",
      "outputs": [
        {
          "internalType": "bool",
          "name": "",
          "type": "bool"
        }
      ],
      "stateMutability": "nonpayable",
      "type": "function"
    },
    {
      "inputs": [
        {
          "internalType": "address",
          "name": "spender",
          "type": "address"
        },
        {
          "internalType": "uint256",
          "name": "subtractedValue",
          "type": "uint256"
        }
      ],
      "name": "decreaseAllowance",
      "outputs": [
        {
          "internalType": "bool",
          "name": "",
          "type": "bool"
        }
      ],
      "stateMutability": "nonpayable",
      "type": "function"
    }
  ],
  "bytecode": "0x608060405260006100176001600160e01b0361006516565b600080546001600160a01b0319166001600160a01b038316908117825560405192935091600080516020610bba833981519152908290a3506100606001600160e01b0361006916565b610139565b3390565b61007a6001600160e01b036100d716565b61009f5760405162461bcd60e51b815260040161009690610104565b60405180910390fd5b600080546040516001600160a01b0390911690600080516020610bba833981519152908390a3600080546001600160a01b0319169055565b600080546001600160a01b03166100f56001600160e01b0361006516565b6001600160a01b031614905090565b6020808252818101527f4f776e61626c653a2063616c6c6572206973206e6f7420746865206f776e6572604082015260600190565b610a72806101486000396000f3fe608060405234801561001057600080fd5b506004361061009e5760003560e01c80638f32d59b116100665780638f32d59b14610111578063a457c2d714610119578063a9059cbb1461012c578063cae9ca511461013f578063f2fde38b146101525761009e565b8063095ea7b3146100a357806323b872dd146100cc57806339509351146100df578063715018a6146100f25780638da5cb5b146100fc575b600080fd5b6100b66100b136600461072b565b610165565b6040516100c39190610860565b60405180910390f35b6100b66100da3660046106eb565b610183565b6100b66100ed36600461072b565b6101f8565b6100fa61024c565b005b6101046102c3565b6040516100c391906107fb565b6100b66102d2565b6100b661012736600461072b565b6102f6565b6100b661013a36600461072b565b61034a565b6100b661014d366004610755565b61035e565b6100fa6101603660046106d0565b610426565b6000610179610172610456565b848461045a565b5060015b92915050565b600061019084848461050e565b6101ee8461019c610456565b6001600160a01b0387166000908152600f602052604081206101e9918791906101c3610456565b6001600160a01b031681526020810191909152604001600020549063ffffffff61060a16565b61045a565b5060019392505050565b6000610179610205610456565b846101e985600f6000610216610456565b6001600160a01b03908116825260208083019390935260409182016000908120918c16815292529020549063ffffffff61061f16565b6102546102d2565b6102795760405162461bcd60e51b815260040161027090610960565b60405180910390fd5b600080546040516001600160a01b03909116907f8be0079c531659141344cd1fd0a4f28419497f9722a3daafe3b4186f6b6457e0908390a3600080546001600160a01b0319169055565b6000546001600160a01b031690565b600080546001600160a01b03166102e7610456565b6001600160a01b031614905090565b6000610179610303610456565b846101e985600f6000610314610456565b6001600160a01b03908116825260208083019390935260409182016000908120918c16815292529020549063ffffffff61060a16565b6000610179610357610456565b848461050e565b600061037261036b610456565b868661045a565b846001600160a01b0316638f4ffcb1610389610456565b863087876040518663ffffffff1660e01b81526004016103ad95949392919061080f565b602060405180830381600087803b1580156103c757600080fd5b505af11580156103db573d6000803e3d6000fd5b505050506040513d601f19601f820116820180604052508101906103ff91906107db565b61041b5760405162461bcd60e51b815260040161027090610936565b506001949350505050565b61042e6102d2565b61044a5760405162461bcd60e51b815260040161027090610960565b61045381610638565b50565b3390565b6001600160a01b0383166104805760405162461bcd60e51b8152600401610270906109da565b6001600160a01b0382166104a65760405162461bcd60e51b8152600401610270906108f4565b6001600160a01b038084166000818152600f602090815260408083209487168084529490915290819020849055517f8c5be1e5ebec7d5bd14f71427d1e84f3dd0314c0f7b2291e5b200ac8c7c3b92590610501908590610a1e565b60405180910390a3505050565b6001600160a01b0383166105345760405162461bcd60e51b815260040161027090610995565b6001600160a01b03821661055a5760405162461bcd60e51b81526004016102709061086b565b6001600160a01b0383166000908152600d6020526040902054610583908263ffffffff61060a16565b6001600160a01b038085166000908152600d602052604080822093909355908416815220546105b8908263ffffffff61061f16565b6001600160a01b038084166000818152600d602052604090819020939093559151908516907fddf252ad1be2c89b69c2b068fc378daa952ba7f163c4a11628f55a4df523b3ef90610501908590610a1e565b60008282111561061957600080fd5b50900390565b60008282018381101561063157600080fd5b9392505050565b6001600160a01b03811661065e5760405162461bcd60e51b8152600401610270906108ae565b600080546040516001600160a01b03808516939216917f8be0079c531659141344cd1fd0a4f28419497f9722a3daafe3b4186f6b6457e091a3600080546001600160a01b0319166001600160a01b0392909216919091179055565b80356001600160a01b038116811461017d57600080fd5b6000602082840312156106e1578081fd5b61063183836106b9565b6000806000606084860312156106ff578182fd5b833561070a81610a27565b9250602084013561071a81610a27565b929592945050506040919091013590565b6000806040838503121561073d578182fd5b61074784846106b9565b946020939093013593505050565b6000806000806060858703121561076a578081fd5b843561077581610a27565b935060208501359250604085013567ffffffffffffffff80821115610798578283fd5b81870188601f8201126107a9578384fd5b80359250818311156107b9578384fd5b8860208483010111156107ca578384fd5b959894975050602090940194505050565b6000602082840312156107ec578081fd5b81518015158114610631578182fd5b6001600160a01b0391909116815260200190565b6001600160a01b038681168252602082018690528416604082015260806060820181905281018290526000828460a084013781830160a090810191909152601f909201601f19160101949350505050565b901515815260200190565b60208082526023908201527f45524332303a207472616e7366657220746f20746865207a65726f206164647260408201526265737360e81b606082015260800190565b60208082526026908201527f4f776e61626c653a206e6577206f776e657220697320746865207a65726f206160408201526564647265737360d01b606082015260800190565b60208082526022908201527f45524332303a20617070726f766520746f20746865207a65726f206164647265604082015261737360f01b606082015260800190565b60208082526010908201526f185c1c1c9bdd985b0b5c99599d5cd95960821b604082015260600190565b6020808252818101527f4f776e61626c653a2063616c6c6572206973206e6f7420746865206f776e6572604082015260600190565b60208082526025908201527f45524332303a207472616e736665722066726f6d20746865207a65726f206164604082015264647265737360d81b606082015260800190565b60208082526024908201527f45524332303a20617070726f76652066726f6d20746865207a65726f206164646040820152637265737360e01b606082015260800190565b90815260200190565b6001600160a01b038116811461045357600080fdfea2646970667358221220dc8b864d317a2abb977ac69134ae1e5d5e8fb125edc029cd2850f2e00379e27764736f6c634300060400338be0079c531659141344cd1fd0a4f28419497f9722a3daafe3b4186f6b6457e0",
  "source": "pragma solidity ^0.6.0;\npragma experimental ABIEncoderV2;\n\nimport \"./IexecERC20Common.sol\";\nimport \"../DelegateBase.sol\";\nimport \"../interfaces/IexecERC20.sol\";\nimport \"../interfaces/IexecTokenSpender.sol\";\n\n\ncontract IexecERC20Delegate is IexecERC20, DelegateBase, IexecERC20Common\n{\n\tfunction transfer(address recipient, uint256 amount)\n\texternal override returns (bool)\n\t{\n\t\t\t_transfer(_msgSender(), recipient, amount);\n\t\t\treturn true;\n\t}\n\n\tfunction approve(address spender, uint256 value)\n\texternal override returns (bool)\n\t{\n\t\t\t_approve(_msgSender(), spender, value);\n\t\t\treturn true;\n\t}\n\n\tfunction approveAndCall(address spender, uint256 value, bytes calldata extraData)\n\texternal override returns (bool)\n\t{\n\t\t\t_approve(_msgSender(), spender, value);\n\t\t\trequire(IexecTokenSpender(spender).receiveApproval(_msgSender(), value, address(this), extraData), 'approval-refused');\n\t\t\treturn true;\n\t}\n\n\tfunction transferFrom(address sender, address recipient, uint256 amount)\n\texternal override returns (bool)\n\t{\n\t\t\t_transfer(sender, recipient, amount);\n\t\t\t_approve(sender, _msgSender(), m_allowances[sender][_msgSender()].sub(amount));\n\t\t\treturn true;\n\t}\n\n\tfunction increaseAllowance(address spender, uint256 addedValue)\n\texternal override returns (bool)\n\t{\n\t\t\t_approve(_msgSender(), spender, m_allowances[_msgSender()][spender].add(addedValue));\n\t\t\treturn true;\n\t}\n\n\n\tfunction decreaseAllowance(address spender, uint256 subtractedValue)\n\texternal override returns (bool)\n\t{\n\t\t\t_approve(_msgSender(), spender, m_allowances[_msgSender()][spender].sub(subtractedValue));\n\t\t\treturn true;\n\t}\n}\n",
  "sourcePath": "/home/amxx/Work/iExec/code/PoCo-dev/contracts/modules/delegates/IexecERC20Delegate.sol",
  "compiler": {
    "name": "solc",
    "version": "0.6.4+commit.1dca32f3.Emscripten.clang"
  },
  "schemaVersion": "3.0.23",
  "updatedAt": "2020-03-16T11:20:17.228Z",
  "devdoc": {
    "methods": {
      "isOwner()": {
        "details": "Returns true if the caller is the current owner."
      },
      "owner()": {
        "details": "Returns the address of the current owner."
      },
      "renounceOwnership()": {
        "details": "Leaves the contract without owner. It will not be possible to call `onlyOwner` functions anymore. Can only be called by the current owner.     * NOTE: Renouncing ownership will leave the contract without an owner, thereby removing any functionality that is only available to the owner."
      },
      "transferOwnership(address)": {
        "details": "Transfers ownership of the contract to a new account (`newOwner`). Can only be called by the current owner."
      }
    }
  },
  "userdoc": {
    "methods": {}
  }
}