{
  "contractName": "IexecEscrowTokenSwapDelegate",
  "abi": [
    {
      "anonymous": false,
      "inputs": [
        {
          "indexed": true,
          "internalType": "address",
          "name": "owner",
          "type": "address"
        },
        {
          "indexed": true,
          "internalType": "address",
          "name": "spender",
          "type": "address"
        },
        {
          "indexed": false,
          "internalType": "uint256",
          "name": "value",
          "type": "uint256"
        }
      ],
      "name": "Approval",
      "type": "event"
    },
    {
      "anonymous": false,
      "inputs": [
        {
          "indexed": false,
          "internalType": "address",
          "name": "owner",
          "type": "address"
        },
        {
          "indexed": false,
          "internalType": "uint256",
          "name": "amount",
          "type": "uint256"
        }
      ],
      "name": "Lock",
      "type": "event"
    },
    {
      "anonymous": false,
      "inputs": [
        {
          "indexed": true,
          "internalType": "address",
          "name": "previousOwner",
          "type": "address"
        },
        {
          "indexed": true,
          "internalType": "address",
          "name": "newOwner",
          "type": "address"
        }
      ],
      "name": "OwnershipTransferred",
      "type": "event"
    },
    {
      "anonymous": false,
      "inputs": [
        {
          "indexed": false,
          "internalType": "address",
          "name": "owner",
          "type": "address"
        },
        {
          "indexed": false,
          "internalType": "uint256",
          "name": "amount",
          "type": "uint256"
        },
        {
          "indexed": false,
          "internalType": "bytes32",
          "name": "ref",
          "type": "bytes32"
        }
      ],
      "name": "Reward",
      "type": "event"
    },
    {
      "anonymous": false,
      "inputs": [
        {
          "indexed": false,
          "internalType": "address",
          "name": "owner",
          "type": "address"
        },
        {
          "indexed": false,
          "internalType": "uint256",
          "name": "amount",
          "type": "uint256"
        },
        {
          "indexed": false,
          "internalType": "bytes32",
          "name": "ref",
          "type": "bytes32"
        }
      ],
      "name": "Seize",
      "type": "event"
    },
    {
      "anonymous": false,
      "inputs": [
        {
          "indexed": true,
          "internalType": "address",
          "name": "from",
          "type": "address"
        },
        {
          "indexed": true,
          "internalType": "address",
          "name": "to",
          "type": "address"
        },
        {
          "indexed": false,
          "internalType": "uint256",
          "name": "value",
          "type": "uint256"
        }
      ],
      "name": "Transfer",
      "type": "event"
    },
    {
      "anonymous": false,
      "inputs": [
        {
          "indexed": false,
          "internalType": "address",
          "name": "owner",
          "type": "address"
        },
        {
          "indexed": false,
          "internalType": "uint256",
          "name": "amount",
          "type": "uint256"
        }
      ],
      "name": "Unlock",
      "type": "event"
    },
    {
      "stateMutability": "payable",
      "type": "fallback"
    },
    {
      "inputs": [],
      "name": "owner",
      "outputs": [
        {
          "internalType": "address",
          "name": "",
          "type": "address"
        }
      ],
      "stateMutability": "view",
      "type": "function"
    },
    {
      "inputs": [],
      "name": "renounceOwnership",
      "outputs": [],
      "stateMutability": "nonpayable",
      "type": "function"
    },
    {
      "inputs": [
        {
          "internalType": "address",
          "name": "newOwner",
          "type": "address"
        }
      ],
      "name": "transferOwnership",
      "outputs": [],
      "stateMutability": "nonpayable",
      "type": "function"
    },
    {
      "stateMutability": "payable",
      "type": "receive"
    },
    {
      "inputs": [],
      "name": "UniswapV2Router",
      "outputs": [
        {
          "internalType": "contract IUniswapV2Router02",
          "name": "",
          "type": "address"
        }
      ],
      "stateMutability": "view",
      "type": "function"
    },
    {
      "inputs": [
        {
          "internalType": "uint256",
          "name": "eth",
          "type": "uint256"
        }
      ],
      "name": "estimateDepositEthSent",
      "outputs": [
        {
          "internalType": "uint256",
          "name": "token",
          "type": "uint256"
        }
      ],
      "stateMutability": "view",
      "type": "function"
    },
    {
      "inputs": [
        {
          "internalType": "uint256",
          "name": "token",
          "type": "uint256"
        }
      ],
      "name": "estimateDepositTokenWanted",
      "outputs": [
        {
          "internalType": "uint256",
          "name": "eth",
          "type": "uint256"
        }
      ],
      "stateMutability": "view",
      "type": "function"
    },
    {
      "inputs": [
        {
          "internalType": "uint256",
          "name": "token",
          "type": "uint256"
        }
      ],
      "name": "estimateWithdrawTokenSent",
      "outputs": [
        {
          "internalType": "uint256",
          "name": "eth",
          "type": "uint256"
        }
      ],
      "stateMutability": "view",
      "type": "function"
    },
    {
      "inputs": [
        {
          "internalType": "uint256",
          "name": "eth",
          "type": "uint256"
        }
      ],
      "name": "estimateWithdrawEthWanted",
      "outputs": [
        {
          "internalType": "uint256",
          "name": "token",
          "type": "uint256"
        }
      ],
      "stateMutability": "view",
      "type": "function"
    },
    {
      "inputs": [],
      "name": "depositEth",
      "outputs": [],
      "stateMutability": "payable",
      "type": "function"
    },
    {
      "inputs": [
        {
          "internalType": "address",
          "name": "target",
          "type": "address"
        }
      ],
      "name": "depositEthFor",
      "outputs": [],
      "stateMutability": "payable",
      "type": "function"
    },
    {
      "inputs": [
        {
          "internalType": "uint256",
          "name": "minimum",
          "type": "uint256"
        }
      ],
      "name": "safeDepositEth",
      "outputs": [],
      "stateMutability": "payable",
      "type": "function"
    },
    {
      "inputs": [
        {
          "internalType": "uint256",
          "name": "minimum",
          "type": "uint256"
        },
        {
          "internalType": "address",
          "name": "target",
          "type": "address"
        }
      ],
      "name": "safeDepositEthFor",
      "outputs": [],
      "stateMutability": "payable",
      "type": "function"
    },
    {
      "inputs": [
        {
          "internalType": "uint256",
          "name": "amount",
          "type": "uint256"
        }
      ],
      "name": "requestToken",
      "outputs": [],
      "stateMutability": "payable",
      "type": "function"
    },
    {
      "inputs": [
        {
          "internalType": "uint256",
          "name": "amount",
          "type": "uint256"
        },
        {
          "internalType": "address",
          "name": "target",
          "type": "address"
        }
      ],
      "name": "requestTokenFor",
      "outputs": [],
      "stateMutability": "payable",
      "type": "function"
    },
    {
      "inputs": [
        {
          "internalType": "uint256",
          "name": "amount",
          "type": "uint256"
        }
      ],
      "name": "withdrawEth",
      "outputs": [],
      "stateMutability": "nonpayable",
      "type": "function"
    },
    {
      "inputs": [
        {
          "internalType": "uint256",
          "name": "amount",
          "type": "uint256"
        },
        {
          "internalType": "address",
          "name": "target",
          "type": "address"
        }
      ],
      "name": "withdrawEthTo",
      "outputs": [],
      "stateMutability": "nonpayable",
      "type": "function"
    },
    {
      "inputs": [
        {
          "internalType": "uint256",
          "name": "amount",
          "type": "uint256"
        },
        {
          "internalType": "uint256",
          "name": "minimum",
          "type": "uint256"
        }
      ],
      "name": "safeWithdrawEth",
      "outputs": [],
      "stateMutability": "nonpayable",
      "type": "function"
    },
    {
      "inputs": [
        {
          "internalType": "uint256",
          "name": "amount",
          "type": "uint256"
        },
        {
          "internalType": "uint256",
          "name": "minimum",
          "type": "uint256"
        },
        {
          "internalType": "address",
          "name": "target",
          "type": "address"
        }
      ],
      "name": "safeWithdrawEthTo",
      "outputs": [],
      "stateMutability": "nonpayable",
      "type": "function"
    },
    {
      "inputs": [
        {
          "components": [
            {
              "internalType": "address",
              "name": "app",
              "type": "address"
            },
            {
              "internalType": "uint256",
              "name": "appprice",
              "type": "uint256"
            },
            {
              "internalType": "uint256",
              "name": "volume",
              "type": "uint256"
            },
            {
              "internalType": "bytes32",
              "name": "tag",
              "type": "bytes32"
            },
            {
              "internalType": "address",
              "name": "datasetrestrict",
              "type": "address"
            },
            {
              "internalType": "address",
              "name": "workerpoolrestrict",
              "type": "address"
            },
            {
              "internalType": "address",
              "name": "requesterrestrict",
              "type": "address"
            },
            {
              "internalType": "bytes32",
              "name": "salt",
              "type": "bytes32"
            },
            {
              "internalType": "bytes",
              "name": "sign",
              "type": "bytes"
            }
          ],
          "internalType": "struct IexecLibOrders_v5.AppOrder",
          "name": "_apporder",
          "type": "tuple"
        },
        {
          "components": [
            {
              "internalType": "address",
              "name": "dataset",
              "type": "address"
            },
            {
              "internalType": "uint256",
              "name": "datasetprice",
              "type": "uint256"
            },
            {
              "internalType": "uint256",
              "name": "volume",
              "type": "uint256"
            },
            {
              "internalType": "bytes32",
              "name": "tag",
              "type": "bytes32"
            },
            {
              "internalType": "address",
              "name": "apprestrict",
              "type": "address"
            },
            {
              "internalType": "address",
              "name": "workerpoolrestrict",
              "type": "address"
            },
            {
              "internalType": "address",
              "name": "requesterrestrict",
              "type": "address"
            },
            {
              "internalType": "bytes32",
              "name": "salt",
              "type": "bytes32"
            },
            {
              "internalType": "bytes",
              "name": "sign",
              "type": "bytes"
            }
          ],
          "internalType": "struct IexecLibOrders_v5.DatasetOrder",
          "name": "_datasetorder",
          "type": "tuple"
        },
        {
          "components": [
            {
              "internalType": "address",
              "name": "workerpool",
              "type": "address"
            },
            {
              "internalType": "uint256",
              "name": "workerpoolprice",
              "type": "uint256"
            },
            {
              "internalType": "uint256",
              "name": "volume",
              "type": "uint256"
            },
            {
              "internalType": "bytes32",
              "name": "tag",
              "type": "bytes32"
            },
            {
              "internalType": "uint256",
              "name": "category",
              "type": "uint256"
            },
            {
              "internalType": "uint256",
              "name": "trust",
              "type": "uint256"
            },
            {
              "internalType": "address",
              "name": "apprestrict",
              "type": "address"
            },
            {
              "internalType": "address",
              "name": "datasetrestrict",
              "type": "address"
            },
            {
              "internalType": "address",
              "name": "requesterrestrict",
              "type": "address"
            },
            {
              "internalType": "bytes32",
              "name": "salt",
              "type": "bytes32"
            },
            {
              "internalType": "bytes",
              "name": "sign",
              "type": "bytes"
            }
          ],
          "internalType": "struct IexecLibOrders_v5.WorkerpoolOrder",
          "name": "_workerpoolorder",
          "type": "tuple"
        },
        {
          "components": [
            {
              "internalType": "address",
              "name": "app",
              "type": "address"
            },
            {
              "internalType": "uint256",
              "name": "appmaxprice",
              "type": "uint256"
            },
            {
              "internalType": "address",
              "name": "dataset",
              "type": "address"
            },
            {
              "internalType": "uint256",
              "name": "datasetmaxprice",
              "type": "uint256"
            },
            {
              "internalType": "address",
              "name": "workerpool",
              "type": "address"
            },
            {
              "internalType": "uint256",
              "name": "workerpoolmaxprice",
              "type": "uint256"
            },
            {
              "internalType": "address",
              "name": "requester",
              "type": "address"
            },
            {
              "internalType": "uint256",
              "name": "volume",
              "type": "uint256"
            },
            {
              "internalType": "bytes32",
              "name": "tag",
              "type": "bytes32"
            },
            {
              "internalType": "uint256",
              "name": "category",
              "type": "uint256"
            },
            {
              "internalType": "uint256",
              "name": "trust",
              "type": "uint256"
            },
            {
              "internalType": "address",
              "name": "beneficiary",
              "type": "address"
            },
            {
              "internalType": "address",
              "name": "callback",
              "type": "address"
            },
            {
              "internalType": "string",
              "name": "params",
              "type": "string"
            },
            {
              "internalType": "bytes32",
              "name": "salt",
              "type": "bytes32"
            },
            {
              "internalType": "bytes",
              "name": "sign",
              "type": "bytes"
            }
          ],
          "internalType": "struct IexecLibOrders_v5.RequestOrder",
          "name": "_requestorder",
          "type": "tuple"
        }
      ],
      "name": "matchOrdersWithEth",
      "outputs": [
        {
          "internalType": "bytes32",
          "name": "",
          "type": "bytes32"
        }
      ],
      "stateMutability": "payable",
      "type": "function"
    }
  ],
  "bytecode": "0x60806040523480156200001157600080fd5b5060006200001e62000067565b600080546001600160a01b0319166001600160a01b03831690811782556040519293509160008051602062001fba833981519152908290a350620000616200006b565b6200011c565b3390565b6200007562000067565b6000546001600160a01b03908116911614620000ae5760405162461bcd60e51b8152600401620000a590620000e7565b60405180910390fd5b600080546040516001600160a01b039091169060008051602062001fba833981519152908390a3600080546001600160a01b0319169055565b6020808252818101527f4f776e61626c653a2063616c6c6572206973206e6f7420746865206f776e6572604082015260600190565b611e8e806200012c6000396000f3fe6080604052600436106101185760003560e01c8063602881da116100a0578063a885d19a11610064578063a885d19a146102e8578063c311d04914610308578063ed52d5cb14610328578063eee3f07a14610348578063f2fde38b1461035b5761015c565b8063602881da1461026b578063715018a61461028b5780638da5cb5b146102a057806397eb9764146102b5578063a1ac77ed146102d55761015c565b80632b4df9d3116100e75780632b4df9d31461020a578063350d3d301461021d5780633bec2cbc1461023057806342f32b8014610243578063439370b1146102635761015c565b8063055add0d1461017d5780631991f410146101a85780631cdec20c146101d5578063235e7ab1146101f55761015c565b3661015c57600061012761037b565b90506001600160a01b038116737a250d5630b4cf539739df2c5dacb4c659f2488d14610159576101598134600061037f565b50005b60405162461bcd60e51b8152600401610174906119dc565b60405180910390fd5b34801561018957600080fd5b50610192610445565b60405161019f919061192b565b60405180910390f35b3480156101b457600080fd5b506101c86101c336600461164c565b61045d565b60405161019f9190611958565b3480156101e157600080fd5b506101c86101f036600461164c565b61050e565b610208610203366004611664565b6105b0565b005b61020861021836600461164c565b6105bf565b61020861022b366004611664565b6105d4565b6101c861023e3660046114e8565b6105df565b34801561024f57600080fd5b5061020861025e366004611693565b6108d0565b6102086108e2565b34801561027757600080fd5b50610208610286366004611664565b6108f7565b34801561029757600080fd5b50610208610903565b3480156102ac57600080fd5b50610192610982565b3480156102c157600080fd5b506101c86102d036600461164c565b610991565b6102086102e336600461164c565b6109b6565b3480156102f457600080fd5b506101c861030336600461164c565b6109c8565b34801561031457600080fd5b5061020861032336600461164c565b6109ed565b34801561033457600080fd5b506102086103433660046116b4565b610a00565b6102086103563660046113e3565b610a10565b34801561036757600080fd5b506102086103763660046113e3565b610a1c565b3390565b6060737a250d5630b4cf539739df2c5dacb4c659f2488d637ff36ab584846103a5610ad2565b30426001016040518663ffffffff1660e01b81526004016103c99493929190611d8b565b6000604051808303818588803b1580156103e257600080fd5b505af11580156103f6573d6000803e3d6000fd5b50505050506040513d6000823e601f3d908101601f1916820160405261041f919081019061141b565b905061043f848260018151811061043257fe5b6020026020010151610bd0565b50505050565b737a250d5630b4cf539739df2c5dacb4c659f2488d90565b6000737a250d5630b4cf539739df2c5dacb4c659f2488d631f00ca7483610482610c90565b6040518363ffffffff1660e01b815260040161049f929190611d72565b60006040518083038186803b1580156104b757600080fd5b505afa1580156104cb573d6000803e3d6000fd5b505050506040513d6000823e601f3d908101601f191682016040526104f3919081019061141b565b6000815181106104ff57fe5b60200260200101519050919050565b6000737a250d5630b4cf539739df2c5dacb4c659f2488d63d06ca61f83610533610ad2565b6040518363ffffffff1660e01b8152600401610550929190611d72565b60006040518083038186803b15801561056857600080fd5b505afa15801561057c573d6000803e3d6000fd5b505050506040513d6000823e601f3d908101601f191682016040526105a4919081019061141b565b6001815181106104ff57fe5b6105bb813484610d80565b5050565b6105d16105ca61037b565b3483610d80565b50565b6105bb81348461037f565b6000806106a66012600061067d8973__IexecLibOrders_v5_____________________637c0d54d390916040518263ffffffff1660e01b81526004016106259190611aaf565b60206040518083038186803b15801561063d57600080fd5b505af4158015610651573d6000803e3d6000fd5b505050506040513d601f19601f8201168201806040525081019061067591906114d0565b601054610ee3565b805190602001208152602001908152602001600020548760400151610f1090919063ffffffff16565b85519091506001600160a01b031615610709576107066106ff6012600061067d8973__IexecLibOrders_v5_____________________6311b2eee290916040518263ffffffff1660e01b81526004016106259190611aaf565b8290610f25565b90505b6107786106ff6012600061074f8873__IexecLibOrders_v5_____________________63fed985fe90916040518263ffffffff1660e01b81526004016106259190611cc2565b805190602001208152602001908152602001600020548660400151610f1090919063ffffffff16565b90506107e96106ff601260006107c08773__IexecLibOrders_v5_____________________638ac03f3390916040518263ffffffff1660e01b81526004016106259190611bb2565b805190602001208152602001908152602001600020548560e00151610f1090919063ffffffff16565b905061084b8360c001513461084684610840896020015161083a60006001600160a01b03168d600001516001600160a01b0316141561082957600061082f565b8c602001515b60208f015190610f3d565b90610f3d565b90610f4f565b610d80565b604051630558653560e21b8152309063156194d490610874908990899089908990600401611ac2565b602060405180830381600087803b15801561088e57600080fd5b505af11580156108a2573d6000803e3d6000fd5b505050506040513d601f19601f820116820180604052508101906108c691906114d0565b9695505050505050565b6105bb6108db61037b565b8383610f76565b6108f56108ed61037b565b34600061037f565b565b6105bb81836000610f76565b61090b61037b565b6000546001600160a01b039081169116146109385760405162461bcd60e51b8152600401610174906119a7565b600080546040516001600160a01b03909116907f8be0079c531659141344cd1fd0a4f28419497f9722a3daafe3b4186f6b6457e0908390a3600080546001600160a01b0319169055565b6000546001600160a01b031690565b6000737a250d5630b4cf539739df2c5dacb4c659f2488d631f00ca7483610482610ad2565b6105d16109c161037b565b348361037f565b6000737a250d5630b4cf539739df2c5dacb4c659f2488d63d06ca61f83610533610c90565b6105d16109f861037b565b826000610f76565b610a0b818484610f76565b505050565b6105d18134600061037f565b610a2461037b565b6000546001600160a01b03908116911614610a515760405162461bcd60e51b8152600401610174906119a7565b6001600160a01b038116610a775760405162461bcd60e51b815260040161017490611961565b600080546040516001600160a01b03808516939216917f8be0079c531659141344cd1fd0a4f28419497f9722a3daafe3b4186f6b6457e091a3600080546001600160a01b0319166001600160a01b0392909216919091179055565b604080516002808252606080830184529283929190602083019080368337019050509050737a250d5630b4cf539739df2c5dacb4c659f2488d6001600160a01b031663ad5c46486040518163ffffffff1660e01b815260040160206040518083038186803b158015610b4357600080fd5b505afa158015610b57573d6000803e3d6000fd5b505050506040513d601f19601f82011682018060405250810190610b7b91906113ff565b81600081518110610b8857fe5b6001600160a01b039283166020918202929092010152600854825191169082906001908110610bb357fe5b6001600160a01b0390921660209283029190910190910152905090565b6001600160a01b038216610bf65760405162461bcd60e51b815260040161017490611a78565b610c0260008383610a0b565b600c54610c0f9082610f3d565b600c556001600160a01b0382166000908152600d6020526040902054610c359082610f3d565b6001600160a01b0383166000818152600d60205260408082209390935591519091907fddf252ad1be2c89b69c2b068fc378daa952ba7f163c4a11628f55a4df523b3ef90610c84908590611958565b60405180910390a35050565b604080516002808252606080830184529283929190602083019080368337505060085482519293506001600160a01b031691839150600090610cce57fe5b60200260200101906001600160a01b031690816001600160a01b031681525050737a250d5630b4cf539739df2c5dacb4c659f2488d6001600160a01b031663ad5c46486040518163ffffffff1660e01b815260040160206040518083038186803b158015610d3b57600080fd5b505afa158015610d4f573d6000803e3d6000fd5b505050506040513d601f19601f82011682018060405250810190610d7391906113ff565b81600181518110610bb357fe5b6060737a250d5630b4cf539739df2c5dacb4c659f2488d63fb3bdb418484610da6610ad2565b30426001016040518663ffffffff1660e01b8152600401610dca9493929190611d8b565b6000604051808303818588803b158015610de357600080fd5b505af1158015610df7573d6000803e3d6000fd5b50505050506040513d6000823e601f3d908101601f19168201604052610e20919081019061141b565b9050610e33848260018151811061043257fe5b6000610e3d61037b565b6001600160a01b0316610e6d83600081518110610e5657fe5b602002602001015186610f1090919063ffffffff16565b604051610e7990611928565b60006040518083038185875af1925050503d8060008114610eb6576040519150601f19603f3d011682016040523d82523d6000602084013e610ebb565b606091505b5050905080610edc5760405162461bcd60e51b815260040161017490611a48565b5050505050565b60608183604051602001610ef892919061190d565b60405160208183030381529060405290505b92915050565b600082821115610f1f57600080fd5b50900390565b6000818310610f345781610f36565b825b9392505050565b600082820183811015610f3657600080fd5b600082610f5e57506000610f0a565b82820282848281610f6b57fe5b0414610f3657600080fd5b60085460405163095ea7b360e01b81526001600160a01b039091169063095ea7b390610fbc90737a250d5630b4cf539739df2c5dacb4c659f2488d90869060040161193f565b602060405180830381600087803b158015610fd657600080fd5b505af1158015610fea573d6000803e3d6000fd5b505050506040513d601f19601f8201168201806040525081019061100e91906114b0565b506060737a250d5630b4cf539739df2c5dacb4c659f2488d6318cbafe58484611035610c90565b88426001016040518663ffffffff1660e01b815260040161105a959493929190611dc0565b600060405180830381600087803b15801561107457600080fd5b505af1158015611088573d6000803e3d6000fd5b505050506040513d6000823e601f3d908101601f191682016040526110b0919081019061141b565b905061043f6110bd61037b565b826000815181106110ca57fe5b60200260200101516001600160a01b0382166110f85760405162461bcd60e51b815260040161017490611a07565b61110482600083610a0b565b600c546111119082610f10565b600c556001600160a01b0382166000908152600d60205260409020546111379082610f10565b6001600160a01b0383166000818152600d60205260408082209390935591517fddf252ad1be2c89b69c2b068fc378daa952ba7f163c4a11628f55a4df523b3ef90610c84908590611958565b8035610f0a81611e43565b600082601f83011261119e578081fd5b813567ffffffffffffffff8111156111b4578182fd5b6111c7601f8201601f1916602001611dfc565b91508082528360208285010111156111de57600080fd5b8060208401602084013760009082016020015292915050565b600061012080838503121561120a578182fd5b61121381611dfc565b9150506112208383611183565b815260208201356020820152604082013560408201526060820135606082015261124d8360808401611183565b608082015261125f8360a08401611183565b60a08201526112718360c08401611183565b60c082015260e082013560e08201526101008083013567ffffffffffffffff81111561129c57600080fd5b6112a88582860161118e565b82840152505092915050565b60006102008083850312156112c7578182fd5b6112d081611dfc565b9150506112dd8383611183565b8152602082013560208201526112f68360408401611183565b6040820152606082013560608201526113128360808401611183565b608082015260a082013560a082015261132e8360c08401611183565b60c082015260e0828101359082015261010080830135908201526101208083013590820152610140808301359082015261016061136d84828501611183565b9082015261018061138084848301611183565b908201526101a08281013567ffffffffffffffff808211156113a157600080fd5b6113ad8683870161118e565b838501526101c0925082850135838501526101e09250828501359150808211156113d657600080fd5b506112a88582860161118e565b6000602082840312156113f4578081fd5b8135610f3681611e43565b600060208284031215611410578081fd5b8151610f3681611e43565b6000602080838503121561142d578182fd5b825167ffffffffffffffff811115611443578283fd5b8301601f81018513611453578283fd5b805161146661146182611e23565b611dfc565b8181528381019083850185840285018601891015611482578687fd5b8694505b838510156114a4578051835260019490940193918501918501611486565b50979650505050505050565b6000602082840312156114c1578081fd5b81518015158114610f36578182fd5b6000602082840312156114e1578081fd5b5051919050565b600080600080608085870312156114fd578283fd5b843567ffffffffffffffff80821115611514578485fd5b611520888389016111f7565b95506020870135915080821115611535578485fd5b611541888389016111f7565b94506040870135915080821115611556578384fd5b818701915061016080838a03121561156c578485fd5b61157581611dfc565b90506115818984611183565b81526020830135602082015260408301356040820152606083013560608201526080830135608082015260a083013560a08201526115c28960c08501611183565b60c08201526115d48960e08501611183565b60e08201526101006115e88a828601611183565b908201526101208381013590820152610140808401358381111561160a578687fd5b6116168b82870161118e565b828401525050809450506060870135915080821115611633578283fd5b50611640878288016112b4565b91505092959194509250565b60006020828403121561165d578081fd5b5035919050565b60008060408385031215611676578182fd5b82359150602083013561168881611e43565b809150509250929050565b600080604083850312156116a5578182fd5b50508035926020909101359150565b6000806000606084860312156116c8578081fd5b833592506020840135915060408401356116e181611e43565b809150509250925092565b6001600160a01b03169052565b6000815180845260208085019450808401835b838110156117315781516001600160a01b03168752958201959082019060010161170c565b509495945050505050565b60008151808452815b8181101561176157602081850181015186830182015201611745565b818111156117725782602083870101525b50601f01601f19169290920160200192915050565b600061012060018060a01b03835116845260208301516020850152604083015160408501526060830151606085015260808301516117c860808601826116ec565b5060a08301516117db60a08601826116ec565b5060c08301516117ee60c08601826116ec565b5060e083015160e08501526101008084015182828701526108c68387018261173c565b60006102006118218484516116ec565b60208301516020850152604083015161183d60408601826116ec565b5060608301516060850152608083015161185a60808601826116ec565b5060a083015160a085015260c083015161187760c08601826116ec565b5060e08381015190850152610100808401519085015261012080840151908501526101408084015190850152610160808401516118b6828701826116ec565b5050610180808401516118cb828701826116ec565b50506101a08084015182828701526118e58387018261173c565b925050506101c08084015181860152506101e080840151858303828701526108c6838261173c565b61190160f01b81526002810192909252602282015260420190565b90565b6001600160a01b0391909116815260200190565b6001600160a01b03929092168252602082015260400190565b90815260200190565b60208082526026908201527f4f776e61626c653a206e6577206f776e657220697320746865207a65726f206160408201526564647265737360d01b606082015260800190565b6020808252818101527f4f776e61626c653a2063616c6c6572206973206e6f7420746865206f776e6572604082015260600190565b60208082526011908201527019985b1b189858dacb591a5cd8589b1959607a1b604082015260600190565b60208082526021908201527f45524332303a206275726e2066726f6d20746865207a65726f206164647265736040820152607360f81b606082015260800190565b6020808252601690820152751b985d1a5d994b5d1c985b9cd9995c8b59985a5b195960521b604082015260600190565b6020808252601f908201527f45524332303a206d696e7420746f20746865207a65726f206164647265737300604082015260600190565b600060208252610f366020830184611787565b600060808252611ad56080830187611787565b8281036020840152611ae78187611787565b90508281036040840152610160611aff8287516116ec565b6020860151602083015260408601516040830152606086015160608301526080860151608083015260a086015160a083015260c0860151611b4360c08401826116ec565b5060e0860151611b5660e08401826116ec565b5061010080870151611b6a828501826116ec565b5050610120808701518184015250610140808701518282850152611b908385018261173c565b93505050508281036060840152611ba78185611811565b979650505050505050565b600060208252611bc66020830184516116ec565b602083015160408301526040830151611be260608401826116ec565b50606083015160808301526080830151611bff60a08401826116ec565b5060a083015160c083015260c0830151611c1c60e08401826116ec565b5060e083015161010083810191909152830151610120808401919091528301516101408084019190915283015161016080840191909152830151610180611c65818501836116ec565b84015190506101a0611c79848201836116ec565b808501519150506102006101c08181860152611c9961022086018461173c565b908601516101e086810191909152860151858203601f1901838701529092506108c6838261173c565b600060208252611cd66020830184516116ec565b602083015160408301526040830151606083015260608301516080830152608083015160a083015260a083015160c083015260c0830151611d1a60e08401826116ec565b5060e0830151610100611d2f818501836116ec565b8401519050610120611d43848201836116ec565b84015161014084810191909152840151610160808501529050611d6a61018084018261173c565b949350505050565b600083825260406020830152611d6a60408301846116f9565b600085825260806020830152611da460808301866116f9565b6001600160a01b03949094166040830152506060015292915050565b600086825285602083015260a06040830152611ddf60a08301866116f9565b6001600160a01b0394909416606083015250608001529392505050565b60405181810167ffffffffffffffff81118282101715611e1b57600080fd5b604052919050565b600067ffffffffffffffff821115611e39578081fd5b5060209081020190565b6001600160a01b03811681146105d157600080fdfea264697066735822122033117cabf81ccb8b2265ab3758f572c423941fbe962ccb149294acda08f1c1a964736f6c634300060c00338be0079c531659141344cd1fd0a4f28419497f9722a3daafe3b4186f6b6457e0",
  "immutableReferences": {},
  "source": "// SPDX-License-Identifier: Apache-2.0\n\n/******************************************************************************\n * Copyright 2020 IEXEC BLOCKCHAIN TECH                                       *\n *                                                                            *\n * Licensed under the Apache License, Version 2.0 (the \"License\");            *\n * you may not use this file except in compliance with the License.           *\n * You may obtain a copy of the License at                                    *\n *                                                                            *\n *     http://www.apache.org/licenses/LICENSE-2.0                             *\n *                                                                            *\n * Unless required by applicable law or agreed to in writing, software        *\n * distributed under the License is distributed on an \"AS IS\" BASIS,          *\n * WITHOUT WARRANTIES OR CONDITIONS OF ANY KIND, either express or implied.   *\n * See the License for the specific language governing permissions and        *\n * limitations under the License.                                             *\n ******************************************************************************/\n\npragma solidity ^0.6.0;\npragma experimental ABIEncoderV2;\n\nimport \"./IexecERC20Core.sol\";\nimport \"./SignatureVerifier.sol\";\nimport \"../DelegateBase.sol\";\nimport \"../interfaces/IexecEscrowTokenSwap.sol\";\nimport \"../interfaces/IexecPoco1.sol\";\n\n\ncontract IexecEscrowTokenSwapDelegate is IexecEscrowTokenSwap, DelegateBase, IexecERC20Core, SignatureVerifier\n{\n\tusing SafeMathExtended  for uint256;\n\tusing IexecLibOrders_v5 for IexecLibOrders_v5.AppOrder;\n\tusing IexecLibOrders_v5 for IexecLibOrders_v5.DatasetOrder;\n\tusing IexecLibOrders_v5 for IexecLibOrders_v5.WorkerpoolOrder;\n\tusing IexecLibOrders_v5 for IexecLibOrders_v5.RequestOrder;\n\n\tIUniswapV2Router02 internal constant router = IUniswapV2Router02(0x7a250d5630B4cF539739dF2C5dAcb4c659F2488D);\n\n\t/***************************************************************************\n\t *                                Accessor                                 *\n\t ***************************************************************************/\n\tfunction UniswapV2Router()\n\texternal view override returns (IUniswapV2Router02)\n\t{\n\t\treturn router;\n\t}\n\n\t/***************************************************************************\n\t *                         Uniswap path - Internal                         *\n\t ***************************************************************************/\n\tfunction _eth2token()\n\tinternal view returns (address[] memory)\n\t{\n\t\taddress[] memory path = new address[](2);\n\t\tpath[0] = router.WETH();\n\t\tpath[1] = address(m_baseToken);\n\t\treturn path;\n\t}\n\n\tfunction _token2eth()\n\tinternal view returns (address[] memory)\n\t{\n\t\taddress[] memory path = new address[](2);\n\t\tpath[0] = address(m_baseToken);\n\t\tpath[1] = router.WETH();\n\t\treturn path;\n\t}\n\n\t/***************************************************************************\n\t *                       Prediction methods - Public                       *\n\t ***************************************************************************/\n\tfunction estimateDepositEthSent    (uint256 eth  ) external view override returns (uint256 token) { return router.getAmountsOut(eth,   _eth2token())[1]; }\n\tfunction estimateDepositTokenWanted(uint256 token) external view override returns (uint256 eth  ) { return router.getAmountsIn (token, _eth2token())[0]; }\n\tfunction estimateWithdrawTokenSent (uint256 token) external view override returns (uint256 eth  ) { return router.getAmountsOut(token, _token2eth())[1]; }\n\tfunction estimateWithdrawEthWanted (uint256 eth  ) external view override returns (uint256 token) { return router.getAmountsIn (eth,   _token2eth())[0]; }\n\n\t/***************************************************************************\n\t *                        Swapping methods - Public                        *\n\t ***************************************************************************/\n\treceive()\n\texternal override payable\n\t{\n\t\taddress sender = _msgSender();\n\t\tif (sender != address(router))\n\t\t{\n\t\t\t_deposit(sender, msg.value, 0);\n\t\t}\n\t}\n\n\tfallback()\n\texternal override payable\n\t{\n\t\trevert('fallback-disabled');\n\t}\n\n\tfunction depositEth       (                                                ) external override payable {  _deposit(_msgSender(), msg.value, 0      ); }\n\tfunction depositEthFor    (                                  address target) external override payable {  _deposit(target,       msg.value, 0      ); }\n\tfunction safeDepositEth   (                 uint256 minimum                ) external override payable {  _deposit(_msgSender(), msg.value, minimum); }\n\tfunction safeDepositEthFor(                 uint256 minimum, address target) external override payable {  _deposit(target,       msg.value, minimum); }\n\tfunction requestToken     (uint256 amount                                  ) external override payable {  _request(_msgSender(), msg.value, amount ); }\n\tfunction requestTokenFor  (uint256 amount,                   address target) external override payable {  _request(target,       msg.value, amount ); }\n\tfunction withdrawEth      (uint256 amount                                  ) external override         { _withdraw(_msgSender(), amount,    0      ); }\n\tfunction withdrawEthTo    (uint256 amount,                   address target) external override         { _withdraw(target,       amount,    0      ); }\n\tfunction safeWithdrawEth  (uint256 amount,  uint256 minimum                ) external override         { _withdraw(_msgSender(), amount,    minimum); }\n\tfunction safeWithdrawEthTo(uint256 amount,  uint256 minimum, address target) external override         { _withdraw(target,       amount,    minimum); }\n\n\t/***************************************************************************\n\t *                       Swapping methods - Internal                       *\n\t ***************************************************************************/\n\tfunction _deposit(address target, uint256 value, uint256 minimum)\n\tinternal\n\t{\n\t\tuint256[] memory amounts = router.swapExactETHForTokens{value: value}(minimum, _eth2token(), address(this), now+1);\n\t\t_mint(target, amounts[1]);\n\t}\n\n\tfunction _request(address target, uint256 value, uint256 amount)\n\tinternal\n\t{\n\t\tuint256[] memory amounts = router.swapETHForExactTokens{value: value}(amount, _eth2token(), address(this), now+1);\n\t\t_mint(target, amounts[1]);\n\t\t// Refund remaining ETH\n\t\t(bool success, ) = _msgSender().call{value: value.sub(amounts[0])}('');\n\t\trequire(success, 'native-transfer-failed');\n\t}\n\n\tfunction _withdraw(address target, uint256 amount, uint256 minimum)\n\tinternal\n\t{\n\t\tm_baseToken.approve(address(router), amount);\n\t\tuint256[] memory amounts = router.swapExactTokensForETH(amount, minimum, _token2eth(), target, now+1);\n\t\t_burn(_msgSender(), amounts[0]);\n\t}\n\n\t/***************************************************************************\n\t *                          Extra public methods                           *\n\t ***************************************************************************/\n\tfunction matchOrdersWithEth(\n\t\tIexecLibOrders_v5.AppOrder        memory _apporder,\n\t\tIexecLibOrders_v5.DatasetOrder    memory _datasetorder,\n\t\tIexecLibOrders_v5.WorkerpoolOrder memory _workerpoolorder,\n\t\tIexecLibOrders_v5.RequestOrder    memory _requestorder)\n\tpublic payable override returns (bytes32)\n\t{\n\t\tuint256 volume;\n\t\tvolume =                   _apporder.volume.sub(m_consumed[keccak256(_toEthTypedStruct(       _apporder.hash(), EIP712DOMAIN_SEPARATOR))]);\n\t\tif (_datasetorder.dataset != address(0))\n\t\tvolume = volume.min(   _datasetorder.volume.sub(m_consumed[keccak256(_toEthTypedStruct(   _datasetorder.hash(), EIP712DOMAIN_SEPARATOR))]));\n\t\tvolume = volume.min(_workerpoolorder.volume.sub(m_consumed[keccak256(_toEthTypedStruct(_workerpoolorder.hash(), EIP712DOMAIN_SEPARATOR))]));\n\t\tvolume = volume.min(   _requestorder.volume.sub(m_consumed[keccak256(_toEthTypedStruct(   _requestorder.hash(), EIP712DOMAIN_SEPARATOR))]));\n\n\t\t_request(\n\t\t\t_requestorder.requester,\n\t\t\tmsg.value,\n\t\t\t_apporder.appprice\n\t\t\t.add(_datasetorder.dataset != address(0) ? _datasetorder.datasetprice : 0)\n\t\t\t.add(_workerpoolorder.workerpoolprice)\n\t\t\t.mul(volume)\n\t\t);\n\n\t\treturn IexecPoco1(address(this)).matchOrders(_apporder, _datasetorder, _workerpoolorder, _requestorder);\n\t}\n}\n",
  "sourcePath": "/home/amxx/Work/iExec/code/PoCo-dev/contracts/modules/delegates/IexecEscrowTokenSwapDelegate.sol",
  "compiler": {
    "name": "solc",
    "version": "0.6.12+commit.27d51765.Emscripten.clang"
  },
  "schemaVersion": "3.2.2",
  "updatedAt": "2020-11-09T09:15:00.591Z",
  "devdoc": {
    "kind": "dev",
    "methods": {
      "owner()": {
        "details": "Returns the address of the current owner."
      },
      "renounceOwnership()": {
        "details": "Leaves the contract without owner. It will not be possible to call `onlyOwner` functions anymore. Can only be called by the current owner. NOTE: Renouncing ownership will leave the contract without an owner, thereby removing any functionality that is only available to the owner."
      },
      "transferOwnership(address)": {
        "details": "Transfers ownership of the contract to a new account (`newOwner`). Can only be called by the current owner."
      }
    },
    "version": 1
  },
  "userdoc": {
    "kind": "user",
    "methods": {},
    "version": 1
  }
}