{
  "contractName": "IexecHubAccessor",
  "abi": [
    {
      "constant": true,
      "inputs": [],
      "name": "iexechub",
      "outputs": [
        {
          "name": "",
          "type": "address"
        }
      ],
      "payable": false,
      "stateMutability": "view",
      "type": "function"
    },
    {
      "inputs": [
        {
          "name": "_iexechub",
          "type": "address"
        }
      ],
      "payable": false,
      "stateMutability": "nonpayable",
      "type": "constructor"
    }
  ],
  "bytecode": "0x608060405234801561001057600080fd5b506040516020806101348339810180604052602081101561003057600080fd5b5051600160a060020a03811661004557600080fd5b60008054600160a060020a03909216600160a060020a031990921691909117905560c0806100746000396000f3fe6080604052348015600f57600080fd5b50600436106044577c010000000000000000000000000000000000000000000000000000000060003504638d52e41381146049575b600080fd5b604f6078565b6040805173ffffffffffffffffffffffffffffffffffffffff9092168252519081900360200190f35b60005473ffffffffffffffffffffffffffffffffffffffff168156fea165627a7a72305820fbec888bb7cfc2ac48dda069fea5a8ed950f8492a063d707ef66f25b0c0005490029",
  "source": "pragma solidity ^0.5.7;\n\nimport \"./IexecHubInterface.sol\";\n\ncontract IexecHubAccessor\n{\n\tIexecHubInterface public iexechub;\n\n\tmodifier onlyIexecHub()\n\t{\n\t\trequire(msg.sender == address(iexechub));\n\t\t_;\n\t}\n\n\tconstructor(address _iexechub)\n\tpublic\n\t{\n\t\trequire(_iexechub != address(0));\n\t\tiexechub = IexecHubInterface(_iexechub);\n\t}\n\n}\n",
  "sourcePath": "/home/ubuntu/jenkins-agent/workspace/PoCo-dev_lv3.0.30-3@2/contracts/IexecHubAccessor.sol",
  "compiler": {
    "name": "solc",
    "version": "0.5.7+commit.6da8b019.Emscripten.clang"
  },
  "schemaVersion": "3.0.6",
  "updatedAt": "2019-04-19T18:57:48.500Z",
  "devdoc": {
    "methods": {}
  },
  "userdoc": {
    "methods": {}
  }
}