{
  "contractName": "IexecHub",
  "abi": [
    {
      "constant": true,
      "inputs": [],
      "name": "m_contributionHistory",
      "outputs": [
        {
          "name": "success",
          "type": "uint256"
        },
        {
          "name": "failled",
          "type": "uint256"
        }
      ],
      "payable": false,
      "stateMutability": "view",
      "type": "function"
    },
    {
      "constant": true,
      "inputs": [],
      "name": "appHub",
      "outputs": [
        {
          "name": "",
          "type": "address"
        }
      ],
      "payable": false,
      "stateMutability": "view",
      "type": "function"
    },
    {
      "constant": true,
      "inputs": [],
      "name": "STAKE_BONUS_MIN_THRESHOLD",
      "outputs": [
        {
          "name": "",
          "type": "uint256"
        }
      ],
      "payable": false,
      "stateMutability": "view",
      "type": "function"
    },
    {
      "constant": true,
      "inputs": [
        {
          "name": "",
          "type": "address"
        }
      ],
      "name": "m_scores",
      "outputs": [
        {
          "name": "",
          "type": "uint256"
        }
      ],
      "payable": false,
      "stateMutability": "view",
      "type": "function"
    },
    {
      "constant": true,
      "inputs": [],
      "name": "workerPoolHub",
      "outputs": [
        {
          "name": "",
          "type": "address"
        }
      ],
      "payable": false,
      "stateMutability": "view",
      "type": "function"
    },
    {
      "constant": true,
      "inputs": [],
      "name": "SCORE_UNITARY_SLASH",
      "outputs": [
        {
          "name": "",
          "type": "uint256"
        }
      ],
      "payable": false,
      "stateMutability": "view",
      "type": "function"
    },
    {
      "constant": true,
      "inputs": [],
      "name": "STAKE_BONUS_RATIO",
      "outputs": [
        {
          "name": "",
          "type": "uint256"
        }
      ],
      "payable": false,
      "stateMutability": "view",
      "type": "function"
    },
    {
      "constant": true,
      "inputs": [],
      "name": "tokenAddress",
      "outputs": [
        {
          "name": "",
          "type": "address"
        }
      ],
      "payable": false,
      "stateMutability": "view",
      "type": "function"
    },
    {
      "constant": true,
      "inputs": [],
      "name": "m_categoriesCount",
      "outputs": [
        {
          "name": "",
          "type": "uint256"
        }
      ],
      "payable": false,
      "stateMutability": "view",
      "type": "function"
    },
    {
      "constant": true,
      "inputs": [],
      "name": "rlc",
      "outputs": [
        {
          "name": "",
          "type": "address"
        }
      ],
      "payable": false,
      "stateMutability": "view",
      "type": "function"
    },
    {
      "constant": true,
      "inputs": [],
      "name": "m_categoriesCreator",
      "outputs": [
        {
          "name": "",
          "type": "address"
        }
      ],
      "payable": false,
      "stateMutability": "view",
      "type": "function"
    },
    {
      "constant": true,
      "inputs": [],
      "name": "datasetHub",
      "outputs": [
        {
          "name": "",
          "type": "address"
        }
      ],
      "payable": false,
      "stateMutability": "view",
      "type": "function"
    },
    {
      "constant": true,
      "inputs": [
        {
          "name": "",
          "type": "address"
        }
      ],
      "name": "m_accounts",
      "outputs": [
        {
          "name": "stake",
          "type": "uint256"
        },
        {
          "name": "locked",
          "type": "uint256"
        }
      ],
      "payable": false,
      "stateMutability": "view",
      "type": "function"
    },
    {
      "constant": true,
      "inputs": [],
      "name": "marketplaceAddress",
      "outputs": [
        {
          "name": "",
          "type": "address"
        }
      ],
      "payable": false,
      "stateMutability": "view",
      "type": "function"
    },
    {
      "constant": true,
      "inputs": [
        {
          "name": "",
          "type": "uint256"
        }
      ],
      "name": "m_categories",
      "outputs": [
        {
          "name": "catid",
          "type": "uint256"
        },
        {
          "name": "name",
          "type": "string"
        },
        {
          "name": "description",
          "type": "string"
        },
        {
          "name": "workClockTimeRef",
          "type": "uint256"
        }
      ],
      "payable": false,
      "stateMutability": "view",
      "type": "function"
    },
    {
      "inputs": [],
      "payable": false,
      "stateMutability": "nonpayable",
      "type": "constructor"
    },
    {
      "anonymous": false,
      "inputs": [
        {
          "indexed": false,
          "name": "woid",
          "type": "address"
        },
        {
          "indexed": true,
          "name": "workerPool",
          "type": "address"
        }
      ],
      "name": "WorkOrderActivated",
      "type": "event"
    },
    {
      "anonymous": false,
      "inputs": [
        {
          "indexed": false,
          "name": "woid",
          "type": "address"
        },
        {
          "indexed": false,
          "name": "workerPool",
          "type": "address"
        }
      ],
      "name": "WorkOrderClaimed",
      "type": "event"
    },
    {
      "anonymous": false,
      "inputs": [
        {
          "indexed": false,
          "name": "woid",
          "type": "address"
        },
        {
          "indexed": false,
          "name": "workerPool",
          "type": "address"
        }
      ],
      "name": "WorkOrderCompleted",
      "type": "event"
    },
    {
      "anonymous": false,
      "inputs": [
        {
          "indexed": true,
          "name": "appOwner",
          "type": "address"
        },
        {
          "indexed": true,
          "name": "app",
          "type": "address"
        },
        {
          "indexed": false,
          "name": "appName",
          "type": "string"
        },
        {
          "indexed": false,
          "name": "appPrice",
          "type": "uint256"
        },
        {
          "indexed": false,
          "name": "appParams",
          "type": "string"
        }
      ],
      "name": "CreateApp",
      "type": "event"
    },
    {
      "anonymous": false,
      "inputs": [
        {
          "indexed": true,
          "name": "datasetOwner",
          "type": "address"
        },
        {
          "indexed": true,
          "name": "dataset",
          "type": "address"
        },
        {
          "indexed": false,
          "name": "datasetName",
          "type": "string"
        },
        {
          "indexed": false,
          "name": "datasetPrice",
          "type": "uint256"
        },
        {
          "indexed": false,
          "name": "datasetParams",
          "type": "string"
        }
      ],
      "name": "CreateDataset",
      "type": "event"
    },
    {
      "anonymous": false,
      "inputs": [
        {
          "indexed": true,
          "name": "workerPoolOwner",
          "type": "address"
        },
        {
          "indexed": true,
          "name": "workerPool",
          "type": "address"
        },
        {
          "indexed": false,
          "name": "workerPoolDescription",
          "type": "string"
        }
      ],
      "name": "CreateWorkerPool",
      "type": "event"
    },
    {
      "anonymous": false,
      "inputs": [
        {
          "indexed": false,
          "name": "catid",
          "type": "uint256"
        },
        {
          "indexed": false,
          "name": "name",
          "type": "string"
        },
        {
          "indexed": false,
          "name": "description",
          "type": "string"
        },
        {
          "indexed": false,
          "name": "workClockTimeRef",
          "type": "uint256"
        }
      ],
      "name": "CreateCategory",
      "type": "event"
    },
    {
      "anonymous": false,
      "inputs": [
        {
          "indexed": true,
          "name": "workerPool",
          "type": "address"
        },
        {
          "indexed": false,
          "name": "worker",
          "type": "address"
        }
      ],
      "name": "WorkerPoolSubscription",
      "type": "event"
    },
    {
      "anonymous": false,
      "inputs": [
        {
          "indexed": true,
          "name": "workerPool",
          "type": "address"
        },
        {
          "indexed": false,
          "name": "worker",
          "type": "address"
        }
      ],
      "name": "WorkerPoolUnsubscription",
      "type": "event"
    },
    {
      "anonymous": false,
      "inputs": [
        {
          "indexed": true,
          "name": "workerPool",
          "type": "address"
        },
        {
          "indexed": false,
          "name": "worker",
          "type": "address"
        }
      ],
      "name": "WorkerPoolEviction",
      "type": "event"
    },
    {
      "anonymous": false,
      "inputs": [
        {
          "indexed": false,
          "name": "woid",
          "type": "address"
        },
        {
          "indexed": true,
          "name": "worker",
          "type": "address"
        }
      ],
      "name": "AccurateContribution",
      "type": "event"
    },
    {
      "anonymous": false,
      "inputs": [
        {
          "indexed": false,
          "name": "woid",
          "type": "address"
        },
        {
          "indexed": true,
          "name": "worker",
          "type": "address"
        }
      ],
      "name": "FaultyContribution",
      "type": "event"
    },
    {
      "anonymous": false,
      "inputs": [
        {
          "indexed": false,
          "name": "owner",
          "type": "address"
        },
        {
          "indexed": false,
          "name": "amount",
          "type": "uint256"
        }
      ],
      "name": "Deposit",
      "type": "event"
    },
    {
      "anonymous": false,
      "inputs": [
        {
          "indexed": false,
          "name": "owner",
          "type": "address"
        },
        {
          "indexed": false,
          "name": "amount",
          "type": "uint256"
        }
      ],
      "name": "Withdraw",
      "type": "event"
    },
    {
      "anonymous": false,
      "inputs": [
        {
          "indexed": false,
          "name": "user",
          "type": "address"
        },
        {
          "indexed": false,
          "name": "amount",
          "type": "uint256"
        }
      ],
      "name": "Reward",
      "type": "event"
    },
    {
      "anonymous": false,
      "inputs": [
        {
          "indexed": false,
          "name": "user",
          "type": "address"
        },
        {
          "indexed": false,
          "name": "amount",
          "type": "uint256"
        }
      ],
      "name": "Seize",
      "type": "event"
    },
    {
      "constant": false,
      "inputs": [
        {
          "name": "_tokenAddress",
          "type": "address"
        },
        {
          "name": "_marketplaceAddress",
          "type": "address"
        },
        {
          "name": "_workerPoolHubAddress",
          "type": "address"
        },
        {
          "name": "_appHubAddress",
          "type": "address"
        },
        {
          "name": "_datasetHubAddress",
          "type": "address"
        }
      ],
      "name": "attachContracts",
      "outputs": [],
      "payable": false,
      "stateMutability": "nonpayable",
      "type": "function"
    },
    {
      "constant": false,
      "inputs": [
        {
          "name": "_categoriesCreator",
          "type": "address"
        }
      ],
      "name": "setCategoriesCreator",
      "outputs": [],
      "payable": false,
      "stateMutability": "nonpayable",
      "type": "function"
    },
    {
      "constant": false,
      "inputs": [
        {
          "name": "_name",
          "type": "string"
        },
        {
          "name": "_description",
          "type": "string"
        },
        {
          "name": "_workClockTimeRef",
          "type": "uint256"
        }
      ],
      "name": "createCategory",
      "outputs": [
        {
          "name": "catid",
          "type": "uint256"
        }
      ],
      "payable": false,
      "stateMutability": "nonpayable",
      "type": "function"
    },
    {
      "constant": false,
      "inputs": [
        {
          "name": "_description",
          "type": "string"
        },
        {
          "name": "_subscriptionLockStakePolicy",
          "type": "uint256"
        },
        {
          "name": "_subscriptionMinimumStakePolicy",
          "type": "uint256"
        },
        {
          "name": "_subscriptionMinimumScorePolicy",
          "type": "uint256"
        }
      ],
      "name": "createWorkerPool",
      "outputs": [
        {
          "name": "createdWorkerPool",
          "type": "address"
        }
      ],
      "payable": false,
      "stateMutability": "nonpayable",
      "type": "function"
    },
    {
      "constant": false,
      "inputs": [
        {
          "name": "_appName",
          "type": "string"
        },
        {
          "name": "_appPrice",
          "type": "uint256"
        },
        {
          "name": "_appParams",
          "type": "string"
        }
      ],
      "name": "createApp",
      "outputs": [
        {
          "name": "createdApp",
          "type": "address"
        }
      ],
      "payable": false,
      "stateMutability": "nonpayable",
      "type": "function"
    },
    {
      "constant": false,
      "inputs": [
        {
          "name": "_datasetName",
          "type": "string"
        },
        {
          "name": "_datasetPrice",
          "type": "uint256"
        },
        {
          "name": "_datasetParams",
          "type": "string"
        }
      ],
      "name": "createDataset",
      "outputs": [
        {
          "name": "createdDataset",
          "type": "address"
        }
      ],
      "payable": false,
      "stateMutability": "nonpayable",
      "type": "function"
    },
    {
      "constant": false,
      "inputs": [
        {
          "name": "_commonOrder",
          "type": "uint256[3]"
        },
        {
          "name": "_poolOrder_volume",
          "type": "uint256"
        },
        {
          "name": "_poolOrder_workerpool",
          "type": "address"
        },
        {
          "name": "_userOrder",
          "type": "address[5]"
        },
        {
          "name": "_userOrder_params",
          "type": "string"
        },
        {
          "name": "_salt",
          "type": "uint256[2]"
        },
        {
          "name": "_v",
          "type": "uint8[2]"
        },
        {
          "name": "_r",
          "type": "bytes32[2]"
        },
        {
          "name": "_s",
          "type": "bytes32[2]"
        }
      ],
      "name": "marketOrders",
      "outputs": [
        {
          "name": "",
          "type": "address"
        }
      ],
      "payable": false,
      "stateMutability": "nonpayable",
      "type": "function"
    },
    {
      "constant": false,
      "inputs": [
        {
          "name": "_woid",
          "type": "address"
        }
      ],
      "name": "claimFailedConsensus",
      "outputs": [
        {
          "name": "",
          "type": "bool"
        }
      ],
      "payable": false,
      "stateMutability": "nonpayable",
      "type": "function"
    },
    {
      "constant": false,
      "inputs": [
        {
          "name": "_woid",
          "type": "address"
        },
        {
          "name": "_stdout",
          "type": "string"
        },
        {
          "name": "_stderr",
          "type": "string"
        },
        {
          "name": "_uri",
          "type": "string"
        }
      ],
      "name": "finalizeWorkOrder",
      "outputs": [
        {
          "name": "",
          "type": "bool"
        }
      ],
      "payable": false,
      "stateMutability": "nonpayable",
      "type": "function"
    },
    {
      "constant": true,
      "inputs": [
        {
          "name": "_catId",
          "type": "uint256"
        }
      ],
      "name": "getCategoryWorkClockTimeRef",
      "outputs": [
        {
          "name": "workClockTimeRef",
          "type": "uint256"
        }
      ],
      "payable": false,
      "stateMutability": "view",
      "type": "function"
    },
    {
      "constant": true,
      "inputs": [
        {
          "name": "_catId",
          "type": "uint256"
        }
      ],
      "name": "existingCategory",
      "outputs": [
        {
          "name": "categoryExist",
          "type": "bool"
        }
      ],
      "payable": false,
      "stateMutability": "view",
      "type": "function"
    },
    {
      "constant": true,
      "inputs": [
        {
          "name": "_catId",
          "type": "uint256"
        }
      ],
      "name": "getCategory",
      "outputs": [
        {
          "name": "catid",
          "type": "uint256"
        },
        {
          "name": "name",
          "type": "string"
        },
        {
          "name": "description",
          "type": "string"
        },
        {
          "name": "workClockTimeRef",
          "type": "uint256"
        }
      ],
      "payable": false,
      "stateMutability": "view",
      "type": "function"
    },
    {
      "constant": true,
      "inputs": [
        {
          "name": "_worker",
          "type": "address"
        }
      ],
      "name": "getWorkerStatus",
      "outputs": [
        {
          "name": "workerPool",
          "type": "address"
        },
        {
          "name": "workerScore",
          "type": "uint256"
        }
      ],
      "payable": false,
      "stateMutability": "view",
      "type": "function"
    },
    {
      "constant": true,
      "inputs": [
        {
          "name": "_worker",
          "type": "address"
        }
      ],
      "name": "getWorkerScore",
      "outputs": [
        {
          "name": "workerScore",
          "type": "uint256"
        }
      ],
      "payable": false,
      "stateMutability": "view",
      "type": "function"
    },
    {
      "constant": false,
      "inputs": [
        {
          "name": "_worker",
          "type": "address"
        }
      ],
      "name": "registerToPool",
      "outputs": [
        {
          "name": "subscribed",
          "type": "bool"
        }
      ],
      "payable": false,
      "stateMutability": "nonpayable",
      "type": "function"
    },
    {
      "constant": false,
      "inputs": [
        {
          "name": "_worker",
          "type": "address"
        }
      ],
      "name": "unregisterFromPool",
      "outputs": [
        {
          "name": "unsubscribed",
          "type": "bool"
        }
      ],
      "payable": false,
      "stateMutability": "nonpayable",
      "type": "function"
    },
    {
      "constant": false,
      "inputs": [
        {
          "name": "_worker",
          "type": "address"
        }
      ],
      "name": "evictWorker",
      "outputs": [
        {
          "name": "unsubscribed",
          "type": "bool"
        }
      ],
      "payable": false,
      "stateMutability": "nonpayable",
      "type": "function"
    },
    {
      "constant": false,
      "inputs": [
        {
          "name": "_user",
          "type": "address"
        },
        {
          "name": "_amount",
          "type": "uint256"
        }
      ],
      "name": "lockForOrder",
      "outputs": [
        {
          "name": "",
          "type": "bool"
        }
      ],
      "payable": false,
      "stateMutability": "nonpayable",
      "type": "function"
    },
    {
      "constant": false,
      "inputs": [
        {
          "name": "_user",
          "type": "address"
        },
        {
          "name": "_amount",
          "type": "uint256"
        }
      ],
      "name": "unlockForOrder",
      "outputs": [
        {
          "name": "",
          "type": "bool"
        }
      ],
      "payable": false,
      "stateMutability": "nonpayable",
      "type": "function"
    },
    {
      "constant": false,
      "inputs": [
        {
          "name": "_woid",
          "type": "address"
        },
        {
          "name": "_user",
          "type": "address"
        },
        {
          "name": "_amount",
          "type": "uint256"
        }
      ],
      "name": "lockForWork",
      "outputs": [
        {
          "name": "",
          "type": "bool"
        }
      ],
      "payable": false,
      "stateMutability": "nonpayable",
      "type": "function"
    },
    {
      "constant": false,
      "inputs": [
        {
          "name": "_woid",
          "type": "address"
        },
        {
          "name": "_user",
          "type": "address"
        },
        {
          "name": "_amount",
          "type": "uint256"
        }
      ],
      "name": "unlockForWork",
      "outputs": [
        {
          "name": "",
          "type": "bool"
        }
      ],
      "payable": false,
      "stateMutability": "nonpayable",
      "type": "function"
    },
    {
      "constant": false,
      "inputs": [
        {
          "name": "_woid",
          "type": "address"
        },
        {
          "name": "_worker",
          "type": "address"
        },
        {
          "name": "_amount",
          "type": "uint256"
        },
        {
          "name": "_reputation",
          "type": "bool"
        }
      ],
      "name": "rewardForWork",
      "outputs": [
        {
          "name": "",
          "type": "bool"
        }
      ],
      "payable": false,
      "stateMutability": "nonpayable",
      "type": "function"
    },
    {
      "constant": false,
      "inputs": [
        {
          "name": "_woid",
          "type": "address"
        },
        {
          "name": "_worker",
          "type": "address"
        },
        {
          "name": "_amount",
          "type": "uint256"
        },
        {
          "name": "_reputation",
          "type": "bool"
        }
      ],
      "name": "seizeForWork",
      "outputs": [
        {
          "name": "",
          "type": "bool"
        }
      ],
      "payable": false,
      "stateMutability": "nonpayable",
      "type": "function"
    },
    {
      "constant": false,
      "inputs": [
        {
          "name": "_amount",
          "type": "uint256"
        }
      ],
      "name": "deposit",
      "outputs": [
        {
          "name": "",
          "type": "bool"
        }
      ],
      "payable": false,
      "stateMutability": "nonpayable",
      "type": "function"
    },
    {
      "constant": false,
      "inputs": [
        {
          "name": "_amount",
          "type": "uint256"
        }
      ],
      "name": "withdraw",
      "outputs": [
        {
          "name": "",
          "type": "bool"
        }
      ],
      "payable": false,
      "stateMutability": "nonpayable",
      "type": "function"
    },
    {
      "constant": true,
      "inputs": [
        {
          "name": "_owner",
          "type": "address"
        }
      ],
      "name": "checkBalance",
      "outputs": [
        {
          "name": "stake",
          "type": "uint256"
        },
        {
          "name": "locked",
          "type": "uint256"
        }
      ],
      "payable": false,
      "stateMutability": "view",
      "type": "function"
    }
  ],
  "bytecode": "0x6060604052341561000f57600080fd5b6144868061001e6000396000f300606060405260043610620002095763ffffffff60e060020a6000350416630800b89e81146200020e5780630c91f2d0146200023257806310793b5014620002765780631708d72514620002a45780631f87172614620002c6578063234a0ee714620002f1578063298503d914620003235780632e1a7d4d14620003bb57806332baa8d914620003d457806339b7312214620003ed5780634f73b8e6146200041e5780635f515226146200043457806366de5a4f146200045657806369e99b5c14620004815780636b4f686514620004a35780636e885bd714620004ce578063747bcd7214620004e4578063817e833214620004fa578063835436b414620005105780638981d077146200053257806389869163146200055d5780638c0f8e11146200057f5780639d76ea5814620005a15780639fdf962514620005b7578063a0efe25514620005e7578063ac1be4f614620005fd578063ac26109e146200063e578063b017c0361462000663578063b218cf151462000679578063b6b55f25146200069b578063b6b57ebd14620006b4578063b6b8c3cd146200079a578063b7b6e97814620007b0578063bc04d77b14620007d5578063be02ee6e14620007eb578063daa17f49146200080d578063e760a11a1462000823578063eeeb2ba0146200085d578063f3052d26146200096b578063f69f190c1462000984578063fc06a87714620009c8575b600080fd5b34156200021a57600080fd5b62000230600160a060020a0360043516620009f9565b005b34156200023e57600080fd5b62000262600160a060020a0360043581169060243516604435606435151562000a71565b604051901515815260200160405180910390f35b34156200028257600080fd5b6200028c62000bb5565b60405191825260208201526040908101905180910390f35b3415620002b057600080fd5b62000262600160a060020a036004351662000bbe565b3415620002d257600080fd5b620002df60043562000c27565b60405190815260200160405180910390f35b3415620002fd57600080fd5b6200030762000c56565b604051600160a060020a03909116815260200160405180910390f35b34156200032f57600080fd5b620002df60046024813581810190830135806020601f8201819004810201604051908101604052818152929190602084018383808284378201915050505050509190803590602001908201803590602001908080601f016020809104026020016040519081016040528181529291906020840183838082843750949650509335935062000c6592505050565b3415620003c757600080fd5b6200026260043562000e13565b3415620003e057600080fd5b6200026260043562000f1b565b3415620003f957600080fd5b6200030760246004803582810192908201359181359160443590810191013562000f2e565b34156200042a57600080fd5b620002df6200106c565b34156200044057600080fd5b6200028c600160a060020a036004351662001072565b34156200046257600080fd5b6200030760246004803582810192910135903560443560643562001095565b34156200048d57600080fd5b620002df600160a060020a03600435166200119c565b3415620004af57600080fd5b62000262600160a060020a0360043581169060243516604435620011ae565b3415620004da57600080fd5b6200030762001248565b3415620004f057600080fd5b620002df62001257565b34156200050657600080fd5b620002df6200125c565b34156200051c57600080fd5b62000262600160a060020a036004351662001261565b34156200053e57600080fd5b62000262600160a060020a0360043581169060243516604435620012ca565b34156200056957600080fd5b62000262600160a060020a03600435166200134e565b34156200058b57600080fd5b620002df600160a060020a03600435166200184a565b3415620005ad57600080fd5b6200030762001865565b3415620005c357600080fd5b62000262600160a060020a0360043581169060243516604435606435151562001874565b3415620005f357600080fd5b620002df620019e2565b34156200060957600080fd5b620003076004606435608435600160a060020a031660a46101443560248101908501356101646101a46101e4610224620019e8565b34156200064a57600080fd5b62000262600160a060020a036004351660243562001d30565b34156200066f57600080fd5b6200030762001d70565b34156200068557600080fd5b62000262600160a060020a036004351662001d7f565b3415620006a757600080fd5b6200026260043562002029565b3415620006c057600080fd5b6200026260048035600160a060020a03169060446024803590810190830135806020601f8201819004810201604051908101604052818152929190602084018383808284378201915050505050509190803590602001908201803590602001908080601f01602080910402602001604051908101604052818152929190602084018383808284378201915050505050509190803590602001908201803590602001908080601f0160208091040260200160405190810160405281815292919060208401838380828437509496506200214795505050505050565b3415620007a657600080fd5b620003076200295e565b3415620007bc57600080fd5b62000262600160a060020a03600435166024356200296d565b3415620007e157600080fd5b6200030762002998565b3415620007f757600080fd5b6200028c600160a060020a0360043516620029a7565b34156200081957600080fd5b62000307620029c0565b34156200082f57600080fd5b62000230600160a060020a0360043581169060243581169060443581169060643581169060843516620029cf565b34156200086957600080fd5b6200087660043562002a69565b604051808581526020018060200180602001848152602001838103835286818151815260200191508051906020019080838360005b83811015620008c5578082015183820152602001620008ab565b50505050905090810190601f168015620008f35780820380516001836020036101000a031916815260200191505b50838103825285818151815260200191508051906020019080838360005b838110156200092b57808201518382015260200162000911565b50505050905090810190601f168015620009595780820380516001836020036101000a031916815260200191505b50965050505050505060405180910390f35b34156200097757600080fd5b6200087660043562002bd1565b34156200099057600080fd5b620009a6600160a060020a036004351662002d77565b604051600160a060020a03909216825260208201526040908101905180910390f35b3415620009d457600080fd5b6200030760246004803582810192908201359181359160443590810191013562002e06565b600954600160a060020a0316158062000a365750600954600160a060020a03161580159062000a36575060095433600160a060020a039081169116145b151562000a4257600080fd5b6009805473ffffffffffffffffffffffffffffffffffffffff1916600160a060020a0392909216919091179055565b600033600160a060020a031685600160a060020a0316630690e5b86040518163ffffffff1660e060020a028152600401602060405180830381600087803b151562000abb57600080fd5b5af1151562000ac957600080fd5b50505060405180519050600160a060020a031614151562000ae957600080fd5b62000af5848462002f44565b151562000b0157600080fd5b811562000baa57600c5462000b1e90600163ffffffff62002fdb16565b600c55600160a060020a0384166000908152600b602052604090205462000b4d90600163ffffffff62002fdb16565b600160a060020a0385166000818152600b60205260409081902092909255907f98b231d22df4a95e9d99b5d3f4d25fab5a821c22d7f517a522731c2892ed453590879051600160a060020a03909116815260200160405180910390a25b506001949350505050565b600c54600d5482565b600062000bcc338362002ff6565b151562000bd857600080fd5b33600160a060020a03167f9644170e77fec17243f5fdc3519cba6d2162d1dda59af75508fd9a2005aeb78483604051600160a060020a03909116815260200160405180910390a2506001919050565b600062000c348262000f1b565b151562000c4057600080fd5b5060009081526007602052604090206003015490565b600254600160a060020a031681565b600954600090819033600160a060020a0390811691161462000c8657600080fd5b60085462000c9c90600163ffffffff62002fdb16565b6008819055600081815260076020526040902090815590506001810185805162000ccb929160200190620035a5565b506002810184805162000ce3929160200190620035a5565b50600381018390556008547f62bf08360c9d561749c54eaf4f8bf8cb6c8b6f4f40607bcec39a8172e714d25c90868686604051808581526020018060200180602001848152602001838103835286818151815260200191508051906020019080838360005b8381101562000d6257808201518382015260200162000d48565b50505050905090810190601f16801562000d905780820380516001836020036101000a031916815260200191505b50838103825285818151815260200191508051906020019080838360005b8381101562000dc857808201518382015260200162000dae565b50505050905090810190601f16801562000df65780820380516001836020036101000a031916815260200191505b50965050505050505060405180910390a150506008549392505050565b600160a060020a0333166000908152600a602052604081205462000e3e908363ffffffff6200315a16565b33600160a060020a038181166000908152600a60205260408082209490945554169163a9059cbb919085905160e060020a63ffffffff8516028152600160a060020a0390921660048301526024820152604401602060405180830381600087803b151562000eab57600080fd5b5af1151562000eb957600080fd5b50505060405180519050151562000ecf57600080fd5b7f884edad9ce6fa2440d8a54cc123490eb96d2768479d49ff9c7366125a94243643383604051600160a060020a03909216825260208201526040908101905180910390a1506001919050565b6000908152600760205260408120541190565b6003546000908190600160a060020a03166339b7312288888888886040518663ffffffff1660e060020a0281526004018080602001858152602001806020018381038352888882818152602001925080828437909101848103835285815260200190508585808284378201915050975050505050505050602060405180830381600087803b151562000fbf57600080fd5b5af1151562000fcd57600080fd5b50505060405180519050905080600160a060020a031632600160a060020a03167f49413c774d3fe9c92f6ada69299963d9b4b1c13a1f2a95a019188e2c161ed1438989898989604051602081018490526060808252810185905280604081016080820188888082843790910184810383528581526020019050858580828437820191505097505050505050505060405180910390a39695505050505050565b6103e881565b600160a060020a03166000908152600a6020526040902080546001909101549091565b6004546000908190600160a060020a03166366de5a4f88888888886040518663ffffffff1660e060020a0281526004018080602001858152602001848152602001838152602001828103825287878281815260200192508082843782019150509650505050505050602060405180830381600087803b15156200111757600080fd5b5af115156200112557600080fd5b50505060405180519050905080600160a060020a031632600160a060020a03167f3c29f4ff1e741e465a1ad9cc4c0b8e51c046c021ca9e77172d812ae667f566f889896040516020808252810182905280604081018484808284378201915050935050505060405180910390a39695505050505050565b600b6020526000908152604090205481565b600033600160a060020a031684600160a060020a0316630690e5b86040518163ffffffff1660e060020a028152600401602060405180830381600087803b1515620011f857600080fd5b5af115156200120657600080fd5b50505060405180519050600160a060020a03161415156200122657600080fd5b6200123283836200316d565b15156200123e57600080fd5b5060019392505050565b600454600160a060020a031681565b603281565b600a81565b60006200126f338362002ff6565b15156200127b57600080fd5b33600160a060020a03167f5580db655b3146ef4d1fdba3305cf74dbc3f29126c7a3832533f84e00d149ee383604051600160a060020a03909116815260200160405180910390a2506001919050565b600033600160a060020a031684600160a060020a0316630690e5b86040518163ffffffff1660e060020a028152600401602060405180830381600087803b15156200131457600080fd5b5af115156200132257600080fd5b50505060405180519050600160a060020a03161415156200134257600080fd5b620012328383620031f0565b6000818180808080600160a060020a03338116908716635f44910c6040518163ffffffff1660e060020a028152600401602060405180830381600087803b15156200139857600080fd5b5af11515620013a657600080fd5b50505060405180519050600160a060020a0316141515620013c657600080fd5b85600160a060020a0316630690e5b86040518163ffffffff1660e060020a028152600401602060405180830381600087803b15156200140457600080fd5b5af115156200141257600080fd5b5050506040518051955050600160a060020a03861663e329c4786040518163ffffffff1660e060020a028152600401602060405180830381600087803b15156200145b57600080fd5b5af115156200146957600080fd5b50505060405180519450600190508460048111156200148457fe5b14806200149d575060028460048111156200149b57fe5b145b1515620014a957600080fd5b84600160a060020a031663898691638960405160e060020a63ffffffff8416028152600160a060020a039091166004820152602401602060405180830381600087803b1515620014f857600080fd5b5af115156200150657600080fd5b5050506040518051905015156200151c57600080fd5b85600160a060020a0316634e71d92d6040518163ffffffff1660e060020a028152600401600060405180830381600087803b15156200155a57600080fd5b5af115156200156857600080fd5b50505085600160a060020a03166349e587b66040518163ffffffff1660e060020a028152600401602060405180830381600087803b1515620015a957600080fd5b5af11515620015b757600080fd5b5050506040518051935050600160a060020a038616632e2a9ca16040518163ffffffff1660e060020a028152600401602060405180830381600087803b15156200160057600080fd5b5af115156200160e57600080fd5b5050506040518051600554909350620016849150600160a060020a0316636b14ea366040518163ffffffff1660e060020a028152600401602060405180830381600087803b15156200165f57600080fd5b5af115156200166d57600080fd5b505050604051805185915063ffffffff6200327516565b90506200174d86600160a060020a0316635f44910c6040518163ffffffff1660e060020a028152600401602060405180830381600087803b1515620016c857600080fd5b5af11515620016d657600080fd5b505050604051805190506200174788600160a060020a031663d72769ac6040518163ffffffff1660e060020a028152600401602060405180830381600087803b15156200172257600080fd5b5af115156200173057600080fd5b505050604051805187915063ffffffff62002fdb16565b6200316d565b15156200175957600080fd5b6200176582826200328c565b15156200177157600080fd5b6200177d308262002f44565b15156200178957600080fd5b620017953082620031f0565b1515620017a157600080fd5b7fb3cae8ec1c2754530963fb2e254826aae88dda74178f1a0c5656776941e604b88887600160a060020a0316630690e5b86040518163ffffffff1660e060020a028152600401602060405180830381600087803b15156200180157600080fd5b5af115156200180f57600080fd5b50505060405180519050604051600160a060020a039283168152911660208201526040908101905180910390a1506001979650505050505050565b600160a060020a03166000908152600b602052604090205490565b600154600160a060020a031681565b600033600160a060020a031685600160a060020a0316630690e5b86040518163ffffffff1660e060020a028152600401602060405180830381600087803b1515620018be57600080fd5b5af11515620018cc57600080fd5b50505060405180519050600160a060020a0316141515620018ec57600080fd5b620018f884846200328c565b15156200190457600080fd5b811562000baa57600d546200192190600163ffffffff62002fdb16565b600d55600160a060020a0384166000908152600b60205260409020546200197b906200195590603263ffffffff6200332916565b600160a060020a0386166000908152600b60205260409020549063ffffffff6200315a16565b600160a060020a0385166000818152600b60205260409081902092909255907fd21e70eb7104cb6f403402b79fe1c088dc56b69ecb7474ae68a3e861a5a6d49990879051600160a060020a03909116815260200160405180910390a2506001949350505050565b60085481565b60045460009081908190600160a060020a03166368c197dd8c60405160e060020a63ffffffff8416028152600160a060020a039091166004820152602401602060405180830381600087803b151562001a4057600080fd5b5af1151562001a4e57600080fd5b50505060405180519050151562001a6457600080fd5b600554600160a060020a031663493cd64b8e8e8e8e8e8e8e8e8e8e60405160e060020a63ffffffff8d16028152600401808b6060808284379091018b8152600160a060020a038b16602082015260400190508860a080828437909101905060208101866040808284379091019050856040808284379091019050846040808284379091019050836040808284379091018381038352888152602001905088888082843782019150509b505050505050505050505050602060405180830381600087803b151562001b3357600080fd5b5af1151562001b4157600080fd5b50505060405180519050151562001b5757600080fd5b62001b87600160a060020a0360808c01358116908d908d35168d60026020020135600160a060020a031662003341565b91508c8b8c600160a060020a031663deff41c16040518163ffffffff1660e060020a028152600401602060405180830381600087803b151562001bc957600080fd5b5af1151562001bd757600080fd5b505050604051805190508c8c8c8762001bef6200362a565b8088606080828437600160a060020a038a81169390910192835288166020830152506040018560a0808284378201915050806020018381526020018281038252858582818152602001925080828437820191505098505050505050505050604051809103906000f080151562001c6457600080fd5b90508a600160a060020a03166390108dc48260405160e060020a63ffffffff8416028152600160a060020a039091166004820152602401602060405180830381600087803b151562001cb557600080fd5b5af1151562001cc357600080fd5b50505060405180519050151562001cd957600080fd5b8a600160a060020a03167f359f2105b31d71ee8e2315c3dc3427b3f7297dcc85dd3883d4554e67f1f22d0082604051600160a060020a03909116815260200160405180910390a29c9b505050505050505050505050565b60065460009033600160a060020a0390811691161462001d4f57600080fd5b62001d5b8383620031f0565b151562001d6757600080fd5b50600192915050565b600054600160a060020a031681565b6004546000903390600160a060020a03166368c197dd8260405160e060020a63ffffffff8416028152600160a060020a039091166004820152602401602060405180830381600087803b151562001dd557600080fd5b5af1151562001de357600080fd5b50505060405180519050151562001df957600080fd5b62001e5a8382600160a060020a031663e2d36ef56040518163ffffffff1660e060020a028152600401602060405180830381600087803b151562001e3c57600080fd5b5af1151562001e4a57600080fd5b50505060405180519050620031f0565b151562001e6657600080fd5b80600160a060020a0316636ab6936a6040518163ffffffff1660e060020a028152600401602060405180830381600087803b151562001ea457600080fd5b5af1151562001eb257600080fd5b5050506040518051600160a060020a0385166000908152600a60205260409020541015905062001ee157600080fd5b80600160a060020a031663cc6f06a36040518163ffffffff1660e060020a028152600401602060405180830381600087803b151562001f1f57600080fd5b5af1151562001f2d57600080fd5b5050506040518051600160a060020a0385166000908152600b60205260409020541015905062001f5c57600080fd5b600454600160a060020a0316631884c517338560405160e060020a63ffffffff8516028152600160a060020a03928316600482015291166024820152604401602060405180830381600087803b151562001fb557600080fd5b5af1151562001fc357600080fd5b50505060405180519050151562001fd957600080fd5b33600160a060020a03167fd3548f8b6a2a11c4a35ef5a16dbf7142c9db5163c7d46e7f66482664277cff0784604051600160a060020a03909116815260200160405180910390a250600192915050565b60008054600160a060020a03166323b872dd33308560405160e060020a63ffffffff8616028152600160a060020a0393841660048201529190921660248201526044810191909152606401602060405180830381600087803b15156200208e57600080fd5b5af115156200209c57600080fd5b505050604051805190501515620020b257600080fd5b600160a060020a0333166000908152600a6020526040902054620020dd908363ffffffff62002fdb16565b33600160a060020a0381166000908152600a602052604090819020929092557fe1fffcc4923d04b559f4d29a8bfc6cda04eb5b0d3c460751c2402c5c5cc9109c91849051600160a060020a03909216825260208201526040908101905180910390a1506001919050565b600084818080808080808080600160a060020a03338116908b16630690e5b86040518163ffffffff1660e060020a028152600401602060405180830381600087803b15156200219557600080fd5b5af11515620021a357600080fd5b50505060405180519050600160a060020a0316141515620021c357600080fd5b60028a600160a060020a031663e329c4786040518163ffffffff1660e060020a028152600401602060405180830381600087803b15156200220357600080fd5b5af115156200221157600080fd5b5050506040518051905060048111156200222757fe5b146200223257600080fd5b89600160a060020a0316636946f6926040518163ffffffff1660e060020a028152600401602060405180830381600087803b15156200227057600080fd5b5af115156200227e57600080fd5b5050506040518051995050600160a060020a0389166326137e6b6040518163ffffffff1660e060020a028152600401602060405180830381600087803b1515620022c757600080fd5b5af11515620022d557600080fd5b5050506040518051985050600088111562002357576200234b89600160a060020a031663deff41c16040518163ffffffff1660e060020a028152600401602060405180830381600087803b15156200232c57600080fd5b5af115156200233a57600080fd5b505050604051805190508962002f44565b15156200235757600080fd5b89600160a060020a03166371a599ca6040518163ffffffff1660e060020a028152600401602060405180830381600087803b15156200239557600080fd5b5af11515620023a357600080fd5b5050506040518051975050600160a060020a038716156200248c5786600160a060020a03166362d598eb6040518163ffffffff1660e060020a028152600401602060405180830381600087803b1515620023fc57600080fd5b5af115156200240a57600080fd5b505050604051805196505060008611156200248c576200248087600160a060020a031663deff41c16040518163ffffffff1660e060020a028152600401602060405180830381600087803b15156200246157600080fd5b5af115156200246f57600080fd5b505050604051805190508762002f44565b15156200248c57600080fd5b89600160a060020a03166349e587b66040518163ffffffff1660e060020a028152600401602060405180830381600087803b1515620024ca57600080fd5b5af11515620024d857600080fd5b5050506040518051955050600160a060020a038a16632e2a9ca16040518163ffffffff1660e060020a028152600401602060405180830381600087803b15156200252157600080fd5b5af115156200252f57600080fd5b5050506040518051600554909550620025a59150600160a060020a0316636b14ea366040518163ffffffff1660e060020a028152600401602060405180830381600087803b15156200258057600080fd5b5af115156200258e57600080fd5b505050604051805187915063ffffffff6200327516565b92506200266e8a600160a060020a0316635f44910c6040518163ffffffff1660e060020a028152600401602060405180830381600087803b1515620025e957600080fd5b5af11515620025f757600080fd5b50505060405180519050620026688c600160a060020a031663d72769ac6040518163ffffffff1660e060020a028152600401602060405180830381600087803b15156200264357600080fd5b5af115156200265157600080fd5b505050604051805189915063ffffffff62002fdb16565b6200328c565b15156200267a57600080fd5b6200268684846200316d565b15156200269257600080fd5b89600160a060020a031663d5fdfdbc8f8f8f6040518463ffffffff1660e060020a02815260040180806020018060200180602001848103845287818151815260200191508051906020019080838360005b83811015620026fd578082015183820152602001620026e3565b50505050905090810190601f1680156200272b5780820380516001836020036101000a031916815260200191505b50848103835286818151815260200191508051906020019080838360005b838110156200276357808201518382015260200162002749565b50505050905090810190601f168015620027915780820380516001836020036101000a031916815260200191505b50848103825285818151815260200191508051906020019080838360005b83811015620027c9578082015183820152602001620027af565b50505050905090810190601f168015620027f75780820380516001836020036101000a031916815260200191505b509650505050505050600060405180830381600087803b15156200281a57600080fd5b5af115156200282857600080fd5b505050620028363062001072565b9250506000821115620028ae576200287c6200286e6103e86200286185600a63ffffffff6200327516565b9063ffffffff6200352b16565b839063ffffffff6200332916565b90506200288a30826200328c565b15156200289657600080fd5b620028a2848262002f44565b1515620028ae57600080fd5b7fed236d0a24cb7a32c76960696e44bac711b80ef76780688405dc96c2495b75f98f8b600160a060020a0316630690e5b86040518163ffffffff1660e060020a028152600401602060405180830381600087803b15156200290e57600080fd5b5af115156200291c57600080fd5b50505060405180519050604051600160a060020a039283168152911660208201526040908101905180910390a15060019e9d5050505050505050505050505050565b600954600160a060020a031681565b60065460009033600160a060020a039081169116146200298c57600080fd5b62001d5b83836200316d565b600354600160a060020a031681565b600a602052600090815260409020805460019091015482565b600654600160a060020a031681565b600154600160a060020a031615620029e657600080fd5b60018054600160a060020a0396871673ffffffffffffffffffffffffffffffffffffffff199182168117909255600080548216909217909155600680549587169582168617905560058054821690951790945560048054938616938516939093179092556002805491851691841691909117905560038054919093169116179055565b6007602052806000526040600020600091509050806000015490806001018054600181600116156101000203166002900480601f01602080910402602001604051908101604052809291908181526020018280546001816001161561010002031660029004801562002b1f5780601f1062002af35761010080835404028352916020019162002b1f565b820191906000526020600020905b81548152906001019060200180831162002b0157829003601f168201915b505050505090806002018054600181600116156101000203166002900480601f01602080910402602001604051908101604052809291908181526020018280546001816001161561010002031660029004801562002bc15780601f1062002b955761010080835404028352916020019162002bc1565b820191906000526020600020905b81548152906001019060200180831162002ba357829003601f168201915b5050505050908060030154905084565b600062002bdd6200363b565b62002be76200363b565b600062002bf48562000f1b565b151562002c0057600080fd5b60008581526007602090815260409182902080546003820154600180840180549396909560029586019593948794938116156101000260001901169290920491601f83018190048102019051908101604052809291908181526020018280546001816001161561010002031660029004801562002cc15780601f1062002c955761010080835404028352916020019162002cc1565b820191906000526020600020905b81548152906001019060200180831162002ca357829003601f168201915b50505050509250818054600181600116156101000203166002900480601f01602080910402602001604051908101604052809291908181526020018280546001816001161561010002031660029004801562002d615780601f1062002d355761010080835404028352916020019162002d61565b820191906000526020600020905b81548152906001019060200180831162002d4357829003601f168201915b5050505050915093509350935093509193509193565b6004546000908190600160a060020a031663d440c6f38460405160e060020a63ffffffff8416028152600160a060020a039091166004820152602401602060405180830381600087803b151562002dcd57600080fd5b5af1151562002ddb57600080fd5b5050506040518051600160a060020a03949094166000908152600b6020526040902054939492505050565b6002546000908190600160a060020a031663fc06a87788888888886040518663ffffffff1660e060020a0281526004018080602001858152602001806020018381038352888882818152602001925080828437909101848103835285815260200190508585808284378201915050975050505050505050602060405180830381600087803b151562002e9757600080fd5b5af1151562002ea557600080fd5b50505060405180519050905080600160a060020a031632600160a060020a03167f03d3b6187bbe7d21aa3cf229e292ba41fa8bca6ec2128c0f1625178b8191cdc28989898989604051602081018490526060808252810185905280604081016080820188888082843790910184810383528581526020019050858580828437820191505097505050505050505060405180910390a39695505050505050565b600160a060020a0382166000908152600a602052604081205462002f6f908363ffffffff62002fdb16565b600160a060020a0384166000908152600a602052604090819020919091557f619caafabdd75649b302ba8419e48cccf64f37f1983ac4727cfb38b57703ffc9908490849051600160a060020a03909216825260208201526040908101905180910390a150600192915050565b60008282018381101562002feb57fe5b8091505b5092915050565b6004546000908390600160a060020a03166368c197dd8260405160e060020a63ffffffff8416028152600160a060020a039091166004820152602401602060405180830381600087803b15156200304c57600080fd5b5af115156200305a57600080fd5b5050506040518051905015156200307057600080fd5b620030d18382600160a060020a031663e2d36ef56040518163ffffffff1660e060020a028152600401602060405180830381600087803b1515620030b357600080fd5b5af11515620030c157600080fd5b505050604051805190506200316d565b1515620030dd57600080fd5b600454600160a060020a0316630b00de8d858560405160e060020a63ffffffff8516028152600160a060020a03928316600482015291166024820152604401602060405180830381600087803b15156200313657600080fd5b5af115156200314457600080fd5b5050506040518051905015156200123e57600080fd5b6000828211156200316757fe5b50900390565b600160a060020a0382166000908152600a60205260408120600101546200319b908363ffffffff6200315a16565b600160a060020a0384166000908152600a60205260409020600181019190915554620031ce908363ffffffff62002fdb16565b600160a060020a0384166000908152600a602052604090205550600192915050565b600160a060020a0382166000908152600a60205260408120546200321b908363ffffffff6200315a16565b600160a060020a0384166000908152600a60205260409020908155600101546200324c908363ffffffff62002fdb16565b600160a060020a0384166000908152600a60205260409020600190810191909155905092915050565b600062003285838360646200353d565b9392505050565b600160a060020a0382166000908152600a6020526040812060010154620032ba908363ffffffff6200315a16565b600160a060020a0384166000908152600a602052604090819020600101919091557f4051ba94e08bb094159fc38391422b4b8ccfd2b1f8919c0eb37bb042d4b9cd8e908490849051600160a060020a03909216825260208201526040908101905180910390a150600192915050565b60008183106200333a578162003285565b5090919050565b600254600090839082908190600160a060020a0316638403be918460405160e060020a63ffffffff8416028152600160a060020a039091166004820152602401602060405180830381600087803b15156200339b57600080fd5b5af11515620033a957600080fd5b505050604051805190501515620033bf57600080fd5b82600160a060020a03166326137e6b6040518163ffffffff1660e060020a028152600401602060405180830381600087803b1515620033fd57600080fd5b5af115156200340b57600080fd5b5050506040518051925050600160a060020a038516156200350857506003548490600160a060020a03166316265b4e8260405160e060020a63ffffffff8416028152600160a060020a039091166004820152602401602060405180830381600087803b15156200347a57600080fd5b5af115156200348857600080fd5b5050506040518051905015156200349e57600080fd5b6200350581600160a060020a03166362d598eb6040518163ffffffff1660e060020a028152600401602060405180830381600087803b1515620034e057600080fd5b5af11515620034ee57600080fd5b505050604051805184915063ffffffff62002fdb16565b91505b620035148883620031f0565b15156200352057600080fd5b509695505050505050565b6000818310156200333a578162003285565b6000620035566200354f85856200355e565b836200358d565b949350505050565b60008083151562003573576000915062002fef565b508282028284828115156200358457fe5b041462002feb57fe5b60008082848115156200359c57fe5b04949350505050565b828054600181600116156101000203166002900490600052602060002090601f016020900481019282601f10620035e857805160ff191683800117855562003618565b8280016001018555821562003618579182015b8281111562003618578251825591602001919060010190620035fb565b50620036269291506200364d565b5090565b604051610ded806200366e83390190565b60206040519081016040526000815290565b6200366a91905b8082111562003626576000815560010162003654565b9056006060604052341561000f57600080fd5b604051610ded380380610ded83398101604052806060810180519190602001805191602082019160c001805182019190602001805160108054600160a060020a03191633600160a060020a03161790556000805460ff191660011790559150869050516001556020860151600255604086015160035560048054600160a060020a03878116600160a060020a0319928316179092556005805492871692909116919091179055825160068054600160a060020a031916600160a060020a0392909216919091179055826001602002015160078054600160a060020a031916600160a060020a0392909216919091179055826002602002015160088054600160a060020a031916600160a060020a0392909216919091179055826003602002015160098054600160a060020a031916600160a060020a03929092169190911790558260046020020151600a8054600160a060020a031916600160a060020a0392909216919091179055600b82805161018a929160200190610199565b50600c55506102349350505050565b828054600181600116156101000203166002900490600052602060002090601f016020900481019282601f106101da57805160ff1916838001178555610207565b82800160010185558215610207579182015b828111156102075782518255916020019190600101906101ec565b50610213929150610217565b5090565b61023191905b80821115610213576000815560010161021d565b90565b610baa806102436000396000f30060606040526004361061011c5763ffffffff7c01000000000000000000000000000000000000000000000000000000006000350416630690e5b88114610121578063143c43ce1461015057806315298c77146101755780631a514d97146101ff5780632d4d671f146102265780632e2a9ca114610239578063428da35d1461024c57806349e587b61461025f5780634e71d92d146102725780635f44910c146102875780636946f6921461029a57806371a599ca146102ad5780639c4a8561146102c0578063cc3a2dfa146102d3578063d3a69e01146102e6578063d5fdfdbc146102f9578063d72769ac146103ce578063da1fea28146103e1578063e329c478146103f4578063f3859f571461042b578063f6a5b13e1461043e575b600080fd5b341561012c57600080fd5b610134610451565b604051600160a060020a03909116815260200160405180910390f35b341561015b57600080fd5b610163610460565b60405190815260200160405180910390f35b341561018057600080fd5b610188610466565b60405160208082528190810183818151815260200191508051906020019080838360005b838110156101c45780820151838201526020016101ac565b50505050905090810190601f1680156101f15780820380516001836020036101000a031916815260200191505b509250505060405180910390f35b341561020a57600080fd5b610212610504565b604051901515815260200160405180910390f35b341561023157600080fd5b61021261057f565b341561024457600080fd5b6101346105f9565b341561025757600080fd5b610163610608565b341561026a57600080fd5b61016361060e565b341561027d57600080fd5b610285610614565b005b341561029257600080fd5b6101346106a4565b34156102a557600080fd5b6101346106b3565b34156102b857600080fd5b6101346106c2565b34156102cb57600080fd5b6101886106d1565b34156102de57600080fd5b61018861073c565b34156102f157600080fd5b6101346107a7565b341561030457600080fd5b61028560046024813581810190830135806020601f8201819004810201604051908101604052818152929190602084018383808284378201915050505050509190803590602001908201803590602001908080601f01602080910402602001604051908101604052818152929190602084018383808284378201915050505050509190803590602001908201803590602001908080601f0160208091040260200160405190810160405281815292919060208401838380828437509496506107b695505050505050565b34156103d957600080fd5b610163610a4e565b34156103ec57600080fd5b610134610a54565b34156103ff57600080fd5b610407610a63565b6040518082600481111561041757fe5b60ff16815260200191505060405180910390f35b341561043657600080fd5b610188610a6c565b341561044957600080fd5b610134610ad7565b600454600160a060020a031681565b60015481565b600b8054600181600116156101000203166002900480601f0160208091040260200160405190810160405280929190818152602001828054600181600116156101000203166002900480156104fc5780601f106104d1576101008083540402835291602001916104fc565b820191906000526020600020905b8154815290600101906020018083116104df57829003601f168201915b505050505081565b60045460009033600160a060020a0390811691161461052257600080fd5b600260005460ff16600481111561053557fe5b1461053f57600080fd5b6000805460ff191660011790557f06c42818c4ab74dff6aec55942f601c2e9b7f2aa4321ee71690b125eacfe465460405160405180910390a15060015b90565b60045460009033600160a060020a0390811691161461059d57600080fd5b600160005460ff1660048111156105b057fe5b146105ba57600080fd5b6000805460ff191660021790557f2b0cab0be6d82b2661b3b789c540ec9c7223aac635ac8e59a1e71e1137f2dd7760405160405180910390a150600190565b600554600160a060020a031681565b60025481565b60035481565b60105433600160a060020a0390811691161461062f57600080fd5b600160005460ff16600481111561064257fe5b148061065e5750600260005460ff16600481111561065c57fe5b145b151561066957600080fd5b6000805460ff191660031790557f1938697ee29e363ecda49e464c6d2aae25f0974bd1f2c81a91c21e13ad8dbf7760405160405180910390a1565b600a54600160a060020a031681565b600654600160a060020a031681565b600754600160a060020a031681565b600f8054600181600116156101000203166002900480601f0160208091040260200160405190810160405280929190818152602001828054600181600116156101000203166002900480156104fc5780601f106104d1576101008083540402835291602001916104fc565b600d8054600181600116156101000203166002900480601f0160208091040260200160405190810160405280929190818152602001828054600181600116156101000203166002900480156104fc5780601f106104d1576101008083540402835291602001916104fc565b601054600160a060020a031681565b60105433600160a060020a039081169116146107d157600080fd5b600260005460ff1660048111156107e457fe5b146107ee57600080fd5b6000805460ff19166004179055600d83805161080e929160200190610ae6565b50600e828051610822929160200190610ae6565b50600f818051610836929160200190610ae6565b50600854600160a060020a031615610a1d57600854600160a060020a031663514d7067308585856040518563ffffffff167c01000000000000000000000000000000000000000000000000000000000281526004018085600160a060020a0316600160a060020a03168152602001806020018060200180602001848103845287818151815260200191508051906020019080838360005b838110156108e55780820151838201526020016108cd565b50505050905090810190601f1680156109125780820380516001836020036101000a031916815260200191505b50848103835286818151815260200191508051906020019080838360005b83811015610948578082015183820152602001610930565b50505050905090810190601f1680156109755780820380516001836020036101000a031916815260200191505b50848103825285818151815260200191508051906020019080838360005b838110156109ab578082015183820152602001610993565b50505050905090810190601f1680156109d85780820380516001836020036101000a031916815260200191505b50975050505050505050602060405180830381600087803b15156109fb57600080fd5b5af11515610a0857600080fd5b505050604051805190501515610a1d57600080fd5b7f777f59509d985349c80271b657d2649b218bc6f075a4625821b64448cc235b8660405160405180910390a1505050565b600c5481565b600854600160a060020a031681565b60005460ff1681565b600e8054600181600116156101000203166002900480601f0160208091040260200160405190810160405280929190818152602001828054600181600116156101000203166002900480156104fc5780601f106104d1576101008083540402835291602001916104fc565b600954600160a060020a031681565b828054600181600116156101000203166002900490600052602060002090601f016020900481019282601f10610b2757805160ff1916838001178555610b54565b82800160010185558215610b54579182015b82811115610b54578251825591602001919060010190610b39565b50610b60929150610b64565b5090565b61057c91905b80821115610b605760008155600101610b6a5600a165627a7a723058202daaeb3ddb6ed293303cae72fd8d5554840fe7d55b512e06506dc7f22889748c0029a165627a7a723058204602749a17c4a71706add7836aab81e71a9a826a6f2281bd3d0064824e3e6e6b0029",
  "source": "pragma solidity ^0.4.21;\n\nimport \"rlc-token/contracts/RLC.sol\";\n\nimport './WorkOrder.sol';\nimport './Marketplace.sol';\nimport './AppHub.sol';\nimport './DatasetHub.sol';\nimport './WorkerPoolHub.sol';\nimport \"./SafeMathOZ.sol\";\nimport './IexecLib.sol';\n\n\n/**\n * @title IexecHub\n */\n\ncontract IexecHub\n{\n\tusing SafeMathOZ for uint256;\n\n\t/**\n\t* RLC contract for token transfers.\n\t*/\n\tRLC     public rlc;\n\taddress public tokenAddress;\n\n\tuint256 public constant STAKE_BONUS_RATIO  = 10;\n\tuint256 public constant STAKE_BONUS_MIN_THRESHOLD = 1000;\n\n\tuint256 public constant SCORE_UNITARY_SLASH = 50;\n\n\t/**\n\t * Slaves contracts\n\t */\n\tAppHub        public appHub;\n\tDatasetHub    public datasetHub;\n\tWorkerPoolHub public workerPoolHub;\n\n\t/**\n\t * Market place\n\t */\n\tMarketplace marketplace;\n\taddress     public marketplaceAddress;\n\tmodifier onlyMarketplace()\n\t{\n\t\trequire(msg.sender == marketplaceAddress);\n\t\t_;\n\t}\n\t/**\n\t * Categories\n\t */\n\tmapping(uint256 => IexecLib.Category) public m_categories;\n\tuint256                               public m_categoriesCount;\n\taddress                               public m_categoriesCreator;\n\tmodifier onlyCategoriesCreator()\n\t{\n\t\trequire(msg.sender == m_categoriesCreator);\n\t\t_;\n\t}\n\n\t/**\n\t * Escrow\n\t */\n\tmapping(address => IexecLib.Account) public m_accounts;\n\n\t/**\n\t * Reputation for PoCo\n\t */\n\tmapping(address => uint256)  public m_scores;\n\tIexecLib.ContributionHistory public m_contributionHistory;\n\n\n\tevent WorkOrderActivated(address woid, address indexed workerPool);\n\tevent WorkOrderClaimed  (address woid, address workerPool);\n\tevent WorkOrderCompleted(address woid, address workerPool);\n\n\tevent CreateApp       (address indexed appOwner,        address indexed app,        string appName,     uint256 appPrice,     string appParams    );\n\tevent CreateDataset   (address indexed datasetOwner,    address indexed dataset,    string datasetName, uint256 datasetPrice, string datasetParams);\n\tevent CreateWorkerPool(address indexed workerPoolOwner, address indexed workerPool, string workerPoolDescription                                  );\n\n\tevent CreateCategory  (uint256 catid, string name, string description, uint256 workClockTimeRef);\n\n\tevent WorkerPoolSubscription  (address indexed workerPool, address worker);\n\tevent WorkerPoolUnsubscription(address indexed workerPool, address worker);\n\tevent WorkerPoolEviction      (address indexed workerPool, address worker);\n\n\tevent AccurateContribution(address woid, address indexed worker);\n\tevent FaultyContribution  (address woid, address indexed worker);\n\n\tevent Deposit (address owner, uint256 amount);\n\tevent Withdraw(address owner, uint256 amount);\n\tevent Reward  (address user,  uint256 amount);\n\tevent Seize   (address user,  uint256 amount);\n\n\t/**\n\t * Constructor\n\t */\n\tfunction IexecHub()\n\tpublic\n\t{\n\t}\n\n\tfunction attachContracts(\n\t\taddress _tokenAddress,\n\t\taddress _marketplaceAddress,\n\t\taddress _workerPoolHubAddress,\n\t\taddress _appHubAddress,\n\t\taddress _datasetHubAddress)\n\tpublic\n\t{\n\t\trequire(tokenAddress == address(0));\n\t\ttokenAddress       = _tokenAddress;\n\t\trlc                = RLC(_tokenAddress);\n\n\t\tmarketplaceAddress = _marketplaceAddress;\n\t\tmarketplace        = Marketplace(_marketplaceAddress);\n\n\t\tworkerPoolHub      = WorkerPoolHub(_workerPoolHubAddress);\n\t\tappHub             = AppHub       (_appHubAddress       );\n\t\tdatasetHub         = DatasetHub   (_datasetHubAddress   );\n\t}\n\n\tfunction setCategoriesCreator(address _categoriesCreator) public\n\t{\n\t\trequire(m_categoriesCreator == address(0) || (m_categoriesCreator != address(0) && msg.sender == m_categoriesCreator));\n\t\tm_categoriesCreator = _categoriesCreator;\n\t}\n\n\t/**\n\t * Factory\n\t */\n\n\tfunction createCategory(\n\t\tstring  _name,\n\t\tstring  _description,\n\t\tuint256 _workClockTimeRef)\n\tpublic onlyCategoriesCreator returns (uint256 catid)\n\t{\n\t\tm_categoriesCount                  = m_categoriesCount.add(1);\n\t\tIexecLib.Category storage category = m_categories[m_categoriesCount];\n\t\tcategory.catid                     = m_categoriesCount;\n\t\tcategory.name                      = _name;\n\t\tcategory.description               = _description;\n\t\tcategory.workClockTimeRef          = _workClockTimeRef;\n\t\temit CreateCategory(m_categoriesCount, _name, _description, _workClockTimeRef);\n\t\treturn m_categoriesCount;\n\t}\n\n\tfunction createWorkerPool(\n\t\tstring  _description,\n\t\tuint256 _subscriptionLockStakePolicy,\n\t\tuint256 _subscriptionMinimumStakePolicy,\n\t\tuint256 _subscriptionMinimumScorePolicy)\n\texternal returns (address createdWorkerPool)\n\t{\n\t\taddress newWorkerPool = workerPoolHub.createWorkerPool(\n\t\t\t_description,\n\t\t\t_subscriptionLockStakePolicy,\n\t\t\t_subscriptionMinimumStakePolicy,\n\t\t\t_subscriptionMinimumScorePolicy\n\t\t);\n\t\temit CreateWorkerPool(tx.origin, newWorkerPool, _description);\n\t\treturn newWorkerPool;\n\t}\n\n\tfunction createApp(\n\t\tstring  _appName,\n\t\tuint256 _appPrice,\n\t\tstring  _appParams)\n\texternal returns (address createdApp)\n\t{\n\t\taddress newApp = appHub.createApp(\n\t\t\t_appName,\n\t\t\t_appPrice,\n\t\t\t_appParams\n\t\t);\n\t\temit CreateApp(tx.origin, newApp, _appName, _appPrice, _appParams);\n\t\treturn newApp;\n\t}\n\n\tfunction createDataset(\n\t\tstring  _datasetName,\n\t\tuint256 _datasetPrice,\n\t\tstring  _datasetParams)\n\texternal returns (address createdDataset)\n\t{\n\t\taddress newDataset = datasetHub.createDataset(\n\t\t\t_datasetName,\n\t\t\t_datasetPrice,\n\t\t\t_datasetParams\n\t\t\t);\n\t\temit CreateDataset(tx.origin, newDataset, _datasetName, _datasetPrice, _datasetParams);\n\t\treturn newDataset;\n\t}\n\n\t/**\n\t * WorkOrder Emission\n\t */\n\n\tfunction marketOrders(\n\t\t/********** Order settings **********/\n\t\tuint256[3] _commonOrder,\n\t\t/* uint256 _commonOrder_category, */\n\t\t/* uint256 _commonOrder_trust, */\n\t\t/* uint256 _commonOrder_value, */\n\t\t/********** Pool settings **********/\n\t\tuint256 _poolOrder_volume,\n\t\taddress _poolOrder_workerpool,\n\t\t/********** User settings **********/\n\t\taddress[5] _userOrder,\n\t\t/* address _userOrder_app, */\n\t\t/* address _userOrder_dataset, */\n\t\t/* address _userOrder_callback, */\n\t\t/* address _userOrder_beneficiary, */\n\t\t/* address _userOrder_requester, */\n\t\tstring  _userOrder_params,\n\t\t/********** Signatures **********/\n\t\tuint256[2] _salt,\n\t\tuint8[2]   _v,\n\t\tbytes32[2] _r,\n\t\tbytes32[2] _s)\n\texternal returns (address)\n\t{\n\t\trequire(workerPoolHub.isWorkerPoolRegistered(_poolOrder_workerpool));\n\n\t\trequire(marketplace.matchOrders(\n\t\t\t_commonOrder,\n\t\t\t_poolOrder_volume,\n\t\t\t_poolOrder_workerpool,\n\t\t\t_userOrder,\n\t\t\t_userOrder_params,\n\t\t\t_salt,\n\t\t\t_v,\n\t\t\t_r,\n\t\t\t_s));\n\n\t\tuint256 appPayment = lockAppPayment(\n\t\t\t_userOrder[4],         //requester,\n\t\t\t_poolOrder_workerpool, //workerpool,\n\t\t\t_userOrder[0],         //app,\n\t\t\t_userOrder[2]);        //dataset\n\n\t\tWorkOrder workorder = new WorkOrder(\n\t\t\t_commonOrder,\n\t\t\t_poolOrder_workerpool,\n\t\t\tWorkerPool(_poolOrder_workerpool).m_owner(),\n\t\t\t_userOrder,\n\t\t\t_userOrder_params,\n\t\t\tappPayment);\n\n\t\trequire(WorkerPool(_poolOrder_workerpool).initiateConsensus(workorder));\n\n\t\temit WorkOrderActivated(workorder, _poolOrder_workerpool);\n\t\treturn workorder;\n\t}\n\n\tfunction lockAppPayment(\n\t\taddress _requester,\n\t\taddress _workerpool, // Address of a smartcontract\n\t\taddress _app,        // Address of a smartcontract\n\t\taddress _dataset)    // Address of a smartcontract\n\tinternal returns (uint256)\n\t{\n\t\t// APP\n\t\tApp app = App(_app);\n\t\trequire(appHub.isAppRegistered (_app       ));\n\t\t// initialize usercost with dapp price\n\t\tuint256 appPayment = app.m_appPrice();\n\n\t\t// DATASET\n\t\tif (_dataset != address(0)) // address(0)  no dataset\n\t\t{\n\t\t\tDataset dataset = Dataset(_dataset);\n\t\t\trequire(datasetHub.isDatasetRegistred(_dataset   ));\n\t\t\t// add optional datasetPrice for userCost\n\t\t\tappPayment = appPayment.add(dataset.m_datasetPrice());\n\t\t}\n\n\t\trequire(lock(_requester, appPayment)); // Lock funds for app + dataset payment\n\n\t\treturn appPayment;\n\t}\n\n\t/**\n\t * WorkOrder life cycle\n\t */\n\n\tfunction claimFailedConsensus(address _woid) public returns (bool)\n\t{\n\t\tWorkOrder  workorder  = WorkOrder(_woid);\n\t\trequire(workorder.m_requester() == msg.sender);\n\t\tWorkerPool workerpool = WorkerPool(workorder.m_workerpool());\n\n\t\tIexecLib.WorkOrderStatusEnum currentStatus = workorder.m_status();\n\t\trequire(currentStatus == IexecLib.WorkOrderStatusEnum.ACTIVE || currentStatus == IexecLib.WorkOrderStatusEnum.REVEALING);\n\t\t// Unlock stakes for all workers\n\t\trequire(workerpool.claimFailedConsensus(_woid));\n\t\tworkorder.claim(); // revert on error\n\n\t\tuint256 value           = workorder.m_value();\n\t\taddress workerpoolOwner = workorder.m_workerpoolOwner();\n\t\tuint256 workerpoolStake = value.percentage(marketplace.ASK_STAKE_RATIO());\n\n\t\trequire(unlock (workorder.m_requester(), value.add(workorder.m_appPayment()))); // UNLOCK THE FUNDS FOR REINBURSEMENT\n\t\trequire(seize  (workerpoolOwner,         workerpoolStake));\n\t\t// put workerpoolOwner stake seize into iexecHub address for bonus for scheduler on next well finalized Task\n\t\trequire(reward (this,                    workerpoolStake));\n\t\trequire(lock   (this,                    workerpoolStake));\n\n\n\t\temit WorkOrderClaimed(_woid, workorder.m_workerpool());\n\t\treturn true;\n\t}\n\n\tfunction finalizeWorkOrder(\n\t\taddress _woid,\n\t\tstring  _stdout,\n\t\tstring  _stderr,\n\t\tstring  _uri)\n\tpublic returns (bool)\n\t{\n\t\tWorkOrder workorder = WorkOrder(_woid);\n\n\t\trequire(workorder.m_workerpool() == msg.sender);\n\t\trequire(workorder.m_status()     == IexecLib.WorkOrderStatusEnum.REVEALING);\n\n\t\t// APP\n\t\tApp     app      = App(workorder.m_app());\n\t\tuint256 appPrice = app.m_appPrice();\n\t\tif (appPrice > 0)\n\t\t{\n\t\t\trequire(reward(app.m_owner(), appPrice));\n\t\t}\n\n\t\t// DATASET\n\t\tDataset dataset = Dataset(workorder.m_dataset());\n\t\tif (dataset != address(0))\n\t\t{\n\t\t\tuint256 datasetPrice = dataset.m_datasetPrice();\n\t\t\tif (datasetPrice > 0)\n\t\t\t{\n\t\t\t\trequire(reward(dataset.m_owner(), datasetPrice));\n\t\t\t}\n\t\t}\n\n\t\t// WORKERPOOL  rewarding done by the caller itself\n\n\t\t/**\n\t\t * seize stacked funds from requester.\n\t\t * reward = value: was locked at market making\n\t\t * appPayment: was locked at when emiting the workorder\n\t\t */\n\t\tuint256 value           = workorder.m_value(); // revert if not exist\n\t\taddress workerpoolOwner = workorder.m_workerpoolOwner(); // revert if not exist\n\t\tuint256 workerpoolStake = value.percentage(marketplace.ASK_STAKE_RATIO());\n\n\t\trequire(seize (workorder.m_requester(), value.add(workorder.m_appPayment()))); // seize funds for payment (market value + appPayment)\n\t\trequire(unlock(workerpoolOwner,         workerpoolStake)); // unlock scheduler stake\n\n\t\t// write results\n\t\tworkorder.setResult(_stdout, _stderr, _uri); // revert on error\n\n\t\t// Rien ne se perd, rien ne se cre, tout se transfere\n\t\t// distribute bonus to scheduler. jackpot bonus come from scheduler stake loose on IexecHub contract\n\t\tuint256 kitty;\n\t\t(,kitty) = checkBalance(this); // kitty is locked on `this` wallet\n\t\tif(kitty > 0)\n\t\t{\n\t\t\tuint256 kittyFraction = kitty.min(kitty.percentage(STAKE_BONUS_RATIO).max(STAKE_BONUS_MIN_THRESHOLD));\n\t\t\trequire(seize(this,             kittyFraction));\n\t\t\trequire(reward(workerpoolOwner, kittyFraction));\n\t\t}\n\n\t\temit WorkOrderCompleted(_woid, workorder.m_workerpool());\n\t\treturn true;\n\t}\n\n\t/**\n\t * Views\n\t */\n\tfunction getCategoryWorkClockTimeRef(uint256 _catId) public view returns (uint256 workClockTimeRef)\n\t{\n\t\trequire(existingCategory(_catId));\n\t\treturn m_categories[_catId].workClockTimeRef;\n\t}\n\n\tfunction existingCategory(uint256 _catId) public view  returns (bool categoryExist)\n\t{\n\t\treturn m_categories[_catId].catid > 0;\n\t}\n\n\tfunction getCategory(uint256 _catId) public view returns (uint256 catid, string name, string  description, uint256 workClockTimeRef)\n\t{\n\t\trequire(existingCategory(_catId));\n\t\treturn (\n\t\tm_categories[_catId].catid,\n\t\tm_categories[_catId].name,\n\t\tm_categories[_catId].description,\n\t\tm_categories[_catId].workClockTimeRef\n\t\t);\n\t}\n\t/**\n\t * Not enough gas\n\t **\n\tfunction getRLCAddress() public view returns (address rlcAddress)\n\t{\n\t\treturn tokenAddress;\n\t}\n\t*/\n\tfunction getWorkerStatus(address _worker) public view returns (address workerPool, uint256 workerScore)\n\t{\n\t\treturn (workerPoolHub.getWorkerAffectation(_worker), m_scores[_worker]);\n\t}\n\n\tfunction getWorkerScore(address _worker) public view returns (uint256 workerScore)\n\t{\n\t\treturn m_scores[_worker];\n\t}\n\n\t/**\n\t * Worker subscription\n\t */\n\tfunction registerToPool(address _worker) public returns (bool subscribed)\n\t// msg.sender = workerPool\n\t{\n\t\tWorkerPool workerpool = WorkerPool(msg.sender);\n\t\t// Check credentials\n\t\trequire(workerPoolHub.isWorkerPoolRegistered(msg.sender));\n\t\t// Lock worker deposit\n\t\trequire(lock(_worker, workerpool.m_subscriptionLockStakePolicy()));\n\t\t// Check subscription policy\n\t\trequire(m_accounts[_worker].stake >= workerpool.m_subscriptionMinimumStakePolicy());\n\t\trequire(m_scores[_worker]         >= workerpool.m_subscriptionMinimumScorePolicy());\n\t\t// Update affectation\n\t\trequire(workerPoolHub.registerWorkerAffectation(msg.sender, _worker));\n\t\t// Trigger event notice\n\t\temit WorkerPoolSubscription(msg.sender, _worker);\n\t\treturn true;\n\t}\n\n\tfunction unregisterFromPool(address _worker) public returns (bool unsubscribed)\n\t// msg.sender = workerPool\n\t{\n\t\trequire(removeWorker(msg.sender, _worker));\n\t\t// Trigger event notice\n\t\temit WorkerPoolUnsubscription(msg.sender, _worker);\n\t\treturn true;\n\t}\n\n\tfunction evictWorker(address _worker) public returns (bool unsubscribed)\n\t// msg.sender = workerpool\n\t{\n\t\trequire(removeWorker(msg.sender, _worker));\n\t\t// Trigger event notice\n\t\temit WorkerPoolEviction(msg.sender, _worker);\n\t\treturn true;\n\t}\n\n\tfunction removeWorker(address _workerpool, address _worker) internal returns (bool unsubscribed)\n\t{\n\t\tWorkerPool workerpool = WorkerPool(_workerpool);\n\t\t// Check credentials\n\t\trequire(workerPoolHub.isWorkerPoolRegistered(_workerpool));\n\t\t// Unlick worker stake\n\t\trequire(unlock(_worker, workerpool.m_subscriptionLockStakePolicy()));\n\t\t// Update affectation\n\t\trequire(workerPoolHub.unregisterWorkerAffectation(_workerpool, _worker));\n\t\treturn true;\n\t}\n\n\t/**\n\t * Stake, reward and penalty functions\n\t */\n\t/* Marketplace */\n\tfunction lockForOrder(address _user, uint256 _amount) public onlyMarketplace returns (bool)\n\t{\n\t\trequire(lock(_user, _amount));\n\t\treturn true;\n\t}\n\tfunction unlockForOrder(address _user, uint256 _amount) public  onlyMarketplace returns (bool)\n\t{\n\t\trequire(unlock(_user, _amount));\n\t\treturn true;\n\t}\n\t/* Work */\n\tfunction lockForWork(address _woid, address _user, uint256 _amount) public returns (bool)\n\t{\n\t\trequire(WorkOrder(_woid).m_workerpool() == msg.sender);\n\t\trequire(lock(_user, _amount));\n\t\treturn true;\n\t}\n\tfunction unlockForWork(address _woid, address _user, uint256 _amount) public returns (bool)\n\t{\n\t\trequire(WorkOrder(_woid).m_workerpool() == msg.sender);\n\t\trequire(unlock(_user, _amount));\n\t\treturn true;\n\t}\n\tfunction rewardForWork(address _woid, address _worker, uint256 _amount, bool _reputation) public returns (bool)\n\t{\n\t\trequire(WorkOrder(_woid).m_workerpool() == msg.sender);\n\t\trequire(reward(_worker, _amount));\n\t\t// ------------------------------------------------------------------------\n\t\tif (_reputation)\n\t\t{\n\t\t\tm_contributionHistory.success = m_contributionHistory.success.add(1);\n\t\t\tm_scores[_worker] = m_scores[_worker].add(1);\n\t\t\temit AccurateContribution(_woid, _worker);\n\t\t}\n\t\treturn true;\n\t}\n\tfunction seizeForWork(address _woid, address _worker, uint256 _amount, bool _reputation) public returns (bool)\n\t{\n\t\trequire(WorkOrder(_woid).m_workerpool() == msg.sender);\n\t\trequire(seize(_worker, _amount));\n\t\t// ------------------------------------------------------------------------\n\t\tif (_reputation)\n\t\t{\n\t\t\tm_contributionHistory.failled = m_contributionHistory.failled.add(1);\n\t\t\tm_scores[_worker] = m_scores[_worker].sub(m_scores[_worker].min(SCORE_UNITARY_SLASH));\n\t\t\temit FaultyContribution(_woid, _worker);\n\t\t}\n\t\treturn true;\n\t}\n\t/**\n\t * Wallet methods: public\n\t */\n\tfunction deposit(uint256 _amount) external returns (bool)\n\t{\n\t\trequire(rlc.transferFrom(msg.sender, address(this), _amount));\n\t\tm_accounts[msg.sender].stake = m_accounts[msg.sender].stake.add(_amount);\n\t\temit Deposit(msg.sender, _amount);\n\t\treturn true;\n\t}\n\tfunction withdraw(uint256 _amount) external returns (bool)\n\t{\n\t\tm_accounts[msg.sender].stake = m_accounts[msg.sender].stake.sub(_amount);\n\t\trequire(rlc.transfer(msg.sender, _amount));\n\t\temit Withdraw(msg.sender, _amount);\n\t\treturn true;\n\t}\n\tfunction checkBalance(address _owner) public view returns (uint256 stake, uint256 locked)\n\t{\n\t\treturn (m_accounts[_owner].stake, m_accounts[_owner].locked);\n\t}\n\t/**\n\t * Wallet methods: Internal\n\t */\n\tfunction reward(address _user, uint256 _amount) internal returns (bool)\n\t{\n\t\tm_accounts[_user].stake = m_accounts[_user].stake.add(_amount);\n\t\temit Reward(_user, _amount);\n\t\treturn true;\n\t}\n\tfunction seize(address _user, uint256 _amount) internal returns (bool)\n\t{\n\t\tm_accounts[_user].locked = m_accounts[_user].locked.sub(_amount);\n\t\temit Seize(_user, _amount);\n\t\treturn true;\n\t}\n\tfunction lock(address _user, uint256 _amount) internal returns (bool)\n\t{\n\t\tm_accounts[_user].stake  = m_accounts[_user].stake.sub(_amount);\n\t\tm_accounts[_user].locked = m_accounts[_user].locked.add(_amount);\n\t\treturn true;\n\t}\n\tfunction unlock(address _user, uint256 _amount) internal returns (bool)\n\t{\n\t\tm_accounts[_user].locked = m_accounts[_user].locked.sub(_amount);\n\t\tm_accounts[_user].stake  = m_accounts[_user].stake.add(_amount);\n\t\treturn true;\n\t}\n}\n",
  "sourcePath": "/home/amxx/Work/iExec/PoCo-dev/contracts/IexecHub.sol",
  "compiler": {
    "name": "solc",
    "version": "0.4.21+commit.dfe3193c.Emscripten.clang"
  },
  "schemaVersion": "2.0.0",
  "updatedAt": "2018-04-22T09:05:37.377Z"
}