{
  "contractName": "IexecEscrowNativeDelegate",
  "abi": [
    {
      "constant": true,
      "inputs": [],
      "name": "EIP712DOMAIN_SEPARATOR",
      "outputs": [
        {
          "name": "",
          "type": "bytes32"
        }
      ],
      "payable": false,
      "stateMutability": "view",
      "type": "function"
    },
    {
      "constant": true,
      "inputs": [],
      "name": "appregistry",
      "outputs": [
        {
          "name": "",
          "type": "address"
        }
      ],
      "payable": false,
      "stateMutability": "view",
      "type": "function"
    },
    {
      "constant": true,
      "inputs": [],
      "name": "WORKERPOOL_STAKE_RATIO",
      "outputs": [
        {
          "name": "",
          "type": "uint256"
        }
      ],
      "payable": false,
      "stateMutability": "view",
      "type": "function"
    },
    {
      "constant": true,
      "inputs": [],
      "name": "KITTY_RATIO",
      "outputs": [
        {
          "name": "",
          "type": "uint256"
        }
      ],
      "payable": false,
      "stateMutability": "view",
      "type": "function"
    },
    {
      "constant": true,
      "inputs": [],
      "name": "REVEAL_DEADLINE_RATIO",
      "outputs": [
        {
          "name": "",
          "type": "uint256"
        }
      ],
      "payable": false,
      "stateMutability": "view",
      "type": "function"
    },
    {
      "constant": true,
      "inputs": [],
      "name": "GROUPMEMBER_PURPOSE",
      "outputs": [
        {
          "name": "",
          "type": "uint256"
        }
      ],
      "payable": false,
      "stateMutability": "view",
      "type": "function"
    },
    {
      "constant": false,
      "inputs": [],
      "name": "renounceOwnership",
      "outputs": [],
      "payable": false,
      "stateMutability": "nonpayable",
      "type": "function"
    },
    {
      "constant": true,
      "inputs": [],
      "name": "CONTRIBUTION_DEADLINE_RATIO",
      "outputs": [
        {
          "name": "",
          "type": "uint256"
        }
      ],
      "payable": false,
      "stateMutability": "view",
      "type": "function"
    },
    {
      "constant": true,
      "inputs": [],
      "name": "owner",
      "outputs": [
        {
          "name": "",
          "type": "address"
        }
      ],
      "payable": false,
      "stateMutability": "view",
      "type": "function"
    },
    {
      "constant": true,
      "inputs": [],
      "name": "isOwner",
      "outputs": [
        {
          "name": "",
          "type": "bool"
        }
      ],
      "payable": false,
      "stateMutability": "view",
      "type": "function"
    },
    {
      "constant": true,
      "inputs": [],
      "name": "workerpoolregistry",
      "outputs": [
        {
          "name": "",
          "type": "address"
        }
      ],
      "payable": false,
      "stateMutability": "view",
      "type": "function"
    },
    {
      "constant": true,
      "inputs": [],
      "name": "FINAL_DEADLINE_RATIO",
      "outputs": [
        {
          "name": "",
          "type": "uint256"
        }
      ],
      "payable": false,
      "stateMutability": "view",
      "type": "function"
    },
    {
      "constant": true,
      "inputs": [],
      "name": "KITTY_ADDRESS",
      "outputs": [
        {
          "name": "",
          "type": "address"
        }
      ],
      "payable": false,
      "stateMutability": "view",
      "type": "function"
    },
    {
      "constant": true,
      "inputs": [],
      "name": "datasetregistry",
      "outputs": [
        {
          "name": "",
          "type": "address"
        }
      ],
      "payable": false,
      "stateMutability": "view",
      "type": "function"
    },
    {
      "constant": true,
      "inputs": [],
      "name": "KITTY_MIN",
      "outputs": [
        {
          "name": "",
          "type": "uint256"
        }
      ],
      "payable": false,
      "stateMutability": "view",
      "type": "function"
    },
    {
      "constant": false,
      "inputs": [
        {
          "name": "newOwner",
          "type": "address"
        }
      ],
      "name": "transferOwnership",
      "outputs": [],
      "payable": false,
      "stateMutability": "nonpayable",
      "type": "function"
    },
    {
      "payable": true,
      "stateMutability": "payable",
      "type": "fallback"
    },
    {
      "anonymous": false,
      "inputs": [
        {
          "indexed": true,
          "name": "from",
          "type": "address"
        },
        {
          "indexed": true,
          "name": "to",
          "type": "address"
        },
        {
          "indexed": false,
          "name": "value",
          "type": "uint256"
        }
      ],
      "name": "Transfer",
      "type": "event"
    },
    {
      "anonymous": false,
      "inputs": [
        {
          "indexed": true,
          "name": "owner",
          "type": "address"
        },
        {
          "indexed": true,
          "name": "spender",
          "type": "address"
        },
        {
          "indexed": false,
          "name": "value",
          "type": "uint256"
        }
      ],
      "name": "Approval",
      "type": "event"
    },
    {
      "anonymous": false,
      "inputs": [
        {
          "indexed": true,
          "name": "previousOwner",
          "type": "address"
        },
        {
          "indexed": true,
          "name": "newOwner",
          "type": "address"
        }
      ],
      "name": "OwnershipTransferred",
      "type": "event"
    },
    {
      "constant": false,
      "inputs": [],
      "name": "deposit",
      "outputs": [
        {
          "name": "",
          "type": "bool"
        }
      ],
      "payable": true,
      "stateMutability": "payable",
      "type": "function"
    },
    {
      "constant": false,
      "inputs": [
        {
          "name": "target",
          "type": "address"
        }
      ],
      "name": "depositFor",
      "outputs": [
        {
          "name": "",
          "type": "bool"
        }
      ],
      "payable": true,
      "stateMutability": "payable",
      "type": "function"
    },
    {
      "constant": false,
      "inputs": [
        {
          "name": "amounts",
          "type": "uint256[]"
        },
        {
          "name": "targets",
          "type": "address[]"
        }
      ],
      "name": "depositForArray",
      "outputs": [
        {
          "name": "",
          "type": "bool"
        }
      ],
      "payable": true,
      "stateMutability": "payable",
      "type": "function"
    },
    {
      "constant": false,
      "inputs": [
        {
          "name": "amount",
          "type": "uint256"
        }
      ],
      "name": "withdraw",
      "outputs": [
        {
          "name": "",
          "type": "bool"
        }
      ],
      "payable": false,
      "stateMutability": "nonpayable",
      "type": "function"
    }
  ],
  "bytecode": "0x60806040819052600080546001600160a01b03191633178082556001600160a01b031691600080516020610c08833981519152908290a36100476001600160e01b0361004c16565b61013d565b61005d6001600160e01b036100d416565b61009c576040517f08c379a00000000000000000000000000000000000000000000000000000000081526004016100939061011e565b60405180910390fd5b600080546040516001600160a01b0390911690600080516020610c08833981519152908390a3600080546001600160a01b0319169055565b6000546001600160a01b0316331490565b60006100f2602083610134565b7f4f776e61626c653a2063616c6c6572206973206e6f7420746865206f776e6572815260200192915050565b6020808252810161012e816100e5565b92915050565b90815260200190565b610abc8061014c6000396000f3fe60806040526004361061011f5760003560e01c80638da5cb5b116100a0578063aa67c91911610064578063aa67c91914610297578063b1b11d2c146102aa578063d0e30db0146102bf578063e2e7a8c1146102c7578063f2fde38b146102dc5761011f565b80638da5cb5b146102365780638f32d59b1461025857806390a0f5461461026d57806390fc26b1146101cd5780639e986e81146102825761011f565b806351152de1116100e757806351152de1146101cd5780635fde601d146101e257806368a9ef1c146101f7578063715018a61461020c5780637b244832146102215761011f565b8063047411e71461012b5780632e1a7d4d146101565780633354f8a51461018357806345b637a9146101965780634ec3b9e3146101b8575b61012933346102fc565b005b34801561013757600080fd5b506101406103c5565b60405161014d91906109cd565b60405180910390f35b34801561016257600080fd5b5061017661017136600461086c565b6103cb565b60405161014d91906109bf565b6101766101913660046107fc565b61040d565b3480156101a257600080fd5b506101ab6104a9565b60405161014d91906109db565b3480156101c457600080fd5b506101406104b8565b3480156101d957600080fd5b506101406104bd565b3480156101ee57600080fd5b506101406104c2565b34801561020357600080fd5b506101406104c7565b34801561021857600080fd5b506101296104cc565b34801561022d57600080fd5b5061014061053a565b34801561024257600080fd5b5061024b61053f565b60405161014d91906109b1565b34801561026457600080fd5b5061017661054e565b34801561027957600080fd5b506101ab61055f565b34801561028e57600080fd5b5061024b61056e565b6101766102a53660046107d6565b6105a8565b3480156102b657600080fd5b506101ab6105bc565b6101766105cb565b3480156102d357600080fd5b506101406105dd565b3480156102e857600080fd5b506101296102f73660046107d6565b6105e5565b6001600160a01b03821661032b5760405162461bcd60e51b815260040161032290610a19565b60405180910390fd5b600b5461033e908263ffffffff61061516565b600b556001600160a01b0382166000908152600c602052604090205461036a908263ffffffff61061516565b6001600160a01b0383166000818152600c60205260408082209390935591519091907fddf252ad1be2c89b69c2b068fc378daa952ba7f163c4a11628f55a4df523b3ef906103b99085906109cd565b60405180910390a35050565b600f5481565b60006103d73383610630565b604051339083156108fc029084906000818181858888f19350505050158015610404573d6000803e3d6000fd5b50600192915050565b600083821461041b57600080fd5b3460005b858110156104925761044c87878381811061043657fe5b90506020020135836106e190919063ffffffff16565b915061048a85858381811061045d57fe5b905060200201602061047291908101906107d6565b88888481811061047e57fe5b905060200201356102fc565b60010161041f565b5061049d33826102fc565b50600195945050505050565b6004546001600160a01b031681565b601e81565b600a81565b600281565b600481565b6104d461054e565b6104f05760405162461bcd60e51b8152600401610322906109f9565b600080546040516001600160a01b03909116907f8be0079c531659141344cd1fd0a4f28419497f9722a3daafe3b4186f6b6457e0908390a3600080546001600160a01b0319169055565b600781565b6000546001600160a01b031690565b6000546001600160a01b0316331490565b6006546001600160a01b031681565b60408051808201909152600a81526969457865634b6974747960b01b6020909101527399c2268479b93fde36232351229815df80837e2481565b60006105b482346102fc565b506001919050565b6005546001600160a01b031681565b60006105d733346102fc565b50600190565b633b9aca0081565b6105ed61054e565b6106095760405162461bcd60e51b8152600401610322906109f9565b610612816106f6565b50565b60008282018381101561062757600080fd5b90505b92915050565b6001600160a01b0382166106565760405162461bcd60e51b815260040161032290610a09565b600b54610669908263ffffffff6106e116565b600b556001600160a01b0382166000908152600c6020526040902054610695908263ffffffff6106e116565b6001600160a01b0383166000818152600c60205260408082209390935591517fddf252ad1be2c89b69c2b068fc378daa952ba7f163c4a11628f55a4df523b3ef906103b99085906109cd565b6000828211156106f057600080fd5b50900390565b6001600160a01b03811661071c5760405162461bcd60e51b8152600401610322906109e9565b600080546040516001600160a01b03808516939216917f8be0079c531659141344cd1fd0a4f28419497f9722a3daafe3b4186f6b6457e091a3600080546001600160a01b0319166001600160a01b0392909216919091179055565b803561062a81610a5c565b60008083601f84011261079457600080fd5b50813567ffffffffffffffff8111156107ac57600080fd5b6020830191508360208202830111156107c457600080fd5b9250929050565b803561062a81610a70565b6000602082840312156107e857600080fd5b60006107f48484610777565b949350505050565b6000806000806040858703121561081257600080fd5b843567ffffffffffffffff81111561082957600080fd5b61083587828801610782565b9450945050602085013567ffffffffffffffff81111561085457600080fd5b61086087828801610782565b95989497509550505050565b60006020828403121561087e57600080fd5b60006107f484846107cb565b61089381610a32565b82525050565b61089381610a3d565b61089381610a42565b61089381610a51565b60006108c1602683610a29565b7f4f776e61626c653a206e6577206f776e657220697320746865207a65726f206181526564647265737360d01b602082015260400192915050565b6000610909602083610a29565b7f4f776e61626c653a2063616c6c6572206973206e6f7420746865206f776e6572815260200192915050565b6000610942602183610a29565b7f45524332303a206275726e2066726f6d20746865207a65726f206164647265738152607360f81b602082015260400192915050565b6000610985601f83610a29565b7f45524332303a206d696e7420746f20746865207a65726f206164647265737300815260200192915050565b6020810161062a828461088a565b6020810161062a8284610899565b6020810161062a82846108a2565b6020810161062a82846108ab565b6020808252810161062a816108b4565b6020808252810161062a816108fc565b6020808252810161062a81610935565b6020808252810161062a81610978565b90815260200190565b600061062a82610a45565b151590565b90565b6001600160a01b031690565b600061062a82610a32565b610a6581610a32565b811461061257600080fd5b610a6581610a4256fea365627a7a7230582063d1206d4a002b7c25ab1b935d4268c5e8381cad4092515be1583a34fbbf90bb6c6578706572696d656e74616cf564736f6c634300050a00408be0079c531659141344cd1fd0a4f28419497f9722a3daafe3b4186f6b6457e0",
  "source": "pragma solidity ^0.5.10;\npragma experimental ABIEncoderV2;\n\nimport \"./IexecERC20.sol\";\nimport \"../IexecDelegateBase.sol\";\n\n\ninterface IexecEscrowNative\n{\n\tfunction () external payable;\n\tfunction deposit() external payable returns (bool);\n\tfunction depositFor(address) external payable returns (bool);\n\tfunction depositForArray(uint256[] calldata,address[] calldata) external payable returns (bool);\n\tfunction withdraw(uint256) external returns (bool);\n}\n\ncontract IexecEscrowNativeDelegate is IexecEscrowNative, IexecDelegateBase, IexecERC20Common\n{\n\t/***************************************************************************\n\t *                         Escrow methods: public                          *\n\t ***************************************************************************/\n\tfunction ()\n\t\texternal payable\n\t{\n\t\t_mint(msg.sender, msg.value);\n\t}\n\n\tfunction deposit()\n\t\texternal payable returns (bool)\n\t{\n\t\t_mint(msg.sender, msg.value);\n\t\treturn true;\n\t}\n\n\tfunction depositFor(address target)\n\t\texternal payable returns (bool)\n\t{\n\t\t_mint(target, msg.value);\n\t\treturn true;\n\t}\n\n\tfunction depositForArray(uint256[] calldata amounts, address[] calldata targets)\n\t\texternal payable returns (bool)\n\t{\n\t\trequire(amounts.length == targets.length);\n\t\tuint256 remaining = msg.value;\n\t\tfor (uint i = 0; i < amounts.length; ++i)\n\t\t{\n\t\t\tremaining = remaining.sub(amounts[i]);\n\t\t\t_mint(targets[i], amounts[i]);\n\t\t}\n\t\t_mint(msg.sender, remaining);\n\t\treturn true;\n\t}\n\n\tfunction withdraw(uint256 amount)\n\t\texternal returns (bool)\n\t{\n\t\t_burn(msg.sender, amount);\n\t\tmsg.sender.transfer(amount);\n\t\treturn true;\n\t}\n}\n",
  "sourcePath": "/home/amxx/Work/iExec/code/PoCo-dev/contracts/delegates/IexecEscrowNative.sol",
  "compiler": {
    "name": "solc",
    "version": "0.5.10+commit.5a6ea5b1.Emscripten.clang"
  },
  "schemaVersion": "3.0.11",
  "updatedAt": "2019-06-27T11:33:55.749Z",
  "devdoc": {
    "methods": {
      "isOwner()": {
        "details": "Returns true if the caller is the current owner."
      },
      "owner()": {
        "details": "Returns the address of the current owner."
      },
      "renounceOwnership()": {
        "details": "Leaves the contract without owner. It will not be possible to call `onlyOwner` functions anymore. Can only be called by the current owner.     * > Note: Renouncing ownership will leave the contract without an owner, thereby removing any functionality that is only available to the owner."
      },
      "transferOwnership(address)": {
        "details": "Transfers ownership of the contract to a new account (`newOwner`). Can only be called by the current owner."
      }
    }
  },
  "userdoc": {
    "methods": {}
  }
}