{
  "contractName": "IexecHub",
  "abi": [
    {
      "constant": true,
      "inputs": [
        {
          "name": "_identity",
          "type": "address"
        },
        {
          "name": "_hash",
          "type": "bytes32"
        },
        {
          "name": "_signature",
          "type": "bytes"
        }
      ],
      "name": "verifySignature",
      "outputs": [
        {
          "name": "",
          "type": "bool"
        }
      ],
      "payable": false,
      "stateMutability": "view",
      "type": "function"
    },
    {
      "constant": false,
      "inputs": [
        {
          "name": "name",
          "type": "string"
        },
        {
          "name": "description",
          "type": "string"
        },
        {
          "name": "workClockTimeRef",
          "type": "uint256"
        }
      ],
      "name": "createCategory",
      "outputs": [
        {
          "name": "",
          "type": "uint256"
        }
      ],
      "payable": false,
      "stateMutability": "nonpayable",
      "type": "function"
    },
    {
      "constant": true,
      "inputs": [],
      "name": "appregistry",
      "outputs": [
        {
          "name": "",
          "type": "address"
        }
      ],
      "payable": false,
      "stateMutability": "view",
      "type": "function"
    },
    {
      "constant": true,
      "inputs": [],
      "name": "CONSENSUS_DURATION_RATIO",
      "outputs": [
        {
          "name": "",
          "type": "uint256"
        }
      ],
      "payable": false,
      "stateMutability": "view",
      "type": "function"
    },
    {
      "constant": true,
      "inputs": [
        {
          "name": "_catid",
          "type": "uint256"
        }
      ],
      "name": "viewCategory",
      "outputs": [
        {
          "components": [
            {
              "name": "name",
              "type": "string"
            },
            {
              "name": "description",
              "type": "string"
            },
            {
              "name": "workClockTimeRef",
              "type": "uint256"
            }
          ],
          "name": "category",
          "type": "tuple"
        }
      ],
      "payable": false,
      "stateMutability": "view",
      "type": "function"
    },
    {
      "constant": true,
      "inputs": [],
      "name": "REVEAL_DEADLINE_RATIO",
      "outputs": [
        {
          "name": "",
          "type": "uint256"
        }
      ],
      "payable": false,
      "stateMutability": "view",
      "type": "function"
    },
    {
      "constant": false,
      "inputs": [],
      "name": "renounceOwnership",
      "outputs": [],
      "payable": false,
      "stateMutability": "nonpayable",
      "type": "function"
    },
    {
      "constant": true,
      "inputs": [],
      "name": "CONTRIBUTION_DEADLINE_RATIO",
      "outputs": [
        {
          "name": "",
          "type": "uint256"
        }
      ],
      "payable": false,
      "stateMutability": "view",
      "type": "function"
    },
    {
      "constant": true,
      "inputs": [],
      "name": "owner",
      "outputs": [
        {
          "name": "",
          "type": "address"
        }
      ],
      "payable": false,
      "stateMutability": "view",
      "type": "function"
    },
    {
      "constant": true,
      "inputs": [],
      "name": "isOwner",
      "outputs": [
        {
          "name": "",
          "type": "bool"
        }
      ],
      "payable": false,
      "stateMutability": "view",
      "type": "function"
    },
    {
      "constant": true,
      "inputs": [],
      "name": "workerpoolregistry",
      "outputs": [
        {
          "name": "",
          "type": "address"
        }
      ],
      "payable": false,
      "stateMutability": "view",
      "type": "function"
    },
    {
      "constant": true,
      "inputs": [],
      "name": "FINAL_DEADLINE_RATIO",
      "outputs": [
        {
          "name": "",
          "type": "uint256"
        }
      ],
      "payable": false,
      "stateMutability": "view",
      "type": "function"
    },
    {
      "constant": true,
      "inputs": [],
      "name": "iexecclerk",
      "outputs": [
        {
          "name": "",
          "type": "address"
        }
      ],
      "payable": false,
      "stateMutability": "view",
      "type": "function"
    },
    {
      "constant": true,
      "inputs": [],
      "name": "datasetregistry",
      "outputs": [
        {
          "name": "",
          "type": "address"
        }
      ],
      "payable": false,
      "stateMutability": "view",
      "type": "function"
    },
    {
      "constant": true,
      "inputs": [],
      "name": "countCategory",
      "outputs": [
        {
          "name": "count",
          "type": "uint256"
        }
      ],
      "payable": false,
      "stateMutability": "view",
      "type": "function"
    },
    {
      "constant": true,
      "inputs": [],
      "name": "REVEAL_DURATION_RATIO",
      "outputs": [
        {
          "name": "",
          "type": "uint256"
        }
      ],
      "payable": false,
      "stateMutability": "view",
      "type": "function"
    },
    {
      "constant": false,
      "inputs": [
        {
          "name": "newOwner",
          "type": "address"
        }
      ],
      "name": "transferOwnership",
      "outputs": [],
      "payable": false,
      "stateMutability": "nonpayable",
      "type": "function"
    },
    {
      "inputs": [],
      "payable": false,
      "stateMutability": "nonpayable",
      "type": "constructor"
    },
    {
      "anonymous": false,
      "inputs": [
        {
          "indexed": true,
          "name": "taskid",
          "type": "bytes32"
        },
        {
          "indexed": true,
          "name": "workerpool",
          "type": "address"
        }
      ],
      "name": "TaskInitialize",
      "type": "event"
    },
    {
      "anonymous": false,
      "inputs": [
        {
          "indexed": true,
          "name": "taskid",
          "type": "bytes32"
        },
        {
          "indexed": true,
          "name": "worker",
          "type": "address"
        },
        {
          "indexed": false,
          "name": "hash",
          "type": "bytes32"
        }
      ],
      "name": "TaskContribute",
      "type": "event"
    },
    {
      "anonymous": false,
      "inputs": [
        {
          "indexed": true,
          "name": "taskid",
          "type": "bytes32"
        },
        {
          "indexed": false,
          "name": "consensus",
          "type": "bytes32"
        }
      ],
      "name": "TaskConsensus",
      "type": "event"
    },
    {
      "anonymous": false,
      "inputs": [
        {
          "indexed": true,
          "name": "taskid",
          "type": "bytes32"
        },
        {
          "indexed": true,
          "name": "worker",
          "type": "address"
        },
        {
          "indexed": false,
          "name": "digest",
          "type": "bytes32"
        }
      ],
      "name": "TaskReveal",
      "type": "event"
    },
    {
      "anonymous": false,
      "inputs": [
        {
          "indexed": true,
          "name": "taskid",
          "type": "bytes32"
        }
      ],
      "name": "TaskReopen",
      "type": "event"
    },
    {
      "anonymous": false,
      "inputs": [
        {
          "indexed": true,
          "name": "taskid",
          "type": "bytes32"
        },
        {
          "indexed": false,
          "name": "results",
          "type": "bytes"
        }
      ],
      "name": "TaskFinalize",
      "type": "event"
    },
    {
      "anonymous": false,
      "inputs": [
        {
          "indexed": true,
          "name": "taskid",
          "type": "bytes32"
        }
      ],
      "name": "TaskClaimed",
      "type": "event"
    },
    {
      "anonymous": false,
      "inputs": [
        {
          "indexed": true,
          "name": "worker",
          "type": "address"
        },
        {
          "indexed": true,
          "name": "taskid",
          "type": "bytes32"
        }
      ],
      "name": "AccurateContribution",
      "type": "event"
    },
    {
      "anonymous": false,
      "inputs": [
        {
          "indexed": true,
          "name": "worker",
          "type": "address"
        },
        {
          "indexed": true,
          "name": "taskid",
          "type": "bytes32"
        }
      ],
      "name": "FaultyContribution",
      "type": "event"
    },
    {
      "anonymous": false,
      "inputs": [
        {
          "indexed": false,
          "name": "catid",
          "type": "uint256"
        },
        {
          "indexed": false,
          "name": "name",
          "type": "string"
        },
        {
          "indexed": false,
          "name": "description",
          "type": "string"
        },
        {
          "indexed": false,
          "name": "workClockTimeRef",
          "type": "uint256"
        }
      ],
      "name": "CreateCategory",
      "type": "event"
    },
    {
      "anonymous": false,
      "inputs": [
        {
          "indexed": true,
          "name": "previousOwner",
          "type": "address"
        },
        {
          "indexed": true,
          "name": "newOwner",
          "type": "address"
        }
      ],
      "name": "OwnershipTransferred",
      "type": "event"
    },
    {
      "constant": false,
      "inputs": [
        {
          "name": "_iexecclerkAddress",
          "type": "address"
        },
        {
          "name": "_appregistryAddress",
          "type": "address"
        },
        {
          "name": "_datasetregistryAddress",
          "type": "address"
        },
        {
          "name": "_workerpoolregistryAddress",
          "type": "address"
        }
      ],
      "name": "attachContracts",
      "outputs": [],
      "payable": false,
      "stateMutability": "nonpayable",
      "type": "function"
    },
    {
      "constant": true,
      "inputs": [
        {
          "name": "_taskid",
          "type": "bytes32"
        }
      ],
      "name": "viewTask",
      "outputs": [
        {
          "components": [
            {
              "name": "status",
              "type": "uint8"
            },
            {
              "name": "dealid",
              "type": "bytes32"
            },
            {
              "name": "idx",
              "type": "uint256"
            },
            {
              "name": "timeref",
              "type": "uint256"
            },
            {
              "name": "contributionDeadline",
              "type": "uint256"
            },
            {
              "name": "revealDeadline",
              "type": "uint256"
            },
            {
              "name": "finalDeadline",
              "type": "uint256"
            },
            {
              "name": "consensusValue",
              "type": "bytes32"
            },
            {
              "name": "revealCounter",
              "type": "uint256"
            },
            {
              "name": "winnerCounter",
              "type": "uint256"
            },
            {
              "name": "contributors",
              "type": "address[]"
            },
            {
              "name": "resultDigest",
              "type": "bytes32"
            },
            {
              "name": "results",
              "type": "bytes"
            }
          ],
          "name": "",
          "type": "tuple"
        }
      ],
      "payable": false,
      "stateMutability": "view",
      "type": "function"
    },
    {
      "constant": true,
      "inputs": [
        {
          "name": "_taskid",
          "type": "bytes32"
        },
        {
          "name": "_worker",
          "type": "address"
        }
      ],
      "name": "viewContribution",
      "outputs": [
        {
          "components": [
            {
              "name": "status",
              "type": "uint8"
            },
            {
              "name": "resultHash",
              "type": "bytes32"
            },
            {
              "name": "resultSeal",
              "type": "bytes32"
            },
            {
              "name": "enclaveChallenge",
              "type": "address"
            }
          ],
          "name": "",
          "type": "tuple"
        }
      ],
      "payable": false,
      "stateMutability": "view",
      "type": "function"
    },
    {
      "constant": true,
      "inputs": [
        {
          "name": "_worker",
          "type": "address"
        }
      ],
      "name": "viewScore",
      "outputs": [
        {
          "name": "",
          "type": "uint256"
        }
      ],
      "payable": false,
      "stateMutability": "view",
      "type": "function"
    },
    {
      "constant": true,
      "inputs": [
        {
          "name": "app",
          "type": "address"
        },
        {
          "name": "dataset",
          "type": "address"
        },
        {
          "name": "workerpool",
          "type": "address"
        }
      ],
      "name": "checkResources",
      "outputs": [
        {
          "name": "",
          "type": "bool"
        }
      ],
      "payable": false,
      "stateMutability": "view",
      "type": "function"
    },
    {
      "constant": true,
      "inputs": [
        {
          "name": "id",
          "type": "bytes32"
        }
      ],
      "name": "resultFor",
      "outputs": [
        {
          "name": "",
          "type": "bytes"
        }
      ],
      "payable": false,
      "stateMutability": "view",
      "type": "function"
    },
    {
      "constant": false,
      "inputs": [
        {
          "name": "_dealid",
          "type": "bytes32"
        },
        {
          "name": "idx",
          "type": "uint256"
        }
      ],
      "name": "initialize",
      "outputs": [
        {
          "name": "",
          "type": "bytes32"
        }
      ],
      "payable": false,
      "stateMutability": "nonpayable",
      "type": "function"
    },
    {
      "constant": false,
      "inputs": [
        {
          "name": "_taskid",
          "type": "bytes32"
        },
        {
          "name": "_resultHash",
          "type": "bytes32"
        },
        {
          "name": "_resultSeal",
          "type": "bytes32"
        },
        {
          "name": "_enclaveChallenge",
          "type": "address"
        },
        {
          "name": "_enclaveSign",
          "type": "bytes"
        },
        {
          "name": "_workerpoolSign",
          "type": "bytes"
        }
      ],
      "name": "contribute",
      "outputs": [],
      "payable": false,
      "stateMutability": "nonpayable",
      "type": "function"
    },
    {
      "constant": false,
      "inputs": [
        {
          "name": "_taskid",
          "type": "bytes32"
        },
        {
          "name": "_resultDigest",
          "type": "bytes32"
        }
      ],
      "name": "reveal",
      "outputs": [],
      "payable": false,
      "stateMutability": "nonpayable",
      "type": "function"
    },
    {
      "constant": false,
      "inputs": [
        {
          "name": "_taskid",
          "type": "bytes32"
        }
      ],
      "name": "reopen",
      "outputs": [],
      "payable": false,
      "stateMutability": "nonpayable",
      "type": "function"
    },
    {
      "constant": false,
      "inputs": [
        {
          "name": "_taskid",
          "type": "bytes32"
        },
        {
          "name": "_results",
          "type": "bytes"
        }
      ],
      "name": "finalize",
      "outputs": [],
      "payable": false,
      "stateMutability": "nonpayable",
      "type": "function"
    },
    {
      "constant": false,
      "inputs": [
        {
          "name": "_taskid",
          "type": "bytes32"
        }
      ],
      "name": "claim",
      "outputs": [],
      "payable": false,
      "stateMutability": "nonpayable",
      "type": "function"
    },
    {
      "constant": false,
      "inputs": [
        {
          "name": "_dealid",
          "type": "bytes32[]"
        },
        {
          "name": "_idx",
          "type": "uint256[]"
        }
      ],
      "name": "initializeArray",
      "outputs": [
        {
          "name": "",
          "type": "bool"
        }
      ],
      "payable": false,
      "stateMutability": "nonpayable",
      "type": "function"
    },
    {
      "constant": false,
      "inputs": [
        {
          "name": "_taskid",
          "type": "bytes32[]"
        }
      ],
      "name": "claimArray",
      "outputs": [
        {
          "name": "",
          "type": "bool"
        }
      ],
      "payable": false,
      "stateMutability": "nonpayable",
      "type": "function"
    },
    {
      "constant": false,
      "inputs": [
        {
          "name": "_dealid",
          "type": "bytes32[]"
        },
        {
          "name": "_idx",
          "type": "uint256[]"
        }
      ],
      "name": "initializeAndClaimArray",
      "outputs": [
        {
          "name": "",
          "type": "bool"
        }
      ],
      "payable": false,
      "stateMutability": "nonpayable",
      "type": "function"
    },
    {
      "constant": true,
      "inputs": [
        {
          "name": "_taskid",
          "type": "bytes32"
        }
      ],
      "name": "viewTaskABILegacy",
      "outputs": [
        {
          "name": "",
          "type": "uint8"
        },
        {
          "name": "",
          "type": "bytes32"
        },
        {
          "name": "",
          "type": "uint256"
        },
        {
          "name": "",
          "type": "uint256"
        },
        {
          "name": "",
          "type": "uint256"
        },
        {
          "name": "",
          "type": "uint256"
        },
        {
          "name": "",
          "type": "uint256"
        },
        {
          "name": "",
          "type": "bytes32"
        },
        {
          "name": "",
          "type": "uint256"
        },
        {
          "name": "",
          "type": "uint256"
        },
        {
          "name": "",
          "type": "address[]"
        },
        {
          "name": "",
          "type": "bytes"
        }
      ],
      "payable": false,
      "stateMutability": "view",
      "type": "function"
    },
    {
      "constant": true,
      "inputs": [
        {
          "name": "_taskid",
          "type": "bytes32"
        },
        {
          "name": "_worker",
          "type": "address"
        }
      ],
      "name": "viewContributionABILegacy",
      "outputs": [
        {
          "name": "",
          "type": "uint8"
        },
        {
          "name": "",
          "type": "bytes32"
        },
        {
          "name": "",
          "type": "bytes32"
        },
        {
          "name": "",
          "type": "address"
        }
      ],
      "payable": false,
      "stateMutability": "view",
      "type": "function"
    },
    {
      "constant": true,
      "inputs": [
        {
          "name": "_catid",
          "type": "uint256"
        }
      ],
      "name": "viewCategoryABILegacy",
      "outputs": [
        {
          "name": "",
          "type": "string"
        },
        {
          "name": "",
          "type": "string"
        },
        {
          "name": "",
          "type": "uint256"
        }
      ],
      "payable": false,
      "stateMutability": "view",
      "type": "function"
    }
  ],
  "bytecode": "0x608060405234801561001057600080fd5b50600080546001600160a01b03191633178082556040516001600160a01b039190911691907f8be0079c531659141344cd1fd0a4f28419497f9722a3daafe3b4186f6b6457e0908290a36141ac806100696000396000f3fe608060405234801561001057600080fd5b50600436106102115760003560e01c806390fc26b111610125578063db230b52116100ad578063f6c68e101161007c578063f6c68e101461044c578063f722cb321461045f578063f9353b8d14610472578063fa055d7e14610494578063fc334e8c146104a757610211565b8063db230b5214610406578063e741363b14610419578063e9ebbaf814610338578063f2fde38b1461043957610211565b8063b504681d116100f4578063b504681d146103a5578063bd66528a146103b8578063c037f13e146103cb578063c140996f146103de578063d09cc57e146103e657610211565b806390fc26b1146102ea578063adccf0d514610375578063b01c684614610395578063b1b11d2c1461039d57610211565b80634704511d116101a8578063715018a611610177578063715018a6146103405780637b244832146103485780638da5cb5b146103505780638f32d59b1461036557806390a0f5461461036d57610211565b80634704511d146102f25780634f5f44ec146103055780635b36c66b146103255780635fde601d1461033857610211565b8063298503d9116101e4578063298503d9146102a057806334623484146102c057806345b637a9146102d557806345b99d28146102ea57610211565b80630175199814610216578063097d630d1461023f57806311e35aba14610252578063248ad6a014610275575b600080fd5b610229610224366004613482565b6104ba565b6040516102369190613cdd565b60405180910390f35b61022961024d366004613435565b610555565b6102656102603660046135c7565b61070c565b6040516102369493929190613e4f565b6102886102833660046135a9565b6107b8565b6040516102369c9b9a99989796959493929190613e84565b6102b36102ae36600461373b565b6109d7565b6040516102369190613ceb565b6102d36102ce366004613631565b610b33565b005b6102dd610f0f565b6040516102369190613e41565b6102b3610f1e565b6102d36103003660046133d4565b610f23565b6103186103133660046135a9565b610fad565b6040516102369190613f98565b6102b3610333366004613601565b611122565b6102b36113b4565b6102d36113b9565b6102b3611427565b61035861142c565b6040516102369190613ccf565b61022961143c565b6102dd61144d565b6103886103833660046135a9565b61145c565b6040516102369190613fb7565b6102dd611600565b6102dd61160f565b6102296103b336600461351d565b61161e565b6102d36103c63660046135a9565b61167c565b6102d36103d93660046136e6565b61181a565b6102b3611b5d565b6103f96103f43660046135a9565b611b63565b6040516102369190613e30565b6102b36104143660046133b6565b611c25565b61042c6104273660046135c7565b611c40565b6040516102369190613fa9565b6102d36104473660046133b6565b611cc4565b6102d361045a3660046135a9565b611cf4565b61022961046d36600461351d565b611f4f565b6104856104803660046135a9565b611f95565b60405161023693929190613f44565b6102296104a23660046134dc565b612122565b6102d36104b5366004613601565b612151565b60006104c78484846122a9565b8061054b5750604051630b135d3f60e11b81526001600160a01b03851690631626ba7e906104fb9086908690600401613dc8565b60206040518083038186803b15801561051357600080fd5b505afa158015610527573d6000803e3d6000fd5b505050506040513d601f19601f8201168201806040525061054b919081019061358b565b90505b9392505050565b60075460405163c3c5a54760e01b81526000916001600160a01b03169063c3c5a54790610586908790600401613ccf565b60206040518083038186803b15801561059e57600080fd5b505afa1580156105b2573d6000803e3d6000fd5b505050506040513d601f19601f820116820180604052506105d6919081019061358b565b6105df57600080fd5b6001600160a01b0383161580610670575060085460405163c3c5a54760e01b81526001600160a01b039091169063c3c5a54790610620908690600401613ccf565b60206040518083038186803b15801561063857600080fd5b505afa15801561064c573d6000803e3d6000fd5b505050506040513d601f19601f82011682018060405250610670919081019061358b565b61067957600080fd5b60095460405163c3c5a54760e01b81526001600160a01b039091169063c3c5a547906106a9908590600401613ccf565b60206040518083038186803b1580156106c157600080fd5b505afa1580156106d5573d6000803e3d6000fd5b505050506040513d601f19601f820116820180604052506106f9919081019061358b565b61070257600080fd5b5060019392505050565b60008060008061071a612e02565b6000878152600b602090815260408083206001600160a01b038a168452909152908190208151608081019092528054829060ff16600381111561075957fe5b600381111561076457fe5b8152600182015460208083019190915260028301546040808401919091526003909301546001600160a01b0316606092830152835190840151928401519390910151909a9199509197509095509350505050565b6000806000806000806000806000806060806107d2612e2b565b60008e8152600a60205260409081902081516101a081019092528054829060ff1660048111156107fe57fe5b600481111561080957fe5b8152602001600182015481526020016002820154815260200160038201548152602001600482015481526020016005820154815260200160068201548152602001600782015481526020016008820154815260200160098201548152602001600a82018054806020026020016040519081016040528092919081815260200182805480156108c057602002820191906000526020600020905b81546001600160a01b031681526001909101906020018083116108a2575b5050509183525050600b820154602080830191909152600c8301805460408051601f6002600019610100600187161502019094169390930492830185900485028101850182528281529401939283018282801561095e5780601f106109335761010080835404028352916020019161095e565b820191906000526020600020905b81548152906001019060200180831161094157829003601f168201915b5050505050815250509050806000015181602001518260400151836060015184608001518560a001518660c001518760e001518861010001518961012001518a61014001518b61018001518191508090509c509c509c509c509c509c509c509c509c509c509c509c505091939597999b5091939597999b565b60006109e161143c565b610a065760405162461bcd60e51b81526004016109fd90613f88565b60405180910390fd5b600060018060405180606001604052808a8a8080601f016020809104026020016040519081016040528093929190818152602001838380828437600092019190915250505090825250604080516020601f8b0181900481028201810190925289815291810191908a908a9081908401838280828437600092018290525093855250505060209182018890528354600181018086559482529082902083518051600390930290910192610abd92849290910190612e9d565b506020828101518051610ad69260018501920190612e9d565b506040820151816002015550500390507f62bf08360c9d561749c54eaf4f8bf8cb6c8b6f4f40607bcec39a8172e714d25c818888888888604051610b1f96959493929190613fc8565b60405180910390a190505b95945050505050565b6000868152600a60209081526040808320600b8352818420338552909252909120610b5c612f1b565b6006546001840154604051635ba430d960e11b81526001600160a01b039092169163b74861b291610b8f91600401613ceb565b60006040518083038186803b158015610ba757600080fd5b505afa158015610bbb573d6000803e3d6000fd5b505050506040513d6000823e601f3d908101601f19168201604052610be391908101906137bf565b90506001835460ff166004811115610bf757fe5b14610c0157600080fd5b42836004015411610c1157600080fd5b6000825460ff166003811115610c2357fe5b14610c2d57600080fd5b610c72816040015160200151610c6c338c8a604051602001610c5193929190613c0f565b6040516020818303038152906040528051906020012061237e565b866104ba565b610c7b57600080fd5b6001600160a01b038616151580610ca0575060a0810151601f1a60f81b600160f81b16155b610ca957600080fd5b6001600160a01b0386161580610cda5750610cda86610cd48a8a604051602001610c51929190613c7d565b876104ba565b610ce357600080fd5b815460ff191660019081178355808301899055600283018890556003830180546001600160a01b03199081166001600160a01b038a811691909117909255600a8601805480850182556000918252602090912001805433921682179055600654928601546040516373cc248d60e11b8152939092169263e798491a92610d6d929091600401613d14565b600060405180830381600087803b158015610d8757600080fd5b505af1158015610d9b573d6000803e3d6000fd5b50505050336001600160a01b0316897f3fdb8d7797562d49a81078dbf7fa1771958ea452f8b13d1148383bd9506aecfb8a604051610dd99190613ceb565b60405180910390a3336000908152600c6020526040812054610e2790600190610e1b90600390610e0f908263ffffffff6123ae16565b9063ffffffff6123d016565b9063ffffffff6123e716565b60008b8152600e602090815260408083208d8452909152812054919250610e6982610e1b85610e5d83600163ffffffff6123d016565b9063ffffffff6123fc16565b9050610e7483612423565b60008d8152600d602090815260408083203384528252808320939093558e8252600e81528282208e835290522054610eb2908263ffffffff6125e116565b60008d8152600e602090815260408083208f84528252808320939093558e8252600f90522054610ee8908263ffffffff6125e116565b60008d8152600f6020526040902055610f018c8c6125f3565b505050505050505050505050565b6007546001600160a01b031681565b600a81565b610f2b61143c565b610f475760405162461bcd60e51b81526004016109fd90613f88565b6006546001600160a01b031615610f5d57600080fd5b600680546001600160a01b039586166001600160a01b0319918216179091556007805494861694821694909417909355600880549285169284169290921790915560098054919093169116179055565b610fb5612fc1565b60018281548110610fc257fe5b600091825260209182902060408051600393909302909101805460026001821615610100026000190190911604601f81018590049094028301608090810190925260608301848152929390928492909184918401828280156110655780601f1061103a57610100808354040283529160200191611065565b820191906000526020600020905b81548152906001019060200180831161104857829003601f168201915b50505050508152602001600182018054600181600116156101000203166002900480601f0160208091040260200160405190810160405280929190818152602001828054600181600116156101000203166002900480156111075780601f106110dc57610100808354040283529160200191611107565b820191906000526020600020905b8154815290600101906020018083116110ea57829003601f168201915b5050505050815260200160028201548152505090505b919050565b600061112c612f1b565b600654604051635ba430d960e11b81526001600160a01b039091169063b74861b29061115c908790600401613ceb565b60006040518083038186803b15801561117457600080fd5b505afa158015611188573d6000803e3d6000fd5b505050506040513d6000823e601f3d908101601f191682016040526111b091908101906137bf565b90508061016001518310156111c457600080fd5b6101808101516101608201516111df9163ffffffff6125e116565b83106111ea57600080fd5b600084846040516020016111ff929190613c7d565b60408051601f1981840301815291815281516020928301206000818152600a90935290822090925090815460ff16600481111561123857fe5b1461124257600080fd5b805460ff1916600190811782558082018790556002820186905560808401518154811061126b57fe5b60009182526020909120600391820201600201549082018190556101408401516112a69161129a9060076123fc565b9063ffffffff6125e116565b600482015561014083015160038201546112cc919061129a90600a63ffffffff6123fc16565b6006808301919091556000838152600f6020526040908190206001905590549051635ba430d960e11b81526001600160a01b039091169063b74861b290611317908990600401613ceb565b60006040518083038186803b15801561132f57600080fd5b505afa158015611343573d6000803e3d6000fd5b505050506040513d6000823e601f3d908101601f1916820160405261136b91908101906137bf565b60400151600001516001600160a01b0316827f252992fb0468d68d6a5784ec03214f0d0a362083f2d7ebd157af43b017a22e0660405160405180910390a3509150505b92915050565b600281565b6113c161143c565b6113dd5760405162461bcd60e51b81526004016109fd90613f88565b600080546040516001600160a01b03909116907f8be0079c531659141344cd1fd0a4f28419497f9722a3daafe3b4186f6b6457e0908390a3600080546001600160a01b0319169055565b600781565b6000546001600160a01b03165b90565b6000546001600160a01b0316331490565b6009546001600160a01b031681565b611464612e2b565b6000828152600a60205260409081902081516101a081019092528054829060ff16600481111561149057fe5b600481111561149b57fe5b8152602001600182015481526020016002820154815260200160038201548152602001600482015481526020016005820154815260200160068201548152602001600782015481526020016008820154815260200160098201548152602001600a820180548060200260200160405190810160405280929190818152602001828054801561155257602002820191906000526020600020905b81546001600160a01b03168152600190910190602001808311611534575b5050509183525050600b820154602080830191909152600c8301805460408051601f600260001961010060018716150201909416939093049283018590048502810185018252828152940193928301828280156115f05780601f106115c5576101008083540402835291602001916115f0565b820191906000526020600020905b8154815290600101906020018083116115d357829003601f168201915b5050505050815250509050919050565b6006546001600160a01b031681565b6008546001600160a01b031681565b600083821461162c57600080fd5b60005b8481101561166e5761166586868381811061164657fe5b9050602002013585858481811061165957fe5b90506020020135611122565b5060010161162f565b50600190505b949350505050565b6000818152600a602052604090206001815460ff16600481111561169c57fe5b14806116b757506002815460ff1660048111156116b557fe5b145b6116c057600080fd5b42816006015411156116d157600080fd5b805460ff19166004908117825560065460018301546040516351a0942f60e01b81526001600160a01b03909216926351a0942f926117129291879101613d8c565b600060405180830381600087803b15801561172c57600080fd5b505af1158015611740573d6000803e3d6000fd5b506000925050505b600a8201548110156117ea57600082600a01828154811061176557fe5b6000918252602090912001546006546001850154604051636eb528b560e01b81526001600160a01b0393841694509290911691636eb528b5916117ac918590600401613cf9565b600060405180830381600087803b1580156117c657600080fd5b505af11580156117da573d6000803e3d6000fd5b5050505050806001019050611748565b5060405182907fcbc308b5f91040d2659a5201858344b0b583cd2f9e18e8470c2fa052c5b21ff890600090a25050565b6006546000848152600a602052604090819020600101549051635ba430d960e11b815285926001600160a01b03169163b74861b29161185c9190600401613ceb565b60006040518083038186803b15801561187457600080fd5b505afa158015611888573d6000803e3d6000fd5b505050506040513d6000823e601f3d908101601f191682016040526118b091908101906137bf565b60400151602001516001600160a01b0316336001600160a01b0316146118d557600080fd5b6000848152600a602052604090206002815460ff1660048111156118f557fe5b146118ff57600080fd5b4281600601541161190f57600080fd5b806009015481600801541480611938575060008160080154118015611938575042816005015411155b61194157600080fd5b805460ff1916600317815561195a600c82018585612fe2565b5060065460018201546040516370c4c27760e01b81526001600160a01b03909216916370c4c27791611990918990600401613d8c565b600060405180830381600087803b1580156119aa57600080fd5b505af11580156119be573d6000803e3d6000fd5b505050506119cb8561282d565b847f78ce8a8bc0fcb704e8ba3b3dbb36aa88002df8038128b4af2f27ef65db66504485856040516119fd929190613e1e565b60405180910390a26006546001820154604051635ba430d960e11b81526000926001600160a01b03169163b74861b291611a3a9190600401613ceb565b60006040518083038186803b158015611a5257600080fd5b505afa158015611a66573d6000803e3d6000fd5b505050506040513d6000823e601f3d908101601f19168201604052611a8e91908101906137bf565b610100015190506001600160a01b03811615611b5557620186a05a11611ab357600080fd5b6000816001600160a01b0316620186a0888888604051602401611ad893929190613da7565b60408051601f198184030181529181526020820180516001600160e01b0316635dd8085560e01b17905251611b0d9190613ca3565b60006040518083038160008787f1925050503d8060008114611b4b576040519150601f19603f3d011682016040523d82523d6000602084013e611b50565b606091505b505050505b505050505050565b60015490565b6000818152600a602052604090206060906003815460ff166004811115611b8657fe5b14611b9057600080fd5b600c8101805460408051602060026001851615610100026000190190941693909304601f81018490048402820184019092528181529291830182828015611c185780601f10611bed57610100808354040283529160200191611c18565b820191906000526020600020905b815481529060010190602001808311611bfb57829003601f168201915b5050505050915050919050565b6001600160a01b03166000908152600c602052604090205490565b611c48612e02565b6000838152600b602090815260408083206001600160a01b0386168452909152908190208151608081019092528054829060ff166003811115611c8757fe5b6003811115611c9257fe5b815260018201546020820152600282015460408201526003909101546001600160a01b03166060909101529392505050565b611ccc61143c565b611ce85760405162461bcd60e51b81526004016109fd90613f88565b611cf181612d62565b50565b6006546000828152600a602052604090819020600101549051635ba430d960e11b815283926001600160a01b03169163b74861b291611d369190600401613ceb565b60006040518083038186803b158015611d4e57600080fd5b505afa158015611d62573d6000803e3d6000fd5b505050506040513d6000823e601f3d908101601f19168201604052611d8a91908101906137bf565b60400151602001516001600160a01b0316336001600160a01b031614611daf57600080fd5b6000828152600a602052604090206002815460ff166004811115611dcf57fe5b14611dd957600080fd5b42816006015411611de957600080fd5b42816005015411158015611dff57506008810154155b611e0857600080fd5b60005b600a820154811015611ea157600082600a018281548110611e2857fe5b60009182526020808320909101546007860154888452600b835260408085206001600160a01b039093168086529290935291909220600101549192501415611e98576000858152600b602090815260408083206001600160a01b03851684529091529020805460ff191660031790555b50600101611e0b565b506000838152600e6020908152604080832060078501548452825280832054868452600f90925290912054611edb9163ffffffff6123e716565b6000848152600f6020908152604080832093909355600e815282822060078501805484529152828220829055835460ff191660011784558190556005830181905560098301819055905184917f3afe0f24796ce653c6ab1f3e7aba5ce564eece5e82aee724aff28253e829f07b91a2505050565b6000838214611f5d57600080fd5b60005b8481101561166e57611f8d6103c6878784818110611f7a57fe5b9050602002013586868581811061165957fe5b600101611f60565b6060806000611fa2612fc1565b60018581548110611faf57fe5b600091825260209182902060408051600393909302909101805460026001821615610100026000190190911604601f81018590049094028301608090810190925260608301848152929390928492909184918401828280156120525780601f1061202757610100808354040283529160200191612052565b820191906000526020600020905b81548152906001019060200180831161203557829003601f168201915b50505050508152602001600182018054600181600116156101000203166002900480601f0160208091040260200160405190810160405280929190818152602001828054600181600116156101000203166002900480156120f45780601f106120c9576101008083540402835291602001916120f4565b820191906000526020600020905b8154815290600101906020018083116120d757829003601f168201915b5050509183525050600291909101546020918201528151908201516040909201519097919650945092505050565b6000805b828110156107025761214984848381811061213d57fe5b9050602002013561167c565b600101612126565b6000828152600a60209081526040808320600b83528184203385529092529091206002825460ff16600481111561218457fe5b1461218e57600080fd5b4282600501541161219e57600080fd5b6001815460ff1660038111156121b057fe5b146121ba57600080fd5b81600701548160010154146121ce57600080fd5b83836040516020016121e1929190613c7d565b6040516020818303038152906040528051906020012081600101541461220657600080fd5b33848460405160200161221b93929190613c46565b6040516020818303038152906040528051906020012081600201541461224057600080fd5b805460ff19166002178155600882015461225b9060016125e1565b6008830155600b8201839055604051339085907f4b1763d473ac8fa80b4432ba90047e1b92444d8fabc55e6a002d9b1a316d79599061229b908790613ceb565b60405180910390a350505050565b60008060008084516041146122c4576000935050505061054e565b50505060208201516040830151606084015160001a601b8110156122e657601b015b8060ff16601b141580156122fe57508060ff16601c14155b1561230f576000935050505061054e565b600186828585604051600081526020016040526040516123329493929190613e03565b6020604051602081039080840390855afa158015612354573d6000803e3d6000fd5b505050602060405103516001600160a01b0316876001600160a01b03161493505050509392505050565b6000816040516020016123919190613caf565b604051602081830303815290604052805190602001209050919050565b60008082116123bc57600080fd5b60008284816123c757fe5b04949350505050565b6000818310156123e0578161054e565b5090919050565b6000828211156123f657600080fd5b50900390565b60008261240b575060006113ae565b8282028284828161241857fe5b041461054e57600080fd5b604080517ff8f9cbfae6cc78fbefe7cdc3a1793dfcf4f0e8bbd8cec470b6a28a7a5a3e1efd81527ff5ecf1b3e9debc68e1d9cfabc5997135bfb7a7a3938b7b606b5b4b3f2f1f0ffe60208201527ff6e4ed9ff2d6b458eadcdf97bd91692de2d4da8fd2d0ac50c6ae9a8272523616818301527fc8c0b887b0a8a4489c948c7f847c6125746c645c544c444038302820181008ff60608201527ff7cae577eec2a03cf3bad76fb589591debb2dd67e0aa9834bea6925f6a4a2e0e60808201527fe39ed557db96902cd38ed14fad815115c786af479b7e8324736353433727170760a08201527fc976c13bb96e881cb166a933a55e490d9d56952b8d4e801485467d236242260660c08201527f753a6d1b65325d0c552a4d1345224105391a310b29122104190a11030902010060e0820152610100808201909252600160f81b6001600160801b68010000000000000000640100000000620100006010600460026000198c019081041790810417908104178881041790810417908104179081041790810417017e818283848586878898a8b8c8d8e8f929395969799a9b9d9e9faaeb6bedeeff0281900460ff039091015104600160ff1b909211020190565b60008282018381101561054e57600080fd5b6006546000838152600a6020526040808220600101549051635ba430d960e11b815291926001600160a01b03169163b74861b29161263391600401613ceb565b60006040518083038186803b15801561264b57600080fd5b505afa15801561265f573d6000803e3d6000fd5b505050506040513d6000823e601f3d908101601f1916820160405261268791908101906137bf565b6060015190506126bc6126a182600163ffffffff6123e716565b6000858152600f60205260409020549063ffffffff6123fc16565b6000848152600e602090815260408083208684529091529020546126e6908363ffffffff6123fc16565b1115612828576000838152600a6020526040812090805b600a8301548110156127af57600083600a01828154811061271a57fe5b6000918252602080832090910154898352600b825260408084206001600160a01b03909216808552919092529120600101549091508614801561278d575060016000888152600b602090815260408083206001600160a01b038616845290915290205460ff16600381111561278b57fe5b145b156127a6576127a383600163ffffffff6125e116565b92505b506001016126fd565b50815460ff1916600290811783556007830185905560038301546127d891429161129a916123fc565b6005830155600060088301556009820181905560405185907ff6d49bf3e05d33a4bc497d3c793fb5756388bb96b947cf51bb60aaecb0e022e39061281d908790613ceb565b60405180910390a250505b505050565b6000818152600a60205260409020612843612f1b565b6006546001830154604051635ba430d960e11b81526001600160a01b039092169163b74861b29161287691600401613ceb565b60006040518083038186803b15801561288e57600080fd5b505afa1580156128a2573d6000803e3d6000fd5b505050506040513d6000823e601f3d908101601f191682016040526128ca91908101906137bf565b6006546001840154604051635ba430d960e11b81529293506000928392839283926001600160a01b039092169163b74861b29161290991600401613ceb565b60006040518083038186803b15801561292157600080fd5b505afa158015612935573d6000803e3d6000fd5b505050506040513d6000823e601f3d908101601f1916820160405261295d91908101906137bf565b60400151604001519050600093505b600a860154841015612a375785600a01848154811061298757fe5b6000918252602090912001546001600160a01b0316925060026000888152600b602090815260408083206001600160a01b038816845290915290205460ff1660038111156129d157fe5b1415612a12576000878152600d602090815260408083206001600160a01b0387168452909152902054612a0b90839063ffffffff6125e116565b9150612a2c565b6101a0850151612a2990829063ffffffff6125e116565b90505b83600101935061296c565b60008211612a4457600080fd5b6000612a6f612a62876101c0015160646123e790919063ffffffff16565b839063ffffffff612de316565b9050600094505b600a870154851015612cfd5786600a018581548110612a9157fe5b6000918252602090912001546001600160a01b0316935060026000898152600b602090815260408083206001600160a01b038916845290915290205460ff166003811115612adb57fe5b1415612c18576000888152600d602090815260408083206001600160a01b0388168452909152812054612b169083908663ffffffff612ded16565b9050612b28838263ffffffff6123e716565b60065460018a015460405163147e1d8b60e31b81529295506001600160a01b039091169163a3f0ec5891612b6491899086908f90600401613d57565b600060405180830381600087803b158015612b7e57600080fd5b505af1158015612b92573d6000803e3d6000fd5b50505050600a88015460011015612c12576001600160a01b0385166000908152600c6020526040902054612bcd90600163ffffffff6125e116565b6001600160a01b0386166000818152600c60205260408082209390935591518b927f9703f4589802246c80b822e63697180da799e363cd1b6fd9465a5e5574d5349291a35b50612cf2565b6006546001880154604051634f864eb760e11b81526001600160a01b0390921691639f0c9d6e91612c4f9188908d90600401613d2f565b600060405180830381600087803b158015612c6957600080fd5b505af1158015612c7d573d6000803e3d6000fd5b5050506001600160a01b0385166000908152600c6020526040902054612cad91506002600363ffffffff612ded16565b6001600160a01b0385166000818152600c60205260408082209390935591518a927ff868788948d55240774fdbad06555105ef20bbc70d1b7eccda982b65e11e79bb91a35b846001019450612a76565b600654600188015460405163287cd25b60e21b81526001600160a01b039092169163a1f3496c91612d349186908d90600401613de8565b600060405180830381600087803b158015612d4e57600080fd5b505af1158015610f01573d6000803e3d6000fd5b6001600160a01b038116612d885760405162461bcd60e51b81526004016109fd90613f78565b600080546040516001600160a01b03808516939216917f8be0079c531659141344cd1fd0a4f28419497f9722a3daafe3b4186f6b6457e091a3600080546001600160a01b0319166001600160a01b0392909216919091179055565b600061054e838360645b600061054b612dfc85856123fc565b836123ae565b604080516080810190915280600081526000602082018190526040820181905260609091015290565b604080516101a0810190915280600081526020016000801916815260200160008152602001600081526020016000815260200160008152602001600081526020016000801916815260200160008152602001600081526020016060815260200160008019168152602001606081525090565b828054600181600116156101000203166002900490600052602060002090601f016020900481019282601f10612ede57805160ff1916838001178555612f0b565b82800160010185558215612f0b579182015b82811115612f0b578251825591602001919060010190612ef0565b50612f17929150613050565b5090565b604051806102a00160405280612f2f61306a565b8152602001612f3c61306a565b8152602001612f4961306a565b815260200160008152602001600081526020016000801916815260200160006001600160a01b0316815260200160006001600160a01b0316815260200160006001600160a01b031681526020016060815260200160008152602001600081526020016000815260200160008152602001600081525090565b60405180606001604052806060815260200160608152602001600081525090565b828054600181600116156101000203166002900490600052602060002090601f016020900481019282601f106130235782800160ff19823516178555612f0b565b82800160010185558215612f0b579182015b82811115612f0b578235825591602001919060010190613035565b61143991905b80821115612f175760008155600101613056565b604080516060810182526000808252602082018190529181019190915290565b80356113ae81614143565b80516113ae81614143565b60008083601f8401126130b257600080fd5b5081356001600160401b038111156130c957600080fd5b6020830191508360208202830111156130e157600080fd5b9250929050565b80516113ae81614157565b80356113ae81614160565b80516113ae81614160565b60008083601f84011261311b57600080fd5b5081356001600160401b0381111561313257600080fd5b6020830191508360018202830111156130e157600080fd5b600082601f83011261315b57600080fd5b813561316e6131698261403e565b614018565b9150808252602083016020830185838301111561318a57600080fd5b6131958382846140d6565b50505092915050565b600082601f8301126131af57600080fd5b81516131bd6131698261403e565b915080825260208301602083018583830111156131d957600080fd5b6131958382846140e2565b60006102a082840312156131f757600080fd5b6132026101e0614018565b90506000613210848461335b565b82525060606132218484830161335b565b60208301525060c06132358482850161335b565b60408301525061012061324a848285016130fe565b60608301525061014061325f848285016130fe565b608083015250610160613274848285016130fe565b60a08301525061018061328984828501613095565b60c0830152506101a061329e84828501613095565b60e0830152506101c06132b384828501613095565b610100830152506101e08201516001600160401b038111156132d457600080fd5b6132e08482850161319e565b610120830152506102006132f6848285016130fe565b6101408301525061022061330c848285016130fe565b61016083015250610240613322848285016130fe565b61018083015250610260613338848285016130fe565b6101a08301525061028061334e848285016130fe565b6101c08301525092915050565b60006060828403121561336d57600080fd5b6133776060614018565b905060006133858484613095565b825250602061339684848301613095565b60208301525060406133aa848285016130fe565b60408301525092915050565b6000602082840312156133c857600080fd5b6000611674848461308a565b600080600080608085870312156133ea57600080fd5b60006133f6878761308a565b94505060206134078782880161308a565b93505060406134188782880161308a565b92505060606134298782880161308a565b91505092959194509250565b60008060006060848603121561344a57600080fd5b6000613456868661308a565b93505060206134678682870161308a565b92505060406134788682870161308a565b9150509250925092565b60008060006060848603121561349757600080fd5b60006134a3868661308a565b93505060206134b4868287016130f3565b92505060408401356001600160401b038111156134d057600080fd5b6134788682870161314a565b600080602083850312156134ef57600080fd5b82356001600160401b0381111561350557600080fd5b613511858286016130a0565b92509250509250929050565b6000806000806040858703121561353357600080fd5b84356001600160401b0381111561354957600080fd5b613555878288016130a0565b945094505060208501356001600160401b0381111561357357600080fd5b61357f878288016130a0565b95989497509550505050565b60006020828403121561359d57600080fd5b600061167484846130e8565b6000602082840312156135bb57600080fd5b600061167484846130f3565b600080604083850312156135da57600080fd5b60006135e685856130f3565b92505060206135f78582860161308a565b9150509250929050565b6000806040838503121561361457600080fd5b600061362085856130f3565b92505060206135f7858286016130f3565b60008060008060008060c0878903121561364a57600080fd5b600061365689896130f3565b965050602061366789828a016130f3565b955050604061367889828a016130f3565b945050606061368989828a0161308a565b93505060808701356001600160401b038111156136a557600080fd5b6136b189828a0161314a565b92505060a08701356001600160401b038111156136cd57600080fd5b6136d989828a0161314a565b9150509295509295509295565b6000806000604084860312156136fb57600080fd5b600061370786866130f3565b93505060208401356001600160401b0381111561372357600080fd5b61372f86828701613109565b92509250509250925092565b60008060008060006060868803121561375357600080fd5b85356001600160401b0381111561376957600080fd5b61377588828901613109565b955095505060208601356001600160401b0381111561379357600080fd5b61379f88828901613109565b935093505060406137b2888289016130f3565b9150509295509295909350565b6000602082840312156137d157600080fd5b81516001600160401b038111156137e757600080fd5b611674848285016131e4565b60006137ff8383613827565b505060200190565b613810816140ae565b82525050565b61381061382282614078565b61410e565b61381081614078565b600061383b8261406b565b613845818561406f565b935061385083614065565b8060005b8381101561387e57815161386888826137f3565b975061387383614065565b925050600101613854565b509495945050505050565b60006138948261406b565b61389e818561406f565b93506138a983614065565b8060005b8381101561387e5781516138c188826137f3565b97506138cc83614065565b9250506001016138ad565b61381081614083565b61381081611439565b6138106138f582611439565b611439565b6000613906838561406f565b93506139138385846140d6565b61391c8361411f565b9093019392505050565b60006139318261406b565b61393b818561406f565b935061394b8185602086016140e2565b61391c8161411f565b600061395f8261406b565b613969818561111d565b93506139798185602086016140e2565b9290920192915050565b613810816140b5565b613810816140c0565b613810816140cb565b60006139ab601c8361111d565b7f19457468657265756d205369676e6564204d6573736167653a0a3332000000008152601c0192915050565b60006139e460268361406f565b7f4f776e61626c653a206e6577206f776e657220697320746865207a65726f206181526564647265737360d01b602082015260400192915050565b6000613a2c60208361406f565b7f4f776e61626c653a2063616c6c6572206973206e6f7420746865206f776e6572815260200192915050565b8051606080845260009190840190613a708282613926565b91505060208301518482036020860152613a8a8282613926565b9150506040830151613a9f60408601826138e0565b509392505050565b80516080830190613ab8848261398c565b506020820151613acb60208501826138e0565b506040820151613ade60408501826138e0565b506060820151613af16060850182613827565b50505050565b80516000906101a0840190613b0c8582613995565b506020830151613b1f60208601826138e0565b506040830151613b3260408601826138e0565b506060830151613b4560608601826138e0565b506080830151613b5860808601826138e0565b5060a0830151613b6b60a08601826138e0565b5060c0830151613b7e60c08601826138e0565b5060e0830151613b9160e08601826138e0565b50610100830151613ba66101008601826138e0565b50610120830151613bbb6101208601826138e0565b50610140830151848203610140860152613bd58282613889565b915050610160830151613bec6101608601826138e0565b50610180830151848203610180860152610b2a8282613926565b613810816140a8565b6000613c1b8286613816565b601482019150613c2b82856138e9565b602082019150613c3b8284613816565b506014019392505050565b6000613c528286613816565b601482019150613c6282856138e9565b602082019150613c7282846138e9565b506020019392505050565b6000613c8982856138e9565b602082019150613c9982846138e9565b5060200192915050565b600061054e8284613954565b6000613cba8261399e565b9150613cc682846138e9565b50602001919050565b602081016113ae8284613827565b602081016113ae82846138d7565b602081016113ae82846138e0565b60408101613d0782856138e0565b61054e6020830184613827565b60408101613d2282856138e0565b61054e6020830184613807565b60608101613d3d82866138e0565b613d4a6020830185613827565b61167460408301846138e0565b60808101613d6582876138e0565b613d726020830186613827565b613d7f60408301856138e0565b610b2a60608301846138e0565b60408101613d9a82856138e0565b61054e60208301846138e0565b60408101613db582866138e0565b8181036020830152610b2a8184866138fa565b60408101613dd682856138e0565b818103602083015261054b8184613926565b60608101613df682866138e0565b613d4a60208301856138e0565b60808101613e1182876138e0565b613d726020830186613c06565b6020808252810161054b8184866138fa565b6020808252810161054e8184613926565b602081016113ae8284613983565b60808101613e5d828761398c565b613e6a60208301866138e0565b613e7760408301856138e0565b610b2a6060830184613827565b6101808101613e93828f613995565b613ea0602083018e6138e0565b613ead604083018d6138e0565b613eba606083018c6138e0565b613ec7608083018b6138e0565b613ed460a083018a6138e0565b613ee160c08301896138e0565b613eee60e08301886138e0565b613efc6101008301876138e0565b613f0a6101208301866138e0565b818103610140830152613f1d8185613830565b9050818103610160830152613f328184613926565b9e9d5050505050505050505050505050565b60608082528101613f558186613926565b90508181036020830152613f698185613926565b905061167460408301846138e0565b602080825281016113ae816139d7565b602080825281016113ae81613a1f565b6020808252810161054e8184613a58565b608081016113ae8284613aa7565b6020808252810161054e8184613af7565b60808101613fd682896138e0565b8181036020830152613fe98187896138fa565b90508181036040830152613ffe8185876138fa565b905061400d60608301846138e0565b979650505050505050565b6040518181016001600160401b038111828210171561403657600080fd5b604052919050565b60006001600160401b0382111561405457600080fd5b506020601f91909101601f19160190565b60200190565b5190565b90815260200190565b60006113ae8261409c565b151590565b8061111d8161412f565b8061111d81614139565b6001600160a01b031690565b60ff1690565b60006113ae825b60006113ae82614078565b60006113ae82614088565b60006113ae82614092565b82818337506000910152565b60005b838110156140fd5781810151838201526020016140e5565b83811115613af15750506000910152565b60006113ae8260006113ae82614129565b601f01601f191690565b60601b90565b60048110611cf157fe5b60058110611cf157fe5b61414c81614078565b8114611cf157600080fd5b61414c81614083565b61414c8161143956fea365627a7a72305820776bb86689cce9d4b3e3c4925fd109b84f15ea783266a4fcec408ff90139f2d26c6578706572696d656e74616cf564736f6c634300050a0040",
  "source": "pragma solidity ^0.5.8;\npragma experimental ABIEncoderV2;\n\nimport \"iexec-solidity/contracts/ERC1154_OracleInterface/IERC1154.sol\";\nimport \"iexec-solidity/contracts/Libs/SafeMath.sol\";\n\nimport \"./libs/IexecODBLibCore.sol\";\nimport \"./registries/RegistryBase.sol\";\nimport \"./CategoryManager.sol\";\nimport \"./SignatureVerifier.sol\";\nimport \"./IexecClerk.sol\";\n\n/**\n * /!\\ TEMPORARY LEGACY /!\\\n */\nimport \"./IexecHubABILegacy.sol\";\n\ncontract IexecHub is CategoryManager, IOracle, SignatureVerifier, IexecHubABILegacy\n{\n\tusing SafeMath for uint256;\n\n\t/***************************************************************************\n\t *                                Constants                                *\n\t ***************************************************************************/\n\tuint256 public constant CONTRIBUTION_DEADLINE_RATIO = 7;\n\tuint256 public constant       REVEAL_DEADLINE_RATIO = 2;\n\tuint256 public constant        FINAL_DEADLINE_RATIO = 10;\n\n\t/***************************************************************************\n\t *                             Other contracts                             *\n\t ***************************************************************************/\n\tIexecClerk   public iexecclerk;\n\tRegistryBase public appregistry;\n\tRegistryBase public datasetregistry;\n\tRegistryBase public workerpoolregistry;\n\n\t/***************************************************************************\n\t *                          Consensuses & Workers                          *\n\t ***************************************************************************/\n\tmapping(bytes32 =>                    IexecODBLibCore.Task         ) m_tasks;\n\tmapping(bytes32 => mapping(address => IexecODBLibCore.Contribution)) m_contributions;\n\tmapping(address =>                    uint256                      ) m_workerScores;\n\n\tmapping(bytes32 => mapping(address => uint256                     )) m_logweight;\n\tmapping(bytes32 => mapping(bytes32 => uint256                     )) m_groupweight;\n\tmapping(bytes32 =>                    uint256                      ) m_totalweight;\n\n\t/***************************************************************************\n\t *                                 Events                                  *\n\t ***************************************************************************/\n\tevent TaskInitialize(bytes32 indexed taskid, address indexed workerpool               );\n\tevent TaskContribute(bytes32 indexed taskid, address indexed worker, bytes32 hash     );\n\tevent TaskConsensus (bytes32 indexed taskid,                         bytes32 consensus);\n\tevent TaskReveal    (bytes32 indexed taskid, address indexed worker, bytes32 digest   );\n\tevent TaskReopen    (bytes32 indexed taskid                                           );\n\tevent TaskFinalize  (bytes32 indexed taskid,                         bytes results    );\n\tevent TaskClaimed   (bytes32 indexed taskid                                           );\n\n\tevent AccurateContribution(address indexed worker, bytes32 indexed taskid);\n\tevent FaultyContribution  (address indexed worker, bytes32 indexed taskid);\n\n\t/***************************************************************************\n\t *                                Modifiers                                *\n\t ***************************************************************************/\n\tmodifier onlyScheduler(bytes32 _taskid)\n\t{\n\t\trequire(msg.sender == iexecclerk.viewDeal(m_tasks[_taskid].dealid).workerpool.owner);\n\t\t_;\n\t}\n\n\t/***************************************************************************\n\t *                               Constructor                               *\n\t ***************************************************************************/\n\tconstructor()\n\tpublic\n\t{\n\t}\n\n\tfunction attachContracts(\n\t\taddress payable _iexecclerkAddress,\n\t\taddress         _appregistryAddress,\n\t\taddress         _datasetregistryAddress,\n\t\taddress         _workerpoolregistryAddress)\n\texternal onlyOwner\n\t{\n\t\trequire(address(iexecclerk) == address(0));\n\t\tiexecclerk         = IexecClerk  (_iexecclerkAddress);\n\t\tappregistry        = RegistryBase(_appregistryAddress);\n\t\tdatasetregistry    = RegistryBase(_datasetregistryAddress);\n\t\tworkerpoolregistry = RegistryBase(_workerpoolregistryAddress);\n\t}\n\n\t/***************************************************************************\n\t *                                Accessors                                *\n\t ***************************************************************************/\n\tfunction viewTask(bytes32 _taskid)\n\texternal view returns (IexecODBLibCore.Task memory)\n\t{\n\t\treturn m_tasks[_taskid];\n\t}\n\n\tfunction viewContribution(bytes32 _taskid, address _worker)\n\texternal view returns (IexecODBLibCore.Contribution memory)\n\t{\n\t\treturn m_contributions[_taskid][_worker];\n\t}\n\n\tfunction viewScore(address _worker)\n\texternal view returns (uint256)\n\t{\n\t\treturn m_workerScores[_worker];\n\t}\n\n\tfunction checkResources(address app, address dataset, address workerpool)\n\texternal view returns (bool)\n\t{\n\t\trequire(                         appregistry.isRegistered(app));\n\t\trequire(dataset == address(0) || datasetregistry.isRegistered(dataset));\n\t\trequire(                         workerpoolregistry.isRegistered(workerpool));\n\t\treturn true;\n\t}\n\n\t/***************************************************************************\n\t *                         EIP 1154 PULL INTERFACE                         *\n\t ***************************************************************************/\n\tfunction resultFor(bytes32 id)\n\texternal view returns (bytes memory)\n\t{\n\t\tIexecODBLibCore.Task storage task = m_tasks[id];\n\t\trequire(task.status == IexecODBLibCore.TaskStatusEnum.COMPLETED);\n\t\treturn task.results;\n\t}\n\n\t/***************************************************************************\n\t *                            Consensus methods                            *\n\t ***************************************************************************/\n\tfunction initialize(bytes32 _dealid, uint256 idx)\n\tpublic returns (bytes32)\n\t{\n\t\tIexecODBLibCore.Deal memory deal = iexecclerk.viewDeal(_dealid);\n\n\t\trequire(idx >= deal.botFirst                  );\n\t\trequire(idx <  deal.botFirst.add(deal.botSize));\n\n\t\tbytes32 taskid  = keccak256(abi.encodePacked(_dealid, idx));\n\t\tIexecODBLibCore.Task storage task = m_tasks[taskid];\n\t\trequire(task.status == IexecODBLibCore.TaskStatusEnum.UNSET);\n\n\t\ttask.status               = IexecODBLibCore.TaskStatusEnum.ACTIVE;\n\t\ttask.dealid               = _dealid;\n\t\ttask.idx                  = idx;\n\t\ttask.timeref              = m_categories[deal.category].workClockTimeRef;\n\t\ttask.contributionDeadline = task.timeref.mul(CONTRIBUTION_DEADLINE_RATIO).add(deal.startTime);\n\t\ttask.finalDeadline        = task.timeref.mul(       FINAL_DEADLINE_RATIO).add(deal.startTime);\n\n\t\t// setup denominator\n\t\tm_totalweight[taskid] = 1;\n\n\t\temit TaskInitialize(taskid, iexecclerk.viewDeal(_dealid).workerpool.pointer);\n\n\t\treturn taskid;\n\t}\n\n\t// TODO: make external w/ calldata\n\tfunction contribute(\n\t\tbytes32      _taskid,\n\t\tbytes32      _resultHash,\n\t\tbytes32      _resultSeal,\n\t\taddress      _enclaveChallenge,\n\t\tbytes memory _enclaveSign,\n\t\tbytes memory _workerpoolSign)\n\tpublic\n\t{\n\t\tIexecODBLibCore.Task         storage task         = m_tasks[_taskid];\n\t\tIexecODBLibCore.Contribution storage contribution = m_contributions[_taskid][msg.sender];\n\t\tIexecODBLibCore.Deal         memory  deal         = iexecclerk.viewDeal(task.dealid);\n\n\t\trequire(task.status               == IexecODBLibCore.TaskStatusEnum.ACTIVE       );\n\t\trequire(task.contributionDeadline >  now                                         );\n\t\trequire(contribution.status       == IexecODBLibCore.ContributionStatusEnum.UNSET);\n\n\t\t// Check that the worker + taskid + enclave combo is authorized to contribute (scheduler signature)\n\t\trequire(verifySignature(\n\t\t\tdeal.workerpool.owner,\n\t\t\ttoEthSignedMessageHash(\n\t\t\t\tkeccak256(abi.encodePacked(\n\t\t\t\t\tmsg.sender,\n\t\t\t\t\t_taskid,\n\t\t\t\t\t_enclaveChallenge\n\t\t\t\t))\n\t\t\t),\n\t\t\t_workerpoolSign\n\t\t));\n\n\t\t// need enclave challenge if tag is set\n\t\trequire(_enclaveChallenge != address(0) || (deal.tag[31] & 0x01 == 0));\n\n\t\t// Check enclave signature\n\t\trequire(_enclaveChallenge == address(0) || verifySignature(\n\t\t\t_enclaveChallenge,\n\t\t\ttoEthSignedMessageHash(\n\t\t\t\tkeccak256(abi.encodePacked(\n\t\t\t\t\t_resultHash,\n\t\t\t\t\t_resultSeal\n\t\t\t\t))\n\t\t\t),\n\t\t\t_enclaveSign\n\t\t));\n\n\t\t// Update contribution entry\n\t\tcontribution.status           = IexecODBLibCore.ContributionStatusEnum.CONTRIBUTED;\n\t\tcontribution.resultHash       = _resultHash;\n\t\tcontribution.resultSeal       = _resultSeal;\n\t\tcontribution.enclaveChallenge = _enclaveChallenge;\n\t\ttask.contributors.push(msg.sender);\n\n\t\tiexecclerk.lockContribution(task.dealid, msg.sender);\n\n\t\temit TaskContribute(_taskid, msg.sender, _resultHash);\n\n\t\t// Contribution done  updating and checking concensus\n\n\t\t/*************************************************************************\n\t\t *                           SCORE POLICY 1/3                            *\n\t\t *                                                                       *\n\t\t *                          see documentation!                           *\n\t\t *************************************************************************/\n\t\t// k = 3\n\t\tuint256 weight = m_workerScores[msg.sender].div(3).max(3).sub(1);\n\t\tuint256 group  = m_groupweight[_taskid][_resultHash];\n\t\tuint256 delta  = group.max(1).mul(weight).sub(group);\n\n\t\tm_logweight  [_taskid][msg.sender ] = weight.log();\n\t\tm_groupweight[_taskid][_resultHash] = m_groupweight[_taskid][_resultHash].add(delta);\n\t\tm_totalweight[_taskid]              = m_totalweight[_taskid].add(delta);\n\n\t\t// Check consensus\n\t\tcheckConsensus(_taskid, _resultHash);\n\t}\n\tfunction checkConsensus(\n\t\tbytes32 _taskid,\n\t\tbytes32 _consensus)\n\tprivate\n\t{\n\t\tuint256 trust = iexecclerk.viewDeal(m_tasks[_taskid].dealid).trust;\n\t\tif (m_groupweight[_taskid][_consensus].mul(trust) > m_totalweight[_taskid].mul(trust.sub(1)))\n\t\t{\n\t\t\t// Preliminary checks done in \"contribute()\"\n\n\t\t\tIexecODBLibCore.Task storage task = m_tasks[_taskid];\n\t\t\tuint256 winnerCounter = 0;\n\t\t\tfor (uint256 i = 0; i < task.contributors.length; ++i)\n\t\t\t{\n\t\t\t\taddress w = task.contributors[i];\n\t\t\t\tif\n\t\t\t\t(\n\t\t\t\t\tm_contributions[_taskid][w].resultHash == _consensus\n\t\t\t\t\t&&\n\t\t\t\t\tm_contributions[_taskid][w].status == IexecODBLibCore.ContributionStatusEnum.CONTRIBUTED // REJECTED contribution must not be count\n\t\t\t\t)\n\t\t\t\t{\n\t\t\t\t\twinnerCounter = winnerCounter.add(1);\n\t\t\t\t}\n\t\t\t}\n\t\t\t// msg.sender is a contributor: no need to check\n\t\t\t// require(winnerCounter > 0);\n\t\t\ttask.status         = IexecODBLibCore.TaskStatusEnum.REVEALING;\n\t\t\ttask.consensusValue = _consensus;\n\t\t\ttask.revealDeadline = task.timeref.mul(REVEAL_DEADLINE_RATIO).add(now);\n\t\t\ttask.revealCounter  = 0;\n\t\t\ttask.winnerCounter  = winnerCounter;\n\n\t\t\temit TaskConsensus(_taskid, _consensus);\n\t\t}\n\t}\n\n\tfunction reveal(\n\t\tbytes32 _taskid,\n\t\tbytes32 _resultDigest)\n\texternal // worker\n\t{\n\t\tIexecODBLibCore.Task         storage task         = m_tasks[_taskid];\n\t\tIexecODBLibCore.Contribution storage contribution = m_contributions[_taskid][msg.sender];\n\t\trequire(task.status             == IexecODBLibCore.TaskStatusEnum.REVEALING                       );\n\t\trequire(task.revealDeadline     >  now                                                            );\n\t\trequire(contribution.status     == IexecODBLibCore.ContributionStatusEnum.CONTRIBUTED             );\n\t\trequire(contribution.resultHash == task.consensusValue                                            );\n\t\trequire(contribution.resultHash == keccak256(abi.encodePacked(            _taskid, _resultDigest)));\n\t\trequire(contribution.resultSeal == keccak256(abi.encodePacked(msg.sender, _taskid, _resultDigest)));\n\n\t\tcontribution.status = IexecODBLibCore.ContributionStatusEnum.PROVED;\n\t\ttask.revealCounter  = task.revealCounter.add(1);\n\t\ttask.resultDigest   = _resultDigest;\n\n\t\temit TaskReveal(_taskid, msg.sender, _resultDigest);\n\t}\n\n\tfunction reopen(\n\t\tbytes32 _taskid)\n\texternal onlyScheduler(_taskid)\n\t{\n\t\tIexecODBLibCore.Task storage task = m_tasks[_taskid];\n\t\trequire(task.status         == IexecODBLibCore.TaskStatusEnum.REVEALING);\n\t\trequire(task.finalDeadline  >  now                                     );\n\t\trequire(task.revealDeadline <= now\n\t\t     && task.revealCounter  == 0                                       );\n\n\t\tfor (uint256 i = 0; i < task.contributors.length; ++i)\n\t\t{\n\t\t\taddress worker = task.contributors[i];\n\t\t\tif (m_contributions[_taskid][worker].resultHash == task.consensusValue)\n\t\t\t{\n\t\t\t\tm_contributions[_taskid][worker].status = IexecODBLibCore.ContributionStatusEnum.REJECTED;\n\t\t\t}\n\t\t}\n\n\t\tm_totalweight[_taskid]                      = m_totalweight[_taskid].sub(m_groupweight[_taskid][task.consensusValue]);\n\t\tm_groupweight[_taskid][task.consensusValue] = 0;\n\n\t\ttask.status         = IexecODBLibCore.TaskStatusEnum.ACTIVE;\n\t\ttask.consensusValue = 0x0;\n\t\ttask.revealDeadline = 0;\n\t\ttask.winnerCounter  = 0;\n\n\t\temit TaskReopen(_taskid);\n\t}\n\n\tfunction finalize(\n\t\tbytes32          _taskid,\n\t\tbytes   calldata _results)\n\texternal onlyScheduler(_taskid)\n\t{\n\t\tIexecODBLibCore.Task storage task = m_tasks[_taskid];\n\t\trequire(task.status        == IexecODBLibCore.TaskStatusEnum.REVEALING);\n\t\trequire(task.finalDeadline >  now                                     );\n\t\trequire(task.revealCounter == task.winnerCounter\n\t\t    || (task.revealCounter >  0  && task.revealDeadline <= now)       );\n\n\t\ttask.status  = IexecODBLibCore.TaskStatusEnum.COMPLETED;\n\t\ttask.results = _results;\n\n\t\t/**\n\t\t * Stake and reward management\n\t\t */\n\t\tiexecclerk.successWork(task.dealid, _taskid);\n\t\tdistributeRewards(_taskid);\n\n\t\t/**\n\t\t * Event\n\t\t */\n\t\temit TaskFinalize(_taskid, _results);\n\n\t\t/**\n\t\t * Callback for smartcontracts using EIP1154\n\t\t */\n\t\taddress callbackTarget = iexecclerk.viewDeal(task.dealid).callback;\n\t\tif (callbackTarget != address(0))\n\t\t{\n\t\t\t/**\n\t\t\t * Call does not revert if the target smart contract is incompatible or reverts\n\t\t\t *\n\t\t\t * ATTENTION!\n\t\t\t * This call is dangerous and target smart contract can charge the stack.\n\t\t\t * Assume invalid state after the call.\n\t\t\t * See: https://solidity.readthedocs.io/en/develop/types.html#members-of-addresses\n\t\t\t *\n\t\t\t * TODO: gas provided?\n\t\t\t */\n\t\t\trequire(gasleft() > 100000);\n\t\t\tbool success;\n\t\t\t(success,) = callbackTarget.call.gas(100000)(abi.encodeWithSignature(\n\t\t\t\t\"receiveResult(bytes32,bytes)\",\n\t\t\t\t_taskid,\n\t\t\t\t_results\n\t\t\t));\n\t\t}\n\t}\n\n\tfunction distributeRewards(bytes32 _taskid)\n\tprivate\n\t{\n\t\tIexecODBLibCore.Task storage task = m_tasks[_taskid];\n\t\tIexecODBLibCore.Deal memory  deal = iexecclerk.viewDeal(task.dealid);\n\n\t\tuint256 i;\n\t\taddress worker;\n\n\t\tuint256 totalLogWeight = 0;\n\t\tuint256 totalReward = iexecclerk.viewDeal(task.dealid).workerpool.price;\n\n\t\tfor (i = 0; i < task.contributors.length; ++i)\n\t\t{\n\t\t\tworker = task.contributors[i];\n\t\t\tif (m_contributions[_taskid][worker].status == IexecODBLibCore.ContributionStatusEnum.PROVED)\n\t\t\t{\n\t\t\t\ttotalLogWeight = totalLogWeight.add(m_logweight[_taskid][worker]);\n\t\t\t}\n\t\t\telse // ContributionStatusEnum.REJECT or ContributionStatusEnum.CONTRIBUTED (not revealed)\n\t\t\t{\n\t\t\t\ttotalReward = totalReward.add(deal.workerStake);\n\t\t\t}\n\t\t}\n\t\trequire(totalLogWeight > 0);\n\n\t\t// compute how much is going to the workers\n\t\tuint256 workersReward = totalReward.percentage(uint256(100).sub(deal.schedulerRewardRatio));\n\n\t\tfor (i = 0; i < task.contributors.length; ++i)\n\t\t{\n\t\t\tworker = task.contributors[i];\n\t\t\tif (m_contributions[_taskid][worker].status == IexecODBLibCore.ContributionStatusEnum.PROVED)\n\t\t\t{\n\t\t\t\tuint256 workerReward = workersReward.mulByFraction(m_logweight[_taskid][worker], totalLogWeight);\n\t\t\t\ttotalReward          = totalReward.sub(workerReward);\n\n\t\t\t\tiexecclerk.unlockAndRewardForContribution(task.dealid, worker, workerReward, _taskid);\n\n\t\t\t\t// Only reward if replication happened\n\t\t\t\tif (task.contributors.length > 1)\n\t\t\t\t{\n\t\t\t\t\t/*******************************************************************\n\t\t\t\t\t *                        SCORE POLICY 2/3                         *\n\t\t\t\t\t *                                                                 *\n\t\t\t\t\t *                       see documentation!                        *\n\t\t\t\t\t *******************************************************************/\n\t\t\t\t\tm_workerScores[worker] = m_workerScores[worker].add(1);\n\t\t\t\t\temit AccurateContribution(worker, _taskid);\n\t\t\t\t}\n\t\t\t}\n\t\t\telse // WorkStatusEnum.POCO_REJECT or ContributionStatusEnum.CONTRIBUTED (not revealed)\n\t\t\t{\n\t\t\t\t// No Reward\n\t\t\t\tiexecclerk.seizeContribution(task.dealid, worker, _taskid);\n\n\t\t\t\t// Always punish bad contributors\n\t\t\t\t{\n\t\t\t\t\t/*******************************************************************\n\t\t\t\t\t *                        SCORE POLICY 3/3                         *\n\t\t\t\t\t *                                                                 *\n\t\t\t\t\t *                       see documentation!                        *\n\t\t\t\t\t *******************************************************************/\n\t\t\t\t\t// k = 3\n\t\t\t\t\tm_workerScores[worker] = m_workerScores[worker].mulByFraction(2,3);\n\t\t\t\t\temit FaultyContribution(worker, _taskid);\n\t\t\t\t}\n\t\t\t}\n\t\t}\n\t\t// totalReward now contains the scheduler share\n\t\tiexecclerk.rewardForScheduling(task.dealid, totalReward, _taskid);\n\t}\n\n\tfunction claim(\n\t\tbytes32 _taskid)\n\tpublic\n\t{\n\t\tIexecODBLibCore.Task storage task = m_tasks[_taskid];\n\t\trequire(task.status == IexecODBLibCore.TaskStatusEnum.ACTIVE\n\t\t     || task.status == IexecODBLibCore.TaskStatusEnum.REVEALING);\n\t\trequire(task.finalDeadline <= now);\n\n\t\ttask.status = IexecODBLibCore.TaskStatusEnum.FAILLED;\n\n\t\t/**\n\t\t * Stake management\n\t\t */\n\t\tiexecclerk.failedWork(task.dealid, _taskid);\n\t\tfor (uint256 i = 0; i < task.contributors.length; ++i)\n\t\t{\n\t\t\taddress worker = task.contributors[i];\n\t\t\tiexecclerk.unlockContribution(task.dealid, worker);\n\t\t}\n\n\t\temit TaskClaimed(_taskid);\n\t}\n\n\t/***************************************************************************\n\t *                            Array operations                             *\n\t ***************************************************************************/\n\tfunction initializeArray(\n\t\tbytes32[] calldata _dealid,\n\t\tuint256[] calldata _idx)\n\texternal returns (bool)\n\t{\n\t\trequire(_dealid.length == _idx.length);\n\t\tfor (uint i = 0; i < _dealid.length; ++i)\n\t\t{\n\t\t\tinitialize(_dealid[i], _idx[i]);\n\t\t}\n\t\treturn true;\n\t}\n\n\tfunction claimArray(\n\t\tbytes32[] calldata _taskid)\n\texternal returns (bool)\n\t{\n\t\tfor (uint i = 0; i < _taskid.length; ++i)\n\t\t{\n\t\t\tclaim(_taskid[i]);\n\t\t}\n\t\treturn true;\n\t}\n\n\tfunction initializeAndClaimArray(\n\t\tbytes32[] calldata _dealid,\n\t\tuint256[] calldata _idx)\n\texternal returns (bool)\n\t{\n\t\trequire(_dealid.length == _idx.length);\n\t\tfor (uint i = 0; i < _dealid.length; ++i)\n\t\t{\n\t\t\tclaim(initialize(_dealid[i], _idx[i]));\n\t\t}\n\t\treturn true;\n\t}\n\n\t/**\n\t * /!\\ TEMPORARY LEGACY /!\\\n\t */\n\n\tfunction viewTaskABILegacy(bytes32 _taskid)\n\texternal view returns\n\t( IexecODBLibCore.TaskStatusEnum\n\t, bytes32\n\t, uint256\n\t, uint256\n\t, uint256\n\t, uint256\n\t, uint256\n\t, bytes32\n\t, uint256\n\t, uint256\n\t, address[] memory\n\t, bytes     memory\n\t)\n\t{\n\t\tIexecODBLibCore.Task memory task = m_tasks[_taskid];\n\t\treturn (\n\t\t\ttask.status,\n\t\t\ttask.dealid,\n\t\t\ttask.idx,\n\t\t\ttask.timeref,\n\t\t\ttask.contributionDeadline,\n\t\t\ttask.revealDeadline,\n\t\t\ttask.finalDeadline,\n\t\t\ttask.consensusValue,\n\t\t\ttask.revealCounter,\n\t\t\ttask.winnerCounter,\n\t\t\ttask.contributors,\n\t\t\ttask.results\n\t\t);\n\t}\n\n\tfunction viewContributionABILegacy(bytes32 _taskid, address _worker)\n\texternal view returns\n\t( IexecODBLibCore.ContributionStatusEnum\n\t, bytes32\n\t, bytes32\n\t, address\n\t)\n\t{\n\t\tIexecODBLibCore.Contribution memory contribution = m_contributions[_taskid][_worker];\n\t\treturn (\n\t\t\tcontribution.status,\n\t\t\tcontribution.resultHash,\n\t\t\tcontribution.resultSeal,\n\t\t\tcontribution.enclaveChallenge\n\t\t);\n\t}\n\n\tfunction viewCategoryABILegacy(uint256 _catid)\n\texternal view returns (string memory, string memory, uint256)\n\t{\n\t\tIexecODBLibCore.Category memory category = m_categories[_catid];\n\t\treturn ( category.name, category.description, category.workClockTimeRef );\n\t}\n}\n",
  "sourcePath": "/home/amxx/Work/iExec/code/PoCo-dev/contracts/IexecHub.sol",
  "compiler": {
    "name": "solc",
    "version": "0.5.10+commit.5a6ea5b1.Emscripten.clang"
  },
  "schemaVersion": "3.0.13",
  "updatedAt": "2019-09-02T10:02:47.814Z",
  "devdoc": {
    "methods": {
      "isOwner()": {
        "details": "Returns true if the caller is the current owner."
      },
      "owner()": {
        "details": "Returns the address of the current owner."
      },
      "renounceOwnership()": {
        "details": "Leaves the contract without owner. It will not be possible to call `onlyOwner` functions anymore. Can only be called by the current owner.     * > Note: Renouncing ownership will leave the contract without an owner, thereby removing any functionality that is only available to the owner."
      },
      "transferOwnership(address)": {
        "details": "Transfers ownership of the contract to a new account (`newOwner`). Can only be called by the current owner."
      }
    }
  },
  "userdoc": {
    "methods": {
      "constructor": "*************************************************************************                              Constructor                               ***************************************************************************",
      "createCategory(string,string,uint256)": {
        "notice": "Methods"
      },
      "initialize(bytes32,uint256)": {
        "notice": "*************************************************************************                           Consensus methods                            ***************************************************************************"
      },
      "initializeArray(bytes32[],uint256[])": {
        "notice": "*************************************************************************                           Array operations                             ***************************************************************************"
      },
      "resultFor(bytes32)": {
        "notice": "*************************************************************************                        EIP 1154 PULL INTERFACE                         ***************************************************************************"
      },
      "viewCategory(uint256)": {
        "notice": "Accessors"
      },
      "viewTask(bytes32)": {
        "notice": "*************************************************************************                               Accessors                                ***************************************************************************"
      },
      "viewTaskABILegacy(bytes32)": {
        "notice": "/!\\ TEMPORARY LEGACY /!\\"
      }
    }
  }
}