{
  "contractName": "IexecClerk",
  "abi": [
    {
      "constant": true,
      "inputs": [
        {
          "name": "_identity",
          "type": "address"
        },
        {
          "name": "_hash",
          "type": "bytes32"
        },
        {
          "name": "_signature",
          "type": "bytes"
        }
      ],
      "name": "verifySignature",
      "outputs": [
        {
          "name": "",
          "type": "bool"
        }
      ],
      "payable": false,
      "stateMutability": "view",
      "type": "function"
    },
    {
      "constant": true,
      "inputs": [],
      "name": "EIP712DOMAIN_SEPARATOR",
      "outputs": [
        {
          "name": "",
          "type": "bytes32"
        }
      ],
      "payable": false,
      "stateMutability": "view",
      "type": "function"
    },
    {
      "constant": false,
      "inputs": [
        {
          "name": "_amount",
          "type": "uint256"
        }
      ],
      "name": "withdraw",
      "outputs": [
        {
          "name": "",
          "type": "bool"
        }
      ],
      "payable": false,
      "stateMutability": "nonpayable",
      "type": "function"
    },
    {
      "constant": false,
      "inputs": [
        {
          "name": "_amounts",
          "type": "uint256[]"
        },
        {
          "name": "_targets",
          "type": "address[]"
        }
      ],
      "name": "depositForArray",
      "outputs": [
        {
          "name": "",
          "type": "bool"
        }
      ],
      "payable": false,
      "stateMutability": "nonpayable",
      "type": "function"
    },
    {
      "constant": false,
      "inputs": [
        {
          "name": "_amount",
          "type": "uint256"
        },
        {
          "name": "_target",
          "type": "address"
        }
      ],
      "name": "depositFor",
      "outputs": [
        {
          "name": "",
          "type": "bool"
        }
      ],
      "payable": false,
      "stateMutability": "nonpayable",
      "type": "function"
    },
    {
      "constant": true,
      "inputs": [
        {
          "name": "",
          "type": "bytes32"
        }
      ],
      "name": "m_presigned",
      "outputs": [
        {
          "name": "",
          "type": "bool"
        }
      ],
      "payable": false,
      "stateMutability": "view",
      "type": "function"
    },
    {
      "constant": false,
      "inputs": [
        {
          "components": [
            {
              "name": "app",
              "type": "address"
            },
            {
              "name": "appmaxprice",
              "type": "uint256"
            },
            {
              "name": "dataset",
              "type": "address"
            },
            {
              "name": "datasetmaxprice",
              "type": "uint256"
            },
            {
              "name": "workerpool",
              "type": "address"
            },
            {
              "name": "workerpoolmaxprice",
              "type": "uint256"
            },
            {
              "name": "requester",
              "type": "address"
            },
            {
              "name": "volume",
              "type": "uint256"
            },
            {
              "name": "tag",
              "type": "bytes32"
            },
            {
              "name": "category",
              "type": "uint256"
            },
            {
              "name": "trust",
              "type": "uint256"
            },
            {
              "name": "beneficiary",
              "type": "address"
            },
            {
              "name": "callback",
              "type": "address"
            },
            {
              "name": "params",
              "type": "string"
            },
            {
              "name": "salt",
              "type": "bytes32"
            },
            {
              "name": "sign",
              "type": "bytes"
            }
          ],
          "name": "_requestorder",
          "type": "tuple"
        }
      ],
      "name": "broadcastRequestOrder",
      "outputs": [],
      "payable": false,
      "stateMutability": "nonpayable",
      "type": "function"
    },
    {
      "constant": false,
      "inputs": [
        {
          "components": [
            {
              "name": "dataset",
              "type": "address"
            },
            {
              "name": "datasetprice",
              "type": "uint256"
            },
            {
              "name": "volume",
              "type": "uint256"
            },
            {
              "name": "tag",
              "type": "bytes32"
            },
            {
              "name": "apprestrict",
              "type": "address"
            },
            {
              "name": "workerpoolrestrict",
              "type": "address"
            },
            {
              "name": "requesterrestrict",
              "type": "address"
            },
            {
              "name": "salt",
              "type": "bytes32"
            },
            {
              "name": "sign",
              "type": "bytes"
            }
          ],
          "name": "_datasetorder",
          "type": "tuple"
        }
      ],
      "name": "broadcastDatasetOrder",
      "outputs": [],
      "payable": false,
      "stateMutability": "nonpayable",
      "type": "function"
    },
    {
      "constant": true,
      "inputs": [],
      "name": "WORKERPOOL_STAKE_RATIO",
      "outputs": [
        {
          "name": "",
          "type": "uint256"
        }
      ],
      "payable": false,
      "stateMutability": "view",
      "type": "function"
    },
    {
      "constant": true,
      "inputs": [],
      "name": "KITTY_RATIO",
      "outputs": [
        {
          "name": "",
          "type": "uint256"
        }
      ],
      "payable": false,
      "stateMutability": "view",
      "type": "function"
    },
    {
      "constant": true,
      "inputs": [],
      "name": "GROUPMEMBER_PURPOSE",
      "outputs": [
        {
          "name": "",
          "type": "uint256"
        }
      ],
      "payable": false,
      "stateMutability": "view",
      "type": "function"
    },
    {
      "constant": true,
      "inputs": [
        {
          "name": "_user",
          "type": "address"
        }
      ],
      "name": "viewAccount",
      "outputs": [
        {
          "components": [
            {
              "name": "stake",
              "type": "uint256"
            },
            {
              "name": "locked",
              "type": "uint256"
            }
          ],
          "name": "account",
          "type": "tuple"
        }
      ],
      "payable": false,
      "stateMutability": "view",
      "type": "function"
    },
    {
      "constant": true,
      "inputs": [],
      "name": "POOL_STAKE_RATIO",
      "outputs": [
        {
          "name": "",
          "type": "uint256"
        }
      ],
      "payable": false,
      "stateMutability": "view",
      "type": "function"
    },
    {
      "constant": true,
      "inputs": [],
      "name": "iexechub",
      "outputs": [
        {
          "name": "",
          "type": "address"
        }
      ],
      "payable": false,
      "stateMutability": "view",
      "type": "function"
    },
    {
      "constant": false,
      "inputs": [
        {
          "components": [
            {
              "name": "workerpool",
              "type": "address"
            },
            {
              "name": "workerpoolprice",
              "type": "uint256"
            },
            {
              "name": "volume",
              "type": "uint256"
            },
            {
              "name": "tag",
              "type": "bytes32"
            },
            {
              "name": "category",
              "type": "uint256"
            },
            {
              "name": "trust",
              "type": "uint256"
            },
            {
              "name": "apprestrict",
              "type": "address"
            },
            {
              "name": "datasetrestrict",
              "type": "address"
            },
            {
              "name": "requesterrestrict",
              "type": "address"
            },
            {
              "name": "salt",
              "type": "bytes32"
            },
            {
              "name": "sign",
              "type": "bytes"
            }
          ],
          "name": "_workerpoolorder",
          "type": "tuple"
        }
      ],
      "name": "broadcastWorkerpoolOrder",
      "outputs": [],
      "payable": false,
      "stateMutability": "nonpayable",
      "type": "function"
    },
    {
      "constant": true,
      "inputs": [
        {
          "name": "",
          "type": "bytes32"
        },
        {
          "name": "",
          "type": "uint256"
        }
      ],
      "name": "m_requestdeals",
      "outputs": [
        {
          "name": "",
          "type": "bytes32"
        }
      ],
      "payable": false,
      "stateMutability": "view",
      "type": "function"
    },
    {
      "constant": false,
      "inputs": [
        {
          "name": "_amount",
          "type": "uint256"
        }
      ],
      "name": "deposit",
      "outputs": [
        {
          "name": "",
          "type": "bool"
        }
      ],
      "payable": false,
      "stateMutability": "nonpayable",
      "type": "function"
    },
    {
      "constant": false,
      "inputs": [
        {
          "components": [
            {
              "name": "app",
              "type": "address"
            },
            {
              "name": "appprice",
              "type": "uint256"
            },
            {
              "name": "volume",
              "type": "uint256"
            },
            {
              "name": "tag",
              "type": "bytes32"
            },
            {
              "name": "datasetrestrict",
              "type": "address"
            },
            {
              "name": "workerpoolrestrict",
              "type": "address"
            },
            {
              "name": "requesterrestrict",
              "type": "address"
            },
            {
              "name": "salt",
              "type": "bytes32"
            },
            {
              "name": "sign",
              "type": "bytes"
            }
          ],
          "name": "_apporder",
          "type": "tuple"
        }
      ],
      "name": "broadcastAppOrder",
      "outputs": [],
      "payable": false,
      "stateMutability": "nonpayable",
      "type": "function"
    },
    {
      "constant": true,
      "inputs": [],
      "name": "KITTY_MIN",
      "outputs": [
        {
          "name": "",
          "type": "uint256"
        }
      ],
      "payable": false,
      "stateMutability": "view",
      "type": "function"
    },
    {
      "constant": true,
      "inputs": [
        {
          "name": "",
          "type": "bytes32"
        }
      ],
      "name": "m_consumed",
      "outputs": [
        {
          "name": "",
          "type": "uint256"
        }
      ],
      "payable": false,
      "stateMutability": "view",
      "type": "function"
    },
    {
      "constant": true,
      "inputs": [],
      "name": "token",
      "outputs": [
        {
          "name": "",
          "type": "address"
        }
      ],
      "payable": false,
      "stateMutability": "view",
      "type": "function"
    },
    {
      "inputs": [
        {
          "name": "_token",
          "type": "address"
        },
        {
          "name": "_iexechub",
          "type": "address"
        },
        {
          "name": "_chainid",
          "type": "uint256"
        }
      ],
      "payable": false,
      "stateMutability": "nonpayable",
      "type": "constructor"
    },
    {
      "anonymous": false,
      "inputs": [
        {
          "indexed": false,
          "name": "dealid",
          "type": "bytes32"
        },
        {
          "indexed": false,
          "name": "appHash",
          "type": "bytes32"
        },
        {
          "indexed": false,
          "name": "datasetHash",
          "type": "bytes32"
        },
        {
          "indexed": false,
          "name": "workerpoolHash",
          "type": "bytes32"
        },
        {
          "indexed": false,
          "name": "requestHash",
          "type": "bytes32"
        },
        {
          "indexed": false,
          "name": "volume",
          "type": "uint256"
        }
      ],
      "name": "OrdersMatched",
      "type": "event"
    },
    {
      "anonymous": false,
      "inputs": [
        {
          "indexed": false,
          "name": "appHash",
          "type": "bytes32"
        }
      ],
      "name": "ClosedAppOrder",
      "type": "event"
    },
    {
      "anonymous": false,
      "inputs": [
        {
          "indexed": false,
          "name": "datasetHash",
          "type": "bytes32"
        }
      ],
      "name": "ClosedDatasetOrder",
      "type": "event"
    },
    {
      "anonymous": false,
      "inputs": [
        {
          "indexed": false,
          "name": "workerpoolHash",
          "type": "bytes32"
        }
      ],
      "name": "ClosedWorkerpoolOrder",
      "type": "event"
    },
    {
      "anonymous": false,
      "inputs": [
        {
          "indexed": false,
          "name": "requestHash",
          "type": "bytes32"
        }
      ],
      "name": "ClosedRequestOrder",
      "type": "event"
    },
    {
      "anonymous": false,
      "inputs": [
        {
          "indexed": true,
          "name": "workerpool",
          "type": "address"
        },
        {
          "indexed": false,
          "name": "dealid",
          "type": "bytes32"
        }
      ],
      "name": "SchedulerNotice",
      "type": "event"
    },
    {
      "anonymous": false,
      "inputs": [
        {
          "components": [
            {
              "name": "app",
              "type": "address"
            },
            {
              "name": "appprice",
              "type": "uint256"
            },
            {
              "name": "volume",
              "type": "uint256"
            },
            {
              "name": "tag",
              "type": "bytes32"
            },
            {
              "name": "datasetrestrict",
              "type": "address"
            },
            {
              "name": "workerpoolrestrict",
              "type": "address"
            },
            {
              "name": "requesterrestrict",
              "type": "address"
            },
            {
              "name": "salt",
              "type": "bytes32"
            },
            {
              "name": "sign",
              "type": "bytes"
            }
          ],
          "indexed": false,
          "name": "apporder",
          "type": "tuple"
        }
      ],
      "name": "BroadcastAppOrder",
      "type": "event"
    },
    {
      "anonymous": false,
      "inputs": [
        {
          "components": [
            {
              "name": "dataset",
              "type": "address"
            },
            {
              "name": "datasetprice",
              "type": "uint256"
            },
            {
              "name": "volume",
              "type": "uint256"
            },
            {
              "name": "tag",
              "type": "bytes32"
            },
            {
              "name": "apprestrict",
              "type": "address"
            },
            {
              "name": "workerpoolrestrict",
              "type": "address"
            },
            {
              "name": "requesterrestrict",
              "type": "address"
            },
            {
              "name": "salt",
              "type": "bytes32"
            },
            {
              "name": "sign",
              "type": "bytes"
            }
          ],
          "indexed": false,
          "name": "datasetorder",
          "type": "tuple"
        }
      ],
      "name": "BroadcastDatasetOrder",
      "type": "event"
    },
    {
      "anonymous": false,
      "inputs": [
        {
          "components": [
            {
              "name": "workerpool",
              "type": "address"
            },
            {
              "name": "workerpoolprice",
              "type": "uint256"
            },
            {
              "name": "volume",
              "type": "uint256"
            },
            {
              "name": "tag",
              "type": "bytes32"
            },
            {
              "name": "category",
              "type": "uint256"
            },
            {
              "name": "trust",
              "type": "uint256"
            },
            {
              "name": "apprestrict",
              "type": "address"
            },
            {
              "name": "datasetrestrict",
              "type": "address"
            },
            {
              "name": "requesterrestrict",
              "type": "address"
            },
            {
              "name": "salt",
              "type": "bytes32"
            },
            {
              "name": "sign",
              "type": "bytes"
            }
          ],
          "indexed": false,
          "name": "workerpoolorder",
          "type": "tuple"
        }
      ],
      "name": "BroadcastWorkerpoolOrder",
      "type": "event"
    },
    {
      "anonymous": false,
      "inputs": [
        {
          "components": [
            {
              "name": "app",
              "type": "address"
            },
            {
              "name": "appmaxprice",
              "type": "uint256"
            },
            {
              "name": "dataset",
              "type": "address"
            },
            {
              "name": "datasetmaxprice",
              "type": "uint256"
            },
            {
              "name": "workerpool",
              "type": "address"
            },
            {
              "name": "workerpoolmaxprice",
              "type": "uint256"
            },
            {
              "name": "requester",
              "type": "address"
            },
            {
              "name": "volume",
              "type": "uint256"
            },
            {
              "name": "tag",
              "type": "bytes32"
            },
            {
              "name": "category",
              "type": "uint256"
            },
            {
              "name": "trust",
              "type": "uint256"
            },
            {
              "name": "beneficiary",
              "type": "address"
            },
            {
              "name": "callback",
              "type": "address"
            },
            {
              "name": "params",
              "type": "string"
            },
            {
              "name": "salt",
              "type": "bytes32"
            },
            {
              "name": "sign",
              "type": "bytes"
            }
          ],
          "indexed": false,
          "name": "requestorder",
          "type": "tuple"
        }
      ],
      "name": "BroadcastRequestOrder",
      "type": "event"
    },
    {
      "anonymous": false,
      "inputs": [
        {
          "indexed": false,
          "name": "owner",
          "type": "address"
        },
        {
          "indexed": false,
          "name": "amount",
          "type": "uint256"
        }
      ],
      "name": "Deposit",
      "type": "event"
    },
    {
      "anonymous": false,
      "inputs": [
        {
          "indexed": false,
          "name": "owner",
          "type": "address"
        },
        {
          "indexed": false,
          "name": "amount",
          "type": "uint256"
        },
        {
          "indexed": false,
          "name": "target",
          "type": "address"
        }
      ],
      "name": "DepositFor",
      "type": "event"
    },
    {
      "anonymous": false,
      "inputs": [
        {
          "indexed": false,
          "name": "owner",
          "type": "address"
        },
        {
          "indexed": false,
          "name": "amount",
          "type": "uint256"
        }
      ],
      "name": "Withdraw",
      "type": "event"
    },
    {
      "anonymous": false,
      "inputs": [
        {
          "indexed": false,
          "name": "user",
          "type": "address"
        },
        {
          "indexed": false,
          "name": "amount",
          "type": "uint256"
        },
        {
          "indexed": false,
          "name": "ref",
          "type": "bytes32"
        }
      ],
      "name": "Reward",
      "type": "event"
    },
    {
      "anonymous": false,
      "inputs": [
        {
          "indexed": false,
          "name": "user",
          "type": "address"
        },
        {
          "indexed": false,
          "name": "amount",
          "type": "uint256"
        },
        {
          "indexed": false,
          "name": "ref",
          "type": "bytes32"
        }
      ],
      "name": "Seize",
      "type": "event"
    },
    {
      "anonymous": false,
      "inputs": [
        {
          "indexed": false,
          "name": "user",
          "type": "address"
        },
        {
          "indexed": false,
          "name": "amount",
          "type": "uint256"
        }
      ],
      "name": "Lock",
      "type": "event"
    },
    {
      "anonymous": false,
      "inputs": [
        {
          "indexed": false,
          "name": "user",
          "type": "address"
        },
        {
          "indexed": false,
          "name": "amount",
          "type": "uint256"
        }
      ],
      "name": "Unlock",
      "type": "event"
    },
    {
      "constant": true,
      "inputs": [
        {
          "name": "_id",
          "type": "bytes32"
        }
      ],
      "name": "viewRequestDeals",
      "outputs": [
        {
          "name": "requestdeals",
          "type": "bytes32[]"
        }
      ],
      "payable": false,
      "stateMutability": "view",
      "type": "function"
    },
    {
      "constant": true,
      "inputs": [
        {
          "name": "_id",
          "type": "bytes32"
        }
      ],
      "name": "viewDeal",
      "outputs": [
        {
          "components": [
            {
              "components": [
                {
                  "name": "pointer",
                  "type": "address"
                },
                {
                  "name": "owner",
                  "type": "address"
                },
                {
                  "name": "price",
                  "type": "uint256"
                }
              ],
              "name": "app",
              "type": "tuple"
            },
            {
              "components": [
                {
                  "name": "pointer",
                  "type": "address"
                },
                {
                  "name": "owner",
                  "type": "address"
                },
                {
                  "name": "price",
                  "type": "uint256"
                }
              ],
              "name": "dataset",
              "type": "tuple"
            },
            {
              "components": [
                {
                  "name": "pointer",
                  "type": "address"
                },
                {
                  "name": "owner",
                  "type": "address"
                },
                {
                  "name": "price",
                  "type": "uint256"
                }
              ],
              "name": "workerpool",
              "type": "tuple"
            },
            {
              "name": "trust",
              "type": "uint256"
            },
            {
              "name": "category",
              "type": "uint256"
            },
            {
              "name": "tag",
              "type": "bytes32"
            },
            {
              "name": "requester",
              "type": "address"
            },
            {
              "name": "beneficiary",
              "type": "address"
            },
            {
              "name": "callback",
              "type": "address"
            },
            {
              "name": "params",
              "type": "string"
            },
            {
              "name": "startTime",
              "type": "uint256"
            },
            {
              "name": "botFirst",
              "type": "uint256"
            },
            {
              "name": "botSize",
              "type": "uint256"
            },
            {
              "name": "workerStake",
              "type": "uint256"
            },
            {
              "name": "schedulerRewardRatio",
              "type": "uint256"
            }
          ],
          "name": "deal",
          "type": "tuple"
        }
      ],
      "payable": false,
      "stateMutability": "view",
      "type": "function"
    },
    {
      "constant": true,
      "inputs": [
        {
          "name": "_id",
          "type": "bytes32"
        }
      ],
      "name": "viewConsumed",
      "outputs": [
        {
          "name": "consumed",
          "type": "uint256"
        }
      ],
      "payable": false,
      "stateMutability": "view",
      "type": "function"
    },
    {
      "constant": true,
      "inputs": [
        {
          "name": "_id",
          "type": "bytes32"
        }
      ],
      "name": "viewPresigned",
      "outputs": [
        {
          "name": "presigned",
          "type": "bool"
        }
      ],
      "payable": false,
      "stateMutability": "view",
      "type": "function"
    },
    {
      "constant": false,
      "inputs": [
        {
          "components": [
            {
              "name": "app",
              "type": "address"
            },
            {
              "name": "appprice",
              "type": "uint256"
            },
            {
              "name": "volume",
              "type": "uint256"
            },
            {
              "name": "tag",
              "type": "bytes32"
            },
            {
              "name": "datasetrestrict",
              "type": "address"
            },
            {
              "name": "workerpoolrestrict",
              "type": "address"
            },
            {
              "name": "requesterrestrict",
              "type": "address"
            },
            {
              "name": "salt",
              "type": "bytes32"
            },
            {
              "name": "sign",
              "type": "bytes"
            }
          ],
          "name": "_apporder",
          "type": "tuple"
        }
      ],
      "name": "signAppOrder",
      "outputs": [
        {
          "name": "",
          "type": "bool"
        }
      ],
      "payable": false,
      "stateMutability": "nonpayable",
      "type": "function"
    },
    {
      "constant": false,
      "inputs": [
        {
          "components": [
            {
              "name": "dataset",
              "type": "address"
            },
            {
              "name": "datasetprice",
              "type": "uint256"
            },
            {
              "name": "volume",
              "type": "uint256"
            },
            {
              "name": "tag",
              "type": "bytes32"
            },
            {
              "name": "apprestrict",
              "type": "address"
            },
            {
              "name": "workerpoolrestrict",
              "type": "address"
            },
            {
              "name": "requesterrestrict",
              "type": "address"
            },
            {
              "name": "salt",
              "type": "bytes32"
            },
            {
              "name": "sign",
              "type": "bytes"
            }
          ],
          "name": "_datasetorder",
          "type": "tuple"
        }
      ],
      "name": "signDatasetOrder",
      "outputs": [
        {
          "name": "",
          "type": "bool"
        }
      ],
      "payable": false,
      "stateMutability": "nonpayable",
      "type": "function"
    },
    {
      "constant": false,
      "inputs": [
        {
          "components": [
            {
              "name": "workerpool",
              "type": "address"
            },
            {
              "name": "workerpoolprice",
              "type": "uint256"
            },
            {
              "name": "volume",
              "type": "uint256"
            },
            {
              "name": "tag",
              "type": "bytes32"
            },
            {
              "name": "category",
              "type": "uint256"
            },
            {
              "name": "trust",
              "type": "uint256"
            },
            {
              "name": "apprestrict",
              "type": "address"
            },
            {
              "name": "datasetrestrict",
              "type": "address"
            },
            {
              "name": "requesterrestrict",
              "type": "address"
            },
            {
              "name": "salt",
              "type": "bytes32"
            },
            {
              "name": "sign",
              "type": "bytes"
            }
          ],
          "name": "_workerpoolorder",
          "type": "tuple"
        }
      ],
      "name": "signWorkerpoolOrder",
      "outputs": [
        {
          "name": "",
          "type": "bool"
        }
      ],
      "payable": false,
      "stateMutability": "nonpayable",
      "type": "function"
    },
    {
      "constant": false,
      "inputs": [
        {
          "components": [
            {
              "name": "app",
              "type": "address"
            },
            {
              "name": "appmaxprice",
              "type": "uint256"
            },
            {
              "name": "dataset",
              "type": "address"
            },
            {
              "name": "datasetmaxprice",
              "type": "uint256"
            },
            {
              "name": "workerpool",
              "type": "address"
            },
            {
              "name": "workerpoolmaxprice",
              "type": "uint256"
            },
            {
              "name": "requester",
              "type": "address"
            },
            {
              "name": "volume",
              "type": "uint256"
            },
            {
              "name": "tag",
              "type": "bytes32"
            },
            {
              "name": "category",
              "type": "uint256"
            },
            {
              "name": "trust",
              "type": "uint256"
            },
            {
              "name": "beneficiary",
              "type": "address"
            },
            {
              "name": "callback",
              "type": "address"
            },
            {
              "name": "params",
              "type": "string"
            },
            {
              "name": "salt",
              "type": "bytes32"
            },
            {
              "name": "sign",
              "type": "bytes"
            }
          ],
          "name": "_requestorder",
          "type": "tuple"
        }
      ],
      "name": "signRequestOrder",
      "outputs": [
        {
          "name": "",
          "type": "bool"
        }
      ],
      "payable": false,
      "stateMutability": "nonpayable",
      "type": "function"
    },
    {
      "constant": false,
      "inputs": [
        {
          "components": [
            {
              "name": "app",
              "type": "address"
            },
            {
              "name": "appprice",
              "type": "uint256"
            },
            {
              "name": "volume",
              "type": "uint256"
            },
            {
              "name": "tag",
              "type": "bytes32"
            },
            {
              "name": "datasetrestrict",
              "type": "address"
            },
            {
              "name": "workerpoolrestrict",
              "type": "address"
            },
            {
              "name": "requesterrestrict",
              "type": "address"
            },
            {
              "name": "salt",
              "type": "bytes32"
            },
            {
              "name": "sign",
              "type": "bytes"
            }
          ],
          "name": "_apporder",
          "type": "tuple"
        },
        {
          "components": [
            {
              "name": "dataset",
              "type": "address"
            },
            {
              "name": "datasetprice",
              "type": "uint256"
            },
            {
              "name": "volume",
              "type": "uint256"
            },
            {
              "name": "tag",
              "type": "bytes32"
            },
            {
              "name": "apprestrict",
              "type": "address"
            },
            {
              "name": "workerpoolrestrict",
              "type": "address"
            },
            {
              "name": "requesterrestrict",
              "type": "address"
            },
            {
              "name": "salt",
              "type": "bytes32"
            },
            {
              "name": "sign",
              "type": "bytes"
            }
          ],
          "name": "_datasetorder",
          "type": "tuple"
        },
        {
          "components": [
            {
              "name": "workerpool",
              "type": "address"
            },
            {
              "name": "workerpoolprice",
              "type": "uint256"
            },
            {
              "name": "volume",
              "type": "uint256"
            },
            {
              "name": "tag",
              "type": "bytes32"
            },
            {
              "name": "category",
              "type": "uint256"
            },
            {
              "name": "trust",
              "type": "uint256"
            },
            {
              "name": "apprestrict",
              "type": "address"
            },
            {
              "name": "datasetrestrict",
              "type": "address"
            },
            {
              "name": "requesterrestrict",
              "type": "address"
            },
            {
              "name": "salt",
              "type": "bytes32"
            },
            {
              "name": "sign",
              "type": "bytes"
            }
          ],
          "name": "_workerpoolorder",
          "type": "tuple"
        },
        {
          "components": [
            {
              "name": "app",
              "type": "address"
            },
            {
              "name": "appmaxprice",
              "type": "uint256"
            },
            {
              "name": "dataset",
              "type": "address"
            },
            {
              "name": "datasetmaxprice",
              "type": "uint256"
            },
            {
              "name": "workerpool",
              "type": "address"
            },
            {
              "name": "workerpoolmaxprice",
              "type": "uint256"
            },
            {
              "name": "requester",
              "type": "address"
            },
            {
              "name": "volume",
              "type": "uint256"
            },
            {
              "name": "tag",
              "type": "bytes32"
            },
            {
              "name": "category",
              "type": "uint256"
            },
            {
              "name": "trust",
              "type": "uint256"
            },
            {
              "name": "beneficiary",
              "type": "address"
            },
            {
              "name": "callback",
              "type": "address"
            },
            {
              "name": "params",
              "type": "string"
            },
            {
              "name": "salt",
              "type": "bytes32"
            },
            {
              "name": "sign",
              "type": "bytes"
            }
          ],
          "name": "_requestorder",
          "type": "tuple"
        }
      ],
      "name": "matchOrders",
      "outputs": [
        {
          "name": "",
          "type": "bytes32"
        }
      ],
      "payable": false,
      "stateMutability": "nonpayable",
      "type": "function"
    },
    {
      "constant": false,
      "inputs": [
        {
          "components": [
            {
              "name": "app",
              "type": "address"
            },
            {
              "name": "appprice",
              "type": "uint256"
            },
            {
              "name": "volume",
              "type": "uint256"
            },
            {
              "name": "tag",
              "type": "bytes32"
            },
            {
              "name": "datasetrestrict",
              "type": "address"
            },
            {
              "name": "workerpoolrestrict",
              "type": "address"
            },
            {
              "name": "requesterrestrict",
              "type": "address"
            },
            {
              "name": "salt",
              "type": "bytes32"
            },
            {
              "name": "sign",
              "type": "bytes"
            }
          ],
          "name": "_apporder",
          "type": "tuple"
        }
      ],
      "name": "cancelAppOrder",
      "outputs": [
        {
          "name": "",
          "type": "bool"
        }
      ],
      "payable": false,
      "stateMutability": "nonpayable",
      "type": "function"
    },
    {
      "constant": false,
      "inputs": [
        {
          "components": [
            {
              "name": "dataset",
              "type": "address"
            },
            {
              "name": "datasetprice",
              "type": "uint256"
            },
            {
              "name": "volume",
              "type": "uint256"
            },
            {
              "name": "tag",
              "type": "bytes32"
            },
            {
              "name": "apprestrict",
              "type": "address"
            },
            {
              "name": "workerpoolrestrict",
              "type": "address"
            },
            {
              "name": "requesterrestrict",
              "type": "address"
            },
            {
              "name": "salt",
              "type": "bytes32"
            },
            {
              "name": "sign",
              "type": "bytes"
            }
          ],
          "name": "_datasetorder",
          "type": "tuple"
        }
      ],
      "name": "cancelDatasetOrder",
      "outputs": [
        {
          "name": "",
          "type": "bool"
        }
      ],
      "payable": false,
      "stateMutability": "nonpayable",
      "type": "function"
    },
    {
      "constant": false,
      "inputs": [
        {
          "components": [
            {
              "name": "workerpool",
              "type": "address"
            },
            {
              "name": "workerpoolprice",
              "type": "uint256"
            },
            {
              "name": "volume",
              "type": "uint256"
            },
            {
              "name": "tag",
              "type": "bytes32"
            },
            {
              "name": "category",
              "type": "uint256"
            },
            {
              "name": "trust",
              "type": "uint256"
            },
            {
              "name": "apprestrict",
              "type": "address"
            },
            {
              "name": "datasetrestrict",
              "type": "address"
            },
            {
              "name": "requesterrestrict",
              "type": "address"
            },
            {
              "name": "salt",
              "type": "bytes32"
            },
            {
              "name": "sign",
              "type": "bytes"
            }
          ],
          "name": "_workerpoolorder",
          "type": "tuple"
        }
      ],
      "name": "cancelWorkerpoolOrder",
      "outputs": [
        {
          "name": "",
          "type": "bool"
        }
      ],
      "payable": false,
      "stateMutability": "nonpayable",
      "type": "function"
    },
    {
      "constant": false,
      "inputs": [
        {
          "components": [
            {
              "name": "app",
              "type": "address"
            },
            {
              "name": "appmaxprice",
              "type": "uint256"
            },
            {
              "name": "dataset",
              "type": "address"
            },
            {
              "name": "datasetmaxprice",
              "type": "uint256"
            },
            {
              "name": "workerpool",
              "type": "address"
            },
            {
              "name": "workerpoolmaxprice",
              "type": "uint256"
            },
            {
              "name": "requester",
              "type": "address"
            },
            {
              "name": "volume",
              "type": "uint256"
            },
            {
              "name": "tag",
              "type": "bytes32"
            },
            {
              "name": "category",
              "type": "uint256"
            },
            {
              "name": "trust",
              "type": "uint256"
            },
            {
              "name": "beneficiary",
              "type": "address"
            },
            {
              "name": "callback",
              "type": "address"
            },
            {
              "name": "params",
              "type": "string"
            },
            {
              "name": "salt",
              "type": "bytes32"
            },
            {
              "name": "sign",
              "type": "bytes"
            }
          ],
          "name": "_requestorder",
          "type": "tuple"
        }
      ],
      "name": "cancelRequestOrder",
      "outputs": [
        {
          "name": "",
          "type": "bool"
        }
      ],
      "payable": false,
      "stateMutability": "nonpayable",
      "type": "function"
    },
    {
      "constant": false,
      "inputs": [
        {
          "name": "_dealid",
          "type": "bytes32"
        },
        {
          "name": "_worker",
          "type": "address"
        }
      ],
      "name": "lockContribution",
      "outputs": [],
      "payable": false,
      "stateMutability": "nonpayable",
      "type": "function"
    },
    {
      "constant": false,
      "inputs": [
        {
          "name": "_dealid",
          "type": "bytes32"
        },
        {
          "name": "_worker",
          "type": "address"
        }
      ],
      "name": "unlockContribution",
      "outputs": [],
      "payable": false,
      "stateMutability": "nonpayable",
      "type": "function"
    },
    {
      "constant": false,
      "inputs": [
        {
          "name": "_dealid",
          "type": "bytes32"
        },
        {
          "name": "_worker",
          "type": "address"
        },
        {
          "name": "_amount",
          "type": "uint256"
        },
        {
          "name": "_taskid",
          "type": "bytes32"
        }
      ],
      "name": "unlockAndRewardForContribution",
      "outputs": [],
      "payable": false,
      "stateMutability": "nonpayable",
      "type": "function"
    },
    {
      "constant": false,
      "inputs": [
        {
          "name": "_dealid",
          "type": "bytes32"
        },
        {
          "name": "_worker",
          "type": "address"
        },
        {
          "name": "_taskid",
          "type": "bytes32"
        }
      ],
      "name": "seizeContribution",
      "outputs": [],
      "payable": false,
      "stateMutability": "nonpayable",
      "type": "function"
    },
    {
      "constant": false,
      "inputs": [
        {
          "name": "_dealid",
          "type": "bytes32"
        },
        {
          "name": "_amount",
          "type": "uint256"
        },
        {
          "name": "_taskid",
          "type": "bytes32"
        }
      ],
      "name": "rewardForScheduling",
      "outputs": [],
      "payable": false,
      "stateMutability": "nonpayable",
      "type": "function"
    },
    {
      "constant": false,
      "inputs": [
        {
          "name": "_dealid",
          "type": "bytes32"
        },
        {
          "name": "_taskid",
          "type": "bytes32"
        }
      ],
      "name": "successWork",
      "outputs": [],
      "payable": false,
      "stateMutability": "nonpayable",
      "type": "function"
    },
    {
      "constant": false,
      "inputs": [
        {
          "name": "_dealid",
          "type": "bytes32"
        },
        {
          "name": "_taskid",
          "type": "bytes32"
        }
      ],
      "name": "failedWork",
      "outputs": [],
      "payable": false,
      "stateMutability": "nonpayable",
      "type": "function"
    },
    {
      "constant": true,
      "inputs": [
        {
          "name": "_id",
          "type": "bytes32"
        }
      ],
      "name": "viewDealABILegacy_pt1",
      "outputs": [
        {
          "name": "",
          "type": "address"
        },
        {
          "name": "",
          "type": "address"
        },
        {
          "name": "",
          "type": "uint256"
        },
        {
          "name": "",
          "type": "address"
        },
        {
          "name": "",
          "type": "address"
        },
        {
          "name": "",
          "type": "uint256"
        },
        {
          "name": "",
          "type": "address"
        },
        {
          "name": "",
          "type": "address"
        },
        {
          "name": "",
          "type": "uint256"
        }
      ],
      "payable": false,
      "stateMutability": "view",
      "type": "function"
    },
    {
      "constant": true,
      "inputs": [
        {
          "name": "_id",
          "type": "bytes32"
        }
      ],
      "name": "viewDealABILegacy_pt2",
      "outputs": [
        {
          "name": "",
          "type": "uint256"
        },
        {
          "name": "",
          "type": "bytes32"
        },
        {
          "name": "",
          "type": "address"
        },
        {
          "name": "",
          "type": "address"
        },
        {
          "name": "",
          "type": "address"
        },
        {
          "name": "",
          "type": "string"
        }
      ],
      "payable": false,
      "stateMutability": "view",
      "type": "function"
    },
    {
      "constant": true,
      "inputs": [
        {
          "name": "_id",
          "type": "bytes32"
        }
      ],
      "name": "viewConfigABILegacy",
      "outputs": [
        {
          "name": "",
          "type": "uint256"
        },
        {
          "name": "",
          "type": "uint256"
        },
        {
          "name": "",
          "type": "uint256"
        },
        {
          "name": "",
          "type": "uint256"
        },
        {
          "name": "",
          "type": "uint256"
        },
        {
          "name": "",
          "type": "uint256"
        }
      ],
      "payable": false,
      "stateMutability": "view",
      "type": "function"
    },
    {
      "constant": true,
      "inputs": [
        {
          "name": "_user",
          "type": "address"
        }
      ],
      "name": "viewAccountABILegacy",
      "outputs": [
        {
          "name": "",
          "type": "uint256"
        },
        {
          "name": "",
          "type": "uint256"
        }
      ],
      "payable": false,
      "stateMutability": "view",
      "type": "function"
    }
  ],
  "bytecode": "0x60806040523480156200001157600080fd5b5060405160608062004fbe8339810180604052620000339190810190620001d1565b600080546001600160a01b0319166001600160a01b0385811691909117909155829081166200006157600080fd5b600280546001600160a01b0319166001600160a01b03929092169190911790556040805160c0810182526008608082019081527f69457865634f444200000000000000000000000000000000000000000000000060a0830152815281518083018352600981527f332e302d616c706861000000000000000000000000000000000000000000000060208083019190915282015280820183905230606082015290517feca34ccf00000000000000000000000000000000000000000000000000000000815273__IexecODBLibOrders_____________________9163eca34ccf9162000150919060040162000314565b60206040518083038186803b1580156200016957600080fd5b505af41580156200017e573d6000803e3d6000fd5b505050506040513d601f19601f82011682018060405250620001a4919081019062000225565b60075550620003b9915050565b8051620001be8162000394565b92915050565b8051620001be81620003ae565b600080600060608486031215620001e757600080fd5b6000620001f58686620001b1565b93505060206200020886828701620001b1565b92505060406200021b86828701620001c4565b9150509250925092565b6000602082840312156200023857600080fd5b6000620002468484620001c4565b949350505050565b62000259816200033b565b82525050565b60006200026c826200032e565b62000278818562000332565b93506200028a81856020860162000357565b62000295816200038a565b9093019392505050565b8051608080845260009190840190620002b982826200025f565b91505060208301518482036020860152620002d582826200025f565b9150506040830151620002ec604086018262000309565b5060608301516200030160608601826200024e565b509392505050565b620002598162000348565b602080825281016200032781846200029f565b9392505050565b5190565b90815260200190565b6000620001be826200034b565b90565b6001600160a01b031690565b60005b83811015620003745781810151838201526020016200035a565b8381111562000384576000848401525b50505050565b601f01601f191690565b6200039f816200033b565b8114620003ab57600080fd5b50565b6200039f8162000348565b614bf580620003c96000396000f3fe608060405234801561001057600080fd5b506004361061027f5760003560e01c8063709ce02b1161015c578063b31231de116100ce578063d286eb1611610087578063d286eb16146105ad578063d5922f50146105c0578063e2e7a8c1146105e5578063e3035ace146105ed578063e798491a14610600578063fc0c546a146106135761027f565b8063b31231de14610507578063b6b55f251461051a578063b74861b21461052d578063bd19a4f31461054d578063c52e9de114610575578063ce5f7895146105885761027f565b8063947f517811610120578063947f5178146104955780639f0c9d6e146104a8578063a1f3496c146104bb578063a3b37a79146104ce578063a3f0ec58146104e1578063ae510d19146104f45761027f565b8063709ce02b1461036f57806370c4c27714610447578063732e498d1461045a57806384724ddf1461046d5780638d52e413146104805761027f565b80634ec3b9e3116101f557806368a9ef1c116101b957806368a9ef1c146103c65780636a6e0bed146103ce5780636b55f4a5146103e15780636cb9012e146104015780636dc2df05146104145780636eb528b5146104345761027f565b80634ec3b9e31461036f57806351152de11461037757806351a0942f1461037f578063555859c7146103925780635b3ae3e4146103a55761027f565b806336efd16f1161024757806336efd16f146102fb57806338a754b41461030e57806343f2c970146103215780634693d172146103345780634b2bec8c146103495780634c4692de1461035c5761027f565b80630175199814610284578063047411e7146102ad578063156194d4146102c25780632e1a7d4d146102d55780633354f8a5146102e8575b600080fd5b610297610292366004613e94565b61061b565b6040516102a4919061492f565b60405180910390f35b6102b56106b9565b6040516102a4919061493d565b6102b56102d0366004614134565b6106bf565b6102976102e3366004613f84565b611734565b6102976102f6366004613ef8565b611834565b610297610309366004613fc0565b611899565b61029761031c3660046141e4565b6119cb565b61029761032f366004613f84565b611b50565b6103476103423660046141e4565b611b65565b005b6102b5610357366004613f84565b611b9f565b61034761036a366004614100565b611bb1565b6102b5611be0565b6102b5611be5565b61034761038d36600461409e565b611bea565b6102976103a0366004614100565b611ca4565b6103b86103b3366004613e58565b611e94565b6040516102a492919061494b565b6102b5611ed5565b6102976103dc366004614218565b611eda565b6103f46103ef366004613e58565b6120b3565b6040516102a49190614a16565b61029761040f366004614100565b6120ee565b610427610422366004613f84565b6121c5565b6040516102a4919061491e565b610347610442366004613fc0565b612227565b61034761045536600461409e565b61225f565b6102976104683660046141e4565b6123fa565b61029761047b366004614100565b612461565b610488612651565b6040516102a49190614a08565b6103476104a3366004614218565b612660565b6103476104b6366004613ffa565b61268f565b6103476104c93660046140ce565b6126c9565b6102976104dc366004614100565b612706565b6103476104ef36600461403d565b6127dd565b610297610502366004614218565b612822565b6102b561051536600461409e565b612a12565b610297610528366004613f84565b612a40565b61054061053b366004613f84565b612b37565b6040516102a49190614a35565b61056061055b366004613f84565b612cf7565b6040516102a49998979695949392919061486f565b610347610583366004614100565b612f31565b61059b610596366004613f84565b612f60565b6040516102a496959493929190614a68565b6102976105bb366004613f84565b61315e565b6105d36105ce366004613f84565b613173565b6040516102a496959493929190614959565b6102b5613370565b6102b56105fb366004613f84565b613378565b61034761060e366004613fc0565b61338a565b6104886133be565b60006106288484846133cd565b806106af5750604051600160e11b630b135d3f0281526001600160a01b03851690631626ba7e9061065f90869086906004016149b3565b60206040518083038186803b15801561067757600080fd5b505afa15801561068b573d6000803e3d6000fd5b505050506040513d601f19601f820116820180604052506106af9190810190613f66565b90505b9392505050565b60075481565b60008260800151826101200151146106d657600080fd5b8260a0015182610140015111156106ec57600080fd5b84602001518260200151101561070157600080fd5b83602001518260600151101561071657600080fd5b82602001518260a00151101561072b57600080fd5b826060015119826101000151856060015187606001511717166000801b1461075257600080fd5b845182516001600160a01b0390811691161461076d57600080fd5b83600001516001600160a01b031682604001516001600160a01b03161461079357600080fd5b60808201516001600160a01b031615806107bc57506107bc8260800151846000015160046134a2565b6107c557600080fd5b60808501516001600160a01b031615806107ee57506107ee8560800151856000015160046134a2565b6107f757600080fd5b60a08501516001600160a01b0316158061082057506108208560a00151846000015160046134a2565b61082957600080fd5b60c08501516001600160a01b0316158061085257506108528560c001518360c0015160046134a2565b61085b57600080fd5b60808401516001600160a01b0316158061088457506108848460800151866000015160046134a2565b61088d57600080fd5b60a08401516001600160a01b031615806108b657506108b68460a00151846000015160046134a2565b6108bf57600080fd5b60c08401516001600160a01b031615806108e857506108e88460c001518360c0015160046134a2565b6108f157600080fd5b60c08301516001600160a01b0316158061091a575061091a8360c00151866000015160046134a2565b61092357600080fd5b60e08301516001600160a01b0316158061094c575061094c8360e00151856000015160046134a2565b61095557600080fd5b6101008301516001600160a01b0316158061098057506109808361010001518360c0015160046134a2565b61098957600080fd5b600254855185518551604051600160e01b63097d630d0281526001600160a01b039094169363097d630d936109c49390929091600401614854565b60206040518083038186803b1580156109dc57600080fd5b505afa1580156109f0573d6000803e3d6000fd5b505050506040513d601f19601f82011682018060405250610a149190810190613f66565b610a1d57600080fd5b610a2561381f565b84516001600160a01b0316151560e0820152604051600160e01b630495132902815273__IexecODBLibOrders_____________________90630495132990610a71908990600401614a24565b60206040518083038186803b158015610a8957600080fd5b505af4158015610a9d573d6000803e3d6000fd5b505050506040513d601f19601f82011682018060405250610ac19190810190613fa2565b600754604051600160e01b63176eaa4902815273__IexecODBLibOrders_____________________9263176eaa4992610afc9260040161494b565b60206040518083038186803b158015610b1457600080fd5b505af4158015610b28573d6000803e3d6000fd5b505050506040513d601f19601f82011682018060405250610b4c9190810190613fa2565b81600001818152505085600001516001600160a01b0316638da5cb5b6040518163ffffffff1660e01b815260040160206040518083038186803b158015610b9257600080fd5b505afa158015610ba6573d6000803e3d6000fd5b505050506040513d601f19601f82011682018060405250610bca9190810190613e76565b6001600160a01b031660208083019190915281516000908152600b909152604090205460ff1680610c0e5750610c0e8160200151826000015188610100015161061b565b610c1757600080fd5b8060e0015115610dfe57604051600160e21b630af531cd02815273__IexecODBLibOrders_____________________90632bd4c73490610c5b908890600401614a24565b60206040518083038186803b158015610c7357600080fd5b505af4158015610c87573d6000803e3d6000fd5b505050506040513d601f19601f82011682018060405250610cab9190810190613fa2565b600754604051600160e01b63176eaa4902815273__IexecODBLibOrders_____________________9263176eaa4992610ce69260040161494b565b60206040518083038186803b158015610cfe57600080fd5b505af4158015610d12573d6000803e3d6000fd5b505050506040513d601f19601f82011682018060405250610d369190810190613fa2565b81604001818152505084600001516001600160a01b0316638da5cb5b6040518163ffffffff1660e01b815260040160206040518083038186803b158015610d7c57600080fd5b505afa158015610d90573d6000803e3d6000fd5b505050506040513d601f19601f82011682018060405250610db49190810190613e76565b6001600160a01b031660608201526040808201516000908152600b602052205460ff1680610df55750610df58160600151826040015187610100015161061b565b610dfe57600080fd5b604051600160e11b632c5a82c302815273__IexecODBLibOrders_____________________906358b5058690610e38908790600401614a57565b60206040518083038186803b158015610e5057600080fd5b505af4158015610e64573d6000803e3d6000fd5b505050506040513d601f19601f82011682018060405250610e889190810190613fa2565b600754604051600160e01b63176eaa4902815273__IexecODBLibOrders_____________________9263176eaa4992610ec39260040161494b565b60206040518083038186803b158015610edb57600080fd5b505af4158015610eef573d6000803e3d6000fd5b505050506040513d601f19601f82011682018060405250610f139190810190613fa2565b81608001818152505083600001516001600160a01b0316638da5cb5b6040518163ffffffff1660e01b815260040160206040518083038186803b158015610f5957600080fd5b505afa158015610f6d573d6000803e3d6000fd5b505050506040513d601f19601f82011682018060405250610f919190810190613e76565b6001600160a01b031660a082015260808101516000908152600b602052604090205460ff1680610fd45750610fd48160a00151826080015186610140015161061b565b610fdd57600080fd5b604051600160e11b630409a12702815273__IexecODBLibOrders_____________________90630813424e90611017908690600401614a46565b60206040518083038186803b15801561102f57600080fd5b505af4158015611043573d6000803e3d6000fd5b505050506040513d601f19601f820116820180604052506110679190810190613fa2565b600754604051600160e01b63176eaa4902815273__IexecODBLibOrders_____________________9263176eaa49926110a29260040161494b565b60206040518083038186803b1580156110ba57600080fd5b505af41580156110ce573d6000803e3d6000fd5b505050506040513d601f19601f820116820180604052506110f29190810190613fa2565b60c082018190526000908152600b602052604090205460ff168061112957506111298360c001518260c00151856101e0015161061b565b61113257600080fd5b80516000908152600a602052604080822054908801516111579163ffffffff6134f516565b90508160e0015161116857806111a1565b6040808301516000908152600a60205281902054908701516111a191611194919063ffffffff6134f516565b829063ffffffff61350a16565b60808301516000908152600a60205260409081902054908701519192506111d1916111949163ffffffff6134f516565b60c08301516000908152600a602052604090205460e0860151919250611200916111949163ffffffff6134f516565b90506000811161120f57600080fd5b60c08201516000818152600a602090815260408083205490519293611236939092016147c3565b60408051808303601f190181529181528151602092830120600081815260098452919091208a5181546001600160a01b03199081166001600160a01b03928316178355878501516001840180548316918416919091179055938c01516002830155606087015160048301805486169183169190911790558a5160038301805490951691161790925560e08501519092506112d15760006112d7565b87602001515b600582015586516006820180546001600160a01b039283166001600160a01b03199182161790915560a08601516007840180549190931691161790556020870151600882015561014086015161133490600163ffffffff61352016565b6009820155610120860151600a8201556101008601516060808a0151908b01511717600b82015560c0860151600c820180546001600160a01b039283166001600160a01b031991821617909155610160880151600d84018054918416918316919091179055610180880151600e840180549190931691161790556101a086015180516113ca91600f840191602090910190613863565b5042601082015560c08401516000908152600a60209081526040918290205460118401556012830185905588518251600160e01b63b55e75af0281529251611482936001600160a01b039092169263b55e75af9260048082019391829003018186803b15801561143957600080fd5b505afa15801561144d573d6000803e3d6000fd5b505050506040513d601f19601f820116820180604052506114719190810190613fa2565b60208901519063ffffffff61353016565b816013018190555086600001516001600160a01b03166387639c686040518163ffffffff1660e01b815260040160206040518083038186803b1580156114c757600080fd5b505afa1580156114db573d6000803e3d6000fd5b505050506040513d601f19601f820116820180604052506114ff9190810190613fa2565b601482015560c0840151600090815260086020908152604080832080546001810182559084528284200185905586518352600a909152902054611548908463ffffffff61353e16565b84516000908152600a602052604090205560e084015161158d9061156d57600061156f565b835b6040808701516000908152600a60205220549063ffffffff61353e16565b6040808601516000908152600a60205281812092909255608086015182529020546115be908463ffffffff61353e16565b60808501516000908152600a60205260408082209290925560c0860151815220546115ef908463ffffffff61353e16565b60c08501516000908152600a6020526040902055600c81015460088201546005830154600284015461165d936001600160a01b03169261165892889261164c9291611640919063ffffffff61353e16565b9063ffffffff61353e16565b9063ffffffff61355016565b613577565b6007810154600882015461168c916001600160a01b03169061165890869061164c90601e63ffffffff61353016565b60068101546040516001600160a01b03909116907f692ad61076dceddd0f1a861f737553dd61fc8501cf4190d29c4e90af6607f765906116cd90859061493d565b60405180910390a27fd811b592ed0899225773e8933d8df64bd0b62761a9d7aad4ed5b22735f4610a4828560000151866040015187608001518860c001518860405161171e96959493929190614959565b60405180910390a150925050505b949350505050565b33600090815260016020526040812054611754908363ffffffff6134f516565b3360008181526001602052604080822093909355549151600160e01b63a9059cbb0281526001600160a01b039092169163a9059cbb91611798918690600401614811565b602060405180830381600087803b1580156117b257600080fd5b505af11580156117c6573d6000803e3d6000fd5b505050506040513d601f19601f820116820180604052506117ea9190810190613f66565b6117f357600080fd5b7f884edad9ce6fa2440d8a54cc123490eb96d2768479d49ff9c7366125a94243643383604051611824929190614811565b60405180910390a1506001919050565b600083821461184257600080fd5b60005b8481101561188d5761188486868381811061185c57fe5b9050602002013585858481811061186f57fe5b90506020020160206103099190810190613e58565b50600101611845565b50600195945050505050565b60006001600160a01b0382166118ae57600080fd5b600054604051600160e01b6323b872dd0281526001600160a01b03909116906323b872dd906118e5903390309088906004016147e9565b602060405180830381600087803b1580156118ff57600080fd5b505af1158015611913573d6000803e3d6000fd5b505050506040513d601f19601f820116820180604052506119379190810190613f66565b61194057600080fd5b6001600160a01b038216600090815260016020526040902054611969908463ffffffff61353e16565b6001600160a01b0383166000908152600160205260409081902091909155517fcce62bfcdb09eddbe4e5ff5ec3bafdbabc25a52e1cf34f014a0a7a0864f9634c906119b99033908690869061482c565b60405180910390a15060015b92915050565b604051600160e11b630409a127028152600090819073__IexecODBLibOrders_____________________90630813424e90611a0a908690600401614a46565b60206040518083038186803b158015611a2257600080fd5b505af4158015611a36573d6000803e3d6000fd5b505050506040513d601f19601f82011682018060405250611a5a9190810190613fa2565b600754604051600160e01b63176eaa4902815273__IexecODBLibOrders_____________________9263176eaa4992611a959260040161494b565b60206040518083038186803b158015611aad57600080fd5b505af4158015611ac1573d6000803e3d6000fd5b505050506040513d601f19601f82011682018060405250611ae59190810190613fa2565b90508260c001516001600160a01b0316336001600160a01b031614611b0957600080fd5b60e08301516000828152600a60205260409081902091909155517f582f43f2a741cbe708aae3b8d38a4efc3d09d7e81919697b3ca693f4c444cc05906119b990839061493d565b60066020526000908152604090205460ff1681565b7f54bee205d9b03332d6dc82bc907476dfef6ed4fd86058d49a72994baee78117581604051611b949190614a46565b60405180910390a150565b6000908152600a602052604090205490565b7fc56d982ad2fd39ebadca073cc88d9bdaee0f4c8e7b2b6be50227169daefc7b3f81604051611b949190614a24565b601e81565b600a81565b6002546001600160a01b03163314611c0157600080fd5b6000828152600960205260408120600881015460058201546002830154929392611c369291611640919063ffffffff61353e16565b6008830154909150600090611c5290601e63ffffffff61353016565b600c840154909150611c6d906001600160a01b03168361362d565b6007830154611c86906001600160a01b031682866136db565b611c9260008286613768565b611c9d600082613577565b5050505050565b604051600160e21b630af531cd028152600090819073__IexecODBLibOrders_____________________90632bd4c73490611ce3908690600401614a24565b60206040518083038186803b158015611cfb57600080fd5b505af4158015611d0f573d6000803e3d6000fd5b505050506040513d601f19601f82011682018060405250611d339190810190613fa2565b600754604051600160e01b63176eaa4902815273__IexecODBLibOrders_____________________9263176eaa4992611d6e9260040161494b565b60206040518083038186803b158015611d8657600080fd5b505af4158015611d9a573d6000803e3d6000fd5b505050506040513d601f19601f82011682018060405250611dbe9190810190613fa2565b905082600001516001600160a01b0316638da5cb5b6040518163ffffffff1660e01b815260040160206040518083038186803b158015611dfd57600080fd5b505afa158015611e11573d6000803e3d6000fd5b505050506040513d601f19601f82011682018060405250611e359190810190613e76565b6001600160a01b0316336001600160a01b031614611e5257600080fd5b6040808401516000838152600a60205282902055517fcf52e3228bc482a6656d8ab56c09888b1c5bf6aaadba0185e96a34836f2bb1d4906119b990839061493d565b600080611e9f6138e1565b5050506001600160a01b031660009081526001602081815260409283902083518085019094528054808552920154920182905291565b600481565b600081600001516001600160a01b0316638da5cb5b6040518163ffffffff1660e01b815260040160206040518083038186803b158015611f1957600080fd5b505afa158015611f2d573d6000803e3d6000fd5b505050506040513d601f19601f82011682018060405250611f519190810190613e76565b6001600160a01b0316336001600160a01b031614611f6e57600080fd5b604051600160e11b632c5a82c3028152600190600b9060009073__IexecODBLibOrders_____________________906358b5058690611fb1908890600401614a57565b60206040518083038186803b158015611fc957600080fd5b505af4158015611fdd573d6000803e3d6000fd5b505050506040513d601f19601f820116820180604052506120019190810190613fa2565b600754604051600160e01b63176eaa4902815273__IexecODBLibOrders_____________________9263176eaa499261203c9260040161494b565b60206040518083038186803b15801561205457600080fd5b505af4158015612068573d6000803e3d6000fd5b505050506040513d601f19601f8201168201806040525061208c9190810190613fa2565b81526020810191909152604001600020805460ff1916911515919091179055506001919050565b6120bb6138e1565b506001600160a01b0316600090815260016020818152604092839020835180850190945280548452909101549082015290565b600081600001516001600160a01b0316638da5cb5b6040518163ffffffff1660e01b815260040160206040518083038186803b15801561212d57600080fd5b505afa158015612141573d6000803e3d6000fd5b505050506040513d601f19601f820116820180604052506121659190810190613e76565b6001600160a01b0316336001600160a01b03161461218257600080fd5b604051600160e01b6304951329028152600190600b9060009073__IexecODBLibOrders_____________________90630495132990611fb1908890600401614a24565b60008181526008602090815260409182902080548351818402810184019094528084526060939283018282801561221b57602002820191906000526020600020905b815481526020019060010190808311612207575b50505050509050919050565b6002546001600160a01b0316331461223e57600080fd5b60008281526009602052604090206013015461225b90829061362d565b5050565b6002546001600160a01b0316331461227657600080fd5b60008281526009602052604081206008810154600582015460028301549293926122ab9291611640919063ffffffff61353e16565b60088301549091506000906122c790601e63ffffffff61353016565b600c8401549091506122e3906001600160a01b031683866136db565b60028301541561230b576001830154600284015461230b916001600160a01b03169086613768565b60058301541580159061232a575060038301546001600160a01b031615155b1561234d576004830154600584015461234d916001600160a01b03169086613768565b6007830154612365906001600160a01b03168261362d565b6000805260016020527fa6eef7e35abe7026729641147f7915573c7e97b47efa546f5f6e3230263bcb4a5480156123f2576123cb816123bf633b9aca006123b383600a63ffffffff61353016565b9063ffffffff61352016565b9063ffffffff61350a16565b90506123d9600082876136db565b60078401546123f2906001600160a01b03168287613768565b505050505050565b60008160c001516001600160a01b0316336001600160a01b03161461241e57600080fd5b604051600160e11b630409a127028152600190600b9060009073__IexecODBLibOrders_____________________90630813424e90611fb1908890600401614a46565b604051600160e01b6304951329028152600090819073__IexecODBLibOrders_____________________906304951329906124a0908690600401614a24565b60206040518083038186803b1580156124b857600080fd5b505af41580156124cc573d6000803e3d6000fd5b505050506040513d601f19601f820116820180604052506124f09190810190613fa2565b600754604051600160e01b63176eaa4902815273__IexecODBLibOrders_____________________9263176eaa499261252b9260040161494b565b60206040518083038186803b15801561254357600080fd5b505af4158015612557573d6000803e3d6000fd5b505050506040513d601f19601f8201168201806040525061257b9190810190613fa2565b905082600001516001600160a01b0316638da5cb5b6040518163ffffffff1660e01b815260040160206040518083038186803b1580156125ba57600080fd5b505afa1580156125ce573d6000803e3d6000fd5b505050506040513d601f19601f820116820180604052506125f29190810190613e76565b6001600160a01b0316336001600160a01b03161461260f57600080fd5b6040808401516000838152600a60205282902055517f7343f75be43aba524f85326508cd975d016ef7884676377366c69a7c32e30668906119b990839061493d565b6002546001600160a01b031681565b7faf81a046e31ebb2be305579e585ac6b2ee3fdc2dc9dba806bb826879bb2c785181604051611b949190614a57565b6002546001600160a01b031633146126a657600080fd5b6000838152600960205260409020601301546126c4908390836136db565b505050565b6002546001600160a01b031633146126e057600080fd5b6000838152600960205260409020600701546126c4906001600160a01b03168383613768565b600081600001516001600160a01b0316638da5cb5b6040518163ffffffff1660e01b815260040160206040518083038186803b15801561274557600080fd5b505afa158015612759573d6000803e3d6000fd5b505050506040513d601f19601f8201168201806040525061277d9190810190613e76565b6001600160a01b0316336001600160a01b03161461279a57600080fd5b604051600160e21b630af531cd028152600190600b9060009073__IexecODBLibOrders_____________________90632bd4c73490611fb1908890600401614a24565b6002546001600160a01b031633146127f457600080fd5b60008481526009602052604090206013015461281190849061362d565b61281c838383613768565b50505050565b604051600160e11b632c5a82c3028152600090819073__IexecODBLibOrders_____________________906358b5058690612861908690600401614a57565b60206040518083038186803b15801561287957600080fd5b505af415801561288d573d6000803e3d6000fd5b505050506040513d601f19601f820116820180604052506128b19190810190613fa2565b600754604051600160e01b63176eaa4902815273__IexecODBLibOrders_____________________9263176eaa49926128ec9260040161494b565b60206040518083038186803b15801561290457600080fd5b505af4158015612918573d6000803e3d6000fd5b505050506040513d601f19601f8201168201806040525061293c9190810190613fa2565b905082600001516001600160a01b0316638da5cb5b6040518163ffffffff1660e01b815260040160206040518083038186803b15801561297b57600080fd5b505afa15801561298f573d6000803e3d6000fd5b505050506040513d601f19601f820116820180604052506129b39190810190613e76565b6001600160a01b0316336001600160a01b0316146129d057600080fd5b6040808401516000838152600a60205282902055517f145ad51e4496173bca15e24e7eb46f9ab3a10eea0497e2801a3a6806c06113a3906119b990839061493d565b60046020528160005260406000208181548110612a2b57fe5b90600052602060002001600091509150505481565b60008054604051600160e01b6323b872dd0281526001600160a01b03909116906323b872dd90612a78903390309087906004016147e9565b602060405180830381600087803b158015612a9257600080fd5b505af1158015612aa6573d6000803e3d6000fd5b505050506040513d601f19601f82011682018060405250612aca9190810190613f66565b612ad357600080fd5b33600090815260016020526040902054612af3908363ffffffff61353e16565b33600081815260016020526040908190209290925590517fe1fffcc4923d04b559f4d29a8bfc6cda04eb5b0d3c460751c2402c5c5cc9109c91611824918590614811565b612b3f6138fb565b60008281526009602081815260409283902083516102408101855281546001600160a01b039081166101e083019081526001808501548316610200850152600280860154610220860152918452875160608082018a5260038701548516825260048701548516828901526005870154828b01528588019190915288518082018a5260068701548516815260078701548516818901526008870154818b0152858a01529685015496840196909652600a8401546080840152600b84015460a0840152600c840154821660c0840152600d840154821660e0840152600e84015490911661010080840191909152600f840180548851978116159092026000190190911691909104601f810185900485028601850190965285855290949193610120860193909290830182828015612cb55780601f10612c8a57610100808354040283529160200191612cb5565b820191906000526020600020905b815481529060010190602001808311612c9857829003601f168201915b50505050508152602001601082015481526020016011820154815260200160128201548152602001601382015481526020016014820154815250509050919050565b6000806000806000806000806000612d0d6138fb565b60008b81526009602081815260409283902083516102408101855281546001600160a01b039081166101e083019081526001808501548316610200850152600280860154610220860152918452875160608082018a5260038701548516825260048701548516828901526005870154828b01528588019190915288518082018a5260068701548516815260078701548516818901526008870154818b0152858a01529685015496840196909652600a8401546080840152600b84015460a0840152600c840154821660c0840152600d840154821660e0840152600e84015490911661010080840191909152600f840180548851978116159092026000190190911691909104601f810185900485028601850190965285855290949193610120860193909290830182828015612e835780601f10612e5857610100808354040283529160200191612e83565b820191906000526020600020905b815481529060010190602001808311612e6657829003601f168201915b50505050508152602001601082015481526020016011820154815260200160128201548152602001601382015481526020016014820154815250509050806000015160000151816000015160200151826000015160400151836020015160000151846020015160200151856020015160400151866040015160000151876040015160200151886040015160400151995099509950995099509950995099509950509193959799909294969850565b7f6fd493f856b22df174df46975d6dcf0895c7dfb3c63d20179c0dcd5563e2f56581604051611b949190614a24565b60008060008060006060612f726138fb565b60008881526009602081815260409283902083516102408101855281546001600160a01b039081166101e083019081526001808501548316610200850152600280860154610220860152918452875160608082018a5260038701548516825260048701548516828901526005870154828b01528588019190915288518082018a5260068701548516815260078701548516818901526008870154818b0152858a01529685015496840196909652600a8401546080840152600b84015460a0840152600c840154821660c0840152600d840154821660e0840152600e84015490911661010080840191909152600f840180548851978116159092026000190190911691909104601f8101859004850286018501909652858552909491936101208601939092908301828280156130e85780601f106130bd576101008083540402835291602001916130e8565b820191906000526020600020905b8154815290600101906020018083116130cb57829003601f168201915b5050505050815260200160108201548152602001601182015481526020016012820154815260200160138201548152602001601482015481525050905080606001518160a001518260c001518360e001518461010001518561012001518090509650965096509650965096505091939550919395565b6000908152600b602052604090205460ff1690565b6000806000806000806131846138fb565b60008881526009602081815260409283902083516102408101855281546001600160a01b039081166101e083019081526001808501548316610200850152600280860154610220860152918452875160608082018a5260038701548516825260048701548516828901526005870154828b01528588019190915288518082018a5260068701548516815260078701548516818901526008870154818b0152858a01529685015496840196909652600a8401546080840152600b84015460a0840152600c840154821660c0840152600d840154821660e0840152600e84015490911661010080840191909152600f840180548851978116159092026000190190911691909104601f8101859004850286018501909652858552909491936101208601939092908301828280156132fa5780601f106132cf576101008083540402835291602001916132fa565b820191906000526020600020905b8154815290600101906020018083116132dd57829003601f168201915b505050505081526020016010820154815260200160118201548152602001601282015481526020016013820154815260200160148201548152505090508060800151816101400151826101600151836101800151846101a00151856101c001519650965096509650965096505091939550919395565b633b9aca0081565b60056020526000908152604090205481565b6002546001600160a01b031633146133a157600080fd5b60008281526009602052604090206013015461225b908290613577565b6000546001600160a01b031681565b60008060008084516041146133e857600093505050506106b2565b50505060208201516040830151606084015160001a601b81101561340a57601b015b8060ff16601b1415801561342257508060ff16601c14155b1561343357600093505050506106b2565b6001868285856040516000815260200160405260405161345694939291906149d3565b6020604051602081039080840390855afa158015613478573d6000803e3d6000fd5b505050602060405103516001600160a01b0316876001600160a01b03161493505050509392505050565b6000826001600160a01b0316846001600160a01b031614806106af5750836001600160a01b031663d202158d6134d7856137e1565b846040518363ffffffff1660e01b815260040161065f92919061494b565b60008282111561350457600080fd5b50900390565b600081831061351957816106b2565b5090919050565b60008183101561351957816106b2565b60006106b2838360646137ed565b6000828201838110156106b257600080fd5b60008261355f575060006119c5565b8282028284828161356c57fe5b04146106b257600080fd5b6001600160a01b0382166000908152600160205260409020546135a0908263ffffffff6134f516565b6001600160a01b038316600090815260016020819052604090912091825501546135d0908263ffffffff61353e16565b6001600160a01b0383166000908152600160208190526040918290200191909155517f625fed9875dada8643f2418b838ae0bc78d9a148a18eee4ee1979ff0f3f5d4279061362190849084906148f5565b60405180910390a15050565b6001600160a01b0382166000908152600160208190526040909120015461365a908263ffffffff6134f516565b6001600160a01b0383166000908152600160208190526040909120908101919091555461368d908263ffffffff61353e16565b6001600160a01b0383166000908152600160205260409081902091909155517f6381d9813cabeb57471b5a7e05078e64845ccdb563146a6911d536f24ce960f19061362190849084906148f5565b6001600160a01b03831660009081526001602081905260409091200154613708908363ffffffff6134f516565b6001600160a01b0384166000908152600160208190526040918290200191909155517f1bccc549c38561cd5b57f0db11ceb8dde1b0b6ee05ab5e155b51c7c5ba64becb9061375b90859085908590614903565b60405180910390a1505050565b6001600160a01b038316600090815260016020526040902054613791908363ffffffff61353e16565b6001600160a01b0384166000908152600160205260409081902091909155517fc2aca55aa696938c7e95842e8939ca0fbb2120a3eeb8948cdcee2b70da5666729061375b90859085908590614903565b6001600160a01b031690565b60006106af6137fc8585613550565b83600080821161380b57600080fd5b600082848161381657fe5b04949350505050565b6040805161010081018252600080825260208201819052918101829052606081018290526080810182905260a0810182905260c0810182905260e081019190915290565b828054600181600116156101000203166002900490600052602060002090601f016020900481019282601f106138a457805160ff19168380011785556138d1565b828001600101855582156138d1579182015b828111156138d15782518255916020019190600101906138b6565b506138dd9291506139a1565b5090565b604051806040016040528060008152602001600081525090565b604051806102a0016040528061390f6139be565b815260200161391c6139be565b81526020016139296139be565b815260200160008152602001600081526020016000801916815260200160006001600160a01b0316815260200160006001600160a01b0316815260200160006001600160a01b031681526020016060815260200160008152602001600081526020016000815260200160008152602001600081525090565b6139bb91905b808211156138dd57600081556001016139a7565b90565b604080516060810182526000808252602082018190529181019190915290565b80356119c581614b92565b80516119c581614b92565b60008083601f840112613a0657600080fd5b5081356001600160401b03811115613a1d57600080fd5b602083019150836020820283011115613a3557600080fd5b9250929050565b80516119c581614ba9565b80356119c581614bb2565b80516119c581614bb2565b600082601f830112613a6e57600080fd5b8135613a81613a7c82614aee565b614ac8565b91508082526020830160208301858383011115613a9d57600080fd5b613aa8838284614b50565b50505092915050565b60006101208284031215613ac457600080fd5b613acf610120614ac8565b90506000613add84846139de565b8252506020613aee84848301613a47565b6020830152506040613b0284828501613a47565b6040830152506060613b1684828501613a47565b6060830152506080613b2a848285016139de565b60808301525060a0613b3e848285016139de565b60a08301525060c0613b52848285016139de565b60c08301525060e0613b6684828501613a47565b60e0830152506101008201356001600160401b03811115613b8657600080fd5b613b9284828501613a5d565b6101008301525092915050565b60006102008284031215613bb257600080fd5b613bbd610200614ac8565b90506000613bcb84846139de565b8252506020613bdc84848301613a47565b6020830152506040613bf0848285016139de565b6040830152506060613c0484828501613a47565b6060830152506080613c18848285016139de565b60808301525060a0613c2c84828501613a47565b60a08301525060c0613c40848285016139de565b60c08301525060e0613c5484828501613a47565b60e083015250610100613c6984828501613a47565b61010083015250610120613c7f84828501613a47565b61012083015250610140613c9584828501613a47565b61014083015250610160613cab848285016139de565b61016083015250610180613cc1848285016139de565b610180830152506101a08201356001600160401b03811115613ce257600080fd5b613cee84828501613a5d565b6101a0830152506101c0613d0484828501613a47565b6101c0830152506101e08201356001600160401b03811115613d2557600080fd5b613d3184828501613a5d565b6101e08301525092915050565b60006101608284031215613d5157600080fd5b613d5c610160614ac8565b90506000613d6a84846139de565b8252506020613d7b84848301613a47565b6020830152506040613d8f84828501613a47565b6040830152506060613da384828501613a47565b6060830152506080613db784828501613a47565b60808301525060a0613dcb84828501613a47565b60a08301525060c0613ddf848285016139de565b60c08301525060e0613df3848285016139de565b60e083015250610100613e08848285016139de565b61010083015250610120613e1e84828501613a47565b610120830152506101408201356001600160401b03811115613e3f57600080fd5b613e4b84828501613a5d565b6101408301525092915050565b600060208284031215613e6a57600080fd5b600061172c84846139de565b600060208284031215613e8857600080fd5b600061172c84846139e9565b600080600060608486031215613ea957600080fd5b6000613eb586866139de565b9350506020613ec686828701613a47565b92505060408401356001600160401b03811115613ee257600080fd5b613eee86828701613a5d565b9150509250925092565b60008060008060408587031215613f0e57600080fd5b84356001600160401b03811115613f2457600080fd5b613f30878288016139f4565b945094505060208501356001600160401b03811115613f4e57600080fd5b613f5a878288016139f4565b95989497509550505050565b600060208284031215613f7857600080fd5b600061172c8484613a3c565b600060208284031215613f9657600080fd5b600061172c8484613a47565b600060208284031215613fb457600080fd5b600061172c8484613a52565b60008060408385031215613fd357600080fd5b6000613fdf8585613a47565b9250506020613ff0858286016139de565b9150509250929050565b60008060006060848603121561400f57600080fd5b600061401b8686613a47565b935050602061402c868287016139de565b9250506040613eee86828701613a47565b6000806000806080858703121561405357600080fd5b600061405f8787613a47565b9450506020614070878288016139de565b935050604061408187828801613a47565b925050606061409287828801613a47565b91505092959194509250565b600080604083850312156140b157600080fd5b60006140bd8585613a47565b9250506020613ff085828601613a47565b6000806000606084860312156140e357600080fd5b60006140ef8686613a47565b935050602061402c86828701613a47565b60006020828403121561411257600080fd5b81356001600160401b0381111561412857600080fd5b61172c84828501613ab1565b6000806000806080858703121561414a57600080fd5b84356001600160401b0381111561416057600080fd5b61416c87828801613ab1565b94505060208501356001600160401b0381111561418857600080fd5b61419487828801613ab1565b93505060408501356001600160401b038111156141b057600080fd5b6141bc87828801613d3e565b92505060608501356001600160401b038111156141d857600080fd5b61409287828801613b9f565b6000602082840312156141f657600080fd5b81356001600160401b0381111561420c57600080fd5b61172c84828501613b9f565b60006020828403121561422a57600080fd5b81356001600160401b0381111561424057600080fd5b61172c84828501613d3e565b600061425883836142da565b505060200190565b61426981614b3e565b82525050565b61426981614b28565b600061428382614b1b565b61428d8185614b1f565b935061429883614b15565b8060005b838110156142c65781516142b0888261424c565b97506142bb83614b15565b92505060010161429c565b509495945050505050565b61426981614b33565b614269816139bb565b6142696142ef826139bb565b6139bb565b60006142ff82614b1b565b6143098185614b1f565b9350614319818560208601614b5c565b61432281614b88565b9093019392505050565b61426981614b45565b8051604083019061434684826142da565b50602082015161281c60208501826142da565b805160009061012084019061436e858261426f565b50602083015161438160208601826142da565b50604083015161439460408601826142da565b5060608301516143a760608601826142da565b5060808301516143ba608086018261426f565b5060a08301516143cd60a086018261426f565b5060c08301516143e060c086018261426f565b5060e08301516143f360e08601826142da565b5061010083015184820361010086015261440d82826142f4565b95945050505050565b80516000906102a084019061442b85826146a5565b50602083015161443e60608601826146a5565b50604083015161445160c08601826146a5565b5060608301516144656101208601826142da565b5060808301516144796101408601826142da565b5060a083015161448d6101608601826142da565b5060c08301516144a161018086018261426f565b5060e08301516144b56101a086018261426f565b506101008301516144ca6101c086018261426f565b506101208301518482036101e08601526144e482826142f4565b9150506101408301516144fb6102008601826142da565b506101608301516145106102208601826142da565b506101808301516145256102408601826142da565b506101a083015161453a6102608601826142da565b506101c083015161454f6102808601826142da565b509392505050565b805160009061020084019061456c858261426f565b50602083015161457f60208601826142da565b506040830151614592604086018261426f565b5060608301516145a560608601826142da565b5060808301516145b8608086018261426f565b5060a08301516145cb60a08601826142da565b5060c08301516145de60c086018261426f565b5060e08301516145f160e08601826142da565b506101008301516146066101008601826142da565b5061012083015161461b6101208601826142da565b506101408301516146306101408601826142da565b5061016083015161464561016086018261426f565b5061018083015161465a61018086018261426f565b506101a08301518482036101a086015261467482826142f4565b9150506101c083015161468b6101c08601826142da565b506101e08301518482036101e086015261440d82826142f4565b805160608301906146b6848261426f565b5060208201516146c9602085018261426f565b50604082015161281c60408501826142da565b80516000906101608401906146f1858261426f565b50602083015161470460208601826142da565b50604083015161471760408601826142da565b50606083015161472a60608601826142da565b50608083015161473d60808601826142da565b5060a083015161475060a08601826142da565b5060c083015161476360c086018261426f565b5060e083015161477660e086018261426f565b5061010083015161478b61010086018261426f565b506101208301516147a06101208601826142da565b5061014083015184820361014086015261440d82826142f4565b61426981614b38565b60006147cf82856142e3565b6020820191506147df82846142e3565b5060200192915050565b606081016147f78286614260565b614804602083018561426f565b61172c60408301846142da565b6040810161481f8285614260565b6106b260208301846142da565b6060810161483a8286614260565b61484760208301856142da565b61172c604083018461426f565b60608101614862828661426f565b614847602083018561426f565b610120810161487e828c61426f565b61488b602083018b61426f565b614898604083018a6142da565b6148a5606083018961426f565b6148b2608083018861426f565b6148bf60a08301876142da565b6148cc60c083018661426f565b6148d960e083018561426f565b6148e76101008301846142da565b9a9950505050505050505050565b6040810161481f828561426f565b60608101614911828661426f565b61480460208301856142da565b602080825281016106b28184614278565b602081016119c582846142d1565b602081016119c582846142da565b6040810161481f82856142da565b60c0810161496782896142da565b61497460208301886142da565b61498160408301876142da565b61498e60608301866142da565b61499b60808301856142da565b6149a860a08301846142da565b979650505050505050565b604081016149c182856142da565b81810360208301526106af81846142f4565b608081016149e182876142da565b6149ee60208301866147ba565b6149fb60408301856142da565b61440d60608301846142da565b602081016119c5828461432c565b604081016119c58284614335565b602080825281016106b28184614359565b602080825281016106b28184614416565b602080825281016106b28184614557565b602080825281016106b281846146dc565b60c08101614a7682896142da565b614a8360208301886142da565b614a90604083018761426f565b614a9d606083018661426f565b614aaa608083018561426f565b81810360a0830152614abc81846142f4565b98975050505050505050565b6040518181016001600160401b0381118282101715614ae657600080fd5b604052919050565b60006001600160401b03821115614b0457600080fd5b506020601f91909101601f19160190565b60200190565b5190565b90815260200190565b60006119c5826137e1565b151590565b60ff1690565b60006119c5825b60006119c582614b28565b82818337506000910152565b60005b83811015614b77578181015183820152602001614b5f565b8381111561281c5750506000910152565b601f01601f191690565b614b9b81614b28565b8114614ba657600080fd5b50565b614b9b81614b33565b614b9b816139bb56fea265627a7a72305820973fce28723d23d24feb4d56eca47977d39806ab5f0dd27ae20575cd9aada6d76c6578706572696d656e74616cf50037",
  "source": "pragma solidity ^0.5.8;\npragma experimental ABIEncoderV2;\n\nimport \"iexec-solidity/contracts/Libs/SafeMath.sol\";\n\nimport \"./libs/IexecODBLibCore.sol\";\nimport \"./libs/IexecODBLibOrders.sol\";\nimport \"./registries/App.sol\";\nimport \"./registries/Dataset.sol\";\nimport \"./registries/Workerpool.sol\";\nimport \"./Escrow.sol\";\nimport \"./Relay.sol\";\nimport \"./SignatureVerifier.sol\";\nimport \"./IexecHubAccessor.sol\";\n\n/**\n * /!\\ TEMPORARY LEGACY /!\\\n */\nimport \"./IexecClerkABILegacy.sol\";\n\ncontract IexecClerk is Escrow, Relay, IexecHubAccessor, SignatureVerifier, IexecClerkABILegacy\n{\n\tusing SafeMath          for uint256;\n\tusing IexecODBLibOrders for bytes32;\n\tusing IexecODBLibOrders for IexecODBLibOrders.EIP712Domain;\n\tusing IexecODBLibOrders for IexecODBLibOrders.AppOrder;\n\tusing IexecODBLibOrders for IexecODBLibOrders.DatasetOrder;\n\tusing IexecODBLibOrders for IexecODBLibOrders.WorkerpoolOrder;\n\tusing IexecODBLibOrders for IexecODBLibOrders.RequestOrder;\n\n\t/***************************************************************************\n\t *                                Constants                                *\n\t ***************************************************************************/\n\tuint256 public constant WORKERPOOL_STAKE_RATIO = 30;\n\tuint256 public constant KITTY_RATIO            = 10;\n\tuint256 public constant KITTY_MIN              = 1000000000; // TODO: 1RLC ?\n\n\t// For authorizations\n\tuint256 public constant GROUPMEMBER_PURPOSE    = 4;\n\n\t/***************************************************************************\n\t *                            EIP712 signature                             *\n\t ***************************************************************************/\n\tbytes32 public /* immutable */ EIP712DOMAIN_SEPARATOR;\n\n\t/***************************************************************************\n\t *                               Clerk data                                *\n\t ***************************************************************************/\n\tmapping(bytes32 => bytes32[]           ) m_requestdeals;\n\tmapping(bytes32 => IexecODBLibCore.Deal) m_deals;\n\tmapping(bytes32 => uint256             ) m_consumed;\n\tmapping(bytes32 => bool                ) m_presigned;\n\n\t/***************************************************************************\n\t *                                 Events                                  *\n\t ***************************************************************************/\n\tevent OrdersMatched        (bytes32 dealid, bytes32 appHash, bytes32 datasetHash, bytes32 workerpoolHash, bytes32 requestHash, uint256 volume);\n\tevent ClosedAppOrder       (bytes32 appHash);\n\tevent ClosedDatasetOrder   (bytes32 datasetHash);\n\tevent ClosedWorkerpoolOrder(bytes32 workerpoolHash);\n\tevent ClosedRequestOrder   (bytes32 requestHash);\n\tevent SchedulerNotice      (address indexed workerpool, bytes32 dealid);\n\n\t/***************************************************************************\n\t *                               Constructor                               *\n\t ***************************************************************************/\n\tconstructor(\n\t\taddress _token,\n\t\taddress _iexechub,\n\t\tuint256 _chainid)\n\tpublic\n\tEscrow(_token)\n\tIexecHubAccessor(_iexechub)\n\t{\n\t\tEIP712DOMAIN_SEPARATOR = IexecODBLibOrders.EIP712Domain({\n\t\t\tname:              \"iExecODB\"\n\t\t, version:           \"3.0-alpha\"\n\t\t, chainId:           _chainid\n\t\t, verifyingContract: address(this)\n\t\t}).hash();\n\t}\n\n\t/***************************************************************************\n\t *                                Accessor                                 *\n\t ***************************************************************************/\n\tfunction viewRequestDeals(bytes32 _id)\n\texternal view returns (bytes32[] memory requestdeals)\n\t{\n\t\treturn m_requestdeals[_id];\n\t}\n\n\tfunction viewDeal(bytes32 _id)\n\texternal view returns (IexecODBLibCore.Deal memory deal)\n\t{\n\t\treturn m_deals[_id];\n\t}\n\n\tfunction viewConsumed(bytes32 _id)\n\texternal view returns (uint256 consumed)\n\t{\n\t\treturn m_consumed[_id];\n\t}\n\n\tfunction viewPresigned(bytes32 _id)\n\texternal view returns (bool presigned)\n\t{\n\t\treturn m_presigned[_id];\n\t}\n\n\t/***************************************************************************\n\t *                            pre-signing tools                            *\n\t ***************************************************************************/\n\t// should be external\n\tfunction signAppOrder(IexecODBLibOrders.AppOrder memory _apporder)\n\tpublic returns (bool)\n\t{\n\t\trequire(msg.sender == App(_apporder.app).owner());\n\t\tm_presigned[_apporder.hash().toEthTypedStructHash(EIP712DOMAIN_SEPARATOR)] = true;\n\t\treturn true;\n\t}\n\n\t// should be external\n\tfunction signDatasetOrder(IexecODBLibOrders.DatasetOrder memory _datasetorder)\n\tpublic returns (bool)\n\t{\n\t\trequire(msg.sender == Dataset(_datasetorder.dataset).owner());\n\t\tm_presigned[_datasetorder.hash().toEthTypedStructHash(EIP712DOMAIN_SEPARATOR)] = true;\n\t\treturn true;\n\t}\n\n\t// should be external\n\tfunction signWorkerpoolOrder(IexecODBLibOrders.WorkerpoolOrder memory _workerpoolorder)\n\tpublic returns (bool)\n\t{\n\t\trequire(msg.sender == Workerpool(_workerpoolorder.workerpool).owner());\n\t\tm_presigned[_workerpoolorder.hash().toEthTypedStructHash(EIP712DOMAIN_SEPARATOR)] = true;\n\t\treturn true;\n\t}\n\n\t// should be external\n\tfunction signRequestOrder(IexecODBLibOrders.RequestOrder memory _requestorder)\n\tpublic returns (bool)\n\t{\n\t\trequire(msg.sender == _requestorder.requester);\n\t\tm_presigned[_requestorder.hash().toEthTypedStructHash(EIP712DOMAIN_SEPARATOR)] = true;\n\t\treturn true;\n\t}\n\n\t/***************************************************************************\n\t *                              Clerk methods                              *\n\t ***************************************************************************/\n\tstruct Identities\n\t{\n\t\tbytes32 appHash;\n\t\taddress appOwner;\n\t\tbytes32 datasetHash;\n\t\taddress datasetOwner;\n\t\tbytes32 workerpoolHash;\n\t\taddress workerpoolOwner;\n\t\tbytes32 requestHash;\n\t\tbool    hasDataset;\n\t}\n\n\t// should be external\n\tfunction matchOrders(\n\t\tIexecODBLibOrders.AppOrder        memory _apporder,\n\t\tIexecODBLibOrders.DatasetOrder    memory _datasetorder,\n\t\tIexecODBLibOrders.WorkerpoolOrder memory _workerpoolorder,\n\t\tIexecODBLibOrders.RequestOrder    memory _requestorder)\n\tpublic returns (bytes32)\n\t{\n\t\t/**\n\t\t * Check orders compatibility\n\t\t */\n\n\t\t// computation environment & allowed enough funds\n\t\trequire(_requestorder.category           == _workerpoolorder.category       );\n\t\trequire(_requestorder.trust              <= _workerpoolorder.trust          );\n\t\trequire(_requestorder.appmaxprice        >= _apporder.appprice              );\n\t\trequire(_requestorder.datasetmaxprice    >= _datasetorder.datasetprice      );\n\t\trequire(_requestorder.workerpoolmaxprice >= _workerpoolorder.workerpoolprice);\n\t\trequire((_apporder.tag | _datasetorder.tag | _requestorder.tag) & ~_workerpoolorder.tag == 0x0);\n\n\t\t// Check matching and restrictions\n\t\trequire(_requestorder.app     == _apporder.app        );\n\t\trequire(_requestorder.dataset == _datasetorder.dataset);\n\t\trequire(_requestorder.workerpool           == address(0) || checkIdentity(_requestorder.workerpool,           _workerpoolorder.workerpool, GROUPMEMBER_PURPOSE)); // requestorder.workerpool is a restriction\n\t\trequire(_apporder.datasetrestrict          == address(0) || checkIdentity(_apporder.datasetrestrict,          _datasetorder.dataset,       GROUPMEMBER_PURPOSE));\n\t\trequire(_apporder.workerpoolrestrict       == address(0) || checkIdentity(_apporder.workerpoolrestrict,       _workerpoolorder.workerpool, GROUPMEMBER_PURPOSE));\n\t\trequire(_apporder.requesterrestrict        == address(0) || checkIdentity(_apporder.requesterrestrict,        _requestorder.requester,     GROUPMEMBER_PURPOSE));\n\t\trequire(_datasetorder.apprestrict          == address(0) || checkIdentity(_datasetorder.apprestrict,          _apporder.app,               GROUPMEMBER_PURPOSE));\n\t\trequire(_datasetorder.workerpoolrestrict   == address(0) || checkIdentity(_datasetorder.workerpoolrestrict,   _workerpoolorder.workerpool, GROUPMEMBER_PURPOSE));\n\t\trequire(_datasetorder.requesterrestrict    == address(0) || checkIdentity(_datasetorder.requesterrestrict,    _requestorder.requester,     GROUPMEMBER_PURPOSE));\n\t\trequire(_workerpoolorder.apprestrict       == address(0) || checkIdentity(_workerpoolorder.apprestrict,       _apporder.app,               GROUPMEMBER_PURPOSE));\n\t\trequire(_workerpoolorder.datasetrestrict   == address(0) || checkIdentity(_workerpoolorder.datasetrestrict,   _datasetorder.dataset,       GROUPMEMBER_PURPOSE));\n\t\trequire(_workerpoolorder.requesterrestrict == address(0) || checkIdentity(_workerpoolorder.requesterrestrict, _requestorder.requester,     GROUPMEMBER_PURPOSE));\n\n\t\trequire(iexechub.checkResources(_apporder.app, _datasetorder.dataset, _workerpoolorder.workerpool));\n\n\t\t/**\n\t\t * Check orders authenticity\n\t\t */\n\t\tIdentities memory ids;\n\t\tids.hasDataset = _datasetorder.dataset != address(0);\n\n\t\t// app\n\t\tids.appHash  = _apporder.hash().toEthTypedStructHash(EIP712DOMAIN_SEPARATOR);\n\t\tids.appOwner = App(_apporder.app).owner();\n\t\trequire(m_presigned[ids.appHash] || verifySignature(ids.appOwner, ids.appHash, _apporder.sign));\n\n\t\t// dataset\n\t\tif (ids.hasDataset) // only check if dataset is enabled\n\t\t{\n\t\t\tids.datasetHash  = _datasetorder.hash().toEthTypedStructHash(EIP712DOMAIN_SEPARATOR);\n\t\t\tids.datasetOwner = Dataset(_datasetorder.dataset).owner();\n\t\t\trequire(m_presigned[ids.datasetHash] || verifySignature(ids.datasetOwner, ids.datasetHash, _datasetorder.sign));\n\t\t}\n\n\t\t// workerpool\n\t\tids.workerpoolHash  = _workerpoolorder.hash().toEthTypedStructHash(EIP712DOMAIN_SEPARATOR);\n\t\tids.workerpoolOwner = Workerpool(_workerpoolorder.workerpool).owner();\n\t\trequire(m_presigned[ids.workerpoolHash] || verifySignature(ids.workerpoolOwner, ids.workerpoolHash, _workerpoolorder.sign));\n\n\t\t// request\n\t\tids.requestHash = _requestorder.hash().toEthTypedStructHash(EIP712DOMAIN_SEPARATOR);\n\t\trequire(m_presigned[ids.requestHash] || verifySignature(_requestorder.requester, ids.requestHash, _requestorder.sign));\n\n\t\t/**\n\t\t * Check availability\n\t\t */\n\t\tuint256 volume;\n\t\tvolume =                             _apporder.volume.sub       (m_consumed[ids.appHash       ]);\n\t\tvolume = ids.hasDataset ? volume.min(_datasetorder.volume.sub   (m_consumed[ids.datasetHash   ])) : volume;\n\t\tvolume =                  volume.min(_workerpoolorder.volume.sub(m_consumed[ids.workerpoolHash]));\n\t\tvolume =                  volume.min(_requestorder.volume.sub   (m_consumed[ids.requestHash   ]));\n\t\trequire(volume > 0);\n\n\t\t/**\n\t\t * Record\n\t\t */\n\t\tbytes32 dealid = keccak256(abi.encodePacked(\n\t\t\tids.requestHash,            // requestHash\n\t\t\tm_consumed[ids.requestHash] // idx of first subtask\n\t\t));\n\n\t\tIexecODBLibCore.Deal storage deal = m_deals[dealid];\n\t\tdeal.app.pointer          = _apporder.app;\n\t\tdeal.app.owner            = ids.appOwner;\n\t\tdeal.app.price            = _apporder.appprice;\n\t\tdeal.dataset.owner        = ids.datasetOwner;\n\t\tdeal.dataset.pointer      = _datasetorder.dataset;\n\t\tdeal.dataset.price        = ids.hasDataset ? _datasetorder.datasetprice : 0;\n\t\tdeal.workerpool.pointer   = _workerpoolorder.workerpool;\n\t\tdeal.workerpool.owner     = ids.workerpoolOwner;\n\t\tdeal.workerpool.price     = _workerpoolorder.workerpoolprice;\n\t\tdeal.trust                = _requestorder.trust.max(1);\n\t\tdeal.category             = _requestorder.category;\n\t\tdeal.tag                  = _apporder.tag | _datasetorder.tag | _requestorder.tag;\n\t\tdeal.requester            = _requestorder.requester;\n\t\tdeal.beneficiary          = _requestorder.beneficiary;\n\t\tdeal.callback             = _requestorder.callback;\n\t\tdeal.params               = _requestorder.params;\n\t\tdeal.startTime            = now;\n\t\tdeal.botFirst             = m_consumed[ids.requestHash];\n\t\tdeal.botSize              = volume;\n\t\tdeal.workerStake          = _workerpoolorder.workerpoolprice.percentage(Workerpool(_workerpoolorder.workerpool).m_workerStakeRatioPolicy());\n\t\tdeal.schedulerRewardRatio = Workerpool(_workerpoolorder.workerpool).m_schedulerRewardRatioPolicy();\n\n\t\tm_requestdeals[ids.requestHash].push(dealid);\n\n\t\t/**\n\t\t * Update consumed\n\t\t */\n\t\tm_consumed[ids.appHash       ] = m_consumed[ids.appHash       ].add(                 volume    );\n\t\tm_consumed[ids.datasetHash   ] = m_consumed[ids.datasetHash   ].add(ids.hasDataset ? volume : 0);\n\t\tm_consumed[ids.workerpoolHash] = m_consumed[ids.workerpoolHash].add(                 volume    );\n\t\tm_consumed[ids.requestHash   ] = m_consumed[ids.requestHash   ].add(                 volume    );\n\n\t\t/**\n\t\t * Lock\n\t\t */\n\t\tlock(\n\t\t\tdeal.requester,\n\t\t\tdeal.app.price\n\t\t\t.add(deal.dataset.price)\n\t\t\t.add(deal.workerpool.price)\n\t\t\t.mul(volume)\n\t\t);\n\t\tlock(\n\t\t\tdeal.workerpool.owner,\n\t\t\tdeal.workerpool.price\n\t\t\t.percentage(WORKERPOOL_STAKE_RATIO) // ORDER IS IMPORTANT HERE!\n\t\t\t.mul(volume)                        // ORDER IS IMPORTANT HERE!\n\t\t);\n\n\t\t/**\n\t\t * Advertize deal\n\t\t */\n\t\temit SchedulerNotice(deal.workerpool.pointer, dealid);\n\n\t\t/**\n\t\t * Advertize consumption\n\t\t */\n\t\temit OrdersMatched(\n\t\t\tdealid,\n\t\t\tids.appHash,\n\t\t\tids.datasetHash,\n\t\t\tids.workerpoolHash,\n\t\t\tids.requestHash,\n\t\t\tvolume\n\t\t);\n\n\t\treturn dealid;\n\t}\n\n\t// should be external\n\tfunction cancelAppOrder(IexecODBLibOrders.AppOrder memory _apporder)\n\tpublic returns (bool)\n\t{\n\t\tbytes32 dapporderHash = _apporder.hash().toEthTypedStructHash(EIP712DOMAIN_SEPARATOR);\n\t\trequire(msg.sender == App(_apporder.app).owner());\n\t\tm_consumed[dapporderHash] = _apporder.volume;\n\t\temit ClosedAppOrder(dapporderHash);\n\t\treturn true;\n\t}\n\n\t// should be external\n\tfunction cancelDatasetOrder(IexecODBLibOrders.DatasetOrder memory _datasetorder)\n\tpublic returns (bool)\n\t{\n\t\tbytes32 dataorderHash = _datasetorder.hash().toEthTypedStructHash(EIP712DOMAIN_SEPARATOR);\n\t\trequire(msg.sender == Dataset(_datasetorder.dataset).owner());\n\t\tm_consumed[dataorderHash] = _datasetorder.volume;\n\t\temit ClosedDatasetOrder(dataorderHash);\n\t\treturn true;\n\t}\n\n\t// should be external\n\tfunction cancelWorkerpoolOrder(IexecODBLibOrders.WorkerpoolOrder memory _workerpoolorder)\n\tpublic returns (bool)\n\t{\n\t\tbytes32 poolorderHash = _workerpoolorder.hash().toEthTypedStructHash(EIP712DOMAIN_SEPARATOR);\n\t\trequire(msg.sender == Workerpool(_workerpoolorder.workerpool).owner());\n\t\tm_consumed[poolorderHash] = _workerpoolorder.volume;\n\t\temit ClosedWorkerpoolOrder(poolorderHash);\n\t\treturn true;\n\t}\n\n\t// should be external\n\tfunction cancelRequestOrder(IexecODBLibOrders.RequestOrder memory _requestorder)\n\tpublic returns (bool)\n\t{\n\t\tbytes32 requestorderHash = _requestorder.hash().toEthTypedStructHash(EIP712DOMAIN_SEPARATOR);\n\t\trequire(msg.sender == _requestorder.requester);\n\t\tm_consumed[requestorderHash] = _requestorder.volume;\n\t\temit ClosedRequestOrder(requestorderHash);\n\t\treturn true;\n\t}\n\n\t/***************************************************************************\n\t *                    Escrow overhead for contribution                     *\n\t ***************************************************************************/\n\tfunction lockContribution(bytes32 _dealid, address _worker)\n\texternal onlyIexecHub\n\t{\n\t\tlock(_worker, m_deals[_dealid].workerStake);\n\t}\n\n\tfunction unlockContribution(bytes32 _dealid, address _worker)\n\texternal onlyIexecHub\n\t{\n\t\tunlock(_worker, m_deals[_dealid].workerStake);\n\t}\n\n\tfunction unlockAndRewardForContribution(bytes32 _dealid, address _worker, uint256 _amount, bytes32 _taskid)\n\texternal onlyIexecHub\n\t{\n\t\tunlock(_worker, m_deals[_dealid].workerStake);\n\t\treward(_worker, _amount, _taskid);\n\t}\n\n\tfunction seizeContribution(bytes32 _dealid, address _worker, bytes32 _taskid)\n\texternal onlyIexecHub\n\t{\n\t\tseize(_worker, m_deals[_dealid].workerStake, _taskid);\n\t}\n\n\tfunction rewardForScheduling(bytes32 _dealid, uint256 _amount, bytes32 _taskid)\n\texternal onlyIexecHub\n\t{\n\t\treward(m_deals[_dealid].workerpool.owner, _amount, _taskid);\n\t}\n\n\tfunction successWork(bytes32 _dealid, bytes32 _taskid)\n\texternal onlyIexecHub\n\t{\n\t\tIexecODBLibCore.Deal storage deal = m_deals[_dealid];\n\n\t\tuint256 requesterstake = deal.app.price\n\t\t                         .add(deal.dataset.price)\n\t\t                         .add(deal.workerpool.price);\n\t\tuint256 poolstake = deal.workerpool.price\n\t\t                    .percentage(WORKERPOOL_STAKE_RATIO);\n\n\t\t// seize requester funds\n\t\tseize(deal.requester, requesterstake, _taskid);\n\t\t// dapp reward\n\t\tif (deal.app.price > 0)\n\t\t{\n\t\t\treward(deal.app.owner, deal.app.price, _taskid);\n\t\t}\n\t\t// data reward\n\t\tif (deal.dataset.price > 0 && deal.dataset.pointer != address(0))\n\t\t{\n\t\t\treward(deal.dataset.owner, deal.dataset.price, _taskid);\n\t\t}\n\t\t// unlock pool stake\n\t\tunlock(deal.workerpool.owner, poolstake);\n\t\t// pool reward performed by consensus manager\n\n\t\t/**\n\t\t * Retrieve part of the kitty\n\t\t * TODO: remove / keep ?\n\t\t */\n\t\tuint256 kitty = m_accounts[address(0)].locked;\n\t\tif (kitty > 0)\n\t\t{\n\t\t\tkitty = kitty\n\t\t\t        .percentage(KITTY_RATIO) // fraction\n\t\t\t        .max(KITTY_MIN)          // at least this\n\t\t\t        .min(kitty);             // but not more than available\n\t\t\tseize (address(0),            kitty, _taskid);\n\t\t\treward(deal.workerpool.owner, kitty, _taskid);\n\t\t}\n\t}\n\n\tfunction failedWork(bytes32 _dealid, bytes32 _taskid)\n\texternal onlyIexecHub\n\t{\n\t\tIexecODBLibCore.Deal storage deal = m_deals[_dealid];\n\n\t\tuint256 requesterstake = deal.app.price\n\t\t                         .add(deal.dataset.price)\n\t\t                         .add(deal.workerpool.price);\n\t\tuint256 poolstake = deal.workerpool.price\n\t\t                    .percentage(WORKERPOOL_STAKE_RATIO);\n\n\t\tunlock(deal.requester,        requesterstake    );\n\t\tseize (deal.workerpool.owner, poolstake, _taskid);\n\t\treward(address(0),            poolstake, _taskid); //  Kitty / Burn\n\t\tlock  (address(0),            poolstake         ); //  Kitty / Burn\n\t}\n\n\n\n\n\n\n\n\n\n\n\n\n\n\n\n\n\n\n\t/**\n\t * /!\\ TEMPORARY LEGACY /!\\\n\t */\n\n\tfunction viewDealABILegacy_pt1(bytes32 _id)\n\texternal view returns\n\t( address\n\t, address\n\t, uint256\n\t, address\n\t, address\n\t, uint256\n\t, address\n\t, address\n\t, uint256\n\t)\n\t{\n\t\tIexecODBLibCore.Deal memory deal = m_deals[_id];\n\t\treturn (\n\t\t\tdeal.app.pointer,\n\t\t\tdeal.app.owner,\n\t\t\tdeal.app.price,\n\t\t\tdeal.dataset.pointer,\n\t\t\tdeal.dataset.owner,\n\t\t\tdeal.dataset.price,\n\t\t\tdeal.workerpool.pointer,\n\t\t\tdeal.workerpool.owner,\n\t\t\tdeal.workerpool.price\n\t\t);\n\t}\n\n\tfunction viewDealABILegacy_pt2(bytes32 _id)\n\texternal view returns\n\t( uint256\n\t, bytes32\n\t, address\n\t, address\n\t, address\n\t, string memory\n\t)\n\t{\n\t\tIexecODBLibCore.Deal memory deal = m_deals[_id];\n\t\treturn (\n\t\t\tdeal.trust,\n\t\t\tdeal.tag,\n\t\t\tdeal.requester,\n\t\t\tdeal.beneficiary,\n\t\t\tdeal.callback,\n\t\t\tdeal.params\n\t\t);\n\t}\n\n\tfunction viewConfigABILegacy(bytes32 _id)\n\texternal view returns\n\t( uint256\n\t, uint256\n\t, uint256\n\t, uint256\n\t, uint256\n\t, uint256\n\t)\n\t{\n\t\tIexecODBLibCore.Deal memory deal = m_deals[_id];\n\t\treturn (\n\t\t\tdeal.category,\n\t\t\tdeal.startTime,\n\t\t\tdeal.botFirst,\n\t\t\tdeal.botSize,\n\t\t\tdeal.workerStake,\n\t\t\tdeal.schedulerRewardRatio\n\t\t);\n\t}\n\n\tfunction viewAccountABILegacy(address _user)\n\texternal view returns (uint256, uint256)\n\t{\n\t\tIexecODBLibCore.Account memory account = m_accounts[_user];\n\t\treturn ( account.stake, account.locked );\n\t}\n}\n",
  "sourcePath": "/home/amxx/Work/iExec/code/PoCo-dev/contracts/IexecClerk.sol",
  "compiler": {
    "name": "solc",
    "version": "0.5.8+commit.23d335f2.Emscripten.clang"
  },
  "schemaVersion": "3.0.13",
  "updatedAt": "2019-09-03T09:36:51.905Z",
  "devdoc": {
    "methods": {}
  },
  "userdoc": {
    "methods": {
      "constructor": "*************************************************************************                              Constructor                               ***************************************************************************",
      "deposit(uint256)": {
        "notice": "Wallet methods: public"
      },
      "lockContribution(bytes32,address)": {
        "notice": "*************************************************************************                   Escrow overhead for contribution                     ***************************************************************************"
      },
      "signAppOrder((address,uint256,uint256,bytes32,address,address,address,bytes32,bytes))": {
        "notice": "*************************************************************************                           pre-signing tools                            ***************************************************************************"
      },
      "viewAccount(address)": {
        "notice": "Accessor"
      },
      "viewDealABILegacy_pt1(bytes32)": {
        "notice": "/!\\ TEMPORARY LEGACY /!\\"
      },
      "viewRequestDeals(bytes32)": {
        "notice": "*************************************************************************                               Accessor                                 ***************************************************************************"
      }
    }
  }
}