{
  "contractName": "IexecHub",
  "abi": [
    {
      "constant": true,
      "inputs": [],
      "name": "m_contributionHistory",
      "outputs": [
        {
          "name": "success",
          "type": "uint256"
        },
        {
          "name": "failled",
          "type": "uint256"
        }
      ],
      "payable": false,
      "stateMutability": "view",
      "type": "function"
    },
    {
      "constant": true,
      "inputs": [],
      "name": "appHub",
      "outputs": [
        {
          "name": "",
          "type": "address"
        }
      ],
      "payable": false,
      "stateMutability": "view",
      "type": "function"
    },
    {
      "constant": true,
      "inputs": [],
      "name": "STAKE_BONUS_MIN_THRESHOLD",
      "outputs": [
        {
          "name": "",
          "type": "uint256"
        }
      ],
      "payable": false,
      "stateMutability": "view",
      "type": "function"
    },
    {
      "constant": true,
      "inputs": [
        {
          "name": "",
          "type": "address"
        }
      ],
      "name": "m_scores",
      "outputs": [
        {
          "name": "",
          "type": "uint256"
        }
      ],
      "payable": false,
      "stateMutability": "view",
      "type": "function"
    },
    {
      "constant": true,
      "inputs": [],
      "name": "workerPoolHub",
      "outputs": [
        {
          "name": "",
          "type": "address"
        }
      ],
      "payable": false,
      "stateMutability": "view",
      "type": "function"
    },
    {
      "constant": true,
      "inputs": [],
      "name": "SCORE_UNITARY_SLASH",
      "outputs": [
        {
          "name": "",
          "type": "uint256"
        }
      ],
      "payable": false,
      "stateMutability": "view",
      "type": "function"
    },
    {
      "constant": true,
      "inputs": [],
      "name": "STAKE_BONUS_RATIO",
      "outputs": [
        {
          "name": "",
          "type": "uint256"
        }
      ],
      "payable": false,
      "stateMutability": "view",
      "type": "function"
    },
    {
      "constant": true,
      "inputs": [],
      "name": "m_categoriesCount",
      "outputs": [
        {
          "name": "",
          "type": "uint256"
        }
      ],
      "payable": false,
      "stateMutability": "view",
      "type": "function"
    },
    {
      "constant": true,
      "inputs": [],
      "name": "rlc",
      "outputs": [
        {
          "name": "",
          "type": "address"
        }
      ],
      "payable": false,
      "stateMutability": "view",
      "type": "function"
    },
    {
      "constant": true,
      "inputs": [],
      "name": "datasetHub",
      "outputs": [
        {
          "name": "",
          "type": "address"
        }
      ],
      "payable": false,
      "stateMutability": "view",
      "type": "function"
    },
    {
      "constant": true,
      "inputs": [
        {
          "name": "",
          "type": "address"
        }
      ],
      "name": "m_accounts",
      "outputs": [
        {
          "name": "stake",
          "type": "uint256"
        },
        {
          "name": "locked",
          "type": "uint256"
        }
      ],
      "payable": false,
      "stateMutability": "view",
      "type": "function"
    },
    {
      "constant": true,
      "inputs": [],
      "name": "m_owner",
      "outputs": [
        {
          "name": "",
          "type": "address"
        }
      ],
      "payable": false,
      "stateMutability": "view",
      "type": "function"
    },
    {
      "constant": true,
      "inputs": [
        {
          "name": "",
          "type": "uint256"
        }
      ],
      "name": "m_categories",
      "outputs": [
        {
          "name": "name",
          "type": "string"
        },
        {
          "name": "description",
          "type": "string"
        },
        {
          "name": "workClockTimeRef",
          "type": "uint256"
        }
      ],
      "payable": false,
      "stateMutability": "view",
      "type": "function"
    },
    {
      "constant": false,
      "inputs": [
        {
          "name": "_newOwner",
          "type": "address"
        }
      ],
      "name": "transferOwnership",
      "outputs": [],
      "payable": false,
      "stateMutability": "nonpayable",
      "type": "function"
    },
    {
      "inputs": [],
      "payable": false,
      "stateMutability": "nonpayable",
      "type": "constructor"
    },
    {
      "anonymous": false,
      "inputs": [
        {
          "indexed": false,
          "name": "woid",
          "type": "address"
        },
        {
          "indexed": true,
          "name": "workerPool",
          "type": "address"
        }
      ],
      "name": "WorkOrderActivated",
      "type": "event"
    },
    {
      "anonymous": false,
      "inputs": [
        {
          "indexed": false,
          "name": "woid",
          "type": "address"
        },
        {
          "indexed": false,
          "name": "workerPool",
          "type": "address"
        }
      ],
      "name": "WorkOrderClaimed",
      "type": "event"
    },
    {
      "anonymous": false,
      "inputs": [
        {
          "indexed": false,
          "name": "woid",
          "type": "address"
        },
        {
          "indexed": false,
          "name": "workerPool",
          "type": "address"
        }
      ],
      "name": "WorkOrderCompleted",
      "type": "event"
    },
    {
      "anonymous": false,
      "inputs": [
        {
          "indexed": true,
          "name": "appOwner",
          "type": "address"
        },
        {
          "indexed": true,
          "name": "app",
          "type": "address"
        },
        {
          "indexed": false,
          "name": "appName",
          "type": "string"
        },
        {
          "indexed": false,
          "name": "appPrice",
          "type": "uint256"
        },
        {
          "indexed": false,
          "name": "appParams",
          "type": "string"
        }
      ],
      "name": "CreateApp",
      "type": "event"
    },
    {
      "anonymous": false,
      "inputs": [
        {
          "indexed": true,
          "name": "datasetOwner",
          "type": "address"
        },
        {
          "indexed": true,
          "name": "dataset",
          "type": "address"
        },
        {
          "indexed": false,
          "name": "datasetName",
          "type": "string"
        },
        {
          "indexed": false,
          "name": "datasetPrice",
          "type": "uint256"
        },
        {
          "indexed": false,
          "name": "datasetParams",
          "type": "string"
        }
      ],
      "name": "CreateDataset",
      "type": "event"
    },
    {
      "anonymous": false,
      "inputs": [
        {
          "indexed": true,
          "name": "workerPoolOwner",
          "type": "address"
        },
        {
          "indexed": true,
          "name": "workerPool",
          "type": "address"
        },
        {
          "indexed": false,
          "name": "workerPoolDescription",
          "type": "string"
        }
      ],
      "name": "CreateWorkerPool",
      "type": "event"
    },
    {
      "anonymous": false,
      "inputs": [
        {
          "indexed": false,
          "name": "catid",
          "type": "uint256"
        },
        {
          "indexed": false,
          "name": "name",
          "type": "string"
        },
        {
          "indexed": false,
          "name": "description",
          "type": "string"
        },
        {
          "indexed": false,
          "name": "workClockTimeRef",
          "type": "uint256"
        }
      ],
      "name": "CreateCategory",
      "type": "event"
    },
    {
      "anonymous": false,
      "inputs": [
        {
          "indexed": true,
          "name": "workerPool",
          "type": "address"
        },
        {
          "indexed": false,
          "name": "worker",
          "type": "address"
        }
      ],
      "name": "WorkerPoolSubscription",
      "type": "event"
    },
    {
      "anonymous": false,
      "inputs": [
        {
          "indexed": true,
          "name": "workerPool",
          "type": "address"
        },
        {
          "indexed": false,
          "name": "worker",
          "type": "address"
        }
      ],
      "name": "WorkerPoolUnsubscription",
      "type": "event"
    },
    {
      "anonymous": false,
      "inputs": [
        {
          "indexed": true,
          "name": "workerPool",
          "type": "address"
        },
        {
          "indexed": false,
          "name": "worker",
          "type": "address"
        }
      ],
      "name": "WorkerPoolEviction",
      "type": "event"
    },
    {
      "anonymous": false,
      "inputs": [
        {
          "indexed": false,
          "name": "woid",
          "type": "address"
        },
        {
          "indexed": true,
          "name": "worker",
          "type": "address"
        }
      ],
      "name": "AccurateContribution",
      "type": "event"
    },
    {
      "anonymous": false,
      "inputs": [
        {
          "indexed": false,
          "name": "woid",
          "type": "address"
        },
        {
          "indexed": true,
          "name": "worker",
          "type": "address"
        }
      ],
      "name": "FaultyContribution",
      "type": "event"
    },
    {
      "anonymous": false,
      "inputs": [
        {
          "indexed": false,
          "name": "owner",
          "type": "address"
        },
        {
          "indexed": false,
          "name": "amount",
          "type": "uint256"
        }
      ],
      "name": "Deposit",
      "type": "event"
    },
    {
      "anonymous": false,
      "inputs": [
        {
          "indexed": false,
          "name": "owner",
          "type": "address"
        },
        {
          "indexed": false,
          "name": "amount",
          "type": "uint256"
        }
      ],
      "name": "Withdraw",
      "type": "event"
    },
    {
      "anonymous": false,
      "inputs": [
        {
          "indexed": false,
          "name": "user",
          "type": "address"
        },
        {
          "indexed": false,
          "name": "amount",
          "type": "uint256"
        }
      ],
      "name": "Reward",
      "type": "event"
    },
    {
      "anonymous": false,
      "inputs": [
        {
          "indexed": false,
          "name": "user",
          "type": "address"
        },
        {
          "indexed": false,
          "name": "amount",
          "type": "uint256"
        }
      ],
      "name": "Seize",
      "type": "event"
    },
    {
      "anonymous": false,
      "inputs": [
        {
          "indexed": true,
          "name": "previousOwner",
          "type": "address"
        },
        {
          "indexed": true,
          "name": "newOwner",
          "type": "address"
        }
      ],
      "name": "OwnershipTransferred",
      "type": "event"
    },
    {
      "constant": false,
      "inputs": [
        {
          "name": "_tokenAddress",
          "type": "address"
        },
        {
          "name": "_marketplaceAddress",
          "type": "address"
        },
        {
          "name": "_workerPoolHubAddress",
          "type": "address"
        },
        {
          "name": "_appHubAddress",
          "type": "address"
        },
        {
          "name": "_datasetHubAddress",
          "type": "address"
        }
      ],
      "name": "attachContracts",
      "outputs": [],
      "payable": false,
      "stateMutability": "nonpayable",
      "type": "function"
    },
    {
      "constant": false,
      "inputs": [
        {
          "name": "_name",
          "type": "string"
        },
        {
          "name": "_description",
          "type": "string"
        },
        {
          "name": "_workClockTimeRef",
          "type": "uint256"
        }
      ],
      "name": "createCategory",
      "outputs": [
        {
          "name": "catid",
          "type": "uint256"
        }
      ],
      "payable": false,
      "stateMutability": "nonpayable",
      "type": "function"
    },
    {
      "constant": false,
      "inputs": [
        {
          "name": "_description",
          "type": "string"
        },
        {
          "name": "_subscriptionLockStakePolicy",
          "type": "uint256"
        },
        {
          "name": "_subscriptionMinimumStakePolicy",
          "type": "uint256"
        },
        {
          "name": "_subscriptionMinimumScorePolicy",
          "type": "uint256"
        }
      ],
      "name": "createWorkerPool",
      "outputs": [
        {
          "name": "createdWorkerPool",
          "type": "address"
        }
      ],
      "payable": false,
      "stateMutability": "nonpayable",
      "type": "function"
    },
    {
      "constant": false,
      "inputs": [
        {
          "name": "_appName",
          "type": "string"
        },
        {
          "name": "_appPrice",
          "type": "uint256"
        },
        {
          "name": "_appParams",
          "type": "string"
        }
      ],
      "name": "createApp",
      "outputs": [
        {
          "name": "createdApp",
          "type": "address"
        }
      ],
      "payable": false,
      "stateMutability": "nonpayable",
      "type": "function"
    },
    {
      "constant": false,
      "inputs": [
        {
          "name": "_datasetName",
          "type": "string"
        },
        {
          "name": "_datasetPrice",
          "type": "uint256"
        },
        {
          "name": "_datasetParams",
          "type": "string"
        }
      ],
      "name": "createDataset",
      "outputs": [
        {
          "name": "createdDataset",
          "type": "address"
        }
      ],
      "payable": false,
      "stateMutability": "nonpayable",
      "type": "function"
    },
    {
      "constant": false,
      "inputs": [
        {
          "name": "_commonOrder",
          "type": "uint256[3]"
        },
        {
          "name": "_poolOrder_volume",
          "type": "uint256"
        },
        {
          "name": "_poolOrder_workerpool",
          "type": "address"
        },
        {
          "name": "_userOrder",
          "type": "address[5]"
        },
        {
          "name": "_userOrder_params",
          "type": "string"
        },
        {
          "name": "_salt",
          "type": "uint256[2]"
        },
        {
          "name": "_v",
          "type": "uint8[2]"
        },
        {
          "name": "_r",
          "type": "bytes32[2]"
        },
        {
          "name": "_s",
          "type": "bytes32[2]"
        }
      ],
      "name": "marketOrders",
      "outputs": [
        {
          "name": "",
          "type": "address"
        }
      ],
      "payable": false,
      "stateMutability": "nonpayable",
      "type": "function"
    },
    {
      "constant": false,
      "inputs": [
        {
          "name": "_woid",
          "type": "address"
        }
      ],
      "name": "claimFailedConsensus",
      "outputs": [
        {
          "name": "",
          "type": "bool"
        }
      ],
      "payable": false,
      "stateMutability": "nonpayable",
      "type": "function"
    },
    {
      "constant": false,
      "inputs": [
        {
          "name": "_woid",
          "type": "address"
        },
        {
          "name": "_stdout",
          "type": "string"
        },
        {
          "name": "_stderr",
          "type": "string"
        },
        {
          "name": "_uri",
          "type": "string"
        }
      ],
      "name": "finalizeWorkOrder",
      "outputs": [
        {
          "name": "",
          "type": "bool"
        }
      ],
      "payable": false,
      "stateMutability": "nonpayable",
      "type": "function"
    },
    {
      "constant": true,
      "inputs": [
        {
          "name": "_catid",
          "type": "uint256"
        }
      ],
      "name": "existingCategory",
      "outputs": [
        {
          "name": "categoryExist",
          "type": "bool"
        }
      ],
      "payable": false,
      "stateMutability": "view",
      "type": "function"
    },
    {
      "constant": true,
      "inputs": [
        {
          "name": "_catid",
          "type": "uint256"
        }
      ],
      "name": "getCategory",
      "outputs": [
        {
          "name": "name",
          "type": "string"
        },
        {
          "name": "description",
          "type": "string"
        },
        {
          "name": "workClockTimeRef",
          "type": "uint256"
        }
      ],
      "payable": false,
      "stateMutability": "view",
      "type": "function"
    },
    {
      "constant": true,
      "inputs": [
        {
          "name": "_worker",
          "type": "address"
        }
      ],
      "name": "getWorkerStatus",
      "outputs": [
        {
          "name": "workerPool",
          "type": "address"
        },
        {
          "name": "workerScore",
          "type": "uint256"
        }
      ],
      "payable": false,
      "stateMutability": "view",
      "type": "function"
    },
    {
      "constant": true,
      "inputs": [
        {
          "name": "_worker",
          "type": "address"
        }
      ],
      "name": "getWorkerScore",
      "outputs": [
        {
          "name": "workerScore",
          "type": "uint256"
        }
      ],
      "payable": false,
      "stateMutability": "view",
      "type": "function"
    },
    {
      "constant": false,
      "inputs": [
        {
          "name": "_worker",
          "type": "address"
        }
      ],
      "name": "registerToPool",
      "outputs": [
        {
          "name": "subscribed",
          "type": "bool"
        }
      ],
      "payable": false,
      "stateMutability": "nonpayable",
      "type": "function"
    },
    {
      "constant": false,
      "inputs": [
        {
          "name": "_worker",
          "type": "address"
        }
      ],
      "name": "unregisterFromPool",
      "outputs": [
        {
          "name": "unsubscribed",
          "type": "bool"
        }
      ],
      "payable": false,
      "stateMutability": "nonpayable",
      "type": "function"
    },
    {
      "constant": false,
      "inputs": [
        {
          "name": "_worker",
          "type": "address"
        }
      ],
      "name": "evictWorker",
      "outputs": [
        {
          "name": "unsubscribed",
          "type": "bool"
        }
      ],
      "payable": false,
      "stateMutability": "nonpayable",
      "type": "function"
    },
    {
      "constant": false,
      "inputs": [
        {
          "name": "_user",
          "type": "address"
        },
        {
          "name": "_amount",
          "type": "uint256"
        }
      ],
      "name": "lockForOrder",
      "outputs": [
        {
          "name": "",
          "type": "bool"
        }
      ],
      "payable": false,
      "stateMutability": "nonpayable",
      "type": "function"
    },
    {
      "constant": false,
      "inputs": [
        {
          "name": "_user",
          "type": "address"
        },
        {
          "name": "_amount",
          "type": "uint256"
        }
      ],
      "name": "unlockForOrder",
      "outputs": [
        {
          "name": "",
          "type": "bool"
        }
      ],
      "payable": false,
      "stateMutability": "nonpayable",
      "type": "function"
    },
    {
      "constant": false,
      "inputs": [
        {
          "name": "_woid",
          "type": "address"
        },
        {
          "name": "_user",
          "type": "address"
        },
        {
          "name": "_amount",
          "type": "uint256"
        }
      ],
      "name": "lockForWork",
      "outputs": [
        {
          "name": "",
          "type": "bool"
        }
      ],
      "payable": false,
      "stateMutability": "nonpayable",
      "type": "function"
    },
    {
      "constant": false,
      "inputs": [
        {
          "name": "_woid",
          "type": "address"
        },
        {
          "name": "_user",
          "type": "address"
        },
        {
          "name": "_amount",
          "type": "uint256"
        }
      ],
      "name": "unlockForWork",
      "outputs": [
        {
          "name": "",
          "type": "bool"
        }
      ],
      "payable": false,
      "stateMutability": "nonpayable",
      "type": "function"
    },
    {
      "constant": false,
      "inputs": [
        {
          "name": "_woid",
          "type": "address"
        },
        {
          "name": "_worker",
          "type": "address"
        },
        {
          "name": "_amount",
          "type": "uint256"
        },
        {
          "name": "_reputation",
          "type": "bool"
        }
      ],
      "name": "rewardForWork",
      "outputs": [
        {
          "name": "",
          "type": "bool"
        }
      ],
      "payable": false,
      "stateMutability": "nonpayable",
      "type": "function"
    },
    {
      "constant": false,
      "inputs": [
        {
          "name": "_woid",
          "type": "address"
        },
        {
          "name": "_worker",
          "type": "address"
        },
        {
          "name": "_amount",
          "type": "uint256"
        },
        {
          "name": "_reputation",
          "type": "bool"
        }
      ],
      "name": "seizeForWork",
      "outputs": [
        {
          "name": "",
          "type": "bool"
        }
      ],
      "payable": false,
      "stateMutability": "nonpayable",
      "type": "function"
    },
    {
      "constant": false,
      "inputs": [
        {
          "name": "_amount",
          "type": "uint256"
        }
      ],
      "name": "deposit",
      "outputs": [
        {
          "name": "",
          "type": "bool"
        }
      ],
      "payable": false,
      "stateMutability": "nonpayable",
      "type": "function"
    },
    {
      "constant": false,
      "inputs": [
        {
          "name": "_amount",
          "type": "uint256"
        }
      ],
      "name": "withdraw",
      "outputs": [
        {
          "name": "",
          "type": "bool"
        }
      ],
      "payable": false,
      "stateMutability": "nonpayable",
      "type": "function"
    },
    {
      "constant": true,
      "inputs": [
        {
          "name": "_owner",
          "type": "address"
        }
      ],
      "name": "checkBalance",
      "outputs": [
        {
          "name": "stake",
          "type": "uint256"
        },
        {
          "name": "locked",
          "type": "uint256"
        }
      ],
      "payable": false,
      "stateMutability": "view",
      "type": "function"
    }
  ],
  "bytecode": "0x6060604052341561000f57600080fd5b60008054600160a060020a033316600160a060020a031990911617905561439b8061003b6000396000f300606060405260043610620001e55763ffffffff60e060020a6000350416630c91f2d08114620001ea57806310793b50146200022e5780631708d725146200025c578063234a0ee7146200027e578063298503d914620002b05780632e1a7d4d146200035a57806332baa8d9146200037357806339b73122146200038c5780634f73b8e614620003bd5780635f51522614620003d357806366de5a4f14620003f557806369e99b5c14620004205780636b4f686514620004425780636e885bd7146200046d578063747bcd721462000483578063817e83321462000499578063835436b414620004af5780638981d07714620004d15780638986916314620004fc5780638c0f8e11146200051e5780639fdf96251462000540578063a0efe2551462000570578063ac1be4f61462000586578063ac26109e14620005c7578063b017c03614620005ec578063b218cf151462000602578063b6b55f251462000624578063b6b57ebd146200063d578063b7b6e9781462000723578063bc04d77b1462000748578063be02ee6e146200075e578063deff41c11462000780578063e760a11a1462000796578063eeeb2ba014620007d2578063f2fde38b14620008d9578063f3052d2614620008fb578063f69f190c1462000914578063fc06a8771462000958575b600080fd5b3415620001f657600080fd5b6200021a600160a060020a0360043581169060243516604435606435151562000989565b604051901515815260200160405180910390f35b34156200023a57600080fd5b6200024462000acd565b60405191825260208201526040908101905180910390f35b34156200026857600080fd5b6200021a600160a060020a036004351662000ad6565b34156200028a57600080fd5b6200029462000b3f565b604051600160a060020a03909116815260200160405180910390f35b3415620002bc57600080fd5b6200034860046024813581810190830135806020601f8201819004810201604051908101604052818152929190602084018383808284378201915050505050509190803590602001908201803590602001908080601f016020809104026020016040519081016040528181529291906020840183838082843750949650509335935062000b4e92505050565b60405190815260200160405180910390f35b34156200036657600080fd5b6200021a60043562000cda565b34156200037f57600080fd5b6200021a60043562000de5565b34156200039857600080fd5b6200029460246004803582810192908201359181359160443590810191013562000dee565b3415620003c957600080fd5b6200034862000f2c565b3415620003df57600080fd5b62000244600160a060020a036004351662000f32565b34156200040157600080fd5b6200029460246004803582810192910135903560443560643562000f55565b34156200042c57600080fd5b62000348600160a060020a03600435166200105c565b34156200044e57600080fd5b6200021a600160a060020a03600435811690602435166044356200106e565b34156200047957600080fd5b6200029462001108565b34156200048f57600080fd5b6200034862001117565b3415620004a557600080fd5b620003486200111c565b3415620004bb57600080fd5b6200021a600160a060020a036004351662001121565b3415620004dd57600080fd5b6200021a600160a060020a03600435811690602435166044356200118a565b34156200050857600080fd5b6200021a600160a060020a03600435166200120e565b34156200052a57600080fd5b62000348600160a060020a03600435166200170a565b34156200054c57600080fd5b6200021a600160a060020a0360043581169060243516604435606435151562001725565b34156200057c57600080fd5b6200034862001893565b34156200059257600080fd5b620002946004606435608435600160a060020a031660a46101443560248101908501356101646101a46101e461022462001899565b3415620005d357600080fd5b6200021a600160a060020a036004351660243562001be1565b3415620005f857600080fd5b6200029462001c21565b34156200060e57600080fd5b6200021a600160a060020a036004351662001c30565b34156200063057600080fd5b6200021a60043562001eda565b34156200064957600080fd5b6200021a60048035600160a060020a03169060446024803590810190830135806020601f8201819004810201604051908101604052818152929190602084018383808284378201915050505050509190803590602001908201803590602001908080601f01602080910402602001604051908101604052818152929190602084018383808284378201915050505050509190803590602001908201803590602001908080601f01602080910402602001604051908101604052818152929190602084018383808284375094965062001ffa95505050505050565b34156200072f57600080fd5b6200021a600160a060020a036004351660243562002811565b34156200075457600080fd5b620002946200283c565b34156200076a57600080fd5b62000244600160a060020a03600435166200284b565b34156200078c57600080fd5b6200029462002864565b3415620007a257600080fd5b620007d0600160a060020a036004358116906024358116906044358116906064358116906084351662002873565b005b3415620007de57600080fd5b620007eb600435620028f6565b604051808060200180602001848152602001838103835286818151815260200191508051906020019080838360005b83811015620008345780820151838201526020016200081a565b50505050905090810190601f168015620008625780820380516001836020036101000a031916815260200191505b50838103825285818151815260200191508051906020019080838360005b838110156200089a57808201518382015260200162000880565b50505050905090810190601f168015620008c85780820380516001836020036101000a031916815260200191505b509550505050505060405180910390f35b3415620008e557600080fd5b620007d0600160a060020a036004351662002a58565b34156200090757600080fd5b620007eb60043562002af5565b34156200092057600080fd5b62000936600160a060020a036004351662002c8c565b604051600160a060020a03909216825260208201526040908101905180910390f35b34156200096457600080fd5b6200029460246004803582810192908201359181359160443590810191013562002d1b565b600033600160a060020a031685600160a060020a0316630690e5b86040518163ffffffff1660e060020a028152600401602060405180830381600087803b1515620009d357600080fd5b5af11515620009e157600080fd5b50505060405180519050600160a060020a031614151562000a0157600080fd5b62000a0d848462002e59565b151562000a1957600080fd5b811562000ac257600a5462000a3690600163ffffffff62002ef016565b600a55600160a060020a03841660009081526009602052604090205462000a6590600163ffffffff62002ef016565b600160a060020a0385166000818152600960205260409081902092909255907f98b231d22df4a95e9d99b5d3f4d25fab5a821c22d7f517a522731c2892ed453590879051600160a060020a03909116815260200160405180910390a25b506001949350505050565b600a54600b5482565b600062000ae4338362002f0b565b151562000af057600080fd5b33600160a060020a03167f9644170e77fec17243f5fdc3519cba6d2162d1dda59af75508fd9a2005aeb78483604051600160a060020a03909116815260200160405180910390a2506001919050565b600254600160a060020a031681565b60008062000b69600160075462002ef090919063ffffffff16565b6007819055600090815260066020526040902090508085805162000b92929160200190620034ba565b506001810184805162000baa929160200190620034ba565b50600281018390556007547f62bf08360c9d561749c54eaf4f8bf8cb6c8b6f4f40607bcec39a8172e714d25c90868686604051808581526020018060200180602001848152602001838103835286818151815260200191508051906020019080838360005b8381101562000c2957808201518382015260200162000c0f565b50505050905090810190601f16801562000c575780820380516001836020036101000a031916815260200191505b50838103825285818151815260200191508051906020019080838360005b8381101562000c8f57808201518382015260200162000c75565b50505050905090810190601f16801562000cbd5780820380516001836020036101000a031916815260200191505b50965050505050505060405180910390a150506007549392505050565b600160a060020a03331660009081526008602052604081205462000d05908363ffffffff6200306f16565b33600160a060020a038181166000908152600860205260409081902093909355600154169163a9059cbb919085905160e060020a63ffffffff8516028152600160a060020a0390921660048301526024820152604401602060405180830381600087803b151562000d7557600080fd5b5af1151562000d8357600080fd5b50505060405180519050151562000d9957600080fd5b7f884edad9ce6fa2440d8a54cc123490eb96d2768479d49ff9c7366125a94243643383604051600160a060020a03909216825260208201526040908101905180910390a1506001919050565b60075490111590565b6003546000908190600160a060020a03166339b7312288888888886040518663ffffffff1660e060020a0281526004018080602001858152602001806020018381038352888882818152602001925080828437909101848103835285815260200190508585808284378201915050975050505050505050602060405180830381600087803b151562000e7f57600080fd5b5af1151562000e8d57600080fd5b50505060405180519050905080600160a060020a031632600160a060020a03167f49413c774d3fe9c92f6ada69299963d9b4b1c13a1f2a95a019188e2c161ed1438989898989604051602081018490526060808252810185905280604081016080820188888082843790910184810383528581526020019050858580828437820191505097505050505050505060405180910390a39695505050505050565b6103e881565b600160a060020a0316600090815260086020526040902080546001909101549091565b6004546000908190600160a060020a03166366de5a4f88888888886040518663ffffffff1660e060020a0281526004018080602001858152602001848152602001838152602001828103825287878281815260200192508082843782019150509650505050505050602060405180830381600087803b151562000fd757600080fd5b5af1151562000fe557600080fd5b50505060405180519050905080600160a060020a031632600160a060020a03167f3c29f4ff1e741e465a1ad9cc4c0b8e51c046c021ca9e77172d812ae667f566f889896040516020808252810182905280604081018484808284378201915050935050505060405180910390a39695505050505050565b60096020526000908152604090205481565b600033600160a060020a031684600160a060020a0316630690e5b86040518163ffffffff1660e060020a028152600401602060405180830381600087803b1515620010b857600080fd5b5af11515620010c657600080fd5b50505060405180519050600160a060020a0316141515620010e657600080fd5b620010f2838362003082565b1515620010fe57600080fd5b5060019392505050565b600454600160a060020a031681565b603281565b600a81565b60006200112f338362002f0b565b15156200113b57600080fd5b33600160a060020a03167f5580db655b3146ef4d1fdba3305cf74dbc3f29126c7a3832533f84e00d149ee383604051600160a060020a03909116815260200160405180910390a2506001919050565b600033600160a060020a031684600160a060020a0316630690e5b86040518163ffffffff1660e060020a028152600401602060405180830381600087803b1515620011d457600080fd5b5af11515620011e257600080fd5b50505060405180519050600160a060020a03161415156200120257600080fd5b620010f2838362003105565b6000818180808080600160a060020a03338116908716635f44910c6040518163ffffffff1660e060020a028152600401602060405180830381600087803b15156200125857600080fd5b5af115156200126657600080fd5b50505060405180519050600160a060020a03161415156200128657600080fd5b85600160a060020a0316630690e5b86040518163ffffffff1660e060020a028152600401602060405180830381600087803b1515620012c457600080fd5b5af11515620012d257600080fd5b5050506040518051955050600160a060020a03861663e329c4786040518163ffffffff1660e060020a028152600401602060405180830381600087803b15156200131b57600080fd5b5af115156200132957600080fd5b50505060405180519450600190508460048111156200134457fe5b14806200135d575060028460048111156200135b57fe5b145b15156200136957600080fd5b84600160a060020a031663898691638960405160e060020a63ffffffff8416028152600160a060020a039091166004820152602401602060405180830381600087803b1515620013b857600080fd5b5af11515620013c657600080fd5b505050604051805190501515620013dc57600080fd5b85600160a060020a0316634e71d92d6040518163ffffffff1660e060020a028152600401600060405180830381600087803b15156200141a57600080fd5b5af115156200142857600080fd5b50505085600160a060020a03166349e587b66040518163ffffffff1660e060020a028152600401602060405180830381600087803b15156200146957600080fd5b5af115156200147757600080fd5b5050506040518051935050600160a060020a038616632e2a9ca16040518163ffffffff1660e060020a028152600401602060405180830381600087803b1515620014c057600080fd5b5af11515620014ce57600080fd5b5050506040518051600554909350620015449150600160a060020a0316636b14ea366040518163ffffffff1660e060020a028152600401602060405180830381600087803b15156200151f57600080fd5b5af115156200152d57600080fd5b505050604051805185915063ffffffff6200318a16565b90506200160d86600160a060020a0316635f44910c6040518163ffffffff1660e060020a028152600401602060405180830381600087803b15156200158857600080fd5b5af115156200159657600080fd5b505050604051805190506200160788600160a060020a031663d72769ac6040518163ffffffff1660e060020a028152600401602060405180830381600087803b1515620015e257600080fd5b5af11515620015f057600080fd5b505050604051805187915063ffffffff62002ef016565b62003082565b15156200161957600080fd5b620016258282620031a1565b15156200163157600080fd5b6200163d308262002e59565b15156200164957600080fd5b62001655308262003105565b15156200166157600080fd5b7fb3cae8ec1c2754530963fb2e254826aae88dda74178f1a0c5656776941e604b88887600160a060020a0316630690e5b86040518163ffffffff1660e060020a028152600401602060405180830381600087803b1515620016c157600080fd5b5af11515620016cf57600080fd5b50505060405180519050604051600160a060020a039283168152911660208201526040908101905180910390a1506001979650505050505050565b600160a060020a031660009081526009602052604090205490565b600033600160a060020a031685600160a060020a0316630690e5b86040518163ffffffff1660e060020a028152600401602060405180830381600087803b15156200176f57600080fd5b5af115156200177d57600080fd5b50505060405180519050600160a060020a03161415156200179d57600080fd5b620017a98484620031a1565b1515620017b557600080fd5b811562000ac257600b54620017d290600163ffffffff62002ef016565b600b55600160a060020a0384166000908152600960205260409020546200182c906200180690603263ffffffff6200323e16565b600160a060020a0386166000908152600960205260409020549063ffffffff6200306f16565b600160a060020a0385166000818152600960205260409081902092909255907fd21e70eb7104cb6f403402b79fe1c088dc56b69ecb7474ae68a3e861a5a6d49990879051600160a060020a03909116815260200160405180910390a2506001949350505050565b60075481565b60045460009081908190600160a060020a03166368c197dd8c60405160e060020a63ffffffff8416028152600160a060020a039091166004820152602401602060405180830381600087803b1515620018f157600080fd5b5af11515620018ff57600080fd5b5050506040518051905015156200191557600080fd5b600554600160a060020a031663493cd64b8e8e8e8e8e8e8e8e8e8e60405160e060020a63ffffffff8d16028152600401808b6060808284379091018b8152600160a060020a038b16602082015260400190508860a080828437909101905060208101866040808284379091019050856040808284379091019050846040808284379091019050836040808284379091018381038352888152602001905088888082843782019150509b505050505050505050505050602060405180830381600087803b1515620019e457600080fd5b5af11515620019f257600080fd5b50505060405180519050151562001a0857600080fd5b62001a38600160a060020a0360808c01358116908d908d35168d60026020020135600160a060020a031662003256565b91508c8b8c600160a060020a031663deff41c16040518163ffffffff1660e060020a028152600401602060405180830381600087803b151562001a7a57600080fd5b5af1151562001a8857600080fd5b505050604051805190508c8c8c8762001aa06200353f565b8088606080828437600160a060020a038a81169390910192835288166020830152506040018560a0808284378201915050806020018381526020018281038252858582818152602001925080828437820191505098505050505050505050604051809103906000f080151562001b1557600080fd5b90508a600160a060020a03166390108dc48260405160e060020a63ffffffff8416028152600160a060020a039091166004820152602401602060405180830381600087803b151562001b6657600080fd5b5af1151562001b7457600080fd5b50505060405180519050151562001b8a57600080fd5b8a600160a060020a03167f359f2105b31d71ee8e2315c3dc3427b3f7297dcc85dd3883d4554e67f1f22d0082604051600160a060020a03909116815260200160405180910390a29c9b505050505050505050505050565b60055460009033600160a060020a0390811691161462001c0057600080fd5b62001c0c838362003105565b151562001c1857600080fd5b50600192915050565b600154600160a060020a031681565b6004546000903390600160a060020a03166368c197dd8260405160e060020a63ffffffff8416028152600160a060020a039091166004820152602401602060405180830381600087803b151562001c8657600080fd5b5af1151562001c9457600080fd5b50505060405180519050151562001caa57600080fd5b62001d0b8382600160a060020a031663e2d36ef56040518163ffffffff1660e060020a028152600401602060405180830381600087803b151562001ced57600080fd5b5af1151562001cfb57600080fd5b5050506040518051905062003105565b151562001d1757600080fd5b80600160a060020a0316636ab6936a6040518163ffffffff1660e060020a028152600401602060405180830381600087803b151562001d5557600080fd5b5af1151562001d6357600080fd5b5050506040518051600160a060020a0385166000908152600860205260409020541015905062001d9257600080fd5b80600160a060020a031663cc6f06a36040518163ffffffff1660e060020a028152600401602060405180830381600087803b151562001dd057600080fd5b5af1151562001dde57600080fd5b5050506040518051600160a060020a0385166000908152600960205260409020541015905062001e0d57600080fd5b600454600160a060020a0316631884c517338560405160e060020a63ffffffff8516028152600160a060020a03928316600482015291166024820152604401602060405180830381600087803b151562001e6657600080fd5b5af1151562001e7457600080fd5b50505060405180519050151562001e8a57600080fd5b33600160a060020a03167fd3548f8b6a2a11c4a35ef5a16dbf7142c9db5163c7d46e7f66482664277cff0784604051600160a060020a03909116815260200160405180910390a250600192915050565b600154600090600160a060020a03166323b872dd33308560405160e060020a63ffffffff8616028152600160a060020a0393841660048201529190921660248201526044810191909152606401602060405180830381600087803b151562001f4157600080fd5b5af1151562001f4f57600080fd5b50505060405180519050151562001f6557600080fd5b600160a060020a03331660009081526008602052604090205462001f90908363ffffffff62002ef016565b33600160a060020a03811660009081526008602052604090819020929092557fe1fffcc4923d04b559f4d29a8bfc6cda04eb5b0d3c460751c2402c5c5cc9109c91849051600160a060020a03909216825260208201526040908101905180910390a1506001919050565b600084818080808080808080600160a060020a03338116908b16630690e5b86040518163ffffffff1660e060020a028152600401602060405180830381600087803b15156200204857600080fd5b5af115156200205657600080fd5b50505060405180519050600160a060020a03161415156200207657600080fd5b60028a600160a060020a031663e329c4786040518163ffffffff1660e060020a028152600401602060405180830381600087803b1515620020b657600080fd5b5af11515620020c457600080fd5b505050604051805190506004811115620020da57fe5b14620020e557600080fd5b89600160a060020a0316636946f6926040518163ffffffff1660e060020a028152600401602060405180830381600087803b15156200212357600080fd5b5af115156200213157600080fd5b5050506040518051995050600160a060020a0389166326137e6b6040518163ffffffff1660e060020a028152600401602060405180830381600087803b15156200217a57600080fd5b5af115156200218857600080fd5b505050604051805198505060008811156200220a57620021fe89600160a060020a031663deff41c16040518163ffffffff1660e060020a028152600401602060405180830381600087803b1515620021df57600080fd5b5af11515620021ed57600080fd5b505050604051805190508962002e59565b15156200220a57600080fd5b89600160a060020a03166371a599ca6040518163ffffffff1660e060020a028152600401602060405180830381600087803b15156200224857600080fd5b5af115156200225657600080fd5b5050506040518051975050600160a060020a038716156200233f5786600160a060020a03166362d598eb6040518163ffffffff1660e060020a028152600401602060405180830381600087803b1515620022af57600080fd5b5af11515620022bd57600080fd5b505050604051805196505060008611156200233f576200233387600160a060020a031663deff41c16040518163ffffffff1660e060020a028152600401602060405180830381600087803b15156200231457600080fd5b5af115156200232257600080fd5b505050604051805190508762002e59565b15156200233f57600080fd5b89600160a060020a03166349e587b66040518163ffffffff1660e060020a028152600401602060405180830381600087803b15156200237d57600080fd5b5af115156200238b57600080fd5b5050506040518051955050600160a060020a038a16632e2a9ca16040518163ffffffff1660e060020a028152600401602060405180830381600087803b1515620023d457600080fd5b5af11515620023e257600080fd5b5050506040518051600554909550620024589150600160a060020a0316636b14ea366040518163ffffffff1660e060020a028152600401602060405180830381600087803b15156200243357600080fd5b5af115156200244157600080fd5b505050604051805187915063ffffffff6200318a16565b9250620025218a600160a060020a0316635f44910c6040518163ffffffff1660e060020a028152600401602060405180830381600087803b15156200249c57600080fd5b5af11515620024aa57600080fd5b505050604051805190506200251b8c600160a060020a031663d72769ac6040518163ffffffff1660e060020a028152600401602060405180830381600087803b1515620024f657600080fd5b5af115156200250457600080fd5b505050604051805189915063ffffffff62002ef016565b620031a1565b15156200252d57600080fd5b62002539848462003082565b15156200254557600080fd5b89600160a060020a031663d5fdfdbc8f8f8f6040518463ffffffff1660e060020a02815260040180806020018060200180602001848103845287818151815260200191508051906020019080838360005b83811015620025b057808201518382015260200162002596565b50505050905090810190601f168015620025de5780820380516001836020036101000a031916815260200191505b50848103835286818151815260200191508051906020019080838360005b8381101562002616578082015183820152602001620025fc565b50505050905090810190601f168015620026445780820380516001836020036101000a031916815260200191505b50848103825285818151815260200191508051906020019080838360005b838110156200267c57808201518382015260200162002662565b50505050905090810190601f168015620026aa5780820380516001836020036101000a031916815260200191505b509650505050505050600060405180830381600087803b1515620026cd57600080fd5b5af11515620026db57600080fd5b505050620026e93062000f32565b925050600082111562002761576200272f620027216103e86200271485600a63ffffffff6200318a16565b9063ffffffff6200344016565b839063ffffffff6200323e16565b90506200273d3082620031a1565b15156200274957600080fd5b62002755848262002e59565b15156200276157600080fd5b7fed236d0a24cb7a32c76960696e44bac711b80ef76780688405dc96c2495b75f98f8b600160a060020a0316630690e5b86040518163ffffffff1660e060020a028152600401602060405180830381600087803b1515620027c157600080fd5b5af11515620027cf57600080fd5b50505060405180519050604051600160a060020a039283168152911660208201526040908101905180910390a15060019e9d5050505050505050505050505050565b60055460009033600160a060020a039081169116146200283057600080fd5b62001c0c838362003082565b600354600160a060020a031681565b6008602052600090815260409020805460019091015482565b600054600160a060020a031681565b600154600160a060020a0316156200288a57600080fd5b6001805473ffffffffffffffffffffffffffffffffffffffff19908116600160a060020a03978816179091556005805482169587169590951790945560048054851693861693909317909255600280548416918516919091179055600380549092169216919091179055565b6006602052806000526040600020600091509050806000018054600181600116156101000203166002900480601f016020809104026020016040519081016040528092919081815260200182805460018160011615610100020316600290048015620029a65780601f106200297a57610100808354040283529160200191620029a6565b820191906000526020600020905b8154815290600101906020018083116200298857829003601f168201915b505050505090806001018054600181600116156101000203166002900480601f01602080910402602001604051908101604052809291908181526020018280546001816001161561010002031660029004801562002a485780601f1062002a1c5761010080835404028352916020019162002a48565b820191906000526020600020905b81548152906001019060200180831162002a2a57829003601f168201915b5050505050908060020154905083565b60005433600160a060020a0390811691161462002a7457600080fd5b600160a060020a038116151562002a8a57600080fd5b600054600160a060020a0380831691167f8be0079c531659141344cd1fd0a4f28419497f9722a3daafe3b4186f6b6457e060405160405180910390a36000805473ffffffffffffffffffffffffffffffffffffffff1916600160a060020a0392909216919091179055565b62002aff62003550565b62002b0962003550565b600062002b168462000de5565b151562002b2257600080fd5b6000848152600660209081526040918290206002808201548254929460018087019592948794918116156101000260001901160491601f83018190048102019051908101604052809291908181526020018280546001816001161561010002031660029004801562002bd85780601f1062002bac5761010080835404028352916020019162002bd8565b820191906000526020600020905b81548152906001019060200180831162002bba57829003601f168201915b50505050509250818054600181600116156101000203166002900480601f01602080910402602001604051908101604052809291908181526020018280546001816001161561010002031660029004801562002c785780601f1062002c4c5761010080835404028352916020019162002c78565b820191906000526020600020905b81548152906001019060200180831162002c5a57829003601f168201915b505050505091509250925092509193909250565b6004546000908190600160a060020a031663d440c6f38460405160e060020a63ffffffff8416028152600160a060020a039091166004820152602401602060405180830381600087803b151562002ce257600080fd5b5af1151562002cf057600080fd5b5050506040518051600160a060020a0394909416600090815260096020526040902054939492505050565b6002546000908190600160a060020a031663fc06a87788888888886040518663ffffffff1660e060020a0281526004018080602001858152602001806020018381038352888882818152602001925080828437909101848103835285815260200190508585808284378201915050975050505050505050602060405180830381600087803b151562002dac57600080fd5b5af1151562002dba57600080fd5b50505060405180519050905080600160a060020a031632600160a060020a03167f03d3b6187bbe7d21aa3cf229e292ba41fa8bca6ec2128c0f1625178b8191cdc28989898989604051602081018490526060808252810185905280604081016080820188888082843790910184810383528581526020019050858580828437820191505097505050505050505060405180910390a39695505050505050565b600160a060020a03821660009081526008602052604081205462002e84908363ffffffff62002ef016565b600160a060020a03841660009081526008602052604090819020919091557f619caafabdd75649b302ba8419e48cccf64f37f1983ac4727cfb38b57703ffc9908490849051600160a060020a03909216825260208201526040908101905180910390a150600192915050565b60008282018381101562002f0057fe5b8091505b5092915050565b6004546000908390600160a060020a03166368c197dd8260405160e060020a63ffffffff8416028152600160a060020a039091166004820152602401602060405180830381600087803b151562002f6157600080fd5b5af1151562002f6f57600080fd5b50505060405180519050151562002f8557600080fd5b62002fe68382600160a060020a031663e2d36ef56040518163ffffffff1660e060020a028152600401602060405180830381600087803b151562002fc857600080fd5b5af1151562002fd657600080fd5b5050506040518051905062003082565b151562002ff257600080fd5b600454600160a060020a0316630b00de8d858560405160e060020a63ffffffff8516028152600160a060020a03928316600482015291166024820152604401602060405180830381600087803b15156200304b57600080fd5b5af115156200305957600080fd5b505050604051805190501515620010fe57600080fd5b6000828211156200307c57fe5b50900390565b600160a060020a038216600090815260086020526040812060010154620030b0908363ffffffff6200306f16565b600160a060020a0384166000908152600860205260409020600181019190915554620030e3908363ffffffff62002ef016565b600160a060020a03841660009081526008602052604090205550600192915050565b600160a060020a03821660009081526008602052604081205462003130908363ffffffff6200306f16565b600160a060020a03841660009081526008602052604090209081556001015462003161908363ffffffff62002ef016565b600160a060020a0384166000908152600860205260409020600190810191909155905092915050565b60006200319a8383606462003452565b9392505050565b600160a060020a038216600090815260086020526040812060010154620031cf908363ffffffff6200306f16565b600160a060020a03841660009081526008602052604090819020600101919091557f4051ba94e08bb094159fc38391422b4b8ccfd2b1f8919c0eb37bb042d4b9cd8e908490849051600160a060020a03909216825260208201526040908101905180910390a150600192915050565b60008183106200324f57816200319a565b5090919050565b600254600090839082908190600160a060020a0316638403be918460405160e060020a63ffffffff8416028152600160a060020a039091166004820152602401602060405180830381600087803b1515620032b057600080fd5b5af11515620032be57600080fd5b505050604051805190501515620032d457600080fd5b82600160a060020a03166326137e6b6040518163ffffffff1660e060020a028152600401602060405180830381600087803b15156200331257600080fd5b5af115156200332057600080fd5b5050506040518051925050600160a060020a038516156200341d57506003548490600160a060020a03166316265b4e8260405160e060020a63ffffffff8416028152600160a060020a039091166004820152602401602060405180830381600087803b15156200338f57600080fd5b5af115156200339d57600080fd5b505050604051805190501515620033b357600080fd5b6200341a81600160a060020a03166362d598eb6040518163ffffffff1660e060020a028152600401602060405180830381600087803b1515620033f557600080fd5b5af115156200340357600080fd5b505050604051805184915063ffffffff62002ef016565b91505b62003429888362003105565b15156200343557600080fd5b509695505050505050565b6000818310156200324f57816200319a565b60006200346b62003464858562003473565b83620034a2565b949350505050565b60008083151562003488576000915062002f04565b508282028284828115156200349957fe5b041462002f0057fe5b6000808284811515620034b157fe5b04949350505050565b828054600181600116156101000203166002900490600052602060002090601f016020900481019282601f10620034fd57805160ff19168380011785556200352d565b828001600101855582156200352d579182015b828111156200352d57825182559160200191906001019062003510565b506200353b92915062003562565b5090565b604051610ded806200358383390190565b60206040519081016040526000815290565b6200357f91905b808211156200353b576000815560010162003569565b9056006060604052341561000f57600080fd5b604051610ded380380610ded83398101604052806060810180519190602001805191602082019160c001805182019190602001805160108054600160a060020a03191633600160a060020a03161790556000805460ff191660011790559150869050516001556020860151600255604086015160035560048054600160a060020a03878116600160a060020a0319928316179092556005805492871692909116919091179055825160068054600160a060020a031916600160a060020a0392909216919091179055826001602002015160078054600160a060020a031916600160a060020a0392909216919091179055826002602002015160088054600160a060020a031916600160a060020a0392909216919091179055826003602002015160098054600160a060020a031916600160a060020a03929092169190911790558260046020020151600a8054600160a060020a031916600160a060020a0392909216919091179055600b82805161018a929160200190610199565b50600c55506102349350505050565b828054600181600116156101000203166002900490600052602060002090601f016020900481019282601f106101da57805160ff1916838001178555610207565b82800160010185558215610207579182015b828111156102075782518255916020019190600101906101ec565b50610213929150610217565b5090565b61023191905b80821115610213576000815560010161021d565b90565b610baa806102436000396000f30060606040526004361061011c5763ffffffff7c01000000000000000000000000000000000000000000000000000000006000350416630690e5b88114610121578063143c43ce1461015057806315298c77146101755780631a514d97146101ff5780632d4d671f146102265780632e2a9ca114610239578063428da35d1461024c57806349e587b61461025f5780634e71d92d146102725780635f44910c146102875780636946f6921461029a57806371a599ca146102ad5780639c4a8561146102c0578063cc3a2dfa146102d3578063d3a69e01146102e6578063d5fdfdbc146102f9578063d72769ac146103ce578063da1fea28146103e1578063e329c478146103f4578063f3859f571461042b578063f6a5b13e1461043e575b600080fd5b341561012c57600080fd5b610134610451565b604051600160a060020a03909116815260200160405180910390f35b341561015b57600080fd5b610163610460565b60405190815260200160405180910390f35b341561018057600080fd5b610188610466565b60405160208082528190810183818151815260200191508051906020019080838360005b838110156101c45780820151838201526020016101ac565b50505050905090810190601f1680156101f15780820380516001836020036101000a031916815260200191505b509250505060405180910390f35b341561020a57600080fd5b610212610504565b604051901515815260200160405180910390f35b341561023157600080fd5b61021261057f565b341561024457600080fd5b6101346105f9565b341561025757600080fd5b610163610608565b341561026a57600080fd5b61016361060e565b341561027d57600080fd5b610285610614565b005b341561029257600080fd5b6101346106a4565b34156102a557600080fd5b6101346106b3565b34156102b857600080fd5b6101346106c2565b34156102cb57600080fd5b6101886106d1565b34156102de57600080fd5b61018861073c565b34156102f157600080fd5b6101346107a7565b341561030457600080fd5b61028560046024813581810190830135806020601f8201819004810201604051908101604052818152929190602084018383808284378201915050505050509190803590602001908201803590602001908080601f01602080910402602001604051908101604052818152929190602084018383808284378201915050505050509190803590602001908201803590602001908080601f0160208091040260200160405190810160405281815292919060208401838380828437509496506107b695505050505050565b34156103d957600080fd5b610163610a4e565b34156103ec57600080fd5b610134610a54565b34156103ff57600080fd5b610407610a63565b6040518082600481111561041757fe5b60ff16815260200191505060405180910390f35b341561043657600080fd5b610188610a6c565b341561044957600080fd5b610134610ad7565b600454600160a060020a031681565b60015481565b600b8054600181600116156101000203166002900480601f0160208091040260200160405190810160405280929190818152602001828054600181600116156101000203166002900480156104fc5780601f106104d1576101008083540402835291602001916104fc565b820191906000526020600020905b8154815290600101906020018083116104df57829003601f168201915b505050505081565b60045460009033600160a060020a0390811691161461052257600080fd5b600260005460ff16600481111561053557fe5b1461053f57600080fd5b6000805460ff191660011790557f06c42818c4ab74dff6aec55942f601c2e9b7f2aa4321ee71690b125eacfe465460405160405180910390a15060015b90565b60045460009033600160a060020a0390811691161461059d57600080fd5b600160005460ff1660048111156105b057fe5b146105ba57600080fd5b6000805460ff191660021790557f2b0cab0be6d82b2661b3b789c540ec9c7223aac635ac8e59a1e71e1137f2dd7760405160405180910390a150600190565b600554600160a060020a031681565b60025481565b60035481565b60105433600160a060020a0390811691161461062f57600080fd5b600160005460ff16600481111561064257fe5b148061065e5750600260005460ff16600481111561065c57fe5b145b151561066957600080fd5b6000805460ff191660031790557f1938697ee29e363ecda49e464c6d2aae25f0974bd1f2c81a91c21e13ad8dbf7760405160405180910390a1565b600a54600160a060020a031681565b600654600160a060020a031681565b600754600160a060020a031681565b600f8054600181600116156101000203166002900480601f0160208091040260200160405190810160405280929190818152602001828054600181600116156101000203166002900480156104fc5780601f106104d1576101008083540402835291602001916104fc565b600d8054600181600116156101000203166002900480601f0160208091040260200160405190810160405280929190818152602001828054600181600116156101000203166002900480156104fc5780601f106104d1576101008083540402835291602001916104fc565b601054600160a060020a031681565b60105433600160a060020a039081169116146107d157600080fd5b600260005460ff1660048111156107e457fe5b146107ee57600080fd5b6000805460ff19166004179055600d83805161080e929160200190610ae6565b50600e828051610822929160200190610ae6565b50600f818051610836929160200190610ae6565b50600854600160a060020a031615610a1d57600854600160a060020a031663514d7067308585856040518563ffffffff167c01000000000000000000000000000000000000000000000000000000000281526004018085600160a060020a0316600160a060020a03168152602001806020018060200180602001848103845287818151815260200191508051906020019080838360005b838110156108e55780820151838201526020016108cd565b50505050905090810190601f1680156109125780820380516001836020036101000a031916815260200191505b50848103835286818151815260200191508051906020019080838360005b83811015610948578082015183820152602001610930565b50505050905090810190601f1680156109755780820380516001836020036101000a031916815260200191505b50848103825285818151815260200191508051906020019080838360005b838110156109ab578082015183820152602001610993565b50505050905090810190601f1680156109d85780820380516001836020036101000a031916815260200191505b50975050505050505050602060405180830381600087803b15156109fb57600080fd5b5af11515610a0857600080fd5b505050604051805190501515610a1d57600080fd5b7f777f59509d985349c80271b657d2649b218bc6f075a4625821b64448cc235b8660405160405180910390a1505050565b600c5481565b600854600160a060020a031681565b60005460ff1681565b600e8054600181600116156101000203166002900480601f0160208091040260200160405190810160405280929190818152602001828054600181600116156101000203166002900480156104fc5780601f106104d1576101008083540402835291602001916104fc565b600954600160a060020a031681565b828054600181600116156101000203166002900490600052602060002090601f016020900481019282601f10610b2757805160ff1916838001178555610b54565b82800160010185558215610b54579182015b82811115610b54578251825591602001919060010190610b39565b50610b60929150610b64565b5090565b61057c91905b80821115610b605760008155600101610b6a5600a165627a7a72305820acd923af55e39c22216c6c1499736208eaabddf3f7241a912bffc396af4505410029a165627a7a72305820c567d56fa87a743accf312f8ca9aa8d66c3b064197be4f802dc500b50def459d0029",
  "source": "pragma solidity ^0.4.21;\n\nimport \"rlc-token/contracts/RLC.sol\";\n\nimport './WorkOrder.sol';\nimport './Marketplace.sol';\nimport './AppHub.sol';\nimport './DatasetHub.sol';\nimport './WorkerPoolHub.sol';\nimport \"./SafeMathOZ.sol\";\nimport './IexecLib.sol';\n\n\n/**\n * @title IexecHub\n */\n\ncontract IexecHub is OwnableOZ\n{\n\tusing SafeMathOZ for uint256;\n\n\t/**\n\t* RLC contract for token transfers.\n\t*/\n\tRLC public rlc;\n\n\tuint256 public constant STAKE_BONUS_RATIO         = 10;\n\tuint256 public constant STAKE_BONUS_MIN_THRESHOLD = 1000;\n\tuint256 public constant SCORE_UNITARY_SLASH       = 50;\n\n\t/**\n\t * Slaves contracts\n\t */\n\tAppHub        public appHub;\n\tDatasetHub    public datasetHub;\n\tWorkerPoolHub public workerPoolHub;\n\n\t/**\n\t * Market place\n\t */\n\tMarketplace marketplace;\n\tmodifier onlyMarketplace()\n\t{\n\t\trequire(msg.sender == address(marketplace));\n\t\t_;\n\t}\n\t/**\n\t * Categories\n\t */\n\tmapping(uint256 => IexecLib.Category) public m_categories;\n\tuint256                               public m_categoriesCount;\n\n\t/**\n\t * Escrow\n\t */\n\tmapping(address => IexecLib.Account) public m_accounts;\n\n\t/**\n\t * Reputation for PoCo\n\t */\n\tmapping(address => uint256)  public m_scores;\n\tIexecLib.ContributionHistory public m_contributionHistory;\n\n\n\n\n\tevent WorkOrderActivated(address woid, address indexed workerPool);\n\tevent WorkOrderClaimed  (address woid, address workerPool);\n\tevent WorkOrderCompleted(address woid, address workerPool);\n\n\tevent CreateApp       (address indexed appOwner,        address indexed app,        string appName,     uint256 appPrice,     string appParams    );\n\tevent CreateDataset   (address indexed datasetOwner,    address indexed dataset,    string datasetName, uint256 datasetPrice, string datasetParams);\n\tevent CreateWorkerPool(address indexed workerPoolOwner, address indexed workerPool, string workerPoolDescription                                  );\n\n\tevent CreateCategory  (uint256 catid, string name, string description, uint256 workClockTimeRef);\n\n\tevent WorkerPoolSubscription  (address indexed workerPool, address worker);\n\tevent WorkerPoolUnsubscription(address indexed workerPool, address worker);\n\tevent WorkerPoolEviction      (address indexed workerPool, address worker);\n\n\tevent AccurateContribution(address woid, address indexed worker);\n\tevent FaultyContribution  (address woid, address indexed worker);\n\n\tevent Deposit (address owner, uint256 amount);\n\tevent Withdraw(address owner, uint256 amount);\n\tevent Reward  (address user,  uint256 amount);\n\tevent Seize   (address user,  uint256 amount);\n\n\t/**\n\t * Constructor\n\t */\n\tfunction IexecHub()\n\tpublic\n\t{\n\t}\n\n\tfunction attachContracts(\n\t\taddress _tokenAddress,\n\t\taddress _marketplaceAddress,\n\t\taddress _workerPoolHubAddress,\n\t\taddress _appHubAddress,\n\t\taddress _datasetHubAddress)\n\tpublic\n\t{\n\t\trequire(address(rlc) == address(0));\n\t\trlc           = RLC          (_tokenAddress        );\n\t\tmarketplace   = Marketplace  (_marketplaceAddress  );\n\t\tworkerPoolHub = WorkerPoolHub(_workerPoolHubAddress);\n\t\tappHub        = AppHub       (_appHubAddress       );\n\t\tdatasetHub    = DatasetHub   (_datasetHubAddress   );\n\t}\n\n\t/**\n\t * Factory\n\t */\n\n\tfunction createCategory(\n\t\tstring  _name,\n\t\tstring  _description,\n\t\tuint256 _workClockTimeRef)\n\t/* public onlyOwner returns (uint256 catid) */\n\tpublic returns (uint256 catid)\n\t{\n\t\tm_categoriesCount                  = m_categoriesCount.add(1);\n\n\t\tIexecLib.Category storage category = m_categories[m_categoriesCount];\n\t\tcategory.name                      = _name;\n\t\tcategory.description               = _description;\n\t\tcategory.workClockTimeRef          = _workClockTimeRef;\n\n\t\temit CreateCategory(m_categoriesCount, _name, _description, _workClockTimeRef);\n\t\treturn m_categoriesCount;\n\t}\n\n\tfunction createWorkerPool(\n\t\tstring  _description,\n\t\tuint256 _subscriptionLockStakePolicy,\n\t\tuint256 _subscriptionMinimumStakePolicy,\n\t\tuint256 _subscriptionMinimumScorePolicy)\n\texternal returns (address createdWorkerPool)\n\t{\n\t\taddress newWorkerPool = workerPoolHub.createWorkerPool(\n\t\t\t_description,\n\t\t\t_subscriptionLockStakePolicy,\n\t\t\t_subscriptionMinimumStakePolicy,\n\t\t\t_subscriptionMinimumScorePolicy\n\t\t);\n\t\temit CreateWorkerPool(tx.origin, newWorkerPool, _description);\n\t\treturn newWorkerPool;\n\t}\n\n\tfunction createApp(\n\t\tstring  _appName,\n\t\tuint256 _appPrice,\n\t\tstring  _appParams)\n\texternal returns (address createdApp)\n\t{\n\t\taddress newApp = appHub.createApp(\n\t\t\t_appName,\n\t\t\t_appPrice,\n\t\t\t_appParams\n\t\t);\n\t\temit CreateApp(tx.origin, newApp, _appName, _appPrice, _appParams);\n\t\treturn newApp;\n\t}\n\n\tfunction createDataset(\n\t\tstring  _datasetName,\n\t\tuint256 _datasetPrice,\n\t\tstring  _datasetParams)\n\texternal returns (address createdDataset)\n\t{\n\t\taddress newDataset = datasetHub.createDataset(\n\t\t\t_datasetName,\n\t\t\t_datasetPrice,\n\t\t\t_datasetParams\n\t\t\t);\n\t\temit CreateDataset(tx.origin, newDataset, _datasetName, _datasetPrice, _datasetParams);\n\t\treturn newDataset;\n\t}\n\n\t/**\n\t * WorkOrder Emission\n\t */\n\n\tfunction marketOrders(\n\t\t/********** Order settings **********/\n\t\tuint256[3] _commonOrder,\n\t\t/* uint256 _commonOrder_category, */\n\t\t/* uint256 _commonOrder_trust, */\n\t\t/* uint256 _commonOrder_value, */\n\t\t/********** Pool settings **********/\n\t\tuint256 _poolOrder_volume,\n\t\taddress _poolOrder_workerpool,\n\t\t/********** User settings **********/\n\t\taddress[5] _userOrder,\n\t\t/* address _userOrder_app, */\n\t\t/* address _userOrder_dataset, */\n\t\t/* address _userOrder_callback, */\n\t\t/* address _userOrder_beneficiary, */\n\t\t/* address _userOrder_requester, */\n\t\tstring  _userOrder_params,\n\t\t/********** Signatures **********/\n\t\tuint256[2] _salt,\n\t\tuint8[2]   _v,\n\t\tbytes32[2] _r,\n\t\tbytes32[2] _s)\n\texternal returns (address)\n\t{\n\t\trequire(workerPoolHub.isWorkerPoolRegistered(_poolOrder_workerpool));\n\n\t\trequire(marketplace.matchOrders(\n\t\t\t_commonOrder,\n\t\t\t_poolOrder_volume,\n\t\t\t_poolOrder_workerpool,\n\t\t\t_userOrder,\n\t\t\t_userOrder_params,\n\t\t\t_salt,\n\t\t\t_v,\n\t\t\t_r,\n\t\t\t_s));\n\n\t\tuint256 appPayment = lockAppPayment(\n\t\t\t_userOrder[4],         //requester,\n\t\t\t_poolOrder_workerpool, //workerpool,\n\t\t\t_userOrder[0],         //app,\n\t\t\t_userOrder[2]);        //dataset\n\n\t\tWorkOrder workorder = new WorkOrder(\n\t\t\t_commonOrder,\n\t\t\t_poolOrder_workerpool,\n\t\t\tWorkerPool(_poolOrder_workerpool).m_owner(),\n\t\t\t_userOrder,\n\t\t\t_userOrder_params,\n\t\t\tappPayment);\n\n\t\trequire(WorkerPool(_poolOrder_workerpool).initiateConsensus(workorder));\n\n\t\temit WorkOrderActivated(workorder, _poolOrder_workerpool);\n\t\treturn workorder;\n\t}\n\n\tfunction lockAppPayment(\n\t\taddress _requester,\n\t\taddress _workerpool, // Address of a smartcontract\n\t\taddress _app,        // Address of a smartcontract\n\t\taddress _dataset)    // Address of a smartcontract\n\tinternal returns (uint256)\n\t{\n\t\t// APP\n\t\tApp app = App(_app);\n\t\trequire(appHub.isAppRegistered (_app       ));\n\t\t// initialize usercost with dapp price\n\t\tuint256 appPayment = app.m_appPrice();\n\n\t\t// DATASET\n\t\tif (_dataset != address(0)) // address(0)  no dataset\n\t\t{\n\t\t\tDataset dataset = Dataset(_dataset);\n\t\t\trequire(datasetHub.isDatasetRegistred(_dataset   ));\n\t\t\t// add optional datasetPrice for userCost\n\t\t\tappPayment = appPayment.add(dataset.m_datasetPrice());\n\t\t}\n\n\t\trequire(lock(_requester, appPayment)); // Lock funds for app + dataset payment\n\n\t\treturn appPayment;\n\t}\n\n\t/**\n\t * WorkOrder life cycle\n\t */\n\n\tfunction claimFailedConsensus(address _woid) public returns (bool)\n\t{\n\t\tWorkOrder  workorder  = WorkOrder(_woid);\n\t\trequire(workorder.m_requester() == msg.sender);\n\t\tWorkerPool workerpool = WorkerPool(workorder.m_workerpool());\n\n\t\tIexecLib.WorkOrderStatusEnum currentStatus = workorder.m_status();\n\t\trequire(currentStatus == IexecLib.WorkOrderStatusEnum.ACTIVE || currentStatus == IexecLib.WorkOrderStatusEnum.REVEALING);\n\t\t// Unlock stakes for all workers\n\t\trequire(workerpool.claimFailedConsensus(_woid));\n\t\tworkorder.claim(); // revert on error\n\n\t\tuint256 value           = workorder.m_value();\n\t\taddress workerpoolOwner = workorder.m_workerpoolOwner();\n\t\tuint256 workerpoolStake = value.percentage(marketplace.ASK_STAKE_RATIO());\n\n\t\trequire(unlock (workorder.m_requester(), value.add(workorder.m_appPayment()))); // UNLOCK THE FUNDS FOR REINBURSEMENT\n\t\trequire(seize  (workerpoolOwner,         workerpoolStake));\n\t\t// put workerpoolOwner stake seize into iexecHub address for bonus for scheduler on next well finalized Task\n\t\trequire(reward (this,                    workerpoolStake));\n\t\trequire(lock   (this,                    workerpoolStake));\n\n\n\t\temit WorkOrderClaimed(_woid, workorder.m_workerpool());\n\t\treturn true;\n\t}\n\n\tfunction finalizeWorkOrder(\n\t\taddress _woid,\n\t\tstring  _stdout,\n\t\tstring  _stderr,\n\t\tstring  _uri)\n\tpublic returns (bool)\n\t{\n\t\tWorkOrder workorder = WorkOrder(_woid);\n\n\t\trequire(workorder.m_workerpool() == msg.sender);\n\t\trequire(workorder.m_status()     == IexecLib.WorkOrderStatusEnum.REVEALING);\n\n\t\t// APP\n\t\tApp     app      = App(workorder.m_app());\n\t\tuint256 appPrice = app.m_appPrice();\n\t\tif (appPrice > 0)\n\t\t{\n\t\t\trequire(reward(app.m_owner(), appPrice));\n\t\t}\n\n\t\t// DATASET\n\t\tDataset dataset = Dataset(workorder.m_dataset());\n\t\tif (dataset != address(0))\n\t\t{\n\t\t\tuint256 datasetPrice = dataset.m_datasetPrice();\n\t\t\tif (datasetPrice > 0)\n\t\t\t{\n\t\t\t\trequire(reward(dataset.m_owner(), datasetPrice));\n\t\t\t}\n\t\t}\n\n\t\t// WORKERPOOL  rewarding done by the caller itself\n\n\t\t/**\n\t\t * seize stacked funds from requester.\n\t\t * reward = value: was locked at market making\n\t\t * appPayment: was locked at when emiting the workorder\n\t\t */\n\t\tuint256 value           = workorder.m_value(); // revert if not exist\n\t\taddress workerpoolOwner = workorder.m_workerpoolOwner(); // revert if not exist\n\t\tuint256 workerpoolStake = value.percentage(marketplace.ASK_STAKE_RATIO());\n\n\t\trequire(seize (workorder.m_requester(), value.add(workorder.m_appPayment()))); // seize funds for payment (market value + appPayment)\n\t\trequire(unlock(workerpoolOwner,         workerpoolStake)); // unlock scheduler stake\n\n\t\t// write results\n\t\tworkorder.setResult(_stdout, _stderr, _uri); // revert on error\n\n\t\t// Rien ne se perd, rien ne se cre, tout se transfere\n\t\t// distribute bonus to scheduler. jackpot bonus come from scheduler stake loose on IexecHub contract\n\t\tuint256 kitty;\n\t\t(,kitty) = checkBalance(this); // kitty is locked on `this` wallet\n\t\tif(kitty > 0)\n\t\t{\n\t\t\tuint256 kittyFraction = kitty.min(kitty.percentage(STAKE_BONUS_RATIO).max(STAKE_BONUS_MIN_THRESHOLD));\n\t\t\trequire(seize(this,             kittyFraction));\n\t\t\trequire(reward(workerpoolOwner, kittyFraction));\n\t\t}\n\n\t\temit WorkOrderCompleted(_woid, workorder.m_workerpool());\n\t\treturn true;\n\t}\n\n\t/**\n\t * Views\n\t */\n\n\tfunction existingCategory(uint256 _catid) public view  returns (bool categoryExist)\n\t{\n\t\treturn _catid <= m_categoriesCount;\n\t}\n\n\tfunction getCategory(uint256 _catid) public view returns (string name, string  description, uint256 workClockTimeRef)\n\t{\n\t\trequire(existingCategory(_catid));\n\t\treturn (\n\t\t\tm_categories[_catid].name,\n\t\t\tm_categories[_catid].description,\n\t\t\tm_categories[_catid].workClockTimeRef\n\t\t);\n\t}\n\n\tfunction getWorkerStatus(address _worker) public view returns (address workerPool, uint256 workerScore)\n\t{\n\t\treturn (workerPoolHub.getWorkerAffectation(_worker), m_scores[_worker]);\n\t}\n\n\tfunction getWorkerScore(address _worker) public view returns (uint256 workerScore)\n\t{\n\t\treturn m_scores[_worker];\n\t}\n\n\t/**\n\t * Worker subscription\n\t */\n\tfunction registerToPool(address _worker) public returns (bool subscribed)\n\t// msg.sender = workerPool\n\t{\n\t\tWorkerPool workerpool = WorkerPool(msg.sender);\n\t\t// Check credentials\n\t\trequire(workerPoolHub.isWorkerPoolRegistered(msg.sender));\n\t\t// Lock worker deposit\n\t\trequire(lock(_worker, workerpool.m_subscriptionLockStakePolicy()));\n\t\t// Check subscription policy\n\t\trequire(m_accounts[_worker].stake >= workerpool.m_subscriptionMinimumStakePolicy());\n\t\trequire(m_scores[_worker]         >= workerpool.m_subscriptionMinimumScorePolicy());\n\t\t// Update affectation\n\t\trequire(workerPoolHub.registerWorkerAffectation(msg.sender, _worker));\n\t\t// Trigger event notice\n\t\temit WorkerPoolSubscription(msg.sender, _worker);\n\t\treturn true;\n\t}\n\n\tfunction unregisterFromPool(address _worker) public returns (bool unsubscribed)\n\t// msg.sender = workerPool\n\t{\n\t\trequire(removeWorker(msg.sender, _worker));\n\t\t// Trigger event notice\n\t\temit WorkerPoolUnsubscription(msg.sender, _worker);\n\t\treturn true;\n\t}\n\n\tfunction evictWorker(address _worker) public returns (bool unsubscribed)\n\t// msg.sender = workerpool\n\t{\n\t\trequire(removeWorker(msg.sender, _worker));\n\t\t// Trigger event notice\n\t\temit WorkerPoolEviction(msg.sender, _worker);\n\t\treturn true;\n\t}\n\n\tfunction removeWorker(address _workerpool, address _worker) internal returns (bool unsubscribed)\n\t{\n\t\tWorkerPool workerpool = WorkerPool(_workerpool);\n\t\t// Check credentials\n\t\trequire(workerPoolHub.isWorkerPoolRegistered(_workerpool));\n\t\t// Unlick worker stake\n\t\trequire(unlock(_worker, workerpool.m_subscriptionLockStakePolicy()));\n\t\t// Update affectation\n\t\trequire(workerPoolHub.unregisterWorkerAffectation(_workerpool, _worker));\n\t\treturn true;\n\t}\n\n\t/**\n\t * Stake, reward and penalty functions\n\t */\n\t/* Marketplace */\n\tfunction lockForOrder(address _user, uint256 _amount) public onlyMarketplace returns (bool)\n\t{\n\t\trequire(lock(_user, _amount));\n\t\treturn true;\n\t}\n\tfunction unlockForOrder(address _user, uint256 _amount) public  onlyMarketplace returns (bool)\n\t{\n\t\trequire(unlock(_user, _amount));\n\t\treturn true;\n\t}\n\t/* Work */\n\tfunction lockForWork(address _woid, address _user, uint256 _amount) public returns (bool)\n\t{\n\t\trequire(WorkOrder(_woid).m_workerpool() == msg.sender);\n\t\trequire(lock(_user, _amount));\n\t\treturn true;\n\t}\n\tfunction unlockForWork(address _woid, address _user, uint256 _amount) public returns (bool)\n\t{\n\t\trequire(WorkOrder(_woid).m_workerpool() == msg.sender);\n\t\trequire(unlock(_user, _amount));\n\t\treturn true;\n\t}\n\tfunction rewardForWork(address _woid, address _worker, uint256 _amount, bool _reputation) public returns (bool)\n\t{\n\t\trequire(WorkOrder(_woid).m_workerpool() == msg.sender);\n\t\trequire(reward(_worker, _amount));\n\t\t// ------------------------------------------------------------------------\n\t\tif (_reputation)\n\t\t{\n\t\t\tm_contributionHistory.success = m_contributionHistory.success.add(1);\n\t\t\tm_scores[_worker] = m_scores[_worker].add(1);\n\t\t\temit AccurateContribution(_woid, _worker);\n\t\t}\n\t\treturn true;\n\t}\n\tfunction seizeForWork(address _woid, address _worker, uint256 _amount, bool _reputation) public returns (bool)\n\t{\n\t\trequire(WorkOrder(_woid).m_workerpool() == msg.sender);\n\t\trequire(seize(_worker, _amount));\n\t\t// ------------------------------------------------------------------------\n\t\tif (_reputation)\n\t\t{\n\t\t\tm_contributionHistory.failled = m_contributionHistory.failled.add(1);\n\t\t\tm_scores[_worker] = m_scores[_worker].sub(m_scores[_worker].min(SCORE_UNITARY_SLASH));\n\t\t\temit FaultyContribution(_woid, _worker);\n\t\t}\n\t\treturn true;\n\t}\n\t/**\n\t * Wallet methods: public\n\t */\n\tfunction deposit(uint256 _amount) external returns (bool)\n\t{\n\t\trequire(rlc.transferFrom(msg.sender, address(this), _amount));\n\t\tm_accounts[msg.sender].stake = m_accounts[msg.sender].stake.add(_amount);\n\t\temit Deposit(msg.sender, _amount);\n\t\treturn true;\n\t}\n\tfunction withdraw(uint256 _amount) external returns (bool)\n\t{\n\t\tm_accounts[msg.sender].stake = m_accounts[msg.sender].stake.sub(_amount);\n\t\trequire(rlc.transfer(msg.sender, _amount));\n\t\temit Withdraw(msg.sender, _amount);\n\t\treturn true;\n\t}\n\tfunction checkBalance(address _owner) public view returns (uint256 stake, uint256 locked)\n\t{\n\t\treturn (m_accounts[_owner].stake, m_accounts[_owner].locked);\n\t}\n\t/**\n\t * Wallet methods: Internal\n\t */\n\tfunction reward(address _user, uint256 _amount) internal returns (bool)\n\t{\n\t\tm_accounts[_user].stake = m_accounts[_user].stake.add(_amount);\n\t\temit Reward(_user, _amount);\n\t\treturn true;\n\t}\n\tfunction seize(address _user, uint256 _amount) internal returns (bool)\n\t{\n\t\tm_accounts[_user].locked = m_accounts[_user].locked.sub(_amount);\n\t\temit Seize(_user, _amount);\n\t\treturn true;\n\t}\n\tfunction lock(address _user, uint256 _amount) internal returns (bool)\n\t{\n\t\tm_accounts[_user].stake  = m_accounts[_user].stake.sub(_amount);\n\t\tm_accounts[_user].locked = m_accounts[_user].locked.add(_amount);\n\t\treturn true;\n\t}\n\tfunction unlock(address _user, uint256 _amount) internal returns (bool)\n\t{\n\t\tm_accounts[_user].locked = m_accounts[_user].locked.sub(_amount);\n\t\tm_accounts[_user].stake  = m_accounts[_user].stake.add(_amount);\n\t\treturn true;\n\t}\n}\n",
  "sourcePath": "/home/amxx/Work/iExec/PoCo-dev/contracts/IexecHub.sol",
  "compiler": {
    "name": "solc",
    "version": "0.4.21+commit.dfe3193c.Emscripten.clang"
  },
  "schemaVersion": "2.0.0",
  "updatedAt": "2018-05-18T18:40:08.843Z"
}