{
  "contractName": "IexecAccessorsDelegate",
  "abi": [
    {
      "constant": true,
      "inputs": [],
      "name": "EIP712DOMAIN_SEPARATOR",
      "outputs": [
        {
          "name": "",
          "type": "bytes32"
        }
      ],
      "payable": false,
      "stateMutability": "view",
      "type": "function"
    },
    {
      "constant": true,
      "inputs": [],
      "name": "appregistry",
      "outputs": [
        {
          "name": "",
          "type": "address"
        }
      ],
      "payable": false,
      "stateMutability": "view",
      "type": "function"
    },
    {
      "constant": true,
      "inputs": [],
      "name": "WORKERPOOL_STAKE_RATIO",
      "outputs": [
        {
          "name": "",
          "type": "uint256"
        }
      ],
      "payable": false,
      "stateMutability": "view",
      "type": "function"
    },
    {
      "constant": true,
      "inputs": [],
      "name": "KITTY_RATIO",
      "outputs": [
        {
          "name": "",
          "type": "uint256"
        }
      ],
      "payable": false,
      "stateMutability": "view",
      "type": "function"
    },
    {
      "constant": true,
      "inputs": [],
      "name": "REVEAL_DEADLINE_RATIO",
      "outputs": [
        {
          "name": "",
          "type": "uint256"
        }
      ],
      "payable": false,
      "stateMutability": "view",
      "type": "function"
    },
    {
      "constant": true,
      "inputs": [],
      "name": "GROUPMEMBER_PURPOSE",
      "outputs": [
        {
          "name": "",
          "type": "uint256"
        }
      ],
      "payable": false,
      "stateMutability": "view",
      "type": "function"
    },
    {
      "constant": false,
      "inputs": [],
      "name": "renounceOwnership",
      "outputs": [],
      "payable": false,
      "stateMutability": "nonpayable",
      "type": "function"
    },
    {
      "constant": true,
      "inputs": [],
      "name": "CONTRIBUTION_DEADLINE_RATIO",
      "outputs": [
        {
          "name": "",
          "type": "uint256"
        }
      ],
      "payable": false,
      "stateMutability": "view",
      "type": "function"
    },
    {
      "constant": true,
      "inputs": [],
      "name": "owner",
      "outputs": [
        {
          "name": "",
          "type": "address"
        }
      ],
      "payable": false,
      "stateMutability": "view",
      "type": "function"
    },
    {
      "constant": true,
      "inputs": [],
      "name": "isOwner",
      "outputs": [
        {
          "name": "",
          "type": "bool"
        }
      ],
      "payable": false,
      "stateMutability": "view",
      "type": "function"
    },
    {
      "constant": true,
      "inputs": [],
      "name": "workerpoolregistry",
      "outputs": [
        {
          "name": "",
          "type": "address"
        }
      ],
      "payable": false,
      "stateMutability": "view",
      "type": "function"
    },
    {
      "constant": true,
      "inputs": [],
      "name": "FINAL_DEADLINE_RATIO",
      "outputs": [
        {
          "name": "",
          "type": "uint256"
        }
      ],
      "payable": false,
      "stateMutability": "view",
      "type": "function"
    },
    {
      "constant": true,
      "inputs": [],
      "name": "KITTY_ADDRESS",
      "outputs": [
        {
          "name": "",
          "type": "address"
        }
      ],
      "payable": false,
      "stateMutability": "view",
      "type": "function"
    },
    {
      "constant": true,
      "inputs": [],
      "name": "datasetregistry",
      "outputs": [
        {
          "name": "",
          "type": "address"
        }
      ],
      "payable": false,
      "stateMutability": "view",
      "type": "function"
    },
    {
      "constant": true,
      "inputs": [],
      "name": "KITTY_MIN",
      "outputs": [
        {
          "name": "",
          "type": "uint256"
        }
      ],
      "payable": false,
      "stateMutability": "view",
      "type": "function"
    },
    {
      "constant": false,
      "inputs": [
        {
          "name": "newOwner",
          "type": "address"
        }
      ],
      "name": "transferOwnership",
      "outputs": [],
      "payable": false,
      "stateMutability": "nonpayable",
      "type": "function"
    },
    {
      "anonymous": false,
      "inputs": [
        {
          "indexed": true,
          "name": "previousOwner",
          "type": "address"
        },
        {
          "indexed": true,
          "name": "newOwner",
          "type": "address"
        }
      ],
      "name": "OwnershipTransferred",
      "type": "event"
    },
    {
      "constant": true,
      "inputs": [],
      "name": "name",
      "outputs": [
        {
          "name": "",
          "type": "string"
        }
      ],
      "payable": false,
      "stateMutability": "view",
      "type": "function"
    },
    {
      "constant": true,
      "inputs": [],
      "name": "symbol",
      "outputs": [
        {
          "name": "",
          "type": "string"
        }
      ],
      "payable": false,
      "stateMutability": "view",
      "type": "function"
    },
    {
      "constant": true,
      "inputs": [],
      "name": "decimals",
      "outputs": [
        {
          "name": "",
          "type": "uint8"
        }
      ],
      "payable": false,
      "stateMutability": "view",
      "type": "function"
    },
    {
      "constant": true,
      "inputs": [],
      "name": "totalSupply",
      "outputs": [
        {
          "name": "",
          "type": "uint256"
        }
      ],
      "payable": false,
      "stateMutability": "view",
      "type": "function"
    },
    {
      "constant": true,
      "inputs": [
        {
          "name": "account",
          "type": "address"
        }
      ],
      "name": "balanceOf",
      "outputs": [
        {
          "name": "",
          "type": "uint256"
        }
      ],
      "payable": false,
      "stateMutability": "view",
      "type": "function"
    },
    {
      "constant": true,
      "inputs": [
        {
          "name": "account",
          "type": "address"
        }
      ],
      "name": "frozenOf",
      "outputs": [
        {
          "name": "",
          "type": "uint256"
        }
      ],
      "payable": false,
      "stateMutability": "view",
      "type": "function"
    },
    {
      "constant": true,
      "inputs": [
        {
          "name": "account",
          "type": "address"
        },
        {
          "name": "spender",
          "type": "address"
        }
      ],
      "name": "allowance",
      "outputs": [
        {
          "name": "",
          "type": "uint256"
        }
      ],
      "payable": false,
      "stateMutability": "view",
      "type": "function"
    },
    {
      "constant": true,
      "inputs": [
        {
          "name": "account",
          "type": "address"
        }
      ],
      "name": "viewAccount",
      "outputs": [
        {
          "components": [
            {
              "name": "stake",
              "type": "uint256"
            },
            {
              "name": "locked",
              "type": "uint256"
            }
          ],
          "name": "",
          "type": "tuple"
        }
      ],
      "payable": false,
      "stateMutability": "view",
      "type": "function"
    },
    {
      "constant": true,
      "inputs": [],
      "name": "token",
      "outputs": [
        {
          "name": "",
          "type": "address"
        }
      ],
      "payable": false,
      "stateMutability": "view",
      "type": "function"
    },
    {
      "constant": true,
      "inputs": [
        {
          "name": "_id",
          "type": "bytes32"
        }
      ],
      "name": "viewDeal",
      "outputs": [
        {
          "components": [
            {
              "components": [
                {
                  "name": "pointer",
                  "type": "address"
                },
                {
                  "name": "owner",
                  "type": "address"
                },
                {
                  "name": "price",
                  "type": "uint256"
                }
              ],
              "name": "app",
              "type": "tuple"
            },
            {
              "components": [
                {
                  "name": "pointer",
                  "type": "address"
                },
                {
                  "name": "owner",
                  "type": "address"
                },
                {
                  "name": "price",
                  "type": "uint256"
                }
              ],
              "name": "dataset",
              "type": "tuple"
            },
            {
              "components": [
                {
                  "name": "pointer",
                  "type": "address"
                },
                {
                  "name": "owner",
                  "type": "address"
                },
                {
                  "name": "price",
                  "type": "uint256"
                }
              ],
              "name": "workerpool",
              "type": "tuple"
            },
            {
              "name": "trust",
              "type": "uint256"
            },
            {
              "name": "category",
              "type": "uint256"
            },
            {
              "name": "tag",
              "type": "bytes32"
            },
            {
              "name": "requester",
              "type": "address"
            },
            {
              "name": "beneficiary",
              "type": "address"
            },
            {
              "name": "callback",
              "type": "address"
            },
            {
              "name": "params",
              "type": "string"
            },
            {
              "name": "startTime",
              "type": "uint256"
            },
            {
              "name": "botFirst",
              "type": "uint256"
            },
            {
              "name": "botSize",
              "type": "uint256"
            },
            {
              "name": "workerStake",
              "type": "uint256"
            },
            {
              "name": "schedulerRewardRatio",
              "type": "uint256"
            }
          ],
          "name": "deal",
          "type": "tuple"
        }
      ],
      "payable": false,
      "stateMutability": "view",
      "type": "function"
    },
    {
      "constant": true,
      "inputs": [
        {
          "name": "_id",
          "type": "bytes32"
        }
      ],
      "name": "viewConsumed",
      "outputs": [
        {
          "name": "consumed",
          "type": "uint256"
        }
      ],
      "payable": false,
      "stateMutability": "view",
      "type": "function"
    },
    {
      "constant": true,
      "inputs": [
        {
          "name": "_id",
          "type": "bytes32"
        }
      ],
      "name": "viewPresigned",
      "outputs": [
        {
          "name": "presigned",
          "type": "bool"
        }
      ],
      "payable": false,
      "stateMutability": "view",
      "type": "function"
    },
    {
      "constant": true,
      "inputs": [
        {
          "name": "_taskid",
          "type": "bytes32"
        }
      ],
      "name": "viewTask",
      "outputs": [
        {
          "components": [
            {
              "name": "status",
              "type": "uint8"
            },
            {
              "name": "dealid",
              "type": "bytes32"
            },
            {
              "name": "idx",
              "type": "uint256"
            },
            {
              "name": "timeref",
              "type": "uint256"
            },
            {
              "name": "contributionDeadline",
              "type": "uint256"
            },
            {
              "name": "revealDeadline",
              "type": "uint256"
            },
            {
              "name": "finalDeadline",
              "type": "uint256"
            },
            {
              "name": "consensusValue",
              "type": "bytes32"
            },
            {
              "name": "revealCounter",
              "type": "uint256"
            },
            {
              "name": "winnerCounter",
              "type": "uint256"
            },
            {
              "name": "contributors",
              "type": "address[]"
            },
            {
              "name": "resultDigest",
              "type": "bytes32"
            },
            {
              "name": "results",
              "type": "bytes"
            }
          ],
          "name": "",
          "type": "tuple"
        }
      ],
      "payable": false,
      "stateMutability": "view",
      "type": "function"
    },
    {
      "constant": true,
      "inputs": [
        {
          "name": "_taskid",
          "type": "bytes32"
        },
        {
          "name": "_worker",
          "type": "address"
        }
      ],
      "name": "viewContribution",
      "outputs": [
        {
          "components": [
            {
              "name": "status",
              "type": "uint8"
            },
            {
              "name": "resultHash",
              "type": "bytes32"
            },
            {
              "name": "resultSeal",
              "type": "bytes32"
            },
            {
              "name": "enclaveChallenge",
              "type": "address"
            }
          ],
          "name": "",
          "type": "tuple"
        }
      ],
      "payable": false,
      "stateMutability": "view",
      "type": "function"
    },
    {
      "constant": true,
      "inputs": [
        {
          "name": "_worker",
          "type": "address"
        }
      ],
      "name": "viewScore",
      "outputs": [
        {
          "name": "",
          "type": "uint256"
        }
      ],
      "payable": false,
      "stateMutability": "view",
      "type": "function"
    },
    {
      "constant": true,
      "inputs": [
        {
          "name": "id",
          "type": "bytes32"
        }
      ],
      "name": "resultFor",
      "outputs": [
        {
          "name": "",
          "type": "bytes"
        }
      ],
      "payable": false,
      "stateMutability": "view",
      "type": "function"
    },
    {
      "constant": true,
      "inputs": [
        {
          "name": "_catid",
          "type": "uint256"
        }
      ],
      "name": "viewCategory",
      "outputs": [
        {
          "components": [
            {
              "name": "name",
              "type": "string"
            },
            {
              "name": "description",
              "type": "string"
            },
            {
              "name": "workClockTimeRef",
              "type": "uint256"
            }
          ],
          "name": "category",
          "type": "tuple"
        }
      ],
      "payable": false,
      "stateMutability": "view",
      "type": "function"
    },
    {
      "constant": true,
      "inputs": [],
      "name": "countCategory",
      "outputs": [
        {
          "name": "count",
          "type": "uint256"
        }
      ],
      "payable": false,
      "stateMutability": "view",
      "type": "function"
    }
  ],
  "bytecode": "0x60806040819052600080546001600160a01b03191633178082556001600160a01b0316916000805160206200187a833981519152908290a36200004a6001600160e01b036200005016565b6200014b565b620000636001600160e01b03620000de16565b620000a5576040517f08c379a00000000000000000000000000000000000000000000000000000000081526004016200009c906200012a565b60405180910390fd5b600080546040516001600160a01b03909116906000805160206200187a833981519152908390a3600080546001600160a01b0319169055565b6000546001600160a01b0316331490565b6000620000fe60208362000142565b7f4f776e61626c653a2063616c6c6572206973206e6f7420746865206f776e6572815260200192915050565b602080825281016200013c81620000ef565b92915050565b90815260200190565b61171f806200015b6000396000f3fe608060405234801561001057600080fd5b50600436106102065760003560e01c80638f32d59b1161011a578063c140996f116100ad578063dd62ed3e1161007c578063dd62ed3e146103e6578063e2e7a8c1146103f9578063e741363b14610401578063f2fde38b14610421578063fc0c546a1461043457610206565b8063c140996f146103a5578063d09cc57e146103ad578063d286eb16146103c0578063db230b52146103d357610206565b80639e986e81116100e95780639e986e8114610355578063adccf0d51461035d578063b1b11d2c1461037d578063b74861b21461038557610206565b80638f32d59b1461033057806390a0f5461461034557806390fc26b1146102be57806395d89b411461034d57610206565b80634f5f44ec1161019d5780636b55f4a51161016c5780636b55f4a5146102d657806370a08231146102f6578063715018a6146103095780637b244832146103135780638da5cb5b1461031b57610206565b80634f5f44ec1461029e57806351152de1146102be5780635fde601d146102c657806368a9ef1c146102ce57610206565b8063313ce567116101d9578063313ce5671461025957806345b637a91461026e5780634b2bec8c146102835780634ec3b9e31461029657610206565b8063047411e71461020b57806306fdde031461022957806318160ddd1461023e5780631bf6e00d14610246575b600080fd5b61021361043c565b6040516102209190611557565b60405180910390f35b610231610442565b6040516102209190611565565b6102136104d8565b610213610254366004610fe8565b6104de565b6102616104fd565b60405161022091906115fa565b610276610506565b604051610220919061157d565b610213610291366004611048565b610515565b610213610527565b6102b16102ac366004611048565b61052c565b60405161022091906115b9565b6102136106a0565b6102136106a5565b6102136106aa565b6102e96102e4366004610fe8565b6106af565b60405161022091906115ab565b610213610304366004610fe8565b6106f2565b61031161070d565b005b610213610784565b610323610789565b604051610220919061153b565b610338610798565b6040516102209190611549565b6102766107a9565b6102316107b8565b610323610819565b61037061036b366004611048565b610853565b60405161022091906115e9565b6102766109f7565b610398610393366004611048565b610a06565b60405161022091906115d8565b610213610bc5565b6102316103bb366004611048565b610bcb565b6103386103ce366004611048565b610c8d565b6102136103e1366004610fe8565b610ca2565b6102136103f436600461100e565b610cbd565b610213610cea565b61041461040f366004611066565b610cf2565b60405161022091906115ca565b61031161042f366004610fe8565b610d76565b610323610da6565b600f5481565b60088054604080516020601f60026000196101006001881615020190951694909404938401819004810282018101909252828152606093909290918301828280156104ce5780601f106104a3576101008083540402835291602001916104ce565b820191906000526020600020905b8154815290600101906020018083116104b157829003601f168201915b5050505050905090565b600b5490565b6001600160a01b0381166000908152600d60205260409020545b919050565b600a5460ff1690565b6004546001600160a01b031681565b60009081526011602052604090205490565b601e81565b610534610e36565b6019828154811061054157fe5b600091825260209182902060408051600393909302909101805460026001821615610100026000190190911604601f81018590049094028301608090810190925260608301848152929390928492909184918401828280156105e45780601f106105b9576101008083540402835291602001916105e4565b820191906000526020600020905b8154815290600101906020018083116105c757829003601f168201915b50505050508152602001600182018054600181600116156101000203166002900480601f0160208091040260200160405190810160405280929190818152602001828054600181600116156101000203166002900480156106865780601f1061065b57610100808354040283529160200191610686565b820191906000526020600020905b81548152906001019060200180831161066957829003601f168201915b505050505081526020016002820154815250509050919050565b600a81565b600281565b600481565b6106b7610e57565b506040805180820182526001600160a01b03929092166000818152600c6020908152838220548552918152600d825291909120549082015290565b6001600160a01b03166000908152600c602052604090205490565b610715610798565b61073a5760405162461bcd60e51b81526004016107319061159b565b60405180910390fd5b600080546040516001600160a01b03909116907f8be0079c531659141344cd1fd0a4f28419497f9722a3daafe3b4186f6b6457e0908390a3600080546001600160a01b0319169055565b600781565b6000546001600160a01b031690565b6000546001600160a01b0316331490565b6006546001600160a01b031681565b60098054604080516020601f60026000196101006001881615020190951694909404938401819004810282018101909252828152606093909290918301828280156104ce5780601f106104a3576101008083540402835291602001916104ce565b60408051808201909152600a81526969457865634b6974747960b01b6020909101527399c2268479b93fde36232351229815df80837e2481565b61085b610e71565b6000828152601360205260409081902081516101a081019092528054829060ff16600481111561088757fe5b600481111561089257fe5b8152602001600182015481526020016002820154815260200160038201548152602001600482015481526020016005820154815260200160068201548152602001600782015481526020016008820154815260200160098201548152602001600a820180548060200260200160405190810160405280929190818152602001828054801561094957602002820191906000526020600020905b81546001600160a01b0316815260019091019060200180831161092b575b5050509183525050600b820154602080830191909152600c8301805460408051601f600260001961010060018716150201909416939093049283018590048502810185018252828152940193928301828280156109e75780601f106109bc576101008083540402835291602001916109e7565b820191906000526020600020905b8154815290600101906020018083116109ca57829003601f168201915b5050505050815250509050919050565b6005546001600160a01b031681565b610a0e610ee3565b60008281526010602090815260409182902082516102408101845281546001600160a01b039081166101e08301908152600180850154831661020085015260028086015461022086015291845286516060808201895260038701548516825260048701548516828901526005870154828a0152858801919091528751808201895260068701548516815260078701548516818901526008870154818a015285890152600986015490850152600a8501546080850152600b85015460a0850152600c850154831660c0850152600d850154831660e0850152600e85015490921661010080850191909152600f850180548851948116159092026000190190911691909104601f81018690048602830186019096528582529194929361012086019391929190830182828015610b835780601f10610b5857610100808354040283529160200191610b83565b820191906000526020600020905b815481529060010190602001808311610b6657829003601f168201915b50505050508152602001601082015481526020016011820154815260200160128201548152602001601382015481526020016014820154815250509050919050565b60195490565b60008181526013602052604090206060906003815460ff166004811115610bee57fe5b14610bf857600080fd5b600c8101805460408051602060026001851615610100026000190190941693909304601f81018490048402820184019092528181529291830182828015610c805780601f10610c5557610100808354040283529160200191610c80565b820191906000526020600020905b815481529060010190602001808311610c6357829003601f168201915b5050505050915050919050565b60009081526012602052604090205460ff1690565b6001600160a01b031660009081526015602052604090205490565b6001600160a01b038083166000908152600e60209081526040808320938516835292905220545b92915050565b633b9aca0081565b610cfa610f89565b60008381526014602090815260408083206001600160a01b0386168452909152908190208151608081019092528054829060ff166003811115610d3957fe5b6003811115610d4457fe5b815260018201546020820152600282015460408201526003909101546001600160a01b03166060909101529392505050565b610d7e610798565b610d9a5760405162461bcd60e51b81526004016107319061159b565b610da381610db5565b50565b6007546001600160a01b031690565b6001600160a01b038116610ddb5760405162461bcd60e51b81526004016107319061158b565b600080546040516001600160a01b03808516939216917f8be0079c531659141344cd1fd0a4f28419497f9722a3daafe3b4186f6b6457e091a3600080546001600160a01b0319166001600160a01b0392909216919091179055565b60405180606001604052806060815260200160608152602001600081525090565b604051806040016040528060008152602001600081525090565b604080516101a0810190915280600081526020016000801916815260200160008152602001600081526020016000815260200160008152602001600081526020016000801916815260200160008152602001600081526020016060815260200160008019168152602001606081525090565b604051806102a00160405280610ef7610fb2565b8152602001610f04610fb2565b8152602001610f11610fb2565b815260200160008152602001600081526020016000801916815260200160006001600160a01b0316815260200160006001600160a01b0316815260200160006001600160a01b031681526020016060815260200160008152602001600081526020016000815260200160008152602001600081525090565b604080516080810190915280600081526000602082018190526040820181905260609091015290565b604080516060810182526000808252602082018190529181019190915290565b8035610ce4816116bf565b8035610ce4816116d3565b600060208284031215610ffa57600080fd5b60006110068484610fd2565b949350505050565b6000806040838503121561102157600080fd5b600061102d8585610fd2565b925050602061103e85828601610fd2565b9150509250929050565b60006020828403121561105a57600080fd5b60006110068484610fdd565b6000806040838503121561107957600080fd5b600061102d8585610fdd565b60006110918383611099565b505060200190565b6110a28161161b565b82525050565b60006110b38261160e565b6110bd8185611612565b93506110c883611608565b8060005b838110156110f65781516110e08882611085565b97506110eb83611608565b9250506001016110cc565b509495945050505050565b6110a281611626565b6110a28161162b565b600061111e8261160e565b6111288185611612565b9350611138818560208601611675565b611141816116a1565b9093019392505050565b6110a281611654565b6110a28161165f565b6110a28161166a565b6000611173602683611612565b7f4f776e61626c653a206e6577206f776e657220697320746865207a65726f206181526564647265737360d01b602082015260400192915050565b60006111bb602083611612565b7f4f776e61626c653a2063616c6c6572206973206e6f7420746865206f776e6572815260200192915050565b805160408301906111f8848261110a565b50602082015161120b602085018261110a565b50505050565b80516060808452600091908401906112298282611113565b915050602083015184820360208601526112438282611113565b9150506040830151611258604086018261110a565b509392505050565b805160808301906112718482611154565b506020820151611284602085018261110a565b506040820151611297604085018261110a565b50606082015161120b6060850182611099565b80516000906102a08401906112bf85826113e3565b5060208301516112d260608601826113e3565b5060408301516112e560c08601826113e3565b5060608301516112f961012086018261110a565b50608083015161130d61014086018261110a565b5060a083015161132161016086018261110a565b5060c0830151611335610180860182611099565b5060e08301516113496101a0860182611099565b5061010083015161135e6101c0860182611099565b506101208301518482036101e08601526113788282611113565b91505061014083015161138f61020086018261110a565b506101608301516113a461022086018261110a565b506101808301516113b961024086018261110a565b506101a08301516113ce61026086018261110a565b506101c083015161125861028086018261110a565b805160608301906113f48482611099565b5060208201516114076020850182611099565b50604082015161120b604085018261110a565b80516000906101a084019061142f858261115d565b506020830151611442602086018261110a565b506040830151611455604086018261110a565b506060830151611468606086018261110a565b50608083015161147b608086018261110a565b5060a083015161148e60a086018261110a565b5060c08301516114a160c086018261110a565b5060e08301516114b460e086018261110a565b506101008301516114c961010086018261110a565b506101208301516114de61012086018261110a565b506101408301518482036101408601526114f882826110a8565b91505061016083015161150f61016086018261110a565b506101808301518482036101808601526115298282611113565b95945050505050565b6110a28161164e565b60208101610ce48284611099565b60208101610ce48284611101565b60208101610ce4828461110a565b602080825281016115768184611113565b9392505050565b60208101610ce4828461114b565b60208082528101610ce481611166565b60208082528101610ce4816111ae565b60408101610ce482846111e7565b602080825281016115768184611211565b60808101610ce48284611260565b6020808252810161157681846112aa565b60208082528101611576818461141a565b60208101610ce48284611532565b60200190565b5190565b90815260200190565b6000610ce482611642565b151590565b90565b806104f8816116ab565b806104f8816116b5565b6001600160a01b031690565b60ff1690565b6000610ce48261161b565b6000610ce48261162e565b6000610ce482611638565b60005b83811015611690578181015183820152602001611678565b8381111561120b5750506000910152565b601f01601f191690565b60048110610da357fe5b60058110610da357fe5b6116c88161161b565b8114610da357600080fd5b6116c88161162b56fea365627a7a72305820d7312cc67db4cd83ddcdeeda61f9bc9d9d611c1cd37296a0d2b22820ae18f8e86c6578706572696d656e74616cf564736f6c634300050a00408be0079c531659141344cd1fd0a4f28419497f9722a3daafe3b4186f6b6457e0",
  "source": "pragma solidity ^0.5.10;\npragma experimental ABIEncoderV2;\n\nimport \"../IexecDelegateBase.sol\";\n\n\ninterface IexecAccessors\n{\n\tfunction name() external view returns (string memory);\n\tfunction symbol() external view returns (string memory);\n\tfunction decimals() external view returns (uint8);\n\tfunction totalSupply() external view returns (uint256);\n\tfunction balanceOf(address) external view returns (uint256);\n\tfunction frozenOf(address) external view returns (uint256);\n\tfunction allowance(address,address) external view returns (uint256);\n\tfunction viewAccount(address) external view returns (IexecODBLibCore.Account memory);\n\tfunction token() external view returns (address);\n\tfunction viewDeal(bytes32) external view returns (IexecODBLibCore.Deal memory);\n\tfunction viewConsumed(bytes32) external view returns (uint256);\n\tfunction viewPresigned(bytes32) external view returns (bool);\n\tfunction viewTask(bytes32) external view returns (IexecODBLibCore.Task memory);\n\tfunction viewContribution(bytes32,address) external view returns (IexecODBLibCore.Contribution memory);\n\tfunction viewScore(address) external view returns (uint256);\n\tfunction resultFor(bytes32) external view returns (bytes memory);\n\tfunction viewCategory(uint256) external view returns (IexecODBLibCore.Category memory);\n\tfunction countCategory() external view returns (uint256);\n}\n\ncontract IexecAccessorsDelegate is IexecAccessors, IexecDelegateBase\n{\n\n\tfunction name()\n\texternal view returns (string memory)\n\t{\n\t\treturn m_name;\n\t}\n\n\tfunction symbol()\n\texternal view returns (string memory)\n\t{\n\t\treturn m_symbol;\n\t}\n\n\tfunction decimals()\n\texternal view returns (uint8)\n\t{\n\t\treturn m_decimals;\n\t}\n\n\tfunction totalSupply()\n\texternal view returns (uint256)\n\t{\n\t\treturn m_totalSupply;\n\t}\n\n\tfunction balanceOf(address account)\n\texternal view returns (uint256)\n\t{\n\t\treturn m_balances[account];\n\t}\n\n\tfunction frozenOf(address account)\n\texternal view returns (uint256)\n\t{\n\t\treturn m_frozens[account];\n\t}\n\n\tfunction allowance(address account, address spender)\n\texternal view returns (uint256)\n\t{\n\t\treturn m_allowances[account][spender];\n\t}\n\n\tfunction viewAccount(address account)\n\texternal view returns (IexecODBLibCore.Account memory)\n\t{\n\t\treturn IexecODBLibCore.Account(m_balances[account], m_frozens[account]);\n\t}\n\n\tfunction token()\n\texternal view returns (address)\n\t{\n\t\treturn address(m_baseToken);\n\t}\n\n\tfunction viewDeal(bytes32 _id)\n\texternal view returns (IexecODBLibCore.Deal memory deal)\n\t{\n\t\treturn m_deals[_id];\n\t}\n\n\tfunction viewConsumed(bytes32 _id)\n\texternal view returns (uint256 consumed)\n\t{\n\t\treturn m_consumed[_id];\n\t}\n\n\tfunction viewPresigned(bytes32 _id)\n\texternal view returns (bool presigned)\n\t{\n\t\treturn m_presigned[_id];\n\t}\n\n\tfunction viewTask(bytes32 _taskid)\n\texternal view returns (IexecODBLibCore.Task memory)\n\t{\n\t\treturn m_tasks[_taskid];\n\t}\n\n\tfunction viewContribution(bytes32 _taskid, address _worker)\n\texternal view returns (IexecODBLibCore.Contribution memory)\n\t{\n\t\treturn m_contributions[_taskid][_worker];\n\t}\n\n\tfunction viewScore(address _worker)\n\texternal view returns (uint256)\n\t{\n\t\treturn m_workerScores[_worker];\n\t}\n\n\tfunction resultFor(bytes32 id)\n\texternal view returns (bytes memory)\n\t{\n\t\tIexecODBLibCore.Task storage task = m_tasks[id];\n\t\trequire(task.status == IexecODBLibCore.TaskStatusEnum.COMPLETED);\n\t\treturn task.results;\n\t}\n\n\tfunction viewCategory(uint256 _catid)\n\texternal view returns (IexecODBLibCore.Category memory category)\n\t{\n\t\treturn m_categories[_catid];\n\t}\n\n\tfunction countCategory()\n\texternal view returns (uint256 count)\n\t{\n\t\treturn m_categories.length;\n\t}\n}\n",
  "sourcePath": "/home/amxx/Work/iExec/code/PoCo-dev/contracts/delegates/IexecAccessors.sol",
  "compiler": {
    "name": "solc",
    "version": "0.5.10+commit.5a6ea5b1.Emscripten.clang"
  },
  "schemaVersion": "3.0.11",
  "updatedAt": "2019-06-27T08:17:24.480Z",
  "devdoc": {
    "methods": {
      "isOwner()": {
        "details": "Returns true if the caller is the current owner."
      },
      "owner()": {
        "details": "Returns the address of the current owner."
      },
      "renounceOwnership()": {
        "details": "Leaves the contract without owner. It will not be possible to call `onlyOwner` functions anymore. Can only be called by the current owner.     * > Note: Renouncing ownership will leave the contract without an owner, thereby removing any functionality that is only available to the owner."
      },
      "transferOwnership(address)": {
        "details": "Transfers ownership of the contract to a new account (`newOwner`). Can only be called by the current owner."
      }
    }
  },
  "userdoc": {
    "methods": {}
  }
}