{
  "contractName": "IexecHub",
  "abi": [
    {
      "constant": true,
      "inputs": [],
      "name": "m_contributionHistory",
      "outputs": [
        {
          "name": "success",
          "type": "uint256"
        },
        {
          "name": "failled",
          "type": "uint256"
        }
      ],
      "payable": false,
      "stateMutability": "view",
      "type": "function"
    },
    {
      "constant": true,
      "inputs": [],
      "name": "appHub",
      "outputs": [
        {
          "name": "",
          "type": "address"
        }
      ],
      "payable": false,
      "stateMutability": "view",
      "type": "function"
    },
    {
      "constant": true,
      "inputs": [],
      "name": "STAKE_BONUS_MIN_THRESHOLD",
      "outputs": [
        {
          "name": "",
          "type": "uint256"
        }
      ],
      "payable": false,
      "stateMutability": "view",
      "type": "function"
    },
    {
      "constant": true,
      "inputs": [
        {
          "name": "",
          "type": "address"
        }
      ],
      "name": "m_scores",
      "outputs": [
        {
          "name": "",
          "type": "uint256"
        }
      ],
      "payable": false,
      "stateMutability": "view",
      "type": "function"
    },
    {
      "constant": true,
      "inputs": [],
      "name": "workerPoolHub",
      "outputs": [
        {
          "name": "",
          "type": "address"
        }
      ],
      "payable": false,
      "stateMutability": "view",
      "type": "function"
    },
    {
      "constant": true,
      "inputs": [],
      "name": "SCORE_UNITARY_SLASH",
      "outputs": [
        {
          "name": "",
          "type": "uint256"
        }
      ],
      "payable": false,
      "stateMutability": "view",
      "type": "function"
    },
    {
      "constant": true,
      "inputs": [],
      "name": "STAKE_BONUS_RATIO",
      "outputs": [
        {
          "name": "",
          "type": "uint256"
        }
      ],
      "payable": false,
      "stateMutability": "view",
      "type": "function"
    },
    {
      "constant": true,
      "inputs": [],
      "name": "tokenAddress",
      "outputs": [
        {
          "name": "",
          "type": "address"
        }
      ],
      "payable": false,
      "stateMutability": "view",
      "type": "function"
    },
    {
      "constant": true,
      "inputs": [],
      "name": "m_categoriesCount",
      "outputs": [
        {
          "name": "",
          "type": "uint256"
        }
      ],
      "payable": false,
      "stateMutability": "view",
      "type": "function"
    },
    {
      "constant": true,
      "inputs": [],
      "name": "rlc",
      "outputs": [
        {
          "name": "",
          "type": "address"
        }
      ],
      "payable": false,
      "stateMutability": "view",
      "type": "function"
    },
    {
      "constant": true,
      "inputs": [],
      "name": "m_categoriesCreator",
      "outputs": [
        {
          "name": "",
          "type": "address"
        }
      ],
      "payable": false,
      "stateMutability": "view",
      "type": "function"
    },
    {
      "constant": true,
      "inputs": [],
      "name": "datasetHub",
      "outputs": [
        {
          "name": "",
          "type": "address"
        }
      ],
      "payable": false,
      "stateMutability": "view",
      "type": "function"
    },
    {
      "constant": true,
      "inputs": [
        {
          "name": "",
          "type": "address"
        }
      ],
      "name": "m_accounts",
      "outputs": [
        {
          "name": "stake",
          "type": "uint256"
        },
        {
          "name": "locked",
          "type": "uint256"
        }
      ],
      "payable": false,
      "stateMutability": "view",
      "type": "function"
    },
    {
      "constant": true,
      "inputs": [],
      "name": "marketplaceAddress",
      "outputs": [
        {
          "name": "",
          "type": "address"
        }
      ],
      "payable": false,
      "stateMutability": "view",
      "type": "function"
    },
    {
      "constant": true,
      "inputs": [
        {
          "name": "",
          "type": "address"
        }
      ],
      "name": "m_woidRegistered",
      "outputs": [
        {
          "name": "",
          "type": "bool"
        }
      ],
      "payable": false,
      "stateMutability": "view",
      "type": "function"
    },
    {
      "constant": true,
      "inputs": [
        {
          "name": "",
          "type": "uint256"
        }
      ],
      "name": "m_categories",
      "outputs": [
        {
          "name": "catid",
          "type": "uint256"
        },
        {
          "name": "name",
          "type": "string"
        },
        {
          "name": "description",
          "type": "string"
        },
        {
          "name": "workClockTimeRef",
          "type": "uint256"
        }
      ],
      "payable": false,
      "stateMutability": "view",
      "type": "function"
    },
    {
      "inputs": [],
      "payable": false,
      "stateMutability": "nonpayable",
      "type": "constructor"
    },
    {
      "anonymous": false,
      "inputs": [
        {
          "indexed": false,
          "name": "woid",
          "type": "address"
        },
        {
          "indexed": true,
          "name": "workerPool",
          "type": "address"
        }
      ],
      "name": "WorkOrderActivated",
      "type": "event"
    },
    {
      "anonymous": false,
      "inputs": [
        {
          "indexed": false,
          "name": "woid",
          "type": "address"
        },
        {
          "indexed": false,
          "name": "workerPool",
          "type": "address"
        }
      ],
      "name": "WorkOrderClaimed",
      "type": "event"
    },
    {
      "anonymous": false,
      "inputs": [
        {
          "indexed": false,
          "name": "woid",
          "type": "address"
        },
        {
          "indexed": false,
          "name": "workerPool",
          "type": "address"
        }
      ],
      "name": "WorkOrderCompleted",
      "type": "event"
    },
    {
      "anonymous": false,
      "inputs": [
        {
          "indexed": true,
          "name": "appOwner",
          "type": "address"
        },
        {
          "indexed": true,
          "name": "app",
          "type": "address"
        },
        {
          "indexed": false,
          "name": "appName",
          "type": "string"
        },
        {
          "indexed": false,
          "name": "appPrice",
          "type": "uint256"
        },
        {
          "indexed": false,
          "name": "appParams",
          "type": "string"
        }
      ],
      "name": "CreateApp",
      "type": "event"
    },
    {
      "anonymous": false,
      "inputs": [
        {
          "indexed": true,
          "name": "datasetOwner",
          "type": "address"
        },
        {
          "indexed": true,
          "name": "dataset",
          "type": "address"
        },
        {
          "indexed": false,
          "name": "datasetName",
          "type": "string"
        },
        {
          "indexed": false,
          "name": "datasetPrice",
          "type": "uint256"
        },
        {
          "indexed": false,
          "name": "datasetParams",
          "type": "string"
        }
      ],
      "name": "CreateDataset",
      "type": "event"
    },
    {
      "anonymous": false,
      "inputs": [
        {
          "indexed": true,
          "name": "workerPoolOwner",
          "type": "address"
        },
        {
          "indexed": true,
          "name": "workerPool",
          "type": "address"
        },
        {
          "indexed": false,
          "name": "workerPoolDescription",
          "type": "string"
        }
      ],
      "name": "CreateWorkerPool",
      "type": "event"
    },
    {
      "anonymous": false,
      "inputs": [
        {
          "indexed": false,
          "name": "catid",
          "type": "uint256"
        },
        {
          "indexed": false,
          "name": "name",
          "type": "string"
        },
        {
          "indexed": false,
          "name": "description",
          "type": "string"
        },
        {
          "indexed": false,
          "name": "workClockTimeRef",
          "type": "uint256"
        }
      ],
      "name": "CreateCategory",
      "type": "event"
    },
    {
      "anonymous": false,
      "inputs": [
        {
          "indexed": true,
          "name": "workerPool",
          "type": "address"
        },
        {
          "indexed": false,
          "name": "worker",
          "type": "address"
        }
      ],
      "name": "WorkerPoolSubscription",
      "type": "event"
    },
    {
      "anonymous": false,
      "inputs": [
        {
          "indexed": true,
          "name": "workerPool",
          "type": "address"
        },
        {
          "indexed": false,
          "name": "worker",
          "type": "address"
        }
      ],
      "name": "WorkerPoolUnsubscription",
      "type": "event"
    },
    {
      "anonymous": false,
      "inputs": [
        {
          "indexed": true,
          "name": "workerPool",
          "type": "address"
        },
        {
          "indexed": false,
          "name": "worker",
          "type": "address"
        }
      ],
      "name": "WorkerPoolEviction",
      "type": "event"
    },
    {
      "anonymous": false,
      "inputs": [
        {
          "indexed": false,
          "name": "woid",
          "type": "address"
        },
        {
          "indexed": true,
          "name": "worker",
          "type": "address"
        }
      ],
      "name": "AccurateContribution",
      "type": "event"
    },
    {
      "anonymous": false,
      "inputs": [
        {
          "indexed": false,
          "name": "woid",
          "type": "address"
        },
        {
          "indexed": true,
          "name": "worker",
          "type": "address"
        }
      ],
      "name": "FaultyContribution",
      "type": "event"
    },
    {
      "anonymous": false,
      "inputs": [
        {
          "indexed": false,
          "name": "owner",
          "type": "address"
        },
        {
          "indexed": false,
          "name": "amount",
          "type": "uint256"
        }
      ],
      "name": "Deposit",
      "type": "event"
    },
    {
      "anonymous": false,
      "inputs": [
        {
          "indexed": false,
          "name": "owner",
          "type": "address"
        },
        {
          "indexed": false,
          "name": "amount",
          "type": "uint256"
        }
      ],
      "name": "Withdraw",
      "type": "event"
    },
    {
      "anonymous": false,
      "inputs": [
        {
          "indexed": false,
          "name": "user",
          "type": "address"
        },
        {
          "indexed": false,
          "name": "amount",
          "type": "uint256"
        }
      ],
      "name": "Reward",
      "type": "event"
    },
    {
      "anonymous": false,
      "inputs": [
        {
          "indexed": false,
          "name": "user",
          "type": "address"
        },
        {
          "indexed": false,
          "name": "amount",
          "type": "uint256"
        }
      ],
      "name": "Seize",
      "type": "event"
    },
    {
      "constant": false,
      "inputs": [
        {
          "name": "_tokenAddress",
          "type": "address"
        },
        {
          "name": "_marketplaceAddress",
          "type": "address"
        },
        {
          "name": "_workerPoolHubAddress",
          "type": "address"
        },
        {
          "name": "_appHubAddress",
          "type": "address"
        },
        {
          "name": "_datasetHubAddress",
          "type": "address"
        }
      ],
      "name": "attachContracts",
      "outputs": [],
      "payable": false,
      "stateMutability": "nonpayable",
      "type": "function"
    },
    {
      "constant": false,
      "inputs": [
        {
          "name": "_categoriesCreator",
          "type": "address"
        }
      ],
      "name": "setCategoriesCreator",
      "outputs": [],
      "payable": false,
      "stateMutability": "nonpayable",
      "type": "function"
    },
    {
      "constant": false,
      "inputs": [
        {
          "name": "_name",
          "type": "string"
        },
        {
          "name": "_description",
          "type": "string"
        },
        {
          "name": "_workClockTimeRef",
          "type": "uint256"
        }
      ],
      "name": "createCategory",
      "outputs": [
        {
          "name": "catid",
          "type": "uint256"
        }
      ],
      "payable": false,
      "stateMutability": "nonpayable",
      "type": "function"
    },
    {
      "constant": false,
      "inputs": [
        {
          "name": "_description",
          "type": "string"
        },
        {
          "name": "_subscriptionLockStakePolicy",
          "type": "uint256"
        },
        {
          "name": "_subscriptionMinimumStakePolicy",
          "type": "uint256"
        },
        {
          "name": "_subscriptionMinimumScorePolicy",
          "type": "uint256"
        }
      ],
      "name": "createWorkerPool",
      "outputs": [
        {
          "name": "createdWorkerPool",
          "type": "address"
        }
      ],
      "payable": false,
      "stateMutability": "nonpayable",
      "type": "function"
    },
    {
      "constant": false,
      "inputs": [
        {
          "name": "_appName",
          "type": "string"
        },
        {
          "name": "_appPrice",
          "type": "uint256"
        },
        {
          "name": "_appParams",
          "type": "string"
        }
      ],
      "name": "createApp",
      "outputs": [
        {
          "name": "createdApp",
          "type": "address"
        }
      ],
      "payable": false,
      "stateMutability": "nonpayable",
      "type": "function"
    },
    {
      "constant": false,
      "inputs": [
        {
          "name": "_datasetName",
          "type": "string"
        },
        {
          "name": "_datasetPrice",
          "type": "uint256"
        },
        {
          "name": "_datasetParams",
          "type": "string"
        }
      ],
      "name": "createDataset",
      "outputs": [
        {
          "name": "createdDataset",
          "type": "address"
        }
      ],
      "payable": false,
      "stateMutability": "nonpayable",
      "type": "function"
    },
    {
      "constant": false,
      "inputs": [
        {
          "name": "_marketorderIdx",
          "type": "uint256"
        },
        {
          "name": "_workerpool",
          "type": "address"
        },
        {
          "name": "_app",
          "type": "address"
        },
        {
          "name": "_dataset",
          "type": "address"
        },
        {
          "name": "_params",
          "type": "string"
        },
        {
          "name": "_callback",
          "type": "address"
        },
        {
          "name": "_beneficiary",
          "type": "address"
        }
      ],
      "name": "buyForWorkOrder",
      "outputs": [
        {
          "name": "",
          "type": "address"
        }
      ],
      "payable": false,
      "stateMutability": "nonpayable",
      "type": "function"
    },
    {
      "constant": true,
      "inputs": [
        {
          "name": "_woid",
          "type": "address"
        }
      ],
      "name": "isWoidRegistred",
      "outputs": [
        {
          "name": "",
          "type": "bool"
        }
      ],
      "payable": false,
      "stateMutability": "view",
      "type": "function"
    },
    {
      "constant": false,
      "inputs": [
        {
          "name": "_woid",
          "type": "address"
        }
      ],
      "name": "claimFailedConsensus",
      "outputs": [
        {
          "name": "",
          "type": "bool"
        }
      ],
      "payable": false,
      "stateMutability": "nonpayable",
      "type": "function"
    },
    {
      "constant": false,
      "inputs": [
        {
          "name": "_woid",
          "type": "address"
        },
        {
          "name": "_stdout",
          "type": "string"
        },
        {
          "name": "_stderr",
          "type": "string"
        },
        {
          "name": "_uri",
          "type": "string"
        }
      ],
      "name": "finalizeWorkOrder",
      "outputs": [
        {
          "name": "",
          "type": "bool"
        }
      ],
      "payable": false,
      "stateMutability": "nonpayable",
      "type": "function"
    },
    {
      "constant": true,
      "inputs": [
        {
          "name": "_catId",
          "type": "uint256"
        }
      ],
      "name": "getCategoryWorkClockTimeRef",
      "outputs": [
        {
          "name": "workClockTimeRef",
          "type": "uint256"
        }
      ],
      "payable": false,
      "stateMutability": "view",
      "type": "function"
    },
    {
      "constant": true,
      "inputs": [
        {
          "name": "_catId",
          "type": "uint256"
        }
      ],
      "name": "existingCategory",
      "outputs": [
        {
          "name": "categoryExist",
          "type": "bool"
        }
      ],
      "payable": false,
      "stateMutability": "view",
      "type": "function"
    },
    {
      "constant": true,
      "inputs": [
        {
          "name": "_catId",
          "type": "uint256"
        }
      ],
      "name": "getCategory",
      "outputs": [
        {
          "name": "catid",
          "type": "uint256"
        },
        {
          "name": "name",
          "type": "string"
        },
        {
          "name": "description",
          "type": "string"
        },
        {
          "name": "workClockTimeRef",
          "type": "uint256"
        }
      ],
      "payable": false,
      "stateMutability": "view",
      "type": "function"
    },
    {
      "constant": true,
      "inputs": [
        {
          "name": "_worker",
          "type": "address"
        }
      ],
      "name": "getWorkerStatus",
      "outputs": [
        {
          "name": "workerPool",
          "type": "address"
        },
        {
          "name": "workerScore",
          "type": "uint256"
        }
      ],
      "payable": false,
      "stateMutability": "view",
      "type": "function"
    },
    {
      "constant": true,
      "inputs": [
        {
          "name": "_worker",
          "type": "address"
        }
      ],
      "name": "getWorkerScore",
      "outputs": [
        {
          "name": "workerScore",
          "type": "uint256"
        }
      ],
      "payable": false,
      "stateMutability": "view",
      "type": "function"
    },
    {
      "constant": false,
      "inputs": [
        {
          "name": "_worker",
          "type": "address"
        }
      ],
      "name": "registerToPool",
      "outputs": [
        {
          "name": "subscribed",
          "type": "bool"
        }
      ],
      "payable": false,
      "stateMutability": "nonpayable",
      "type": "function"
    },
    {
      "constant": false,
      "inputs": [
        {
          "name": "_worker",
          "type": "address"
        }
      ],
      "name": "unregisterFromPool",
      "outputs": [
        {
          "name": "unsubscribed",
          "type": "bool"
        }
      ],
      "payable": false,
      "stateMutability": "nonpayable",
      "type": "function"
    },
    {
      "constant": false,
      "inputs": [
        {
          "name": "_worker",
          "type": "address"
        }
      ],
      "name": "evictWorker",
      "outputs": [
        {
          "name": "unsubscribed",
          "type": "bool"
        }
      ],
      "payable": false,
      "stateMutability": "nonpayable",
      "type": "function"
    },
    {
      "constant": false,
      "inputs": [
        {
          "name": "_user",
          "type": "address"
        },
        {
          "name": "_amount",
          "type": "uint256"
        }
      ],
      "name": "lockForOrder",
      "outputs": [
        {
          "name": "",
          "type": "bool"
        }
      ],
      "payable": false,
      "stateMutability": "nonpayable",
      "type": "function"
    },
    {
      "constant": false,
      "inputs": [
        {
          "name": "_user",
          "type": "address"
        },
        {
          "name": "_amount",
          "type": "uint256"
        }
      ],
      "name": "unlockForOrder",
      "outputs": [
        {
          "name": "",
          "type": "bool"
        }
      ],
      "payable": false,
      "stateMutability": "nonpayable",
      "type": "function"
    },
    {
      "constant": false,
      "inputs": [
        {
          "name": "_woid",
          "type": "address"
        },
        {
          "name": "_user",
          "type": "address"
        },
        {
          "name": "_amount",
          "type": "uint256"
        }
      ],
      "name": "lockForWork",
      "outputs": [
        {
          "name": "",
          "type": "bool"
        }
      ],
      "payable": false,
      "stateMutability": "nonpayable",
      "type": "function"
    },
    {
      "constant": false,
      "inputs": [
        {
          "name": "_woid",
          "type": "address"
        },
        {
          "name": "_user",
          "type": "address"
        },
        {
          "name": "_amount",
          "type": "uint256"
        }
      ],
      "name": "unlockForWork",
      "outputs": [
        {
          "name": "",
          "type": "bool"
        }
      ],
      "payable": false,
      "stateMutability": "nonpayable",
      "type": "function"
    },
    {
      "constant": false,
      "inputs": [
        {
          "name": "_woid",
          "type": "address"
        },
        {
          "name": "_worker",
          "type": "address"
        },
        {
          "name": "_amount",
          "type": "uint256"
        },
        {
          "name": "_reputation",
          "type": "bool"
        }
      ],
      "name": "rewardForWork",
      "outputs": [
        {
          "name": "",
          "type": "bool"
        }
      ],
      "payable": false,
      "stateMutability": "nonpayable",
      "type": "function"
    },
    {
      "constant": false,
      "inputs": [
        {
          "name": "_woid",
          "type": "address"
        },
        {
          "name": "_worker",
          "type": "address"
        },
        {
          "name": "_amount",
          "type": "uint256"
        },
        {
          "name": "_reputation",
          "type": "bool"
        }
      ],
      "name": "seizeForWork",
      "outputs": [
        {
          "name": "",
          "type": "bool"
        }
      ],
      "payable": false,
      "stateMutability": "nonpayable",
      "type": "function"
    },
    {
      "constant": false,
      "inputs": [
        {
          "name": "_amount",
          "type": "uint256"
        }
      ],
      "name": "deposit",
      "outputs": [
        {
          "name": "",
          "type": "bool"
        }
      ],
      "payable": false,
      "stateMutability": "nonpayable",
      "type": "function"
    },
    {
      "constant": false,
      "inputs": [
        {
          "name": "_amount",
          "type": "uint256"
        }
      ],
      "name": "withdraw",
      "outputs": [
        {
          "name": "",
          "type": "bool"
        }
      ],
      "payable": false,
      "stateMutability": "nonpayable",
      "type": "function"
    },
    {
      "constant": true,
      "inputs": [
        {
          "name": "_owner",
          "type": "address"
        }
      ],
      "name": "checkBalance",
      "outputs": [
        {
          "name": "stake",
          "type": "uint256"
        },
        {
          "name": "locked",
          "type": "uint256"
        }
      ],
      "payable": false,
      "stateMutability": "view",
      "type": "function"
    }
  ],
  "bytecode": "0x6060604052341561000f57600080fd5b6144af8061001e6000396000f300606060405260043610620002215763ffffffff60e060020a6000350416630800b89e8114620002265780630c91f2d0146200024a57806310793b50146200028e5780631708d72514620002bc5780631f87172614620002de578063234a0ee71462000309578063298503d9146200033b5780632e1a7d4d14620003d357806332baa8d914620003ec57806332ca5587146200040557806339b7312214620004275780634f73b8e61462000458578063536e2800146200046e5780635f51522614620004b857806366de5a4f14620004da57806369e99b5c14620005055780636b4f686514620005275780636e885bd71462000552578063747bcd721462000568578063817e8332146200057e578063835436b414620005945780638981d07714620005b65780638986916314620005e15780638c0f8e1114620006035780639d76ea5814620006255780639fdf9625146200063b578063a0efe255146200066b578063ac26109e1462000681578063b017c03614620006a6578063b218cf1514620006bc578063b6b55f2514620006de578063b6b57ebd14620006f7578063b6b8c3cd14620007dd578063b7b6e97814620007f3578063bc04d77b1462000818578063be02ee6e146200082e578063daa17f491462000850578063ddaeb6001462000866578063e760a11a1462000888578063eeeb2ba014620008c2578063f3052d2614620009d0578063f69f190c14620009e9578063fc06a8771462000a2d575b600080fd5b34156200023257600080fd5b62000248600160a060020a036004351662000a5e565b005b34156200025657600080fd5b6200027a600160a060020a0360043581169060243516604435606435151562000ad6565b604051901515815260200160405180910390f35b34156200029a57600080fd5b620002a462000c1a565b60405191825260208201526040908101905180910390f35b3415620002c857600080fd5b6200027a600160a060020a036004351662000c23565b3415620002ea57600080fd5b620002f760043562000c8c565b60405190815260200160405180910390f35b34156200031557600080fd5b6200031f62000cbb565b604051600160a060020a03909116815260200160405180910390f35b34156200034757600080fd5b620002f760046024813581810190830135806020601f8201819004810201604051908101604052818152929190602084018383808284378201915050505050509190803590602001908201803590602001908080601f016020809104026020016040519081016040528181529291906020840183838082843750949650509335935062000cca92505050565b3415620003df57600080fd5b6200027a60043562000e78565b3415620003f857600080fd5b6200027a60043562000f80565b34156200041157600080fd5b6200027a600160a060020a036004351662000f93565b34156200043357600080fd5b6200031f60246004803582810192908201359181359160443590810191013562000fb1565b34156200046457600080fd5b620002f7620010ef565b34156200047a57600080fd5b6200031f6004803590600160a060020a03602480358216926044358316926064358116926084359081019201359060a43581169060c43516620010f5565b3415620004c457600080fd5b620002a4600160a060020a03600435166200131f565b3415620004e657600080fd5b6200031f60246004803582810192910135903560443560643562001342565b34156200051157600080fd5b620002f7600160a060020a03600435166200146f565b34156200053357600080fd5b6200027a600160a060020a036004358116906024351660443562001481565b34156200055e57600080fd5b6200031f6200151b565b34156200057457600080fd5b620002f76200152a565b34156200058a57600080fd5b620002f76200152f565b3415620005a057600080fd5b6200027a600160a060020a036004351662001534565b3415620005c257600080fd5b6200027a600160a060020a03600435811690602435166044356200159d565b3415620005ed57600080fd5b6200027a600160a060020a036004351662001621565b34156200060f57600080fd5b620002f7600160a060020a036004351662001c0b565b34156200063157600080fd5b6200031f62001c26565b34156200064757600080fd5b6200027a600160a060020a0360043581169060243516604435606435151562001c35565b34156200067757600080fd5b620002f762001da3565b34156200068d57600080fd5b6200027a600160a060020a036004351660243562001da9565b3415620006b257600080fd5b6200031f62001de9565b3415620006c857600080fd5b6200027a600160a060020a036004351662001df8565b3415620006ea57600080fd5b6200027a600435620020a2565b34156200070357600080fd5b6200027a60048035600160a060020a03169060446024803590810190830135806020601f8201819004810201604051908101604052818152929190602084018383808284378201915050505050509190803590602001908201803590602001908080601f01602080910402602001604051908101604052818152929190602084018383808284378201915050505050509190803590602001908201803590602001908080601f016020809104026020016040519081016040528181529291906020840183838082843750949650620021c095505050505050565b3415620007e957600080fd5b6200031f62002a90565b3415620007ff57600080fd5b6200027a600160a060020a036004351660243562002a9f565b34156200082457600080fd5b6200031f62002aca565b34156200083a57600080fd5b620002a4600160a060020a036004351662002ad9565b34156200085c57600080fd5b6200031f62002af2565b34156200087257600080fd5b6200027a600160a060020a036004351662002b01565b34156200089457600080fd5b62000248600160a060020a036004358116906024358116906044358116906064358116906084351662002b16565b3415620008ce57600080fd5b620008db60043562002bb0565b604051808581526020018060200180602001848152602001838103835286818151815260200191508051906020019080838360005b838110156200092a57808201518382015260200162000910565b50505050905090810190601f168015620009585780820380516001836020036101000a031916815260200191505b50838103825285818151815260200191508051906020019080838360005b838110156200099057808201518382015260200162000976565b50505050905090810190601f168015620009be5780820380516001836020036101000a031916815260200191505b50965050505050505060405180910390f35b3415620009dc57600080fd5b620008db60043562002d18565b3415620009f557600080fd5b62000a0b600160a060020a036004351662002ebe565b604051600160a060020a03909216825260208201526040908101905180910390f35b341562000a3957600080fd5b6200031f60246004803582810192908201359181359160443590810191013562002f4d565b600954600160a060020a0316158062000a9b5750600954600160a060020a03161580159062000a9b575060095433600160a060020a039081169116145b151562000aa757600080fd5b6009805473ffffffffffffffffffffffffffffffffffffffff1916600160a060020a0392909216919091179055565b600033600160a060020a031685600160a060020a0316630690e5b86040518163ffffffff1660e060020a028152600401602060405180830381600087803b151562000b2057600080fd5b5af1151562000b2e57600080fd5b50505060405180519050600160a060020a031614151562000b4e57600080fd5b62000b5a84846200308b565b151562000b6657600080fd5b811562000c0f57600d5462000b8390600163ffffffff6200312216565b600d55600160a060020a0384166000908152600c602052604090205462000bb290600163ffffffff6200312216565b600160a060020a0385166000818152600c60205260409081902092909255907f98b231d22df4a95e9d99b5d3f4d25fab5a821c22d7f517a522731c2892ed453590879051600160a060020a03909116815260200160405180910390a25b506001949350505050565b600d54600e5482565b600062000c3133836200313d565b151562000c3d57600080fd5b33600160a060020a03167f9644170e77fec17243f5fdc3519cba6d2162d1dda59af75508fd9a2005aeb78483604051600160a060020a03909116815260200160405180910390a2506001919050565b600062000c998262000f80565b151562000ca557600080fd5b5060009081526007602052604090206003015490565b600254600160a060020a031681565b600954600090819033600160a060020a0390811691161462000ceb57600080fd5b60085462000d0190600163ffffffff6200312216565b6008819055600081815260076020526040902090815590506001810185805162000d3092916020019062003761565b506002810184805162000d4892916020019062003761565b50600381018390556008547f62bf08360c9d561749c54eaf4f8bf8cb6c8b6f4f40607bcec39a8172e714d25c90868686604051808581526020018060200180602001848152602001838103835286818151815260200191508051906020019080838360005b8381101562000dc757808201518382015260200162000dad565b50505050905090810190601f16801562000df55780820380516001836020036101000a031916815260200191505b50838103825285818151815260200191508051906020019080838360005b8381101562000e2d57808201518382015260200162000e13565b50505050905090810190601f16801562000e5b5780820380516001836020036101000a031916815260200191505b50965050505050505060405180910390a150506008549392505050565b600160a060020a0333166000908152600a602052604081205462000ea3908363ffffffff620032a116565b33600160a060020a038181166000908152600a60205260408082209490945554169163a9059cbb919085905160e060020a63ffffffff8516028152600160a060020a0390921660048301526024820152604401602060405180830381600087803b151562000f1057600080fd5b5af1151562000f1e57600080fd5b50505060405180519050151562000f3457600080fd5b7f884edad9ce6fa2440d8a54cc123490eb96d2768479d49ff9c7366125a94243643383604051600160a060020a03909216825260208201526040908101905180910390a1506001919050565b6000908152600760205260408120541190565b600160a060020a03166000908152600b602052604090205460ff1690565b6003546000908190600160a060020a03166339b7312288888888886040518663ffffffff1660e060020a0281526004018080602001858152602001806020018381038352888882818152602001925080828437909101848103835285815260200190508585808284378201915050975050505050505050602060405180830381600087803b15156200104257600080fd5b5af115156200105057600080fd5b50505060405180519050905080600160a060020a031632600160a060020a03167f49413c774d3fe9c92f6ada69299963d9b4b1c13a1f2a95a019188e2c161ed1438989898989604051602081018490526060808252810185905280604081016080820188888082843790910184810383528581526020019050858580828437820191505097505050505050505060405180910390a39695505050505050565b6103e881565b600554600090339082908190600160a060020a03166302a63c288d858e60405160e060020a63ffffffff86160281526004810193909352600160a060020a039182166024840152166044820152606401602060405180830381600087803b15156200115f57600080fd5b5af115156200116d57600080fd5b5050506040518051905015156200118357600080fd5b62001191838c8c8c620032b4565b91508b838b8b8e868d8d8d8d620011a7620037e6565b8a8152600160a060020a03808b16602083015289811660408301528881166060830152878116608083015260a0820187905283811660e0830152821661010082015261012060c08201818152908201859052610140820186868082843782019150509b505050505050505050505050604051809103906000f08015156200122d57600080fd5b600160a060020a038082166000908152600b602052604090819020805460ff191660011790559192508c1690637919233f9083908f905160e060020a63ffffffff8516028152600160a060020a0390921660048301526024820152604401602060405180830381600087803b1515620012a557600080fd5b5af11515620012b357600080fd5b505050604051805190501515620012c957600080fd5b8a600160a060020a03167f359f2105b31d71ee8e2315c3dc3427b3f7297dcc85dd3883d4554e67f1f22d0082604051600160a060020a03909116815260200160405180910390a29b9a5050505050505050505050565b600160a060020a03166000908152600a6020526040902080546001909101549091565b6004546006546000918291600160a060020a039182169163215bd303918a918a918a918a918a91166040518763ffffffff1660e060020a028152600401808060200186815260200185815260200184815260200183600160a060020a0316600160a060020a0316815260200182810382528888828181526020019250808284378201915050975050505050505050602060405180830381600087803b1515620013ea57600080fd5b5af11515620013f857600080fd5b50505060405180519050905080600160a060020a031632600160a060020a03167f3c29f4ff1e741e465a1ad9cc4c0b8e51c046c021ca9e77172d812ae667f566f889896040516020808252810182905280604081018484808284378201915050935050505060405180910390a39695505050505050565b600c6020526000908152604090205481565b600033600160a060020a031684600160a060020a0316630690e5b86040518163ffffffff1660e060020a028152600401602060405180830381600087803b1515620014cb57600080fd5b5af11515620014d957600080fd5b50505060405180519050600160a060020a0316141515620014f957600080fd5b62001505838362003513565b15156200151157600080fd5b5060019392505050565b600454600160a060020a031681565b603281565b600a81565b60006200154233836200313d565b15156200154e57600080fd5b33600160a060020a03167f5580db655b3146ef4d1fdba3305cf74dbc3f29126c7a3832533f84e00d149ee383604051600160a060020a03909116815260200160405180910390a2506001919050565b600033600160a060020a031684600160a060020a0316630690e5b86040518163ffffffff1660e060020a028152600401602060405180830381600087803b1515620015e757600080fd5b5af11515620015f557600080fd5b50505060405180519050600160a060020a03161415156200161557600080fd5b62001505838362003596565b600160a060020a0381166000908152600b602052604081205481908190819081908190819060ff1615156200165557600080fd5b87955033600160a060020a031686600160a060020a0316635f44910c6040518163ffffffff1660e060020a028152600401602060405180830381600087803b1515620016a057600080fd5b5af11515620016ae57600080fd5b50505060405180519050600160a060020a0316141515620016ce57600080fd5b85600160a060020a0316630690e5b86040518163ffffffff1660e060020a028152600401602060405180830381600087803b15156200170c57600080fd5b5af115156200171a57600080fd5b5050506040518051955050600160a060020a03861663e329c4786040518163ffffffff1660e060020a028152600401602060405180830381600087803b15156200176357600080fd5b5af115156200177157600080fd5b50505060405180519450600190508460048111156200178c57fe5b1480620017a557506002846004811115620017a357fe5b145b1515620017b157600080fd5b84600160a060020a031663898691638960405160e060020a63ffffffff8416028152600160a060020a039091166004820152602401602060405180830381600087803b15156200180057600080fd5b5af115156200180e57600080fd5b5050506040518051905015156200182457600080fd5b85600160a060020a0316634e71d92d6040518163ffffffff1660e060020a028152600401600060405180830381600087803b15156200186257600080fd5b5af115156200187057600080fd5b5050600554600160a060020a0390811691506338c4090b90881663ecc40f646040518163ffffffff1660e060020a028152600401602060405180830381600087803b1515620018be57600080fd5b5af11515620018cc57600080fd5b5050506040518051905060405160e060020a63ffffffff84160281526004810191909152602401602060405180830381600087803b15156200190d57600080fd5b5af115156200191b57600080fd5b5050506040518051600554909450600160a060020a0390811691506355d66c3e90881663ecc40f646040518163ffffffff1660e060020a028152600401602060405180830381600087803b15156200197257600080fd5b5af115156200198057600080fd5b5050506040518051905060405160e060020a63ffffffff84160281526004810191909152602401602060405180830381600087803b1515620019c157600080fd5b5af11515620019cf57600080fd5b505050604051805160055490935062001a459150600160a060020a0316636b14ea366040518163ffffffff1660e060020a028152600401602060405180830381600087803b151562001a2057600080fd5b5af1151562001a2e57600080fd5b505050604051805185915063ffffffff6200361b16565b905062001b0e86600160a060020a0316635f44910c6040518163ffffffff1660e060020a028152600401602060405180830381600087803b151562001a8957600080fd5b5af1151562001a9757600080fd5b5050506040518051905062001b0888600160a060020a0316638628aaff6040518163ffffffff1660e060020a028152600401602060405180830381600087803b151562001ae357600080fd5b5af1151562001af157600080fd5b505050604051805187915063ffffffff6200312216565b62003513565b151562001b1a57600080fd5b62001b26828262003632565b151562001b3257600080fd5b62001b3e30826200308b565b151562001b4a57600080fd5b62001b56308262003596565b151562001b6257600080fd5b7fb3cae8ec1c2754530963fb2e254826aae88dda74178f1a0c5656776941e604b88887600160a060020a0316630690e5b86040518163ffffffff1660e060020a028152600401602060405180830381600087803b151562001bc257600080fd5b5af1151562001bd057600080fd5b50505060405180519050604051600160a060020a039283168152911660208201526040908101905180910390a1506001979650505050505050565b600160a060020a03166000908152600c602052604090205490565b600154600160a060020a031681565b600033600160a060020a031685600160a060020a0316630690e5b86040518163ffffffff1660e060020a028152600401602060405180830381600087803b151562001c7f57600080fd5b5af1151562001c8d57600080fd5b50505060405180519050600160a060020a031614151562001cad57600080fd5b62001cb9848462003632565b151562001cc557600080fd5b811562000c0f57600e5462001ce290600163ffffffff6200312216565b600e55600160a060020a0384166000908152600c602052604090205462001d3c9062001d1690603263ffffffff620036cf16565b600160a060020a0386166000908152600c60205260409020549063ffffffff620032a116565b600160a060020a0385166000818152600c60205260409081902092909255907fd21e70eb7104cb6f403402b79fe1c088dc56b69ecb7474ae68a3e861a5a6d49990879051600160a060020a03909116815260200160405180910390a2506001949350505050565b60085481565b60065460009033600160a060020a0390811691161462001dc857600080fd5b62001dd4838362003596565b151562001de057600080fd5b50600192915050565b600054600160a060020a031681565b6004546000903390600160a060020a03166368c197dd8260405160e060020a63ffffffff8416028152600160a060020a039091166004820152602401602060405180830381600087803b151562001e4e57600080fd5b5af1151562001e5c57600080fd5b50505060405180519050151562001e7257600080fd5b62001ed38382600160a060020a031663e2d36ef56040518163ffffffff1660e060020a028152600401602060405180830381600087803b151562001eb557600080fd5b5af1151562001ec357600080fd5b5050506040518051905062003596565b151562001edf57600080fd5b80600160a060020a0316636ab6936a6040518163ffffffff1660e060020a028152600401602060405180830381600087803b151562001f1d57600080fd5b5af1151562001f2b57600080fd5b5050506040518051600160a060020a0385166000908152600a60205260409020541015905062001f5a57600080fd5b80600160a060020a031663cc6f06a36040518163ffffffff1660e060020a028152600401602060405180830381600087803b151562001f9857600080fd5b5af1151562001fa657600080fd5b5050506040518051600160a060020a0385166000908152600c60205260409020541015905062001fd557600080fd5b600454600160a060020a0316631884c517338560405160e060020a63ffffffff8516028152600160a060020a03928316600482015291166024820152604401602060405180830381600087803b15156200202e57600080fd5b5af115156200203c57600080fd5b5050506040518051905015156200205257600080fd5b33600160a060020a03167fd3548f8b6a2a11c4a35ef5a16dbf7142c9db5163c7d46e7f66482664277cff0784604051600160a060020a03909116815260200160405180910390a250600192915050565b60008054600160a060020a03166323b872dd33308560405160e060020a63ffffffff8616028152600160a060020a0393841660048201529190921660248201526044810191909152606401602060405180830381600087803b15156200210757600080fd5b5af115156200211557600080fd5b5050506040518051905015156200212b57600080fd5b600160a060020a0333166000908152600a602052604090205462002156908363ffffffff6200312216565b33600160a060020a0381166000908152600a602052604090819020929092557fe1fffcc4923d04b559f4d29a8bfc6cda04eb5b0d3c460751c2402c5c5cc9109c91849051600160a060020a03909216825260208201526040908101905180910390a1506001919050565b600084818080808080808080600160a060020a03338116908b16630690e5b86040518163ffffffff1660e060020a028152600401602060405180830381600087803b15156200220e57600080fd5b5af115156200221c57600080fd5b50505060405180519050600160a060020a03161415156200223c57600080fd5b60028a600160a060020a031663e329c4786040518163ffffffff1660e060020a028152600401602060405180830381600087803b15156200227c57600080fd5b5af115156200228a57600080fd5b505050604051805190506004811115620022a057fe5b14620022ab57600080fd5b89600160a060020a0316636946f6926040518163ffffffff1660e060020a028152600401602060405180830381600087803b1515620022e957600080fd5b5af11515620022f757600080fd5b5050506040518051995050600160a060020a0389166326137e6b6040518163ffffffff1660e060020a028152600401602060405180830381600087803b15156200234057600080fd5b5af115156200234e57600080fd5b50505060405180519850506000881115620023d057620023c489600160a060020a031663deff41c16040518163ffffffff1660e060020a028152600401602060405180830381600087803b1515620023a557600080fd5b5af11515620023b357600080fd5b50505060405180519050896200308b565b1515620023d057600080fd5b89600160a060020a03166371a599ca6040518163ffffffff1660e060020a028152600401602060405180830381600087803b15156200240e57600080fd5b5af115156200241c57600080fd5b5050506040518051975050600160a060020a03871615620025055786600160a060020a03166362d598eb6040518163ffffffff1660e060020a028152600401602060405180830381600087803b15156200247557600080fd5b5af115156200248357600080fd5b505050604051805196505060008611156200250557620024f987600160a060020a031663deff41c16040518163ffffffff1660e060020a028152600401602060405180830381600087803b1515620024da57600080fd5b5af11515620024e857600080fd5b50505060405180519050876200308b565b15156200250557600080fd5b600554600160a060020a03908116906338c4090b908c1663ecc40f646040518163ffffffff1660e060020a028152600401602060405180830381600087803b15156200255057600080fd5b5af115156200255e57600080fd5b5050506040518051905060405160e060020a63ffffffff84160281526004810191909152602401602060405180830381600087803b15156200259f57600080fd5b5af11515620025ad57600080fd5b5050506040518051600554909650600160a060020a0390811691506355d66c3e908c1663ecc40f646040518163ffffffff1660e060020a028152600401602060405180830381600087803b15156200260457600080fd5b5af115156200261257600080fd5b5050506040518051905060405160e060020a63ffffffff84160281526004810191909152602401602060405180830381600087803b15156200265357600080fd5b5af115156200266157600080fd5b5050506040518051600554909550620026d79150600160a060020a0316636b14ea366040518163ffffffff1660e060020a028152600401602060405180830381600087803b1515620026b257600080fd5b5af11515620026c057600080fd5b505050604051805187915063ffffffff6200361b16565b9250620027a08a600160a060020a0316635f44910c6040518163ffffffff1660e060020a028152600401602060405180830381600087803b15156200271b57600080fd5b5af115156200272957600080fd5b505050604051805190506200279a8c600160a060020a0316638628aaff6040518163ffffffff1660e060020a028152600401602060405180830381600087803b15156200277557600080fd5b5af115156200278357600080fd5b505050604051805189915063ffffffff6200312216565b62003632565b1515620027ac57600080fd5b620027b8848462003513565b1515620027c457600080fd5b89600160a060020a031663d5fdfdbc8f8f8f6040518463ffffffff1660e060020a02815260040180806020018060200180602001848103845287818151815260200191508051906020019080838360005b838110156200282f57808201518382015260200162002815565b50505050905090810190601f1680156200285d5780820380516001836020036101000a031916815260200191505b50848103835286818151815260200191508051906020019080838360005b83811015620028955780820151838201526020016200287b565b50505050905090810190601f168015620028c35780820380516001836020036101000a031916815260200191505b50848103825285818151815260200191508051906020019080838360005b83811015620028fb578082015183820152602001620028e1565b50505050905090810190601f168015620029295780820380516001836020036101000a031916815260200191505b509650505050505050600060405180830381600087803b15156200294c57600080fd5b5af115156200295a57600080fd5b50505062002968306200131f565b9250506000821115620029e057620029ae620029a06103e86200299385600a63ffffffff6200361b16565b9063ffffffff620036e716565b839063ffffffff620036cf16565b9050620029bc308262003632565b1515620029c857600080fd5b620029d484826200308b565b1515620029e057600080fd5b7fed236d0a24cb7a32c76960696e44bac711b80ef76780688405dc96c2495b75f98f8b600160a060020a0316630690e5b86040518163ffffffff1660e060020a028152600401602060405180830381600087803b151562002a4057600080fd5b5af1151562002a4e57600080fd5b50505060405180519050604051600160a060020a039283168152911660208201526040908101905180910390a15060019e9d5050505050505050505050505050565b600954600160a060020a031681565b60065460009033600160a060020a0390811691161462002abe57600080fd5b62001dd4838362003513565b600354600160a060020a031681565b600a602052600090815260409020805460019091015482565b600654600160a060020a031681565b600b6020526000908152604090205460ff1681565b600154600160a060020a03161562002b2d57600080fd5b60018054600160a060020a0396871673ffffffffffffffffffffffffffffffffffffffff199182168117909255600080548216909217909155600680549587169582168617905560058054821690951790945560048054938616938516939093179092556002805491851691841691909117905560038054919093169116179055565b6007602052806000526040600020600091509050806000015490806001018054600181600116156101000203166002900480601f01602080910402602001604051908101604052809291908181526020018280546001816001161561010002031660029004801562002c665780601f1062002c3a5761010080835404028352916020019162002c66565b820191906000526020600020905b81548152906001019060200180831162002c4857829003601f168201915b505050505090806002018054600181600116156101000203166002900480601f01602080910402602001604051908101604052809291908181526020018280546001816001161561010002031660029004801562002d085780601f1062002cdc5761010080835404028352916020019162002d08565b820191906000526020600020905b81548152906001019060200180831162002cea57829003601f168201915b5050505050908060030154905084565b600062002d24620037f7565b62002d2e620037f7565b600062002d3b8562000f80565b151562002d4757600080fd5b60008581526007602090815260409182902080546003820154600180840180549396909560029586019593948794938116156101000260001901169290920491601f83018190048102019051908101604052809291908181526020018280546001816001161561010002031660029004801562002e085780601f1062002ddc5761010080835404028352916020019162002e08565b820191906000526020600020905b81548152906001019060200180831162002dea57829003601f168201915b50505050509250818054600181600116156101000203166002900480601f01602080910402602001604051908101604052809291908181526020018280546001816001161561010002031660029004801562002ea85780601f1062002e7c5761010080835404028352916020019162002ea8565b820191906000526020600020905b81548152906001019060200180831162002e8a57829003601f168201915b5050505050915093509350935093509193509193565b6004546000908190600160a060020a031663d440c6f38460405160e060020a63ffffffff8416028152600160a060020a039091166004820152602401602060405180830381600087803b151562002f1457600080fd5b5af1151562002f2257600080fd5b5050506040518051600160a060020a03949094166000908152600c6020526040902054939492505050565b6002546000908190600160a060020a031663fc06a87788888888886040518663ffffffff1660e060020a0281526004018080602001858152602001806020018381038352888882818152602001925080828437909101848103835285815260200190508585808284378201915050975050505050505050602060405180830381600087803b151562002fde57600080fd5b5af1151562002fec57600080fd5b50505060405180519050905080600160a060020a031632600160a060020a03167f03d3b6187bbe7d21aa3cf229e292ba41fa8bca6ec2128c0f1625178b8191cdc28989898989604051602081018490526060808252810185905280604081016080820188888082843790910184810383528581526020019050858580828437820191505097505050505050505060405180910390a39695505050505050565b600160a060020a0382166000908152600a6020526040812054620030b6908363ffffffff6200312216565b600160a060020a0384166000908152600a602052604090819020919091557f619caafabdd75649b302ba8419e48cccf64f37f1983ac4727cfb38b57703ffc9908490849051600160a060020a03909216825260208201526040908101905180910390a150600192915050565b6000828201838110156200313257fe5b8091505b5092915050565b6004546000908390600160a060020a03166368c197dd8260405160e060020a63ffffffff8416028152600160a060020a039091166004820152602401602060405180830381600087803b15156200319357600080fd5b5af11515620031a157600080fd5b505050604051805190501515620031b757600080fd5b620032188382600160a060020a031663e2d36ef56040518163ffffffff1660e060020a028152600401602060405180830381600087803b1515620031fa57600080fd5b5af115156200320857600080fd5b5050506040518051905062003513565b15156200322457600080fd5b600454600160a060020a0316630b00de8d858560405160e060020a63ffffffff8516028152600160a060020a03928316600482015291166024820152604401602060405180830381600087803b15156200327d57600080fd5b5af115156200328b57600080fd5b5050506040518051905015156200151157600080fd5b600082821115620032ae57fe5b50900390565b600254600090839082908190600160a060020a0316638403be918460405160e060020a63ffffffff8416028152600160a060020a039091166004820152602401602060405180830381600087803b15156200330e57600080fd5b5af115156200331c57600080fd5b5050506040518051905015156200333257600080fd5b82600160a060020a03166326137e6b6040518163ffffffff1660e060020a028152600401602060405180830381600087803b15156200337057600080fd5b5af115156200337e57600080fd5b5050506040518051925050600160a060020a038516156200347b57506003548490600160a060020a03166316265b4e8260405160e060020a63ffffffff8416028152600160a060020a039091166004820152602401602060405180830381600087803b1515620033ed57600080fd5b5af11515620033fb57600080fd5b5050506040518051905015156200341157600080fd5b6200347881600160a060020a03166362d598eb6040518163ffffffff1660e060020a028152600401602060405180830381600087803b15156200345357600080fd5b5af115156200346157600080fd5b505050604051805184915063ffffffff6200312216565b91505b600454600160a060020a03166368c197dd8860405160e060020a63ffffffff8416028152600160a060020a039091166004820152602401602060405180830381600087803b1515620034cc57600080fd5b5af11515620034da57600080fd5b505050604051805190501515620034f057600080fd5b620034fc888362003596565b15156200350857600080fd5b509695505050505050565b600160a060020a0382166000908152600a602052604081206001015462003541908363ffffffff620032a116565b600160a060020a0384166000908152600a6020526040902060018101919091555462003574908363ffffffff6200312216565b600160a060020a0384166000908152600a602052604090205550600192915050565b600160a060020a0382166000908152600a6020526040812054620035c1908363ffffffff620032a116565b600160a060020a0384166000908152600a6020526040902090815560010154620035f2908363ffffffff6200312216565b600160a060020a0384166000908152600a60205260409020600190810191909155905092915050565b60006200362b83836064620036f9565b9392505050565b600160a060020a0382166000908152600a602052604081206001015462003660908363ffffffff620032a116565b600160a060020a0384166000908152600a602052604090819020600101919091557f4051ba94e08bb094159fc38391422b4b8ccfd2b1f8919c0eb37bb042d4b9cd8e908490849051600160a060020a03909216825260208201526040908101905180910390a150600192915050565b6000818310620036e057816200362b565b5090919050565b600081831015620036e057816200362b565b6000620037126200370b85856200371a565b8362003749565b949350505050565b6000808315156200372f576000915062003136565b508282028284828115156200374057fe5b04146200313257fe5b60008082848115156200375857fe5b04949350505050565b828054600181600116156101000203166002900490600052602060002090601f016020900481019282601f10620037a457805160ff1916838001178555620037d4565b82800160010185558215620037d4579182015b82811115620037d4578251825591602001919060010190620037b7565b50620037e292915062003809565b5090565b604051610c5a806200382a83390190565b60206040519081016040526000815290565b6200382691905b80821115620037e2576000815560010162003810565b9056006060604052341561000f57600080fd5b604051610c5a380380610c5a8339810160405280805191906020018051919060200180519190602001805191906020018051919060200180519190602001805182019190602001805191906020018051600e8054600160a060020a03191633600160a060020a039081169190911790915590925089161515905061009257600080fd5b6000805460ff1916600190811790915589905560028054600160a060020a0319908116600160a060020a038a81169190911790925560038054821689841617905560048054821688841617905560058054909116918a1691909117905560068490556007838051610107929160200190610141565b5060088054600160a060020a03938416600160a060020a03199182161790915560098054929093169116179055506101dc95505050505050565b828054600181600116156101000203166002900490600052602060002090601f016020900481019282601f1061018257805160ff19168380011785556101af565b828001600101855582156101af579182015b828111156101af578251825591602001919060010190610194565b506101bb9291506101bf565b5090565b6101d991905b808211156101bb57600081556001016101c5565b90565b610a6f806101eb6000396000f3006060604052600436106101065763ffffffff7c01000000000000000000000000000000000000000000000000000000006000350416630690e5b8811461010b57806315298c771461013a5780631a514d97146101c45780632d4d671f146101eb5780634e71d92d146101fe5780635f44910c146102135780636946f6921461022657806371a599ca146102395780638628aaff1461024c5780639c4a856114610271578063cc3a2dfa14610284578063d3281fd614610297578063d3a69e01146102aa578063d5fdfdbc146102bd578063da1fea2814610392578063e329c478146103a5578063ecc40f64146103dc578063f3859f57146103ef578063f6a5b13e14610402575b600080fd5b341561011657600080fd5b61011e610415565b604051600160a060020a03909116815260200160405180910390f35b341561014557600080fd5b61014d610424565b60405160208082528190810183818151815260200191508051906020019080838360005b83811015610189578082015183820152602001610171565b50505050905090810190601f1680156101b65780820380516001836020036101000a031916815260200191505b509250505060405180910390f35b34156101cf57600080fd5b6101d76104c2565b604051901515815260200160405180910390f35b34156101f657600080fd5b6101d761053d565b341561020957600080fd5b6102116105b7565b005b341561021e57600080fd5b61011e610647565b341561023157600080fd5b61011e610656565b341561024457600080fd5b61011e610665565b341561025757600080fd5b61025f610674565b60405190815260200160405180910390f35b341561027c57600080fd5b61014d61067a565b341561028f57600080fd5b61014d6106e5565b34156102a257600080fd5b61025f610750565b34156102b557600080fd5b61011e610756565b34156102c857600080fd5b61021160046024813581810190830135806020601f8201819004810201604051908101604052818152929190602084018383808284378201915050505050509190803590602001908201803590602001908080601f01602080910402602001604051908101604052818152929190602084018383808284378201915050505050509190803590602001908201803590602001908080601f01602080910402602001604051908101604052818152929190602084018383808284375094965061076595505050505050565b341561039d57600080fd5b61011e610913565b34156103b057600080fd5b6103b8610922565b604051808260048111156103c857fe5b60ff16815260200191505060405180910390f35b34156103e757600080fd5b61025f61092b565b34156103fa57600080fd5b61014d610931565b341561040d57600080fd5b61011e61099c565b600454600160a060020a031681565b60078054600181600116156101000203166002900480601f0160208091040260200160405190810160405280929190818152602001828054600181600116156101000203166002900480156104ba5780601f1061048f576101008083540402835291602001916104ba565b820191906000526020600020905b81548152906001019060200180831161049d57829003601f168201915b505050505081565b60045460009033600160a060020a039081169116146104e057600080fd5b600260005460ff1660048111156104f357fe5b146104fd57600080fd5b6000805460ff191660011790557f06c42818c4ab74dff6aec55942f601c2e9b7f2aa4321ee71690b125eacfe465460405160405180910390a15060015b90565b60045460009033600160a060020a0390811691161461055b57600080fd5b600160005460ff16600481111561056e57fe5b1461057857600080fd5b6000805460ff191660021790557f2b0cab0be6d82b2661b3b789c540ec9c7223aac635ac8e59a1e71e1137f2dd7760405160405180910390a150600190565b600e5433600160a060020a039081169116146105d257600080fd5b600160005460ff1660048111156105e557fe5b14806106015750600260005460ff1660048111156105ff57fe5b145b151561060c57600080fd5b6000805460ff191660031790557f1938697ee29e363ecda49e464c6d2aae25f0974bd1f2c81a91c21e13ad8dbf7760405160405180910390a1565b600554600160a060020a031681565b600254600160a060020a031681565b600354600160a060020a031681565b60065481565b600d8054600181600116156101000203166002900480601f0160208091040260200160405190810160405280929190818152602001828054600181600116156101000203166002900480156104ba5780601f1061048f576101008083540402835291602001916104ba565b600b8054600181600116156101000203166002900480601f0160208091040260200160405190810160405280929190818152602001828054600181600116156101000203166002900480156104ba5780601f1061048f576101008083540402835291602001916104ba565b600a5481565b600e54600160a060020a031681565b600e5433600160a060020a0390811691161461078057600080fd5b600260005460ff16600481111561079357fe5b1461079d57600080fd5b6000805460ff19166004179055600b8380516107bd9291602001906109ab565b50600c8280516107d19291602001906109ab565b50600d8180516107e59291602001906109ab565b508282826040518084805190602001908083835b602083106108185780518252601f1990920191602091820191016107f9565b6001836020036101000a038019825116818451161790925250505091909101905083805190602001908083835b602083106108645780518252601f199092019160209182019101610845565b6001836020036101000a038019825116818451161790925250505091909101905082805190602001908083835b602083106108b05780518252601f199092019160209182019101610891565b6001836020036101000a03801982511681845116179092525050509190910194506040935050505051908190039020600a557f777f59509d985349c80271b657d2649b218bc6f075a4625821b64448cc235b8660405160405180910390a1505050565b600854600160a060020a031681565b60005460ff1681565b60015481565b600c8054600181600116156101000203166002900480601f0160208091040260200160405190810160405280929190818152602001828054600181600116156101000203166002900480156104ba5780601f1061048f576101008083540402835291602001916104ba565b600954600160a060020a031681565b828054600181600116156101000203166002900490600052602060002090601f016020900481019282601f106109ec57805160ff1916838001178555610a19565b82800160010185558215610a19579182015b82811115610a195782518255916020019190600101906109fe565b50610a25929150610a29565b5090565b61053a91905b80821115610a255760008155600101610a2f5600a165627a7a7230582033248b8be7052cecc22c77772e63caeb387be5367b8e4b6490a33213599ba4560029a165627a7a72305820524c2c2b4d58cf692bb979cb79f1295affb54f42f48b3c3e6e20a0ecaa37cfd90029",
  "source": "pragma solidity ^0.4.21;\n\nimport \"rlc-token/contracts/RLC.sol\";\n\nimport './WorkOrder.sol';\nimport './Marketplace.sol';\nimport './AppHub.sol';\nimport './DatasetHub.sol';\nimport './WorkerPoolHub.sol';\nimport \"./SafeMathOZ.sol\";\nimport './IexecLib.sol';\n\n\n/**\n * @title IexecHub\n */\n\ncontract IexecHub\n{\n\tusing SafeMathOZ for uint256;\n\n\t/**\n\t* RLC contract for token transfers.\n\t*/\n\tRLC     public rlc;\n\taddress public tokenAddress;\n\n\tuint256 public constant STAKE_BONUS_RATIO  = 10;\n\tuint256 public constant STAKE_BONUS_MIN_THRESHOLD = 1000;\n\n\tuint256 public constant SCORE_UNITARY_SLASH = 50;\n\n\t/**\n\t * Slaves contracts\n\t */\n\tAppHub        public appHub;\n\tDatasetHub    public datasetHub;\n\tWorkerPoolHub public workerPoolHub;\n\n\t/**\n\t * Market place\n\t */\n\tMarketplace marketplace;\n\taddress     public marketplaceAddress;\n\tmodifier onlyMarketplace()\n\t{\n\t\trequire(msg.sender == marketplaceAddress);\n\t\t_;\n\t}\n\t/**\n\t * Categories\n\t */\n\tmapping(uint256 => IexecLib.Category) public m_categories;\n\tuint256                               public m_categoriesCount;\n\taddress                               public m_categoriesCreator;\n\tmodifier onlyCategoriesCreator()\n\t{\n\t\trequire(msg.sender == m_categoriesCreator);\n\t\t_;\n\t}\n\n\t/**\n\t * Escrow\n\t */\n\tmapping(address => IexecLib.Account) public m_accounts;\n\n\n\t/**\n\t * workOrder Registered\n\t */\n\tmapping(address => bool) public m_woidRegistered;\n\n\t/**\n\t * Reputation for PoCo\n\t */\n\tmapping(address => uint256)  public m_scores;\n\tIexecLib.ContributionHistory public m_contributionHistory;\n\n\n\tevent WorkOrderActivated(address woid, address indexed workerPool);\n\tevent WorkOrderClaimed  (address woid, address workerPool);\n\tevent WorkOrderCompleted(address woid, address workerPool);\n\n\tevent CreateApp       (address indexed appOwner,        address indexed app,        string appName,     uint256 appPrice,     string appParams    );\n\tevent CreateDataset   (address indexed datasetOwner,    address indexed dataset,    string datasetName, uint256 datasetPrice, string datasetParams);\n\tevent CreateWorkerPool(address indexed workerPoolOwner, address indexed workerPool, string workerPoolDescription                                        );\n\n\tevent CreateCategory  (uint256 catid, string name, string description, uint256 workClockTimeRef);\n\n\tevent WorkerPoolSubscription  (address indexed workerPool, address worker);\n\tevent WorkerPoolUnsubscription(address indexed workerPool, address worker);\n\tevent WorkerPoolEviction      (address indexed workerPool, address worker);\n\n\tevent AccurateContribution(address woid, address indexed worker);\n\tevent FaultyContribution  (address woid, address indexed worker);\n\n\tevent Deposit (address owner, uint256 amount);\n\tevent Withdraw(address owner, uint256 amount);\n\tevent Reward  (address user,  uint256 amount);\n\tevent Seize   (address user,  uint256 amount);\n\n\t/**\n\t * Constructor\n\t */\n\tfunction IexecHub(\n\t)\n\tpublic\n\t{\n\n\t}\n\n\n\tfunction attachContracts(address _tokenAddress,address _marketplaceAddress, address _workerPoolHubAddress, address _appHubAddress, address _datasetHubAddress) public\n\t{\n\t\trequire(tokenAddress == address(0));\n\t\ttokenAddress       = _tokenAddress;\n\t\trlc                = RLC(_tokenAddress);\n\n\t\tmarketplaceAddress = _marketplaceAddress;\n\t\tmarketplace        = Marketplace(_marketplaceAddress);\n\n\t\tworkerPoolHub      = WorkerPoolHub(_workerPoolHubAddress);\n\t\tappHub             = AppHub       (_appHubAddress       );\n\t\tdatasetHub         = DatasetHub   (_datasetHubAddress   );\n\n\t}\n\n\tfunction setCategoriesCreator(address _categoriesCreator) public\n\t{\n\t\trequire(m_categoriesCreator == address(0) || (m_categoriesCreator != address(0) && msg.sender == m_categoriesCreator));\n\t\tm_categoriesCreator = _categoriesCreator;\n\t}\n\n\t/**\n\t * Factory\n\t */\n\n\tfunction createCategory(\n\t\tstring  _name,\n\t\tstring  _description,\n\t\tuint256 _workClockTimeRef)\n\tpublic onlyCategoriesCreator returns (uint256 catid)\n\t{\n\t\tm_categoriesCount                  = m_categoriesCount.add(1);\n\t\tIexecLib.Category storage category = m_categories[m_categoriesCount];\n\t\tcategory.catid                     = m_categoriesCount;\n\t\tcategory.name                      = _name;\n\t\tcategory.description               = _description;\n\t\tcategory.workClockTimeRef          = _workClockTimeRef;\n\t\temit CreateCategory(m_categoriesCount, _name, _description, _workClockTimeRef);\n\t\treturn m_categoriesCount;\n\t}\n\n\tfunction createWorkerPool(\n\t\tstring  _description,\n\t\tuint256 _subscriptionLockStakePolicy,\n\t\tuint256 _subscriptionMinimumStakePolicy,\n\t\tuint256 _subscriptionMinimumScorePolicy)\n\texternal returns (address createdWorkerPool)\n\t{\n\t\taddress newWorkerPool = workerPoolHub.createWorkerPool(\n\t\t\t_description,\n\t\t\t_subscriptionLockStakePolicy,\n\t\t\t_subscriptionMinimumStakePolicy,\n\t\t\t_subscriptionMinimumScorePolicy,\n\t\t\tmarketplaceAddress\n\t\t);\n\t\temit CreateWorkerPool(tx.origin, newWorkerPool, _description);\n\t\treturn newWorkerPool;\n\t}\n\n\tfunction createApp(\n\t\tstring  _appName,\n\t\tuint256 _appPrice,\n\t\tstring  _appParams)\n\texternal returns (address createdApp)\n\t{\n\t\taddress newApp = appHub.createApp(\n\t\t\t_appName,\n\t\t\t_appPrice,\n\t\t\t_appParams\n\t\t);\n\t\temit CreateApp(tx.origin, newApp, _appName, _appPrice, _appParams);\n\t\treturn newApp;\n\t}\n\n\tfunction createDataset(\n\t\tstring  _datasetName,\n\t\tuint256 _datasetPrice,\n\t\tstring  _datasetParams)\n\texternal returns (address createdDataset)\n\t{\n\t\taddress newDataset = datasetHub.createDataset(\n\t\t\t_datasetName,\n\t\t\t_datasetPrice,\n\t\t\t_datasetParams\n\t\t\t);\n\t\temit CreateDataset(tx.origin, newDataset, _datasetName, _datasetPrice, _datasetParams);\n\t\treturn newDataset;\n\t}\n\n\t/**\n\t * WorkOrder Emission\n\t */\n\tfunction buyForWorkOrder(\n\t\tuint256 _marketorderIdx,\n\t\taddress _workerpool,\n\t\taddress _app,\n\t\taddress _dataset,\n\t\tstring  _params,\n\t\taddress _callback,\n\t\taddress _beneficiary)\n\texternal returns (address)\n\t{\n\t\taddress requester = msg.sender;\n\t\trequire(marketplace.consumeMarketOrderAsk(_marketorderIdx, requester, _workerpool));\n\n\t\tuint256 emitcost = lockWorkOrderCost(requester, _workerpool, _app, _dataset);\n\n\t\tWorkOrder workorder = new WorkOrder(\n\t\t\t_marketorderIdx,\n\t\t\trequester,\n\t\t\t_app,\n\t\t\t_dataset,\n\t\t\t_workerpool,\n\t\t\temitcost,\n\t\t\t_params,\n\t\t\t_callback,\n\t\t\t_beneficiary\n\t\t);\n\n\t\tm_woidRegistered[workorder] = true;\n\n\t\trequire(WorkerPool(_workerpool).emitWorkOrder(workorder, _marketorderIdx));\n\n\t\temit WorkOrderActivated(workorder, _workerpool);\n\t\treturn workorder;\n\t}\n\n\tfunction isWoidRegistred(address _woid) public view returns (bool)\n\t{\n\t\treturn m_woidRegistered[_woid];\n\t}\n\n\tfunction lockWorkOrderCost(\n\t\taddress _requester,\n\t\taddress _workerpool, // Address of a smartcontract\n\t\taddress _app,        // Address of a smartcontract\n\t\taddress _dataset)    // Address of a smartcontract\n\tinternal returns (uint256)\n\t{\n\t\t// APP\n\t\tApp app = App(_app);\n\t\trequire(appHub.isAppRegistered (_app       ));\n\t\t// initialize usercost with dapp price\n\t\tuint256 emitcost = app.m_appPrice();\n\n\t\t// DATASET\n\t\tif (_dataset != address(0)) // address(0)  no dataset\n\t\t{\n\t\t\tDataset dataset = Dataset(_dataset);\n\t\t\trequire(datasetHub.isDatasetRegistred(_dataset   ));\n\t\t\t// add optional datasetPrice for userCost\n\t\t\temitcost = emitcost.add(dataset.m_datasetPrice());\n\t\t}\n\n\t\t// WORKERPOOL\n\t\trequire(workerPoolHub.isWorkerPoolRegistered(_workerpool));\n\n\t\trequire(lock(_requester, emitcost)); // Lock funds for app + dataset payment\n\n\t\treturn emitcost;\n\t}\n\n\t/**\n\t * WorkOrder life cycle\n\t */\n\n\tfunction claimFailedConsensus(address _woid) public returns (bool)\n\t{\n\t\trequire(m_woidRegistered[_woid]);\n\t\tWorkOrder  workorder  = WorkOrder(_woid);\n\t\trequire(workorder.m_requester() == msg.sender);\n\t\tWorkerPool workerpool = WorkerPool(workorder.m_workerpool());\n\n\t\tIexecLib.WorkOrderStatusEnum currentStatus = workorder.m_status();\n\t\trequire(currentStatus == IexecLib.WorkOrderStatusEnum.ACTIVE || currentStatus == IexecLib.WorkOrderStatusEnum.REVEALING);\n\t\t// Unlock stakes for all workers\n\t\trequire(workerpool.claimFailedConsensus(_woid));\n\t\tworkorder.claim(); // revert on error\n\n\t\tuint256 value           = marketplace.getMarketOrderValue(workorder.m_marketorderIdx()); // revert if not exist\n\t\taddress workerpoolOwner = marketplace.getMarketOrderWorkerpoolOwner(workorder.m_marketorderIdx()); // revert if not exist\n\t\tuint256 workerpoolStake = value.percentage(marketplace.ASK_STAKE_RATIO());\n\n\t\trequire(unlock (workorder.m_requester(), value.add(workorder.m_emitcost()))); // UNLOCK THE FUNDS FOR REINBURSEMENT\n\t\trequire(seize  (workerpoolOwner,         workerpoolStake));\n\t\t// put workerpoolOwner stake seize into iexecHub address for bonus for scheduler on next well finalized Task\n\t\trequire(reward (this,                    workerpoolStake));\n\t\trequire(lock   (this,                    workerpoolStake));\n\n\n\t\temit WorkOrderClaimed(_woid, workorder.m_workerpool());\n\t\treturn true;\n\t}\n\n\tfunction finalizeWorkOrder(\n\t\taddress _woid,\n\t\tstring  _stdout,\n\t\tstring  _stderr,\n\t\tstring  _uri)\n\tpublic returns (bool)\n\t{\n\t\tWorkOrder workorder = WorkOrder(_woid);\n\n\t\trequire(workorder.m_workerpool() == msg.sender);\n\t\trequire(workorder.m_status()     == IexecLib.WorkOrderStatusEnum.REVEALING);\n\n\t\t// APP\n\t\tApp     app      = App(workorder.m_app());\n\t\tuint256 appPrice = app.m_appPrice();\n\t\tif (appPrice > 0)\n\t\t{\n\t\t\trequire(reward(app.m_owner(), appPrice));\n\t\t}\n\n\t\t// DATASET\n\t\tDataset dataset = Dataset(workorder.m_dataset());\n\t\tif (dataset != address(0))\n\t\t{\n\t\t\tuint256 datasetPrice = dataset.m_datasetPrice();\n\t\t\tif (datasetPrice > 0)\n\t\t\t{\n\t\t\t\trequire(reward(dataset.m_owner(), datasetPrice));\n\t\t\t}\n\t\t}\n\n\t\t// WORKERPOOL  rewarding done by the caller itself\n\n\t\t/**\n\t\t * seize stacked funds from requester.\n\t\t * reward = value: was locked at market making\n\t\t * emitcost: was locked at when emiting the workorder\n\t\t */\n\t\tuint256 value           = marketplace.getMarketOrderValue(workorder.m_marketorderIdx()); // revert if not exist\n\t\taddress workerpoolOwner = marketplace.getMarketOrderWorkerpoolOwner(workorder.m_marketorderIdx()); // revert if not exist\n\t\tuint256 workerpoolStake = value.percentage(marketplace.ASK_STAKE_RATIO());\n\n\t\trequire(seize (workorder.m_requester(), value.add(workorder.m_emitcost()))); // seize funds for payment (market value + emitcost)\n\t\trequire(unlock(workerpoolOwner,         workerpoolStake)); // unlock scheduler stake\n\n\t\t// write results\n\t\tworkorder.setResult(_stdout, _stderr, _uri); // revert on error\n\n\t\t// Rien ne se perd, rien ne se cre, tout se transfere\n\t\t// distribute bonus to scheduler. jackpot bonus come from scheduler stake loose on IexecHub contract\n\t\tuint256 kitty;\n\t\t(,kitty) = checkBalance(this); // kitty is locked on `this` wallet\n\t\tif(kitty > 0)\n\t\t{\n\t\t\tuint256 kittyFraction = kitty.min(kitty.percentage(STAKE_BONUS_RATIO).max(STAKE_BONUS_MIN_THRESHOLD));\n\t\t\trequire(seize(this,             kittyFraction));\n\t\t\trequire(reward(workerpoolOwner, kittyFraction));\n\t\t}\n\n\t\temit WorkOrderCompleted(_woid, workorder.m_workerpool());\n\t\treturn true;\n\t}\n\n\t/**\n\t * Views\n\t */\n\tfunction getCategoryWorkClockTimeRef(uint256 _catId) public view returns (uint256 workClockTimeRef)\n\t{\n\t\trequire(existingCategory(_catId));\n\t\treturn m_categories[_catId].workClockTimeRef;\n\t}\n\n\tfunction existingCategory(uint256 _catId) public view  returns (bool categoryExist)\n\t{\n\t\treturn m_categories[_catId].catid > 0;\n\t}\n\n\tfunction getCategory(uint256 _catId) public view returns (uint256 catid, string name, string  description, uint256 workClockTimeRef)\n\t{\n\t\trequire(existingCategory(_catId));\n\t\treturn (\n\t\tm_categories[_catId].catid,\n\t\tm_categories[_catId].name,\n\t\tm_categories[_catId].description,\n\t\tm_categories[_catId].workClockTimeRef\n\t\t);\n\t}\n\n\tfunction getWorkerStatus(address _worker) public view returns (address workerPool, uint256 workerScore)\n\t{\n\t\treturn (workerPoolHub.getWorkerAffectation(_worker), m_scores[_worker]);\n\t}\n\n\tfunction getWorkerScore(address _worker) public view returns (uint256 workerScore)\n\t{\n\t\treturn m_scores[_worker];\n\t}\n\n\t/**\n\t * Worker subscription\n\t */\n\tfunction registerToPool(address _worker) public returns (bool subscribed)\n\t// msg.sender = workerPool\n\t{\n\t\tWorkerPool workerpool = WorkerPool(msg.sender);\n\t\t// Check credentials\n\t\trequire(workerPoolHub.isWorkerPoolRegistered(msg.sender));\n\t\t// Lock worker deposit\n\t\trequire(lock(_worker, workerpool.m_subscriptionLockStakePolicy()));\n\t\t// Check subscription policy\n\t\trequire(m_accounts[_worker].stake >= workerpool.m_subscriptionMinimumStakePolicy());\n\t\trequire(m_scores[_worker]         >= workerpool.m_subscriptionMinimumScorePolicy());\n\t\t// Update affectation\n\t\trequire(workerPoolHub.registerWorkerAffectation(msg.sender, _worker));\n\t\t// Trigger event notice\n\t\temit WorkerPoolSubscription(msg.sender, _worker);\n\t\treturn true;\n\t}\n\n\tfunction unregisterFromPool(address _worker) public returns (bool unsubscribed)\n\t// msg.sender = workerPool\n\t{\n\t\trequire(removeWorker(msg.sender, _worker));\n\t\t// Trigger event notice\n\t\temit WorkerPoolUnsubscription(msg.sender, _worker);\n\t\treturn true;\n\t}\n\n\tfunction evictWorker(address _worker) public returns (bool unsubscribed)\n\t// msg.sender = workerpool\n\t{\n\t\trequire(removeWorker(msg.sender, _worker));\n\t\t// Trigger event notice\n\t\temit WorkerPoolEviction(msg.sender, _worker);\n\t\treturn true;\n\t}\n\n\tfunction removeWorker(address _workerpool, address _worker) internal returns (bool unsubscribed)\n\t{\n\t\tWorkerPool workerpool = WorkerPool(_workerpool);\n\t\t// Check credentials\n\t\trequire(workerPoolHub.isWorkerPoolRegistered(_workerpool));\n\t\t// Unlick worker stake\n\t\trequire(unlock(_worker, workerpool.m_subscriptionLockStakePolicy()));\n\t\t// Update affectation\n\t\trequire(workerPoolHub.unregisterWorkerAffectation(_workerpool, _worker));\n\t\treturn true;\n\t}\n\n\t/**\n\t * Stake, reward and penalty functions\n\t */\n\t/* Marketplace */\n\tfunction lockForOrder(address _user, uint256 _amount) public onlyMarketplace returns (bool)\n\t{\n\t\trequire(lock(_user, _amount));\n\t\treturn true;\n\t}\n\tfunction unlockForOrder(address _user, uint256 _amount) public  onlyMarketplace returns (bool)\n\t{\n\t\trequire(unlock(_user, _amount));\n\t\treturn true;\n\t}\n\t/* Work */\n\tfunction lockForWork(address _woid, address _user, uint256 _amount) public returns (bool)\n\t{\n\t\trequire(WorkOrder(_woid).m_workerpool() == msg.sender);\n\t\trequire(lock(_user, _amount));\n\t\treturn true;\n\t}\n\tfunction unlockForWork(address _woid, address _user, uint256 _amount) public returns (bool)\n\t{\n\t\trequire(WorkOrder(_woid).m_workerpool() == msg.sender);\n\t\trequire(unlock(_user, _amount));\n\t\treturn true;\n\t}\n\tfunction rewardForWork(address _woid, address _worker, uint256 _amount, bool _reputation) public returns (bool)\n\t{\n\t\trequire(WorkOrder(_woid).m_workerpool() == msg.sender);\n\t\trequire(reward(_worker, _amount));\n\t\t// ------------------------------------------------------------------------\n\t\tif (_reputation)\n\t\t{\n\t\t\tm_contributionHistory.success = m_contributionHistory.success.add(1);\n\t\t\tm_scores[_worker] = m_scores[_worker].add(1);\n\t\t\temit AccurateContribution(_woid, _worker);\n\t\t}\n\t\treturn true;\n\t}\n\tfunction seizeForWork(address _woid, address _worker, uint256 _amount, bool _reputation) public returns (bool)\n\t{\n\t\trequire(WorkOrder(_woid).m_workerpool() == msg.sender);\n\t\trequire(seize(_worker, _amount));\n\t\t// ------------------------------------------------------------------------\n\t\tif (_reputation)\n\t\t{\n\t\t\tm_contributionHistory.failled = m_contributionHistory.failled.add(1);\n\t\t\tm_scores[_worker] = m_scores[_worker].sub(m_scores[_worker].min(SCORE_UNITARY_SLASH));\n\t\t\temit FaultyContribution(_woid, _worker);\n\t\t}\n\t\treturn true;\n\t}\n\t/**\n\t * Wallet methods: public\n\t */\n\tfunction deposit(uint256 _amount) external returns (bool)\n\t{\n\t\trequire(rlc.transferFrom(msg.sender, address(this), _amount));\n\t\tm_accounts[msg.sender].stake = m_accounts[msg.sender].stake.add(_amount);\n\t\temit Deposit(msg.sender, _amount);\n\t\treturn true;\n\t}\n\tfunction withdraw(uint256 _amount) external returns (bool)\n\t{\n\t\tm_accounts[msg.sender].stake = m_accounts[msg.sender].stake.sub(_amount);\n\t\trequire(rlc.transfer(msg.sender, _amount));\n\t\temit Withdraw(msg.sender, _amount);\n\t\treturn true;\n\t}\n\tfunction checkBalance(address _owner) public view returns (uint256 stake, uint256 locked)\n\t{\n\t\treturn (m_accounts[_owner].stake, m_accounts[_owner].locked);\n\t}\n\t/**\n\t * Wallet methods: Internal\n\t */\n\tfunction reward(address _user, uint256 _amount) internal returns (bool)\n\t{\n\t\tm_accounts[_user].stake = m_accounts[_user].stake.add(_amount);\n\t\temit Reward(_user, _amount);\n\t\treturn true;\n\t}\n\tfunction seize(address _user, uint256 _amount) internal returns (bool)\n\t{\n\t\tm_accounts[_user].locked = m_accounts[_user].locked.sub(_amount);\n\t\temit Seize(_user, _amount);\n\t\treturn true;\n\t}\n\tfunction lock(address _user, uint256 _amount) internal returns (bool)\n\t{\n\t\tm_accounts[_user].stake  = m_accounts[_user].stake.sub(_amount);\n\t\tm_accounts[_user].locked = m_accounts[_user].locked.add(_amount);\n\t\treturn true;\n\t}\n\tfunction unlock(address _user, uint256 _amount) internal returns (bool)\n\t{\n\t\tm_accounts[_user].locked = m_accounts[_user].locked.sub(_amount);\n\t\tm_accounts[_user].stake  = m_accounts[_user].stake.add(_amount);\n\t\treturn true;\n\t}\n}\n",
  "sourcePath": "/Users/fbranci/iexecdev/PoCo/contracts/IexecHub.sol",
  "compiler": {
    "name": "solc",
    "version": "0.4.21+commit.dfe3193c.Emscripten.clang"
  },
  "schemaVersion": "2.0.0",
  "updatedAt": "2018-05-18T16:31:51.350Z"
}