{
  "contractName": "IexecEscrowNativeDelegate",
  "abi": [
    {
      "anonymous": false,
      "inputs": [
        {
          "indexed": true,
          "internalType": "address",
          "name": "owner",
          "type": "address"
        },
        {
          "indexed": true,
          "internalType": "address",
          "name": "spender",
          "type": "address"
        },
        {
          "indexed": false,
          "internalType": "uint256",
          "name": "value",
          "type": "uint256"
        }
      ],
      "name": "Approval",
      "type": "event"
    },
    {
      "anonymous": false,
      "inputs": [
        {
          "indexed": true,
          "internalType": "address",
          "name": "previousOwner",
          "type": "address"
        },
        {
          "indexed": true,
          "internalType": "address",
          "name": "newOwner",
          "type": "address"
        }
      ],
      "name": "OwnershipTransferred",
      "type": "event"
    },
    {
      "anonymous": false,
      "inputs": [
        {
          "indexed": true,
          "internalType": "address",
          "name": "from",
          "type": "address"
        },
        {
          "indexed": true,
          "internalType": "address",
          "name": "to",
          "type": "address"
        },
        {
          "indexed": false,
          "internalType": "uint256",
          "name": "value",
          "type": "uint256"
        }
      ],
      "name": "Transfer",
      "type": "event"
    },
    {
      "stateMutability": "payable",
      "type": "fallback"
    },
    {
      "inputs": [],
      "name": "owner",
      "outputs": [
        {
          "internalType": "address",
          "name": "",
          "type": "address"
        }
      ],
      "stateMutability": "view",
      "type": "function"
    },
    {
      "inputs": [],
      "name": "renounceOwnership",
      "outputs": [],
      "stateMutability": "nonpayable",
      "type": "function"
    },
    {
      "inputs": [
        {
          "internalType": "address",
          "name": "newOwner",
          "type": "address"
        }
      ],
      "name": "transferOwnership",
      "outputs": [],
      "stateMutability": "nonpayable",
      "type": "function"
    },
    {
      "stateMutability": "payable",
      "type": "receive"
    },
    {
      "inputs": [],
      "name": "deposit",
      "outputs": [
        {
          "internalType": "bool",
          "name": "",
          "type": "bool"
        }
      ],
      "stateMutability": "payable",
      "type": "function"
    },
    {
      "inputs": [
        {
          "internalType": "address",
          "name": "target",
          "type": "address"
        }
      ],
      "name": "depositFor",
      "outputs": [
        {
          "internalType": "bool",
          "name": "",
          "type": "bool"
        }
      ],
      "stateMutability": "payable",
      "type": "function"
    },
    {
      "inputs": [
        {
          "internalType": "uint256[]",
          "name": "amounts",
          "type": "uint256[]"
        },
        {
          "internalType": "address[]",
          "name": "targets",
          "type": "address[]"
        }
      ],
      "name": "depositForArray",
      "outputs": [
        {
          "internalType": "bool",
          "name": "",
          "type": "bool"
        }
      ],
      "stateMutability": "payable",
      "type": "function"
    },
    {
      "inputs": [
        {
          "internalType": "uint256",
          "name": "amount",
          "type": "uint256"
        }
      ],
      "name": "withdraw",
      "outputs": [
        {
          "internalType": "bool",
          "name": "",
          "type": "bool"
        }
      ],
      "stateMutability": "nonpayable",
      "type": "function"
    },
    {
      "inputs": [
        {
          "internalType": "uint256",
          "name": "amount",
          "type": "uint256"
        },
        {
          "internalType": "address",
          "name": "target",
          "type": "address"
        }
      ],
      "name": "withdrawTo",
      "outputs": [
        {
          "internalType": "bool",
          "name": "",
          "type": "bool"
        }
      ],
      "stateMutability": "nonpayable",
      "type": "function"
    },
    {
      "inputs": [],
      "name": "recover",
      "outputs": [
        {
          "internalType": "uint256",
          "name": "",
          "type": "uint256"
        }
      ],
      "stateMutability": "nonpayable",
      "type": "function"
    }
  ],
  "bytecode": "0x608060405234801561001057600080fd5b50600061001b610060565b600080546001600160a01b0319166001600160a01b038316908117825560405192935091600080516020610b4a833981519152908290a35061005b610064565b61010f565b3390565b61006c610060565b6000546001600160a01b039081169116146100a25760405162461bcd60e51b8152600401610099906100da565b60405180910390fd5b600080546040516001600160a01b0390911690600080516020610b4a833981519152908390a3600080546001600160a01b0319169055565b6020808252818101527f4f776e61626c653a2063616c6c6572206973206e6f7420746865206f776e6572604082015260600190565b610a2c8061011e6000396000f3fe60806040526004361061008a5760003560e01c8063aa67c91911610059578063aa67c9191461012c578063c86283c81461013f578063ce7460241461015f578063d0e30db014610181578063f2fde38b14610189576100a1565b80632e1a7d4d146100ac5780633354f8a5146100e2578063715018a6146100f55780638da5cb5b1461010a576100a1565b366100a15761009f61009a6101a9565b6101ad565b005b61009f61009a6101a9565b3480156100b857600080fd5b506100cc6100c7366004610836565b6101e5565b6040516100d99190610891565b60405180910390f35b6100cc6100f03660046107cd565b610219565b34801561010157600080fd5b5061009f6102e6565b34801561011657600080fd5b5061011f610365565b6040516100d9919061087d565b6100cc61013a3660046107b2565b610374565b34801561014b57600080fd5b506100cc61015a36600461084e565b61037f565b34801561016b57600080fd5b506101746103ae565b6040516100d991906109ed565b6100cc61041b565b34801561019557600080fd5b5061009f6101a43660046107b2565b61042e565b3390565b6101c4816101bf34633b9aca006104e4565b610506565b6101e26101cf6101a9565b6101dd34633b9aca006105ba565b6105d7565b50565b60006101f86101f26101a9565b83610658565b6102116102036101a9565b6101dd84633b9aca006106fd565b506001919050565b60008382146102435760405162461bcd60e51b815260040161023a906108e2565b60405180910390fd5b3460005b858110156102c85761028b85858381811061025e57fe5b905060200201602081019061027391906107b2565b88888481811061027f57fe5b90506020020135610506565b6102be6102b7633b9aca008989858181106102a257fe5b905060200201356106fd90919063ffffffff16565b839061072b565b9150600101610247565b506102da6102d46101a9565b826105d7565b50600195945050505050565b6102ee6101a9565b6000546001600160a01b0390811691161461031b5760405162461bcd60e51b815260040161023a90610910565b600080546040516001600160a01b03909116907f8be0079c531659141344cd1fd0a4f28419497f9722a3daafe3b4186f6b6457e0908390a3600080546001600160a01b0319169055565b6000546001600160a01b031690565b6000610211826101ad565b600061039261038c6101a9565b84610658565b6103a4826101dd85633b9aca006106fd565b5060015b92915050565b60006103b86101a9565b6000546001600160a01b039081169116146103e55760405162461bcd60e51b815260040161023a90610910565b600c54600090610403906103fd47633b9aca006104e4565b9061072b565b9050610416610410610365565b82610506565b905090565b600061042861009a6101a9565b50600190565b6104366101a9565b6000546001600160a01b039081169116146104635760405162461bcd60e51b815260040161023a90610910565b6001600160a01b0381166104895760405162461bcd60e51b815260040161023a9061089c565b600080546040516001600160a01b03808516939216917f8be0079c531659141344cd1fd0a4f28419497f9722a3daafe3b4186f6b6457e091a3600080546001600160a01b0319166001600160a01b0392909216919091179055565b60008082116104f257600080fd5b60008284816104fd57fe5b04949350505050565b6001600160a01b03821661052c5760405162461bcd60e51b815260040161023a906109b6565b600c546105399082610740565b600c556001600160a01b0382166000908152600d602052604090205461055f9082610740565b6001600160a01b0383166000818152600d60205260408082209390935591519091907fddf252ad1be2c89b69c2b068fc378daa952ba7f163c4a11628f55a4df523b3ef906105ae9085906109ed565b60405180910390a35050565b6000816105c657600080fd5b8183816105cf57fe5b069392505050565b6000826001600160a01b0316826040516105f09061087a565b60006040518083038185875af1925050503d806000811461062d576040519150601f19603f3d011682016040523d82523d6000602084013e610632565b606091505b50509050806106535760405162461bcd60e51b815260040161023a90610986565b505050565b6001600160a01b03821661067e5760405162461bcd60e51b815260040161023a90610945565b600c5461068b908261072b565b600c556001600160a01b0382166000908152600d60205260409020546106b1908261072b565b6001600160a01b0383166000818152600d60205260408082209390935591517fddf252ad1be2c89b69c2b068fc378daa952ba7f163c4a11628f55a4df523b3ef906105ae9085906109ed565b60008261070c575060006103a8565b8282028284828161071957fe5b041461072457600080fd5b9392505050565b60008282111561073a57600080fd5b50900390565b60008282018381101561072457600080fd5b80356001600160a01b03811681146103a857600080fd5b60008083601f84011261077a578182fd5b50813567ffffffffffffffff811115610791578182fd5b60208301915083602080830285010111156107ab57600080fd5b9250929050565b6000602082840312156107c3578081fd5b6107248383610752565b600080600080604085870312156107e2578283fd5b843567ffffffffffffffff808211156107f9578485fd5b61080588838901610769565b9096509450602087013591508082111561081d578384fd5b5061082a87828801610769565b95989497509550505050565b600060208284031215610847578081fd5b5035919050565b60008060408385031215610860578182fd5b823591506108718460208501610752565b90509250929050565b90565b6001600160a01b0391909116815260200190565b901515815260200190565b60208082526026908201527f4f776e61626c653a206e6577206f776e657220697320746865207a65726f206160408201526564647265737360d01b606082015260800190565b6020808252601490820152730d2dcecc2d8d2c85ac2e4e4c2f25ad8cadccee8d60631b604082015260600190565b6020808252818101527f4f776e61626c653a2063616c6c6572206973206e6f7420746865206f776e6572604082015260600190565b60208082526021908201527f45524332303a206275726e2066726f6d20746865207a65726f206164647265736040820152607360f81b606082015260800190565b6020808252601690820152751b985d1a5d994b5d1c985b9cd9995c8b59985a5b195960521b604082015260600190565b6020808252601f908201527f45524332303a206d696e7420746f20746865207a65726f206164647265737300604082015260600190565b9081526020019056fea2646970667358221220670f2cf0dccb4724e87bc09fd82643ca31fed237ffec7b627abc003913fe5ed664736f6c634300060c00338be0079c531659141344cd1fd0a4f28419497f9722a3daafe3b4186f6b6457e0",
  "immutableReferences": {},
  "source": "// SPDX-License-Identifier: Apache-2.0\n\n/******************************************************************************\n * Copyright 2020 IEXEC BLOCKCHAIN TECH                                       *\n *                                                                            *\n * Licensed under the Apache License, Version 2.0 (the \"License\");            *\n * you may not use this file except in compliance with the License.           *\n * You may obtain a copy of the License at                                    *\n *                                                                            *\n *     http://www.apache.org/licenses/LICENSE-2.0                             *\n *                                                                            *\n * Unless required by applicable law or agreed to in writing, software        *\n * distributed under the License is distributed on an \"AS IS\" BASIS,          *\n * WITHOUT WARRANTIES OR CONDITIONS OF ANY KIND, either express or implied.   *\n * See the License for the specific language governing permissions and        *\n * limitations under the License.                                             *\n ******************************************************************************/\n\npragma solidity ^0.6.0;\npragma experimental ABIEncoderV2;\n\nimport \"./IexecERC20Common.sol\";\nimport \"../DelegateBase.sol\";\nimport \"../interfaces/IexecEscrowNative.sol\";\n\n\ncontract IexecEscrowNativeDelegate is IexecEscrowNative, DelegateBase, IexecERC20Common\n{\n\tusing SafeMathExtended for uint256;\n\n\tuint256 internal constant nRLCtoWei = 10 ** 9;\n\t/***************************************************************************\n\t *                         Escrow methods: public                          *\n\t ***************************************************************************/\n\treceive()\n\texternal override payable\n\t{\n\t\t_deposit(_msgSender());\n\t}\n\n\tfallback()\n\texternal override payable\n\t{\n\t\t_deposit(_msgSender());\n\t}\n\n\tfunction deposit()\n\texternal override payable returns (bool)\n\t{\n\t\t_deposit(_msgSender());\n\t\treturn true;\n\t}\n\n\tfunction depositFor(address target)\n\texternal override payable returns (bool)\n\t{\n\t\t_deposit(target);\n\t\treturn true;\n\t}\n\n\tfunction depositForArray(uint256[] calldata amounts, address[] calldata targets)\n\texternal override payable returns (bool)\n\t{\n\t\trequire(amounts.length == targets.length, 'invalid-array-length');\n\t\tuint256 remaining = msg.value;\n\t\tfor (uint i = 0; i < amounts.length; ++i)\n\t\t{\n\t\t\t_mint(targets[i], amounts[i]);\n\t\t\tremaining = remaining.sub(amounts[i].mul(nRLCtoWei));\n\t\t}\n\t\t_withdraw(_msgSender(), remaining);\n\t\treturn true;\n\t}\n\n\tfunction withdraw(uint256 amount)\n\texternal override returns (bool)\n\t{\n\t\t_burn(_msgSender(), amount);\n\t\t_withdraw(_msgSender(), amount.mul(nRLCtoWei));\n\t\treturn true;\n\t}\n\n\tfunction withdrawTo(uint256 amount, address target)\n\texternal override returns (bool)\n\t{\n\t\t_burn(_msgSender(), amount);\n\t\t_withdraw(target, amount.mul(nRLCtoWei));\n\t\treturn true;\n\t}\n\n\tfunction recover()\n\texternal override onlyOwner returns (uint256)\n\t{\n\t\tuint256 delta = address(this).balance.div(nRLCtoWei).sub(m_totalSupply);\n\t\t_mint(owner(), delta);\n\t\treturn delta;\n\t}\n\n\tfunction _deposit(address target)\n\tinternal\n\t{\n\t\t_mint(target, msg.value.div(nRLCtoWei));\n\t\t_withdraw(_msgSender(), msg.value.mod(nRLCtoWei));\n\t}\n\n\tfunction _withdraw(address to, uint256 value)\n\tinternal\n\t{\n\t\t(bool success, ) = to.call{value: value}('');\n\t\trequire(success, 'native-transfer-failed');\n\t}\n}\n",
  "sourcePath": "/home/amxx/Work/iExec/code/PoCo-dev/contracts/modules/delegates/IexecEscrowNativeDelegate.sol",
  "compiler": {
    "name": "solc",
    "version": "0.6.12+commit.27d51765.Emscripten.clang"
  },
  "schemaVersion": "3.2.2",
  "updatedAt": "2020-09-22T12:25:17.227Z",
  "devdoc": {
    "kind": "dev",
    "methods": {
      "owner()": {
        "details": "Returns the address of the current owner."
      },
      "renounceOwnership()": {
        "details": "Leaves the contract without owner. It will not be possible to call `onlyOwner` functions anymore. Can only be called by the current owner. NOTE: Renouncing ownership will leave the contract without an owner, thereby removing any functionality that is only available to the owner."
      },
      "transferOwnership(address)": {
        "details": "Transfers ownership of the contract to a new account (`newOwner`). Can only be called by the current owner."
      }
    },
    "version": 1
  },
  "userdoc": {
    "kind": "user",
    "methods": {},
    "version": 1
  }
}