{
  "contractName": "IexecOrderManagementDelegate",
  "abi": [
    {
      "anonymous": false,
      "inputs": [
        {
          "indexed": false,
          "internalType": "bytes32",
          "name": "appHash",
          "type": "bytes32"
        }
      ],
      "name": "ClosedAppOrder",
      "type": "event"
    },
    {
      "anonymous": false,
      "inputs": [
        {
          "indexed": false,
          "internalType": "bytes32",
          "name": "datasetHash",
          "type": "bytes32"
        }
      ],
      "name": "ClosedDatasetOrder",
      "type": "event"
    },
    {
      "anonymous": false,
      "inputs": [
        {
          "indexed": false,
          "internalType": "bytes32",
          "name": "requestHash",
          "type": "bytes32"
        }
      ],
      "name": "ClosedRequestOrder",
      "type": "event"
    },
    {
      "anonymous": false,
      "inputs": [
        {
          "indexed": false,
          "internalType": "bytes32",
          "name": "workerpoolHash",
          "type": "bytes32"
        }
      ],
      "name": "ClosedWorkerpoolOrder",
      "type": "event"
    },
    {
      "anonymous": false,
      "inputs": [
        {
          "indexed": true,
          "internalType": "address",
          "name": "previousOwner",
          "type": "address"
        },
        {
          "indexed": true,
          "internalType": "address",
          "name": "newOwner",
          "type": "address"
        }
      ],
      "name": "OwnershipTransferred",
      "type": "event"
    },
    {
      "anonymous": false,
      "inputs": [
        {
          "indexed": false,
          "internalType": "bytes32",
          "name": "appHash",
          "type": "bytes32"
        }
      ],
      "name": "SignedAppOrder",
      "type": "event"
    },
    {
      "anonymous": false,
      "inputs": [
        {
          "indexed": false,
          "internalType": "bytes32",
          "name": "datasetHash",
          "type": "bytes32"
        }
      ],
      "name": "SignedDatasetOrder",
      "type": "event"
    },
    {
      "anonymous": false,
      "inputs": [
        {
          "indexed": false,
          "internalType": "bytes32",
          "name": "requestHash",
          "type": "bytes32"
        }
      ],
      "name": "SignedRequestOrder",
      "type": "event"
    },
    {
      "anonymous": false,
      "inputs": [
        {
          "indexed": false,
          "internalType": "bytes32",
          "name": "workerpoolHash",
          "type": "bytes32"
        }
      ],
      "name": "SignedWorkerpoolOrder",
      "type": "event"
    },
    {
      "inputs": [],
      "name": "isOwner",
      "outputs": [
        {
          "internalType": "bool",
          "name": "",
          "type": "bool"
        }
      ],
      "stateMutability": "view",
      "type": "function"
    },
    {
      "inputs": [],
      "name": "owner",
      "outputs": [
        {
          "internalType": "address",
          "name": "",
          "type": "address"
        }
      ],
      "stateMutability": "view",
      "type": "function"
    },
    {
      "inputs": [],
      "name": "renounceOwnership",
      "outputs": [],
      "stateMutability": "nonpayable",
      "type": "function"
    },
    {
      "inputs": [
        {
          "internalType": "address",
          "name": "newOwner",
          "type": "address"
        }
      ],
      "name": "transferOwnership",
      "outputs": [],
      "stateMutability": "nonpayable",
      "type": "function"
    },
    {
      "inputs": [
        {
          "components": [
            {
              "components": [
                {
                  "internalType": "address",
                  "name": "app",
                  "type": "address"
                },
                {
                  "internalType": "uint256",
                  "name": "appprice",
                  "type": "uint256"
                },
                {
                  "internalType": "uint256",
                  "name": "volume",
                  "type": "uint256"
                },
                {
                  "internalType": "bytes32",
                  "name": "tag",
                  "type": "bytes32"
                },
                {
                  "internalType": "address",
                  "name": "datasetrestrict",
                  "type": "address"
                },
                {
                  "internalType": "address",
                  "name": "workerpoolrestrict",
                  "type": "address"
                },
                {
                  "internalType": "address",
                  "name": "requesterrestrict",
                  "type": "address"
                },
                {
                  "internalType": "bytes32",
                  "name": "salt",
                  "type": "bytes32"
                },
                {
                  "internalType": "bytes",
                  "name": "sign",
                  "type": "bytes"
                }
              ],
              "internalType": "struct IexecLibOrders_v5.AppOrder",
              "name": "order",
              "type": "tuple"
            },
            {
              "internalType": "enum IexecLibOrders_v5.OrderOperationEnum",
              "name": "operation",
              "type": "uint8"
            },
            {
              "internalType": "bytes",
              "name": "sign",
              "type": "bytes"
            }
          ],
          "internalType": "struct IexecLibOrders_v5.AppOrderOperation",
          "name": "_apporderoperation",
          "type": "tuple"
        }
      ],
      "name": "manageAppOrder",
      "outputs": [],
      "stateMutability": "nonpayable",
      "type": "function"
    },
    {
      "inputs": [
        {
          "components": [
            {
              "components": [
                {
                  "internalType": "address",
                  "name": "dataset",
                  "type": "address"
                },
                {
                  "internalType": "uint256",
                  "name": "datasetprice",
                  "type": "uint256"
                },
                {
                  "internalType": "uint256",
                  "name": "volume",
                  "type": "uint256"
                },
                {
                  "internalType": "bytes32",
                  "name": "tag",
                  "type": "bytes32"
                },
                {
                  "internalType": "address",
                  "name": "apprestrict",
                  "type": "address"
                },
                {
                  "internalType": "address",
                  "name": "workerpoolrestrict",
                  "type": "address"
                },
                {
                  "internalType": "address",
                  "name": "requesterrestrict",
                  "type": "address"
                },
                {
                  "internalType": "bytes32",
                  "name": "salt",
                  "type": "bytes32"
                },
                {
                  "internalType": "bytes",
                  "name": "sign",
                  "type": "bytes"
                }
              ],
              "internalType": "struct IexecLibOrders_v5.DatasetOrder",
              "name": "order",
              "type": "tuple"
            },
            {
              "internalType": "enum IexecLibOrders_v5.OrderOperationEnum",
              "name": "operation",
              "type": "uint8"
            },
            {
              "internalType": "bytes",
              "name": "sign",
              "type": "bytes"
            }
          ],
          "internalType": "struct IexecLibOrders_v5.DatasetOrderOperation",
          "name": "_datasetorderoperation",
          "type": "tuple"
        }
      ],
      "name": "manageDatasetOrder",
      "outputs": [],
      "stateMutability": "nonpayable",
      "type": "function"
    },
    {
      "inputs": [
        {
          "components": [
            {
              "components": [
                {
                  "internalType": "address",
                  "name": "workerpool",
                  "type": "address"
                },
                {
                  "internalType": "uint256",
                  "name": "workerpoolprice",
                  "type": "uint256"
                },
                {
                  "internalType": "uint256",
                  "name": "volume",
                  "type": "uint256"
                },
                {
                  "internalType": "bytes32",
                  "name": "tag",
                  "type": "bytes32"
                },
                {
                  "internalType": "uint256",
                  "name": "category",
                  "type": "uint256"
                },
                {
                  "internalType": "uint256",
                  "name": "trust",
                  "type": "uint256"
                },
                {
                  "internalType": "address",
                  "name": "apprestrict",
                  "type": "address"
                },
                {
                  "internalType": "address",
                  "name": "datasetrestrict",
                  "type": "address"
                },
                {
                  "internalType": "address",
                  "name": "requesterrestrict",
                  "type": "address"
                },
                {
                  "internalType": "bytes32",
                  "name": "salt",
                  "type": "bytes32"
                },
                {
                  "internalType": "bytes",
                  "name": "sign",
                  "type": "bytes"
                }
              ],
              "internalType": "struct IexecLibOrders_v5.WorkerpoolOrder",
              "name": "order",
              "type": "tuple"
            },
            {
              "internalType": "enum IexecLibOrders_v5.OrderOperationEnum",
              "name": "operation",
              "type": "uint8"
            },
            {
              "internalType": "bytes",
              "name": "sign",
              "type": "bytes"
            }
          ],
          "internalType": "struct IexecLibOrders_v5.WorkerpoolOrderOperation",
          "name": "_workerpoolorderoperation",
          "type": "tuple"
        }
      ],
      "name": "manageWorkerpoolOrder",
      "outputs": [],
      "stateMutability": "nonpayable",
      "type": "function"
    },
    {
      "inputs": [
        {
          "components": [
            {
              "components": [
                {
                  "internalType": "address",
                  "name": "app",
                  "type": "address"
                },
                {
                  "internalType": "uint256",
                  "name": "appmaxprice",
                  "type": "uint256"
                },
                {
                  "internalType": "address",
                  "name": "dataset",
                  "type": "address"
                },
                {
                  "internalType": "uint256",
                  "name": "datasetmaxprice",
                  "type": "uint256"
                },
                {
                  "internalType": "address",
                  "name": "workerpool",
                  "type": "address"
                },
                {
                  "internalType": "uint256",
                  "name": "workerpoolmaxprice",
                  "type": "uint256"
                },
                {
                  "internalType": "address",
                  "name": "requester",
                  "type": "address"
                },
                {
                  "internalType": "uint256",
                  "name": "volume",
                  "type": "uint256"
                },
                {
                  "internalType": "bytes32",
                  "name": "tag",
                  "type": "bytes32"
                },
                {
                  "internalType": "uint256",
                  "name": "category",
                  "type": "uint256"
                },
                {
                  "internalType": "uint256",
                  "name": "trust",
                  "type": "uint256"
                },
                {
                  "internalType": "address",
                  "name": "beneficiary",
                  "type": "address"
                },
                {
                  "internalType": "address",
                  "name": "callback",
                  "type": "address"
                },
                {
                  "internalType": "string",
                  "name": "params",
                  "type": "string"
                },
                {
                  "internalType": "bytes32",
                  "name": "salt",
                  "type": "bytes32"
                },
                {
                  "internalType": "bytes",
                  "name": "sign",
                  "type": "bytes"
                }
              ],
              "internalType": "struct IexecLibOrders_v5.RequestOrder",
              "name": "order",
              "type": "tuple"
            },
            {
              "internalType": "enum IexecLibOrders_v5.OrderOperationEnum",
              "name": "operation",
              "type": "uint8"
            },
            {
              "internalType": "bytes",
              "name": "sign",
              "type": "bytes"
            }
          ],
          "internalType": "struct IexecLibOrders_v5.RequestOrderOperation",
          "name": "_requestorderoperation",
          "type": "tuple"
        }
      ],
      "name": "manageRequestOrder",
      "outputs": [],
      "stateMutability": "nonpayable",
      "type": "function"
    }
  ],
  "bytecode": "0x60806040526000620000196001600160e01b036200006b16565b600080546001600160a01b0319166001600160a01b03831690811782556040519293509160008051602062001e3f833981519152908290a350620000656001600160e01b036200006f16565b62000147565b3390565b620000826001600160e01b03620000e316565b620000aa5760405162461bcd60e51b8152600401620000a19062000112565b60405180910390fd5b600080546040516001600160a01b039091169060008051602062001e3f833981519152908390a3600080546001600160a01b0319169055565b600080546001600160a01b0316620001036001600160e01b036200006b16565b6001600160a01b031614905090565b6020808252818101527f4f776e61626c653a2063616c6c6572206973206e6f7420746865206f776e6572604082015260600190565b611ce880620001576000396000f3fe608060405234801561001057600080fd5b50600436106100885760003560e01c80638dd971d51161005b5780638dd971d5146100db5780638f32d59b146100ee578063b2b07e6614610103578063f2fde38b1461011657610088565b80634b7471061461008d578063715018a6146100a25780637e34a077146100aa5780638da5cb5b146100bd575b600080fd5b6100a061009b36600461150a565b610129565b005b6100a0610579565b6100a06100b8366004611709565b6105f0565b6100c5610a25565b6040516100d29190611aeb565b60405180910390f35b6100a06100e9366004611545565b610a34565b6100f6610df6565b6040516100d29190611aff565b6100a061011136600461150a565b610e1a565b6100a06101243660046114b3565b61124f565b60008160000151600001516001600160a01b0316638da5cb5b6040518163ffffffff1660e01b815260040160206040518083038186803b15801561016c57600080fd5b505afa158015610180573d6000803e3d6000fd5b505050506040513d601f19601f820116820180604052508101906101a491906114d6565b90506101ae61127f565b6001600160a01b0316816001600160a01b0316148061037657506040516308231d7360e31b815273__IexecLibOrders_v5_____________________90634118eb98906101ff908590600401611bb5565b60206040518083038186803b15801561021757600080fd5b505af415801561022b573d6000803e3d6000fd5b505050506040513d601f19601f8201168201806040525081019061024f91906114f2565b60105460405163176eaa4960e01b815273__IexecLibOrders_v5_____________________9263176eaa499261028792600401611b13565b60206040518083038186803b15801561029f57600080fd5b505af41580156102b3573d6000803e3d6000fd5b505050506040513d601f19601f820116820180604052508101906102d791906114f2565b60408084015190516319045a2560e01b815273__IexecLibOrders_v5_____________________926319045a259261031192600401611b21565b60206040518083038186803b15801561032957600080fd5b505af415801561033d573d6000803e3d6000fd5b505050506040513d601f19601f8201168201806040525081019061036191906114d6565b6001600160a01b0316816001600160a01b0316145b61037f57600080fd5b81516040516308d9777160e11b815260009173__IexecLibOrders_v5_____________________916311b2eee2916103b991600401611bc8565b60206040518083038186803b1580156103d157600080fd5b505af41580156103e5573d6000803e3d6000fd5b505050506040513d601f19601f8201168201806040525081019061040991906114f2565b60105460405163176eaa4960e01b815273__IexecLibOrders_v5_____________________9263176eaa499261044192600401611b13565b60206040518083038186803b15801561045957600080fd5b505af415801561046d573d6000803e3d6000fd5b505050506040513d601f19601f8201168201806040525081019061049191906114f2565b90506000836020015160018111156104a557fe5b141561050f576000818152601160205260409081902080546001600160a01b0319166001600160a01b038516179055517f79ce85909be2c590a728d1634ce6ec8a7cbf815260bacc05387890a313da813090610502908390611b0a565b60405180910390a1610574565b60018360200151600181111561052157fe5b14156105745782516040908101516000838152601260205282902055517fcf52e3228bc482a6656d8ab56c09888b1c5bf6aaadba0185e96a34836f2bb1d49061056b908390611b0a565b60405180910390a15b505050565b610581610df6565b6105a65760405162461bcd60e51b815260040161059d90611b80565b60405180910390fd5b600080546040516001600160a01b03909116907f8be0079c531659141344cd1fd0a4f28419497f9722a3daafe3b4186f6b6457e0908390a3600080546001600160a01b0319169055565b60008160000151600001516001600160a01b0316638da5cb5b6040518163ffffffff1660e01b815260040160206040518083038186803b15801561063357600080fd5b505afa158015610647573d6000803e3d6000fd5b505050506040513d601f19601f8201168201806040525081019061066b91906114d6565b905061067561127f565b6001600160a01b0316816001600160a01b0316148061083d5750604051632daacfb560e11b815273__IexecLibOrders_v5_____________________90635b559f6a906106c6908590600401611c3d565b60206040518083038186803b1580156106de57600080fd5b505af41580156106f2573d6000803e3d6000fd5b505050506040513d601f19601f8201168201806040525081019061071691906114f2565b60105460405163176eaa4960e01b815273__IexecLibOrders_v5_____________________9263176eaa499261074e92600401611b13565b60206040518083038186803b15801561076657600080fd5b505af415801561077a573d6000803e3d6000fd5b505050506040513d601f19601f8201168201806040525081019061079e91906114f2565b60408084015190516319045a2560e01b815273__IexecLibOrders_v5_____________________926319045a25926107d892600401611b21565b60206040518083038186803b1580156107f057600080fd5b505af4158015610804573d6000803e3d6000fd5b505050506040513d601f19601f8201168201806040525081019061082891906114d6565b6001600160a01b0316816001600160a01b0316145b61084657600080fd5b8151604051637f6cc2ff60e11b815260009173__IexecLibOrders_v5_____________________9163fed985fe9161088091600401611c59565b60206040518083038186803b15801561089857600080fd5b505af41580156108ac573d6000803e3d6000fd5b505050506040513d601f19601f820116820180604052508101906108d091906114f2565b60105460405163176eaa4960e01b815273__IexecLibOrders_v5_____________________9263176eaa499261090892600401611b13565b60206040518083038186803b15801561092057600080fd5b505af4158015610934573d6000803e3d6000fd5b505050506040513d601f19601f8201168201806040525081019061095891906114f2565b905060008360200151600181111561096c57fe5b14156109c9576000818152601160205260409081902080546001600160a01b0319166001600160a01b038516179055517f3a61aabf2ab04790d082ff1e332853b2f66944c2e951a146121f80272812a47690610502908390611b0a565b6001836020015160018111156109db57fe5b14156105745782516040908101516000838152601260205282902055517f145ad51e4496173bca15e24e7eb46f9ab3a10eea0497e2801a3a6806c06113a39061056b908390611b0a565b6000546001600160a01b031690565b805160c00151610a4261127f565b6001600160a01b0316816001600160a01b03161480610c0a57506040516320aabe5360e01b815273__IexecLibOrders_v5_____________________906320aabe5390610a93908590600401611bdb565b60206040518083038186803b158015610aab57600080fd5b505af4158015610abf573d6000803e3d6000fd5b505050506040513d601f19601f82011682018060405250810190610ae391906114f2565b60105460405163176eaa4960e01b815273__IexecLibOrders_v5_____________________9263176eaa4992610b1b92600401611b13565b60206040518083038186803b158015610b3357600080fd5b505af4158015610b47573d6000803e3d6000fd5b505050506040513d601f19601f82011682018060405250810190610b6b91906114f2565b60408084015190516319045a2560e01b815273__IexecLibOrders_v5_____________________926319045a2592610ba592600401611b21565b60206040518083038186803b158015610bbd57600080fd5b505af4158015610bd1573d6000803e3d6000fd5b505050506040513d601f19601f82011682018060405250810190610bf591906114d6565b6001600160a01b0316816001600160a01b0316145b610c1357600080fd5b8151604051638ac03f3360e01b815260009173__IexecLibOrders_v5_____________________91638ac03f3391610c4d91600401611c2a565b60206040518083038186803b158015610c6557600080fd5b505af4158015610c79573d6000803e3d6000fd5b505050506040513d601f19601f82011682018060405250810190610c9d91906114f2565b60105460405163176eaa4960e01b815273__IexecLibOrders_v5_____________________9263176eaa4992610cd592600401611b13565b60206040518083038186803b158015610ced57600080fd5b505af4158015610d01573d6000803e3d6000fd5b505050506040513d601f19601f82011682018060405250810190610d2591906114f2565b9050600083602001516001811115610d3957fe5b1415610d96576000818152601160205260409081902080546001600160a01b0319166001600160a01b038516179055517f3b0ac04165536d6b11d04220f998c840bd6e439d59c5d8721bba8a4e1fb9ebfd90610502908390611b0a565b600183602001516001811115610da857fe5b141561057457825160e001516000828152601260205260409081902091909155517f582f43f2a741cbe708aae3b8d38a4efc3d09d7e81919697b3ca693f4c444cc059061056b908390611b0a565b600080546001600160a01b0316610e0b61127f565b6001600160a01b031614905090565b60008160000151600001516001600160a01b0316638da5cb5b6040518163ffffffff1660e01b815260040160206040518083038186803b158015610e5d57600080fd5b505afa158015610e71573d6000803e3d6000fd5b505050506040513d601f19601f82011682018060405250810190610e9591906114d6565b9050610e9f61127f565b6001600160a01b0316816001600160a01b031614806110675750604051636cf30b8b60e01b815273__IexecLibOrders_v5_____________________90636cf30b8b90610ef0908590600401611bb5565b60206040518083038186803b158015610f0857600080fd5b505af4158015610f1c573d6000803e3d6000fd5b505050506040513d601f19601f82011682018060405250810190610f4091906114f2565b60105460405163176eaa4960e01b815273__IexecLibOrders_v5_____________________9263176eaa4992610f7892600401611b13565b60206040518083038186803b158015610f9057600080fd5b505af4158015610fa4573d6000803e3d6000fd5b505050506040513d601f19601f82011682018060405250810190610fc891906114f2565b60408084015190516319045a2560e01b815273__IexecLibOrders_v5_____________________926319045a259261100292600401611b21565b60206040518083038186803b15801561101a57600080fd5b505af415801561102e573d6000803e3d6000fd5b505050506040513d601f19601f8201168201806040525081019061105291906114d6565b6001600160a01b0316816001600160a01b0316145b61107057600080fd5b8151604051637c0d54d360e01b815260009173__IexecLibOrders_v5_____________________91637c0d54d3916110aa91600401611bc8565b60206040518083038186803b1580156110c257600080fd5b505af41580156110d6573d6000803e3d6000fd5b505050506040513d601f19601f820116820180604052508101906110fa91906114f2565b60105460405163176eaa4960e01b815273__IexecLibOrders_v5_____________________9263176eaa499261113292600401611b13565b60206040518083038186803b15801561114a57600080fd5b505af415801561115e573d6000803e3d6000fd5b505050506040513d601f19601f8201168201806040525081019061118291906114f2565b905060008360200151600181111561119657fe5b14156111f3576000818152601160205260409081902080546001600160a01b0319166001600160a01b038516179055517f50933cf5a9c44d5ed66b895deb27212aa33d811b46a7b41093e047e213c0bcab90610502908390611b0a565b60018360200151600181111561120557fe5b14156105745782516040908101516000838152601260205282902055517f7343f75be43aba524f85326508cd975d016ef7884676377366c69a7c32e306689061056b908390611b0a565b611257610df6565b6112735760405162461bcd60e51b815260040161059d90611b80565b61127c81611283565b50565b3390565b6001600160a01b0381166112a95760405162461bcd60e51b815260040161059d90611b3a565b600080546040516001600160a01b03808516939216917f8be0079c531659141344cd1fd0a4f28419497f9722a3daafe3b4186f6b6457e091a3600080546001600160a01b0319166001600160a01b0392909216919091179055565b803561130f81611c9d565b92915050565b600082601f830112611325578081fd5b813567ffffffffffffffff81111561133b578182fd5b61134e601f8201601f1916602001611c6c565b915080825283602082850101111561136557600080fd5b8060208401602084013760009082016020015292915050565b80356002811061130f57600080fd5b60006060828403121561139e578081fd5b6113a86060611c6c565b9050813567ffffffffffffffff808211156113c257600080fd5b6101209184018086038313156113d757600080fd5b6113e083611c6c565b6113ea8783611304565b81526020820135602082015260408201356040820152606082013560608201526114178760808401611304565b60808201526114298760a08401611304565b60a082015261143b8760c08401611304565b60c082015260e082013560e08201526101009350838201358381111561146057600080fd5b61146c88828501611315565b8286015250845250611481856020860161137e565b6020840152604084013591508082111561149a57600080fd5b506114a784828501611315565b60408301525092915050565b6000602082840312156114c4578081fd5b81356114cf81611c9d565b9392505050565b6000602082840312156114e7578081fd5b81516114cf81611c9d565b600060208284031215611503578081fd5b5051919050565b60006020828403121561151b578081fd5b813567ffffffffffffffff811115611531578182fd5b61153d8482850161138d565b949350505050565b600060208284031215611556578081fd5b813567ffffffffffffffff8082111561156d578283fd5b8184016060818703121561157f578384fd5b6115896060611c6c565b9250803582811115611599578485fd5b6102009082018088038213156115ad578586fd5b6115b682611c6c565b6115c08983611304565b8152602082013560208201526115d98960408401611304565b6040820152606082013560608201526115f58960808401611304565b608082015260a082013560a08201526116118960c08401611304565b60c082015260e08281013590820152610100808301359082015261012080830135908201526101408083013590820152610160925061165289848401611304565b83820152610180925061166789848401611304565b838201526101a092508282013585811115611680578788fd5b61168c8a828501611315565b84830152506101c0925082820135838201526101e0925082820135858111156116b3578788fd5b6116bf8a828501611315565b84830152508086525050506116d7866020830161137e565b60208401526040810135828111156116ed578485fd5b6116f987828401611315565b6040850152509195945050505050565b60006020828403121561171a578081fd5b813567ffffffffffffffff80821115611731578283fd5b81840160608187031215611743578384fd5b61174d6060611c6c565b925080358281111561175d578485fd5b610160908201808803821315611771578586fd5b61177a82611c6c565b6117848983611304565b81526020820135602082015260408201356040820152606082013560608201526080820135608082015260a082013560a08201526117c58960c08401611304565b60c08201526117d78960e08401611304565b60e082015261010092506117ed89848401611304565b8382015261012092508282013583820152610140925082820135858111156116b3578788fd5b6001600160a01b03169052565b60008151808452815b8181101561184557602081850181015186830182015201611829565b818111156118565782602083870101525b50601f01601f19169290920160200192915050565b600081516060845261188060608501826118b8565b6020840151915061189082611c93565b8160208601526040840151915084810360408601526118af8183611820565b95945050505050565b600061012060018060a01b03835116845260208301516020850152604083015160408501526060830151606085015260808301516118f96080860182611813565b5060a083015161190c60a0860182611813565b5060c083015161191f60c0860182611813565b5060e083015160e085015261010080840151828287015261194283870182611820565b9695505050505050565b600061020061195c848451611813565b6020830151602085015260408301516119786040860182611813565b506060830151606085015260808301516119956080860182611813565b5060a083015160a085015260c08301516119b260c0860182611813565b5060e08381015190850152610100808401519085015261012080840151908501526101408084015190850152610160808401516119f182870182611813565b505061018080840151611a0682870182611813565b50506101a0808401518282870152611a2083870182611820565b9150506101c0915081840151828601526101e0915081840151858203838701526119428282611820565b6000610160611a5a848451611813565b6020830151602085015260408301516040850152606083015160608501526080830151608085015260a083015160a085015260c0830151611a9e60c0860182611813565b5060e0830151611ab160e0860182611813565b5061010080840151611ac582870182611813565b505061012080840151818601525061014080840151828287015261194283870182611820565b6001600160a01b0391909116815260200190565b901515815260200190565b90815260200190565b918252602082015260400190565b60008382526040602083015261153d6040830184611820565b60208082526026908201527f4f776e61626c653a206e6577206f776e657220697320746865207a65726f206160408201526564647265737360d01b606082015260800190565b6020808252818101527f4f776e61626c653a2063616c6c6572206973206e6f7420746865206f776e6572604082015260600190565b6000602082526114cf602083018461186b565b6000602082526114cf60208301846118b8565b600060208252825160606020840152611bf7608084018261194c565b60208501519150611c0782611c93565b81604085015260408501519150601f198482030160608501526118af8183611820565b6000602082526114cf602083018461194c565b600060208252825160606020840152611bf76080840182611a4a565b6000602082526114cf6020830184611a4a565b60405181810167ffffffffffffffff81118282101715611c8b57600080fd5b604052919050565b6002811061127c57fe5b6001600160a01b038116811461127c57600080fdfea2646970667358221220a355a520f2d96c8edb9d3c29e462fad6f6b4d981b53352dd50c53bc8fd1b6b4064736f6c634300060400338be0079c531659141344cd1fd0a4f28419497f9722a3daafe3b4186f6b6457e0",
  "source": "pragma solidity ^0.6.0;\npragma experimental ABIEncoderV2;\n\nimport \"../DelegateBase.sol\";\nimport \"../interfaces/IexecOrderManagement.sol\";\n\n\ncontract IexecOrderManagementDelegate is IexecOrderManagement, DelegateBase\n{\n\tusing IexecLibOrders_v5 for bytes32;\n\tusing IexecLibOrders_v5 for IexecLibOrders_v5.AppOrder;\n\tusing IexecLibOrders_v5 for IexecLibOrders_v5.DatasetOrder;\n\tusing IexecLibOrders_v5 for IexecLibOrders_v5.WorkerpoolOrder;\n\tusing IexecLibOrders_v5 for IexecLibOrders_v5.RequestOrder;\n\tusing IexecLibOrders_v5 for IexecLibOrders_v5.AppOrderOperation;\n\tusing IexecLibOrders_v5 for IexecLibOrders_v5.DatasetOrderOperation;\n\tusing IexecLibOrders_v5 for IexecLibOrders_v5.WorkerpoolOrderOperation;\n\tusing IexecLibOrders_v5 for IexecLibOrders_v5.RequestOrderOperation;\n\n\t/***************************************************************************\n\t *                         order management tools                          *\n\t ***************************************************************************/\n\tfunction manageAppOrder(IexecLibOrders_v5.AppOrderOperation memory _apporderoperation)\n\tpublic override\n\t{\n\t\taddress owner = App(_apporderoperation.order.app).owner();\n\t\trequire(owner == _msgSender() || owner == _apporderoperation.hash().toEthTypedStructHash(EIP712DOMAIN_SEPARATOR).recover(_apporderoperation.sign));\n\n\t\tbytes32 apporderHash = _apporderoperation.order.hash().toEthTypedStructHash(EIP712DOMAIN_SEPARATOR);\n\t\tif (_apporderoperation.operation == IexecLibOrders_v5.OrderOperationEnum.SIGN)\n\t\t{\n\t\t\tm_presigned[apporderHash] = owner;\n\t\t\temit SignedAppOrder(apporderHash);\n\t\t}\n\t\telse if (_apporderoperation.operation == IexecLibOrders_v5.OrderOperationEnum.CLOSE)\n\t\t{\n\t\t\tm_consumed[apporderHash] = _apporderoperation.order.volume;\n\t\t\temit ClosedAppOrder(apporderHash);\n\t\t}\n\t}\n\n\tfunction manageDatasetOrder(IexecLibOrders_v5.DatasetOrderOperation memory _datasetorderoperation)\n\tpublic override\n\t{\n\t\taddress owner = Dataset(_datasetorderoperation.order.dataset).owner();\n\t\trequire(owner == _msgSender() || owner == _datasetorderoperation.hash().toEthTypedStructHash(EIP712DOMAIN_SEPARATOR).recover(_datasetorderoperation.sign));\n\n\t\tbytes32 datasetorderHash = _datasetorderoperation.order.hash().toEthTypedStructHash(EIP712DOMAIN_SEPARATOR);\n\t\tif (_datasetorderoperation.operation == IexecLibOrders_v5.OrderOperationEnum.SIGN)\n\t\t{\n\t\t\tm_presigned[datasetorderHash] = owner;\n\t\t\temit SignedDatasetOrder(datasetorderHash);\n\t\t}\n\t\telse if (_datasetorderoperation.operation == IexecLibOrders_v5.OrderOperationEnum.CLOSE)\n\t\t{\n\t\t\tm_consumed[datasetorderHash] = _datasetorderoperation.order.volume;\n\t\t\temit ClosedDatasetOrder(datasetorderHash);\n\t\t}\n\t}\n\n\tfunction manageWorkerpoolOrder(IexecLibOrders_v5.WorkerpoolOrderOperation memory _workerpoolorderoperation)\n\tpublic override\n\t{\n\t\taddress owner = Workerpool(_workerpoolorderoperation.order.workerpool).owner();\n\t\trequire(owner == _msgSender() || owner == _workerpoolorderoperation.hash().toEthTypedStructHash(EIP712DOMAIN_SEPARATOR).recover(_workerpoolorderoperation.sign));\n\n\t\tbytes32 workerpoolorderHash = _workerpoolorderoperation.order.hash().toEthTypedStructHash(EIP712DOMAIN_SEPARATOR);\n\t\tif (_workerpoolorderoperation.operation == IexecLibOrders_v5.OrderOperationEnum.SIGN)\n\t\t{\n\t\t\tm_presigned[workerpoolorderHash] = owner;\n\t\t\temit SignedWorkerpoolOrder(workerpoolorderHash);\n\t\t}\n\t\telse if (_workerpoolorderoperation.operation == IexecLibOrders_v5.OrderOperationEnum.CLOSE)\n\t\t{\n\t\t\tm_consumed[workerpoolorderHash] = _workerpoolorderoperation.order.volume;\n\t\t\temit ClosedWorkerpoolOrder(workerpoolorderHash);\n\t\t}\n\t}\n\n\tfunction manageRequestOrder(IexecLibOrders_v5.RequestOrderOperation memory _requestorderoperation)\n\tpublic override\n\t{\n\t\taddress owner = _requestorderoperation.order.requester;\n\t\trequire(owner == _msgSender() || owner == _requestorderoperation.hash().toEthTypedStructHash(EIP712DOMAIN_SEPARATOR).recover(_requestorderoperation.sign));\n\n\t\tbytes32 requestorderHash = _requestorderoperation.order.hash().toEthTypedStructHash(EIP712DOMAIN_SEPARATOR);\n\t\tif (_requestorderoperation.operation == IexecLibOrders_v5.OrderOperationEnum.SIGN)\n\t\t{\n\t\t\tm_presigned[requestorderHash] = owner;\n\t\t\temit SignedRequestOrder(requestorderHash);\n\t\t}\n\t\telse if (_requestorderoperation.operation == IexecLibOrders_v5.OrderOperationEnum.CLOSE)\n\t\t{\n\t\t\tm_consumed[requestorderHash] = _requestorderoperation.order.volume;\n\t\t\temit ClosedRequestOrder(requestorderHash);\n\t\t}\n\t}\n}\n",
  "sourcePath": "/home/amxx/Work/iExec/code/PoCo-dev/contracts/modules/delegates/IexecOrderManagementDelegate.sol",
  "compiler": {
    "name": "solc",
    "version": "0.6.4+commit.1dca32f3.Emscripten.clang"
  },
  "schemaVersion": "3.0.23",
  "updatedAt": "2020-03-13T16:37:49.043Z",
  "devdoc": {
    "methods": {
      "isOwner()": {
        "details": "Returns true if the caller is the current owner."
      },
      "owner()": {
        "details": "Returns the address of the current owner."
      },
      "renounceOwnership()": {
        "details": "Leaves the contract without owner. It will not be possible to call `onlyOwner` functions anymore. Can only be called by the current owner.     * NOTE: Renouncing ownership will leave the contract without an owner, thereby removing any functionality that is only available to the owner."
      },
      "transferOwnership(address)": {
        "details": "Transfers ownership of the contract to a new account (`newOwner`). Can only be called by the current owner."
      }
    }
  },
  "userdoc": {
    "methods": {
      "manageAppOrder(((address,uint256,uint256,bytes32,address,address,address,bytes32,bytes),uint8,bytes))": {
        "notice": "*************************************************************************                        order management tools                          ***************************************************************************"
      }
    }
  }
}