{
  "contractName": "IexecClerk",
  "abi": [
    {
      "constant": true,
      "inputs": [
        {
          "name": "_identity",
          "type": "address"
        },
        {
          "name": "_hash",
          "type": "bytes32"
        },
        {
          "name": "_signature",
          "type": "bytes"
        }
      ],
      "name": "verifySignature",
      "outputs": [
        {
          "name": "",
          "type": "bool"
        }
      ],
      "payable": false,
      "stateMutability": "view",
      "type": "function"
    },
    {
      "constant": true,
      "inputs": [],
      "name": "EIP712DOMAIN_SEPARATOR",
      "outputs": [
        {
          "name": "",
          "type": "bytes32"
        }
      ],
      "payable": false,
      "stateMutability": "view",
      "type": "function"
    },
    {
      "constant": true,
      "inputs": [],
      "name": "name",
      "outputs": [
        {
          "name": "",
          "type": "string"
        }
      ],
      "payable": false,
      "stateMutability": "view",
      "type": "function"
    },
    {
      "constant": false,
      "inputs": [
        {
          "name": "spender",
          "type": "address"
        },
        {
          "name": "value",
          "type": "uint256"
        }
      ],
      "name": "approve",
      "outputs": [
        {
          "name": "",
          "type": "bool"
        }
      ],
      "payable": false,
      "stateMutability": "nonpayable",
      "type": "function"
    },
    {
      "constant": true,
      "inputs": [],
      "name": "totalSupply",
      "outputs": [
        {
          "name": "",
          "type": "uint256"
        }
      ],
      "payable": false,
      "stateMutability": "view",
      "type": "function"
    },
    {
      "constant": true,
      "inputs": [
        {
          "name": "owner",
          "type": "address"
        }
      ],
      "name": "frozenOf",
      "outputs": [
        {
          "name": "",
          "type": "uint256"
        }
      ],
      "payable": false,
      "stateMutability": "view",
      "type": "function"
    },
    {
      "constant": false,
      "inputs": [
        {
          "name": "from",
          "type": "address"
        },
        {
          "name": "to",
          "type": "address"
        },
        {
          "name": "value",
          "type": "uint256"
        }
      ],
      "name": "transferFrom",
      "outputs": [
        {
          "name": "",
          "type": "bool"
        }
      ],
      "payable": false,
      "stateMutability": "nonpayable",
      "type": "function"
    },
    {
      "constant": false,
      "inputs": [
        {
          "name": "amount",
          "type": "uint256"
        }
      ],
      "name": "withdraw",
      "outputs": [
        {
          "name": "",
          "type": "bool"
        }
      ],
      "payable": false,
      "stateMutability": "nonpayable",
      "type": "function"
    },
    {
      "constant": true,
      "inputs": [],
      "name": "decimals",
      "outputs": [
        {
          "name": "",
          "type": "uint8"
        }
      ],
      "payable": false,
      "stateMutability": "view",
      "type": "function"
    },
    {
      "constant": false,
      "inputs": [
        {
          "name": "amounts",
          "type": "uint256[]"
        },
        {
          "name": "targets",
          "type": "address[]"
        }
      ],
      "name": "depositForArray",
      "outputs": [
        {
          "name": "",
          "type": "bool"
        }
      ],
      "payable": false,
      "stateMutability": "nonpayable",
      "type": "function"
    },
    {
      "constant": false,
      "inputs": [
        {
          "name": "amount",
          "type": "uint256"
        },
        {
          "name": "target",
          "type": "address"
        }
      ],
      "name": "depositFor",
      "outputs": [
        {
          "name": "",
          "type": "bool"
        }
      ],
      "payable": false,
      "stateMutability": "nonpayable",
      "type": "function"
    },
    {
      "constant": false,
      "inputs": [
        {
          "name": "spender",
          "type": "address"
        },
        {
          "name": "addedValue",
          "type": "uint256"
        }
      ],
      "name": "increaseAllowance",
      "outputs": [
        {
          "name": "",
          "type": "bool"
        }
      ],
      "payable": false,
      "stateMutability": "nonpayable",
      "type": "function"
    },
    {
      "constant": true,
      "inputs": [
        {
          "name": "",
          "type": "bytes32"
        }
      ],
      "name": "m_presigned",
      "outputs": [
        {
          "name": "",
          "type": "bool"
        }
      ],
      "payable": false,
      "stateMutability": "view",
      "type": "function"
    },
    {
      "constant": false,
      "inputs": [
        {
          "components": [
            {
              "name": "app",
              "type": "address"
            },
            {
              "name": "appmaxprice",
              "type": "uint256"
            },
            {
              "name": "dataset",
              "type": "address"
            },
            {
              "name": "datasetmaxprice",
              "type": "uint256"
            },
            {
              "name": "workerpool",
              "type": "address"
            },
            {
              "name": "workerpoolmaxprice",
              "type": "uint256"
            },
            {
              "name": "requester",
              "type": "address"
            },
            {
              "name": "volume",
              "type": "uint256"
            },
            {
              "name": "tag",
              "type": "bytes32"
            },
            {
              "name": "category",
              "type": "uint256"
            },
            {
              "name": "trust",
              "type": "uint256"
            },
            {
              "name": "beneficiary",
              "type": "address"
            },
            {
              "name": "callback",
              "type": "address"
            },
            {
              "name": "params",
              "type": "string"
            },
            {
              "name": "salt",
              "type": "bytes32"
            },
            {
              "name": "sign",
              "type": "bytes"
            }
          ],
          "name": "_requestorder",
          "type": "tuple"
        }
      ],
      "name": "broadcastRequestOrder",
      "outputs": [],
      "payable": false,
      "stateMutability": "nonpayable",
      "type": "function"
    },
    {
      "constant": false,
      "inputs": [
        {
          "components": [
            {
              "name": "dataset",
              "type": "address"
            },
            {
              "name": "datasetprice",
              "type": "uint256"
            },
            {
              "name": "volume",
              "type": "uint256"
            },
            {
              "name": "tag",
              "type": "bytes32"
            },
            {
              "name": "apprestrict",
              "type": "address"
            },
            {
              "name": "workerpoolrestrict",
              "type": "address"
            },
            {
              "name": "requesterrestrict",
              "type": "address"
            },
            {
              "name": "salt",
              "type": "bytes32"
            },
            {
              "name": "sign",
              "type": "bytes"
            }
          ],
          "name": "_datasetorder",
          "type": "tuple"
        }
      ],
      "name": "broadcastDatasetOrder",
      "outputs": [],
      "payable": false,
      "stateMutability": "nonpayable",
      "type": "function"
    },
    {
      "constant": true,
      "inputs": [],
      "name": "WORKERPOOL_STAKE_RATIO",
      "outputs": [
        {
          "name": "",
          "type": "uint256"
        }
      ],
      "payable": false,
      "stateMutability": "view",
      "type": "function"
    },
    {
      "constant": true,
      "inputs": [],
      "name": "KITTY_RATIO",
      "outputs": [
        {
          "name": "",
          "type": "uint256"
        }
      ],
      "payable": false,
      "stateMutability": "view",
      "type": "function"
    },
    {
      "constant": true,
      "inputs": [],
      "name": "GROUPMEMBER_PURPOSE",
      "outputs": [
        {
          "name": "",
          "type": "uint256"
        }
      ],
      "payable": false,
      "stateMutability": "view",
      "type": "function"
    },
    {
      "constant": true,
      "inputs": [
        {
          "name": "owner",
          "type": "address"
        }
      ],
      "name": "viewAccount",
      "outputs": [
        {
          "components": [
            {
              "name": "stake",
              "type": "uint256"
            },
            {
              "name": "locked",
              "type": "uint256"
            }
          ],
          "name": "account",
          "type": "tuple"
        }
      ],
      "payable": false,
      "stateMutability": "view",
      "type": "function"
    },
    {
      "constant": true,
      "inputs": [],
      "name": "POOL_STAKE_RATIO",
      "outputs": [
        {
          "name": "",
          "type": "uint256"
        }
      ],
      "payable": false,
      "stateMutability": "view",
      "type": "function"
    },
    {
      "constant": true,
      "inputs": [
        {
          "name": "owner",
          "type": "address"
        }
      ],
      "name": "balanceOf",
      "outputs": [
        {
          "name": "",
          "type": "uint256"
        }
      ],
      "payable": false,
      "stateMutability": "view",
      "type": "function"
    },
    {
      "constant": true,
      "inputs": [],
      "name": "iexechub",
      "outputs": [
        {
          "name": "",
          "type": "address"
        }
      ],
      "payable": false,
      "stateMutability": "view",
      "type": "function"
    },
    {
      "constant": false,
      "inputs": [
        {
          "components": [
            {
              "name": "workerpool",
              "type": "address"
            },
            {
              "name": "workerpoolprice",
              "type": "uint256"
            },
            {
              "name": "volume",
              "type": "uint256"
            },
            {
              "name": "tag",
              "type": "bytes32"
            },
            {
              "name": "category",
              "type": "uint256"
            },
            {
              "name": "trust",
              "type": "uint256"
            },
            {
              "name": "apprestrict",
              "type": "address"
            },
            {
              "name": "datasetrestrict",
              "type": "address"
            },
            {
              "name": "requesterrestrict",
              "type": "address"
            },
            {
              "name": "salt",
              "type": "bytes32"
            },
            {
              "name": "sign",
              "type": "bytes"
            }
          ],
          "name": "_workerpoolorder",
          "type": "tuple"
        }
      ],
      "name": "broadcastWorkerpoolOrder",
      "outputs": [],
      "payable": false,
      "stateMutability": "nonpayable",
      "type": "function"
    },
    {
      "constant": true,
      "inputs": [],
      "name": "symbol",
      "outputs": [
        {
          "name": "",
          "type": "string"
        }
      ],
      "payable": false,
      "stateMutability": "view",
      "type": "function"
    },
    {
      "constant": true,
      "inputs": [],
      "name": "KITTY_ADDRESS",
      "outputs": [
        {
          "name": "",
          "type": "address"
        }
      ],
      "payable": false,
      "stateMutability": "view",
      "type": "function"
    },
    {
      "constant": false,
      "inputs": [
        {
          "name": "spender",
          "type": "address"
        },
        {
          "name": "subtractedValue",
          "type": "uint256"
        }
      ],
      "name": "decreaseAllowance",
      "outputs": [
        {
          "name": "",
          "type": "bool"
        }
      ],
      "payable": false,
      "stateMutability": "nonpayable",
      "type": "function"
    },
    {
      "constant": false,
      "inputs": [
        {
          "name": "to",
          "type": "address"
        },
        {
          "name": "value",
          "type": "uint256"
        }
      ],
      "name": "transfer",
      "outputs": [
        {
          "name": "",
          "type": "bool"
        }
      ],
      "payable": false,
      "stateMutability": "nonpayable",
      "type": "function"
    },
    {
      "constant": true,
      "inputs": [
        {
          "name": "",
          "type": "bytes32"
        },
        {
          "name": "",
          "type": "uint256"
        }
      ],
      "name": "m_requestdeals",
      "outputs": [
        {
          "name": "",
          "type": "bytes32"
        }
      ],
      "payable": false,
      "stateMutability": "view",
      "type": "function"
    },
    {
      "constant": false,
      "inputs": [
        {
          "name": "amount",
          "type": "uint256"
        }
      ],
      "name": "deposit",
      "outputs": [
        {
          "name": "",
          "type": "bool"
        }
      ],
      "payable": false,
      "stateMutability": "nonpayable",
      "type": "function"
    },
    {
      "constant": false,
      "inputs": [
        {
          "components": [
            {
              "name": "app",
              "type": "address"
            },
            {
              "name": "appprice",
              "type": "uint256"
            },
            {
              "name": "volume",
              "type": "uint256"
            },
            {
              "name": "tag",
              "type": "bytes32"
            },
            {
              "name": "datasetrestrict",
              "type": "address"
            },
            {
              "name": "workerpoolrestrict",
              "type": "address"
            },
            {
              "name": "requesterrestrict",
              "type": "address"
            },
            {
              "name": "salt",
              "type": "bytes32"
            },
            {
              "name": "sign",
              "type": "bytes"
            }
          ],
          "name": "_apporder",
          "type": "tuple"
        }
      ],
      "name": "broadcastAppOrder",
      "outputs": [],
      "payable": false,
      "stateMutability": "nonpayable",
      "type": "function"
    },
    {
      "constant": true,
      "inputs": [
        {
          "name": "owner",
          "type": "address"
        },
        {
          "name": "spender",
          "type": "address"
        }
      ],
      "name": "allowance",
      "outputs": [
        {
          "name": "",
          "type": "uint256"
        }
      ],
      "payable": false,
      "stateMutability": "view",
      "type": "function"
    },
    {
      "constant": true,
      "inputs": [],
      "name": "KITTY_MIN",
      "outputs": [
        {
          "name": "",
          "type": "uint256"
        }
      ],
      "payable": false,
      "stateMutability": "view",
      "type": "function"
    },
    {
      "constant": true,
      "inputs": [
        {
          "name": "",
          "type": "bytes32"
        }
      ],
      "name": "m_consumed",
      "outputs": [
        {
          "name": "",
          "type": "uint256"
        }
      ],
      "payable": false,
      "stateMutability": "view",
      "type": "function"
    },
    {
      "constant": true,
      "inputs": [],
      "name": "token",
      "outputs": [
        {
          "name": "",
          "type": "address"
        }
      ],
      "payable": false,
      "stateMutability": "view",
      "type": "function"
    },
    {
      "inputs": [
        {
          "name": "_token",
          "type": "address"
        },
        {
          "name": "_iexechub",
          "type": "address"
        },
        {
          "name": "_chainid",
          "type": "uint256"
        }
      ],
      "payable": false,
      "stateMutability": "nonpayable",
      "type": "constructor"
    },
    {
      "anonymous": false,
      "inputs": [
        {
          "indexed": false,
          "name": "dealid",
          "type": "bytes32"
        },
        {
          "indexed": false,
          "name": "appHash",
          "type": "bytes32"
        },
        {
          "indexed": false,
          "name": "datasetHash",
          "type": "bytes32"
        },
        {
          "indexed": false,
          "name": "workerpoolHash",
          "type": "bytes32"
        },
        {
          "indexed": false,
          "name": "requestHash",
          "type": "bytes32"
        },
        {
          "indexed": false,
          "name": "volume",
          "type": "uint256"
        }
      ],
      "name": "OrdersMatched",
      "type": "event"
    },
    {
      "anonymous": false,
      "inputs": [
        {
          "indexed": false,
          "name": "appHash",
          "type": "bytes32"
        }
      ],
      "name": "ClosedAppOrder",
      "type": "event"
    },
    {
      "anonymous": false,
      "inputs": [
        {
          "indexed": false,
          "name": "datasetHash",
          "type": "bytes32"
        }
      ],
      "name": "ClosedDatasetOrder",
      "type": "event"
    },
    {
      "anonymous": false,
      "inputs": [
        {
          "indexed": false,
          "name": "workerpoolHash",
          "type": "bytes32"
        }
      ],
      "name": "ClosedWorkerpoolOrder",
      "type": "event"
    },
    {
      "anonymous": false,
      "inputs": [
        {
          "indexed": false,
          "name": "requestHash",
          "type": "bytes32"
        }
      ],
      "name": "ClosedRequestOrder",
      "type": "event"
    },
    {
      "anonymous": false,
      "inputs": [
        {
          "indexed": true,
          "name": "workerpool",
          "type": "address"
        },
        {
          "indexed": false,
          "name": "dealid",
          "type": "bytes32"
        }
      ],
      "name": "SchedulerNotice",
      "type": "event"
    },
    {
      "anonymous": false,
      "inputs": [
        {
          "components": [
            {
              "name": "app",
              "type": "address"
            },
            {
              "name": "appprice",
              "type": "uint256"
            },
            {
              "name": "volume",
              "type": "uint256"
            },
            {
              "name": "tag",
              "type": "bytes32"
            },
            {
              "name": "datasetrestrict",
              "type": "address"
            },
            {
              "name": "workerpoolrestrict",
              "type": "address"
            },
            {
              "name": "requesterrestrict",
              "type": "address"
            },
            {
              "name": "salt",
              "type": "bytes32"
            },
            {
              "name": "sign",
              "type": "bytes"
            }
          ],
          "indexed": false,
          "name": "apporder",
          "type": "tuple"
        }
      ],
      "name": "BroadcastAppOrder",
      "type": "event"
    },
    {
      "anonymous": false,
      "inputs": [
        {
          "components": [
            {
              "name": "dataset",
              "type": "address"
            },
            {
              "name": "datasetprice",
              "type": "uint256"
            },
            {
              "name": "volume",
              "type": "uint256"
            },
            {
              "name": "tag",
              "type": "bytes32"
            },
            {
              "name": "apprestrict",
              "type": "address"
            },
            {
              "name": "workerpoolrestrict",
              "type": "address"
            },
            {
              "name": "requesterrestrict",
              "type": "address"
            },
            {
              "name": "salt",
              "type": "bytes32"
            },
            {
              "name": "sign",
              "type": "bytes"
            }
          ],
          "indexed": false,
          "name": "datasetorder",
          "type": "tuple"
        }
      ],
      "name": "BroadcastDatasetOrder",
      "type": "event"
    },
    {
      "anonymous": false,
      "inputs": [
        {
          "components": [
            {
              "name": "workerpool",
              "type": "address"
            },
            {
              "name": "workerpoolprice",
              "type": "uint256"
            },
            {
              "name": "volume",
              "type": "uint256"
            },
            {
              "name": "tag",
              "type": "bytes32"
            },
            {
              "name": "category",
              "type": "uint256"
            },
            {
              "name": "trust",
              "type": "uint256"
            },
            {
              "name": "apprestrict",
              "type": "address"
            },
            {
              "name": "datasetrestrict",
              "type": "address"
            },
            {
              "name": "requesterrestrict",
              "type": "address"
            },
            {
              "name": "salt",
              "type": "bytes32"
            },
            {
              "name": "sign",
              "type": "bytes"
            }
          ],
          "indexed": false,
          "name": "workerpoolorder",
          "type": "tuple"
        }
      ],
      "name": "BroadcastWorkerpoolOrder",
      "type": "event"
    },
    {
      "anonymous": false,
      "inputs": [
        {
          "components": [
            {
              "name": "app",
              "type": "address"
            },
            {
              "name": "appmaxprice",
              "type": "uint256"
            },
            {
              "name": "dataset",
              "type": "address"
            },
            {
              "name": "datasetmaxprice",
              "type": "uint256"
            },
            {
              "name": "workerpool",
              "type": "address"
            },
            {
              "name": "workerpoolmaxprice",
              "type": "uint256"
            },
            {
              "name": "requester",
              "type": "address"
            },
            {
              "name": "volume",
              "type": "uint256"
            },
            {
              "name": "tag",
              "type": "bytes32"
            },
            {
              "name": "category",
              "type": "uint256"
            },
            {
              "name": "trust",
              "type": "uint256"
            },
            {
              "name": "beneficiary",
              "type": "address"
            },
            {
              "name": "callback",
              "type": "address"
            },
            {
              "name": "params",
              "type": "string"
            },
            {
              "name": "salt",
              "type": "bytes32"
            },
            {
              "name": "sign",
              "type": "bytes"
            }
          ],
          "indexed": false,
          "name": "requestorder",
          "type": "tuple"
        }
      ],
      "name": "BroadcastRequestOrder",
      "type": "event"
    },
    {
      "anonymous": false,
      "inputs": [
        {
          "indexed": false,
          "name": "owner",
          "type": "address"
        },
        {
          "indexed": false,
          "name": "amount",
          "type": "uint256"
        }
      ],
      "name": "Withdraw",
      "type": "event"
    },
    {
      "anonymous": false,
      "inputs": [
        {
          "indexed": false,
          "name": "user",
          "type": "address"
        },
        {
          "indexed": false,
          "name": "amount",
          "type": "uint256"
        },
        {
          "indexed": false,
          "name": "ref",
          "type": "bytes32"
        }
      ],
      "name": "Reward",
      "type": "event"
    },
    {
      "anonymous": false,
      "inputs": [
        {
          "indexed": false,
          "name": "user",
          "type": "address"
        },
        {
          "indexed": false,
          "name": "amount",
          "type": "uint256"
        },
        {
          "indexed": false,
          "name": "ref",
          "type": "bytes32"
        }
      ],
      "name": "Seize",
      "type": "event"
    },
    {
      "anonymous": false,
      "inputs": [
        {
          "indexed": false,
          "name": "user",
          "type": "address"
        },
        {
          "indexed": false,
          "name": "amount",
          "type": "uint256"
        }
      ],
      "name": "Lock",
      "type": "event"
    },
    {
      "anonymous": false,
      "inputs": [
        {
          "indexed": false,
          "name": "user",
          "type": "address"
        },
        {
          "indexed": false,
          "name": "amount",
          "type": "uint256"
        }
      ],
      "name": "Unlock",
      "type": "event"
    },
    {
      "anonymous": false,
      "inputs": [
        {
          "indexed": true,
          "name": "from",
          "type": "address"
        },
        {
          "indexed": true,
          "name": "to",
          "type": "address"
        },
        {
          "indexed": false,
          "name": "value",
          "type": "uint256"
        }
      ],
      "name": "Transfer",
      "type": "event"
    },
    {
      "anonymous": false,
      "inputs": [
        {
          "indexed": true,
          "name": "owner",
          "type": "address"
        },
        {
          "indexed": true,
          "name": "spender",
          "type": "address"
        },
        {
          "indexed": false,
          "name": "value",
          "type": "uint256"
        }
      ],
      "name": "Approval",
      "type": "event"
    },
    {
      "constant": true,
      "inputs": [
        {
          "name": "_id",
          "type": "bytes32"
        }
      ],
      "name": "viewRequestDeals",
      "outputs": [
        {
          "name": "requestdeals",
          "type": "bytes32[]"
        }
      ],
      "payable": false,
      "stateMutability": "view",
      "type": "function"
    },
    {
      "constant": true,
      "inputs": [
        {
          "name": "_id",
          "type": "bytes32"
        }
      ],
      "name": "viewDeal",
      "outputs": [
        {
          "components": [
            {
              "components": [
                {
                  "name": "pointer",
                  "type": "address"
                },
                {
                  "name": "owner",
                  "type": "address"
                },
                {
                  "name": "price",
                  "type": "uint256"
                }
              ],
              "name": "app",
              "type": "tuple"
            },
            {
              "components": [
                {
                  "name": "pointer",
                  "type": "address"
                },
                {
                  "name": "owner",
                  "type": "address"
                },
                {
                  "name": "price",
                  "type": "uint256"
                }
              ],
              "name": "dataset",
              "type": "tuple"
            },
            {
              "components": [
                {
                  "name": "pointer",
                  "type": "address"
                },
                {
                  "name": "owner",
                  "type": "address"
                },
                {
                  "name": "price",
                  "type": "uint256"
                }
              ],
              "name": "workerpool",
              "type": "tuple"
            },
            {
              "name": "trust",
              "type": "uint256"
            },
            {
              "name": "category",
              "type": "uint256"
            },
            {
              "name": "tag",
              "type": "bytes32"
            },
            {
              "name": "requester",
              "type": "address"
            },
            {
              "name": "beneficiary",
              "type": "address"
            },
            {
              "name": "callback",
              "type": "address"
            },
            {
              "name": "params",
              "type": "string"
            },
            {
              "name": "startTime",
              "type": "uint256"
            },
            {
              "name": "botFirst",
              "type": "uint256"
            },
            {
              "name": "botSize",
              "type": "uint256"
            },
            {
              "name": "workerStake",
              "type": "uint256"
            },
            {
              "name": "schedulerRewardRatio",
              "type": "uint256"
            }
          ],
          "name": "deal",
          "type": "tuple"
        }
      ],
      "payable": false,
      "stateMutability": "view",
      "type": "function"
    },
    {
      "constant": true,
      "inputs": [
        {
          "name": "_id",
          "type": "bytes32"
        }
      ],
      "name": "viewConsumed",
      "outputs": [
        {
          "name": "consumed",
          "type": "uint256"
        }
      ],
      "payable": false,
      "stateMutability": "view",
      "type": "function"
    },
    {
      "constant": true,
      "inputs": [
        {
          "name": "_id",
          "type": "bytes32"
        }
      ],
      "name": "viewPresigned",
      "outputs": [
        {
          "name": "presigned",
          "type": "bool"
        }
      ],
      "payable": false,
      "stateMutability": "view",
      "type": "function"
    },
    {
      "constant": false,
      "inputs": [
        {
          "components": [
            {
              "name": "app",
              "type": "address"
            },
            {
              "name": "appprice",
              "type": "uint256"
            },
            {
              "name": "volume",
              "type": "uint256"
            },
            {
              "name": "tag",
              "type": "bytes32"
            },
            {
              "name": "datasetrestrict",
              "type": "address"
            },
            {
              "name": "workerpoolrestrict",
              "type": "address"
            },
            {
              "name": "requesterrestrict",
              "type": "address"
            },
            {
              "name": "salt",
              "type": "bytes32"
            },
            {
              "name": "sign",
              "type": "bytes"
            }
          ],
          "name": "_apporder",
          "type": "tuple"
        }
      ],
      "name": "signAppOrder",
      "outputs": [
        {
          "name": "",
          "type": "bool"
        }
      ],
      "payable": false,
      "stateMutability": "nonpayable",
      "type": "function"
    },
    {
      "constant": false,
      "inputs": [
        {
          "components": [
            {
              "name": "dataset",
              "type": "address"
            },
            {
              "name": "datasetprice",
              "type": "uint256"
            },
            {
              "name": "volume",
              "type": "uint256"
            },
            {
              "name": "tag",
              "type": "bytes32"
            },
            {
              "name": "apprestrict",
              "type": "address"
            },
            {
              "name": "workerpoolrestrict",
              "type": "address"
            },
            {
              "name": "requesterrestrict",
              "type": "address"
            },
            {
              "name": "salt",
              "type": "bytes32"
            },
            {
              "name": "sign",
              "type": "bytes"
            }
          ],
          "name": "_datasetorder",
          "type": "tuple"
        }
      ],
      "name": "signDatasetOrder",
      "outputs": [
        {
          "name": "",
          "type": "bool"
        }
      ],
      "payable": false,
      "stateMutability": "nonpayable",
      "type": "function"
    },
    {
      "constant": false,
      "inputs": [
        {
          "components": [
            {
              "name": "workerpool",
              "type": "address"
            },
            {
              "name": "workerpoolprice",
              "type": "uint256"
            },
            {
              "name": "volume",
              "type": "uint256"
            },
            {
              "name": "tag",
              "type": "bytes32"
            },
            {
              "name": "category",
              "type": "uint256"
            },
            {
              "name": "trust",
              "type": "uint256"
            },
            {
              "name": "apprestrict",
              "type": "address"
            },
            {
              "name": "datasetrestrict",
              "type": "address"
            },
            {
              "name": "requesterrestrict",
              "type": "address"
            },
            {
              "name": "salt",
              "type": "bytes32"
            },
            {
              "name": "sign",
              "type": "bytes"
            }
          ],
          "name": "_workerpoolorder",
          "type": "tuple"
        }
      ],
      "name": "signWorkerpoolOrder",
      "outputs": [
        {
          "name": "",
          "type": "bool"
        }
      ],
      "payable": false,
      "stateMutability": "nonpayable",
      "type": "function"
    },
    {
      "constant": false,
      "inputs": [
        {
          "components": [
            {
              "name": "app",
              "type": "address"
            },
            {
              "name": "appmaxprice",
              "type": "uint256"
            },
            {
              "name": "dataset",
              "type": "address"
            },
            {
              "name": "datasetmaxprice",
              "type": "uint256"
            },
            {
              "name": "workerpool",
              "type": "address"
            },
            {
              "name": "workerpoolmaxprice",
              "type": "uint256"
            },
            {
              "name": "requester",
              "type": "address"
            },
            {
              "name": "volume",
              "type": "uint256"
            },
            {
              "name": "tag",
              "type": "bytes32"
            },
            {
              "name": "category",
              "type": "uint256"
            },
            {
              "name": "trust",
              "type": "uint256"
            },
            {
              "name": "beneficiary",
              "type": "address"
            },
            {
              "name": "callback",
              "type": "address"
            },
            {
              "name": "params",
              "type": "string"
            },
            {
              "name": "salt",
              "type": "bytes32"
            },
            {
              "name": "sign",
              "type": "bytes"
            }
          ],
          "name": "_requestorder",
          "type": "tuple"
        }
      ],
      "name": "signRequestOrder",
      "outputs": [
        {
          "name": "",
          "type": "bool"
        }
      ],
      "payable": false,
      "stateMutability": "nonpayable",
      "type": "function"
    },
    {
      "constant": false,
      "inputs": [
        {
          "components": [
            {
              "name": "app",
              "type": "address"
            },
            {
              "name": "appprice",
              "type": "uint256"
            },
            {
              "name": "volume",
              "type": "uint256"
            },
            {
              "name": "tag",
              "type": "bytes32"
            },
            {
              "name": "datasetrestrict",
              "type": "address"
            },
            {
              "name": "workerpoolrestrict",
              "type": "address"
            },
            {
              "name": "requesterrestrict",
              "type": "address"
            },
            {
              "name": "salt",
              "type": "bytes32"
            },
            {
              "name": "sign",
              "type": "bytes"
            }
          ],
          "name": "_apporder",
          "type": "tuple"
        },
        {
          "components": [
            {
              "name": "dataset",
              "type": "address"
            },
            {
              "name": "datasetprice",
              "type": "uint256"
            },
            {
              "name": "volume",
              "type": "uint256"
            },
            {
              "name": "tag",
              "type": "bytes32"
            },
            {
              "name": "apprestrict",
              "type": "address"
            },
            {
              "name": "workerpoolrestrict",
              "type": "address"
            },
            {
              "name": "requesterrestrict",
              "type": "address"
            },
            {
              "name": "salt",
              "type": "bytes32"
            },
            {
              "name": "sign",
              "type": "bytes"
            }
          ],
          "name": "_datasetorder",
          "type": "tuple"
        },
        {
          "components": [
            {
              "name": "workerpool",
              "type": "address"
            },
            {
              "name": "workerpoolprice",
              "type": "uint256"
            },
            {
              "name": "volume",
              "type": "uint256"
            },
            {
              "name": "tag",
              "type": "bytes32"
            },
            {
              "name": "category",
              "type": "uint256"
            },
            {
              "name": "trust",
              "type": "uint256"
            },
            {
              "name": "apprestrict",
              "type": "address"
            },
            {
              "name": "datasetrestrict",
              "type": "address"
            },
            {
              "name": "requesterrestrict",
              "type": "address"
            },
            {
              "name": "salt",
              "type": "bytes32"
            },
            {
              "name": "sign",
              "type": "bytes"
            }
          ],
          "name": "_workerpoolorder",
          "type": "tuple"
        },
        {
          "components": [
            {
              "name": "app",
              "type": "address"
            },
            {
              "name": "appmaxprice",
              "type": "uint256"
            },
            {
              "name": "dataset",
              "type": "address"
            },
            {
              "name": "datasetmaxprice",
              "type": "uint256"
            },
            {
              "name": "workerpool",
              "type": "address"
            },
            {
              "name": "workerpoolmaxprice",
              "type": "uint256"
            },
            {
              "name": "requester",
              "type": "address"
            },
            {
              "name": "volume",
              "type": "uint256"
            },
            {
              "name": "tag",
              "type": "bytes32"
            },
            {
              "name": "category",
              "type": "uint256"
            },
            {
              "name": "trust",
              "type": "uint256"
            },
            {
              "name": "beneficiary",
              "type": "address"
            },
            {
              "name": "callback",
              "type": "address"
            },
            {
              "name": "params",
              "type": "string"
            },
            {
              "name": "salt",
              "type": "bytes32"
            },
            {
              "name": "sign",
              "type": "bytes"
            }
          ],
          "name": "_requestorder",
          "type": "tuple"
        }
      ],
      "name": "matchOrders",
      "outputs": [
        {
          "name": "",
          "type": "bytes32"
        }
      ],
      "payable": false,
      "stateMutability": "nonpayable",
      "type": "function"
    },
    {
      "constant": false,
      "inputs": [
        {
          "components": [
            {
              "name": "app",
              "type": "address"
            },
            {
              "name": "appprice",
              "type": "uint256"
            },
            {
              "name": "volume",
              "type": "uint256"
            },
            {
              "name": "tag",
              "type": "bytes32"
            },
            {
              "name": "datasetrestrict",
              "type": "address"
            },
            {
              "name": "workerpoolrestrict",
              "type": "address"
            },
            {
              "name": "requesterrestrict",
              "type": "address"
            },
            {
              "name": "salt",
              "type": "bytes32"
            },
            {
              "name": "sign",
              "type": "bytes"
            }
          ],
          "name": "_apporder",
          "type": "tuple"
        }
      ],
      "name": "cancelAppOrder",
      "outputs": [
        {
          "name": "",
          "type": "bool"
        }
      ],
      "payable": false,
      "stateMutability": "nonpayable",
      "type": "function"
    },
    {
      "constant": false,
      "inputs": [
        {
          "components": [
            {
              "name": "dataset",
              "type": "address"
            },
            {
              "name": "datasetprice",
              "type": "uint256"
            },
            {
              "name": "volume",
              "type": "uint256"
            },
            {
              "name": "tag",
              "type": "bytes32"
            },
            {
              "name": "apprestrict",
              "type": "address"
            },
            {
              "name": "workerpoolrestrict",
              "type": "address"
            },
            {
              "name": "requesterrestrict",
              "type": "address"
            },
            {
              "name": "salt",
              "type": "bytes32"
            },
            {
              "name": "sign",
              "type": "bytes"
            }
          ],
          "name": "_datasetorder",
          "type": "tuple"
        }
      ],
      "name": "cancelDatasetOrder",
      "outputs": [
        {
          "name": "",
          "type": "bool"
        }
      ],
      "payable": false,
      "stateMutability": "nonpayable",
      "type": "function"
    },
    {
      "constant": false,
      "inputs": [
        {
          "components": [
            {
              "name": "workerpool",
              "type": "address"
            },
            {
              "name": "workerpoolprice",
              "type": "uint256"
            },
            {
              "name": "volume",
              "type": "uint256"
            },
            {
              "name": "tag",
              "type": "bytes32"
            },
            {
              "name": "category",
              "type": "uint256"
            },
            {
              "name": "trust",
              "type": "uint256"
            },
            {
              "name": "apprestrict",
              "type": "address"
            },
            {
              "name": "datasetrestrict",
              "type": "address"
            },
            {
              "name": "requesterrestrict",
              "type": "address"
            },
            {
              "name": "salt",
              "type": "bytes32"
            },
            {
              "name": "sign",
              "type": "bytes"
            }
          ],
          "name": "_workerpoolorder",
          "type": "tuple"
        }
      ],
      "name": "cancelWorkerpoolOrder",
      "outputs": [
        {
          "name": "",
          "type": "bool"
        }
      ],
      "payable": false,
      "stateMutability": "nonpayable",
      "type": "function"
    },
    {
      "constant": false,
      "inputs": [
        {
          "components": [
            {
              "name": "app",
              "type": "address"
            },
            {
              "name": "appmaxprice",
              "type": "uint256"
            },
            {
              "name": "dataset",
              "type": "address"
            },
            {
              "name": "datasetmaxprice",
              "type": "uint256"
            },
            {
              "name": "workerpool",
              "type": "address"
            },
            {
              "name": "workerpoolmaxprice",
              "type": "uint256"
            },
            {
              "name": "requester",
              "type": "address"
            },
            {
              "name": "volume",
              "type": "uint256"
            },
            {
              "name": "tag",
              "type": "bytes32"
            },
            {
              "name": "category",
              "type": "uint256"
            },
            {
              "name": "trust",
              "type": "uint256"
            },
            {
              "name": "beneficiary",
              "type": "address"
            },
            {
              "name": "callback",
              "type": "address"
            },
            {
              "name": "params",
              "type": "string"
            },
            {
              "name": "salt",
              "type": "bytes32"
            },
            {
              "name": "sign",
              "type": "bytes"
            }
          ],
          "name": "_requestorder",
          "type": "tuple"
        }
      ],
      "name": "cancelRequestOrder",
      "outputs": [
        {
          "name": "",
          "type": "bool"
        }
      ],
      "payable": false,
      "stateMutability": "nonpayable",
      "type": "function"
    },
    {
      "constant": false,
      "inputs": [
        {
          "name": "_dealid",
          "type": "bytes32"
        },
        {
          "name": "_worker",
          "type": "address"
        }
      ],
      "name": "lockContribution",
      "outputs": [],
      "payable": false,
      "stateMutability": "nonpayable",
      "type": "function"
    },
    {
      "constant": false,
      "inputs": [
        {
          "name": "_dealid",
          "type": "bytes32"
        },
        {
          "name": "_worker",
          "type": "address"
        }
      ],
      "name": "unlockContribution",
      "outputs": [],
      "payable": false,
      "stateMutability": "nonpayable",
      "type": "function"
    },
    {
      "constant": false,
      "inputs": [
        {
          "name": "_dealid",
          "type": "bytes32"
        },
        {
          "name": "_worker",
          "type": "address"
        },
        {
          "name": "_amount",
          "type": "uint256"
        },
        {
          "name": "_taskid",
          "type": "bytes32"
        }
      ],
      "name": "unlockAndRewardForContribution",
      "outputs": [],
      "payable": false,
      "stateMutability": "nonpayable",
      "type": "function"
    },
    {
      "constant": false,
      "inputs": [
        {
          "name": "_dealid",
          "type": "bytes32"
        },
        {
          "name": "_worker",
          "type": "address"
        },
        {
          "name": "_taskid",
          "type": "bytes32"
        }
      ],
      "name": "seizeContribution",
      "outputs": [],
      "payable": false,
      "stateMutability": "nonpayable",
      "type": "function"
    },
    {
      "constant": false,
      "inputs": [
        {
          "name": "_dealid",
          "type": "bytes32"
        },
        {
          "name": "_amount",
          "type": "uint256"
        },
        {
          "name": "_taskid",
          "type": "bytes32"
        }
      ],
      "name": "rewardForScheduling",
      "outputs": [],
      "payable": false,
      "stateMutability": "nonpayable",
      "type": "function"
    },
    {
      "constant": false,
      "inputs": [
        {
          "name": "_dealid",
          "type": "bytes32"
        },
        {
          "name": "_taskid",
          "type": "bytes32"
        }
      ],
      "name": "successWork",
      "outputs": [],
      "payable": false,
      "stateMutability": "nonpayable",
      "type": "function"
    },
    {
      "constant": false,
      "inputs": [
        {
          "name": "_dealid",
          "type": "bytes32"
        },
        {
          "name": "_taskid",
          "type": "bytes32"
        }
      ],
      "name": "failedWork",
      "outputs": [],
      "payable": false,
      "stateMutability": "nonpayable",
      "type": "function"
    },
    {
      "constant": true,
      "inputs": [
        {
          "name": "_id",
          "type": "bytes32"
        }
      ],
      "name": "viewDealABILegacy_pt1",
      "outputs": [
        {
          "name": "",
          "type": "address"
        },
        {
          "name": "",
          "type": "address"
        },
        {
          "name": "",
          "type": "uint256"
        },
        {
          "name": "",
          "type": "address"
        },
        {
          "name": "",
          "type": "address"
        },
        {
          "name": "",
          "type": "uint256"
        },
        {
          "name": "",
          "type": "address"
        },
        {
          "name": "",
          "type": "address"
        },
        {
          "name": "",
          "type": "uint256"
        }
      ],
      "payable": false,
      "stateMutability": "view",
      "type": "function"
    },
    {
      "constant": true,
      "inputs": [
        {
          "name": "_id",
          "type": "bytes32"
        }
      ],
      "name": "viewDealABILegacy_pt2",
      "outputs": [
        {
          "name": "",
          "type": "uint256"
        },
        {
          "name": "",
          "type": "bytes32"
        },
        {
          "name": "",
          "type": "address"
        },
        {
          "name": "",
          "type": "address"
        },
        {
          "name": "",
          "type": "address"
        },
        {
          "name": "",
          "type": "string"
        }
      ],
      "payable": false,
      "stateMutability": "view",
      "type": "function"
    },
    {
      "constant": true,
      "inputs": [
        {
          "name": "_id",
          "type": "bytes32"
        }
      ],
      "name": "viewConfigABILegacy",
      "outputs": [
        {
          "name": "",
          "type": "uint256"
        },
        {
          "name": "",
          "type": "uint256"
        },
        {
          "name": "",
          "type": "uint256"
        },
        {
          "name": "",
          "type": "uint256"
        },
        {
          "name": "",
          "type": "uint256"
        },
        {
          "name": "",
          "type": "uint256"
        }
      ],
      "payable": false,
      "stateMutability": "view",
      "type": "function"
    },
    {
      "constant": true,
      "inputs": [
        {
          "name": "owner",
          "type": "address"
        }
      ],
      "name": "viewAccountABILegacy",
      "outputs": [
        {
          "name": "",
          "type": "uint256"
        },
        {
          "name": "",
          "type": "uint256"
        }
      ],
      "payable": false,
      "stateMutability": "view",
      "type": "function"
    }
  ],
  "bytecode": "0x60806040523480156200001157600080fd5b50604051620056b9380380620056b9833981016040819052620000349162000325565b81836040518060400160405280600881526020017f7374616b65524c430000000000000000000000000000000000000000000000008152506040518060400160405280600481526020017f73524c430000000000000000000000000000000000000000000000000000000081525060098260039080519060200190620000bc92919062000260565b508151620000d290600490602085019062000260565b506005805460ff191660ff9290921691909117610100600160a81b0319166101006001600160a01b0395861602179055505081166200011057600080fd5b600780546001600160a01b0319166001600160a01b03929092169190911790556040805160c0810182526008608082019081527f69457865634f444200000000000000000000000000000000000000000000000060a0830152815281518083018352600981527f332e302d616c706861000000000000000000000000000000000000000000000060208083019190915282015280820183905230606082015290517feca34ccf00000000000000000000000000000000000000000000000000000000815273__IexecODBLibOrders_____________________9163eca34ccf91620001ff919060040162000468565b60206040518083038186803b1580156200021857600080fd5b505af41580156200022d573d6000803e3d6000fd5b505050506040513d601f19601f8201168201806040525062000253919081019062000379565b600c555062000503915050565b828054600181600116156101000203166002900490600052602060002090601f016020900481019282601f10620002a357805160ff1916838001178555620002d3565b82800160010185558215620002d3579182015b82811115620002d3578251825591602001919060010190620002b6565b50620002e1929150620002e5565b5090565b6200030291905b80821115620002e15760008155600101620002ec565b90565b80516200031281620004de565b92915050565b80516200031281620004f8565b6000806000606084860312156200033b57600080fd5b600062000349868662000305565b93505060206200035c8682870162000305565b92505060406200036f8682870162000318565b9150509250925092565b6000602082840312156200038c57600080fd5b60006200039a848462000318565b949350505050565b620003ad816200048f565b82525050565b6000620003c08262000482565b620003cc818562000486565b9350620003de818560208601620004a1565b620003e981620004d4565b9093019392505050565b80516080808452600091908401906200040d8282620003b3565b91505060208301518482036020860152620004298282620003b3565b91505060408301516200044060408601826200045d565b506060830151620004556060860182620003a2565b509392505050565b620003ad8162000302565b602080825281016200047b8184620003f3565b9392505050565b5190565b90815260200190565b60006001600160a01b03821662000312565b60005b83811015620004be578181015183820152602001620004a4565b83811115620004ce576000848401525b50505050565b601f01601f191690565b620004e9816200048f565b8114620004f557600080fd5b50565b620004e98162000302565b6151a680620005136000396000f3fe608060405234801561001057600080fd5b506004361061038e5760003560e01c8063709ce02b116101de578063a9059cbb1161010f578063ce5f7895116100ad578063e2e7a8c11161007c578063e2e7a8c1146107db578063e3035ace146107e3578063e798491a146107f6578063fc0c546a146108095761038e565b8063ce5f78951461076b578063d286eb1614610790578063d5922f50146107a3578063dd62ed3e146107c85761038e565b8063b6b55f25116100e9578063b6b55f25146106fd578063b74861b214610710578063bd19a4f314610730578063c52e9de1146107585761038e565b8063a9059cbb146106c4578063ae510d19146106d7578063b31231de146106ea5761038e565b806395d89b411161017c578063a1f3496c11610156578063a1f3496c14610678578063a3b37a791461068b578063a3f0ec581461069e578063a457c2d7146106b15761038e565b806395d89b41146106485780639e986e81146106505780639f0c9d6e146106655761038e565b8063732e498d116101b8578063732e498d146105fa57806384724ddf1461060d5780638d52e41314610620578063947f5178146106355761038e565b8063709ce02b146104fc57806370a08231146105d457806370c4c277146105e75761038e565b806343f2c970116102c3578063555859c7116102615780636b55f4a5116102305780636b55f4a51461056e5780636cb9012e1461058e5780636dc2df05146105a15780636eb528b5146105c15761038e565b8063555859c71461051f5780635b3ae3e41461053257806368a9ef1c146105535780636a6e0bed1461055b5761038e565b80634c4692de1161029d5780634c4692de146104e95780634ec3b9e3146104fc57806351152de11461050457806351a0942f1461050c5761038e565b806343f2c970146104ae5780634693d172146104c15780634b2bec8c146104d65761038e565b806323b872dd116103305780633354f8a51161030a5780633354f8a51461046257806336efd16f1461047557806338a754b414610488578063395093511461049b5761038e565b806323b872dd146104275780632e1a7d4d1461043a578063313ce5671461044d5761038e565b8063095ea7b31161036c578063095ea7b3146103e6578063156194d4146103f957806318160ddd1461040c5780631bf6e00d146104145761038e565b80630175199814610393578063047411e7146103bc57806306fdde03146103d1575b600080fd5b6103a66103a1366004614470565b610811565b6040516103b39190614ebf565b60405180910390f35b6103c46108ac565b6040516103b39190614ecd565b6103d96108b2565b6040516103b39190614fa6565b6103a66103f43660046144ca565b610949565b6103c46104073660046146e8565b610960565b6103c46119b7565b6103c46104223660046143ad565b6119bd565b6103a6610435366004614423565b6119d8565b6103a6610448366004614586565b611a2f565b610455611a4d565b6040516103b39190615069565b6103a66104703660046144fa565b611a56565b6103a66104833660046145c2565b611adb565b6103a6610496366004614798565b611af1565b6103a66104a93660046144ca565b611c81565b6103a66104bc366004614586565b611cbd565b6104d46104cf366004614798565b611cd2565b005b6103c46104e4366004614586565b611d0c565b6104d46104f73660046146b4565b611d1e565b6103c4611d4d565b6103c4611d52565b6104d461051a366004614663565b611d57565b6103a661052d3660046146b4565b611e87565b6105456105403660046143ad565b612071565b6040516103b3929190614edb565b6103c461208f565b6103a66105693660046147cc565b612094565b61058161057c3660046143ad565b612267565b6040516103b39190614fb7565b6103a661059c3660046146b4565b612299565b6105b46105af366004614586565b61236d565b6040516103b39190614eae565b6104d46105cf3660046145c2565b6123cf565b6103c46105e23660046143ad565b612407565b6104d46105f5366004614663565b612422565b6103a6610608366004614798565b612616565b6103a661061b3660046146b4565b61267a565b610628612864565b6040516103b39190614f98565b6104d46106433660046147cc565b612873565b6103d96128a2565b610658612903565b6040516103b39190614d94565b6104d46106733660046145e1565b612943565b6104d4610686366004614682565b61297d565b6103a66106993660046146b4565b6129ba565b6104d46106ac366004614602565b612a8e565b6103a66106bf3660046144ca565b612ad3565b6103a66106d23660046144ca565b612b0f565b6103a66106e53660046147cc565b612b1c565b6103c46106f8366004614663565b612d06565b6103a661070b366004614586565b612d34565b61072361071e366004614586565b612d4a565b6040516103b39190614fd6565b61074361073e366004614586565b612f07565b6040516103b399989796959493929190614df2565b6104d46107663660046146b4565b61313e565b61077e610779366004614586565b61316d565b6040516103b396959493929190615009565b6103a661079e366004614586565b613368565b6107b66107b1366004614586565b61337d565b6040516103b396959493929190614ee9565b6103c46107d63660046143e9565b613577565b6103c46135a2565b6103c46107f1366004614586565b6135aa565b6104d46108043660046145c2565b6135bc565b6106586135f0565b600061081e848484613604565b806108a25750604051630b135d3f60e11b81526001600160a01b03851690631626ba7e906108529086908690600401614f43565b60206040518083038186803b15801561086a57600080fd5b505afa15801561087e573d6000803e3d6000fd5b505050506040513d601f19601f820116820180604052506108a29190810190614568565b90505b9392505050565b600c5481565b60038054604080516020601f600260001961010060018816150201909516949094049384018190048102820181019092528281526060939092909183018282801561093e5780601f106109135761010080835404028352916020019161093e565b820191906000526020600020905b81548152906001019060200180831161092157829003601f168201915b505050505090505b90565b60006109563384846136d9565b5060015b92915050565b600082608001518261012001511461097757600080fd5b8260a00151826101400151111561098d57600080fd5b8460200151826020015110156109a257600080fd5b8360200151826060015110156109b757600080fd5b82602001518260a0015110156109cc57600080fd5b826060015119826101000151856060015187606001511717166000801b146109f357600080fd5b845182516001600160a01b03908116911614610a0e57600080fd5b83600001516001600160a01b031682604001516001600160a01b031614610a3457600080fd5b60808201516001600160a01b03161580610a5d5750610a5d826080015184600001516004613767565b610a6657600080fd5b60808501516001600160a01b03161580610a8f5750610a8f856080015185600001516004613767565b610a9857600080fd5b60a08501516001600160a01b03161580610ac15750610ac18560a0015184600001516004613767565b610aca57600080fd5b60c08501516001600160a01b03161580610af35750610af38560c001518360c001516004613767565b610afc57600080fd5b60808401516001600160a01b03161580610b255750610b25846080015186600001516004613767565b610b2e57600080fd5b60a08401516001600160a01b03161580610b575750610b578460a0015184600001516004613767565b610b6057600080fd5b60c08401516001600160a01b03161580610b895750610b898460c001518360c001516004613767565b610b9257600080fd5b60c08301516001600160a01b03161580610bbb5750610bbb8360c0015186600001516004613767565b610bc457600080fd5b60e08301516001600160a01b03161580610bed5750610bed8360e0015185600001516004613767565b610bf657600080fd5b6101008301516001600160a01b03161580610c215750610c218361010001518360c001516004613767565b610c2a57600080fd5b60075485518551855160405163097d630d60e01b81526001600160a01b039094169363097d630d93610c629390929091600401614da2565b60206040518083038186803b158015610c7a57600080fd5b505afa158015610c8e573d6000803e3d6000fd5b505050506040513d601f19601f82011682018060405250610cb29190810190614568565b610cbb57600080fd5b610cc3613d77565b84516001600160a01b0316151560e0820152604051630495132960e01b815273__IexecODBLibOrders_____________________90630495132990610d0c908990600401614fc5565b60206040518083038186803b158015610d2457600080fd5b505af4158015610d38573d6000803e3d6000fd5b505050506040513d601f19601f82011682018060405250610d5c91908101906145a4565b600c5460405163176eaa4960e01b815273__IexecODBLibOrders_____________________9263176eaa4992610d9492600401614edb565b60206040518083038186803b158015610dac57600080fd5b505af4158015610dc0573d6000803e3d6000fd5b505050506040513d601f19601f82011682018060405250610de491908101906145a4565b81600001818152505085600001516001600160a01b0316638da5cb5b6040518163ffffffff1660e01b815260040160206040518083038186803b158015610e2a57600080fd5b505afa158015610e3e573d6000803e3d6000fd5b505050506040513d601f19601f82011682018060405250610e6291908101906143cb565b6001600160a01b0316602080830191909152815160009081526010909152604090205460ff1680610ea65750610ea681602001518260000151886101000151610811565b610eaf57600080fd5b8060e001511561109057604051630af531cd60e21b815273__IexecODBLibOrders_____________________90632bd4c73490610ef0908890600401614fc5565b60206040518083038186803b158015610f0857600080fd5b505af4158015610f1c573d6000803e3d6000fd5b505050506040513d601f19601f82011682018060405250610f4091908101906145a4565b600c5460405163176eaa4960e01b815273__IexecODBLibOrders_____________________9263176eaa4992610f7892600401614edb565b60206040518083038186803b158015610f9057600080fd5b505af4158015610fa4573d6000803e3d6000fd5b505050506040513d601f19601f82011682018060405250610fc891908101906145a4565b81604001818152505084600001516001600160a01b0316638da5cb5b6040518163ffffffff1660e01b815260040160206040518083038186803b15801561100e57600080fd5b505afa158015611022573d6000803e3d6000fd5b505050506040513d601f19601f8201168201806040525061104691908101906143cb565b6001600160a01b0316606082015260408082015160009081526010602052205460ff1680611087575061108781606001518260400151876101000151610811565b61109057600080fd5b604051632c5a82c360e11b815273__IexecODBLibOrders_____________________906358b50586906110c7908790600401614ff8565b60206040518083038186803b1580156110df57600080fd5b505af41580156110f3573d6000803e3d6000fd5b505050506040513d601f19601f8201168201806040525061111791908101906145a4565b600c5460405163176eaa4960e01b815273__IexecODBLibOrders_____________________9263176eaa499261114f92600401614edb565b60206040518083038186803b15801561116757600080fd5b505af415801561117b573d6000803e3d6000fd5b505050506040513d601f19601f8201168201806040525061119f91908101906145a4565b81608001818152505083600001516001600160a01b0316638da5cb5b6040518163ffffffff1660e01b815260040160206040518083038186803b1580156111e557600080fd5b505afa1580156111f9573d6000803e3d6000fd5b505050506040513d601f19601f8201168201806040525061121d91908101906143cb565b6001600160a01b031660a0820152608081015160009081526010602052604090205460ff168061126057506112608160a001518260800151866101400151610811565b61126957600080fd5b604051630409a12760e11b815273__IexecODBLibOrders_____________________90630813424e906112a0908690600401614fe7565b60206040518083038186803b1580156112b857600080fd5b505af41580156112cc573d6000803e3d6000fd5b505050506040513d601f19601f820116820180604052506112f091908101906145a4565b600c5460405163176eaa4960e01b815273__IexecODBLibOrders_____________________9263176eaa499261132892600401614edb565b60206040518083038186803b15801561134057600080fd5b505af4158015611354573d6000803e3d6000fd5b505050506040513d601f19601f8201168201806040525061137891908101906145a4565b60c0820181905260009081526010602052604090205460ff16806113af57506113af8360c001518260c00151856101e00151610811565b6113b857600080fd5b80516000908152600f602052604080822054908801516113dd9163ffffffff6137ba16565b90508160e001516113ee5780611427565b6040808301516000908152600f60205281902054908701516114279161141a919063ffffffff6137ba16565b829063ffffffff6137cf16565b60808301516000908152600f60205260409081902054908701519192506114579161141a9163ffffffff6137ba16565b60c08301516000908152600f602052604090205460e08601519192506114869161141a9163ffffffff6137ba16565b90506000811161149557600080fd5b60c08201516000818152600f6020908152604080832054905192936114bc93909201614d6e565b60408051808303601f1901815291815281516020928301206000818152600e8452919091208a5181546001600160a01b03199081166001600160a01b03928316178355878501516001840180548316918416919091179055938c01516002830155606087015160048301805486169183169190911790558a5160038301805490951691161790925560e085015190925061155757600061155d565b87602001515b600582015586516006820180546001600160a01b039283166001600160a01b03199182161790915560a0860151600784018054919093169116179055602087015160088201556101408601516115ba90600163ffffffff6137e516565b6009820155610120860151600a8201556101008601516060808a0151908b01511717600b82015560c0860151600c820180546001600160a01b039283166001600160a01b031991821617909155610160880151600d84018054918416918316919091179055610180880151600e840180549190931691161790556101a0860151805161165091600f840191602090910190613dbb565b5042601082015560c08401516000908152600f6020908152604091829020546011840155601283018590558851825163b55e75af60e01b81529251611705936001600160a01b039092169263b55e75af9260048082019391829003018186803b1580156116bc57600080fd5b505afa1580156116d0573d6000803e3d6000fd5b505050506040513d601f19601f820116820180604052506116f491908101906145a4565b60208901519063ffffffff6137f516565b816013018190555086600001516001600160a01b03166387639c686040518163ffffffff1660e01b815260040160206040518083038186803b15801561174a57600080fd5b505afa15801561175e573d6000803e3d6000fd5b505050506040513d601f19601f8201168201806040525061178291908101906145a4565b601482015560c08401516000908152600d6020908152604080832080546001810182559084528284200185905586518352600f9091529020546117cb908463ffffffff61380316565b84516000908152600f602052604090205560e0840151611810906117f05760006117f2565b835b6040808701516000908152600f60205220549063ffffffff61380316565b6040808601516000908152600f6020528181209290925560808601518252902054611841908463ffffffff61380316565b60808501516000908152600f60205260408082209290925560c086015181522054611872908463ffffffff61380316565b60c08501516000908152600f6020526040902055600c8101546008820154600583015460028401546118e0936001600160a01b0316926118db9288926118cf92916118c3919063ffffffff61380316565b9063ffffffff61380316565b9063ffffffff61381516565b61383c565b6007810154600882015461190f916001600160a01b0316906118db9086906118cf90601e63ffffffff6137f516565b60068101546040516001600160a01b03909116907f692ad61076dceddd0f1a861f737553dd61fc8501cf4190d29c4e90af6607f76590611950908590614ecd565b60405180910390a27fd811b592ed0899225773e8933d8df64bd0b62761a9d7aad4ed5b22735f4610a4828560000151866040015187608001518860c00151886040516119a196959493929190614ee9565b60405180910390a150925050505b949350505050565b60025490565b6001600160a01b031660009081526006602052604090205490565b60006119e58484846138ca565b6001600160a01b038416600090815260016020908152604080832033808552925290912054611a25918691611a20908663ffffffff6137ba16565b6136d9565b5060019392505050565b6000611a3b338361398d565b611a453383613a37565b506001919050565b60055460ff1690565b6000838214611a6457600080fd5b60005b84811015611acf57611a8b33878784818110611a7f57fe5b90506020020135613abf565b611ac7848483818110611a9a57fe5b9050602002016020611aaf91908101906143ad565b878784818110611abb57fe5b90506020020135613b52565b600101611a67565b50600195945050505050565b6000611ae73384613abf565b6109568284613b52565b604051630409a12760e11b8152600090819073__IexecODBLibOrders_____________________90630813424e90611b2d908690600401614fe7565b60206040518083038186803b158015611b4557600080fd5b505af4158015611b59573d6000803e3d6000fd5b505050506040513d601f19601f82011682018060405250611b7d91908101906145a4565b600c5460405163176eaa4960e01b815273__IexecODBLibOrders_____________________9263176eaa4992611bb592600401614edb565b60206040518083038186803b158015611bcd57600080fd5b505af4158015611be1573d6000803e3d6000fd5b505050506040513d601f19601f82011682018060405250611c0591908101906145a4565b90508260c001516001600160a01b0316336001600160a01b031614611c2957600080fd5b60e08301516000828152600f60205260409081902091909155517f582f43f2a741cbe708aae3b8d38a4efc3d09d7e81919697b3ca693f4c444cc0590611c70908390614ecd565b60405180910390a150600192915050565b3360008181526001602090815260408083206001600160a01b03871684529091528120549091610956918590611a20908663ffffffff61380316565b600b6020526000908152604090205460ff1681565b7f54bee205d9b03332d6dc82bc907476dfef6ed4fd86058d49a72994baee78117581604051611d019190614fe7565b60405180910390a150565b6000908152600f602052604090205490565b7fc56d982ad2fd39ebadca073cc88d9bdaee0f4c8e7b2b6be50227169daefc7b3f81604051611d019190614fc5565b601e81565b600a81565b6007546001600160a01b03163314611d6e57600080fd5b6000828152600e60205260408120600881015460058201546002830154929392611da392916118c3919063ffffffff61380316565b6008830154909150600090611dbf90601e63ffffffff6137f516565b600c840154909150611dda906001600160a01b031683613bf3565b6007830154611df3906001600160a01b03168286613c75565b60408051808201909152601081526f4965786563436c65726b2d4b6974747960801b602090910152611e3a73c6a5d97142a5255a3ed44a0635dfddc1b49150ff8286613cfb565b60408051808201909152601081526f4965786563436c65726b2d4b6974747960801b602090910152611e8073c6a5d97142a5255a3ed44a0635dfddc1b49150ff8261383c565b5050505050565b604051630af531cd60e21b8152600090819073__IexecODBLibOrders_____________________90632bd4c73490611ec3908690600401614fc5565b60206040518083038186803b158015611edb57600080fd5b505af4158015611eef573d6000803e3d6000fd5b505050506040513d601f19601f82011682018060405250611f1391908101906145a4565b600c5460405163176eaa4960e01b815273__IexecODBLibOrders_____________________9263176eaa4992611f4b92600401614edb565b60206040518083038186803b158015611f6357600080fd5b505af4158015611f77573d6000803e3d6000fd5b505050506040513d601f19601f82011682018060405250611f9b91908101906145a4565b905082600001516001600160a01b0316638da5cb5b6040518163ffffffff1660e01b815260040160206040518083038186803b158015611fda57600080fd5b505afa158015611fee573d6000803e3d6000fd5b505050506040513d601f19601f8201168201806040525061201291908101906143cb565b6001600160a01b0316336001600160a01b03161461202f57600080fd5b6040808401516000838152600f60205282902055517fcf52e3228bc482a6656d8ab56c09888b1c5bf6aaadba0185e96a34836f2bb1d490611c70908390614ecd565b60008061207d83612407565b612086846119bd565b91509150915091565b600481565b600081600001516001600160a01b0316638da5cb5b6040518163ffffffff1660e01b815260040160206040518083038186803b1580156120d357600080fd5b505afa1580156120e7573d6000803e3d6000fd5b505050506040513d601f19601f8201168201806040525061210b91908101906143cb565b6001600160a01b0316336001600160a01b03161461212857600080fd5b604051632c5a82c360e11b815260019060109060009073__IexecODBLibOrders_____________________906358b5058690612168908890600401614ff8565b60206040518083038186803b15801561218057600080fd5b505af4158015612194573d6000803e3d6000fd5b505050506040513d601f19601f820116820180604052506121b891908101906145a4565b600c5460405163176eaa4960e01b815273__IexecODBLibOrders_____________________9263176eaa49926121f092600401614edb565b60206040518083038186803b15801561220857600080fd5b505af415801561221c573d6000803e3d6000fd5b505050506040513d601f19601f8201168201806040525061224091908101906145a4565b81526020810191909152604001600020805460ff1916911515919091179055506001919050565b61226f613e39565b604051806040016040528061228384612407565b8152602001612291846119bd565b905292915050565b600081600001516001600160a01b0316638da5cb5b6040518163ffffffff1660e01b815260040160206040518083038186803b1580156122d857600080fd5b505afa1580156122ec573d6000803e3d6000fd5b505050506040513d601f19601f8201168201806040525061231091908101906143cb565b6001600160a01b0316336001600160a01b03161461232d57600080fd5b604051630495132960e01b815260019060109060009073__IexecODBLibOrders_____________________90630495132990612168908890600401614fc5565b6000818152600d60209081526040918290208054835181840281018401909452808452606093928301828280156123c357602002820191906000526020600020905b8154815260200190600101908083116123af575b50505050509050919050565b6007546001600160a01b031633146123e657600080fd5b6000828152600e6020526040902060130154612403908290613bf3565b5050565b6001600160a01b031660009081526020819052604090205490565b6007546001600160a01b0316331461243957600080fd5b6000828152600e6020526040812060088101546005820154600283015492939261246e92916118c3919063ffffffff61380316565b600883015490915060009061248a90601e63ffffffff6137f516565b600c8401549091506124a6906001600160a01b03168386613c75565b6002830154156124ce57600183015460028401546124ce916001600160a01b03169086613cfb565b6005830154158015906124ed575060038301546001600160a01b031615155b156125105760048301546005840154612510916001600160a01b03169086613cfb565b6007830154612528906001600160a01b031682613bf3565b60408051808201909152601081526f4965786563436c65726b2d4b6974747960801b602090910152600061256f73c6a5d97142a5255a3ed44a0635dfddc1b49150ff6119bd565b9050801561260e576125ac816125a0633b9aca0061259483600a63ffffffff6137f516565b9063ffffffff6137e516565b9063ffffffff6137cf16565b60408051808201909152601081526f4965786563436c65726b2d4b6974747960801b60209091015290506125f573c6a5d97142a5255a3ed44a0635dfddc1b49150ff8287613c75565b600784015461260e906001600160a01b03168287613cfb565b505050505050565b60008160c001516001600160a01b0316336001600160a01b03161461263a57600080fd5b604051630409a12760e11b815260019060109060009073__IexecODBLibOrders_____________________90630813424e90612168908890600401614fe7565b604051630495132960e01b8152600090819073__IexecODBLibOrders_____________________906304951329906126b6908690600401614fc5565b60206040518083038186803b1580156126ce57600080fd5b505af41580156126e2573d6000803e3d6000fd5b505050506040513d601f19601f8201168201806040525061270691908101906145a4565b600c5460405163176eaa4960e01b815273__IexecODBLibOrders_____________________9263176eaa499261273e92600401614edb565b60206040518083038186803b15801561275657600080fd5b505af415801561276a573d6000803e3d6000fd5b505050506040513d601f19601f8201168201806040525061278e91908101906145a4565b905082600001516001600160a01b0316638da5cb5b6040518163ffffffff1660e01b815260040160206040518083038186803b1580156127cd57600080fd5b505afa1580156127e1573d6000803e3d6000fd5b505050506040513d601f19601f8201168201806040525061280591908101906143cb565b6001600160a01b0316336001600160a01b03161461282257600080fd5b6040808401516000838152600f60205282902055517f7343f75be43aba524f85326508cd975d016ef7884676377366c69a7c32e3066890611c70908390614ecd565b6007546001600160a01b031681565b7faf81a046e31ebb2be305579e585ac6b2ee3fdc2dc9dba806bb826879bb2c785181604051611d019190614ff8565b60048054604080516020601f600260001961010060018816150201909516949094049384018190048102820181019092528281526060939092909183018282801561093e5780601f106109135761010080835404028352916020019161093e565b60408051808201909152601081526f4965786563436c65726b2d4b6974747960801b60209091015273c6a5d97142a5255a3ed44a0635dfddc1b49150ff81565b6007546001600160a01b0316331461295a57600080fd5b6000838152600e602052604090206013015461297890839083613c75565b505050565b6007546001600160a01b0316331461299457600080fd5b6000838152600e6020526040902060070154612978906001600160a01b03168383613cfb565b600081600001516001600160a01b0316638da5cb5b6040518163ffffffff1660e01b815260040160206040518083038186803b1580156129f957600080fd5b505afa158015612a0d573d6000803e3d6000fd5b505050506040513d601f19601f82011682018060405250612a3191908101906143cb565b6001600160a01b0316336001600160a01b031614612a4e57600080fd5b604051630af531cd60e21b815260019060109060009073__IexecODBLibOrders_____________________90632bd4c73490612168908890600401614fc5565b6007546001600160a01b03163314612aa557600080fd5b6000848152600e6020526040902060130154612ac2908490613bf3565b612acd838383613cfb565b50505050565b3360008181526001602090815260408083206001600160a01b03871684529091528120549091610956918590611a20908663ffffffff6137ba16565b60006109563384846138ca565b604051632c5a82c360e11b8152600090819073__IexecODBLibOrders_____________________906358b5058690612b58908690600401614ff8565b60206040518083038186803b158015612b7057600080fd5b505af4158015612b84573d6000803e3d6000fd5b505050506040513d601f19601f82011682018060405250612ba891908101906145a4565b600c5460405163176eaa4960e01b815273__IexecODBLibOrders_____________________9263176eaa4992612be092600401614edb565b60206040518083038186803b158015612bf857600080fd5b505af4158015612c0c573d6000803e3d6000fd5b505050506040513d601f19601f82011682018060405250612c3091908101906145a4565b905082600001516001600160a01b0316638da5cb5b6040518163ffffffff1660e01b815260040160206040518083038186803b158015612c6f57600080fd5b505afa158015612c83573d6000803e3d6000fd5b505050506040513d601f19601f82011682018060405250612ca791908101906143cb565b6001600160a01b0316336001600160a01b031614612cc457600080fd5b6040808401516000838152600f60205282902055517f145ad51e4496173bca15e24e7eb46f9ab3a10eea0497e2801a3a6806c06113a390611c70908390614ecd565b60096020528160005260406000208181548110612d1f57fe5b90600052602060002001600091509150505481565b6000612d403383613abf565b611a453383613b52565b612d52613e53565b6000828152600e602081815260409283902083516102408101855281546001600160a01b039081166101e083019081526001808501548316610200850152600280860154610220860152918452875160608082018a5260038701548516825260048701548516828901526005870154828b01528588019190915288518082018a5260068701548516815260078701548516818901526008870154818b0152858a0152600986015490850152600a8501546080850152600b85015460a0850152600c850154831660c0850152600d850154831660e08501529584015490911661010080840191909152600f840180548851978116159092026000190190911691909104601f810185900485028601850190965285855290949193610120860193909290830182828015612ec55780601f10612e9a57610100808354040283529160200191612ec5565b820191906000526020600020905b815481529060010190602001808311612ea857829003601f168201915b50505050508152602001601082015481526020016011820154815260200160128201548152602001601382015481526020016014820154815250509050919050565b6000806000806000806000806000612f1d613e53565b60008b8152600e602081815260409283902083516102408101855281546001600160a01b039081166101e083019081526001808501548316610200850152600280860154610220860152918452875160608082018a5260038701548516825260048701548516828901526005870154828b01528588019190915288518082018a5260068701548516815260078701548516818901526008870154818b0152858a0152600986015490850152600a8501546080850152600b85015460a0850152600c850154831660c0850152600d850154831660e08501529584015490911661010080840191909152600f840180548851978116159092026000190190911691909104601f8101859004850286018501909652858552909491936101208601939092908301828280156130905780601f1061306557610100808354040283529160200191613090565b820191906000526020600020905b81548152906001019060200180831161307357829003601f168201915b50505050508152602001601082015481526020016011820154815260200160128201548152602001601382015481526020016014820154815250509050806000015160000151816000015160200151826000015160400151836020015160000151846020015160200151856020015160400151866040015160000151876040015160200151886040015160400151995099509950995099509950995099509950509193959799909294969850565b7f6fd493f856b22df174df46975d6dcf0895c7dfb3c63d20179c0dcd5563e2f56581604051611d019190614fc5565b6000806000806000606061317f613e53565b6000888152600e602081815260409283902083516102408101855281546001600160a01b039081166101e083019081526001808501548316610200850152600280860154610220860152918452875160608082018a5260038701548516825260048701548516828901526005870154828b01528588019190915288518082018a5260068701548516815260078701548516818901526008870154818b0152858a0152600986015490850152600a8501546080850152600b85015460a0850152600c850154831660c0850152600d850154831660e08501529584015490911661010080840191909152600f840180548851978116159092026000190190911691909104601f8101859004850286018501909652858552909491936101208601939092908301828280156132f25780601f106132c7576101008083540402835291602001916132f2565b820191906000526020600020905b8154815290600101906020018083116132d557829003601f168201915b5050505050815260200160108201548152602001601182015481526020016012820154815260200160138201548152602001601482015481525050905080606001518160a001518260c001518360e001518461010001518561012001518090509650965096509650965096505091939550919395565b60009081526010602052604090205460ff1690565b60008060008060008061338e613e53565b6000888152600e602081815260409283902083516102408101855281546001600160a01b039081166101e083019081526001808501548316610200850152600280860154610220860152918452875160608082018a5260038701548516825260048701548516828901526005870154828b01528588019190915288518082018a5260068701548516815260078701548516818901526008870154818b0152858a0152600986015490850152600a8501546080850152600b85015460a0850152600c850154831660c0850152600d850154831660e08501529584015490911661010080840191909152600f840180548851978116159092026000190190911691909104601f8101859004850286018501909652858552909491936101208601939092908301828280156135015780601f106134d657610100808354040283529160200191613501565b820191906000526020600020905b8154815290600101906020018083116134e457829003601f168201915b505050505081526020016010820154815260200160118201548152602001601282015481526020016013820154815260200160148201548152505090508060800151816101400151826101600151836101800151846101a00151856101c001519650965096509650965096505091939550919395565b6001600160a01b03918216600090815260016020908152604080832093909416825291909152205490565b633b9aca0081565b600a6020526000908152604090205481565b6007546001600160a01b031633146135d357600080fd5b6000828152600e602052604090206013015461240390829061383c565b60055461010090046001600160a01b031690565b600080600080845160411461361f57600093505050506108a5565b50505060208201516040830151606084015160001a601b81101561364157601b015b8060ff16601b1415801561365957508060ff16601c14155b1561366a57600093505050506108a5565b6001868285856040516000815260200160405260405161368d9493929190614f63565b6020604051602081039080840390855afa1580156136af573d6000803e3d6000fd5b505050602060405103516001600160a01b0316876001600160a01b03161493505050509392505050565b6001600160a01b0382166136ec57600080fd5b6001600160a01b0383166136ff57600080fd5b6001600160a01b0380841660008181526001602090815260408083209487168084529490915290819020849055517f8c5be1e5ebec7d5bd14f71427d1e84f3dd0314c0f7b2291e5b200ac8c7c3b9259061375a908590614ecd565b60405180910390a3505050565b6000826001600160a01b0316846001600160a01b031614806108a25750836001600160a01b031663d202158d61379c85613d39565b846040518363ffffffff1660e01b8152600401610852929190614edb565b6000828211156137c957600080fd5b50900390565b60008183106137de57816108a5565b5090919050565b6000818310156137de57816108a5565b60006108a583836064613d45565b6000828201838110156108a557600080fd5b6000826138245750600061095a565b8282028284828161383157fe5b04146108a557600080fd5b6138478230836138ca565b6001600160a01b038216600090815260066020526040902054613870908263ffffffff61380316565b6001600160a01b0383166000908152600660205260409081902091909155517f625fed9875dada8643f2418b838ae0bc78d9a148a18eee4ee1979ff0f3f5d427906138be9084908490614e78565b60405180910390a15050565b6001600160a01b0382166138dd57600080fd5b6001600160a01b038316600090815260208190526040902054613906908263ffffffff6137ba16565b6001600160a01b03808516600090815260208190526040808220939093559084168152205461393b908263ffffffff61380316565b6001600160a01b0380841660008181526020819052604090819020939093559151908516907fddf252ad1be2c89b69c2b068fc378daa952ba7f163c4a11628f55a4df523b3ef9061375a908590614ecd565b6001600160a01b0382166139a057600080fd5b6002546139b3908263ffffffff6137ba16565b6002556001600160a01b0382166000908152602081905260409020546139df908263ffffffff6137ba16565b6001600160a01b0383166000818152602081905260408082209390935591517fddf252ad1be2c89b69c2b068fc378daa952ba7f163c4a11628f55a4df523b3ef90613a2b908590614ecd565b60405180910390a35050565b60055460405163a9059cbb60e01b81526101009091046001600160a01b03169063a9059cbb90613a6d9085908590600401614e78565b602060405180830381600087803b158015613a8757600080fd5b505af1158015613a9b573d6000803e3d6000fd5b505050506040513d601f19601f820116820180604052506129789190810190614568565b6005546040516323b872dd60e01b81526101009091046001600160a01b0316906323b872dd90613af790859030908690600401614dca565b602060405180830381600087803b158015613b1157600080fd5b505af1158015613b25573d6000803e3d6000fd5b505050506040513d601f19601f82011682018060405250613b499190810190614568565b61240357600080fd5b6001600160a01b038216613b6557600080fd5b600254613b78908263ffffffff61380316565b6002556001600160a01b038216600090815260208190526040902054613ba4908263ffffffff61380316565b6001600160a01b0383166000818152602081905260408082209390935591519091907fddf252ad1be2c89b69c2b068fc378daa952ba7f163c4a11628f55a4df523b3ef90613a2b908590614ecd565b613bfe3083836138ca565b6001600160a01b038216600090815260066020526040902054613c27908263ffffffff6137ba16565b6001600160a01b0383166000908152600660205260409081902091909155517f6381d9813cabeb57471b5a7e05078e64845ccdb563146a6911d536f24ce960f1906138be9084908490614e78565b6001600160a01b038316600090815260066020526040902054613c9e908363ffffffff6137ba16565b6001600160a01b0384166000908152600660205260409081902091909155517f1bccc549c38561cd5b57f0db11ceb8dde1b0b6ee05ab5e155b51c7c5ba64becb90613cee90859085908590614e93565b60405180910390a1505050565b613d063084846138ca565b7fc2aca55aa696938c7e95842e8939ca0fbb2120a3eeb8948cdcee2b70da566672838383604051613cee93929190614e93565b6001600160a01b031690565b60006108a2613d548585613815565b836000808211613d6357600080fd5b6000828481613d6e57fe5b04949350505050565b6040805161010081018252600080825260208201819052918101829052606081018290526080810182905260a0810182905260c0810182905260e081019190915290565b828054600181600116156101000203166002900490600052602060002090601f016020900481019282601f10613dfc57805160ff1916838001178555613e29565b82800160010185558215613e29579182015b82811115613e29578251825591602001919060010190613e0e565b50613e35929150613ef9565b5090565b604051806040016040528060008152602001600081525090565b604051806102a00160405280613e67613f13565b8152602001613e74613f13565b8152602001613e81613f13565b815260200160008152602001600081526020016000801916815260200160006001600160a01b0316815260200160006001600160a01b0316815260200160006001600160a01b031681526020016060815260200160008152602001600081526020016000815260200160008152602001600081525090565b61094691905b80821115613e355760008155600101613eff565b604080516060810182526000808252602082018190529181019190915290565b803561095a8161513a565b805161095a8161513a565b60008083601f840112613f5b57600080fd5b5081356001600160401b03811115613f7257600080fd5b602083019150836020820283011115613f8a57600080fd5b9250929050565b805161095a81615151565b803561095a8161515a565b805161095a8161515a565b600082601f830112613fc357600080fd5b8135613fd6613fd18261509d565b615077565b91508082526020830160208301858383011115613ff257600080fd5b613ffd8382846150f8565b50505092915050565b6000610120828403121561401957600080fd5b614024610120615077565b905060006140328484613f33565b825250602061404384848301613f9c565b602083015250604061405784828501613f9c565b604083015250606061406b84828501613f9c565b606083015250608061407f84828501613f33565b60808301525060a061409384828501613f33565b60a08301525060c06140a784828501613f33565b60c08301525060e06140bb84828501613f9c565b60e0830152506101008201356001600160401b038111156140db57600080fd5b6140e784828501613fb2565b6101008301525092915050565b6000610200828403121561410757600080fd5b614112610200615077565b905060006141208484613f33565b825250602061413184848301613f9c565b602083015250604061414584828501613f33565b604083015250606061415984828501613f9c565b606083015250608061416d84828501613f33565b60808301525060a061418184828501613f9c565b60a08301525060c061419584828501613f33565b60c08301525060e06141a984828501613f9c565b60e0830152506101006141be84828501613f9c565b610100830152506101206141d484828501613f9c565b610120830152506101406141ea84828501613f9c565b6101408301525061016061420084828501613f33565b6101608301525061018061421684828501613f33565b610180830152506101a08201356001600160401b0381111561423757600080fd5b61424384828501613fb2565b6101a0830152506101c061425984828501613f9c565b6101c0830152506101e08201356001600160401b0381111561427a57600080fd5b61428684828501613fb2565b6101e08301525092915050565b600061016082840312156142a657600080fd5b6142b1610160615077565b905060006142bf8484613f33565b82525060206142d084848301613f9c565b60208301525060406142e484828501613f9c565b60408301525060606142f884828501613f9c565b606083015250608061430c84828501613f9c565b60808301525060a061432084828501613f9c565b60a08301525060c061433484828501613f33565b60c08301525060e061434884828501613f33565b60e08301525061010061435d84828501613f33565b6101008301525061012061437384828501613f9c565b610120830152506101408201356001600160401b0381111561439457600080fd5b6143a084828501613fb2565b6101408301525092915050565b6000602082840312156143bf57600080fd5b60006119af8484613f33565b6000602082840312156143dd57600080fd5b60006119af8484613f3e565b600080604083850312156143fc57600080fd5b60006144088585613f33565b925050602061441985828601613f33565b9150509250929050565b60008060006060848603121561443857600080fd5b60006144448686613f33565b935050602061445586828701613f33565b925050604061446686828701613f9c565b9150509250925092565b60008060006060848603121561448557600080fd5b60006144918686613f33565b93505060206144a286828701613f9c565b92505060408401356001600160401b038111156144be57600080fd5b61446686828701613fb2565b600080604083850312156144dd57600080fd5b60006144e98585613f33565b925050602061441985828601613f9c565b6000806000806040858703121561451057600080fd5b84356001600160401b0381111561452657600080fd5b61453287828801613f49565b945094505060208501356001600160401b0381111561455057600080fd5b61455c87828801613f49565b95989497509550505050565b60006020828403121561457a57600080fd5b60006119af8484613f91565b60006020828403121561459857600080fd5b60006119af8484613f9c565b6000602082840312156145b657600080fd5b60006119af8484613fa7565b600080604083850312156145d557600080fd5b60006144088585613f9c565b6000806000606084860312156145f657600080fd5b60006144448686613f9c565b6000806000806080858703121561461857600080fd5b60006146248787613f9c565b945050602061463587828801613f33565b935050604061464687828801613f9c565b925050606061465787828801613f9c565b91505092959194509250565b6000806040838503121561467657600080fd5b60006144e98585613f9c565b60008060006060848603121561469757600080fd5b60006146a38686613f9c565b935050602061445586828701613f9c565b6000602082840312156146c657600080fd5b81356001600160401b038111156146dc57600080fd5b6119af84828501614006565b600080600080608085870312156146fe57600080fd5b84356001600160401b0381111561471457600080fd5b61472087828801614006565b94505060208501356001600160401b0381111561473c57600080fd5b61474887828801614006565b93505060408501356001600160401b0381111561476457600080fd5b61477087828801614293565b92505060608501356001600160401b0381111561478c57600080fd5b614657878288016140f4565b6000602082840312156147aa57600080fd5b81356001600160401b038111156147c057600080fd5b6119af848285016140f4565b6000602082840312156147de57600080fd5b81356001600160401b038111156147f457600080fd5b6119af84828501614293565b600061480c8383614885565b505060200190565b61481d816150d7565b82525050565b600061482e826150ca565b61483881856150ce565b9350614843836150c4565b8060005b8381101561487157815161485b8882614800565b9750614866836150c4565b925050600101614847565b509495945050505050565b61481d816150e2565b61481d81610946565b61481d61489a82610946565b610946565b60006148aa826150ca565b6148b481856150ce565b93506148c4818560208601615104565b6148cd81615130565b9093019392505050565b61481d816150ed565b805160408301906148f18482614885565b506020820151612acd6020850182614885565b80516000906101208401906149198582614814565b50602083015161492c6020860182614885565b50604083015161493f6040860182614885565b5060608301516149526060860182614885565b5060808301516149656080860182614814565b5060a083015161497860a0860182614814565b5060c083015161498b60c0860182614814565b5060e083015161499e60e0860182614885565b506101008301518482036101008601526149b8828261489f565b95945050505050565b80516000906102a08401906149d68582614c50565b5060208301516149e96060860182614c50565b5060408301516149fc60c0860182614c50565b506060830151614a10610120860182614885565b506080830151614a24610140860182614885565b5060a0830151614a38610160860182614885565b5060c0830151614a4c610180860182614814565b5060e0830151614a606101a0860182614814565b50610100830151614a756101c0860182614814565b506101208301518482036101e0860152614a8f828261489f565b915050610140830151614aa6610200860182614885565b50610160830151614abb610220860182614885565b50610180830151614ad0610240860182614885565b506101a0830151614ae5610260860182614885565b506101c0830151614afa610280860182614885565b509392505050565b8051600090610200840190614b178582614814565b506020830151614b2a6020860182614885565b506040830151614b3d6040860182614814565b506060830151614b506060860182614885565b506080830151614b636080860182614814565b5060a0830151614b7660a0860182614885565b5060c0830151614b8960c0860182614814565b5060e0830151614b9c60e0860182614885565b50610100830151614bb1610100860182614885565b50610120830151614bc6610120860182614885565b50610140830151614bdb610140860182614885565b50610160830151614bf0610160860182614814565b50610180830151614c05610180860182614814565b506101a08301518482036101a0860152614c1f828261489f565b9150506101c0830151614c366101c0860182614885565b506101e08301518482036101e08601526149b8828261489f565b80516060830190614c618482614814565b506020820151614c746020850182614814565b506040820151612acd6040850182614885565b8051600090610160840190614c9c8582614814565b506020830151614caf6020860182614885565b506040830151614cc26040860182614885565b506060830151614cd56060860182614885565b506080830151614ce86080860182614885565b5060a0830151614cfb60a0860182614885565b5060c0830151614d0e60c0860182614814565b5060e0830151614d2160e0860182614814565b50610100830151614d36610100860182614814565b50610120830151614d4b610120860182614885565b506101408301518482036101408601526149b8828261489f565b61481d816150e7565b6000614d7a828561488e565b602082019150614d8a828461488e565b5060200192915050565b6020810161095a8284614814565b60608101614db08286614814565b614dbd6020830185614814565b6119af6040830184614814565b60608101614dd88286614814565b614de56020830185614814565b6119af6040830184614885565b6101208101614e01828c614814565b614e0e602083018b614814565b614e1b604083018a614885565b614e286060830189614814565b614e356080830188614814565b614e4260a0830187614885565b614e4f60c0830186614814565b614e5c60e0830185614814565b614e6a610100830184614885565b9a9950505050505050505050565b60408101614e868285614814565b6108a56020830184614885565b60608101614ea18286614814565b614de56020830185614885565b602080825281016108a58184614823565b6020810161095a828461487c565b6020810161095a8284614885565b60408101614e868285614885565b60c08101614ef78289614885565b614f046020830188614885565b614f116040830187614885565b614f1e6060830186614885565b614f2b6080830185614885565b614f3860a0830184614885565b979650505050505050565b60408101614f518285614885565b81810360208301526108a2818461489f565b60808101614f718287614885565b614f7e6020830186614d65565b614f8b6040830185614885565b6149b86060830184614885565b6020810161095a82846148d7565b602080825281016108a5818461489f565b6040810161095a82846148e0565b602080825281016108a58184614904565b602080825281016108a581846149c1565b602080825281016108a58184614b02565b602080825281016108a58184614c87565b60c081016150178289614885565b6150246020830188614885565b6150316040830187614814565b61503e6060830186614814565b61504b6080830185614814565b81810360a083015261505d818461489f565b98975050505050505050565b6020810161095a8284614d65565b6040518181016001600160401b038111828210171561509557600080fd5b604052919050565b60006001600160401b038211156150b357600080fd5b506020601f91909101601f19160190565b60200190565b5190565b90815260200190565b600061095a82613d39565b151590565b60ff1690565b600061095a826150d7565b82818337506000910152565b60005b8381101561511f578181015183820152602001615107565b83811115612acd5750506000910152565b601f01601f191690565b615143816150d7565b811461514e57600080fd5b50565b615143816150e2565b6151438161094656fea365627a7a723058206c9594310a373ef2dcbec4ccbf9080dd6b7b82b0f522aa24a261fe843d01632b6c6578706572696d656e74616cf564736f6c63430005090040",
  "source": "pragma solidity ^0.5.8;\npragma experimental ABIEncoderV2;\n\nimport \"iexec-solidity/contracts/Libs/SafeMath.sol\";\n\nimport \"./libs/IexecODBLibCore.sol\";\nimport \"./libs/IexecODBLibOrders.sol\";\nimport \"./registries/App.sol\";\nimport \"./registries/Dataset.sol\";\nimport \"./registries/Workerpool.sol\";\nimport \"./EscrowERC20.sol\";\nimport \"./Relay.sol\";\nimport \"./SignatureVerifier.sol\";\nimport \"./IexecHubAccessor.sol\";\n\n/**\n * /!\\ TEMPORARY LEGACY /!\\\n */\nimport \"./IexecClerkABILegacy.sol\";\n\ncontract IexecClerk is EscrowERC20, Relay, IexecHubAccessor, SignatureVerifier, IexecClerkABILegacy\n{\n\tusing SafeMath          for uint256;\n\tusing IexecODBLibOrders for bytes32;\n\tusing IexecODBLibOrders for IexecODBLibOrders.EIP712Domain;\n\tusing IexecODBLibOrders for IexecODBLibOrders.AppOrder;\n\tusing IexecODBLibOrders for IexecODBLibOrders.DatasetOrder;\n\tusing IexecODBLibOrders for IexecODBLibOrders.WorkerpoolOrder;\n\tusing IexecODBLibOrders for IexecODBLibOrders.RequestOrder;\n\n\t/***************************************************************************\n\t *                                Constants                                *\n\t ***************************************************************************/\n\tuint256 public constant WORKERPOOL_STAKE_RATIO = 30;\n\tuint256 public constant KITTY_RATIO            = 10;\n\tuint256 public constant KITTY_MIN              = 1000000000; // TODO: 1RLC ?\n\taddress public constant KITTY_ADDRESS          = address(bytes20(keccak256(bytes(\"IexecClerk-Kitty\"))));\n\n\t// For authorizations\n\tuint256 public constant GROUPMEMBER_PURPOSE    = 4;\n\n\t/***************************************************************************\n\t *                            EIP712 signature                             *\n\t ***************************************************************************/\n\tbytes32 public /* immutable */ EIP712DOMAIN_SEPARATOR;\n\n\t/***************************************************************************\n\t *                               Clerk data                                *\n\t ***************************************************************************/\n\tmapping(bytes32 => bytes32[]           ) m_requestdeals;\n\tmapping(bytes32 => IexecODBLibCore.Deal) m_deals;\n\tmapping(bytes32 => uint256             ) m_consumed;\n\tmapping(bytes32 => bool                ) m_presigned;\n\n\t/***************************************************************************\n\t *                                 Events                                  *\n\t ***************************************************************************/\n\tevent OrdersMatched        (bytes32 dealid, bytes32 appHash, bytes32 datasetHash, bytes32 workerpoolHash, bytes32 requestHash, uint256 volume);\n\tevent ClosedAppOrder       (bytes32 appHash);\n\tevent ClosedDatasetOrder   (bytes32 datasetHash);\n\tevent ClosedWorkerpoolOrder(bytes32 workerpoolHash);\n\tevent ClosedRequestOrder   (bytes32 requestHash);\n\tevent SchedulerNotice      (address indexed workerpool, bytes32 dealid);\n\n\t/***************************************************************************\n\t *                               Constructor                               *\n\t ***************************************************************************/\n\tconstructor(\n\t\taddress _token,\n\t\taddress _iexechub,\n\t\tuint256 _chainid)\n\tpublic\n\tEscrowERC20(_token)\n\tIexecHubAccessor(_iexechub)\n\t{\n\t\tEIP712DOMAIN_SEPARATOR = IexecODBLibOrders.EIP712Domain({\n\t\t\tname:              \"iExecODB\"\n\t\t, version:           \"3.0-alpha\"\n\t\t, chainId:           _chainid\n\t\t, verifyingContract: address(this)\n\t\t}).hash();\n\t}\n\n\t/***************************************************************************\n\t *                                Accessor                                 *\n\t ***************************************************************************/\n\tfunction viewRequestDeals(bytes32 _id)\n\texternal view returns (bytes32[] memory requestdeals)\n\t{\n\t\treturn m_requestdeals[_id];\n\t}\n\n\tfunction viewDeal(bytes32 _id)\n\texternal view returns (IexecODBLibCore.Deal memory deal)\n\t{\n\t\treturn m_deals[_id];\n\t}\n\n\tfunction viewConsumed(bytes32 _id)\n\texternal view returns (uint256 consumed)\n\t{\n\t\treturn m_consumed[_id];\n\t}\n\n\tfunction viewPresigned(bytes32 _id)\n\texternal view returns (bool presigned)\n\t{\n\t\treturn m_presigned[_id];\n\t}\n\n\t/***************************************************************************\n\t *                            pre-signing tools                            *\n\t ***************************************************************************/\n\t// should be external\n\tfunction signAppOrder(IexecODBLibOrders.AppOrder memory _apporder)\n\tpublic returns (bool)\n\t{\n\t\trequire(msg.sender == App(_apporder.app).owner());\n\t\tm_presigned[_apporder.hash().toEthTypedStructHash(EIP712DOMAIN_SEPARATOR)] = true;\n\t\treturn true;\n\t}\n\n\t// should be external\n\tfunction signDatasetOrder(IexecODBLibOrders.DatasetOrder memory _datasetorder)\n\tpublic returns (bool)\n\t{\n\t\trequire(msg.sender == Dataset(_datasetorder.dataset).owner());\n\t\tm_presigned[_datasetorder.hash().toEthTypedStructHash(EIP712DOMAIN_SEPARATOR)] = true;\n\t\treturn true;\n\t}\n\n\t// should be external\n\tfunction signWorkerpoolOrder(IexecODBLibOrders.WorkerpoolOrder memory _workerpoolorder)\n\tpublic returns (bool)\n\t{\n\t\trequire(msg.sender == Workerpool(_workerpoolorder.workerpool).owner());\n\t\tm_presigned[_workerpoolorder.hash().toEthTypedStructHash(EIP712DOMAIN_SEPARATOR)] = true;\n\t\treturn true;\n\t}\n\n\t// should be external\n\tfunction signRequestOrder(IexecODBLibOrders.RequestOrder memory _requestorder)\n\tpublic returns (bool)\n\t{\n\t\trequire(msg.sender == _requestorder.requester);\n\t\tm_presigned[_requestorder.hash().toEthTypedStructHash(EIP712DOMAIN_SEPARATOR)] = true;\n\t\treturn true;\n\t}\n\n\t/***************************************************************************\n\t *                              Clerk methods                              *\n\t ***************************************************************************/\n\tstruct Identities\n\t{\n\t\tbytes32 appHash;\n\t\taddress appOwner;\n\t\tbytes32 datasetHash;\n\t\taddress datasetOwner;\n\t\tbytes32 workerpoolHash;\n\t\taddress workerpoolOwner;\n\t\tbytes32 requestHash;\n\t\tbool    hasDataset;\n\t}\n\n\t// should be external\n\tfunction matchOrders(\n\t\tIexecODBLibOrders.AppOrder        memory _apporder,\n\t\tIexecODBLibOrders.DatasetOrder    memory _datasetorder,\n\t\tIexecODBLibOrders.WorkerpoolOrder memory _workerpoolorder,\n\t\tIexecODBLibOrders.RequestOrder    memory _requestorder)\n\tpublic returns (bytes32)\n\t{\n\t\t/**\n\t\t * Check orders compatibility\n\t\t */\n\n\t\t// computation environment & allowed enough funds\n\t\trequire(_requestorder.category           == _workerpoolorder.category       );\n\t\trequire(_requestorder.trust              <= _workerpoolorder.trust          );\n\t\trequire(_requestorder.appmaxprice        >= _apporder.appprice              );\n\t\trequire(_requestorder.datasetmaxprice    >= _datasetorder.datasetprice      );\n\t\trequire(_requestorder.workerpoolmaxprice >= _workerpoolorder.workerpoolprice);\n\t\trequire((_apporder.tag | _datasetorder.tag | _requestorder.tag) & ~_workerpoolorder.tag == 0x0);\n\n\t\t// Check matching and restrictions\n\t\trequire(_requestorder.app     == _apporder.app        );\n\t\trequire(_requestorder.dataset == _datasetorder.dataset);\n\t\trequire(_requestorder.workerpool           == address(0) || checkIdentity(_requestorder.workerpool,           _workerpoolorder.workerpool, GROUPMEMBER_PURPOSE)); // requestorder.workerpool is a restriction\n\t\trequire(_apporder.datasetrestrict          == address(0) || checkIdentity(_apporder.datasetrestrict,          _datasetorder.dataset,       GROUPMEMBER_PURPOSE));\n\t\trequire(_apporder.workerpoolrestrict       == address(0) || checkIdentity(_apporder.workerpoolrestrict,       _workerpoolorder.workerpool, GROUPMEMBER_PURPOSE));\n\t\trequire(_apporder.requesterrestrict        == address(0) || checkIdentity(_apporder.requesterrestrict,        _requestorder.requester,     GROUPMEMBER_PURPOSE));\n\t\trequire(_datasetorder.apprestrict          == address(0) || checkIdentity(_datasetorder.apprestrict,          _apporder.app,               GROUPMEMBER_PURPOSE));\n\t\trequire(_datasetorder.workerpoolrestrict   == address(0) || checkIdentity(_datasetorder.workerpoolrestrict,   _workerpoolorder.workerpool, GROUPMEMBER_PURPOSE));\n\t\trequire(_datasetorder.requesterrestrict    == address(0) || checkIdentity(_datasetorder.requesterrestrict,    _requestorder.requester,     GROUPMEMBER_PURPOSE));\n\t\trequire(_workerpoolorder.apprestrict       == address(0) || checkIdentity(_workerpoolorder.apprestrict,       _apporder.app,               GROUPMEMBER_PURPOSE));\n\t\trequire(_workerpoolorder.datasetrestrict   == address(0) || checkIdentity(_workerpoolorder.datasetrestrict,   _datasetorder.dataset,       GROUPMEMBER_PURPOSE));\n\t\trequire(_workerpoolorder.requesterrestrict == address(0) || checkIdentity(_workerpoolorder.requesterrestrict, _requestorder.requester,     GROUPMEMBER_PURPOSE));\n\n\t\trequire(iexechub.checkResources(_apporder.app, _datasetorder.dataset, _workerpoolorder.workerpool));\n\n\t\t/**\n\t\t * Check orders authenticity\n\t\t */\n\t\tIdentities memory ids;\n\t\tids.hasDataset = _datasetorder.dataset != address(0);\n\n\t\t// app\n\t\tids.appHash  = _apporder.hash().toEthTypedStructHash(EIP712DOMAIN_SEPARATOR);\n\t\tids.appOwner = App(_apporder.app).owner();\n\t\trequire(m_presigned[ids.appHash] || verifySignature(ids.appOwner, ids.appHash, _apporder.sign));\n\n\t\t// dataset\n\t\tif (ids.hasDataset) // only check if dataset is enabled\n\t\t{\n\t\t\tids.datasetHash  = _datasetorder.hash().toEthTypedStructHash(EIP712DOMAIN_SEPARATOR);\n\t\t\tids.datasetOwner = Dataset(_datasetorder.dataset).owner();\n\t\t\trequire(m_presigned[ids.datasetHash] || verifySignature(ids.datasetOwner, ids.datasetHash, _datasetorder.sign));\n\t\t}\n\n\t\t// workerpool\n\t\tids.workerpoolHash  = _workerpoolorder.hash().toEthTypedStructHash(EIP712DOMAIN_SEPARATOR);\n\t\tids.workerpoolOwner = Workerpool(_workerpoolorder.workerpool).owner();\n\t\trequire(m_presigned[ids.workerpoolHash] || verifySignature(ids.workerpoolOwner, ids.workerpoolHash, _workerpoolorder.sign));\n\n\t\t// request\n\t\tids.requestHash = _requestorder.hash().toEthTypedStructHash(EIP712DOMAIN_SEPARATOR);\n\t\trequire(m_presigned[ids.requestHash] || verifySignature(_requestorder.requester, ids.requestHash, _requestorder.sign));\n\n\t\t/**\n\t\t * Check availability\n\t\t */\n\t\tuint256 volume;\n\t\tvolume =                             _apporder.volume.sub       (m_consumed[ids.appHash       ]);\n\t\tvolume = ids.hasDataset ? volume.min(_datasetorder.volume.sub   (m_consumed[ids.datasetHash   ])) : volume;\n\t\tvolume =                  volume.min(_workerpoolorder.volume.sub(m_consumed[ids.workerpoolHash]));\n\t\tvolume =                  volume.min(_requestorder.volume.sub   (m_consumed[ids.requestHash   ]));\n\t\trequire(volume > 0);\n\n\t\t/**\n\t\t * Record\n\t\t */\n\t\tbytes32 dealid = keccak256(abi.encodePacked(\n\t\t\tids.requestHash,            // requestHash\n\t\t\tm_consumed[ids.requestHash] // idx of first subtask\n\t\t));\n\n\t\tIexecODBLibCore.Deal storage deal = m_deals[dealid];\n\t\tdeal.app.pointer          = _apporder.app;\n\t\tdeal.app.owner            = ids.appOwner;\n\t\tdeal.app.price            = _apporder.appprice;\n\t\tdeal.dataset.owner        = ids.datasetOwner;\n\t\tdeal.dataset.pointer      = _datasetorder.dataset;\n\t\tdeal.dataset.price        = ids.hasDataset ? _datasetorder.datasetprice : 0;\n\t\tdeal.workerpool.pointer   = _workerpoolorder.workerpool;\n\t\tdeal.workerpool.owner     = ids.workerpoolOwner;\n\t\tdeal.workerpool.price     = _workerpoolorder.workerpoolprice;\n\t\tdeal.trust                = _requestorder.trust.max(1);\n\t\tdeal.category             = _requestorder.category;\n\t\tdeal.tag                  = _apporder.tag | _datasetorder.tag | _requestorder.tag;\n\t\tdeal.requester            = _requestorder.requester;\n\t\tdeal.beneficiary          = _requestorder.beneficiary;\n\t\tdeal.callback             = _requestorder.callback;\n\t\tdeal.params               = _requestorder.params;\n\t\tdeal.startTime            = now;\n\t\tdeal.botFirst             = m_consumed[ids.requestHash];\n\t\tdeal.botSize              = volume;\n\t\tdeal.workerStake          = _workerpoolorder.workerpoolprice.percentage(Workerpool(_workerpoolorder.workerpool).m_workerStakeRatioPolicy());\n\t\tdeal.schedulerRewardRatio = Workerpool(_workerpoolorder.workerpool).m_schedulerRewardRatioPolicy();\n\n\t\tm_requestdeals[ids.requestHash].push(dealid);\n\n\t\t/**\n\t\t * Update consumed\n\t\t */\n\t\tm_consumed[ids.appHash       ] = m_consumed[ids.appHash       ].add(                 volume    );\n\t\tm_consumed[ids.datasetHash   ] = m_consumed[ids.datasetHash   ].add(ids.hasDataset ? volume : 0);\n\t\tm_consumed[ids.workerpoolHash] = m_consumed[ids.workerpoolHash].add(                 volume    );\n\t\tm_consumed[ids.requestHash   ] = m_consumed[ids.requestHash   ].add(                 volume    );\n\n\t\t/**\n\t\t * Lock\n\t\t */\n\t\tlock(\n\t\t\tdeal.requester,\n\t\t\tdeal.app.price\n\t\t\t.add(deal.dataset.price)\n\t\t\t.add(deal.workerpool.price)\n\t\t\t.mul(volume)\n\t\t);\n\t\tlock(\n\t\t\tdeal.workerpool.owner,\n\t\t\tdeal.workerpool.price\n\t\t\t.percentage(WORKERPOOL_STAKE_RATIO) // ORDER IS IMPORTANT HERE!\n\t\t\t.mul(volume)                        // ORDER IS IMPORTANT HERE!\n\t\t);\n\n\t\t/**\n\t\t * Advertize deal\n\t\t */\n\t\temit SchedulerNotice(deal.workerpool.pointer, dealid);\n\n\t\t/**\n\t\t * Advertize consumption\n\t\t */\n\t\temit OrdersMatched(\n\t\t\tdealid,\n\t\t\tids.appHash,\n\t\t\tids.datasetHash,\n\t\t\tids.workerpoolHash,\n\t\t\tids.requestHash,\n\t\t\tvolume\n\t\t);\n\n\t\treturn dealid;\n\t}\n\n\t// should be external\n\tfunction cancelAppOrder(IexecODBLibOrders.AppOrder memory _apporder)\n\tpublic returns (bool)\n\t{\n\t\tbytes32 dapporderHash = _apporder.hash().toEthTypedStructHash(EIP712DOMAIN_SEPARATOR);\n\t\trequire(msg.sender == App(_apporder.app).owner());\n\t\tm_consumed[dapporderHash] = _apporder.volume;\n\t\temit ClosedAppOrder(dapporderHash);\n\t\treturn true;\n\t}\n\n\t// should be external\n\tfunction cancelDatasetOrder(IexecODBLibOrders.DatasetOrder memory _datasetorder)\n\tpublic returns (bool)\n\t{\n\t\tbytes32 dataorderHash = _datasetorder.hash().toEthTypedStructHash(EIP712DOMAIN_SEPARATOR);\n\t\trequire(msg.sender == Dataset(_datasetorder.dataset).owner());\n\t\tm_consumed[dataorderHash] = _datasetorder.volume;\n\t\temit ClosedDatasetOrder(dataorderHash);\n\t\treturn true;\n\t}\n\n\t// should be external\n\tfunction cancelWorkerpoolOrder(IexecODBLibOrders.WorkerpoolOrder memory _workerpoolorder)\n\tpublic returns (bool)\n\t{\n\t\tbytes32 poolorderHash = _workerpoolorder.hash().toEthTypedStructHash(EIP712DOMAIN_SEPARATOR);\n\t\trequire(msg.sender == Workerpool(_workerpoolorder.workerpool).owner());\n\t\tm_consumed[poolorderHash] = _workerpoolorder.volume;\n\t\temit ClosedWorkerpoolOrder(poolorderHash);\n\t\treturn true;\n\t}\n\n\t// should be external\n\tfunction cancelRequestOrder(IexecODBLibOrders.RequestOrder memory _requestorder)\n\tpublic returns (bool)\n\t{\n\t\tbytes32 requestorderHash = _requestorder.hash().toEthTypedStructHash(EIP712DOMAIN_SEPARATOR);\n\t\trequire(msg.sender == _requestorder.requester);\n\t\tm_consumed[requestorderHash] = _requestorder.volume;\n\t\temit ClosedRequestOrder(requestorderHash);\n\t\treturn true;\n\t}\n\n\t/***************************************************************************\n\t *                    Escrow overhead for contribution                     *\n\t ***************************************************************************/\n\tfunction lockContribution(bytes32 _dealid, address _worker)\n\texternal onlyIexecHub\n\t{\n\t\tlock(_worker, m_deals[_dealid].workerStake);\n\t}\n\n\tfunction unlockContribution(bytes32 _dealid, address _worker)\n\texternal onlyIexecHub\n\t{\n\t\tunlock(_worker, m_deals[_dealid].workerStake);\n\t}\n\n\tfunction unlockAndRewardForContribution(bytes32 _dealid, address _worker, uint256 _amount, bytes32 _taskid)\n\texternal onlyIexecHub\n\t{\n\t\tunlock(_worker, m_deals[_dealid].workerStake);\n\t\treward(_worker, _amount, _taskid);\n\t}\n\n\tfunction seizeContribution(bytes32 _dealid, address _worker, bytes32 _taskid)\n\texternal onlyIexecHub\n\t{\n\t\tseize(_worker, m_deals[_dealid].workerStake, _taskid);\n\t}\n\n\tfunction rewardForScheduling(bytes32 _dealid, uint256 _amount, bytes32 _taskid)\n\texternal onlyIexecHub\n\t{\n\t\treward(m_deals[_dealid].workerpool.owner, _amount, _taskid);\n\t}\n\n\tfunction successWork(bytes32 _dealid, bytes32 _taskid)\n\texternal onlyIexecHub\n\t{\n\t\tIexecODBLibCore.Deal storage deal = m_deals[_dealid];\n\n\t\tuint256 requesterstake = deal.app.price\n\t\t                         .add(deal.dataset.price)\n\t\t                         .add(deal.workerpool.price);\n\t\tuint256 poolstake = deal.workerpool.price\n\t\t                    .percentage(WORKERPOOL_STAKE_RATIO);\n\n\t\t// seize requester funds\n\t\tseize(deal.requester, requesterstake, _taskid);\n\t\t// dapp reward\n\t\tif (deal.app.price > 0)\n\t\t{\n\t\t\treward(deal.app.owner, deal.app.price, _taskid);\n\t\t}\n\t\t// data reward\n\t\tif (deal.dataset.price > 0 && deal.dataset.pointer != address(0))\n\t\t{\n\t\t\treward(deal.dataset.owner, deal.dataset.price, _taskid);\n\t\t}\n\t\t// unlock pool stake\n\t\tunlock(deal.workerpool.owner, poolstake);\n\t\t// pool reward performed by consensus manager\n\n\t\t/**\n\t\t * Retrieve part of the kitty\n\t\t * TODO: remove / keep ?\n\t\t */\n\t\tuint256 kitty = frozenOf(KITTY_ADDRESS);\n\t\tif (kitty > 0)\n\t\t{\n\t\t\tkitty = kitty\n\t\t\t        .percentage(KITTY_RATIO) // fraction\n\t\t\t        .max(KITTY_MIN)          // at least this\n\t\t\t        .min(kitty);             // but not more than available\n\t\t\tseize (KITTY_ADDRESS,         kitty, _taskid);\n\t\t\treward(deal.workerpool.owner, kitty, _taskid);\n\t\t}\n\t}\n\n\tfunction failedWork(bytes32 _dealid, bytes32 _taskid)\n\texternal onlyIexecHub\n\t{\n\t\tIexecODBLibCore.Deal storage deal = m_deals[_dealid];\n\n\t\tuint256 requesterstake = deal.app.price\n\t\t                         .add(deal.dataset.price)\n\t\t                         .add(deal.workerpool.price);\n\t\tuint256 poolstake = deal.workerpool.price\n\t\t                    .percentage(WORKERPOOL_STAKE_RATIO);\n\n\t\tunlock(deal.requester,        requesterstake    );\n\t\tseize (deal.workerpool.owner, poolstake, _taskid);\n\t\treward(KITTY_ADDRESS,         poolstake, _taskid); //  Kitty / Burn\n\t\tlock  (KITTY_ADDRESS,         poolstake         ); //  Kitty / Burn\n\t}\n\n\n\n\n\n\n\n\n\n\n\n\n\n\n\n\n\n\n\t/**\n\t * /!\\ TEMPORARY LEGACY /!\\\n\t */\n\n\tfunction viewDealABILegacy_pt1(bytes32 _id)\n\texternal view returns\n\t( address\n\t, address\n\t, uint256\n\t, address\n\t, address\n\t, uint256\n\t, address\n\t, address\n\t, uint256\n\t)\n\t{\n\t\tIexecODBLibCore.Deal memory deal = m_deals[_id];\n\t\treturn (\n\t\t\tdeal.app.pointer,\n\t\t\tdeal.app.owner,\n\t\t\tdeal.app.price,\n\t\t\tdeal.dataset.pointer,\n\t\t\tdeal.dataset.owner,\n\t\t\tdeal.dataset.price,\n\t\t\tdeal.workerpool.pointer,\n\t\t\tdeal.workerpool.owner,\n\t\t\tdeal.workerpool.price\n\t\t);\n\t}\n\n\tfunction viewDealABILegacy_pt2(bytes32 _id)\n\texternal view returns\n\t( uint256\n\t, bytes32\n\t, address\n\t, address\n\t, address\n\t, string memory\n\t)\n\t{\n\t\tIexecODBLibCore.Deal memory deal = m_deals[_id];\n\t\treturn (\n\t\t\tdeal.trust,\n\t\t\tdeal.tag,\n\t\t\tdeal.requester,\n\t\t\tdeal.beneficiary,\n\t\t\tdeal.callback,\n\t\t\tdeal.params\n\t\t);\n\t}\n\n\tfunction viewConfigABILegacy(bytes32 _id)\n\texternal view returns\n\t( uint256\n\t, uint256\n\t, uint256\n\t, uint256\n\t, uint256\n\t, uint256\n\t)\n\t{\n\t\tIexecODBLibCore.Deal memory deal = m_deals[_id];\n\t\treturn (\n\t\t\tdeal.category,\n\t\t\tdeal.startTime,\n\t\t\tdeal.botFirst,\n\t\t\tdeal.botSize,\n\t\t\tdeal.workerStake,\n\t\t\tdeal.schedulerRewardRatio\n\t\t);\n\t}\n\n\tfunction viewAccountABILegacy(address owner)\n\texternal view returns (uint256, uint256)\n\t{\n\t\treturn ( balanceOf(owner), frozenOf(owner) );\n\t}\n}\n",
  "sourcePath": "/home/amxx/Work/iExec/code/PoCo-dev/contracts/IexecClerk.sol",
  "compiler": {
    "name": "solc",
    "version": "0.5.9+commit.e560f70d.Emscripten.clang"
  },
  "schemaVersion": "3.0.9",
  "updatedAt": "2019-06-13T10:40:14.535Z",
  "devdoc": {
    "methods": {
      "allowance(address,address)": {
        "details": "Function to check the amount of tokens that an owner allowed to a spender.",
        "params": {
          "owner": "address The address which owns the funds.",
          "spender": "address The address which will spend the funds."
        },
        "return": "A uint256 specifying the amount of tokens still available for the spender."
      },
      "approve(address,uint256)": {
        "details": "Approve the passed address to spend the specified amount of tokens on behalf of msg.sender. Beware that changing an allowance with this method brings the risk that someone may use both the old and the new allowance by unfortunate transaction ordering. One possible solution to mitigate this race condition is to first reduce the spender's allowance to 0 and set the desired value afterwards: https://github.com/ethereum/EIPs/issues/20#issuecomment-263524729",
        "params": {
          "spender": "The address which will spend the funds.",
          "value": "The amount of tokens to be spent."
        }
      },
      "balanceOf(address)": {
        "details": "Gets the balance of the specified address.",
        "params": {
          "owner": "The address to query the balance of."
        },
        "return": "A uint256 representing the amount owned by the passed address."
      },
      "decimals()": {
        "return": "the number of decimals of the token."
      },
      "decreaseAllowance(address,uint256)": {
        "details": "Decrease the amount of tokens that an owner allowed to a spender. approve should be called when _allowed[msg.sender][spender] == 0. To decrement allowed value is better to use this function to avoid 2 calls (and wait until the first transaction is mined) From MonolithDAO Token.sol Emits an Approval event.",
        "params": {
          "spender": "The address which will spend the funds.",
          "subtractedValue": "The amount of tokens to decrease the allowance by."
        }
      },
      "increaseAllowance(address,uint256)": {
        "details": "Increase the amount of tokens that an owner allowed to a spender. approve should be called when _allowed[msg.sender][spender] == 0. To increment allowed value is better to use this function to avoid 2 calls (and wait until the first transaction is mined) From MonolithDAO Token.sol Emits an Approval event.",
        "params": {
          "addedValue": "The amount of tokens to increase the allowance by.",
          "spender": "The address which will spend the funds."
        }
      },
      "name()": {
        "return": "the name of the token."
      },
      "symbol()": {
        "return": "the symbol of the token."
      },
      "totalSupply()": {
        "details": "Total number of tokens in existence"
      },
      "transfer(address,uint256)": {
        "details": "Transfer token to a specified address",
        "params": {
          "to": "The address to transfer to.",
          "value": "The amount to be transferred."
        }
      },
      "transferFrom(address,address,uint256)": {
        "details": "Transfer tokens from one address to another. Note that while this function emits an Approval event, this is not required as per the specification, and other compliant implementations may not emit the event.",
        "params": {
          "from": "address The address which you want to send tokens from",
          "to": "address The address which you want to transfer to",
          "value": "uint256 the amount of tokens to be transferred"
        }
      }
    }
  },
  "userdoc": {
    "methods": {
      "constructor": "*************************************************************************                              Constructor                               ***************************************************************************",
      "deposit(uint256)": {
        "notice": "Wallet methods: public"
      },
      "frozenOf(address)": {
        "notice": "Accessor"
      },
      "lockContribution(bytes32,address)": {
        "notice": "*************************************************************************                   Escrow overhead for contribution                     ***************************************************************************"
      },
      "signAppOrder((address,uint256,uint256,bytes32,address,address,address,bytes32,bytes))": {
        "notice": "*************************************************************************                           pre-signing tools                            ***************************************************************************"
      },
      "viewDealABILegacy_pt1(bytes32)": {
        "notice": "/!\\ TEMPORARY LEGACY /!\\"
      },
      "viewRequestDeals(bytes32)": {
        "notice": "*************************************************************************                               Accessor                                 ***************************************************************************"
      }
    }
  }
}