{
  "contractName": "IexecEscrowNativeDelegate",
  "abi": [
    {
      "anonymous": false,
      "inputs": [
        {
          "indexed": true,
          "internalType": "address",
          "name": "owner",
          "type": "address"
        },
        {
          "indexed": true,
          "internalType": "address",
          "name": "spender",
          "type": "address"
        },
        {
          "indexed": false,
          "internalType": "uint256",
          "name": "value",
          "type": "uint256"
        }
      ],
      "name": "Approval",
      "type": "event"
    },
    {
      "anonymous": false,
      "inputs": [
        {
          "indexed": true,
          "internalType": "address",
          "name": "previousOwner",
          "type": "address"
        },
        {
          "indexed": true,
          "internalType": "address",
          "name": "newOwner",
          "type": "address"
        }
      ],
      "name": "OwnershipTransferred",
      "type": "event"
    },
    {
      "anonymous": false,
      "inputs": [
        {
          "indexed": true,
          "internalType": "address",
          "name": "from",
          "type": "address"
        },
        {
          "indexed": true,
          "internalType": "address",
          "name": "to",
          "type": "address"
        },
        {
          "indexed": false,
          "internalType": "uint256",
          "name": "value",
          "type": "uint256"
        }
      ],
      "name": "Transfer",
      "type": "event"
    },
    {
      "inputs": [],
      "name": "owner",
      "outputs": [
        {
          "internalType": "address",
          "name": "",
          "type": "address"
        }
      ],
      "stateMutability": "view",
      "type": "function",
      "constant": true
    },
    {
      "inputs": [],
      "name": "renounceOwnership",
      "outputs": [],
      "stateMutability": "nonpayable",
      "type": "function"
    },
    {
      "inputs": [
        {
          "internalType": "address",
          "name": "newOwner",
          "type": "address"
        }
      ],
      "name": "transferOwnership",
      "outputs": [],
      "stateMutability": "nonpayable",
      "type": "function"
    },
    {
      "stateMutability": "payable",
      "type": "receive",
      "payable": true
    },
    {
      "inputs": [],
      "name": "deposit",
      "outputs": [
        {
          "internalType": "bool",
          "name": "",
          "type": "bool"
        }
      ],
      "stateMutability": "payable",
      "type": "function",
      "payable": true
    },
    {
      "inputs": [
        {
          "internalType": "address",
          "name": "target",
          "type": "address"
        }
      ],
      "name": "depositFor",
      "outputs": [
        {
          "internalType": "bool",
          "name": "",
          "type": "bool"
        }
      ],
      "stateMutability": "payable",
      "type": "function",
      "payable": true
    },
    {
      "inputs": [
        {
          "internalType": "uint256[]",
          "name": "amounts",
          "type": "uint256[]"
        },
        {
          "internalType": "address[]",
          "name": "targets",
          "type": "address[]"
        }
      ],
      "name": "depositForArray",
      "outputs": [
        {
          "internalType": "bool",
          "name": "",
          "type": "bool"
        }
      ],
      "stateMutability": "payable",
      "type": "function",
      "payable": true
    },
    {
      "inputs": [
        {
          "internalType": "uint256",
          "name": "amount",
          "type": "uint256"
        }
      ],
      "name": "withdraw",
      "outputs": [
        {
          "internalType": "bool",
          "name": "",
          "type": "bool"
        }
      ],
      "stateMutability": "nonpayable",
      "type": "function"
    },
    {
      "inputs": [],
      "name": "recover",
      "outputs": [
        {
          "internalType": "uint256",
          "name": "",
          "type": "uint256"
        }
      ],
      "stateMutability": "nonpayable",
      "type": "function"
    }
  ],
  "bytecode": "0x608060405260006100176001600160e01b0361006516565b600080546001600160a01b0319166001600160a01b038316908117825560405192935091600080516020610aff833981519152908290a3506100606001600160e01b0361006916565b61011d565b3390565b61007a6001600160e01b0361006516565b6000546001600160a01b039081169116146100b05760405162461bcd60e51b81526004016100a7906100e8565b60405180910390fd5b600080546040516001600160a01b0390911690600080516020610aff833981519152908390a3600080546001600160a01b0319169055565b6020808252818101527f4f776e61626c653a2063616c6c6572206973206e6f7420746865206f776e6572604082015260600190565b6109d38061012c6000396000f3fe60806040526004361061007f5760003560e01c8063aa67c9191161004e578063aa67c9191461011b578063ce7460241461012e578063d0e30db014610150578063f2fde38b1461015857610096565b80632e1a7d4d1461009b5780633354f8a5146100d1578063715018a6146100e45780638da5cb5b146100f957610096565b366100965761009461008f610178565b61017c565b005b600080fd5b3480156100a757600080fd5b506100bb6100b6366004610809565b6101c0565b6040516100c89190610838565b60405180910390f35b6100bb6100df3660046107a0565b6101fa565b3480156100f057600080fd5b506100946102cd565b34801561010557600080fd5b5061010e61034c565b6040516100c89190610824565b6100bb610129366004610779565b61035b565b34801561013a57600080fd5b50610143610366565b6040516100c89190610994565b6100bb6103df565b34801561016457600080fd5b50610094610173366004610779565b6103f2565b3390565b6101998161019434633b9aca0063ffffffff6104a816565b6104cc565b6101bd6101a4610178565b6101b834633b9aca0063ffffffff61058c16565b6105a9565b50565b60006101d36101cd610178565b8361062a565b6101f26101de610178565b6101b884633b9aca0063ffffffff6106db16565b506001919050565b60008382146102245760405162461bcd60e51b815260040161021b90610889565b60405180910390fd5b3460005b858110156102af5761026c85858381811061023f57fe5b90506020020160208101906102549190610779565b88888481811061026057fe5b905060200201356104cc565b6102a5610298633b9aca0089898581811061028357fe5b905060200201356106db90919063ffffffff16565b839063ffffffff61070916565b9150600101610228565b506102c16102bb610178565b826105a9565b50600195945050505050565b6102d5610178565b6000546001600160a01b039081169116146103025760405162461bcd60e51b815260040161021b906108b7565b600080546040516001600160a01b03909116907f8be0079c531659141344cd1fd0a4f28419497f9722a3daafe3b4186f6b6457e0908390a3600080546001600160a01b0319169055565b6000546001600160a01b031690565b60006101f28261017c565b6000610370610178565b6000546001600160a01b0390811691161461039d5760405162461bcd60e51b815260040161021b906108b7565b600c546000906103c7906103bb47633b9aca0063ffffffff6104a816565b9063ffffffff61070916565b90506103da6103d461034c565b826104cc565b905090565b60006103ec61008f610178565b50600190565b6103fa610178565b6000546001600160a01b039081169116146104275760405162461bcd60e51b815260040161021b906108b7565b6001600160a01b03811661044d5760405162461bcd60e51b815260040161021b90610843565b600080546040516001600160a01b03808516939216917f8be0079c531659141344cd1fd0a4f28419497f9722a3daafe3b4186f6b6457e091a3600080546001600160a01b0319166001600160a01b0392909216919091179055565b60008082116104b657600080fd5b60008284816104c157fe5b049150505b92915050565b6001600160a01b0382166104f25760405162461bcd60e51b815260040161021b9061095d565b600c54610505908263ffffffff61071e16565b600c556001600160a01b0382166000908152600d6020526040902054610531908263ffffffff61071e16565b6001600160a01b0383166000818152600d60205260408082209390935591519091907fddf252ad1be2c89b69c2b068fc378daa952ba7f163c4a11628f55a4df523b3ef90610580908590610994565b60405180910390a35050565b60008161059857600080fd5b8183816105a157fe5b069392505050565b6000826001600160a01b0316826040516105c290610821565b60006040518083038185875af1925050503d80600081146105ff576040519150601f19603f3d011682016040523d82523d6000602084013e610604565b606091505b50509050806106255760405162461bcd60e51b815260040161021b9061092d565b505050565b6001600160a01b0382166106505760405162461bcd60e51b815260040161021b906108ec565b600c54610663908263ffffffff61070916565b600c556001600160a01b0382166000908152600d602052604090205461068f908263ffffffff61070916565b6001600160a01b0383166000818152600d60205260408082209390935591517fddf252ad1be2c89b69c2b068fc378daa952ba7f163c4a11628f55a4df523b3ef90610580908590610994565b6000826106ea575060006104c6565b828202828482816106f757fe5b041461070257600080fd5b9392505050565b60008282111561071857600080fd5b50900390565b60008282018381101561070257600080fd5b60008083601f840112610741578182fd5b50813567ffffffffffffffff811115610758578182fd5b602083019150836020808302850101111561077257600080fd5b9250929050565b60006020828403121561078a578081fd5b81356001600160a01b0381168114610702578182fd5b600080600080604085870312156107b5578283fd5b843567ffffffffffffffff808211156107cc578485fd5b6107d888838901610730565b909650945060208701359150808211156107f0578384fd5b506107fd87828801610730565b95989497509550505050565b60006020828403121561081a578081fd5b5035919050565b90565b6001600160a01b0391909116815260200190565b901515815260200190565b60208082526026908201527f4f776e61626c653a206e6577206f776e657220697320746865207a65726f206160408201526564647265737360d01b606082015260800190565b6020808252601490820152730d2dcecc2d8d2c85ac2e4e4c2f25ad8cadccee8d60631b604082015260600190565b6020808252818101527f4f776e61626c653a2063616c6c6572206973206e6f7420746865206f776e6572604082015260600190565b60208082526021908201527f45524332303a206275726e2066726f6d20746865207a65726f206164647265736040820152607360f81b606082015260800190565b6020808252601690820152751b985d1a5d994b5d1c985b9cd9995c8b59985a5b195960521b604082015260600190565b6020808252601f908201527f45524332303a206d696e7420746f20746865207a65726f206164647265737300604082015260600190565b9081526020019056fea26469706673582212206685210101f7f8ce4b3e6d86e17a08e21a5ab72b59db03ae665f759691bc1f1764736f6c634300060600338be0079c531659141344cd1fd0a4f28419497f9722a3daafe3b4186f6b6457e0",
  "immutableReferences": {},
  "source": "pragma solidity ^0.6.0;\npragma experimental ABIEncoderV2;\n\nimport \"./IexecERC20Common.sol\";\nimport \"../DelegateBase.sol\";\nimport \"../interfaces/IexecEscrowNative.sol\";\n\n\ncontract IexecEscrowNativeDelegate is IexecEscrowNative, DelegateBase, IexecERC20Common\n{\n\tusing SafeMathExtended for uint256;\n\n\tuint256 internal constant nRLCtoWei = 10 ** 9;\n\t/***************************************************************************\n\t *                         Escrow methods: public                          *\n\t ***************************************************************************/\n\treceive()\n\texternal override payable\n\t{\n\t\t_deposit(_msgSender());\n\t}\n\n\tfunction deposit()\n\texternal override payable returns (bool)\n\t{\n\t\t_deposit(_msgSender());\n\t\treturn true;\n\t}\n\n\tfunction depositFor(address target)\n\texternal override payable returns (bool)\n\t{\n\t\t_deposit(target);\n\t\treturn true;\n\t}\n\n\tfunction depositForArray(uint256[] calldata amounts, address[] calldata targets)\n\texternal override payable returns (bool)\n\t{\n\t\trequire(amounts.length == targets.length, 'invalid-array-length');\n\t\tuint256 remaining = msg.value;\n\t\tfor (uint i = 0; i < amounts.length; ++i)\n\t\t{\n\t\t\t_mint(targets[i], amounts[i]);\n\t\t\tremaining = remaining.sub(amounts[i].mul(nRLCtoWei));\n\t\t}\n\t\t_withdraw(_msgSender(), remaining);\n\t\treturn true;\n\t}\n\n\tfunction withdraw(uint256 amount)\n\texternal override returns (bool)\n\t{\n\t\t_burn(_msgSender(), amount);\n\t\t_withdraw(_msgSender(), amount.mul(nRLCtoWei));\n\t\treturn true;\n\t}\n\n\tfunction recover()\n\texternal override onlyOwner returns (uint256)\n\t{\n\t\tuint256 delta = address(this).balance.div(nRLCtoWei).sub(m_totalSupply);\n\t\t_mint(owner(), delta);\n\t\treturn delta;\n\t}\n\n\tfunction _deposit(address target)\n\tinternal\n\t{\n\t\t_mint(target, msg.value.div(nRLCtoWei));\n\t\t_withdraw(_msgSender(), msg.value.mod(nRLCtoWei));\n\t}\n\n\tfunction _withdraw(address to, uint256 value)\n\tinternal\n\t{\n\t\t(bool success, ) = to.call{value: value}('');\n\t\trequire(success, 'native-transfer-failed');\n\t}\n}\n",
  "sourcePath": "/home/amxx/Work/iExec/code/PoCo-dev/contracts/modules/delegates/IexecEscrowNativeDelegate.sol",
  "compiler": {
    "name": "solc",
    "version": "0.6.6+commit.6c089d02.Emscripten.clang"
  },
  "schemaVersion": "3.2.0",
  "updatedAt": "2020-06-09T12:07:07.161Z",
  "networkType": "ethereum",
  "devdoc": {
    "methods": {
      "owner()": {
        "details": "Returns the address of the current owner."
      },
      "renounceOwnership()": {
        "details": "Leaves the contract without owner. It will not be possible to call `onlyOwner` functions anymore. Can only be called by the current owner.     * NOTE: Renouncing ownership will leave the contract without an owner, thereby removing any functionality that is only available to the owner."
      },
      "transferOwnership(address)": {
        "details": "Transfers ownership of the contract to a new account (`newOwner`). Can only be called by the current owner."
      }
    }
  },
  "userdoc": {
    "methods": {}
  }
}