{
  "contractName": "IexecOrderManagementDelegate",
  "abi": [
    {
      "anonymous": false,
      "inputs": [
        {
          "indexed": false,
          "internalType": "bytes32",
          "name": "appHash",
          "type": "bytes32"
        }
      ],
      "name": "ClosedAppOrder",
      "type": "event"
    },
    {
      "anonymous": false,
      "inputs": [
        {
          "indexed": false,
          "internalType": "bytes32",
          "name": "datasetHash",
          "type": "bytes32"
        }
      ],
      "name": "ClosedDatasetOrder",
      "type": "event"
    },
    {
      "anonymous": false,
      "inputs": [
        {
          "indexed": false,
          "internalType": "bytes32",
          "name": "requestHash",
          "type": "bytes32"
        }
      ],
      "name": "ClosedRequestOrder",
      "type": "event"
    },
    {
      "anonymous": false,
      "inputs": [
        {
          "indexed": false,
          "internalType": "bytes32",
          "name": "workerpoolHash",
          "type": "bytes32"
        }
      ],
      "name": "ClosedWorkerpoolOrder",
      "type": "event"
    },
    {
      "anonymous": false,
      "inputs": [
        {
          "indexed": true,
          "internalType": "address",
          "name": "previousOwner",
          "type": "address"
        },
        {
          "indexed": true,
          "internalType": "address",
          "name": "newOwner",
          "type": "address"
        }
      ],
      "name": "OwnershipTransferred",
      "type": "event"
    },
    {
      "anonymous": false,
      "inputs": [
        {
          "indexed": false,
          "internalType": "bytes32",
          "name": "appHash",
          "type": "bytes32"
        }
      ],
      "name": "SignedAppOrder",
      "type": "event"
    },
    {
      "anonymous": false,
      "inputs": [
        {
          "indexed": false,
          "internalType": "bytes32",
          "name": "datasetHash",
          "type": "bytes32"
        }
      ],
      "name": "SignedDatasetOrder",
      "type": "event"
    },
    {
      "anonymous": false,
      "inputs": [
        {
          "indexed": false,
          "internalType": "bytes32",
          "name": "requestHash",
          "type": "bytes32"
        }
      ],
      "name": "SignedRequestOrder",
      "type": "event"
    },
    {
      "anonymous": false,
      "inputs": [
        {
          "indexed": false,
          "internalType": "bytes32",
          "name": "workerpoolHash",
          "type": "bytes32"
        }
      ],
      "name": "SignedWorkerpoolOrder",
      "type": "event"
    },
    {
      "inputs": [],
      "name": "isOwner",
      "outputs": [
        {
          "internalType": "bool",
          "name": "",
          "type": "bool"
        }
      ],
      "stateMutability": "view",
      "type": "function",
      "constant": true
    },
    {
      "inputs": [],
      "name": "owner",
      "outputs": [
        {
          "internalType": "address",
          "name": "",
          "type": "address"
        }
      ],
      "stateMutability": "view",
      "type": "function",
      "constant": true
    },
    {
      "inputs": [],
      "name": "renounceOwnership",
      "outputs": [],
      "stateMutability": "nonpayable",
      "type": "function"
    },
    {
      "inputs": [
        {
          "internalType": "address",
          "name": "newOwner",
          "type": "address"
        }
      ],
      "name": "transferOwnership",
      "outputs": [],
      "stateMutability": "nonpayable",
      "type": "function"
    },
    {
      "inputs": [
        {
          "components": [
            {
              "components": [
                {
                  "internalType": "address",
                  "name": "app",
                  "type": "address"
                },
                {
                  "internalType": "uint256",
                  "name": "appprice",
                  "type": "uint256"
                },
                {
                  "internalType": "uint256",
                  "name": "volume",
                  "type": "uint256"
                },
                {
                  "internalType": "bytes32",
                  "name": "tag",
                  "type": "bytes32"
                },
                {
                  "internalType": "address",
                  "name": "datasetrestrict",
                  "type": "address"
                },
                {
                  "internalType": "address",
                  "name": "workerpoolrestrict",
                  "type": "address"
                },
                {
                  "internalType": "address",
                  "name": "requesterrestrict",
                  "type": "address"
                },
                {
                  "internalType": "bytes32",
                  "name": "salt",
                  "type": "bytes32"
                },
                {
                  "internalType": "bytes",
                  "name": "sign",
                  "type": "bytes"
                }
              ],
              "internalType": "struct IexecLibOrders_v5.AppOrder",
              "name": "order",
              "type": "tuple"
            },
            {
              "internalType": "uint8",
              "name": "operation",
              "type": "uint8"
            },
            {
              "internalType": "bytes",
              "name": "sign",
              "type": "bytes"
            }
          ],
          "internalType": "struct IexecLibOrders_v5.AppOrderOperation",
          "name": "_apporderoperation",
          "type": "tuple"
        }
      ],
      "name": "manageAppOrder",
      "outputs": [],
      "stateMutability": "nonpayable",
      "type": "function"
    },
    {
      "inputs": [
        {
          "components": [
            {
              "components": [
                {
                  "internalType": "address",
                  "name": "dataset",
                  "type": "address"
                },
                {
                  "internalType": "uint256",
                  "name": "datasetprice",
                  "type": "uint256"
                },
                {
                  "internalType": "uint256",
                  "name": "volume",
                  "type": "uint256"
                },
                {
                  "internalType": "bytes32",
                  "name": "tag",
                  "type": "bytes32"
                },
                {
                  "internalType": "address",
                  "name": "apprestrict",
                  "type": "address"
                },
                {
                  "internalType": "address",
                  "name": "workerpoolrestrict",
                  "type": "address"
                },
                {
                  "internalType": "address",
                  "name": "requesterrestrict",
                  "type": "address"
                },
                {
                  "internalType": "bytes32",
                  "name": "salt",
                  "type": "bytes32"
                },
                {
                  "internalType": "bytes",
                  "name": "sign",
                  "type": "bytes"
                }
              ],
              "internalType": "struct IexecLibOrders_v5.DatasetOrder",
              "name": "order",
              "type": "tuple"
            },
            {
              "internalType": "uint8",
              "name": "operation",
              "type": "uint8"
            },
            {
              "internalType": "bytes",
              "name": "sign",
              "type": "bytes"
            }
          ],
          "internalType": "struct IexecLibOrders_v5.DatasetOrderOperation",
          "name": "_datasetorderoperation",
          "type": "tuple"
        }
      ],
      "name": "manageDatasetOrder",
      "outputs": [],
      "stateMutability": "nonpayable",
      "type": "function"
    },
    {
      "inputs": [
        {
          "components": [
            {
              "components": [
                {
                  "internalType": "address",
                  "name": "workerpool",
                  "type": "address"
                },
                {
                  "internalType": "uint256",
                  "name": "workerpoolprice",
                  "type": "uint256"
                },
                {
                  "internalType": "uint256",
                  "name": "volume",
                  "type": "uint256"
                },
                {
                  "internalType": "bytes32",
                  "name": "tag",
                  "type": "bytes32"
                },
                {
                  "internalType": "uint256",
                  "name": "category",
                  "type": "uint256"
                },
                {
                  "internalType": "uint256",
                  "name": "trust",
                  "type": "uint256"
                },
                {
                  "internalType": "address",
                  "name": "apprestrict",
                  "type": "address"
                },
                {
                  "internalType": "address",
                  "name": "datasetrestrict",
                  "type": "address"
                },
                {
                  "internalType": "address",
                  "name": "requesterrestrict",
                  "type": "address"
                },
                {
                  "internalType": "bytes32",
                  "name": "salt",
                  "type": "bytes32"
                },
                {
                  "internalType": "bytes",
                  "name": "sign",
                  "type": "bytes"
                }
              ],
              "internalType": "struct IexecLibOrders_v5.WorkerpoolOrder",
              "name": "order",
              "type": "tuple"
            },
            {
              "internalType": "uint8",
              "name": "operation",
              "type": "uint8"
            },
            {
              "internalType": "bytes",
              "name": "sign",
              "type": "bytes"
            }
          ],
          "internalType": "struct IexecLibOrders_v5.WorkerpoolOrderOperation",
          "name": "_workerpoolorderoperation",
          "type": "tuple"
        }
      ],
      "name": "manageWorkerpoolOrder",
      "outputs": [],
      "stateMutability": "nonpayable",
      "type": "function"
    },
    {
      "inputs": [
        {
          "components": [
            {
              "components": [
                {
                  "internalType": "address",
                  "name": "app",
                  "type": "address"
                },
                {
                  "internalType": "uint256",
                  "name": "appmaxprice",
                  "type": "uint256"
                },
                {
                  "internalType": "address",
                  "name": "dataset",
                  "type": "address"
                },
                {
                  "internalType": "uint256",
                  "name": "datasetmaxprice",
                  "type": "uint256"
                },
                {
                  "internalType": "address",
                  "name": "workerpool",
                  "type": "address"
                },
                {
                  "internalType": "uint256",
                  "name": "workerpoolmaxprice",
                  "type": "uint256"
                },
                {
                  "internalType": "address",
                  "name": "requester",
                  "type": "address"
                },
                {
                  "internalType": "uint256",
                  "name": "volume",
                  "type": "uint256"
                },
                {
                  "internalType": "bytes32",
                  "name": "tag",
                  "type": "bytes32"
                },
                {
                  "internalType": "uint256",
                  "name": "category",
                  "type": "uint256"
                },
                {
                  "internalType": "uint256",
                  "name": "trust",
                  "type": "uint256"
                },
                {
                  "internalType": "address",
                  "name": "beneficiary",
                  "type": "address"
                },
                {
                  "internalType": "address",
                  "name": "callback",
                  "type": "address"
                },
                {
                  "internalType": "string",
                  "name": "params",
                  "type": "string"
                },
                {
                  "internalType": "bytes32",
                  "name": "salt",
                  "type": "bytes32"
                },
                {
                  "internalType": "bytes",
                  "name": "sign",
                  "type": "bytes"
                }
              ],
              "internalType": "struct IexecLibOrders_v5.RequestOrder",
              "name": "order",
              "type": "tuple"
            },
            {
              "internalType": "uint8",
              "name": "operation",
              "type": "uint8"
            },
            {
              "internalType": "bytes",
              "name": "sign",
              "type": "bytes"
            }
          ],
          "internalType": "struct IexecLibOrders_v5.RequestOrderOperation",
          "name": "_requestorderoperation",
          "type": "tuple"
        }
      ],
      "name": "manageRequestOrder",
      "outputs": [],
      "stateMutability": "nonpayable",
      "type": "function"
    }
  ],
  "bytecode": "0x60806040526000620000196001600160e01b036200006b16565b600080546001600160a01b0319166001600160a01b03831690811782556040519293509160008051602062001ddc833981519152908290a350620000656001600160e01b036200006f16565b62000147565b3390565b620000826001600160e01b03620000e316565b620000aa5760405162461bcd60e51b8152600401620000a19062000112565b60405180910390fd5b600080546040516001600160a01b039091169060008051602062001ddc833981519152908390a3600080546001600160a01b0319169055565b600080546001600160a01b0316620001036001600160e01b036200006b16565b6001600160a01b031614905090565b6020808252818101527f4f776e61626c653a2063616c6c6572206973206e6f7420746865206f776e6572604082015260600190565b611c8580620001576000396000f3fe608060405234801561001057600080fd5b50600436106100885760003560e01c80638dd971d51161005b5780638dd971d5146100db5780638f32d59b146100ee578063b2b07e6614610103578063f2fde38b1461011657610088565b80634b7471061461008d578063715018a6146100a25780637e34a077146100aa5780638da5cb5b146100bd575b600080fd5b6100a061009b3660046114c3565b610129565b005b6100a0610560565b6100a06100b83660046116c2565b6105d7565b6100c56109fc565b6040516100d29190611a9b565b60405180910390f35b6100a06100e93660046114fe565b610a0b565b6100f6610dbd565b6040516100d29190611aaf565b6100a06101113660046114c3565b610de1565b6100a061012436600461146c565b611206565b60008160000151600001516001600160a01b0316638da5cb5b6040518163ffffffff1660e01b815260040160206040518083038186803b15801561016c57600080fd5b505afa158015610180573d6000803e3d6000fd5b505050506040513d601f19601f820116820180604052506101a4919081019061148f565b90506101ae611236565b6001600160a01b0316816001600160a01b0316148061037657506040516308231d7360e31b815273__IexecLibOrders_v5_____________________90634118eb98906101ff908590600401611b65565b60206040518083038186803b15801561021757600080fd5b505af415801561022b573d6000803e3d6000fd5b505050506040513d601f19601f8201168201806040525061024f91908101906114ab565b60105460405163176eaa4960e01b815273__IexecLibOrders_v5_____________________9263176eaa499261028792600401611ac3565b60206040518083038186803b15801561029f57600080fd5b505af41580156102b3573d6000803e3d6000fd5b505050506040513d601f19601f820116820180604052506102d791908101906114ab565b60408084015190516319045a2560e01b815273__IexecLibOrders_v5_____________________926319045a259261031192600401611ad1565b60206040518083038186803b15801561032957600080fd5b505af415801561033d573d6000803e3d6000fd5b505050506040513d601f19601f82011682018060405250610361919081019061148f565b6001600160a01b0316816001600160a01b0316145b61037f57600080fd5b81516040516308d9777160e11b815260009173__IexecLibOrders_v5_____________________916311b2eee2916103b991600401611b78565b60206040518083038186803b1580156103d157600080fd5b505af41580156103e5573d6000803e3d6000fd5b505050506040513d601f19601f8201168201806040525061040991908101906114ab565b60105460405163176eaa4960e01b815273__IexecLibOrders_v5_____________________9263176eaa499261044192600401611ac3565b60206040518083038186803b15801561045957600080fd5b505af415801561046d573d6000803e3d6000fd5b505050506040513d601f19601f8201168201806040525061049191908101906114ab565b9050826020015160ff1660001415610507576000818152601160205260409081902080546001600160a01b0319166001600160a01b038516179055517f79ce85909be2c590a728d1634ce6ec8a7cbf815260bacc05387890a313da8130906104fa908390611aba565b60405180910390a161055b565b826020015160ff16600114156100885782516040908101516000838152601260205282902055517fcf52e3228bc482a6656d8ab56c09888b1c5bf6aaadba0185e96a34836f2bb1d4906104fa908390611aba565b505050565b610568610dbd565b61058d5760405162461bcd60e51b815260040161058490611b30565b60405180910390fd5b600080546040516001600160a01b03909116907f8be0079c531659141344cd1fd0a4f28419497f9722a3daafe3b4186f6b6457e0908390a3600080546001600160a01b0319169055565b60008160000151600001516001600160a01b0316638da5cb5b6040518163ffffffff1660e01b815260040160206040518083038186803b15801561061a57600080fd5b505afa15801561062e573d6000803e3d6000fd5b505050506040513d601f19601f82011682018060405250610652919081019061148f565b905061065c611236565b6001600160a01b0316816001600160a01b031614806108245750604051632daacfb560e11b815273__IexecLibOrders_v5_____________________90635b559f6a906106ad908590600401611be4565b60206040518083038186803b1580156106c557600080fd5b505af41580156106d9573d6000803e3d6000fd5b505050506040513d601f19601f820116820180604052506106fd91908101906114ab565b60105460405163176eaa4960e01b815273__IexecLibOrders_v5_____________________9263176eaa499261073592600401611ac3565b60206040518083038186803b15801561074d57600080fd5b505af4158015610761573d6000803e3d6000fd5b505050506040513d601f19601f8201168201806040525061078591908101906114ab565b60408084015190516319045a2560e01b815273__IexecLibOrders_v5_____________________926319045a25926107bf92600401611ad1565b60206040518083038186803b1580156107d757600080fd5b505af41580156107eb573d6000803e3d6000fd5b505050506040513d601f19601f8201168201806040525061080f919081019061148f565b6001600160a01b0316816001600160a01b0316145b61082d57600080fd5b8151604051637f6cc2ff60e11b815260009173__IexecLibOrders_v5_____________________9163fed985fe9161086791600401611c00565b60206040518083038186803b15801561087f57600080fd5b505af4158015610893573d6000803e3d6000fd5b505050506040513d601f19601f820116820180604052506108b791908101906114ab565b60105460405163176eaa4960e01b815273__IexecLibOrders_v5_____________________9263176eaa49926108ef92600401611ac3565b60206040518083038186803b15801561090757600080fd5b505af415801561091b573d6000803e3d6000fd5b505050506040513d601f19601f8201168201806040525061093f91908101906114ab565b9050826020015160ff16600014156109a8576000818152601160205260409081902080546001600160a01b0319166001600160a01b038516179055517f3a61aabf2ab04790d082ff1e332853b2f66944c2e951a146121f80272812a476906104fa908390611aba565b826020015160ff16600114156100885782516040908101516000838152601260205282902055517f145ad51e4496173bca15e24e7eb46f9ab3a10eea0497e2801a3a6806c06113a3906104fa908390611aba565b6000546001600160a01b031690565b805160c00151610a19611236565b6001600160a01b0316816001600160a01b03161480610be157506040516320aabe5360e01b815273__IexecLibOrders_v5_____________________906320aabe5390610a6a908590600401611b8b565b60206040518083038186803b158015610a8257600080fd5b505af4158015610a96573d6000803e3d6000fd5b505050506040513d601f19601f82011682018060405250610aba91908101906114ab565b60105460405163176eaa4960e01b815273__IexecLibOrders_v5_____________________9263176eaa4992610af292600401611ac3565b60206040518083038186803b158015610b0a57600080fd5b505af4158015610b1e573d6000803e3d6000fd5b505050506040513d601f19601f82011682018060405250610b4291908101906114ab565b60408084015190516319045a2560e01b815273__IexecLibOrders_v5_____________________926319045a2592610b7c92600401611ad1565b60206040518083038186803b158015610b9457600080fd5b505af4158015610ba8573d6000803e3d6000fd5b505050506040513d601f19601f82011682018060405250610bcc919081019061148f565b6001600160a01b0316816001600160a01b0316145b610bea57600080fd5b8151604051638ac03f3360e01b815260009173__IexecLibOrders_v5_____________________91638ac03f3391610c2491600401611bd1565b60206040518083038186803b158015610c3c57600080fd5b505af4158015610c50573d6000803e3d6000fd5b505050506040513d601f19601f82011682018060405250610c7491908101906114ab565b60105460405163176eaa4960e01b815273__IexecLibOrders_v5_____________________9263176eaa4992610cac92600401611ac3565b60206040518083038186803b158015610cc457600080fd5b505af4158015610cd8573d6000803e3d6000fd5b505050506040513d601f19601f82011682018060405250610cfc91908101906114ab565b9050826020015160ff1660001415610d65576000818152601160205260409081902080546001600160a01b0319166001600160a01b038516179055517f3b0ac04165536d6b11d04220f998c840bd6e439d59c5d8721bba8a4e1fb9ebfd906104fa908390611aba565b826020015160ff166001141561008857825160e001516000828152601260205260409081902091909155517f582f43f2a741cbe708aae3b8d38a4efc3d09d7e81919697b3ca693f4c444cc05906104fa908390611aba565b600080546001600160a01b0316610dd2611236565b6001600160a01b031614905090565b60008160000151600001516001600160a01b0316638da5cb5b6040518163ffffffff1660e01b815260040160206040518083038186803b158015610e2457600080fd5b505afa158015610e38573d6000803e3d6000fd5b505050506040513d601f19601f82011682018060405250610e5c919081019061148f565b9050610e66611236565b6001600160a01b0316816001600160a01b0316148061102e5750604051636cf30b8b60e01b815273__IexecLibOrders_v5_____________________90636cf30b8b90610eb7908590600401611b65565b60206040518083038186803b158015610ecf57600080fd5b505af4158015610ee3573d6000803e3d6000fd5b505050506040513d601f19601f82011682018060405250610f0791908101906114ab565b60105460405163176eaa4960e01b815273__IexecLibOrders_v5_____________________9263176eaa4992610f3f92600401611ac3565b60206040518083038186803b158015610f5757600080fd5b505af4158015610f6b573d6000803e3d6000fd5b505050506040513d601f19601f82011682018060405250610f8f91908101906114ab565b60408084015190516319045a2560e01b815273__IexecLibOrders_v5_____________________926319045a2592610fc992600401611ad1565b60206040518083038186803b158015610fe157600080fd5b505af4158015610ff5573d6000803e3d6000fd5b505050506040513d601f19601f82011682018060405250611019919081019061148f565b6001600160a01b0316816001600160a01b0316145b61103757600080fd5b8151604051637c0d54d360e01b815260009173__IexecLibOrders_v5_____________________91637c0d54d39161107191600401611b78565b60206040518083038186803b15801561108957600080fd5b505af415801561109d573d6000803e3d6000fd5b505050506040513d601f19601f820116820180604052506110c191908101906114ab565b60105460405163176eaa4960e01b815273__IexecLibOrders_v5_____________________9263176eaa49926110f992600401611ac3565b60206040518083038186803b15801561111157600080fd5b505af4158015611125573d6000803e3d6000fd5b505050506040513d601f19601f8201168201806040525061114991908101906114ab565b9050826020015160ff16600014156111b2576000818152601160205260409081902080546001600160a01b0319166001600160a01b038516179055517f50933cf5a9c44d5ed66b895deb27212aa33d811b46a7b41093e047e213c0bcab906104fa908390611aba565b826020015160ff16600114156100885782516040908101516000838152601260205282902055517f7343f75be43aba524f85326508cd975d016ef7884676377366c69a7c32e30668906104fa908390611aba565b61120e610dbd565b61122a5760405162461bcd60e51b815260040161058490611b30565b6112338161123a565b50565b3390565b6001600160a01b0381166112605760405162461bcd60e51b815260040161058490611aea565b600080546040516001600160a01b03808516939216917f8be0079c531659141344cd1fd0a4f28419497f9722a3daafe3b4186f6b6457e091a3600080546001600160a01b0319166001600160a01b0392909216919091179055565b80356112c681611c3a565b92915050565b600082601f8301126112dc578081fd5b813567ffffffffffffffff8111156112f2578182fd5b611305601f8201601f1916602001611c13565b915080825283602082850101111561131c57600080fd5b8060208401602084013760009082016020015292915050565b600060608284031215611346578081fd5b6113506060611c13565b9050813567ffffffffffffffff8082111561136a57600080fd5b61012091840180860383131561137f57600080fd5b61138883611c13565b61139287836112bb565b81526020820135602082015260408201356040820152606082013560608201526113bf87608084016112bb565b60808201526113d18760a084016112bb565b60a08201526113e38760c084016112bb565b60c082015260e082013560e08201526101009350838201358381111561140857600080fd5b611414888285016112cc565b8286015250845250611429856020860161145b565b6020840152604084013591508082111561144257600080fd5b5061144f848285016112cc565b60408301525092915050565b803560ff811681146112c657600080fd5b60006020828403121561147d578081fd5b813561148881611c3a565b9392505050565b6000602082840312156114a0578081fd5b815161148881611c3a565b6000602082840312156114bc578081fd5b5051919050565b6000602082840312156114d4578081fd5b813567ffffffffffffffff8111156114ea578182fd5b6114f684828501611335565b949350505050565b60006020828403121561150f578081fd5b813567ffffffffffffffff80821115611526578283fd5b81840160608187031215611538578384fd5b6115426060611c13565b9250803582811115611552578485fd5b610200908201808803821315611566578586fd5b61156f82611c13565b61157989836112bb565b81526020820135602082015261159289604084016112bb565b6040820152606082013560608201526115ae89608084016112bb565b608082015260a082013560a08201526115ca8960c084016112bb565b60c082015260e08281013590820152610100808301359082015261012080830135908201526101408083013590820152610160925061160b898484016112bb565b838201526101809250611620898484016112bb565b838201526101a092508282013585811115611639578788fd5b6116458a8285016112cc565b84830152506101c0925082820135838201526101e09250828201358581111561166c578788fd5b6116788a8285016112cc565b8483015250808652505050611690866020830161145b565b60208401526040810135828111156116a6578485fd5b6116b2878284016112cc565b6040850152509195945050505050565b6000602082840312156116d3578081fd5b813567ffffffffffffffff808211156116ea578283fd5b818401606081870312156116fc578384fd5b6117066060611c13565b9250803582811115611716578485fd5b61016090820180880382131561172a578586fd5b61173382611c13565b61173d89836112bb565b81526020820135602082015260408201356040820152606082013560608201526080820135608082015260a082013560a082015261177e8960c084016112bb565b60c08201526117908960e084016112bb565b60e082015261010092506117a6898484016112bb565b83820152610120925082820135838201526101409250828201358581111561166c578788fd5b6001600160a01b03169052565b60008151808452815b818110156117fe576020818501810151868301820152016117e2565b8181111561180f5782602083870101525b50601f01601f19169290920160200192915050565b60008151606084526118396060850182611868565b60ff602085015116602086015260408401519150848103604086015261185f81836117d9565b95945050505050565b600061012060018060a01b03835116845260208301516020850152604083015160408501526060830151606085015260808301516118a960808601826117cc565b5060a08301516118bc60a08601826117cc565b5060c08301516118cf60c08601826117cc565b5060e083015160e08501526101008084015182828701526118f2838701826117d9565b9695505050505050565b600061020061190c8484516117cc565b60208301516020850152604083015161192860408601826117cc565b5060608301516060850152608083015161194560808601826117cc565b5060a083015160a085015260c083015161196260c08601826117cc565b5060e08381015190850152610100808401519085015261012080840151908501526101408084015190850152610160808401516119a1828701826117cc565b5050610180808401516119b6828701826117cc565b50506101a08084015182828701526119d0838701826117d9565b9150506101c0915081840151828601526101e0915081840151858203838701526118f282826117d9565b6000610160611a0a8484516117cc565b6020830151602085015260408301516040850152606083015160608501526080830151608085015260a083015160a085015260c0830151611a4e60c08601826117cc565b5060e0830151611a6160e08601826117cc565b5061010080840151611a75828701826117cc565b50506101208084015181860152506101408084015182828701526118f2838701826117d9565b6001600160a01b0391909116815260200190565b901515815260200190565b90815260200190565b918252602082015260400190565b6000838252604060208301526114f660408301846117d9565b60208082526026908201527f4f776e61626c653a206e6577206f776e657220697320746865207a65726f206160408201526564647265737360d01b606082015260800190565b6020808252818101527f4f776e61626c653a2063616c6c6572206973206e6f7420746865206f776e6572604082015260600190565b6000602082526114886020830184611824565b6000602082526114886020830184611868565b600060208252825160606020840152611ba760808401826118fc565b60ff602086015116604085015260408501519150601f1984820301606085015261185f81836117d9565b60006020825261148860208301846118fc565b600060208252825160606020840152611ba760808401826119fa565b60006020825261148860208301846119fa565b60405181810167ffffffffffffffff81118282101715611c3257600080fd5b604052919050565b6001600160a01b038116811461123357600080fdfea2646970667358221220b5004d21a4f6547e98a2f33050f8966004f81f8ccefb6a16ce13581cea39833564736f6c634300060300338be0079c531659141344cd1fd0a4f28419497f9722a3daafe3b4186f6b6457e0",
  "source": "pragma solidity ^0.6.0;\npragma experimental ABIEncoderV2;\n\nimport \"../DelegateBase.sol\";\nimport \"../interfaces/IexecOrderManagement.sol\";\n\n\ncontract IexecOrderManagementDelegate is IexecOrderManagement, DelegateBase\n{\n\tusing IexecLibOrders_v5 for bytes32;\n\tusing IexecLibOrders_v5 for IexecLibOrders_v5.AppOrder;\n\tusing IexecLibOrders_v5 for IexecLibOrders_v5.DatasetOrder;\n\tusing IexecLibOrders_v5 for IexecLibOrders_v5.WorkerpoolOrder;\n\tusing IexecLibOrders_v5 for IexecLibOrders_v5.RequestOrder;\n\tusing IexecLibOrders_v5 for IexecLibOrders_v5.AppOrderOperation;\n\tusing IexecLibOrders_v5 for IexecLibOrders_v5.DatasetOrderOperation;\n\tusing IexecLibOrders_v5 for IexecLibOrders_v5.WorkerpoolOrderOperation;\n\tusing IexecLibOrders_v5 for IexecLibOrders_v5.RequestOrderOperation;\n\n\t/***************************************************************************\n\t *                         order management tools                          *\n\t ***************************************************************************/\n\tfunction manageAppOrder(IexecLibOrders_v5.AppOrderOperation memory _apporderoperation)\n\tpublic override\n\t{\n\t\taddress owner = App(_apporderoperation.order.app).owner();\n\t\trequire(owner == _msgSender() || owner == _apporderoperation.hash().toEthTypedStructHash(EIP712DOMAIN_SEPARATOR).recover(_apporderoperation.sign));\n\n\t\tbytes32 apporderHash = _apporderoperation.order.hash().toEthTypedStructHash(EIP712DOMAIN_SEPARATOR);\n\t\tif (_apporderoperation.operation == 0)\n\t\t{\n\t\t\tm_presigned[apporderHash] = owner;\n\t\t\temit SignedAppOrder(apporderHash);\n\t\t}\n\t\telse if (_apporderoperation.operation == 1)\n\t\t{\n\t\t\tm_consumed[apporderHash] = _apporderoperation.order.volume;\n\t\t\temit ClosedAppOrder(apporderHash);\n\t\t}\n\t\telse\n\t\t{\n\t\t\trevert();\n\t\t}\n\t}\n\n\tfunction manageDatasetOrder(IexecLibOrders_v5.DatasetOrderOperation memory _datasetorderoperation)\n\tpublic override\n\t{\n\t\taddress owner = Dataset(_datasetorderoperation.order.dataset).owner();\n\t\trequire(owner == _msgSender() || owner == _datasetorderoperation.hash().toEthTypedStructHash(EIP712DOMAIN_SEPARATOR).recover(_datasetorderoperation.sign));\n\n\t\tbytes32 datasetorderHash = _datasetorderoperation.order.hash().toEthTypedStructHash(EIP712DOMAIN_SEPARATOR);\n\t\tif (_datasetorderoperation.operation == 0)\n\t\t{\n\t\t\tm_presigned[datasetorderHash] = owner;\n\t\t\temit SignedDatasetOrder(datasetorderHash);\n\t\t}\n\t\telse if (_datasetorderoperation.operation == 1)\n\t\t{\n\t\t\tm_consumed[datasetorderHash] = _datasetorderoperation.order.volume;\n\t\t\temit ClosedDatasetOrder(datasetorderHash);\n\t\t}\n\t\telse\n\t\t{\n\t\t\trevert();\n\t\t}\n\t}\n\n\tfunction manageWorkerpoolOrder(IexecLibOrders_v5.WorkerpoolOrderOperation memory _workerpoolorderoperation)\n\tpublic override\n\t{\n\t\taddress owner = Workerpool(_workerpoolorderoperation.order.workerpool).owner();\n\t\trequire(owner == _msgSender() || owner == _workerpoolorderoperation.hash().toEthTypedStructHash(EIP712DOMAIN_SEPARATOR).recover(_workerpoolorderoperation.sign));\n\n\t\tbytes32 workerpoolorderHash = _workerpoolorderoperation.order.hash().toEthTypedStructHash(EIP712DOMAIN_SEPARATOR);\n\t\tif (_workerpoolorderoperation.operation == 0)\n\t\t{\n\t\t\tm_presigned[workerpoolorderHash] = owner;\n\t\t\temit SignedWorkerpoolOrder(workerpoolorderHash);\n\t\t}\n\t\telse if (_workerpoolorderoperation.operation == 1)\n\t\t{\n\t\t\tm_consumed[workerpoolorderHash] = _workerpoolorderoperation.order.volume;\n\t\t\temit ClosedWorkerpoolOrder(workerpoolorderHash);\n\t\t}\n\t\telse\n\t\t{\n\t\t\trevert();\n\t\t}\n\t}\n\n\tfunction manageRequestOrder(IexecLibOrders_v5.RequestOrderOperation memory _requestorderoperation)\n\tpublic override\n\t{\n\t\taddress owner = _requestorderoperation.order.requester;\n\t\trequire(owner == _msgSender() || owner == _requestorderoperation.hash().toEthTypedStructHash(EIP712DOMAIN_SEPARATOR).recover(_requestorderoperation.sign));\n\n\t\tbytes32 requestorderHash = _requestorderoperation.order.hash().toEthTypedStructHash(EIP712DOMAIN_SEPARATOR);\n\t\tif (_requestorderoperation.operation == 0)\n\t\t{\n\t\t\tm_presigned[requestorderHash] = owner;\n\t\t\temit SignedRequestOrder(requestorderHash);\n\t\t}\n\t\telse if (_requestorderoperation.operation == 1)\n\t\t{\n\t\t\tm_consumed[requestorderHash] = _requestorderoperation.order.volume;\n\t\t\temit ClosedRequestOrder(requestorderHash);\n\t\t}\n\t\telse\n\t\t{\n\t\t\trevert();\n\t\t}\n\t}\n}\n",
  "sourcePath": "/home/amxx/Work/iExec/code/PoCo-dev/contracts/modules/delegates/IexecOrderManagementDelegate.sol",
  "compiler": {
    "name": "solc",
    "version": "0.6.3+commit.8dda9521.Emscripten.clang"
  },
  "schemaVersion": "3.0.23",
  "updatedAt": "2020-03-09T10:58:45.527Z",
  "networkType": "ethereum",
  "devdoc": {
    "methods": {
      "isOwner()": {
        "details": "Returns true if the caller is the current owner."
      },
      "owner()": {
        "details": "Returns the address of the current owner."
      },
      "renounceOwnership()": {
        "details": "Leaves the contract without owner. It will not be possible to call `onlyOwner` functions anymore. Can only be called by the current owner.     * NOTE: Renouncing ownership will leave the contract without an owner, thereby removing any functionality that is only available to the owner."
      },
      "transferOwnership(address)": {
        "details": "Transfers ownership of the contract to a new account (`newOwner`). Can only be called by the current owner."
      }
    }
  },
  "userdoc": {
    "methods": {
      "manageAppOrder(((address,uint256,uint256,bytes32,address,address,address,bytes32,bytes),uint8,bytes))": {
        "notice": "*************************************************************************                        order management tools                          ***************************************************************************"
      }
    }
  }
}