{
  "contractName": "IexecEscrowTokenDelegate",
  "abi": [
    {
      "anonymous": false,
      "inputs": [
        {
          "indexed": true,
          "internalType": "address",
          "name": "owner",
          "type": "address"
        },
        {
          "indexed": true,
          "internalType": "address",
          "name": "spender",
          "type": "address"
        },
        {
          "indexed": false,
          "internalType": "uint256",
          "name": "value",
          "type": "uint256"
        }
      ],
      "name": "Approval",
      "type": "event"
    },
    {
      "anonymous": false,
      "inputs": [
        {
          "indexed": true,
          "internalType": "address",
          "name": "previousOwner",
          "type": "address"
        },
        {
          "indexed": true,
          "internalType": "address",
          "name": "newOwner",
          "type": "address"
        }
      ],
      "name": "OwnershipTransferred",
      "type": "event"
    },
    {
      "anonymous": false,
      "inputs": [
        {
          "indexed": true,
          "internalType": "address",
          "name": "from",
          "type": "address"
        },
        {
          "indexed": true,
          "internalType": "address",
          "name": "to",
          "type": "address"
        },
        {
          "indexed": false,
          "internalType": "uint256",
          "name": "value",
          "type": "uint256"
        }
      ],
      "name": "Transfer",
      "type": "event"
    },
    {
      "inputs": [],
      "name": "isOwner",
      "outputs": [
        {
          "internalType": "bool",
          "name": "",
          "type": "bool"
        }
      ],
      "stateMutability": "view",
      "type": "function"
    },
    {
      "inputs": [],
      "name": "owner",
      "outputs": [
        {
          "internalType": "address",
          "name": "",
          "type": "address"
        }
      ],
      "stateMutability": "view",
      "type": "function"
    },
    {
      "inputs": [],
      "name": "renounceOwnership",
      "outputs": [],
      "stateMutability": "nonpayable",
      "type": "function"
    },
    {
      "inputs": [
        {
          "internalType": "address",
          "name": "newOwner",
          "type": "address"
        }
      ],
      "name": "transferOwnership",
      "outputs": [],
      "stateMutability": "nonpayable",
      "type": "function"
    },
    {
      "stateMutability": "payable",
      "type": "receive"
    },
    {
      "inputs": [
        {
          "internalType": "uint256",
          "name": "amount",
          "type": "uint256"
        }
      ],
      "name": "deposit",
      "outputs": [
        {
          "internalType": "bool",
          "name": "",
          "type": "bool"
        }
      ],
      "stateMutability": "nonpayable",
      "type": "function"
    },
    {
      "inputs": [
        {
          "internalType": "uint256",
          "name": "amount",
          "type": "uint256"
        },
        {
          "internalType": "address",
          "name": "target",
          "type": "address"
        }
      ],
      "name": "depositFor",
      "outputs": [
        {
          "internalType": "bool",
          "name": "",
          "type": "bool"
        }
      ],
      "stateMutability": "nonpayable",
      "type": "function"
    },
    {
      "inputs": [
        {
          "internalType": "uint256[]",
          "name": "amounts",
          "type": "uint256[]"
        },
        {
          "internalType": "address[]",
          "name": "targets",
          "type": "address[]"
        }
      ],
      "name": "depositForArray",
      "outputs": [
        {
          "internalType": "bool",
          "name": "",
          "type": "bool"
        }
      ],
      "stateMutability": "nonpayable",
      "type": "function"
    },
    {
      "inputs": [
        {
          "internalType": "uint256",
          "name": "amount",
          "type": "uint256"
        }
      ],
      "name": "withdraw",
      "outputs": [
        {
          "internalType": "bool",
          "name": "",
          "type": "bool"
        }
      ],
      "stateMutability": "nonpayable",
      "type": "function"
    },
    {
      "inputs": [],
      "name": "recover",
      "outputs": [
        {
          "internalType": "uint256",
          "name": "",
          "type": "uint256"
        }
      ],
      "stateMutability": "nonpayable",
      "type": "function"
    },
    {
      "inputs": [
        {
          "internalType": "address",
          "name": "sender",
          "type": "address"
        },
        {
          "internalType": "uint256",
          "name": "amount",
          "type": "uint256"
        },
        {
          "internalType": "address",
          "name": "token",
          "type": "address"
        },
        {
          "internalType": "bytes",
          "name": "",
          "type": "bytes"
        }
      ],
      "name": "receiveApproval",
      "outputs": [
        {
          "internalType": "bool",
          "name": "",
          "type": "bool"
        }
      ],
      "stateMutability": "nonpayable",
      "type": "function"
    }
  ],
  "bytecode": "0x608060405260006100176001600160e01b0361006516565b600080546001600160a01b0319166001600160a01b038316908117825560405192935091600080516020610d6c833981519152908290a3506100606001600160e01b0361006916565b610139565b3390565b61007a6001600160e01b036100d716565b61009f5760405162461bcd60e51b815260040161009690610104565b60405180910390fd5b600080546040516001600160a01b0390911690600080516020610d6c833981519152908390a3600080546001600160a01b0319169055565b600080546001600160a01b03166100f56001600160e01b0361006516565b6001600160a01b031614905090565b6020808252818101527f4f776e61626c653a2063616c6c6572206973206e6f7420746865206f776e6572604082015260600190565b610c24806101486000396000f3fe6080604052600436106100955760003560e01c80638f32d59b116100595780638f32d59b1461016f5780638f4ffcb114610184578063b6b55f25146101a4578063ce746024146101c4578063f2fde38b146101e6576100bb565b80632e1a7d4d146100c05780633354f8a5146100f657806336efd16f14610116578063715018a6146101365780638da5cb5b1461014d576100bb565b366100bb5760405162461bcd60e51b81526004016100b290610b08565b60405180910390fd5b600080fd5b3480156100cc57600080fd5b506100e06100db3660046109d5565b610206565b6040516100ed9190610a82565b60405180910390f35b34801561010257600080fd5b506100e061011136600461094c565b610232565b34801561012257600080fd5b506100e0610131366004610a05565b6102be565b34801561014257600080fd5b5061014b6102e5565b005b34801561015957600080fd5b50610162610353565b6040516100ed9190610a31565b34801561017b57600080fd5b506100e0610362565b34801561019057600080fd5b506100e061019f3660046108af565b610386565b3480156101b057600080fd5b506100e06101bf3660046109d5565b6103ca565b3480156101d057600080fd5b506101d96103ee565b6040516100ed9190610bd0565b3480156101f257600080fd5b5061014b610201366004610894565b6104c4565b60006102196102136104f4565b836104f8565b61022a6102246104f4565b836105b5565b506001919050565b600083821461024057600080fd5b60005b848110156102b25761026e6102566104f4565b87878481811061026257fe5b9050602002013561063e565b6102aa84848381811061027d57fe5b90506020020160208101906102929190610894565b87878481811061029e57fe5b905060200201356106d1565b600101610243565b50600195945050505050565b60006102d16102cb6104f4565b8461063e565b6102db82846106d1565b5060015b92915050565b6102ed610362565b6103095760405162461bcd60e51b81526004016100b290610ad3565b600080546040516001600160a01b03909116907f8be0079c531659141344cd1fd0a4f28419497f9722a3daafe3b4186f6b6457e0908390a3600080546001600160a01b0319169055565b6000546001600160a01b031690565b600080546001600160a01b03166103776104f4565b6001600160a01b031614905090565b6008546000906001600160a01b038581169116146103b65760405162461bcd60e51b81526004016100b290610b74565b6103c0868661063e565b6102b286866106d1565b60006103dd6103d76104f4565b8361063e565b61022a6103e86104f4565b836106d1565b60006103f8610362565b6104145760405162461bcd60e51b81526004016100b290610ad3565b600c546008546040516370a0823160e01b81526000926104ac9290916001600160a01b03909116906370a0823190610450903090600401610a31565b60206040518083038186803b15801561046857600080fd5b505afa15801561047c573d6000803e3d6000fd5b505050506040513d601f19601f820116820180604052508101906104a091906109ed565b9063ffffffff61078516565b90506104bf6104b9610353565b826106d1565b905090565b6104cc610362565b6104e85760405162461bcd60e51b81526004016100b290610ad3565b6104f18161079a565b50565b3390565b6001600160a01b03821661051e5760405162461bcd60e51b81526004016100b290610b33565b600c54610531908263ffffffff61078516565b600c556001600160a01b0382166000908152600d602052604090205461055d908263ffffffff61078516565b6001600160a01b0383166000818152600d60205260408082209390935591517fddf252ad1be2c89b69c2b068fc378daa952ba7f163c4a11628f55a4df523b3ef906105a9908590610bd0565b60405180910390a35050565b60085460405163a9059cbb60e01b81526001600160a01b039091169063a9059cbb906105e79085908590600401610a69565b602060405180830381600087803b15801561060157600080fd5b505af1158015610615573d6000803e3d6000fd5b505050506040513d601f19601f8201168201806040525081019061063991906109b5565b505050565b6008546040516323b872dd60e01b81526001600160a01b03909116906323b872dd9061067290859030908690600401610a45565b602060405180830381600087803b15801561068c57600080fd5b505af11580156106a0573d6000803e3d6000fd5b505050506040513d601f19601f820116820180604052508101906106c491906109b5565b6106cd57600080fd5b5050565b6001600160a01b0382166106f75760405162461bcd60e51b81526004016100b290610b99565b600c5461070a908263ffffffff61081b16565b600c556001600160a01b0382166000908152600d6020526040902054610736908263ffffffff61081b16565b6001600160a01b0383166000818152600d60205260408082209390935591519091907fddf252ad1be2c89b69c2b068fc378daa952ba7f163c4a11628f55a4df523b3ef906105a9908590610bd0565b60008282111561079457600080fd5b50900390565b6001600160a01b0381166107c05760405162461bcd60e51b81526004016100b290610a8d565b600080546040516001600160a01b03808516939216917f8be0079c531659141344cd1fd0a4f28419497f9722a3daafe3b4186f6b6457e091a3600080546001600160a01b0319166001600160a01b0392909216919091179055565b60008282018381101561082d57600080fd5b9392505050565b80356001600160a01b03811681146102df57600080fd5b60008083601f84011261085c578182fd5b50813567ffffffffffffffff811115610873578182fd5b602083019150836020808302850101111561088d57600080fd5b9250929050565b6000602082840312156108a5578081fd5b61082d8383610834565b6000806000806000608086880312156108c6578081fd5b85356108d181610bd9565b94506020860135935060408601356108e881610bd9565b9250606086013567ffffffffffffffff80821115610904578283fd5b81880189601f820112610915578384fd5b8035925081831115610925578384fd5b896020848301011115610936578384fd5b6020810194505050809150509295509295909350565b60008060008060408587031215610961578384fd5b843567ffffffffffffffff80821115610978578586fd5b6109848883890161084b565b9096509450602087013591508082111561099c578384fd5b506109a98782880161084b565b95989497509550505050565b6000602082840312156109c6578081fd5b8151801515811461082d578182fd5b6000602082840312156109e6578081fd5b5035919050565b6000602082840312156109fe578081fd5b5051919050565b60008060408385031215610a17578182fd5b82359150610a288460208501610834565b90509250929050565b6001600160a01b0391909116815260200190565b6001600160a01b039384168152919092166020820152604081019190915260600190565b6001600160a01b03929092168252602082015260400190565b901515815260200190565b60208082526026908201527f4f776e61626c653a206e6577206f776e657220697320746865207a65726f206160408201526564647265737360d01b606082015260800190565b6020808252818101527f4f776e61626c653a2063616c6c6572206973206e6f7420746865206f776e6572604082015260600190565b60208082526011908201527019985b1b189858dacb591a5cd8589b1959607a1b604082015260600190565b60208082526021908201527f45524332303a206275726e2066726f6d20746865207a65726f206164647265736040820152607360f81b606082015260800190565b6020808252600b908201526a3bb937b73396ba37b5b2b760a91b604082015260600190565b6020808252601f908201527f45524332303a206d696e7420746f20746865207a65726f206164647265737300604082015260600190565b90815260200190565b6001600160a01b03811681146104f157600080fdfea2646970667358221220c381a1683d084d0e879bcb5a11d91c87353c9db36c6da793a18a604de2e1f95164736f6c634300060400338be0079c531659141344cd1fd0a4f28419497f9722a3daafe3b4186f6b6457e0",
  "source": "pragma solidity ^0.6.0;\npragma experimental ABIEncoderV2;\n\nimport \"./IexecERC20Common.sol\";\nimport \"../DelegateBase.sol\";\nimport \"../interfaces/IexecEscrowToken.sol\";\nimport \"../interfaces/IexecTokenSpender.sol\";\n\n\ncontract IexecEscrowTokenDelegate is IexecEscrowToken, IexecTokenSpender, DelegateBase, IexecERC20Common\n{\n\tusing SafeMathExtended for uint256;\n\n\t/***************************************************************************\n\t *                         Escrow methods: public                          *\n\t ***************************************************************************/\n\treceive()\n\texternal override payable\n\t{\n\t\trevert(\"fallback-disabled\");\n\t}\n\n\tfunction deposit(uint256 amount)\n\texternal override returns (bool)\n\t{\n\t\t_deposit(_msgSender(), amount);\n\t\t_mint(_msgSender(), amount);\n\t\treturn true;\n\t}\n\n\tfunction depositFor(uint256 amount, address target)\n\texternal override returns (bool)\n\t{\n\t\t_deposit(_msgSender(), amount);\n\t\t_mint(target, amount);\n\t\treturn true;\n\t}\n\n\tfunction depositForArray(uint256[] calldata amounts, address[] calldata targets)\n\texternal override returns (bool)\n\t{\n\t\trequire(amounts.length == targets.length);\n\t\tfor (uint i = 0; i < amounts.length; ++i)\n\t\t{\n\t\t\t_deposit(_msgSender(), amounts[i]);\n\t\t\t_mint(targets[i], amounts[i]);\n\t\t}\n\t\treturn true;\n\t}\n\n\tfunction withdraw(uint256 amount)\n\texternal override returns (bool)\n\t{\n\t\t_burn(_msgSender(), amount);\n\t\t_withdraw(_msgSender(), amount);\n\t\treturn true;\n\t}\n\n\tfunction recover()\n\texternal override onlyOwner returns (uint256)\n\t{\n\t\tuint256 delta = m_baseToken.balanceOf(address(this)).sub(m_totalSupply);\n\t\t_mint(owner(), delta);\n\t\treturn delta;\n\t}\n\n\t// Token Spender (endpoint for approveAndCallback calls to the proxy)\n\tfunction receiveApproval(address sender, uint256 amount, address token, bytes calldata)\n\texternal override returns (bool)\n\t{\n\t\trequire(token == address(m_baseToken), 'wrong-token');\n\t\t_deposit(sender, amount);\n\t\t_mint(sender, amount);\n\t\treturn true;\n\t}\n\n\tfunction _deposit(address from, uint256 amount)\n\tinternal\n\t{\n\t\trequire(m_baseToken.transferFrom(from, address(this), amount));\n\t}\n\n\tfunction _withdraw(address to, uint256 amount)\n\tinternal\n\t{\n\t\tm_baseToken.transfer(to, amount);\n\t}\n}\n",
  "sourcePath": "/home/amxx/Work/iExec/code/PoCo-dev/contracts/modules/delegates/IexecEscrowTokenDelegate.sol",
  "compiler": {
    "name": "solc",
    "version": "0.6.4+commit.1dca32f3.Emscripten.clang"
  },
  "schemaVersion": "3.0.23",
  "updatedAt": "2020-03-13T16:37:49.036Z",
  "devdoc": {
    "methods": {
      "isOwner()": {
        "details": "Returns true if the caller is the current owner."
      },
      "owner()": {
        "details": "Returns the address of the current owner."
      },
      "renounceOwnership()": {
        "details": "Leaves the contract without owner. It will not be possible to call `onlyOwner` functions anymore. Can only be called by the current owner.     * NOTE: Renouncing ownership will leave the contract without an owner, thereby removing any functionality that is only available to the owner."
      },
      "transferOwnership(address)": {
        "details": "Transfers ownership of the contract to a new account (`newOwner`). Can only be called by the current owner."
      }
    }
  },
  "userdoc": {
    "methods": {}
  }
}