{
  "contractName": "IexecODBLibOrders",
  "abi": [
    {
      "inputs": [],
      "name": "APPORDER_TYPEHASH",
      "outputs": [
        {
          "internalType": "bytes32",
          "name": "",
          "type": "bytes32"
        }
      ],
      "stateMutability": "view",
      "type": "function"
    },
    {
      "inputs": [],
      "name": "DATASETORDER_TYPEHASH",
      "outputs": [
        {
          "internalType": "bytes32",
          "name": "",
          "type": "bytes32"
        }
      ],
      "stateMutability": "view",
      "type": "function"
    },
    {
      "inputs": [],
      "name": "EIP712DOMAIN_TYPEHASH",
      "outputs": [
        {
          "internalType": "bytes32",
          "name": "",
          "type": "bytes32"
        }
      ],
      "stateMutability": "view",
      "type": "function"
    },
    {
      "inputs": [],
      "name": "REQUESTORDER_TYPEHASH",
      "outputs": [
        {
          "internalType": "bytes32",
          "name": "",
          "type": "bytes32"
        }
      ],
      "stateMutability": "view",
      "type": "function"
    },
    {
      "inputs": [],
      "name": "WORKERPOOLORDER_TYPEHASH",
      "outputs": [
        {
          "internalType": "bytes32",
          "name": "",
          "type": "bytes32"
        }
      ],
      "stateMutability": "view",
      "type": "function"
    },
    {
      "inputs": [
        {
          "components": [
            {
              "internalType": "address",
              "name": "app",
              "type": "address"
            },
            {
              "internalType": "uint256",
              "name": "appprice",
              "type": "uint256"
            },
            {
              "internalType": "uint256",
              "name": "volume",
              "type": "uint256"
            },
            {
              "internalType": "bytes32",
              "name": "tag",
              "type": "bytes32"
            },
            {
              "internalType": "address",
              "name": "datasetrestrict",
              "type": "address"
            },
            {
              "internalType": "address",
              "name": "workerpoolrestrict",
              "type": "address"
            },
            {
              "internalType": "address",
              "name": "requesterrestrict",
              "type": "address"
            },
            {
              "internalType": "bytes32",
              "name": "salt",
              "type": "bytes32"
            },
            {
              "internalType": "bytes",
              "name": "sign",
              "type": "bytes"
            }
          ],
          "internalType": "struct IexecODBLibOrders.AppOrder",
          "name": "_apporder",
          "type": "tuple"
        }
      ],
      "name": "hash",
      "outputs": [
        {
          "internalType": "bytes32",
          "name": "apphash",
          "type": "bytes32"
        }
      ],
      "stateMutability": "pure",
      "type": "function"
    },
    {
      "inputs": [
        {
          "components": [
            {
              "internalType": "address",
              "name": "app",
              "type": "address"
            },
            {
              "internalType": "uint256",
              "name": "appmaxprice",
              "type": "uint256"
            },
            {
              "internalType": "address",
              "name": "dataset",
              "type": "address"
            },
            {
              "internalType": "uint256",
              "name": "datasetmaxprice",
              "type": "uint256"
            },
            {
              "internalType": "address",
              "name": "workerpool",
              "type": "address"
            },
            {
              "internalType": "uint256",
              "name": "workerpoolmaxprice",
              "type": "uint256"
            },
            {
              "internalType": "address",
              "name": "requester",
              "type": "address"
            },
            {
              "internalType": "uint256",
              "name": "volume",
              "type": "uint256"
            },
            {
              "internalType": "bytes32",
              "name": "tag",
              "type": "bytes32"
            },
            {
              "internalType": "uint256",
              "name": "category",
              "type": "uint256"
            },
            {
              "internalType": "uint256",
              "name": "trust",
              "type": "uint256"
            },
            {
              "internalType": "address",
              "name": "beneficiary",
              "type": "address"
            },
            {
              "internalType": "address",
              "name": "callback",
              "type": "address"
            },
            {
              "internalType": "string",
              "name": "params",
              "type": "string"
            },
            {
              "internalType": "bytes32",
              "name": "salt",
              "type": "bytes32"
            },
            {
              "internalType": "bytes",
              "name": "sign",
              "type": "bytes"
            }
          ],
          "internalType": "struct IexecODBLibOrders.RequestOrder",
          "name": "_requestorder",
          "type": "tuple"
        }
      ],
      "name": "hash",
      "outputs": [
        {
          "internalType": "bytes32",
          "name": "requesthash",
          "type": "bytes32"
        }
      ],
      "stateMutability": "pure",
      "type": "function"
    },
    {
      "inputs": [
        {
          "components": [
            {
              "internalType": "address",
              "name": "dataset",
              "type": "address"
            },
            {
              "internalType": "uint256",
              "name": "datasetprice",
              "type": "uint256"
            },
            {
              "internalType": "uint256",
              "name": "volume",
              "type": "uint256"
            },
            {
              "internalType": "bytes32",
              "name": "tag",
              "type": "bytes32"
            },
            {
              "internalType": "address",
              "name": "apprestrict",
              "type": "address"
            },
            {
              "internalType": "address",
              "name": "workerpoolrestrict",
              "type": "address"
            },
            {
              "internalType": "address",
              "name": "requesterrestrict",
              "type": "address"
            },
            {
              "internalType": "bytes32",
              "name": "salt",
              "type": "bytes32"
            },
            {
              "internalType": "bytes",
              "name": "sign",
              "type": "bytes"
            }
          ],
          "internalType": "struct IexecODBLibOrders.DatasetOrder",
          "name": "_datasetorder",
          "type": "tuple"
        }
      ],
      "name": "hash",
      "outputs": [
        {
          "internalType": "bytes32",
          "name": "datasethash",
          "type": "bytes32"
        }
      ],
      "stateMutability": "pure",
      "type": "function"
    },
    {
      "inputs": [
        {
          "components": [
            {
              "internalType": "address",
              "name": "workerpool",
              "type": "address"
            },
            {
              "internalType": "uint256",
              "name": "workerpoolprice",
              "type": "uint256"
            },
            {
              "internalType": "uint256",
              "name": "volume",
              "type": "uint256"
            },
            {
              "internalType": "bytes32",
              "name": "tag",
              "type": "bytes32"
            },
            {
              "internalType": "uint256",
              "name": "category",
              "type": "uint256"
            },
            {
              "internalType": "uint256",
              "name": "trust",
              "type": "uint256"
            },
            {
              "internalType": "address",
              "name": "apprestrict",
              "type": "address"
            },
            {
              "internalType": "address",
              "name": "datasetrestrict",
              "type": "address"
            },
            {
              "internalType": "address",
              "name": "requesterrestrict",
              "type": "address"
            },
            {
              "internalType": "bytes32",
              "name": "salt",
              "type": "bytes32"
            },
            {
              "internalType": "bytes",
              "name": "sign",
              "type": "bytes"
            }
          ],
          "internalType": "struct IexecODBLibOrders.WorkerpoolOrder",
          "name": "_workerpoolorder",
          "type": "tuple"
        }
      ],
      "name": "hash",
      "outputs": [
        {
          "internalType": "bytes32",
          "name": "workerpoolhash",
          "type": "bytes32"
        }
      ],
      "stateMutability": "pure",
      "type": "function"
    },
    {
      "inputs": [
        {
          "components": [
            {
              "internalType": "string",
              "name": "name",
              "type": "string"
            },
            {
              "internalType": "string",
              "name": "version",
              "type": "string"
            },
            {
              "internalType": "uint256",
              "name": "chainId",
              "type": "uint256"
            },
            {
              "internalType": "address",
              "name": "verifyingContract",
              "type": "address"
            }
          ],
          "internalType": "struct IexecODBLibOrders.EIP712Domain",
          "name": "_domain",
          "type": "tuple"
        }
      ],
      "name": "hash",
      "outputs": [
        {
          "internalType": "bytes32",
          "name": "domainhash",
          "type": "bytes32"
        }
      ],
      "stateMutability": "pure",
      "type": "function"
    },
    {
      "inputs": [
        {
          "internalType": "bytes32",
          "name": "_structHash",
          "type": "bytes32"
        },
        {
          "internalType": "bytes32",
          "name": "_domainHash",
          "type": "bytes32"
        }
      ],
      "name": "toEthTypedStructHash",
      "outputs": [
        {
          "internalType": "bytes32",
          "name": "typedStructHash",
          "type": "bytes32"
        }
      ],
      "stateMutability": "pure",
      "type": "function"
    }
  ],
  "bytecode": "0x610888610026600b82828239805160001a60731461001957fe5b30600052607381538281f3fe73000000000000000000000000000000000000000030146080604052600436106100b35760003560e01c806358b505861161007b57806358b505861461012257806365db1dbb146101355780636f84d2da1461013d5780639a6f72ee14610145578063c49f91d31461014d578063eca34ccf14610155576100b3565b806304951329146100b85780630813424e146100e1578063176eaa49146100f4578063207dbbfe146101075780632bd4c7341461010f575b600080fd5b6100cb6100c63660046104eb565b610168565b6040516100d89190610822565b60405180910390f35b6100cb6100ef3660046105d0565b61019b565b6100cb6101023660046104ca565b6101e4565b6100cb610218565b6100cb61011d3660046104eb565b61023c565b6100cb61013036600461072b565b61026f565b6100cb6102a2565b6100cb6102c6565b6100cb6102ea565b6100cb61030e565b6100cb610163366004610526565b610332565b601f190180517f60815a0eeec47dddf1615fe53b31d016c31444e01b9d796db365443a6445d00882526101208220915290565b6101a08101805180516020820120601f1990930180517ff24e853034a3a450aba845a82914fbb564ad85accca6cf62be112a154520fae082529383526102008120939052905290565b600081836040516020016101f9929190610807565b6040516020818303038152906040528051906020012090505b92915050565b7f60815a0eeec47dddf1615fe53b31d016c31444e01b9d796db365443a6445d00881565b601f190180517f6cfc932a5a3d22c4359295b9f433edff52b60703fa47690a04a83e40933dd47c82526101208220915290565b601f190180517faa3429fb281b34691803133d3d978a75bb77c617ed6bc9aa162b9b30920022bb82526101608220915290565b7faa3429fb281b34691803133d3d978a75bb77c617ed6bc9aa162b9b30920022bb81565b7f6cfc932a5a3d22c4359295b9f433edff52b60703fa47690a04a83e40933dd47c81565b7ff24e853034a3a450aba845a82914fbb564ad85accca6cf62be112a154520fae081565b7f8b73c3c69bb8fe3d512ecc4cf759cc79239f7b179b0ffacaa9a75d522b39400f81565b805180516020808301919091208184018051805193810193909320601f19860180517f8b73c3c69bb8fe3d512ecc4cf759cc79239f7b179b0ffacaa9a75d522b39400f825293875290825260a0812092905292909352905290565b80356001600160a01b038116811461021257600080fd5b600082601f8301126103b4578081fd5b813567ffffffffffffffff8111156103ca578182fd5b6103dd601f8201601f191660200161082b565b91508082528360208285010111156103f457600080fd5b8060208401602084013760009082016020015292915050565b6000610120808385031215610420578182fd5b6104298161082b565b915050610436838361038d565b8152602082013560208201526040820135604082015260608201356060820152610463836080840161038d565b60808201526104758360a0840161038d565b60a08201526104878360c0840161038d565b60c082015260e082013560e08201526101008083013567ffffffffffffffff8111156104b257600080fd5b6104be858286016103a4565b82840152505092915050565b600080604083850312156104dc578182fd5b50508035926020909101359150565b6000602082840312156104fc578081fd5b813567ffffffffffffffff811115610512578182fd5b61051e8482850161040d565b949350505050565b600060208284031215610537578081fd5b813567ffffffffffffffff8082111561054e578283fd5b9083019060808286031215610561578283fd5b61056b608061082b565b823582811115610579578485fd5b610585878286016103a4565b825250602083013582811115610599578485fd5b6105a5878286016103a4565b602083015250604083013560408201526105c2866060850161038d565b606082015295945050505050565b6000602082840312156105e1578081fd5b813567ffffffffffffffff808211156105f8578283fd5b818401915061020080838703121561060e578384fd5b6106178161082b565b9050610623868461038d565b81526020830135602082015261063c866040850161038d565b604082015260608301356060820152610658866080850161038d565b608082015260a083013560a08201526106748660c0850161038d565b60c082015260e083810135908201526101008084013590820152610120808401359082015261014080840135908201526101606106b38782860161038d565b908201526101806106c68785830161038d565b908201526101a083810135838111156106dd578586fd5b6106e9888287016103a4565b8284015250506101c08084013581830152506101e0808401358381111561070e578586fd5b61071a888287016103a4565b918301919091525095945050505050565b60006020828403121561073c578081fd5b813567ffffffffffffffff80821115610753578283fd5b8184019150610160808387031215610769578384fd5b6107728161082b565b905061077e868461038d565b81526020830135602082015260408301356040820152606083013560608201526080830135608082015260a083013560a08201526107bf8660c0850161038d565b60c08201526107d18660e0850161038d565b60e08201526101006107e58782860161038d565b908201526101208381013590820152610140808401358381111561070e578586fd5b61190160f01b81526002810192909252602282015260420190565b90815260200190565b60405181810167ffffffffffffffff8111828210171561084a57600080fd5b60405291905056fea2646970667358221220065d280de7499e3ff6f64fef58970aa8ea7fe2837cafdf181e4c68ae166e40b764736f6c634300060c0033",
  "immutableReferences": {},
  "source": "pragma solidity >0.5.0 <0.7.0;\npragma experimental ABIEncoderV2;\n\nlibrary IexecODBLibOrders\n{\n\t// bytes32 public constant    EIP712DOMAIN_TYPEHASH = keccak256(\"EIP712Domain(string name,string version,uint256 chainId,address verifyingContract)\");\n\t// bytes32 public constant        APPORDER_TYPEHASH = keccak256(\"AppOrder(address app,uint256 appprice,uint256 volume,bytes32 tag,address datasetrestrict,address workerpoolrestrict,address requesterrestrict,bytes32 salt)\");\n\t// bytes32 public constant    DATASETORDER_TYPEHASH = keccak256(\"DatasetOrder(address dataset,uint256 datasetprice,uint256 volume,bytes32 tag,address apprestrict,address workerpoolrestrict,address requesterrestrict,bytes32 salt)\");\n\t// bytes32 public constant WORKERPOOLORDER_TYPEHASH = keccak256(\"WorkerpoolOrder(address workerpool,uint256 workerpoolprice,uint256 volume,bytes32 tag,uint256 category,uint256 trust,address apprestrict,address datasetrestrict,address requesterrestrict,bytes32 salt)\");\n\t// bytes32 public constant    REQUESTORDER_TYPEHASH = keccak256(\"RequestOrder(address app,uint256 appmaxprice,address dataset,uint256 datasetmaxprice,address workerpool,uint256 workerpoolmaxprice,address requester,uint256 volume,bytes32 tag,uint256 category,uint256 trust,address beneficiary,address callback,string params,bytes32 salt)\");\n\tbytes32 public constant    EIP712DOMAIN_TYPEHASH = 0x8b73c3c69bb8fe3d512ecc4cf759cc79239f7b179b0ffacaa9a75d522b39400f;\n\tbytes32 public constant        APPORDER_TYPEHASH = 0x60815a0eeec47dddf1615fe53b31d016c31444e01b9d796db365443a6445d008;\n\tbytes32 public constant    DATASETORDER_TYPEHASH = 0x6cfc932a5a3d22c4359295b9f433edff52b60703fa47690a04a83e40933dd47c;\n\tbytes32 public constant WORKERPOOLORDER_TYPEHASH = 0xaa3429fb281b34691803133d3d978a75bb77c617ed6bc9aa162b9b30920022bb;\n\tbytes32 public constant    REQUESTORDER_TYPEHASH = 0xf24e853034a3a450aba845a82914fbb564ad85accca6cf62be112a154520fae0;\n\n\tstruct EIP712Domain\n\t{\n\t\tstring  name;\n\t\tstring  version;\n\t\tuint256 chainId;\n\t\taddress verifyingContract;\n\t}\n\tstruct AppOrder\n\t{\n\t\taddress app;\n\t\tuint256 appprice;\n\t\tuint256 volume;\n\t\tbytes32 tag;\n\t\taddress datasetrestrict;\n\t\taddress workerpoolrestrict;\n\t\taddress requesterrestrict;\n\t\tbytes32 salt;\n\t\tbytes   sign;\n\t}\n\tstruct DatasetOrder\n\t{\n\t\taddress dataset;\n\t\tuint256 datasetprice;\n\t\tuint256 volume;\n\t\tbytes32 tag;\n\t\taddress apprestrict;\n\t\taddress workerpoolrestrict;\n\t\taddress requesterrestrict;\n\t\tbytes32 salt;\n\t\tbytes   sign;\n\t}\n\tstruct WorkerpoolOrder\n\t{\n\t\taddress workerpool;\n\t\tuint256 workerpoolprice;\n\t\tuint256 volume;\n\t\tbytes32 tag;\n\t\tuint256 category;\n\t\tuint256 trust;\n\t\taddress apprestrict;\n\t\taddress datasetrestrict;\n\t\taddress requesterrestrict;\n\t\tbytes32 salt;\n\t\tbytes   sign;\n\t}\n\tstruct RequestOrder\n\t{\n\t\taddress app;\n\t\tuint256 appmaxprice;\n\t\taddress dataset;\n\t\tuint256 datasetmaxprice;\n\t\taddress workerpool;\n\t\tuint256 workerpoolmaxprice;\n\t\taddress requester;\n\t\tuint256 volume;\n\t\tbytes32 tag;\n\t\tuint256 category;\n\t\tuint256 trust;\n\t\taddress beneficiary;\n\t\taddress callback;\n\t\tstring  params;\n\t\tbytes32 salt;\n\t\tbytes   sign;\n\t}\n\n\tfunction hash(EIP712Domain memory _domain)\n\tpublic pure returns (bytes32 domainhash)\n\t{\n\t\t/**\n\t\t * Readeable but expensive\n\t\t */\n\t\t// return keccak256(abi.encode(\n\t\t// \tEIP712DOMAIN_TYPEHASH\n\t\t// , keccak256(bytes(_domain.name))\n\t\t// , keccak256(bytes(_domain.version))\n\t\t// , _domain.chainId\n\t\t// , _domain.verifyingContract\n\t\t// ));\n\n\t\t// Compute sub-hashes\n\t\tbytes32 typeHash    = EIP712DOMAIN_TYPEHASH;\n\t\tbytes32 nameHash    = keccak256(bytes(_domain.name));\n\t\tbytes32 versionHash = keccak256(bytes(_domain.version));\n\t\tassembly {\n\t\t\t// Back up select memory\n\t\t\tlet temp1 := mload(sub(_domain, 0x20))\n\t\t\tlet temp2 := mload(add(_domain, 0x00))\n\t\t\tlet temp3 := mload(add(_domain, 0x20))\n\t\t\t// Write typeHash and sub-hashes\n\t\t\tmstore(sub(_domain, 0x20),    typeHash)\n\t\t\tmstore(add(_domain, 0x00),    nameHash)\n\t\t\tmstore(add(_domain, 0x20), versionHash)\n\t\t\t// Compute hash\n\t\t\tdomainhash := keccak256(sub(_domain, 0x20), 0xA0) // 160 = 32 + 128\n\t\t\t// Restore memory\n\t\t\tmstore(sub(_domain, 0x20), temp1)\n\t\t\tmstore(add(_domain, 0x00), temp2)\n\t\t\tmstore(add(_domain, 0x20), temp3)\n\t\t}\n\t}\n\tfunction hash(AppOrder memory _apporder)\n\tpublic pure returns (bytes32 apphash)\n\t{\n\t\t/**\n\t\t * Readeable but expensive\n\t\t */\n\t\t// return keccak256(abi.encode(\n\t\t// \tAPPORDER_TYPEHASH\n\t\t// , _apporder.app\n\t\t// , _apporder.appprice\n\t\t// , _apporder.volume\n\t\t// , _apporder.tag\n\t\t// , _apporder.datasetrestrict\n\t\t// , _apporder.workerpoolrestrict\n\t\t// , _apporder.requesterrestrict\n\t\t// , _apporder.salt\n\t\t// ));\n\n\t\t// Compute sub-hashes\n\t\tbytes32 typeHash = APPORDER_TYPEHASH;\n\t\tassembly {\n\t\t\t// Back up select memory\n\t\t\tlet temp1 := mload(sub(_apporder, 0x20))\n\t\t\t// Write typeHash and sub-hashes\n\t\t\tmstore(sub(_apporder, 0x20), typeHash)\n\t\t\t// Compute hash\n\t\t\tapphash := keccak256(sub(_apporder, 0x20), 0x120) // 288 = 32 + 256\n\t\t\t// Restore memory\n\t\t\tmstore(sub(_apporder, 0x20), temp1)\n\t\t}\n\t}\n\tfunction hash(DatasetOrder memory _datasetorder)\n\tpublic pure returns (bytes32 datasethash)\n\t{\n\t\t/**\n\t\t * Readeable but expensive\n\t\t */\n\t\t// return keccak256(abi.encode(\n\t\t// \tDATASETORDER_TYPEHASH\n\t\t// , _datasetorder.dataset\n\t\t// , _datasetorder.datasetprice\n\t\t// , _datasetorder.volume\n\t\t// , _datasetorder.tag\n\t\t// , _datasetorder.apprestrict\n\t\t// , _datasetorder.workerpoolrestrict\n\t\t// , _datasetorder.requesterrestrict\n\t\t// , _datasetorder.salt\n\t\t// ));\n\n\t\t// Compute sub-hashes\n\t\tbytes32 typeHash = DATASETORDER_TYPEHASH;\n\t\tassembly {\n\t\t\t// Back up select memory\n\t\t\tlet temp1 := mload(sub(_datasetorder, 0x20))\n\t\t\t// Write typeHash and sub-hashes\n\t\t\tmstore(sub(_datasetorder, 0x20), typeHash)\n\t\t\t// Compute hash\n\t\t\tdatasethash := keccak256(sub(_datasetorder, 0x20), 0x120) // 288 = 32 + 256\n\t\t\t// Restore memory\n\t\t\tmstore(sub(_datasetorder, 0x20), temp1)\n\t\t}\n\t}\n\tfunction hash(WorkerpoolOrder memory _workerpoolorder)\n\tpublic pure returns (bytes32 workerpoolhash)\n\t{\n\t\t/**\n\t\t * Readeable but expensive\n\t\t */\n\t\t// return keccak256(abi.encode(\n\t\t// \tWORKERPOOLORDER_TYPEHASH\n\t\t// , _workerpoolorder.workerpool\n\t\t// , _workerpoolorder.workerpoolprice\n\t\t// , _workerpoolorder.volume\n\t\t// , _workerpoolorder.tag\n\t\t// , _workerpoolorder.category\n\t\t// , _workerpoolorder.trust\n\t\t// , _workerpoolorder.apprestrict\n\t\t// , _workerpoolorder.datasetrestrict\n\t\t// , _workerpoolorder.requesterrestrict\n\t\t// , _workerpoolorder.salt\n\t\t// ));\n\n\t\t// Compute sub-hashes\n\t\tbytes32 typeHash = WORKERPOOLORDER_TYPEHASH;\n\t\tassembly {\n\t\t\t// Back up select memory\n\t\t\tlet temp1 := mload(sub(_workerpoolorder, 0x20))\n\t\t\t// Write typeHash and sub-hashes\n\t\t\tmstore(sub(_workerpoolorder, 0x20), typeHash)\n\t\t\t// Compute hash\n\t\t\tworkerpoolhash := keccak256(sub(_workerpoolorder, 0x20), 0x160) // 352 = 32 + 320\n\t\t\t// Restore memory\n\t\t\tmstore(sub(_workerpoolorder, 0x20), temp1)\n\t\t}\n\t}\n\tfunction hash(RequestOrder memory _requestorder)\n\tpublic pure returns (bytes32 requesthash)\n\t{\n\t\t/**\n\t\t * Readeable but expensive\n\t\t */\n\t\t//return keccak256(abi.encodePacked(\n\t\t//\tabi.encode(\n\t\t//\t\tREQUESTORDER_TYPEHASH\n\t\t//\t, _requestorder.app\n\t\t//\t, _requestorder.appmaxprice\n\t\t//\t, _requestorder.dataset\n\t\t//\t, _requestorder.datasetmaxprice\n\t\t//\t, _requestorder.workerpool\n\t\t//\t, _requestorder.workerpoolmaxprice\n\t\t//\t, _requestorder.requester\n\t\t//\t, _requestorder.volume\n\t\t//\t, _requestorder.tag\n\t\t//\t, _requestorder.category\n\t\t//\t, _requestorder.trust\n\t\t//\t, _requestorder.beneficiary\n\t\t//\t, _requestorder.callback\n\t\t//\t, keccak256(bytes(_requestorder.params))\n\t\t//\t, _requestorder.salt\n\t\t//\t)\n\t\t//));\n\n\t\t// Compute sub-hashes\n\t\tbytes32 typeHash = REQUESTORDER_TYPEHASH;\n\t\tbytes32 paramsHash = keccak256(bytes(_requestorder.params));\n\t\tassembly {\n\t\t\t// Back up select memory\n\t\t\tlet temp1 := mload(sub(_requestorder, 0x020))\n\t\t\tlet temp2 := mload(add(_requestorder, 0x1A0))\n\t\t\t// Write typeHash and sub-hashes\n\t\t\tmstore(sub(_requestorder, 0x020), typeHash)\n\t\t\tmstore(add(_requestorder, 0x1A0), paramsHash)\n\t\t\t// Compute hash\n\t\t\trequesthash := keccak256(sub(_requestorder, 0x20), 0x200) // 512 = 32 + 480\n\t\t\t// Restore memory\n\t\t\tmstore(sub(_requestorder, 0x020), temp1)\n\t\t\tmstore(add(_requestorder, 0x1A0), temp2)\n\t\t}\n\t}\n\n\tfunction toEthTypedStructHash(bytes32 _structHash, bytes32 _domainHash)\n\tpublic pure returns (bytes32 typedStructHash)\n\t{\n\t\treturn keccak256(abi.encodePacked(\"\\x19\\x01\", _domainHash, _structHash));\n\t}\n}\n",
  "sourcePath": "@iexec/interface/contracts/libs/IexecODBLibOrders.sol",
  "compiler": {
    "name": "solc",
    "version": "0.6.12+commit.27d51765.Emscripten.clang"
  },
  "schemaVersion": "3.2.2",
  "updatedAt": "2020-09-22T12:25:17.418Z",
  "devdoc": {
    "kind": "dev",
    "methods": {},
    "version": 1
  },
  "userdoc": {
    "kind": "user",
    "methods": {},
    "version": 1
  }
}