{
  "contractName": "IexecClerk",
  "abi": [
    {
      "constant": true,
      "inputs": [
        {
          "name": "_identity",
          "type": "address"
        },
        {
          "name": "_hash",
          "type": "bytes32"
        },
        {
          "name": "_signature",
          "type": "bytes"
        }
      ],
      "name": "verifySignature",
      "outputs": [
        {
          "name": "",
          "type": "bool"
        }
      ],
      "payable": false,
      "stateMutability": "view",
      "type": "function"
    },
    {
      "constant": true,
      "inputs": [],
      "name": "EIP712DOMAIN_SEPARATOR",
      "outputs": [
        {
          "name": "",
          "type": "bytes32"
        }
      ],
      "payable": false,
      "stateMutability": "view",
      "type": "function"
    },
    {
      "constant": false,
      "inputs": [
        {
          "name": "_amount",
          "type": "uint256"
        }
      ],
      "name": "withdraw",
      "outputs": [
        {
          "name": "",
          "type": "bool"
        }
      ],
      "payable": false,
      "stateMutability": "nonpayable",
      "type": "function"
    },
    {
      "constant": false,
      "inputs": [
        {
          "name": "_amounts",
          "type": "uint256[]"
        },
        {
          "name": "_targets",
          "type": "address[]"
        }
      ],
      "name": "depositForArray",
      "outputs": [
        {
          "name": "",
          "type": "bool"
        }
      ],
      "payable": true,
      "stateMutability": "payable",
      "type": "function"
    },
    {
      "constant": true,
      "inputs": [
        {
          "name": "",
          "type": "bytes32"
        }
      ],
      "name": "m_presigned",
      "outputs": [
        {
          "name": "",
          "type": "bool"
        }
      ],
      "payable": false,
      "stateMutability": "view",
      "type": "function"
    },
    {
      "constant": false,
      "inputs": [
        {
          "components": [
            {
              "name": "app",
              "type": "address"
            },
            {
              "name": "appmaxprice",
              "type": "uint256"
            },
            {
              "name": "dataset",
              "type": "address"
            },
            {
              "name": "datasetmaxprice",
              "type": "uint256"
            },
            {
              "name": "workerpool",
              "type": "address"
            },
            {
              "name": "workerpoolmaxprice",
              "type": "uint256"
            },
            {
              "name": "requester",
              "type": "address"
            },
            {
              "name": "volume",
              "type": "uint256"
            },
            {
              "name": "tag",
              "type": "bytes32"
            },
            {
              "name": "category",
              "type": "uint256"
            },
            {
              "name": "trust",
              "type": "uint256"
            },
            {
              "name": "beneficiary",
              "type": "address"
            },
            {
              "name": "callback",
              "type": "address"
            },
            {
              "name": "params",
              "type": "string"
            },
            {
              "name": "salt",
              "type": "bytes32"
            },
            {
              "name": "sign",
              "type": "bytes"
            }
          ],
          "name": "_requestorder",
          "type": "tuple"
        }
      ],
      "name": "broadcastRequestOrder",
      "outputs": [],
      "payable": false,
      "stateMutability": "nonpayable",
      "type": "function"
    },
    {
      "constant": false,
      "inputs": [
        {
          "components": [
            {
              "name": "dataset",
              "type": "address"
            },
            {
              "name": "datasetprice",
              "type": "uint256"
            },
            {
              "name": "volume",
              "type": "uint256"
            },
            {
              "name": "tag",
              "type": "bytes32"
            },
            {
              "name": "apprestrict",
              "type": "address"
            },
            {
              "name": "workerpoolrestrict",
              "type": "address"
            },
            {
              "name": "requesterrestrict",
              "type": "address"
            },
            {
              "name": "salt",
              "type": "bytes32"
            },
            {
              "name": "sign",
              "type": "bytes"
            }
          ],
          "name": "_datasetorder",
          "type": "tuple"
        }
      ],
      "name": "broadcastDatasetOrder",
      "outputs": [],
      "payable": false,
      "stateMutability": "nonpayable",
      "type": "function"
    },
    {
      "constant": true,
      "inputs": [],
      "name": "WORKERPOOL_STAKE_RATIO",
      "outputs": [
        {
          "name": "",
          "type": "uint256"
        }
      ],
      "payable": false,
      "stateMutability": "view",
      "type": "function"
    },
    {
      "constant": true,
      "inputs": [],
      "name": "KITTY_RATIO",
      "outputs": [
        {
          "name": "",
          "type": "uint256"
        }
      ],
      "payable": false,
      "stateMutability": "view",
      "type": "function"
    },
    {
      "constant": true,
      "inputs": [],
      "name": "GROUPMEMBER_PURPOSE",
      "outputs": [
        {
          "name": "",
          "type": "uint256"
        }
      ],
      "payable": false,
      "stateMutability": "view",
      "type": "function"
    },
    {
      "constant": true,
      "inputs": [
        {
          "name": "_user",
          "type": "address"
        }
      ],
      "name": "viewAccount",
      "outputs": [
        {
          "components": [
            {
              "name": "stake",
              "type": "uint256"
            },
            {
              "name": "locked",
              "type": "uint256"
            }
          ],
          "name": "account",
          "type": "tuple"
        }
      ],
      "payable": false,
      "stateMutability": "view",
      "type": "function"
    },
    {
      "constant": true,
      "inputs": [],
      "name": "POOL_STAKE_RATIO",
      "outputs": [
        {
          "name": "",
          "type": "uint256"
        }
      ],
      "payable": false,
      "stateMutability": "view",
      "type": "function"
    },
    {
      "constant": true,
      "inputs": [],
      "name": "iexechub",
      "outputs": [
        {
          "name": "",
          "type": "address"
        }
      ],
      "payable": false,
      "stateMutability": "view",
      "type": "function"
    },
    {
      "constant": false,
      "inputs": [
        {
          "components": [
            {
              "name": "workerpool",
              "type": "address"
            },
            {
              "name": "workerpoolprice",
              "type": "uint256"
            },
            {
              "name": "volume",
              "type": "uint256"
            },
            {
              "name": "tag",
              "type": "bytes32"
            },
            {
              "name": "category",
              "type": "uint256"
            },
            {
              "name": "trust",
              "type": "uint256"
            },
            {
              "name": "apprestrict",
              "type": "address"
            },
            {
              "name": "datasetrestrict",
              "type": "address"
            },
            {
              "name": "requesterrestrict",
              "type": "address"
            },
            {
              "name": "salt",
              "type": "bytes32"
            },
            {
              "name": "sign",
              "type": "bytes"
            }
          ],
          "name": "_workerpoolorder",
          "type": "tuple"
        }
      ],
      "name": "broadcastWorkerpoolOrder",
      "outputs": [],
      "payable": false,
      "stateMutability": "nonpayable",
      "type": "function"
    },
    {
      "constant": false,
      "inputs": [
        {
          "name": "_target",
          "type": "address"
        }
      ],
      "name": "depositFor",
      "outputs": [
        {
          "name": "",
          "type": "bool"
        }
      ],
      "payable": true,
      "stateMutability": "payable",
      "type": "function"
    },
    {
      "constant": true,
      "inputs": [
        {
          "name": "",
          "type": "bytes32"
        },
        {
          "name": "",
          "type": "uint256"
        }
      ],
      "name": "m_requestdeals",
      "outputs": [
        {
          "name": "",
          "type": "bytes32"
        }
      ],
      "payable": false,
      "stateMutability": "view",
      "type": "function"
    },
    {
      "constant": false,
      "inputs": [
        {
          "components": [
            {
              "name": "app",
              "type": "address"
            },
            {
              "name": "appprice",
              "type": "uint256"
            },
            {
              "name": "volume",
              "type": "uint256"
            },
            {
              "name": "tag",
              "type": "bytes32"
            },
            {
              "name": "datasetrestrict",
              "type": "address"
            },
            {
              "name": "workerpoolrestrict",
              "type": "address"
            },
            {
              "name": "requesterrestrict",
              "type": "address"
            },
            {
              "name": "salt",
              "type": "bytes32"
            },
            {
              "name": "sign",
              "type": "bytes"
            }
          ],
          "name": "_apporder",
          "type": "tuple"
        }
      ],
      "name": "broadcastAppOrder",
      "outputs": [],
      "payable": false,
      "stateMutability": "nonpayable",
      "type": "function"
    },
    {
      "constant": false,
      "inputs": [],
      "name": "deposit",
      "outputs": [
        {
          "name": "",
          "type": "bool"
        }
      ],
      "payable": true,
      "stateMutability": "payable",
      "type": "function"
    },
    {
      "constant": true,
      "inputs": [],
      "name": "KITTY_MIN",
      "outputs": [
        {
          "name": "",
          "type": "uint256"
        }
      ],
      "payable": false,
      "stateMutability": "view",
      "type": "function"
    },
    {
      "constant": true,
      "inputs": [
        {
          "name": "",
          "type": "bytes32"
        }
      ],
      "name": "m_consumed",
      "outputs": [
        {
          "name": "",
          "type": "uint256"
        }
      ],
      "payable": false,
      "stateMutability": "view",
      "type": "function"
    },
    {
      "inputs": [
        {
          "name": "_iexechub",
          "type": "address"
        },
        {
          "name": "_chainid",
          "type": "uint256"
        }
      ],
      "payable": false,
      "stateMutability": "nonpayable",
      "type": "constructor"
    },
    {
      "payable": true,
      "stateMutability": "payable",
      "type": "fallback"
    },
    {
      "anonymous": false,
      "inputs": [
        {
          "indexed": false,
          "name": "dealid",
          "type": "bytes32"
        },
        {
          "indexed": false,
          "name": "appHash",
          "type": "bytes32"
        },
        {
          "indexed": false,
          "name": "datasetHash",
          "type": "bytes32"
        },
        {
          "indexed": false,
          "name": "workerpoolHash",
          "type": "bytes32"
        },
        {
          "indexed": false,
          "name": "requestHash",
          "type": "bytes32"
        },
        {
          "indexed": false,
          "name": "volume",
          "type": "uint256"
        }
      ],
      "name": "OrdersMatched",
      "type": "event"
    },
    {
      "anonymous": false,
      "inputs": [
        {
          "indexed": false,
          "name": "appHash",
          "type": "bytes32"
        }
      ],
      "name": "ClosedAppOrder",
      "type": "event"
    },
    {
      "anonymous": false,
      "inputs": [
        {
          "indexed": false,
          "name": "datasetHash",
          "type": "bytes32"
        }
      ],
      "name": "ClosedDatasetOrder",
      "type": "event"
    },
    {
      "anonymous": false,
      "inputs": [
        {
          "indexed": false,
          "name": "workerpoolHash",
          "type": "bytes32"
        }
      ],
      "name": "ClosedWorkerpoolOrder",
      "type": "event"
    },
    {
      "anonymous": false,
      "inputs": [
        {
          "indexed": false,
          "name": "requestHash",
          "type": "bytes32"
        }
      ],
      "name": "ClosedRequestOrder",
      "type": "event"
    },
    {
      "anonymous": false,
      "inputs": [
        {
          "indexed": true,
          "name": "workerpool",
          "type": "address"
        },
        {
          "indexed": false,
          "name": "dealid",
          "type": "bytes32"
        }
      ],
      "name": "SchedulerNotice",
      "type": "event"
    },
    {
      "anonymous": false,
      "inputs": [
        {
          "components": [
            {
              "name": "app",
              "type": "address"
            },
            {
              "name": "appprice",
              "type": "uint256"
            },
            {
              "name": "volume",
              "type": "uint256"
            },
            {
              "name": "tag",
              "type": "bytes32"
            },
            {
              "name": "datasetrestrict",
              "type": "address"
            },
            {
              "name": "workerpoolrestrict",
              "type": "address"
            },
            {
              "name": "requesterrestrict",
              "type": "address"
            },
            {
              "name": "salt",
              "type": "bytes32"
            },
            {
              "name": "sign",
              "type": "bytes"
            }
          ],
          "indexed": false,
          "name": "apporder",
          "type": "tuple"
        }
      ],
      "name": "BroadcastAppOrder",
      "type": "event"
    },
    {
      "anonymous": false,
      "inputs": [
        {
          "components": [
            {
              "name": "dataset",
              "type": "address"
            },
            {
              "name": "datasetprice",
              "type": "uint256"
            },
            {
              "name": "volume",
              "type": "uint256"
            },
            {
              "name": "tag",
              "type": "bytes32"
            },
            {
              "name": "apprestrict",
              "type": "address"
            },
            {
              "name": "workerpoolrestrict",
              "type": "address"
            },
            {
              "name": "requesterrestrict",
              "type": "address"
            },
            {
              "name": "salt",
              "type": "bytes32"
            },
            {
              "name": "sign",
              "type": "bytes"
            }
          ],
          "indexed": false,
          "name": "datasetorder",
          "type": "tuple"
        }
      ],
      "name": "BroadcastDatasetOrder",
      "type": "event"
    },
    {
      "anonymous": false,
      "inputs": [
        {
          "components": [
            {
              "name": "workerpool",
              "type": "address"
            },
            {
              "name": "workerpoolprice",
              "type": "uint256"
            },
            {
              "name": "volume",
              "type": "uint256"
            },
            {
              "name": "tag",
              "type": "bytes32"
            },
            {
              "name": "category",
              "type": "uint256"
            },
            {
              "name": "trust",
              "type": "uint256"
            },
            {
              "name": "apprestrict",
              "type": "address"
            },
            {
              "name": "datasetrestrict",
              "type": "address"
            },
            {
              "name": "requesterrestrict",
              "type": "address"
            },
            {
              "name": "salt",
              "type": "bytes32"
            },
            {
              "name": "sign",
              "type": "bytes"
            }
          ],
          "indexed": false,
          "name": "workerpoolorder",
          "type": "tuple"
        }
      ],
      "name": "BroadcastWorkerpoolOrder",
      "type": "event"
    },
    {
      "anonymous": false,
      "inputs": [
        {
          "components": [
            {
              "name": "app",
              "type": "address"
            },
            {
              "name": "appmaxprice",
              "type": "uint256"
            },
            {
              "name": "dataset",
              "type": "address"
            },
            {
              "name": "datasetmaxprice",
              "type": "uint256"
            },
            {
              "name": "workerpool",
              "type": "address"
            },
            {
              "name": "workerpoolmaxprice",
              "type": "uint256"
            },
            {
              "name": "requester",
              "type": "address"
            },
            {
              "name": "volume",
              "type": "uint256"
            },
            {
              "name": "tag",
              "type": "bytes32"
            },
            {
              "name": "category",
              "type": "uint256"
            },
            {
              "name": "trust",
              "type": "uint256"
            },
            {
              "name": "beneficiary",
              "type": "address"
            },
            {
              "name": "callback",
              "type": "address"
            },
            {
              "name": "params",
              "type": "string"
            },
            {
              "name": "salt",
              "type": "bytes32"
            },
            {
              "name": "sign",
              "type": "bytes"
            }
          ],
          "indexed": false,
          "name": "requestorder",
          "type": "tuple"
        }
      ],
      "name": "BroadcastRequestOrder",
      "type": "event"
    },
    {
      "anonymous": false,
      "inputs": [
        {
          "indexed": false,
          "name": "owner",
          "type": "address"
        },
        {
          "indexed": false,
          "name": "amount",
          "type": "uint256"
        }
      ],
      "name": "Deposit",
      "type": "event"
    },
    {
      "anonymous": false,
      "inputs": [
        {
          "indexed": false,
          "name": "owner",
          "type": "address"
        },
        {
          "indexed": false,
          "name": "amount",
          "type": "uint256"
        },
        {
          "indexed": false,
          "name": "target",
          "type": "address"
        }
      ],
      "name": "DepositFor",
      "type": "event"
    },
    {
      "anonymous": false,
      "inputs": [
        {
          "indexed": false,
          "name": "owner",
          "type": "address"
        },
        {
          "indexed": false,
          "name": "amount",
          "type": "uint256"
        }
      ],
      "name": "Withdraw",
      "type": "event"
    },
    {
      "anonymous": false,
      "inputs": [
        {
          "indexed": false,
          "name": "user",
          "type": "address"
        },
        {
          "indexed": false,
          "name": "amount",
          "type": "uint256"
        },
        {
          "indexed": false,
          "name": "ref",
          "type": "bytes32"
        }
      ],
      "name": "Reward",
      "type": "event"
    },
    {
      "anonymous": false,
      "inputs": [
        {
          "indexed": false,
          "name": "user",
          "type": "address"
        },
        {
          "indexed": false,
          "name": "amount",
          "type": "uint256"
        },
        {
          "indexed": false,
          "name": "ref",
          "type": "bytes32"
        }
      ],
      "name": "Seize",
      "type": "event"
    },
    {
      "anonymous": false,
      "inputs": [
        {
          "indexed": false,
          "name": "user",
          "type": "address"
        },
        {
          "indexed": false,
          "name": "amount",
          "type": "uint256"
        }
      ],
      "name": "Lock",
      "type": "event"
    },
    {
      "anonymous": false,
      "inputs": [
        {
          "indexed": false,
          "name": "user",
          "type": "address"
        },
        {
          "indexed": false,
          "name": "amount",
          "type": "uint256"
        }
      ],
      "name": "Unlock",
      "type": "event"
    },
    {
      "constant": true,
      "inputs": [
        {
          "name": "_id",
          "type": "bytes32"
        }
      ],
      "name": "viewRequestDeals",
      "outputs": [
        {
          "name": "requestdeals",
          "type": "bytes32[]"
        }
      ],
      "payable": false,
      "stateMutability": "view",
      "type": "function"
    },
    {
      "constant": true,
      "inputs": [
        {
          "name": "_id",
          "type": "bytes32"
        }
      ],
      "name": "viewDeal",
      "outputs": [
        {
          "components": [
            {
              "components": [
                {
                  "name": "pointer",
                  "type": "address"
                },
                {
                  "name": "owner",
                  "type": "address"
                },
                {
                  "name": "price",
                  "type": "uint256"
                }
              ],
              "name": "app",
              "type": "tuple"
            },
            {
              "components": [
                {
                  "name": "pointer",
                  "type": "address"
                },
                {
                  "name": "owner",
                  "type": "address"
                },
                {
                  "name": "price",
                  "type": "uint256"
                }
              ],
              "name": "dataset",
              "type": "tuple"
            },
            {
              "components": [
                {
                  "name": "pointer",
                  "type": "address"
                },
                {
                  "name": "owner",
                  "type": "address"
                },
                {
                  "name": "price",
                  "type": "uint256"
                }
              ],
              "name": "workerpool",
              "type": "tuple"
            },
            {
              "name": "trust",
              "type": "uint256"
            },
            {
              "name": "category",
              "type": "uint256"
            },
            {
              "name": "tag",
              "type": "bytes32"
            },
            {
              "name": "requester",
              "type": "address"
            },
            {
              "name": "beneficiary",
              "type": "address"
            },
            {
              "name": "callback",
              "type": "address"
            },
            {
              "name": "params",
              "type": "string"
            },
            {
              "name": "startTime",
              "type": "uint256"
            },
            {
              "name": "botFirst",
              "type": "uint256"
            },
            {
              "name": "botSize",
              "type": "uint256"
            },
            {
              "name": "workerStake",
              "type": "uint256"
            },
            {
              "name": "schedulerRewardRatio",
              "type": "uint256"
            }
          ],
          "name": "deal",
          "type": "tuple"
        }
      ],
      "payable": false,
      "stateMutability": "view",
      "type": "function"
    },
    {
      "constant": true,
      "inputs": [
        {
          "name": "_id",
          "type": "bytes32"
        }
      ],
      "name": "viewConsumed",
      "outputs": [
        {
          "name": "consumed",
          "type": "uint256"
        }
      ],
      "payable": false,
      "stateMutability": "view",
      "type": "function"
    },
    {
      "constant": true,
      "inputs": [
        {
          "name": "_id",
          "type": "bytes32"
        }
      ],
      "name": "viewPresigned",
      "outputs": [
        {
          "name": "presigned",
          "type": "bool"
        }
      ],
      "payable": false,
      "stateMutability": "view",
      "type": "function"
    },
    {
      "constant": false,
      "inputs": [
        {
          "components": [
            {
              "name": "app",
              "type": "address"
            },
            {
              "name": "appprice",
              "type": "uint256"
            },
            {
              "name": "volume",
              "type": "uint256"
            },
            {
              "name": "tag",
              "type": "bytes32"
            },
            {
              "name": "datasetrestrict",
              "type": "address"
            },
            {
              "name": "workerpoolrestrict",
              "type": "address"
            },
            {
              "name": "requesterrestrict",
              "type": "address"
            },
            {
              "name": "salt",
              "type": "bytes32"
            },
            {
              "name": "sign",
              "type": "bytes"
            }
          ],
          "name": "_apporder",
          "type": "tuple"
        }
      ],
      "name": "signAppOrder",
      "outputs": [
        {
          "name": "",
          "type": "bool"
        }
      ],
      "payable": false,
      "stateMutability": "nonpayable",
      "type": "function"
    },
    {
      "constant": false,
      "inputs": [
        {
          "components": [
            {
              "name": "dataset",
              "type": "address"
            },
            {
              "name": "datasetprice",
              "type": "uint256"
            },
            {
              "name": "volume",
              "type": "uint256"
            },
            {
              "name": "tag",
              "type": "bytes32"
            },
            {
              "name": "apprestrict",
              "type": "address"
            },
            {
              "name": "workerpoolrestrict",
              "type": "address"
            },
            {
              "name": "requesterrestrict",
              "type": "address"
            },
            {
              "name": "salt",
              "type": "bytes32"
            },
            {
              "name": "sign",
              "type": "bytes"
            }
          ],
          "name": "_datasetorder",
          "type": "tuple"
        }
      ],
      "name": "signDatasetOrder",
      "outputs": [
        {
          "name": "",
          "type": "bool"
        }
      ],
      "payable": false,
      "stateMutability": "nonpayable",
      "type": "function"
    },
    {
      "constant": false,
      "inputs": [
        {
          "components": [
            {
              "name": "workerpool",
              "type": "address"
            },
            {
              "name": "workerpoolprice",
              "type": "uint256"
            },
            {
              "name": "volume",
              "type": "uint256"
            },
            {
              "name": "tag",
              "type": "bytes32"
            },
            {
              "name": "category",
              "type": "uint256"
            },
            {
              "name": "trust",
              "type": "uint256"
            },
            {
              "name": "apprestrict",
              "type": "address"
            },
            {
              "name": "datasetrestrict",
              "type": "address"
            },
            {
              "name": "requesterrestrict",
              "type": "address"
            },
            {
              "name": "salt",
              "type": "bytes32"
            },
            {
              "name": "sign",
              "type": "bytes"
            }
          ],
          "name": "_workerpoolorder",
          "type": "tuple"
        }
      ],
      "name": "signWorkerpoolOrder",
      "outputs": [
        {
          "name": "",
          "type": "bool"
        }
      ],
      "payable": false,
      "stateMutability": "nonpayable",
      "type": "function"
    },
    {
      "constant": false,
      "inputs": [
        {
          "components": [
            {
              "name": "app",
              "type": "address"
            },
            {
              "name": "appmaxprice",
              "type": "uint256"
            },
            {
              "name": "dataset",
              "type": "address"
            },
            {
              "name": "datasetmaxprice",
              "type": "uint256"
            },
            {
              "name": "workerpool",
              "type": "address"
            },
            {
              "name": "workerpoolmaxprice",
              "type": "uint256"
            },
            {
              "name": "requester",
              "type": "address"
            },
            {
              "name": "volume",
              "type": "uint256"
            },
            {
              "name": "tag",
              "type": "bytes32"
            },
            {
              "name": "category",
              "type": "uint256"
            },
            {
              "name": "trust",
              "type": "uint256"
            },
            {
              "name": "beneficiary",
              "type": "address"
            },
            {
              "name": "callback",
              "type": "address"
            },
            {
              "name": "params",
              "type": "string"
            },
            {
              "name": "salt",
              "type": "bytes32"
            },
            {
              "name": "sign",
              "type": "bytes"
            }
          ],
          "name": "_requestorder",
          "type": "tuple"
        }
      ],
      "name": "signRequestOrder",
      "outputs": [
        {
          "name": "",
          "type": "bool"
        }
      ],
      "payable": false,
      "stateMutability": "nonpayable",
      "type": "function"
    },
    {
      "constant": false,
      "inputs": [
        {
          "components": [
            {
              "name": "app",
              "type": "address"
            },
            {
              "name": "appprice",
              "type": "uint256"
            },
            {
              "name": "volume",
              "type": "uint256"
            },
            {
              "name": "tag",
              "type": "bytes32"
            },
            {
              "name": "datasetrestrict",
              "type": "address"
            },
            {
              "name": "workerpoolrestrict",
              "type": "address"
            },
            {
              "name": "requesterrestrict",
              "type": "address"
            },
            {
              "name": "salt",
              "type": "bytes32"
            },
            {
              "name": "sign",
              "type": "bytes"
            }
          ],
          "name": "_apporder",
          "type": "tuple"
        },
        {
          "components": [
            {
              "name": "dataset",
              "type": "address"
            },
            {
              "name": "datasetprice",
              "type": "uint256"
            },
            {
              "name": "volume",
              "type": "uint256"
            },
            {
              "name": "tag",
              "type": "bytes32"
            },
            {
              "name": "apprestrict",
              "type": "address"
            },
            {
              "name": "workerpoolrestrict",
              "type": "address"
            },
            {
              "name": "requesterrestrict",
              "type": "address"
            },
            {
              "name": "salt",
              "type": "bytes32"
            },
            {
              "name": "sign",
              "type": "bytes"
            }
          ],
          "name": "_datasetorder",
          "type": "tuple"
        },
        {
          "components": [
            {
              "name": "workerpool",
              "type": "address"
            },
            {
              "name": "workerpoolprice",
              "type": "uint256"
            },
            {
              "name": "volume",
              "type": "uint256"
            },
            {
              "name": "tag",
              "type": "bytes32"
            },
            {
              "name": "category",
              "type": "uint256"
            },
            {
              "name": "trust",
              "type": "uint256"
            },
            {
              "name": "apprestrict",
              "type": "address"
            },
            {
              "name": "datasetrestrict",
              "type": "address"
            },
            {
              "name": "requesterrestrict",
              "type": "address"
            },
            {
              "name": "salt",
              "type": "bytes32"
            },
            {
              "name": "sign",
              "type": "bytes"
            }
          ],
          "name": "_workerpoolorder",
          "type": "tuple"
        },
        {
          "components": [
            {
              "name": "app",
              "type": "address"
            },
            {
              "name": "appmaxprice",
              "type": "uint256"
            },
            {
              "name": "dataset",
              "type": "address"
            },
            {
              "name": "datasetmaxprice",
              "type": "uint256"
            },
            {
              "name": "workerpool",
              "type": "address"
            },
            {
              "name": "workerpoolmaxprice",
              "type": "uint256"
            },
            {
              "name": "requester",
              "type": "address"
            },
            {
              "name": "volume",
              "type": "uint256"
            },
            {
              "name": "tag",
              "type": "bytes32"
            },
            {
              "name": "category",
              "type": "uint256"
            },
            {
              "name": "trust",
              "type": "uint256"
            },
            {
              "name": "beneficiary",
              "type": "address"
            },
            {
              "name": "callback",
              "type": "address"
            },
            {
              "name": "params",
              "type": "string"
            },
            {
              "name": "salt",
              "type": "bytes32"
            },
            {
              "name": "sign",
              "type": "bytes"
            }
          ],
          "name": "_requestorder",
          "type": "tuple"
        }
      ],
      "name": "matchOrders",
      "outputs": [
        {
          "name": "",
          "type": "bytes32"
        }
      ],
      "payable": false,
      "stateMutability": "nonpayable",
      "type": "function"
    },
    {
      "constant": false,
      "inputs": [
        {
          "components": [
            {
              "name": "app",
              "type": "address"
            },
            {
              "name": "appprice",
              "type": "uint256"
            },
            {
              "name": "volume",
              "type": "uint256"
            },
            {
              "name": "tag",
              "type": "bytes32"
            },
            {
              "name": "datasetrestrict",
              "type": "address"
            },
            {
              "name": "workerpoolrestrict",
              "type": "address"
            },
            {
              "name": "requesterrestrict",
              "type": "address"
            },
            {
              "name": "salt",
              "type": "bytes32"
            },
            {
              "name": "sign",
              "type": "bytes"
            }
          ],
          "name": "_apporder",
          "type": "tuple"
        }
      ],
      "name": "cancelAppOrder",
      "outputs": [
        {
          "name": "",
          "type": "bool"
        }
      ],
      "payable": false,
      "stateMutability": "nonpayable",
      "type": "function"
    },
    {
      "constant": false,
      "inputs": [
        {
          "components": [
            {
              "name": "dataset",
              "type": "address"
            },
            {
              "name": "datasetprice",
              "type": "uint256"
            },
            {
              "name": "volume",
              "type": "uint256"
            },
            {
              "name": "tag",
              "type": "bytes32"
            },
            {
              "name": "apprestrict",
              "type": "address"
            },
            {
              "name": "workerpoolrestrict",
              "type": "address"
            },
            {
              "name": "requesterrestrict",
              "type": "address"
            },
            {
              "name": "salt",
              "type": "bytes32"
            },
            {
              "name": "sign",
              "type": "bytes"
            }
          ],
          "name": "_datasetorder",
          "type": "tuple"
        }
      ],
      "name": "cancelDatasetOrder",
      "outputs": [
        {
          "name": "",
          "type": "bool"
        }
      ],
      "payable": false,
      "stateMutability": "nonpayable",
      "type": "function"
    },
    {
      "constant": false,
      "inputs": [
        {
          "components": [
            {
              "name": "workerpool",
              "type": "address"
            },
            {
              "name": "workerpoolprice",
              "type": "uint256"
            },
            {
              "name": "volume",
              "type": "uint256"
            },
            {
              "name": "tag",
              "type": "bytes32"
            },
            {
              "name": "category",
              "type": "uint256"
            },
            {
              "name": "trust",
              "type": "uint256"
            },
            {
              "name": "apprestrict",
              "type": "address"
            },
            {
              "name": "datasetrestrict",
              "type": "address"
            },
            {
              "name": "requesterrestrict",
              "type": "address"
            },
            {
              "name": "salt",
              "type": "bytes32"
            },
            {
              "name": "sign",
              "type": "bytes"
            }
          ],
          "name": "_workerpoolorder",
          "type": "tuple"
        }
      ],
      "name": "cancelWorkerpoolOrder",
      "outputs": [
        {
          "name": "",
          "type": "bool"
        }
      ],
      "payable": false,
      "stateMutability": "nonpayable",
      "type": "function"
    },
    {
      "constant": false,
      "inputs": [
        {
          "components": [
            {
              "name": "app",
              "type": "address"
            },
            {
              "name": "appmaxprice",
              "type": "uint256"
            },
            {
              "name": "dataset",
              "type": "address"
            },
            {
              "name": "datasetmaxprice",
              "type": "uint256"
            },
            {
              "name": "workerpool",
              "type": "address"
            },
            {
              "name": "workerpoolmaxprice",
              "type": "uint256"
            },
            {
              "name": "requester",
              "type": "address"
            },
            {
              "name": "volume",
              "type": "uint256"
            },
            {
              "name": "tag",
              "type": "bytes32"
            },
            {
              "name": "category",
              "type": "uint256"
            },
            {
              "name": "trust",
              "type": "uint256"
            },
            {
              "name": "beneficiary",
              "type": "address"
            },
            {
              "name": "callback",
              "type": "address"
            },
            {
              "name": "params",
              "type": "string"
            },
            {
              "name": "salt",
              "type": "bytes32"
            },
            {
              "name": "sign",
              "type": "bytes"
            }
          ],
          "name": "_requestorder",
          "type": "tuple"
        }
      ],
      "name": "cancelRequestOrder",
      "outputs": [
        {
          "name": "",
          "type": "bool"
        }
      ],
      "payable": false,
      "stateMutability": "nonpayable",
      "type": "function"
    },
    {
      "constant": false,
      "inputs": [
        {
          "name": "_dealid",
          "type": "bytes32"
        },
        {
          "name": "_worker",
          "type": "address"
        }
      ],
      "name": "lockContribution",
      "outputs": [],
      "payable": false,
      "stateMutability": "nonpayable",
      "type": "function"
    },
    {
      "constant": false,
      "inputs": [
        {
          "name": "_dealid",
          "type": "bytes32"
        },
        {
          "name": "_worker",
          "type": "address"
        }
      ],
      "name": "unlockContribution",
      "outputs": [],
      "payable": false,
      "stateMutability": "nonpayable",
      "type": "function"
    },
    {
      "constant": false,
      "inputs": [
        {
          "name": "_dealid",
          "type": "bytes32"
        },
        {
          "name": "_worker",
          "type": "address"
        },
        {
          "name": "_amount",
          "type": "uint256"
        },
        {
          "name": "_taskid",
          "type": "bytes32"
        }
      ],
      "name": "unlockAndRewardForContribution",
      "outputs": [],
      "payable": false,
      "stateMutability": "nonpayable",
      "type": "function"
    },
    {
      "constant": false,
      "inputs": [
        {
          "name": "_dealid",
          "type": "bytes32"
        },
        {
          "name": "_worker",
          "type": "address"
        },
        {
          "name": "_taskid",
          "type": "bytes32"
        }
      ],
      "name": "seizeContribution",
      "outputs": [],
      "payable": false,
      "stateMutability": "nonpayable",
      "type": "function"
    },
    {
      "constant": false,
      "inputs": [
        {
          "name": "_dealid",
          "type": "bytes32"
        },
        {
          "name": "_amount",
          "type": "uint256"
        },
        {
          "name": "_taskid",
          "type": "bytes32"
        }
      ],
      "name": "rewardForScheduling",
      "outputs": [],
      "payable": false,
      "stateMutability": "nonpayable",
      "type": "function"
    },
    {
      "constant": false,
      "inputs": [
        {
          "name": "_dealid",
          "type": "bytes32"
        },
        {
          "name": "_taskid",
          "type": "bytes32"
        }
      ],
      "name": "successWork",
      "outputs": [],
      "payable": false,
      "stateMutability": "nonpayable",
      "type": "function"
    },
    {
      "constant": false,
      "inputs": [
        {
          "name": "_dealid",
          "type": "bytes32"
        },
        {
          "name": "_taskid",
          "type": "bytes32"
        }
      ],
      "name": "failedWork",
      "outputs": [],
      "payable": false,
      "stateMutability": "nonpayable",
      "type": "function"
    },
    {
      "constant": true,
      "inputs": [
        {
          "name": "_id",
          "type": "bytes32"
        }
      ],
      "name": "viewDealABILegacy_pt1",
      "outputs": [
        {
          "name": "",
          "type": "address"
        },
        {
          "name": "",
          "type": "address"
        },
        {
          "name": "",
          "type": "uint256"
        },
        {
          "name": "",
          "type": "address"
        },
        {
          "name": "",
          "type": "address"
        },
        {
          "name": "",
          "type": "uint256"
        },
        {
          "name": "",
          "type": "address"
        },
        {
          "name": "",
          "type": "address"
        },
        {
          "name": "",
          "type": "uint256"
        }
      ],
      "payable": false,
      "stateMutability": "view",
      "type": "function"
    },
    {
      "constant": true,
      "inputs": [
        {
          "name": "_id",
          "type": "bytes32"
        }
      ],
      "name": "viewDealABILegacy_pt2",
      "outputs": [
        {
          "name": "",
          "type": "uint256"
        },
        {
          "name": "",
          "type": "bytes32"
        },
        {
          "name": "",
          "type": "address"
        },
        {
          "name": "",
          "type": "address"
        },
        {
          "name": "",
          "type": "address"
        },
        {
          "name": "",
          "type": "string"
        }
      ],
      "payable": false,
      "stateMutability": "view",
      "type": "function"
    },
    {
      "constant": true,
      "inputs": [
        {
          "name": "_id",
          "type": "bytes32"
        }
      ],
      "name": "viewConfigABILegacy",
      "outputs": [
        {
          "name": "",
          "type": "uint256"
        },
        {
          "name": "",
          "type": "uint256"
        },
        {
          "name": "",
          "type": "uint256"
        },
        {
          "name": "",
          "type": "uint256"
        },
        {
          "name": "",
          "type": "uint256"
        },
        {
          "name": "",
          "type": "uint256"
        }
      ],
      "payable": false,
      "stateMutability": "view",
      "type": "function"
    },
    {
      "constant": true,
      "inputs": [
        {
          "name": "_user",
          "type": "address"
        }
      ],
      "name": "viewAccountABILegacy",
      "outputs": [
        {
          "name": "",
          "type": "uint256"
        },
        {
          "name": "",
          "type": "uint256"
        }
      ],
      "payable": false,
      "stateMutability": "view",
      "type": "function"
    }
  ],
  "bytecode": "0x60806040523480156200001157600080fd5b50604051620051f8380380620051f88339810160408190526200003491620001b8565b816001600160a01b0381166200004957600080fd5b600180546001600160a01b0319166001600160a01b03929092169190911790556040805160c0810182526008608082019081527f69457865634f444200000000000000000000000000000000000000000000000060a0830152815281518083018352600981527f332e302d616c706861000000000000000000000000000000000000000000000060208083019190915282015280820183905230606082015290517feca34ccf00000000000000000000000000000000000000000000000000000000815273__IexecODBLibOrders_____________________9163eca34ccf91620001389190600401620002e6565b60206040518083038186803b1580156200015157600080fd5b505af415801562000166573d6000803e3d6000fd5b505050506040513d601f19601f820116820180604052506200018c9190810190620001f7565b600655506200038b9050565b8051620001a58162000366565b92915050565b8051620001a58162000380565b60008060408385031215620001cc57600080fd5b6000620001da858562000198565b9250506020620001ed85828601620001ab565b9150509250929050565b6000602082840312156200020a57600080fd5b6000620002188484620001ab565b949350505050565b6200022b816200030d565b82525050565b60006200023e8262000300565b6200024a818562000304565b93506200025c81856020860162000329565b62000267816200035c565b9093019392505050565b80516080808452600091908401906200028b828262000231565b91505060208301518482036020860152620002a7828262000231565b9150506040830151620002be6040860182620002db565b506060830151620002d3606086018262000220565b509392505050565b6200022b816200031a565b60208082528101620002f9818462000271565b9392505050565b5190565b90815260200190565b6000620001a5826200031d565b90565b6001600160a01b031690565b60005b83811015620003465781810151838201526020016200032c565b8381111562000356576000848401525b50505050565b601f01601f191690565b62000371816200030d565b81146200037d57600080fd5b50565b62000371816200031a565b614e5d806200039b6000396000f3fe6080604052600436106102675760003560e01c806370c4c27711610144578063b31231de116100b6578063d0e30db01161007a578063d0e30db0146107f0578063d286eb16146107f8578063d5922f5014610818578063e2e7a8c11461084a578063e3035ace1461085f578063e798491a1461087f57610267565b8063b31231de1461071c578063b74861b21461073c578063bd19a4f314610769578063c52e9de11461079e578063ce5f7895146107be57610267565b80639f0c9d6e116101085780639f0c9d6e14610669578063a1f3496c14610689578063a3b37a79146106a9578063a3f0ec58146106c9578063aa67c919146106e9578063ae510d19146106fc57610267565b806370c4c277146105c7578063732e498d146105e757806384724ddf146106075780638d52e41314610627578063947f51781461064957610267565b806351152de1116101dd5780636a6e0bed116101a15780636a6e0bed1461050d5780636b55f4a51461052d5780636cb9012e1461055a5780636dc2df051461057a5780636eb528b5146105a7578063709ce02b1461046057610267565b806351152de11461047557806351a0942f1461048a578063555859c7146104aa5780635b3ae3e4146104ca57806368a9ef1c146104f857610267565b806338a754b41161022f57806338a754b4146103be57806343f2c970146103de5780634693d172146103fe5780634b2bec8c146104205780634c4692de146104405780634ec3b9e31461046057610267565b80630175199814610313578063047411e714610349578063156194d41461036b5780632e1a7d4d1461038b5780633354f8a5146103ab575b6102843361027f34633b9aca0063ffffffff61089f16565b6108c3565b336108fc61029c34633b9aca0063ffffffff61090c16565b6040518115909202916000818181858888f193505050501580156102c4573d6000803e3d6000fd5b507fe1fffcc4923d04b559f4d29a8bfc6cda04eb5b0d3c460751c2402c5c5cc9109c336102fb34633b9aca0063ffffffff61089f16565b604051610309929190614a63565b60405180910390a1005b34801561031f57600080fd5b5061033361032e36600461410e565b610929565b6040516103409190614b8e565b60405180910390f35b34801561035557600080fd5b5061035e6109c4565b6040516103409190614b9c565b34801561037757600080fd5b5061035e6103863660046143ae565b6109ca565b34801561039757600080fd5b506103336103a63660046141fe565b611a21565b6103336103b9366004614172565b611ad5565b3480156103ca57600080fd5b506103336103d936600461445e565b611c16565b3480156103ea57600080fd5b506103336103f93660046141fe565b611da6565b34801561040a57600080fd5b5061041e61041936600461445e565b611dbb565b005b34801561042c57600080fd5b5061035e61043b3660046141fe565b611df5565b34801561044c57600080fd5b5061041e61045b36600461437a565b611e07565b34801561046c57600080fd5b5061035e611e36565b34801561048157600080fd5b5061035e611e3b565b34801561049657600080fd5b5061041e6104a5366004614318565b611e40565b3480156104b657600080fd5b506103336104c536600461437a565b611efb565b3480156104d657600080fd5b506104ea6104e53660046140d2565b6120e5565b604051610340929190614baa565b34801561050457600080fd5b5061035e612129565b34801561051957600080fd5b50610333610528366004614492565b61212e565b34801561053957600080fd5b5061054d6105483660046140d2565b612301565b6040516103409190614c75565b34801561056657600080fd5b5061033361057536600461437a565b61233a565b34801561058657600080fd5b5061059a6105953660046141fe565b61240e565b6040516103409190614b7d565b3480156105b357600080fd5b5061041e6105c236600461423a565b612470565b3480156105d357600080fd5b5061041e6105e2366004614318565b6124a8565b3480156105f357600080fd5b5061033361060236600461445e565b612643565b34801561061357600080fd5b5061033361062236600461437a565b6126a7565b34801561063357600080fd5b5061063c612891565b6040516103409190614c67565b34801561065557600080fd5b5061041e610664366004614492565b6128a0565b34801561067557600080fd5b5061041e610684366004614274565b6128cf565b34801561069557600080fd5b5061041e6106a4366004614348565b612909565b3480156106b557600080fd5b506103336106c436600461437a565b612946565b3480156106d557600080fd5b5061041e6106e43660046142b7565b612a1a565b6103336106f73660046140d2565b612a5f565b34801561070857600080fd5b50610333610717366004614492565b612b13565b34801561072857600080fd5b5061035e610737366004614318565b612cfd565b34801561074857600080fd5b5061075c6107573660046141fe565b612d2b565b6040516103409190614c94565b34801561077557600080fd5b506107896107843660046141fe565b612eee565b60405161034099989796959493929190614ac1565b3480156107aa57600080fd5b5061041e6107b936600461437a565b61312b565b3480156107ca57600080fd5b506107de6107d93660046141fe565b61315a565b60405161034096959493929190614cc7565b61033361335b565b34801561080457600080fd5b506103336108133660046141fe565b613409565b34801561082457600080fd5b506108386108333660046141fe565b61341e565b60405161034096959493929190614bb8565b34801561085657600080fd5b5061035e61361e565b34801561086b57600080fd5b5061035e61087a3660046141fe565b613626565b34801561088b57600080fd5b5061041e61089a36600461423a565b613638565b60008082116108ad57600080fd5b60008284816108b857fe5b049150505b92915050565b6001600160a01b0382166000908152602081905260409020546108ec908263ffffffff61366c16565b6001600160a01b0390921660009081526020819052604090209190915550565b60008161091857600080fd5b81838161092157fe5b069392505050565b600061093684848461367e565b806109ba5750604051630b135d3f60e11b81526001600160a01b03851690631626ba7e9061096a9086908690600401614c12565b60206040518083038186803b15801561098257600080fd5b505afa158015610996573d6000803e3d6000fd5b505050506040513d601f19601f820116820180604052506109ba91908101906141e0565b90505b9392505050565b60065481565b60008260800151826101200151146109e157600080fd5b8260a0015182610140015111156109f757600080fd5b846020015182602001511015610a0c57600080fd5b836020015182606001511015610a2157600080fd5b82602001518260a001511015610a3657600080fd5b826060015119826101000151856060015187606001511717166000801b14610a5d57600080fd5b845182516001600160a01b03908116911614610a7857600080fd5b83600001516001600160a01b031682604001516001600160a01b031614610a9e57600080fd5b60808201516001600160a01b03161580610ac75750610ac7826080015184600001516004613753565b610ad057600080fd5b60808501516001600160a01b03161580610af95750610af9856080015185600001516004613753565b610b0257600080fd5b60a08501516001600160a01b03161580610b2b5750610b2b8560a0015184600001516004613753565b610b3457600080fd5b60c08501516001600160a01b03161580610b5d5750610b5d8560c001518360c001516004613753565b610b6657600080fd5b60808401516001600160a01b03161580610b8f5750610b8f846080015186600001516004613753565b610b9857600080fd5b60a08401516001600160a01b03161580610bc15750610bc18460a0015184600001516004613753565b610bca57600080fd5b60c08401516001600160a01b03161580610bf35750610bf38460c001518360c001516004613753565b610bfc57600080fd5b60c08301516001600160a01b03161580610c255750610c258360c0015186600001516004613753565b610c2e57600080fd5b60e08301516001600160a01b03161580610c575750610c578360e0015185600001516004613753565b610c6057600080fd5b6101008301516001600160a01b03161580610c8b5750610c8b8361010001518360c001516004613753565b610c9457600080fd5b60015485518551855160405163097d630d60e01b81526001600160a01b039094169363097d630d93610ccc9390929091600401614aa6565b60206040518083038186803b158015610ce457600080fd5b505afa158015610cf8573d6000803e3d6000fd5b505050506040513d601f19601f82011682018060405250610d1c91908101906141e0565b610d2557600080fd5b610d2d613a9c565b84516001600160a01b0316151560e0820152604051630495132960e01b815273__IexecODBLibOrders_____________________90630495132990610d76908990600401614c83565b60206040518083038186803b158015610d8e57600080fd5b505af4158015610da2573d6000803e3d6000fd5b505050506040513d601f19601f82011682018060405250610dc6919081019061421c565b60065460405163176eaa4960e01b815273__IexecODBLibOrders_____________________9263176eaa4992610dfe92600401614baa565b60206040518083038186803b158015610e1657600080fd5b505af4158015610e2a573d6000803e3d6000fd5b505050506040513d601f19601f82011682018060405250610e4e919081019061421c565b81600001818152505085600001516001600160a01b0316638da5cb5b6040518163ffffffff1660e01b815260040160206040518083038186803b158015610e9457600080fd5b505afa158015610ea8573d6000803e3d6000fd5b505050506040513d601f19601f82011682018060405250610ecc91908101906140f0565b6001600160a01b031660208083019190915281516000908152600a909152604090205460ff1680610f105750610f1081602001518260000151886101000151610929565b610f1957600080fd5b8060e00151156110fa57604051630af531cd60e21b815273__IexecODBLibOrders_____________________90632bd4c73490610f5a908890600401614c83565b60206040518083038186803b158015610f7257600080fd5b505af4158015610f86573d6000803e3d6000fd5b505050506040513d601f19601f82011682018060405250610faa919081019061421c565b60065460405163176eaa4960e01b815273__IexecODBLibOrders_____________________9263176eaa4992610fe292600401614baa565b60206040518083038186803b158015610ffa57600080fd5b505af415801561100e573d6000803e3d6000fd5b505050506040513d601f19601f82011682018060405250611032919081019061421c565b81604001818152505084600001516001600160a01b0316638da5cb5b6040518163ffffffff1660e01b815260040160206040518083038186803b15801561107857600080fd5b505afa15801561108c573d6000803e3d6000fd5b505050506040513d601f19601f820116820180604052506110b091908101906140f0565b6001600160a01b031660608201526040808201516000908152600a602052205460ff16806110f157506110f181606001518260400151876101000151610929565b6110fa57600080fd5b604051632c5a82c360e11b815273__IexecODBLibOrders_____________________906358b5058690611131908790600401614cb6565b60206040518083038186803b15801561114957600080fd5b505af415801561115d573d6000803e3d6000fd5b505050506040513d601f19601f82011682018060405250611181919081019061421c565b60065460405163176eaa4960e01b815273__IexecODBLibOrders_____________________9263176eaa49926111b992600401614baa565b60206040518083038186803b1580156111d157600080fd5b505af41580156111e5573d6000803e3d6000fd5b505050506040513d601f19601f82011682018060405250611209919081019061421c565b81608001818152505083600001516001600160a01b0316638da5cb5b6040518163ffffffff1660e01b815260040160206040518083038186803b15801561124f57600080fd5b505afa158015611263573d6000803e3d6000fd5b505050506040513d601f19601f8201168201806040525061128791908101906140f0565b6001600160a01b031660a082015260808101516000908152600a602052604090205460ff16806112ca57506112ca8160a001518260800151866101400151610929565b6112d357600080fd5b604051630409a12760e11b815273__IexecODBLibOrders_____________________90630813424e9061130a908690600401614ca5565b60206040518083038186803b15801561132257600080fd5b505af4158015611336573d6000803e3d6000fd5b505050506040513d601f19601f8201168201806040525061135a919081019061421c565b60065460405163176eaa4960e01b815273__IexecODBLibOrders_____________________9263176eaa499261139292600401614baa565b60206040518083038186803b1580156113aa57600080fd5b505af41580156113be573d6000803e3d6000fd5b505050506040513d601f19601f820116820180604052506113e2919081019061421c565b60c082018190526000908152600a602052604090205460ff168061141957506114198360c001518260c00151856101e00151610929565b61142257600080fd5b805160009081526009602052604080822054908801516114479163ffffffff6137a616565b90508160e001516114585780611491565b60408083015160009081526009602052819020549087015161149191611484919063ffffffff6137a616565b829063ffffffff6137bb16565b60808301516000908152600960205260409081902054908701519192506114c1916114849163ffffffff6137a616565b60c083015160009081526009602052604090205460e08601519192506114f0916114849163ffffffff6137a616565b9050600081116114ff57600080fd5b60c08201516000818152600960209081526040808320549051929361152693909201614a3d565b60408051808303601f190181529181528151602092830120600081815260088452919091208a5181546001600160a01b03199081166001600160a01b03928316178355878501516001840180548316918416919091179055938c01516002830155606087015160048301805486169183169190911790558a5160038301805490951691161790925560e08501519092506115c15760006115c7565b87602001515b600582015586516006820180546001600160a01b039283166001600160a01b03199182161790915560a08601516007840180549190931691161790556020870151600882015561014086015161162490600163ffffffff6137d116565b6009820155610120860151600a8201556101008601516060808a0151908b01511717600b82015560c0860151600c820180546001600160a01b039283166001600160a01b031991821617909155610160880151600d84018054918416918316919091179055610180880151600e840180549190931691161790556101a086015180516116ba91600f840191602090910190613ae0565b5042601082015560c0840151600090815260096020908152604091829020546011840155601283018590558851825163b55e75af60e01b8152925161176f936001600160a01b039092169263b55e75af9260048082019391829003018186803b15801561172657600080fd5b505afa15801561173a573d6000803e3d6000fd5b505050506040513d601f19601f8201168201806040525061175e919081019061421c565b60208901519063ffffffff6137e116565b816013018190555086600001516001600160a01b03166387639c686040518163ffffffff1660e01b815260040160206040518083038186803b1580156117b457600080fd5b505afa1580156117c8573d6000803e3d6000fd5b505050506040513d601f19601f820116820180604052506117ec919081019061421c565b601482015560c08401516000908152600760209081526040808320805460018101825590845282842001859055865183526009909152902054611835908463ffffffff61366c16565b845160009081526009602052604090205560e084015161187a9061185a57600061185c565b835b6040808701516000908152600960205220549063ffffffff61366c16565b6040808601516000908152600960205281812092909255608086015182529020546118ab908463ffffffff61366c16565b60808501516000908152600960205260408082209290925560c0860151815220546118dc908463ffffffff61366c16565b60c0850151600090815260096020526040902055600c81015460088201546005830154600284015461194a936001600160a01b031692611945928892611939929161192d919063ffffffff61366c16565b9063ffffffff61366c16565b9063ffffffff6137ef16565b613816565b60078101546008820154611979916001600160a01b03169061194590869061193990601e63ffffffff6137e116565b60068101546040516001600160a01b03909116907f692ad61076dceddd0f1a861f737553dd61fc8501cf4190d29c4e90af6607f765906119ba908590614b9c565b60405180910390a27fd811b592ed0899225773e8933d8df64bd0b62761a9d7aad4ed5b22735f4610a4828560000151866040015187608001518860c0015188604051611a0b96959493929190614bb8565b60405180910390a150925050505b949350505050565b33600090815260208190526040812054611a41908363ffffffff6137a616565b336000818152602081905260409020919091556108fc611a6b84633b9aca0063ffffffff6137ef16565b6040518115909202916000818181858888f19350505050158015611a93573d6000803e3d6000fd5b507f884edad9ce6fa2440d8a54cc123490eb96d2768479d49ff9c7366125a94243643383604051611ac5929190614a63565b60405180910390a1506001919050565b6000838214611ae357600080fd5b3460005b85811015611bdb57611b2b858583818110611afe57fe5b9050602002016020611b1391908101906140d2565b888884818110611b1f57fe5b905060200201356108c3565b7fcce62bfcdb09eddbe4e5ff5ec3bafdbabc25a52e1cf34f014a0a7a0864f9634c33888884818110611b5957fe5b90506020020135878785818110611b6c57fe5b9050602002016020611b8191908101906140d2565b604051611b9093929190614a7e565b60405180910390a1611bd1611bc4633b9aca00898985818110611baf57fe5b905060200201356137ef90919063ffffffff16565b839063ffffffff6137a616565b9150600101611ae7565b50604051339082156108fc029083906000818181858888f19350505050158015611c09573d6000803e3d6000fd5b5060019695505050505050565b604051630409a12760e11b8152600090819073__IexecODBLibOrders_____________________90630813424e90611c52908690600401614ca5565b60206040518083038186803b158015611c6a57600080fd5b505af4158015611c7e573d6000803e3d6000fd5b505050506040513d601f19601f82011682018060405250611ca2919081019061421c565b60065460405163176eaa4960e01b815273__IexecODBLibOrders_____________________9263176eaa4992611cda92600401614baa565b60206040518083038186803b158015611cf257600080fd5b505af4158015611d06573d6000803e3d6000fd5b505050506040513d601f19601f82011682018060405250611d2a919081019061421c565b90508260c001516001600160a01b0316336001600160a01b031614611d4e57600080fd5b60e08301516000828152600960205260409081902091909155517f582f43f2a741cbe708aae3b8d38a4efc3d09d7e81919697b3ca693f4c444cc0590611d95908390614b9c565b60405180910390a150600192915050565b60056020526000908152604090205460ff1681565b7f54bee205d9b03332d6dc82bc907476dfef6ed4fd86058d49a72994baee78117581604051611dea9190614ca5565b60405180910390a150565b60009081526009602052604090205490565b7fc56d982ad2fd39ebadca073cc88d9bdaee0f4c8e7b2b6be50227169daefc7b3f81604051611dea9190614c83565b601e81565b600a81565b6001546001600160a01b03163314611e5757600080fd5b600082815260086020819052604082209081015460058201546002830154929392611e8d929161192d919063ffffffff61366c16565b6008830154909150600090611ea990601e63ffffffff6137e116565b600c840154909150611ec4906001600160a01b0316836138cb565b6007830154611edd906001600160a01b03168286613976565b611ee960008286613a02565b611ef4600082613816565b5050505050565b604051630af531cd60e21b8152600090819073__IexecODBLibOrders_____________________90632bd4c73490611f37908690600401614c83565b60206040518083038186803b158015611f4f57600080fd5b505af4158015611f63573d6000803e3d6000fd5b505050506040513d601f19601f82011682018060405250611f87919081019061421c565b60065460405163176eaa4960e01b815273__IexecODBLibOrders_____________________9263176eaa4992611fbf92600401614baa565b60206040518083038186803b158015611fd757600080fd5b505af4158015611feb573d6000803e3d6000fd5b505050506040513d601f19601f8201168201806040525061200f919081019061421c565b905082600001516001600160a01b0316638da5cb5b6040518163ffffffff1660e01b815260040160206040518083038186803b15801561204e57600080fd5b505afa158015612062573d6000803e3d6000fd5b505050506040513d601f19601f8201168201806040525061208691908101906140f0565b6001600160a01b0316336001600160a01b0316146120a357600080fd5b6040808401516000838152600960205282902055517fcf52e3228bc482a6656d8ab56c09888b1c5bf6aaadba0185e96a34836f2bb1d490611d95908390614b9c565b6000806120f0613b5e565b5050506001600160a01b031660009081526020818152604091829020825180840190935280548084526001909101549290910182905291565b600481565b600081600001516001600160a01b0316638da5cb5b6040518163ffffffff1660e01b815260040160206040518083038186803b15801561216d57600080fd5b505afa158015612181573d6000803e3d6000fd5b505050506040513d601f19601f820116820180604052506121a591908101906140f0565b6001600160a01b0316336001600160a01b0316146121c257600080fd5b604051632c5a82c360e11b8152600190600a9060009073__IexecODBLibOrders_____________________906358b5058690612202908890600401614cb6565b60206040518083038186803b15801561221a57600080fd5b505af415801561222e573d6000803e3d6000fd5b505050506040513d601f19601f82011682018060405250612252919081019061421c565b60065460405163176eaa4960e01b815273__IexecODBLibOrders_____________________9263176eaa499261228a92600401614baa565b60206040518083038186803b1580156122a257600080fd5b505af41580156122b6573d6000803e3d6000fd5b505050506040513d601f19601f820116820180604052506122da919081019061421c565b81526020810191909152604001600020805460ff1916911515919091179055506001919050565b612309613b5e565b506001600160a01b031660009081526020818152604091829020825180840190935280548352600101549082015290565b600081600001516001600160a01b0316638da5cb5b6040518163ffffffff1660e01b815260040160206040518083038186803b15801561237957600080fd5b505afa15801561238d573d6000803e3d6000fd5b505050506040513d601f19601f820116820180604052506123b191908101906140f0565b6001600160a01b0316336001600160a01b0316146123ce57600080fd5b604051630495132960e01b8152600190600a9060009073__IexecODBLibOrders_____________________90630495132990612202908890600401614c83565b60008181526007602090815260409182902080548351818402810184019094528084526060939283018282801561246457602002820191906000526020600020905b815481526020019060010190808311612450575b50505050509050919050565b6001546001600160a01b0316331461248757600080fd5b6000828152600860205260409020601301546124a49082906138cb565b5050565b6001546001600160a01b031633146124bf57600080fd5b6000828152600860208190526040822090810154600582015460028301549293926124f5929161192d919063ffffffff61366c16565b600883015490915060009061251190601e63ffffffff6137e116565b600c84015490915061252d906001600160a01b03168386613976565b6002830154156125555760018301546002840154612555916001600160a01b03169086613a02565b600583015415801590612574575060038301546001600160a01b031615155b156125975760048301546005840154612597916001600160a01b03169086613a02565b60078301546125af906001600160a01b0316826138cb565b60008080526020527fad3228b676f7d3cd4284a5443f17f1962b36e491b30a40b2405849e597ba5fb654801561263b5761261481612608633b9aca006125fc83600a63ffffffff6137e116565b9063ffffffff6137d116565b9063ffffffff6137bb16565b905061262260008287613976565b600784015461263b906001600160a01b03168287613a02565b505050505050565b60008160c001516001600160a01b0316336001600160a01b03161461266757600080fd5b604051630409a12760e11b8152600190600a9060009073__IexecODBLibOrders_____________________90630813424e90612202908890600401614ca5565b604051630495132960e01b8152600090819073__IexecODBLibOrders_____________________906304951329906126e3908690600401614c83565b60206040518083038186803b1580156126fb57600080fd5b505af415801561270f573d6000803e3d6000fd5b505050506040513d601f19601f82011682018060405250612733919081019061421c565b60065460405163176eaa4960e01b815273__IexecODBLibOrders_____________________9263176eaa499261276b92600401614baa565b60206040518083038186803b15801561278357600080fd5b505af4158015612797573d6000803e3d6000fd5b505050506040513d601f19601f820116820180604052506127bb919081019061421c565b905082600001516001600160a01b0316638da5cb5b6040518163ffffffff1660e01b815260040160206040518083038186803b1580156127fa57600080fd5b505afa15801561280e573d6000803e3d6000fd5b505050506040513d601f19601f8201168201806040525061283291908101906140f0565b6001600160a01b0316336001600160a01b03161461284f57600080fd5b6040808401516000838152600960205282902055517f7343f75be43aba524f85326508cd975d016ef7884676377366c69a7c32e3066890611d95908390614b9c565b6001546001600160a01b031681565b7faf81a046e31ebb2be305579e585ac6b2ee3fdc2dc9dba806bb826879bb2c785181604051611dea9190614cb6565b6001546001600160a01b031633146128e657600080fd5b60008381526008602052604090206013015461290490839083613976565b505050565b6001546001600160a01b0316331461292057600080fd5b600083815260086020526040902060070154612904906001600160a01b03168383613a02565b600081600001516001600160a01b0316638da5cb5b6040518163ffffffff1660e01b815260040160206040518083038186803b15801561298557600080fd5b505afa158015612999573d6000803e3d6000fd5b505050506040513d601f19601f820116820180604052506129bd91908101906140f0565b6001600160a01b0316336001600160a01b0316146129da57600080fd5b604051630af531cd60e21b8152600190600a9060009073__IexecODBLibOrders_____________________90632bd4c73490612202908890600401614c83565b6001546001600160a01b03163314612a3157600080fd5b600084815260086020526040902060130154612a4e9084906138cb565b612a59838383613a02565b50505050565b60006001600160a01b038216612a7457600080fd5b612a8c8261027f34633b9aca0063ffffffff61089f16565b336108fc612aa434633b9aca0063ffffffff61090c16565b6040518115909202916000818181858888f19350505050158015612acc573d6000803e3d6000fd5b507fcce62bfcdb09eddbe4e5ff5ec3bafdbabc25a52e1cf34f014a0a7a0864f9634c33612b0334633b9aca0063ffffffff61089f16565b84604051611ac593929190614a7e565b604051632c5a82c360e11b8152600090819073__IexecODBLibOrders_____________________906358b5058690612b4f908690600401614cb6565b60206040518083038186803b158015612b6757600080fd5b505af4158015612b7b573d6000803e3d6000fd5b505050506040513d601f19601f82011682018060405250612b9f919081019061421c565b60065460405163176eaa4960e01b815273__IexecODBLibOrders_____________________9263176eaa4992612bd792600401614baa565b60206040518083038186803b158015612bef57600080fd5b505af4158015612c03573d6000803e3d6000fd5b505050506040513d601f19601f82011682018060405250612c27919081019061421c565b905082600001516001600160a01b0316638da5cb5b6040518163ffffffff1660e01b815260040160206040518083038186803b158015612c6657600080fd5b505afa158015612c7a573d6000803e3d6000fd5b505050506040513d601f19601f82011682018060405250612c9e91908101906140f0565b6001600160a01b0316336001600160a01b031614612cbb57600080fd5b6040808401516000838152600960205282902055517f145ad51e4496173bca15e24e7eb46f9ab3a10eea0497e2801a3a6806c06113a390611d95908390614b9c565b60036020528160005260406000208181548110612d1657fe5b90600052602060002001600091509150505481565b612d33613b78565b60008281526008602081815260409283902083516102408101855281546001600160a01b039081166101e083019081526001808501548316610200850152600280860154610220860152918452875160608082018a5260038701548516825260048701548516828901526005870154828b01528588019190915288518082018a52600687015485168152600787015485168189015297860154888a015284890197909752600985015496840196909652600a8401546080840152600b84015460a0840152600c840154821660c0840152600d840154821660e0840152600e84015490911661010080840191909152600f840180548851978116159092026000190190911691909104601f810185900485028601850190965285855290949193610120860193909290830182828015612eac5780601f10612e8157610100808354040283529160200191612eac565b820191906000526020600020905b815481529060010190602001808311612e8f57829003601f168201915b50505050508152602001601082015481526020016011820154815260200160128201548152602001601382015481526020016014820154815250509050919050565b6000806000806000806000806000612f04613b78565b60008b81526008602081815260409283902083516102408101855281546001600160a01b039081166101e083019081526001808501548316610200850152600280860154610220860152918452875160608082018a5260038701548516825260048701548516828901526005870154828b01528588019190915288518082018a52600687015485168152600787015485168189015297860154888a015284890197909752600985015496840196909652600a8401546080840152600b84015460a0840152600c840154821660c0840152600d840154821660e0840152600e84015490911661010080840191909152600f840180548851978116159092026000190190911691909104601f81018590048502860185019096528585529094919361012086019390929083018282801561307d5780601f106130525761010080835404028352916020019161307d565b820191906000526020600020905b81548152906001019060200180831161306057829003601f168201915b50505050508152602001601082015481526020016011820154815260200160128201548152602001601382015481526020016014820154815250509050806000015160000151816000015160200151826000015160400151836020015160000151846020015160200151856020015160400151866040015160000151876040015160200151886040015160400151995099509950995099509950995099509950509193959799909294969850565b7f6fd493f856b22df174df46975d6dcf0895c7dfb3c63d20179c0dcd5563e2f56581604051611dea9190614c83565b6000806000806000606061316c613b78565b60008881526008602081815260409283902083516102408101855281546001600160a01b039081166101e083019081526001808501548316610200850152600280860154610220860152918452875160608082018a5260038701548516825260048701548516828901526005870154828b01528588019190915288518082018a52600687015485168152600787015485168189015297860154888a015284890197909752600985015496840196909652600a8401546080840152600b84015460a0840152600c840154821660c0840152600d840154821660e0840152600e84015490911661010080840191909152600f840180548851978116159092026000190190911691909104601f8101859004850286018501909652858552909491936101208601939092908301828280156132e55780601f106132ba576101008083540402835291602001916132e5565b820191906000526020600020905b8154815290600101906020018083116132c857829003601f168201915b5050505050815260200160108201548152602001601182015481526020016012820154815260200160138201548152602001601482015481525050905080606001518160a001518260c001518360e001518461010001518561012001518090509650965096509650965096505091939550919395565b60006133753361027f34633b9aca0063ffffffff61089f16565b336108fc61338d34633b9aca0063ffffffff61090c16565b6040518115909202916000818181858888f193505050501580156133b5573d6000803e3d6000fd5b507fe1fffcc4923d04b559f4d29a8bfc6cda04eb5b0d3c460751c2402c5c5cc9109c336133ec34633b9aca0063ffffffff61089f16565b6040516133fa929190614a63565b60405180910390a15060015b90565b6000908152600a602052604090205460ff1690565b60008060008060008061342f613b78565b60008881526008602081815260409283902083516102408101855281546001600160a01b039081166101e083019081526001808501548316610200850152600280860154610220860152918452875160608082018a5260038701548516825260048701548516828901526005870154828b01528588019190915288518082018a52600687015485168152600787015485168189015297860154888a015284890197909752600985015496840196909652600a8401546080840152600b84015460a0840152600c840154821660c0840152600d840154821660e0840152600e84015490911661010080840191909152600f840180548851978116159092026000190190911691909104601f8101859004850286018501909652858552909491936101208601939092908301828280156135a85780601f1061357d576101008083540402835291602001916135a8565b820191906000526020600020905b81548152906001019060200180831161358b57829003601f168201915b505050505081526020016010820154815260200160118201548152602001601282015481526020016013820154815260200160148201548152505090508060800151816101400151826101600151836101800151846101a00151856101c001519650965096509650965096505091939550919395565b633b9aca0081565b60046020526000908152604090205481565b6001546001600160a01b0316331461364f57600080fd5b6000828152600860205260409020601301546124a4908290613816565b6000828201838110156109bd57600080fd5b600080600080845160411461369957600093505050506109bd565b50505060208201516040830151606084015160001a601b8110156136bb57601b015b8060ff16601b141580156136d357508060ff16601c14155b156136e457600093505050506109bd565b600186828585604051600081526020016040526040516137079493929190614c32565b6020604051602081039080840390855afa158015613729573d6000803e3d6000fd5b505050602060405103516001600160a01b0316876001600160a01b03161493505050509392505050565b6000826001600160a01b0316846001600160a01b031614806109ba5750836001600160a01b031663d202158d61378885613a7b565b846040518363ffffffff1660e01b815260040161096a929190614baa565b6000828211156137b557600080fd5b50900390565b60008183106137ca57816109bd565b5090919050565b6000818310156137ca57816109bd565b60006109bd83836064613a87565b6000826137fe575060006108bd565b8282028284828161380b57fe5b04146109bd57600080fd5b6001600160a01b03821660009081526020819052604090205461383f908263ffffffff6137a616565b6001600160a01b03831660009081526020819052604090209081556001015461386e908263ffffffff61366c16565b6001600160a01b0383166000908152602081905260409081902060010191909155517f625fed9875dada8643f2418b838ae0bc78d9a148a18eee4ee1979ff0f3f5d427906138bf9084908490614b47565b60405180910390a15050565b6001600160a01b0382166000908152602081905260409020600101546138f7908263ffffffff6137a616565b6001600160a01b0383166000908152602081905260409020600181019190915554613928908263ffffffff61366c16565b6001600160a01b0383166000908152602081905260409081902091909155517f6381d9813cabeb57471b5a7e05078e64845ccdb563146a6911d536f24ce960f1906138bf9084908490614b47565b6001600160a01b0383166000908152602081905260409020600101546139a2908363ffffffff6137a616565b6001600160a01b0384166000908152602081905260409081902060010191909155517f1bccc549c38561cd5b57f0db11ceb8dde1b0b6ee05ab5e155b51c7c5ba64becb906139f590859085908590614b55565b60405180910390a1505050565b6001600160a01b038316600090815260208190526040902054613a2b908363ffffffff61366c16565b6001600160a01b0384166000908152602081905260409081902091909155517fc2aca55aa696938c7e95842e8939ca0fbb2120a3eeb8948cdcee2b70da566672906139f590859085908590614b55565b6001600160a01b031690565b60006109ba613a9685856137ef565b8361089f565b6040805161010081018252600080825260208201819052918101829052606081018290526080810182905260a0810182905260c0810182905260e081019190915290565b828054600181600116156101000203166002900490600052602060002090601f016020900481019282601f10613b2157805160ff1916838001178555613b4e565b82800160010185558215613b4e579182015b82811115613b4e578251825591602001919060010190613b33565b50613b5a929150613c1e565b5090565b604051806040016040528060008152602001600081525090565b604051806102a00160405280613b8c613c38565b8152602001613b99613c38565b8152602001613ba6613c38565b815260200160008152602001600081526020016000801916815260200160006001600160a01b0316815260200160006001600160a01b0316815260200160006001600160a01b031681526020016060815260200160008152602001600081526020016000815260200160008152602001600081525090565b61340691905b80821115613b5a5760008155600101613c24565b604080516060810182526000808252602082018190529181019190915290565b80356108bd81614df1565b80516108bd81614df1565b60008083601f840112613c8057600080fd5b5081356001600160401b03811115613c9757600080fd5b602083019150836020820283011115613caf57600080fd5b9250929050565b80516108bd81614e08565b80356108bd81614e11565b80516108bd81614e11565b600082601f830112613ce857600080fd5b8135613cfb613cf682614d4d565b614d27565b91508082526020830160208301858383011115613d1757600080fd5b613d22838284614daf565b50505092915050565b60006101208284031215613d3e57600080fd5b613d49610120614d27565b90506000613d578484613c58565b8252506020613d6884848301613cc1565b6020830152506040613d7c84828501613cc1565b6040830152506060613d9084828501613cc1565b6060830152506080613da484828501613c58565b60808301525060a0613db884828501613c58565b60a08301525060c0613dcc84828501613c58565b60c08301525060e0613de084828501613cc1565b60e0830152506101008201356001600160401b03811115613e0057600080fd5b613e0c84828501613cd7565b6101008301525092915050565b60006102008284031215613e2c57600080fd5b613e37610200614d27565b90506000613e458484613c58565b8252506020613e5684848301613cc1565b6020830152506040613e6a84828501613c58565b6040830152506060613e7e84828501613cc1565b6060830152506080613e9284828501613c58565b60808301525060a0613ea684828501613cc1565b60a08301525060c0613eba84828501613c58565b60c08301525060e0613ece84828501613cc1565b60e083015250610100613ee384828501613cc1565b61010083015250610120613ef984828501613cc1565b61012083015250610140613f0f84828501613cc1565b61014083015250610160613f2584828501613c58565b61016083015250610180613f3b84828501613c58565b610180830152506101a08201356001600160401b03811115613f5c57600080fd5b613f6884828501613cd7565b6101a0830152506101c0613f7e84828501613cc1565b6101c0830152506101e08201356001600160401b03811115613f9f57600080fd5b613fab84828501613cd7565b6101e08301525092915050565b60006101608284031215613fcb57600080fd5b613fd6610160614d27565b90506000613fe48484613c58565b8252506020613ff584848301613cc1565b602083015250604061400984828501613cc1565b604083015250606061401d84828501613cc1565b606083015250608061403184828501613cc1565b60808301525060a061404584828501613cc1565b60a08301525060c061405984828501613c58565b60c08301525060e061406d84828501613c58565b60e08301525061010061408284828501613c58565b6101008301525061012061409884828501613cc1565b610120830152506101408201356001600160401b038111156140b957600080fd5b6140c584828501613cd7565b6101408301525092915050565b6000602082840312156140e457600080fd5b6000611a198484613c58565b60006020828403121561410257600080fd5b6000611a198484613c63565b60008060006060848603121561412357600080fd5b600061412f8686613c58565b935050602061414086828701613cc1565b92505060408401356001600160401b0381111561415c57600080fd5b61416886828701613cd7565b9150509250925092565b6000806000806040858703121561418857600080fd5b84356001600160401b0381111561419e57600080fd5b6141aa87828801613c6e565b945094505060208501356001600160401b038111156141c857600080fd5b6141d487828801613c6e565b95989497509550505050565b6000602082840312156141f257600080fd5b6000611a198484613cb6565b60006020828403121561421057600080fd5b6000611a198484613cc1565b60006020828403121561422e57600080fd5b6000611a198484613ccc565b6000806040838503121561424d57600080fd5b60006142598585613cc1565b925050602061426a85828601613c58565b9150509250929050565b60008060006060848603121561428957600080fd5b60006142958686613cc1565b93505060206142a686828701613c58565b925050604061416886828701613cc1565b600080600080608085870312156142cd57600080fd5b60006142d98787613cc1565b94505060206142ea87828801613c58565b93505060406142fb87828801613cc1565b925050606061430c87828801613cc1565b91505092959194509250565b6000806040838503121561432b57600080fd5b60006143378585613cc1565b925050602061426a85828601613cc1565b60008060006060848603121561435d57600080fd5b60006143698686613cc1565b93505060206142a686828701613cc1565b60006020828403121561438c57600080fd5b81356001600160401b038111156143a257600080fd5b611a1984828501613d2b565b600080600080608085870312156143c457600080fd5b84356001600160401b038111156143da57600080fd5b6143e687828801613d2b565b94505060208501356001600160401b0381111561440257600080fd5b61440e87828801613d2b565b93505060408501356001600160401b0381111561442a57600080fd5b61443687828801613fb8565b92505060608501356001600160401b0381111561445257600080fd5b61430c87828801613e19565b60006020828403121561447057600080fd5b81356001600160401b0381111561448657600080fd5b611a1984828501613e19565b6000602082840312156144a457600080fd5b81356001600160401b038111156144ba57600080fd5b611a1984828501613fb8565b60006144d28383614554565b505060200190565b6144e381614d9d565b82525050565b6144e381614d87565b60006144fd82614d7a565b6145078185614d7e565b935061451283614d74565b8060005b8381101561454057815161452a88826144c6565b975061453583614d74565b925050600101614516565b509495945050505050565b6144e381614d92565b6144e381613406565b6144e361456982613406565b613406565b600061457982614d7a565b6145838185614d7e565b9350614593818560208601614dbb565b61459c81614de7565b9093019392505050565b6144e381614da4565b805160408301906145c08482614554565b506020820151612a596020850182614554565b80516000906101208401906145e885826144e9565b5060208301516145fb6020860182614554565b50604083015161460e6040860182614554565b5060608301516146216060860182614554565b50608083015161463460808601826144e9565b5060a083015161464760a08601826144e9565b5060c083015161465a60c08601826144e9565b5060e083015161466d60e0860182614554565b50610100830151848203610100860152614687828261456e565b95945050505050565b80516000906102a08401906146a5858261491f565b5060208301516146b8606086018261491f565b5060408301516146cb60c086018261491f565b5060608301516146df610120860182614554565b5060808301516146f3610140860182614554565b5060a0830151614707610160860182614554565b5060c083015161471b6101808601826144e9565b5060e083015161472f6101a08601826144e9565b506101008301516147446101c08601826144e9565b506101208301518482036101e086015261475e828261456e565b915050610140830151614775610200860182614554565b5061016083015161478a610220860182614554565b5061018083015161479f610240860182614554565b506101a08301516147b4610260860182614554565b506101c08301516147c9610280860182614554565b509392505050565b80516000906102008401906147e685826144e9565b5060208301516147f96020860182614554565b50604083015161480c60408601826144e9565b50606083015161481f6060860182614554565b50608083015161483260808601826144e9565b5060a083015161484560a0860182614554565b5060c083015161485860c08601826144e9565b5060e083015161486b60e0860182614554565b50610100830151614880610100860182614554565b50610120830151614895610120860182614554565b506101408301516148aa610140860182614554565b506101608301516148bf6101608601826144e9565b506101808301516148d46101808601826144e9565b506101a08301518482036101a08601526148ee828261456e565b9150506101c08301516149056101c0860182614554565b506101e08301518482036101e0860152614687828261456e565b8051606083019061493084826144e9565b50602082015161494360208501826144e9565b506040820151612a596040850182614554565b805160009061016084019061496b85826144e9565b50602083015161497e6020860182614554565b5060408301516149916040860182614554565b5060608301516149a46060860182614554565b5060808301516149b76080860182614554565b5060a08301516149ca60a0860182614554565b5060c08301516149dd60c08601826144e9565b5060e08301516149f060e08601826144e9565b50610100830151614a056101008601826144e9565b50610120830151614a1a610120860182614554565b50610140830151848203610140860152614687828261456e565b6144e381614d97565b6000614a49828561455d565b602082019150614a59828461455d565b5060200192915050565b60408101614a7182856144da565b6109bd6020830184614554565b60608101614a8c82866144da565b614a996020830185614554565b611a1960408301846144e9565b60608101614ab482866144e9565b614a9960208301856144e9565b6101208101614ad0828c6144e9565b614add602083018b6144e9565b614aea604083018a614554565b614af760608301896144e9565b614b0460808301886144e9565b614b1160a0830187614554565b614b1e60c08301866144e9565b614b2b60e08301856144e9565b614b39610100830184614554565b9a9950505050505050505050565b60408101614a7182856144e9565b60608101614b6382866144e9565b614b706020830185614554565b611a196040830184614554565b602080825281016109bd81846144f2565b602081016108bd828461454b565b602081016108bd8284614554565b60408101614a718285614554565b60c08101614bc68289614554565b614bd36020830188614554565b614be06040830187614554565b614bed6060830186614554565b614bfa6080830185614554565b614c0760a0830184614554565b979650505050505050565b60408101614c208285614554565b81810360208301526109ba818461456e565b60808101614c408287614554565b614c4d6020830186614a34565b614c5a6040830185614554565b6146876060830184614554565b602081016108bd82846145a6565b604081016108bd82846145af565b602080825281016109bd81846145d3565b602080825281016109bd8184614690565b602080825281016109bd81846147d1565b602080825281016109bd8184614956565b60c08101614cd58289614554565b614ce26020830188614554565b614cef60408301876144e9565b614cfc60608301866144e9565b614d0960808301856144e9565b81810360a0830152614d1b818461456e565b98975050505050505050565b6040518181016001600160401b0381118282101715614d4557600080fd5b604052919050565b60006001600160401b03821115614d6357600080fd5b506020601f91909101601f19160190565b60200190565b5190565b90815260200190565b60006108bd82613a7b565b151590565b60ff1690565b60006108bd825b60006108bd82614d87565b82818337506000910152565b60005b83811015614dd6578181015183820152602001614dbe565b83811115612a595750506000910152565b601f01601f191690565b614dfa81614d87565b8114614e0557600080fd5b50565b614dfa81614d92565b614dfa8161340656fea365627a7a72305820b2f2758950ec708432eb2c74b9df55cbb7ba5fb5cc3963b8e7a708a9e51cf5ce6c6578706572696d656e74616cf564736f6c634300050a0040",
  "source": "pragma solidity ^0.5.8;\npragma experimental ABIEncoderV2;\n\nimport \"iexec-solidity/contracts/Libs/SafeMath.sol\";\n\nimport \"./libs/IexecODBLibCore.sol\";\nimport \"./libs/IexecODBLibOrders.sol\";\nimport \"./registries/App.sol\";\nimport \"./registries/Dataset.sol\";\nimport \"./registries/Workerpool.sol\";\nimport \"./Escrow.sol\";\nimport \"./Relay.sol\";\nimport \"./SignatureVerifier.sol\";\nimport \"./IexecHubAccessor.sol\";\n\n/**\n * /!\\ TEMPORARY LEGACY /!\\\n */\nimport \"./IexecClerkABILegacy.sol\";\n\ncontract IexecClerk is Escrow, Relay, IexecHubAccessor, SignatureVerifier, IexecClerkABILegacy\n{\n\tusing SafeMath          for uint256;\n\tusing IexecODBLibOrders for bytes32;\n\tusing IexecODBLibOrders for IexecODBLibOrders.EIP712Domain;\n\tusing IexecODBLibOrders for IexecODBLibOrders.AppOrder;\n\tusing IexecODBLibOrders for IexecODBLibOrders.DatasetOrder;\n\tusing IexecODBLibOrders for IexecODBLibOrders.WorkerpoolOrder;\n\tusing IexecODBLibOrders for IexecODBLibOrders.RequestOrder;\n\n\t/***************************************************************************\n\t *                                Constants                                *\n\t ***************************************************************************/\n\tuint256 public constant WORKERPOOL_STAKE_RATIO = 30;\n\tuint256 public constant KITTY_RATIO            = 10;\n\tuint256 public constant KITTY_MIN              = 1000000000; // TODO: 1RLC ?\n\n\t// For authorizations\n\tuint256 public constant GROUPMEMBER_PURPOSE    = 4;\n\n\t/***************************************************************************\n\t *                            EIP712 signature                             *\n\t ***************************************************************************/\n\tbytes32 public /* immutable */ EIP712DOMAIN_SEPARATOR;\n\n\t/***************************************************************************\n\t *                               Clerk data                                *\n\t ***************************************************************************/\n\tmapping(bytes32 => bytes32[]           ) m_requestdeals;\n\tmapping(bytes32 => IexecODBLibCore.Deal) m_deals;\n\tmapping(bytes32 => uint256             ) m_consumed;\n\tmapping(bytes32 => bool                ) m_presigned;\n\n\t/***************************************************************************\n\t *                                 Events                                  *\n\t ***************************************************************************/\n\tevent OrdersMatched        (bytes32 dealid, bytes32 appHash, bytes32 datasetHash, bytes32 workerpoolHash, bytes32 requestHash, uint256 volume);\n\tevent ClosedAppOrder       (bytes32 appHash);\n\tevent ClosedDatasetOrder   (bytes32 datasetHash);\n\tevent ClosedWorkerpoolOrder(bytes32 workerpoolHash);\n\tevent ClosedRequestOrder   (bytes32 requestHash);\n\tevent SchedulerNotice      (address indexed workerpool, bytes32 dealid);\n\n\t/***************************************************************************\n\t *                               Constructor                               *\n\t ***************************************************************************/\n\tconstructor(\n\t\taddress _iexechub,\n\t\tuint256 _chainid)\n\tpublic\n\tIexecHubAccessor(_iexechub)\n\t{\n\t\tEIP712DOMAIN_SEPARATOR = IexecODBLibOrders.EIP712Domain({\n\t\t\tname:              \"iExecODB\"\n\t\t, version:           \"3.0-alpha\"\n\t\t, chainId:           _chainid\n\t\t, verifyingContract: address(this)\n\t\t}).hash();\n\t}\n\n\t/***************************************************************************\n\t *                                Accessor                                 *\n\t ***************************************************************************/\n\tfunction viewRequestDeals(bytes32 _id)\n\texternal view returns (bytes32[] memory requestdeals)\n\t{\n\t\treturn m_requestdeals[_id];\n\t}\n\n\tfunction viewDeal(bytes32 _id)\n\texternal view returns (IexecODBLibCore.Deal memory deal)\n\t{\n\t\treturn m_deals[_id];\n\t}\n\n\tfunction viewConsumed(bytes32 _id)\n\texternal view returns (uint256 consumed)\n\t{\n\t\treturn m_consumed[_id];\n\t}\n\n\tfunction viewPresigned(bytes32 _id)\n\texternal view returns (bool presigned)\n\t{\n\t\treturn m_presigned[_id];\n\t}\n\n\t/***************************************************************************\n\t *                            pre-signing tools                            *\n\t ***************************************************************************/\n\t// should be external\n\tfunction signAppOrder(IexecODBLibOrders.AppOrder memory _apporder)\n\tpublic returns (bool)\n\t{\n\t\trequire(msg.sender == App(_apporder.app).owner());\n\t\tm_presigned[_apporder.hash().toEthTypedStructHash(EIP712DOMAIN_SEPARATOR)] = true;\n\t\treturn true;\n\t}\n\n\t// should be external\n\tfunction signDatasetOrder(IexecODBLibOrders.DatasetOrder memory _datasetorder)\n\tpublic returns (bool)\n\t{\n\t\trequire(msg.sender == Dataset(_datasetorder.dataset).owner());\n\t\tm_presigned[_datasetorder.hash().toEthTypedStructHash(EIP712DOMAIN_SEPARATOR)] = true;\n\t\treturn true;\n\t}\n\n\t// should be external\n\tfunction signWorkerpoolOrder(IexecODBLibOrders.WorkerpoolOrder memory _workerpoolorder)\n\tpublic returns (bool)\n\t{\n\t\trequire(msg.sender == Workerpool(_workerpoolorder.workerpool).owner());\n\t\tm_presigned[_workerpoolorder.hash().toEthTypedStructHash(EIP712DOMAIN_SEPARATOR)] = true;\n\t\treturn true;\n\t}\n\n\t// should be external\n\tfunction signRequestOrder(IexecODBLibOrders.RequestOrder memory _requestorder)\n\tpublic returns (bool)\n\t{\n\t\trequire(msg.sender == _requestorder.requester);\n\t\tm_presigned[_requestorder.hash().toEthTypedStructHash(EIP712DOMAIN_SEPARATOR)] = true;\n\t\treturn true;\n\t}\n\n\t/***************************************************************************\n\t *                              Clerk methods                              *\n\t ***************************************************************************/\n\tstruct Identities\n\t{\n\t\tbytes32 appHash;\n\t\taddress appOwner;\n\t\tbytes32 datasetHash;\n\t\taddress datasetOwner;\n\t\tbytes32 workerpoolHash;\n\t\taddress workerpoolOwner;\n\t\tbytes32 requestHash;\n\t\tbool    hasDataset;\n\t}\n\n\t// should be external\n\tfunction matchOrders(\n\t\tIexecODBLibOrders.AppOrder        memory _apporder,\n\t\tIexecODBLibOrders.DatasetOrder    memory _datasetorder,\n\t\tIexecODBLibOrders.WorkerpoolOrder memory _workerpoolorder,\n\t\tIexecODBLibOrders.RequestOrder    memory _requestorder)\n\tpublic returns (bytes32)\n\t{\n\t\t/**\n\t\t * Check orders compatibility\n\t\t */\n\n\t\t// computation environment & allowed enough funds\n\t\trequire(_requestorder.category           == _workerpoolorder.category       );\n\t\trequire(_requestorder.trust              <= _workerpoolorder.trust          );\n\t\trequire(_requestorder.appmaxprice        >= _apporder.appprice              );\n\t\trequire(_requestorder.datasetmaxprice    >= _datasetorder.datasetprice      );\n\t\trequire(_requestorder.workerpoolmaxprice >= _workerpoolorder.workerpoolprice);\n\t\trequire((_apporder.tag | _datasetorder.tag | _requestorder.tag) & ~_workerpoolorder.tag == 0x0);\n\n\t\t// Check matching and restrictions\n\t\trequire(_requestorder.app     == _apporder.app        );\n\t\trequire(_requestorder.dataset == _datasetorder.dataset);\n\t\trequire(_requestorder.workerpool           == address(0) || checkIdentity(_requestorder.workerpool,           _workerpoolorder.workerpool, GROUPMEMBER_PURPOSE)); // requestorder.workerpool is a restriction\n\t\trequire(_apporder.datasetrestrict          == address(0) || checkIdentity(_apporder.datasetrestrict,          _datasetorder.dataset,       GROUPMEMBER_PURPOSE));\n\t\trequire(_apporder.workerpoolrestrict       == address(0) || checkIdentity(_apporder.workerpoolrestrict,       _workerpoolorder.workerpool, GROUPMEMBER_PURPOSE));\n\t\trequire(_apporder.requesterrestrict        == address(0) || checkIdentity(_apporder.requesterrestrict,        _requestorder.requester,     GROUPMEMBER_PURPOSE));\n\t\trequire(_datasetorder.apprestrict          == address(0) || checkIdentity(_datasetorder.apprestrict,          _apporder.app,               GROUPMEMBER_PURPOSE));\n\t\trequire(_datasetorder.workerpoolrestrict   == address(0) || checkIdentity(_datasetorder.workerpoolrestrict,   _workerpoolorder.workerpool, GROUPMEMBER_PURPOSE));\n\t\trequire(_datasetorder.requesterrestrict    == address(0) || checkIdentity(_datasetorder.requesterrestrict,    _requestorder.requester,     GROUPMEMBER_PURPOSE));\n\t\trequire(_workerpoolorder.apprestrict       == address(0) || checkIdentity(_workerpoolorder.apprestrict,       _apporder.app,               GROUPMEMBER_PURPOSE));\n\t\trequire(_workerpoolorder.datasetrestrict   == address(0) || checkIdentity(_workerpoolorder.datasetrestrict,   _datasetorder.dataset,       GROUPMEMBER_PURPOSE));\n\t\trequire(_workerpoolorder.requesterrestrict == address(0) || checkIdentity(_workerpoolorder.requesterrestrict, _requestorder.requester,     GROUPMEMBER_PURPOSE));\n\n\t\trequire(iexechub.checkResources(_apporder.app, _datasetorder.dataset, _workerpoolorder.workerpool));\n\n\t\t/**\n\t\t * Check orders authenticity\n\t\t */\n\t\tIdentities memory ids;\n\t\tids.hasDataset = _datasetorder.dataset != address(0);\n\n\t\t// app\n\t\tids.appHash  = _apporder.hash().toEthTypedStructHash(EIP712DOMAIN_SEPARATOR);\n\t\tids.appOwner = App(_apporder.app).owner();\n\t\trequire(m_presigned[ids.appHash] || verifySignature(ids.appOwner, ids.appHash, _apporder.sign));\n\n\t\t// dataset\n\t\tif (ids.hasDataset) // only check if dataset is enabled\n\t\t{\n\t\t\tids.datasetHash  = _datasetorder.hash().toEthTypedStructHash(EIP712DOMAIN_SEPARATOR);\n\t\t\tids.datasetOwner = Dataset(_datasetorder.dataset).owner();\n\t\t\trequire(m_presigned[ids.datasetHash] || verifySignature(ids.datasetOwner, ids.datasetHash, _datasetorder.sign));\n\t\t}\n\n\t\t// workerpool\n\t\tids.workerpoolHash  = _workerpoolorder.hash().toEthTypedStructHash(EIP712DOMAIN_SEPARATOR);\n\t\tids.workerpoolOwner = Workerpool(_workerpoolorder.workerpool).owner();\n\t\trequire(m_presigned[ids.workerpoolHash] || verifySignature(ids.workerpoolOwner, ids.workerpoolHash, _workerpoolorder.sign));\n\n\t\t// request\n\t\tids.requestHash = _requestorder.hash().toEthTypedStructHash(EIP712DOMAIN_SEPARATOR);\n\t\trequire(m_presigned[ids.requestHash] || verifySignature(_requestorder.requester, ids.requestHash, _requestorder.sign));\n\n\t\t/**\n\t\t * Check availability\n\t\t */\n\t\tuint256 volume;\n\t\tvolume =                             _apporder.volume.sub       (m_consumed[ids.appHash       ]);\n\t\tvolume = ids.hasDataset ? volume.min(_datasetorder.volume.sub   (m_consumed[ids.datasetHash   ])) : volume;\n\t\tvolume =                  volume.min(_workerpoolorder.volume.sub(m_consumed[ids.workerpoolHash]));\n\t\tvolume =                  volume.min(_requestorder.volume.sub   (m_consumed[ids.requestHash   ]));\n\t\trequire(volume > 0);\n\n\t\t/**\n\t\t * Record\n\t\t */\n\t\tbytes32 dealid = keccak256(abi.encodePacked(\n\t\t\tids.requestHash,            // requestHash\n\t\t\tm_consumed[ids.requestHash] // idx of first subtask\n\t\t));\n\n\t\tIexecODBLibCore.Deal storage deal = m_deals[dealid];\n\t\tdeal.app.pointer          = _apporder.app;\n\t\tdeal.app.owner            = ids.appOwner;\n\t\tdeal.app.price            = _apporder.appprice;\n\t\tdeal.dataset.owner        = ids.datasetOwner;\n\t\tdeal.dataset.pointer      = _datasetorder.dataset;\n\t\tdeal.dataset.price        = ids.hasDataset ? _datasetorder.datasetprice : 0;\n\t\tdeal.workerpool.pointer   = _workerpoolorder.workerpool;\n\t\tdeal.workerpool.owner     = ids.workerpoolOwner;\n\t\tdeal.workerpool.price     = _workerpoolorder.workerpoolprice;\n\t\tdeal.trust                = _requestorder.trust.max(1);\n\t\tdeal.category             = _requestorder.category;\n\t\tdeal.tag                  = _apporder.tag | _datasetorder.tag | _requestorder.tag;\n\t\tdeal.requester            = _requestorder.requester;\n\t\tdeal.beneficiary          = _requestorder.beneficiary;\n\t\tdeal.callback             = _requestorder.callback;\n\t\tdeal.params               = _requestorder.params;\n\t\tdeal.startTime            = now;\n\t\tdeal.botFirst             = m_consumed[ids.requestHash];\n\t\tdeal.botSize              = volume;\n\t\tdeal.workerStake          = _workerpoolorder.workerpoolprice.percentage(Workerpool(_workerpoolorder.workerpool).m_workerStakeRatioPolicy());\n\t\tdeal.schedulerRewardRatio = Workerpool(_workerpoolorder.workerpool).m_schedulerRewardRatioPolicy();\n\n\t\tm_requestdeals[ids.requestHash].push(dealid);\n\n\t\t/**\n\t\t * Update consumed\n\t\t */\n\t\tm_consumed[ids.appHash       ] = m_consumed[ids.appHash       ].add(                 volume    );\n\t\tm_consumed[ids.datasetHash   ] = m_consumed[ids.datasetHash   ].add(ids.hasDataset ? volume : 0);\n\t\tm_consumed[ids.workerpoolHash] = m_consumed[ids.workerpoolHash].add(                 volume    );\n\t\tm_consumed[ids.requestHash   ] = m_consumed[ids.requestHash   ].add(                 volume    );\n\n\t\t/**\n\t\t * Lock\n\t\t */\n\t\tlock(\n\t\t\tdeal.requester,\n\t\t\tdeal.app.price\n\t\t\t.add(deal.dataset.price)\n\t\t\t.add(deal.workerpool.price)\n\t\t\t.mul(volume)\n\t\t);\n\t\tlock(\n\t\t\tdeal.workerpool.owner,\n\t\t\tdeal.workerpool.price\n\t\t\t.percentage(WORKERPOOL_STAKE_RATIO) // ORDER IS IMPORTANT HERE!\n\t\t\t.mul(volume)                        // ORDER IS IMPORTANT HERE!\n\t\t);\n\n\t\t/**\n\t\t * Advertize deal\n\t\t */\n\t\temit SchedulerNotice(deal.workerpool.pointer, dealid);\n\n\t\t/**\n\t\t * Advertize consumption\n\t\t */\n\t\temit OrdersMatched(\n\t\t\tdealid,\n\t\t\tids.appHash,\n\t\t\tids.datasetHash,\n\t\t\tids.workerpoolHash,\n\t\t\tids.requestHash,\n\t\t\tvolume\n\t\t);\n\n\t\treturn dealid;\n\t}\n\n\t// should be external\n\tfunction cancelAppOrder(IexecODBLibOrders.AppOrder memory _apporder)\n\tpublic returns (bool)\n\t{\n\t\tbytes32 dapporderHash = _apporder.hash().toEthTypedStructHash(EIP712DOMAIN_SEPARATOR);\n\t\trequire(msg.sender == App(_apporder.app).owner());\n\t\tm_consumed[dapporderHash] = _apporder.volume;\n\t\temit ClosedAppOrder(dapporderHash);\n\t\treturn true;\n\t}\n\n\t// should be external\n\tfunction cancelDatasetOrder(IexecODBLibOrders.DatasetOrder memory _datasetorder)\n\tpublic returns (bool)\n\t{\n\t\tbytes32 dataorderHash = _datasetorder.hash().toEthTypedStructHash(EIP712DOMAIN_SEPARATOR);\n\t\trequire(msg.sender == Dataset(_datasetorder.dataset).owner());\n\t\tm_consumed[dataorderHash] = _datasetorder.volume;\n\t\temit ClosedDatasetOrder(dataorderHash);\n\t\treturn true;\n\t}\n\n\t// should be external\n\tfunction cancelWorkerpoolOrder(IexecODBLibOrders.WorkerpoolOrder memory _workerpoolorder)\n\tpublic returns (bool)\n\t{\n\t\tbytes32 poolorderHash = _workerpoolorder.hash().toEthTypedStructHash(EIP712DOMAIN_SEPARATOR);\n\t\trequire(msg.sender == Workerpool(_workerpoolorder.workerpool).owner());\n\t\tm_consumed[poolorderHash] = _workerpoolorder.volume;\n\t\temit ClosedWorkerpoolOrder(poolorderHash);\n\t\treturn true;\n\t}\n\n\t// should be external\n\tfunction cancelRequestOrder(IexecODBLibOrders.RequestOrder memory _requestorder)\n\tpublic returns (bool)\n\t{\n\t\tbytes32 requestorderHash = _requestorder.hash().toEthTypedStructHash(EIP712DOMAIN_SEPARATOR);\n\t\trequire(msg.sender == _requestorder.requester);\n\t\tm_consumed[requestorderHash] = _requestorder.volume;\n\t\temit ClosedRequestOrder(requestorderHash);\n\t\treturn true;\n\t}\n\n\t/***************************************************************************\n\t *                    Escrow overhead for contribution                     *\n\t ***************************************************************************/\n\tfunction lockContribution(bytes32 _dealid, address _worker)\n\texternal onlyIexecHub\n\t{\n\t\tlock(_worker, m_deals[_dealid].workerStake);\n\t}\n\n\tfunction unlockContribution(bytes32 _dealid, address _worker)\n\texternal onlyIexecHub\n\t{\n\t\tunlock(_worker, m_deals[_dealid].workerStake);\n\t}\n\n\tfunction unlockAndRewardForContribution(bytes32 _dealid, address _worker, uint256 _amount, bytes32 _taskid)\n\texternal onlyIexecHub\n\t{\n\t\tunlock(_worker, m_deals[_dealid].workerStake);\n\t\treward(_worker, _amount, _taskid);\n\t}\n\n\tfunction seizeContribution(bytes32 _dealid, address _worker, bytes32 _taskid)\n\texternal onlyIexecHub\n\t{\n\t\tseize(_worker, m_deals[_dealid].workerStake, _taskid);\n\t}\n\n\tfunction rewardForScheduling(bytes32 _dealid, uint256 _amount, bytes32 _taskid)\n\texternal onlyIexecHub\n\t{\n\t\treward(m_deals[_dealid].workerpool.owner, _amount, _taskid);\n\t}\n\n\tfunction successWork(bytes32 _dealid, bytes32 _taskid)\n\texternal onlyIexecHub\n\t{\n\t\tIexecODBLibCore.Deal storage deal = m_deals[_dealid];\n\n\t\tuint256 requesterstake = deal.app.price\n\t\t                         .add(deal.dataset.price)\n\t\t                         .add(deal.workerpool.price);\n\t\tuint256 poolstake = deal.workerpool.price\n\t\t                    .percentage(WORKERPOOL_STAKE_RATIO);\n\n\t\t// seize requester funds\n\t\tseize(deal.requester, requesterstake, _taskid);\n\t\t// dapp reward\n\t\tif (deal.app.price > 0)\n\t\t{\n\t\t\treward(deal.app.owner, deal.app.price, _taskid);\n\t\t}\n\t\t// data reward\n\t\tif (deal.dataset.price > 0 && deal.dataset.pointer != address(0))\n\t\t{\n\t\t\treward(deal.dataset.owner, deal.dataset.price, _taskid);\n\t\t}\n\t\t// unlock pool stake\n\t\tunlock(deal.workerpool.owner, poolstake);\n\t\t// pool reward performed by consensus manager\n\n\t\t/**\n\t\t * Retrieve part of the kitty\n\t\t * TODO: remove / keep ?\n\t\t */\n\t\tuint256 kitty = m_accounts[address(0)].locked;\n\t\tif (kitty > 0)\n\t\t{\n\t\t\tkitty = kitty\n\t\t\t        .percentage(KITTY_RATIO) // fraction\n\t\t\t        .max(KITTY_MIN)          // at least this\n\t\t\t        .min(kitty);             // but not more than available\n\t\t\tseize (address(0),            kitty, _taskid);\n\t\t\treward(deal.workerpool.owner, kitty, _taskid);\n\t\t}\n\t}\n\n\tfunction failedWork(bytes32 _dealid, bytes32 _taskid)\n\texternal onlyIexecHub\n\t{\n\t\tIexecODBLibCore.Deal storage deal = m_deals[_dealid];\n\n\t\tuint256 requesterstake = deal.app.price\n\t\t                         .add(deal.dataset.price)\n\t\t                         .add(deal.workerpool.price);\n\t\tuint256 poolstake = deal.workerpool.price\n\t\t                    .percentage(WORKERPOOL_STAKE_RATIO);\n\n\t\tunlock(deal.requester,        requesterstake    );\n\t\tseize (deal.workerpool.owner, poolstake, _taskid);\n\t\treward(address(0),            poolstake, _taskid); //  Kitty / Burn\n\t\tlock  (address(0),            poolstake         ); //  Kitty / Burn\n\t}\n\n\n\n\n\n\n\n\n\n\n\n\n\n\n\n\n\n\n\t/**\n\t * /!\\ TEMPORARY LEGACY /!\\\n\t */\n\n\tfunction viewDealABILegacy_pt1(bytes32 _id)\n\texternal view returns\n\t( address\n\t, address\n\t, uint256\n\t, address\n\t, address\n\t, uint256\n\t, address\n\t, address\n\t, uint256\n\t)\n\t{\n\t\tIexecODBLibCore.Deal memory deal = m_deals[_id];\n\t\treturn (\n\t\t\tdeal.app.pointer,\n\t\t\tdeal.app.owner,\n\t\t\tdeal.app.price,\n\t\t\tdeal.dataset.pointer,\n\t\t\tdeal.dataset.owner,\n\t\t\tdeal.dataset.price,\n\t\t\tdeal.workerpool.pointer,\n\t\t\tdeal.workerpool.owner,\n\t\t\tdeal.workerpool.price\n\t\t);\n\t}\n\n\tfunction viewDealABILegacy_pt2(bytes32 _id)\n\texternal view returns\n\t( uint256\n\t, bytes32\n\t, address\n\t, address\n\t, address\n\t, string memory\n\t)\n\t{\n\t\tIexecODBLibCore.Deal memory deal = m_deals[_id];\n\t\treturn (\n\t\t\tdeal.trust,\n\t\t\tdeal.tag,\n\t\t\tdeal.requester,\n\t\t\tdeal.beneficiary,\n\t\t\tdeal.callback,\n\t\t\tdeal.params\n\t\t);\n\t}\n\n\tfunction viewConfigABILegacy(bytes32 _id)\n\texternal view returns\n\t( uint256\n\t, uint256\n\t, uint256\n\t, uint256\n\t, uint256\n\t, uint256\n\t)\n\t{\n\t\tIexecODBLibCore.Deal memory deal = m_deals[_id];\n\t\treturn (\n\t\t\tdeal.category,\n\t\t\tdeal.startTime,\n\t\t\tdeal.botFirst,\n\t\t\tdeal.botSize,\n\t\t\tdeal.workerStake,\n\t\t\tdeal.schedulerRewardRatio\n\t\t);\n\t}\n\n\tfunction viewAccountABILegacy(address _user)\n\texternal view returns (uint256, uint256)\n\t{\n\t\tIexecODBLibCore.Account memory account = m_accounts[_user];\n\t\treturn ( account.stake, account.locked );\n\t}\n}\n",
  "sourcePath": "/home/amxx/Work/iExec/code/PoCo-dev/contracts/IexecClerk.sol",
  "compiler": {
    "name": "solc",
    "version": "0.5.10+commit.5a6ea5b1.Emscripten.clang"
  },
  "schemaVersion": "3.0.13",
  "updatedAt": "2019-09-02T10:02:47.866Z",
  "devdoc": {
    "methods": {}
  },
  "userdoc": {
    "methods": {
      "constructor": "*************************************************************************                              Constructor                               ***************************************************************************",
      "lockContribution(bytes32,address)": {
        "notice": "*************************************************************************                   Escrow overhead for contribution                     ***************************************************************************"
      },
      "signAppOrder((address,uint256,uint256,bytes32,address,address,address,bytes32,bytes))": {
        "notice": "*************************************************************************                           pre-signing tools                            ***************************************************************************"
      },
      "viewAccount(address)": {
        "notice": "Accessor"
      },
      "viewDealABILegacy_pt1(bytes32)": {
        "notice": "/!\\ TEMPORARY LEGACY /!\\"
      },
      "viewRequestDeals(bytes32)": {
        "notice": "*************************************************************************                               Accessor                                 ***************************************************************************"
      }
    }
  }
}