{
  "contractName": "IexecCategoryManagerDelegate",
  "abi": [
    {
      "anonymous": false,
      "inputs": [
        {
          "indexed": false,
          "internalType": "uint256",
          "name": "catid",
          "type": "uint256"
        },
        {
          "indexed": false,
          "internalType": "string",
          "name": "name",
          "type": "string"
        },
        {
          "indexed": false,
          "internalType": "string",
          "name": "description",
          "type": "string"
        },
        {
          "indexed": false,
          "internalType": "uint256",
          "name": "workClockTimeRef",
          "type": "uint256"
        }
      ],
      "name": "CreateCategory",
      "type": "event"
    },
    {
      "anonymous": false,
      "inputs": [
        {
          "indexed": true,
          "internalType": "address",
          "name": "previousOwner",
          "type": "address"
        },
        {
          "indexed": true,
          "internalType": "address",
          "name": "newOwner",
          "type": "address"
        }
      ],
      "name": "OwnershipTransferred",
      "type": "event"
    },
    {
      "inputs": [],
      "name": "isOwner",
      "outputs": [
        {
          "internalType": "bool",
          "name": "",
          "type": "bool"
        }
      ],
      "stateMutability": "view",
      "type": "function"
    },
    {
      "inputs": [],
      "name": "owner",
      "outputs": [
        {
          "internalType": "address",
          "name": "",
          "type": "address"
        }
      ],
      "stateMutability": "view",
      "type": "function"
    },
    {
      "inputs": [],
      "name": "renounceOwnership",
      "outputs": [],
      "stateMutability": "nonpayable",
      "type": "function"
    },
    {
      "inputs": [
        {
          "internalType": "address",
          "name": "newOwner",
          "type": "address"
        }
      ],
      "name": "transferOwnership",
      "outputs": [],
      "stateMutability": "nonpayable",
      "type": "function"
    },
    {
      "inputs": [
        {
          "internalType": "string",
          "name": "name",
          "type": "string"
        },
        {
          "internalType": "string",
          "name": "description",
          "type": "string"
        },
        {
          "internalType": "uint256",
          "name": "workClockTimeRef",
          "type": "uint256"
        }
      ],
      "name": "createCategory",
      "outputs": [
        {
          "internalType": "uint256",
          "name": "",
          "type": "uint256"
        }
      ],
      "stateMutability": "nonpayable",
      "type": "function"
    }
  ],
  "bytecode": "0x608060405260006100176001600160e01b0361006516565b600080546001600160a01b0319166001600160a01b038316908117825560405192935091600080516020610782833981519152908290a3506100606001600160e01b0361006916565b610139565b3390565b61007a6001600160e01b036100d716565b61009f5760405162461bcd60e51b815260040161009690610104565b60405180910390fd5b600080546040516001600160a01b0390911690600080516020610782833981519152908390a3600080546001600160a01b0319169055565b600080546001600160a01b03166100f56001600160e01b0361006516565b6001600160a01b031614905090565b6020808252818101527f4f776e61626c653a2063616c6c6572206973206e6f7420746865206f776e6572604082015260600190565b61063a806101486000396000f3fe608060405234801561001057600080fd5b50600436106100575760003560e01c8063298503d91461005c578063715018a6146100855780638da5cb5b1461008f5780638f32d59b146100a4578063f2fde38b146100b9575b600080fd5b61006f61006a366004610485565b6100cc565b60405161007c91906105ba565b60405180910390f35b61008d610221565b005b61009761028f565b60405161007c9190610520565b6100ac61029f565b60405161007c9190610534565b61008d6100c7366004610457565b6102c3565b60006100d661029f565b6100fb5760405162461bcd60e51b81526004016100f290610585565b60405180910390fd5b6040805160806020601f8901819004028201810190925260608101878152601a928291908a908a9081908501838280828437600092019190915250505090825250604080516020601f890181900481028201810190925287815291810191908890889081908401838280828437600092018290525093855250505060209182018690528354600181018555938152819020825180519394600302909101926101a69284920190610378565b5060208281015180516101bf9260018501920190610378565b50604091820151600290910155601a549051600019909101907f62bf08360c9d561749c54eaf4f8bf8cb6c8b6f4f40607bcec39a8172e714d25c9061020f9083908a908a908a908a908a906105c3565b60405180910390a19695505050505050565b61022961029f565b6102455760405162461bcd60e51b81526004016100f290610585565b600080546040516001600160a01b03909116907f8be0079c531659141344cd1fd0a4f28419497f9722a3daafe3b4186f6b6457e0908390a3600080546001600160a01b0319169055565b6000546001600160a01b03165b90565b600080546001600160a01b03166102b46102f3565b6001600160a01b031614905090565b6102cb61029f565b6102e75760405162461bcd60e51b81526004016100f290610585565b6102f0816102f7565b50565b3390565b6001600160a01b03811661031d5760405162461bcd60e51b81526004016100f29061053f565b600080546040516001600160a01b03808516939216917f8be0079c531659141344cd1fd0a4f28419497f9722a3daafe3b4186f6b6457e091a3600080546001600160a01b0319166001600160a01b0392909216919091179055565b828054600181600116156101000203166002900490600052602060002090601f016020900481019282601f106103b957805160ff19168380011785556103e6565b828001600101855582156103e6579182015b828111156103e65782518255916020019190600101906103cb565b506103f29291506103f6565b5090565b61029c91905b808211156103f257600081556001016103fc565b60008083601f840112610421578182fd5b50813567ffffffffffffffff811115610438578182fd5b60208301915083602082850101111561045057600080fd5b9250929050565b600060208284031215610468578081fd5b81356001600160a01b038116811461047e578182fd5b9392505050565b60008060008060006060868803121561049c578081fd5b853567ffffffffffffffff808211156104b3578283fd5b6104bf89838a01610410565b909750955060208801359150808211156104d7578283fd5b506104e488828901610410565b96999598509660400135949350505050565b60008284528282602086013780602084860101526020601f19601f85011685010190509392505050565b6001600160a01b0391909116815260200190565b901515815260200190565b60208082526026908201527f4f776e61626c653a206e6577206f776e657220697320746865207a65726f206160408201526564647265737360d01b606082015260800190565b6020808252818101527f4f776e61626c653a2063616c6c6572206973206e6f7420746865206f776e6572604082015260600190565b90815260200190565b6000878252608060208301526105dd6080830187896104f6565b82810360408401526105f08186886104f6565b91505082606083015297965050505050505056fea26469706673582212204631ae9a4ecb1ac76ffb23ab05edc1c9b211560b646abe4907d5288c35223c8064736f6c634300060300338be0079c531659141344cd1fd0a4f28419497f9722a3daafe3b4186f6b6457e0",
  "source": "pragma solidity ^0.6.0;\npragma experimental ABIEncoderV2;\n\nimport \"../DelegateBase.sol\";\nimport \"../interfaces/IexecCategoryManager.sol\";\n\n\ncontract IexecCategoryManagerDelegate is IexecCategoryManager, DelegateBase\n{\n\t/**\n\t * Methods\n\t */\n\tfunction createCategory(\n\t\tstring  calldata name,\n\t\tstring  calldata description,\n\t\tuint256          workClockTimeRef)\n\texternal override onlyOwner returns (uint256)\n\t{\n\t\tm_categories.push(IexecLibCore_v5.Category(\n\t\t\tname,\n\t\t\tdescription,\n\t\t\tworkClockTimeRef\n\t\t));\n\n\t\tuint256 catid = m_categories.length - 1;\n\n\t\temit CreateCategory(\n\t\t\tcatid,\n\t\t\tname,\n\t\t\tdescription,\n\t\t\tworkClockTimeRef\n\t\t);\n\t\treturn catid;\n\t}\n}\n",
  "sourcePath": "/home/amxx/Work/iExec/code/PoCo-dev/contracts/modules/delegates/IexecCategoryManagerDelegate.sol",
  "compiler": {
    "name": "solc",
    "version": "0.6.3+commit.8dda9521.Emscripten.clang"
  },
  "schemaVersion": "3.0.23",
  "updatedAt": "2020-03-09T19:23:38.238Z",
  "networkType": "ethereum",
  "devdoc": {
    "methods": {
      "isOwner()": {
        "details": "Returns true if the caller is the current owner."
      },
      "owner()": {
        "details": "Returns the address of the current owner."
      },
      "renounceOwnership()": {
        "details": "Leaves the contract without owner. It will not be possible to call `onlyOwner` functions anymore. Can only be called by the current owner.     * NOTE: Renouncing ownership will leave the contract without an owner, thereby removing any functionality that is only available to the owner."
      },
      "transferOwnership(address)": {
        "details": "Transfers ownership of the contract to a new account (`newOwner`). Can only be called by the current owner."
      }
    }
  },
  "userdoc": {
    "methods": {
      "createCategory(string,string,uint256)": {
        "notice": "Methods"
      }
    }
  }
}