{
  "contractName": "IexecEscrowTokenSwapDelegate",
  "abi": [
    {
      "anonymous": false,
      "inputs": [
        {
          "indexed": true,
          "internalType": "address",
          "name": "owner",
          "type": "address"
        },
        {
          "indexed": true,
          "internalType": "address",
          "name": "spender",
          "type": "address"
        },
        {
          "indexed": false,
          "internalType": "uint256",
          "name": "value",
          "type": "uint256"
        }
      ],
      "name": "Approval",
      "type": "event"
    },
    {
      "anonymous": false,
      "inputs": [
        {
          "indexed": true,
          "internalType": "address",
          "name": "previousOwner",
          "type": "address"
        },
        {
          "indexed": true,
          "internalType": "address",
          "name": "newOwner",
          "type": "address"
        }
      ],
      "name": "OwnershipTransferred",
      "type": "event"
    },
    {
      "anonymous": false,
      "inputs": [
        {
          "indexed": true,
          "internalType": "address",
          "name": "from",
          "type": "address"
        },
        {
          "indexed": true,
          "internalType": "address",
          "name": "to",
          "type": "address"
        },
        {
          "indexed": false,
          "internalType": "uint256",
          "name": "value",
          "type": "uint256"
        }
      ],
      "name": "Transfer",
      "type": "event"
    },
    {
      "stateMutability": "payable",
      "type": "fallback"
    },
    {
      "inputs": [],
      "name": "owner",
      "outputs": [
        {
          "internalType": "address",
          "name": "",
          "type": "address"
        }
      ],
      "stateMutability": "view",
      "type": "function"
    },
    {
      "inputs": [],
      "name": "renounceOwnership",
      "outputs": [],
      "stateMutability": "nonpayable",
      "type": "function"
    },
    {
      "inputs": [
        {
          "internalType": "address",
          "name": "newOwner",
          "type": "address"
        }
      ],
      "name": "transferOwnership",
      "outputs": [],
      "stateMutability": "nonpayable",
      "type": "function"
    },
    {
      "stateMutability": "payable",
      "type": "receive"
    },
    {
      "inputs": [],
      "name": "UniswapV2Router",
      "outputs": [
        {
          "internalType": "contract IUniswapV2Router02",
          "name": "",
          "type": "address"
        }
      ],
      "stateMutability": "view",
      "type": "function"
    },
    {
      "inputs": [
        {
          "internalType": "uint256",
          "name": "eth",
          "type": "uint256"
        }
      ],
      "name": "estimateDepositEthSent",
      "outputs": [
        {
          "internalType": "uint256",
          "name": "token",
          "type": "uint256"
        }
      ],
      "stateMutability": "view",
      "type": "function"
    },
    {
      "inputs": [
        {
          "internalType": "uint256",
          "name": "token",
          "type": "uint256"
        }
      ],
      "name": "estimateDepositTokenWanted",
      "outputs": [
        {
          "internalType": "uint256",
          "name": "eth",
          "type": "uint256"
        }
      ],
      "stateMutability": "view",
      "type": "function"
    },
    {
      "inputs": [
        {
          "internalType": "uint256",
          "name": "token",
          "type": "uint256"
        }
      ],
      "name": "estimateWithdrawTokenSent",
      "outputs": [
        {
          "internalType": "uint256",
          "name": "eth",
          "type": "uint256"
        }
      ],
      "stateMutability": "view",
      "type": "function"
    },
    {
      "inputs": [
        {
          "internalType": "uint256",
          "name": "eth",
          "type": "uint256"
        }
      ],
      "name": "estimateWithdrawEthWanted",
      "outputs": [
        {
          "internalType": "uint256",
          "name": "token",
          "type": "uint256"
        }
      ],
      "stateMutability": "view",
      "type": "function"
    },
    {
      "inputs": [],
      "name": "depositEth",
      "outputs": [],
      "stateMutability": "payable",
      "type": "function"
    },
    {
      "inputs": [
        {
          "internalType": "address",
          "name": "target",
          "type": "address"
        }
      ],
      "name": "depositEthFor",
      "outputs": [],
      "stateMutability": "payable",
      "type": "function"
    },
    {
      "inputs": [
        {
          "internalType": "uint256",
          "name": "minimum",
          "type": "uint256"
        }
      ],
      "name": "safeDepositEth",
      "outputs": [],
      "stateMutability": "payable",
      "type": "function"
    },
    {
      "inputs": [
        {
          "internalType": "uint256",
          "name": "minimum",
          "type": "uint256"
        },
        {
          "internalType": "address",
          "name": "target",
          "type": "address"
        }
      ],
      "name": "safeDepositEthFor",
      "outputs": [],
      "stateMutability": "payable",
      "type": "function"
    },
    {
      "inputs": [
        {
          "internalType": "uint256",
          "name": "amount",
          "type": "uint256"
        }
      ],
      "name": "requestToken",
      "outputs": [],
      "stateMutability": "payable",
      "type": "function"
    },
    {
      "inputs": [
        {
          "internalType": "uint256",
          "name": "amount",
          "type": "uint256"
        },
        {
          "internalType": "address",
          "name": "target",
          "type": "address"
        }
      ],
      "name": "requestTokenFor",
      "outputs": [],
      "stateMutability": "payable",
      "type": "function"
    },
    {
      "inputs": [
        {
          "internalType": "uint256",
          "name": "amount",
          "type": "uint256"
        }
      ],
      "name": "withdrawEth",
      "outputs": [],
      "stateMutability": "nonpayable",
      "type": "function"
    },
    {
      "inputs": [
        {
          "internalType": "uint256",
          "name": "amount",
          "type": "uint256"
        },
        {
          "internalType": "address",
          "name": "target",
          "type": "address"
        }
      ],
      "name": "withdrawEthTo",
      "outputs": [],
      "stateMutability": "nonpayable",
      "type": "function"
    },
    {
      "inputs": [
        {
          "internalType": "uint256",
          "name": "amount",
          "type": "uint256"
        },
        {
          "internalType": "uint256",
          "name": "minimum",
          "type": "uint256"
        }
      ],
      "name": "safeWithdrawEth",
      "outputs": [],
      "stateMutability": "nonpayable",
      "type": "function"
    },
    {
      "inputs": [
        {
          "internalType": "uint256",
          "name": "amount",
          "type": "uint256"
        },
        {
          "internalType": "uint256",
          "name": "minimum",
          "type": "uint256"
        },
        {
          "internalType": "address",
          "name": "target",
          "type": "address"
        }
      ],
      "name": "safeWithdrawEthTo",
      "outputs": [],
      "stateMutability": "nonpayable",
      "type": "function"
    },
    {
      "inputs": [
        {
          "components": [
            {
              "internalType": "address",
              "name": "app",
              "type": "address"
            },
            {
              "internalType": "uint256",
              "name": "appprice",
              "type": "uint256"
            },
            {
              "internalType": "uint256",
              "name": "volume",
              "type": "uint256"
            },
            {
              "internalType": "bytes32",
              "name": "tag",
              "type": "bytes32"
            },
            {
              "internalType": "address",
              "name": "datasetrestrict",
              "type": "address"
            },
            {
              "internalType": "address",
              "name": "workerpoolrestrict",
              "type": "address"
            },
            {
              "internalType": "address",
              "name": "requesterrestrict",
              "type": "address"
            },
            {
              "internalType": "bytes32",
              "name": "salt",
              "type": "bytes32"
            },
            {
              "internalType": "bytes",
              "name": "sign",
              "type": "bytes"
            }
          ],
          "internalType": "struct IexecLibOrders_v5.AppOrder",
          "name": "_apporder",
          "type": "tuple"
        },
        {
          "components": [
            {
              "internalType": "address",
              "name": "dataset",
              "type": "address"
            },
            {
              "internalType": "uint256",
              "name": "datasetprice",
              "type": "uint256"
            },
            {
              "internalType": "uint256",
              "name": "volume",
              "type": "uint256"
            },
            {
              "internalType": "bytes32",
              "name": "tag",
              "type": "bytes32"
            },
            {
              "internalType": "address",
              "name": "apprestrict",
              "type": "address"
            },
            {
              "internalType": "address",
              "name": "workerpoolrestrict",
              "type": "address"
            },
            {
              "internalType": "address",
              "name": "requesterrestrict",
              "type": "address"
            },
            {
              "internalType": "bytes32",
              "name": "salt",
              "type": "bytes32"
            },
            {
              "internalType": "bytes",
              "name": "sign",
              "type": "bytes"
            }
          ],
          "internalType": "struct IexecLibOrders_v5.DatasetOrder",
          "name": "_datasetorder",
          "type": "tuple"
        },
        {
          "components": [
            {
              "internalType": "address",
              "name": "workerpool",
              "type": "address"
            },
            {
              "internalType": "uint256",
              "name": "workerpoolprice",
              "type": "uint256"
            },
            {
              "internalType": "uint256",
              "name": "volume",
              "type": "uint256"
            },
            {
              "internalType": "bytes32",
              "name": "tag",
              "type": "bytes32"
            },
            {
              "internalType": "uint256",
              "name": "category",
              "type": "uint256"
            },
            {
              "internalType": "uint256",
              "name": "trust",
              "type": "uint256"
            },
            {
              "internalType": "address",
              "name": "apprestrict",
              "type": "address"
            },
            {
              "internalType": "address",
              "name": "datasetrestrict",
              "type": "address"
            },
            {
              "internalType": "address",
              "name": "requesterrestrict",
              "type": "address"
            },
            {
              "internalType": "bytes32",
              "name": "salt",
              "type": "bytes32"
            },
            {
              "internalType": "bytes",
              "name": "sign",
              "type": "bytes"
            }
          ],
          "internalType": "struct IexecLibOrders_v5.WorkerpoolOrder",
          "name": "_workerpoolorder",
          "type": "tuple"
        },
        {
          "components": [
            {
              "internalType": "address",
              "name": "app",
              "type": "address"
            },
            {
              "internalType": "uint256",
              "name": "appmaxprice",
              "type": "uint256"
            },
            {
              "internalType": "address",
              "name": "dataset",
              "type": "address"
            },
            {
              "internalType": "uint256",
              "name": "datasetmaxprice",
              "type": "uint256"
            },
            {
              "internalType": "address",
              "name": "workerpool",
              "type": "address"
            },
            {
              "internalType": "uint256",
              "name": "workerpoolmaxprice",
              "type": "uint256"
            },
            {
              "internalType": "address",
              "name": "requester",
              "type": "address"
            },
            {
              "internalType": "uint256",
              "name": "volume",
              "type": "uint256"
            },
            {
              "internalType": "bytes32",
              "name": "tag",
              "type": "bytes32"
            },
            {
              "internalType": "uint256",
              "name": "category",
              "type": "uint256"
            },
            {
              "internalType": "uint256",
              "name": "trust",
              "type": "uint256"
            },
            {
              "internalType": "address",
              "name": "beneficiary",
              "type": "address"
            },
            {
              "internalType": "address",
              "name": "callback",
              "type": "address"
            },
            {
              "internalType": "string",
              "name": "params",
              "type": "string"
            },
            {
              "internalType": "bytes32",
              "name": "salt",
              "type": "bytes32"
            },
            {
              "internalType": "bytes",
              "name": "sign",
              "type": "bytes"
            }
          ],
          "internalType": "struct IexecLibOrders_v5.RequestOrder",
          "name": "_requestorder",
          "type": "tuple"
        }
      ],
      "name": "matchOrdersWithEth",
      "outputs": [
        {
          "internalType": "bytes32",
          "name": "",
          "type": "bytes32"
        }
      ],
      "stateMutability": "payable",
      "type": "function"
    }
  ],
  "bytecode": "0x60806040523480156200001157600080fd5b506000620000276001600160e01b036200007916565b600080546001600160a01b0319166001600160a01b03831690811782556040519293509160008051602062002000833981519152908290a350620000736001600160e01b036200007d16565b62000137565b3390565b620000906001600160e01b036200007916565b6000546001600160a01b03908116911614620000c95760405162461bcd60e51b8152600401620000c09062000102565b60405180910390fd5b600080546040516001600160a01b039091169060008051602062002000833981519152908390a3600080546001600160a01b0319169055565b6020808252818101527f4f776e61626c653a2063616c6c6572206973206e6f7420746865206f776e6572604082015260600190565b611eb980620001476000396000f3fe6080604052600436106101185760003560e01c8063602881da116100a0578063a885d19a11610064578063a885d19a146102e8578063c311d04914610308578063ed52d5cb14610328578063eee3f07a14610348578063f2fde38b1461035b5761015c565b8063602881da1461026b578063715018a61461028b5780638da5cb5b146102a057806397eb9764146102b5578063a1ac77ed146102d55761015c565b80632b4df9d3116100e75780632b4df9d31461020a578063350d3d301461021d5780633bec2cbc1461023057806342f32b8014610243578063439370b1146102635761015c565b8063055add0d1461017d5780631991f410146101a85780631cdec20c146101d5578063235e7ab1146101f55761015c565b3661015c57600061012761037b565b90506001600160a01b038116737a250d5630b4cf539739df2c5dacb4c659f2488d14610159576101598134600061037f565b50005b60405162461bcd60e51b8152600401610174906119fb565b60405180910390fd5b34801561018957600080fd5b50610192610445565b60405161019f919061194a565b60405180910390f35b3480156101b457600080fd5b506101c86101c3366004611669565b61045d565b60405161019f9190611977565b3480156101e157600080fd5b506101c86101f0366004611669565b61050e565b610208610203366004611681565b6105b0565b005b610208610218366004611669565b6105bf565b61020861022b366004611681565b6105d4565b6101c861023e366004611503565b6105df565b34801561024f57600080fd5b5061020861025e3660046116b0565b6108e8565b6102086108fa565b34801561027757600080fd5b50610208610286366004611681565b61090f565b34801561029757600080fd5b5061020861091b565b3480156102ac57600080fd5b5061019261099a565b3480156102c157600080fd5b506101c86102d0366004611669565b6109a9565b6102086102e3366004611669565b6109ce565b3480156102f457600080fd5b506101c8610303366004611669565b6109e0565b34801561031457600080fd5b50610208610323366004611669565b610a05565b34801561033457600080fd5b506102086103433660046116d1565b610a18565b6102086103563660046113fb565b610a28565b34801561036757600080fd5b506102086103763660046113fb565b610a34565b3390565b6060737a250d5630b4cf539739df2c5dacb4c659f2488d637ff36ab584846103a5610aea565b30426001016040518663ffffffff1660e01b81526004016103c99493929190611db6565b6000604051808303818588803b1580156103e257600080fd5b505af11580156103f6573d6000803e3d6000fd5b50505050506040513d6000823e601f3d908101601f1916820160405261041f9190810190611433565b905061043f848260018151811061043257fe5b6020026020010151610be8565b50505050565b737a250d5630b4cf539739df2c5dacb4c659f2488d90565b6000737a250d5630b4cf539739df2c5dacb4c659f2488d631f00ca7483610482610ca8565b6040518363ffffffff1660e01b815260040161049f929190611d9d565b60006040518083038186803b1580156104b757600080fd5b505afa1580156104cb573d6000803e3d6000fd5b505050506040513d6000823e601f3d908101601f191682016040526104f39190810190611433565b6000815181106104ff57fe5b60200260200101519050919050565b6000737a250d5630b4cf539739df2c5dacb4c659f2488d63d06ca61f83610533610aea565b6040518363ffffffff1660e01b8152600401610550929190611d9d565b60006040518083038186803b15801561056857600080fd5b505afa15801561057c573d6000803e3d6000fd5b505050506040513d6000823e601f3d908101601f191682016040526105a49190810190611433565b6001815181106104ff57fe5b6105bb813484610d98565b5050565b6105d16105ca61037b565b3483610d98565b50565b6105bb81348461037f565b6000806106a66012600061067d8973__IexecLibOrders_v5_____________________637c0d54d390916040518263ffffffff1660e01b81526004016106259190611ace565b60206040518083038186803b15801561063d57600080fd5b505af4158015610651573d6000803e3d6000fd5b505050506040513d601f19601f8201168201806040525081019061067591906114eb565b601054610efb565b805190602001208152602001908152602001600020548760400151610f2890919063ffffffff16565b85519091506001600160a01b03161561070f5761070c6106ff6012600061067d8973__IexecLibOrders_v5_____________________6311b2eee290916040518263ffffffff1660e01b81526004016106259190611ace565b829063ffffffff610f3d16565b90505b61077e6106ff601260006107558873__IexecLibOrders_v5_____________________63fed985fe90916040518263ffffffff1660e01b81526004016106259190611ced565b805190602001208152602001908152602001600020548660400151610f2890919063ffffffff16565b90506107ef6106ff601260006107c68773__IexecLibOrders_v5_____________________638ac03f3390916040518263ffffffff1660e01b81526004016106259190611bd1565b805190602001208152602001908152602001600020548560e00151610f2890919063ffffffff16565b90506108638360c001513461085e84610852896020015161084660006001600160a01b03168d600001516001600160a01b0316141561082f576000610835565b8c602001515b60208f01519063ffffffff610f5516565b9063ffffffff610f5516565b9063ffffffff610f6716565b610d98565b604051630558653560e21b8152309063156194d49061088c908990899089908990600401611ae1565b602060405180830381600087803b1580156108a657600080fd5b505af11580156108ba573d6000803e3d6000fd5b505050506040513d601f19601f820116820180604052508101906108de91906114eb565b9695505050505050565b6105bb6108f361037b565b8383610f8e565b61090d61090561037b565b34600061037f565b565b6105bb81836000610f8e565b61092361037b565b6000546001600160a01b039081169116146109505760405162461bcd60e51b8152600401610174906119c6565b600080546040516001600160a01b03909116907f8be0079c531659141344cd1fd0a4f28419497f9722a3daafe3b4186f6b6457e0908390a3600080546001600160a01b0319169055565b6000546001600160a01b031690565b6000737a250d5630b4cf539739df2c5dacb4c659f2488d631f00ca7483610482610aea565b6105d16109d961037b565b348361037f565b6000737a250d5630b4cf539739df2c5dacb4c659f2488d63d06ca61f83610533610ca8565b6105d1610a1061037b565b826000610f8e565b610a23818484610f8e565b505050565b6105d18134600061037f565b610a3c61037b565b6000546001600160a01b03908116911614610a695760405162461bcd60e51b8152600401610174906119c6565b6001600160a01b038116610a8f5760405162461bcd60e51b815260040161017490611980565b600080546040516001600160a01b03808516939216917f8be0079c531659141344cd1fd0a4f28419497f9722a3daafe3b4186f6b6457e091a3600080546001600160a01b0319166001600160a01b0392909216919091179055565b604080516002808252606080830184529283929190602083019080368337019050509050737a250d5630b4cf539739df2c5dacb4c659f2488d6001600160a01b031663ad5c46486040518163ffffffff1660e01b815260040160206040518083038186803b158015610b5b57600080fd5b505afa158015610b6f573d6000803e3d6000fd5b505050506040513d601f19601f82011682018060405250810190610b939190611417565b81600081518110610ba057fe5b6001600160a01b039283166020918202929092010152600854825191169082906001908110610bcb57fe5b6001600160a01b0390921660209283029190910190910152905090565b6001600160a01b038216610c0e5760405162461bcd60e51b815260040161017490611a97565b600c54610c21908263ffffffff610f5516565b600c556001600160a01b0382166000908152600d6020526040902054610c4d908263ffffffff610f5516565b6001600160a01b0383166000818152600d60205260408082209390935591519091907fddf252ad1be2c89b69c2b068fc378daa952ba7f163c4a11628f55a4df523b3ef90610c9c908590611977565b60405180910390a35050565b604080516002808252606080830184529283929190602083019080368337505060085482519293506001600160a01b031691839150600090610ce657fe5b60200260200101906001600160a01b031690816001600160a01b031681525050737a250d5630b4cf539739df2c5dacb4c659f2488d6001600160a01b031663ad5c46486040518163ffffffff1660e01b815260040160206040518083038186803b158015610d5357600080fd5b505afa158015610d67573d6000803e3d6000fd5b505050506040513d601f19601f82011682018060405250810190610d8b9190611417565b81600181518110610bcb57fe5b6060737a250d5630b4cf539739df2c5dacb4c659f2488d63fb3bdb418484610dbe610aea565b30426001016040518663ffffffff1660e01b8152600401610de29493929190611db6565b6000604051808303818588803b158015610dfb57600080fd5b505af1158015610e0f573d6000803e3d6000fd5b50505050506040513d6000823e601f3d908101601f19168201604052610e389190810190611433565b9050610e4b848260018151811061043257fe5b6000610e5561037b565b6001600160a01b0316610e8583600081518110610e6e57fe5b602002602001015186610f2890919063ffffffff16565b604051610e9190611947565b60006040518083038185875af1925050503d8060008114610ece576040519150601f19603f3d011682016040523d82523d6000602084013e610ed3565b606091505b5050905080610ef45760405162461bcd60e51b815260040161017490611a67565b5050505050565b60608183604051602001610f1092919061192c565b60405160208183030381529060405290505b92915050565b600082821115610f3757600080fd5b50900390565b6000818310610f4c5781610f4e565b825b9392505050565b600082820183811015610f4e57600080fd5b600082610f7657506000610f22565b82820282848281610f8357fe5b0414610f4e57600080fd5b60085460405163095ea7b360e01b81526001600160a01b039091169063095ea7b390610fd490737a250d5630b4cf539739df2c5dacb4c659f2488d90869060040161195e565b602060405180830381600087803b158015610fee57600080fd5b505af1158015611002573d6000803e3d6000fd5b505050506040513d601f19601f8201168201806040525081019061102691906114cb565b506060737a250d5630b4cf539739df2c5dacb4c659f2488d6318cbafe5848461104d610ca8565b88426001016040518663ffffffff1660e01b8152600401611072959493929190611deb565b600060405180830381600087803b15801561108c57600080fd5b505af11580156110a0573d6000803e3d6000fd5b505050506040513d6000823e601f3d908101601f191682016040526110c89190810190611433565b905061043f6110d561037b565b826000815181106110e257fe5b60200260200101516001600160a01b0382166111105760405162461bcd60e51b815260040161017490611a26565b600c54611123908263ffffffff610f2816565b600c556001600160a01b0382166000908152600d602052604090205461114f908263ffffffff610f2816565b6001600160a01b0383166000818152600d60205260408082209390935591517fddf252ad1be2c89b69c2b068fc378daa952ba7f163c4a11628f55a4df523b3ef90610c9c908590611977565b8035610f2281611e6e565b600082601f8301126111b6578081fd5b813567ffffffffffffffff8111156111cc578182fd5b6111df601f8201601f1916602001611e27565b91508082528360208285010111156111f657600080fd5b8060208401602084013760009082016020015292915050565b6000610120808385031215611222578182fd5b61122b81611e27565b915050611238838361119b565b8152602082013560208201526040820135604082015260608201356060820152611265836080840161119b565b60808201526112778360a0840161119b565b60a08201526112898360c0840161119b565b60c082015260e082013560e08201526101008083013567ffffffffffffffff8111156112b457600080fd5b6112c0858286016111a6565b82840152505092915050565b60006102008083850312156112df578182fd5b6112e881611e27565b9150506112f5838361119b565b81526020820135602082015261130e836040840161119b565b60408201526060820135606082015261132a836080840161119b565b608082015260a082013560a08201526113468360c0840161119b565b60c082015260e082810135908201526101008083013590820152610120808301359082015261014080830135908201526101606113858482850161119b565b908201526101806113988484830161119b565b908201526101a08281013567ffffffffffffffff808211156113b957600080fd5b6113c5868387016111a6565b838501526101c0925082850135838501526101e09250828501359150808211156113ee57600080fd5b506112c0858286016111a6565b60006020828403121561140c578081fd5b8135610f4e81611e6e565b600060208284031215611428578081fd5b8151610f4e81611e6e565b60006020808385031215611445578182fd5b825167ffffffffffffffff81111561145b578283fd5b80840185601f82011261146c578384fd5b8051915061148161147c83611e4e565b611e27565b828152838101908285018585028401860189101561149d578687fd5b8693505b848410156114bf5780518352600193909301929185019185016114a1565b50979650505050505050565b6000602082840312156114dc578081fd5b81518015158114610f4e578182fd5b6000602082840312156114fc578081fd5b5051919050565b60008060008060808587031215611518578283fd5b843567ffffffffffffffff8082111561152f578485fd5b61153b8883890161120f565b95506020870135915080821115611550578485fd5b61155c8883890161120f565b94506040870135915080821115611571578384fd5b610160918701808903831315611585578485fd5b61158e83611e27565b6115988a8361119b565b81526020820135602082015260408201356040820152606082013560608201526080820135608082015260a082013560a08201526115d98a60c0840161119b565b60c08201526115eb8a60e0840161119b565b60e082015261010093506116018a85840161119b565b848201526101209350838201358482015261014093508382013583811115611627578687fd5b6116338b8285016111a6565b858301525080955050506060870135915080821115611650578283fd5b5061165d878288016112cc565b91505092959194509250565b60006020828403121561167a578081fd5b5035919050565b60008060408385031215611693578182fd5b8235915060208301356116a581611e6e565b809150509250929050565b600080604083850312156116c2578182fd5b50508035926020909101359150565b6000806000606084860312156116e5578081fd5b833592506020840135915060408401356116fe81611e6e565b809150509250925092565b6001600160a01b03169052565b6000815180845260208085019450808401835b8381101561174e5781516001600160a01b031687529582019590820190600101611729565b509495945050505050565b60008151808452815b8181101561177e57602081850181015186830182015201611762565b8181111561178f5782602083870101525b50601f01601f19169290920160200192915050565b600061012060018060a01b03835116845260208301516020850152604083015160408501526060830151606085015260808301516117e56080860182611709565b5060a08301516117f860a0860182611709565b5060c083015161180b60c0860182611709565b5060e083015160e08501526101008084015182828701526108de83870182611759565b600061020061183e848451611709565b60208301516020850152604083015161185a6040860182611709565b506060830151606085015260808301516118776080860182611709565b5060a083015160a085015260c083015161189460c0860182611709565b5060e08381015190850152610100808401519085015261012080840151908501526101408084015190850152610160808401516118d382870182611709565b5050610180808401516118e882870182611709565b50506101a080840151828287015261190283870182611759565b9150506101c0915081840151828601526101e0915081840151858203838701526108de8282611759565b61190160f01b81526002810192909252602282015260420190565b90565b6001600160a01b0391909116815260200190565b6001600160a01b03929092168252602082015260400190565b90815260200190565b60208082526026908201527f4f776e61626c653a206e6577206f776e657220697320746865207a65726f206160408201526564647265737360d01b606082015260800190565b6020808252818101527f4f776e61626c653a2063616c6c6572206973206e6f7420746865206f776e6572604082015260600190565b60208082526011908201527019985b1b189858dacb591a5cd8589b1959607a1b604082015260600190565b60208082526021908201527f45524332303a206275726e2066726f6d20746865207a65726f206164647265736040820152607360f81b606082015260800190565b6020808252601690820152751b985d1a5d994b5d1c985b9cd9995c8b59985a5b195960521b604082015260600190565b6020808252601f908201527f45524332303a206d696e7420746f20746865207a65726f206164647265737300604082015260600190565b600060208252610f4e60208301846117a4565b600060808252611af460808301876117a4565b8281036020840152611b0681876117a4565b83810360408501526101609150611b1e818751611709565b6020860151602082015260408601516040820152606086015160608201526080860151608082015260a086015160a082015260c0860151611b6260c0830182611709565b5060e0860151611b7560e0830182611709565b5061010080870151611b8982840182611709565b5050610120808701518183015250610140808701518382840152611baf84840182611759565b9150508481036060860152611bc4818761182e565b9998505050505050505050565b600060208252611be5602083018451611709565b602083015160408301526040830151611c016060840182611709565b50606083015160808301526080830151611c1e60a0840182611709565b5060a083015160c083015260c0830151611c3b60e0840182611709565b5060e083015161010083810191909152830151610120808401919091528301516101408084019190915283015161016080840191909152830151610180611c8481850183611709565b84015190506101a0611c9884820183611709565b808501519150506102006101c08181860152611cb8610220860184611759565b908601516101e08681019190915280870151868303601f190184880152935090611ce28185611759565b979650505050505050565b600060208252611d01602083018451611709565b602083015160408301526040830151606083015260608301516080830152608083015160a083015260a083015160c083015260c0830151611d4560e0840182611709565b5060e0830151610100611d5a81850183611709565b8401519050610120611d6e84820183611709565b84015161014084810191909152840151610160808501529050611d95610180840182611759565b949350505050565b600083825260406020830152611d956040830184611716565b600085825260806020830152611dcf6080830186611716565b6001600160a01b03949094166040830152506060015292915050565b600086825285602083015260a06040830152611e0a60a0830186611716565b6001600160a01b0394909416606083015250608001529392505050565b60405181810167ffffffffffffffff81118282101715611e4657600080fd5b604052919050565b600067ffffffffffffffff821115611e64578081fd5b5060209081020190565b6001600160a01b03811681146105d157600080fdfea2646970667358221220a2f42a72007276f4acb2e500ec2bcc610528397e3ef05210a90476b6b29041ea64736f6c634300060a00338be0079c531659141344cd1fd0a4f28419497f9722a3daafe3b4186f6b6457e0",
  "immutableReferences": {},
  "source": "pragma solidity ^0.6.0;\npragma experimental ABIEncoderV2;\n\nimport \"./IexecERC20Common.sol\";\nimport \"./SignatureVerifier.sol\";\nimport \"../DelegateBase.sol\";\nimport \"../interfaces/IexecEscrowTokenSwap.sol\";\nimport \"../interfaces/IexecPoco.sol\";\n\n\ncontract IexecEscrowTokenSwapDelegate is IexecEscrowTokenSwap, DelegateBase, IexecERC20Common, SignatureVerifier\n{\n\tusing SafeMathExtended  for uint256;\n\tusing IexecLibOrders_v5 for IexecLibOrders_v5.AppOrder;\n\tusing IexecLibOrders_v5 for IexecLibOrders_v5.DatasetOrder;\n\tusing IexecLibOrders_v5 for IexecLibOrders_v5.WorkerpoolOrder;\n\tusing IexecLibOrders_v5 for IexecLibOrders_v5.RequestOrder;\n\n\tIUniswapV2Router02 internal constant router = IUniswapV2Router02(0x7a250d5630B4cF539739dF2C5dAcb4c659F2488D);\n\n\t/***************************************************************************\n\t *                                Accessor                                 *\n\t ***************************************************************************/\n\tfunction UniswapV2Router()\n\texternal view override returns (IUniswapV2Router02)\n\t{\n\t\treturn router;\n\t}\n\n\t/***************************************************************************\n\t *                         Uniswap path - Internal                         *\n\t ***************************************************************************/\n\tfunction _eth2token()\n\tinternal view returns (address[] memory)\n\t{\n\t\taddress[] memory path = new address[](2);\n\t\tpath[0] = router.WETH();\n\t\tpath[1] = address(m_baseToken);\n\t\treturn path;\n\t}\n\n\tfunction _token2eth()\n\tinternal view returns (address[] memory)\n\t{\n\t\taddress[] memory path = new address[](2);\n\t\tpath[0] = address(m_baseToken);\n\t\tpath[1] = router.WETH();\n\t\treturn path;\n\t}\n\n\t/***************************************************************************\n\t *                       Prediction methods - Public                       *\n\t ***************************************************************************/\n\tfunction estimateDepositEthSent    (uint256 eth  ) external view override returns (uint256 token) { return router.getAmountsOut(eth,   _eth2token())[1]; }\n\tfunction estimateDepositTokenWanted(uint256 token) external view override returns (uint256 eth  ) { return router.getAmountsIn (token, _eth2token())[0]; }\n\tfunction estimateWithdrawTokenSent (uint256 token) external view override returns (uint256 eth  ) { return router.getAmountsOut(token, _token2eth())[1]; }\n\tfunction estimateWithdrawEthWanted (uint256 eth  ) external view override returns (uint256 token) { return router.getAmountsIn (eth,   _token2eth())[0]; }\n\n\t/***************************************************************************\n\t *                        Swapping methods - Public                        *\n\t ***************************************************************************/\n\treceive()\n\texternal override payable\n\t{\n\t\taddress sender = _msgSender();\n\t\tif (sender != address(router))\n\t\t{\n\t\t\t_deposit(sender, msg.value, 0);\n\t\t}\n\t}\n\n\tfallback()\n\texternal override payable\n\t{\n\t\trevert('fallback-disabled');\n\t}\n\n\tfunction depositEth       (                                                ) external override payable {  _deposit(_msgSender(), msg.value, 0      ); }\n\tfunction depositEthFor    (                                  address target) external override payable {  _deposit(target,       msg.value, 0      ); }\n\tfunction safeDepositEth   (                 uint256 minimum                ) external override payable {  _deposit(_msgSender(), msg.value, minimum); }\n\tfunction safeDepositEthFor(                 uint256 minimum, address target) external override payable {  _deposit(target,       msg.value, minimum); }\n\tfunction requestToken     (uint256 amount                                  ) external override payable {  _request(_msgSender(), msg.value, amount ); }\n\tfunction requestTokenFor  (uint256 amount,                   address target) external override payable {  _request(target,       msg.value, amount ); }\n\tfunction withdrawEth      (uint256 amount                                  ) external override         { _withdraw(_msgSender(), amount,    0      ); }\n\tfunction withdrawEthTo    (uint256 amount,                   address target) external override         { _withdraw(target,       amount,    0      ); }\n\tfunction safeWithdrawEth  (uint256 amount,  uint256 minimum                ) external override         { _withdraw(_msgSender(), amount,    minimum); }\n\tfunction safeWithdrawEthTo(uint256 amount,  uint256 minimum, address target) external override         { _withdraw(target,       amount,    minimum); }\n\n\t/***************************************************************************\n\t *                       Swapping methods - Internal                       *\n\t ***************************************************************************/\n\tfunction _deposit(address target, uint256 value, uint256 minimum)\n\tinternal\n\t{\n\t\tuint256[] memory amounts = router.swapExactETHForTokens{value: value}(minimum, _eth2token(), address(this), now+1);\n\t\t_mint(target, amounts[1]);\n\t}\n\n\tfunction _request(address target, uint256 value, uint256 amount)\n\tinternal\n\t{\n\t\tuint256[] memory amounts = router.swapETHForExactTokens{value: value}(amount, _eth2token(), address(this), now+1);\n\t\t_mint(target, amounts[1]);\n\t\t// Refund remaining ETH\n\t\t(bool success, ) = _msgSender().call{value: value.sub(amounts[0])}('');\n\t\trequire(success, 'native-transfer-failed');\n\t}\n\n\tfunction _withdraw(address target, uint256 amount, uint256 minimum)\n\tinternal\n\t{\n\t\tm_baseToken.approve(address(router), amount);\n\t\tuint256[] memory amounts = router.swapExactTokensForETH(amount, minimum, _token2eth(), target, now+1);\n\t\t_burn(_msgSender(), amounts[0]);\n\t}\n\n\t/***************************************************************************\n\t *                          Extra public methods                           *\n\t ***************************************************************************/\n\tfunction matchOrdersWithEth(\n\t\tIexecLibOrders_v5.AppOrder        memory _apporder,\n\t\tIexecLibOrders_v5.DatasetOrder    memory _datasetorder,\n\t\tIexecLibOrders_v5.WorkerpoolOrder memory _workerpoolorder,\n\t\tIexecLibOrders_v5.RequestOrder    memory _requestorder)\n\tpublic payable override returns (bytes32)\n\t{\n\t\tuint256 volume;\n\t\tvolume =                   _apporder.volume.sub(m_consumed[keccak256(_toEthTypedStruct(       _apporder.hash(), EIP712DOMAIN_SEPARATOR))]);\n\t\tif (_datasetorder.dataset != address(0))\n\t\tvolume = volume.min(   _datasetorder.volume.sub(m_consumed[keccak256(_toEthTypedStruct(   _datasetorder.hash(), EIP712DOMAIN_SEPARATOR))]));\n\t\tvolume = volume.min(_workerpoolorder.volume.sub(m_consumed[keccak256(_toEthTypedStruct(_workerpoolorder.hash(), EIP712DOMAIN_SEPARATOR))]));\n\t\tvolume = volume.min(   _requestorder.volume.sub(m_consumed[keccak256(_toEthTypedStruct(   _requestorder.hash(), EIP712DOMAIN_SEPARATOR))]));\n\n\t\t_request(\n\t\t\t_requestorder.requester,\n\t\t\tmsg.value,\n\t\t\t_apporder.appprice\n\t\t\t.add(_datasetorder.dataset != address(0) ? _datasetorder.datasetprice : 0)\n\t\t\t.add(_workerpoolorder.workerpoolprice)\n\t\t\t.mul(volume)\n\t\t);\n\n\t\treturn IexecPoco(address(this)).matchOrders(_apporder, _datasetorder, _workerpoolorder, _requestorder);\n\t}\n}\n",
  "sourcePath": "/home/amxx/Work/iExec/code/PoCo-dev/contracts/modules/delegates/IexecEscrowTokenSwapDelegate.sol",
  "compiler": {
    "name": "solc",
    "version": "0.6.10+commit.00c0fcaf.Emscripten.clang"
  },
  "schemaVersion": "3.2.0",
  "updatedAt": "2020-06-25T12:38:42.512Z",
  "devdoc": {
    "methods": {
      "owner()": {
        "details": "Returns the address of the current owner."
      },
      "renounceOwnership()": {
        "details": "Leaves the contract without owner. It will not be possible to call `onlyOwner` functions anymore. Can only be called by the current owner. NOTE: Renouncing ownership will leave the contract without an owner, thereby removing any functionality that is only available to the owner."
      },
      "transferOwnership(address)": {
        "details": "Transfers ownership of the contract to a new account (`newOwner`). Can only be called by the current owner."
      }
    }
  },
  "userdoc": {
    "methods": {
      "UniswapV2Router()": {
        "notice": "*************************************************************************                                Accessor                                 ***************************************************************************"
      },
      "estimateDepositEthSent(uint256)": {
        "notice": "*************************************************************************                       Prediction methods - Public                       ***************************************************************************"
      },
      "matchOrdersWithEth((address,uint256,uint256,bytes32,address,address,address,bytes32,bytes),(address,uint256,uint256,bytes32,address,address,address,bytes32,bytes),(address,uint256,uint256,bytes32,uint256,uint256,address,address,address,bytes32,bytes),(address,uint256,address,uint256,address,uint256,address,uint256,bytes32,uint256,uint256,address,address,string,bytes32,bytes))": {
        "notice": "*************************************************************************                          Extra public methods                           ***************************************************************************"
      }
    }
  }
}