{
  "contractName": "IexecMaintenanceDelegate",
  "abi": [
    {
      "anonymous": false,
      "inputs": [
        {
          "indexed": true,
          "internalType": "address",
          "name": "previousOwner",
          "type": "address"
        },
        {
          "indexed": true,
          "internalType": "address",
          "name": "newOwner",
          "type": "address"
        }
      ],
      "name": "OwnershipTransferred",
      "type": "event"
    },
    {
      "inputs": [],
      "name": "isOwner",
      "outputs": [
        {
          "internalType": "bool",
          "name": "",
          "type": "bool"
        }
      ],
      "stateMutability": "view",
      "type": "function",
      "constant": true
    },
    {
      "inputs": [],
      "name": "owner",
      "outputs": [
        {
          "internalType": "address",
          "name": "",
          "type": "address"
        }
      ],
      "stateMutability": "view",
      "type": "function",
      "constant": true
    },
    {
      "inputs": [],
      "name": "renounceOwnership",
      "outputs": [],
      "stateMutability": "nonpayable",
      "type": "function"
    },
    {
      "inputs": [
        {
          "internalType": "address",
          "name": "newOwner",
          "type": "address"
        }
      ],
      "name": "transferOwnership",
      "outputs": [],
      "stateMutability": "nonpayable",
      "type": "function"
    },
    {
      "inputs": [
        {
          "internalType": "address",
          "name": "_token",
          "type": "address"
        },
        {
          "internalType": "string",
          "name": "_name",
          "type": "string"
        },
        {
          "internalType": "string",
          "name": "_symbol",
          "type": "string"
        },
        {
          "internalType": "uint8",
          "name": "_decimal",
          "type": "uint8"
        },
        {
          "internalType": "address",
          "name": "_appregistryAddress",
          "type": "address"
        },
        {
          "internalType": "address",
          "name": "_datasetregistryAddress",
          "type": "address"
        },
        {
          "internalType": "address",
          "name": "_workerpoolregistryAddress",
          "type": "address"
        },
        {
          "internalType": "address",
          "name": "_v3_iexecHubAddress",
          "type": "address"
        }
      ],
      "name": "configure",
      "outputs": [],
      "stateMutability": "nonpayable",
      "type": "function"
    },
    {
      "inputs": [],
      "name": "domain",
      "outputs": [
        {
          "components": [
            {
              "internalType": "string",
              "name": "name",
              "type": "string"
            },
            {
              "internalType": "string",
              "name": "version",
              "type": "string"
            },
            {
              "internalType": "uint256",
              "name": "chainId",
              "type": "uint256"
            },
            {
              "internalType": "address",
              "name": "verifyingContract",
              "type": "address"
            }
          ],
          "internalType": "struct IexecLibOrders_v5.EIP712Domain",
          "name": "",
          "type": "tuple"
        }
      ],
      "stateMutability": "view",
      "type": "function",
      "constant": true
    },
    {
      "inputs": [],
      "name": "updateDomainSeparator",
      "outputs": [],
      "stateMutability": "nonpayable",
      "type": "function"
    },
    {
      "inputs": [
        {
          "internalType": "address",
          "name": "_worker",
          "type": "address"
        }
      ],
      "name": "importScore",
      "outputs": [],
      "stateMutability": "nonpayable",
      "type": "function"
    },
    {
      "inputs": [
        {
          "internalType": "address",
          "name": "_teebroker",
          "type": "address"
        }
      ],
      "name": "setTeeBroker",
      "outputs": [],
      "stateMutability": "nonpayable",
      "type": "function"
    },
    {
      "inputs": [
        {
          "internalType": "uint256",
          "name": "_callbackgas",
          "type": "uint256"
        }
      ],
      "name": "setCallbackGas",
      "outputs": [],
      "stateMutability": "nonpayable",
      "type": "function"
    }
  ],
  "bytecode": "0x608060405260006100176001600160e01b0361006516565b600080546001600160a01b0319166001600160a01b038316908117825560405192935091600080516020610c7f833981519152908290a3506100606001600160e01b0361006916565b610139565b3390565b61007a6001600160e01b036100d716565b61009f5760405162461bcd60e51b815260040161009690610104565b60405180910390fd5b600080546040516001600160a01b0390911690600080516020610c7f833981519152908390a3600080546001600160a01b0319169055565b600080546001600160a01b03166100f56001600160e01b0361006516565b6001600160a01b031614905090565b6020808252818101527f4f776e61626c653a2063616c6c6572206973206e6f7420746865206f776e6572604082015260600190565b610b37806101486000396000f3fe608060405234801561001057600080fd5b506004361061009e5760003560e01c8063a9b20cee11610066578063a9b20cee146100fb578063aefb52b41461010e578063b552181714610121578063c2fb26a614610134578063f2fde38b146101495761009e565b806301d09a3c146100a3578063715018a6146100b857806389ccfe89146100c05780638da5cb5b146100c85780638f32d59b146100e6575b600080fd5b6100b66100b136600461090a565b61015c565b005b6100b661018e565b6100b66101fc565b6100d06102ae565b6040516100dd919061096d565b60405180910390f35b6100ee6102be565b6040516100dd9190610981565b6100b66101093660046107f2565b6102e2565b6100b661011c3660046107f2565b6103cd565b6100b661012f366004610814565b610413565b61013c61058c565b6040516100dd9190610a8b565b6100b66101573660046107f2565b6105a1565b6101646102be565b6101895760405162461bcd60e51b8152600401610180906109fe565b60405180910390fd5b601955565b6101966102be565b6101b25760405162461bcd60e51b8152600401610180906109fe565b600080546040516001600160a01b03909116907f8be0079c531659141344cd1fd0a4f28419497f9722a3daafe3b4186f6b6457e0908390a3600080546001600160a01b0319169055565b60105461021b5760405162461bcd60e51b815260040161018090610a63565b6102236105d1565b6040516374147c4d60e01b815273__IexecLibOrders_v5_____________________916374147c4d916102599190600401610a8b565b60206040518083038186803b15801561027157600080fd5b505af4158015610285573d6000803e3d6000fd5b505050506040513d601f19601f820116820180604052506102a991908101906108f2565b601055565b6000546001600160a01b03165b90565b600080546001600160a01b03166102d361063c565b6001600160a01b031614905090565b6001600160a01b0381166000908152601c602052604090205460ff161561031b5760405162461bcd60e51b815260040161018090610a33565b601b54604051636d9185a960e11b81526001600160a01b039091169063db230b529061034b90849060040161096d565b60206040518083038186803b15801561036357600080fd5b505afa158015610377573d6000803e3d6000fd5b505050506040513d601f19601f8201168201806040525061039b91908101906108f2565b6001600160a01b03909116600090815260176020908152604080832093909355601c905220805460ff19166001179055565b6103d56102be565b6103f15760405162461bcd60e51b8152600401610180906109fe565b601880546001600160a01b0319166001600160a01b0392909216919091179055565b61041b6102be565b6104375760405162461bcd60e51b8152600401610180906109fe565b601054156104575760405162461bcd60e51b8152600401610180906109d2565b61045f6105d1565b6040516374147c4d60e01b815273__IexecLibOrders_v5_____________________916374147c4d916104959190600401610a8b565b60206040518083038186803b1580156104ad57600080fd5b505af41580156104c1573d6000803e3d6000fd5b505050506040513d601f19601f820116820180604052506104e591908101906108f2565b601055600880546001600160a01b0319166001600160a01b038c1617905561050f60098a8a6106c5565b5061051c600a88886106c5565b50600b805460ff191660ff9690961695909517909455600580546001600160a01b03199081166001600160a01b039586161790915560068054821693851693909317909255600780548316918416919091179055601b8054909116919092161790555050620186a0601955505050565b610594610743565b61059c6105d1565b905090565b6105a96102be565b6105c55760405162461bcd60e51b8152600401610180906109fe565b6105ce81610640565b50565b6105d9610743565b6040805160c0810182526008608082019081526734a2bc32b1a7a22160c11b60a08301528152815180830183526009815268332e302d616c70686160b81b60208281019190915282015290810161062e6106c1565b815230602090910152905090565b3390565b6001600160a01b0381166106665760405162461bcd60e51b81526004016101809061098c565b600080546040516001600160a01b03808516939216917f8be0079c531659141344cd1fd0a4f28419497f9722a3daafe3b4186f6b6457e091a3600080546001600160a01b0319166001600160a01b0392909216919091179055565b4690565b828054600181600116156101000203166002900490600052602060002090601f016020900481019282601f106107065782800160ff19823516178555610733565b82800160010185558215610733579182015b82811115610733578235825591602001919060010190610718565b5061073f929150610774565b5090565b604051806080016040528060608152602001606081526020016000815260200160006001600160a01b031681525090565b6102bb91905b8082111561073f576000815560010161077a565b80356001600160a01b03811681146107a557600080fd5b92915050565b60008083601f8401126107bc578182fd5b50813567ffffffffffffffff8111156107d3578182fd5b6020830191508360208285010111156107eb57600080fd5b9250929050565b600060208284031215610803578081fd5b61080d838361078e565b9392505050565b6000806000806000806000806000806101008b8d031215610833578586fd5b8a3561083e81610aec565b995060208b013567ffffffffffffffff8082111561085a578788fd5b6108668e838f016107ab565b909b50995060408d013591508082111561087e578788fd5b5061088b8d828e016107ab565b90985096505060608b013560ff811681146108a4578586fd5b945060808b01356108b481610aec565b93506108c38c60a08d0161078e565b92506108d28c60c08d0161078e565b91506108e18c60e08d0161078e565b90509295989b9194979a5092959850565b600060208284031215610903578081fd5b5051919050565b60006020828403121561091b578081fd5b5035919050565b60008151808452815b818110156109475760208185018101518683018201520161092b565b818111156109585782602083870101525b50601f01601f19169290920160200192915050565b6001600160a01b0391909116815260200190565b901515815260200190565b60208082526026908201527f4f776e61626c653a206e6577206f776e657220697320746865207a65726f206160408201526564647265737360d01b606082015260800190565b602080825260129082015271185b1c9958591e4b58dbdb999a59dd5c995960721b604082015260600190565b6020808252818101527f4f776e61626c653a2063616c6c6572206973206e6f7420746865206f776e6572604082015260600190565b6020808252601690820152751cd8dbdc994b585b1c9958591e4b5a5b5c1bdc9d195960521b604082015260600190565b6020808252600e908201526d1b9bdd0b58dbdb999a59dd5c995960921b604082015260600190565b600060208252825160806020840152610aa760a0840182610922565b6020850151848203601f190160408601529150610ac48183610922565b6040860151606086015260018060a01b03606087015116608086015280935050505092915050565b6001600160a01b03811681146105ce57600080fdfea264697066735822122052b7b55b6c042b28a44ae70c1628aad35b0ed0dbae885ab2556f403b4d6b025764736f6c634300060300338be0079c531659141344cd1fd0a4f28419497f9722a3daafe3b4186f6b6457e0",
  "source": "pragma solidity ^0.6.0;\npragma experimental ABIEncoderV2;\n\nimport \"../DelegateBase.sol\";\nimport \"../interfaces/IexecMaintenance.sol\";\n\n\ncontract IexecMaintenanceDelegate is IexecMaintenance, DelegateBase\n{\n\tusing IexecLibOrders_v5 for IexecLibOrders_v5.EIP712Domain;\n\n\tfunction configure(\n\t\taddress          _token,\n\t\tstring  calldata _name,\n\t\tstring  calldata _symbol,\n\t\tuint8            _decimal,\n\t\taddress          _appregistryAddress,\n\t\taddress          _datasetregistryAddress,\n\t\taddress          _workerpoolregistryAddress,\n\t\taddress          _v3_iexecHubAddress)\n\texternal override onlyOwner()\n\t{\n\t\trequire(EIP712DOMAIN_SEPARATOR == bytes32(0), \"already-configured\");\n\t\tEIP712DOMAIN_SEPARATOR = _domain().hash();\n\n\t\tm_baseToken          = IERC20(_token);\n\t\tm_name               = _name;\n\t\tm_symbol             = _symbol;\n\t\tm_decimals           = _decimal;\n\t\tm_appregistry        = IRegistry(_appregistryAddress);\n\t\tm_datasetregistry    = IRegistry(_datasetregistryAddress);\n\t\tm_workerpoolregistry = IRegistry(_workerpoolregistryAddress);\n\t\tm_v3_iexecHub        = IexecHubInterface(_v3_iexecHubAddress);\n\t\tm_callbackgas        = 100000;\n\t}\n\n\tfunction domain()\n\texternal view override returns (IexecLibOrders_v5.EIP712Domain memory)\n\t{\n\t\treturn _domain();\n\t}\n\n\tfunction updateDomainSeparator()\n\texternal override\n\t{\n\t\trequire(EIP712DOMAIN_SEPARATOR != bytes32(0), \"not-configured\");\n\t\tEIP712DOMAIN_SEPARATOR = _domain().hash();\n\t}\n\n\tfunction importScore(address _worker)\n\texternal override\n\t{\n\t\trequire(!m_v3_scoreImported[_worker], \"score-already-imported\");\n\t\tm_workerScores[_worker] = m_v3_iexecHub.viewScore(_worker);\n\t\tm_v3_scoreImported[_worker] = true;\n\t}\n\n\tfunction setTeeBroker(address _teebroker)\n\texternal override onlyOwner()\n\t{\n\t\tm_teebroker = _teebroker;\n\t}\n\n\tfunction setCallbackGas(uint256 _callbackgas)\n\texternal override onlyOwner()\n\t{\n\t\tm_callbackgas = _callbackgas;\n\t}\n\n\tfunction _chainId()\n\tinternal pure returns (uint256 id)\n\t{\n\t\tassembly { id := chainid() }\n\t}\n\n\tfunction _domain()\n\tinternal view returns (IexecLibOrders_v5.EIP712Domain memory)\n\t{\n\t\treturn IexecLibOrders_v5.EIP712Domain({\n\t\t\tname:              \"iExecODB\"\n\t\t, version:           \"3.0-alpha\"\n\t\t, chainId:           _chainId()\n\t\t, verifyingContract: address(this)\n\t\t});\n\t}\n}\n",
  "sourcePath": "/home/amxx/Work/iExec/code/PoCo-dev/contracts/modules/delegates/IexecMaintenanceDelegate.sol",
  "compiler": {
    "name": "solc",
    "version": "0.6.3+commit.8dda9521.Emscripten.clang"
  },
  "schemaVersion": "3.0.23",
  "updatedAt": "2020-03-09T10:58:45.523Z",
  "networkType": "ethereum",
  "devdoc": {
    "methods": {
      "isOwner()": {
        "details": "Returns true if the caller is the current owner."
      },
      "owner()": {
        "details": "Returns the address of the current owner."
      },
      "renounceOwnership()": {
        "details": "Leaves the contract without owner. It will not be possible to call `onlyOwner` functions anymore. Can only be called by the current owner.     * NOTE: Renouncing ownership will leave the contract without an owner, thereby removing any functionality that is only available to the owner."
      },
      "transferOwnership(address)": {
        "details": "Transfers ownership of the contract to a new account (`newOwner`). Can only be called by the current owner."
      }
    }
  },
  "userdoc": {
    "methods": {}
  }
}