{
  "contractName": "IexecHub",
  "abi": [
    {
      "constant": true,
      "inputs": [],
      "name": "m_contributionHistory",
      "outputs": [
        {
          "name": "success",
          "type": "uint256"
        },
        {
          "name": "failled",
          "type": "uint256"
        }
      ],
      "payable": false,
      "stateMutability": "view",
      "type": "function"
    },
    {
      "constant": true,
      "inputs": [],
      "name": "appHub",
      "outputs": [
        {
          "name": "",
          "type": "address"
        }
      ],
      "payable": false,
      "stateMutability": "view",
      "type": "function"
    },
    {
      "constant": true,
      "inputs": [],
      "name": "STAKE_BONUS_MIN_THRESHOLD",
      "outputs": [
        {
          "name": "",
          "type": "uint256"
        }
      ],
      "payable": false,
      "stateMutability": "view",
      "type": "function"
    },
    {
      "constant": true,
      "inputs": [
        {
          "name": "",
          "type": "address"
        }
      ],
      "name": "m_scores",
      "outputs": [
        {
          "name": "",
          "type": "uint256"
        }
      ],
      "payable": false,
      "stateMutability": "view",
      "type": "function"
    },
    {
      "constant": true,
      "inputs": [],
      "name": "workerPoolHub",
      "outputs": [
        {
          "name": "",
          "type": "address"
        }
      ],
      "payable": false,
      "stateMutability": "view",
      "type": "function"
    },
    {
      "constant": true,
      "inputs": [],
      "name": "SCORE_UNITARY_SLASH",
      "outputs": [
        {
          "name": "",
          "type": "uint256"
        }
      ],
      "payable": false,
      "stateMutability": "view",
      "type": "function"
    },
    {
      "constant": true,
      "inputs": [],
      "name": "STAKE_BONUS_RATIO",
      "outputs": [
        {
          "name": "",
          "type": "uint256"
        }
      ],
      "payable": false,
      "stateMutability": "view",
      "type": "function"
    },
    {
      "constant": true,
      "inputs": [],
      "name": "m_categoriesCount",
      "outputs": [
        {
          "name": "",
          "type": "uint256"
        }
      ],
      "payable": false,
      "stateMutability": "view",
      "type": "function"
    },
    {
      "constant": true,
      "inputs": [],
      "name": "rlc",
      "outputs": [
        {
          "name": "",
          "type": "address"
        }
      ],
      "payable": false,
      "stateMutability": "view",
      "type": "function"
    },
    {
      "constant": true,
      "inputs": [],
      "name": "datasetHub",
      "outputs": [
        {
          "name": "",
          "type": "address"
        }
      ],
      "payable": false,
      "stateMutability": "view",
      "type": "function"
    },
    {
      "constant": true,
      "inputs": [
        {
          "name": "",
          "type": "address"
        }
      ],
      "name": "m_accounts",
      "outputs": [
        {
          "name": "stake",
          "type": "uint256"
        },
        {
          "name": "locked",
          "type": "uint256"
        }
      ],
      "payable": false,
      "stateMutability": "view",
      "type": "function"
    },
    {
      "constant": true,
      "inputs": [],
      "name": "m_owner",
      "outputs": [
        {
          "name": "",
          "type": "address"
        }
      ],
      "payable": false,
      "stateMutability": "view",
      "type": "function"
    },
    {
      "constant": true,
      "inputs": [
        {
          "name": "",
          "type": "uint256"
        }
      ],
      "name": "m_categories",
      "outputs": [
        {
          "name": "name",
          "type": "string"
        },
        {
          "name": "description",
          "type": "string"
        },
        {
          "name": "workClockTimeRef",
          "type": "uint256"
        }
      ],
      "payable": false,
      "stateMutability": "view",
      "type": "function"
    },
    {
      "constant": false,
      "inputs": [
        {
          "name": "_newOwner",
          "type": "address"
        }
      ],
      "name": "transferOwnership",
      "outputs": [],
      "payable": false,
      "stateMutability": "nonpayable",
      "type": "function"
    },
    {
      "constant": true,
      "inputs": [],
      "name": "workOrderFactory",
      "outputs": [
        {
          "name": "",
          "type": "address"
        }
      ],
      "payable": false,
      "stateMutability": "view",
      "type": "function"
    },
    {
      "inputs": [],
      "payable": false,
      "stateMutability": "nonpayable",
      "type": "constructor"
    },
    {
      "anonymous": false,
      "inputs": [
        {
          "indexed": true,
          "name": "appOwner",
          "type": "address"
        },
        {
          "indexed": true,
          "name": "app",
          "type": "address"
        },
        {
          "indexed": false,
          "name": "appName",
          "type": "string"
        },
        {
          "indexed": false,
          "name": "appPrice",
          "type": "uint256"
        },
        {
          "indexed": false,
          "name": "appParams",
          "type": "string"
        }
      ],
      "name": "CreateApp",
      "type": "event"
    },
    {
      "anonymous": false,
      "inputs": [
        {
          "indexed": true,
          "name": "datasetOwner",
          "type": "address"
        },
        {
          "indexed": true,
          "name": "dataset",
          "type": "address"
        },
        {
          "indexed": false,
          "name": "datasetName",
          "type": "string"
        },
        {
          "indexed": false,
          "name": "datasetPrice",
          "type": "uint256"
        },
        {
          "indexed": false,
          "name": "datasetParams",
          "type": "string"
        }
      ],
      "name": "CreateDataset",
      "type": "event"
    },
    {
      "anonymous": false,
      "inputs": [
        {
          "indexed": true,
          "name": "workerPoolOwner",
          "type": "address"
        },
        {
          "indexed": true,
          "name": "workerPool",
          "type": "address"
        },
        {
          "indexed": false,
          "name": "workerPoolDescription",
          "type": "string"
        }
      ],
      "name": "CreateWorkerPool",
      "type": "event"
    },
    {
      "anonymous": false,
      "inputs": [
        {
          "indexed": false,
          "name": "catid",
          "type": "uint256"
        },
        {
          "indexed": false,
          "name": "name",
          "type": "string"
        },
        {
          "indexed": false,
          "name": "description",
          "type": "string"
        },
        {
          "indexed": false,
          "name": "workClockTimeRef",
          "type": "uint256"
        }
      ],
      "name": "CreateCategory",
      "type": "event"
    },
    {
      "anonymous": false,
      "inputs": [
        {
          "indexed": true,
          "name": "workerPool",
          "type": "address"
        },
        {
          "indexed": false,
          "name": "worker",
          "type": "address"
        }
      ],
      "name": "WorkerPoolSubscription",
      "type": "event"
    },
    {
      "anonymous": false,
      "inputs": [
        {
          "indexed": true,
          "name": "workerPool",
          "type": "address"
        },
        {
          "indexed": false,
          "name": "worker",
          "type": "address"
        }
      ],
      "name": "WorkerPoolUnsubscription",
      "type": "event"
    },
    {
      "anonymous": false,
      "inputs": [
        {
          "indexed": true,
          "name": "workerPool",
          "type": "address"
        },
        {
          "indexed": false,
          "name": "worker",
          "type": "address"
        }
      ],
      "name": "WorkerPoolEviction",
      "type": "event"
    },
    {
      "anonymous": false,
      "inputs": [
        {
          "indexed": true,
          "name": "woid",
          "type": "address"
        },
        {
          "indexed": true,
          "name": "workerPool",
          "type": "address"
        }
      ],
      "name": "WorkOrderActivated",
      "type": "event"
    },
    {
      "anonymous": false,
      "inputs": [
        {
          "indexed": true,
          "name": "woid",
          "type": "address"
        },
        {
          "indexed": true,
          "name": "workerPool",
          "type": "address"
        }
      ],
      "name": "WorkOrderClaimed",
      "type": "event"
    },
    {
      "anonymous": false,
      "inputs": [
        {
          "indexed": true,
          "name": "woid",
          "type": "address"
        },
        {
          "indexed": true,
          "name": "workerPool",
          "type": "address"
        }
      ],
      "name": "WorkOrderCompleted",
      "type": "event"
    },
    {
      "anonymous": false,
      "inputs": [
        {
          "indexed": false,
          "name": "woid",
          "type": "address"
        },
        {
          "indexed": true,
          "name": "worker",
          "type": "address"
        }
      ],
      "name": "AccurateContribution",
      "type": "event"
    },
    {
      "anonymous": false,
      "inputs": [
        {
          "indexed": false,
          "name": "woid",
          "type": "address"
        },
        {
          "indexed": true,
          "name": "worker",
          "type": "address"
        }
      ],
      "name": "FaultyContribution",
      "type": "event"
    },
    {
      "anonymous": false,
      "inputs": [
        {
          "indexed": false,
          "name": "owner",
          "type": "address"
        },
        {
          "indexed": false,
          "name": "amount",
          "type": "uint256"
        }
      ],
      "name": "Deposit",
      "type": "event"
    },
    {
      "anonymous": false,
      "inputs": [
        {
          "indexed": false,
          "name": "owner",
          "type": "address"
        },
        {
          "indexed": false,
          "name": "amount",
          "type": "uint256"
        }
      ],
      "name": "Withdraw",
      "type": "event"
    },
    {
      "anonymous": false,
      "inputs": [
        {
          "indexed": false,
          "name": "user",
          "type": "address"
        },
        {
          "indexed": false,
          "name": "amount",
          "type": "uint256"
        }
      ],
      "name": "Reward",
      "type": "event"
    },
    {
      "anonymous": false,
      "inputs": [
        {
          "indexed": false,
          "name": "user",
          "type": "address"
        },
        {
          "indexed": false,
          "name": "amount",
          "type": "uint256"
        }
      ],
      "name": "Seize",
      "type": "event"
    },
    {
      "anonymous": false,
      "inputs": [
        {
          "indexed": true,
          "name": "previousOwner",
          "type": "address"
        },
        {
          "indexed": true,
          "name": "newOwner",
          "type": "address"
        }
      ],
      "name": "OwnershipTransferred",
      "type": "event"
    },
    {
      "constant": false,
      "inputs": [
        {
          "name": "_tokenAddress",
          "type": "address"
        },
        {
          "name": "_marketplaceAddress",
          "type": "address"
        },
        {
          "name": "_appHubAddress",
          "type": "address"
        },
        {
          "name": "_datasetHubAddress",
          "type": "address"
        },
        {
          "name": "_workerPoolHubAddress",
          "type": "address"
        },
        {
          "name": "_workOrderFactoryAddress",
          "type": "address"
        }
      ],
      "name": "attachContracts",
      "outputs": [],
      "payable": false,
      "stateMutability": "nonpayable",
      "type": "function"
    },
    {
      "constant": false,
      "inputs": [
        {
          "name": "_name",
          "type": "string"
        },
        {
          "name": "_description",
          "type": "string"
        },
        {
          "name": "_workClockTimeRef",
          "type": "uint256"
        }
      ],
      "name": "createCategory",
      "outputs": [
        {
          "name": "catid",
          "type": "uint256"
        }
      ],
      "payable": false,
      "stateMutability": "nonpayable",
      "type": "function"
    },
    {
      "constant": false,
      "inputs": [
        {
          "name": "_description",
          "type": "string"
        },
        {
          "name": "_subscriptionLockStakePolicy",
          "type": "uint256"
        },
        {
          "name": "_subscriptionMinimumStakePolicy",
          "type": "uint256"
        },
        {
          "name": "_subscriptionMinimumScorePolicy",
          "type": "uint256"
        }
      ],
      "name": "createWorkerPool",
      "outputs": [
        {
          "name": "createdWorkerPool",
          "type": "address"
        }
      ],
      "payable": false,
      "stateMutability": "nonpayable",
      "type": "function"
    },
    {
      "constant": false,
      "inputs": [
        {
          "name": "_appName",
          "type": "string"
        },
        {
          "name": "_appPrice",
          "type": "uint256"
        },
        {
          "name": "_appParams",
          "type": "string"
        }
      ],
      "name": "createApp",
      "outputs": [
        {
          "name": "createdApp",
          "type": "address"
        }
      ],
      "payable": false,
      "stateMutability": "nonpayable",
      "type": "function"
    },
    {
      "constant": false,
      "inputs": [
        {
          "name": "_datasetName",
          "type": "string"
        },
        {
          "name": "_datasetPrice",
          "type": "uint256"
        },
        {
          "name": "_datasetParams",
          "type": "string"
        }
      ],
      "name": "createDataset",
      "outputs": [
        {
          "name": "createdDataset",
          "type": "address"
        }
      ],
      "payable": false,
      "stateMutability": "nonpayable",
      "type": "function"
    },
    {
      "constant": false,
      "inputs": [
        {
          "name": "_commonOrder",
          "type": "uint256[3]"
        },
        {
          "name": "_poolOrder_volume",
          "type": "uint256"
        },
        {
          "name": "_poolOrder_workerpool",
          "type": "address"
        },
        {
          "name": "_userOrder",
          "type": "address[5]"
        },
        {
          "name": "_userOrder_params",
          "type": "string"
        },
        {
          "name": "_salt",
          "type": "uint256[2]"
        },
        {
          "name": "_v",
          "type": "uint8[2]"
        },
        {
          "name": "_r",
          "type": "bytes32[2]"
        },
        {
          "name": "_s",
          "type": "bytes32[2]"
        }
      ],
      "name": "marketOrders",
      "outputs": [
        {
          "name": "",
          "type": "address"
        }
      ],
      "payable": false,
      "stateMutability": "nonpayable",
      "type": "function"
    },
    {
      "constant": false,
      "inputs": [
        {
          "name": "_woid",
          "type": "address"
        }
      ],
      "name": "claimFailedConsensus",
      "outputs": [
        {
          "name": "",
          "type": "bool"
        }
      ],
      "payable": false,
      "stateMutability": "nonpayable",
      "type": "function"
    },
    {
      "constant": false,
      "inputs": [
        {
          "name": "_woid",
          "type": "address"
        },
        {
          "name": "_stdout",
          "type": "string"
        },
        {
          "name": "_stderr",
          "type": "string"
        },
        {
          "name": "_uri",
          "type": "string"
        }
      ],
      "name": "finalizeWorkOrder",
      "outputs": [
        {
          "name": "",
          "type": "bool"
        }
      ],
      "payable": false,
      "stateMutability": "nonpayable",
      "type": "function"
    },
    {
      "constant": true,
      "inputs": [
        {
          "name": "_catid",
          "type": "uint256"
        }
      ],
      "name": "existCategory",
      "outputs": [
        {
          "name": "categoryExist",
          "type": "bool"
        }
      ],
      "payable": false,
      "stateMutability": "view",
      "type": "function"
    },
    {
      "constant": true,
      "inputs": [
        {
          "name": "_catid",
          "type": "uint256"
        }
      ],
      "name": "getCategory",
      "outputs": [
        {
          "name": "name",
          "type": "string"
        },
        {
          "name": "description",
          "type": "string"
        },
        {
          "name": "workClockTimeRef",
          "type": "uint256"
        }
      ],
      "payable": false,
      "stateMutability": "view",
      "type": "function"
    },
    {
      "constant": true,
      "inputs": [
        {
          "name": "_worker",
          "type": "address"
        }
      ],
      "name": "getWorkerStatus",
      "outputs": [
        {
          "name": "workerPool",
          "type": "address"
        },
        {
          "name": "workerScore",
          "type": "uint256"
        }
      ],
      "payable": false,
      "stateMutability": "view",
      "type": "function"
    },
    {
      "constant": true,
      "inputs": [
        {
          "name": "_worker",
          "type": "address"
        }
      ],
      "name": "getWorkerScore",
      "outputs": [
        {
          "name": "workerScore",
          "type": "uint256"
        }
      ],
      "payable": false,
      "stateMutability": "view",
      "type": "function"
    },
    {
      "constant": false,
      "inputs": [
        {
          "name": "_worker",
          "type": "address"
        }
      ],
      "name": "registerToPool",
      "outputs": [
        {
          "name": "subscribed",
          "type": "bool"
        }
      ],
      "payable": false,
      "stateMutability": "nonpayable",
      "type": "function"
    },
    {
      "constant": false,
      "inputs": [
        {
          "name": "_worker",
          "type": "address"
        }
      ],
      "name": "unregisterFromPool",
      "outputs": [
        {
          "name": "unsubscribed",
          "type": "bool"
        }
      ],
      "payable": false,
      "stateMutability": "nonpayable",
      "type": "function"
    },
    {
      "constant": false,
      "inputs": [
        {
          "name": "_worker",
          "type": "address"
        }
      ],
      "name": "evictWorker",
      "outputs": [
        {
          "name": "unsubscribed",
          "type": "bool"
        }
      ],
      "payable": false,
      "stateMutability": "nonpayable",
      "type": "function"
    },
    {
      "constant": false,
      "inputs": [
        {
          "name": "_user",
          "type": "address"
        },
        {
          "name": "_amount",
          "type": "uint256"
        }
      ],
      "name": "lockForOrder",
      "outputs": [
        {
          "name": "",
          "type": "bool"
        }
      ],
      "payable": false,
      "stateMutability": "nonpayable",
      "type": "function"
    },
    {
      "constant": false,
      "inputs": [
        {
          "name": "_user",
          "type": "address"
        },
        {
          "name": "_amount",
          "type": "uint256"
        }
      ],
      "name": "unlockForOrder",
      "outputs": [
        {
          "name": "",
          "type": "bool"
        }
      ],
      "payable": false,
      "stateMutability": "nonpayable",
      "type": "function"
    },
    {
      "constant": false,
      "inputs": [
        {
          "name": "_woid",
          "type": "address"
        },
        {
          "name": "_user",
          "type": "address"
        },
        {
          "name": "_amount",
          "type": "uint256"
        }
      ],
      "name": "lockForWork",
      "outputs": [
        {
          "name": "",
          "type": "bool"
        }
      ],
      "payable": false,
      "stateMutability": "nonpayable",
      "type": "function"
    },
    {
      "constant": false,
      "inputs": [
        {
          "name": "_woid",
          "type": "address"
        },
        {
          "name": "_user",
          "type": "address"
        },
        {
          "name": "_amount",
          "type": "uint256"
        }
      ],
      "name": "unlockForWork",
      "outputs": [
        {
          "name": "",
          "type": "bool"
        }
      ],
      "payable": false,
      "stateMutability": "nonpayable",
      "type": "function"
    },
    {
      "constant": false,
      "inputs": [
        {
          "name": "_woid",
          "type": "address"
        },
        {
          "name": "_worker",
          "type": "address"
        },
        {
          "name": "_amount",
          "type": "uint256"
        },
        {
          "name": "_reputation",
          "type": "bool"
        }
      ],
      "name": "rewardForWork",
      "outputs": [
        {
          "name": "",
          "type": "bool"
        }
      ],
      "payable": false,
      "stateMutability": "nonpayable",
      "type": "function"
    },
    {
      "constant": false,
      "inputs": [
        {
          "name": "_woid",
          "type": "address"
        },
        {
          "name": "_worker",
          "type": "address"
        },
        {
          "name": "_amount",
          "type": "uint256"
        },
        {
          "name": "_reputation",
          "type": "bool"
        }
      ],
      "name": "seizeForWork",
      "outputs": [
        {
          "name": "",
          "type": "bool"
        }
      ],
      "payable": false,
      "stateMutability": "nonpayable",
      "type": "function"
    },
    {
      "constant": false,
      "inputs": [
        {
          "name": "_amount",
          "type": "uint256"
        }
      ],
      "name": "deposit",
      "outputs": [
        {
          "name": "",
          "type": "bool"
        }
      ],
      "payable": false,
      "stateMutability": "nonpayable",
      "type": "function"
    },
    {
      "constant": false,
      "inputs": [
        {
          "name": "_amount",
          "type": "uint256"
        }
      ],
      "name": "withdraw",
      "outputs": [
        {
          "name": "",
          "type": "bool"
        }
      ],
      "payable": false,
      "stateMutability": "nonpayable",
      "type": "function"
    },
    {
      "constant": true,
      "inputs": [
        {
          "name": "_owner",
          "type": "address"
        }
      ],
      "name": "checkBalance",
      "outputs": [
        {
          "name": "stake",
          "type": "uint256"
        },
        {
          "name": "locked",
          "type": "uint256"
        }
      ],
      "payable": false,
      "stateMutability": "view",
      "type": "function"
    }
  ],
  "bytecode": "0x6060604052341561000f57600080fd5b60008054600160a060020a033316600160a060020a03199091161790556135bc8061003b6000396000f3006060604052600436106101c95763ffffffff60e060020a600035041663018e883281146101ce5780630c91f2d01461020d57806310793b501461024e5780631708d72514610279578063234a0ee714610298578063298503d9146102c75780632e1a7d4d1461036e57806339b73122146103845780633b7a7095146103b25780634f73b8e6146103c85780635f515226146103db57806366de5a4f146103fa57806369e99b5c146104225780636b4f6865146104415780636e885bd714610469578063747bcd721461047c578063817e83321461048f578063835436b4146104a25780638981d077146104c157806389869163146104e95780638c0f8e11146105085780639fdf962514610527578063a0efe25514610554578063ac1be4f614610567578063ac26109e146105a5578063b017c036146105c7578063b218cf15146105da578063b6b55f25146105f9578063b6b57ebd1461060f578063b7b6e978146106f2578063bc04d77b14610714578063be02ee6e14610727578063deff41c114610746578063eeeb2ba014610759578063f2fde38b14610857578063f3052d2614610876578063f69f190c1461088c578063fc06a877146108cd578063fcf07b3e146108fb575b600080fd5b34156101d957600080fd5b61020b600160a060020a0360043581169060243581169060443581169060643581169060843581169060a4351661090e565b005b341561021857600080fd5b61023a600160a060020a036004358116906024351660443560643515156109a0565b604051901515815260200160405180910390f35b341561025957600080fd5b610261610b4c565b60405191825260208201526040908101905180910390f35b341561028457600080fd5b61023a600160a060020a0360043516610b55565b34156102a357600080fd5b6102ab610bbb565b604051600160a060020a03909116815260200160405180910390f35b34156102d257600080fd5b61035c60046024813581810190830135806020601f8201819004810201604051908101604052818152929190602084018383808284378201915050505050509190803590602001908201803590602001908080601f0160208091040260200160405190810160405281815292919060208401838380828437509496505093359350610bca92505050565b60405190815260200160405180910390f35b341561037957600080fd5b61023a600435610d63565b341561038f57600080fd5b6102ab602460048035828101929082013591813591604435908101910135610e69565b34156103bd57600080fd5b61023a600435610fa5565b34156103d357600080fd5b61035c610fae565b34156103e657600080fd5b610261600160a060020a0360043516610fb4565b341561040557600080fd5b6102ab602460048035828101929101359035604435606435610fd7565b341561042d57600080fd5b61035c600160a060020a03600435166110dc565b341561044c57600080fd5b61023a600160a060020a03600435811690602435166044356110ee565b341561047457600080fd5b6102ab6111f5565b341561048757600080fd5b61035c611204565b341561049a57600080fd5b61035c611209565b34156104ad57600080fd5b61023a600160a060020a036004351661120e565b34156104cc57600080fd5b61023a600160a060020a0360043581169060243516604435611274565b34156104f457600080fd5b61023a600160a060020a0360043516611366565b341561051357600080fd5b61035c600160a060020a0360043516611830565b341561053257600080fd5b61023a600160a060020a0360043581169060243516604435606435151561184b565b341561055f57600080fd5b61035c611a1f565b341561057257600080fd5b6102ab6004606435608435600160a060020a031660a46101443560248101908501356101646101a46101e4610224611a25565b34156105b057600080fd5b61023a600160a060020a0360043516602435611d8c565b34156105d257600080fd5b6102ab611dc8565b34156105e557600080fd5b61023a600160a060020a0360043516611dd7565b341561060457600080fd5b61023a600435612070565b341561061a57600080fd5b61023a60048035600160a060020a03169060446024803590810190830135806020601f8201819004810201604051908101604052818152929190602084018383808284378201915050505050509190803590602001908201803590602001908080601f01602080910402602001604051908101604052818152929190602084018383808284378201915050505050509190803590602001908201803590602001908080601f01602080910402602001604051908101604052818152929190602084018383808284375094965061218b95505050505050565b34156106fd57600080fd5b61023a600160a060020a0360043516602435612906565b341561071f57600080fd5b6102ab61292e565b341561073257600080fd5b610261600160a060020a036004351661293d565b341561075157600080fd5b6102ab612956565b341561076457600080fd5b61076f600435612965565b604051808060200180602001848152602001838103835286818151815260200191508051906020019080838360005b838110156107b657808201518382015260200161079e565b50505050905090810190601f1680156107e35780820380516001836020036101000a031916815260200191505b50838103825285818151815260200191508051906020019080838360005b83811015610819578082015183820152602001610801565b50505050905090810190601f1680156108465780820380516001836020036101000a031916815260200191505b509550505050505060405180910390f35b341561086257600080fd5b61020b600160a060020a0360043516612abf565b341561088157600080fd5b61076f600435612b5a565b341561089757600080fd5b6108ab600160a060020a0360043516612ce2565b604051600160a060020a03909216825260208201526040908101905180910390f35b34156108d857600080fd5b6102ab602460048035828101929082013591813591604435908101910135612d6f565b341561090657600080fd5b6102ab612eab565b600154600160a060020a03161561092457600080fd5b6001805473ffffffffffffffffffffffffffffffffffffffff19908116600160a060020a0398891617909155600680548216968816969096179095556002805486169487169490941790935560038054851692861692909217909155600480548416918516919091179055600580549092169216919091179055565b600554600090600160a060020a0316638b1b925f8660405160e060020a63ffffffff8416028152600160a060020a039091166004820152602401602060405180830381600087803b15156109f357600080fd5b5af11515610a0057600080fd5b505050604051805190501515610a1557600080fd5b33600160a060020a031685600160a060020a0316630690e5b86040518163ffffffff1660e060020a028152600401602060405180830381600087803b1515610a5c57600080fd5b5af11515610a6957600080fd5b50505060405180519050600160a060020a0316141515610a8857600080fd5b610a928484612eba565b1515610a9d57600080fd5b8115610b4157600b54610ab790600163ffffffff612f4f16565b600b55600160a060020a0384166000908152600a6020526040902054610ae490600163ffffffff612f4f16565b600160a060020a0385166000818152600a60205260409081902092909255907f98b231d22df4a95e9d99b5d3f4d25fab5a821c22d7f517a522731c2892ed453590879051600160a060020a03909116815260200160405180910390a25b506001949350505050565b600b54600c5482565b6000610b613383612f69565b1515610b6c57600080fd5b33600160a060020a03167f9644170e77fec17243f5fdc3519cba6d2162d1dda59af75508fd9a2005aeb78483604051600160a060020a03909116815260200160405180910390a2506001919050565b600254600160a060020a031681565b60008054819033600160a060020a03908116911614610be857600080fd5b600854610bfc90600163ffffffff612f4f16565b60088190556000908152600760205260409020905080858051610c239291602001906134e3565b5060018101848051610c399291602001906134e3565b50600281018390556008547f62bf08360c9d561749c54eaf4f8bf8cb6c8b6f4f40607bcec39a8172e714d25c90868686604051808581526020018060200180602001848152602001838103835286818151815260200191508051906020019080838360005b83811015610cb6578082015183820152602001610c9e565b50505050905090810190601f168015610ce35780820380516001836020036101000a031916815260200191505b50838103825285818151815260200191508051906020019080838360005b83811015610d19578082015183820152602001610d01565b50505050905090810190601f168015610d465780820380516001836020036101000a031916815260200191505b50965050505050505060405180910390a150506008549392505050565b600160a060020a033316600090815260096020526040812054610d8c908363ffffffff6130c216565b33600160a060020a038181166000908152600960205260409081902093909355600154169163a9059cbb919085905160e060020a63ffffffff8516028152600160a060020a0390921660048301526024820152604401602060405180830381600087803b1515610dfb57600080fd5b5af11515610e0857600080fd5b505050604051805190501515610e1d57600080fd5b7f884edad9ce6fa2440d8a54cc123490eb96d2768479d49ff9c7366125a94243643383604051600160a060020a03909216825260208201526040908101905180910390a1506001919050565b6003546000908190600160a060020a03166339b7312288888888886040518663ffffffff1660e060020a0281526004018080602001858152602001806020018381038352888882818152602001925080828437909101848103835285815260200190508585808284378201915050975050505050505050602060405180830381600087803b1515610ef957600080fd5b5af11515610f0657600080fd5b50505060405180519050905080600160a060020a031632600160a060020a03167f49413c774d3fe9c92f6ada69299963d9b4b1c13a1f2a95a019188e2c161ed1438989898989604051602081018490526060808252810185905280604081016080820188888082843790910184810383528581526020019050858580828437820191505097505050505050505060405180910390a39695505050505050565b60085490111590565b6103e881565b600160a060020a0316600090815260096020526040902080546001909101549091565b6004546000908190600160a060020a03166366de5a4f88888888886040518663ffffffff1660e060020a0281526004018080602001858152602001848152602001838152602001828103825287878281815260200192508082843782019150509650505050505050602060405180830381600087803b151561105857600080fd5b5af1151561106557600080fd5b50505060405180519050905080600160a060020a031632600160a060020a03167f3c29f4ff1e741e465a1ad9cc4c0b8e51c046c021ca9e77172d812ae667f566f889896040516020808252810182905280604081018484808284378201915050935050505060405180910390a39695505050505050565b600a6020526000908152604090205481565b600554600090600160a060020a0316638b1b925f8560405160e060020a63ffffffff8416028152600160a060020a039091166004820152602401602060405180830381600087803b151561114157600080fd5b5af1151561114e57600080fd5b50505060405180519050151561116357600080fd5b33600160a060020a031684600160a060020a0316630690e5b86040518163ffffffff1660e060020a028152600401602060405180830381600087803b15156111aa57600080fd5b5af115156111b757600080fd5b50505060405180519050600160a060020a03161415156111d657600080fd5b6111e083836130d4565b15156111eb57600080fd5b5060019392505050565b600454600160a060020a031681565b603281565b600a81565b600061121a3383612f69565b151561122557600080fd5b33600160a060020a03167f5580db655b3146ef4d1fdba3305cf74dbc3f29126c7a3832533f84e00d149ee383604051600160a060020a03909116815260200160405180910390a2506001919050565b600554600090600160a060020a0316638b1b925f8560405160e060020a63ffffffff8416028152600160a060020a039091166004820152602401602060405180830381600087803b15156112c757600080fd5b5af115156112d457600080fd5b5050506040518051905015156112e957600080fd5b33600160a060020a031684600160a060020a0316630690e5b86040518163ffffffff1660e060020a028152600401602060405180830381600087803b151561133057600080fd5b5af1151561133d57600080fd5b50505060405180519050600160a060020a031614151561135c57600080fd5b6111e08383613153565b6000818180808080600160a060020a03338116908716635f44910c6040518163ffffffff1660e060020a028152600401602060405180830381600087803b15156113af57600080fd5b5af115156113bc57600080fd5b50505060405180519050600160a060020a03161415156113db57600080fd5b85600160a060020a0316630690e5b86040518163ffffffff1660e060020a028152600401602060405180830381600087803b151561141857600080fd5b5af1151561142557600080fd5b5050506040518051955050600160a060020a03861663e329c4786040518163ffffffff1660e060020a028152600401602060405180830381600087803b151561146d57600080fd5b5af1151561147a57600080fd5b505050604051805194506001905084600481111561149457fe5b14806114ab575060028460048111156114a957fe5b145b15156114b657600080fd5b84600160a060020a031663898691638960405160e060020a63ffffffff8416028152600160a060020a039091166004820152602401602060405180830381600087803b151561150457600080fd5b5af1151561151157600080fd5b50505060405180519050151561152657600080fd5b85600160a060020a0316634e71d92d6040518163ffffffff1660e060020a028152600401600060405180830381600087803b151561156357600080fd5b5af1151561157057600080fd5b50505085600160a060020a03166349e587b66040518163ffffffff1660e060020a028152600401602060405180830381600087803b15156115b057600080fd5b5af115156115bd57600080fd5b5050506040518051935050600160a060020a038616632e2a9ca16040518163ffffffff1660e060020a028152600401602060405180830381600087803b151561160557600080fd5b5af1151561161257600080fd5b50505060405180516006549093506116849150600160a060020a0316636b14ea366040518163ffffffff1660e060020a028152600401602060405180830381600087803b151561166157600080fd5b5af1151561166e57600080fd5b505050604051805185915063ffffffff6131d416565b905061174586600160a060020a0316635f44910c6040518163ffffffff1660e060020a028152600401602060405180830381600087803b15156116c657600080fd5b5af115156116d357600080fd5b5050506040518051905061174088600160a060020a031663d72769ac6040518163ffffffff1660e060020a028152600401602060405180830381600087803b151561171d57600080fd5b5af1151561172a57600080fd5b505050604051805187915063ffffffff612f4f16565b6130d4565b151561175057600080fd5b61175a82826131e9565b151561176557600080fd5b61176f3082612eba565b151561177a57600080fd5b6117843082613153565b151561178f57600080fd5b85600160a060020a0316630690e5b86040518163ffffffff1660e060020a028152600401602060405180830381600087803b15156117cc57600080fd5b5af115156117d957600080fd5b50505060405180519050600160a060020a031688600160a060020a03167fb3cae8ec1c2754530963fb2e254826aae88dda74178f1a0c5656776941e604b860405160405180910390a3506001979650505050505050565b600160a060020a03166000908152600a602052604090205490565b600554600090600160a060020a0316638b1b925f8660405160e060020a63ffffffff8416028152600160a060020a039091166004820152602401602060405180830381600087803b151561189e57600080fd5b5af115156118ab57600080fd5b5050506040518051905015156118c057600080fd5b33600160a060020a031685600160a060020a0316630690e5b86040518163ffffffff1660e060020a028152600401602060405180830381600087803b151561190757600080fd5b5af1151561191457600080fd5b50505060405180519050600160a060020a031614151561193357600080fd5b61193d84846131e9565b151561194857600080fd5b8115610b4157600c5461196290600163ffffffff612f4f16565b600c55600160a060020a0384166000908152600a60205260409020546119b89061199390603263ffffffff61328416565b600160a060020a0386166000908152600a60205260409020549063ffffffff6130c216565b600160a060020a0385166000818152600a60205260409081902092909255907fd21e70eb7104cb6f403402b79fe1c088dc56b69ecb7474ae68a3e861a5a6d49990879051600160a060020a03909116815260200160405180910390a2506001949350505050565b60085481565b60045460009081908190600160a060020a03166368c197dd8c60405160e060020a63ffffffff8416028152600160a060020a039091166004820152602401602060405180830381600087803b1515611a7c57600080fd5b5af11515611a8957600080fd5b505050604051805190501515611a9e57600080fd5b600654600160a060020a031663493cd64b8e8e8e8e8e8e8e8e8e8e60405160e060020a63ffffffff8d16028152600401808b6060808284379091018b8152600160a060020a038b16602082015260400190508860a080828437909101905060208101866040808284379091019050856040808284379091019050846040808284379091019050836040808284379091018381038352888152602001905088888082843782019150509b505050505050505050505050602060405180830381600087803b1515611b6c57600080fd5b5af11515611b7957600080fd5b505050604051805190501515611b8e57600080fd5b611bbc600160a060020a0360808c01358116908d908d35168d60026020020135600160a060020a031661329a565b600554909250600160a060020a0390811690638780dc61908f908e90811663deff41c16040518163ffffffff1660e060020a028152600401602060405180830381600087803b1515611c0d57600080fd5b5af11515611c1a57600080fd5b505050604051805190508e8e8e8960405160e060020a63ffffffff8a160281526004018088606080828437600160a060020a038a81169390910192835288166020830152506040018560a0808284378201915050806020018381526020018281038252858582818152602001925080828437820191505098505050505050505050602060405180830381600087803b1515611cb457600080fd5b5af11515611cc157600080fd5b5050506040518051915050600160a060020a038b166390108dc48260405160e060020a63ffffffff8416028152600160a060020a039091166004820152602401602060405180830381600087803b1515611d1a57600080fd5b5af11515611d2757600080fd5b505050604051805190501515611d3c57600080fd5b8a600160a060020a031681600160a060020a03167f359f2105b31d71ee8e2315c3dc3427b3f7297dcc85dd3883d4554e67f1f22d0060405160405180910390a39c9b505050505050505050505050565b60065460009033600160a060020a03908116911614611daa57600080fd5b611db48383613153565b1515611dbf57600080fd5b50600192915050565b600154600160a060020a031681565b6004546000903390600160a060020a03166368c197dd8260405160e060020a63ffffffff8416028152600160a060020a039091166004820152602401602060405180830381600087803b1515611e2c57600080fd5b5af11515611e3957600080fd5b505050604051805190501515611e4e57600080fd5b611eab8382600160a060020a031663e2d36ef56040518163ffffffff1660e060020a028152600401602060405180830381600087803b1515611e8f57600080fd5b5af11515611e9c57600080fd5b50505060405180519050613153565b1515611eb657600080fd5b80600160a060020a0316636ab6936a6040518163ffffffff1660e060020a028152600401602060405180830381600087803b1515611ef357600080fd5b5af11515611f0057600080fd5b5050506040518051600160a060020a03851660009081526009602052604090205410159050611f2e57600080fd5b80600160a060020a031663cc6f06a36040518163ffffffff1660e060020a028152600401602060405180830381600087803b1515611f6b57600080fd5b5af11515611f7857600080fd5b5050506040518051600160a060020a0385166000908152600a602052604090205410159050611fa657600080fd5b600454600160a060020a0316631884c517338560405160e060020a63ffffffff8516028152600160a060020a03928316600482015291166024820152604401602060405180830381600087803b1515611ffe57600080fd5b5af1151561200b57600080fd5b50505060405180519050151561202057600080fd5b33600160a060020a03167fd3548f8b6a2a11c4a35ef5a16dbf7142c9db5163c7d46e7f66482664277cff0784604051600160a060020a03909116815260200160405180910390a250600192915050565b600154600090600160a060020a03166323b872dd33308560405160e060020a63ffffffff8616028152600160a060020a0393841660048201529190921660248201526044810191909152606401602060405180830381600087803b15156120d657600080fd5b5af115156120e357600080fd5b5050506040518051905015156120f857600080fd5b600160a060020a033316600090815260096020526040902054612121908363ffffffff612f4f16565b33600160a060020a03811660009081526009602052604090819020929092557fe1fffcc4923d04b559f4d29a8bfc6cda04eb5b0d3c460751c2402c5c5cc9109c91849051600160a060020a03909216825260208201526040908101905180910390a1506001919050565b60008481808080808080600160a060020a03338116908916630690e5b86040518163ffffffff1660e060020a028152600401602060405180830381600087803b15156121d657600080fd5b5af115156121e357600080fd5b50505060405180519050600160a060020a031614151561220257600080fd5b600288600160a060020a031663e329c4786040518163ffffffff1660e060020a028152600401602060405180830381600087803b151561224157600080fd5b5af1151561224e57600080fd5b50505060405180519050600481111561226357fe5b1461226d57600080fd5b87600160a060020a0316636946f6926040518163ffffffff1660e060020a028152600401602060405180830381600087803b15156122aa57600080fd5b5af115156122b757600080fd5b5050506040518051975050600160a060020a0387166326137e6b6040518163ffffffff1660e060020a028152600401602060405180830381600087803b15156122ff57600080fd5b5af1151561230c57600080fd5b505050604051805196505060008611156123885761237d87600160a060020a031663deff41c16040518163ffffffff1660e060020a028152600401602060405180830381600087803b151561236057600080fd5b5af1151561236d57600080fd5b5050506040518051905087612eba565b151561238857600080fd5b87600160a060020a03166371a599ca6040518163ffffffff1660e060020a028152600401602060405180830381600087803b15156123c557600080fd5b5af115156123d257600080fd5b5050506040518051955050600160a060020a038516156124b25784600160a060020a03166362d598eb6040518163ffffffff1660e060020a028152600401602060405180830381600087803b151561242957600080fd5b5af1151561243657600080fd5b505050604051805194505060008411156124b2576124a785600160a060020a031663deff41c16040518163ffffffff1660e060020a028152600401602060405180830381600087803b151561248a57600080fd5b5af1151561249757600080fd5b5050506040518051905085612eba565b15156124b257600080fd5b87600160a060020a03166349e587b66040518163ffffffff1660e060020a028152600401602060405180830381600087803b15156124ef57600080fd5b5af115156124fc57600080fd5b5050506040518051935050600160a060020a038816632e2a9ca16040518163ffffffff1660e060020a028152600401602060405180830381600087803b151561254457600080fd5b5af1151561255157600080fd5b50505060405180516006549093506125a09150600160a060020a0316636b14ea366040518163ffffffff1660e060020a028152600401602060405180830381600087803b151561166157600080fd5b905061263e88600160a060020a0316635f44910c6040518163ffffffff1660e060020a028152600401602060405180830381600087803b15156125e257600080fd5b5af115156125ef57600080fd5b505050604051805190506126398a600160a060020a031663d72769ac6040518163ffffffff1660e060020a028152600401602060405180830381600087803b151561171d57600080fd5b6131e9565b151561264957600080fd5b61265382826130d4565b151561265e57600080fd5b87600160a060020a031663d5fdfdbc8d8d8d6040518463ffffffff1660e060020a02815260040180806020018060200180602001848103845287818151815260200191508051906020019080838360005b838110156126c75780820151838201526020016126af565b50505050905090810190601f1680156126f45780820380516001836020036101000a031916815260200191505b50848103835286818151815260200191508051906020019080838360005b8381101561272a578082015183820152602001612712565b50505050905090810190601f1680156127575780820380516001836020036101000a031916815260200191505b50848103825285818151815260200191508051906020019080838360005b8381101561278d578082015183820152602001612775565b50505050905090810190601f1680156127ba5780820380516001836020036101000a031916815260200191505b509650505050505050600060405180830381600087803b15156127dc57600080fd5b5af115156127e957600080fd5b5050506127f530610fb4565b9350506000831115612860576128346128276103e861281b86600a63ffffffff6131d416565b9063ffffffff61347416565b849063ffffffff61328416565b925061284030846131e9565b151561284b57600080fd5b6128558284612eba565b151561286057600080fd5b87600160a060020a0316630690e5b86040518163ffffffff1660e060020a028152600401602060405180830381600087803b151561289d57600080fd5b5af115156128aa57600080fd5b50505060405180519050600160a060020a03168d600160a060020a03167fed236d0a24cb7a32c76960696e44bac711b80ef76780688405dc96c2495b75f960405160405180910390a35060019c9b505050505050505050505050565b60065460009033600160a060020a0390811691161461292457600080fd5b611db483836130d4565b600354600160a060020a031681565b6009602052600090815260409020805460019091015482565b600054600160a060020a031681565b6007602052806000526040600020600091509050806000018054600181600116156101000203166002900480601f016020809104026020016040519081016040528092919081815260200182805460018160011615610100020316600290048015612a115780601f106129e657610100808354040283529160200191612a11565b820191906000526020600020905b8154815290600101906020018083116129f457829003601f168201915b505050505090806001018054600181600116156101000203166002900480601f016020809104026020016040519081016040528092919081815260200182805460018160011615610100020316600290048015612aaf5780601f10612a8457610100808354040283529160200191612aaf565b820191906000526020600020905b815481529060010190602001808311612a9257829003601f168201915b5050505050908060020154905083565b60005433600160a060020a03908116911614612ada57600080fd5b600160a060020a0381161515612aef57600080fd5b600054600160a060020a0380831691167f8be0079c531659141344cd1fd0a4f28419497f9722a3daafe3b4186f6b6457e060405160405180910390a36000805473ffffffffffffffffffffffffffffffffffffffff1916600160a060020a0392909216919091179055565b612b62613561565b612b6a613561565b6000612b7584610fa5565b1515612b8057600080fd5b6000848152600760209081526040918290206002808201548254929460018087019592948794918116156101000260001901160491601f830181900481020190519081016040528092919081815260200182805460018160011615610100020316600290048015612c325780601f10612c0757610100808354040283529160200191612c32565b820191906000526020600020905b815481529060010190602001808311612c1557829003601f168201915b50505050509250818054600181600116156101000203166002900480601f016020809104026020016040519081016040528092919081815260200182805460018160011615610100020316600290048015612cce5780601f10612ca357610100808354040283529160200191612cce565b820191906000526020600020905b815481529060010190602001808311612cb157829003601f168201915b505050505091509250925092509193909250565b6004546000908190600160a060020a031663d440c6f38460405160e060020a63ffffffff8416028152600160a060020a039091166004820152602401602060405180830381600087803b1515612d3757600080fd5b5af11515612d4457600080fd5b5050506040518051600160a060020a03949094166000908152600a6020526040902054939492505050565b6002546000908190600160a060020a031663fc06a87788888888886040518663ffffffff1660e060020a0281526004018080602001858152602001806020018381038352888882818152602001925080828437909101848103835285815260200190508585808284378201915050975050505050505050602060405180830381600087803b1515612dff57600080fd5b5af11515612e0c57600080fd5b50505060405180519050905080600160a060020a031632600160a060020a03167f03d3b6187bbe7d21aa3cf229e292ba41fa8bca6ec2128c0f1625178b8191cdc28989898989604051602081018490526060808252810185905280604081016080820188888082843790910184810383528581526020019050858580828437820191505097505050505050505060405180910390a39695505050505050565b600554600160a060020a031681565b600160a060020a038216600090815260096020526040812054612ee3908363ffffffff612f4f16565b600160a060020a03841660009081526009602052604090819020919091557f619caafabdd75649b302ba8419e48cccf64f37f1983ac4727cfb38b57703ffc9908490849051600160a060020a03909216825260208201526040908101905180910390a150600192915050565b600082820183811015612f5e57fe5b8091505b5092915050565b6004546000908390600160a060020a03166368c197dd8260405160e060020a63ffffffff8416028152600160a060020a039091166004820152602401602060405180830381600087803b1515612fbe57600080fd5b5af11515612fcb57600080fd5b505050604051805190501515612fe057600080fd5b61303d8382600160a060020a031663e2d36ef56040518163ffffffff1660e060020a028152600401602060405180830381600087803b151561302157600080fd5b5af1151561302e57600080fd5b505050604051805190506130d4565b151561304857600080fd5b600454600160a060020a0316630b00de8d858560405160e060020a63ffffffff8516028152600160a060020a03928316600482015291166024820152604401602060405180830381600087803b15156130a057600080fd5b5af115156130ad57600080fd5b5050506040518051905015156111eb57600080fd5b6000828211156130ce57fe5b50900390565b600160a060020a038216600090815260096020526040812060010154613100908363ffffffff6130c216565b600160a060020a0384166000908152600960205260409020600181019190915554613131908363ffffffff612f4f16565b600160a060020a03841660009081526009602052604090205550600192915050565b600160a060020a03821660009081526009602052604081205461317c908363ffffffff6130c216565b600160a060020a0384166000908152600960205260409020908155600101546131ab908363ffffffff612f4f16565b600160a060020a0384166000908152600960205260409020600190810191909155905092915050565b60006131e283836064613484565b9392505050565b600160a060020a038216600090815260096020526040812060010154613215908363ffffffff6130c216565b600160a060020a03841660009081526009602052604090819020600101919091557f4051ba94e08bb094159fc38391422b4b8ccfd2b1f8919c0eb37bb042d4b9cd8e908490849051600160a060020a03909216825260208201526040908101905180910390a150600192915050565b600081831061329357816131e2565b5090919050565b600254600090839082908190600160a060020a0316638403be918460405160e060020a63ffffffff8416028152600160a060020a039091166004820152602401602060405180830381600087803b15156132f357600080fd5b5af1151561330057600080fd5b50505060405180519050151561331557600080fd5b82600160a060020a03166326137e6b6040518163ffffffff1660e060020a028152600401602060405180830381600087803b151561335257600080fd5b5af1151561335f57600080fd5b5050506040518051925050600160a060020a0385161561345457506003548490600160a060020a03166316265b4e8260405160e060020a63ffffffff8416028152600160a060020a039091166004820152602401602060405180830381600087803b15156133cc57600080fd5b5af115156133d957600080fd5b5050506040518051905015156133ee57600080fd5b61345181600160a060020a03166362d598eb6040518163ffffffff1660e060020a028152600401602060405180830381600087803b151561342e57600080fd5b5af1151561343b57600080fd5b505050604051805184915063ffffffff612f4f16565b91505b61345e8883613153565b151561346957600080fd5b509695505050505050565b60008183101561329357816131e2565b600061349961349385856134a1565b836134cc565b949350505050565b6000808315156134b45760009150612f62565b508282028284828115156134c457fe5b0414612f5e57fe5b60008082848115156134da57fe5b04949350505050565b828054600181600116156101000203166002900490600052602060002090601f016020900481019282601f1061352457805160ff1916838001178555613551565b82800160010185558215613551579182015b82811115613551578251825591602001919060010190613536565b5061355d929150613573565b5090565b60206040519081016040526000815290565b61358d91905b8082111561355d5760008155600101613579565b905600a165627a7a7230582018a2893b9ba978d5a98073840881276044d32673020250021f8839146600539f0029",
  "source": "pragma solidity ^0.4.21;\n\nimport \"rlc-token/contracts/RLC.sol\";\n\nimport './WorkOrder.sol';\nimport './Marketplace.sol';\n\nimport './AppHub.sol';\nimport './DatasetHub.sol';\nimport './WorkerPoolHub.sol';\nimport './WorkOrderFactory.sol';\n\n\nimport \"./SafeMathOZ.sol\";\nimport './IexecLib.sol';\n\n/**\n * @title IexecHub\n */\n\ncontract IexecHub is OwnableOZ\n{\n\tusing SafeMathOZ for uint256;\n\n\t/**\n\t* RLC contract for token transfers.\n\t*/\n\tRLC public rlc;\n\n\tuint256 public constant STAKE_BONUS_RATIO         = 10;\n\tuint256 public constant STAKE_BONUS_MIN_THRESHOLD = 1000;\n\tuint256 public constant SCORE_UNITARY_SLASH       = 50;\n\n\t/**\n\t * Slaves contracts\n\t */\n\tAppHub           public appHub;\n\tDatasetHub       public datasetHub;\n\tWorkerPoolHub    public workerPoolHub;\n\tWorkOrderFactory public workOrderFactory;\n\n\t/**\n\t * Market place\n\t */\n\tMarketplace marketplace;\n\tmodifier onlyMarketplace()\n\t{\n\t\trequire(msg.sender == address(marketplace));\n\t\t_;\n\t}\n\t/**\n\t * Categories\n\t */\n\tmapping(uint256 => IexecLib.Category) public m_categories;\n\tuint256                               public m_categoriesCount;\n\n\t/**\n\t * Escrow\n\t */\n\tmapping(address => IexecLib.Account) public m_accounts;\n\n\t/**\n\t * Reputation for PoCo\n\t */\n\tmapping(address => uint256)  public m_scores;\n\tIexecLib.ContributionHistory public m_contributionHistory;\n\n\t/**\n\t * Events\n\t */\n\tevent CreateApp       (address indexed appOwner,        address indexed app,        string appName,     uint256 appPrice,     string appParams    );\n\tevent CreateDataset   (address indexed datasetOwner,    address indexed dataset,    string datasetName, uint256 datasetPrice, string datasetParams);\n\tevent CreateWorkerPool(address indexed workerPoolOwner, address indexed workerPool, string workerPoolDescription                                  );\n\tevent CreateCategory  (uint256 catid, string name, string description, uint256 workClockTimeRef);\n\n\tevent WorkerPoolSubscription  (address indexed workerPool, address worker);\n\tevent WorkerPoolUnsubscription(address indexed workerPool, address worker);\n\tevent WorkerPoolEviction      (address indexed workerPool, address worker);\n\n\tevent WorkOrderActivated(address indexed woid, address indexed workerPool);\n\tevent WorkOrderClaimed  (address indexed woid, address indexed workerPool);\n\tevent WorkOrderCompleted(address indexed woid, address indexed workerPool);\n\n\tevent AccurateContribution(address woid, address indexed worker);\n\tevent FaultyContribution  (address woid, address indexed worker);\n\n\tevent Deposit (address owner, uint256 amount);\n\tevent Withdraw(address owner, uint256 amount);\n\tevent Reward  (address user,  uint256 amount);\n\tevent Seize   (address user,  uint256 amount);\n\n\t/**\n\t * Constructor\n\t */\n\tfunction IexecHub()\n\tpublic\n\t{\n\t}\n\n\tfunction attachContracts(\n\t\taddress _tokenAddress,\n\t\taddress _marketplaceAddress,\n\t\taddress _appHubAddress,\n\t\taddress _datasetHubAddress,\n\t\taddress _workerPoolHubAddress,\n\t\taddress _workOrderFactoryAddress)\n\tpublic\n\t{\n\t\trequire(address(rlc) == address(0));\n\t\trlc              = RLC             (_tokenAddress           );\n\t\tmarketplace      = Marketplace     (_marketplaceAddress     );\n\t\tappHub           = AppHub          (_appHubAddress          );\n\t\tdatasetHub       = DatasetHub      (_datasetHubAddress      );\n\t\tworkerPoolHub    = WorkerPoolHub   (_workerPoolHubAddress   );\n\t\tworkOrderFactory = WorkOrderFactory(_workOrderFactoryAddress);\n\t}\n\n\t/**\n\t * Factory\n\t */\n\n\tfunction createCategory(\n\t\tstring  _name,\n\t\tstring  _description,\n\t\tuint256 _workClockTimeRef)\n\tpublic onlyOwner returns (uint256 catid)\n\t/* public returns (uint256 catid) */\n\t{\n\t\tm_categoriesCount                  = m_categoriesCount.add(1);\n\n\t\tIexecLib.Category storage category = m_categories[m_categoriesCount];\n\t\tcategory.name                      = _name;\n\t\tcategory.description               = _description;\n\t\tcategory.workClockTimeRef          = _workClockTimeRef;\n\n\t\temit CreateCategory(m_categoriesCount, _name, _description, _workClockTimeRef);\n\t\treturn m_categoriesCount;\n\t}\n\n\tfunction createWorkerPool(\n\t\tstring  _description,\n\t\tuint256 _subscriptionLockStakePolicy,\n\t\tuint256 _subscriptionMinimumStakePolicy,\n\t\tuint256 _subscriptionMinimumScorePolicy)\n\texternal returns (address createdWorkerPool)\n\t{\n\t\taddress newWorkerPool = workerPoolHub.createWorkerPool(\n\t\t\t_description,\n\t\t\t_subscriptionLockStakePolicy,\n\t\t\t_subscriptionMinimumStakePolicy,\n\t\t\t_subscriptionMinimumScorePolicy\n\t\t);\n\t\temit CreateWorkerPool(tx.origin, newWorkerPool, _description);\n\t\treturn newWorkerPool;\n\t}\n\n\tfunction createApp(\n\t\tstring  _appName,\n\t\tuint256 _appPrice,\n\t\tstring  _appParams)\n\texternal returns (address createdApp)\n\t{\n\t\taddress newApp = appHub.createApp(\n\t\t\t_appName,\n\t\t\t_appPrice,\n\t\t\t_appParams\n\t\t);\n\t\temit CreateApp(tx.origin, newApp, _appName, _appPrice, _appParams);\n\t\treturn newApp;\n\t}\n\n\tfunction createDataset(\n\t\tstring  _datasetName,\n\t\tuint256 _datasetPrice,\n\t\tstring  _datasetParams)\n\texternal returns (address createdDataset)\n\t{\n\t\taddress newDataset = datasetHub.createDataset(\n\t\t\t_datasetName,\n\t\t\t_datasetPrice,\n\t\t\t_datasetParams\n\t\t\t);\n\t\temit CreateDataset(tx.origin, newDataset, _datasetName, _datasetPrice, _datasetParams);\n\t\treturn newDataset;\n\t}\n\n\t/**\n\t * WorkOrder Emission\n\t */\n\n\tfunction marketOrders(\n\t\t/********** Order settings **********/\n\t\tuint256[3] _commonOrder,\n\t\t/* uint256 _commonOrder_category, */\n\t\t/* uint256 _commonOrder_trust, */\n\t\t/* uint256 _commonOrder_value, */\n\t\t/********** Pool settings **********/\n\t\tuint256 _poolOrder_volume,\n\t\taddress _poolOrder_workerpool,\n\t\t/********** User settings **********/\n\t\taddress[5] _userOrder,\n\t\t/* address _userOrder_app, */\n\t\t/* address _userOrder_dataset, */\n\t\t/* address _userOrder_callback, */\n\t\t/* address _userOrder_beneficiary, */\n\t\t/* address _userOrder_requester, */\n\t\tstring  _userOrder_params,\n\t\t/********** Signatures **********/\n\t\tuint256[2] _salt,\n\t\tuint8[2]   _v,\n\t\tbytes32[2] _r,\n\t\tbytes32[2] _s)\n\texternal returns (address)\n\t{\n\t\trequire(workerPoolHub.isWorkerPoolRegistered(_poolOrder_workerpool));\n\n\t\trequire(marketplace.matchOrders(\n\t\t\t_commonOrder,\n\t\t\t_poolOrder_volume,\n\t\t\t_poolOrder_workerpool,\n\t\t\t_userOrder,\n\t\t\t_userOrder_params,\n\t\t\t_salt,\n\t\t\t_v,\n\t\t\t_r,\n\t\t\t_s));\n\n\t\tuint256 appPayment = lockAppPayment(\n\t\t\t_userOrder[4],         //requester,\n\t\t\t_poolOrder_workerpool, //workerpool,\n\t\t\t_userOrder[0],         //app,\n\t\t\t_userOrder[2]);        //dataset\n\n\t\tWorkOrder woid = workOrderFactory.createWorkOrder(\n\t\t\t_commonOrder,\n\t\t\t_poolOrder_workerpool,\n\t\t\tWorkerPool(_poolOrder_workerpool).m_owner(),\n\t\t\t_userOrder,\n\t\t\t_userOrder_params,\n\t\t\tappPayment\n\t\t);\n\n\t\trequire(WorkerPool(_poolOrder_workerpool).initiateConsensus(woid));\n\n\t\temit WorkOrderActivated(woid, _poolOrder_workerpool);\n\t\treturn woid;\n\t}\n\n\tfunction lockAppPayment(\n\t\taddress _requester,\n\t\taddress _workerpool, // Address of a smartcontract\n\t\taddress _app,        // Address of a smartcontract\n\t\taddress _dataset)    // Address of a smartcontract\n\tinternal returns (uint256)\n\t{\n\t\t// APP\n\t\tApp app = App(_app);\n\t\trequire(appHub.isAppRegistered (_app));\n\t\t// initialize usercost with dapp price\n\t\tuint256 appPayment = app.m_appPrice();\n\n\t\t// DATASET\n\t\tif (_dataset != address(0)) // address(0)  no dataset\n\t\t{\n\t\t\tDataset dataset = Dataset(_dataset);\n\t\t\trequire(datasetHub.isDatasetRegistred(_dataset));\n\t\t\t// add optional datasetPrice for userCost\n\t\t\tappPayment = appPayment.add(dataset.m_datasetPrice());\n\t\t}\n\n\t\trequire(lock(_requester, appPayment)); // Lock funds for app + dataset payment\n\n\t\treturn appPayment;\n\t}\n\n\t/**\n\t * WorkOrder life cycle\n\t */\n\n\tfunction claimFailedConsensus(address _woid) public returns (bool)\n\t{\n\t\tWorkOrder workorder = WorkOrder(_woid);\n\t\trequire(workorder.m_requester() == msg.sender);\n\n\t\tWorkerPool workerpool = WorkerPool(workorder.m_workerpool());\n\n\t\tIexecLib.WorkOrderStatusEnum currentStatus = workorder.m_status();\n\t\trequire(currentStatus == IexecLib.WorkOrderStatusEnum.ACTIVE || currentStatus == IexecLib.WorkOrderStatusEnum.REVEALING);\n\t\t// Unlock stakes for all workers\n\t\trequire(workerpool.claimFailedConsensus(_woid));\n\t\tworkorder.claim(); // revert on error\n\n\t\tuint256 value           = workorder.m_value();\n\t\taddress workerpoolOwner = workorder.m_workerpoolOwner();\n\t\tuint256 workerpoolStake = value.percentage(marketplace.ASK_STAKE_RATIO());\n\n\t\trequire(unlock (workorder.m_requester(), value.add(workorder.m_appPayment()))); // UNLOCK THE FUNDS FOR REINBURSEMENT\n\t\trequire(seize  (workerpoolOwner,         workerpoolStake));\n\t\t// put workerpoolOwner stake seize into iexecHub address for bonus for scheduler on next well finalized Task\n\t\trequire(reward (this,                    workerpoolStake));\n\t\trequire(lock   (this,                    workerpoolStake));\n\n\n\t\temit WorkOrderClaimed(_woid, workorder.m_workerpool());\n\t\treturn true;\n\t}\n\n\tfunction finalizeWorkOrder(\n\t\taddress _woid,\n\t\tstring  _stdout,\n\t\tstring  _stderr,\n\t\tstring  _uri)\n\tpublic returns (bool)\n\t{\n\t\tWorkOrder workorder = WorkOrder(_woid);\n\n\t\trequire(workorder.m_workerpool() == msg.sender);\n\t\trequire(workorder.m_status()     == IexecLib.WorkOrderStatusEnum.REVEALING);\n\n\t\t// APP\n\t\tApp     app      = App(workorder.m_app());\n\t\tuint256 appPrice = app.m_appPrice();\n\t\tif (appPrice > 0)\n\t\t{\n\t\t\trequire(reward(app.m_owner(), appPrice));\n\t\t}\n\n\t\t// DATASET\n\t\tDataset dataset = Dataset(workorder.m_dataset());\n\t\tif (dataset != address(0))\n\t\t{\n\t\t\tuint256 datasetPrice = dataset.m_datasetPrice();\n\t\t\tif (datasetPrice > 0)\n\t\t\t{\n\t\t\t\trequire(reward(dataset.m_owner(), datasetPrice));\n\t\t\t}\n\t\t}\n\n\t\t// WORKERPOOL  rewarding done by the caller itself\n\n\t\t/**\n\t\t * seize stacked funds from requester.\n\t\t * reward = value: was locked at market making\n\t\t * appPayment: was locked at when emiting the workorder\n\t\t */\n\t\tuint256 value           = workorder.m_value(); // revert if not exist\n\t\taddress workerpoolOwner = workorder.m_workerpoolOwner(); // revert if not exist\n\t\tuint256 workerpoolStake = value.percentage(marketplace.ASK_STAKE_RATIO());\n\n\t\trequire(seize (workorder.m_requester(), value.add(workorder.m_appPayment()))); // seize funds for payment (market value + appPayment)\n\t\trequire(unlock(workerpoolOwner,         workerpoolStake)); // unlock scheduler stake\n\n\t\t// write results\n\t\tworkorder.setResult(_stdout, _stderr, _uri); // revert on error\n\n\t\t// Rien ne se perd, rien ne se cre, tout se transfere\n\t\t// distribute bonus to scheduler. jackpot bonus come from scheduler stake loose on IexecHub contract\n\n\t\t// value  kitty\n\t\t(,value) = checkBalance(this); // kitty is locked on `this` wallet\n\t\tif(value > 0)\n\t\t{\n\t\t\t// value  fraction of kitty\n\t\t\tvalue = value.min(value.percentage(STAKE_BONUS_RATIO).max(STAKE_BONUS_MIN_THRESHOLD));\n\t\t\trequire(seize(this,             value));\n\t\t\trequire(reward(workerpoolOwner, value));\n\t\t}\n\n\t\temit WorkOrderCompleted(_woid, workorder.m_workerpool());\n\t\treturn true;\n\t}\n\n\t/**\n\t * Views\n\t */\n\n\tfunction existCategory(uint256 _catid) public view  returns (bool categoryExist)\n\t{\n\t\treturn _catid <= m_categoriesCount;\n\t}\n\n\tfunction getCategory(uint256 _catid) public view returns (string name, string  description, uint256 workClockTimeRef)\n\t{\n\t\trequire(existCategory(_catid));\n\t\treturn (\n\t\t\tm_categories[_catid].name,\n\t\t\tm_categories[_catid].description,\n\t\t\tm_categories[_catid].workClockTimeRef\n\t\t);\n\t}\n\n\tfunction getWorkerStatus(address _worker) public view returns (address workerPool, uint256 workerScore)\n\t{\n\t\treturn (workerPoolHub.getWorkerAffectation(_worker), m_scores[_worker]);\n\t}\n\n\tfunction getWorkerScore(address _worker) public view returns (uint256 workerScore)\n\t{\n\t\treturn m_scores[_worker];\n\t}\n\n\t/**\n\t * Worker subscription\n\t */\n\tfunction registerToPool(address _worker) public returns (bool subscribed)\n\t// msg.sender = workerPool\n\t{\n\t\tWorkerPool workerpool = WorkerPool(msg.sender);\n\t\t// Check credentials\n\t\trequire(workerPoolHub.isWorkerPoolRegistered(msg.sender));\n\t\t// Lock worker deposit\n\t\trequire(lock(_worker, workerpool.m_subscriptionLockStakePolicy()));\n\t\t// Check subscription policy\n\t\trequire(m_accounts[_worker].stake >= workerpool.m_subscriptionMinimumStakePolicy());\n\t\trequire(m_scores[_worker]         >= workerpool.m_subscriptionMinimumScorePolicy());\n\t\t// Update affectation\n\t\trequire(workerPoolHub.registerWorkerAffectation(msg.sender, _worker));\n\t\t// Trigger event notice\n\t\temit WorkerPoolSubscription(msg.sender, _worker);\n\t\treturn true;\n\t}\n\n\tfunction unregisterFromPool(address _worker) public returns (bool unsubscribed)\n\t// msg.sender = workerPool\n\t{\n\t\trequire(removeWorker(msg.sender, _worker));\n\t\t// Trigger event notice\n\t\temit WorkerPoolUnsubscription(msg.sender, _worker);\n\t\treturn true;\n\t}\n\n\tfunction evictWorker(address _worker) public returns (bool unsubscribed)\n\t// msg.sender = workerpool\n\t{\n\t\trequire(removeWorker(msg.sender, _worker));\n\t\t// Trigger event notice\n\t\temit WorkerPoolEviction(msg.sender, _worker);\n\t\treturn true;\n\t}\n\n\tfunction removeWorker(address _workerpool, address _worker) internal returns (bool unsubscribed)\n\t{\n\t\tWorkerPool workerpool = WorkerPool(_workerpool);\n\t\t// Check credentials\n\t\trequire(workerPoolHub.isWorkerPoolRegistered(_workerpool));\n\t\t// Unlick worker stake\n\t\trequire(unlock(_worker, workerpool.m_subscriptionLockStakePolicy()));\n\t\t// Update affectation\n\t\trequire(workerPoolHub.unregisterWorkerAffectation(_workerpool, _worker));\n\t\treturn true;\n\t}\n\n\t/**\n\t * Stake, reward and penalty functions\n\t */\n\t/* Marketplace */\n\tfunction lockForOrder(address _user, uint256 _amount) public onlyMarketplace returns (bool)\n\t{\n\t\trequire(lock(_user, _amount));\n\t\treturn true;\n\t}\n\tfunction unlockForOrder(address _user, uint256 _amount) public  onlyMarketplace returns (bool)\n\t{\n\t\trequire(unlock(_user, _amount));\n\t\treturn true;\n\t}\n\t/* Work */\n\tfunction lockForWork(address _woid, address _user, uint256 _amount) public returns (bool)\n\t{\n\t\trequire(workOrderFactory.isValid(_woid));\n\t\trequire(WorkOrder(_woid).m_workerpool() == msg.sender);\n\t\trequire(lock(_user, _amount));\n\t\treturn true;\n\t}\n\tfunction unlockForWork(address _woid, address _user, uint256 _amount) public returns (bool)\n\t{\n\t\trequire(workOrderFactory.isValid(_woid));\n\t\trequire(WorkOrder(_woid).m_workerpool() == msg.sender);\n\t\trequire(unlock(_user, _amount));\n\t\treturn true;\n\t}\n\tfunction rewardForWork(address _woid, address _worker, uint256 _amount, bool _reputation) public returns (bool)\n\t{\n\t\trequire(workOrderFactory.isValid(_woid));\n\t\trequire(WorkOrder(_woid).m_workerpool() == msg.sender);\n\t\trequire(reward(_worker, _amount));\n\t\t// ------------------------------------------------------------------------\n\t\tif (_reputation)\n\t\t{\n\t\t\tm_contributionHistory.success = m_contributionHistory.success.add(1);\n\t\t\tm_scores[_worker] = m_scores[_worker].add(1);\n\t\t\temit AccurateContribution(_woid, _worker);\n\t\t}\n\t\treturn true;\n\t}\n\tfunction seizeForWork(address _woid, address _worker, uint256 _amount, bool _reputation) public returns (bool)\n\t{\n\t\trequire(workOrderFactory.isValid(_woid));\n\t\trequire(WorkOrder(_woid).m_workerpool() == msg.sender);\n\t\trequire(seize(_worker, _amount));\n\t\t// ------------------------------------------------------------------------\n\t\tif (_reputation)\n\t\t{\n\t\t\tm_contributionHistory.failled = m_contributionHistory.failled.add(1);\n\t\t\tm_scores[_worker] = m_scores[_worker].sub(m_scores[_worker].min(SCORE_UNITARY_SLASH));\n\t\t\temit FaultyContribution(_woid, _worker);\n\t\t}\n\t\treturn true;\n\t}\n\t/**\n\t * Wallet methods: public\n\t */\n\tfunction deposit(uint256 _amount) external returns (bool)\n\t{\n\t\trequire(rlc.transferFrom(msg.sender, address(this), _amount));\n\t\tm_accounts[msg.sender].stake = m_accounts[msg.sender].stake.add(_amount);\n\t\temit Deposit(msg.sender, _amount);\n\t\treturn true;\n\t}\n\tfunction withdraw(uint256 _amount) external returns (bool)\n\t{\n\t\tm_accounts[msg.sender].stake = m_accounts[msg.sender].stake.sub(_amount);\n\t\trequire(rlc.transfer(msg.sender, _amount));\n\t\temit Withdraw(msg.sender, _amount);\n\t\treturn true;\n\t}\n\tfunction checkBalance(address _owner) public view returns (uint256 stake, uint256 locked)\n\t{\n\t\treturn (m_accounts[_owner].stake, m_accounts[_owner].locked);\n\t}\n\t/**\n\t * Wallet methods: Internal\n\t */\n\tfunction reward(address _user, uint256 _amount) internal returns (bool)\n\t{\n\t\tm_accounts[_user].stake = m_accounts[_user].stake.add(_amount);\n\t\temit Reward(_user, _amount);\n\t\treturn true;\n\t}\n\tfunction seize(address _user, uint256 _amount) internal returns (bool)\n\t{\n\t\tm_accounts[_user].locked = m_accounts[_user].locked.sub(_amount);\n\t\temit Seize(_user, _amount);\n\t\treturn true;\n\t}\n\tfunction lock(address _user, uint256 _amount) internal returns (bool)\n\t{\n\t\tm_accounts[_user].stake  = m_accounts[_user].stake.sub(_amount);\n\t\tm_accounts[_user].locked = m_accounts[_user].locked.add(_amount);\n\t\treturn true;\n\t}\n\tfunction unlock(address _user, uint256 _amount) internal returns (bool)\n\t{\n\t\tm_accounts[_user].locked = m_accounts[_user].locked.sub(_amount);\n\t\tm_accounts[_user].stake  = m_accounts[_user].stake.add(_amount);\n\t\treturn true;\n\t}\n}\n",
  "sourcePath": "/home/amxx/Work/iExec/PoCo-dev/contracts/IexecHub.sol",
  "compiler": {
    "name": "solc",
    "version": "0.4.21+commit.dfe3193c.Emscripten.clang"
  },
  "schemaVersion": "2.0.0",
  "updatedAt": "2018-05-19T17:46:30.358Z"
}