{
  "contractName": "IexecHub",
  "abi": [
    {
      "constant": false,
      "inputs": [
        {
          "name": "_workerPool",
          "type": "address"
        }
      ],
      "name": "closeWorkerPool",
      "outputs": [
        {
          "name": "",
          "type": "bool"
        }
      ],
      "payable": false,
      "stateMutability": "nonpayable",
      "type": "function"
    },
    {
      "constant": false,
      "inputs": [
        {
          "name": "_name",
          "type": "string"
        }
      ],
      "name": "createWorkerPool",
      "outputs": [
        {
          "name": "createdWorkerPool",
          "type": "address"
        }
      ],
      "payable": false,
      "stateMutability": "nonpayable",
      "type": "function"
    },
    {
      "constant": false,
      "inputs": [
        {
          "name": "_taskID",
          "type": "address"
        },
        {
          "name": "_worker",
          "type": "address"
        }
      ],
      "name": "addFaultyContribution",
      "outputs": [
        {
          "name": "added",
          "type": "bool"
        }
      ],
      "payable": false,
      "stateMutability": "nonpayable",
      "type": "function"
    },
    {
      "constant": false,
      "inputs": [
        {
          "name": "_datasetName",
          "type": "string"
        },
        {
          "name": "_datasetPrice",
          "type": "uint256"
        },
        {
          "name": "_datasetParam",
          "type": "string"
        },
        {
          "name": "_datasetUri",
          "type": "string"
        }
      ],
      "name": "createDataset",
      "outputs": [
        {
          "name": "createdDataset",
          "type": "address"
        }
      ],
      "payable": false,
      "stateMutability": "nonpayable",
      "type": "function"
    },
    {
      "constant": false,
      "inputs": [
        {
          "name": "_amount",
          "type": "uint256"
        }
      ],
      "name": "withdraw",
      "outputs": [
        {
          "name": "",
          "type": "bool"
        }
      ],
      "payable": false,
      "stateMutability": "nonpayable",
      "type": "function"
    },
    {
      "constant": true,
      "inputs": [
        {
          "name": "_taskID",
          "type": "address"
        }
      ],
      "name": "getTaskCost",
      "outputs": [
        {
          "name": "taskCost",
          "type": "uint256"
        }
      ],
      "payable": false,
      "stateMutability": "view",
      "type": "function"
    },
    {
      "constant": true,
      "inputs": [
        {
          "name": "_owner",
          "type": "address"
        }
      ],
      "name": "checkBalance",
      "outputs": [
        {
          "name": "stake",
          "type": "uint256"
        },
        {
          "name": "locked",
          "type": "uint256"
        }
      ],
      "payable": false,
      "stateMutability": "view",
      "type": "function"
    },
    {
      "constant": false,
      "inputs": [
        {
          "name": "_taskID",
          "type": "address"
        }
      ],
      "name": "cancelTask",
      "outputs": [
        {
          "name": "",
          "type": "bool"
        }
      ],
      "payable": false,
      "stateMutability": "nonpayable",
      "type": "function"
    },
    {
      "constant": false,
      "inputs": [
        {
          "name": "_taskID",
          "type": "address"
        },
        {
          "name": "_user",
          "type": "address"
        },
        {
          "name": "_amount",
          "type": "uint256"
        }
      ],
      "name": "lockForTask",
      "outputs": [
        {
          "name": "",
          "type": "bool"
        }
      ],
      "payable": false,
      "stateMutability": "nonpayable",
      "type": "function"
    },
    {
      "constant": false,
      "inputs": [
        {
          "name": "_taskID",
          "type": "address"
        },
        {
          "name": "_worker",
          "type": "address"
        },
        {
          "name": "_amount",
          "type": "uint256"
        }
      ],
      "name": "seizeForTask",
      "outputs": [
        {
          "name": "",
          "type": "bool"
        }
      ],
      "payable": false,
      "stateMutability": "nonpayable",
      "type": "function"
    },
    {
      "constant": false,
      "inputs": [
        {
          "name": "_taskID",
          "type": "address"
        }
      ],
      "name": "claimFailedConsensus",
      "outputs": [
        {
          "name": "",
          "type": "bool"
        }
      ],
      "payable": false,
      "stateMutability": "nonpayable",
      "type": "function"
    },
    {
      "constant": false,
      "inputs": [
        {
          "name": "_taskID",
          "type": "address"
        },
        {
          "name": "_user",
          "type": "address"
        },
        {
          "name": "_amount",
          "type": "uint256"
        }
      ],
      "name": "unlockForTask",
      "outputs": [
        {
          "name": "",
          "type": "bool"
        }
      ],
      "payable": false,
      "stateMutability": "nonpayable",
      "type": "function"
    },
    {
      "constant": false,
      "inputs": [
        {
          "name": "_workerPool",
          "type": "address"
        },
        {
          "name": "_worker",
          "type": "address"
        }
      ],
      "name": "unsubscribeToPool",
      "outputs": [
        {
          "name": "unsubscribed",
          "type": "bool"
        }
      ],
      "payable": false,
      "stateMutability": "nonpayable",
      "type": "function"
    },
    {
      "constant": false,
      "inputs": [
        {
          "name": "_workerPool",
          "type": "address"
        },
        {
          "name": "_app",
          "type": "address"
        },
        {
          "name": "_dataset",
          "type": "address"
        },
        {
          "name": "_taskParam",
          "type": "string"
        },
        {
          "name": "_taskCost",
          "type": "uint256"
        },
        {
          "name": "_askedTrust",
          "type": "uint256"
        },
        {
          "name": "_dappCallback",
          "type": "bool"
        }
      ],
      "name": "createTaskRequest",
      "outputs": [
        {
          "name": "createdTaskRequest",
          "type": "address"
        }
      ],
      "payable": false,
      "stateMutability": "nonpayable",
      "type": "function"
    },
    {
      "constant": true,
      "inputs": [],
      "name": "rlc",
      "outputs": [
        {
          "name": "",
          "type": "address"
        }
      ],
      "payable": false,
      "stateMutability": "view",
      "type": "function"
    },
    {
      "constant": false,
      "inputs": [
        {
          "name": "_workerPool",
          "type": "address"
        }
      ],
      "name": "subscribeToPool",
      "outputs": [
        {
          "name": "subscribed",
          "type": "bool"
        }
      ],
      "payable": false,
      "stateMutability": "nonpayable",
      "type": "function"
    },
    {
      "constant": false,
      "inputs": [
        {
          "name": "_amount",
          "type": "uint256"
        }
      ],
      "name": "deposit",
      "outputs": [
        {
          "name": "",
          "type": "bool"
        }
      ],
      "payable": false,
      "stateMutability": "nonpayable",
      "type": "function"
    },
    {
      "constant": false,
      "inputs": [
        {
          "name": "_workerPool",
          "type": "address"
        }
      ],
      "name": "openWorkerPool",
      "outputs": [
        {
          "name": "",
          "type": "bool"
        }
      ],
      "payable": false,
      "stateMutability": "nonpayable",
      "type": "function"
    },
    {
      "constant": true,
      "inputs": [
        {
          "name": "",
          "type": "address"
        }
      ],
      "name": "m_accounts",
      "outputs": [
        {
          "name": "stake",
          "type": "uint256"
        },
        {
          "name": "locked",
          "type": "uint256"
        }
      ],
      "payable": false,
      "stateMutability": "view",
      "type": "function"
    },
    {
      "constant": false,
      "inputs": [
        {
          "name": "_taskID",
          "type": "address"
        },
        {
          "name": "_worker",
          "type": "address"
        },
        {
          "name": "_amount",
          "type": "uint256"
        }
      ],
      "name": "rewardForTask",
      "outputs": [
        {
          "name": "",
          "type": "bool"
        }
      ],
      "payable": false,
      "stateMutability": "nonpayable",
      "type": "function"
    },
    {
      "constant": false,
      "inputs": [
        {
          "name": "_appName",
          "type": "string"
        },
        {
          "name": "_appPrice",
          "type": "uint256"
        },
        {
          "name": "_appParam",
          "type": "string"
        },
        {
          "name": "_appUri",
          "type": "string"
        }
      ],
      "name": "createApp",
      "outputs": [
        {
          "name": "createdApp",
          "type": "address"
        }
      ],
      "payable": false,
      "stateMutability": "nonpayable",
      "type": "function"
    },
    {
      "constant": false,
      "inputs": [
        {
          "name": "_taskID",
          "type": "address"
        }
      ],
      "name": "acceptTask",
      "outputs": [
        {
          "name": "",
          "type": "bool"
        }
      ],
      "payable": false,
      "stateMutability": "nonpayable",
      "type": "function"
    },
    {
      "constant": true,
      "inputs": [
        {
          "name": "_worker",
          "type": "address"
        }
      ],
      "name": "getWorkerStatus",
      "outputs": [
        {
          "name": "workerPool",
          "type": "address"
        },
        {
          "name": "accurateContributions",
          "type": "uint256"
        },
        {
          "name": "faultyContributions",
          "type": "uint256"
        }
      ],
      "payable": false,
      "stateMutability": "view",
      "type": "function"
    },
    {
      "constant": false,
      "inputs": [
        {
          "name": "_taskID",
          "type": "address"
        },
        {
          "name": "_stdout",
          "type": "string"
        },
        {
          "name": "_stderr",
          "type": "string"
        },
        {
          "name": "_uri",
          "type": "string"
        },
        {
          "name": "_schedulerReward",
          "type": "uint256"
        }
      ],
      "name": "finalizedTask",
      "outputs": [
        {
          "name": "",
          "type": "bool"
        }
      ],
      "payable": false,
      "stateMutability": "nonpayable",
      "type": "function"
    },
    {
      "inputs": [
        {
          "name": "_tokenAddress",
          "type": "address"
        },
        {
          "name": "_workerPoolHubAddress",
          "type": "address"
        },
        {
          "name": "_appHubAddress",
          "type": "address"
        },
        {
          "name": "_datasetHubAddress",
          "type": "address"
        },
        {
          "name": "_taskRequestHubAddress",
          "type": "address"
        }
      ],
      "payable": false,
      "stateMutability": "nonpayable",
      "type": "constructor"
    },
    {
      "anonymous": false,
      "inputs": [
        {
          "indexed": false,
          "name": "taskID",
          "type": "address"
        },
        {
          "indexed": true,
          "name": "workerPool",
          "type": "address"
        }
      ],
      "name": "TaskRequest",
      "type": "event"
    },
    {
      "anonymous": false,
      "inputs": [
        {
          "indexed": false,
          "name": "taskID",
          "type": "address"
        },
        {
          "indexed": true,
          "name": "workerPool",
          "type": "address"
        },
        {
          "indexed": false,
          "name": "workContributions",
          "type": "address"
        }
      ],
      "name": "TaskAccepted",
      "type": "event"
    },
    {
      "anonymous": false,
      "inputs": [
        {
          "indexed": false,
          "name": "taskID",
          "type": "address"
        },
        {
          "indexed": true,
          "name": "workerPool",
          "type": "address"
        }
      ],
      "name": "TaskCancelled",
      "type": "event"
    },
    {
      "anonymous": false,
      "inputs": [
        {
          "indexed": false,
          "name": "taskID",
          "type": "address"
        },
        {
          "indexed": false,
          "name": "workContributions",
          "type": "address"
        }
      ],
      "name": "TaskAborted",
      "type": "event"
    },
    {
      "anonymous": false,
      "inputs": [
        {
          "indexed": false,
          "name": "taskID",
          "type": "address"
        },
        {
          "indexed": false,
          "name": "workContributions",
          "type": "address"
        }
      ],
      "name": "TaskCompleted",
      "type": "event"
    },
    {
      "anonymous": false,
      "inputs": [
        {
          "indexed": true,
          "name": "workerPoolOwner",
          "type": "address"
        },
        {
          "indexed": true,
          "name": "workerPool",
          "type": "address"
        },
        {
          "indexed": false,
          "name": "name",
          "type": "string"
        }
      ],
      "name": "CreateWorkerPool",
      "type": "event"
    },
    {
      "anonymous": false,
      "inputs": [
        {
          "indexed": true,
          "name": "workerPool",
          "type": "address"
        }
      ],
      "name": "OpenWorkerPool",
      "type": "event"
    },
    {
      "anonymous": false,
      "inputs": [
        {
          "indexed": true,
          "name": "workerPool",
          "type": "address"
        }
      ],
      "name": "CloseWorkerPool",
      "type": "event"
    },
    {
      "anonymous": false,
      "inputs": [
        {
          "indexed": true,
          "name": "workerPool",
          "type": "address"
        },
        {
          "indexed": false,
          "name": "worker",
          "type": "address"
        }
      ],
      "name": "WorkerPoolUnsubscription",
      "type": "event"
    },
    {
      "anonymous": false,
      "inputs": [
        {
          "indexed": true,
          "name": "workerPool",
          "type": "address"
        },
        {
          "indexed": false,
          "name": "worker",
          "type": "address"
        }
      ],
      "name": "WorkerPoolSubscription",
      "type": "event"
    },
    {
      "anonymous": false,
      "inputs": [
        {
          "indexed": false,
          "name": "taskID",
          "type": "address"
        },
        {
          "indexed": true,
          "name": "worker",
          "type": "address"
        }
      ],
      "name": "FaultyContribution",
      "type": "event"
    },
    {
      "anonymous": false,
      "inputs": [
        {
          "indexed": false,
          "name": "taskID",
          "type": "address"
        },
        {
          "indexed": true,
          "name": "worker",
          "type": "address"
        }
      ],
      "name": "AccurateContribution",
      "type": "event"
    },
    {
      "anonymous": false,
      "inputs": [
        {
          "indexed": false,
          "name": "owner",
          "type": "address"
        },
        {
          "indexed": false,
          "name": "amount",
          "type": "uint256"
        }
      ],
      "name": "Deposit",
      "type": "event"
    },
    {
      "anonymous": false,
      "inputs": [
        {
          "indexed": false,
          "name": "owner",
          "type": "address"
        },
        {
          "indexed": false,
          "name": "amount",
          "type": "uint256"
        }
      ],
      "name": "Withdraw",
      "type": "event"
    },
    {
      "anonymous": false,
      "inputs": [
        {
          "indexed": false,
          "name": "user",
          "type": "address"
        },
        {
          "indexed": false,
          "name": "amount",
          "type": "uint256"
        }
      ],
      "name": "Reward",
      "type": "event"
    },
    {
      "anonymous": false,
      "inputs": [
        {
          "indexed": false,
          "name": "user",
          "type": "address"
        },
        {
          "indexed": false,
          "name": "amount",
          "type": "uint256"
        }
      ],
      "name": "Seize",
      "type": "event"
    }
  ],
  "bytecode": "0x6060604052341561000f57600080fd5b60405160a0806156398339810160405280805190602001909190805190602001909190805190602001909190805190602001909190805190602001909190505084600160006101000a81548173ffffffffffffffffffffffffffffffffffffffff021916908373ffffffffffffffffffffffffffffffffffffffff16021790555083600260006101000a81548173ffffffffffffffffffffffffffffffffffffffff021916908373ffffffffffffffffffffffffffffffffffffffff16021790555082600360006101000a81548173ffffffffffffffffffffffffffffffffffffffff021916908373ffffffffffffffffffffffffffffffffffffffff16021790555081600460006101000a81548173ffffffffffffffffffffffffffffffffffffffff021916908373ffffffffffffffffffffffffffffffffffffffff16021790555080600560006101000a81548173ffffffffffffffffffffffffffffffffffffffff021916908373ffffffffffffffffffffffffffffffffffffffff1602179055505050505050615491806101a86000396000f30060606040526004361061013d576000357c0100000000000000000000000000000000000000000000000000000000900463ffffffff168062e423c6146101425780631ed39a2714610193578063237994f41461023057806327b09104146102a05780632e1a7d4d146103cc578063448be440146104075780635f5152261461045457806376aafbdb146104a85780638537c515146104f9578063855e97701461057257806389869163146105eb5780638d877dd31461063c5780638e6ca7f9146106b55780639b60f50214610725578063b017c0361461083c578063b1ddd31214610891578063b6b55f25146108e2578063bba376e81461091d578063be02ee6e1461096e578063ca44a11f146109c2578063d03fb72114610a3b578063deba350f14610b67578063f69f190c14610bb8578063f8ecdc6914610c3f575b600080fd5b341561014d57600080fd5b610179600480803573ffffffffffffffffffffffffffffffffffffffff16906020019091905050610d62565b604051808215151515815260200191505060405180910390f35b341561019e57600080fd5b6101ee600480803590602001908201803590602001908080601f01602080910402602001604051908101604052809392919081815260200183838082843782019150505050505091905050610f07565b604051808273ffffffffffffffffffffffffffffffffffffffff1673ffffffffffffffffffffffffffffffffffffffff16815260200191505060405180910390f35b341561023b57600080fd5b610286600480803573ffffffffffffffffffffffffffffffffffffffff1690602001909190803573ffffffffffffffffffffffffffffffffffffffff169060200190919050506110f8565b604051808215151515815260200191505060405180910390f35b34156102ab57600080fd5b61038a600480803590602001908201803590602001908080601f0160208091040260200160405190810160405280939291908181526020018383808284378201915050505050509190803590602001909190803590602001908201803590602001908080601f0160208091040260200160405190810160405280939291908181526020018383808284378201915050505050509190803590602001908201803590602001908080601f016020809104026020016040519081016040528093929190818152602001838380828437820191505050505050919050506112ad565b604051808273ffffffffffffffffffffffffffffffffffffffff1673ffffffffffffffffffffffffffffffffffffffff16815260200191505060405180910390f35b34156103d757600080fd5b6103ed60048080359060200190919050506114b9565b604051808215151515815260200191505060405180910390f35b341561041257600080fd5b61043e600480803573ffffffffffffffffffffffffffffffffffffffff169060200190919050506116bb565b6040518082815260200191505060405180910390f35b341561045f57600080fd5b61048b600480803573ffffffffffffffffffffffffffffffffffffffff169060200190919050506117a4565b604051808381526020018281526020019250505060405180910390f35b34156104b357600080fd5b6104df600480803573ffffffffffffffffffffffffffffffffffffffff16906020019091905050611834565b604051808215151515815260200191505060405180910390f35b341561050457600080fd5b610558600480803573ffffffffffffffffffffffffffffffffffffffff1690602001909190803573ffffffffffffffffffffffffffffffffffffffff16906020019091908035906020019091905050611b4f565b604051808215151515815260200191505060405180910390f35b341561057d57600080fd5b6105d1600480803573ffffffffffffffffffffffffffffffffffffffff1690602001909190803573ffffffffffffffffffffffffffffffffffffffff16906020019091908035906020019091905050611d27565b604051808215151515815260200191505060405180910390f35b34156105f657600080fd5b610622600480803573ffffffffffffffffffffffffffffffffffffffff16906020019091905050611fe1565b604051808215151515815260200191505060405180910390f35b341561064757600080fd5b61069b600480803573ffffffffffffffffffffffffffffffffffffffff1690602001909190803573ffffffffffffffffffffffffffffffffffffffff16906020019091908035906020019091905050612376565b604051808215151515815260200191505060405180910390f35b34156106c057600080fd5b61070b600480803573ffffffffffffffffffffffffffffffffffffffff1690602001909190803573ffffffffffffffffffffffffffffffffffffffff1690602001909190505061254e565b604051808215151515815260200191505060405180910390f35b341561073057600080fd5b6107fa600480803573ffffffffffffffffffffffffffffffffffffffff1690602001909190803573ffffffffffffffffffffffffffffffffffffffff1690602001909190803573ffffffffffffffffffffffffffffffffffffffff1690602001909190803590602001908201803590602001908080601f0160208091040260200160405190810160405280939291908181526020018383808284378201915050505050509190803590602001909190803590602001909190803515159060200190919050506126f3565b604051808273ffffffffffffffffffffffffffffffffffffffff1673ffffffffffffffffffffffffffffffffffffffff16815260200191505060405180910390f35b341561084757600080fd5b61084f613ac6565b604051808273ffffffffffffffffffffffffffffffffffffffff1673ffffffffffffffffffffffffffffffffffffffff16815260200191505060405180910390f35b341561089c57600080fd5b6108c8600480803573ffffffffffffffffffffffffffffffffffffffff16906020019091905050613aec565b604051808215151515815260200191505060405180910390f35b34156108ed57600080fd5b6109036004808035906020019091905050613c5c565b604051808215151515815260200191505060405180910390f35b341561092857600080fd5b610954600480803573ffffffffffffffffffffffffffffffffffffffff16906020019091905050613e92565b604051808215151515815260200191505060405180910390f35b341561097957600080fd5b6109a5600480803573ffffffffffffffffffffffffffffffffffffffff16906020019091905050614037565b604051808381526020018281526020019250505060405180910390f35b34156109cd57600080fd5b610a21600480803573ffffffffffffffffffffffffffffffffffffffff1690602001909190803573ffffffffffffffffffffffffffffffffffffffff1690602001909190803590602001909190505061405b565b604051808215151515815260200191505060405180910390f35b3415610a4657600080fd5b610b25600480803590602001908201803590602001908080601f0160208091040260200160405190810160405280939291908181526020018383808284378201915050505050509190803590602001909190803590602001908201803590602001908080601f0160208091040260200160405190810160405280939291908181526020018383808284378201915050505050509190803590602001908201803590602001908080601f01602080910402602001604051908101604052809392919081815260200183838082843782019150505050505091905050614226565b604051808273ffffffffffffffffffffffffffffffffffffffff1673ffffffffffffffffffffffffffffffffffffffff16815260200191505060405180910390f35b3415610b7257600080fd5b610b9e600480803573ffffffffffffffffffffffffffffffffffffffff16906020019091905050614432565b604051808215151515815260200191505060405180910390f35b3415610bc357600080fd5b610bef600480803573ffffffffffffffffffffffffffffffffffffffff16906020019091905050614902565b604051808473ffffffffffffffffffffffffffffffffffffffff1673ffffffffffffffffffffffffffffffffffffffff168152602001838152602001828152602001935050505060405180910390f35b3415610c4a57600080fd5b610d48600480803573ffffffffffffffffffffffffffffffffffffffff1690602001909190803590602001908201803590602001908080601f0160208091040260200160405190810160405280939291908181526020018383808284378201915050505050509190803590602001908201803590602001908080601f0160208091040260200160405190810160405280939291908181526020018383808284378201915050505050509190803590602001908201803590602001908080601f01602080910402602001604051908101604052809392919081815260200183838082843782019150505050505091908035906020019091905050614a74565b604051808215151515815260200191505060405180910390f35b6000808290503373ffffffffffffffffffffffffffffffffffffffff168173ffffffffffffffffffffffffffffffffffffffff16638daa4caf6000604051602001526040518163ffffffff167c0100000000000000000000000000000000000000000000000000000000028152600401602060405180830381600087803b1515610deb57600080fd5b6102c65a03f11515610dfc57600080fd5b5050506040518051905073ffffffffffffffffffffffffffffffffffffffff16141515610e2857600080fd5b8073ffffffffffffffffffffffffffffffffffffffff166343d726d66000604051602001526040518163ffffffff167c0100000000000000000000000000000000000000000000000000000000028152600401602060405180830381600087803b1515610e9457600080fd5b6102c65a03f11515610ea557600080fd5b505050604051805190501515610eba57600080fd5b8273ffffffffffffffffffffffffffffffffffffffff167f9bd5937bafca7ff27268e444df6870f4547c3535f6ba2910436cbe102f92c47760405160405180910390a26001915050919050565b600080600260009054906101000a900473ffffffffffffffffffffffffffffffffffffffff1673ffffffffffffffffffffffffffffffffffffffff16631ed39a27846000604051602001526040518263ffffffff167c01000000000000000000000000000000000000000000000000000000000281526004018080602001828103825283818151815260200191508051906020019080838360005b83811015610fbd578082015181840152602081019050610fa2565b50505050905090810190601f168015610fea5780820380516001836020036101000a031916815260200191505b5092505050602060405180830381600087803b151561100857600080fd5b6102c65a03f1151561101957600080fd5b5050506040518051905090508073ffffffffffffffffffffffffffffffffffffffff163273ffffffffffffffffffffffffffffffffffffffff167f3c29f4ff1e741e465a1ad9cc4c0b8e51c046c021ca9e77172d812ae667f566f8856040518080602001828103825283818151815260200191508051906020019080838360005b838110156110b557808201518184015260208101905061109a565b50505050905090810190601f1680156110e25780820380516001836020036101000a031916815260200191505b509250505060405180910390a380915050919050565b6000600760008473ffffffffffffffffffffffffffffffffffffffff1673ffffffffffffffffffffffffffffffffffffffff16815260200190815260200160002060009054906101000a900473ffffffffffffffffffffffffffffffffffffffff1673ffffffffffffffffffffffffffffffffffffffff163373ffffffffffffffffffffffffffffffffffffffff1614151561119357600080fd5b6111e66001600e60008573ffffffffffffffffffffffffffffffffffffffff1673ffffffffffffffffffffffffffffffffffffffff1681526020019081526020016000205461531e90919063ffffffff16565b600e60008473ffffffffffffffffffffffffffffffffffffffff1673ffffffffffffffffffffffffffffffffffffffff168152602001908152602001600020819055508173ffffffffffffffffffffffffffffffffffffffff167fd21e70eb7104cb6f403402b79fe1c088dc56b69ecb7474ae68a3e861a5a6d49984604051808273ffffffffffffffffffffffffffffffffffffffff1673ffffffffffffffffffffffffffffffffffffffff16815260200191505060405180910390a26001905092915050565b600080600460009054906101000a900473ffffffffffffffffffffffffffffffffffffffff1673ffffffffffffffffffffffffffffffffffffffff166327b09104878787876000604051602001526040518563ffffffff167c010000000000000000000000000000000000000000000000000000000002815260040180806020018581526020018060200180602001848103845288818151815260200191508051906020019080838360005b83811015611374578082015181840152602081019050611359565b50505050905090810190601f1680156113a15780820380516001836020036101000a031916815260200191505b50848103835286818151815260200191508051906020019080838360005b838110156113da5780820151818401526020810190506113bf565b50505050905090810190601f1680156114075780820380516001836020036101000a031916815260200191505b50848103825285818151815260200191508051906020019080838360005b83811015611440578082015181840152602081019050611425565b50505050905090810190601f16801561146d5780820380516001836020036101000a031916815260200191505b50975050505050505050602060405180830381600087803b151561149057600080fd5b6102c65a03f115156114a157600080fd5b50505060405180519050905080915050949350505050565b600061150f826000803373ffffffffffffffffffffffffffffffffffffffff1673ffffffffffffffffffffffffffffffffffffffff1681526020019081526020016000206000015461533c90919063ffffffff16565b6000803373ffffffffffffffffffffffffffffffffffffffff1673ffffffffffffffffffffffffffffffffffffffff16815260200190815260200160002060000181905550600160009054906101000a900473ffffffffffffffffffffffffffffffffffffffff1673ffffffffffffffffffffffffffffffffffffffff1663a9059cbb33846000604051602001526040518363ffffffff167c0100000000000000000000000000000000000000000000000000000000028152600401808373ffffffffffffffffffffffffffffffffffffffff1673ffffffffffffffffffffffffffffffffffffffff16815260200182815260200192505050602060405180830381600087803b151561162157600080fd5b6102c65a03f1151561163257600080fd5b50505060405180519050151561164757600080fd5b7f884edad9ce6fa2440d8a54cc123490eb96d2768479d49ff9c7366125a94243643383604051808373ffffffffffffffffffffffffffffffffffffffff1673ffffffffffffffffffffffffffffffffffffffff1681526020018281526020019250505060405180910390a160019050919050565b6000600560009054906101000a900473ffffffffffffffffffffffffffffffffffffffff1673ffffffffffffffffffffffffffffffffffffffff1663448be440836000604051602001526040518263ffffffff167c0100000000000000000000000000000000000000000000000000000000028152600401808273ffffffffffffffffffffffffffffffffffffffff1673ffffffffffffffffffffffffffffffffffffffff168152602001915050602060405180830381600087803b151561178257600080fd5b6102c65a03f1151561179357600080fd5b505050604051805190509050919050565b6000806000808473ffffffffffffffffffffffffffffffffffffffff1673ffffffffffffffffffffffffffffffffffffffff168152602001908152602001600020600001546000808573ffffffffffffffffffffffffffffffffffffffff1673ffffffffffffffffffffffffffffffffffffffff1681526020019081526020016000206001015491509150915091565b6000600a60008373ffffffffffffffffffffffffffffffffffffffff1673ffffffffffffffffffffffffffffffffffffffff16815260200190815260200160002060009054906101000a900473ffffffffffffffffffffffffffffffffffffffff1673ffffffffffffffffffffffffffffffffffffffff163373ffffffffffffffffffffffffffffffffffffffff161415156118cf57600080fd5b60001515600c60008473ffffffffffffffffffffffffffffffffffffffff1673ffffffffffffffffffffffffffffffffffffffff16815260200190815260200160002060009054906101000a900460ff16151514151561192e57600080fd5b61197733600b60008573ffffffffffffffffffffffffffffffffffffffff1673ffffffffffffffffffffffffffffffffffffffff16815260200190815260200160002054615355565b151561198257600080fd5b600560009054906101000a900473ffffffffffffffffffffffffffffffffffffffff1673ffffffffffffffffffffffffffffffffffffffff166347359137836000604051602001526040518263ffffffff167c0100000000000000000000000000000000000000000000000000000000028152600401808273ffffffffffffffffffffffffffffffffffffffff1673ffffffffffffffffffffffffffffffffffffffff168152602001915050602060405180830381600087803b1515611a4757600080fd5b6102c65a03f11515611a5857600080fd5b505050604051805190501515611a6d57600080fd5b600660008373ffffffffffffffffffffffffffffffffffffffff1673ffffffffffffffffffffffffffffffffffffffff16815260200190815260200160002060009054906101000a900473ffffffffffffffffffffffffffffffffffffffff1673ffffffffffffffffffffffffffffffffffffffff167f0e42256f465cbb1da1f2a38ed99bf97404e87fcb662b54c0c4a0224810e03b9883604051808273ffffffffffffffffffffffffffffffffffffffff1673ffffffffffffffffffffffffffffffffffffffff16815260200191505060405180910390a260019050919050565b6000600760008573ffffffffffffffffffffffffffffffffffffffff1673ffffffffffffffffffffffffffffffffffffffff16815260200190815260200160002060009054906101000a900473ffffffffffffffffffffffffffffffffffffffff1673ffffffffffffffffffffffffffffffffffffffff163373ffffffffffffffffffffffffffffffffffffffff16141515611bea57600080fd5b611c3e826000808673ffffffffffffffffffffffffffffffffffffffff1673ffffffffffffffffffffffffffffffffffffffff1681526020019081526020016000206000015461533c90919063ffffffff16565b6000808573ffffffffffffffffffffffffffffffffffffffff1673ffffffffffffffffffffffffffffffffffffffff16815260200190815260200160002060000181905550611cd7826000808673ffffffffffffffffffffffffffffffffffffffff1673ffffffffffffffffffffffffffffffffffffffff1681526020019081526020016000206001015461531e90919063ffffffff16565b6000808573ffffffffffffffffffffffffffffffffffffffff1673ffffffffffffffffffffffffffffffffffffffff16815260200190815260200160002060010181905550600190509392505050565b6000600760008573ffffffffffffffffffffffffffffffffffffffff1673ffffffffffffffffffffffffffffffffffffffff16815260200190815260200160002060009054906101000a900473ffffffffffffffffffffffffffffffffffffffff1673ffffffffffffffffffffffffffffffffffffffff163373ffffffffffffffffffffffffffffffffffffffff16141515611dc257600080fd5b611e156001600e60008673ffffffffffffffffffffffffffffffffffffffff1673ffffffffffffffffffffffffffffffffffffffff1681526020019081526020016000205461531e90919063ffffffff16565b600e60008573ffffffffffffffffffffffffffffffffffffffff1673ffffffffffffffffffffffffffffffffffffffff168152602001908152602001600020819055508273ffffffffffffffffffffffffffffffffffffffff167fd21e70eb7104cb6f403402b79fe1c088dc56b69ecb7474ae68a3e861a5a6d49985604051808273ffffffffffffffffffffffffffffffffffffffff1673ffffffffffffffffffffffffffffffffffffffff16815260200191505060405180910390a2611f26826000808673ffffffffffffffffffffffffffffffffffffffff1673ffffffffffffffffffffffffffffffffffffffff1681526020019081526020016000206001015461533c90919063ffffffff16565b6000808573ffffffffffffffffffffffffffffffffffffffff1673ffffffffffffffffffffffffffffffffffffffff168152602001908152602001600020600101819055507f4051ba94e08bb094159fc38391422b4b8ccfd2b1f8919c0eb37bb042d4b9cd8e8383604051808373ffffffffffffffffffffffffffffffffffffffff1673ffffffffffffffffffffffffffffffffffffffff1681526020018281526020019250505060405180910390a1600190509392505050565b600080600760008473ffffffffffffffffffffffffffffffffffffffff1673ffffffffffffffffffffffffffffffffffffffff16815260200190815260200160002060009054906101000a900473ffffffffffffffffffffffffffffffffffffffff1690508073ffffffffffffffffffffffffffffffffffffffff16631c6564556000604051602001526040518163ffffffff167c0100000000000000000000000000000000000000000000000000000000028152600401602060405180830381600087803b15156120b257600080fd5b6102c65a03f115156120c357600080fd5b5050506040518051905015156120d857600080fd5b612180600a60008573ffffffffffffffffffffffffffffffffffffffff1673ffffffffffffffffffffffffffffffffffffffff16815260200190815260200160002060009054906101000a900473ffffffffffffffffffffffffffffffffffffffff16600b60008673ffffffffffffffffffffffffffffffffffffffff1673ffffffffffffffffffffffffffffffffffffffff16815260200190815260200160002054615355565b151561218b57600080fd5b600560009054906101000a900473ffffffffffffffffffffffffffffffffffffffff1673ffffffffffffffffffffffffffffffffffffffff1663f7374e61846000604051602001526040518263ffffffff167c0100000000000000000000000000000000000000000000000000000000028152600401808273ffffffffffffffffffffffffffffffffffffffff1673ffffffffffffffffffffffffffffffffffffffff168152602001915050602060405180830381600087803b151561225057600080fd5b6102c65a03f1151561226157600080fd5b50505060405180519050151561227657600080fd5b7f1017c7c34775b0220408ff988a67b68f03429408cbe5ca9c2782a39f2ac30df683600760008673ffffffffffffffffffffffffffffffffffffffff1673ffffffffffffffffffffffffffffffffffffffff16815260200190815260200160002060009054906101000a900473ffffffffffffffffffffffffffffffffffffffff16604051808373ffffffffffffffffffffffffffffffffffffffff1673ffffffffffffffffffffffffffffffffffffffff1681526020018273ffffffffffffffffffffffffffffffffffffffff1673ffffffffffffffffffffffffffffffffffffffff1681526020019250505060405180910390a16001915050919050565b6000600760008573ffffffffffffffffffffffffffffffffffffffff1673ffffffffffffffffffffffffffffffffffffffff16815260200190815260200160002060009054906101000a900473ffffffffffffffffffffffffffffffffffffffff1673ffffffffffffffffffffffffffffffffffffffff163373ffffffffffffffffffffffffffffffffffffffff1614151561241157600080fd5b612465826000808673ffffffffffffffffffffffffffffffffffffffff1673ffffffffffffffffffffffffffffffffffffffff1681526020019081526020016000206001015461533c90919063ffffffff16565b6000808573ffffffffffffffffffffffffffffffffffffffff1673ffffffffffffffffffffffffffffffffffffffff168152602001908152602001600020600101819055506124fe826000808673ffffffffffffffffffffffffffffffffffffffff1673ffffffffffffffffffffffffffffffffffffffff1681526020019081526020016000206000015461531e90919063ffffffff16565b6000808573ffffffffffffffffffffffffffffffffffffffff1673ffffffffffffffffffffffffffffffffffffffff16815260200190815260200160002060000181905550600190509392505050565b6000600260009054906101000a900473ffffffffffffffffffffffffffffffffffffffff1673ffffffffffffffffffffffffffffffffffffffff16638e6ca7f984846000604051602001526040518363ffffffff167c0100000000000000000000000000000000000000000000000000000000028152600401808373ffffffffffffffffffffffffffffffffffffffff1673ffffffffffffffffffffffffffffffffffffffff1681526020018273ffffffffffffffffffffffffffffffffffffffff1673ffffffffffffffffffffffffffffffffffffffff16815260200192505050602060405180830381600087803b151561264957600080fd5b6102c65a03f1151561265a57600080fd5b50505060405180519050151561266f57600080fd5b8273ffffffffffffffffffffffffffffffffffffffff167f9644170e77fec17243f5fdc3519cba6d2162d1dda59af75508fd9a2005aeb78483604051808273ffffffffffffffffffffffffffffffffffffffff1673ffffffffffffffffffffffffffffffffffffffff16815260200191505060405180910390a26001905092915050565b600080600080600260009054906101000a900473ffffffffffffffffffffffffffffffffffffffff1673ffffffffffffffffffffffffffffffffffffffff1663fa33e1778c6000604051602001526040518263ffffffff167c0100000000000000000000000000000000000000000000000000000000028152600401808273ffffffffffffffffffffffffffffffffffffffff1673ffffffffffffffffffffffffffffffffffffffff168152602001915050602060405180830381600087803b15156127be57600080fd5b6102c65a03f115156127cf57600080fd5b5050506040518051905015156127e457600080fd5b600360009054906101000a900473ffffffffffffffffffffffffffffffffffffffff1673ffffffffffffffffffffffffffffffffffffffff1663098d0f4a8b6000604051602001526040518263ffffffff167c0100000000000000000000000000000000000000000000000000000000028152600401808273ffffffffffffffffffffffffffffffffffffffff1673ffffffffffffffffffffffffffffffffffffffff168152602001915050602060405180830381600087803b15156128a957600080fd5b6102c65a03f115156128ba57600080fd5b5050506040518051905015156128cf57600080fd5b600360009054906101000a900473ffffffffffffffffffffffffffffffffffffffff1673ffffffffffffffffffffffffffffffffffffffff16635575e6838b6000604051602001526040518263ffffffff167c0100000000000000000000000000000000000000000000000000000000028152600401808273ffffffffffffffffffffffffffffffffffffffff1673ffffffffffffffffffffffffffffffffffffffff168152602001915050602060405180830381600087803b151561299457600080fd5b6102c65a03f115156129a557600080fd5b5050506040518051905015156129ba57600080fd5b600360009054906101000a900473ffffffffffffffffffffffffffffffffffffffff1673ffffffffffffffffffffffffffffffffffffffff166368684b568b8d6000604051602001526040518363ffffffff167c0100000000000000000000000000000000000000000000000000000000028152600401808373ffffffffffffffffffffffffffffffffffffffff1673ffffffffffffffffffffffffffffffffffffffff1681526020018273ffffffffffffffffffffffffffffffffffffffff1673ffffffffffffffffffffffffffffffffffffffff16815260200192505050602060405180830381600087803b1515612ab357600080fd5b6102c65a03f11515612ac457600080fd5b505050604051805190501515612ad957600080fd5b600360009054906101000a900473ffffffffffffffffffffffffffffffffffffffff1673ffffffffffffffffffffffffffffffffffffffff16638f6d016f8b336000604051602001526040518363ffffffff167c0100000000000000000000000000000000000000000000000000000000028152600401808373ffffffffffffffffffffffffffffffffffffffff1673ffffffffffffffffffffffffffffffffffffffff1681526020018273ffffffffffffffffffffffffffffffffffffffff1673ffffffffffffffffffffffffffffffffffffffff16815260200192505050602060405180830381600087803b1515612bd257600080fd5b6102c65a03f11515612be357600080fd5b505050604051805190501515612bf857600080fd5b869250600073ffffffffffffffffffffffffffffffffffffffff168973ffffffffffffffffffffffffffffffffffffffff1614151561337857600460009054906101000a900473ffffffffffffffffffffffffffffffffffffffff1673ffffffffffffffffffffffffffffffffffffffff166316265b4e8a6000604051602001526040518263ffffffff167c0100000000000000000000000000000000000000000000000000000000028152600401808273ffffffffffffffffffffffffffffffffffffffff1673ffffffffffffffffffffffffffffffffffffffff168152602001915050602060405180830381600087803b1515612cf657600080fd5b6102c65a03f11515612d0757600080fd5b505050604051805190501515612d1c57600080fd5b600460009054906101000a900473ffffffffffffffffffffffffffffffffffffffff1673ffffffffffffffffffffffffffffffffffffffff16635575e6838a6000604051602001526040518263ffffffff167c0100000000000000000000000000000000000000000000000000000000028152600401808273ffffffffffffffffffffffffffffffffffffffff1673ffffffffffffffffffffffffffffffffffffffff168152602001915050602060405180830381600087803b1515612de157600080fd5b6102c65a03f11515612df257600080fd5b505050604051805190501515612e0757600080fd5b600460009054906101000a900473ffffffffffffffffffffffffffffffffffffffff1673ffffffffffffffffffffffffffffffffffffffff166368684b568a8d6000604051602001526040518363ffffffff167c0100000000000000000000000000000000000000000000000000000000028152600401808373ffffffffffffffffffffffffffffffffffffffff1673ffffffffffffffffffffffffffffffffffffffff1681526020018273ffffffffffffffffffffffffffffffffffffffff1673ffffffffffffffffffffffffffffffffffffffff16815260200192505050602060405180830381600087803b1515612f0057600080fd5b6102c65a03f11515612f1157600080fd5b505050604051805190501515612f2657600080fd5b600460009054906101000a900473ffffffffffffffffffffffffffffffffffffffff1673ffffffffffffffffffffffffffffffffffffffff1663918f66b78a8c6000604051602001526040518363ffffffff167c0100000000000000000000000000000000000000000000000000000000028152600401808373ffffffffffffffffffffffffffffffffffffffff1673ffffffffffffffffffffffffffffffffffffffff1681526020018273ffffffffffffffffffffffffffffffffffffffff1673ffffffffffffffffffffffffffffffffffffffff16815260200192505050602060405180830381600087803b151561301f57600080fd5b6102c65a03f1151561303057600080fd5b50505060405180519050151561304557600080fd5b600460009054906101000a900473ffffffffffffffffffffffffffffffffffffffff1673ffffffffffffffffffffffffffffffffffffffff16638f6d016f8a336000604051602001526040518363ffffffff167c0100000000000000000000000000000000000000000000000000000000028152600401808373ffffffffffffffffffffffffffffffffffffffff1673ffffffffffffffffffffffffffffffffffffffff1681526020018273ffffffffffffffffffffffffffffffffffffffff1673ffffffffffffffffffffffffffffffffffffffff16815260200192505050602060405180830381600087803b151561313e57600080fd5b6102c65a03f1151561314f57600080fd5b50505060405180519050151561316457600080fd5b600360009054906101000a900473ffffffffffffffffffffffffffffffffffffffff1673ffffffffffffffffffffffffffffffffffffffff166376bc70c08b8b6000604051602001526040518363ffffffff167c0100000000000000000000000000000000000000000000000000000000028152600401808373ffffffffffffffffffffffffffffffffffffffff1673ffffffffffffffffffffffffffffffffffffffff1681526020018273ffffffffffffffffffffffffffffffffffffffff1673ffffffffffffffffffffffffffffffffffffffff16815260200192505050602060405180830381600087803b151561325d57600080fd5b6102c65a03f1151561326e57600080fd5b50505060405180519050151561328357600080fd5b613375600460009054906101000a900473ffffffffffffffffffffffffffffffffffffffff1673ffffffffffffffffffffffffffffffffffffffff166323cf57a98b6000604051602001526040518263ffffffff167c0100000000000000000000000000000000000000000000000000000000028152600401808273ffffffffffffffffffffffffffffffffffffffff1673ffffffffffffffffffffffffffffffffffffffff168152602001915050602060405180830381600087803b151561334b57600080fd5b6102c65a03f1151561335c57600080fd5b505050604051805190508461531e90919063ffffffff16565b92505b8a91508173ffffffffffffffffffffffffffffffffffffffff166347535d7b6000604051602001526040518163ffffffff167c0100000000000000000000000000000000000000000000000000000000028152600401602060405180830381600087803b15156133e757600080fd5b6102c65a03f115156133f857600080fd5b50505060405180519050151561340d57600080fd5b6134ff600360009054906101000a900473ffffffffffffffffffffffffffffffffffffffff1673ffffffffffffffffffffffffffffffffffffffff1663b35bbe8d8c6000604051602001526040518263ffffffff167c0100000000000000000000000000000000000000000000000000000000028152600401808273ffffffffffffffffffffffffffffffffffffffff1673ffffffffffffffffffffffffffffffffffffffff168152602001915050602060405180830381600087803b15156134d557600080fd5b6102c65a03f115156134e657600080fd5b505050604051805190508461531e90919063ffffffff16565b9250826000803373ffffffffffffffffffffffffffffffffffffffff1673ffffffffffffffffffffffffffffffffffffffff16815260200190815260200160002060000154101561355f5761355383613c5c565b151561355e57600080fd5b5b6135b3836000803373ffffffffffffffffffffffffffffffffffffffff1673ffffffffffffffffffffffffffffffffffffffff1681526020019081526020016000206000015461533c90919063ffffffff16565b6000803373ffffffffffffffffffffffffffffffffffffffff1673ffffffffffffffffffffffffffffffffffffffff16815260200190815260200160002060000181905550600560009054906101000a900473ffffffffffffffffffffffffffffffffffffffff1673ffffffffffffffffffffffffffffffffffffffff1663d4dfc55a338d8d8d8d8d8d8d6000604051602001526040518963ffffffff167c0100000000000000000000000000000000000000000000000000000000028152600401808973ffffffffffffffffffffffffffffffffffffffff1673ffffffffffffffffffffffffffffffffffffffff1681526020018873ffffffffffffffffffffffffffffffffffffffff1673ffffffffffffffffffffffffffffffffffffffff1681526020018773ffffffffffffffffffffffffffffffffffffffff1673ffffffffffffffffffffffffffffffffffffffff1681526020018673ffffffffffffffffffffffffffffffffffffffff1673ffffffffffffffffffffffffffffffffffffffff1681526020018060200185815260200184815260200183151515158152602001828103825286818151815260200191508051906020019080838360005b83811015613790578082015181840152602081019050613775565b50505050905090810190601f1680156137bd5780820380516001836020036101000a031916815260200191505b509950505050505050505050602060405180830381600087803b15156137e257600080fd5b6102c65a03f115156137f357600080fd5b5050506040518051905090508a600660008373ffffffffffffffffffffffffffffffffffffffff1673ffffffffffffffffffffffffffffffffffffffff16815260200190815260200160002060006101000a81548173ffffffffffffffffffffffffffffffffffffffff021916908373ffffffffffffffffffffffffffffffffffffffff16021790555089600860008373ffffffffffffffffffffffffffffffffffffffff1673ffffffffffffffffffffffffffffffffffffffff16815260200190815260200160002060006101000a81548173ffffffffffffffffffffffffffffffffffffffff021916908373ffffffffffffffffffffffffffffffffffffffff16021790555088600960008373ffffffffffffffffffffffffffffffffffffffff1673ffffffffffffffffffffffffffffffffffffffff16815260200190815260200160002060006101000a81548173ffffffffffffffffffffffffffffffffffffffff021916908373ffffffffffffffffffffffffffffffffffffffff16021790555033600a60008373ffffffffffffffffffffffffffffffffffffffff1673ffffffffffffffffffffffffffffffffffffffff16815260200190815260200160002060006101000a81548173ffffffffffffffffffffffffffffffffffffffff021916908373ffffffffffffffffffffffffffffffffffffffff16021790555082600b60008373ffffffffffffffffffffffffffffffffffffffff1673ffffffffffffffffffffffffffffffffffffffff168152602001908152602001600020819055508a73ffffffffffffffffffffffffffffffffffffffff167f86f2ec821b782f063be107305c65437c0c4f8118ff9c4e8400818fb4b14aec6f82604051808273ffffffffffffffffffffffffffffffffffffffff1673ffffffffffffffffffffffffffffffffffffffff16815260200191505060405180910390a2809350505050979650505050505050565b600160009054906101000a900473ffffffffffffffffffffffffffffffffffffffff1681565b6000600260009054906101000a900473ffffffffffffffffffffffffffffffffffffffff1673ffffffffffffffffffffffffffffffffffffffff1663b1ddd312836000604051602001526040518263ffffffff167c0100000000000000000000000000000000000000000000000000000000028152600401808273ffffffffffffffffffffffffffffffffffffffff1673ffffffffffffffffffffffffffffffffffffffff168152602001915050602060405180830381600087803b1515613bb357600080fd5b6102c65a03f11515613bc457600080fd5b505050604051805190501515613bd957600080fd5b8173ffffffffffffffffffffffffffffffffffffffff167fd3548f8b6a2a11c4a35ef5a16dbf7142c9db5163c7d46e7f66482664277cff0732604051808273ffffffffffffffffffffffffffffffffffffffff1673ffffffffffffffffffffffffffffffffffffffff16815260200191505060405180910390a260019050919050565b6000600160009054906101000a900473ffffffffffffffffffffffffffffffffffffffff1673ffffffffffffffffffffffffffffffffffffffff166323b872dd3330856000604051602001526040518463ffffffff167c0100000000000000000000000000000000000000000000000000000000028152600401808473ffffffffffffffffffffffffffffffffffffffff1673ffffffffffffffffffffffffffffffffffffffff1681526020018373ffffffffffffffffffffffffffffffffffffffff1673ffffffffffffffffffffffffffffffffffffffff1681526020018281526020019350505050602060405180830381600087803b1515613d5f57600080fd5b6102c65a03f11515613d7057600080fd5b505050604051805190501515613d8557600080fd5b613dd9826000803373ffffffffffffffffffffffffffffffffffffffff1673ffffffffffffffffffffffffffffffffffffffff1681526020019081526020016000206000015461531e90919063ffffffff16565b6000803373ffffffffffffffffffffffffffffffffffffffff1673ffffffffffffffffffffffffffffffffffffffff168152602001908152602001600020600001819055507fe1fffcc4923d04b559f4d29a8bfc6cda04eb5b0d3c460751c2402c5c5cc9109c3383604051808373ffffffffffffffffffffffffffffffffffffffff1673ffffffffffffffffffffffffffffffffffffffff1681526020018281526020019250505060405180910390a160019050919050565b6000808290503373ffffffffffffffffffffffffffffffffffffffff168173ffffffffffffffffffffffffffffffffffffffff16638daa4caf6000604051602001526040518163ffffffff167c0100000000000000000000000000000000000000000000000000000000028152600401602060405180830381600087803b1515613f1b57600080fd5b6102c65a03f11515613f2c57600080fd5b5050506040518051905073ffffffffffffffffffffffffffffffffffffffff16141515613f5857600080fd5b8073ffffffffffffffffffffffffffffffffffffffff1663fcfff16f6000604051602001526040518163ffffffff167c0100000000000000000000000000000000000000000000000000000000028152600401602060405180830381600087803b1515613fc457600080fd5b6102c65a03f11515613fd557600080fd5b505050604051805190501515613fea57600080fd5b8273ffffffffffffffffffffffffffffffffffffffff167f48f19626656fa2b916046af8d89884111985c4ec7371b02dfb3b68c0687f9cf360405160405180910390a26001915050919050565b60006020528060005260406000206000915090508060000154908060010154905082565b6000600760008573ffffffffffffffffffffffffffffffffffffffff1673ffffffffffffffffffffffffffffffffffffffff16815260200190815260200160002060009054906101000a900473ffffffffffffffffffffffffffffffffffffffff1673ffffffffffffffffffffffffffffffffffffffff163373ffffffffffffffffffffffffffffffffffffffff161415156140f657600080fd5b6141496001600d60008673ffffffffffffffffffffffffffffffffffffffff1673ffffffffffffffffffffffffffffffffffffffff1681526020019081526020016000205461531e90919063ffffffff16565b600d60008573ffffffffffffffffffffffffffffffffffffffff1673ffffffffffffffffffffffffffffffffffffffff168152602001908152602001600020819055508273ffffffffffffffffffffffffffffffffffffffff167f98b231d22df4a95e9d99b5d3f4d25fab5a821c22d7f517a522731c2892ed453585604051808273ffffffffffffffffffffffffffffffffffffffff1673ffffffffffffffffffffffffffffffffffffffff16815260200191505060405180910390a26142108383615355565b151561421b57600080fd5b600190509392505050565b600080600360009054906101000a900473ffffffffffffffffffffffffffffffffffffffff1673ffffffffffffffffffffffffffffffffffffffff1663d03fb721878787876000604051602001526040518563ffffffff167c010000000000000000000000000000000000000000000000000000000002815260040180806020018581526020018060200180602001848103845288818151815260200191508051906020019080838360005b838110156142ed5780820151818401526020810190506142d2565b50505050905090810190601f16801561431a5780820380516001836020036101000a031916815260200191505b50848103835286818151815260200191508051906020019080838360005b83811015614353578082015181840152602081019050614338565b50505050905090810190601f1680156143805780820380516001836020036101000a031916815260200191505b50848103825285818151815260200191508051906020019080838360005b838110156143b957808201518184015260208101905061439e565b50505050905090810190601f1680156143e65780820380516001836020036101000a031916815260200191505b50975050505050505050602060405180830381600087803b151561440957600080fd5b6102c65a03f1151561441a57600080fd5b50505060405180519050905080915050949350505050565b6000806000600660008573ffffffffffffffffffffffffffffffffffffffff1673ffffffffffffffffffffffffffffffffffffffff16815260200190815260200160002060009054906101000a900473ffffffffffffffffffffffffffffffffffffffff1691508173ffffffffffffffffffffffffffffffffffffffff1663deff41c16000604051602001526040518163ffffffff167c0100000000000000000000000000000000000000000000000000000000028152600401602060405180830381600087803b151561450557600080fd5b6102c65a03f1151561451657600080fd5b5050506040518051905073ffffffffffffffffffffffffffffffffffffffff163373ffffffffffffffffffffffffffffffffffffffff1614151561455957600080fd5b8173ffffffffffffffffffffffffffffffffffffffff1663539ccb3a8561457f876116bb565b6000604051602001526040518363ffffffff167c0100000000000000000000000000000000000000000000000000000000028152600401808373ffffffffffffffffffffffffffffffffffffffff1673ffffffffffffffffffffffffffffffffffffffff16815260200182815260200192505050602060405180830381600087803b151561460c57600080fd5b6102c65a03f1151561461d57600080fd5b50505060405180519050905080600760008673ffffffffffffffffffffffffffffffffffffffff1673ffffffffffffffffffffffffffffffffffffffff16815260200190815260200160002060006101000a81548173ffffffffffffffffffffffffffffffffffffffff021916908373ffffffffffffffffffffffffffffffffffffffff1602179055506001600c60008673ffffffffffffffffffffffffffffffffffffffff1673ffffffffffffffffffffffffffffffffffffffff16815260200190815260200160002060006101000a81548160ff021916908315150217905550600560009054906101000a900473ffffffffffffffffffffffffffffffffffffffff1673ffffffffffffffffffffffffffffffffffffffff166332b4b129856000604051602001526040518263ffffffff167c0100000000000000000000000000000000000000000000000000000000028152600401808273ffffffffffffffffffffffffffffffffffffffff1673ffffffffffffffffffffffffffffffffffffffff168152602001915050602060405180830381600087803b15156147c457600080fd5b6102c65a03f115156147d557600080fd5b5050506040518051905015156147ea57600080fd5b600660008573ffffffffffffffffffffffffffffffffffffffff1673ffffffffffffffffffffffffffffffffffffffff16815260200190815260200160002060009054906101000a900473ffffffffffffffffffffffffffffffffffffffff1673ffffffffffffffffffffffffffffffffffffffff167fccc7e2281c02148520bddd78977823fa8b1835a42bbf3e6cdfeef55b6e9e3a178583604051808373ffffffffffffffffffffffffffffffffffffffff1673ffffffffffffffffffffffffffffffffffffffff1681526020018273ffffffffffffffffffffffffffffffffffffffff1673ffffffffffffffffffffffffffffffffffffffff1681526020019250505060405180910390a2600192505050919050565b6000806000600260009054906101000a900473ffffffffffffffffffffffffffffffffffffffff1673ffffffffffffffffffffffffffffffffffffffff1663d440c6f3856000604051602001526040518263ffffffff167c0100000000000000000000000000000000000000000000000000000000028152600401808273ffffffffffffffffffffffffffffffffffffffff1673ffffffffffffffffffffffffffffffffffffffff168152602001915050602060405180830381600087803b15156149cc57600080fd5b6102c65a03f115156149dd57600080fd5b50505060405180519050600d60008673ffffffffffffffffffffffffffffffffffffffff1673ffffffffffffffffffffffffffffffffffffffff16815260200190815260200160002054600e60008773ffffffffffffffffffffffffffffffffffffffff1673ffffffffffffffffffffffffffffffffffffffff168152602001908152602001600020549250925092509193909250565b6000806000806000600760008b73ffffffffffffffffffffffffffffffffffffffff1673ffffffffffffffffffffffffffffffffffffffff16815260200190815260200160002060009054906101000a900473ffffffffffffffffffffffffffffffffffffffff1673ffffffffffffffffffffffffffffffffffffffff163373ffffffffffffffffffffffffffffffffffffffff16141515614b1557600080fd5b614b1f3287615355565b1515614b2a57600080fd5b600860008b73ffffffffffffffffffffffffffffffffffffffff1673ffffffffffffffffffffffffffffffffffffffff16815260200190815260200160002060009054906101000a900473ffffffffffffffffffffffffffffffffffffffff169350600360009054906101000a900473ffffffffffffffffffffffffffffffffffffffff1673ffffffffffffffffffffffffffffffffffffffff1663b35bbe8d856000604051602001526040518263ffffffff167c0100000000000000000000000000000000000000000000000000000000028152600401808273ffffffffffffffffffffffffffffffffffffffff1673ffffffffffffffffffffffffffffffffffffffff168152602001915050602060405180830381600087803b1515614c5157600080fd5b6102c65a03f11515614c6257600080fd5b5050506040518051905092506000831115614d6c57614d60600360009054906101000a900473ffffffffffffffffffffffffffffffffffffffff1673ffffffffffffffffffffffffffffffffffffffff1663ffb42b51866000604051602001526040518263ffffffff167c0100000000000000000000000000000000000000000000000000000000028152600401808273ffffffffffffffffffffffffffffffffffffffff1673ffffffffffffffffffffffffffffffffffffffff168152602001915050602060405180830381600087803b1515614d3f57600080fd5b6102c65a03f11515614d5057600080fd5b5050506040518051905084615355565b1515614d6b57600080fd5b5b600960008b73ffffffffffffffffffffffffffffffffffffffff1673ffffffffffffffffffffffffffffffffffffffff16815260200190815260200160002060009054906101000a900473ffffffffffffffffffffffffffffffffffffffff169150600073ffffffffffffffffffffffffffffffffffffffff168273ffffffffffffffffffffffffffffffffffffffff16141515614fe557600460009054906101000a900473ffffffffffffffffffffffffffffffffffffffff1673ffffffffffffffffffffffffffffffffffffffff166323cf57a9836000604051602001526040518263ffffffff167c0100000000000000000000000000000000000000000000000000000000028152600401808273ffffffffffffffffffffffffffffffffffffffff1673ffffffffffffffffffffffffffffffffffffffff168152602001915050602060405180830381600087803b1515614ec957600080fd5b6102c65a03f11515614eda57600080fd5b5050506040518051905090506000811115614fe457614fd8600460009054906101000a900473ffffffffffffffffffffffffffffffffffffffff1673ffffffffffffffffffffffffffffffffffffffff1663d5c4af96846000604051602001526040518263ffffffff167c0100000000000000000000000000000000000000000000000000000000028152600401808273ffffffffffffffffffffffffffffffffffffffff1673ffffffffffffffffffffffffffffffffffffffff168152602001915050602060405180830381600087803b1515614fb757600080fd5b6102c65a03f11515614fc857600080fd5b5050506040518051905082615355565b1515614fe357600080fd5b5b5b600560009054906101000a900473ffffffffffffffffffffffffffffffffffffffff1673ffffffffffffffffffffffffffffffffffffffff1663699045768b8b8b8b6000604051602001526040518563ffffffff167c0100000000000000000000000000000000000000000000000000000000028152600401808573ffffffffffffffffffffffffffffffffffffffff1673ffffffffffffffffffffffffffffffffffffffff168152602001806020018060200180602001848103845287818151815260200191508051906020019080838360005b838110156150d55780820151818401526020810190506150ba565b50505050905090810190601f1680156151025780820380516001836020036101000a031916815260200191505b50848103835286818151815260200191508051906020019080838360005b8381101561513b578082015181840152602081019050615120565b50505050905090810190601f1680156151685780820380516001836020036101000a031916815260200191505b50848103825285818151815260200191508051906020019080838360005b838110156151a1578082015181840152602081019050615186565b50505050905090810190601f1680156151ce5780820380516001836020036101000a031916815260200191505b50975050505050505050602060405180830381600087803b15156151f157600080fd5b6102c65a03f1151561520257600080fd5b50505060405180519050151561521757600080fd5b7f3539e9d7fc5ab39b3c91f9ef992ac376766766097c7d455339a55cca09bc791d8a600760008d73ffffffffffffffffffffffffffffffffffffffff1673ffffffffffffffffffffffffffffffffffffffff16815260200190815260200160002060009054906101000a900473ffffffffffffffffffffffffffffffffffffffff16604051808373ffffffffffffffffffffffffffffffffffffffff1673ffffffffffffffffffffffffffffffffffffffff1681526020018273ffffffffffffffffffffffffffffffffffffffff1673ffffffffffffffffffffffffffffffffffffffff1681526020019250505060405180910390a1600194505050505095945050505050565b600080828401905083811015151561533257fe5b8091505092915050565b600082821115151561534a57fe5b818303905092915050565b60006153ab826000808673ffffffffffffffffffffffffffffffffffffffff1673ffffffffffffffffffffffffffffffffffffffff1681526020019081526020016000206000015461531e90919063ffffffff16565b6000808573ffffffffffffffffffffffffffffffffffffffff1673ffffffffffffffffffffffffffffffffffffffff168152602001908152602001600020600001819055507f619caafabdd75649b302ba8419e48cccf64f37f1983ac4727cfb38b57703ffc98383604051808373ffffffffffffffffffffffffffffffffffffffff1673ffffffffffffffffffffffffffffffffffffffff1681526020018281526020019250505060405180910390a160019050929150505600a165627a7a72305820ac847fd47fbe338abf69726fbc634afa55038fd567909c35ca3e4c1d5771c1a90029",
  "source": "pragma solidity ^0.4.18;\n\nimport './AppHub.sol';\nimport './WorkerPoolHub.sol';\nimport './WorkerPool.sol';\nimport \"./Contributions.sol\";\nimport './DatasetHub.sol';\nimport './TaskRequestHub.sol';\nimport \"./SafeMathOZ.sol\";\nimport \"rlc-token/contracts/RLC.sol\";\n\n/**\n * @title IexecHub\n */\n\ncontract IexecHub\n{\n\tusing SafeMathOZ for uint256;\n\t//uint private constant WORKER_POOL_CREATION_STAKE = 5000; //updated by vote or super admin ?\n\t//uint private constant APP_CREATION_STAKE         = 5000; //updated by vote or super admin ?\n\t//uint private constant DATASET_CREATION_STAKE     = 5000; //updated by vote or super admin ?\n\t//uint private constant WORKER_MEMBERSHIP_STAKE    = 5000; //updated by vote or super admin ?\n\n\tstruct Account\n\t{\n\t\tuint256 stake;\n\t\tuint256 locked;\n\t}\n\t/**\n\t * Internal data: address to account mapping\n\t */\n\tmapping(address => Account) public m_accounts;\n\t/**\n\t * RLC contract for token transfers.\n\t */\n\tRLC public rlc;\n\n\tWorkerPoolHub  workerPoolHub;\n\tAppHub         appHub;\n\tDatasetHub     datasetHub;\n\tTaskRequestHub taskRequestHub;\n\n\tmapping (address => address) m_taskWorkerPoolAffectation;\n\tmapping (address => address) m_taskContributionsAffectation;\n\tmapping (address => address) m_taskAppAffectation;\n\tmapping (address => address) m_taskDatasetAffectation;\n\tmapping (address => address) m_taskRequesterAffectation;\n\tmapping (address => uint256) m_taskUserCost;\n\tmapping (address => bool)    m_acceptedTaskRequest;\n\n\t//worker => AccurateContributionsCount\n\tmapping(address => uint256)                  m_workerAccurateContributions;\n\t//worker => FaultyContributionsCount\n\tmapping(address => uint256)                  m_workerFaultyContributions;\n\n\t/**\n\t * Events\n\t */\n\tevent TaskRequest(address taskID, address indexed workerPool);\n\tevent TaskAccepted(address taskID, address indexed workerPool, address workContributions);\n\tevent TaskCancelled(address taskID, address indexed workerPool);\n\tevent TaskAborted(address taskID, address workContributions);\n\tevent TaskCompleted(address taskID, address workContributions);\n\n\tevent CreateWorkerPool(address indexed workerPoolOwner,address indexed workerPool,string  name);\n  event OpenWorkerPool(address indexed workerPool);\n\tevent CloseWorkerPool(address indexed workerPool);\n\tevent WorkerPoolUnsubscription(address indexed workerPool, address worker);\n  event WorkerPoolSubscription(address indexed workerPool, address worker);\n\n\tevent FaultyContribution(address taskID, address indexed worker);\n\tevent AccurateContribution(address taskID, address indexed worker);\n\n\tevent Deposit(address owner, uint256 amount);\n\tevent Withdraw(address owner, uint256 amount);\n\tevent Reward(address user, uint256 amount);\n\tevent Seize(address user, uint256 amount);\n\n\n\tfunction IexecHub(\n\t\taddress _tokenAddress,\n\t\taddress _workerPoolHubAddress,\n\t\taddress _appHubAddress,\n\t\taddress _datasetHubAddress,\n\t\taddress _taskRequestHubAddress)\n\tpublic\n\t{\n\t\trlc = RLC(_tokenAddress);\n\t\tworkerPoolHub  = WorkerPoolHub (_workerPoolHubAddress );\n\t\tappHub         = AppHub        (_appHubAddress        );\n\t\tdatasetHub     = DatasetHub    (_datasetHubAddress    );\n\t\ttaskRequestHub = TaskRequestHub(_taskRequestHubAddress);\n\t}\n\n\tfunction createWorkerPool(\n\t\tstring _name)\n\tpublic returns(address createdWorkerPool)\n\t{\n\t\t// add a staking and lock for the msg.sender scheduler. in order to prevent against pool creation spam ?\n\t\t//require(lock(msg.sender,WORKER_POOL_CREATION_STAKE)); ?\n\t\taddress newWorkerPool = workerPoolHub.createWorkerPool(_name);\n\t\tCreateWorkerPool(tx.origin,newWorkerPool,_name);\n\t\treturn newWorkerPool;\n\t}\n\n\tfunction createApp(\n\t\tstring  _appName,\n\t\tuint256 _appPrice,\n\t\tstring  _appParam,\n\t\tstring  _appUri)\n\tpublic returns(address createdApp)\n\t{\n\t\t//require(lock(msg.sender,APP_CREATION_STAKE));\t\t//prevent creation spam ?\n\t\taddress newApp = appHub.createApp(_appName,_appPrice,_appParam,_appUri);\n\t\treturn newApp;\n\t}\n\n\tfunction createDataset(\n\t\tstring  _datasetName,\n\t\tuint256 _datasetPrice,\n\t\tstring  _datasetParam,\n\t\tstring  _datasetUri)\n\tpublic returns(address createdDataset)\n\t{\n\t\t//require(lock(msg.sender,DATASET_CREATION_STAKE));\t\t//prevent creation spam ?\n\t\taddress newDataset = datasetHub.createDataset( _datasetName, _datasetPrice, _datasetParam, _datasetUri);\n\t\treturn newDataset;\n\t}\n\n\tfunction createTaskRequest(\n\t\taddress _workerPool,\n\t\taddress _app,\n\t\taddress _dataset,\n\t\tstring  _taskParam,\n\t\tuint    _taskCost,\n\t\tuint    _askedTrust,\n\t\tbool    _dappCallback)\n\tpublic returns(address createdTaskRequest)\n\t{\n\t\t// msg.sender = requester\n\n\t\trequire(workerPoolHub.isWorkerPoolRegistred(_workerPool));\n\n\t\t//APP\n\t\trequire(appHub.isAppRegistred     (_app             ));\n\t\trequire(appHub.isOpen             (_app             ));\n\t\trequire(appHub.isWorkerPoolAllowed(_app, _workerPool));\n\t\trequire(appHub.isRequesterAllowed (_app, msg.sender ));\n\n\t\t// userCost at least _taskCost\n\t\tuint256 userCost = _taskCost;\n\n\t\t//DATASET\n\t\tif (_dataset != address(0))\n\t\t{\n\t\t\trequire(datasetHub.isDatasetRegistred (_dataset             ));\n\t\t\trequire(datasetHub.isOpen             (_dataset             ));\n\t\t\trequire(datasetHub.isWorkerPoolAllowed(_dataset, _workerPool));\n\t\t\trequire(datasetHub.isAppAllowed       (_dataset, _app       ));\n\t\t\trequire(datasetHub.isRequesterAllowed (_dataset, msg.sender ));\n\t\t\trequire(appHub.isDatasetAllowed       (_app,     _dataset   ));\n\n\t\t\t// add optional datasetPrice for userCost\n\t\t\tuserCost = userCost.add(datasetHub.getDatasetPrice(_dataset));\n\n\t\t}\n\n\t\t//WORKER_POOL\n\t\tWorkerPool aPool = WorkerPool(_workerPool);\n\t\trequire(aPool.isOpen());\n\n\t\t// add optional appPrice  for userCost\n\t\tuserCost = userCost.add(appHub.getAppPrice(_app)); // dappPrice\n\n\t\t//msg.sender wanted here. not tx.origin. we can imagine a smart contract have RLC loaded and user can benefit from it.\n\t\tif(m_accounts[msg.sender].stake < userCost){\n\t\t\trequire(deposit(userCost));\n\t\t}\n\t\tm_accounts[msg.sender].stake  = m_accounts[msg.sender].stake.sub(userCost);\n\n\t\taddress newTaskRequest = taskRequestHub.createTaskRequest(\n\t\t\tmsg.sender, // requester\n\t\t\t_workerPool,\n\t\t\t_app,\n\t\t\t_dataset,\n\t\t\t_taskParam,\n\t\t\t_taskCost,\n\t\t\t_askedTrust,\n\t\t\t_dappCallback\n\t\t);\n\n\n\n\t\tm_taskWorkerPoolAffectation[newTaskRequest] = _workerPool;\n\t\tm_taskAppAffectation[newTaskRequest] =_app;\n\t\tm_taskDatasetAffectation[newTaskRequest] =_dataset;\n\t\tm_taskRequesterAffectation[newTaskRequest] =msg.sender;\n\n\t\tm_taskUserCost[newTaskRequest] = userCost;\n\t\t// address newTaskRequest will the taskID\n\t\tTaskRequest(newTaskRequest,_workerPool);\n\t\treturn newTaskRequest;\n\t}\n\n\tfunction acceptTask(address _taskID) public  returns (bool)\n\t{\n\n\t\tWorkerPool aPool = WorkerPool(m_taskWorkerPoolAffectation[_taskID]);\n\t\trequire(msg.sender == aPool.m_owner());\n\t\taddress contributions = aPool.acceptTask(_taskID,getTaskCost(_taskID));\n\t\tm_taskContributionsAffectation[_taskID] =contributions;\n\t\tm_acceptedTaskRequest[_taskID] = true;\n\t\trequire(taskRequestHub.setAccepted(_taskID));\n\t\tTaskAccepted(_taskID,m_taskWorkerPoolAffectation[_taskID],contributions);\n\t\treturn true;\n\t}\n\n\tfunction cancelTask(address _taskID) public returns (bool)\n\t{\n\t\trequire(msg.sender == m_taskRequesterAffectation[_taskID]);\n\t\trequire(m_acceptedTaskRequest[_taskID] == false);\n\t\trequire(reward(msg.sender,m_taskUserCost[_taskID]));\n\t\trequire(taskRequestHub.setCancelled(_taskID));\n\t\tTaskCancelled(_taskID,m_taskWorkerPoolAffectation[_taskID]);\n\t\treturn true;\n\t}\n\n\tfunction claimFailedConsensus(address _taskID) public /*only who ? everybody ?*/ returns (bool)\n\t{\n\t\tContributions aContributions = Contributions(m_taskContributionsAffectation[_taskID]);\n\t\trequire(aContributions.claimFailedConsensus());\n\t\trequire(reward(m_taskRequesterAffectation[_taskID],m_taskUserCost[_taskID]));\n\t\t//where worker contribution stake and scheduler stake goes ?\n\t\t// toto rponds : les stake vont au msg.sender entrainant une chasse aux sorcieres gnralises pour sniffer les workerpools\n\t\t//                avec formations de milices organise pour detecter cela et aussi des groupes de saboteurs. ahahah !\n\t  require(taskRequestHub.setAborted(_taskID));\n\t\tTaskAborted(_taskID,m_taskContributionsAffectation[_taskID]);\n\t\treturn true;\n\t}\n\n\tfunction finalizedTask(address _taskID, string _stdout, string _stderr, string _uri, uint256 _schedulerReward) public returns (bool)\n\t{\n\t\trequire(msg.sender == m_taskContributionsAffectation[_taskID]);\n\t\trequire(reward(tx.origin,_schedulerReward));\n\t\taddress appForTask = m_taskAppAffectation[_taskID];\n\t\tuint256 appPrice= appHub.getAppPrice(appForTask);\n\t\tif ( appPrice > 0 )\n\t\t{\n\t\t\trequire(reward(appHub.getAppOwner(appForTask),appPrice));\n\t\t\t\t// to unlock a stake ?\n\t\t}\n\t\taddress datasetForTask = m_taskDatasetAffectation[_taskID];\n\t\tif (datasetForTask != address(0))\n\t\t{\n\t\t\tuint256 datasetPrice = datasetHub.getDatasetPrice(datasetForTask);\n\t\t\tif ( datasetPrice > 0 )\n\t\t\t{\n\t\t\t\trequire(reward(datasetHub.getDatasetOwner(datasetForTask),datasetPrice));\n\t\t\t\t// to unlock a stake ?\n\t\t\t}\n\t\t}\n    require(taskRequestHub.setResult(_taskID,_stdout,_stderr,_uri));\n\t\t// incremente app and dataset reputation too  ?\n\t\tTaskCompleted(_taskID,m_taskContributionsAffectation[_taskID]);\n\t\treturn true;\n\t}\n\n\tfunction getWorkerStatus(address _worker) public view returns (address workerPool,uint256 accurateContributions,uint256 faultyContributions)\n\t{\n\t\treturn (workerPoolHub.getWorkerAffectation(_worker),m_workerAccurateContributions[_worker],m_workerFaultyContributions[_worker]);\n\t}\n\n\tfunction getTaskCost(address _taskID) public view returns (uint256 taskCost)\n\t{\n\t\treturn taskRequestHub.getTaskCost(_taskID);\n\t}\n\n\tfunction openWorkerPool(address _workerPool) public returns (bool)\n\t{\n\t\tWorkerPool aPool = WorkerPool(_workerPool);\n\t\trequire(aPool.getWorkerPoolOwner() == msg.sender);\n\t\trequire(aPool.open());\n\t  OpenWorkerPool(_workerPool);\n\t\treturn true;\n\t}\n\n\tfunction closeWorkerPool(address _workerPool) public returns (bool)\n\t{\n\t\tWorkerPool aPool= WorkerPool(_workerPool);\n\t\trequire(aPool.getWorkerPoolOwner() == msg.sender);\n\t\trequire(aPool.close());\n\t\tCloseWorkerPool(_workerPool);\n\t\treturn true;\n\t}\n\n\tfunction subscribeToPool(address _workerPool) public returns(bool subscribed)\n\t{\n\t\trequire(workerPoolHub.subscribeToPool(_workerPool));\n\t//\tlock(msg.sender,WORKER_MEMBERSHIP_STAKE);\n    WorkerPoolSubscription(_workerPool,tx.origin);\n\t\treturn true;\n\t}\n\n\tfunction unsubscribeToPool(address _workerPool,address _worker) public returns(bool unsubscribed)\n\t{\n\t\trequire(workerPoolHub.unsubscribeToPool(_workerPool,_worker));\n    WorkerPoolUnsubscription(_workerPool,_worker);\n\t\treturn true;\n\t}\n\n\tfunction addFaultyContribution(address _taskID, address _worker) public returns(bool added)\n\t{\n\t\trequire(msg.sender == m_taskContributionsAffectation[_taskID]);\n\t\tm_workerFaultyContributions[_worker]=m_workerFaultyContributions[_worker].add(1);\n\t\tFaultyContribution(_taskID,_worker);\n\t\treturn true;\n\t}\n\n\tfunction lockForTask(address _taskID, address _user, uint _amount) public returns (bool)\n\t{\n\t\trequire(msg.sender == m_taskContributionsAffectation[_taskID]);\n\t\tm_accounts[_user].stake  = m_accounts[_user].stake.sub(_amount);\n\t\tm_accounts[_user].locked = m_accounts[_user].locked.add(_amount);\n\t\treturn true;\n\t}\n\n\tfunction unlockForTask(address _taskID, address _user, uint _amount) public returns (bool)\n\t{\n\t\trequire(msg.sender == m_taskContributionsAffectation[_taskID]);\n\t\tm_accounts[_user].locked = m_accounts[_user].locked.sub(_amount);\n\t\tm_accounts[_user].stake  = m_accounts[_user].stake.add(_amount);\n\t\treturn true;\n\t}\n\n\tfunction rewardForTask(address _taskID, address _worker, uint _amount) public returns (bool)\n\t{\n\t\trequire(msg.sender == m_taskContributionsAffectation[_taskID]);\n\t\tm_workerAccurateContributions[_worker]=m_workerAccurateContributions[_worker].add(1);\n\t\tAccurateContribution(_taskID,_worker);\n\t\trequire(reward(_worker,_amount));\n\t\treturn true;\n\t}\n\n\tfunction seizeForTask(address _taskID, address _worker, uint _amount) public returns (bool)\n\t{\n\t\trequire(msg.sender == m_taskContributionsAffectation[_taskID]);\n\t\tm_workerFaultyContributions[_worker]=m_workerFaultyContributions[_worker].add(1);\n\t\tFaultyContribution(_taskID,_worker);\n\t\tm_accounts[_worker].locked = m_accounts[_worker].locked.sub(_amount);\n\t\tSeize(_worker,_amount);\n\t\treturn true;\n\t}\n\n\tfunction deposit(uint256 _amount) public returns (bool)\n\t{\n\t\t// TODO: is the transferFrom cancel is SafeMath throws ?\n\t\trequire(rlc.transferFrom(msg.sender, address(this), _amount));\n\t\tm_accounts[msg.sender].stake = m_accounts[msg.sender].stake.add(_amount);\n\t\tDeposit(msg.sender,_amount);\n\t\treturn true;\n\t}\n\tfunction withdraw(uint256 _amount) public returns (bool)\n\t{\n\t\tm_accounts[msg.sender].stake = m_accounts[msg.sender].stake.sub(_amount);\n\t\t// TODO: is the transferFrom cancel is SafeMath throws ?\n\t\trequire(rlc.transfer(msg.sender, _amount));\n\t\tWithdraw(msg.sender,_amount);\n\t\treturn true;\n\t}\n\tfunction checkBalance(address _owner) public view returns (uint stake, uint locked)\n\t{\n\t\treturn (m_accounts[_owner].stake, m_accounts[_owner].locked);\n\t}\n\t/**\n\t * Internal function\n\t */\n\tfunction reward(address _user, uint256 _amount) internal returns (bool)\n\t{\n\t\tm_accounts[_user].stake  = m_accounts[_user].stake.add(_amount);\n\t\tReward(_user,_amount);\n\t\treturn true;\n\t}\n\n}\n",
  "sourcePath": "/home/vagrant/iexecdev/PoCo/contracts/IexecHub.sol",
  "compiler": {
    "name": "solc",
    "version": "0.4.18+commit.9cf6e910.Emscripten.clang"
  },
  "schemaVersion": "1.0.1",
  "updatedAt": "2018-01-29T14:56:05.515Z"
}