{
  "contractName": "IexecRelayDelegate",
  "abi": [
    {
      "constant": true,
      "inputs": [],
      "name": "EIP712DOMAIN_SEPARATOR",
      "outputs": [
        {
          "name": "",
          "type": "bytes32"
        }
      ],
      "payable": false,
      "stateMutability": "view",
      "type": "function"
    },
    {
      "constant": true,
      "inputs": [],
      "name": "appregistry",
      "outputs": [
        {
          "name": "",
          "type": "address"
        }
      ],
      "payable": false,
      "stateMutability": "view",
      "type": "function"
    },
    {
      "constant": true,
      "inputs": [],
      "name": "WORKERPOOL_STAKE_RATIO",
      "outputs": [
        {
          "name": "",
          "type": "uint256"
        }
      ],
      "payable": false,
      "stateMutability": "view",
      "type": "function"
    },
    {
      "constant": true,
      "inputs": [],
      "name": "KITTY_RATIO",
      "outputs": [
        {
          "name": "",
          "type": "uint256"
        }
      ],
      "payable": false,
      "stateMutability": "view",
      "type": "function"
    },
    {
      "constant": true,
      "inputs": [],
      "name": "REVEAL_DEADLINE_RATIO",
      "outputs": [
        {
          "name": "",
          "type": "uint256"
        }
      ],
      "payable": false,
      "stateMutability": "view",
      "type": "function"
    },
    {
      "constant": true,
      "inputs": [],
      "name": "GROUPMEMBER_PURPOSE",
      "outputs": [
        {
          "name": "",
          "type": "uint256"
        }
      ],
      "payable": false,
      "stateMutability": "view",
      "type": "function"
    },
    {
      "constant": false,
      "inputs": [],
      "name": "renounceOwnership",
      "outputs": [],
      "payable": false,
      "stateMutability": "nonpayable",
      "type": "function"
    },
    {
      "constant": true,
      "inputs": [],
      "name": "CONTRIBUTION_DEADLINE_RATIO",
      "outputs": [
        {
          "name": "",
          "type": "uint256"
        }
      ],
      "payable": false,
      "stateMutability": "view",
      "type": "function"
    },
    {
      "constant": true,
      "inputs": [],
      "name": "owner",
      "outputs": [
        {
          "name": "",
          "type": "address"
        }
      ],
      "payable": false,
      "stateMutability": "view",
      "type": "function"
    },
    {
      "constant": true,
      "inputs": [],
      "name": "isOwner",
      "outputs": [
        {
          "name": "",
          "type": "bool"
        }
      ],
      "payable": false,
      "stateMutability": "view",
      "type": "function"
    },
    {
      "constant": true,
      "inputs": [],
      "name": "workerpoolregistry",
      "outputs": [
        {
          "name": "",
          "type": "address"
        }
      ],
      "payable": false,
      "stateMutability": "view",
      "type": "function"
    },
    {
      "constant": true,
      "inputs": [],
      "name": "FINAL_DEADLINE_RATIO",
      "outputs": [
        {
          "name": "",
          "type": "uint256"
        }
      ],
      "payable": false,
      "stateMutability": "view",
      "type": "function"
    },
    {
      "constant": true,
      "inputs": [],
      "name": "KITTY_ADDRESS",
      "outputs": [
        {
          "name": "",
          "type": "address"
        }
      ],
      "payable": false,
      "stateMutability": "view",
      "type": "function"
    },
    {
      "constant": true,
      "inputs": [],
      "name": "datasetregistry",
      "outputs": [
        {
          "name": "",
          "type": "address"
        }
      ],
      "payable": false,
      "stateMutability": "view",
      "type": "function"
    },
    {
      "constant": true,
      "inputs": [],
      "name": "KITTY_MIN",
      "outputs": [
        {
          "name": "",
          "type": "uint256"
        }
      ],
      "payable": false,
      "stateMutability": "view",
      "type": "function"
    },
    {
      "constant": false,
      "inputs": [
        {
          "name": "newOwner",
          "type": "address"
        }
      ],
      "name": "transferOwnership",
      "outputs": [],
      "payable": false,
      "stateMutability": "nonpayable",
      "type": "function"
    },
    {
      "anonymous": false,
      "inputs": [
        {
          "indexed": true,
          "name": "previousOwner",
          "type": "address"
        },
        {
          "indexed": true,
          "name": "newOwner",
          "type": "address"
        }
      ],
      "name": "OwnershipTransferred",
      "type": "event"
    },
    {
      "anonymous": false,
      "inputs": [
        {
          "components": [
            {
              "name": "app",
              "type": "address"
            },
            {
              "name": "appprice",
              "type": "uint256"
            },
            {
              "name": "volume",
              "type": "uint256"
            },
            {
              "name": "tag",
              "type": "bytes32"
            },
            {
              "name": "datasetrestrict",
              "type": "address"
            },
            {
              "name": "workerpoolrestrict",
              "type": "address"
            },
            {
              "name": "requesterrestrict",
              "type": "address"
            },
            {
              "name": "salt",
              "type": "bytes32"
            },
            {
              "name": "sign",
              "type": "bytes"
            }
          ],
          "indexed": false,
          "name": "apporder",
          "type": "tuple"
        }
      ],
      "name": "BroadcastAppOrder",
      "type": "event"
    },
    {
      "anonymous": false,
      "inputs": [
        {
          "components": [
            {
              "name": "dataset",
              "type": "address"
            },
            {
              "name": "datasetprice",
              "type": "uint256"
            },
            {
              "name": "volume",
              "type": "uint256"
            },
            {
              "name": "tag",
              "type": "bytes32"
            },
            {
              "name": "apprestrict",
              "type": "address"
            },
            {
              "name": "workerpoolrestrict",
              "type": "address"
            },
            {
              "name": "requesterrestrict",
              "type": "address"
            },
            {
              "name": "salt",
              "type": "bytes32"
            },
            {
              "name": "sign",
              "type": "bytes"
            }
          ],
          "indexed": false,
          "name": "datasetorder",
          "type": "tuple"
        }
      ],
      "name": "BroadcastDatasetOrder",
      "type": "event"
    },
    {
      "anonymous": false,
      "inputs": [
        {
          "components": [
            {
              "name": "workerpool",
              "type": "address"
            },
            {
              "name": "workerpoolprice",
              "type": "uint256"
            },
            {
              "name": "volume",
              "type": "uint256"
            },
            {
              "name": "tag",
              "type": "bytes32"
            },
            {
              "name": "category",
              "type": "uint256"
            },
            {
              "name": "trust",
              "type": "uint256"
            },
            {
              "name": "apprestrict",
              "type": "address"
            },
            {
              "name": "datasetrestrict",
              "type": "address"
            },
            {
              "name": "requesterrestrict",
              "type": "address"
            },
            {
              "name": "salt",
              "type": "bytes32"
            },
            {
              "name": "sign",
              "type": "bytes"
            }
          ],
          "indexed": false,
          "name": "workerpoolorder",
          "type": "tuple"
        }
      ],
      "name": "BroadcastWorkerpoolOrder",
      "type": "event"
    },
    {
      "anonymous": false,
      "inputs": [
        {
          "components": [
            {
              "name": "app",
              "type": "address"
            },
            {
              "name": "appmaxprice",
              "type": "uint256"
            },
            {
              "name": "dataset",
              "type": "address"
            },
            {
              "name": "datasetmaxprice",
              "type": "uint256"
            },
            {
              "name": "workerpool",
              "type": "address"
            },
            {
              "name": "workerpoolmaxprice",
              "type": "uint256"
            },
            {
              "name": "requester",
              "type": "address"
            },
            {
              "name": "volume",
              "type": "uint256"
            },
            {
              "name": "tag",
              "type": "bytes32"
            },
            {
              "name": "category",
              "type": "uint256"
            },
            {
              "name": "trust",
              "type": "uint256"
            },
            {
              "name": "beneficiary",
              "type": "address"
            },
            {
              "name": "callback",
              "type": "address"
            },
            {
              "name": "params",
              "type": "string"
            },
            {
              "name": "salt",
              "type": "bytes32"
            },
            {
              "name": "sign",
              "type": "bytes"
            }
          ],
          "indexed": false,
          "name": "requestorder",
          "type": "tuple"
        }
      ],
      "name": "BroadcastRequestOrder",
      "type": "event"
    },
    {
      "constant": false,
      "inputs": [
        {
          "components": [
            {
              "name": "app",
              "type": "address"
            },
            {
              "name": "appprice",
              "type": "uint256"
            },
            {
              "name": "volume",
              "type": "uint256"
            },
            {
              "name": "tag",
              "type": "bytes32"
            },
            {
              "name": "datasetrestrict",
              "type": "address"
            },
            {
              "name": "workerpoolrestrict",
              "type": "address"
            },
            {
              "name": "requesterrestrict",
              "type": "address"
            },
            {
              "name": "salt",
              "type": "bytes32"
            },
            {
              "name": "sign",
              "type": "bytes"
            }
          ],
          "name": "_apporder",
          "type": "tuple"
        }
      ],
      "name": "broadcastAppOrder",
      "outputs": [],
      "payable": false,
      "stateMutability": "nonpayable",
      "type": "function"
    },
    {
      "constant": false,
      "inputs": [
        {
          "components": [
            {
              "name": "dataset",
              "type": "address"
            },
            {
              "name": "datasetprice",
              "type": "uint256"
            },
            {
              "name": "volume",
              "type": "uint256"
            },
            {
              "name": "tag",
              "type": "bytes32"
            },
            {
              "name": "apprestrict",
              "type": "address"
            },
            {
              "name": "workerpoolrestrict",
              "type": "address"
            },
            {
              "name": "requesterrestrict",
              "type": "address"
            },
            {
              "name": "salt",
              "type": "bytes32"
            },
            {
              "name": "sign",
              "type": "bytes"
            }
          ],
          "name": "_datasetorder",
          "type": "tuple"
        }
      ],
      "name": "broadcastDatasetOrder",
      "outputs": [],
      "payable": false,
      "stateMutability": "nonpayable",
      "type": "function"
    },
    {
      "constant": false,
      "inputs": [
        {
          "components": [
            {
              "name": "workerpool",
              "type": "address"
            },
            {
              "name": "workerpoolprice",
              "type": "uint256"
            },
            {
              "name": "volume",
              "type": "uint256"
            },
            {
              "name": "tag",
              "type": "bytes32"
            },
            {
              "name": "category",
              "type": "uint256"
            },
            {
              "name": "trust",
              "type": "uint256"
            },
            {
              "name": "apprestrict",
              "type": "address"
            },
            {
              "name": "datasetrestrict",
              "type": "address"
            },
            {
              "name": "requesterrestrict",
              "type": "address"
            },
            {
              "name": "salt",
              "type": "bytes32"
            },
            {
              "name": "sign",
              "type": "bytes"
            }
          ],
          "name": "_workerpoolorder",
          "type": "tuple"
        }
      ],
      "name": "broadcastWorkerpoolOrder",
      "outputs": [],
      "payable": false,
      "stateMutability": "nonpayable",
      "type": "function"
    },
    {
      "constant": false,
      "inputs": [
        {
          "components": [
            {
              "name": "app",
              "type": "address"
            },
            {
              "name": "appmaxprice",
              "type": "uint256"
            },
            {
              "name": "dataset",
              "type": "address"
            },
            {
              "name": "datasetmaxprice",
              "type": "uint256"
            },
            {
              "name": "workerpool",
              "type": "address"
            },
            {
              "name": "workerpoolmaxprice",
              "type": "uint256"
            },
            {
              "name": "requester",
              "type": "address"
            },
            {
              "name": "volume",
              "type": "uint256"
            },
            {
              "name": "tag",
              "type": "bytes32"
            },
            {
              "name": "category",
              "type": "uint256"
            },
            {
              "name": "trust",
              "type": "uint256"
            },
            {
              "name": "beneficiary",
              "type": "address"
            },
            {
              "name": "callback",
              "type": "address"
            },
            {
              "name": "params",
              "type": "string"
            },
            {
              "name": "salt",
              "type": "bytes32"
            },
            {
              "name": "sign",
              "type": "bytes"
            }
          ],
          "name": "_requestorder",
          "type": "tuple"
        }
      ],
      "name": "broadcastRequestOrder",
      "outputs": [],
      "payable": false,
      "stateMutability": "nonpayable",
      "type": "function"
    }
  ],
  "bytecode": "0x60806040819052600080546001600160a01b03191633178082556001600160a01b031691600080516020610dd2833981519152908290a36100476001600160e01b0361004c16565b61013d565b61005d6001600160e01b036100d416565b61009c576040517f08c379a00000000000000000000000000000000000000000000000000000000081526004016100939061011e565b60405180910390fd5b600080546040516001600160a01b0390911690600080516020610dd2833981519152908390a3600080546001600160a01b0319169055565b6000546001600160a01b0316331490565b60006100f2602083610134565b7f4f776e61626c653a2063616c6c6572206973206e6f7420746865206f776e6572815260200192915050565b6020808252810161012e816100e5565b92915050565b90815260200190565b610c868061014c6000396000f3fe608060405234801561001057600080fd5b506004361061012c5760003560e01c80638da5cb5b116100ad5780639e986e81116100715780639e986e8114610201578063b1b11d2c14610209578063c52e9de114610211578063e2e7a8c114610224578063f2fde38b1461022c5761012c565b80638da5cb5b146101bc5780638f32d59b146101d157806390a0f546146101e657806390fc26b114610194578063947f5178146101ee5761012c565b806351152de1116100f457806351152de1146101945780635fde601d1461019c57806368a9ef1c146101a4578063715018a6146101ac5780637b244832146101b45761012c565b8063047411e71461013157806345b637a91461014f5780634693d172146101645780634c4692de146101795780634ec3b9e31461018c575b600080fd5b61013961023f565b6040516101469190610af8565b60405180910390f35b610157610245565b6040516101469190610b06565b610177610172366004610592565b610254565b005b61017761018736600461055d565b61028e565b6101396102bd565b6101396102c2565b6101396102c7565b6101396102cc565b6101776102d1565b610139610348565b6101c461034d565b6040516101469190610adc565b6101d961035c565b6040516101469190610aea565b61015761036d565b6101776101fc3660046105c7565b61037c565b6101c46103ab565b6101576103e5565b61017761021f36600461055d565b6103f4565b610139610423565b61017761023a366004610537565b61042b565b600f5481565b6004546001600160a01b031681565b7f54bee205d9b03332d6dc82bc907476dfef6ed4fd86058d49a72994baee781175816040516102839190610b4c565b60405180910390a150565b7fc56d982ad2fd39ebadca073cc88d9bdaee0f4c8e7b2b6be50227169daefc7b3f816040516102839190610b34565b601e81565b600a81565b600281565b600481565b6102d961035c565b6102fe5760405162461bcd60e51b81526004016102f590610b24565b60405180910390fd5b600080546040516001600160a01b03909116907f8be0079c531659141344cd1fd0a4f28419497f9722a3daafe3b4186f6b6457e0908390a3600080546001600160a01b0319169055565b600781565b6000546001600160a01b031690565b6000546001600160a01b0316331490565b6006546001600160a01b031681565b7faf81a046e31ebb2be305579e585ac6b2ee3fdc2dc9dba806bb826879bb2c7851816040516102839190610b5d565b60408051808201909152600a81526969457865634b6974747960b01b6020909101527399c2268479b93fde36232351229815df80837e2481565b6005546001600160a01b031681565b7f6fd493f856b22df174df46975d6dcf0895c7dfb3c63d20179c0dcd5563e2f565816040516102839190610b34565b633b9aca0081565b61043361035c565b61044f5760405162461bcd60e51b81526004016102f590610b24565b6104588161045b565b50565b6001600160a01b0381166104815760405162461bcd60e51b81526004016102f590610b14565b600080546040516001600160a01b03808516939216917f8be0079c531659141344cd1fd0a4f28419497f9722a3daafe3b4186f6b6457e091a3600080546001600160a01b0319166001600160a01b0392909216919091179055565b80356104e781610c26565b92915050565b80356104e781610c3a565b6000610120828403121561050b57600080fd5b50919050565b6000610200828403121561050b57600080fd5b6000610160828403121561050b57600080fd5b60006020828403121561054957600080fd5b600061055584846104dc565b949350505050565b60006020828403121561056f57600080fd5b813567ffffffffffffffff81111561058657600080fd5b610555848285016104f8565b6000602082840312156105a457600080fd5b813567ffffffffffffffff8111156105bb57600080fd5b61055584828501610511565b6000602082840312156105d957600080fd5b813567ffffffffffffffff8111156105f057600080fd5b61055584828501610524565b61060581610be6565b82525050565b61060581610bf1565b61060581610bf6565b60006106298385610b6e565b9350610636838584610c10565b61063f83610c1c565b9093019392505050565b61060581610c05565b600061065f602683610b6e565b7f4f776e61626c653a206e6577206f776e657220697320746865207a65726f206181526564647265737360d01b602082015260400192915050565b60006106a7602083610b6e565b7f4f776e61626c653a2063616c6c6572206973206e6f7420746865206f776e6572815260200192915050565b600061012083016106e48380610b77565b6106ee85826105fc565b506106fc6020840184610b86565b6107096020860182610614565b506107176040840184610b86565b6107246040860182610614565b506107326060840184610b86565b61073f6060860182610614565b5061074d6080840184610b77565b61075a60808601826105fc565b5061076860a0840184610b77565b61077560a08601826105fc565b5061078360c0840184610b77565b61079060c08601826105fc565b5061079e60e0840184610b86565b6107ab60e0860182610614565b506107ba610100840184610b95565b8583036101008701526107ce83828461061d565b9695505050505050565b600061020083016107e98380610b77565b6107f385826105fc565b506108016020840184610b86565b61080e6020860182610614565b5061081c6040840184610b77565b61082960408601826105fc565b506108376060840184610b86565b6108446060860182610614565b506108526080840184610b77565b61085f60808601826105fc565b5061086d60a0840184610b86565b61087a60a0860182610614565b5061088860c0840184610b77565b61089560c08601826105fc565b506108a360e0840184610b86565b6108b060e0860182610614565b506108bf610100840184610b86565b6108cd610100860182610614565b506108dc610120840184610b86565b6108ea610120860182610614565b506108f9610140840184610b86565b610907610140860182610614565b50610916610160840184610b77565b6109246101608601826105fc565b50610933610180840184610b77565b6109416101808601826105fc565b506109506101a0840184610b95565b8583036101a087015261096483828461061d565b925050506109766101c0840184610b86565b6109846101c0860182610614565b506109936101e0840184610b95565b8583036101e08701526107ce83828461061d565b600061016083016109b88380610b77565b6109c285826105fc565b506109d06020840184610b86565b6109dd6020860182610614565b506109eb6040840184610b86565b6109f86040860182610614565b50610a066060840184610b86565b610a136060860182610614565b50610a216080840184610b86565b610a2e6080860182610614565b50610a3c60a0840184610b86565b610a4960a0860182610614565b50610a5760c0840184610b77565b610a6460c08601826105fc565b50610a7260e0840184610b77565b610a7f60e08601826105fc565b50610a8e610100840184610b77565b610a9c6101008601826105fc565b50610aab610120840184610b86565b610ab9610120860182610614565b50610ac8610140840184610b95565b8583036101408701526107ce83828461061d565b602081016104e782846105fc565b602081016104e7828461060b565b602081016104e78284610614565b602081016104e78284610649565b602080825281016104e781610652565b602080825281016104e78161069a565b60208082528101610b4581846106d3565b9392505050565b60208082528101610b4581846107d8565b60208082528101610b4581846109a7565b90815260200190565b6000610b4560208401846104dc565b6000610b4560208401846104ed565b6000808335601e1936859003018112610bad57600080fd5b83810160208101935035915067ffffffffffffffff821115610bce57600080fd5b36829003841315610bde57600080fd5b509250929050565b60006104e782610bf9565b151590565b90565b6001600160a01b031690565b60006104e782610be6565b82818337506000910152565b601f01601f191690565b610c2f81610be6565b811461045857600080fd5b610c2f81610bf656fea365627a7a723058200b29b3d520c13fd945ee2a24eae39e159c1d12f7ff97e3fe00ca2d8d557493566c6578706572696d656e74616cf564736f6c634300050a00408be0079c531659141344cd1fd0a4f28419497f9722a3daafe3b4186f6b6457e0",
  "source": "pragma solidity ^0.5.10;\npragma experimental ABIEncoderV2;\n\nimport \"../IexecDelegateBase.sol\";\n\n\ninterface IexecRelay\n{\n\tevent BroadcastAppOrder       (IexecODBLibOrders.AppOrder        apporder       );\n\tevent BroadcastDatasetOrder   (IexecODBLibOrders.DatasetOrder    datasetorder   );\n\tevent BroadcastWorkerpoolOrder(IexecODBLibOrders.WorkerpoolOrder workerpoolorder);\n\tevent BroadcastRequestOrder   (IexecODBLibOrders.RequestOrder    requestorder   );\n\n\tfunction broadcastAppOrder       (IexecODBLibOrders.AppOrder        calldata) external;\n\tfunction broadcastDatasetOrder   (IexecODBLibOrders.DatasetOrder    calldata) external;\n\tfunction broadcastWorkerpoolOrder(IexecODBLibOrders.WorkerpoolOrder calldata) external;\n\tfunction broadcastRequestOrder   (IexecODBLibOrders.RequestOrder    calldata) external;\n}\n\ncontract IexecRelayDelegate is IexecRelay, IexecDelegateBase\n{\n\tfunction broadcastAppOrder       (IexecODBLibOrders.AppOrder        calldata _apporder       ) external { emit BroadcastAppOrder       (_apporder       ); }\n\tfunction broadcastDatasetOrder   (IexecODBLibOrders.DatasetOrder    calldata _datasetorder   ) external { emit BroadcastDatasetOrder   (_datasetorder   ); }\n\tfunction broadcastWorkerpoolOrder(IexecODBLibOrders.WorkerpoolOrder calldata _workerpoolorder) external { emit BroadcastWorkerpoolOrder(_workerpoolorder); }\n\tfunction broadcastRequestOrder   (IexecODBLibOrders.RequestOrder    calldata _requestorder   ) external { emit BroadcastRequestOrder   (_requestorder   ); }\n}\n",
  "sourcePath": "/home/amxx/Work/iExec/code/PoCo-dev/contracts/delegates/IexecRelay.sol",
  "compiler": {
    "name": "solc",
    "version": "0.5.10+commit.5a6ea5b1.Emscripten.clang"
  },
  "schemaVersion": "3.0.11",
  "updatedAt": "2019-06-26T20:17:56.719Z",
  "devdoc": {
    "methods": {
      "isOwner()": {
        "details": "Returns true if the caller is the current owner."
      },
      "owner()": {
        "details": "Returns the address of the current owner."
      },
      "renounceOwnership()": {
        "details": "Leaves the contract without owner. It will not be possible to call `onlyOwner` functions anymore. Can only be called by the current owner.     * > Note: Renouncing ownership will leave the contract without an owner, thereby removing any functionality that is only available to the owner."
      },
      "transferOwnership(address)": {
        "details": "Transfers ownership of the contract to a new account (`newOwner`). Can only be called by the current owner."
      }
    }
  },
  "userdoc": {
    "methods": {}
  }
}