{
  "contractName": "IexecPoco2Delegate",
  "abi": [
    {
      "anonymous": false,
      "inputs": [
        {
          "indexed": true,
          "internalType": "address",
          "name": "worker",
          "type": "address"
        },
        {
          "indexed": true,
          "internalType": "bytes32",
          "name": "taskid",
          "type": "bytes32"
        }
      ],
      "name": "AccurateContribution",
      "type": "event"
    },
    {
      "anonymous": false,
      "inputs": [
        {
          "indexed": true,
          "internalType": "address",
          "name": "owner",
          "type": "address"
        },
        {
          "indexed": true,
          "internalType": "address",
          "name": "spender",
          "type": "address"
        },
        {
          "indexed": false,
          "internalType": "uint256",
          "name": "value",
          "type": "uint256"
        }
      ],
      "name": "Approval",
      "type": "event"
    },
    {
      "anonymous": false,
      "inputs": [
        {
          "indexed": true,
          "internalType": "address",
          "name": "worker",
          "type": "address"
        },
        {
          "indexed": true,
          "internalType": "bytes32",
          "name": "taskid",
          "type": "bytes32"
        }
      ],
      "name": "FaultyContribution",
      "type": "event"
    },
    {
      "anonymous": false,
      "inputs": [
        {
          "indexed": false,
          "internalType": "address",
          "name": "owner",
          "type": "address"
        },
        {
          "indexed": false,
          "internalType": "uint256",
          "name": "amount",
          "type": "uint256"
        }
      ],
      "name": "Lock",
      "type": "event"
    },
    {
      "anonymous": false,
      "inputs": [
        {
          "indexed": true,
          "internalType": "address",
          "name": "previousOwner",
          "type": "address"
        },
        {
          "indexed": true,
          "internalType": "address",
          "name": "newOwner",
          "type": "address"
        }
      ],
      "name": "OwnershipTransferred",
      "type": "event"
    },
    {
      "anonymous": false,
      "inputs": [
        {
          "indexed": false,
          "internalType": "address",
          "name": "owner",
          "type": "address"
        },
        {
          "indexed": false,
          "internalType": "uint256",
          "name": "amount",
          "type": "uint256"
        },
        {
          "indexed": false,
          "internalType": "bytes32",
          "name": "ref",
          "type": "bytes32"
        }
      ],
      "name": "Reward",
      "type": "event"
    },
    {
      "anonymous": false,
      "inputs": [
        {
          "indexed": false,
          "internalType": "address",
          "name": "owner",
          "type": "address"
        },
        {
          "indexed": false,
          "internalType": "uint256",
          "name": "amount",
          "type": "uint256"
        },
        {
          "indexed": false,
          "internalType": "bytes32",
          "name": "ref",
          "type": "bytes32"
        }
      ],
      "name": "Seize",
      "type": "event"
    },
    {
      "anonymous": false,
      "inputs": [
        {
          "indexed": true,
          "internalType": "bytes32",
          "name": "taskid",
          "type": "bytes32"
        }
      ],
      "name": "TaskClaimed",
      "type": "event"
    },
    {
      "anonymous": false,
      "inputs": [
        {
          "indexed": true,
          "internalType": "bytes32",
          "name": "taskid",
          "type": "bytes32"
        },
        {
          "indexed": false,
          "internalType": "bytes32",
          "name": "consensus",
          "type": "bytes32"
        }
      ],
      "name": "TaskConsensus",
      "type": "event"
    },
    {
      "anonymous": false,
      "inputs": [
        {
          "indexed": true,
          "internalType": "bytes32",
          "name": "taskid",
          "type": "bytes32"
        },
        {
          "indexed": true,
          "internalType": "address",
          "name": "worker",
          "type": "address"
        },
        {
          "indexed": false,
          "internalType": "bytes32",
          "name": "hash",
          "type": "bytes32"
        }
      ],
      "name": "TaskContribute",
      "type": "event"
    },
    {
      "anonymous": false,
      "inputs": [
        {
          "indexed": true,
          "internalType": "bytes32",
          "name": "taskid",
          "type": "bytes32"
        },
        {
          "indexed": false,
          "internalType": "bytes",
          "name": "results",
          "type": "bytes"
        }
      ],
      "name": "TaskFinalize",
      "type": "event"
    },
    {
      "anonymous": false,
      "inputs": [
        {
          "indexed": true,
          "internalType": "bytes32",
          "name": "taskid",
          "type": "bytes32"
        },
        {
          "indexed": true,
          "internalType": "address",
          "name": "workerpool",
          "type": "address"
        }
      ],
      "name": "TaskInitialize",
      "type": "event"
    },
    {
      "anonymous": false,
      "inputs": [
        {
          "indexed": true,
          "internalType": "bytes32",
          "name": "taskid",
          "type": "bytes32"
        }
      ],
      "name": "TaskReopen",
      "type": "event"
    },
    {
      "anonymous": false,
      "inputs": [
        {
          "indexed": true,
          "internalType": "bytes32",
          "name": "taskid",
          "type": "bytes32"
        },
        {
          "indexed": true,
          "internalType": "address",
          "name": "worker",
          "type": "address"
        },
        {
          "indexed": false,
          "internalType": "bytes32",
          "name": "digest",
          "type": "bytes32"
        }
      ],
      "name": "TaskReveal",
      "type": "event"
    },
    {
      "anonymous": false,
      "inputs": [
        {
          "indexed": true,
          "internalType": "address",
          "name": "from",
          "type": "address"
        },
        {
          "indexed": true,
          "internalType": "address",
          "name": "to",
          "type": "address"
        },
        {
          "indexed": false,
          "internalType": "uint256",
          "name": "value",
          "type": "uint256"
        }
      ],
      "name": "Transfer",
      "type": "event"
    },
    {
      "anonymous": false,
      "inputs": [
        {
          "indexed": false,
          "internalType": "address",
          "name": "owner",
          "type": "address"
        },
        {
          "indexed": false,
          "internalType": "uint256",
          "name": "amount",
          "type": "uint256"
        }
      ],
      "name": "Unlock",
      "type": "event"
    },
    {
      "inputs": [],
      "name": "owner",
      "outputs": [
        {
          "internalType": "address",
          "name": "",
          "type": "address"
        }
      ],
      "stateMutability": "view",
      "type": "function"
    },
    {
      "inputs": [],
      "name": "renounceOwnership",
      "outputs": [],
      "stateMutability": "nonpayable",
      "type": "function"
    },
    {
      "inputs": [
        {
          "internalType": "address",
          "name": "newOwner",
          "type": "address"
        }
      ],
      "name": "transferOwnership",
      "outputs": [],
      "stateMutability": "nonpayable",
      "type": "function"
    },
    {
      "inputs": [
        {
          "internalType": "bytes32",
          "name": "_dealid",
          "type": "bytes32"
        },
        {
          "internalType": "uint256",
          "name": "idx",
          "type": "uint256"
        }
      ],
      "name": "initialize",
      "outputs": [
        {
          "internalType": "bytes32",
          "name": "",
          "type": "bytes32"
        }
      ],
      "stateMutability": "nonpayable",
      "type": "function"
    },
    {
      "inputs": [
        {
          "internalType": "bytes32",
          "name": "_taskid",
          "type": "bytes32"
        },
        {
          "internalType": "bytes32",
          "name": "_resultHash",
          "type": "bytes32"
        },
        {
          "internalType": "bytes32",
          "name": "_resultSeal",
          "type": "bytes32"
        },
        {
          "internalType": "address",
          "name": "_enclaveChallenge",
          "type": "address"
        },
        {
          "internalType": "bytes",
          "name": "_enclaveSign",
          "type": "bytes"
        },
        {
          "internalType": "bytes",
          "name": "_authorizationSign",
          "type": "bytes"
        }
      ],
      "name": "contribute",
      "outputs": [],
      "stateMutability": "nonpayable",
      "type": "function"
    },
    {
      "inputs": [
        {
          "internalType": "bytes32",
          "name": "_taskid",
          "type": "bytes32"
        },
        {
          "internalType": "bytes32",
          "name": "_resultDigest",
          "type": "bytes32"
        },
        {
          "internalType": "bytes",
          "name": "_results",
          "type": "bytes"
        },
        {
          "internalType": "bytes",
          "name": "_resultsCallback",
          "type": "bytes"
        },
        {
          "internalType": "address",
          "name": "_enclaveChallenge",
          "type": "address"
        },
        {
          "internalType": "bytes",
          "name": "_enclaveSign",
          "type": "bytes"
        },
        {
          "internalType": "bytes",
          "name": "_authorizationSign",
          "type": "bytes"
        }
      ],
      "name": "contributeAndFinalize",
      "outputs": [],
      "stateMutability": "nonpayable",
      "type": "function"
    },
    {
      "inputs": [
        {
          "internalType": "bytes32",
          "name": "_taskid",
          "type": "bytes32"
        },
        {
          "internalType": "bytes32",
          "name": "_resultDigest",
          "type": "bytes32"
        }
      ],
      "name": "reveal",
      "outputs": [],
      "stateMutability": "nonpayable",
      "type": "function"
    },
    {
      "inputs": [
        {
          "internalType": "bytes32",
          "name": "_taskid",
          "type": "bytes32"
        }
      ],
      "name": "reopen",
      "outputs": [],
      "stateMutability": "nonpayable",
      "type": "function"
    },
    {
      "inputs": [
        {
          "internalType": "bytes32",
          "name": "_taskid",
          "type": "bytes32"
        },
        {
          "internalType": "bytes",
          "name": "_results",
          "type": "bytes"
        },
        {
          "internalType": "bytes",
          "name": "_resultsCallback",
          "type": "bytes"
        }
      ],
      "name": "finalize",
      "outputs": [],
      "stateMutability": "nonpayable",
      "type": "function"
    },
    {
      "inputs": [
        {
          "internalType": "bytes32",
          "name": "_taskid",
          "type": "bytes32"
        }
      ],
      "name": "claim",
      "outputs": [],
      "stateMutability": "nonpayable",
      "type": "function"
    },
    {
      "inputs": [
        {
          "internalType": "bytes32[]",
          "name": "_dealid",
          "type": "bytes32[]"
        },
        {
          "internalType": "uint256[]",
          "name": "_idx",
          "type": "uint256[]"
        }
      ],
      "name": "initializeArray",
      "outputs": [
        {
          "internalType": "bool",
          "name": "",
          "type": "bool"
        }
      ],
      "stateMutability": "nonpayable",
      "type": "function"
    },
    {
      "inputs": [
        {
          "internalType": "bytes32[]",
          "name": "_taskid",
          "type": "bytes32[]"
        }
      ],
      "name": "claimArray",
      "outputs": [
        {
          "internalType": "bool",
          "name": "",
          "type": "bool"
        }
      ],
      "stateMutability": "nonpayable",
      "type": "function"
    },
    {
      "inputs": [
        {
          "internalType": "bytes32[]",
          "name": "_dealid",
          "type": "bytes32[]"
        },
        {
          "internalType": "uint256[]",
          "name": "_idx",
          "type": "uint256[]"
        }
      ],
      "name": "initializeAndClaimArray",
      "outputs": [
        {
          "internalType": "bool",
          "name": "",
          "type": "bool"
        }
      ],
      "stateMutability": "nonpayable",
      "type": "function"
    }
  ],
  "bytecode": "0x60806040523480156200001157600080fd5b5060006200001e62000067565b600080546001600160a01b0319166001600160a01b038316908117825560405192935091600080516020620040e7833981519152908290a350620000616200006b565b6200011c565b3390565b6200007562000067565b6000546001600160a01b03908116911614620000ae5760405162461bcd60e51b8152600401620000a590620000e7565b60405180910390fd5b600080546040516001600160a01b0390911690600080516020620040e7833981519152908390a3600080546001600160a01b0319169055565b6020808252818101527f4f776e61626c653a2063616c6c6572206973206e6f7420746865206f776e6572604082015260600190565b613fbb806200012c6000396000f3fe608060405234801561001057600080fd5b50600436106100cf5760003560e01c8063b504681d1161008c578063f6c68e1011610066578063f6c68e101461019b578063f722cb32146101ae578063fa055d7e146101c1578063fc334e8c146101d4576100cf565b8063b504681d14610155578063bd66528a14610175578063f2fde38b14610188576100cf565b806334623484146100d45780635b36c66b146100e95780635facd76114610112578063715018a6146101255780638da5cb5b1461012d5780638fc375e514610142575b600080fd5b6100e76100e23660046139f1565b6101e7565b005b6100fc6100f73660046139d0565b610769565b6040516101099190613d3e565b60405180910390f35b6100e7610120366004613a8b565b610a8f565b6100e76110f9565b610135611181565b6040516101099190613ce5565b6100e7610150366004613b58565b611190565b61016861016336600461392f565b61150b565b6040516101099190613d33565b6100e76101833660046139b8565b611567565b6100e76101963660046138d4565b611657565b6100e76101a93660046139b8565b61170d565b6101686101bc36600461392f565b6118e1565b6101686101cf3660046138ef565b611927565b6100e76101e23660046139d0565b611960565b6008546001600160a01b0316639944f518610200611aea565b6040518263ffffffff1660e01b815260040161021c9190613ce5565b60206040518083038186803b15801561023457600080fd5b505afa158015610248573d6000803e3d6000fd5b505050506040513d601f19601f8201168201806040525081019061026c9190613998565b61027557600080fd5b60008681526014602090815260408083206016909252822090919081610299611aea565b6001600160a01b03166001600160a01b0316815260200190815260200160002090506102c361356f565b60018381015460009081526013602090815260409182902082516102408101845281546001600160a01b039081166101e0830190815283870154821661020084015260028085015461022085015290835285516060808201885260038601548416825260048601548416828801526005860154828901528487019190915286518082018852600686015484168152600786015484168188015260088601548189015284880152600985015490840152600a8401546080840152600b84015460a0840152600c840154821660c0840152600d840154821660e0840152600e84015490911661010080840191909152600f840180548751988116159092026000190190911691909104601f8101859004850287018501909552848652909491936101208601938301828280156104385780601f1061040d57610100808354040283529160200191610438565b820191906000526020600020905b81548152906001019060200180831161041b57829003601f168201915b50505091835250506010820154602082015260118201546040820152601282015460608201526013820154608082015260149091015460a09091015290506001835460ff16600481111561048857fe5b1461049257600080fd5b428360040154116104a257600080fd5b6000825460ff1660038111156104b457fe5b146104be57600080fd5b6001600160a01b0386161515806104e3575060a0810151601f1a60f81b600160f81b16155b6104ec57600080fd5b6105706001600160a01b0387161580159061051157506018546001600160a01b031615155b61052357816040015160200151610530565b6018546001600160a01b03165b61056a61053b611aea565b8c8a60405160200161054f93929190613c23565b60405160208183030381529060405280519060200120611aee565b86611b17565b61057957600080fd5b6001600160a01b03861615806105aa57506105aa866105a48a8a60405160200161054f929190613c7a565b87611b17565b6105b357600080fd5b8154600160ff19909116811783558201889055600282018790556003820180546001600160a01b0319166001600160a01b038816179055600a83016105f6611aea565b815460018082018455600093845260209093200180546001600160a01b0319166001600160a01b039290921691909117905583015461063c90610637611aea565b611cf8565b610644611aea565b6001600160a01b0316897f3fdb8d7797562d49a81078dbf7fa1771958ea452f8b13d1148383bd9506aecfb8a60405161067d9190613d3e565b60405180910390a36000898152601560205260408120906106d960016106d360036106cd816017876106ad611aea565b6001600160a01b0316815260208101919091526040016000205490611d1c565b90611d3e565b90611d55565b60008b815260208490526040812054919250610704826106d3856106fe836001611d3e565b90611d6a565b905061070f83611d91565b600487015560008c81526020859052604090205461072d9082611f4f565b60008d815260208690526040902055600184015461074b9082611f4f565b600185015561075a8d8d611f61565b50505050505050505050505050565b600061077361356f565b60008481526013602090815260409182902082516102408101845281546001600160a01b039081166101e08301908152600180850154831661020085015260028086015461022086015291845286516060808201895260038701548516825260048701548516828901526005870154828a0152858801919091528751808201895260068701548516815260078701548516818901526008870154818a015285890152600986015490850152600a8501546080850152600b85015460a0850152600c850154831660c0850152600d850154831660e0850152600e85015490921661010080850191909152600f850180548851948116159092026000190190911691909104601f810186900486028301860190965285825291949293610120860193919291908301828280156108e85780601f106108bd576101008083540402835291602001916108e8565b820191906000526020600020905b8154815290600101906020018083116108cb57829003601f168201915b5050505050815260200160108201548152602001601182015481526020016012820154815260200160138201548152602001601482015481525050905080610160015183101561093757600080fd5b61018081015161016082015161094c91611f4f565b831061095757600080fd5b6000848460405160200161096c929190613c7a565b60408051601f1981840301815291815281516020928301206000818152601490935290822090925090815460ff1660048111156109a557fe5b146109af57600080fd5b805460ff1916600190811782558101869055600281018590556080830151601a805490919081106109dc57fe5b6000918252602090912060039182020160020154908201819055610140840151610a1191610a0b906007611d6a565b90611f4f565b60048201556101408301516003820154610a319190610a0b90600a611d6a565b6006820155600082815260156020526040808220600190810155848101515190516001600160a01b039091169184917f252992fb0468d68d6a5784ec03214f0d0a362083f2d7ebd157af43b017a22e069190a3509150505b92915050565b6008546001600160a01b0316639944f518610aa8611aea565b6040518263ffffffff1660e01b8152600401610ac49190613ce5565b60206040518083038186803b158015610adc57600080fd5b505afa158015610af0573d6000803e3d6000fd5b505050506040513d601f19601f82011682018060405250810190610b149190613998565b610b1d57600080fd5b60008781526014602090815260408083206016909252822090919081610b41611aea565b6001600160a01b03166001600160a01b031681526020019081526020016000209050610b6b61356f565b60018381015460009081526013602090815260409182902082516102408101845281546001600160a01b039081166101e0830190815283870154821661020084015260028085015461022085015290835285516060808201885260038601548416825260048601548416828801526005860154828901528487019190915286518082018852600686015484168152600786015484168188015260088601548189015284880152600985015490840152600a8401546080840152600b84015460a0840152600c840154821660c0840152600d840154821660e0840152600e84015490911661010080840191909152600f840180548751988116159092026000190190911691909104601f810185900485028701850190955284865290949193610120860193830182828015610ce05780601f10610cb557610100808354040283529160200191610ce0565b820191906000526020600020905b815481529060010190602001808311610cc357829003601f168201915b50505091835250506010820154602082015260118201546040820152601282015460608201526013820154608082015260149091015460a09091015290506001835460ff166004811115610d3057fe5b14610d3a57600080fd5b42836004015411610d4a57600080fd5b600a83015415610d5957600080fd5b8060600151600114610d6a57600080fd5b60008a8a604051602001610d7f929190613c7a565b6040516020818303038152906040528051906020012090506000610da1611aea565b8c8c604051602001610db593929190613c50565b60405160208183030381529060405280519060200120905060006001600160a01b03168361010001516001600160a01b0316148015610df357508851155b80610e075750600b850154895160208b0120145b610e1057600080fd5b6001600160a01b038816151580610e35575060a0830151601f1a60f81b600160f81b16155b610e3e57600080fd5b610ea76001600160a01b03891615801590610e6357506018546001600160a01b031615155b610e7557836040015160200151610e82565b6018546001600160a01b03165b610ea1610e8d611aea565b8f8c60405160200161054f93929190613c23565b88611b17565b610eb057600080fd5b6001600160a01b0388161580610ee15750610ee188610edb848460405160200161054f929190613c7a565b89611b17565b610eea57600080fd5b8354600260ff199182168117865560018601848155818701849055600380880180546001600160a01b0319166001600160a01b038e1617905588549093168317885554600788015590860154610f45914291610a0b91611d6a565b60058601556001600886018190556009860155600b85018b90558951610f7490600c87019060208d0190613615565b508851610f8a90600e87019060208c0190613615565b5084600a01610f97611aea565b815460018082018455600093845260209093200180546001600160a01b0319166001600160a01b0392909216919091179055850154610fd6908d6120f8565b610fdf8c61227f565b610fe7611aea565b6001600160a01b03168c7f3fdb8d7797562d49a81078dbf7fa1771958ea452f8b13d1148383bd9506aecfb846040516110209190613d3e565b60405180910390a38b7ff6d49bf3e05d33a4bc497d3c793fb5756388bb96b947cf51bb60aaecb0e022e3836040516110589190613d3e565b60405180910390a2611068611aea565b6001600160a01b03168c7f4b1763d473ac8fa80b4432ba90047e1b92444d8fabc55e6a002d9b1a316d79598d6040516110a19190613d3e565b60405180910390a38b7f78ce8a8bc0fcb704e8ba3b3dbb36aa88002df8038128b4af2f27ef65db6650448b6040516110d99190613dad565b60405180910390a26110eb8c8a6126e6565b505050505050505050505050565b611101611aea565b6000546001600160a01b039081169116146111375760405162461bcd60e51b815260040161112e90613ea4565b60405180910390fd5b600080546040516001600160a01b03909116907f8be0079c531659141344cd1fd0a4f28419497f9722a3daafe3b4186f6b6457e0908390a3600080546001600160a01b0319169055565b6000546001600160a01b031690565b6000858152601460209081526040808320600101548352601390915290206007015485906001600160a01b03166111c5611aea565b6001600160a01b0316146111d857600080fd5b60008681526014602052604090206111ee61356f565b60018281015460009081526013602090815260409182902082516102408101845281546001600160a01b039081166101e0830190815283870154821661020084015260028085015461022085015290835285516060808201885260038601548416825260048601548416828801526005860154828901528487019190915286518082018852600686015484168152600786015484168188015260088601548189015284880152600985015490840152600a8401546080840152600b84015460a0840152600c840154821660c0840152600d840154821660e0840152600e84015490911661010080840191909152600f840180548751988116159092026000190190911691909104601f8101859004850287018501909552848652909491936101208601938301828280156113635780601f1061133857610100808354040283529160200191611363565b820191906000526020600020905b81548152906001019060200180831161134657829003601f168201915b50505091835250506010820154602082015260118201546040820152601282015460608201526013820154608082015260149091015460a09091015290506002825460ff1660048111156113b357fe5b146113bd57600080fd5b428260060154116113cd57600080fd5b8160090154826008015414806113f65750600082600801541180156113f6575042826005015411155b6113ff57600080fd5b6101008101516001600160a01b0316158015611419575083155b8061143e575081600b01548585604051611434929190613c88565b6040518091039020145b61144757600080fd5b815460ff19166003178255611460600c83018888613693565b5061146f600e83018686613693565b5061147e8260010154896120f8565b611487886127d2565b877f78ce8a8bc0fcb704e8ba3b3dbb36aa88002df8038128b4af2f27ef65db66504488886040516114b9929190613d7e565b60405180910390a26115018886868080601f0160208091040260200160405190810160405280939291908181526020018383808284376000920191909152506126e692505050565b5050505050505050565b600083821461151957600080fd5b60005b8481101561155b5761155286868381811061153357fe5b9050602002013585858481811061154657fe5b90506020020135610769565b5060010161151c565b50600195945050505050565b60008181526014602052604090206001815460ff16600481111561158757fe5b14806115a257506002815460ff1660048111156115a057fe5b145b6115ab57600080fd5b42816006015411156115bc57600080fd5b805460ff1916600417815560018101546115d69083612e5b565b60005b600a82015481101561162757600082600a0182815481106115f657fe5b60009182526020909120015460018401546001600160a01b03909116915061161e90826130c6565b506001016115d9565b5060405182907fcbc308b5f91040d2659a5201858344b0b583cd2f9e18e8470c2fa052c5b21ff890600090a25050565b61165f611aea565b6000546001600160a01b0390811691161461168c5760405162461bcd60e51b815260040161112e90613ea4565b6001600160a01b0381166116b25760405162461bcd60e51b815260040161112e90613e31565b600080546040516001600160a01b03808516939216917f8be0079c531659141344cd1fd0a4f28419497f9722a3daafe3b4186f6b6457e091a3600080546001600160a01b0319166001600160a01b0392909216919091179055565b6000818152601460209081526040808320600101548352601390915290206007015481906001600160a01b0316611742611aea565b6001600160a01b03161461175557600080fd5b60008281526014602052604090206002815460ff16600481111561177557fe5b1461177f57600080fd5b4281600601541161178f57600080fd5b428160050154111580156117a557506008810154155b6117ae57600080fd5b60005b600a82015481101561184757600082600a0182815481106117ce57fe5b600091825260208083209091015460078601548884526016835260408085206001600160a01b03909316808652929093529190922060010154919250141561183e5760008581526016602090815260408083206001600160a01b03851684529091529020805460ff191660031790555b506001016117b1565b506000838152601560209081526040808320600785015484529182905290912054600182015461187691611d55565b600182810191909155600783018054600090815260208490526040808220829055855460ff19169093178555908190556005840181905560098401819055905185917f3afe0f24796ce653c6ab1f3e7aba5ce564eece5e82aee724aff28253e829f07b91a250505050565b60008382146118ef57600080fd5b60005b8481101561155b5761191f61018387878481811061190c57fe5b9050602002013586868581811061154657fe5b6001016118f2565b6000805b828110156119565761194e84848381811061194257fe5b90506020020135611567565b60010161192b565b5060019392505050565b60008281526014602090815260408083206016909252822090919081611984611aea565b6001600160a01b03168152602081019190915260400160002090506002825460ff1660048111156119b157fe5b146119bb57600080fd5b428260050154116119cb57600080fd5b6001815460ff1660038111156119dd57fe5b146119e757600080fd5b81600701548160010154146119fb57600080fd5b8383604051602001611a0e929190613c7a565b60405160208183030381529060405280519060200120816001015414611a3357600080fd5b611a3b611aea565b8484604051602001611a4f93929190613c50565b60405160208183030381529060405280519060200120816002015414611a7457600080fd5b805460ff191660021781556008820154611a8f906001611f4f565b6008830155600b8201839055611aa3611aea565b6001600160a01b0316847f4b1763d473ac8fa80b4432ba90047e1b92444d8fabc55e6a002d9b1a316d795985604051611adc9190613d3e565b60405180910390a350505050565b3390565b606081604051602001611b019190613cb4565b6040516020818303038152906040529050919050565b6000611b22846130e6565b15611cc9576040516320c13b0b60e01b81526001600160a01b038516906320c13b0b90611b559086908690600401613dc0565b60206040518083038186803b158015611b6d57600080fd5b505afa925050508015611b9d575060408051601f3d908101601f19168201909252611b9a91810190613bcf565b60015b611bd7573d808015611bcb576040519150601f19603f3d011682016040523d82523d6000602084013e611bd0565b606091505b5050611bf1565b6001600160e01b0319166320c13b0b60e01b149050611cf1565b82516020840120604051630b135d3f60e11b81526001600160a01b03861691631626ba7e91611c2591908690600401613d47565b60206040518083038186803b158015611c3d57600080fd5b505afa925050508015611c6d575060408051601f3d908101601f19168201909252611c6a91810190613bcf565b60015b611ca7573d808015611c9b576040519150601f19603f3d011682016040523d82523d6000602084013e611ca0565b606091505b5050611cc1565b6001600160e01b031916630b135d3f60e11b149050611cf1565b506000611cf1565b836001600160a01b0316611ce4848051906020012084613122565b6001600160a01b03161490505b9392505050565b611d1881601360008581526020019081526020016000206013015461322c565b5050565b6000808211611d2a57600080fd5b6000828481611d3557fe5b04949350505050565b600081831015611d4e5781611cf1565b5090919050565b600082821115611d6457600080fd5b50900390565b600082611d7957506000610a89565b82820282848281611d8657fe5b0414611cf157600080fd5b604080517ff8f9cbfae6cc78fbefe7cdc3a1793dfcf4f0e8bbd8cec470b6a28a7a5a3e1efd81527ff5ecf1b3e9debc68e1d9cfabc5997135bfb7a7a3938b7b606b5b4b3f2f1f0ffe60208201527ff6e4ed9ff2d6b458eadcdf97bd91692de2d4da8fd2d0ac50c6ae9a8272523616818301527fc8c0b887b0a8a4489c948c7f847c6125746c645c544c444038302820181008ff60608201527ff7cae577eec2a03cf3bad76fb589591debb2dd67e0aa9834bea6925f6a4a2e0e60808201527fe39ed557db96902cd38ed14fad815115c786af479b7e8324736353433727170760a08201527fc976c13bb96e881cb166a933a55e490d9d56952b8d4e801485467d236242260660c08201527f753a6d1b65325d0c552a4d1345224105391a310b29122104190a11030902010060e0820152610100808201909252600160f81b6001600160801b68010000000000000000640100000000620100006010600460026000198c019081041790810417908104178881041790810417908104179081041790810417017e818283848586878898a8b8c8d8e8f929395969799a9b9d9e9faaeb6bedeeff0281900460ff039091015104600160ff1b909211020190565b600082820183811015611cf157600080fd5b6000828152601460209081526040808320601583528184206001808301548652601390945291909320600901549091611faa90611f9f908390611d55565b600184015490611d6a565b600085815260208490526040902054611fc39083611d6a565b11156120f1576000805b600a85015481101561207957600085600a018281548110611fea57fe5b60009182526020808320909101548a83526016825260408084206001600160a01b03909216808552919092529120600101549091508714801561205d5750600160008981526016602090815260408083206001600160a01b038616845290915290205460ff16600381111561205b57fe5b145b156120705761206d836001611f4f565b92505b50600101611fcd565b50835460ff1916600290811785556007850186905560038501546120a2914291610a0b91611d6a565b6005850155600060088501556009840181905560405186907ff6d49bf3e05d33a4bc497d3c793fb5756388bb96b947cf51bb60aaecb0e022e3906120e7908890613d3e565b60405180910390a2505b5050505050565b60008281526013602052604081206008810154600582015460028301549293926121279291610a0b9190611f4f565b600883015490915060009061213d90601e6132b4565b600c840154909150612159906001600160a01b031683866132c2565b6002830154156121815760018301546002840154612181916001600160a01b03169086613342565b6005830154158015906121a0575060038301546001600160a01b031615155b156121c357600483015460058401546121c3916001600160a01b03169086613342565b60078301546121db906001600160a01b031682613380565b7399c2268479b93fde36232351229815df80837e23600052600e6020527f0c6541af8a90dc64ec40ead0c49d5d6bd34489a48d08db53d659372ff556a4305480156122775761223d81612237633b9aca006106cd83600a6132b4565b906133fc565b905061225e7399c2268479b93fde36232351229815df80837e2382876132c2565b6007840154612277906001600160a01b03168287613342565b505050505050565b612287613701565b6000828152601460205260409081902081516101e081019092528054829060ff1660048111156122b357fe5b60048111156122be57fe5b8152602001600182015481526020016002820154815260200160038201548152602001600482015481526020016005820154815260200160068201548152602001600782015481526020016008820154815260200160098201548152602001600a820180548060200260200160405190810160405280929190818152602001828054801561237557602002820191906000526020600020905b81546001600160a01b03168152600190910190602001808311612357575b5050509183525050600b820154602080830191909152600c8301805460408051601f600260001961010060018716150201909416939093049283018590048502810185018252828152940193928301828280156124135780601f106123e857610100808354040283529160200191612413565b820191906000526020600020905b8154815290600101906020018083116123f657829003601f168201915b5050509183525050600d820154602080830191909152600e8301805460408051601f600260001961010060018716150201909416939093049283018590048502810185018252828152940193928301828280156124b15780601f10612486576101008083540402835291602001916124b1565b820191906000526020600020905b81548152906001019060200180831161249457829003601f168201915b50505050508152505090506124c461356f565b60208281015160009081526013825260409081902081516102408101835281546001600160a01b039081166101e08301908152600180850154831661020085015260028086015461022086015291845285516060808201885260038701548516825260048701548516828a0152600587015482890152858901919091528651808201885260068701548516815260078701548516818a015260088701548189015285880152600986015490850152600a8501546080850152600b85015460a0850152600c850154831660c0850152600d850154831660e0850152600e85015490921661010080850191909152600f850180548751948116159092026000190190911691909104601f81018790048702830187019095528482529194929361012086019391929183018282801561263b5780601f106126105761010080835404028352916020019161263b565b820191906000526020600020905b81548152906001019060200180831161261e57829003601f168201915b5050505050815260200160108201548152602001601182015481526020016012820154815260200160138201548152602001601482015481525050905060006126a4612696836101c001516064611d5590919063ffffffff16565b6040808501510151906132b4565b905060006126c382846040015160400151611d5590919063ffffffff16565b90506126d76126d0611aea565b838761340b565b6120f184602001518287613416565b600082815260146020908152604080832060010154835260139091529020600e01546001600160a01b031680156127cd5760006060826001600160a01b0316601954868660405160240161273b929190613d47565b60408051601f198184030181529181526020820180516001600160e01b0316635dd8085560e01b179052516127709190613c98565b60006040518083038160008787f1925050503d80600081146127ae576040519150601f19603f3d011682016040523d82523d6000602084013e6127b3565b606091505b5091509150603f601954816127c457fe5b045a116120f157fe5b505050565b6127da613701565b6000828152601460205260409081902081516101e081019092528054829060ff16600481111561280657fe5b600481111561281157fe5b8152602001600182015481526020016002820154815260200160038201548152602001600482015481526020016005820154815260200160068201548152602001600782015481526020016008820154815260200160098201548152602001600a82018054806020026020016040519081016040528092919081815260200182805480156128c857602002820191906000526020600020905b81546001600160a01b031681526001909101906020018083116128aa575b5050509183525050600b820154602080830191909152600c8301805460408051601f600260001961010060018716150201909416939093049283018590048502810185018252828152940193928301828280156129665780601f1061293b57610100808354040283529160200191612966565b820191906000526020600020905b81548152906001019060200180831161294957829003601f168201915b5050509183525050600d820154602080830191909152600e8301805460408051601f60026000196101006001871615020190941693909304928301859004850281018501825282815294019392830182828015612a045780601f106129d957610100808354040283529160200191612a04565b820191906000526020600020905b8154815290600101906020018083116129e757829003601f168201915b5050505050815250509050612a1761356f565b60208281015160009081526013825260409081902081516102408101835281546001600160a01b039081166101e08301908152600180850154831661020085015260028086015461022086015291845285516060808201885260038701548516825260048701548516828a0152600587015482890152858901919091528651808201885260068701548516815260078701548516818a015260088701548189015285880152600986015490850152600a8501546080850152600b85015460a0850152600c850154831660c0850152600d850154831660e0850152600e85015490921661010080850191909152600f850180548751948116159092026000190190911691909104601f810187900487028301870190955284825291949293610120860193919291830182828015612b8e5780601f10612b6357610100808354040283529160200191612b8e565b820191906000526020600020905b815481529060010190602001808311612b7157829003601f168201915b50505050508152602001601082015481526020016011820154815260200160128201548152602001601382015481526020016014820154815250509050600080826040015160400151905060005b84610140015151811015612c7a5760008561014001518281518110612bfd57fe5b60209081029190910181015160008981526016835260408082206001600160a01b0384168352909352919091209091506002815460ff166003811115612c3f57fe5b1415612c5c576004810154612c55908690611f4f565b9450612c70565b6101a0860151612c6d908590611f4f565b93505b5050600101612bdc565b506000612ca0612c99856101c001516064611d5590919063ffffffff16565b83906132b4565b905060005b85610140015151811015612e4b5760008661014001518281518110612cc657fe5b60209081029190910181015160008a81526016835260408082206001600160a01b0384168352909352919091209091506002815460ff166003811115612d0857fe5b1415612dc7576004810154600090612d229086908961343c565b9050612d2e8682611d55565b9550612d3e8960200151846130c6565b612d4983828c61340b565b6001896101400151511115612dc1576001600160a01b038316600090815260176020526040902054612d7c906001611f4f565b6001600160a01b0384166000818152601760205260408082209390935591518c927f9703f4589802246c80b822e63697180da799e363cd1b6fd9465a5e5574d5349291a35b50612e41565b612dd68860200151838b613451565b6001600160a01b038216600090815260176020526040902054612dfc906002600361343c565b6001600160a01b0383166000818152601760205260408082209390935591518b927ff868788948d55240774fdbad06555105ef20bbc70d1b7eccda982b65e11e79bb91a35b5050600101612ca5565b5061227785602001518388613416565b612e6361356f565b60008381526013602090815260409182902082516102408101845281546001600160a01b039081166101e08301908152600180850154831661020085015260028086015461022086015291845286516060808201895260038701548516825260048701548516828901526005870154828a0152858801919091528751808201895260068701548516815260078701548516818901526008870154818a015285890152600986015490850152600a8501546080850152600b85015460a0850152600c850154831660c0850152600d850154831660e0850152600e85015490921661010080850191909152600f850180548851948116159092026000190190911691909104601f81018690048602830186019096528582529194929361012086019391929190830182828015612fd85780601f10612fad57610100808354040283529160200191612fd8565b820191906000526020600020905b815481529060010190602001808311612fbb57829003601f168201915b505050505081526020016010820154815260200160118201548152602001601282015481526020016013820154815260200160148201548152505090506000613046826040015160400151610a0b846020015160400151856000015160400151611f4f90919063ffffffff16565b90506000613066601e8460400151604001516132b490919063ffffffff16565b90506130768360c0015183613380565b61308983604001516020015182866132c2565b6130a87399c2268479b93fde36232351229815df80837e238286613342565b6120f17399c2268479b93fde36232351229815df80837e238261322c565b611d18816013600085815260200190815260200160002060130154613380565b6000813f7fc5d2460186f7233c927e7db2dcc703c0e500b653ca82273b7bfad8045d85a47081811480159061311a57508115155b949350505050565b60008060008084516041141561314c5750505060208201516040830151606084015160001a613191565b84516040141561317957505050602082015160408301516001600160ff1b0381169060001a60071c613191565b60405162461bcd60e51b815260040161112e90613f1e565b601b8160ff1610156131a157601b015b8060ff16601b14806131b657508060ff16601c145b6131d25760405162461bcd60e51b815260040161112e90613e77565b600186828585604051600081526020016040526040516131f59493929190613d60565b6020604051602081039080840390855afa158015613217573d6000803e3d6000fd5b5050604051601f190151979650505050505050565b613237823083613472565b6001600160a01b0382166000908152600e602052604090205461325a9082611f4f565b6001600160a01b0383166000908152600e60205260409081902091909155517f625fed9875dada8643f2418b838ae0bc78d9a148a18eee4ee1979ff0f3f5d427906132a89084908490613cf9565b60405180910390a15050565b6000611cf18383606461343c565b6001600160a01b0383166000908152600e60205260409020546132e59083611d55565b6001600160a01b0384166000908152600e60205260409081902091909155517f1bccc549c38561cd5b57f0db11ceb8dde1b0b6ee05ab5e155b51c7c5ba64becb9061333590859085908590613d12565b60405180910390a1505050565b61334d308484613472565b7fc2aca55aa696938c7e95842e8939ca0fbb2120a3eeb8948cdcee2b70da56667283838360405161333593929190613d12565b61338b308383613472565b6001600160a01b0382166000908152600e60205260409020546133ae9082611d55565b6001600160a01b0383166000908152600e60205260409081902091909155517f6381d9813cabeb57471b5a7e05078e64845ccdb563146a6911d536f24ce960f1906132a89084908490613cf9565b6000818310611d4e5781611cf1565b6127cd838383613342565b6000838152601360205260409020600701546127cd906001600160a01b03168383613342565b600061311a61344b8585611d6a565b83611d1c565b6127cd826013600086815260200190815260200160002060130154836132c2565b6001600160a01b0383166134985760405162461bcd60e51b815260040161112e90613ed9565b6001600160a01b0382166134be5760405162461bcd60e51b815260040161112e90613dee565b6001600160a01b0383166000908152600d60205260409020546134e19082611d55565b6001600160a01b038085166000908152600d602052604080822093909355908416815220546135109082611f4f565b6001600160a01b038084166000818152600d602052604090819020939093559151908516907fddf252ad1be2c89b69c2b068fc378daa952ba7f163c4a11628f55a4df523b3ef90613562908590613d3e565b60405180910390a3505050565b604051806101e00160405280613583613781565b8152602001613590613781565b815260200161359d613781565b815260200160008152602001600081526020016000801916815260200160006001600160a01b0316815260200160006001600160a01b0316815260200160006001600160a01b031681526020016060815260200160008152602001600081526020016000815260200160008152602001600081525090565b828054600181600116156101000203166002900490600052602060002090601f016020900481019282601f1061365657805160ff1916838001178555613683565b82800160010185558215613683579182015b82811115613683578251825591602001919060010190613668565b5061368f9291506137a1565b5090565b828054600181600116156101000203166002900490600052602060002090601f016020900481019282601f106136d45782800160ff19823516178555613683565b82800160010185558215613683579182015b828111156136835782358255916020019190600101906136e6565b604080516101e08101909152806000815260200160008019168152602001600081526020016000815260200160008152602001600081526020016000815260200160008019168152602001600081526020016000815260200160608152602001600080191681526020016060815260200160008152602001606081525090565b604080516060810182526000808252602082018190529181019190915290565b5b8082111561368f57600081556001016137a2565b80356001600160a01b0381168114610a8957600080fd5b60008083601f8401126137de578182fd5b50813567ffffffffffffffff8111156137f5578182fd5b602083019150836020808302850101111561380f57600080fd5b9250929050565b60008083601f840112613827578182fd5b50813567ffffffffffffffff81111561383e578182fd5b60208301915083602082850101111561380f57600080fd5b600082601f830112613866578081fd5b813567ffffffffffffffff8082111561387d578283fd5b604051601f8301601f19168101602001828111828210171561389d578485fd5b6040528281529250828483016020018610156138b857600080fd5b8260208601602083013760006020848301015250505092915050565b6000602082840312156138e5578081fd5b611cf183836137b6565b60008060208385031215613901578081fd5b823567ffffffffffffffff811115613917578182fd5b613923858286016137cd565b90969095509350505050565b60008060008060408587031215613944578182fd5b843567ffffffffffffffff8082111561395b578384fd5b613967888389016137cd565b9096509450602087013591508082111561397f578384fd5b5061398c878288016137cd565b95989497509550505050565b6000602082840312156139a9578081fd5b81518015158114611cf1578182fd5b6000602082840312156139c9578081fd5b5035919050565b600080604083850312156139e2578182fd5b50508035926020909101359150565b60008060008060008060c08789031215613a09578182fd5b86359550602087013594506040870135935060608701356001600160a01b0381168114613a34578283fd5b9250608087013567ffffffffffffffff80821115613a50578384fd5b613a5c8a838b01613856565b935060a0890135915080821115613a71578283fd5b50613a7e89828a01613856565b9150509295509295509295565b600080600080600080600060e0888a031215613aa5578081fd5b8735965060208801359550604088013567ffffffffffffffff80821115613aca578283fd5b613ad68b838c01613856565b965060608a0135915080821115613aeb578283fd5b613af78b838c01613856565b9550613b068b60808c016137b6565b945060a08a0135915080821115613b1b578283fd5b613b278b838c01613856565b935060c08a0135915080821115613b3c578283fd5b50613b498a828b01613856565b91505092959891949750929550565b600080600080600060608688031215613b6f578081fd5b85359450602086013567ffffffffffffffff80821115613b8d578283fd5b613b9989838a01613816565b90965094506040880135915080821115613bb1578283fd5b50613bbe88828901613816565b969995985093965092949392505050565b600060208284031215613be0578081fd5b81516001600160e01b031981168114611cf1578182fd5b60008151808452613c0f816020860160208601613f55565b601f01601f19169290920160200192915050565b6bffffffffffffffffffffffff19606094851b811682526014820193909352921b16603482015260480190565b60609390931b6bffffffffffffffffffffffff191683526014830191909152603482015260540190565b918252602082015260400190565b6000828483379101908152919050565b60008251613caa818460208701613f55565b9190910192915050565b7f19457468657265756d205369676e6564204d6573736167653a0a3332000000008152601c810191909152603c0190565b6001600160a01b0391909116815260200190565b6001600160a01b03929092168252602082015260400190565b6001600160a01b039390931683526020830191909152604082015260600190565b901515815260200190565b90815260200190565b60008382526040602083015261311a6040830184613bf7565b93845260ff9290921660208401526040830152606082015260800190565b60006020825282602083015282846040840137818301604090810191909152601f909201601f19160101919050565b600060208252611cf16020830184613bf7565b600060408252613dd36040830185613bf7565b8281036020840152613de58185613bf7565b95945050505050565b60208082526023908201527f45524332303a207472616e7366657220746f20746865207a65726f206164647260408201526265737360e81b606082015260800190565b60208082526026908201527f4f776e61626c653a206e6577206f776e657220697320746865207a65726f206160408201526564647265737360d01b606082015260800190565b60208082526013908201527234b73b30b634b216b9b4b3b730ba3ab93296bb60691b604082015260600190565b6020808252818101527f4f776e61626c653a2063616c6c6572206973206e6f7420746865206f776e6572604082015260600190565b60208082526025908201527f45524332303a207472616e736665722066726f6d20746865207a65726f206164604082015264647265737360d81b606082015260800190565b60208082526018908201527f696e76616c69642d7369676e61747572652d666f726d61740000000000000000604082015260600190565b60005b83811015613f70578181015183820152602001613f58565b83811115613f7f576000848401525b5050505056fea26469706673582212208f5ab85b955824d72beb9f615e970d672fcd2d5432586f0049e495c6b381a6f964736f6c634300060c00338be0079c531659141344cd1fd0a4f28419497f9722a3daafe3b4186f6b6457e0",
  "immutableReferences": {},
  "source": "// SPDX-License-Identifier: Apache-2.0\n\n/******************************************************************************\n * Copyright 2020 IEXEC BLOCKCHAIN TECH                                       *\n *                                                                            *\n * Licensed under the Apache License, Version 2.0 (the \"License\");            *\n * you may not use this file except in compliance with the License.           *\n * You may obtain a copy of the License at                                    *\n *                                                                            *\n *     http://www.apache.org/licenses/LICENSE-2.0                             *\n *                                                                            *\n * Unless required by applicable law or agreed to in writing, software        *\n * distributed under the License is distributed on an \"AS IS\" BASIS,          *\n * WITHOUT WARRANTIES OR CONDITIONS OF ANY KIND, either express or implied.   *\n * See the License for the specific language governing permissions and        *\n * limitations under the License.                                             *\n ******************************************************************************/\n\npragma solidity ^0.6.0;\npragma experimental ABIEncoderV2;\n\nimport \"@iexec/solidity/contracts/ERC1154/IERC1154.sol\";\nimport \"./IexecERC20Common.sol\";\nimport \"./SignatureVerifier.sol\";\nimport \"../DelegateBase.sol\";\nimport \"../interfaces/IexecPoco2.sol\";\n\n\ncontract IexecPoco2Delegate is IexecPoco2, DelegateBase, IexecERC20Common, SignatureVerifier\n{\n\t/***************************************************************************\n\t *                    Escrow overhead for contribution                     *\n\t ***************************************************************************/\n\tfunction successWork(bytes32 _dealid, bytes32 _taskid)\n\tinternal\n\t{\n\t\tIexecLibCore_v5.Deal storage deal = m_deals[_dealid];\n\n\t\tuint256 requesterstake = deal.app.price\n\t\t\t\t\t\t\t\t .add(deal.dataset.price)\n\t\t\t\t\t\t\t\t .add(deal.workerpool.price);\n\t\tuint256 poolstake = deal.workerpool.price\n\t\t\t\t\t\t\t.percentage(WORKERPOOL_STAKE_RATIO);\n\n\t\t// seize requester funds\n\t\tseize(deal.requester, requesterstake, _taskid);\n\t\t// dapp reward\n\t\tif (deal.app.price > 0)\n\t\t{\n\t\t\treward(deal.app.owner, deal.app.price, _taskid);\n\t\t}\n\t\t// data reward\n\t\tif (deal.dataset.price > 0 && deal.dataset.pointer != address(0))\n\t\t{\n\t\t\treward(deal.dataset.owner, deal.dataset.price, _taskid);\n\t\t}\n\t\t// unlock pool stake\n\t\tunlock(deal.workerpool.owner, poolstake);\n\t\t// pool reward performed by consensus manager\n\n\t\t/**\n\t\t * Retrieve part of the kitty\n\t\t */\n\t\tuint256 kitty = m_frozens[KITTY_ADDRESS];\n\t\tif (kitty > 0)\n\t\t{\n\t\t\tkitty = kitty\n\t\t\t\t\t.percentage(KITTY_RATIO) // fraction\n\t\t\t\t\t.max(KITTY_MIN)          // at least this\n\t\t\t\t\t.min(kitty);             // but not more than available\n\t\t\tseize (KITTY_ADDRESS,         kitty, _taskid);\n\t\t\treward(deal.workerpool.owner, kitty, _taskid);\n\t\t}\n\t}\n\n\tfunction failedWork(bytes32 _dealid, bytes32 _taskid)\n\tinternal\n\t{\n\t\tIexecLibCore_v5.Deal memory deal = m_deals[_dealid];\n\n\t\tuint256 requesterstake = deal.app.price\n\t\t\t\t\t\t\t\t .add(deal.dataset.price)\n\t\t\t\t\t\t\t\t .add(deal.workerpool.price);\n\t\tuint256 poolstake = deal.workerpool.price\n\t\t\t\t\t\t\t.percentage(WORKERPOOL_STAKE_RATIO);\n\n\t\tunlock(deal.requester,        requesterstake    );\n\t\tseize (deal.workerpool.owner, poolstake, _taskid);\n\t\treward(KITTY_ADDRESS,         poolstake, _taskid); //  Kitty / Burn\n\t\tlock  (KITTY_ADDRESS,         poolstake         ); //  Kitty / Burn\n\t}\n\n\t/***************************************************************************\n\t *                            Consensus methods                            *\n\t ***************************************************************************/\n\tfunction initialize(bytes32 _dealid, uint256 idx)\n\tpublic override returns (bytes32)\n\t{\n\t\tIexecLibCore_v5.Deal memory deal = m_deals[_dealid];\n\n\t\trequire(idx >= deal.botFirst                  );\n\t\trequire(idx <  deal.botFirst.add(deal.botSize));\n\n\t\tbytes32 taskid  = keccak256(abi.encodePacked(_dealid, idx));\n\t\tIexecLibCore_v5.Task storage task = m_tasks[taskid];\n\t\trequire(task.status == IexecLibCore_v5.TaskStatusEnum.UNSET);\n\n\t\ttask.status               = IexecLibCore_v5.TaskStatusEnum.ACTIVE;\n\t\ttask.dealid               = _dealid;\n\t\ttask.idx                  = idx;\n\t\ttask.timeref              = m_categories[deal.category].workClockTimeRef;\n\t\ttask.contributionDeadline = task.timeref.mul(CONTRIBUTION_DEADLINE_RATIO).add(deal.startTime);\n\t\ttask.finalDeadline        = task.timeref.mul(       FINAL_DEADLINE_RATIO).add(deal.startTime);\n\n\t\t// setup denominator\n\t\tm_consensus[taskid].total = 1;\n\n\t\temit TaskInitialize(taskid, deal.workerpool.pointer);\n\n\t\treturn taskid;\n\t}\n\t// TODO / COMPILER ERROR: making it external causes \"stack too deep\" error\n\tfunction contribute(\n\t\tbytes32      _taskid,\n\t\tbytes32      _resultHash,\n\t\tbytes32      _resultSeal,\n\t\taddress      _enclaveChallenge,\n\t\tbytes memory _enclaveSign,\n\t\tbytes memory _authorizationSign)\n\tpublic override\n\t{\n\t\trequire(m_baseToken.isKYC(_msgSender()));\n\n\t\tIexecLibCore_v5.Task         storage task         = m_tasks[_taskid];\n\t\tIexecLibCore_v5.Contribution storage contribution = m_contributions[_taskid][_msgSender()];\n\t\tIexecLibCore_v5.Deal         memory  deal         = m_deals[task.dealid];\n\n\t\trequire(task.status               == IexecLibCore_v5.TaskStatusEnum.ACTIVE       );\n\t\trequire(task.contributionDeadline >  now                                         );\n\t\trequire(contribution.status       == IexecLibCore_v5.ContributionStatusEnum.UNSET);\n\n\t\t// need enclave challenge if tag is set\n\t\trequire(_enclaveChallenge != address(0) || (deal.tag[31] & 0x01 == 0));\n\n\t\t// Check that the worker + taskid + enclave combo is authorized to contribute (scheduler signature)\n\t\trequire(_checkSignature(\n\t\t\t( _enclaveChallenge != address(0) && m_teebroker != address(0) ) ? m_teebroker : deal.workerpool.owner,\n\t\t\t_toEthSignedMessage(keccak256(abi.encodePacked(\n\t\t\t\t_msgSender(),\n\t\t\t\t_taskid,\n\t\t\t\t_enclaveChallenge\n\t\t\t))),\n\t\t\t_authorizationSign\n\t\t));\n\n\t\t// Check enclave signature\n\t\trequire(_enclaveChallenge == address(0) || _checkSignature(\n\t\t\t_enclaveChallenge,\n\t\t\t_toEthSignedMessage(keccak256(abi.encodePacked(\n\t\t\t\t_resultHash,\n\t\t\t\t_resultSeal\n\t\t\t))),\n\t\t\t_enclaveSign\n\t\t));\n\n\t\t// Update contribution entry\n\t\tcontribution.status           = IexecLibCore_v5.ContributionStatusEnum.CONTRIBUTED;\n\t\tcontribution.resultHash       = _resultHash;\n\t\tcontribution.resultSeal       = _resultSeal;\n\t\tcontribution.enclaveChallenge = _enclaveChallenge;\n\t\ttask.contributors.push(_msgSender());\n\n\t\tlockContribution(task.dealid, _msgSender());\n\n\t\temit TaskContribute(_taskid, _msgSender(), _resultHash);\n\n\t\t// Contribution done  updating and checking consensus\n\n\t\t/*************************************************************************\n\t\t *                           SCORE POLICY 1/3                            *\n\t\t *                                                                       *\n\t\t *                          see documentation!                           *\n\t\t *************************************************************************/\n\t\t// k = 3\n\t\tIexecLibCore_v5.Consensus storage consensus = m_consensus[_taskid];\n\n\t\tuint256 weight = m_workerScores[_msgSender()].div(3).max(3).sub(1);\n\t\tuint256 group  = consensus.group[_resultHash];\n\t\tuint256 delta  = group.max(1).mul(weight).sub(group);\n\n\t\tcontribution.weight          = weight.log();\n\t\tconsensus.group[_resultHash] = consensus.group[_resultHash].add(delta);\n\t\tconsensus.total              = consensus.total.add(delta);\n\n\t\t// Check consensus\n\t\tcheckConsensus(_taskid, _resultHash);\n\t}\n\n\t// TODO / COMPILER ERROR: making it external causes \"stack too deep\" error\n\tfunction contributeAndFinalize(\n\t\tbytes32      _taskid,\n\t\tbytes32      _resultDigest,\n\t\tbytes memory _results,\n\t\tbytes memory _resultsCallback, // Expansion - result separation\n\t\taddress      _enclaveChallenge,\n\t\tbytes memory _enclaveSign,\n\t\tbytes memory _authorizationSign)\n\tpublic override\n\t{\n\t\trequire(m_baseToken.isKYC(_msgSender()));\n\n\t\tIexecLibCore_v5.Task         storage task         = m_tasks[_taskid];\n\t\tIexecLibCore_v5.Contribution storage contribution = m_contributions[_taskid][_msgSender()];\n\t\tIexecLibCore_v5.Deal         memory  deal         = m_deals[task.dealid];\n\n\t\trequire(task.status               == IexecLibCore_v5.TaskStatusEnum.ACTIVE);\n\t\trequire(task.contributionDeadline >  now                                  );\n\t\trequire(task.contributors.length  == 0                                    );\n\t\trequire(deal.trust                == 1                                    ); // TODO / FUTURE FEATURE: consider sender's score ?\n\n\t\tbytes32 resultHash = keccak256(abi.encodePacked(              _taskid, _resultDigest));\n\t\tbytes32 resultSeal = keccak256(abi.encodePacked(_msgSender(), _taskid, _resultDigest));\n\n\t\trequire((deal.callback == address(0) && _resultsCallback.length == 0) || keccak256(_resultsCallback) == task.resultDigest);\n\n\t\t// need enclave challenge if tag is set\n\t\trequire(_enclaveChallenge != address(0) || (deal.tag[31] & 0x01 == 0));\n\n\t\t// Check that the worker + taskid + enclave combo is authorized to contribute (scheduler signature)\n\t\trequire(_checkSignature(\n\t\t\t( _enclaveChallenge != address(0) && m_teebroker != address(0) ) ? m_teebroker : deal.workerpool.owner,\n\t\t\t_toEthSignedMessage(keccak256(abi.encodePacked(\n\t\t\t\t_msgSender(),\n\t\t\t\t_taskid,\n\t\t\t\t_enclaveChallenge\n\t\t\t))),\n\t\t\t_authorizationSign\n\t\t));\n\n\t\t// Check enclave signature\n\t\trequire(_enclaveChallenge == address(0) || _checkSignature(\n\t\t\t_enclaveChallenge,\n\t\t\t_toEthSignedMessage(keccak256(abi.encodePacked(\n\t\t\t\tresultHash,\n\t\t\t\tresultSeal\n\t\t\t))),\n\t\t\t_enclaveSign\n\t\t));\n\n\t\tcontribution.status           = IexecLibCore_v5.ContributionStatusEnum.PROVED;\n\t\tcontribution.resultHash       = resultHash;\n\t\tcontribution.resultSeal       = resultSeal;\n\t\tcontribution.enclaveChallenge = _enclaveChallenge;\n\n\t\ttask.status                   = IexecLibCore_v5.TaskStatusEnum.COMPLETED;\n\t\ttask.consensusValue           = contribution.resultHash;\n\t\ttask.revealDeadline           = task.timeref.mul(REVEAL_DEADLINE_RATIO).add(now);\n\t\ttask.revealCounter            = 1;\n\t\ttask.winnerCounter            = 1;\n\t\ttask.resultDigest             = _resultDigest;\n\t\ttask.results                  = _results;\n\t\ttask.resultsCallback          = _resultsCallback; // Expansion - result separation\n\t\ttask.contributors.push(_msgSender());\n\n\t\tsuccessWork(task.dealid, _taskid);\n\t\tdistributeRewardsFast(_taskid);\n\n\t\temit TaskContribute(_taskid, _msgSender(), resultHash);\n\t\temit TaskConsensus(_taskid, resultHash);\n\t\temit TaskReveal(_taskid, _msgSender(), _resultDigest);\n\t\temit TaskFinalize(_taskid, _results);\n\n\t\texecuteCallback(_taskid, _resultsCallback);\n\t}\n\n\tfunction reveal(\n\t\tbytes32 _taskid,\n\t\tbytes32 _resultDigest)\n\texternal override // worker\n\t{\n\t\tIexecLibCore_v5.Task         storage task         = m_tasks[_taskid];\n\t\tIexecLibCore_v5.Contribution storage contribution = m_contributions[_taskid][_msgSender()];\n\t\trequire(task.status             == IexecLibCore_v5.TaskStatusEnum.REVEALING                         );\n\t\trequire(task.revealDeadline     >  now                                                              );\n\t\trequire(contribution.status     == IexecLibCore_v5.ContributionStatusEnum.CONTRIBUTED               );\n\t\trequire(contribution.resultHash == task.consensusValue                                              );\n\t\trequire(contribution.resultHash == keccak256(abi.encodePacked(              _taskid, _resultDigest)));\n\t\trequire(contribution.resultSeal == keccak256(abi.encodePacked(_msgSender(), _taskid, _resultDigest)));\n\n\t\tcontribution.status = IexecLibCore_v5.ContributionStatusEnum.PROVED;\n\t\ttask.revealCounter  = task.revealCounter.add(1);\n\t\ttask.resultDigest   = _resultDigest;\n\n\t\temit TaskReveal(_taskid, _msgSender(), _resultDigest);\n\t}\n\n\tfunction reopen(\n\t\tbytes32 _taskid)\n\texternal override onlyScheduler(_taskid)\n\t{\n\t\tIexecLibCore_v5.Task storage task = m_tasks[_taskid];\n\t\trequire(task.status         == IexecLibCore_v5.TaskStatusEnum.REVEALING);\n\t\trequire(task.finalDeadline  >  now                                     );\n\t\trequire(task.revealDeadline <= now && task.revealCounter == 0          );\n\n\t\tfor (uint256 i = 0; i < task.contributors.length; ++i)\n\t\t{\n\t\t\taddress worker = task.contributors[i];\n\t\t\tif (m_contributions[_taskid][worker].resultHash == task.consensusValue)\n\t\t\t{\n\t\t\t\tm_contributions[_taskid][worker].status = IexecLibCore_v5.ContributionStatusEnum.REJECTED;\n\t\t\t}\n\t\t}\n\n\t\tIexecLibCore_v5.Consensus storage consensus = m_consensus[_taskid];\n\t\tconsensus.total = consensus.total.sub(consensus.group[task.consensusValue]);\n\t\tconsensus.group[task.consensusValue] = 0;\n\n\t\ttask.status         = IexecLibCore_v5.TaskStatusEnum.ACTIVE;\n\t\ttask.consensusValue = 0x0;\n\t\ttask.revealDeadline = 0;\n\t\ttask.winnerCounter  = 0;\n\n\t\temit TaskReopen(_taskid);\n\t}\n\n\tfunction finalize(\n\t\tbytes32          _taskid,\n\t\tbytes   calldata _results,\n\t\tbytes   calldata _resultsCallback) // Expansion - result separation\n\texternal override onlyScheduler(_taskid)\n\t{\n\t\tIexecLibCore_v5.Task storage task = m_tasks[_taskid];\n\t\tIexecLibCore_v5.Deal memory  deal = m_deals[task.dealid];\n\n\t\trequire(task.status        == IexecLibCore_v5.TaskStatusEnum.REVEALING                                    );\n\t\trequire(task.finalDeadline >  now                                                                         );\n\t\trequire(task.revealCounter == task.winnerCounter || (task.revealCounter > 0 && task.revealDeadline <= now));\n\n\t\trequire((deal.callback == address(0) && _resultsCallback.length == 0) || keccak256(_resultsCallback) == task.resultDigest);\n\n\t\ttask.status          = IexecLibCore_v5.TaskStatusEnum.COMPLETED;\n\t\ttask.results         = _results;\n\t\ttask.resultsCallback = _resultsCallback; // Expansion - result separation\n\n\t\t/**\n\t\t * Stake and reward management\n\t\t */\n\t\tsuccessWork(task.dealid, _taskid);\n\t\tdistributeRewards(_taskid);\n\n\t\t/**\n\t\t * Event\n\t\t */\n\t\temit TaskFinalize(_taskid, _results);\n\n\t\texecuteCallback(_taskid, _resultsCallback);\n\t}\n\n\tfunction claim(\n\t\tbytes32 _taskid)\n\tpublic override\n\t{\n\t\tIexecLibCore_v5.Task storage task = m_tasks[_taskid];\n\t\trequire(task.status == IexecLibCore_v5.TaskStatusEnum.ACTIVE\n\t\t\t || task.status == IexecLibCore_v5.TaskStatusEnum.REVEALING);\n\t\trequire(task.finalDeadline <= now);\n\n\t\ttask.status = IexecLibCore_v5.TaskStatusEnum.FAILED;\n\n\t\t/**\n\t\t * Stake management\n\t\t */\n\t\tfailedWork(task.dealid, _taskid);\n\t\tfor (uint256 i = 0; i < task.contributors.length; ++i)\n\t\t{\n\t\t\taddress worker = task.contributors[i];\n\t\t\tunlockContribution(task.dealid, worker);\n\t\t}\n\n\t\temit TaskClaimed(_taskid);\n\t}\n\n\t/***************************************************************************\n\t *                       Internal Consensus methods                        *\n\t ***************************************************************************/\n\t/*\n\t * Consensus detection\n\t */\n\tfunction checkConsensus(\n\t\tbytes32 _taskid,\n\t\tbytes32 _consensus)\n\tinternal\n\t{\n\t\tIexecLibCore_v5.Task      storage task      = m_tasks[_taskid];\n\t\tIexecLibCore_v5.Consensus storage consensus = m_consensus[_taskid];\n\n\t\tuint256 trust = m_deals[task.dealid].trust;\n\t\t/*************************************************************************\n\t\t *                          Consensus detection                          *\n\t\t *                                                                       *\n\t\t *                          see documentation:                           *\n\t\t *          ./ audit/docs/iExec_PoCo_and_trustmanagement_v1.pdf          *\n\t\t *************************************************************************/\n\t\tif (consensus.group[_consensus].mul(trust) > consensus.total.mul(trust.sub(1)))\n\t\t{\n\t\t\t// Preliminary checks done in \"contribute()\"\n\t\t\tuint256 winnerCounter = 0;\n\t\t\tfor (uint256 i = 0; i < task.contributors.length; ++i)\n\t\t\t{\n\t\t\t\taddress w = task.contributors[i];\n\t\t\t\tif\n\t\t\t\t(\n\t\t\t\t\tm_contributions[_taskid][w].resultHash == _consensus\n\t\t\t\t\t&&\n\t\t\t\t\tm_contributions[_taskid][w].status == IexecLibCore_v5.ContributionStatusEnum.CONTRIBUTED // REJECTED contribution must not be count\n\t\t\t\t)\n\t\t\t\t{\n\t\t\t\t\twinnerCounter = winnerCounter.add(1);\n\t\t\t\t}\n\t\t\t}\n\t\t\t// _msgSender() is a contributor: no need to check\n\t\t\ttask.status         = IexecLibCore_v5.TaskStatusEnum.REVEALING;\n\t\t\ttask.consensusValue = _consensus;\n\t\t\ttask.revealDeadline = task.timeref.mul(REVEAL_DEADLINE_RATIO).add(now);\n\t\t\ttask.revealCounter  = 0;\n\t\t\ttask.winnerCounter  = winnerCounter;\n\n\t\t\temit TaskConsensus(_taskid, _consensus);\n\t\t}\n\t}\n\n\t/*\n\t * Reward distribution\n\t */\n\tfunction distributeRewards(bytes32 _taskid)\n\tinternal\n\t{\n\t\tIexecLibCore_v5.Task memory task = m_tasks[_taskid];\n\t\tIexecLibCore_v5.Deal memory deal = m_deals[task.dealid];\n\n\t\tuint256 totalLogWeight = 0;\n\t\tuint256 totalReward    = deal.workerpool.price;\n\n\t\tfor (uint256 i = 0; i < task.contributors.length; ++i)\n\t\t{\n\t\t\taddress                              worker       = task.contributors[i];\n\t\t\tIexecLibCore_v5.Contribution storage contribution = m_contributions[_taskid][worker];\n\n\t\t\tif (contribution.status == IexecLibCore_v5.ContributionStatusEnum.PROVED)\n\t\t\t{\n\t\t\t\ttotalLogWeight = totalLogWeight.add(contribution.weight);\n\t\t\t}\n\t\t\telse // ContributionStatusEnum.REJECT or ContributionStatusEnum.CONTRIBUTED (not revealed)\n\t\t\t{\n\t\t\t\ttotalReward = totalReward.add(deal.workerStake);\n\t\t\t}\n\t\t}\n\n\t\t// compute how much is going to the workers\n\t\tuint256 workersReward = totalReward.percentage(uint256(100).sub(deal.schedulerRewardRatio));\n\n\t\tfor (uint256 i = 0; i < task.contributors.length; ++i)\n\t\t{\n\t\t\taddress                              worker       = task.contributors[i];\n\t\t\tIexecLibCore_v5.Contribution storage contribution = m_contributions[_taskid][worker];\n\n\t\t\tif (contribution.status == IexecLibCore_v5.ContributionStatusEnum.PROVED)\n\t\t\t{\n\t\t\t\tuint256 workerReward = workersReward.mulByFraction(contribution.weight, totalLogWeight);\n\t\t\t\ttotalReward          = totalReward.sub(workerReward);\n\n\t\t\t\tunlockContribution(task.dealid, worker);\n\t\t\t\trewardForContribution(worker, workerReward, _taskid);\n\n\t\t\t\t// Only reward if replication happened\n\t\t\t\tif (task.contributors.length > 1)\n\t\t\t\t{\n\t\t\t\t\t/*******************************************************************\n\t\t\t\t\t *                        SCORE POLICY 2/3                         *\n\t\t\t\t\t *                                                                 *\n\t\t\t\t\t *                       see documentation!                        *\n\t\t\t\t\t *******************************************************************/\n\t\t\t\t\tm_workerScores[worker] = m_workerScores[worker].add(1);\n\t\t\t\t\temit AccurateContribution(worker, _taskid);\n\t\t\t\t}\n\t\t\t}\n\t\t\telse // WorkStatusEnum.POCO_REJECT or ContributionStatusEnum.CONTRIBUTED (not revealed)\n\t\t\t{\n\t\t\t\t// No Reward\n\t\t\t\tseizeContribution(task.dealid, worker, _taskid);\n\n\t\t\t\t// Always punish bad contributors\n\t\t\t\t{\n\t\t\t\t\t/*******************************************************************\n\t\t\t\t\t *                        SCORE POLICY 3/3                         *\n\t\t\t\t\t *                                                                 *\n\t\t\t\t\t *                       see documentation!                        *\n\t\t\t\t\t *******************************************************************/\n\t\t\t\t\t// k = 3\n\t\t\t\t\tm_workerScores[worker] = m_workerScores[worker].mulByFraction(2,3);\n\t\t\t\t\temit FaultyContribution(worker, _taskid);\n\t\t\t\t}\n\t\t\t}\n\t\t}\n\t\t// totalReward now contains the scheduler share\n\t\trewardForScheduling(task.dealid, totalReward, _taskid);\n\t}\n\n\t/*\n\t * Reward distribution for contributeAndFinalize\n\t */\n\tfunction distributeRewardsFast(bytes32 _taskid)\n\tinternal\n\t{\n\t\tIexecLibCore_v5.Task memory task = m_tasks[_taskid];\n\t\tIexecLibCore_v5.Deal memory deal = m_deals[task.dealid];\n\n\t\t// simple reward, no score consideration\n\t\tuint256 workerReward    = deal.workerpool.price.percentage(uint256(100).sub(deal.schedulerRewardRatio));\n\t\tuint256 schedulerReward = deal.workerpool.price.sub(workerReward);\n\t\trewardForContribution(_msgSender(), workerReward, _taskid);\n\t\trewardForScheduling(task.dealid, schedulerReward, _taskid);\n\t}\n\n\t/**\n\t * Callback for smartcontracts using EIP1154\n\t */\n\tfunction executeCallback(bytes32 _taskid, bytes memory _resultsCallback)\n\tinternal\n\t{\n\t\taddress target = m_deals[m_tasks[_taskid].dealid].callback;\n\t\tif (target != address(0))\n\t\t{\n\t\t\t// Solidity 0.6.0 reverts if target is not a smartcontracts\n\t\t\t// /**\n\t\t\t//  * Call does not revert if the target smart contract is incompatible or reverts\n\t\t\t//  * Solidity 0.6.0 update. Check hit history for 0.5.0 implementation.\n\t\t\t//  */\n\t\t\t// try IOracleConsumer(target).receiveResult{gas: m_callbackgas}(_taskid, _results)\n\t\t\t// {\n\t\t\t// \t// Callback success, do nothing\n\t\t\t// }\n\t\t\t// catch (bytes memory /*lowLevelData*/)\n\t\t\t// {\n\t\t\t// \t// Check gas: https://ronan.eth.link/blog/ethereum-gas-dangers/\n\t\t\t// \tassert(gasleft() > m_callbackgas / 63); // no need for safemath here\n\t\t\t// }\n\n\t\t\t// Pre solidity 0.6.0 version\n\t\t\t(bool success, bytes memory returndata) = target.call{gas: m_callbackgas}(abi.encodeWithSignature(\"receiveResult(bytes32,bytes)\", _taskid, _resultsCallback));\n\t\t\tassert(gasleft() > m_callbackgas / 63);\n\t\t\t// silent unused variable warning\n\t\t\tsuccess;\n\t\t\treturndata;\n\t\t}\n\t}\n\n\t/***************************************************************************\n\t *                            Array operations                             *\n\t ***************************************************************************/\n\tfunction initializeArray(\n\t\tbytes32[] calldata _dealid,\n\t\tuint256[] calldata _idx)\n\texternal override returns (bool)\n\t{\n\t\trequire(_dealid.length == _idx.length);\n\t\tfor (uint i = 0; i < _dealid.length; ++i)\n\t\t{\n\t\t\tinitialize(_dealid[i], _idx[i]);\n\t\t}\n\t\treturn true;\n\t}\n\n\tfunction claimArray(\n\t\tbytes32[] calldata _taskid)\n\texternal override returns (bool)\n\t{\n\t\tfor (uint i = 0; i < _taskid.length; ++i)\n\t\t{\n\t\t\tclaim(_taskid[i]);\n\t\t}\n\t\treturn true;\n\t}\n\n\tfunction initializeAndClaimArray(\n\t\tbytes32[] calldata _dealid,\n\t\tuint256[] calldata _idx)\n\texternal override returns (bool)\n\t{\n\t\trequire(_dealid.length == _idx.length);\n\t\tfor (uint i = 0; i < _dealid.length; ++i)\n\t\t{\n\t\t\tclaim(initialize(_dealid[i], _idx[i]));\n\t\t}\n\t\treturn true;\n\t}\n}\n",
  "sourcePath": "/home/amxx/Work/iExec/code/PoCo-dev/contracts/modules/delegates/IexecPoco2Delegate.sol",
  "compiler": {
    "name": "solc",
    "version": "0.6.12+commit.27d51765.Emscripten.clang"
  },
  "schemaVersion": "3.2.2",
  "updatedAt": "2020-11-04T10:28:52.891Z",
  "devdoc": {
    "kind": "dev",
    "methods": {
      "owner()": {
        "details": "Returns the address of the current owner."
      },
      "renounceOwnership()": {
        "details": "Leaves the contract without owner. It will not be possible to call `onlyOwner` functions anymore. Can only be called by the current owner. NOTE: Renouncing ownership will leave the contract without an owner, thereby removing any functionality that is only available to the owner."
      },
      "transferOwnership(address)": {
        "details": "Transfers ownership of the contract to a new account (`newOwner`). Can only be called by the current owner."
      }
    },
    "version": 1
  },
  "userdoc": {
    "kind": "user",
    "methods": {},
    "version": 1
  }
}