{
  "contractName": "IexecAccessorsDelegate",
  "abi": [
    {
      "anonymous": false,
      "inputs": [
        {
          "indexed": true,
          "internalType": "address",
          "name": "previousOwner",
          "type": "address"
        },
        {
          "indexed": true,
          "internalType": "address",
          "name": "newOwner",
          "type": "address"
        }
      ],
      "name": "OwnershipTransferred",
      "type": "event"
    },
    {
      "inputs": [],
      "name": "isOwner",
      "outputs": [
        {
          "internalType": "bool",
          "name": "",
          "type": "bool"
        }
      ],
      "stateMutability": "view",
      "type": "function"
    },
    {
      "inputs": [],
      "name": "owner",
      "outputs": [
        {
          "internalType": "address",
          "name": "",
          "type": "address"
        }
      ],
      "stateMutability": "view",
      "type": "function"
    },
    {
      "inputs": [],
      "name": "renounceOwnership",
      "outputs": [],
      "stateMutability": "nonpayable",
      "type": "function"
    },
    {
      "inputs": [
        {
          "internalType": "address",
          "name": "newOwner",
          "type": "address"
        }
      ],
      "name": "transferOwnership",
      "outputs": [],
      "stateMutability": "nonpayable",
      "type": "function"
    },
    {
      "inputs": [],
      "name": "name",
      "outputs": [
        {
          "internalType": "string",
          "name": "",
          "type": "string"
        }
      ],
      "stateMutability": "view",
      "type": "function"
    },
    {
      "inputs": [],
      "name": "symbol",
      "outputs": [
        {
          "internalType": "string",
          "name": "",
          "type": "string"
        }
      ],
      "stateMutability": "view",
      "type": "function"
    },
    {
      "inputs": [],
      "name": "decimals",
      "outputs": [
        {
          "internalType": "uint8",
          "name": "",
          "type": "uint8"
        }
      ],
      "stateMutability": "view",
      "type": "function"
    },
    {
      "inputs": [],
      "name": "totalSupply",
      "outputs": [
        {
          "internalType": "uint256",
          "name": "",
          "type": "uint256"
        }
      ],
      "stateMutability": "view",
      "type": "function"
    },
    {
      "inputs": [
        {
          "internalType": "address",
          "name": "account",
          "type": "address"
        }
      ],
      "name": "balanceOf",
      "outputs": [
        {
          "internalType": "uint256",
          "name": "",
          "type": "uint256"
        }
      ],
      "stateMutability": "view",
      "type": "function"
    },
    {
      "inputs": [
        {
          "internalType": "address",
          "name": "account",
          "type": "address"
        }
      ],
      "name": "frozenOf",
      "outputs": [
        {
          "internalType": "uint256",
          "name": "",
          "type": "uint256"
        }
      ],
      "stateMutability": "view",
      "type": "function"
    },
    {
      "inputs": [
        {
          "internalType": "address",
          "name": "account",
          "type": "address"
        },
        {
          "internalType": "address",
          "name": "spender",
          "type": "address"
        }
      ],
      "name": "allowance",
      "outputs": [
        {
          "internalType": "uint256",
          "name": "",
          "type": "uint256"
        }
      ],
      "stateMutability": "view",
      "type": "function"
    },
    {
      "inputs": [
        {
          "internalType": "address",
          "name": "account",
          "type": "address"
        }
      ],
      "name": "viewAccount",
      "outputs": [
        {
          "components": [
            {
              "internalType": "uint256",
              "name": "stake",
              "type": "uint256"
            },
            {
              "internalType": "uint256",
              "name": "locked",
              "type": "uint256"
            }
          ],
          "internalType": "struct IexecLibCore_v5.Account",
          "name": "",
          "type": "tuple"
        }
      ],
      "stateMutability": "view",
      "type": "function"
    },
    {
      "inputs": [],
      "name": "token",
      "outputs": [
        {
          "internalType": "address",
          "name": "",
          "type": "address"
        }
      ],
      "stateMutability": "view",
      "type": "function"
    },
    {
      "inputs": [
        {
          "internalType": "bytes32",
          "name": "_id",
          "type": "bytes32"
        }
      ],
      "name": "viewDeal",
      "outputs": [
        {
          "components": [
            {
              "components": [
                {
                  "internalType": "address",
                  "name": "pointer",
                  "type": "address"
                },
                {
                  "internalType": "address",
                  "name": "owner",
                  "type": "address"
                },
                {
                  "internalType": "uint256",
                  "name": "price",
                  "type": "uint256"
                }
              ],
              "internalType": "struct IexecLibCore_v5.Resource",
              "name": "app",
              "type": "tuple"
            },
            {
              "components": [
                {
                  "internalType": "address",
                  "name": "pointer",
                  "type": "address"
                },
                {
                  "internalType": "address",
                  "name": "owner",
                  "type": "address"
                },
                {
                  "internalType": "uint256",
                  "name": "price",
                  "type": "uint256"
                }
              ],
              "internalType": "struct IexecLibCore_v5.Resource",
              "name": "dataset",
              "type": "tuple"
            },
            {
              "components": [
                {
                  "internalType": "address",
                  "name": "pointer",
                  "type": "address"
                },
                {
                  "internalType": "address",
                  "name": "owner",
                  "type": "address"
                },
                {
                  "internalType": "uint256",
                  "name": "price",
                  "type": "uint256"
                }
              ],
              "internalType": "struct IexecLibCore_v5.Resource",
              "name": "workerpool",
              "type": "tuple"
            },
            {
              "internalType": "uint256",
              "name": "trust",
              "type": "uint256"
            },
            {
              "internalType": "uint256",
              "name": "category",
              "type": "uint256"
            },
            {
              "internalType": "bytes32",
              "name": "tag",
              "type": "bytes32"
            },
            {
              "internalType": "address",
              "name": "requester",
              "type": "address"
            },
            {
              "internalType": "address",
              "name": "beneficiary",
              "type": "address"
            },
            {
              "internalType": "address",
              "name": "callback",
              "type": "address"
            },
            {
              "internalType": "string",
              "name": "params",
              "type": "string"
            },
            {
              "internalType": "uint256",
              "name": "startTime",
              "type": "uint256"
            },
            {
              "internalType": "uint256",
              "name": "botFirst",
              "type": "uint256"
            },
            {
              "internalType": "uint256",
              "name": "botSize",
              "type": "uint256"
            },
            {
              "internalType": "uint256",
              "name": "workerStake",
              "type": "uint256"
            },
            {
              "internalType": "uint256",
              "name": "schedulerRewardRatio",
              "type": "uint256"
            }
          ],
          "internalType": "struct IexecLibCore_v5.Deal",
          "name": "deal",
          "type": "tuple"
        }
      ],
      "stateMutability": "view",
      "type": "function"
    },
    {
      "inputs": [
        {
          "internalType": "bytes32",
          "name": "_id",
          "type": "bytes32"
        }
      ],
      "name": "viewConsumed",
      "outputs": [
        {
          "internalType": "uint256",
          "name": "consumed",
          "type": "uint256"
        }
      ],
      "stateMutability": "view",
      "type": "function"
    },
    {
      "inputs": [
        {
          "internalType": "bytes32",
          "name": "_id",
          "type": "bytes32"
        }
      ],
      "name": "viewPresigned",
      "outputs": [
        {
          "internalType": "address",
          "name": "signer",
          "type": "address"
        }
      ],
      "stateMutability": "view",
      "type": "function"
    },
    {
      "inputs": [
        {
          "internalType": "bytes32",
          "name": "_taskid",
          "type": "bytes32"
        }
      ],
      "name": "viewTask",
      "outputs": [
        {
          "components": [
            {
              "internalType": "enum IexecLibCore_v5.TaskStatusEnum",
              "name": "status",
              "type": "uint8"
            },
            {
              "internalType": "bytes32",
              "name": "dealid",
              "type": "bytes32"
            },
            {
              "internalType": "uint256",
              "name": "idx",
              "type": "uint256"
            },
            {
              "internalType": "uint256",
              "name": "timeref",
              "type": "uint256"
            },
            {
              "internalType": "uint256",
              "name": "contributionDeadline",
              "type": "uint256"
            },
            {
              "internalType": "uint256",
              "name": "revealDeadline",
              "type": "uint256"
            },
            {
              "internalType": "uint256",
              "name": "finalDeadline",
              "type": "uint256"
            },
            {
              "internalType": "bytes32",
              "name": "consensusValue",
              "type": "bytes32"
            },
            {
              "internalType": "uint256",
              "name": "revealCounter",
              "type": "uint256"
            },
            {
              "internalType": "uint256",
              "name": "winnerCounter",
              "type": "uint256"
            },
            {
              "internalType": "address[]",
              "name": "contributors",
              "type": "address[]"
            },
            {
              "internalType": "bytes32",
              "name": "resultDigest",
              "type": "bytes32"
            },
            {
              "internalType": "bytes",
              "name": "results",
              "type": "bytes"
            },
            {
              "internalType": "uint256",
              "name": "resultsTimestamp",
              "type": "uint256"
            }
          ],
          "internalType": "struct IexecLibCore_v5.Task",
          "name": "",
          "type": "tuple"
        }
      ],
      "stateMutability": "view",
      "type": "function"
    },
    {
      "inputs": [
        {
          "internalType": "bytes32",
          "name": "_taskid",
          "type": "bytes32"
        },
        {
          "internalType": "address",
          "name": "_worker",
          "type": "address"
        }
      ],
      "name": "viewContribution",
      "outputs": [
        {
          "components": [
            {
              "internalType": "enum IexecLibCore_v5.ContributionStatusEnum",
              "name": "status",
              "type": "uint8"
            },
            {
              "internalType": "bytes32",
              "name": "resultHash",
              "type": "bytes32"
            },
            {
              "internalType": "bytes32",
              "name": "resultSeal",
              "type": "bytes32"
            },
            {
              "internalType": "address",
              "name": "enclaveChallenge",
              "type": "address"
            },
            {
              "internalType": "uint256",
              "name": "weight",
              "type": "uint256"
            }
          ],
          "internalType": "struct IexecLibCore_v5.Contribution",
          "name": "",
          "type": "tuple"
        }
      ],
      "stateMutability": "view",
      "type": "function"
    },
    {
      "inputs": [
        {
          "internalType": "address",
          "name": "_worker",
          "type": "address"
        }
      ],
      "name": "viewScore",
      "outputs": [
        {
          "internalType": "uint256",
          "name": "",
          "type": "uint256"
        }
      ],
      "stateMutability": "view",
      "type": "function"
    },
    {
      "inputs": [
        {
          "internalType": "bytes32",
          "name": "id",
          "type": "bytes32"
        }
      ],
      "name": "resultFor",
      "outputs": [
        {
          "internalType": "bytes",
          "name": "",
          "type": "bytes"
        }
      ],
      "stateMutability": "view",
      "type": "function"
    },
    {
      "inputs": [
        {
          "internalType": "uint256",
          "name": "_catid",
          "type": "uint256"
        }
      ],
      "name": "viewCategory",
      "outputs": [
        {
          "components": [
            {
              "internalType": "string",
              "name": "name",
              "type": "string"
            },
            {
              "internalType": "string",
              "name": "description",
              "type": "string"
            },
            {
              "internalType": "uint256",
              "name": "workClockTimeRef",
              "type": "uint256"
            }
          ],
          "internalType": "struct IexecLibCore_v5.Category",
          "name": "category",
          "type": "tuple"
        }
      ],
      "stateMutability": "view",
      "type": "function"
    },
    {
      "inputs": [],
      "name": "countCategory",
      "outputs": [
        {
          "internalType": "uint256",
          "name": "count",
          "type": "uint256"
        }
      ],
      "stateMutability": "view",
      "type": "function"
    },
    {
      "inputs": [],
      "name": "appregistry",
      "outputs": [
        {
          "internalType": "contract IRegistry",
          "name": "",
          "type": "address"
        }
      ],
      "stateMutability": "view",
      "type": "function"
    },
    {
      "inputs": [],
      "name": "datasetregistry",
      "outputs": [
        {
          "internalType": "contract IRegistry",
          "name": "",
          "type": "address"
        }
      ],
      "stateMutability": "view",
      "type": "function"
    },
    {
      "inputs": [],
      "name": "workerpoolregistry",
      "outputs": [
        {
          "internalType": "contract IRegistry",
          "name": "",
          "type": "address"
        }
      ],
      "stateMutability": "view",
      "type": "function"
    },
    {
      "inputs": [],
      "name": "teebroker",
      "outputs": [
        {
          "internalType": "address",
          "name": "",
          "type": "address"
        }
      ],
      "stateMutability": "view",
      "type": "function"
    },
    {
      "inputs": [],
      "name": "callbackgas",
      "outputs": [
        {
          "internalType": "uint256",
          "name": "",
          "type": "uint256"
        }
      ],
      "stateMutability": "view",
      "type": "function"
    },
    {
      "inputs": [],
      "name": "contribution_deadline_ratio",
      "outputs": [
        {
          "internalType": "uint256",
          "name": "",
          "type": "uint256"
        }
      ],
      "stateMutability": "view",
      "type": "function"
    },
    {
      "inputs": [],
      "name": "reveal_deadline_ratio",
      "outputs": [
        {
          "internalType": "uint256",
          "name": "",
          "type": "uint256"
        }
      ],
      "stateMutability": "view",
      "type": "function"
    },
    {
      "inputs": [],
      "name": "final_deadline_ratio",
      "outputs": [
        {
          "internalType": "uint256",
          "name": "",
          "type": "uint256"
        }
      ],
      "stateMutability": "view",
      "type": "function"
    },
    {
      "inputs": [],
      "name": "workerpool_stake_ratio",
      "outputs": [
        {
          "internalType": "uint256",
          "name": "",
          "type": "uint256"
        }
      ],
      "stateMutability": "view",
      "type": "function"
    },
    {
      "inputs": [],
      "name": "kitty_ratio",
      "outputs": [
        {
          "internalType": "uint256",
          "name": "",
          "type": "uint256"
        }
      ],
      "stateMutability": "view",
      "type": "function"
    },
    {
      "inputs": [],
      "name": "kitty_min",
      "outputs": [
        {
          "internalType": "uint256",
          "name": "",
          "type": "uint256"
        }
      ],
      "stateMutability": "view",
      "type": "function"
    },
    {
      "inputs": [],
      "name": "kitty_address",
      "outputs": [
        {
          "internalType": "address",
          "name": "",
          "type": "address"
        }
      ],
      "stateMutability": "view",
      "type": "function"
    },
    {
      "inputs": [],
      "name": "groupmember_purpose",
      "outputs": [
        {
          "internalType": "uint256",
          "name": "",
          "type": "uint256"
        }
      ],
      "stateMutability": "view",
      "type": "function"
    },
    {
      "inputs": [],
      "name": "eip712domain_separator",
      "outputs": [
        {
          "internalType": "bytes32",
          "name": "",
          "type": "bytes32"
        }
      ],
      "stateMutability": "view",
      "type": "function"
    }
  ],
  "bytecode": "0x60806040526000620000196001600160e01b036200006b16565b600080546001600160a01b0319166001600160a01b038316908117825560405192935091600080516020620016b5833981519152908290a350620000656001600160e01b036200006f16565b62000147565b3390565b620000826001600160e01b03620000e316565b620000aa5760405162461bcd60e51b8152600401620000a19062000112565b60405180910390fd5b600080546040516001600160a01b0390911690600080516020620016b5833981519152908390a3600080546001600160a01b0319169055565b600080546001600160a01b0316620001036001600160e01b036200006b16565b6001600160a01b031614905090565b6020808252818101527f4f776e61626c653a2063616c6c6572206973206e6f7420746865206f776e6572604082015260600190565b61155e80620001576000396000f3fe608060405234801561001057600080fd5b506004361061021c5760003560e01c806390a0f54611610125578063d286eb16116100ad578063dd62ed3e1161007c578063dd62ed3e146103ff578063e63ec07d14610412578063e741363b1461041a578063f2fde38b1461043a578063fc0c546a1461044d5761021c565b8063d286eb16146103d1578063db230b52146103e4578063db8aaa26146103f7578063dcb03241146103f75761021c565b8063adccf0d5116100f4578063adccf0d51461036e578063b1b11d2c1461038e578063b74861b214610396578063c140996f146103b6578063d09cc57e146103be5761021c565b806390a0f5461461034e57806395d89b41146103565780639910fd721461035e578063a47e7f80146103665761021c565b80635975b8fc116101a8578063715018a611610177578063715018a61461031757806374ed52441461032157806377a99692146103295780638da5cb5b146103315780638f32d59b146103395761021c565b80635975b8fc146102d45780636112f6fd146102dc5780636b55f4a5146102e457806370a08231146103045761021c565b80632b8857c1116101ef5780632b8857c11461026f578063313ce5671461027757806345b637a91461028c5780634b2bec8c146102a15780634f5f44ec146102b45761021c565b806306fdde031461022157806318160ddd1461023f5780631bf6e00d1461025457806325eacba814610267575b600080fd5b610229610455565b60405161023691906111fe565b60405180910390f35b6102476104eb565b60405161023691906111f5565b61024761026236600461105e565b6104f1565b61024761050c565b610247610511565b61027f610516565b604051610236919061151a565b61029461051f565b60405161023691906111d6565b6102476102af3660046110b4565b61052e565b6102c76102c23660046110b4565b610540565b60405161023691906112a3565b6102946106b4565b6102476106c3565b6102f76102f236600461105e565b6106c8565b604051610236919061128c565b61024761031236600461105e565b61070b565b61031f610726565b005b61024761079d565b6102476107a2565b6102946107aa565b6103416107b9565b60405161023691906111ea565b6102946107dd565b6102296107ec565b61024761084d565b610294610853565b61038161037c3660046110b4565b610899565b604051610236919061143d565b610294610a47565b6103a96103a43660046110b4565b610a56565b604051610236919061133d565b610247610c15565b6102296103cc3660046110b4565b610c1b565b6102946103df3660046110b4565b610cdd565b6102476103f236600461105e565b610cf8565b610247610d13565b61024761040d366004611080565b610d18565b610247610d45565b61042d6104283660046110cc565b610d4b565b60405161023691906112f2565b61031f61044836600461105e565b610dd9565b610294610e09565b60098054604080516020601f60026000196101006001881615020190951694909404938401819004810282018101909252828152606093909290918301828280156104e15780601f106104b6576101008083540402835291602001916104e1565b820191906000526020600020905b8154815290600101906020018083116104c457829003601f168201915b5050505050905090565b600c5490565b6001600160a01b03166000908152600e602052604090205490565b600490565b600290565b600b5460ff1690565b6005546001600160a01b031690565b60009081526012602052604090205490565b610548610e9d565b601a828154811061055557fe5b600091825260209182902060408051600393909302909101805460026001821615610100026000190190911604601f81018590049094028301608090810190925260608301848152929390928492909184918401828280156105f85780601f106105cd576101008083540402835291602001916105f8565b820191906000526020600020905b8154815290600101906020018083116105db57829003601f168201915b50505050508152602001600182018054600181600116156101000203166002900480601f01602080910402602001604051908101604052809291908181526020018280546001816001161561010002031660029004801561069a5780601f1061066f5761010080835404028352916020019161069a565b820191906000526020600020905b81548152906001019060200180831161067d57829003601f168201915b505050505081526020016002820154815250509050919050565b6018546001600160a01b031690565b601e90565b6106d0610ebe565b506040805180820182526001600160a01b03929092166000818152600d6020908152838220548552918152600e825291909120549082015290565b6001600160a01b03166000908152600d602052604090205490565b61072e6107b9565b6107535760405162461bcd60e51b815260040161074a90611257565b60405180910390fd5b600080546040516001600160a01b03909116907f8be0079c531659141344cd1fd0a4f28419497f9722a3daafe3b4186f6b6457e0908390a3600080546001600160a01b0319169055565b600790565b633b9aca0090565b6000546001600160a01b031690565b600080546001600160a01b03166107ce610e18565b6001600160a01b031614905090565b6007546001600160a01b031690565b600a8054604080516020601f60026000196101006001881615020190951694909404938401819004810282018101909252828152606093909290918301828280156104e15780601f106104b6576101008083540402835291602001916104e1565b60105490565b60408051808201909152600a81526969457865634b6974747960b01b6020909101527f99c2268479b93fde36232351229815df80837e247066f0acfcf087b5d9321d3c90565b6108a1610ed8565b6000828152601460205260409081902081516101c081019092528054829060ff1660048111156108cd57fe5b60048111156108d857fe5b8152602001600182015481526020016002820154815260200160038201548152602001600482015481526020016005820154815260200160068201548152602001600782015481526020016008820154815260200160098201548152602001600a820180548060200260200160405190810160405280929190818152602001828054801561098f57602002820191906000526020600020905b81546001600160a01b03168152600190910190602001808311610971575b5050509183525050600b820154602080830191909152600c8301805460408051601f60026000196101006001871615020190941693909304928301859004850281018501825282815294019392830182828015610a2d5780601f10610a0257610100808354040283529160200191610a2d565b820191906000526020600020905b815481529060010190602001808311610a1057829003601f168201915b50505050508152602001600d820154815250509050919050565b6006546001600160a01b031690565b610a5e610f51565b60008281526013602090815260409182902082516102408101845281546001600160a01b039081166101e08301908152600180850154831661020085015260028086015461022086015291845286516060808201895260038701548516825260048701548516828901526005870154828a0152858801919091528751808201895260068701548516815260078701548516818901526008870154818a015285890152600986015490850152600a8501546080850152600b85015460a0850152600c850154831660c0850152600d850154831660e0850152600e85015490921661010080850191909152600f850180548851948116159092026000190190911691909104601f81018690048602830186019096528582529194929361012086019391929190830182828015610bd35780601f10610ba857610100808354040283529160200191610bd3565b820191906000526020600020905b815481529060010190602001808311610bb657829003601f168201915b50505050508152602001601082015481526020016011820154815260200160128201548152602001601382015481526020016014820154815250509050919050565b601a5490565b60008181526014602052604090206060906003815460ff166004811115610c3e57fe5b14610c4857600080fd5b600c8101805460408051602060026001851615610100026000190190941693909304601f81018490048402820184019092528181529291830182828015610cd05780601f10610ca557610100808354040283529160200191610cd0565b820191906000526020600020905b815481529060010190602001808311610cb357829003601f168201915b5050505050915050919050565b6000908152601160205260409020546001600160a01b031690565b6001600160a01b031660009081526017602052604090205490565b600a90565b6001600160a01b038083166000908152600f60209081526040808320938516835292905220545b92915050565b60195490565b610d53610ff7565b60008381526016602090815260408083206001600160a01b038616845290915290819020815160a081019092528054829060ff166003811115610d9257fe5b6003811115610d9d57fe5b8152600182015460208201526002820154604082015260038201546001600160a01b031660608201526004909101546080909101529392505050565b610de16107b9565b610dfd5760405162461bcd60e51b815260040161074a90611257565b610e0681610e1c565b50565b6008546001600160a01b031690565b3390565b6001600160a01b038116610e425760405162461bcd60e51b815260040161074a90611211565b600080546040516001600160a01b03808516939216917f8be0079c531659141344cd1fd0a4f28419497f9722a3daafe3b4186f6b6457e091a3600080546001600160a01b0319166001600160a01b0392909216919091179055565b60405180606001604052806060815260200160608152602001600081525090565b604051806040016040528060008152602001600081525090565b604080516101c081019091528060008152602001600080191681526020016000815260200160008152602001600081526020016000815260200160008152602001600080191681526020016000815260200160008152602001606081526020016000801916815260200160608152602001600081525090565b604051806101e00160405280610f65611027565b8152602001610f72611027565b8152602001610f7f611027565b815260200160008152602001600081526020016000801916815260200160006001600160a01b0316815260200160006001600160a01b0316815260200160006001600160a01b031681526020016060815260200160008152602001600081526020016000815260200160008152602001600081525090565b6040805160a081019091528060008152600060208201819052604082018190526060820181905260809091015290565b604080516060810182526000808252602082018190529181019190915290565b80356001600160a01b0381168114610d3f57600080fd5b60006020828403121561106f578081fd5b6110798383611047565b9392505050565b60008060408385031215611092578081fd5b61109c8484611047565b91506110ab8460208501611047565b90509250929050565b6000602082840312156110c5578081fd5b5035919050565b600080604083850312156110de578182fd5b8235915060208301356001600160a01b03811681146110fb578182fd5b809150509250929050565b6001600160a01b03169052565b6000815180845260208085019450808401835b8381101561114b5781516001600160a01b031687529582019590820190600101611126565b509495945050505050565b60008151808452815b8181101561117b5760208185018101518683018201520161115f565b8181111561118c5782602083870101525b50601f01601f19169290920160200192915050565b600581106111ab57fe5b9052565b80516001600160a01b03908116835260208083015190911690830152604090810151910152565b6001600160a01b0391909116815260200190565b901515815260200190565b90815260200190565b6000602082526110796020830184611156565b60208082526026908201527f4f776e61626c653a206e6577206f776e657220697320746865207a65726f206160408201526564647265737360d01b606082015260800190565b6020808252818101527f4f776e61626c653a2063616c6c6572206973206e6f7420746865206f776e6572604082015260600190565b815181526020918201519181019190915260400190565b6000602082528251606060208401526112bf6080840182611156565b6020850151848203601f1901604086015291506112dc8183611156565b6040860151606086015280935050505092915050565b815160a08201906004811061130357fe5b825260208381015190830152604080840151908301526060808401516001600160a01b031690830152608092830151929091019190915290565b6000602082526113516020830184516111af565b602083015161136360808401826111af565b50604083015161137660e08401826111af565b506060830151610140818185015260808501519150610160828186015260a08601519250610180838187015260c087015193506101a06113b881880186611106565b60e088015194506101c06113ce81890187611106565b61010089015195506113e46101e0890187611106565b61012089015195506102a0806102008a01526114046102c08a0188611156565b958a01516102208a0152938901516102408901529188015161026088015287015161028087015290950151949093019390935250919050565b6000602082526114516020830184516111a1565b602083015160408301526040830151606083015260608301516080830152608083015160a083015260a083015160c083015260c083015160e083015260e08301516101008181850152808501519150506101208181850152808501519150506101408181850152808501519150506101c061016081818601526114d86101e0860184611113565b9086015161018086810191909152860151858203601f19016101a080880191909152909350906115088185611156565b91909601519190940152509092915050565b60ff9190911681526020019056fea26469706673582212209971e7ecb89018f410bd2b074157aabd3f054cc3f79d9882dd9ca3e13966f85c64736f6c634300060300338be0079c531659141344cd1fd0a4f28419497f9722a3daafe3b4186f6b6457e0",
  "source": "pragma solidity ^0.6.0;\npragma experimental ABIEncoderV2;\n\nimport \"../DelegateBase.sol\";\nimport \"../interfaces/IexecAccessors.sol\";\n\n\ncontract IexecAccessorsDelegate is IexecAccessors, DelegateBase\n{\n\n\tfunction name()\n\texternal view override returns (string memory)\n\t{\n\t\treturn m_name;\n\t}\n\n\tfunction symbol()\n\texternal view override returns (string memory)\n\t{\n\t\treturn m_symbol;\n\t}\n\n\tfunction decimals()\n\texternal view override returns (uint8)\n\t{\n\t\treturn m_decimals;\n\t}\n\n\tfunction totalSupply()\n\texternal view override returns (uint256)\n\t{\n\t\treturn m_totalSupply;\n\t}\n\n\tfunction balanceOf(address account)\n\texternal view override returns (uint256)\n\t{\n\t\treturn m_balances[account];\n\t}\n\n\tfunction frozenOf(address account)\n\texternal view override returns (uint256)\n\t{\n\t\treturn m_frozens[account];\n\t}\n\n\tfunction allowance(address account, address spender)\n\texternal view override returns (uint256)\n\t{\n\t\treturn m_allowances[account][spender];\n\t}\n\n\tfunction viewAccount(address account)\n\texternal view override returns (IexecLibCore_v5.Account memory)\n\t{\n\t\treturn IexecLibCore_v5.Account(m_balances[account], m_frozens[account]);\n\t}\n\n\tfunction token()\n\texternal view override returns (address)\n\t{\n\t\treturn address(m_baseToken);\n\t}\n\n\tfunction viewDeal(bytes32 _id)\n\texternal view override returns (IexecLibCore_v5.Deal memory deal)\n\t{\n\t\treturn m_deals[_id];\n\t}\n\n\tfunction viewConsumed(bytes32 _id)\n\texternal view override returns (uint256 consumed)\n\t{\n\t\treturn m_consumed[_id];\n\t}\n\n\tfunction viewPresigned(bytes32 _id)\n\texternal view override returns (address signer)\n\t{\n\t\treturn m_presigned[_id];\n\t}\n\n\tfunction viewTask(bytes32 _taskid)\n\texternal view override returns (IexecLibCore_v5.Task memory)\n\t{\n\t\treturn m_tasks[_taskid];\n\t}\n\n\tfunction viewContribution(bytes32 _taskid, address _worker)\n\texternal view override returns (IexecLibCore_v5.Contribution memory)\n\t{\n\t\treturn m_contributions[_taskid][_worker];\n\t}\n\n\tfunction viewScore(address _worker)\n\texternal view override returns (uint256)\n\t{\n\t\treturn m_workerScores[_worker];\n\t}\n\n\tfunction resultFor(bytes32 id)\n\texternal view override returns (bytes memory)\n\t{\n\t\tIexecLibCore_v5.Task storage task = m_tasks[id];\n\t\trequire(task.status == IexecLibCore_v5.TaskStatusEnum.COMPLETED);\n\t\treturn task.results;\n\t}\n\n\tfunction viewCategory(uint256 _catid)\n\texternal view override returns (IexecLibCore_v5.Category memory category)\n\t{\n\t\treturn m_categories[_catid];\n\t}\n\n\tfunction countCategory()\n\texternal view override returns (uint256 count)\n\t{\n\t\treturn m_categories.length;\n\t}\n\n\n\tfunction appregistry()\n\texternal view override returns (IRegistry)\n\t{\n\t\treturn m_appregistry;\n\t}\n\n\tfunction datasetregistry()\n\texternal view override returns (IRegistry)\n\t{\n\t\treturn m_datasetregistry;\n\t}\n\n\tfunction workerpoolregistry()\n\texternal view override returns (IRegistry)\n\t{\n\t\treturn m_workerpoolregistry;\n\t}\n\n\tfunction teebroker()\n\texternal view override returns (address)\n\t{\n\t\treturn m_teebroker;\n\t}\n\n\tfunction callbackgas()\n\texternal view override returns (uint256)\n\t{\n\t\treturn m_callbackgas;\n\t}\n\n\tfunction contribution_deadline_ratio()\n\texternal view override returns (uint256)\n\t{\n\t\treturn CONTRIBUTION_DEADLINE_RATIO;\n\t}\n\n\tfunction reveal_deadline_ratio()\n\texternal view override returns (uint256)\n\t{\n\t\treturn REVEAL_DEADLINE_RATIO;\n\t}\n\n\tfunction final_deadline_ratio()\n\texternal view override returns (uint256)\n\t{\n\t\treturn FINAL_DEADLINE_RATIO;\n\t}\n\n\tfunction workerpool_stake_ratio()\n\texternal view override returns (uint256)\n\t{\n\t\treturn WORKERPOOL_STAKE_RATIO;\n\t}\n\n\tfunction kitty_ratio()\n\texternal view override returns (uint256)\n\t{\n\t\treturn KITTY_RATIO;\n\t}\n\n\tfunction kitty_min()\n\texternal view override returns (uint256)\n\t{\n\t\treturn KITTY_MIN;\n\t}\n\n\tfunction kitty_address()\n\texternal view override returns (address)\n\t{\n\t\treturn KITTY_ADDRESS;\n\t}\n\n\tfunction groupmember_purpose()\n\texternal view override returns (uint256)\n\t{\n\t\treturn GROUPMEMBER_PURPOSE;\n\t}\n\n\tfunction eip712domain_separator()\n\texternal view override returns (bytes32)\n\t{\n\t\treturn EIP712DOMAIN_SEPARATOR;\n\t}\n}\n",
  "sourcePath": "/home/amxx/Work/iExec/code/PoCo-dev/contracts/modules/delegates/IexecAccessorsDelegate.sol",
  "compiler": {
    "name": "solc",
    "version": "0.6.3+commit.8dda9521.Emscripten.clang"
  },
  "schemaVersion": "3.0.23",
  "updatedAt": "2020-03-09T19:23:38.232Z",
  "networkType": "ethereum",
  "devdoc": {
    "methods": {
      "isOwner()": {
        "details": "Returns true if the caller is the current owner."
      },
      "owner()": {
        "details": "Returns the address of the current owner."
      },
      "renounceOwnership()": {
        "details": "Leaves the contract without owner. It will not be possible to call `onlyOwner` functions anymore. Can only be called by the current owner.     * NOTE: Renouncing ownership will leave the contract without an owner, thereby removing any functionality that is only available to the owner."
      },
      "transferOwnership(address)": {
        "details": "Transfers ownership of the contract to a new account (`newOwner`). Can only be called by the current owner."
      }
    }
  },
  "userdoc": {
    "methods": {}
  }
}