{
  "contractName": "IexecLibOrders_v5",
  "abi": [
    {
      "inputs": [],
      "name": "APPORDEROPERATION_TYPEHASH",
      "outputs": [
        {
          "internalType": "bytes32",
          "name": "",
          "type": "bytes32"
        }
      ],
      "stateMutability": "view",
      "type": "function",
      "constant": true
    },
    {
      "inputs": [],
      "name": "APPORDER_TYPEHASH",
      "outputs": [
        {
          "internalType": "bytes32",
          "name": "",
          "type": "bytes32"
        }
      ],
      "stateMutability": "view",
      "type": "function",
      "constant": true
    },
    {
      "inputs": [],
      "name": "DATASETORDEROPERATION_TYPEHASH",
      "outputs": [
        {
          "internalType": "bytes32",
          "name": "",
          "type": "bytes32"
        }
      ],
      "stateMutability": "view",
      "type": "function",
      "constant": true
    },
    {
      "inputs": [],
      "name": "DATASETORDER_TYPEHASH",
      "outputs": [
        {
          "internalType": "bytes32",
          "name": "",
          "type": "bytes32"
        }
      ],
      "stateMutability": "view",
      "type": "function",
      "constant": true
    },
    {
      "inputs": [],
      "name": "EIP712DOMAIN_TYPEHASH",
      "outputs": [
        {
          "internalType": "bytes32",
          "name": "",
          "type": "bytes32"
        }
      ],
      "stateMutability": "view",
      "type": "function",
      "constant": true
    },
    {
      "inputs": [],
      "name": "REQUESTORDEROPERATION_TYPEHASH",
      "outputs": [
        {
          "internalType": "bytes32",
          "name": "",
          "type": "bytes32"
        }
      ],
      "stateMutability": "view",
      "type": "function",
      "constant": true
    },
    {
      "inputs": [],
      "name": "REQUESTORDER_TYPEHASH",
      "outputs": [
        {
          "internalType": "bytes32",
          "name": "",
          "type": "bytes32"
        }
      ],
      "stateMutability": "view",
      "type": "function",
      "constant": true
    },
    {
      "inputs": [],
      "name": "WORKERPOOLORDEROPERATION_TYPEHASH",
      "outputs": [
        {
          "internalType": "bytes32",
          "name": "",
          "type": "bytes32"
        }
      ],
      "stateMutability": "view",
      "type": "function",
      "constant": true
    },
    {
      "inputs": [],
      "name": "WORKERPOOLORDER_TYPEHASH",
      "outputs": [
        {
          "internalType": "bytes32",
          "name": "",
          "type": "bytes32"
        }
      ],
      "stateMutability": "view",
      "type": "function",
      "constant": true
    },
    {
      "inputs": [
        {
          "components": [
            {
              "internalType": "address",
              "name": "app",
              "type": "address"
            },
            {
              "internalType": "uint256",
              "name": "appprice",
              "type": "uint256"
            },
            {
              "internalType": "uint256",
              "name": "volume",
              "type": "uint256"
            },
            {
              "internalType": "bytes32",
              "name": "tag",
              "type": "bytes32"
            },
            {
              "internalType": "address",
              "name": "datasetrestrict",
              "type": "address"
            },
            {
              "internalType": "address",
              "name": "workerpoolrestrict",
              "type": "address"
            },
            {
              "internalType": "address",
              "name": "requesterrestrict",
              "type": "address"
            },
            {
              "internalType": "bytes32",
              "name": "salt",
              "type": "bytes32"
            },
            {
              "internalType": "bytes",
              "name": "sign",
              "type": "bytes"
            }
          ],
          "internalType": "struct IexecLibOrders_v5.AppOrder",
          "name": "_apporder",
          "type": "tuple"
        }
      ],
      "name": "hash",
      "outputs": [
        {
          "internalType": "bytes32",
          "name": "apphash",
          "type": "bytes32"
        }
      ],
      "stateMutability": "pure",
      "type": "function",
      "constant": true
    },
    {
      "inputs": [
        {
          "components": [
            {
              "internalType": "address",
              "name": "dataset",
              "type": "address"
            },
            {
              "internalType": "uint256",
              "name": "datasetprice",
              "type": "uint256"
            },
            {
              "internalType": "uint256",
              "name": "volume",
              "type": "uint256"
            },
            {
              "internalType": "bytes32",
              "name": "tag",
              "type": "bytes32"
            },
            {
              "internalType": "address",
              "name": "apprestrict",
              "type": "address"
            },
            {
              "internalType": "address",
              "name": "workerpoolrestrict",
              "type": "address"
            },
            {
              "internalType": "address",
              "name": "requesterrestrict",
              "type": "address"
            },
            {
              "internalType": "bytes32",
              "name": "salt",
              "type": "bytes32"
            },
            {
              "internalType": "bytes",
              "name": "sign",
              "type": "bytes"
            }
          ],
          "internalType": "struct IexecLibOrders_v5.DatasetOrder",
          "name": "_datasetorder",
          "type": "tuple"
        }
      ],
      "name": "hash",
      "outputs": [
        {
          "internalType": "bytes32",
          "name": "datasethash",
          "type": "bytes32"
        }
      ],
      "stateMutability": "pure",
      "type": "function",
      "constant": true
    },
    {
      "inputs": [
        {
          "components": [
            {
              "components": [
                {
                  "internalType": "address",
                  "name": "dataset",
                  "type": "address"
                },
                {
                  "internalType": "uint256",
                  "name": "datasetprice",
                  "type": "uint256"
                },
                {
                  "internalType": "uint256",
                  "name": "volume",
                  "type": "uint256"
                },
                {
                  "internalType": "bytes32",
                  "name": "tag",
                  "type": "bytes32"
                },
                {
                  "internalType": "address",
                  "name": "apprestrict",
                  "type": "address"
                },
                {
                  "internalType": "address",
                  "name": "workerpoolrestrict",
                  "type": "address"
                },
                {
                  "internalType": "address",
                  "name": "requesterrestrict",
                  "type": "address"
                },
                {
                  "internalType": "bytes32",
                  "name": "salt",
                  "type": "bytes32"
                },
                {
                  "internalType": "bytes",
                  "name": "sign",
                  "type": "bytes"
                }
              ],
              "internalType": "struct IexecLibOrders_v5.DatasetOrder",
              "name": "order",
              "type": "tuple"
            },
            {
              "internalType": "uint8",
              "name": "operation",
              "type": "uint8"
            },
            {
              "internalType": "bytes",
              "name": "sign",
              "type": "bytes"
            }
          ],
          "internalType": "struct IexecLibOrders_v5.DatasetOrderOperation",
          "name": "_datasetorderoperation",
          "type": "tuple"
        }
      ],
      "name": "hash",
      "outputs": [
        {
          "internalType": "bytes32",
          "name": "",
          "type": "bytes32"
        }
      ],
      "stateMutability": "pure",
      "type": "function",
      "constant": true
    },
    {
      "inputs": [
        {
          "components": [
            {
              "components": [
                {
                  "internalType": "address",
                  "name": "workerpool",
                  "type": "address"
                },
                {
                  "internalType": "uint256",
                  "name": "workerpoolprice",
                  "type": "uint256"
                },
                {
                  "internalType": "uint256",
                  "name": "volume",
                  "type": "uint256"
                },
                {
                  "internalType": "bytes32",
                  "name": "tag",
                  "type": "bytes32"
                },
                {
                  "internalType": "uint256",
                  "name": "category",
                  "type": "uint256"
                },
                {
                  "internalType": "uint256",
                  "name": "trust",
                  "type": "uint256"
                },
                {
                  "internalType": "address",
                  "name": "apprestrict",
                  "type": "address"
                },
                {
                  "internalType": "address",
                  "name": "datasetrestrict",
                  "type": "address"
                },
                {
                  "internalType": "address",
                  "name": "requesterrestrict",
                  "type": "address"
                },
                {
                  "internalType": "bytes32",
                  "name": "salt",
                  "type": "bytes32"
                },
                {
                  "internalType": "bytes",
                  "name": "sign",
                  "type": "bytes"
                }
              ],
              "internalType": "struct IexecLibOrders_v5.WorkerpoolOrder",
              "name": "order",
              "type": "tuple"
            },
            {
              "internalType": "uint8",
              "name": "operation",
              "type": "uint8"
            },
            {
              "internalType": "bytes",
              "name": "sign",
              "type": "bytes"
            }
          ],
          "internalType": "struct IexecLibOrders_v5.WorkerpoolOrderOperation",
          "name": "_workerpoolorderoperation",
          "type": "tuple"
        }
      ],
      "name": "hash",
      "outputs": [
        {
          "internalType": "bytes32",
          "name": "",
          "type": "bytes32"
        }
      ],
      "stateMutability": "pure",
      "type": "function",
      "constant": true
    },
    {
      "inputs": [
        {
          "components": [
            {
              "components": [
                {
                  "internalType": "address",
                  "name": "app",
                  "type": "address"
                },
                {
                  "internalType": "uint256",
                  "name": "appprice",
                  "type": "uint256"
                },
                {
                  "internalType": "uint256",
                  "name": "volume",
                  "type": "uint256"
                },
                {
                  "internalType": "bytes32",
                  "name": "tag",
                  "type": "bytes32"
                },
                {
                  "internalType": "address",
                  "name": "datasetrestrict",
                  "type": "address"
                },
                {
                  "internalType": "address",
                  "name": "workerpoolrestrict",
                  "type": "address"
                },
                {
                  "internalType": "address",
                  "name": "requesterrestrict",
                  "type": "address"
                },
                {
                  "internalType": "bytes32",
                  "name": "salt",
                  "type": "bytes32"
                },
                {
                  "internalType": "bytes",
                  "name": "sign",
                  "type": "bytes"
                }
              ],
              "internalType": "struct IexecLibOrders_v5.AppOrder",
              "name": "order",
              "type": "tuple"
            },
            {
              "internalType": "uint8",
              "name": "operation",
              "type": "uint8"
            },
            {
              "internalType": "bytes",
              "name": "sign",
              "type": "bytes"
            }
          ],
          "internalType": "struct IexecLibOrders_v5.AppOrderOperation",
          "name": "_apporderoperation",
          "type": "tuple"
        }
      ],
      "name": "hash",
      "outputs": [
        {
          "internalType": "bytes32",
          "name": "",
          "type": "bytes32"
        }
      ],
      "stateMutability": "pure",
      "type": "function",
      "constant": true
    },
    {
      "inputs": [
        {
          "components": [
            {
              "internalType": "string",
              "name": "name",
              "type": "string"
            },
            {
              "internalType": "string",
              "name": "version",
              "type": "string"
            },
            {
              "internalType": "uint256",
              "name": "chainId",
              "type": "uint256"
            },
            {
              "internalType": "address",
              "name": "verifyingContract",
              "type": "address"
            }
          ],
          "internalType": "struct IexecLibOrders_v5.EIP712Domain",
          "name": "_domain",
          "type": "tuple"
        }
      ],
      "name": "hash",
      "outputs": [
        {
          "internalType": "bytes32",
          "name": "domainhash",
          "type": "bytes32"
        }
      ],
      "stateMutability": "pure",
      "type": "function",
      "constant": true
    },
    {
      "inputs": [
        {
          "components": [
            {
              "components": [
                {
                  "internalType": "address",
                  "name": "app",
                  "type": "address"
                },
                {
                  "internalType": "uint256",
                  "name": "appmaxprice",
                  "type": "uint256"
                },
                {
                  "internalType": "address",
                  "name": "dataset",
                  "type": "address"
                },
                {
                  "internalType": "uint256",
                  "name": "datasetmaxprice",
                  "type": "uint256"
                },
                {
                  "internalType": "address",
                  "name": "workerpool",
                  "type": "address"
                },
                {
                  "internalType": "uint256",
                  "name": "workerpoolmaxprice",
                  "type": "uint256"
                },
                {
                  "internalType": "address",
                  "name": "requester",
                  "type": "address"
                },
                {
                  "internalType": "uint256",
                  "name": "volume",
                  "type": "uint256"
                },
                {
                  "internalType": "bytes32",
                  "name": "tag",
                  "type": "bytes32"
                },
                {
                  "internalType": "uint256",
                  "name": "category",
                  "type": "uint256"
                },
                {
                  "internalType": "uint256",
                  "name": "trust",
                  "type": "uint256"
                },
                {
                  "internalType": "address",
                  "name": "beneficiary",
                  "type": "address"
                },
                {
                  "internalType": "address",
                  "name": "callback",
                  "type": "address"
                },
                {
                  "internalType": "string",
                  "name": "params",
                  "type": "string"
                },
                {
                  "internalType": "bytes32",
                  "name": "salt",
                  "type": "bytes32"
                },
                {
                  "internalType": "bytes",
                  "name": "sign",
                  "type": "bytes"
                }
              ],
              "internalType": "struct IexecLibOrders_v5.RequestOrder",
              "name": "order",
              "type": "tuple"
            },
            {
              "internalType": "uint8",
              "name": "operation",
              "type": "uint8"
            },
            {
              "internalType": "bytes",
              "name": "sign",
              "type": "bytes"
            }
          ],
          "internalType": "struct IexecLibOrders_v5.RequestOrderOperation",
          "name": "_requestorderoperation",
          "type": "tuple"
        }
      ],
      "name": "hash",
      "outputs": [
        {
          "internalType": "bytes32",
          "name": "",
          "type": "bytes32"
        }
      ],
      "stateMutability": "pure",
      "type": "function",
      "constant": true
    },
    {
      "inputs": [
        {
          "components": [
            {
              "internalType": "address",
              "name": "app",
              "type": "address"
            },
            {
              "internalType": "uint256",
              "name": "appmaxprice",
              "type": "uint256"
            },
            {
              "internalType": "address",
              "name": "dataset",
              "type": "address"
            },
            {
              "internalType": "uint256",
              "name": "datasetmaxprice",
              "type": "uint256"
            },
            {
              "internalType": "address",
              "name": "workerpool",
              "type": "address"
            },
            {
              "internalType": "uint256",
              "name": "workerpoolmaxprice",
              "type": "uint256"
            },
            {
              "internalType": "address",
              "name": "requester",
              "type": "address"
            },
            {
              "internalType": "uint256",
              "name": "volume",
              "type": "uint256"
            },
            {
              "internalType": "bytes32",
              "name": "tag",
              "type": "bytes32"
            },
            {
              "internalType": "uint256",
              "name": "category",
              "type": "uint256"
            },
            {
              "internalType": "uint256",
              "name": "trust",
              "type": "uint256"
            },
            {
              "internalType": "address",
              "name": "beneficiary",
              "type": "address"
            },
            {
              "internalType": "address",
              "name": "callback",
              "type": "address"
            },
            {
              "internalType": "string",
              "name": "params",
              "type": "string"
            },
            {
              "internalType": "bytes32",
              "name": "salt",
              "type": "bytes32"
            },
            {
              "internalType": "bytes",
              "name": "sign",
              "type": "bytes"
            }
          ],
          "internalType": "struct IexecLibOrders_v5.RequestOrder",
          "name": "_requestorder",
          "type": "tuple"
        }
      ],
      "name": "hash",
      "outputs": [
        {
          "internalType": "bytes32",
          "name": "requesthash",
          "type": "bytes32"
        }
      ],
      "stateMutability": "pure",
      "type": "function",
      "constant": true
    },
    {
      "inputs": [
        {
          "components": [
            {
              "internalType": "address",
              "name": "workerpool",
              "type": "address"
            },
            {
              "internalType": "uint256",
              "name": "workerpoolprice",
              "type": "uint256"
            },
            {
              "internalType": "uint256",
              "name": "volume",
              "type": "uint256"
            },
            {
              "internalType": "bytes32",
              "name": "tag",
              "type": "bytes32"
            },
            {
              "internalType": "uint256",
              "name": "category",
              "type": "uint256"
            },
            {
              "internalType": "uint256",
              "name": "trust",
              "type": "uint256"
            },
            {
              "internalType": "address",
              "name": "apprestrict",
              "type": "address"
            },
            {
              "internalType": "address",
              "name": "datasetrestrict",
              "type": "address"
            },
            {
              "internalType": "address",
              "name": "requesterrestrict",
              "type": "address"
            },
            {
              "internalType": "bytes32",
              "name": "salt",
              "type": "bytes32"
            },
            {
              "internalType": "bytes",
              "name": "sign",
              "type": "bytes"
            }
          ],
          "internalType": "struct IexecLibOrders_v5.WorkerpoolOrder",
          "name": "_workerpoolorder",
          "type": "tuple"
        }
      ],
      "name": "hash",
      "outputs": [
        {
          "internalType": "bytes32",
          "name": "workerpoolhash",
          "type": "bytes32"
        }
      ],
      "stateMutability": "pure",
      "type": "function",
      "constant": true
    },
    {
      "inputs": [
        {
          "internalType": "bytes32",
          "name": "_msgHash",
          "type": "bytes32"
        }
      ],
      "name": "toEthSignedMessageHash",
      "outputs": [
        {
          "internalType": "bytes32",
          "name": "",
          "type": "bytes32"
        }
      ],
      "stateMutability": "pure",
      "type": "function",
      "constant": true
    },
    {
      "inputs": [
        {
          "internalType": "bytes32",
          "name": "_structHash",
          "type": "bytes32"
        },
        {
          "internalType": "bytes32",
          "name": "_domainHash",
          "type": "bytes32"
        }
      ],
      "name": "toEthTypedStructHash",
      "outputs": [
        {
          "internalType": "bytes32",
          "name": "typedStructHash",
          "type": "bytes32"
        }
      ],
      "stateMutability": "pure",
      "type": "function",
      "constant": true
    },
    {
      "inputs": [
        {
          "internalType": "bytes32",
          "name": "_hash",
          "type": "bytes32"
        },
        {
          "internalType": "bytes",
          "name": "_sign",
          "type": "bytes"
        }
      ],
      "name": "recover",
      "outputs": [
        {
          "internalType": "address",
          "name": "",
          "type": "address"
        }
      ],
      "stateMutability": "pure",
      "type": "function",
      "constant": true
    }
  ],
  "bytecode": "0x61176a610026600b82828239805160001a60731461001957fe5b30600052607381538281f3fe73000000000000000000000000000000000000000030146080604052600436106101415760003560e01c80636f84d2da116100c2578063918a15cf11610086578063918a15cf1461024f5780639a6f72ee14610262578063b75cdd531461026a578063c49f91d314610272578063c4b7bfc31461027a578063fed985fe1461028257610141565b80636f84d2da14610206578063735f56191461020e57806374147c4d146102165780637c0d54d3146102295780638ac03f331461023c57610141565b80634118eb98116101095780634118eb98146101bd57806359b123db146101d05780635b559f6a146101d857806365db1dbb146101eb5780636cf30b8b146101f357610141565b806311b2eee214610146578063176eaa491461016f57806319045a2514610182578063207dbbfe146101a257806320aabe53146101aa575b600080fd5b610159610154366004610aa4565b610295565b604051610166919061166a565b60405180910390f35b61015961017d366004610a05565b6102c7565b610195610190366004610a26565b6102fb565b6040516101669190611656565b61015961040e565b6101596101b8366004610b81565b610425565b6101596101cb366004610a6a565b61047a565b61015961049d565b6101596101e6366004610c54565b6104a9565b6101596104cc565b610159610201366004610a6a565b6104d8565b6101596104fb565b610159610507565b610159610224366004610ad6565b610513565b610159610237366004610aa4565b61056c565b61015961024a366004610c22565b61057b565b61015961025d3660046109ed565b6105c3565b6101596105d6565b6101596105e2565b6101596105ee565b6101596105fa565b610159610290366004610cb3565b610606565b6000806040516102a4906112da565b604051908190039020601f19909301805193815261012081209390525090919050565b600081836040516020016102dc9291906110b7565b6040516020818303038152906040528051906020012090505b92915050565b6000806000808451604114156103255750505060208201516040830151606084015160001a610373565b84516040141561035257505050602082015160408301516001600160ff1b0381169060001a60071c610373565b60405162461bcd60e51b815260040161036a906116d7565b60405180910390fd5b601b8160ff16101561038357601b015b8060ff16601b148061039857508060ff16601c145b6103b45760405162461bcd60e51b815260040161036a906116aa565b600186828585604051600081526020016040526040516103d7949392919061168c565b6020604051602081039080840390855afa1580156103f9573d6000803e3d6000fd5b5050604051601f190151979650505050505050565b60405161041a90611219565b604051809103902081565b600060405161043390610ef0565b6040518091039020610448836000015161057b565b60208085015160405161045d94939201611673565b604051602081830303815290604052805190602001209050919050565b600060405161048890610de3565b60405180910390206104488360000151610295565b60405161041a906110d2565b60006040516104b7906110d2565b60405180910390206104488360000151610606565b60405161041a90611411565b60006040516104e690610ce5565b6040518091039020610448836000015161056c565b60405161041a906112da565b60405161041a90610ef0565b600080604051610522906113a7565b604051908190039020835180516020808301919091208187018051805193810193909320601f1989018051968152928952815260a082209490915291909552939093525090919050565b6000806040516102a490611219565b60008060405161058a90611509565b6040519081900390206101a08401805180516020820120601f199096018051938152958252610200862092909552939093525090919050565b60008160405160200161045d9190611086565b60405161041a90611509565b60405161041a90610ce5565b60405161041a906113a7565b60405161041a90610de3565b60008060405161061590611411565b604051908190039020601f19909301805193815261016081209390525090919050565b80356001600160a01b03811681146102f557600080fd5b600082601f83011261065f578081fd5b81356001600160401b03811115610674578182fd5b610687601f8201601f191660200161170e565b915080825283602082850101111561069e57600080fd5b8060208401602084013760009082016020015292915050565b6000606082840312156106c8578081fd5b6106d2606061170e565b905081356001600160401b03808211156106eb57600080fd5b6106f785838601610738565b835261070685602086016109dc565b6020840152604084013591508082111561071f57600080fd5b5061072c8482850161064f565b60408301525092915050565b600061012080838503121561074b578182fd5b6107548161170e565b9150506107618383610638565b815260208201356020820152604082013560408201526060820135606082015261078e8360808401610638565b60808201526107a08360a08401610638565b60a08201526107b28360c08401610638565b60c082015260e082013560e0820152610100808301356001600160401b038111156107dc57600080fd5b6107e88582860161064f565b82840152505092915050565b6000610200808385031215610807578182fd5b6108108161170e565b91505061081d8383610638565b8152602082013560208201526108368360408401610638565b6040820152606082013560608201526108528360808401610638565b608082015260a082013560a082015261086e8360c08401610638565b60c082015260e082810135908201526101008083013590820152610120808301359082015261014080830135908201526101606108ad84828501610638565b908201526101806108c084848301610638565b908201526101a0828101356001600160401b03808211156108e057600080fd5b6108ec8683870161064f565b838501526101c0925082850135838501526101e092508285013591508082111561091557600080fd5b506107e88582860161064f565b6000610160808385031215610935578182fd5b61093e8161170e565b91505061094b8383610638565b81526020820135602082015260408201356040820152606082013560608201526080820135608082015260a082013560a082015261098c8360c08401610638565b60c082015261099e8360e08401610638565b60e08201526101006109b284828501610638565b908201526101208281013590820152610140808301356001600160401b038111156107dc57600080fd5b803560ff811681146102f557600080fd5b6000602082840312156109fe578081fd5b5035919050565b60008060408385031215610a17578081fd5b50508035926020909101359150565b60008060408385031215610a38578182fd5b8235915060208301356001600160401b03811115610a54578182fd5b610a608582860161064f565b9150509250929050565b600060208284031215610a7b578081fd5b81356001600160401b03811115610a90578182fd5b610a9c848285016106b7565b949350505050565b600060208284031215610ab5578081fd5b81356001600160401b03811115610aca578182fd5b610a9c84828501610738565b600060208284031215610ae7578081fd5b81356001600160401b0380821115610afd578283fd5b81840160808187031215610b0f578384fd5b610b19608061170e565b9250803582811115610b29578485fd5b610b358782840161064f565b845250602081013582811115610b49578485fd5b610b558782840161064f565b60208501525060408101356040840152610b728660608301610638565b60608401525090949350505050565b600060208284031215610b92578081fd5b81356001600160401b0380821115610ba8578283fd5b81840160608187031215610bba578384fd5b610bc4606061170e565b9250803582811115610bd4578485fd5b610be0878284016107f4565b845250610bf086602083016109dc565b6020840152604081013582811115610c06578485fd5b610c128782840161064f565b6040850152509195945050505050565b600060208284031215610c33578081fd5b81356001600160401b03811115610c48578182fd5b610a9c848285016107f4565b600060208284031215610c65578081fd5b81356001600160401b0380821115610c7b578283fd5b81840160608187031215610c8d578384fd5b610c97606061170e565b9250803582811115610ca7578485fd5b610be087828401610922565b600060208284031215610cc4578081fd5b81356001600160401b03811115610cd9578182fd5b610a9c84828501610922565b7f4170704f726465724f7065726174696f6e284170704f72646572206f7264657281527f2c75696e74323536206f7065726174696f6e294170704f72646572286164647260208201527f657373206170702c75696e743235362061707070726963652c75696e7432353660408201527f20766f6c756d652c62797465733332207461672c61646472657373206461746160608201527f73657472657374726963742c6164647265737320776f726b6572706f6f6c726560808201527f7374726963742c6164647265737320726571756573746572726573747269637460a08201526d2c627974657333322073616c742960901b60c082015260ce0190565b7f446174617365744f726465724f7065726174696f6e28446174617365744f726481527f6572206f726465722c75696e74323536206f7065726174696f6e29446174617360208201527f65744f72646572286164647265737320646174617365742c75696e743235362060408201527f6461746173657470726963652c75696e7432353620766f6c756d652c6279746560608201527f733332207461672c616464726573732061707072657374726963742c6164647260808201527f65737320776f726b6572706f6f6c72657374726963742c61646472657373207260a08201527f657175657374657272657374726963742c627974657333322073616c7429000060c082015260de0190565b7f526571756573744f726465724f7065726174696f6e28526571756573744f726481527f6572206f726465722c75696e74323536206f7065726174696f6e29526571756560208201527f73744f726465722861646472657373206170702c75696e74323536206170706d60408201527f617870726963652c6164647265737320646174617365742c75696e743235362060608201527f646174617365746d617870726963652c6164647265737320776f726b6572706f60808201527f6f6c2c75696e7432353620776f726b6572706f6f6c6d617870726963652c616460a08201527f6472657373207265717565737465722c75696e7432353620766f6c756d652c6260c08201527f797465733332207461672c75696e743235362063617465676f72792c75696e7460e08201527f3235362074727573742c616464726573732062656e65666963696172792c61646101008201527f64726573732063616c6c6261636b2c737472696e6720706172616d732c62797461012082015269657333322073616c742960b01b61014082015261014a0190565b7f19457468657265756d205369676e6564204d6573736167653a0a3332000000008152601c810191909152603c0190565b61190160f01b81526002810192909252602282015260420190565b7f576f726b6572706f6f6c4f726465724f7065726174696f6e28576f726b65727081527f6f6f6c4f72646572206f726465722c75696e74323536206f7065726174696f6e60208201527f29576f726b6572706f6f6c4f72646572286164647265737320776f726b65727060408201527f6f6f6c2c75696e7432353620776f726b6572706f6f6c70726963652c75696e7460608201527f32353620766f6c756d652c62797465733332207461672c75696e74323536206360808201527f617465676f72792c75696e743235362074727573742c6164647265737320617060a08201527f7072657374726963742c6164647265737320646174617365747265737472696360c08201527f742c616464726573732072657175657374657272657374726963742c6279746560e0820152687333322073616c742960b81b6101008201526101090190565b7f4170704f726465722861646472657373206170702c75696e743235362061707081527f70726963652c75696e7432353620766f6c756d652c627974657333322074616760208201527f2c61646472657373206461746173657472657374726963742c6164647265737360408201527f20776f726b6572706f6f6c72657374726963742c61646472657373207265717560608201527f657374657272657374726963742c627974657333322073616c742900000000006080820152609b0190565b7f446174617365744f72646572286164647265737320646174617365742c75696e81527f74323536206461746173657470726963652c75696e7432353620766f6c756d6560208201527f2c62797465733332207461672c6164647265737320617070726573747269637460408201527f2c6164647265737320776f726b6572706f6f6c72657374726963742c6164647260608201527f6573732072657175657374657272657374726963742c627974657333322073616080820152626c742960e81b60a082015260a30190565b7f454950373132446f6d61696e28737472696e67206e616d652c737472696e672081527f76657273696f6e2c75696e7432353620636861696e49642c6164647265737320602082015271766572696679696e67436f6e74726163742960701b604082015260520190565b7f576f726b6572706f6f6c4f72646572286164647265737320776f726b6572706f81527f6f6c2c75696e7432353620776f726b6572706f6f6c70726963652c75696e743260208201527f353620766f6c756d652c62797465733332207461672c75696e7432353620636160408201527f7465676f72792c75696e743235362074727573742c616464726573732061707060608201527f72657374726963742c616464726573732064617461736574726573747269637460808201527f2c616464726573732072657175657374657272657374726963742c627974657360a08201526733322073616c742960c01b60c082015260c80190565b7f526571756573744f726465722861646472657373206170702c75696e7432353681527f206170706d617870726963652c6164647265737320646174617365742c75696e60208201527f7432353620646174617365746d617870726963652c6164647265737320776f7260408201527f6b6572706f6f6c2c75696e7432353620776f726b6572706f6f6c6d617870726960608201527f63652c61646472657373207265717565737465722c75696e7432353620766f6c60808201527f756d652c62797465733332207461672c75696e743235362063617465676f727960a08201527f2c75696e743235362074727573742c616464726573732062656e65666963696160c08201527f72792c616464726573732063616c6c6261636b2c737472696e6720706172616d60e08201526e732c627974657333322073616c742960881b61010082015261010f0190565b6001600160a01b0391909116815260200190565b90815260200190565b928352602083019190915260ff16604082015260600190565b93845260ff9290921660208401526040830152606082015260800190565b60208082526013908201527234b73b30b634b216b9b4b3b730ba3ab93296bb60691b604082015260600190565b60208082526018908201527f696e76616c69642d7369676e61747572652d666f726d61740000000000000000604082015260600190565b6040518181016001600160401b038111828210171561172c57600080fd5b60405291905056fea26469706673582212209a3f9ed0e6e4c6d4d2151f49c0185143297f1dddc5b5547e430878790e373f5d64736f6c63430006030033",
  "source": "pragma solidity ^0.6.0;\npragma experimental ABIEncoderV2;\n\n\nlibrary IexecLibOrders_v5\n{\n\tbytes32 public constant             EIP712DOMAIN_TYPEHASH = keccak256(\"EIP712Domain(string name,string version,uint256 chainId,address verifyingContract)\");\n\tbytes32 public constant                 APPORDER_TYPEHASH = keccak256(\"AppOrder(address app,uint256 appprice,uint256 volume,bytes32 tag,address datasetrestrict,address workerpoolrestrict,address requesterrestrict,bytes32 salt)\"); // TODO: uint256 expiry\n\tbytes32 public constant             DATASETORDER_TYPEHASH = keccak256(\"DatasetOrder(address dataset,uint256 datasetprice,uint256 volume,bytes32 tag,address apprestrict,address workerpoolrestrict,address requesterrestrict,bytes32 salt)\"); // TODO: uint256 expiry\n\tbytes32 public constant          WORKERPOOLORDER_TYPEHASH = keccak256(\"WorkerpoolOrder(address workerpool,uint256 workerpoolprice,uint256 volume,bytes32 tag,uint256 category,uint256 trust,address apprestrict,address datasetrestrict,address requesterrestrict,bytes32 salt)\"); // TODO: uint256 expiry\n\tbytes32 public constant             REQUESTORDER_TYPEHASH = keccak256(\"RequestOrder(address app,uint256 appmaxprice,address dataset,uint256 datasetmaxprice,address workerpool,uint256 workerpoolmaxprice,address requester,uint256 volume,bytes32 tag,uint256 category,uint256 trust,address beneficiary,address callback,string params,bytes32 salt)\"); // TODO: uint256 expiry\n\tbytes32 public constant        APPORDEROPERATION_TYPEHASH = keccak256(\"AppOrderOperation(AppOrder order,uint256 operation)AppOrder(address app,uint256 appprice,uint256 volume,bytes32 tag,address datasetrestrict,address workerpoolrestrict,address requesterrestrict,bytes32 salt)\");\n\tbytes32 public constant    DATASETORDEROPERATION_TYPEHASH = keccak256(\"DatasetOrderOperation(DatasetOrder order,uint256 operation)DatasetOrder(address dataset,uint256 datasetprice,uint256 volume,bytes32 tag,address apprestrict,address workerpoolrestrict,address requesterrestrict,bytes32 salt)\");\n\tbytes32 public constant WORKERPOOLORDEROPERATION_TYPEHASH = keccak256(\"WorkerpoolOrderOperation(WorkerpoolOrder order,uint256 operation)WorkerpoolOrder(address workerpool,uint256 workerpoolprice,uint256 volume,bytes32 tag,uint256 category,uint256 trust,address apprestrict,address datasetrestrict,address requesterrestrict,bytes32 salt)\");\n\tbytes32 public constant    REQUESTORDEROPERATION_TYPEHASH = keccak256(\"RequestOrderOperation(RequestOrder order,uint256 operation)RequestOrder(address app,uint256 appmaxprice,address dataset,uint256 datasetmaxprice,address workerpool,uint256 workerpoolmaxprice,address requester,uint256 volume,bytes32 tag,uint256 category,uint256 trust,address beneficiary,address callback,string params,bytes32 salt)\");\n\n\tenum OrderOperationEnum\n\t{\n\t\tSIGN,\n\t\tCLOSE\n\t}\n\n\tstruct EIP712Domain\n\t{\n\t\tstring  name;\n\t\tstring  version;\n\t\tuint256 chainId;\n\t\taddress verifyingContract;\n\t}\n\n\tstruct AppOrder\n\t{\n\t\taddress app;\n\t\tuint256 appprice;\n\t\tuint256 volume;\n\t\tbytes32 tag;\n\t\taddress datasetrestrict;\n\t\taddress workerpoolrestrict;\n\t\taddress requesterrestrict;\n\t\t// uint256 expiration; // TODO: order evolution - deadlines\n\t\tbytes32 salt;\n\t\tbytes   sign;\n\t}\n\n\tstruct DatasetOrder\n\t{\n\t\taddress dataset;\n\t\tuint256 datasetprice;\n\t\tuint256 volume;\n\t\tbytes32 tag;\n\t\taddress apprestrict;\n\t\taddress workerpoolrestrict;\n\t\taddress requesterrestrict;\n\t\t// uint256 expiration; // TODO: order evolution - deadlines\n\t\tbytes32 salt;\n\t\tbytes   sign;\n\t}\n\n\tstruct WorkerpoolOrder\n\t{\n\t\taddress workerpool;\n\t\tuint256 workerpoolprice;\n\t\tuint256 volume;\n\t\tbytes32 tag;\n\t\tuint256 category;\n\t\tuint256 trust;\n\t\taddress apprestrict;\n\t\taddress datasetrestrict;\n\t\taddress requesterrestrict;\n\t\t// uint256 expiration; // TODO: order evolution - deadlines\n\t\tbytes32 salt;\n\t\tbytes   sign;\n\t}\n\n\tstruct RequestOrder\n\t{\n\t\taddress app;\n\t\tuint256 appmaxprice;\n\t\taddress dataset;\n\t\tuint256 datasetmaxprice;\n\t\taddress workerpool;\n\t\tuint256 workerpoolmaxprice;\n\t\taddress requester;\n\t\tuint256 volume;\n\t\tbytes32 tag;\n\t\tuint256 category;\n\t\tuint256 trust;\n\t\taddress beneficiary;\n\t\taddress callback;\n\t\tstring  params;\n\t\t// uint256 expiration; // TODO: order evolution - deadlines\n\t\tbytes32 salt;\n\t\tbytes   sign;\n\t}\n\n\tstruct AppOrderOperation\n\t{\n\t\tAppOrder        order;\n\t\tuint8           operation;\n\t\tbytes           sign;\n\t}\n\n\tstruct DatasetOrderOperation\n\t{\n\t\tDatasetOrder    order;\n\t\tuint8           operation;\n\t\tbytes           sign;\n\t}\n\n\tstruct WorkerpoolOrderOperation\n\t{\n\t\tWorkerpoolOrder order;\n\t\tuint8           operation;\n\t\tbytes           sign;\n\t}\n\n\tstruct RequestOrderOperation\n\t{\n\t\tRequestOrder    order;\n\t\tuint8           operation;\n\t\tbytes           sign;\n\t}\n\n\tfunction hash(EIP712Domain memory _domain)\n\tpublic pure returns (bytes32 domainhash)\n\t{\n\t\t/**\n\t\t * Readeable but expensive\n\t\t */\n\t\t// return keccak256(abi.encode(\n\t\t// \tEIP712DOMAIN_TYPEHASH\n\t\t// , keccak256(bytes(_domain.name))\n\t\t// , keccak256(bytes(_domain.version))\n\t\t// , _domain.chainId\n\t\t// , _domain.verifyingContract\n\t\t// ));\n\n\t\t// Compute sub-hashes\n\t\tbytes32 typeHash    = EIP712DOMAIN_TYPEHASH;\n\t\tbytes32 nameHash    = keccak256(bytes(_domain.name));\n\t\tbytes32 versionHash = keccak256(bytes(_domain.version));\n\t\tassembly {\n\t\t\t// Back up select memory\n\t\t\tlet temp1 := mload(sub(_domain, 0x20))\n\t\t\tlet temp2 := mload(add(_domain, 0x00))\n\t\t\tlet temp3 := mload(add(_domain, 0x20))\n\t\t\t// Write typeHash and sub-hashes\n\t\t\tmstore(sub(_domain, 0x20),    typeHash)\n\t\t\tmstore(add(_domain, 0x00),    nameHash)\n\t\t\tmstore(add(_domain, 0x20), versionHash)\n\t\t\t// Compute hash\n\t\t\tdomainhash := keccak256(sub(_domain, 0x20), 0xA0) // 160 = 32 + 128\n\t\t\t// Restore memory\n\t\t\tmstore(sub(_domain, 0x20), temp1)\n\t\t\tmstore(add(_domain, 0x00), temp2)\n\t\t\tmstore(add(_domain, 0x20), temp3)\n\t\t}\n\t}\n\n\tfunction hash(AppOrder memory _apporder)\n\tpublic pure returns (bytes32 apphash)\n\t{\n\t\t/**\n\t\t * Readeable but expensive\n\t\t */\n\t\t// return keccak256(abi.encode(\n\t\t// \tAPPORDER_TYPEHASH\n\t\t// , _apporder.app\n\t\t// , _apporder.appprice\n\t\t// , _apporder.volume\n\t\t// , _apporder.tag\n\t\t// , _apporder.datasetrestrict\n\t\t// , _apporder.workerpoolrestrict\n\t\t// , _apporder.requesterrestrict\n\t\t// , _apporder.salt\n\t\t// ));\n\n\t\t// Compute sub-hashes\n\t\tbytes32 typeHash = APPORDER_TYPEHASH;\n\t\tassembly {\n\t\t\t// Back up select memory\n\t\t\tlet temp1 := mload(sub(_apporder, 0x20))\n\t\t\t// Write typeHash and sub-hashes\n\t\t\tmstore(sub(_apporder, 0x20), typeHash)\n\t\t\t// Compute hash\n\t\t\tapphash := keccak256(sub(_apporder, 0x20), 0x120) // TODO: order evolution - 0x1200x140\n\t\t\t// Restore memory\n\t\t\tmstore(sub(_apporder, 0x20), temp1)\n\t\t}\n\t}\n\n\tfunction hash(DatasetOrder memory _datasetorder)\n\tpublic pure returns (bytes32 datasethash)\n\t{\n\t\t/**\n\t\t * Readeable but expensive\n\t\t */\n\t\t// return keccak256(abi.encode(\n\t\t// \tDATASETORDER_TYPEHASH\n\t\t// , _datasetorder.dataset\n\t\t// , _datasetorder.datasetprice\n\t\t// , _datasetorder.volume\n\t\t// , _datasetorder.tag\n\t\t// , _datasetorder.apprestrict\n\t\t// , _datasetorder.workerpoolrestrict\n\t\t// , _datasetorder.requesterrestrict\n\t\t// , _datasetorder.salt\n\t\t// ));\n\n\t\t// Compute sub-hashes\n\t\tbytes32 typeHash = DATASETORDER_TYPEHASH;\n\t\tassembly {\n\t\t\t// Back up select memory\n\t\t\tlet temp1 := mload(sub(_datasetorder, 0x20))\n\t\t\t// Write typeHash and sub-hashes\n\t\t\tmstore(sub(_datasetorder, 0x20), typeHash)\n\t\t\t// Compute hash\n\t\t\tdatasethash := keccak256(sub(_datasetorder, 0x20), 0x120) // TODO: order evolution - 0x1200x140\n\t\t\t// Restore memory\n\t\t\tmstore(sub(_datasetorder, 0x20), temp1)\n\t\t}\n\t}\n\n\tfunction hash(WorkerpoolOrder memory _workerpoolorder)\n\tpublic pure returns (bytes32 workerpoolhash)\n\t{\n\t\t/**\n\t\t * Readeable but expensive\n\t\t */\n\t\t// return keccak256(abi.encode(\n\t\t// \tWORKERPOOLORDER_TYPEHASH\n\t\t// , _workerpoolorder.workerpool\n\t\t// , _workerpoolorder.workerpoolprice\n\t\t// , _workerpoolorder.volume\n\t\t// , _workerpoolorder.tag\n\t\t// , _workerpoolorder.category\n\t\t// , _workerpoolorder.trust\n\t\t// , _workerpoolorder.apprestrict\n\t\t// , _workerpoolorder.datasetrestrict\n\t\t// , _workerpoolorder.requesterrestrict\n\t\t// , _workerpoolorder.salt\n\t\t// ));\n\n\t\t// Compute sub-hashes\n\t\tbytes32 typeHash = WORKERPOOLORDER_TYPEHASH;\n\t\tassembly {\n\t\t\t// Back up select memory\n\t\t\tlet temp1 := mload(sub(_workerpoolorder, 0x20))\n\t\t\t// Write typeHash and sub-hashes\n\t\t\tmstore(sub(_workerpoolorder, 0x20), typeHash)\n\t\t\t// Compute hash\n\t\t\tworkerpoolhash := keccak256(sub(_workerpoolorder, 0x20), 0x160) // TODO: order evolution - 0x1600x180\n\t\t\t// Restore memory\n\t\t\tmstore(sub(_workerpoolorder, 0x20), temp1)\n\t\t}\n\t}\n\n\tfunction hash(RequestOrder memory _requestorder)\n\tpublic pure returns (bytes32 requesthash)\n\t{\n\t\t/**\n\t\t * Readeable but expensive\n\t\t */\n\t\t//return keccak256(abi.encodePacked(\n\t\t//\tabi.encode(\n\t\t//\t\tREQUESTORDER_TYPEHASH\n\t\t//\t, _requestorder.app\n\t\t//\t, _requestorder.appmaxprice\n\t\t//\t, _requestorder.dataset\n\t\t//\t, _requestorder.datasetmaxprice\n\t\t//\t, _requestorder.workerpool\n\t\t//\t, _requestorder.workerpoolmaxprice\n\t\t//\t, _requestorder.requester\n\t\t//\t, _requestorder.volume\n\t\t//\t, _requestorder.tag\n\t\t//\t, _requestorder.category\n\t\t//\t, _requestorder.trust\n\t\t//\t, _requestorder.beneficiary\n\t\t//\t, _requestorder.callback\n\t\t//\t, keccak256(bytes(_requestorder.params))\n\t\t//\t, _requestorder.salt\n\t\t//\t)\n\t\t//));\n\n\t\t// Compute sub-hashes\n\t\tbytes32 typeHash = REQUESTORDER_TYPEHASH;\n\t\tbytes32 paramsHash = keccak256(bytes(_requestorder.params));\n\t\tassembly {\n\t\t\t// Back up select memory\n\t\t\tlet temp1 := mload(sub(_requestorder, 0x020))\n\t\t\tlet temp2 := mload(add(_requestorder, 0x1A0))\n\t\t\t// Write typeHash and sub-hashes\n\t\t\tmstore(sub(_requestorder, 0x020), typeHash)\n\t\t\tmstore(add(_requestorder, 0x1A0), paramsHash)\n\t\t\t// Compute hash\n\t\t\trequesthash := keccak256(sub(_requestorder, 0x20), 0x200) // TODO: order evolution - 0x2000x220\n\t\t\t// Restore memory\n\t\t\tmstore(sub(_requestorder, 0x020), temp1)\n\t\t\tmstore(add(_requestorder, 0x1A0), temp2)\n\t\t}\n\t}\n\n\tfunction hash(AppOrderOperation memory _apporderoperation)\n\tpublic pure returns (bytes32)\n\t{\n\t\treturn keccak256(abi.encode(\n\t\t\tAPPORDEROPERATION_TYPEHASH,\n\t\t\thash(_apporderoperation.order),\n\t\t\t_apporderoperation.operation\n\t\t));\n\t}\n\n\tfunction hash(DatasetOrderOperation memory _datasetorderoperation)\n\tpublic pure returns (bytes32)\n\t{\n\t\treturn keccak256(abi.encode(\n\t\t\tDATASETORDEROPERATION_TYPEHASH,\n\t\t\thash(_datasetorderoperation.order),\n\t\t\t_datasetorderoperation.operation\n\t\t));\n\t}\n\n\tfunction hash(WorkerpoolOrderOperation memory _workerpoolorderoperation)\n\tpublic pure returns (bytes32)\n\t{\n\t\treturn keccak256(abi.encode(\n\t\t\tWORKERPOOLORDEROPERATION_TYPEHASH,\n\t\t\thash(_workerpoolorderoperation.order),\n\t\t\t_workerpoolorderoperation.operation\n\t\t));\n\t}\n\n\tfunction hash(RequestOrderOperation memory _requestorderoperation)\n\tpublic pure returns (bytes32)\n\t{\n\t\treturn keccak256(abi.encode(\n\t\t\tREQUESTORDEROPERATION_TYPEHASH,\n\t\t\thash(_requestorderoperation.order),\n\t\t\t_requestorderoperation.operation\n\t\t));\n\t}\n\n\tfunction toEthSignedMessageHash(bytes32 _msgHash)\n\tpublic pure returns (bytes32)\n\t{\n\t\treturn keccak256(abi.encodePacked(\"\\x19Ethereum Signed Message:\\n32\", _msgHash));\n\t}\n\n\tfunction toEthTypedStructHash(bytes32 _structHash, bytes32 _domainHash)\n\tpublic pure returns (bytes32 typedStructHash)\n\t{\n\t\treturn keccak256(abi.encodePacked(\"\\x19\\x01\", _domainHash, _structHash));\n\t}\n\n\tfunction recover(bytes32 _hash, bytes memory _sign)\n\tpublic pure returns (address)\n\t{\n\t\tbytes32 r;\n\t\tbytes32 s;\n\t\tuint8   v;\n\n\t\tif (_sign.length == 65) // 65bytes: (r,s,v) form\n\t\t{\n\t\t\tassembly\n\t\t\t{\n\t\t\t\tr :=         mload(add(_sign, 0x20))\n\t\t\t\ts :=         mload(add(_sign, 0x40))\n\t\t\t\tv := byte(0, mload(add(_sign, 0x60)))\n\t\t\t}\n\t\t}\n\t\telse if (_sign.length == 64) // 64bytes: (r,vs) form  see EIP2098\n\t\t{\n\t\t\tassembly\n\t\t\t{\n\t\t\t\tr :=                mload(add(_sign, 0x20))\n\t\t\t\ts := and(           mload(add(_sign, 0x40)), 0x7fffffffffffffffffffffffffffffffffffffffffffffffffffffffffffffff)\n\t\t\t\tv := shr(7, byte(0, mload(add(_sign, 0x40))))\n\t\t\t}\n\t\t}\n\t\telse\n\t\t{\n\t\t\trevert(\"invalid-signature-format\");\n\t\t}\n\n\t\tif (v < 27) v += 27;\n\t\trequire(v == 27 || v == 28, \"invalid-signature-v\");\n\t\treturn ecrecover(_hash, v, r, s);\n\t}\n}\n",
  "sourcePath": "/home/amxx/Work/iExec/code/PoCo-dev/contracts/libs/IexecLibOrders_v5.sol",
  "compiler": {
    "name": "solc",
    "version": "0.6.3+commit.8dda9521.Emscripten.clang"
  },
  "schemaVersion": "3.0.23",
  "updatedAt": "2020-03-09T10:58:45.495Z",
  "networkType": "ethereum",
  "devdoc": {
    "methods": {}
  },
  "userdoc": {
    "methods": {}
  }
}