{
  "contractName": "IexecCategoryManagerDelegate",
  "abi": [
    {
      "constant": true,
      "inputs": [],
      "name": "EIP712DOMAIN_SEPARATOR",
      "outputs": [
        {
          "name": "",
          "type": "bytes32"
        }
      ],
      "payable": false,
      "stateMutability": "view",
      "type": "function"
    },
    {
      "constant": true,
      "inputs": [],
      "name": "appregistry",
      "outputs": [
        {
          "name": "",
          "type": "address"
        }
      ],
      "payable": false,
      "stateMutability": "view",
      "type": "function"
    },
    {
      "constant": true,
      "inputs": [],
      "name": "WORKERPOOL_STAKE_RATIO",
      "outputs": [
        {
          "name": "",
          "type": "uint256"
        }
      ],
      "payable": false,
      "stateMutability": "view",
      "type": "function"
    },
    {
      "constant": true,
      "inputs": [],
      "name": "KITTY_RATIO",
      "outputs": [
        {
          "name": "",
          "type": "uint256"
        }
      ],
      "payable": false,
      "stateMutability": "view",
      "type": "function"
    },
    {
      "constant": true,
      "inputs": [],
      "name": "REVEAL_DEADLINE_RATIO",
      "outputs": [
        {
          "name": "",
          "type": "uint256"
        }
      ],
      "payable": false,
      "stateMutability": "view",
      "type": "function"
    },
    {
      "constant": true,
      "inputs": [],
      "name": "GROUPMEMBER_PURPOSE",
      "outputs": [
        {
          "name": "",
          "type": "uint256"
        }
      ],
      "payable": false,
      "stateMutability": "view",
      "type": "function"
    },
    {
      "constant": false,
      "inputs": [],
      "name": "renounceOwnership",
      "outputs": [],
      "payable": false,
      "stateMutability": "nonpayable",
      "type": "function"
    },
    {
      "constant": true,
      "inputs": [],
      "name": "CONTRIBUTION_DEADLINE_RATIO",
      "outputs": [
        {
          "name": "",
          "type": "uint256"
        }
      ],
      "payable": false,
      "stateMutability": "view",
      "type": "function"
    },
    {
      "constant": true,
      "inputs": [],
      "name": "owner",
      "outputs": [
        {
          "name": "",
          "type": "address"
        }
      ],
      "payable": false,
      "stateMutability": "view",
      "type": "function"
    },
    {
      "constant": true,
      "inputs": [],
      "name": "isOwner",
      "outputs": [
        {
          "name": "",
          "type": "bool"
        }
      ],
      "payable": false,
      "stateMutability": "view",
      "type": "function"
    },
    {
      "constant": true,
      "inputs": [],
      "name": "workerpoolregistry",
      "outputs": [
        {
          "name": "",
          "type": "address"
        }
      ],
      "payable": false,
      "stateMutability": "view",
      "type": "function"
    },
    {
      "constant": true,
      "inputs": [],
      "name": "FINAL_DEADLINE_RATIO",
      "outputs": [
        {
          "name": "",
          "type": "uint256"
        }
      ],
      "payable": false,
      "stateMutability": "view",
      "type": "function"
    },
    {
      "constant": true,
      "inputs": [],
      "name": "KITTY_ADDRESS",
      "outputs": [
        {
          "name": "",
          "type": "address"
        }
      ],
      "payable": false,
      "stateMutability": "view",
      "type": "function"
    },
    {
      "constant": true,
      "inputs": [],
      "name": "datasetregistry",
      "outputs": [
        {
          "name": "",
          "type": "address"
        }
      ],
      "payable": false,
      "stateMutability": "view",
      "type": "function"
    },
    {
      "constant": true,
      "inputs": [],
      "name": "KITTY_MIN",
      "outputs": [
        {
          "name": "",
          "type": "uint256"
        }
      ],
      "payable": false,
      "stateMutability": "view",
      "type": "function"
    },
    {
      "constant": false,
      "inputs": [
        {
          "name": "newOwner",
          "type": "address"
        }
      ],
      "name": "transferOwnership",
      "outputs": [],
      "payable": false,
      "stateMutability": "nonpayable",
      "type": "function"
    },
    {
      "anonymous": false,
      "inputs": [
        {
          "indexed": true,
          "name": "previousOwner",
          "type": "address"
        },
        {
          "indexed": true,
          "name": "newOwner",
          "type": "address"
        }
      ],
      "name": "OwnershipTransferred",
      "type": "event"
    },
    {
      "anonymous": false,
      "inputs": [
        {
          "indexed": false,
          "name": "catid",
          "type": "uint256"
        },
        {
          "indexed": false,
          "name": "name",
          "type": "string"
        },
        {
          "indexed": false,
          "name": "description",
          "type": "string"
        },
        {
          "indexed": false,
          "name": "workClockTimeRef",
          "type": "uint256"
        }
      ],
      "name": "CreateCategory",
      "type": "event"
    },
    {
      "constant": false,
      "inputs": [
        {
          "name": "name",
          "type": "string"
        },
        {
          "name": "description",
          "type": "string"
        },
        {
          "name": "workClockTimeRef",
          "type": "uint256"
        }
      ],
      "name": "createCategory",
      "outputs": [
        {
          "name": "",
          "type": "uint256"
        }
      ],
      "payable": false,
      "stateMutability": "nonpayable",
      "type": "function"
    }
  ],
  "bytecode": "0x60806040819052600080546001600160a01b03191633178082556001600160a01b0316917f8be0079c531659141344cd1fd0a4f28419497f9722a3daafe3b4186f6b6457e0908290a36108d9806100576000396000f3fe608060405234801561001057600080fd5b506004361061010b5760003560e01c80637b244832116100a257806390fc26b11161007157806390fc26b11461015e5780639e986e81146101ba578063b1b11d2c146101c2578063e2e7a8c1146101ca578063f2fde38b146101d25761010b565b80637b244832146101805780638da5cb5b146101885780638f32d59b1461019d57806390a0f546146101b25761010b565b806351152de1116100de57806351152de11461015e5780635fde601d1461016657806368a9ef1c1461016e578063715018a6146101765761010b565b8063047411e714610110578063298503d91461012e57806345b637a9146101415780634ec3b9e314610156575b600080fd5b6101186101e5565b60405161012591906107a7565b60405180910390f35b61011861013c36600461062e565b6101eb565b610149610343565b60405161012591906107b5565b610118610352565b610118610357565b61011861035c565b610118610361565b61017e610366565b005b6101186103d4565b6101906103d9565b604051610125919061078b565b6101a56103e9565b6040516101259190610799565b6101496103fa565b610190610409565b610149610443565b610118610452565b61017e6101e0366004610608565b61045a565b600f5481565b60006101f56103e9565b61021a5760405162461bcd60e51b8152600401610211906107d3565b60405180910390fd5b60006019604051806060016040528089898080601f016020809104026020016040519081016040528093929190818152602001838380828437600092019190915250505090825250604080516020601f8a01819004810282018101909252888152918101919089908990819084018382808284376000920182905250938552505050602091820187905283546001810180865594825290829020835180516003909302909101926102d09284929091019061050b565b5060208281015180516102e9926001850192019061050b565b5060408201518160020155505090507f62bf08360c9d561749c54eaf4f8bf8cb6c8b6f4f40607bcec39a8172e714d25c818888888888604051610331969594939291906107e3565b60405180910390a19695505050505050565b6004546001600160a01b031681565b601e81565b600a81565b600281565b600481565b61036e6103e9565b61038a5760405162461bcd60e51b8152600401610211906107d3565b600080546040516001600160a01b03909116907f8be0079c531659141344cd1fd0a4f28419497f9722a3daafe3b4186f6b6457e0908390a3600080546001600160a01b0319169055565b600781565b6000546001600160a01b03165b90565b6000546001600160a01b0316331490565b6006546001600160a01b031681565b60408051808201909152600a81526969457865634b6974747960b01b6020909101527399c2268479b93fde36232351229815df80837e2481565b6005546001600160a01b031681565b633b9aca0081565b6104626103e9565b61047e5760405162461bcd60e51b8152600401610211906107d3565b6104878161048a565b50565b6001600160a01b0381166104b05760405162461bcd60e51b8152600401610211906107c3565b600080546040516001600160a01b03808516939216917f8be0079c531659141344cd1fd0a4f28419497f9722a3daafe3b4186f6b6457e091a3600080546001600160a01b0319166001600160a01b0392909216919091179055565b828054600181600116156101000203166002900490600052602060002090601f016020900481019282601f1061054c57805160ff1916838001178555610579565b82800160010185558215610579579182015b8281111561057957825182559160200191906001019061055e565b50610585929150610589565b5090565b6103e691905b80821115610585576000815560010161058f565b80356105ae81610879565b92915050565b60008083601f8401126105c657600080fd5b50813567ffffffffffffffff8111156105de57600080fd5b6020830191508360018202830111156105f657600080fd5b9250929050565b80356105ae8161088d565b60006020828403121561061a57600080fd5b600061062684846105a3565b949350505050565b60008060008060006060868803121561064657600080fd5b853567ffffffffffffffff81111561065d57600080fd5b610669888289016105b4565b9550955050602086013567ffffffffffffffff81111561068857600080fd5b610694888289016105b4565b935093505060406106a7888289016105fd565b9150509295509295909350565b6106bd8161083c565b82525050565b6106bd81610847565b6106bd816103e6565b6106bd81610858565b60006106ea8385610833565b93506106f7838584610863565b6107008361086f565b9093019392505050565b6000610717602683610833565b7f4f776e61626c653a206e6577206f776e657220697320746865207a65726f206181526564647265737360d01b602082015260400192915050565b600061075f602083610833565b7f4f776e61626c653a2063616c6c6572206973206e6f7420746865206f776e6572815260200192915050565b602081016105ae82846106b4565b602081016105ae82846106c3565b602081016105ae82846106cc565b602081016105ae82846106d5565b602080825281016105ae8161070a565b602080825281016105ae81610752565b608081016107f182896106cc565b81810360208301526108048187896106de565b905081810360408301526108198185876106de565b905061082860608301846106cc565b979650505050505050565b90815260200190565b60006105ae8261084c565b151590565b6001600160a01b031690565b60006105ae8261083c565b82818337506000910152565b601f01601f191690565b6108828161083c565b811461048757600080fd5b610882816103e656fea365627a7a72305820f0b2a9ffcb8c99952c92d89a94edc961cc46ac4659f2b1b4108c00b96b7aab6d6c6578706572696d656e74616cf564736f6c63430005090040",
  "source": "pragma solidity ^0.5.9;\npragma experimental ABIEncoderV2;\n\nimport \"../IexecStore.sol\";\n\n\ninterface IexecCategoryManager\n{\n\tevent CreateCategory(\n\t\tuint256 catid,\n\t\tstring  name,\n\t\tstring  description,\n\t\tuint256 workClockTimeRef);\n\n\tfunction createCategory(string calldata name, string calldata description, uint256 workClockTimeRef) external returns (uint256);\n}\n\ncontract IexecCategoryManagerDelegate is IexecCategoryManager, IexecStore\n{\n\t/**\n\t * Methods\n\t */\n\tfunction createCategory(\n\t\tstring  calldata name,\n\t\tstring  calldata description,\n\t\tuint256          workClockTimeRef)\n\texternal onlyOwner returns (uint256)\n\t{\n\t\tuint256 catid = m_categories.push(IexecODBLibCore.Category(\n\t\t\tname,\n\t\t\tdescription,\n\t\t\tworkClockTimeRef\n\t\t));\n\t\temit CreateCategory(\n\t\t\tcatid,\n\t\t\tname,\n\t\t\tdescription,\n\t\t\tworkClockTimeRef\n\t\t);\n\t\treturn catid;\n\t}\n}\n",
  "sourcePath": "/home/amxx/Work/iExec/code/PoCo-dev/contracts/delegates/IexecCategoryManager.sol",
  "compiler": {
    "name": "solc",
    "version": "0.5.9+commit.e560f70d.Emscripten.clang"
  },
  "schemaVersion": "3.0.11",
  "updatedAt": "2019-06-26T13:43:41.435Z",
  "devdoc": {
    "methods": {
      "isOwner()": {
        "details": "Returns true if the caller is the current owner."
      },
      "owner()": {
        "details": "Returns the address of the current owner."
      },
      "renounceOwnership()": {
        "details": "Leaves the contract without owner. It will not be possible to call `onlyOwner` functions anymore. Can only be called by the current owner.     * > Note: Renouncing ownership will leave the contract without an owner, thereby removing any functionality that is only available to the owner."
      },
      "transferOwnership(address)": {
        "details": "Transfers ownership of the contract to a new account (`newOwner`). Can only be called by the current owner."
      }
    }
  },
  "userdoc": {
    "methods": {
      "createCategory(string,string,uint256)": {
        "notice": "Methods"
      }
    }
  }
}