{
  "contractName": "IexecRelayDelegate",
  "abi": [
    {
      "anonymous": false,
      "inputs": [
        {
          "components": [
            {
              "internalType": "address",
              "name": "app",
              "type": "address"
            },
            {
              "internalType": "uint256",
              "name": "appprice",
              "type": "uint256"
            },
            {
              "internalType": "uint256",
              "name": "volume",
              "type": "uint256"
            },
            {
              "internalType": "bytes32",
              "name": "tag",
              "type": "bytes32"
            },
            {
              "internalType": "address",
              "name": "datasetrestrict",
              "type": "address"
            },
            {
              "internalType": "address",
              "name": "workerpoolrestrict",
              "type": "address"
            },
            {
              "internalType": "address",
              "name": "requesterrestrict",
              "type": "address"
            },
            {
              "internalType": "bytes32",
              "name": "salt",
              "type": "bytes32"
            },
            {
              "internalType": "bytes",
              "name": "sign",
              "type": "bytes"
            }
          ],
          "indexed": false,
          "internalType": "struct IexecLibOrders_v5.AppOrder",
          "name": "apporder",
          "type": "tuple"
        }
      ],
      "name": "BroadcastAppOrder",
      "type": "event"
    },
    {
      "anonymous": false,
      "inputs": [
        {
          "components": [
            {
              "internalType": "address",
              "name": "dataset",
              "type": "address"
            },
            {
              "internalType": "uint256",
              "name": "datasetprice",
              "type": "uint256"
            },
            {
              "internalType": "uint256",
              "name": "volume",
              "type": "uint256"
            },
            {
              "internalType": "bytes32",
              "name": "tag",
              "type": "bytes32"
            },
            {
              "internalType": "address",
              "name": "apprestrict",
              "type": "address"
            },
            {
              "internalType": "address",
              "name": "workerpoolrestrict",
              "type": "address"
            },
            {
              "internalType": "address",
              "name": "requesterrestrict",
              "type": "address"
            },
            {
              "internalType": "bytes32",
              "name": "salt",
              "type": "bytes32"
            },
            {
              "internalType": "bytes",
              "name": "sign",
              "type": "bytes"
            }
          ],
          "indexed": false,
          "internalType": "struct IexecLibOrders_v5.DatasetOrder",
          "name": "datasetorder",
          "type": "tuple"
        }
      ],
      "name": "BroadcastDatasetOrder",
      "type": "event"
    },
    {
      "anonymous": false,
      "inputs": [
        {
          "components": [
            {
              "internalType": "address",
              "name": "app",
              "type": "address"
            },
            {
              "internalType": "uint256",
              "name": "appmaxprice",
              "type": "uint256"
            },
            {
              "internalType": "address",
              "name": "dataset",
              "type": "address"
            },
            {
              "internalType": "uint256",
              "name": "datasetmaxprice",
              "type": "uint256"
            },
            {
              "internalType": "address",
              "name": "workerpool",
              "type": "address"
            },
            {
              "internalType": "uint256",
              "name": "workerpoolmaxprice",
              "type": "uint256"
            },
            {
              "internalType": "address",
              "name": "requester",
              "type": "address"
            },
            {
              "internalType": "uint256",
              "name": "volume",
              "type": "uint256"
            },
            {
              "internalType": "bytes32",
              "name": "tag",
              "type": "bytes32"
            },
            {
              "internalType": "uint256",
              "name": "category",
              "type": "uint256"
            },
            {
              "internalType": "uint256",
              "name": "trust",
              "type": "uint256"
            },
            {
              "internalType": "address",
              "name": "beneficiary",
              "type": "address"
            },
            {
              "internalType": "address",
              "name": "callback",
              "type": "address"
            },
            {
              "internalType": "string",
              "name": "params",
              "type": "string"
            },
            {
              "internalType": "bytes32",
              "name": "salt",
              "type": "bytes32"
            },
            {
              "internalType": "bytes",
              "name": "sign",
              "type": "bytes"
            }
          ],
          "indexed": false,
          "internalType": "struct IexecLibOrders_v5.RequestOrder",
          "name": "requestorder",
          "type": "tuple"
        }
      ],
      "name": "BroadcastRequestOrder",
      "type": "event"
    },
    {
      "anonymous": false,
      "inputs": [
        {
          "components": [
            {
              "internalType": "address",
              "name": "workerpool",
              "type": "address"
            },
            {
              "internalType": "uint256",
              "name": "workerpoolprice",
              "type": "uint256"
            },
            {
              "internalType": "uint256",
              "name": "volume",
              "type": "uint256"
            },
            {
              "internalType": "bytes32",
              "name": "tag",
              "type": "bytes32"
            },
            {
              "internalType": "uint256",
              "name": "category",
              "type": "uint256"
            },
            {
              "internalType": "uint256",
              "name": "trust",
              "type": "uint256"
            },
            {
              "internalType": "address",
              "name": "apprestrict",
              "type": "address"
            },
            {
              "internalType": "address",
              "name": "datasetrestrict",
              "type": "address"
            },
            {
              "internalType": "address",
              "name": "requesterrestrict",
              "type": "address"
            },
            {
              "internalType": "bytes32",
              "name": "salt",
              "type": "bytes32"
            },
            {
              "internalType": "bytes",
              "name": "sign",
              "type": "bytes"
            }
          ],
          "indexed": false,
          "internalType": "struct IexecLibOrders_v5.WorkerpoolOrder",
          "name": "workerpoolorder",
          "type": "tuple"
        }
      ],
      "name": "BroadcastWorkerpoolOrder",
      "type": "event"
    },
    {
      "anonymous": false,
      "inputs": [
        {
          "indexed": true,
          "internalType": "address",
          "name": "previousOwner",
          "type": "address"
        },
        {
          "indexed": true,
          "internalType": "address",
          "name": "newOwner",
          "type": "address"
        }
      ],
      "name": "OwnershipTransferred",
      "type": "event"
    },
    {
      "inputs": [],
      "name": "isOwner",
      "outputs": [
        {
          "internalType": "bool",
          "name": "",
          "type": "bool"
        }
      ],
      "stateMutability": "view",
      "type": "function"
    },
    {
      "inputs": [],
      "name": "owner",
      "outputs": [
        {
          "internalType": "address",
          "name": "",
          "type": "address"
        }
      ],
      "stateMutability": "view",
      "type": "function"
    },
    {
      "inputs": [],
      "name": "renounceOwnership",
      "outputs": [],
      "stateMutability": "nonpayable",
      "type": "function"
    },
    {
      "inputs": [
        {
          "internalType": "address",
          "name": "newOwner",
          "type": "address"
        }
      ],
      "name": "transferOwnership",
      "outputs": [],
      "stateMutability": "nonpayable",
      "type": "function"
    },
    {
      "inputs": [
        {
          "components": [
            {
              "internalType": "address",
              "name": "app",
              "type": "address"
            },
            {
              "internalType": "uint256",
              "name": "appprice",
              "type": "uint256"
            },
            {
              "internalType": "uint256",
              "name": "volume",
              "type": "uint256"
            },
            {
              "internalType": "bytes32",
              "name": "tag",
              "type": "bytes32"
            },
            {
              "internalType": "address",
              "name": "datasetrestrict",
              "type": "address"
            },
            {
              "internalType": "address",
              "name": "workerpoolrestrict",
              "type": "address"
            },
            {
              "internalType": "address",
              "name": "requesterrestrict",
              "type": "address"
            },
            {
              "internalType": "bytes32",
              "name": "salt",
              "type": "bytes32"
            },
            {
              "internalType": "bytes",
              "name": "sign",
              "type": "bytes"
            }
          ],
          "internalType": "struct IexecLibOrders_v5.AppOrder",
          "name": "_apporder",
          "type": "tuple"
        }
      ],
      "name": "broadcastAppOrder",
      "outputs": [],
      "stateMutability": "nonpayable",
      "type": "function"
    },
    {
      "inputs": [
        {
          "components": [
            {
              "internalType": "address",
              "name": "dataset",
              "type": "address"
            },
            {
              "internalType": "uint256",
              "name": "datasetprice",
              "type": "uint256"
            },
            {
              "internalType": "uint256",
              "name": "volume",
              "type": "uint256"
            },
            {
              "internalType": "bytes32",
              "name": "tag",
              "type": "bytes32"
            },
            {
              "internalType": "address",
              "name": "apprestrict",
              "type": "address"
            },
            {
              "internalType": "address",
              "name": "workerpoolrestrict",
              "type": "address"
            },
            {
              "internalType": "address",
              "name": "requesterrestrict",
              "type": "address"
            },
            {
              "internalType": "bytes32",
              "name": "salt",
              "type": "bytes32"
            },
            {
              "internalType": "bytes",
              "name": "sign",
              "type": "bytes"
            }
          ],
          "internalType": "struct IexecLibOrders_v5.DatasetOrder",
          "name": "_datasetorder",
          "type": "tuple"
        }
      ],
      "name": "broadcastDatasetOrder",
      "outputs": [],
      "stateMutability": "nonpayable",
      "type": "function"
    },
    {
      "inputs": [
        {
          "components": [
            {
              "internalType": "address",
              "name": "workerpool",
              "type": "address"
            },
            {
              "internalType": "uint256",
              "name": "workerpoolprice",
              "type": "uint256"
            },
            {
              "internalType": "uint256",
              "name": "volume",
              "type": "uint256"
            },
            {
              "internalType": "bytes32",
              "name": "tag",
              "type": "bytes32"
            },
            {
              "internalType": "uint256",
              "name": "category",
              "type": "uint256"
            },
            {
              "internalType": "uint256",
              "name": "trust",
              "type": "uint256"
            },
            {
              "internalType": "address",
              "name": "apprestrict",
              "type": "address"
            },
            {
              "internalType": "address",
              "name": "datasetrestrict",
              "type": "address"
            },
            {
              "internalType": "address",
              "name": "requesterrestrict",
              "type": "address"
            },
            {
              "internalType": "bytes32",
              "name": "salt",
              "type": "bytes32"
            },
            {
              "internalType": "bytes",
              "name": "sign",
              "type": "bytes"
            }
          ],
          "internalType": "struct IexecLibOrders_v5.WorkerpoolOrder",
          "name": "_workerpoolorder",
          "type": "tuple"
        }
      ],
      "name": "broadcastWorkerpoolOrder",
      "outputs": [],
      "stateMutability": "nonpayable",
      "type": "function"
    },
    {
      "inputs": [
        {
          "components": [
            {
              "internalType": "address",
              "name": "app",
              "type": "address"
            },
            {
              "internalType": "uint256",
              "name": "appmaxprice",
              "type": "uint256"
            },
            {
              "internalType": "address",
              "name": "dataset",
              "type": "address"
            },
            {
              "internalType": "uint256",
              "name": "datasetmaxprice",
              "type": "uint256"
            },
            {
              "internalType": "address",
              "name": "workerpool",
              "type": "address"
            },
            {
              "internalType": "uint256",
              "name": "workerpoolmaxprice",
              "type": "uint256"
            },
            {
              "internalType": "address",
              "name": "requester",
              "type": "address"
            },
            {
              "internalType": "uint256",
              "name": "volume",
              "type": "uint256"
            },
            {
              "internalType": "bytes32",
              "name": "tag",
              "type": "bytes32"
            },
            {
              "internalType": "uint256",
              "name": "category",
              "type": "uint256"
            },
            {
              "internalType": "uint256",
              "name": "trust",
              "type": "uint256"
            },
            {
              "internalType": "address",
              "name": "beneficiary",
              "type": "address"
            },
            {
              "internalType": "address",
              "name": "callback",
              "type": "address"
            },
            {
              "internalType": "string",
              "name": "params",
              "type": "string"
            },
            {
              "internalType": "bytes32",
              "name": "salt",
              "type": "bytes32"
            },
            {
              "internalType": "bytes",
              "name": "sign",
              "type": "bytes"
            }
          ],
          "internalType": "struct IexecLibOrders_v5.RequestOrder",
          "name": "_requestorder",
          "type": "tuple"
        }
      ],
      "name": "broadcastRequestOrder",
      "outputs": [],
      "stateMutability": "nonpayable",
      "type": "function"
    }
  ],
  "bytecode": "0x608060405260006100176001600160e01b0361006516565b600080546001600160a01b0319166001600160a01b038316908117825560405192935091600080516020610a1b833981519152908290a3506100606001600160e01b0361006916565b610139565b3390565b61007a6001600160e01b036100d716565b61009f5760405162461bcd60e51b815260040161009690610104565b60405180910390fd5b600080546040516001600160a01b0390911690600080516020610a1b833981519152908390a3600080546001600160a01b0319169055565b600080546001600160a01b03166100f56001600160e01b0361006516565b6001600160a01b031614905090565b6020808252818101527f4f776e61626c653a2063616c6c6572206973206e6f7420746865206f776e6572604082015260600190565b6108d3806101486000396000f3fe608060405234801561001057600080fd5b50600436106100885760003560e01c80638f32d59b1161005b5780638f32d59b146100db578063947f5178146100f0578063c52e9de114610103578063f2fde38b1461011657610088565b80634693d1721461008d5780634c4692de146100a2578063715018a6146100b55780638da5cb5b146100bd575b600080fd5b6100a061009b3660046103e1565b610129565b005b6100a06100b03660046103a6565b610163565b6100a0610192565b6100c5610209565b6040516100d2919061054d565b60405180910390f35b6100e3610218565b6040516100d29190610561565b6100a06100fe36600461041b565b61023c565b6100a06101113660046103a6565b61026b565b6100a0610124366004610384565b61029a565b7f54bee205d9b03332d6dc82bc907476dfef6ed4fd86058d49a72994baee7811758160405161015891906105fa565b60405180910390a150565b7fc56d982ad2fd39ebadca073cc88d9bdaee0f4c8e7b2b6be50227169daefc7b3f8160405161015891906105e7565b61019a610218565b6101bf5760405162461bcd60e51b81526004016101b6906105b2565b60405180910390fd5b600080546040516001600160a01b03909116907f8be0079c531659141344cd1fd0a4f28419497f9722a3daafe3b4186f6b6457e0908390a3600080546001600160a01b0319169055565b6000546001600160a01b031690565b600080546001600160a01b031661022d6102ca565b6001600160a01b031614905090565b7faf81a046e31ebb2be305579e585ac6b2ee3fdc2dc9dba806bb826879bb2c785181604051610158919061075c565b7f6fd493f856b22df174df46975d6dcf0895c7dfb3c63d20179c0dcd5563e2f5658160405161015891906105e7565b6102a2610218565b6102be5760405162461bcd60e51b81526004016101b6906105b2565b6102c7816102ce565b50565b3390565b6001600160a01b0381166102f45760405162461bcd60e51b81526004016101b69061056c565b600080546040516001600160a01b03808516939216917f8be0079c531659141344cd1fd0a4f28419497f9722a3daafe3b4186f6b6457e091a3600080546001600160a01b0319166001600160a01b0392909216919091179055565b80356001600160a01b038116811461036657600080fd5b92915050565b6000610120828403121561037e578081fd5b50919050565b600060208284031215610395578081fd5b61039f838361034f565b9392505050565b6000602082840312156103b7578081fd5b813567ffffffffffffffff8111156103cd578182fd5b6103d98482850161036c565b949350505050565b6000602082840312156103f2578081fd5b813567ffffffffffffffff811115610408578182fd5b80830161020081860312156103d9578283fd5b60006020828403121561042c578081fd5b813567ffffffffffffffff811115610442578182fd5b80830161016081860312156103d9578283fd5b6001600160a01b03169052565b60008284528282602086013780602084860101526020601f19601f85011685010190509392505050565b6000610120602083016001600160a01b036104a7828661034f565b168552803560208601525060408301356040850152606083013560608501526104d36080840184610839565b6104e06080860182610455565b506104ee60a0840184610839565b6104fb60a0860182610455565b5061050960c0840184610839565b61051660c0860182610455565b5060e083013560e085015261010061053081850185610851565b83838801526105428488018284610462565b979650505050505050565b6001600160a01b0391909116815260200190565b901515815260200190565b60208082526026908201527f4f776e61626c653a206e6577206f776e657220697320746865207a65726f206160408201526564647265737360d01b606082015260800190565b6020808252818101527f4f776e61626c653a2063616c6c6572206973206e6f7420746865206f776e6572604082015260600190565b60006020825261039f602083018461048c565b6000602082526020830161061a60208401610615838761034f565b610455565b803560408401525061062f6040840184610839565b61063c6060840182610455565b50606083013560808301526106546080840184610839565b61066160a0840182610455565b5060a083013560c083015261067960c0840184610839565b61068660e0840182610455565b5061010060e0840135818401526101208185013581850152610140915080850135828501525061016081850135818501526106c381860186610839565b9150506101806106d581850183610455565b6106e181860186610839565b9150506101a06106f381850183610455565b6106ff81860186610851565b925061020091506101c0828187015261071d61022087018584610462565b6101e09450818801358588015261073685890189610851565b888303601f1901868a015293509150610750818484610462565b98975050505050505050565b6000602082526020830161077760208401610615838761034f565b80356040840152506040830135606083015260608301356080830152608083013560a083015260a083013560c08301526107b460c0840184610839565b6107c160e0840182610455565b506107cf60e0840184610839565b6101006107de81850183610455565b6107ea81860186610839565b9150506101206107fc81850183610455565b610140915080850135828501525061081681850185610851565b6101609250828386015261082f61018086018284610462565b9695505050505050565b600082356001600160a01b038116811461039f578182fd5b6000808335601e19843603018112610867578283fd5b830160208101925035905067ffffffffffffffff81111561088757600080fd5b80360383131561089657600080fd5b925092905056fea2646970667358221220576c3afed6cbd9ed83926b05b0edd41f76144107b0d7c2a1cc366c4e8189866164736f6c634300060400338be0079c531659141344cd1fd0a4f28419497f9722a3daafe3b4186f6b6457e0",
  "source": "pragma solidity ^0.6.0;\npragma experimental ABIEncoderV2;\n\nimport \"../DelegateBase.sol\";\nimport \"../interfaces/IexecRelay.sol\";\n\n\ncontract IexecRelayDelegate is IexecRelay, DelegateBase\n{\n\tfunction broadcastAppOrder       (IexecLibOrders_v5.AppOrder        calldata _apporder       ) external override { emit BroadcastAppOrder       (_apporder       ); }\n\tfunction broadcastDatasetOrder   (IexecLibOrders_v5.DatasetOrder    calldata _datasetorder   ) external override { emit BroadcastDatasetOrder   (_datasetorder   ); }\n\tfunction broadcastWorkerpoolOrder(IexecLibOrders_v5.WorkerpoolOrder calldata _workerpoolorder) external override { emit BroadcastWorkerpoolOrder(_workerpoolorder); }\n\tfunction broadcastRequestOrder   (IexecLibOrders_v5.RequestOrder    calldata _requestorder   ) external override { emit BroadcastRequestOrder   (_requestorder   ); }\n}\n",
  "sourcePath": "/home/amxx/Work/iExec/code/PoCo-dev/contracts/modules/delegates/IexecRelayDelegate.sol",
  "compiler": {
    "name": "solc",
    "version": "0.6.4+commit.1dca32f3.Emscripten.clang"
  },
  "schemaVersion": "3.0.23",
  "updatedAt": "2020-03-16T11:20:17.320Z",
  "devdoc": {
    "methods": {
      "isOwner()": {
        "details": "Returns true if the caller is the current owner."
      },
      "owner()": {
        "details": "Returns the address of the current owner."
      },
      "renounceOwnership()": {
        "details": "Leaves the contract without owner. It will not be possible to call `onlyOwner` functions anymore. Can only be called by the current owner.     * NOTE: Renouncing ownership will leave the contract without an owner, thereby removing any functionality that is only available to the owner."
      },
      "transferOwnership(address)": {
        "details": "Transfers ownership of the contract to a new account (`newOwner`). Can only be called by the current owner."
      }
    }
  },
  "userdoc": {
    "methods": {}
  }
}