{
  "contractName": "IexecPoco1Delegate",
  "abi": [
    {
      "anonymous": false,
      "inputs": [
        {
          "indexed": true,
          "internalType": "address",
          "name": "owner",
          "type": "address"
        },
        {
          "indexed": true,
          "internalType": "address",
          "name": "spender",
          "type": "address"
        },
        {
          "indexed": false,
          "internalType": "uint256",
          "name": "value",
          "type": "uint256"
        }
      ],
      "name": "Approval",
      "type": "event"
    },
    {
      "anonymous": false,
      "inputs": [
        {
          "indexed": false,
          "internalType": "address",
          "name": "owner",
          "type": "address"
        },
        {
          "indexed": false,
          "internalType": "uint256",
          "name": "amount",
          "type": "uint256"
        }
      ],
      "name": "Lock",
      "type": "event"
    },
    {
      "anonymous": false,
      "inputs": [
        {
          "indexed": false,
          "internalType": "bytes32",
          "name": "dealid",
          "type": "bytes32"
        },
        {
          "indexed": false,
          "internalType": "bytes32",
          "name": "appHash",
          "type": "bytes32"
        },
        {
          "indexed": false,
          "internalType": "bytes32",
          "name": "datasetHash",
          "type": "bytes32"
        },
        {
          "indexed": false,
          "internalType": "bytes32",
          "name": "workerpoolHash",
          "type": "bytes32"
        },
        {
          "indexed": false,
          "internalType": "bytes32",
          "name": "requestHash",
          "type": "bytes32"
        },
        {
          "indexed": false,
          "internalType": "uint256",
          "name": "volume",
          "type": "uint256"
        }
      ],
      "name": "OrdersMatched",
      "type": "event"
    },
    {
      "anonymous": false,
      "inputs": [
        {
          "indexed": true,
          "internalType": "address",
          "name": "previousOwner",
          "type": "address"
        },
        {
          "indexed": true,
          "internalType": "address",
          "name": "newOwner",
          "type": "address"
        }
      ],
      "name": "OwnershipTransferred",
      "type": "event"
    },
    {
      "anonymous": false,
      "inputs": [
        {
          "indexed": false,
          "internalType": "address",
          "name": "owner",
          "type": "address"
        },
        {
          "indexed": false,
          "internalType": "uint256",
          "name": "amount",
          "type": "uint256"
        },
        {
          "indexed": false,
          "internalType": "bytes32",
          "name": "ref",
          "type": "bytes32"
        }
      ],
      "name": "Reward",
      "type": "event"
    },
    {
      "anonymous": false,
      "inputs": [
        {
          "indexed": true,
          "internalType": "address",
          "name": "workerpool",
          "type": "address"
        },
        {
          "indexed": false,
          "internalType": "bytes32",
          "name": "dealid",
          "type": "bytes32"
        }
      ],
      "name": "SchedulerNotice",
      "type": "event"
    },
    {
      "anonymous": false,
      "inputs": [
        {
          "indexed": false,
          "internalType": "address",
          "name": "owner",
          "type": "address"
        },
        {
          "indexed": false,
          "internalType": "uint256",
          "name": "amount",
          "type": "uint256"
        },
        {
          "indexed": false,
          "internalType": "bytes32",
          "name": "ref",
          "type": "bytes32"
        }
      ],
      "name": "Seize",
      "type": "event"
    },
    {
      "anonymous": false,
      "inputs": [
        {
          "indexed": true,
          "internalType": "address",
          "name": "from",
          "type": "address"
        },
        {
          "indexed": true,
          "internalType": "address",
          "name": "to",
          "type": "address"
        },
        {
          "indexed": false,
          "internalType": "uint256",
          "name": "value",
          "type": "uint256"
        }
      ],
      "name": "Transfer",
      "type": "event"
    },
    {
      "anonymous": false,
      "inputs": [
        {
          "indexed": false,
          "internalType": "address",
          "name": "owner",
          "type": "address"
        },
        {
          "indexed": false,
          "internalType": "uint256",
          "name": "amount",
          "type": "uint256"
        }
      ],
      "name": "Unlock",
      "type": "event"
    },
    {
      "inputs": [],
      "name": "owner",
      "outputs": [
        {
          "internalType": "address",
          "name": "",
          "type": "address"
        }
      ],
      "stateMutability": "view",
      "type": "function"
    },
    {
      "inputs": [],
      "name": "renounceOwnership",
      "outputs": [],
      "stateMutability": "nonpayable",
      "type": "function"
    },
    {
      "inputs": [
        {
          "internalType": "address",
          "name": "newOwner",
          "type": "address"
        }
      ],
      "name": "transferOwnership",
      "outputs": [],
      "stateMutability": "nonpayable",
      "type": "function"
    },
    {
      "inputs": [
        {
          "internalType": "address",
          "name": "_identity",
          "type": "address"
        },
        {
          "internalType": "bytes32",
          "name": "_hash",
          "type": "bytes32"
        },
        {
          "internalType": "bytes",
          "name": "_signature",
          "type": "bytes"
        }
      ],
      "name": "verifySignature",
      "outputs": [
        {
          "internalType": "bool",
          "name": "",
          "type": "bool"
        }
      ],
      "stateMutability": "view",
      "type": "function"
    },
    {
      "inputs": [
        {
          "internalType": "address",
          "name": "_identity",
          "type": "address"
        },
        {
          "internalType": "bytes32",
          "name": "_hash",
          "type": "bytes32"
        }
      ],
      "name": "verifyPresignature",
      "outputs": [
        {
          "internalType": "bool",
          "name": "",
          "type": "bool"
        }
      ],
      "stateMutability": "view",
      "type": "function"
    },
    {
      "inputs": [
        {
          "internalType": "address",
          "name": "_identity",
          "type": "address"
        },
        {
          "internalType": "bytes32",
          "name": "_hash",
          "type": "bytes32"
        },
        {
          "internalType": "bytes",
          "name": "_signature",
          "type": "bytes"
        }
      ],
      "name": "verifyPresignatureOrSignature",
      "outputs": [
        {
          "internalType": "bool",
          "name": "",
          "type": "bool"
        }
      ],
      "stateMutability": "view",
      "type": "function"
    },
    {
      "inputs": [
        {
          "components": [
            {
              "internalType": "address",
              "name": "app",
              "type": "address"
            },
            {
              "internalType": "uint256",
              "name": "appprice",
              "type": "uint256"
            },
            {
              "internalType": "uint256",
              "name": "volume",
              "type": "uint256"
            },
            {
              "internalType": "bytes32",
              "name": "tag",
              "type": "bytes32"
            },
            {
              "internalType": "address",
              "name": "datasetrestrict",
              "type": "address"
            },
            {
              "internalType": "address",
              "name": "workerpoolrestrict",
              "type": "address"
            },
            {
              "internalType": "address",
              "name": "requesterrestrict",
              "type": "address"
            },
            {
              "internalType": "bytes32",
              "name": "salt",
              "type": "bytes32"
            },
            {
              "internalType": "bytes",
              "name": "sign",
              "type": "bytes"
            }
          ],
          "internalType": "struct IexecLibOrders_v5.AppOrder",
          "name": "_apporder",
          "type": "tuple"
        },
        {
          "components": [
            {
              "internalType": "address",
              "name": "dataset",
              "type": "address"
            },
            {
              "internalType": "uint256",
              "name": "datasetprice",
              "type": "uint256"
            },
            {
              "internalType": "uint256",
              "name": "volume",
              "type": "uint256"
            },
            {
              "internalType": "bytes32",
              "name": "tag",
              "type": "bytes32"
            },
            {
              "internalType": "address",
              "name": "apprestrict",
              "type": "address"
            },
            {
              "internalType": "address",
              "name": "workerpoolrestrict",
              "type": "address"
            },
            {
              "internalType": "address",
              "name": "requesterrestrict",
              "type": "address"
            },
            {
              "internalType": "bytes32",
              "name": "salt",
              "type": "bytes32"
            },
            {
              "internalType": "bytes",
              "name": "sign",
              "type": "bytes"
            }
          ],
          "internalType": "struct IexecLibOrders_v5.DatasetOrder",
          "name": "_datasetorder",
          "type": "tuple"
        },
        {
          "components": [
            {
              "internalType": "address",
              "name": "workerpool",
              "type": "address"
            },
            {
              "internalType": "uint256",
              "name": "workerpoolprice",
              "type": "uint256"
            },
            {
              "internalType": "uint256",
              "name": "volume",
              "type": "uint256"
            },
            {
              "internalType": "bytes32",
              "name": "tag",
              "type": "bytes32"
            },
            {
              "internalType": "uint256",
              "name": "category",
              "type": "uint256"
            },
            {
              "internalType": "uint256",
              "name": "trust",
              "type": "uint256"
            },
            {
              "internalType": "address",
              "name": "apprestrict",
              "type": "address"
            },
            {
              "internalType": "address",
              "name": "datasetrestrict",
              "type": "address"
            },
            {
              "internalType": "address",
              "name": "requesterrestrict",
              "type": "address"
            },
            {
              "internalType": "bytes32",
              "name": "salt",
              "type": "bytes32"
            },
            {
              "internalType": "bytes",
              "name": "sign",
              "type": "bytes"
            }
          ],
          "internalType": "struct IexecLibOrders_v5.WorkerpoolOrder",
          "name": "_workerpoolorder",
          "type": "tuple"
        },
        {
          "components": [
            {
              "internalType": "address",
              "name": "app",
              "type": "address"
            },
            {
              "internalType": "uint256",
              "name": "appmaxprice",
              "type": "uint256"
            },
            {
              "internalType": "address",
              "name": "dataset",
              "type": "address"
            },
            {
              "internalType": "uint256",
              "name": "datasetmaxprice",
              "type": "uint256"
            },
            {
              "internalType": "address",
              "name": "workerpool",
              "type": "address"
            },
            {
              "internalType": "uint256",
              "name": "workerpoolmaxprice",
              "type": "uint256"
            },
            {
              "internalType": "address",
              "name": "requester",
              "type": "address"
            },
            {
              "internalType": "uint256",
              "name": "volume",
              "type": "uint256"
            },
            {
              "internalType": "bytes32",
              "name": "tag",
              "type": "bytes32"
            },
            {
              "internalType": "uint256",
              "name": "category",
              "type": "uint256"
            },
            {
              "internalType": "uint256",
              "name": "trust",
              "type": "uint256"
            },
            {
              "internalType": "address",
              "name": "beneficiary",
              "type": "address"
            },
            {
              "internalType": "address",
              "name": "callback",
              "type": "address"
            },
            {
              "internalType": "string",
              "name": "params",
              "type": "string"
            },
            {
              "internalType": "bytes32",
              "name": "salt",
              "type": "bytes32"
            },
            {
              "internalType": "bytes",
              "name": "sign",
              "type": "bytes"
            }
          ],
          "internalType": "struct IexecLibOrders_v5.RequestOrder",
          "name": "_requestorder",
          "type": "tuple"
        }
      ],
      "name": "matchOrders",
      "outputs": [
        {
          "internalType": "bytes32",
          "name": "",
          "type": "bytes32"
        }
      ],
      "stateMutability": "nonpayable",
      "type": "function"
    }
  ],
  "bytecode": "0x60806040523480156200001157600080fd5b5060006200001e62000067565b600080546001600160a01b0319166001600160a01b0383169081178255604051929350916000805160206200301c833981519152908290a350620000616200006b565b6200011c565b3390565b6200007562000067565b6000546001600160a01b03908116911614620000ae5760405162461bcd60e51b8152600401620000a590620000e7565b60405180910390fd5b600080546040516001600160a01b03909116906000805160206200301c833981519152908390a3600080546001600160a01b0319169055565b6020808252818101527f4f776e61626c653a2063616c6c6572206973206e6f7420746865206f776e6572604082015260600190565b612ef0806200012c6000396000f3fe608060405234801561001057600080fd5b506004361061007d5760003560e01c80638da5cb5b1161005b5780638da5cb5b146100d5578063bf36994e146100ea578063c87b582a146100fd578063f2fde38b146101105761007d565b80630175199814610082578063156194d4146100ab578063715018a6146100cb575b600080fd5b610095610090366004612047565b610123565b6040516100a291906123d1565b60405180910390f35b6100be6100b936600461212b565b61016f565b6040516100a291906123dc565b6100d36113e0565b005b6100dd61145f565b6040516100a291906123a4565b6100956100f8366004612047565b61146e565b61009561010b36600461201c565b6114b1565b6100d361011e366004611fe4565b6114c6565b6000610166858585858080601f01602080910402602001604051908101604052809392919081815260200183838082843760009201919091525061157c92505050565b95945050505050565b60008082610100015185606001518760600151171790508360800151836101200151146101b75760405162461bcd60e51b81526004016101ae90612718565b60405180910390fd5b601a54610120840151106101dd5760405162461bcd60e51b81526004016101ae906126e1565b8360a0015183610140015111156102065760405162461bcd60e51b81526004016101ae90612899565b85602001518360200151101561022e5760405162461bcd60e51b81526004016101ae90612ab3565b8460200151836060015110156102565760405162461bcd60e51b81526004016101ae906127bd565b83602001518360a00151101561027e5760405162461bcd60e51b81526004016101ae90612673565b6060840151198116156102a35760405162461bcd60e51b81526004016101ae906127f4565b6060860151811860f81b600160f81b16156102d05760405162461bcd60e51b81526004016101ae906126aa565b855183516001600160a01b039081169116146102fe5760405162461bcd60e51b81526004016101ae90612a7c565b84600001516001600160a01b031683604001516001600160a01b0316146103375760405162461bcd60e51b81526004016101ae90612551565b60808301516001600160a01b031615806103605750610360836080015185600001516004611686565b61037c5760405162461bcd60e51b81526004016101ae90612bd4565b60808601516001600160a01b031615806103a557506103a5866080015186600001516004611686565b6103c15760405162461bcd60e51b81526004016101ae9061263c565b60a08601516001600160a01b031615806103ea57506103ea8660a0015185600001516004611686565b6104065760405162461bcd60e51b81526004016101ae90612907565b60c08601516001600160a01b0316158061042f575061042f8660c001518460c001516004611686565b61044b5760405162461bcd60e51b81526004016101ae90612b66565b60808501516001600160a01b031615806104745750610474856080015187600001516004611686565b6104905760405162461bcd60e51b81526004016101ae9061293e565b60a08501516001600160a01b031615806104b957506104b98560a0015185600001516004611686565b6104d55760405162461bcd60e51b81526004016101ae90612c79565b60c08501516001600160a01b031615806104fe57506104fe8560c001518460c001516004611686565b61051a5760405162461bcd60e51b81526004016101ae906129ac565b60c08401516001600160a01b0316158061054357506105438460c0015187600001516004611686565b61055f5760405162461bcd60e51b81526004016101ae90612469565b60e08401516001600160a01b0316158061058857506105888460e0015186600001516004611686565b6105a45760405162461bcd60e51b81526004016101ae9061274f565b6101008401516001600160a01b031615806105cf57506105cf8461010001518460c001516004611686565b6105eb5760405162461bcd60e51b81526004016101ae90612786565b6105f3611c8e565b85516001600160a01b03161515610160820152604051637c0d54d360e01b81526106999073__IexecLibOrders_v5_____________________90637c0d54d390610641908b90600401612cb0565b60206040518083038186803b15801561065957600080fd5b505af415801561066d573d6000803e3d6000fd5b505050506040513d601f19601f8201168201806040525081019061069191906120eb565b601054611731565b808252805160209182012081830152875160408051638da5cb5b60e01b815290516001600160a01b0390921692638da5cb5b92600480840193829003018186803b1580156106e657600080fd5b505afa1580156106fa573d6000803e3d6000fd5b505050506040513d601f19601f8201168201806040525081019061071e9190612000565b6001600160a01b039081166040808401919091526005548951915163c3c5a54760e01b815292169163c3c5a54791610758916004016123a4565b60206040518083038186803b15801561077057600080fd5b505afa158015610784573d6000803e3d6000fd5b505050506040513d601f19601f820116820180604052508101906107a891906120cb565b6107c45760405162461bcd60e51b81526004016101ae90612975565b6107dc8160400151826000015189610100015161175d565b6107f85760405162461bcd60e51b81526004016101ae90612b9d565b60085460408083015190516313289ea360e31b81526001600160a01b0390921691639944f5189161082b916004016123a4565b60206040518083038186803b15801561084357600080fd5b505afa158015610857573d6000803e3d6000fd5b505050506040513d601f19601f8201168201806040525081019061087b91906120cb565b6108975760405162461bcd60e51b81526004016101ae90612c42565b80610160015115610ae0576040516308d9777160e11b81526108dd9073__IexecLibOrders_v5_____________________906311b2eee290610641908a90600401612cb0565b6060820181905280516020918201206080830152865160408051638da5cb5b60e01b815290516001600160a01b0390921692638da5cb5b92600480840193829003018186803b15801561092f57600080fd5b505afa158015610943573d6000803e3d6000fd5b505050506040513d601f19601f820116820180604052508101906109679190612000565b6001600160a01b0390811660a0830152600654875160405163c3c5a54760e01b8152919092169163c3c5a547916109a191906004016123a4565b60206040518083038186803b1580156109b957600080fd5b505afa1580156109cd573d6000803e3d6000fd5b505050506040513d601f19601f820116820180604052508101906109f191906120cb565b610a0d5760405162461bcd60e51b81526004016101ae90612605565b610a258160a00151826060015188610100015161175d565b610a415760405162461bcd60e51b81526004016101ae906124a0565b60085460a08201516040516313289ea360e31b81526001600160a01b0390921691639944f51891610a74916004016123a4565b60206040518083038186803b158015610a8c57600080fd5b505afa158015610aa0573d6000803e3d6000fd5b505050506040513d601f19601f82011682018060405250810190610ac491906120cb565b610ae05760405162461bcd60e51b81526004016101ae90612c0b565b604051637f6cc2ff60e11b8152610b1b9073__IexecLibOrders_v5_____________________9063fed985fe90610641908990600401612dd3565b60c08201819052805160209182012060e0830152855160408051638da5cb5b60e01b815290516001600160a01b0390921692638da5cb5b92600480840193829003018186803b158015610b6d57600080fd5b505afa158015610b81573d6000803e3d6000fd5b505050506040513d601f19601f82011682018060405250810190610ba59190612000565b6001600160a01b03908116610100830152600754865160405163c3c5a54760e01b8152919092169163c3c5a54791610be091906004016123a4565b60206040518083038186803b158015610bf857600080fd5b505afa158015610c0c573d6000803e3d6000fd5b505050506040513d601f19601f82011682018060405250810190610c3091906120cb565b610c4c5760405162461bcd60e51b81526004016101ae90612862565b610c658161010001518260c0015187610140015161175d565b610c815760405162461bcd60e51b81526004016101ae90612588565b6008546101008201516040516313289ea360e31b81526001600160a01b0390921691639944f51891610cb5916004016123a4565b60206040518083038186803b158015610ccd57600080fd5b505afa158015610ce1573d6000803e3d6000fd5b505050506040513d601f19601f82011682018060405250810190610d0591906120cb565b610d215760405162461bcd60e51b81526004016101ae9061251a565b604051638ac03f3360e01b8152610d5c9073__IexecLibOrders_v5_____________________90638ac03f3390610641908890600401612cc3565b61012082018190528051602082012061014083015260c08501516101e0860151610d86929061175d565b610da25760405162461bcd60e51b81526004016101ae9061282b565b60085460c08501516040516313289ea360e31b81526001600160a01b0390921691639944f51891610dd5916004016123a4565b60206040518083038186803b158015610ded57600080fd5b505afa158015610e01573d6000803e3d6000fd5b505050506040513d601f19601f82011682018060405250810190610e2591906120cb565b610e415760405162461bcd60e51b81526004016101ae90612a45565b6020808201516000908152601290915260408082205490890151610e6491611781565b9050816101600151610e765780610ea5565b6080820151600090815260126020526040908190205490880151610ea591610e9e9190611781565b8290611796565b60e0830151600090815260126020526040908190205490880151919250610ecf91610e9e91611781565b61014083015160009081526012602052604090205460e0870151919250610ef991610e9e91611781565b905060008111610f1b5760405162461bcd60e51b81526004016101ae906128d0565b61014082015160008181526012602090815260408083205490519293610f439390920161237b565b60408051808303601f1901815291815281516020928301206000818152601384528290208c5181546001600160a01b03199081166001600160a01b03928316178355938801516001830180548616918316919091179055938d0151600282015560a087015160048201805485169186169190911790558b51600382018054909416941693909317909155610160850151909250610fe1576000610fe7565b88602001515b600582015587516006820180546001600160a01b039283166001600160a01b0319918216179091556101008601516007840180549190931691161790556020880151600882015561014087015161103f9060016117ac565b6009820155610120870151600a820155600b810185905560c0870151600c820180546001600160a01b039283166001600160a01b031991821617909155610160890151600d84018054918416918316919091179055610180890151600e840180549190931691161790556101a087015180516110c591600f840191602090910190611cf1565b504260108201556101408401516000908152601260208181526040928390205460118501559083018590558951825163b55e75af60e01b81529251611174936001600160a01b039092169263b55e75af9260048082019391829003018186803b15801561113157600080fd5b505afa158015611145573d6000803e3d6000fd5b505050506040513d601f19601f8201168201806040525081019061116991906120eb565b60208a0151906117bc565b816013018190555087600001516001600160a01b03166387639c686040518163ffffffff1660e01b815260040160206040518083038186803b1580156111b957600080fd5b505afa1580156111cd573d6000803e3d6000fd5b505050506040513d601f19601f820116820180604052508101906111f191906120eb565b601482015560208085015160009081526012909152604090205461121590846117ca565b60208086015160009081526012909152604090205561016084015161125b9061123f576000611241565b835b6080860151600090815260126020526040902054906117ca565b60808501516000908152601260205260408082209290925560e08601518152205461128690846117ca565b60e085015160009081526012602052604080822092909255610140860151815220546112b290846117ca565b610140850151600090815260126020526040902055600c81015460088201546005830154600284015461130f936001600160a01b03169261130a92889261130492916112fe91906117ca565b906117ca565b906117dc565b611803565b60078101546008820154611338916001600160a01b03169061130a90869061130490601e6117bc565b60068101546040516001600160a01b03909116907f692ad61076dceddd0f1a861f737553dd61fc8501cf4190d29c4e90af6607f765906113799085906123dc565b60405180910390a27fd811b592ed0899225773e8933d8df64bd0b62761a9d7aad4ed5b22735f4610a482856020015186608001518760e00151886101400151886040516113cb969594939291906123e5565b60405180910390a15098975050505050505050565b6113e861188b565b6000546001600160a01b039081169116146114155760405162461bcd60e51b81526004016101ae90612a10565b600080546040516001600160a01b03909116907f8be0079c531659141344cd1fd0a4f28419497f9722a3daafe3b4186f6b6457e0908390a3600080546001600160a01b0319169055565b6000546001600160a01b031690565b6000610166858585858080601f01602080910402602001604051908101604052809392919081815260200183838082843760009201919091525061188f92505050565b60006114bd83836118ac565b90505b92915050565b6114ce61188b565b6000546001600160a01b039081169116146114fb5760405162461bcd60e51b81526004016101ae90612a10565b6001600160a01b0381166115215760405162461bcd60e51b81526004016101ae906125bf565b600080546040516001600160a01b03808516939216917f8be0079c531659141344cd1fd0a4f28419497f9722a3daafe3b4186f6b6457e091a3600080546001600160a01b0319166001600160a01b0392909216919091179055565b6000611587846118e2565b1561165e57604051630b135d3f60e11b81526001600160a01b03851690631626ba7e906115ba908690869060040161240d565b60206040518083038186803b1580156115d257600080fd5b505afa925050508015611602575060408051601f3d908101601f191682019092526115ff91810190612103565b60015b61163c573d808015611630576040519150601f19603f3d011682016040523d82523d6000602084013e611635565b606091505b5050611656565b6001600160e01b031916630b135d3f60e11b14905061167f565b50600061167f565b836001600160a01b0316611672848461191b565b6001600160a01b03161490505b9392505050565b6000826001600160a01b0316846001600160a01b031614806117295750836001600160a01b031663d202158d6116bb85611a25565b846040518363ffffffff1660e01b81526004016116d992919061237b565b60206040518083038186803b1580156116f157600080fd5b505afa158015611705573d6000803e3d6000fd5b505050506040513d601f19601f8201168201806040525081019061172991906120cb565b949350505050565b60608183604051602001611746929190612389565b604051602081830303815290604052905092915050565b60006117708484805190602001206118ac565b806117295750611729848484611a31565b60008282111561179057600080fd5b50900390565b60008183106117a557816114bd565b5090919050565b6000818310156117a557816114bd565b60006114bd83836064611b5a565b6000828201838110156114bd57600080fd5b6000826117eb575060006114c0565b828202828482816117f857fe5b04146114bd57600080fd5b61180e823083611b6f565b6001600160a01b0382166000908152600e602052604090205461183190826117ca565b6001600160a01b0383166000908152600e60205260409081902091909155517f625fed9875dada8643f2418b838ae0bc78d9a148a18eee4ee1979ff0f3f5d4279061187f90849084906123b8565b60405180910390a15050565b3390565b600061189b84846118ac565b80611729575061172984848461157c565b60006001600160a01b038316158015906114bd5750506000908152601160205260409020546001600160a01b0390811691161490565b6000813f7fc5d2460186f7233c927e7db2dcc703c0e500b653ca82273b7bfad8045d85a470818114801590611729575050151592915050565b6000806000808451604114156119455750505060208201516040830151606084015160001a61198a565b84516040141561197257505050602082015160408301516001600160ff1b0381169060001a60071c61198a565b60405162461bcd60e51b81526004016101ae90612b2f565b601b8160ff16101561199a57601b015b8060ff16601b14806119af57508060ff16601c145b6119cb5760405162461bcd60e51b81526004016101ae906129e3565b600186828585604051600081526020016040526040516119ee9493929190612426565b6020604051602081039080840390855afa158015611a10573d6000803e3d6000fd5b5050604051601f190151979650505050505050565b6001600160a01b031690565b6000611a3c846118e2565b15611b3f576040516320c13b0b60e01b81526001600160a01b038516906320c13b0b90611a6f9086908690600401612444565b60206040518083038186803b158015611a8757600080fd5b505afa925050508015611ab7575060408051601f3d908101601f19168201909252611ab491810190612103565b60015b611af1573d808015611ae5576040519150601f19603f3d011682016040523d82523d6000602084013e611aea565b606091505b5050611b0b565b6001600160e01b0319166320c13b0b60e01b14905061167f565b82516020840120604051630b135d3f60e11b81526001600160a01b03861691631626ba7e916115ba9190869060040161240d565b836001600160a01b031661167284805190602001208461191b565b6000611729611b6985856117dc565b83611c6c565b6001600160a01b038316611b955760405162461bcd60e51b81526004016101ae90612aea565b6001600160a01b038216611bbb5760405162461bcd60e51b81526004016101ae906124d7565b6001600160a01b0383166000908152600d6020526040902054611bde9082611781565b6001600160a01b038085166000908152600d60205260408082209390935590841681522054611c0d90826117ca565b6001600160a01b038084166000818152600d602052604090819020939093559151908516907fddf252ad1be2c89b69c2b068fc378daa952ba7f163c4a11628f55a4df523b3ef90611c5f9085906123dc565b60405180910390a3505050565b6000808211611c7a57600080fd5b6000828481611c8557fe5b04949350505050565b604080516101808101825260608082526000602083018190529282018390528082018190526080820183905260a0820183905260c0820181905260e082018390526101008201839052610120820152610140810182905261016081019190915290565b828054600181600116156101000203166002900490600052602060002090601f016020900481019282601f10611d3257805160ff1916838001178555611d5f565b82800160010185558215611d5f579182015b82811115611d5f578251825591602001919060010190611d44565b50611d6b929150611d6f565b5090565b5b80821115611d6b5760008155600101611d70565b80356114c081612ea2565b600082601f830112611d9f578081fd5b813567ffffffffffffffff811115611db5578182fd5b611dc8601f8201601f1916602001612e7b565b9150808252836020828501011115611ddf57600080fd5b8060208401602084013760009082016020015292915050565b6000610120808385031215611e0b578182fd5b611e1481612e7b565b915050611e218383611d84565b8152602082013560208201526040820135604082015260608201356060820152611e4e8360808401611d84565b6080820152611e608360a08401611d84565b60a0820152611e728360c08401611d84565b60c082015260e082013560e08201526101008083013567ffffffffffffffff811115611e9d57600080fd5b611ea985828601611d8f565b82840152505092915050565b6000610200808385031215611ec8578182fd5b611ed181612e7b565b915050611ede8383611d84565b815260208201356020820152611ef78360408401611d84565b604082015260608201356060820152611f138360808401611d84565b608082015260a082013560a0820152611f2f8360c08401611d84565b60c082015260e08281013590820152610100808301359082015261012080830135908201526101408083013590820152610160611f6e84828501611d84565b90820152610180611f8184848301611d84565b908201526101a08281013567ffffffffffffffff80821115611fa257600080fd5b611fae86838701611d8f565b838501526101c0925082850135838501526101e0925082850135915080821115611fd757600080fd5b50611ea985828601611d8f565b600060208284031215611ff5578081fd5b81356114bd81612ea2565b600060208284031215612011578081fd5b81516114bd81612ea2565b6000806040838503121561202e578081fd5b823561203981612ea2565b946020939093013593505050565b6000806000806060858703121561205c578182fd5b843561206781612ea2565b935060208501359250604085013567ffffffffffffffff8082111561208a578384fd5b818701915087601f83011261209d578384fd5b8135818111156120ab578485fd5b8860208285010111156120bc578485fd5b95989497505060200194505050565b6000602082840312156120dc578081fd5b815180151581146114bd578182fd5b6000602082840312156120fc578081fd5b5051919050565b600060208284031215612114578081fd5b81516001600160e01b0319811681146114bd578182fd5b60008060008060808587031215612140578182fd5b843567ffffffffffffffff80821115612157578384fd5b61216388838901611df8565b95506020870135915080821115612178578384fd5b61218488838901611df8565b94506040870135915080821115612199578384fd5b818701915061016080838a0312156121af578485fd5b6121b881612e7b565b90506121c48984611d84565b81526020830135602082015260408301356040820152606083013560608201526080830135608082015260a083013560a08201526122058960c08501611d84565b60c08201526122178960e08501611d84565b60e082015261010061222b8a828601611d84565b908201526101208381013590820152610140808401358381111561224d578687fd5b6122598b828701611d8f565b828401525050809450506060870135915080821115612276578283fd5b5061228387828801611eb5565b91505092959194509250565b6001600160a01b03169052565b60008151808452815b818110156122c1576020818501810151868301820152016122a5565b818111156122d25782602083870101525b50601f01601f19169290920160200192915050565b600061012060018060a01b0383511684526020830151602085015260408301516040850152606083015160608501526080830151612328608086018261228f565b5060a083015161233b60a086018261228f565b5060c083015161234e60c086018261228f565b5060e083015160e08501526101008084015182828701526123718387018261229c565b9695505050505050565b918252602082015260400190565b61190160f01b81526002810192909252602282015260420190565b6001600160a01b0391909116815260200190565b6001600160a01b03929092168252602082015260400190565b901515815260200190565b90815260200190565b958652602086019490945260408501929092526060840152608083015260a082015260c00190565b600083825260406020830152611729604083018461229c565b93845260ff9290921660208401526040830152606082015260800190565b600060408252612457604083018561229c565b8281036020840152610166818561229c565b60208082526018908201527f694578656356352d6d617463684f72646572732d307831390000000000000000604082015260600190565b60208082526018908201527f694578656356352d6d617463684f72646572732d307833310000000000000000604082015260600190565b60208082526023908201527f45524332303a207472616e7366657220746f20746865207a65726f206164647260408201526265737360e81b606082015260800190565b60208082526018908201527f694578656356352d6d617463684f72646572732d307834320000000000000000604082015260600190565b60208082526018908201527f694578656356352d6d617463684f72646572732d307831310000000000000000604082015260600190565b60208082526018908201527f694578656356352d6d617463684f72646572732d307834310000000000000000604082015260600190565b60208082526026908201527f4f776e61626c653a206e6577206f776e657220697320746865207a65726f206160408201526564647265737360d01b606082015260800190565b60208082526018908201527f694578656356352d6d617463684f72646572732d307833300000000000000000604082015260600190565b60208082526018908201527f694578656356352d6d617463684f72646572732d307831330000000000000000604082015260600190565b60208082526018908201527f694578656356352d6d617463684f72646572732d307830350000000000000000604082015260600190565b60208082526018908201527f694578656356352d6d617463684f72646572732d307830370000000000000000604082015260600190565b60208082526018908201527f694578656356352d6d617463684f72646572732d307830310000000000000000604082015260600190565b60208082526018908201527f694578656356352d6d617463684f72646572732d307830300000000000000000604082015260600190565b60208082526018908201527f694578656356352d6d617463684f72646572732d307831610000000000000000604082015260600190565b60208082526018908201527f694578656356352d6d617463684f72646572732d307831620000000000000000604082015260600190565b60208082526018908201527f694578656356352d6d617463684f72646572732d307830340000000000000000604082015260600190565b60208082526018908201527f694578656356352d6d617463684f72646572732d307830360000000000000000604082015260600190565b60208082526018908201527f694578656356352d6d617463684f72646572732d307835300000000000000000604082015260600190565b60208082526018908201527f694578656356352d6d617463684f72646572732d307834300000000000000000604082015260600190565b60208082526018908201527f694578656356352d6d617463684f72646572732d307830320000000000000000604082015260600190565b60208082526018908201527f694578656356352d6d617463684f72646572732d307836300000000000000000604082015260600190565b60208082526018908201527f694578656356352d6d617463684f72646572732d307831340000000000000000604082015260600190565b60208082526018908201527f694578656356352d6d617463684f72646572732d307831360000000000000000604082015260600190565b60208082526018908201527f694578656356352d6d617463684f72646572732d307832300000000000000000604082015260600190565b60208082526018908201527f694578656356352d6d617463684f72646572732d307831380000000000000000604082015260600190565b60208082526013908201527234b73b30b634b216b9b4b3b730ba3ab93296bb60691b604082015260600190565b6020808252818101527f4f776e61626c653a2063616c6c6572206973206e6f7420746865206f776e6572604082015260600190565b60208082526018908201527f694578656356352d6d617463684f72646572732d307835310000000000000000604082015260600190565b60208082526018908201527f694578656356352d6d617463684f72646572732d307831300000000000000000604082015260600190565b60208082526018908201527f694578656356352d6d617463684f72646572732d307830330000000000000000604082015260600190565b60208082526025908201527f45524332303a207472616e736665722066726f6d20746865207a65726f206164604082015264647265737360d81b606082015260800190565b60208082526018908201527f696e76616c69642d7369676e61747572652d666f726d61740000000000000000604082015260600190565b60208082526018908201527f694578656356352d6d617463684f72646572732d307831350000000000000000604082015260600190565b60208082526018908201527f694578656356352d6d617463684f72646572732d307832310000000000000000604082015260600190565b60208082526018908201527f694578656356352d6d617463684f72646572732d307831320000000000000000604082015260600190565b60208082526018908201527f694578656356352d6d617463684f72646572732d307833320000000000000000604082015260600190565b60208082526018908201527f694578656356352d6d617463684f72646572732d307832320000000000000000604082015260600190565b60208082526018908201527f694578656356352d6d617463684f72646572732d307831370000000000000000604082015260600190565b6000602082526114bd60208301846122e7565b600060208252612cd760208301845161228f565b602083015160408301526040830151612cf3606084018261228f565b50606083015160808301526080830151612d1060a084018261228f565b5060a083015160c083015260c0830151612d2d60e084018261228f565b5060e083015161010083810191909152830151610120808401919091528301516101408084019190915283015161016080840191909152830151610180612d768185018361228f565b84015190506101a0612d8a8482018361228f565b808501519150506102006101c08181860152612daa61022086018461229c565b908601516101e086810191909152860151858203601f190183870152909250612371838261229c565b600060208252612de760208301845161228f565b602083015160408301526040830151606083015260608301516080830152608083015160a083015260a083015160c083015260c0830151612e2b60e084018261228f565b5060e0830151610100612e408185018361228f565b8401519050610120612e548482018361228f565b8401516101408481019190915284015161016080850152905061172961018084018261229c565b60405181810167ffffffffffffffff81118282101715612e9a57600080fd5b604052919050565b6001600160a01b0381168114612eb757600080fd5b5056fea2646970667358221220828200dd22db15c7d10a39a5a706e73998656495c610a9fd0db647db5b82a4c064736f6c634300060c00338be0079c531659141344cd1fd0a4f28419497f9722a3daafe3b4186f6b6457e0",
  "immutableReferences": {},
  "source": "// SPDX-License-Identifier: Apache-2.0\n\n/******************************************************************************\n * Copyright 2020 IEXEC BLOCKCHAIN TECH                                       *\n *                                                                            *\n * Licensed under the Apache License, Version 2.0 (the \"License\");            *\n * you may not use this file except in compliance with the License.           *\n * You may obtain a copy of the License at                                    *\n *                                                                            *\n *     http://www.apache.org/licenses/LICENSE-2.0                             *\n *                                                                            *\n * Unless required by applicable law or agreed to in writing, software        *\n * distributed under the License is distributed on an \"AS IS\" BASIS,          *\n * WITHOUT WARRANTIES OR CONDITIONS OF ANY KIND, either express or implied.   *\n * See the License for the specific language governing permissions and        *\n * limitations under the License.                                             *\n ******************************************************************************/\n\npragma solidity ^0.6.0;\npragma experimental ABIEncoderV2;\n\nimport \"./IexecERC20Common.sol\";\nimport \"./SignatureVerifier.sol\";\nimport \"../DelegateBase.sol\";\nimport \"../interfaces/IexecPoco1.sol\";\n\n\nstruct Matching\n{\n\tbytes   apporderStruct;\n\tbytes32 apporderHash;\n\taddress appOwner;\n\tbytes   datasetorderStruct;\n\tbytes32 datasetorderHash;\n\taddress datasetOwner;\n\tbytes   workerpoolorderStruct;\n\tbytes32 workerpoolorderHash;\n\taddress workerpoolOwner;\n\tbytes   requestorderStruct;\n\tbytes32 requestorderHash;\n\tbool    hasDataset;\n}\n\ncontract IexecPoco1Delegate is IexecPoco1, DelegateBase, IexecERC20Common, SignatureVerifier\n{\n\tusing SafeMathExtended  for uint256;\n\tusing IexecLibOrders_v5 for IexecLibOrders_v5.AppOrder;\n\tusing IexecLibOrders_v5 for IexecLibOrders_v5.DatasetOrder;\n\tusing IexecLibOrders_v5 for IexecLibOrders_v5.WorkerpoolOrder;\n\tusing IexecLibOrders_v5 for IexecLibOrders_v5.RequestOrder;\n\n\t/***************************************************************************\n\t *                           ODB order signature                           *\n\t ***************************************************************************/\n\tfunction verifySignature(address _identity, bytes32 _hash, bytes calldata _signature)\n\texternal view override returns (bool)\n\t{\n\t\treturn _checkSignature(_identity, _hash, _signature);\n\t}\n\n\tfunction verifyPresignature(address _identity, bytes32 _hash)\n\texternal view override returns (bool)\n\t{\n\t\treturn _checkPresignature(_identity, _hash);\n\t}\n\n\tfunction verifyPresignatureOrSignature(address _identity, bytes32 _hash, bytes calldata _signature)\n\texternal view override returns (bool)\n\t{\n\t\treturn _checkPresignatureOrSignature(_identity, _hash, _signature);\n\t}\n\n\t/***************************************************************************\n\t *                           ODB order matching                            *\n\t ***************************************************************************/\n\t// should be external\n\tfunction matchOrders(\n\t\tIexecLibOrders_v5.AppOrder        memory _apporder,\n\t\tIexecLibOrders_v5.DatasetOrder    memory _datasetorder,\n\t\tIexecLibOrders_v5.WorkerpoolOrder memory _workerpoolorder,\n\t\tIexecLibOrders_v5.RequestOrder    memory _requestorder)\n\tpublic override returns (bytes32)\n\t{\n\t\t/**\n\t\t * Check orders compatibility\n\t\t */\n\n\t\t// computation environment & allowed enough funds\n\t\tbytes32 tag = _apporder.tag | _datasetorder.tag | _requestorder.tag;\n\t\trequire(_requestorder.category           == _workerpoolorder.category,        'iExecV5-matchOrders-0x00');\n\t\trequire(_requestorder.category            < m_categories.length,              'iExecV5-matchOrders-0x01');\n\t\trequire(_requestorder.trust              <= _workerpoolorder.trust,           'iExecV5-matchOrders-0x02');\n\t\trequire(_requestorder.appmaxprice        >= _apporder.appprice,               'iExecV5-matchOrders-0x03');\n\t\trequire(_requestorder.datasetmaxprice    >= _datasetorder.datasetprice,       'iExecV5-matchOrders-0x04');\n\t\trequire(_requestorder.workerpoolmaxprice >= _workerpoolorder.workerpoolprice, 'iExecV5-matchOrders-0x05');\n\t\trequire(tag & ~_workerpoolorder.tag      == 0x0,                              'iExecV5-matchOrders-0x06');\n\t\trequire((tag ^ _apporder.tag)[31] & 0x01 == 0x0,                              'iExecV5-matchOrders-0x07');\n\n\t\t// Check matching and restrictions\n\t\trequire(_requestorder.app     == _apporder.app,                                                                                                                   'iExecV5-matchOrders-0x10');\n\t\trequire(_requestorder.dataset == _datasetorder.dataset,                                                                                                           'iExecV5-matchOrders-0x11');\n\t\trequire(_requestorder.workerpool           == address(0) || _checkIdentity(_requestorder.workerpool,           _workerpoolorder.workerpool, GROUPMEMBER_PURPOSE), 'iExecV5-matchOrders-0x12'); // requestorder.workerpool is a restriction\n\t\trequire(_apporder.datasetrestrict          == address(0) || _checkIdentity(_apporder.datasetrestrict,          _datasetorder.dataset,       GROUPMEMBER_PURPOSE), 'iExecV5-matchOrders-0x13');\n\t\trequire(_apporder.workerpoolrestrict       == address(0) || _checkIdentity(_apporder.workerpoolrestrict,       _workerpoolorder.workerpool, GROUPMEMBER_PURPOSE), 'iExecV5-matchOrders-0x14');\n\t\trequire(_apporder.requesterrestrict        == address(0) || _checkIdentity(_apporder.requesterrestrict,        _requestorder.requester,     GROUPMEMBER_PURPOSE), 'iExecV5-matchOrders-0x15');\n\t\trequire(_datasetorder.apprestrict          == address(0) || _checkIdentity(_datasetorder.apprestrict,          _apporder.app,               GROUPMEMBER_PURPOSE), 'iExecV5-matchOrders-0x16');\n\t\trequire(_datasetorder.workerpoolrestrict   == address(0) || _checkIdentity(_datasetorder.workerpoolrestrict,   _workerpoolorder.workerpool, GROUPMEMBER_PURPOSE), 'iExecV5-matchOrders-0x17');\n\t\trequire(_datasetorder.requesterrestrict    == address(0) || _checkIdentity(_datasetorder.requesterrestrict,    _requestorder.requester,     GROUPMEMBER_PURPOSE), 'iExecV5-matchOrders-0x18');\n\t\trequire(_workerpoolorder.apprestrict       == address(0) || _checkIdentity(_workerpoolorder.apprestrict,       _apporder.app,               GROUPMEMBER_PURPOSE), 'iExecV5-matchOrders-0x19');\n\t\trequire(_workerpoolorder.datasetrestrict   == address(0) || _checkIdentity(_workerpoolorder.datasetrestrict,   _datasetorder.dataset,       GROUPMEMBER_PURPOSE), 'iExecV5-matchOrders-0x1a');\n\t\trequire(_workerpoolorder.requesterrestrict == address(0) || _checkIdentity(_workerpoolorder.requesterrestrict, _requestorder.requester,     GROUPMEMBER_PURPOSE), 'iExecV5-matchOrders-0x1b');\n\n\t\t/**\n\t\t * Check orders authenticity\n\t\t */\n\t\tMatching memory ids;\n\t\tids.hasDataset = _datasetorder.dataset != address(0);\n\n\t\t// app\n\t\tids.apporderStruct = _toEthTypedStruct(_apporder.hash(), EIP712DOMAIN_SEPARATOR);\n\t\tids.apporderHash   = keccak256(ids.apporderStruct);\n\t\tids.appOwner       = App(_apporder.app).owner();\n\n\t\trequire(m_appregistry.isRegistered(_apporder.app),                                       'iExecV5-matchOrders-0x20');\n\t\trequire(_checkPresignatureOrSignature(ids.appOwner, ids.apporderStruct, _apporder.sign), 'iExecV5-matchOrders-0x21');\n\t\trequire(m_baseToken.isKYC(ids.appOwner),                                                 'iExecV5-matchOrders-0x22');\n\n\t\t// dataset\n\t\tif (ids.hasDataset) // only check if dataset is enabled\n\t\t{\n\t\t\tids.datasetorderStruct = _toEthTypedStruct(_datasetorder.hash(), EIP712DOMAIN_SEPARATOR);\n\t\t\tids.datasetorderHash   = keccak256(ids.datasetorderStruct);\n\t\t\tids.datasetOwner       = Dataset(_datasetorder.dataset).owner();\n\n\t\t\trequire(m_datasetregistry.isRegistered(_datasetorder.dataset),                                       'iExecV5-matchOrders-0x30');\n\t\t\trequire(_checkPresignatureOrSignature(ids.datasetOwner, ids.datasetorderStruct, _datasetorder.sign), 'iExecV5-matchOrders-0x31');\n\t\t\trequire(m_baseToken.isKYC(ids.datasetOwner),                                                         'iExecV5-matchOrders-0x32');\n\t\t}\n\n\t\t// workerpool\n\t\tids.workerpoolorderStruct = _toEthTypedStruct(_workerpoolorder.hash(), EIP712DOMAIN_SEPARATOR);\n\t\tids.workerpoolorderHash   = keccak256(ids.workerpoolorderStruct);\n\t\tids.workerpoolOwner       = Workerpool(_workerpoolorder.workerpool).owner();\n\n\t\trequire(m_workerpoolregistry.isRegistered(_workerpoolorder.workerpool),                                       'iExecV5-matchOrders-0x40');\n\t\trequire(_checkPresignatureOrSignature(ids.workerpoolOwner, ids.workerpoolorderStruct, _workerpoolorder.sign), 'iExecV5-matchOrders-0x41');\n\t\trequire(m_baseToken.isKYC(ids.workerpoolOwner),                                                               'iExecV5-matchOrders-0x42');\n\n\t\t// request\n\t\tids.requestorderStruct = _toEthTypedStruct(_requestorder.hash(), EIP712DOMAIN_SEPARATOR);\n\t\tids.requestorderHash   = keccak256(ids.requestorderStruct);\n\t\trequire(_checkPresignatureOrSignature(_requestorder.requester, ids.requestorderStruct, _requestorder.sign), 'iExecV5-matchOrders-0x50');\n\t\trequire(m_baseToken.isKYC(_requestorder.requester),                                                         'iExecV5-matchOrders-0x51');\n\n\t\t/**\n\t\t * Check availability\n\t\t */\n\t\tuint256 volume;\n\t\tvolume =                             _apporder.volume.sub       (m_consumed[ids.apporderHash       ]);\n\t\tvolume = ids.hasDataset ? volume.min(_datasetorder.volume.sub   (m_consumed[ids.datasetorderHash   ])) : volume;\n\t\tvolume =                  volume.min(_workerpoolorder.volume.sub(m_consumed[ids.workerpoolorderHash]));\n\t\tvolume =                  volume.min(_requestorder.volume.sub   (m_consumed[ids.requestorderHash   ]));\n\t\trequire(volume > 0, 'iExecV5-matchOrders-0x60');\n\n\t\t/**\n\t\t * Record\n\t\t */\n\t\tbytes32 dealid = keccak256(abi.encodePacked(\n\t\t\tids.requestorderHash,            // requestHash\n\t\t\tm_consumed[ids.requestorderHash] // idx of first subtask\n\t\t));\n\n\t\tIexecLibCore_v5.Deal storage deal = m_deals[dealid];\n\t\tdeal.app.pointer          = _apporder.app;\n\t\tdeal.app.owner            = ids.appOwner;\n\t\tdeal.app.price            = _apporder.appprice;\n\t\tdeal.dataset.owner        = ids.datasetOwner;\n\t\tdeal.dataset.pointer      = _datasetorder.dataset;\n\t\tdeal.dataset.price        = ids.hasDataset ? _datasetorder.datasetprice : 0;\n\t\tdeal.workerpool.pointer   = _workerpoolorder.workerpool;\n\t\tdeal.workerpool.owner     = ids.workerpoolOwner;\n\t\tdeal.workerpool.price     = _workerpoolorder.workerpoolprice;\n\t\tdeal.trust                = _requestorder.trust.max(1);\n\t\tdeal.category             = _requestorder.category;\n\t\tdeal.tag                  = tag;\n\t\tdeal.requester            = _requestorder.requester;\n\t\tdeal.beneficiary          = _requestorder.beneficiary;\n\t\tdeal.callback             = _requestorder.callback;\n\t\tdeal.params               = _requestorder.params;\n\t\tdeal.startTime            = now;\n\t\tdeal.botFirst             = m_consumed[ids.requestorderHash];\n\t\tdeal.botSize              = volume;\n\t\tdeal.workerStake          = _workerpoolorder.workerpoolprice.percentage(Workerpool(_workerpoolorder.workerpool).m_workerStakeRatioPolicy());\n\t\tdeal.schedulerRewardRatio = Workerpool(_workerpoolorder.workerpool).m_schedulerRewardRatioPolicy();\n\n\t\t/**\n\t\t * Update consumed\n\t\t */\n\t\tm_consumed[ids.apporderHash       ] = m_consumed[ids.apporderHash       ].add(                 volume    );\n\t\tm_consumed[ids.datasetorderHash   ] = m_consumed[ids.datasetorderHash   ].add(ids.hasDataset ? volume : 0);\n\t\tm_consumed[ids.workerpoolorderHash] = m_consumed[ids.workerpoolorderHash].add(                 volume    );\n\t\tm_consumed[ids.requestorderHash   ] = m_consumed[ids.requestorderHash   ].add(                 volume    );\n\n\t\t/**\n\t\t * Lock\n\t\t */\n\t\tlock(\n\t\t\tdeal.requester,\n\t\t\tdeal.app.price\n\t\t\t.add(deal.dataset.price)\n\t\t\t.add(deal.workerpool.price)\n\t\t\t.mul(volume)\n\t\t);\n\t\tlock(\n\t\t\tdeal.workerpool.owner,\n\t\t\tdeal.workerpool.price\n\t\t\t.percentage(WORKERPOOL_STAKE_RATIO) // ORDER IS IMPORTANT HERE!\n\t\t\t.mul(volume)                        // ORDER IS IMPORTANT HERE!\n\t\t);\n\n\t\t/**\n\t\t * Advertize deal\n\t\t */\n\t\temit SchedulerNotice(deal.workerpool.pointer, dealid);\n\n\t\t/**\n\t\t * Advertize consumption\n\t\t */\n\t\temit OrdersMatched(\n\t\t\tdealid\n\t\t,\tids.apporderHash\n\t\t,\tids.datasetorderHash\n\t\t,\tids.workerpoolorderHash\n\t\t,\tids.requestorderHash\n\t\t,\tvolume\n\t\t);\n\n\t\treturn dealid;\n\t}\n}\n",
  "sourcePath": "/home/amxx/Work/iExec/code/PoCo-dev/contracts/modules/delegates/IexecPoco1Delegate.sol",
  "compiler": {
    "name": "solc",
    "version": "0.6.12+commit.27d51765.Emscripten.clang"
  },
  "schemaVersion": "3.2.2",
  "updatedAt": "2020-11-04T10:28:52.882Z",
  "devdoc": {
    "kind": "dev",
    "methods": {
      "owner()": {
        "details": "Returns the address of the current owner."
      },
      "renounceOwnership()": {
        "details": "Leaves the contract without owner. It will not be possible to call `onlyOwner` functions anymore. Can only be called by the current owner. NOTE: Renouncing ownership will leave the contract without an owner, thereby removing any functionality that is only available to the owner."
      },
      "transferOwnership(address)": {
        "details": "Transfers ownership of the contract to a new account (`newOwner`). Can only be called by the current owner."
      }
    },
    "version": 1
  },
  "userdoc": {
    "kind": "user",
    "methods": {},
    "version": 1
  }
}