{
  "contractName": "IexecOrderManagementDelegate",
  "abi": [
    {
      "anonymous": false,
      "inputs": [
        {
          "indexed": false,
          "internalType": "bytes32",
          "name": "appHash",
          "type": "bytes32"
        }
      ],
      "name": "ClosedAppOrder",
      "type": "event"
    },
    {
      "anonymous": false,
      "inputs": [
        {
          "indexed": false,
          "internalType": "bytes32",
          "name": "datasetHash",
          "type": "bytes32"
        }
      ],
      "name": "ClosedDatasetOrder",
      "type": "event"
    },
    {
      "anonymous": false,
      "inputs": [
        {
          "indexed": false,
          "internalType": "bytes32",
          "name": "requestHash",
          "type": "bytes32"
        }
      ],
      "name": "ClosedRequestOrder",
      "type": "event"
    },
    {
      "anonymous": false,
      "inputs": [
        {
          "indexed": false,
          "internalType": "bytes32",
          "name": "workerpoolHash",
          "type": "bytes32"
        }
      ],
      "name": "ClosedWorkerpoolOrder",
      "type": "event"
    },
    {
      "anonymous": false,
      "inputs": [
        {
          "indexed": true,
          "internalType": "address",
          "name": "previousOwner",
          "type": "address"
        },
        {
          "indexed": true,
          "internalType": "address",
          "name": "newOwner",
          "type": "address"
        }
      ],
      "name": "OwnershipTransferred",
      "type": "event"
    },
    {
      "anonymous": false,
      "inputs": [
        {
          "indexed": false,
          "internalType": "bytes32",
          "name": "appHash",
          "type": "bytes32"
        }
      ],
      "name": "SignedAppOrder",
      "type": "event"
    },
    {
      "anonymous": false,
      "inputs": [
        {
          "indexed": false,
          "internalType": "bytes32",
          "name": "datasetHash",
          "type": "bytes32"
        }
      ],
      "name": "SignedDatasetOrder",
      "type": "event"
    },
    {
      "anonymous": false,
      "inputs": [
        {
          "indexed": false,
          "internalType": "bytes32",
          "name": "requestHash",
          "type": "bytes32"
        }
      ],
      "name": "SignedRequestOrder",
      "type": "event"
    },
    {
      "anonymous": false,
      "inputs": [
        {
          "indexed": false,
          "internalType": "bytes32",
          "name": "workerpoolHash",
          "type": "bytes32"
        }
      ],
      "name": "SignedWorkerpoolOrder",
      "type": "event"
    },
    {
      "inputs": [],
      "name": "owner",
      "outputs": [
        {
          "internalType": "address",
          "name": "",
          "type": "address"
        }
      ],
      "stateMutability": "view",
      "type": "function"
    },
    {
      "inputs": [],
      "name": "renounceOwnership",
      "outputs": [],
      "stateMutability": "nonpayable",
      "type": "function"
    },
    {
      "inputs": [
        {
          "internalType": "address",
          "name": "newOwner",
          "type": "address"
        }
      ],
      "name": "transferOwnership",
      "outputs": [],
      "stateMutability": "nonpayable",
      "type": "function"
    },
    {
      "inputs": [
        {
          "components": [
            {
              "components": [
                {
                  "internalType": "address",
                  "name": "app",
                  "type": "address"
                },
                {
                  "internalType": "uint256",
                  "name": "appprice",
                  "type": "uint256"
                },
                {
                  "internalType": "uint256",
                  "name": "volume",
                  "type": "uint256"
                },
                {
                  "internalType": "bytes32",
                  "name": "tag",
                  "type": "bytes32"
                },
                {
                  "internalType": "address",
                  "name": "datasetrestrict",
                  "type": "address"
                },
                {
                  "internalType": "address",
                  "name": "workerpoolrestrict",
                  "type": "address"
                },
                {
                  "internalType": "address",
                  "name": "requesterrestrict",
                  "type": "address"
                },
                {
                  "internalType": "bytes32",
                  "name": "salt",
                  "type": "bytes32"
                },
                {
                  "internalType": "bytes",
                  "name": "sign",
                  "type": "bytes"
                }
              ],
              "internalType": "struct IexecLibOrders_v5.AppOrder",
              "name": "order",
              "type": "tuple"
            },
            {
              "internalType": "enum IexecLibOrders_v5.OrderOperationEnum",
              "name": "operation",
              "type": "uint8"
            },
            {
              "internalType": "bytes",
              "name": "sign",
              "type": "bytes"
            }
          ],
          "internalType": "struct IexecLibOrders_v5.AppOrderOperation",
          "name": "_apporderoperation",
          "type": "tuple"
        }
      ],
      "name": "manageAppOrder",
      "outputs": [],
      "stateMutability": "nonpayable",
      "type": "function"
    },
    {
      "inputs": [
        {
          "components": [
            {
              "components": [
                {
                  "internalType": "address",
                  "name": "dataset",
                  "type": "address"
                },
                {
                  "internalType": "uint256",
                  "name": "datasetprice",
                  "type": "uint256"
                },
                {
                  "internalType": "uint256",
                  "name": "volume",
                  "type": "uint256"
                },
                {
                  "internalType": "bytes32",
                  "name": "tag",
                  "type": "bytes32"
                },
                {
                  "internalType": "address",
                  "name": "apprestrict",
                  "type": "address"
                },
                {
                  "internalType": "address",
                  "name": "workerpoolrestrict",
                  "type": "address"
                },
                {
                  "internalType": "address",
                  "name": "requesterrestrict",
                  "type": "address"
                },
                {
                  "internalType": "bytes32",
                  "name": "salt",
                  "type": "bytes32"
                },
                {
                  "internalType": "bytes",
                  "name": "sign",
                  "type": "bytes"
                }
              ],
              "internalType": "struct IexecLibOrders_v5.DatasetOrder",
              "name": "order",
              "type": "tuple"
            },
            {
              "internalType": "enum IexecLibOrders_v5.OrderOperationEnum",
              "name": "operation",
              "type": "uint8"
            },
            {
              "internalType": "bytes",
              "name": "sign",
              "type": "bytes"
            }
          ],
          "internalType": "struct IexecLibOrders_v5.DatasetOrderOperation",
          "name": "_datasetorderoperation",
          "type": "tuple"
        }
      ],
      "name": "manageDatasetOrder",
      "outputs": [],
      "stateMutability": "nonpayable",
      "type": "function"
    },
    {
      "inputs": [
        {
          "components": [
            {
              "components": [
                {
                  "internalType": "address",
                  "name": "workerpool",
                  "type": "address"
                },
                {
                  "internalType": "uint256",
                  "name": "workerpoolprice",
                  "type": "uint256"
                },
                {
                  "internalType": "uint256",
                  "name": "volume",
                  "type": "uint256"
                },
                {
                  "internalType": "bytes32",
                  "name": "tag",
                  "type": "bytes32"
                },
                {
                  "internalType": "uint256",
                  "name": "category",
                  "type": "uint256"
                },
                {
                  "internalType": "uint256",
                  "name": "trust",
                  "type": "uint256"
                },
                {
                  "internalType": "address",
                  "name": "apprestrict",
                  "type": "address"
                },
                {
                  "internalType": "address",
                  "name": "datasetrestrict",
                  "type": "address"
                },
                {
                  "internalType": "address",
                  "name": "requesterrestrict",
                  "type": "address"
                },
                {
                  "internalType": "bytes32",
                  "name": "salt",
                  "type": "bytes32"
                },
                {
                  "internalType": "bytes",
                  "name": "sign",
                  "type": "bytes"
                }
              ],
              "internalType": "struct IexecLibOrders_v5.WorkerpoolOrder",
              "name": "order",
              "type": "tuple"
            },
            {
              "internalType": "enum IexecLibOrders_v5.OrderOperationEnum",
              "name": "operation",
              "type": "uint8"
            },
            {
              "internalType": "bytes",
              "name": "sign",
              "type": "bytes"
            }
          ],
          "internalType": "struct IexecLibOrders_v5.WorkerpoolOrderOperation",
          "name": "_workerpoolorderoperation",
          "type": "tuple"
        }
      ],
      "name": "manageWorkerpoolOrder",
      "outputs": [],
      "stateMutability": "nonpayable",
      "type": "function"
    },
    {
      "inputs": [
        {
          "components": [
            {
              "components": [
                {
                  "internalType": "address",
                  "name": "app",
                  "type": "address"
                },
                {
                  "internalType": "uint256",
                  "name": "appmaxprice",
                  "type": "uint256"
                },
                {
                  "internalType": "address",
                  "name": "dataset",
                  "type": "address"
                },
                {
                  "internalType": "uint256",
                  "name": "datasetmaxprice",
                  "type": "uint256"
                },
                {
                  "internalType": "address",
                  "name": "workerpool",
                  "type": "address"
                },
                {
                  "internalType": "uint256",
                  "name": "workerpoolmaxprice",
                  "type": "uint256"
                },
                {
                  "internalType": "address",
                  "name": "requester",
                  "type": "address"
                },
                {
                  "internalType": "uint256",
                  "name": "volume",
                  "type": "uint256"
                },
                {
                  "internalType": "bytes32",
                  "name": "tag",
                  "type": "bytes32"
                },
                {
                  "internalType": "uint256",
                  "name": "category",
                  "type": "uint256"
                },
                {
                  "internalType": "uint256",
                  "name": "trust",
                  "type": "uint256"
                },
                {
                  "internalType": "address",
                  "name": "beneficiary",
                  "type": "address"
                },
                {
                  "internalType": "address",
                  "name": "callback",
                  "type": "address"
                },
                {
                  "internalType": "string",
                  "name": "params",
                  "type": "string"
                },
                {
                  "internalType": "bytes32",
                  "name": "salt",
                  "type": "bytes32"
                },
                {
                  "internalType": "bytes",
                  "name": "sign",
                  "type": "bytes"
                }
              ],
              "internalType": "struct IexecLibOrders_v5.RequestOrder",
              "name": "order",
              "type": "tuple"
            },
            {
              "internalType": "enum IexecLibOrders_v5.OrderOperationEnum",
              "name": "operation",
              "type": "uint8"
            },
            {
              "internalType": "bytes",
              "name": "sign",
              "type": "bytes"
            }
          ],
          "internalType": "struct IexecLibOrders_v5.RequestOrderOperation",
          "name": "_requestorderoperation",
          "type": "tuple"
        }
      ],
      "name": "manageRequestOrder",
      "outputs": [],
      "stateMutability": "nonpayable",
      "type": "function"
    }
  ],
  "bytecode": "0x60806040526000620000196001600160e01b036200006b16565b600080546001600160a01b0319166001600160a01b03831690811782556040519293509160008051602062001df4833981519152908290a350620000656001600160e01b036200006f16565b62000129565b3390565b620000826001600160e01b036200006b16565b6000546001600160a01b03908116911614620000bb5760405162461bcd60e51b8152600401620000b290620000f4565b60405180910390fd5b600080546040516001600160a01b039091169060008051602062001df4833981519152908390a3600080546001600160a01b0319169055565b6020808252818101527f4f776e61626c653a2063616c6c6572206973206e6f7420746865206f776e6572604082015260600190565b611cbb80620001396000396000f3fe608060405234801561001057600080fd5b506004361061007d5760003560e01c80638da5cb5b1161005b5780638da5cb5b146100b25780638dd971d5146100d0578063b2b07e66146100e3578063f2fde38b146100f65761007d565b80634b74710614610082578063715018a6146100975780637e34a0771461009f575b600080fd5b6100956100903660046114e8565b610109565b005b610095610559565b6100956100ad3660046116e7565b6105e1565b6100ba610a16565b6040516100c79190611ac9565b60405180910390f35b6100956100de366004611523565b610a25565b6100956100f13660046114e8565b610de7565b610095610104366004611491565b61121c565b60008160000151600001516001600160a01b0316638da5cb5b6040518163ffffffff1660e01b815260040160206040518083038186803b15801561014c57600080fd5b505afa158015610160573d6000803e3d6000fd5b505050506040513d601f19601f8201168201806040525081019061018491906114b4565b905061018e61125d565b6001600160a01b0316816001600160a01b0316148061035657506040516308231d7360e31b815273__IexecLibOrders_v5_____________________90634118eb98906101df908590600401611b88565b60206040518083038186803b1580156101f757600080fd5b505af415801561020b573d6000803e3d6000fd5b505050506040513d601f19601f8201168201806040525081019061022f91906114d0565b60105460405163176eaa4960e01b815273__IexecLibOrders_v5_____________________9263176eaa499261026792600401611ae6565b60206040518083038186803b15801561027f57600080fd5b505af4158015610293573d6000803e3d6000fd5b505050506040513d601f19601f820116820180604052508101906102b791906114d0565b60408084015190516319045a2560e01b815273__IexecLibOrders_v5_____________________926319045a25926102f192600401611af4565b60206040518083038186803b15801561030957600080fd5b505af415801561031d573d6000803e3d6000fd5b505050506040513d601f19601f8201168201806040525081019061034191906114b4565b6001600160a01b0316816001600160a01b0316145b61035f57600080fd5b81516040516308d9777160e11b815260009173__IexecLibOrders_v5_____________________916311b2eee29161039991600401611b9b565b60206040518083038186803b1580156103b157600080fd5b505af41580156103c5573d6000803e3d6000fd5b505050506040513d601f19601f820116820180604052508101906103e991906114d0565b60105460405163176eaa4960e01b815273__IexecLibOrders_v5_____________________9263176eaa499261042192600401611ae6565b60206040518083038186803b15801561043957600080fd5b505af415801561044d573d6000803e3d6000fd5b505050506040513d601f19601f8201168201806040525081019061047191906114d0565b905060008360200151600181111561048557fe5b14156104ef576000818152601160205260409081902080546001600160a01b0319166001600160a01b038516179055517f79ce85909be2c590a728d1634ce6ec8a7cbf815260bacc05387890a313da8130906104e2908390611add565b60405180910390a1610554565b60018360200151600181111561050157fe5b14156105545782516040908101516000838152601260205282902055517fcf52e3228bc482a6656d8ab56c09888b1c5bf6aaadba0185e96a34836f2bb1d49061054b908390611add565b60405180910390a15b505050565b61056161125d565b6000546001600160a01b039081169116146105975760405162461bcd60e51b815260040161058e90611b53565b60405180910390fd5b600080546040516001600160a01b03909116907f8be0079c531659141344cd1fd0a4f28419497f9722a3daafe3b4186f6b6457e0908390a3600080546001600160a01b0319169055565b60008160000151600001516001600160a01b0316638da5cb5b6040518163ffffffff1660e01b815260040160206040518083038186803b15801561062457600080fd5b505afa158015610638573d6000803e3d6000fd5b505050506040513d601f19601f8201168201806040525081019061065c91906114b4565b905061066661125d565b6001600160a01b0316816001600160a01b0316148061082e5750604051632daacfb560e11b815273__IexecLibOrders_v5_____________________90635b559f6a906106b7908590600401611c10565b60206040518083038186803b1580156106cf57600080fd5b505af41580156106e3573d6000803e3d6000fd5b505050506040513d601f19601f8201168201806040525081019061070791906114d0565b60105460405163176eaa4960e01b815273__IexecLibOrders_v5_____________________9263176eaa499261073f92600401611ae6565b60206040518083038186803b15801561075757600080fd5b505af415801561076b573d6000803e3d6000fd5b505050506040513d601f19601f8201168201806040525081019061078f91906114d0565b60408084015190516319045a2560e01b815273__IexecLibOrders_v5_____________________926319045a25926107c992600401611af4565b60206040518083038186803b1580156107e157600080fd5b505af41580156107f5573d6000803e3d6000fd5b505050506040513d601f19601f8201168201806040525081019061081991906114b4565b6001600160a01b0316816001600160a01b0316145b61083757600080fd5b8151604051637f6cc2ff60e11b815260009173__IexecLibOrders_v5_____________________9163fed985fe9161087191600401611c2c565b60206040518083038186803b15801561088957600080fd5b505af415801561089d573d6000803e3d6000fd5b505050506040513d601f19601f820116820180604052508101906108c191906114d0565b60105460405163176eaa4960e01b815273__IexecLibOrders_v5_____________________9263176eaa49926108f992600401611ae6565b60206040518083038186803b15801561091157600080fd5b505af4158015610925573d6000803e3d6000fd5b505050506040513d601f19601f8201168201806040525081019061094991906114d0565b905060008360200151600181111561095d57fe5b14156109ba576000818152601160205260409081902080546001600160a01b0319166001600160a01b038516179055517f3a61aabf2ab04790d082ff1e332853b2f66944c2e951a146121f80272812a476906104e2908390611add565b6001836020015160018111156109cc57fe5b14156105545782516040908101516000838152601260205282902055517f145ad51e4496173bca15e24e7eb46f9ab3a10eea0497e2801a3a6806c06113a39061054b908390611add565b6000546001600160a01b031690565b805160c00151610a3361125d565b6001600160a01b0316816001600160a01b03161480610bfb57506040516320aabe5360e01b815273__IexecLibOrders_v5_____________________906320aabe5390610a84908590600401611bae565b60206040518083038186803b158015610a9c57600080fd5b505af4158015610ab0573d6000803e3d6000fd5b505050506040513d601f19601f82011682018060405250810190610ad491906114d0565b60105460405163176eaa4960e01b815273__IexecLibOrders_v5_____________________9263176eaa4992610b0c92600401611ae6565b60206040518083038186803b158015610b2457600080fd5b505af4158015610b38573d6000803e3d6000fd5b505050506040513d601f19601f82011682018060405250810190610b5c91906114d0565b60408084015190516319045a2560e01b815273__IexecLibOrders_v5_____________________926319045a2592610b9692600401611af4565b60206040518083038186803b158015610bae57600080fd5b505af4158015610bc2573d6000803e3d6000fd5b505050506040513d601f19601f82011682018060405250810190610be691906114b4565b6001600160a01b0316816001600160a01b0316145b610c0457600080fd5b8151604051638ac03f3360e01b815260009173__IexecLibOrders_v5_____________________91638ac03f3391610c3e91600401611bfd565b60206040518083038186803b158015610c5657600080fd5b505af4158015610c6a573d6000803e3d6000fd5b505050506040513d601f19601f82011682018060405250810190610c8e91906114d0565b60105460405163176eaa4960e01b815273__IexecLibOrders_v5_____________________9263176eaa4992610cc692600401611ae6565b60206040518083038186803b158015610cde57600080fd5b505af4158015610cf2573d6000803e3d6000fd5b505050506040513d601f19601f82011682018060405250810190610d1691906114d0565b9050600083602001516001811115610d2a57fe5b1415610d87576000818152601160205260409081902080546001600160a01b0319166001600160a01b038516179055517f3b0ac04165536d6b11d04220f998c840bd6e439d59c5d8721bba8a4e1fb9ebfd906104e2908390611add565b600183602001516001811115610d9957fe5b141561055457825160e001516000828152601260205260409081902091909155517f582f43f2a741cbe708aae3b8d38a4efc3d09d7e81919697b3ca693f4c444cc059061054b908390611add565b60008160000151600001516001600160a01b0316638da5cb5b6040518163ffffffff1660e01b815260040160206040518083038186803b158015610e2a57600080fd5b505afa158015610e3e573d6000803e3d6000fd5b505050506040513d601f19601f82011682018060405250810190610e6291906114b4565b9050610e6c61125d565b6001600160a01b0316816001600160a01b031614806110345750604051636cf30b8b60e01b815273__IexecLibOrders_v5_____________________90636cf30b8b90610ebd908590600401611b88565b60206040518083038186803b158015610ed557600080fd5b505af4158015610ee9573d6000803e3d6000fd5b505050506040513d601f19601f82011682018060405250810190610f0d91906114d0565b60105460405163176eaa4960e01b815273__IexecLibOrders_v5_____________________9263176eaa4992610f4592600401611ae6565b60206040518083038186803b158015610f5d57600080fd5b505af4158015610f71573d6000803e3d6000fd5b505050506040513d601f19601f82011682018060405250810190610f9591906114d0565b60408084015190516319045a2560e01b815273__IexecLibOrders_v5_____________________926319045a2592610fcf92600401611af4565b60206040518083038186803b158015610fe757600080fd5b505af4158015610ffb573d6000803e3d6000fd5b505050506040513d601f19601f8201168201806040525081019061101f91906114b4565b6001600160a01b0316816001600160a01b0316145b61103d57600080fd5b8151604051637c0d54d360e01b815260009173__IexecLibOrders_v5_____________________91637c0d54d39161107791600401611b9b565b60206040518083038186803b15801561108f57600080fd5b505af41580156110a3573d6000803e3d6000fd5b505050506040513d601f19601f820116820180604052508101906110c791906114d0565b60105460405163176eaa4960e01b815273__IexecLibOrders_v5_____________________9263176eaa49926110ff92600401611ae6565b60206040518083038186803b15801561111757600080fd5b505af415801561112b573d6000803e3d6000fd5b505050506040513d601f19601f8201168201806040525081019061114f91906114d0565b905060008360200151600181111561116357fe5b14156111c0576000818152601160205260409081902080546001600160a01b0319166001600160a01b038516179055517f50933cf5a9c44d5ed66b895deb27212aa33d811b46a7b41093e047e213c0bcab906104e2908390611add565b6001836020015160018111156111d257fe5b14156105545782516040908101516000838152601260205282902055517f7343f75be43aba524f85326508cd975d016ef7884676377366c69a7c32e306689061054b908390611add565b61122461125d565b6000546001600160a01b039081169116146112515760405162461bcd60e51b815260040161058e90611b53565b61125a81611261565b50565b3390565b6001600160a01b0381166112875760405162461bcd60e51b815260040161058e90611b0d565b600080546040516001600160a01b03808516939216917f8be0079c531659141344cd1fd0a4f28419497f9722a3daafe3b4186f6b6457e091a3600080546001600160a01b0319166001600160a01b0392909216919091179055565b80356112ed81611c70565b92915050565b600082601f830112611303578081fd5b813567ffffffffffffffff811115611319578182fd5b61132c601f8201601f1916602001611c3f565b915080825283602082850101111561134357600080fd5b8060208401602084013760009082016020015292915050565b8035600281106112ed57600080fd5b60006060828403121561137c578081fd5b6113866060611c3f565b9050813567ffffffffffffffff808211156113a057600080fd5b6101209184018086038313156113b557600080fd5b6113be83611c3f565b6113c887836112e2565b81526020820135602082015260408201356040820152606082013560608201526113f587608084016112e2565b60808201526114078760a084016112e2565b60a08201526114198760c084016112e2565b60c082015260e082013560e08201526101009350838201358381111561143e57600080fd5b61144a888285016112f3565b828601525084525061145f856020860161135c565b6020840152604084013591508082111561147857600080fd5b50611485848285016112f3565b60408301525092915050565b6000602082840312156114a2578081fd5b81356114ad81611c70565b9392505050565b6000602082840312156114c5578081fd5b81516114ad81611c70565b6000602082840312156114e1578081fd5b5051919050565b6000602082840312156114f9578081fd5b813567ffffffffffffffff81111561150f578182fd5b61151b8482850161136b565b949350505050565b600060208284031215611534578081fd5b813567ffffffffffffffff8082111561154b578283fd5b8184016060818703121561155d578384fd5b6115676060611c3f565b9250803582811115611577578485fd5b61020090820180880382131561158b578586fd5b61159482611c3f565b61159e89836112e2565b8152602082013560208201526115b789604084016112e2565b6040820152606082013560608201526115d389608084016112e2565b608082015260a082013560a08201526115ef8960c084016112e2565b60c082015260e082810135908201526101008083013590820152610120808301359082015261014080830135908201526101609250611630898484016112e2565b838201526101809250611645898484016112e2565b838201526101a09250828201358581111561165e578788fd5b61166a8a8285016112f3565b84830152506101c0925082820135838201526101e092508282013585811115611691578788fd5b61169d8a8285016112f3565b84830152508086525050506116b5866020830161135c565b60208401526040810135828111156116cb578485fd5b6116d7878284016112f3565b6040850152509195945050505050565b6000602082840312156116f8578081fd5b813567ffffffffffffffff8082111561170f578283fd5b81840160608187031215611721578384fd5b61172b6060611c3f565b925080358281111561173b578485fd5b61016090820180880382131561174f578586fd5b61175882611c3f565b61176289836112e2565b81526020820135602082015260408201356040820152606082013560608201526080820135608082015260a082013560a08201526117a38960c084016112e2565b60c08201526117b58960e084016112e2565b60e082015261010092506117cb898484016112e2565b838201526101209250828201358382015261014092508282013585811115611691578788fd5b6001600160a01b03169052565b60008151808452815b8181101561182357602081850181015186830182015201611807565b818111156118345782602083870101525b50601f01601f19169290920160200192915050565b600081516060845261185e6060850182611896565b6020840151915061186e82611c66565b81602086015260408401519150848103604086015261188d81836117fe565b95945050505050565b600061012060018060a01b03835116845260208301516020850152604083015160408501526060830151606085015260808301516118d760808601826117f1565b5060a08301516118ea60a08601826117f1565b5060c08301516118fd60c08601826117f1565b5060e083015160e0850152610100808401518282870152611920838701826117fe565b9695505050505050565b600061020061193a8484516117f1565b60208301516020850152604083015161195660408601826117f1565b5060608301516060850152608083015161197360808601826117f1565b5060a083015160a085015260c083015161199060c08601826117f1565b5060e08381015190850152610100808401519085015261012080840151908501526101408084015190850152610160808401516119cf828701826117f1565b5050610180808401516119e4828701826117f1565b50506101a08084015182828701526119fe838701826117fe565b9150506101c0915081840151828601526101e09150818401518582038387015261192082826117fe565b6000610160611a388484516117f1565b6020830151602085015260408301516040850152606083015160608501526080830151608085015260a083015160a085015260c0830151611a7c60c08601826117f1565b5060e0830151611a8f60e08601826117f1565b5061010080840151611aa3828701826117f1565b5050610120808401518186015250610140808401518282870152611920838701826117fe565b6001600160a01b0391909116815260200190565b90815260200190565b918252602082015260400190565b60008382526040602083015261151b60408301846117fe565b60208082526026908201527f4f776e61626c653a206e6577206f776e657220697320746865207a65726f206160408201526564647265737360d01b606082015260800190565b6020808252818101527f4f776e61626c653a2063616c6c6572206973206e6f7420746865206f776e6572604082015260600190565b6000602082526114ad6020830184611849565b6000602082526114ad6020830184611896565b600060208252825160606020840152611bca608084018261192a565b60208501519150611bda82611c66565b81604085015260408501519150601f1984820301606085015261188d81836117fe565b6000602082526114ad602083018461192a565b600060208252825160606020840152611bca6080840182611a28565b6000602082526114ad6020830184611a28565b60405181810167ffffffffffffffff81118282101715611c5e57600080fd5b604052919050565b6002811061125a57fe5b6001600160a01b038116811461125a57600080fdfea26469706673582212206b409e7f8c5ae1ed6d13ce0f11e38ae57054fbf1008e817eb51db797cc89b65464736f6c634300060400338be0079c531659141344cd1fd0a4f28419497f9722a3daafe3b4186f6b6457e0",
  "source": "pragma solidity ^0.6.0;\npragma experimental ABIEncoderV2;\n\nimport \"../DelegateBase.sol\";\nimport \"../interfaces/IexecOrderManagement.sol\";\n\n\ncontract IexecOrderManagementDelegate is IexecOrderManagement, DelegateBase\n{\n\tusing IexecLibOrders_v5 for bytes32;\n\tusing IexecLibOrders_v5 for IexecLibOrders_v5.AppOrder;\n\tusing IexecLibOrders_v5 for IexecLibOrders_v5.DatasetOrder;\n\tusing IexecLibOrders_v5 for IexecLibOrders_v5.WorkerpoolOrder;\n\tusing IexecLibOrders_v5 for IexecLibOrders_v5.RequestOrder;\n\tusing IexecLibOrders_v5 for IexecLibOrders_v5.AppOrderOperation;\n\tusing IexecLibOrders_v5 for IexecLibOrders_v5.DatasetOrderOperation;\n\tusing IexecLibOrders_v5 for IexecLibOrders_v5.WorkerpoolOrderOperation;\n\tusing IexecLibOrders_v5 for IexecLibOrders_v5.RequestOrderOperation;\n\n\t/***************************************************************************\n\t *                         order management tools                          *\n\t ***************************************************************************/\n\tfunction manageAppOrder(IexecLibOrders_v5.AppOrderOperation memory _apporderoperation)\n\tpublic override\n\t{\n\t\taddress owner = App(_apporderoperation.order.app).owner();\n\t\trequire(owner == _msgSender() || owner == _apporderoperation.hash().toEthTypedStructHash(EIP712DOMAIN_SEPARATOR).recover(_apporderoperation.sign));\n\n\t\tbytes32 apporderHash = _apporderoperation.order.hash().toEthTypedStructHash(EIP712DOMAIN_SEPARATOR);\n\t\tif (_apporderoperation.operation == IexecLibOrders_v5.OrderOperationEnum.SIGN)\n\t\t{\n\t\t\tm_presigned[apporderHash] = owner;\n\t\t\temit SignedAppOrder(apporderHash);\n\t\t}\n\t\telse if (_apporderoperation.operation == IexecLibOrders_v5.OrderOperationEnum.CLOSE)\n\t\t{\n\t\t\tm_consumed[apporderHash] = _apporderoperation.order.volume;\n\t\t\temit ClosedAppOrder(apporderHash);\n\t\t}\n\t}\n\n\tfunction manageDatasetOrder(IexecLibOrders_v5.DatasetOrderOperation memory _datasetorderoperation)\n\tpublic override\n\t{\n\t\taddress owner = Dataset(_datasetorderoperation.order.dataset).owner();\n\t\trequire(owner == _msgSender() || owner == _datasetorderoperation.hash().toEthTypedStructHash(EIP712DOMAIN_SEPARATOR).recover(_datasetorderoperation.sign));\n\n\t\tbytes32 datasetorderHash = _datasetorderoperation.order.hash().toEthTypedStructHash(EIP712DOMAIN_SEPARATOR);\n\t\tif (_datasetorderoperation.operation == IexecLibOrders_v5.OrderOperationEnum.SIGN)\n\t\t{\n\t\t\tm_presigned[datasetorderHash] = owner;\n\t\t\temit SignedDatasetOrder(datasetorderHash);\n\t\t}\n\t\telse if (_datasetorderoperation.operation == IexecLibOrders_v5.OrderOperationEnum.CLOSE)\n\t\t{\n\t\t\tm_consumed[datasetorderHash] = _datasetorderoperation.order.volume;\n\t\t\temit ClosedDatasetOrder(datasetorderHash);\n\t\t}\n\t}\n\n\tfunction manageWorkerpoolOrder(IexecLibOrders_v5.WorkerpoolOrderOperation memory _workerpoolorderoperation)\n\tpublic override\n\t{\n\t\taddress owner = Workerpool(_workerpoolorderoperation.order.workerpool).owner();\n\t\trequire(owner == _msgSender() || owner == _workerpoolorderoperation.hash().toEthTypedStructHash(EIP712DOMAIN_SEPARATOR).recover(_workerpoolorderoperation.sign));\n\n\t\tbytes32 workerpoolorderHash = _workerpoolorderoperation.order.hash().toEthTypedStructHash(EIP712DOMAIN_SEPARATOR);\n\t\tif (_workerpoolorderoperation.operation == IexecLibOrders_v5.OrderOperationEnum.SIGN)\n\t\t{\n\t\t\tm_presigned[workerpoolorderHash] = owner;\n\t\t\temit SignedWorkerpoolOrder(workerpoolorderHash);\n\t\t}\n\t\telse if (_workerpoolorderoperation.operation == IexecLibOrders_v5.OrderOperationEnum.CLOSE)\n\t\t{\n\t\t\tm_consumed[workerpoolorderHash] = _workerpoolorderoperation.order.volume;\n\t\t\temit ClosedWorkerpoolOrder(workerpoolorderHash);\n\t\t}\n\t}\n\n\tfunction manageRequestOrder(IexecLibOrders_v5.RequestOrderOperation memory _requestorderoperation)\n\tpublic override\n\t{\n\t\taddress owner = _requestorderoperation.order.requester;\n\t\trequire(owner == _msgSender() || owner == _requestorderoperation.hash().toEthTypedStructHash(EIP712DOMAIN_SEPARATOR).recover(_requestorderoperation.sign));\n\n\t\tbytes32 requestorderHash = _requestorderoperation.order.hash().toEthTypedStructHash(EIP712DOMAIN_SEPARATOR);\n\t\tif (_requestorderoperation.operation == IexecLibOrders_v5.OrderOperationEnum.SIGN)\n\t\t{\n\t\t\tm_presigned[requestorderHash] = owner;\n\t\t\temit SignedRequestOrder(requestorderHash);\n\t\t}\n\t\telse if (_requestorderoperation.operation == IexecLibOrders_v5.OrderOperationEnum.CLOSE)\n\t\t{\n\t\t\tm_consumed[requestorderHash] = _requestorderoperation.order.volume;\n\t\t\temit ClosedRequestOrder(requestorderHash);\n\t\t}\n\t}\n}\n",
  "sourcePath": "/home/amxx/Work/iExec/code/PoCo-dev/contracts/modules/delegates/IexecOrderManagementDelegate.sol",
  "compiler": {
    "name": "solc",
    "version": "0.6.4+commit.1dca32f3.Emscripten.clang"
  },
  "schemaVersion": "3.0.23",
  "updatedAt": "2020-03-19T23:24:36.469Z",
  "devdoc": {
    "methods": {
      "owner()": {
        "details": "Returns the address of the current owner."
      },
      "renounceOwnership()": {
        "details": "Leaves the contract without owner. It will not be possible to call `onlyOwner` functions anymore. Can only be called by the current owner.     * NOTE: Renouncing ownership will leave the contract without an owner, thereby removing any functionality that is only available to the owner."
      },
      "transferOwnership(address)": {
        "details": "Transfers ownership of the contract to a new account (`newOwner`). Can only be called by the current owner."
      }
    }
  },
  "userdoc": {
    "methods": {
      "manageAppOrder(((address,uint256,uint256,bytes32,address,address,address,bytes32,bytes),uint8,bytes))": {
        "notice": "*************************************************************************                        order management tools                          ***************************************************************************"
      }
    }
  }
}