{
  "contractName": "IexecPoco2Delegate",
  "abi": [
    {
      "anonymous": false,
      "inputs": [
        {
          "indexed": true,
          "internalType": "address",
          "name": "worker",
          "type": "address"
        },
        {
          "indexed": true,
          "internalType": "bytes32",
          "name": "taskid",
          "type": "bytes32"
        }
      ],
      "name": "AccurateContribution",
      "type": "event"
    },
    {
      "anonymous": false,
      "inputs": [
        {
          "indexed": true,
          "internalType": "address",
          "name": "owner",
          "type": "address"
        },
        {
          "indexed": true,
          "internalType": "address",
          "name": "spender",
          "type": "address"
        },
        {
          "indexed": false,
          "internalType": "uint256",
          "name": "value",
          "type": "uint256"
        }
      ],
      "name": "Approval",
      "type": "event"
    },
    {
      "anonymous": false,
      "inputs": [
        {
          "indexed": true,
          "internalType": "address",
          "name": "worker",
          "type": "address"
        },
        {
          "indexed": true,
          "internalType": "bytes32",
          "name": "taskid",
          "type": "bytes32"
        }
      ],
      "name": "FaultyContribution",
      "type": "event"
    },
    {
      "anonymous": false,
      "inputs": [
        {
          "indexed": false,
          "internalType": "address",
          "name": "owner",
          "type": "address"
        },
        {
          "indexed": false,
          "internalType": "uint256",
          "name": "amount",
          "type": "uint256"
        }
      ],
      "name": "Lock",
      "type": "event"
    },
    {
      "anonymous": false,
      "inputs": [
        {
          "indexed": true,
          "internalType": "address",
          "name": "previousOwner",
          "type": "address"
        },
        {
          "indexed": true,
          "internalType": "address",
          "name": "newOwner",
          "type": "address"
        }
      ],
      "name": "OwnershipTransferred",
      "type": "event"
    },
    {
      "anonymous": false,
      "inputs": [
        {
          "indexed": false,
          "internalType": "address",
          "name": "owner",
          "type": "address"
        },
        {
          "indexed": false,
          "internalType": "uint256",
          "name": "amount",
          "type": "uint256"
        },
        {
          "indexed": false,
          "internalType": "bytes32",
          "name": "ref",
          "type": "bytes32"
        }
      ],
      "name": "Reward",
      "type": "event"
    },
    {
      "anonymous": false,
      "inputs": [
        {
          "indexed": false,
          "internalType": "address",
          "name": "owner",
          "type": "address"
        },
        {
          "indexed": false,
          "internalType": "uint256",
          "name": "amount",
          "type": "uint256"
        },
        {
          "indexed": false,
          "internalType": "bytes32",
          "name": "ref",
          "type": "bytes32"
        }
      ],
      "name": "Seize",
      "type": "event"
    },
    {
      "anonymous": false,
      "inputs": [
        {
          "indexed": true,
          "internalType": "bytes32",
          "name": "taskid",
          "type": "bytes32"
        }
      ],
      "name": "TaskClaimed",
      "type": "event"
    },
    {
      "anonymous": false,
      "inputs": [
        {
          "indexed": true,
          "internalType": "bytes32",
          "name": "taskid",
          "type": "bytes32"
        },
        {
          "indexed": false,
          "internalType": "bytes32",
          "name": "consensus",
          "type": "bytes32"
        }
      ],
      "name": "TaskConsensus",
      "type": "event"
    },
    {
      "anonymous": false,
      "inputs": [
        {
          "indexed": true,
          "internalType": "bytes32",
          "name": "taskid",
          "type": "bytes32"
        },
        {
          "indexed": true,
          "internalType": "address",
          "name": "worker",
          "type": "address"
        },
        {
          "indexed": false,
          "internalType": "bytes32",
          "name": "hash",
          "type": "bytes32"
        }
      ],
      "name": "TaskContribute",
      "type": "event"
    },
    {
      "anonymous": false,
      "inputs": [
        {
          "indexed": true,
          "internalType": "bytes32",
          "name": "taskid",
          "type": "bytes32"
        },
        {
          "indexed": false,
          "internalType": "bytes",
          "name": "results",
          "type": "bytes"
        }
      ],
      "name": "TaskFinalize",
      "type": "event"
    },
    {
      "anonymous": false,
      "inputs": [
        {
          "indexed": true,
          "internalType": "bytes32",
          "name": "taskid",
          "type": "bytes32"
        },
        {
          "indexed": true,
          "internalType": "address",
          "name": "workerpool",
          "type": "address"
        }
      ],
      "name": "TaskInitialize",
      "type": "event"
    },
    {
      "anonymous": false,
      "inputs": [
        {
          "indexed": true,
          "internalType": "bytes32",
          "name": "taskid",
          "type": "bytes32"
        }
      ],
      "name": "TaskReopen",
      "type": "event"
    },
    {
      "anonymous": false,
      "inputs": [
        {
          "indexed": true,
          "internalType": "bytes32",
          "name": "taskid",
          "type": "bytes32"
        },
        {
          "indexed": true,
          "internalType": "address",
          "name": "worker",
          "type": "address"
        },
        {
          "indexed": false,
          "internalType": "bytes32",
          "name": "digest",
          "type": "bytes32"
        }
      ],
      "name": "TaskReveal",
      "type": "event"
    },
    {
      "anonymous": false,
      "inputs": [
        {
          "indexed": true,
          "internalType": "address",
          "name": "from",
          "type": "address"
        },
        {
          "indexed": true,
          "internalType": "address",
          "name": "to",
          "type": "address"
        },
        {
          "indexed": false,
          "internalType": "uint256",
          "name": "value",
          "type": "uint256"
        }
      ],
      "name": "Transfer",
      "type": "event"
    },
    {
      "anonymous": false,
      "inputs": [
        {
          "indexed": false,
          "internalType": "address",
          "name": "owner",
          "type": "address"
        },
        {
          "indexed": false,
          "internalType": "uint256",
          "name": "amount",
          "type": "uint256"
        }
      ],
      "name": "Unlock",
      "type": "event"
    },
    {
      "inputs": [],
      "name": "owner",
      "outputs": [
        {
          "internalType": "address",
          "name": "",
          "type": "address"
        }
      ],
      "stateMutability": "view",
      "type": "function"
    },
    {
      "inputs": [],
      "name": "renounceOwnership",
      "outputs": [],
      "stateMutability": "nonpayable",
      "type": "function"
    },
    {
      "inputs": [
        {
          "internalType": "address",
          "name": "newOwner",
          "type": "address"
        }
      ],
      "name": "transferOwnership",
      "outputs": [],
      "stateMutability": "nonpayable",
      "type": "function"
    },
    {
      "inputs": [
        {
          "internalType": "bytes32",
          "name": "_dealid",
          "type": "bytes32"
        },
        {
          "internalType": "uint256",
          "name": "idx",
          "type": "uint256"
        }
      ],
      "name": "initialize",
      "outputs": [
        {
          "internalType": "bytes32",
          "name": "",
          "type": "bytes32"
        }
      ],
      "stateMutability": "nonpayable",
      "type": "function"
    },
    {
      "inputs": [
        {
          "internalType": "bytes32",
          "name": "_taskid",
          "type": "bytes32"
        },
        {
          "internalType": "bytes32",
          "name": "_resultHash",
          "type": "bytes32"
        },
        {
          "internalType": "bytes32",
          "name": "_resultSeal",
          "type": "bytes32"
        },
        {
          "internalType": "address",
          "name": "_enclaveChallenge",
          "type": "address"
        },
        {
          "internalType": "bytes",
          "name": "_enclaveSign",
          "type": "bytes"
        },
        {
          "internalType": "bytes",
          "name": "_authorizationSign",
          "type": "bytes"
        }
      ],
      "name": "contribute",
      "outputs": [],
      "stateMutability": "nonpayable",
      "type": "function"
    },
    {
      "inputs": [
        {
          "internalType": "bytes32",
          "name": "_taskid",
          "type": "bytes32"
        },
        {
          "internalType": "bytes32",
          "name": "_resultDigest",
          "type": "bytes32"
        },
        {
          "internalType": "bytes",
          "name": "_results",
          "type": "bytes"
        },
        {
          "internalType": "bytes",
          "name": "_resultsCallback",
          "type": "bytes"
        },
        {
          "internalType": "address",
          "name": "_enclaveChallenge",
          "type": "address"
        },
        {
          "internalType": "bytes",
          "name": "_enclaveSign",
          "type": "bytes"
        },
        {
          "internalType": "bytes",
          "name": "_authorizationSign",
          "type": "bytes"
        }
      ],
      "name": "contributeAndFinalize",
      "outputs": [],
      "stateMutability": "nonpayable",
      "type": "function"
    },
    {
      "inputs": [
        {
          "internalType": "bytes32",
          "name": "_taskid",
          "type": "bytes32"
        },
        {
          "internalType": "bytes32",
          "name": "_resultDigest",
          "type": "bytes32"
        }
      ],
      "name": "reveal",
      "outputs": [],
      "stateMutability": "nonpayable",
      "type": "function"
    },
    {
      "inputs": [
        {
          "internalType": "bytes32",
          "name": "_taskid",
          "type": "bytes32"
        }
      ],
      "name": "reopen",
      "outputs": [],
      "stateMutability": "nonpayable",
      "type": "function"
    },
    {
      "inputs": [
        {
          "internalType": "bytes32",
          "name": "_taskid",
          "type": "bytes32"
        },
        {
          "internalType": "bytes",
          "name": "_results",
          "type": "bytes"
        },
        {
          "internalType": "bytes",
          "name": "_resultsCallback",
          "type": "bytes"
        }
      ],
      "name": "finalize",
      "outputs": [],
      "stateMutability": "nonpayable",
      "type": "function"
    },
    {
      "inputs": [
        {
          "internalType": "bytes32",
          "name": "_taskid",
          "type": "bytes32"
        }
      ],
      "name": "claim",
      "outputs": [],
      "stateMutability": "nonpayable",
      "type": "function"
    },
    {
      "inputs": [
        {
          "internalType": "bytes32[]",
          "name": "_dealid",
          "type": "bytes32[]"
        },
        {
          "internalType": "uint256[]",
          "name": "_idx",
          "type": "uint256[]"
        }
      ],
      "name": "initializeArray",
      "outputs": [
        {
          "internalType": "bool",
          "name": "",
          "type": "bool"
        }
      ],
      "stateMutability": "nonpayable",
      "type": "function"
    },
    {
      "inputs": [
        {
          "internalType": "bytes32[]",
          "name": "_taskid",
          "type": "bytes32[]"
        }
      ],
      "name": "claimArray",
      "outputs": [
        {
          "internalType": "bool",
          "name": "",
          "type": "bool"
        }
      ],
      "stateMutability": "nonpayable",
      "type": "function"
    },
    {
      "inputs": [
        {
          "internalType": "bytes32[]",
          "name": "_dealid",
          "type": "bytes32[]"
        },
        {
          "internalType": "uint256[]",
          "name": "_idx",
          "type": "uint256[]"
        }
      ],
      "name": "initializeAndClaimArray",
      "outputs": [
        {
          "internalType": "bool",
          "name": "",
          "type": "bool"
        }
      ],
      "stateMutability": "nonpayable",
      "type": "function"
    }
  ],
  "bytecode": "0x60806040523480156200001157600080fd5b5060006200001e62000067565b600080546001600160a01b0319166001600160a01b03831690811782556040519293509160008051602062003fde833981519152908290a350620000616200006b565b6200011c565b3390565b6200007562000067565b6000546001600160a01b03908116911614620000ae5760405162461bcd60e51b8152600401620000a590620000e7565b60405180910390fd5b600080546040516001600160a01b039091169060008051602062003fde833981519152908390a3600080546001600160a01b0319169055565b6020808252818101527f4f776e61626c653a2063616c6c6572206973206e6f7420746865206f776e6572604082015260600190565b613eb2806200012c6000396000f3fe608060405234801561001057600080fd5b50600436106100cf5760003560e01c8063b504681d1161008c578063f6c68e1011610066578063f6c68e101461019b578063f722cb32146101ae578063fa055d7e146101c1578063fc334e8c146101d4576100cf565b8063b504681d14610155578063bd66528a14610175578063f2fde38b14610188576100cf565b806334623484146100d45780635b36c66b146100e95780635facd76114610112578063715018a6146101255780638da5cb5b1461012d5780638fc375e514610142575b600080fd5b6100e76100e23660046138e8565b6101e7565b005b6100fc6100f73660046138c7565b6106f4565b6040516101099190613c35565b60405180910390f35b6100e7610120366004613982565b610a1a565b6100e761100a565b610135611092565b6040516101099190613bdc565b6100e7610150366004613a4f565b6110a1565b610168610163366004613846565b61141c565b6040516101099190613c2a565b6100e76101833660046138af565b611478565b6100e76101963660046137eb565b611568565b6100e76101a93660046138af565b61161e565b6101686101bc366004613846565b6117f2565b6101686101cf366004613806565b611838565b6100e76101e23660046138c7565b611871565b6101f76101f26119fb565b6119ff565b61020057600080fd5b600086815260146020908152604080832060169092528220909190816102246119fb565b6001600160a01b03166001600160a01b03168152602001908152602001600020905061024e613486565b60018381015460009081526013602090815260409182902082516102408101845281546001600160a01b039081166101e0830190815283870154821661020084015260028085015461022085015290835285516060808201885260038601548416825260048601548416828801526005860154828901528487019190915286518082018852600686015484168152600786015484168188015260088601548189015284880152600985015490840152600a8401546080840152600b84015460a0840152600c840154821660c0840152600d840154821660e0840152600e84015490911661010080840191909152600f840180548751988116159092026000190190911691909104601f8101859004850287018501909552848652909491936101208601938301828280156103c35780601f10610398576101008083540402835291602001916103c3565b820191906000526020600020905b8154815290600101906020018083116103a657829003601f168201915b50505091835250506010820154602082015260118201546040820152601282015460608201526013820154608082015260149091015460a09091015290506001835460ff16600481111561041357fe5b1461041d57600080fd5b4283600401541161042d57600080fd5b6000825460ff16600381111561043f57fe5b1461044957600080fd5b6001600160a01b03861615158061046e575060a0810151601f1a60f81b600160f81b16155b61047757600080fd5b6104fb6001600160a01b0387161580159061049c57506018546001600160a01b031615155b6104ae578160400151602001516104bb565b6018546001600160a01b03165b6104f56104c66119fb565b8c8a6040516020016104da93929190613b1a565b60405160208183030381529060405280519060200120611a05565b86611a2e565b61050457600080fd5b6001600160a01b038616158061053557506105358661052f8a8a6040516020016104da929190613b71565b87611a2e565b61053e57600080fd5b8154600160ff19909116811783558201889055600282018790556003820180546001600160a01b0319166001600160a01b038816179055600a83016105816119fb565b815460018082018455600093845260209093200180546001600160a01b0319166001600160a01b03929092169190911790558301546105c7906105c26119fb565b611c0f565b6105cf6119fb565b6001600160a01b0316897f3fdb8d7797562d49a81078dbf7fa1771958ea452f8b13d1148383bd9506aecfb8a6040516106089190613c35565b60405180910390a3600089815260156020526040812090610664600161065e6003610658816017876106386119fb565b6001600160a01b0316815260208101919091526040016000205490611c33565b90611c55565b90611c6c565b60008b81526020849052604081205491925061068f8261065e85610689836001611c55565b90611c81565b905061069a83611ca8565b600487015560008c8152602085905260409020546106b89082611e66565b60008d81526020869052604090205560018401546106d69082611e66565b60018501556106e58d8d611e78565b50505050505050505050505050565b60006106fe613486565b60008481526013602090815260409182902082516102408101845281546001600160a01b039081166101e08301908152600180850154831661020085015260028086015461022086015291845286516060808201895260038701548516825260048701548516828901526005870154828a0152858801919091528751808201895260068701548516815260078701548516818901526008870154818a015285890152600986015490850152600a8501546080850152600b85015460a0850152600c850154831660c0850152600d850154831660e0850152600e85015490921661010080850191909152600f850180548851948116159092026000190190911691909104601f810186900486028301860190965285825291949293610120860193919291908301828280156108735780601f1061084857610100808354040283529160200191610873565b820191906000526020600020905b81548152906001019060200180831161085657829003601f168201915b505050505081526020016010820154815260200160118201548152602001601282015481526020016013820154815260200160148201548152505090508061016001518310156108c257600080fd5b6101808101516101608201516108d791611e66565b83106108e257600080fd5b600084846040516020016108f7929190613b71565b60408051601f1981840301815291815281516020928301206000818152601490935290822090925090815460ff16600481111561093057fe5b1461093a57600080fd5b805460ff1916600190811782558101869055600281018590556080830151601a8054909190811061096757fe5b600091825260209091206003918202016002015490820181905561014084015161099c91610996906007611c81565b90611e66565b600482015561014083015160038201546109bc919061099690600a611c81565b6006820155600082815260156020526040808220600190810155848101515190516001600160a01b039091169184917f252992fb0468d68d6a5784ec03214f0d0a362083f2d7ebd157af43b017a22e069190a3509150505b92915050565b610a256101f26119fb565b610a2e57600080fd5b60008781526014602090815260408083206016909252822090919081610a526119fb565b6001600160a01b03166001600160a01b031681526020019081526020016000209050610a7c613486565b60018381015460009081526013602090815260409182902082516102408101845281546001600160a01b039081166101e0830190815283870154821661020084015260028085015461022085015290835285516060808201885260038601548416825260048601548416828801526005860154828901528487019190915286518082018852600686015484168152600786015484168188015260088601548189015284880152600985015490840152600a8401546080840152600b84015460a0840152600c840154821660c0840152600d840154821660e0840152600e84015490911661010080840191909152600f840180548751988116159092026000190190911691909104601f810185900485028701850190955284865290949193610120860193830182828015610bf15780601f10610bc657610100808354040283529160200191610bf1565b820191906000526020600020905b815481529060010190602001808311610bd457829003601f168201915b50505091835250506010820154602082015260118201546040820152601282015460608201526013820154608082015260149091015460a09091015290506001835460ff166004811115610c4157fe5b14610c4b57600080fd5b42836004015411610c5b57600080fd5b600a83015415610c6a57600080fd5b8060600151600114610c7b57600080fd5b60008a8a604051602001610c90929190613b71565b6040516020818303038152906040528051906020012090506000610cb26119fb565b8c8c604051602001610cc693929190613b47565b60405160208183030381529060405280519060200120905060006001600160a01b03168361010001516001600160a01b0316148015610d0457508851155b80610d185750600b850154895160208b0120145b610d2157600080fd5b6001600160a01b038816151580610d46575060a0830151601f1a60f81b600160f81b16155b610d4f57600080fd5b610db86001600160a01b03891615801590610d7457506018546001600160a01b031615155b610d8657836040015160200151610d93565b6018546001600160a01b03165b610db2610d9e6119fb565b8f8c6040516020016104da93929190613b1a565b88611a2e565b610dc157600080fd5b6001600160a01b0388161580610df25750610df288610dec84846040516020016104da929190613b71565b89611a2e565b610dfb57600080fd5b8354600260ff199182168117865560018601848155818701849055600380880180546001600160a01b0319166001600160a01b038e1617905588549093168317885554600788015590860154610e5691429161099691611c81565b60058601556001600886018190556009860155600b85018b90558951610e8590600c87019060208d019061352c565b508851610e9b90600e87019060208c019061352c565b5084600a01610ea86119fb565b815460018082018455600093845260209093200180546001600160a01b0319166001600160a01b0392909216919091179055850154610ee7908d61200f565b610ef08c612196565b610ef86119fb565b6001600160a01b03168c7f3fdb8d7797562d49a81078dbf7fa1771958ea452f8b13d1148383bd9506aecfb84604051610f319190613c35565b60405180910390a38b7ff6d49bf3e05d33a4bc497d3c793fb5756388bb96b947cf51bb60aaecb0e022e383604051610f699190613c35565b60405180910390a2610f796119fb565b6001600160a01b03168c7f4b1763d473ac8fa80b4432ba90047e1b92444d8fabc55e6a002d9b1a316d79598d604051610fb29190613c35565b60405180910390a38b7f78ce8a8bc0fcb704e8ba3b3dbb36aa88002df8038128b4af2f27ef65db6650448b604051610fea9190613ca4565b60405180910390a2610ffc8c8a6125fd565b505050505050505050505050565b6110126119fb565b6000546001600160a01b039081169116146110485760405162461bcd60e51b815260040161103f90613d9b565b60405180910390fd5b600080546040516001600160a01b03909116907f8be0079c531659141344cd1fd0a4f28419497f9722a3daafe3b4186f6b6457e0908390a3600080546001600160a01b0319169055565b6000546001600160a01b031690565b6000858152601460209081526040808320600101548352601390915290206007015485906001600160a01b03166110d66119fb565b6001600160a01b0316146110e957600080fd5b60008681526014602052604090206110ff613486565b60018281015460009081526013602090815260409182902082516102408101845281546001600160a01b039081166101e0830190815283870154821661020084015260028085015461022085015290835285516060808201885260038601548416825260048601548416828801526005860154828901528487019190915286518082018852600686015484168152600786015484168188015260088601548189015284880152600985015490840152600a8401546080840152600b84015460a0840152600c840154821660c0840152600d840154821660e0840152600e84015490911661010080840191909152600f840180548751988116159092026000190190911691909104601f8101859004850287018501909552848652909491936101208601938301828280156112745780601f1061124957610100808354040283529160200191611274565b820191906000526020600020905b81548152906001019060200180831161125757829003601f168201915b50505091835250506010820154602082015260118201546040820152601282015460608201526013820154608082015260149091015460a09091015290506002825460ff1660048111156112c457fe5b146112ce57600080fd5b428260060154116112de57600080fd5b816009015482600801541480611307575060008260080154118015611307575042826005015411155b61131057600080fd5b6101008101516001600160a01b031615801561132a575083155b8061134f575081600b01548585604051611345929190613b7f565b6040518091039020145b61135857600080fd5b815460ff19166003178255611371600c830188886135aa565b50611380600e830186866135aa565b5061138f82600101548961200f565b611398886126e9565b877f78ce8a8bc0fcb704e8ba3b3dbb36aa88002df8038128b4af2f27ef65db66504488886040516113ca929190613c75565b60405180910390a26114128886868080601f0160208091040260200160405190810160405280939291908181526020018383808284376000920191909152506125fd92505050565b5050505050505050565b600083821461142a57600080fd5b60005b8481101561146c5761146386868381811061144457fe5b9050602002013585858481811061145757fe5b905060200201356106f4565b5060010161142d565b50600195945050505050565b60008181526014602052604090206001815460ff16600481111561149857fe5b14806114b357506002815460ff1660048111156114b157fe5b145b6114bc57600080fd5b42816006015411156114cd57600080fd5b805460ff1916600417815560018101546114e79083612d72565b60005b600a82015481101561153857600082600a01828154811061150757fe5b60009182526020909120015460018401546001600160a01b03909116915061152f9082612fdd565b506001016114ea565b5060405182907fcbc308b5f91040d2659a5201858344b0b583cd2f9e18e8470c2fa052c5b21ff890600090a25050565b6115706119fb565b6000546001600160a01b0390811691161461159d5760405162461bcd60e51b815260040161103f90613d9b565b6001600160a01b0381166115c35760405162461bcd60e51b815260040161103f90613d28565b600080546040516001600160a01b03808516939216917f8be0079c531659141344cd1fd0a4f28419497f9722a3daafe3b4186f6b6457e091a3600080546001600160a01b0319166001600160a01b0392909216919091179055565b6000818152601460209081526040808320600101548352601390915290206007015481906001600160a01b03166116536119fb565b6001600160a01b03161461166657600080fd5b60008281526014602052604090206002815460ff16600481111561168657fe5b1461169057600080fd5b428160060154116116a057600080fd5b428160050154111580156116b657506008810154155b6116bf57600080fd5b60005b600a82015481101561175857600082600a0182815481106116df57fe5b600091825260208083209091015460078601548884526016835260408085206001600160a01b03909316808652929093529190922060010154919250141561174f5760008581526016602090815260408083206001600160a01b03851684529091529020805460ff191660031790555b506001016116c2565b506000838152601560209081526040808320600785015484529182905290912054600182015461178791611c6c565b600182810191909155600783018054600090815260208490526040808220829055855460ff19169093178555908190556005840181905560098401819055905185917f3afe0f24796ce653c6ab1f3e7aba5ce564eece5e82aee724aff28253e829f07b91a250505050565b600083821461180057600080fd5b60005b8481101561146c5761183061018387878481811061181d57fe5b9050602002013586868581811061145757fe5b600101611803565b6000805b828110156118675761185f84848381811061185357fe5b90506020020135611478565b60010161183c565b5060019392505050565b600082815260146020908152604080832060169092528220909190816118956119fb565b6001600160a01b03168152602081019190915260400160002090506002825460ff1660048111156118c257fe5b146118cc57600080fd5b428260050154116118dc57600080fd5b6001815460ff1660038111156118ee57fe5b146118f857600080fd5b816007015481600101541461190c57600080fd5b838360405160200161191f929190613b71565b6040516020818303038152906040528051906020012081600101541461194457600080fd5b61194c6119fb565b848460405160200161196093929190613b47565b6040516020818303038152906040528051906020012081600201541461198557600080fd5b805460ff1916600217815560088201546119a0906001611e66565b6008830155600b82018390556119b46119fb565b6001600160a01b0316847f4b1763d473ac8fa80b4432ba90047e1b92444d8fabc55e6a002d9b1a316d7959856040516119ed9190613c35565b60405180910390a350505050565b3390565b50600190565b606081604051602001611a189190613bab565b6040516020818303038152906040529050919050565b6000611a3984612ffd565b15611be0576040516320c13b0b60e01b81526001600160a01b038516906320c13b0b90611a6c9086908690600401613cb7565b60206040518083038186803b158015611a8457600080fd5b505afa925050508015611ab4575060408051601f3d908101601f19168201909252611ab191810190613ac6565b60015b611aee573d808015611ae2576040519150601f19603f3d011682016040523d82523d6000602084013e611ae7565b606091505b5050611b08565b6001600160e01b0319166320c13b0b60e01b149050611c08565b82516020840120604051630b135d3f60e11b81526001600160a01b03861691631626ba7e91611b3c91908690600401613c3e565b60206040518083038186803b158015611b5457600080fd5b505afa925050508015611b84575060408051601f3d908101601f19168201909252611b8191810190613ac6565b60015b611bbe573d808015611bb2576040519150601f19603f3d011682016040523d82523d6000602084013e611bb7565b606091505b5050611bd8565b6001600160e01b031916630b135d3f60e11b149050611c08565b506000611c08565b836001600160a01b0316611bfb848051906020012084613039565b6001600160a01b03161490505b9392505050565b611c2f816013600085815260200190815260200160002060130154613143565b5050565b6000808211611c4157600080fd5b6000828481611c4c57fe5b04949350505050565b600081831015611c655781611c08565b5090919050565b600082821115611c7b57600080fd5b50900390565b600082611c9057506000610a14565b82820282848281611c9d57fe5b0414611c0857600080fd5b604080517ff8f9cbfae6cc78fbefe7cdc3a1793dfcf4f0e8bbd8cec470b6a28a7a5a3e1efd81527ff5ecf1b3e9debc68e1d9cfabc5997135bfb7a7a3938b7b606b5b4b3f2f1f0ffe60208201527ff6e4ed9ff2d6b458eadcdf97bd91692de2d4da8fd2d0ac50c6ae9a8272523616818301527fc8c0b887b0a8a4489c948c7f847c6125746c645c544c444038302820181008ff60608201527ff7cae577eec2a03cf3bad76fb589591debb2dd67e0aa9834bea6925f6a4a2e0e60808201527fe39ed557db96902cd38ed14fad815115c786af479b7e8324736353433727170760a08201527fc976c13bb96e881cb166a933a55e490d9d56952b8d4e801485467d236242260660c08201527f753a6d1b65325d0c552a4d1345224105391a310b29122104190a11030902010060e0820152610100808201909252600160f81b6001600160801b68010000000000000000640100000000620100006010600460026000198c019081041790810417908104178881041790810417908104179081041790810417017e818283848586878898a8b8c8d8e8f929395969799a9b9d9e9faaeb6bedeeff0281900460ff039091015104600160ff1b909211020190565b600082820183811015611c0857600080fd5b6000828152601460209081526040808320601583528184206001808301548652601390945291909320600901549091611ec190611eb6908390611c6c565b600184015490611c81565b600085815260208490526040902054611eda9083611c81565b1115612008576000805b600a850154811015611f9057600085600a018281548110611f0157fe5b60009182526020808320909101548a83526016825260408084206001600160a01b039092168085529190925291206001015490915087148015611f745750600160008981526016602090815260408083206001600160a01b038616845290915290205460ff166003811115611f7257fe5b145b15611f8757611f84836001611e66565b92505b50600101611ee4565b50835460ff191660029081178555600785018690556003850154611fb991429161099691611c81565b6005850155600060088501556009840181905560405186907ff6d49bf3e05d33a4bc497d3c793fb5756388bb96b947cf51bb60aaecb0e022e390611ffe908890613c35565b60405180910390a2505b5050505050565b600082815260136020526040812060088101546005820154600283015492939261203e92916109969190611e66565b600883015490915060009061205490601e6131cb565b600c840154909150612070906001600160a01b031683866131d9565b6002830154156120985760018301546002840154612098916001600160a01b03169086613259565b6005830154158015906120b7575060038301546001600160a01b031615155b156120da57600483015460058401546120da916001600160a01b03169086613259565b60078301546120f2906001600160a01b031682613297565b7399c2268479b93fde36232351229815df80837e23600052600e6020527f0c6541af8a90dc64ec40ead0c49d5d6bd34489a48d08db53d659372ff556a43054801561218e576121548161214e633b9aca0061065883600a6131cb565b90613313565b90506121757399c2268479b93fde36232351229815df80837e2382876131d9565b600784015461218e906001600160a01b03168287613259565b505050505050565b61219e613618565b6000828152601460205260409081902081516101e081019092528054829060ff1660048111156121ca57fe5b60048111156121d557fe5b8152602001600182015481526020016002820154815260200160038201548152602001600482015481526020016005820154815260200160068201548152602001600782015481526020016008820154815260200160098201548152602001600a820180548060200260200160405190810160405280929190818152602001828054801561228c57602002820191906000526020600020905b81546001600160a01b0316815260019091019060200180831161226e575b5050509183525050600b820154602080830191909152600c8301805460408051601f6002600019610100600187161502019094169390930492830185900485028101850182528281529401939283018282801561232a5780601f106122ff5761010080835404028352916020019161232a565b820191906000526020600020905b81548152906001019060200180831161230d57829003601f168201915b5050509183525050600d820154602080830191909152600e8301805460408051601f600260001961010060018716150201909416939093049283018590048502810185018252828152940193928301828280156123c85780601f1061239d576101008083540402835291602001916123c8565b820191906000526020600020905b8154815290600101906020018083116123ab57829003601f168201915b50505050508152505090506123db613486565b60208281015160009081526013825260409081902081516102408101835281546001600160a01b039081166101e08301908152600180850154831661020085015260028086015461022086015291845285516060808201885260038701548516825260048701548516828a0152600587015482890152858901919091528651808201885260068701548516815260078701548516818a015260088701548189015285880152600986015490850152600a8501546080850152600b85015460a0850152600c850154831660c0850152600d850154831660e0850152600e85015490921661010080850191909152600f850180548751948116159092026000190190911691909104601f8101879004870283018701909552848252919492936101208601939192918301828280156125525780601f1061252757610100808354040283529160200191612552565b820191906000526020600020905b81548152906001019060200180831161253557829003601f168201915b5050505050815260200160108201548152602001601182015481526020016012820154815260200160138201548152602001601482015481525050905060006125bb6125ad836101c001516064611c6c90919063ffffffff16565b6040808501510151906131cb565b905060006125da82846040015160400151611c6c90919063ffffffff16565b90506125ee6125e76119fb565b8387613322565b6120088460200151828761332d565b600082815260146020908152604080832060010154835260139091529020600e01546001600160a01b031680156126e45760006060826001600160a01b03166019548686604051602401612652929190613c3e565b60408051601f198184030181529181526020820180516001600160e01b0316635dd8085560e01b179052516126879190613b8f565b60006040518083038160008787f1925050503d80600081146126c5576040519150601f19603f3d011682016040523d82523d6000602084013e6126ca565b606091505b5091509150603f601954816126db57fe5b045a1161200857fe5b505050565b6126f1613618565b6000828152601460205260409081902081516101e081019092528054829060ff16600481111561271d57fe5b600481111561272857fe5b8152602001600182015481526020016002820154815260200160038201548152602001600482015481526020016005820154815260200160068201548152602001600782015481526020016008820154815260200160098201548152602001600a82018054806020026020016040519081016040528092919081815260200182805480156127df57602002820191906000526020600020905b81546001600160a01b031681526001909101906020018083116127c1575b5050509183525050600b820154602080830191909152600c8301805460408051601f6002600019610100600187161502019094169390930492830185900485028101850182528281529401939283018282801561287d5780601f106128525761010080835404028352916020019161287d565b820191906000526020600020905b81548152906001019060200180831161286057829003601f168201915b5050509183525050600d820154602080830191909152600e8301805460408051601f6002600019610100600187161502019094169390930492830185900485028101850182528281529401939283018282801561291b5780601f106128f05761010080835404028352916020019161291b565b820191906000526020600020905b8154815290600101906020018083116128fe57829003601f168201915b505050505081525050905061292e613486565b60208281015160009081526013825260409081902081516102408101835281546001600160a01b039081166101e08301908152600180850154831661020085015260028086015461022086015291845285516060808201885260038701548516825260048701548516828a0152600587015482890152858901919091528651808201885260068701548516815260078701548516818a015260088701548189015285880152600986015490850152600a8501546080850152600b85015460a0850152600c850154831660c0850152600d850154831660e0850152600e85015490921661010080850191909152600f850180548751948116159092026000190190911691909104601f810187900487028301870190955284825291949293610120860193919291830182828015612aa55780601f10612a7a57610100808354040283529160200191612aa5565b820191906000526020600020905b815481529060010190602001808311612a8857829003601f168201915b50505050508152602001601082015481526020016011820154815260200160128201548152602001601382015481526020016014820154815250509050600080826040015160400151905060005b84610140015151811015612b915760008561014001518281518110612b1457fe5b60209081029190910181015160008981526016835260408082206001600160a01b0384168352909352919091209091506002815460ff166003811115612b5657fe5b1415612b73576004810154612b6c908690611e66565b9450612b87565b6101a0860151612b84908590611e66565b93505b5050600101612af3565b506000612bb7612bb0856101c001516064611c6c90919063ffffffff16565b83906131cb565b905060005b85610140015151811015612d625760008661014001518281518110612bdd57fe5b60209081029190910181015160008a81526016835260408082206001600160a01b0384168352909352919091209091506002815460ff166003811115612c1f57fe5b1415612cde576004810154600090612c3990869089613353565b9050612c458682611c6c565b9550612c55896020015184612fdd565b612c6083828c613322565b6001896101400151511115612cd8576001600160a01b038316600090815260176020526040902054612c93906001611e66565b6001600160a01b0384166000818152601760205260408082209390935591518c927f9703f4589802246c80b822e63697180da799e363cd1b6fd9465a5e5574d5349291a35b50612d58565b612ced8860200151838b613368565b6001600160a01b038216600090815260176020526040902054612d139060026003613353565b6001600160a01b0383166000818152601760205260408082209390935591518b927ff868788948d55240774fdbad06555105ef20bbc70d1b7eccda982b65e11e79bb91a35b5050600101612bbc565b5061218e8560200151838861332d565b612d7a613486565b60008381526013602090815260409182902082516102408101845281546001600160a01b039081166101e08301908152600180850154831661020085015260028086015461022086015291845286516060808201895260038701548516825260048701548516828901526005870154828a0152858801919091528751808201895260068701548516815260078701548516818901526008870154818a015285890152600986015490850152600a8501546080850152600b85015460a0850152600c850154831660c0850152600d850154831660e0850152600e85015490921661010080850191909152600f850180548851948116159092026000190190911691909104601f81018690048602830186019096528582529194929361012086019391929190830182828015612eef5780601f10612ec457610100808354040283529160200191612eef565b820191906000526020600020905b815481529060010190602001808311612ed257829003601f168201915b505050505081526020016010820154815260200160118201548152602001601282015481526020016013820154815260200160148201548152505090506000612f5d826040015160400151610996846020015160400151856000015160400151611e6690919063ffffffff16565b90506000612f7d601e8460400151604001516131cb90919063ffffffff16565b9050612f8d8360c0015183613297565b612fa083604001516020015182866131d9565b612fbf7399c2268479b93fde36232351229815df80837e238286613259565b6120087399c2268479b93fde36232351229815df80837e2382613143565b611c2f816013600085815260200190815260200160002060130154613297565b6000813f7fc5d2460186f7233c927e7db2dcc703c0e500b653ca82273b7bfad8045d85a47081811480159061303157508115155b949350505050565b6000806000808451604114156130635750505060208201516040830151606084015160001a6130a8565b84516040141561309057505050602082015160408301516001600160ff1b0381169060001a60071c6130a8565b60405162461bcd60e51b815260040161103f90613e15565b601b8160ff1610156130b857601b015b8060ff16601b14806130cd57508060ff16601c145b6130e95760405162461bcd60e51b815260040161103f90613d6e565b6001868285856040516000815260200160405260405161310c9493929190613c57565b6020604051602081039080840390855afa15801561312e573d6000803e3d6000fd5b5050604051601f190151979650505050505050565b61314e823083613389565b6001600160a01b0382166000908152600e60205260409020546131719082611e66565b6001600160a01b0383166000908152600e60205260409081902091909155517f625fed9875dada8643f2418b838ae0bc78d9a148a18eee4ee1979ff0f3f5d427906131bf9084908490613bf0565b60405180910390a15050565b6000611c0883836064613353565b6001600160a01b0383166000908152600e60205260409020546131fc9083611c6c565b6001600160a01b0384166000908152600e60205260409081902091909155517f1bccc549c38561cd5b57f0db11ceb8dde1b0b6ee05ab5e155b51c7c5ba64becb9061324c90859085908590613c09565b60405180910390a1505050565b613264308484613389565b7fc2aca55aa696938c7e95842e8939ca0fbb2120a3eeb8948cdcee2b70da56667283838360405161324c93929190613c09565b6132a2308383613389565b6001600160a01b0382166000908152600e60205260409020546132c59082611c6c565b6001600160a01b0383166000908152600e60205260409081902091909155517f6381d9813cabeb57471b5a7e05078e64845ccdb563146a6911d536f24ce960f1906131bf9084908490613bf0565b6000818310611c655781611c08565b6126e4838383613259565b6000838152601360205260409020600701546126e4906001600160a01b03168383613259565b60006130316133628585611c81565b83611c33565b6126e4826013600086815260200190815260200160002060130154836131d9565b6001600160a01b0383166133af5760405162461bcd60e51b815260040161103f90613dd0565b6001600160a01b0382166133d55760405162461bcd60e51b815260040161103f90613ce5565b6001600160a01b0383166000908152600d60205260409020546133f89082611c6c565b6001600160a01b038085166000908152600d602052604080822093909355908416815220546134279082611e66565b6001600160a01b038084166000818152600d602052604090819020939093559151908516907fddf252ad1be2c89b69c2b068fc378daa952ba7f163c4a11628f55a4df523b3ef90613479908590613c35565b60405180910390a3505050565b604051806101e0016040528061349a613698565b81526020016134a7613698565b81526020016134b4613698565b815260200160008152602001600081526020016000801916815260200160006001600160a01b0316815260200160006001600160a01b0316815260200160006001600160a01b031681526020016060815260200160008152602001600081526020016000815260200160008152602001600081525090565b828054600181600116156101000203166002900490600052602060002090601f016020900481019282601f1061356d57805160ff191683800117855561359a565b8280016001018555821561359a579182015b8281111561359a57825182559160200191906001019061357f565b506135a69291506136b8565b5090565b828054600181600116156101000203166002900490600052602060002090601f016020900481019282601f106135eb5782800160ff1982351617855561359a565b8280016001018555821561359a579182015b8281111561359a5782358255916020019190600101906135fd565b604080516101e08101909152806000815260200160008019168152602001600081526020016000815260200160008152602001600081526020016000815260200160008019168152602001600081526020016000815260200160608152602001600080191681526020016060815260200160008152602001606081525090565b604080516060810182526000808252602082018190529181019190915290565b5b808211156135a657600081556001016136b9565b80356001600160a01b0381168114610a1457600080fd5b60008083601f8401126136f5578182fd5b50813567ffffffffffffffff81111561370c578182fd5b602083019150836020808302850101111561372657600080fd5b9250929050565b60008083601f84011261373e578182fd5b50813567ffffffffffffffff811115613755578182fd5b60208301915083602082850101111561372657600080fd5b600082601f83011261377d578081fd5b813567ffffffffffffffff80821115613794578283fd5b604051601f8301601f1916810160200182811182821017156137b4578485fd5b6040528281529250828483016020018610156137cf57600080fd5b8260208601602083013760006020848301015250505092915050565b6000602082840312156137fc578081fd5b611c0883836136cd565b60008060208385031215613818578081fd5b823567ffffffffffffffff81111561382e578182fd5b61383a858286016136e4565b90969095509350505050565b6000806000806040858703121561385b578182fd5b843567ffffffffffffffff80821115613872578384fd5b61387e888389016136e4565b90965094506020870135915080821115613896578384fd5b506138a3878288016136e4565b95989497509550505050565b6000602082840312156138c0578081fd5b5035919050565b600080604083850312156138d9578182fd5b50508035926020909101359150565b60008060008060008060c08789031215613900578182fd5b86359550602087013594506040870135935060608701356001600160a01b038116811461392b578283fd5b9250608087013567ffffffffffffffff80821115613947578384fd5b6139538a838b0161376d565b935060a0890135915080821115613968578283fd5b5061397589828a0161376d565b9150509295509295509295565b600080600080600080600060e0888a03121561399c578081fd5b8735965060208801359550604088013567ffffffffffffffff808211156139c1578283fd5b6139cd8b838c0161376d565b965060608a01359150808211156139e2578283fd5b6139ee8b838c0161376d565b95506139fd8b60808c016136cd565b945060a08a0135915080821115613a12578283fd5b613a1e8b838c0161376d565b935060c08a0135915080821115613a33578283fd5b50613a408a828b0161376d565b91505092959891949750929550565b600080600080600060608688031215613a66578081fd5b85359450602086013567ffffffffffffffff80821115613a84578283fd5b613a9089838a0161372d565b90965094506040880135915080821115613aa8578283fd5b50613ab58882890161372d565b969995985093965092949392505050565b600060208284031215613ad7578081fd5b81516001600160e01b031981168114611c08578182fd5b60008151808452613b06816020860160208601613e4c565b601f01601f19169290920160200192915050565b6bffffffffffffffffffffffff19606094851b811682526014820193909352921b16603482015260480190565b60609390931b6bffffffffffffffffffffffff191683526014830191909152603482015260540190565b918252602082015260400190565b6000828483379101908152919050565b60008251613ba1818460208701613e4c565b9190910192915050565b7f19457468657265756d205369676e6564204d6573736167653a0a3332000000008152601c810191909152603c0190565b6001600160a01b0391909116815260200190565b6001600160a01b03929092168252602082015260400190565b6001600160a01b039390931683526020830191909152604082015260600190565b901515815260200190565b90815260200190565b6000838252604060208301526130316040830184613aee565b93845260ff9290921660208401526040830152606082015260800190565b60006020825282602083015282846040840137818301604090810191909152601f909201601f19160101919050565b600060208252611c086020830184613aee565b600060408252613cca6040830185613aee565b8281036020840152613cdc8185613aee565b95945050505050565b60208082526023908201527f45524332303a207472616e7366657220746f20746865207a65726f206164647260408201526265737360e81b606082015260800190565b60208082526026908201527f4f776e61626c653a206e6577206f776e657220697320746865207a65726f206160408201526564647265737360d01b606082015260800190565b60208082526013908201527234b73b30b634b216b9b4b3b730ba3ab93296bb60691b604082015260600190565b6020808252818101527f4f776e61626c653a2063616c6c6572206973206e6f7420746865206f776e6572604082015260600190565b60208082526025908201527f45524332303a207472616e736665722066726f6d20746865207a65726f206164604082015264647265737360d81b606082015260800190565b60208082526018908201527f696e76616c69642d7369676e61747572652d666f726d61740000000000000000604082015260600190565b60005b83811015613e67578181015183820152602001613e4f565b83811115613e76576000848401525b5050505056fea264697066735822122068a5258dd8b226cf7604ee06c0b0dbb9bf713d1de823becebf60c20bb697f54f64736f6c634300060c00338be0079c531659141344cd1fd0a4f28419497f9722a3daafe3b4186f6b6457e0",
  "immutableReferences": {},
  "source": "// SPDX-License-Identifier: Apache-2.0\n\n/******************************************************************************\n * Copyright 2020 IEXEC BLOCKCHAIN TECH                                       *\n *                                                                            *\n * Licensed under the Apache License, Version 2.0 (the \"License\");            *\n * you may not use this file except in compliance with the License.           *\n * You may obtain a copy of the License at                                    *\n *                                                                            *\n *     http://www.apache.org/licenses/LICENSE-2.0                             *\n *                                                                            *\n * Unless required by applicable law or agreed to in writing, software        *\n * distributed under the License is distributed on an \"AS IS\" BASIS,          *\n * WITHOUT WARRANTIES OR CONDITIONS OF ANY KIND, either express or implied.   *\n * See the License for the specific language governing permissions and        *\n * limitations under the License.                                             *\n ******************************************************************************/\n\npragma solidity ^0.6.0;\npragma experimental ABIEncoderV2;\n\nimport \"@iexec/solidity/contracts/ERC1154/IERC1154.sol\";\nimport \"./IexecERC20Core.sol\";\nimport \"./SignatureVerifier.sol\";\nimport \"../DelegateBase.sol\";\nimport \"../interfaces/IexecPoco2.sol\";\n\n\ncontract IexecPoco2Delegate is IexecPoco2, DelegateBase, IexecERC20Core, SignatureVerifier\n{\n\t/***************************************************************************\n\t *                    Escrow overhead for contribution                     *\n\t ***************************************************************************/\n\tfunction successWork(bytes32 _dealid, bytes32 _taskid)\n\tinternal\n\t{\n\t\tIexecLibCore_v5.Deal storage deal = m_deals[_dealid];\n\n\t\tuint256 requesterstake = deal.app.price\n\t\t\t\t\t\t\t\t .add(deal.dataset.price)\n\t\t\t\t\t\t\t\t .add(deal.workerpool.price);\n\t\tuint256 poolstake = deal.workerpool.price\n\t\t\t\t\t\t\t.percentage(WORKERPOOL_STAKE_RATIO);\n\n\t\t// seize requester funds\n\t\tseize(deal.requester, requesterstake, _taskid);\n\t\t// dapp reward\n\t\tif (deal.app.price > 0)\n\t\t{\n\t\t\treward(deal.app.owner, deal.app.price, _taskid);\n\t\t}\n\t\t// data reward\n\t\tif (deal.dataset.price > 0 && deal.dataset.pointer != address(0))\n\t\t{\n\t\t\treward(deal.dataset.owner, deal.dataset.price, _taskid);\n\t\t}\n\t\t// unlock pool stake\n\t\tunlock(deal.workerpool.owner, poolstake);\n\t\t// pool reward performed by consensus manager\n\n\t\t/**\n\t\t * Retrieve part of the kitty\n\t\t */\n\t\tuint256 kitty = m_frozens[KITTY_ADDRESS];\n\t\tif (kitty > 0)\n\t\t{\n\t\t\tkitty = kitty\n\t\t\t\t\t.percentage(KITTY_RATIO) // fraction\n\t\t\t\t\t.max(KITTY_MIN)          // at least this\n\t\t\t\t\t.min(kitty);             // but not more than available\n\t\t\tseize (KITTY_ADDRESS,         kitty, _taskid);\n\t\t\treward(deal.workerpool.owner, kitty, _taskid);\n\t\t}\n\t}\n\n\tfunction failedWork(bytes32 _dealid, bytes32 _taskid)\n\tinternal\n\t{\n\t\tIexecLibCore_v5.Deal memory deal = m_deals[_dealid];\n\n\t\tuint256 requesterstake = deal.app.price\n\t\t\t\t\t\t\t\t .add(deal.dataset.price)\n\t\t\t\t\t\t\t\t .add(deal.workerpool.price);\n\t\tuint256 poolstake = deal.workerpool.price\n\t\t\t\t\t\t\t.percentage(WORKERPOOL_STAKE_RATIO);\n\n\t\tunlock(deal.requester,        requesterstake    );\n\t\tseize (deal.workerpool.owner, poolstake, _taskid);\n\t\treward(KITTY_ADDRESS,         poolstake, _taskid); //  Kitty / Burn\n\t\tlock  (KITTY_ADDRESS,         poolstake         ); //  Kitty / Burn\n\t}\n\n\t/***************************************************************************\n\t *                            Consensus methods                            *\n\t ***************************************************************************/\n\tfunction initialize(bytes32 _dealid, uint256 idx)\n\tpublic override returns (bytes32)\n\t{\n\t\tIexecLibCore_v5.Deal memory deal = m_deals[_dealid];\n\n\t\trequire(idx >= deal.botFirst                  );\n\t\trequire(idx <  deal.botFirst.add(deal.botSize));\n\n\t\tbytes32 taskid  = keccak256(abi.encodePacked(_dealid, idx));\n\t\tIexecLibCore_v5.Task storage task = m_tasks[taskid];\n\t\trequire(task.status == IexecLibCore_v5.TaskStatusEnum.UNSET);\n\n\t\ttask.status               = IexecLibCore_v5.TaskStatusEnum.ACTIVE;\n\t\ttask.dealid               = _dealid;\n\t\ttask.idx                  = idx;\n\t\ttask.timeref              = m_categories[deal.category].workClockTimeRef;\n\t\ttask.contributionDeadline = task.timeref.mul(CONTRIBUTION_DEADLINE_RATIO).add(deal.startTime);\n\t\ttask.finalDeadline        = task.timeref.mul(       FINAL_DEADLINE_RATIO).add(deal.startTime);\n\n\t\t// setup denominator\n\t\tm_consensus[taskid].total = 1;\n\n\t\temit TaskInitialize(taskid, deal.workerpool.pointer);\n\n\t\treturn taskid;\n\t}\n\t// TODO / COMPILER ERROR: making it external causes \"stack too deep\" error\n\tfunction contribute(\n\t\tbytes32      _taskid,\n\t\tbytes32      _resultHash,\n\t\tbytes32      _resultSeal,\n\t\taddress      _enclaveChallenge,\n\t\tbytes memory _enclaveSign,\n\t\tbytes memory _authorizationSign)\n\tpublic override\n\t{\n\t\trequire(_isAuthorized(_msgSender()));\n\n\t\tIexecLibCore_v5.Task         storage task         = m_tasks[_taskid];\n\t\tIexecLibCore_v5.Contribution storage contribution = m_contributions[_taskid][_msgSender()];\n\t\tIexecLibCore_v5.Deal         memory  deal         = m_deals[task.dealid];\n\n\t\trequire(task.status               == IexecLibCore_v5.TaskStatusEnum.ACTIVE       );\n\t\trequire(task.contributionDeadline >  now                                         );\n\t\trequire(contribution.status       == IexecLibCore_v5.ContributionStatusEnum.UNSET);\n\n\t\t// need enclave challenge if tag is set\n\t\trequire(_enclaveChallenge != address(0) || (deal.tag[31] & 0x01 == 0));\n\n\t\t// Check that the worker + taskid + enclave combo is authorized to contribute (scheduler signature)\n\t\trequire(_checkSignature(\n\t\t\t( _enclaveChallenge != address(0) && m_teebroker != address(0) ) ? m_teebroker : deal.workerpool.owner,\n\t\t\t_toEthSignedMessage(keccak256(abi.encodePacked(\n\t\t\t\t_msgSender(),\n\t\t\t\t_taskid,\n\t\t\t\t_enclaveChallenge\n\t\t\t))),\n\t\t\t_authorizationSign\n\t\t));\n\n\t\t// Check enclave signature\n\t\trequire(_enclaveChallenge == address(0) || _checkSignature(\n\t\t\t_enclaveChallenge,\n\t\t\t_toEthSignedMessage(keccak256(abi.encodePacked(\n\t\t\t\t_resultHash,\n\t\t\t\t_resultSeal\n\t\t\t))),\n\t\t\t_enclaveSign\n\t\t));\n\n\t\t// Update contribution entry\n\t\tcontribution.status           = IexecLibCore_v5.ContributionStatusEnum.CONTRIBUTED;\n\t\tcontribution.resultHash       = _resultHash;\n\t\tcontribution.resultSeal       = _resultSeal;\n\t\tcontribution.enclaveChallenge = _enclaveChallenge;\n\t\ttask.contributors.push(_msgSender());\n\n\t\tlockContribution(task.dealid, _msgSender());\n\n\t\temit TaskContribute(_taskid, _msgSender(), _resultHash);\n\n\t\t// Contribution done  updating and checking consensus\n\n\t\t/*************************************************************************\n\t\t *                           SCORE POLICY 1/3                            *\n\t\t *                                                                       *\n\t\t *                          see documentation!                           *\n\t\t *************************************************************************/\n\t\t// k = 3\n\t\tIexecLibCore_v5.Consensus storage consensus = m_consensus[_taskid];\n\n\t\tuint256 weight = m_workerScores[_msgSender()].div(3).max(3).sub(1);\n\t\tuint256 group  = consensus.group[_resultHash];\n\t\tuint256 delta  = group.max(1).mul(weight).sub(group);\n\n\t\tcontribution.weight          = weight.log();\n\t\tconsensus.group[_resultHash] = consensus.group[_resultHash].add(delta);\n\t\tconsensus.total              = consensus.total.add(delta);\n\n\t\t// Check consensus\n\t\tcheckConsensus(_taskid, _resultHash);\n\t}\n\n\t// TODO / COMPILER ERROR: making it external causes \"stack too deep\" error\n\tfunction contributeAndFinalize(\n\t\tbytes32      _taskid,\n\t\tbytes32      _resultDigest,\n\t\tbytes memory _results,\n\t\tbytes memory _resultsCallback, // Expansion - result separation\n\t\taddress      _enclaveChallenge,\n\t\tbytes memory _enclaveSign,\n\t\tbytes memory _authorizationSign)\n\tpublic override\n\t{\n\t\trequire(_isAuthorized(_msgSender()));\n\n\t\tIexecLibCore_v5.Task         storage task         = m_tasks[_taskid];\n\t\tIexecLibCore_v5.Contribution storage contribution = m_contributions[_taskid][_msgSender()];\n\t\tIexecLibCore_v5.Deal         memory  deal         = m_deals[task.dealid];\n\n\t\trequire(task.status               == IexecLibCore_v5.TaskStatusEnum.ACTIVE);\n\t\trequire(task.contributionDeadline >  now                                  );\n\t\trequire(task.contributors.length  == 0                                    );\n\t\trequire(deal.trust                == 1                                    ); // TODO / FUTURE FEATURE: consider sender's score ?\n\n\t\tbytes32 resultHash = keccak256(abi.encodePacked(              _taskid, _resultDigest));\n\t\tbytes32 resultSeal = keccak256(abi.encodePacked(_msgSender(), _taskid, _resultDigest));\n\n\t\trequire((deal.callback == address(0) && _resultsCallback.length == 0) || keccak256(_resultsCallback) == task.resultDigest);\n\n\t\t// need enclave challenge if tag is set\n\t\trequire(_enclaveChallenge != address(0) || (deal.tag[31] & 0x01 == 0));\n\n\t\t// Check that the worker + taskid + enclave combo is authorized to contribute (scheduler signature)\n\t\trequire(_checkSignature(\n\t\t\t( _enclaveChallenge != address(0) && m_teebroker != address(0) ) ? m_teebroker : deal.workerpool.owner,\n\t\t\t_toEthSignedMessage(keccak256(abi.encodePacked(\n\t\t\t\t_msgSender(),\n\t\t\t\t_taskid,\n\t\t\t\t_enclaveChallenge\n\t\t\t))),\n\t\t\t_authorizationSign\n\t\t));\n\n\t\t// Check enclave signature\n\t\trequire(_enclaveChallenge == address(0) || _checkSignature(\n\t\t\t_enclaveChallenge,\n\t\t\t_toEthSignedMessage(keccak256(abi.encodePacked(\n\t\t\t\tresultHash,\n\t\t\t\tresultSeal\n\t\t\t))),\n\t\t\t_enclaveSign\n\t\t));\n\n\t\tcontribution.status           = IexecLibCore_v5.ContributionStatusEnum.PROVED;\n\t\tcontribution.resultHash       = resultHash;\n\t\tcontribution.resultSeal       = resultSeal;\n\t\tcontribution.enclaveChallenge = _enclaveChallenge;\n\n\t\ttask.status                   = IexecLibCore_v5.TaskStatusEnum.COMPLETED;\n\t\ttask.consensusValue           = contribution.resultHash;\n\t\ttask.revealDeadline           = task.timeref.mul(REVEAL_DEADLINE_RATIO).add(now);\n\t\ttask.revealCounter            = 1;\n\t\ttask.winnerCounter            = 1;\n\t\ttask.resultDigest             = _resultDigest;\n\t\ttask.results                  = _results;\n\t\ttask.resultsCallback          = _resultsCallback; // Expansion - result separation\n\t\ttask.contributors.push(_msgSender());\n\n\t\tsuccessWork(task.dealid, _taskid);\n\t\tdistributeRewardsFast(_taskid);\n\n\t\temit TaskContribute(_taskid, _msgSender(), resultHash);\n\t\temit TaskConsensus(_taskid, resultHash);\n\t\temit TaskReveal(_taskid, _msgSender(), _resultDigest);\n\t\temit TaskFinalize(_taskid, _results);\n\n\t\texecuteCallback(_taskid, _resultsCallback);\n\t}\n\n\tfunction reveal(\n\t\tbytes32 _taskid,\n\t\tbytes32 _resultDigest)\n\texternal override // worker\n\t{\n\t\tIexecLibCore_v5.Task         storage task         = m_tasks[_taskid];\n\t\tIexecLibCore_v5.Contribution storage contribution = m_contributions[_taskid][_msgSender()];\n\t\trequire(task.status             == IexecLibCore_v5.TaskStatusEnum.REVEALING                         );\n\t\trequire(task.revealDeadline     >  now                                                              );\n\t\trequire(contribution.status     == IexecLibCore_v5.ContributionStatusEnum.CONTRIBUTED               );\n\t\trequire(contribution.resultHash == task.consensusValue                                              );\n\t\trequire(contribution.resultHash == keccak256(abi.encodePacked(              _taskid, _resultDigest)));\n\t\trequire(contribution.resultSeal == keccak256(abi.encodePacked(_msgSender(), _taskid, _resultDigest)));\n\n\t\tcontribution.status = IexecLibCore_v5.ContributionStatusEnum.PROVED;\n\t\ttask.revealCounter  = task.revealCounter.add(1);\n\t\ttask.resultDigest   = _resultDigest;\n\n\t\temit TaskReveal(_taskid, _msgSender(), _resultDigest);\n\t}\n\n\tfunction reopen(\n\t\tbytes32 _taskid)\n\texternal override onlyScheduler(_taskid)\n\t{\n\t\tIexecLibCore_v5.Task storage task = m_tasks[_taskid];\n\t\trequire(task.status         == IexecLibCore_v5.TaskStatusEnum.REVEALING);\n\t\trequire(task.finalDeadline  >  now                                     );\n\t\trequire(task.revealDeadline <= now && task.revealCounter == 0          );\n\n\t\tfor (uint256 i = 0; i < task.contributors.length; ++i)\n\t\t{\n\t\t\taddress worker = task.contributors[i];\n\t\t\tif (m_contributions[_taskid][worker].resultHash == task.consensusValue)\n\t\t\t{\n\t\t\t\tm_contributions[_taskid][worker].status = IexecLibCore_v5.ContributionStatusEnum.REJECTED;\n\t\t\t}\n\t\t}\n\n\t\tIexecLibCore_v5.Consensus storage consensus = m_consensus[_taskid];\n\t\tconsensus.total = consensus.total.sub(consensus.group[task.consensusValue]);\n\t\tconsensus.group[task.consensusValue] = 0;\n\n\t\ttask.status         = IexecLibCore_v5.TaskStatusEnum.ACTIVE;\n\t\ttask.consensusValue = 0x0;\n\t\ttask.revealDeadline = 0;\n\t\ttask.winnerCounter  = 0;\n\n\t\temit TaskReopen(_taskid);\n\t}\n\n\tfunction finalize(\n\t\tbytes32          _taskid,\n\t\tbytes   calldata _results,\n\t\tbytes   calldata _resultsCallback) // Expansion - result separation\n\texternal override onlyScheduler(_taskid)\n\t{\n\t\tIexecLibCore_v5.Task storage task = m_tasks[_taskid];\n\t\tIexecLibCore_v5.Deal memory  deal = m_deals[task.dealid];\n\n\t\trequire(task.status        == IexecLibCore_v5.TaskStatusEnum.REVEALING                                    );\n\t\trequire(task.finalDeadline >  now                                                                         );\n\t\trequire(task.revealCounter == task.winnerCounter || (task.revealCounter > 0 && task.revealDeadline <= now));\n\n\t\trequire((deal.callback == address(0) && _resultsCallback.length == 0) || keccak256(_resultsCallback) == task.resultDigest);\n\n\t\ttask.status          = IexecLibCore_v5.TaskStatusEnum.COMPLETED;\n\t\ttask.results         = _results;\n\t\ttask.resultsCallback = _resultsCallback; // Expansion - result separation\n\n\t\t/**\n\t\t * Stake and reward management\n\t\t */\n\t\tsuccessWork(task.dealid, _taskid);\n\t\tdistributeRewards(_taskid);\n\n\t\t/**\n\t\t * Event\n\t\t */\n\t\temit TaskFinalize(_taskid, _results);\n\n\t\texecuteCallback(_taskid, _resultsCallback);\n\t}\n\n\tfunction claim(\n\t\tbytes32 _taskid)\n\tpublic override\n\t{\n\t\tIexecLibCore_v5.Task storage task = m_tasks[_taskid];\n\t\trequire(task.status == IexecLibCore_v5.TaskStatusEnum.ACTIVE\n\t\t\t || task.status == IexecLibCore_v5.TaskStatusEnum.REVEALING);\n\t\trequire(task.finalDeadline <= now);\n\n\t\ttask.status = IexecLibCore_v5.TaskStatusEnum.FAILED;\n\n\t\t/**\n\t\t * Stake management\n\t\t */\n\t\tfailedWork(task.dealid, _taskid);\n\t\tfor (uint256 i = 0; i < task.contributors.length; ++i)\n\t\t{\n\t\t\taddress worker = task.contributors[i];\n\t\t\tunlockContribution(task.dealid, worker);\n\t\t}\n\n\t\temit TaskClaimed(_taskid);\n\t}\n\n\t/***************************************************************************\n\t *                       Internal Consensus methods                        *\n\t ***************************************************************************/\n\t/*\n\t * Consensus detection\n\t */\n\tfunction checkConsensus(\n\t\tbytes32 _taskid,\n\t\tbytes32 _consensus)\n\tinternal\n\t{\n\t\tIexecLibCore_v5.Task      storage task      = m_tasks[_taskid];\n\t\tIexecLibCore_v5.Consensus storage consensus = m_consensus[_taskid];\n\n\t\tuint256 trust = m_deals[task.dealid].trust;\n\t\t/*************************************************************************\n\t\t *                          Consensus detection                          *\n\t\t *                                                                       *\n\t\t *                          see documentation:                           *\n\t\t *          ./ audit/docs/iExec_PoCo_and_trustmanagement_v1.pdf          *\n\t\t *************************************************************************/\n\t\tif (consensus.group[_consensus].mul(trust) > consensus.total.mul(trust.sub(1)))\n\t\t{\n\t\t\t// Preliminary checks done in \"contribute()\"\n\t\t\tuint256 winnerCounter = 0;\n\t\t\tfor (uint256 i = 0; i < task.contributors.length; ++i)\n\t\t\t{\n\t\t\t\taddress w = task.contributors[i];\n\t\t\t\tif\n\t\t\t\t(\n\t\t\t\t\tm_contributions[_taskid][w].resultHash == _consensus\n\t\t\t\t\t&&\n\t\t\t\t\tm_contributions[_taskid][w].status == IexecLibCore_v5.ContributionStatusEnum.CONTRIBUTED // REJECTED contribution must not be count\n\t\t\t\t)\n\t\t\t\t{\n\t\t\t\t\twinnerCounter = winnerCounter.add(1);\n\t\t\t\t}\n\t\t\t}\n\t\t\t// _msgSender() is a contributor: no need to check\n\t\t\ttask.status         = IexecLibCore_v5.TaskStatusEnum.REVEALING;\n\t\t\ttask.consensusValue = _consensus;\n\t\t\ttask.revealDeadline = task.timeref.mul(REVEAL_DEADLINE_RATIO).add(now);\n\t\t\ttask.revealCounter  = 0;\n\t\t\ttask.winnerCounter  = winnerCounter;\n\n\t\t\temit TaskConsensus(_taskid, _consensus);\n\t\t}\n\t}\n\n\t/*\n\t * Reward distribution\n\t */\n\tfunction distributeRewards(bytes32 _taskid)\n\tinternal\n\t{\n\t\tIexecLibCore_v5.Task memory task = m_tasks[_taskid];\n\t\tIexecLibCore_v5.Deal memory deal = m_deals[task.dealid];\n\n\t\tuint256 totalLogWeight = 0;\n\t\tuint256 totalReward    = deal.workerpool.price;\n\n\t\tfor (uint256 i = 0; i < task.contributors.length; ++i)\n\t\t{\n\t\t\taddress                              worker       = task.contributors[i];\n\t\t\tIexecLibCore_v5.Contribution storage contribution = m_contributions[_taskid][worker];\n\n\t\t\tif (contribution.status == IexecLibCore_v5.ContributionStatusEnum.PROVED)\n\t\t\t{\n\t\t\t\ttotalLogWeight = totalLogWeight.add(contribution.weight);\n\t\t\t}\n\t\t\telse // ContributionStatusEnum.REJECT or ContributionStatusEnum.CONTRIBUTED (not revealed)\n\t\t\t{\n\t\t\t\ttotalReward = totalReward.add(deal.workerStake);\n\t\t\t}\n\t\t}\n\n\t\t// compute how much is going to the workers\n\t\tuint256 workersReward = totalReward.percentage(uint256(100).sub(deal.schedulerRewardRatio));\n\n\t\tfor (uint256 i = 0; i < task.contributors.length; ++i)\n\t\t{\n\t\t\taddress                              worker       = task.contributors[i];\n\t\t\tIexecLibCore_v5.Contribution storage contribution = m_contributions[_taskid][worker];\n\n\t\t\tif (contribution.status == IexecLibCore_v5.ContributionStatusEnum.PROVED)\n\t\t\t{\n\t\t\t\tuint256 workerReward = workersReward.mulByFraction(contribution.weight, totalLogWeight);\n\t\t\t\ttotalReward          = totalReward.sub(workerReward);\n\n\t\t\t\tunlockContribution(task.dealid, worker);\n\t\t\t\trewardForContribution(worker, workerReward, _taskid);\n\n\t\t\t\t// Only reward if replication happened\n\t\t\t\tif (task.contributors.length > 1)\n\t\t\t\t{\n\t\t\t\t\t/*******************************************************************\n\t\t\t\t\t *                        SCORE POLICY 2/3                         *\n\t\t\t\t\t *                                                                 *\n\t\t\t\t\t *                       see documentation!                        *\n\t\t\t\t\t *******************************************************************/\n\t\t\t\t\tm_workerScores[worker] = m_workerScores[worker].add(1);\n\t\t\t\t\temit AccurateContribution(worker, _taskid);\n\t\t\t\t}\n\t\t\t}\n\t\t\telse // WorkStatusEnum.POCO_REJECT or ContributionStatusEnum.CONTRIBUTED (not revealed)\n\t\t\t{\n\t\t\t\t// No Reward\n\t\t\t\tseizeContribution(task.dealid, worker, _taskid);\n\n\t\t\t\t// Always punish bad contributors\n\t\t\t\t{\n\t\t\t\t\t/*******************************************************************\n\t\t\t\t\t *                        SCORE POLICY 3/3                         *\n\t\t\t\t\t *                                                                 *\n\t\t\t\t\t *                       see documentation!                        *\n\t\t\t\t\t *******************************************************************/\n\t\t\t\t\t// k = 3\n\t\t\t\t\tm_workerScores[worker] = m_workerScores[worker].mulByFraction(2,3);\n\t\t\t\t\temit FaultyContribution(worker, _taskid);\n\t\t\t\t}\n\t\t\t}\n\t\t}\n\t\t// totalReward now contains the scheduler share\n\t\trewardForScheduling(task.dealid, totalReward, _taskid);\n\t}\n\n\t/*\n\t * Reward distribution for contributeAndFinalize\n\t */\n\tfunction distributeRewardsFast(bytes32 _taskid)\n\tinternal\n\t{\n\t\tIexecLibCore_v5.Task memory task = m_tasks[_taskid];\n\t\tIexecLibCore_v5.Deal memory deal = m_deals[task.dealid];\n\n\t\t// simple reward, no score consideration\n\t\tuint256 workerReward    = deal.workerpool.price.percentage(uint256(100).sub(deal.schedulerRewardRatio));\n\t\tuint256 schedulerReward = deal.workerpool.price.sub(workerReward);\n\t\trewardForContribution(_msgSender(), workerReward, _taskid);\n\t\trewardForScheduling(task.dealid, schedulerReward, _taskid);\n\t}\n\n\t/**\n\t * Callback for smartcontracts using EIP1154\n\t */\n\tfunction executeCallback(bytes32 _taskid, bytes memory _resultsCallback)\n\tinternal\n\t{\n\t\taddress target = m_deals[m_tasks[_taskid].dealid].callback;\n\t\tif (target != address(0))\n\t\t{\n\t\t\t// Solidity 0.6.0 reverts if target is not a smartcontracts\n\t\t\t// /**\n\t\t\t//  * Call does not revert if the target smart contract is incompatible or reverts\n\t\t\t//  * Solidity 0.6.0 update. Check hit history for 0.5.0 implementation.\n\t\t\t//  */\n\t\t\t// try IOracleConsumer(target).receiveResult{gas: m_callbackgas}(_taskid, _results)\n\t\t\t// {\n\t\t\t// \t// Callback success, do nothing\n\t\t\t// }\n\t\t\t// catch (bytes memory /*lowLevelData*/)\n\t\t\t// {\n\t\t\t// \t// Check gas: https://ronan.eth.link/blog/ethereum-gas-dangers/\n\t\t\t// \tassert(gasleft() > m_callbackgas / 63); // no need for safemath here\n\t\t\t// }\n\n\t\t\t// Pre solidity 0.6.0 version\n\t\t\t(bool success, bytes memory returndata) = target.call{gas: m_callbackgas}(abi.encodeWithSignature(\"receiveResult(bytes32,bytes)\", _taskid, _resultsCallback));\n\t\t\tassert(gasleft() > m_callbackgas / 63);\n\t\t\t// silent unused variable warning\n\t\t\tsuccess;\n\t\t\treturndata;\n\t\t}\n\t}\n\n\t/***************************************************************************\n\t *                            Array operations                             *\n\t ***************************************************************************/\n\tfunction initializeArray(\n\t\tbytes32[] calldata _dealid,\n\t\tuint256[] calldata _idx)\n\texternal override returns (bool)\n\t{\n\t\trequire(_dealid.length == _idx.length);\n\t\tfor (uint i = 0; i < _dealid.length; ++i)\n\t\t{\n\t\t\tinitialize(_dealid[i], _idx[i]);\n\t\t}\n\t\treturn true;\n\t}\n\n\tfunction claimArray(\n\t\tbytes32[] calldata _taskid)\n\texternal override returns (bool)\n\t{\n\t\tfor (uint i = 0; i < _taskid.length; ++i)\n\t\t{\n\t\t\tclaim(_taskid[i]);\n\t\t}\n\t\treturn true;\n\t}\n\n\tfunction initializeAndClaimArray(\n\t\tbytes32[] calldata _dealid,\n\t\tuint256[] calldata _idx)\n\texternal override returns (bool)\n\t{\n\t\trequire(_dealid.length == _idx.length);\n\t\tfor (uint i = 0; i < _dealid.length; ++i)\n\t\t{\n\t\t\tclaim(initialize(_dealid[i], _idx[i]));\n\t\t}\n\t\treturn true;\n\t}\n}\n",
  "sourcePath": "/home/amxx/Work/iExec/code/PoCo-dev/contracts/modules/delegates/IexecPoco2Delegate.sol",
  "compiler": {
    "name": "solc",
    "version": "0.6.12+commit.27d51765.Emscripten.clang"
  },
  "schemaVersion": "3.2.2",
  "updatedAt": "2020-11-09T09:15:00.661Z",
  "devdoc": {
    "kind": "dev",
    "methods": {
      "owner()": {
        "details": "Returns the address of the current owner."
      },
      "renounceOwnership()": {
        "details": "Leaves the contract without owner. It will not be possible to call `onlyOwner` functions anymore. Can only be called by the current owner. NOTE: Renouncing ownership will leave the contract without an owner, thereby removing any functionality that is only available to the owner."
      },
      "transferOwnership(address)": {
        "details": "Transfers ownership of the contract to a new account (`newOwner`). Can only be called by the current owner."
      }
    },
    "version": 1
  },
  "userdoc": {
    "kind": "user",
    "methods": {},
    "version": 1
  }
}