{
  "contractName": "IexecERC20Delegate",
  "abi": [
    {
      "constant": true,
      "inputs": [],
      "name": "EIP712DOMAIN_SEPARATOR",
      "outputs": [
        {
          "name": "",
          "type": "bytes32"
        }
      ],
      "payable": false,
      "stateMutability": "view",
      "type": "function"
    },
    {
      "constant": true,
      "inputs": [],
      "name": "appregistry",
      "outputs": [
        {
          "name": "",
          "type": "address"
        }
      ],
      "payable": false,
      "stateMutability": "view",
      "type": "function"
    },
    {
      "constant": true,
      "inputs": [],
      "name": "WORKERPOOL_STAKE_RATIO",
      "outputs": [
        {
          "name": "",
          "type": "uint256"
        }
      ],
      "payable": false,
      "stateMutability": "view",
      "type": "function"
    },
    {
      "constant": true,
      "inputs": [],
      "name": "KITTY_RATIO",
      "outputs": [
        {
          "name": "",
          "type": "uint256"
        }
      ],
      "payable": false,
      "stateMutability": "view",
      "type": "function"
    },
    {
      "constant": true,
      "inputs": [],
      "name": "REVEAL_DEADLINE_RATIO",
      "outputs": [
        {
          "name": "",
          "type": "uint256"
        }
      ],
      "payable": false,
      "stateMutability": "view",
      "type": "function"
    },
    {
      "constant": true,
      "inputs": [],
      "name": "GROUPMEMBER_PURPOSE",
      "outputs": [
        {
          "name": "",
          "type": "uint256"
        }
      ],
      "payable": false,
      "stateMutability": "view",
      "type": "function"
    },
    {
      "constant": false,
      "inputs": [],
      "name": "renounceOwnership",
      "outputs": [],
      "payable": false,
      "stateMutability": "nonpayable",
      "type": "function"
    },
    {
      "constant": true,
      "inputs": [],
      "name": "CONTRIBUTION_DEADLINE_RATIO",
      "outputs": [
        {
          "name": "",
          "type": "uint256"
        }
      ],
      "payable": false,
      "stateMutability": "view",
      "type": "function"
    },
    {
      "constant": true,
      "inputs": [],
      "name": "owner",
      "outputs": [
        {
          "name": "",
          "type": "address"
        }
      ],
      "payable": false,
      "stateMutability": "view",
      "type": "function"
    },
    {
      "constant": true,
      "inputs": [],
      "name": "isOwner",
      "outputs": [
        {
          "name": "",
          "type": "bool"
        }
      ],
      "payable": false,
      "stateMutability": "view",
      "type": "function"
    },
    {
      "constant": true,
      "inputs": [],
      "name": "workerpoolregistry",
      "outputs": [
        {
          "name": "",
          "type": "address"
        }
      ],
      "payable": false,
      "stateMutability": "view",
      "type": "function"
    },
    {
      "constant": true,
      "inputs": [],
      "name": "FINAL_DEADLINE_RATIO",
      "outputs": [
        {
          "name": "",
          "type": "uint256"
        }
      ],
      "payable": false,
      "stateMutability": "view",
      "type": "function"
    },
    {
      "constant": true,
      "inputs": [],
      "name": "KITTY_ADDRESS",
      "outputs": [
        {
          "name": "",
          "type": "address"
        }
      ],
      "payable": false,
      "stateMutability": "view",
      "type": "function"
    },
    {
      "constant": true,
      "inputs": [],
      "name": "datasetregistry",
      "outputs": [
        {
          "name": "",
          "type": "address"
        }
      ],
      "payable": false,
      "stateMutability": "view",
      "type": "function"
    },
    {
      "constant": true,
      "inputs": [],
      "name": "KITTY_MIN",
      "outputs": [
        {
          "name": "",
          "type": "uint256"
        }
      ],
      "payable": false,
      "stateMutability": "view",
      "type": "function"
    },
    {
      "constant": false,
      "inputs": [
        {
          "name": "newOwner",
          "type": "address"
        }
      ],
      "name": "transferOwnership",
      "outputs": [],
      "payable": false,
      "stateMutability": "nonpayable",
      "type": "function"
    },
    {
      "anonymous": false,
      "inputs": [
        {
          "indexed": true,
          "name": "from",
          "type": "address"
        },
        {
          "indexed": true,
          "name": "to",
          "type": "address"
        },
        {
          "indexed": false,
          "name": "value",
          "type": "uint256"
        }
      ],
      "name": "Transfer",
      "type": "event"
    },
    {
      "anonymous": false,
      "inputs": [
        {
          "indexed": true,
          "name": "owner",
          "type": "address"
        },
        {
          "indexed": true,
          "name": "spender",
          "type": "address"
        },
        {
          "indexed": false,
          "name": "value",
          "type": "uint256"
        }
      ],
      "name": "Approval",
      "type": "event"
    },
    {
      "anonymous": false,
      "inputs": [
        {
          "indexed": true,
          "name": "previousOwner",
          "type": "address"
        },
        {
          "indexed": true,
          "name": "newOwner",
          "type": "address"
        }
      ],
      "name": "OwnershipTransferred",
      "type": "event"
    },
    {
      "constant": false,
      "inputs": [
        {
          "name": "recipient",
          "type": "address"
        },
        {
          "name": "amount",
          "type": "uint256"
        }
      ],
      "name": "transfer",
      "outputs": [
        {
          "name": "",
          "type": "bool"
        }
      ],
      "payable": false,
      "stateMutability": "nonpayable",
      "type": "function"
    },
    {
      "constant": false,
      "inputs": [
        {
          "name": "spender",
          "type": "address"
        },
        {
          "name": "value",
          "type": "uint256"
        }
      ],
      "name": "approve",
      "outputs": [
        {
          "name": "",
          "type": "bool"
        }
      ],
      "payable": false,
      "stateMutability": "nonpayable",
      "type": "function"
    },
    {
      "constant": false,
      "inputs": [
        {
          "name": "sender",
          "type": "address"
        },
        {
          "name": "recipient",
          "type": "address"
        },
        {
          "name": "amount",
          "type": "uint256"
        }
      ],
      "name": "transferFrom",
      "outputs": [
        {
          "name": "",
          "type": "bool"
        }
      ],
      "payable": false,
      "stateMutability": "nonpayable",
      "type": "function"
    },
    {
      "constant": false,
      "inputs": [
        {
          "name": "spender",
          "type": "address"
        },
        {
          "name": "addedValue",
          "type": "uint256"
        }
      ],
      "name": "increaseAllowance",
      "outputs": [
        {
          "name": "",
          "type": "bool"
        }
      ],
      "payable": false,
      "stateMutability": "nonpayable",
      "type": "function"
    },
    {
      "constant": false,
      "inputs": [
        {
          "name": "spender",
          "type": "address"
        },
        {
          "name": "subtractedValue",
          "type": "uint256"
        }
      ],
      "name": "decreaseAllowance",
      "outputs": [
        {
          "name": "",
          "type": "bool"
        }
      ],
      "payable": false,
      "stateMutability": "nonpayable",
      "type": "function"
    }
  ],
  "bytecode": "0x60806040819052600080546001600160a01b03191633178082556001600160a01b031691600080516020610bff833981519152908290a36100476001600160e01b0361004c16565b61013d565b61005d6001600160e01b036100d416565b61009c576040517f08c379a00000000000000000000000000000000000000000000000000000000081526004016100939061011e565b60405180910390fd5b600080546040516001600160a01b0390911690600080516020610bff833981519152908390a3600080546001600160a01b0319169055565b6000546001600160a01b0316331490565b60006100f2602083610134565b7f4f776e61626c653a2063616c6c6572206973206e6f7420746865206f776e6572815260200192915050565b6020808252810161012e816100e5565b92915050565b90815260200190565b610ab38061014c6000396000f3fe608060405234801561001057600080fd5b50600436106101375760003560e01c80637b244832116100b85780639e986e811161007c5780639e986e811461020c578063a457c2d714610214578063a9059cbb14610227578063b1b11d2c1461023a578063e2e7a8c114610242578063f2fde38b1461024a57610137565b80637b244832146101df5780638da5cb5b146101e75780638f32d59b146101fc57806390a0f5461461020457806390fc26b1146101bd57610137565b80634ec3b9e3116100ff5780634ec3b9e3146101b557806351152de1146101bd5780635fde601d146101c557806368a9ef1c146101cd578063715018a6146101d557610137565b8063047411e71461013c578063095ea7b31461015a57806323b872dd1461017a578063395093511461018d57806345b637a9146101a0575b600080fd5b61014461025d565b60405161015191906109a4565b60405180910390f35b61016d61016836600461078d565b610263565b6040516101519190610996565b61016d610188366004610740565b61027a565b61016d61019b36600461078d565b6102d1565b6101a861030d565b60405161015191906109b2565b61014461031c565b610144610321565b610144610326565b61014461032b565b6101dd610330565b005b6101446103a7565b6101ef6103ac565b6040516101519190610988565b61016d6103bb565b6101a86103cc565b6101ef6103db565b61016d61022236600461078d565b610415565b61016d61023536600461078d565b610451565b6101a861045e565b61014461046d565b6101dd61025836600461071a565b610475565b600f5481565b60006102703384846104a5565b5060015b92915050565b6000610287848484610559565b6001600160a01b0384166000908152600e60209081526040808320338085529252909120546102c79186916102c2908663ffffffff61065516565b6104a5565b5060019392505050565b336000818152600e602090815260408083206001600160a01b038716845290915281205490916102709185906102c2908663ffffffff61066a16565b6004546001600160a01b031681565b601e81565b600a81565b600281565b600481565b6103386103bb565b61035d5760405162461bcd60e51b8152600401610354906109f0565b60405180910390fd5b600080546040516001600160a01b03909116907f8be0079c531659141344cd1fd0a4f28419497f9722a3daafe3b4186f6b6457e0908390a3600080546001600160a01b0319169055565b600781565b6000546001600160a01b031690565b6000546001600160a01b0316331490565b6006546001600160a01b031681565b60408051808201909152600a81526969457865634b6974747960b01b6020909101527399c2268479b93fde36232351229815df80837e2481565b336000818152600e602090815260408083206001600160a01b038716845290915281205490916102709185906102c2908663ffffffff61065516565b6000610270338484610559565b6005546001600160a01b031681565b633b9aca0081565b61047d6103bb565b6104995760405162461bcd60e51b8152600401610354906109f0565b6104a281610683565b50565b6001600160a01b0383166104cb5760405162461bcd60e51b815260040161035490610a10565b6001600160a01b0382166104f15760405162461bcd60e51b8152600401610354906109e0565b6001600160a01b038084166000818152600e602090815260408083209487168084529490915290819020849055517f8c5be1e5ebec7d5bd14f71427d1e84f3dd0314c0f7b2291e5b200ac8c7c3b9259061054c9085906109a4565b60405180910390a3505050565b6001600160a01b03831661057f5760405162461bcd60e51b815260040161035490610a00565b6001600160a01b0382166105a55760405162461bcd60e51b8152600401610354906109c0565b6001600160a01b0383166000908152600c60205260409020546105ce908263ffffffff61065516565b6001600160a01b038085166000908152600c60205260408082209390935590841681522054610603908263ffffffff61066a16565b6001600160a01b038084166000818152600c602052604090819020939093559151908516907fddf252ad1be2c89b69c2b068fc378daa952ba7f163c4a11628f55a4df523b3ef9061054c9085906109a4565b60008282111561066457600080fd5b50900390565b60008282018381101561067c57600080fd5b9392505050565b6001600160a01b0381166106a95760405162461bcd60e51b8152600401610354906109d0565b600080546040516001600160a01b03808516939216917f8be0079c531659141344cd1fd0a4f28419497f9722a3daafe3b4186f6b6457e091a3600080546001600160a01b0319166001600160a01b0392909216919091179055565b803561027481610a53565b803561027481610a67565b60006020828403121561072c57600080fd5b60006107388484610704565b949350505050565b60008060006060848603121561075557600080fd5b60006107618686610704565b935050602061077286828701610704565b92505060406107838682870161070f565b9150509250925092565b600080604083850312156107a057600080fd5b60006107ac8585610704565b92505060206107bd8582860161070f565b9150509250929050565b6107d081610a29565b82525050565b6107d081610a34565b6107d081610a39565b6107d081610a48565b60006107fe602383610a20565b7f45524332303a207472616e7366657220746f20746865207a65726f206164647281526265737360e81b602082015260400192915050565b6000610843602683610a20565b7f4f776e61626c653a206e6577206f776e657220697320746865207a65726f206181526564647265737360d01b602082015260400192915050565b600061088b602283610a20565b7f45524332303a20617070726f766520746f20746865207a65726f206164647265815261737360f01b602082015260400192915050565b60006108cf602083610a20565b7f4f776e61626c653a2063616c6c6572206973206e6f7420746865206f776e6572815260200192915050565b6000610908602583610a20565b7f45524332303a207472616e736665722066726f6d20746865207a65726f206164815264647265737360d81b602082015260400192915050565b600061094f602483610a20565b7f45524332303a20617070726f76652066726f6d20746865207a65726f206164648152637265737360e01b602082015260400192915050565b6020810161027482846107c7565b6020810161027482846107d6565b6020810161027482846107df565b6020810161027482846107e8565b60208082528101610274816107f1565b6020808252810161027481610836565b602080825281016102748161087e565b60208082528101610274816108c2565b60208082528101610274816108fb565b6020808252810161027481610942565b90815260200190565b600061027482610a3c565b151590565b90565b6001600160a01b031690565b600061027482610a29565b610a5c81610a29565b81146104a257600080fd5b610a5c81610a3956fea365627a7a72305820ff6657a0c84acb83b2ec940d97c9c7ccb5985438398e72b126bf41f8a2f592746c6578706572696d656e74616cf564736f6c634300050a00408be0079c531659141344cd1fd0a4f28419497f9722a3daafe3b4186f6b6457e0",
  "source": "pragma solidity ^0.5.10;\npragma experimental ABIEncoderV2;\n\nimport \"../IexecDelegateBase.sol\";\n\n\ninterface IexecERC20\n{\n\tevent Transfer(address indexed from, address indexed to, uint256 value);\n\tevent Approval(address indexed owner, address indexed spender, uint256 value);\n\n\tfunction transfer(address,uint256) external returns (bool);\n\tfunction approve(address,uint256) external returns (bool);\n\tfunction transferFrom(address,address,uint256) external returns (bool);\n\tfunction increaseAllowance(address,uint256) external returns (bool);\n\tfunction decreaseAllowance(address,uint256) external returns (bool);\n}\n\ncontract IexecERC20Common is IexecStore\n{\n\tusing SafeMath for uint256;\n\n\tevent Transfer(address indexed from, address indexed to, uint256 value);\n\tevent Approval(address indexed owner, address indexed spender, uint256 value);\n\n\tfunction _transfer(address sender, address recipient, uint256 amount)\n\t\tinternal\n\t{\n\t\t\trequire(sender != address(0), \"ERC20: transfer from the zero address\");\n\t\t\trequire(recipient != address(0), \"ERC20: transfer to the zero address\");\n\n\t\t\tm_balances[sender] = m_balances[sender].sub(amount);\n\t\t\tm_balances[recipient] = m_balances[recipient].add(amount);\n\t\t\temit Transfer(sender, recipient, amount);\n\t}\n\n\tfunction _mint(address account, uint256 amount)\n\t\tinternal\n\t{\n\t\t\trequire(account != address(0), \"ERC20: mint to the zero address\");\n\n\t\t\tm_totalSupply = m_totalSupply.add(amount);\n\t\t\tm_balances[account] = m_balances[account].add(amount);\n\t\t\temit Transfer(address(0), account, amount);\n\t}\n\n\tfunction _burn(address account, uint256 value)\n\t\tinternal\n\t{\n\t\t\trequire(account != address(0), \"ERC20: burn from the zero address\");\n\n\t\t\tm_totalSupply = m_totalSupply.sub(value);\n\t\t\tm_balances[account] = m_balances[account].sub(value);\n\t\t\temit Transfer(account, address(0), value);\n\t}\n\n\tfunction _approve(address owner, address spender, uint256 value)\n\t\tinternal\n\t{\n\t\t\trequire(owner != address(0), \"ERC20: approve from the zero address\");\n\t\t\trequire(spender != address(0), \"ERC20: approve to the zero address\");\n\n\t\t\tm_allowances[owner][spender] = value;\n\t\t\temit Approval(owner, spender, value);\n\t}\n}\n\ncontract IexecERC20Delegate is IexecERC20, IexecDelegateBase, IexecERC20Common\n{\n\tfunction transfer(address recipient, uint256 amount)\n\t\tpublic returns (bool)\n\t{\n\t\t\t_transfer(msg.sender, recipient, amount);\n\t\t\treturn true;\n\t}\n\n\tfunction approve(address spender, uint256 value)\n\t\tpublic returns (bool)\n\t{\n\t\t\t_approve(msg.sender, spender, value);\n\t\t\treturn true;\n\t}\n\n\tfunction transferFrom(address sender, address recipient, uint256 amount)\n\t\tpublic returns (bool)\n\t{\n\t\t\t_transfer(sender, recipient, amount);\n\t\t\t_approve(sender, msg.sender, m_allowances[sender][msg.sender].sub(amount));\n\t\t\treturn true;\n\t}\n\n\tfunction increaseAllowance(address spender, uint256 addedValue)\n\t\tpublic returns (bool)\n\t{\n\t\t\t_approve(msg.sender, spender, m_allowances[msg.sender][spender].add(addedValue));\n\t\t\treturn true;\n\t}\n\n\n\tfunction decreaseAllowance(address spender, uint256 subtractedValue)\n\t\tpublic returns (bool)\n\t{\n\t\t\t_approve(msg.sender, spender, m_allowances[msg.sender][spender].sub(subtractedValue));\n\t\t\treturn true;\n\t}\n}\n",
  "sourcePath": "/home/amxx/Work/iExec/code/PoCo-dev/contracts/delegates/IexecERC20.sol",
  "compiler": {
    "name": "solc",
    "version": "0.5.10+commit.5a6ea5b1.Emscripten.clang"
  },
  "schemaVersion": "3.0.11",
  "updatedAt": "2019-06-27T08:17:24.570Z",
  "devdoc": {
    "methods": {
      "isOwner()": {
        "details": "Returns true if the caller is the current owner."
      },
      "owner()": {
        "details": "Returns the address of the current owner."
      },
      "renounceOwnership()": {
        "details": "Leaves the contract without owner. It will not be possible to call `onlyOwner` functions anymore. Can only be called by the current owner.     * > Note: Renouncing ownership will leave the contract without an owner, thereby removing any functionality that is only available to the owner."
      },
      "transferOwnership(address)": {
        "details": "Transfers ownership of the contract to a new account (`newOwner`). Can only be called by the current owner."
      }
    }
  },
  "userdoc": {
    "methods": {}
  }
}