{
  "contractName": "IexecLibOrders_v5",
  "abi": [
    {
      "inputs": [],
      "name": "APPORDEROPERATION_TYPEHASH",
      "outputs": [
        {
          "internalType": "bytes32",
          "name": "",
          "type": "bytes32"
        }
      ],
      "stateMutability": "view",
      "type": "function"
    },
    {
      "inputs": [],
      "name": "APPORDER_TYPEHASH",
      "outputs": [
        {
          "internalType": "bytes32",
          "name": "",
          "type": "bytes32"
        }
      ],
      "stateMutability": "view",
      "type": "function"
    },
    {
      "inputs": [],
      "name": "DATASETORDEROPERATION_TYPEHASH",
      "outputs": [
        {
          "internalType": "bytes32",
          "name": "",
          "type": "bytes32"
        }
      ],
      "stateMutability": "view",
      "type": "function"
    },
    {
      "inputs": [],
      "name": "DATASETORDER_TYPEHASH",
      "outputs": [
        {
          "internalType": "bytes32",
          "name": "",
          "type": "bytes32"
        }
      ],
      "stateMutability": "view",
      "type": "function"
    },
    {
      "inputs": [],
      "name": "EIP712DOMAIN_TYPEHASH",
      "outputs": [
        {
          "internalType": "bytes32",
          "name": "",
          "type": "bytes32"
        }
      ],
      "stateMutability": "view",
      "type": "function"
    },
    {
      "inputs": [],
      "name": "REQUESTORDEROPERATION_TYPEHASH",
      "outputs": [
        {
          "internalType": "bytes32",
          "name": "",
          "type": "bytes32"
        }
      ],
      "stateMutability": "view",
      "type": "function"
    },
    {
      "inputs": [],
      "name": "REQUESTORDER_TYPEHASH",
      "outputs": [
        {
          "internalType": "bytes32",
          "name": "",
          "type": "bytes32"
        }
      ],
      "stateMutability": "view",
      "type": "function"
    },
    {
      "inputs": [],
      "name": "WORKERPOOLORDEROPERATION_TYPEHASH",
      "outputs": [
        {
          "internalType": "bytes32",
          "name": "",
          "type": "bytes32"
        }
      ],
      "stateMutability": "view",
      "type": "function"
    },
    {
      "inputs": [],
      "name": "WORKERPOOLORDER_TYPEHASH",
      "outputs": [
        {
          "internalType": "bytes32",
          "name": "",
          "type": "bytes32"
        }
      ],
      "stateMutability": "view",
      "type": "function"
    },
    {
      "inputs": [
        {
          "components": [
            {
              "internalType": "address",
              "name": "dataset",
              "type": "address"
            },
            {
              "internalType": "uint256",
              "name": "datasetprice",
              "type": "uint256"
            },
            {
              "internalType": "uint256",
              "name": "volume",
              "type": "uint256"
            },
            {
              "internalType": "bytes32",
              "name": "tag",
              "type": "bytes32"
            },
            {
              "internalType": "address",
              "name": "apprestrict",
              "type": "address"
            },
            {
              "internalType": "address",
              "name": "workerpoolrestrict",
              "type": "address"
            },
            {
              "internalType": "address",
              "name": "requesterrestrict",
              "type": "address"
            },
            {
              "internalType": "bytes32",
              "name": "salt",
              "type": "bytes32"
            },
            {
              "internalType": "bytes",
              "name": "sign",
              "type": "bytes"
            }
          ],
          "internalType": "struct IexecLibOrders_v5.DatasetOrder",
          "name": "_datasetorder",
          "type": "tuple"
        }
      ],
      "name": "hash",
      "outputs": [
        {
          "internalType": "bytes32",
          "name": "datasethash",
          "type": "bytes32"
        }
      ],
      "stateMutability": "pure",
      "type": "function"
    },
    {
      "inputs": [
        {
          "components": [
            {
              "components": [
                {
                  "internalType": "address",
                  "name": "app",
                  "type": "address"
                },
                {
                  "internalType": "uint256",
                  "name": "appmaxprice",
                  "type": "uint256"
                },
                {
                  "internalType": "address",
                  "name": "dataset",
                  "type": "address"
                },
                {
                  "internalType": "uint256",
                  "name": "datasetmaxprice",
                  "type": "uint256"
                },
                {
                  "internalType": "address",
                  "name": "workerpool",
                  "type": "address"
                },
                {
                  "internalType": "uint256",
                  "name": "workerpoolmaxprice",
                  "type": "uint256"
                },
                {
                  "internalType": "address",
                  "name": "requester",
                  "type": "address"
                },
                {
                  "internalType": "uint256",
                  "name": "volume",
                  "type": "uint256"
                },
                {
                  "internalType": "bytes32",
                  "name": "tag",
                  "type": "bytes32"
                },
                {
                  "internalType": "uint256",
                  "name": "category",
                  "type": "uint256"
                },
                {
                  "internalType": "uint256",
                  "name": "trust",
                  "type": "uint256"
                },
                {
                  "internalType": "address",
                  "name": "beneficiary",
                  "type": "address"
                },
                {
                  "internalType": "address",
                  "name": "callback",
                  "type": "address"
                },
                {
                  "internalType": "string",
                  "name": "params",
                  "type": "string"
                },
                {
                  "internalType": "bytes32",
                  "name": "salt",
                  "type": "bytes32"
                },
                {
                  "internalType": "bytes",
                  "name": "sign",
                  "type": "bytes"
                }
              ],
              "internalType": "struct IexecLibOrders_v5.RequestOrder",
              "name": "order",
              "type": "tuple"
            },
            {
              "internalType": "enum IexecLibOrders_v5.OrderOperationEnum",
              "name": "operation",
              "type": "IexecLibOrders_v5.OrderOperationEnum"
            },
            {
              "internalType": "bytes",
              "name": "sign",
              "type": "bytes"
            }
          ],
          "internalType": "struct IexecLibOrders_v5.RequestOrderOperation",
          "name": "_requestorderoperation",
          "type": "tuple"
        }
      ],
      "name": "hash",
      "outputs": [
        {
          "internalType": "bytes32",
          "name": "",
          "type": "bytes32"
        }
      ],
      "stateMutability": "pure",
      "type": "function"
    },
    {
      "inputs": [
        {
          "components": [
            {
              "components": [
                {
                  "internalType": "address",
                  "name": "dataset",
                  "type": "address"
                },
                {
                  "internalType": "uint256",
                  "name": "datasetprice",
                  "type": "uint256"
                },
                {
                  "internalType": "uint256",
                  "name": "volume",
                  "type": "uint256"
                },
                {
                  "internalType": "bytes32",
                  "name": "tag",
                  "type": "bytes32"
                },
                {
                  "internalType": "address",
                  "name": "apprestrict",
                  "type": "address"
                },
                {
                  "internalType": "address",
                  "name": "workerpoolrestrict",
                  "type": "address"
                },
                {
                  "internalType": "address",
                  "name": "requesterrestrict",
                  "type": "address"
                },
                {
                  "internalType": "bytes32",
                  "name": "salt",
                  "type": "bytes32"
                },
                {
                  "internalType": "bytes",
                  "name": "sign",
                  "type": "bytes"
                }
              ],
              "internalType": "struct IexecLibOrders_v5.DatasetOrder",
              "name": "order",
              "type": "tuple"
            },
            {
              "internalType": "enum IexecLibOrders_v5.OrderOperationEnum",
              "name": "operation",
              "type": "IexecLibOrders_v5.OrderOperationEnum"
            },
            {
              "internalType": "bytes",
              "name": "sign",
              "type": "bytes"
            }
          ],
          "internalType": "struct IexecLibOrders_v5.DatasetOrderOperation",
          "name": "_datasetorderoperation",
          "type": "tuple"
        }
      ],
      "name": "hash",
      "outputs": [
        {
          "internalType": "bytes32",
          "name": "",
          "type": "bytes32"
        }
      ],
      "stateMutability": "pure",
      "type": "function"
    },
    {
      "inputs": [
        {
          "components": [
            {
              "components": [
                {
                  "internalType": "address",
                  "name": "workerpool",
                  "type": "address"
                },
                {
                  "internalType": "uint256",
                  "name": "workerpoolprice",
                  "type": "uint256"
                },
                {
                  "internalType": "uint256",
                  "name": "volume",
                  "type": "uint256"
                },
                {
                  "internalType": "bytes32",
                  "name": "tag",
                  "type": "bytes32"
                },
                {
                  "internalType": "uint256",
                  "name": "category",
                  "type": "uint256"
                },
                {
                  "internalType": "uint256",
                  "name": "trust",
                  "type": "uint256"
                },
                {
                  "internalType": "address",
                  "name": "apprestrict",
                  "type": "address"
                },
                {
                  "internalType": "address",
                  "name": "datasetrestrict",
                  "type": "address"
                },
                {
                  "internalType": "address",
                  "name": "requesterrestrict",
                  "type": "address"
                },
                {
                  "internalType": "bytes32",
                  "name": "salt",
                  "type": "bytes32"
                },
                {
                  "internalType": "bytes",
                  "name": "sign",
                  "type": "bytes"
                }
              ],
              "internalType": "struct IexecLibOrders_v5.WorkerpoolOrder",
              "name": "order",
              "type": "tuple"
            },
            {
              "internalType": "enum IexecLibOrders_v5.OrderOperationEnum",
              "name": "operation",
              "type": "IexecLibOrders_v5.OrderOperationEnum"
            },
            {
              "internalType": "bytes",
              "name": "sign",
              "type": "bytes"
            }
          ],
          "internalType": "struct IexecLibOrders_v5.WorkerpoolOrderOperation",
          "name": "_workerpoolorderoperation",
          "type": "tuple"
        }
      ],
      "name": "hash",
      "outputs": [
        {
          "internalType": "bytes32",
          "name": "",
          "type": "bytes32"
        }
      ],
      "stateMutability": "pure",
      "type": "function"
    },
    {
      "inputs": [
        {
          "components": [
            {
              "components": [
                {
                  "internalType": "address",
                  "name": "app",
                  "type": "address"
                },
                {
                  "internalType": "uint256",
                  "name": "appprice",
                  "type": "uint256"
                },
                {
                  "internalType": "uint256",
                  "name": "volume",
                  "type": "uint256"
                },
                {
                  "internalType": "bytes32",
                  "name": "tag",
                  "type": "bytes32"
                },
                {
                  "internalType": "address",
                  "name": "datasetrestrict",
                  "type": "address"
                },
                {
                  "internalType": "address",
                  "name": "workerpoolrestrict",
                  "type": "address"
                },
                {
                  "internalType": "address",
                  "name": "requesterrestrict",
                  "type": "address"
                },
                {
                  "internalType": "bytes32",
                  "name": "salt",
                  "type": "bytes32"
                },
                {
                  "internalType": "bytes",
                  "name": "sign",
                  "type": "bytes"
                }
              ],
              "internalType": "struct IexecLibOrders_v5.AppOrder",
              "name": "order",
              "type": "tuple"
            },
            {
              "internalType": "enum IexecLibOrders_v5.OrderOperationEnum",
              "name": "operation",
              "type": "IexecLibOrders_v5.OrderOperationEnum"
            },
            {
              "internalType": "bytes",
              "name": "sign",
              "type": "bytes"
            }
          ],
          "internalType": "struct IexecLibOrders_v5.AppOrderOperation",
          "name": "_apporderoperation",
          "type": "tuple"
        }
      ],
      "name": "hash",
      "outputs": [
        {
          "internalType": "bytes32",
          "name": "",
          "type": "bytes32"
        }
      ],
      "stateMutability": "pure",
      "type": "function"
    },
    {
      "inputs": [
        {
          "components": [
            {
              "internalType": "string",
              "name": "name",
              "type": "string"
            },
            {
              "internalType": "string",
              "name": "version",
              "type": "string"
            },
            {
              "internalType": "uint256",
              "name": "chainId",
              "type": "uint256"
            },
            {
              "internalType": "address",
              "name": "verifyingContract",
              "type": "address"
            }
          ],
          "internalType": "struct IexecLibOrders_v5.EIP712Domain",
          "name": "_domain",
          "type": "tuple"
        }
      ],
      "name": "hash",
      "outputs": [
        {
          "internalType": "bytes32",
          "name": "domainhash",
          "type": "bytes32"
        }
      ],
      "stateMutability": "pure",
      "type": "function"
    },
    {
      "inputs": [
        {
          "components": [
            {
              "internalType": "address",
              "name": "app",
              "type": "address"
            },
            {
              "internalType": "uint256",
              "name": "appprice",
              "type": "uint256"
            },
            {
              "internalType": "uint256",
              "name": "volume",
              "type": "uint256"
            },
            {
              "internalType": "bytes32",
              "name": "tag",
              "type": "bytes32"
            },
            {
              "internalType": "address",
              "name": "datasetrestrict",
              "type": "address"
            },
            {
              "internalType": "address",
              "name": "workerpoolrestrict",
              "type": "address"
            },
            {
              "internalType": "address",
              "name": "requesterrestrict",
              "type": "address"
            },
            {
              "internalType": "bytes32",
              "name": "salt",
              "type": "bytes32"
            },
            {
              "internalType": "bytes",
              "name": "sign",
              "type": "bytes"
            }
          ],
          "internalType": "struct IexecLibOrders_v5.AppOrder",
          "name": "_apporder",
          "type": "tuple"
        }
      ],
      "name": "hash",
      "outputs": [
        {
          "internalType": "bytes32",
          "name": "apphash",
          "type": "bytes32"
        }
      ],
      "stateMutability": "pure",
      "type": "function"
    },
    {
      "inputs": [
        {
          "components": [
            {
              "internalType": "address",
              "name": "app",
              "type": "address"
            },
            {
              "internalType": "uint256",
              "name": "appmaxprice",
              "type": "uint256"
            },
            {
              "internalType": "address",
              "name": "dataset",
              "type": "address"
            },
            {
              "internalType": "uint256",
              "name": "datasetmaxprice",
              "type": "uint256"
            },
            {
              "internalType": "address",
              "name": "workerpool",
              "type": "address"
            },
            {
              "internalType": "uint256",
              "name": "workerpoolmaxprice",
              "type": "uint256"
            },
            {
              "internalType": "address",
              "name": "requester",
              "type": "address"
            },
            {
              "internalType": "uint256",
              "name": "volume",
              "type": "uint256"
            },
            {
              "internalType": "bytes32",
              "name": "tag",
              "type": "bytes32"
            },
            {
              "internalType": "uint256",
              "name": "category",
              "type": "uint256"
            },
            {
              "internalType": "uint256",
              "name": "trust",
              "type": "uint256"
            },
            {
              "internalType": "address",
              "name": "beneficiary",
              "type": "address"
            },
            {
              "internalType": "address",
              "name": "callback",
              "type": "address"
            },
            {
              "internalType": "string",
              "name": "params",
              "type": "string"
            },
            {
              "internalType": "bytes32",
              "name": "salt",
              "type": "bytes32"
            },
            {
              "internalType": "bytes",
              "name": "sign",
              "type": "bytes"
            }
          ],
          "internalType": "struct IexecLibOrders_v5.RequestOrder",
          "name": "_requestorder",
          "type": "tuple"
        }
      ],
      "name": "hash",
      "outputs": [
        {
          "internalType": "bytes32",
          "name": "requesthash",
          "type": "bytes32"
        }
      ],
      "stateMutability": "pure",
      "type": "function"
    },
    {
      "inputs": [
        {
          "components": [
            {
              "internalType": "address",
              "name": "workerpool",
              "type": "address"
            },
            {
              "internalType": "uint256",
              "name": "workerpoolprice",
              "type": "uint256"
            },
            {
              "internalType": "uint256",
              "name": "volume",
              "type": "uint256"
            },
            {
              "internalType": "bytes32",
              "name": "tag",
              "type": "bytes32"
            },
            {
              "internalType": "uint256",
              "name": "category",
              "type": "uint256"
            },
            {
              "internalType": "uint256",
              "name": "trust",
              "type": "uint256"
            },
            {
              "internalType": "address",
              "name": "apprestrict",
              "type": "address"
            },
            {
              "internalType": "address",
              "name": "datasetrestrict",
              "type": "address"
            },
            {
              "internalType": "address",
              "name": "requesterrestrict",
              "type": "address"
            },
            {
              "internalType": "bytes32",
              "name": "salt",
              "type": "bytes32"
            },
            {
              "internalType": "bytes",
              "name": "sign",
              "type": "bytes"
            }
          ],
          "internalType": "struct IexecLibOrders_v5.WorkerpoolOrder",
          "name": "_workerpoolorder",
          "type": "tuple"
        }
      ],
      "name": "hash",
      "outputs": [
        {
          "internalType": "bytes32",
          "name": "workerpoolhash",
          "type": "bytes32"
        }
      ],
      "stateMutability": "pure",
      "type": "function"
    }
  ],
  "bytecode": "0x610f5b610026600b82828239805160001a60731461001957fe5b30600052607381538281f3fe73000000000000000000000000000000000000000030146080604052600436106101205760003560e01c8063735f5619116100ac5780639a6f72ee1161007b5780639a6f72ee146101fb578063b75cdd5314610203578063c49f91d31461020b578063c4b7bfc314610213578063fed985fe1461021b57610120565b8063735f5619146101ba57806374147c4d146101c25780637c0d54d3146101d55780638ac03f33146101e857610120565b806359b123db116100f357806359b123db1461017c5780635b559f6a1461018457806365db1dbb146101975780636cf30b8b1461019f5780636f84d2da146101b257610120565b806311b2eee214610125578063207dbbfe1461014e57806320aabe53146101565780634118eb9814610169575b600080fd5b610138610133366004610ab2565b61022e565b6040516101459190610d76565b60405180910390f35b6101386102ac565b610138610164366004610b92565b6102d0565b610138610177366004610a78565b610315565b610138610345565b610138610192366004610c63565b610369565b610138610399565b6101386101ad366004610a78565b6103bd565b6101386103ed565b610138610411565b6101386101d0366004610ae4565b610435565b6101386101e3366004610ab2565b610491565b6101386101f6366004610c31565b6104f2565b6101386105c0565b6101386105e4565b610138610608565b61013861062c565b610138610229366004610cc1565b610650565b80516020808301516040808501516060860151608087015160a088015160c089015160e08a0151955160009961028f997f6cfc932a5a3d22c4359295b9f433edff52b60703fa47690a04a83e40933dd47c9991989197969594939201610dba565b604051602081830303815290604052805190602001209050919050565b7f60815a0eeec47dddf1615fe53b31d016c31444e01b9d796db365443a6445d00881565b80516000907f0ded7b52c2d77595a40d242eca751df172b18e686326dbbed3f4748828af77c790610300906104f2565b60208085015160405161028f94939201610e91565b80516000907f075eb6f7578ff4292c241bd2484cd5c1d5e6ecc2ddd3317e1d8176b5a45865ec906103009061022e565b7f322d980b7d7a6a1f7c39ff0c5445da6ae1d8e0393ff0dd468c8be3e2c864438881565b80516000907f322d980b7d7a6a1f7c39ff0c5445da6ae1d8e0393ff0dd468c8be3e2c86443889061030090610650565b7faa3429fb281b34691803133d3d978a75bb77c617ed6bc9aa162b9b30920022bb81565b80516000907f0638bb0702457e2b4b01be8a202579b8bf97e587fb4f2cc4d4aad01f21a06ee09061030090610491565b7f6cfc932a5a3d22c4359295b9f433edff52b60703fa47690a04a83e40933dd47c81565b7f0ded7b52c2d77595a40d242eca751df172b18e686326dbbed3f4748828af77c781565b60007f8b73c3c69bb8fe3d512ecc4cf759cc79239f7b179b0ffacaa9a75d522b39400f60001b8260000151805190602001208360200151805190602001208460400151856060015160405160200161028f959493929190610e65565b80516020808301516040808501516060860151608087015160a088015160c089015160e08a0151955160009961028f997f60815a0eeec47dddf1615fe53b31d016c31444e01b9d796db365443a6445d0089991989197969594939201610dba565b80516020808301516040808501516060860151608087015160a08801519351600097610547977ff24e853034a3a450aba845a82914fbb564ad85accca6cf62be112a154520fae0979196919594939201610d7f565b60408051601f198184030181529082905260c084015160e08501516101008601516101208701516101408801516101608901516101808a01516101a08b015180516020918201206101c08d0151999a6105a29a919201610d22565b60408051601f198184030181529082905261028f9291602001610cf3565b7ff24e853034a3a450aba845a82914fbb564ad85accca6cf62be112a154520fae081565b7f0638bb0702457e2b4b01be8a202579b8bf97e587fb4f2cc4d4aad01f21a06ee081565b7f8b73c3c69bb8fe3d512ecc4cf759cc79239f7b179b0ffacaa9a75d522b39400f81565b7f075eb6f7578ff4292c241bd2484cd5c1d5e6ecc2ddd3317e1d8176b5a45865ec81565b80516020808301516040808501516060860151608087015160a088015160c089015160e08a01516101008b01516101208c0151975160009b61028f9b7faa3429fb281b34691803133d3d978a75bb77c617ed6bc9aa162b9b30920022bb9b919a91999897969594939201610e08565b80356001600160a01b03811681146106d657600080fd5b92915050565b600082601f8301126106ec578081fd5b81356001600160401b03811115610701578182fd5b610714601f8201601f1916602001610eb7565b915080825283602082850101111561072b57600080fd5b8060208401602084013760009082016020015292915050565b8035600281106106d657600080fd5b600060608284031215610764578081fd5b61076e6060610eb7565b905081356001600160401b038082111561078757600080fd5b610793858386016107d4565b83526107a28560208601610744565b602084015260408401359150808211156107bb57600080fd5b506107c8848285016106dc565b60408301525092915050565b60006101208083850312156107e7578182fd5b6107f081610eb7565b9150506107fd83836106bf565b815260208201356020820152604082013560408201526060820135606082015261082a83608084016106bf565b608082015261083c8360a084016106bf565b60a082015261084e8360c084016106bf565b60c082015260e082013560e0820152610100808301356001600160401b0381111561087857600080fd5b610884858286016106dc565b82840152505092915050565b60006102008083850312156108a3578182fd5b6108ac81610eb7565b9150506108b983836106bf565b8152602082013560208201526108d283604084016106bf565b6040820152606082013560608201526108ee83608084016106bf565b608082015260a082013560a082015261090a8360c084016106bf565b60c082015260e08281013590820152610100808301359082015261012080830135908201526101408083013590820152610160610949848285016106bf565b9082015261018061095c848483016106bf565b908201526101a0828101356001600160401b038082111561097c57600080fd5b610988868387016106dc565b838501526101c0925082850135838501526101e09250828501359150808211156109b157600080fd5b50610884858286016106dc565b60006101608083850312156109d1578182fd5b6109da81610eb7565b9150506109e783836106bf565b81526020820135602082015260408201356040820152606082013560608201526080820135608082015260a082013560a0820152610a288360c084016106bf565b60c0820152610a3a8360e084016106bf565b60e0820152610100610a4e848285016106bf565b908201526101208281013590820152610140808301356001600160401b0381111561087857600080fd5b600060208284031215610a89578081fd5b81356001600160401b03811115610a9e578182fd5b610aaa84828501610753565b949350505050565b600060208284031215610ac3578081fd5b81356001600160401b03811115610ad8578182fd5b610aaa848285016107d4565b600060208284031215610af5578081fd5b81356001600160401b0380821115610b0b578283fd5b9083019060808286031215610b1e578283fd5b610b286080610eb7565b823582811115610b36578485fd5b610b42878286016106dc565b825250602083013582811115610b56578485fd5b610b62878286016106dc565b6020830152506040830135604082015260608301359250610b8283610f0d565b6060810192909252509392505050565b600060208284031215610ba3578081fd5b81356001600160401b0380821115610bb9578283fd5b9083019060608286031215610bcc578283fd5b610bd66060610eb7565b823582811115610be4578485fd5b610bf087828601610890565b825250610c008660208501610744565b6020820152604083013582811115610c16578485fd5b610c22878286016106dc565b60408301525095945050505050565b600060208284031215610c42578081fd5b81356001600160401b03811115610c57578182fd5b610aaa84828501610890565b600060208284031215610c74578081fd5b81356001600160401b0380821115610c8a578283fd5b9083019060608286031215610c9d578283fd5b610ca76060610eb7565b823582811115610cb5578485fd5b610bf0878286016109be565b600060208284031215610cd2578081fd5b81356001600160401b03811115610ce7578182fd5b610aaa848285016109be565b60008351610d05818460208801610edd565b835190830190610d19818360208801610edd565b01949350505050565b6001600160a01b03998a1681526020810198909852604088019690965260608701949094526080860192909252851660a085015290931660c083015260e08201929092526101008101919091526101200190565b90815260200190565b9687526001600160a01b03958616602088015260408701949094529184166060860152608085015290911660a083015260c082015260e00190565b9889526001600160a01b0397881660208a0152604089019690965260608801949094526080870192909252841660a0860152831660c085015290911660e08301526101008201526101200190565b9a8b526001600160a01b03998a1660208c015260408b019890985260608a0196909652608089019490945260a088019290925260c0870152841660e086015283166101008501529091166101208301526101408201526101600190565b9485526020850193909352604084019190915260608301526001600160a01b0316608082015260a00190565b838152602081018390526060810160028310610ea957fe5b826040830152949350505050565b6040518181016001600160401b0381118282101715610ed557600080fd5b604052919050565b60005b83811015610ef8578181015183820152602001610ee0565b83811115610f07576000848401525b50505050565b6001600160a01b0381168114610f2257600080fd5b5056fea264697066735822122026257b8c76b135f18b5afe1997209e7f264dc4b0f52c1ba40de0e85d897463c764736f6c634300060c0033",
  "immutableReferences": {},
  "source": "// SPDX-License-Identifier: Apache-2.0\n\n/******************************************************************************\n * Copyright 2020 IEXEC BLOCKCHAIN TECH                                       *\n *                                                                            *\n * Licensed under the Apache License, Version 2.0 (the \"License\");            *\n * you may not use this file except in compliance with the License.           *\n * You may obtain a copy of the License at                                    *\n *                                                                            *\n *     http://www.apache.org/licenses/LICENSE-2.0                             *\n *                                                                            *\n * Unless required by applicable law or agreed to in writing, software        *\n * distributed under the License is distributed on an \"AS IS\" BASIS,          *\n * WITHOUT WARRANTIES OR CONDITIONS OF ANY KIND, either express or implied.   *\n * See the License for the specific language governing permissions and        *\n * limitations under the License.                                             *\n ******************************************************************************/\n\npragma solidity ^0.6.0;\npragma experimental ABIEncoderV2;\n\n\nlibrary IexecLibOrders_v5\n{\n\t// bytes32 public constant             EIP712DOMAIN_TYPEHASH = keccak256('EIP712Domain(string name,string version,uint256 chainId,address verifyingContract)');\n\t// bytes32 public constant                 APPORDER_TYPEHASH = keccak256('AppOrder(address app,uint256 appprice,uint256 volume,bytes32 tag,address datasetrestrict,address workerpoolrestrict,address requesterrestrict,bytes32 salt)');\n\t// bytes32 public constant             DATASETORDER_TYPEHASH = keccak256('DatasetOrder(address dataset,uint256 datasetprice,uint256 volume,bytes32 tag,address apprestrict,address workerpoolrestrict,address requesterrestrict,bytes32 salt)');\n\t// bytes32 public constant          WORKERPOOLORDER_TYPEHASH = keccak256('WorkerpoolOrder(address workerpool,uint256 workerpoolprice,uint256 volume,bytes32 tag,uint256 category,uint256 trust,address apprestrict,address datasetrestrict,address requesterrestrict,bytes32 salt)');\n\t// bytes32 public constant             REQUESTORDER_TYPEHASH = keccak256('RequestOrder(address app,uint256 appmaxprice,address dataset,uint256 datasetmaxprice,address workerpool,uint256 workerpoolmaxprice,address requester,uint256 volume,bytes32 tag,uint256 category,uint256 trust,address beneficiary,address callback,string params,bytes32 salt)');\n\t// bytes32 public constant        APPORDEROPERATION_TYPEHASH = keccak256('AppOrderOperation(AppOrder order,uint256 operation)AppOrder(address app,uint256 appprice,uint256 volume,bytes32 tag,address datasetrestrict,address workerpoolrestrict,address requesterrestrict,bytes32 salt)');\n\t// bytes32 public constant    DATASETORDEROPERATION_TYPEHASH = keccak256('DatasetOrderOperation(DatasetOrder order,uint256 operation)DatasetOrder(address dataset,uint256 datasetprice,uint256 volume,bytes32 tag,address apprestrict,address workerpoolrestrict,address requesterrestrict,bytes32 salt)');\n\t// bytes32 public constant WORKERPOOLORDEROPERATION_TYPEHASH = keccak256('WorkerpoolOrderOperation(WorkerpoolOrder order,uint256 operation)WorkerpoolOrder(address workerpool,uint256 workerpoolprice,uint256 volume,bytes32 tag,uint256 category,uint256 trust,address apprestrict,address datasetrestrict,address requesterrestrict,bytes32 salt)');\n\t// bytes32 public constant    REQUESTORDEROPERATION_TYPEHASH = keccak256('RequestOrderOperation(RequestOrder order,uint256 operation)RequestOrder(address app,uint256 appmaxprice,address dataset,uint256 datasetmaxprice,address workerpool,uint256 workerpoolmaxprice,address requester,uint256 volume,bytes32 tag,uint256 category,uint256 trust,address beneficiary,address callback,string params,bytes32 salt)');\n\tbytes32 public constant             EIP712DOMAIN_TYPEHASH = 0x8b73c3c69bb8fe3d512ecc4cf759cc79239f7b179b0ffacaa9a75d522b39400f;\n\tbytes32 public constant                 APPORDER_TYPEHASH = 0x60815a0eeec47dddf1615fe53b31d016c31444e01b9d796db365443a6445d008;\n\tbytes32 public constant             DATASETORDER_TYPEHASH = 0x6cfc932a5a3d22c4359295b9f433edff52b60703fa47690a04a83e40933dd47c;\n\tbytes32 public constant          WORKERPOOLORDER_TYPEHASH = 0xaa3429fb281b34691803133d3d978a75bb77c617ed6bc9aa162b9b30920022bb;\n\tbytes32 public constant             REQUESTORDER_TYPEHASH = 0xf24e853034a3a450aba845a82914fbb564ad85accca6cf62be112a154520fae0;\n\tbytes32 public constant        APPORDEROPERATION_TYPEHASH = 0x0638bb0702457e2b4b01be8a202579b8bf97e587fb4f2cc4d4aad01f21a06ee0;\n\tbytes32 public constant    DATASETORDEROPERATION_TYPEHASH = 0x075eb6f7578ff4292c241bd2484cd5c1d5e6ecc2ddd3317e1d8176b5a45865ec;\n\tbytes32 public constant WORKERPOOLORDEROPERATION_TYPEHASH = 0x322d980b7d7a6a1f7c39ff0c5445da6ae1d8e0393ff0dd468c8be3e2c8644388;\n\tbytes32 public constant    REQUESTORDEROPERATION_TYPEHASH = 0x0ded7b52c2d77595a40d242eca751df172b18e686326dbbed3f4748828af77c7;\n\n\tenum OrderOperationEnum\n\t{\n\t\tSIGN,\n\t\tCLOSE\n\t}\n\n\tstruct EIP712Domain\n\t{\n\t\tstring  name;\n\t\tstring  version;\n\t\tuint256 chainId;\n\t\taddress verifyingContract;\n\t}\n\n\tstruct AppOrder\n\t{\n\t\taddress app;\n\t\tuint256 appprice;\n\t\tuint256 volume;\n\t\tbytes32 tag;\n\t\taddress datasetrestrict;\n\t\taddress workerpoolrestrict;\n\t\taddress requesterrestrict;\n\t\tbytes32 salt;\n\t\tbytes   sign;\n\t}\n\n\tstruct DatasetOrder\n\t{\n\t\taddress dataset;\n\t\tuint256 datasetprice;\n\t\tuint256 volume;\n\t\tbytes32 tag;\n\t\taddress apprestrict;\n\t\taddress workerpoolrestrict;\n\t\taddress requesterrestrict;\n\t\tbytes32 salt;\n\t\tbytes   sign;\n\t}\n\n\tstruct WorkerpoolOrder\n\t{\n\t\taddress workerpool;\n\t\tuint256 workerpoolprice;\n\t\tuint256 volume;\n\t\tbytes32 tag;\n\t\tuint256 category;\n\t\tuint256 trust;\n\t\taddress apprestrict;\n\t\taddress datasetrestrict;\n\t\taddress requesterrestrict;\n\t\tbytes32 salt;\n\t\tbytes   sign;\n\t}\n\n\tstruct RequestOrder\n\t{\n\t\taddress app;\n\t\tuint256 appmaxprice;\n\t\taddress dataset;\n\t\tuint256 datasetmaxprice;\n\t\taddress workerpool;\n\t\tuint256 workerpoolmaxprice;\n\t\taddress requester;\n\t\tuint256 volume;\n\t\tbytes32 tag;\n\t\tuint256 category;\n\t\tuint256 trust;\n\t\taddress beneficiary;\n\t\taddress callback;\n\t\tstring  params;\n\t\tbytes32 salt;\n\t\tbytes   sign;\n\t}\n\n\tstruct AppOrderOperation\n\t{\n\t\tAppOrder           order;\n\t\tOrderOperationEnum operation;\n\t\tbytes              sign;\n\t}\n\n\tstruct DatasetOrderOperation\n\t{\n\t\tDatasetOrder       order;\n\t\tOrderOperationEnum operation;\n\t\tbytes              sign;\n\t}\n\n\tstruct WorkerpoolOrderOperation\n\t{\n\t\tWorkerpoolOrder    order;\n\t\tOrderOperationEnum operation;\n\t\tbytes              sign;\n\t}\n\n\tstruct RequestOrderOperation\n\t{\n\t\tRequestOrder       order;\n\t\tOrderOperationEnum operation;\n\t\tbytes              sign;\n\t}\n\n\tfunction hash(EIP712Domain memory _domain)\n\tpublic pure returns (bytes32 domainhash)\n\t{\n\t\t/**\n\t\t * Readeable but expensive\n\t\t */\n\t\treturn keccak256(abi.encode(\n\t\t\tEIP712DOMAIN_TYPEHASH\n\t\t,\tkeccak256(bytes(_domain.name))\n\t\t,\tkeccak256(bytes(_domain.version))\n\t\t,\t_domain.chainId\n\t\t,\t_domain.verifyingContract\n\t\t));\n\t}\n\n\tfunction hash(AppOrder memory _apporder)\n\tpublic pure returns (bytes32 apphash)\n\t{\n\t\t/**\n\t\t * Readeable but expensive\n\t\t */\n\t\treturn keccak256(abi.encode(\n\t\t\tAPPORDER_TYPEHASH\n\t\t,\t_apporder.app\n\t\t,\t_apporder.appprice\n\t\t,\t_apporder.volume\n\t\t,\t_apporder.tag\n\t\t,\t_apporder.datasetrestrict\n\t\t,\t_apporder.workerpoolrestrict\n\t\t,\t_apporder.requesterrestrict\n\t\t,\t_apporder.salt\n\t\t));\n\t}\n\n\tfunction hash(DatasetOrder memory _datasetorder)\n\tpublic pure returns (bytes32 datasethash)\n\t{\n\t\t/**\n\t\t * Readeable but expensive\n\t\t */\n\t\treturn keccak256(abi.encode(\n\t\t\tDATASETORDER_TYPEHASH\n\t\t,\t_datasetorder.dataset\n\t\t,\t_datasetorder.datasetprice\n\t\t,\t_datasetorder.volume\n\t\t,\t_datasetorder.tag\n\t\t,\t_datasetorder.apprestrict\n\t\t,\t_datasetorder.workerpoolrestrict\n\t\t,\t_datasetorder.requesterrestrict\n\t\t,\t_datasetorder.salt\n\t\t));\n\t}\n\n\tfunction hash(WorkerpoolOrder memory _workerpoolorder)\n\tpublic pure returns (bytes32 workerpoolhash)\n\t{\n\t\t/**\n\t\t * Readeable but expensive\n\t\t */\n\t\treturn keccak256(abi.encode(\n\t\t\tWORKERPOOLORDER_TYPEHASH\n\t\t,\t_workerpoolorder.workerpool\n\t\t,\t_workerpoolorder.workerpoolprice\n\t\t,\t_workerpoolorder.volume\n\t\t,\t_workerpoolorder.tag\n\t\t,\t_workerpoolorder.category\n\t\t,\t_workerpoolorder.trust\n\t\t,\t_workerpoolorder.apprestrict\n\t\t,\t_workerpoolorder.datasetrestrict\n\t\t,\t_workerpoolorder.requesterrestrict\n\t\t,\t_workerpoolorder.salt\n\t\t));\n\t}\n\n\tfunction hash(RequestOrder memory _requestorder)\n\tpublic pure returns (bytes32 requesthash)\n\t{\n\t\t/**\n\t\t * Readeable but expensive\n\t\t */\n\t\treturn keccak256(abi.encodePacked(\n\t\t\tabi.encode(\n\t\t\t\tREQUESTORDER_TYPEHASH\n\t\t\t,\t_requestorder.app\n\t\t\t,\t_requestorder.appmaxprice\n\t\t\t,\t_requestorder.dataset\n\t\t\t,\t_requestorder.datasetmaxprice\n\t\t\t,\t_requestorder.workerpool\n\t\t\t,\t_requestorder.workerpoolmaxprice\n\t\t\t),\n\t\t\tabi.encode(\n\t\t\t\t_requestorder.requester\n\t\t\t,\t_requestorder.volume\n\t\t\t,\t_requestorder.tag\n\t\t\t,\t_requestorder.category\n\t\t\t,\t_requestorder.trust\n\t\t\t,\t_requestorder.beneficiary\n\t\t\t,\t_requestorder.callback\n\t\t\t,\tkeccak256(bytes(_requestorder.params))\n\t\t\t,\t_requestorder.salt\n\t\t\t)\n\t\t));\n\t}\n\n\tfunction hash(AppOrderOperation memory _apporderoperation)\n\tpublic pure returns (bytes32)\n\t{\n\t\treturn keccak256(abi.encode(\n\t\t\tAPPORDEROPERATION_TYPEHASH\n\t\t,\thash(_apporderoperation.order)\n\t\t,\t_apporderoperation.operation\n\t\t));\n\t}\n\n\tfunction hash(DatasetOrderOperation memory _datasetorderoperation)\n\tpublic pure returns (bytes32)\n\t{\n\t\treturn keccak256(abi.encode(\n\t\t\tDATASETORDEROPERATION_TYPEHASH\n\t\t,\thash(_datasetorderoperation.order)\n\t\t,\t_datasetorderoperation.operation\n\t\t));\n\t}\n\n\tfunction hash(WorkerpoolOrderOperation memory _workerpoolorderoperation)\n\tpublic pure returns (bytes32)\n\t{\n\t\treturn keccak256(abi.encode(\n\t\t\tWORKERPOOLORDEROPERATION_TYPEHASH\n\t\t,\thash(_workerpoolorderoperation.order)\n\t\t,\t_workerpoolorderoperation.operation\n\t\t));\n\t}\n\n\tfunction hash(RequestOrderOperation memory _requestorderoperation)\n\tpublic pure returns (bytes32)\n\t{\n\t\treturn keccak256(abi.encode(\n\t\t\tREQUESTORDEROPERATION_TYPEHASH\n\t\t,\thash(_requestorderoperation.order)\n\t\t,\t_requestorderoperation.operation\n\t\t));\n\t}\n}\n",
  "sourcePath": "/home/amxx/Work/iExec/code/PoCo/contracts/libs/IexecLibOrders_v5.sol",
  "compiler": {
    "name": "solc",
    "version": "0.6.12+commit.27d51765.Emscripten.clang"
  },
  "schemaVersion": "3.2.2",
  "updatedAt": "2020-09-22T12:25:17.199Z",
  "devdoc": {
    "kind": "dev",
    "methods": {},
    "version": 1
  },
  "userdoc": {
    "kind": "user",
    "methods": {},
    "version": 1
  }
}