{
  "contractName": "IexecOrderSignatureDelegate",
  "abi": [
    {
      "constant": true,
      "inputs": [],
      "name": "EIP712DOMAIN_SEPARATOR",
      "outputs": [
        {
          "name": "",
          "type": "bytes32"
        }
      ],
      "payable": false,
      "stateMutability": "view",
      "type": "function"
    },
    {
      "constant": true,
      "inputs": [],
      "name": "appregistry",
      "outputs": [
        {
          "name": "",
          "type": "address"
        }
      ],
      "payable": false,
      "stateMutability": "view",
      "type": "function"
    },
    {
      "constant": true,
      "inputs": [],
      "name": "WORKERPOOL_STAKE_RATIO",
      "outputs": [
        {
          "name": "",
          "type": "uint256"
        }
      ],
      "payable": false,
      "stateMutability": "view",
      "type": "function"
    },
    {
      "constant": true,
      "inputs": [],
      "name": "KITTY_RATIO",
      "outputs": [
        {
          "name": "",
          "type": "uint256"
        }
      ],
      "payable": false,
      "stateMutability": "view",
      "type": "function"
    },
    {
      "constant": true,
      "inputs": [],
      "name": "REVEAL_DEADLINE_RATIO",
      "outputs": [
        {
          "name": "",
          "type": "uint256"
        }
      ],
      "payable": false,
      "stateMutability": "view",
      "type": "function"
    },
    {
      "constant": true,
      "inputs": [],
      "name": "GROUPMEMBER_PURPOSE",
      "outputs": [
        {
          "name": "",
          "type": "uint256"
        }
      ],
      "payable": false,
      "stateMutability": "view",
      "type": "function"
    },
    {
      "constant": false,
      "inputs": [],
      "name": "renounceOwnership",
      "outputs": [],
      "payable": false,
      "stateMutability": "nonpayable",
      "type": "function"
    },
    {
      "constant": true,
      "inputs": [],
      "name": "CONTRIBUTION_DEADLINE_RATIO",
      "outputs": [
        {
          "name": "",
          "type": "uint256"
        }
      ],
      "payable": false,
      "stateMutability": "view",
      "type": "function"
    },
    {
      "constant": true,
      "inputs": [],
      "name": "owner",
      "outputs": [
        {
          "name": "",
          "type": "address"
        }
      ],
      "payable": false,
      "stateMutability": "view",
      "type": "function"
    },
    {
      "constant": true,
      "inputs": [],
      "name": "isOwner",
      "outputs": [
        {
          "name": "",
          "type": "bool"
        }
      ],
      "payable": false,
      "stateMutability": "view",
      "type": "function"
    },
    {
      "constant": true,
      "inputs": [],
      "name": "workerpoolregistry",
      "outputs": [
        {
          "name": "",
          "type": "address"
        }
      ],
      "payable": false,
      "stateMutability": "view",
      "type": "function"
    },
    {
      "constant": true,
      "inputs": [],
      "name": "FINAL_DEADLINE_RATIO",
      "outputs": [
        {
          "name": "",
          "type": "uint256"
        }
      ],
      "payable": false,
      "stateMutability": "view",
      "type": "function"
    },
    {
      "constant": true,
      "inputs": [],
      "name": "KITTY_ADDRESS",
      "outputs": [
        {
          "name": "",
          "type": "address"
        }
      ],
      "payable": false,
      "stateMutability": "view",
      "type": "function"
    },
    {
      "constant": true,
      "inputs": [],
      "name": "datasetregistry",
      "outputs": [
        {
          "name": "",
          "type": "address"
        }
      ],
      "payable": false,
      "stateMutability": "view",
      "type": "function"
    },
    {
      "constant": true,
      "inputs": [],
      "name": "KITTY_MIN",
      "outputs": [
        {
          "name": "",
          "type": "uint256"
        }
      ],
      "payable": false,
      "stateMutability": "view",
      "type": "function"
    },
    {
      "constant": false,
      "inputs": [
        {
          "name": "newOwner",
          "type": "address"
        }
      ],
      "name": "transferOwnership",
      "outputs": [],
      "payable": false,
      "stateMutability": "nonpayable",
      "type": "function"
    },
    {
      "anonymous": false,
      "inputs": [
        {
          "indexed": true,
          "name": "previousOwner",
          "type": "address"
        },
        {
          "indexed": true,
          "name": "newOwner",
          "type": "address"
        }
      ],
      "name": "OwnershipTransferred",
      "type": "event"
    },
    {
      "anonymous": false,
      "inputs": [
        {
          "indexed": false,
          "name": "appHash",
          "type": "bytes32"
        }
      ],
      "name": "ClosedAppOrder",
      "type": "event"
    },
    {
      "anonymous": false,
      "inputs": [
        {
          "indexed": false,
          "name": "datasetHash",
          "type": "bytes32"
        }
      ],
      "name": "ClosedDatasetOrder",
      "type": "event"
    },
    {
      "anonymous": false,
      "inputs": [
        {
          "indexed": false,
          "name": "workerpoolHash",
          "type": "bytes32"
        }
      ],
      "name": "ClosedWorkerpoolOrder",
      "type": "event"
    },
    {
      "anonymous": false,
      "inputs": [
        {
          "indexed": false,
          "name": "requestHash",
          "type": "bytes32"
        }
      ],
      "name": "ClosedRequestOrder",
      "type": "event"
    },
    {
      "constant": false,
      "inputs": [
        {
          "components": [
            {
              "name": "app",
              "type": "address"
            },
            {
              "name": "appprice",
              "type": "uint256"
            },
            {
              "name": "volume",
              "type": "uint256"
            },
            {
              "name": "tag",
              "type": "bytes32"
            },
            {
              "name": "datasetrestrict",
              "type": "address"
            },
            {
              "name": "workerpoolrestrict",
              "type": "address"
            },
            {
              "name": "requesterrestrict",
              "type": "address"
            },
            {
              "name": "salt",
              "type": "bytes32"
            },
            {
              "name": "sign",
              "type": "bytes"
            }
          ],
          "name": "_apporder",
          "type": "tuple"
        }
      ],
      "name": "signAppOrder",
      "outputs": [
        {
          "name": "",
          "type": "bool"
        }
      ],
      "payable": false,
      "stateMutability": "nonpayable",
      "type": "function"
    },
    {
      "constant": false,
      "inputs": [
        {
          "components": [
            {
              "name": "dataset",
              "type": "address"
            },
            {
              "name": "datasetprice",
              "type": "uint256"
            },
            {
              "name": "volume",
              "type": "uint256"
            },
            {
              "name": "tag",
              "type": "bytes32"
            },
            {
              "name": "apprestrict",
              "type": "address"
            },
            {
              "name": "workerpoolrestrict",
              "type": "address"
            },
            {
              "name": "requesterrestrict",
              "type": "address"
            },
            {
              "name": "salt",
              "type": "bytes32"
            },
            {
              "name": "sign",
              "type": "bytes"
            }
          ],
          "name": "_datasetorder",
          "type": "tuple"
        }
      ],
      "name": "signDatasetOrder",
      "outputs": [
        {
          "name": "",
          "type": "bool"
        }
      ],
      "payable": false,
      "stateMutability": "nonpayable",
      "type": "function"
    },
    {
      "constant": false,
      "inputs": [
        {
          "components": [
            {
              "name": "workerpool",
              "type": "address"
            },
            {
              "name": "workerpoolprice",
              "type": "uint256"
            },
            {
              "name": "volume",
              "type": "uint256"
            },
            {
              "name": "tag",
              "type": "bytes32"
            },
            {
              "name": "category",
              "type": "uint256"
            },
            {
              "name": "trust",
              "type": "uint256"
            },
            {
              "name": "apprestrict",
              "type": "address"
            },
            {
              "name": "datasetrestrict",
              "type": "address"
            },
            {
              "name": "requesterrestrict",
              "type": "address"
            },
            {
              "name": "salt",
              "type": "bytes32"
            },
            {
              "name": "sign",
              "type": "bytes"
            }
          ],
          "name": "_workerpoolorder",
          "type": "tuple"
        }
      ],
      "name": "signWorkerpoolOrder",
      "outputs": [
        {
          "name": "",
          "type": "bool"
        }
      ],
      "payable": false,
      "stateMutability": "nonpayable",
      "type": "function"
    },
    {
      "constant": false,
      "inputs": [
        {
          "components": [
            {
              "name": "app",
              "type": "address"
            },
            {
              "name": "appmaxprice",
              "type": "uint256"
            },
            {
              "name": "dataset",
              "type": "address"
            },
            {
              "name": "datasetmaxprice",
              "type": "uint256"
            },
            {
              "name": "workerpool",
              "type": "address"
            },
            {
              "name": "workerpoolmaxprice",
              "type": "uint256"
            },
            {
              "name": "requester",
              "type": "address"
            },
            {
              "name": "volume",
              "type": "uint256"
            },
            {
              "name": "tag",
              "type": "bytes32"
            },
            {
              "name": "category",
              "type": "uint256"
            },
            {
              "name": "trust",
              "type": "uint256"
            },
            {
              "name": "beneficiary",
              "type": "address"
            },
            {
              "name": "callback",
              "type": "address"
            },
            {
              "name": "params",
              "type": "string"
            },
            {
              "name": "salt",
              "type": "bytes32"
            },
            {
              "name": "sign",
              "type": "bytes"
            }
          ],
          "name": "_requestorder",
          "type": "tuple"
        }
      ],
      "name": "signRequestOrder",
      "outputs": [
        {
          "name": "",
          "type": "bool"
        }
      ],
      "payable": false,
      "stateMutability": "nonpayable",
      "type": "function"
    },
    {
      "constant": false,
      "inputs": [
        {
          "components": [
            {
              "name": "app",
              "type": "address"
            },
            {
              "name": "appprice",
              "type": "uint256"
            },
            {
              "name": "volume",
              "type": "uint256"
            },
            {
              "name": "tag",
              "type": "bytes32"
            },
            {
              "name": "datasetrestrict",
              "type": "address"
            },
            {
              "name": "workerpoolrestrict",
              "type": "address"
            },
            {
              "name": "requesterrestrict",
              "type": "address"
            },
            {
              "name": "salt",
              "type": "bytes32"
            },
            {
              "name": "sign",
              "type": "bytes"
            }
          ],
          "name": "_apporder",
          "type": "tuple"
        }
      ],
      "name": "cancelAppOrder",
      "outputs": [
        {
          "name": "",
          "type": "bool"
        }
      ],
      "payable": false,
      "stateMutability": "nonpayable",
      "type": "function"
    },
    {
      "constant": false,
      "inputs": [
        {
          "components": [
            {
              "name": "dataset",
              "type": "address"
            },
            {
              "name": "datasetprice",
              "type": "uint256"
            },
            {
              "name": "volume",
              "type": "uint256"
            },
            {
              "name": "tag",
              "type": "bytes32"
            },
            {
              "name": "apprestrict",
              "type": "address"
            },
            {
              "name": "workerpoolrestrict",
              "type": "address"
            },
            {
              "name": "requesterrestrict",
              "type": "address"
            },
            {
              "name": "salt",
              "type": "bytes32"
            },
            {
              "name": "sign",
              "type": "bytes"
            }
          ],
          "name": "_datasetorder",
          "type": "tuple"
        }
      ],
      "name": "cancelDatasetOrder",
      "outputs": [
        {
          "name": "",
          "type": "bool"
        }
      ],
      "payable": false,
      "stateMutability": "nonpayable",
      "type": "function"
    },
    {
      "constant": false,
      "inputs": [
        {
          "components": [
            {
              "name": "workerpool",
              "type": "address"
            },
            {
              "name": "workerpoolprice",
              "type": "uint256"
            },
            {
              "name": "volume",
              "type": "uint256"
            },
            {
              "name": "tag",
              "type": "bytes32"
            },
            {
              "name": "category",
              "type": "uint256"
            },
            {
              "name": "trust",
              "type": "uint256"
            },
            {
              "name": "apprestrict",
              "type": "address"
            },
            {
              "name": "datasetrestrict",
              "type": "address"
            },
            {
              "name": "requesterrestrict",
              "type": "address"
            },
            {
              "name": "salt",
              "type": "bytes32"
            },
            {
              "name": "sign",
              "type": "bytes"
            }
          ],
          "name": "_workerpoolorder",
          "type": "tuple"
        }
      ],
      "name": "cancelWorkerpoolOrder",
      "outputs": [
        {
          "name": "",
          "type": "bool"
        }
      ],
      "payable": false,
      "stateMutability": "nonpayable",
      "type": "function"
    },
    {
      "constant": false,
      "inputs": [
        {
          "components": [
            {
              "name": "app",
              "type": "address"
            },
            {
              "name": "appmaxprice",
              "type": "uint256"
            },
            {
              "name": "dataset",
              "type": "address"
            },
            {
              "name": "datasetmaxprice",
              "type": "uint256"
            },
            {
              "name": "workerpool",
              "type": "address"
            },
            {
              "name": "workerpoolmaxprice",
              "type": "uint256"
            },
            {
              "name": "requester",
              "type": "address"
            },
            {
              "name": "volume",
              "type": "uint256"
            },
            {
              "name": "tag",
              "type": "bytes32"
            },
            {
              "name": "category",
              "type": "uint256"
            },
            {
              "name": "trust",
              "type": "uint256"
            },
            {
              "name": "beneficiary",
              "type": "address"
            },
            {
              "name": "callback",
              "type": "address"
            },
            {
              "name": "params",
              "type": "string"
            },
            {
              "name": "salt",
              "type": "bytes32"
            },
            {
              "name": "sign",
              "type": "bytes"
            }
          ],
          "name": "_requestorder",
          "type": "tuple"
        }
      ],
      "name": "cancelRequestOrder",
      "outputs": [
        {
          "name": "",
          "type": "bool"
        }
      ],
      "payable": false,
      "stateMutability": "nonpayable",
      "type": "function"
    }
  ],
  "bytecode": "0x60806040819052600080546001600160a01b03191633178082556001600160a01b0316917f8be0079c531659141344cd1fd0a4f28419497f9722a3daafe3b4186f6b6457e0908290a3611a91806100576000396000f3fe608060405234801561001057600080fd5b50600436106101585760003560e01c80637b244832116100c35780639e986e811161007c5780639e986e8114610266578063a3b37a791461026e578063ae510d1914610281578063b1b11d2c14610294578063e2e7a8c11461029c578063f2fde38b146102a457610158565b80637b2448321461022657806384724ddf1461022e5780638da5cb5b146102415780638f32d59b1461025657806390a0f5461461025e57806390fc26b1146101b857610158565b80635fde601d116101155780635fde601d146101d357806368a9ef1c146101db5780636a6e0bed146101e35780636cb9012e146101f6578063715018a614610209578063732e498d1461021357610158565b8063047411e71461015d57806338a754b41461017b57806345b637a91461019b5780634ec3b9e3146101b057806351152de1146101b8578063555859c7146101c0575b600080fd5b6101656102b7565b60405161017291906118d4565b60405180910390f35b61018e610189366004611482565b6102bd565b60405161017291906118c6565b6101a361044d565b6040516101729190611904565b61016561045c565b610165610461565b61018e6101ce36600461144d565b610466565b610165610650565b610165610655565b61018e6101f13660046114b7565b61065a565b61018e61020436600461144d565b61082d565b610211610901565b005b61018e610221366004611482565b610978565b6101656109dc565b61018e61023c36600461144d565b6109e1565b610249610bcb565b60405161017291906118b8565b61018e610bda565b6101a3610beb565b610249610bfa565b61018e61027c36600461144d565b610c34565b61018e61028f3660046114b7565b610d08565b6101a3610ef2565b610165610f01565b6102116102b23660046113eb565b610f09565b600f5481565b604051630409a12760e11b8152600090819073__IexecODBLibOrders_____________________90630813424e906102f9908690600401611943565b60206040518083038186803b15801561031157600080fd5b505af4158015610325573d6000803e3d6000fd5b505050506040513d601f19601f82011682018060405250610349919081019061142f565b600f5460405163176eaa4960e01b815273__IexecODBLibOrders_____________________9263176eaa4992610381926004016118e2565b60206040518083038186803b15801561039957600080fd5b505af41580156103ad573d6000803e3d6000fd5b505050506040513d601f19601f820116820180604052506103d1919081019061142f565b90508260c001516001600160a01b0316336001600160a01b0316146103f557600080fd5b60e08301516000828152601160205260409081902091909155517f582f43f2a741cbe708aae3b8d38a4efc3d09d7e81919697b3ca693f4c444cc059061043c9083906118d4565b60405180910390a150600192915050565b6004546001600160a01b031681565b601e81565b600a81565b604051630af531cd60e21b8152600090819073__IexecODBLibOrders_____________________90632bd4c734906104a2908690600401611932565b60206040518083038186803b1580156104ba57600080fd5b505af41580156104ce573d6000803e3d6000fd5b505050506040513d601f19601f820116820180604052506104f2919081019061142f565b600f5460405163176eaa4960e01b815273__IexecODBLibOrders_____________________9263176eaa499261052a926004016118e2565b60206040518083038186803b15801561054257600080fd5b505af4158015610556573d6000803e3d6000fd5b505050506040513d601f19601f8201168201806040525061057a919081019061142f565b905082600001516001600160a01b0316638da5cb5b6040518163ffffffff1660e01b815260040160206040518083038186803b1580156105b957600080fd5b505afa1580156105cd573d6000803e3d6000fd5b505050506040513d601f19601f820116820180604052506105f19190810190611411565b6001600160a01b0316336001600160a01b03161461060e57600080fd5b6040808401516000838152601160205282902055517fcf52e3228bc482a6656d8ab56c09888b1c5bf6aaadba0185e96a34836f2bb1d49061043c9083906118d4565b600281565b600481565b600081600001516001600160a01b0316638da5cb5b6040518163ffffffff1660e01b815260040160206040518083038186803b15801561069957600080fd5b505afa1580156106ad573d6000803e3d6000fd5b505050506040513d601f19601f820116820180604052506106d19190810190611411565b6001600160a01b0316336001600160a01b0316146106ee57600080fd5b604051632c5a82c360e11b815260019060129060009073__IexecODBLibOrders_____________________906358b505869061072e908890600401611954565b60206040518083038186803b15801561074657600080fd5b505af415801561075a573d6000803e3d6000fd5b505050506040513d601f19601f8201168201806040525061077e919081019061142f565b600f5460405163176eaa4960e01b815273__IexecODBLibOrders_____________________9263176eaa49926107b6926004016118e2565b60206040518083038186803b1580156107ce57600080fd5b505af41580156107e2573d6000803e3d6000fd5b505050506040513d601f19601f82011682018060405250610806919081019061142f565b81526020810191909152604001600020805460ff1916911515919091179055506001919050565b600081600001516001600160a01b0316638da5cb5b6040518163ffffffff1660e01b815260040160206040518083038186803b15801561086c57600080fd5b505afa158015610880573d6000803e3d6000fd5b505050506040513d601f19601f820116820180604052506108a49190810190611411565b6001600160a01b0316336001600160a01b0316146108c157600080fd5b604051630495132960e01b815260019060129060009073__IexecODBLibOrders_____________________9063049513299061072e908890600401611932565b610909610bda565b61092e5760405162461bcd60e51b815260040161092590611922565b60405180910390fd5b600080546040516001600160a01b03909116907f8be0079c531659141344cd1fd0a4f28419497f9722a3daafe3b4186f6b6457e0908390a3600080546001600160a01b0319169055565b60008160c001516001600160a01b0316336001600160a01b03161461099c57600080fd5b604051630409a12760e11b815260019060129060009073__IexecODBLibOrders_____________________90630813424e9061072e908890600401611943565b600781565b604051630495132960e01b8152600090819073__IexecODBLibOrders_____________________90630495132990610a1d908690600401611932565b60206040518083038186803b158015610a3557600080fd5b505af4158015610a49573d6000803e3d6000fd5b505050506040513d601f19601f82011682018060405250610a6d919081019061142f565b600f5460405163176eaa4960e01b815273__IexecODBLibOrders_____________________9263176eaa4992610aa5926004016118e2565b60206040518083038186803b158015610abd57600080fd5b505af4158015610ad1573d6000803e3d6000fd5b505050506040513d601f19601f82011682018060405250610af5919081019061142f565b905082600001516001600160a01b0316638da5cb5b6040518163ffffffff1660e01b815260040160206040518083038186803b158015610b3457600080fd5b505afa158015610b48573d6000803e3d6000fd5b505050506040513d601f19601f82011682018060405250610b6c9190810190611411565b6001600160a01b0316336001600160a01b031614610b8957600080fd5b6040808401516000838152601160205282902055517f7343f75be43aba524f85326508cd975d016ef7884676377366c69a7c32e306689061043c9083906118d4565b6000546001600160a01b031690565b6000546001600160a01b0316331490565b6006546001600160a01b031681565b60408051808201909152600a81526969457865634b6974747960b01b6020909101527399c2268479b93fde36232351229815df80837e2481565b600081600001516001600160a01b0316638da5cb5b6040518163ffffffff1660e01b815260040160206040518083038186803b158015610c7357600080fd5b505afa158015610c87573d6000803e3d6000fd5b505050506040513d601f19601f82011682018060405250610cab9190810190611411565b6001600160a01b0316336001600160a01b031614610cc857600080fd5b604051630af531cd60e21b815260019060129060009073__IexecODBLibOrders_____________________90632bd4c7349061072e908890600401611932565b604051632c5a82c360e11b8152600090819073__IexecODBLibOrders_____________________906358b5058690610d44908690600401611954565b60206040518083038186803b158015610d5c57600080fd5b505af4158015610d70573d6000803e3d6000fd5b505050506040513d601f19601f82011682018060405250610d94919081019061142f565b600f5460405163176eaa4960e01b815273__IexecODBLibOrders_____________________9263176eaa4992610dcc926004016118e2565b60206040518083038186803b158015610de457600080fd5b505af4158015610df8573d6000803e3d6000fd5b505050506040513d601f19601f82011682018060405250610e1c919081019061142f565b905082600001516001600160a01b0316638da5cb5b6040518163ffffffff1660e01b815260040160206040518083038186803b158015610e5b57600080fd5b505afa158015610e6f573d6000803e3d6000fd5b505050506040513d601f19601f82011682018060405250610e939190810190611411565b6001600160a01b0316336001600160a01b031614610eb057600080fd5b6040808401516000838152601160205282902055517f145ad51e4496173bca15e24e7eb46f9ab3a10eea0497e2801a3a6806c06113a39061043c9083906118d4565b6005546001600160a01b031681565b633b9aca0081565b610f11610bda565b610f2d5760405162461bcd60e51b815260040161092590611922565b610f3681610f39565b50565b6001600160a01b038116610f5f5760405162461bcd60e51b815260040161092590611912565b600080546040516001600160a01b03808516939216917f8be0079c531659141344cd1fd0a4f28419497f9722a3daafe3b4186f6b6457e091a3600080546001600160a01b0319166001600160a01b0392909216919091179055565b8035610fc581611a31565b92915050565b8051610fc581611a31565b8035610fc581611a45565b8051610fc581611a45565b600082601f830112610ffd57600080fd5b813561101061100b8261198c565b611965565b9150808252602083016020830185838301111561102c57600080fd5b6110378382846119eb565b50505092915050565b6000610120828403121561105357600080fd5b61105e610120611965565b9050600061106c8484610fba565b825250602061107d84848301610fd6565b602083015250604061109184828501610fd6565b60408301525060606110a584828501610fd6565b60608301525060806110b984828501610fba565b60808301525060a06110cd84828501610fba565b60a08301525060c06110e184828501610fba565b60c08301525060e06110f584828501610fd6565b60e08301525061010082013567ffffffffffffffff81111561111657600080fd5b61112284828501610fec565b6101008301525092915050565b6000610200828403121561114257600080fd5b61114d610200611965565b9050600061115b8484610fba565b825250602061116c84848301610fd6565b602083015250604061118084828501610fba565b604083015250606061119484828501610fd6565b60608301525060806111a884828501610fba565b60808301525060a06111bc84828501610fd6565b60a08301525060c06111d084828501610fba565b60c08301525060e06111e484828501610fd6565b60e0830152506101006111f984828501610fd6565b6101008301525061012061120f84828501610fd6565b6101208301525061014061122584828501610fd6565b6101408301525061016061123b84828501610fba565b6101608301525061018061125184828501610fba565b610180830152506101a082013567ffffffffffffffff81111561127357600080fd5b61127f84828501610fec565b6101a0830152506101c061129584828501610fd6565b6101c0830152506101e082013567ffffffffffffffff8111156112b757600080fd5b6112c384828501610fec565b6101e08301525092915050565b600061016082840312156112e357600080fd5b6112ee610160611965565b905060006112fc8484610fba565b825250602061130d84848301610fd6565b602083015250604061132184828501610fd6565b604083015250606061133584828501610fd6565b606083015250608061134984828501610fd6565b60808301525060a061135d84828501610fd6565b60a08301525060c061137184828501610fba565b60c08301525060e061138584828501610fba565b60e08301525061010061139a84828501610fba565b610100830152506101206113b084828501610fd6565b6101208301525061014082013567ffffffffffffffff8111156113d257600080fd5b6113de84828501610fec565b6101408301525092915050565b6000602082840312156113fd57600080fd5b60006114098484610fba565b949350505050565b60006020828403121561142357600080fd5b60006114098484610fcb565b60006020828403121561144157600080fd5b60006114098484610fe1565b60006020828403121561145f57600080fd5b813567ffffffffffffffff81111561147657600080fd5b61140984828501611040565b60006020828403121561149457600080fd5b813567ffffffffffffffff8111156114ab57600080fd5b6114098482850161112f565b6000602082840312156114c957600080fd5b813567ffffffffffffffff8111156114e057600080fd5b611409848285016112d0565b6114f5816119c1565b82525050565b6114f5816119cc565b6114f5816119d1565b6000611518826119b4565b61152281856119b8565b93506115328185602086016119f7565b61153b81611a27565b9093019392505050565b6114f5816119e0565b600061155b6026836119b8565b7f4f776e61626c653a206e6577206f776e657220697320746865207a65726f206181526564647265737360d01b602082015260400192915050565b60006115a36020836119b8565b7f4f776e61626c653a2063616c6c6572206973206e6f7420746865206f776e6572815260200192915050565b80516000906101208401906115e485826114ec565b5060208301516115f76020860182611504565b50604083015161160a6040860182611504565b50606083015161161d6060860182611504565b50608083015161163060808601826114ec565b5060a083015161164360a08601826114ec565b5060c083015161165660c08601826114ec565b5060e083015161166960e0860182611504565b50610100830151848203610100860152611683828261150d565b95945050505050565b80516000906102008401906116a185826114ec565b5060208301516116b46020860182611504565b5060408301516116c760408601826114ec565b5060608301516116da6060860182611504565b5060808301516116ed60808601826114ec565b5060a083015161170060a0860182611504565b5060c083015161171360c08601826114ec565b5060e083015161172660e0860182611504565b5061010083015161173b610100860182611504565b50610120830151611750610120860182611504565b50610140830151611765610140860182611504565b5061016083015161177a6101608601826114ec565b5061018083015161178f6101808601826114ec565b506101a08301518482036101a08601526117a9828261150d565b9150506101c08301516117c06101c0860182611504565b506101e08301518482036101e0860152611683828261150d565b80516000906101608401906117ef85826114ec565b5060208301516118026020860182611504565b5060408301516118156040860182611504565b5060608301516118286060860182611504565b50608083015161183b6080860182611504565b5060a083015161184e60a0860182611504565b5060c083015161186160c08601826114ec565b5060e083015161187460e08601826114ec565b506101008301516118896101008601826114ec565b5061012083015161189e610120860182611504565b50610140830151848203610140860152611683828261150d565b60208101610fc582846114ec565b60208101610fc582846114fb565b60208101610fc58284611504565b604081016118f08285611504565b6118fd6020830184611504565b9392505050565b60208101610fc58284611545565b60208082528101610fc58161154e565b60208082528101610fc581611596565b602080825281016118fd81846115cf565b602080825281016118fd818461168c565b602080825281016118fd81846117da565b60405181810167ffffffffffffffff8111828210171561198457600080fd5b604052919050565b600067ffffffffffffffff8211156119a357600080fd5b506020601f91909101601f19160190565b5190565b90815260200190565b6000610fc5826119d4565b151590565b90565b6001600160a01b031690565b6000610fc5826119c1565b82818337506000910152565b60005b83811015611a125781810151838201526020016119fa565b83811115611a21576000848401525b50505050565b601f01601f191690565b611a3a816119c1565b8114610f3657600080fd5b611a3a816119d156fea365627a7a723058201e41e8234e17e4dc0752b9cf0629a8e43a677e03c427361a58f1eab10fdf8f476c6578706572696d656e74616cf564736f6c63430005090040",
  "source": "pragma solidity ^0.5.9;\npragma experimental ABIEncoderV2;\n\nimport \"../IexecStore.sol\";\n\n\ncontract IexecOrderSignature // make interface\n{\n\tevent ClosedAppOrder       (bytes32 appHash);\n\tevent ClosedDatasetOrder   (bytes32 datasetHash);\n\tevent ClosedWorkerpoolOrder(bytes32 workerpoolHash);\n\tevent ClosedRequestOrder   (bytes32 requestHash);\n\n\tfunction signAppOrder         (IexecODBLibOrders.AppOrder        memory _apporder       ) public returns (bool);\n\tfunction signDatasetOrder     (IexecODBLibOrders.DatasetOrder    memory _datasetorder   ) public returns (bool);\n\tfunction signWorkerpoolOrder  (IexecODBLibOrders.WorkerpoolOrder memory _workerpoolorder) public returns (bool);\n\tfunction signRequestOrder     (IexecODBLibOrders.RequestOrder    memory _requestorder   ) public returns (bool);\n\tfunction cancelAppOrder       (IexecODBLibOrders.AppOrder        memory _apporder       ) public returns (bool);\n\tfunction cancelDatasetOrder   (IexecODBLibOrders.DatasetOrder    memory _datasetorder   ) public returns (bool);\n\tfunction cancelWorkerpoolOrder(IexecODBLibOrders.WorkerpoolOrder memory _workerpoolorder) public returns (bool);\n\tfunction cancelRequestOrder   (IexecODBLibOrders.RequestOrder    memory _requestorder   ) public returns (bool);\n}\n\ncontract IexecOrderSignatureDelegate is IexecOrderSignature, IexecStore\n{\n\tusing IexecODBLibOrders for bytes32;\n\tusing IexecODBLibOrders for IexecODBLibOrders.AppOrder;\n\tusing IexecODBLibOrders for IexecODBLibOrders.DatasetOrder;\n\tusing IexecODBLibOrders for IexecODBLibOrders.WorkerpoolOrder;\n\tusing IexecODBLibOrders for IexecODBLibOrders.RequestOrder;\n\n\t/***************************************************************************\n\t *                            pre-signing tools                            *\n\t ***************************************************************************/\n\t// should be external\n\tfunction signAppOrder(IexecODBLibOrders.AppOrder memory _apporder)\n\tpublic returns (bool)\n\t{\n\t\trequire(msg.sender == App(_apporder.app).owner());\n\t\tm_presigned[_apporder.hash().toEthTypedStructHash(EIP712DOMAIN_SEPARATOR)] = true;\n\t\treturn true;\n\t}\n\n\t// should be external\n\tfunction signDatasetOrder(IexecODBLibOrders.DatasetOrder memory _datasetorder)\n\tpublic returns (bool)\n\t{\n\t\trequire(msg.sender == Dataset(_datasetorder.dataset).owner());\n\t\tm_presigned[_datasetorder.hash().toEthTypedStructHash(EIP712DOMAIN_SEPARATOR)] = true;\n\t\treturn true;\n\t}\n\n\t// should be external\n\tfunction signWorkerpoolOrder(IexecODBLibOrders.WorkerpoolOrder memory _workerpoolorder)\n\tpublic returns (bool)\n\t{\n\t\trequire(msg.sender == Workerpool(_workerpoolorder.workerpool).owner());\n\t\tm_presigned[_workerpoolorder.hash().toEthTypedStructHash(EIP712DOMAIN_SEPARATOR)] = true;\n\t\treturn true;\n\t}\n\n\t// should be external\n\tfunction signRequestOrder(IexecODBLibOrders.RequestOrder memory _requestorder)\n\tpublic returns (bool)\n\t{\n\t\trequire(msg.sender == _requestorder.requester);\n\t\tm_presigned[_requestorder.hash().toEthTypedStructHash(EIP712DOMAIN_SEPARATOR)] = true;\n\t\treturn true;\n\t}\n\n\t/***************************************************************************\n\t *                            cancelling tools                             *\n\t ***************************************************************************/\n\t\t// should be external\n\t\tfunction cancelAppOrder(IexecODBLibOrders.AppOrder memory _apporder)\n\t\tpublic returns (bool)\n\t\t{\n\t\t\tbytes32 dapporderHash = _apporder.hash().toEthTypedStructHash(EIP712DOMAIN_SEPARATOR);\n\t\t\trequire(msg.sender == App(_apporder.app).owner());\n\t\t\tm_consumed[dapporderHash] = _apporder.volume;\n\t\t\temit ClosedAppOrder(dapporderHash);\n\t\t\treturn true;\n\t\t}\n\n\t\t// should be external\n\t\tfunction cancelDatasetOrder(IexecODBLibOrders.DatasetOrder memory _datasetorder)\n\t\tpublic returns (bool)\n\t\t{\n\t\t\tbytes32 dataorderHash = _datasetorder.hash().toEthTypedStructHash(EIP712DOMAIN_SEPARATOR);\n\t\t\trequire(msg.sender == Dataset(_datasetorder.dataset).owner());\n\t\t\tm_consumed[dataorderHash] = _datasetorder.volume;\n\t\t\temit ClosedDatasetOrder(dataorderHash);\n\t\t\treturn true;\n\t\t}\n\n\t\t// should be external\n\t\tfunction cancelWorkerpoolOrder(IexecODBLibOrders.WorkerpoolOrder memory _workerpoolorder)\n\t\tpublic returns (bool)\n\t\t{\n\t\t\tbytes32 poolorderHash = _workerpoolorder.hash().toEthTypedStructHash(EIP712DOMAIN_SEPARATOR);\n\t\t\trequire(msg.sender == Workerpool(_workerpoolorder.workerpool).owner());\n\t\t\tm_consumed[poolorderHash] = _workerpoolorder.volume;\n\t\t\temit ClosedWorkerpoolOrder(poolorderHash);\n\t\t\treturn true;\n\t\t}\n\n\t\t// should be external\n\t\tfunction cancelRequestOrder(IexecODBLibOrders.RequestOrder memory _requestorder)\n\t\tpublic returns (bool)\n\t\t{\n\t\t\tbytes32 requestorderHash = _requestorder.hash().toEthTypedStructHash(EIP712DOMAIN_SEPARATOR);\n\t\t\trequire(msg.sender == _requestorder.requester);\n\t\t\tm_consumed[requestorderHash] = _requestorder.volume;\n\t\t\temit ClosedRequestOrder(requestorderHash);\n\t\t\treturn true;\n\t\t}\n\n}\n",
  "sourcePath": "/home/amxx/Work/iExec/code/PoCo-dev/contracts/delegates/IexecOrderSignature.sol",
  "compiler": {
    "name": "solc",
    "version": "0.5.9+commit.e560f70d.Emscripten.clang"
  },
  "schemaVersion": "3.0.11",
  "updatedAt": "2019-06-26T13:43:41.523Z",
  "devdoc": {
    "methods": {
      "isOwner()": {
        "details": "Returns true if the caller is the current owner."
      },
      "owner()": {
        "details": "Returns the address of the current owner."
      },
      "renounceOwnership()": {
        "details": "Leaves the contract without owner. It will not be possible to call `onlyOwner` functions anymore. Can only be called by the current owner.     * > Note: Renouncing ownership will leave the contract without an owner, thereby removing any functionality that is only available to the owner."
      },
      "transferOwnership(address)": {
        "details": "Transfers ownership of the contract to a new account (`newOwner`). Can only be called by the current owner."
      }
    }
  },
  "userdoc": {
    "methods": {
      "cancelAppOrder((address,uint256,uint256,bytes32,address,address,address,bytes32,bytes))": {
        "notice": "*************************************************************************                           cancelling tools                             ***************************************************************************"
      },
      "signAppOrder((address,uint256,uint256,bytes32,address,address,address,bytes32,bytes))": {
        "notice": "*************************************************************************                           pre-signing tools                            ***************************************************************************"
      }
    }
  }
}