{
  "contractName": "IexecPocoDelegate",
  "abi": [
    {
      "anonymous": false,
      "inputs": [
        {
          "indexed": true,
          "internalType": "address",
          "name": "worker",
          "type": "address"
        },
        {
          "indexed": true,
          "internalType": "bytes32",
          "name": "taskid",
          "type": "bytes32"
        }
      ],
      "name": "AccurateContribution",
      "type": "event"
    },
    {
      "anonymous": false,
      "inputs": [
        {
          "indexed": true,
          "internalType": "address",
          "name": "owner",
          "type": "address"
        },
        {
          "indexed": true,
          "internalType": "address",
          "name": "spender",
          "type": "address"
        },
        {
          "indexed": false,
          "internalType": "uint256",
          "name": "value",
          "type": "uint256"
        }
      ],
      "name": "Approval",
      "type": "event"
    },
    {
      "anonymous": false,
      "inputs": [
        {
          "indexed": true,
          "internalType": "address",
          "name": "worker",
          "type": "address"
        },
        {
          "indexed": true,
          "internalType": "bytes32",
          "name": "taskid",
          "type": "bytes32"
        }
      ],
      "name": "FaultyContribution",
      "type": "event"
    },
    {
      "anonymous": false,
      "inputs": [
        {
          "indexed": false,
          "internalType": "address",
          "name": "owner",
          "type": "address"
        },
        {
          "indexed": false,
          "internalType": "uint256",
          "name": "amount",
          "type": "uint256"
        }
      ],
      "name": "Lock",
      "type": "event"
    },
    {
      "anonymous": false,
      "inputs": [
        {
          "indexed": false,
          "internalType": "bytes32",
          "name": "dealid",
          "type": "bytes32"
        },
        {
          "indexed": false,
          "internalType": "bytes32",
          "name": "appHash",
          "type": "bytes32"
        },
        {
          "indexed": false,
          "internalType": "bytes32",
          "name": "datasetHash",
          "type": "bytes32"
        },
        {
          "indexed": false,
          "internalType": "bytes32",
          "name": "workerpoolHash",
          "type": "bytes32"
        },
        {
          "indexed": false,
          "internalType": "bytes32",
          "name": "requestHash",
          "type": "bytes32"
        },
        {
          "indexed": false,
          "internalType": "uint256",
          "name": "volume",
          "type": "uint256"
        }
      ],
      "name": "OrdersMatched",
      "type": "event"
    },
    {
      "anonymous": false,
      "inputs": [
        {
          "indexed": true,
          "internalType": "address",
          "name": "previousOwner",
          "type": "address"
        },
        {
          "indexed": true,
          "internalType": "address",
          "name": "newOwner",
          "type": "address"
        }
      ],
      "name": "OwnershipTransferred",
      "type": "event"
    },
    {
      "anonymous": false,
      "inputs": [
        {
          "indexed": false,
          "internalType": "address",
          "name": "owner",
          "type": "address"
        },
        {
          "indexed": false,
          "internalType": "uint256",
          "name": "amount",
          "type": "uint256"
        },
        {
          "indexed": false,
          "internalType": "bytes32",
          "name": "ref",
          "type": "bytes32"
        }
      ],
      "name": "Reward",
      "type": "event"
    },
    {
      "anonymous": false,
      "inputs": [
        {
          "indexed": true,
          "internalType": "address",
          "name": "workerpool",
          "type": "address"
        },
        {
          "indexed": false,
          "internalType": "bytes32",
          "name": "dealid",
          "type": "bytes32"
        }
      ],
      "name": "SchedulerNotice",
      "type": "event"
    },
    {
      "anonymous": false,
      "inputs": [
        {
          "indexed": false,
          "internalType": "address",
          "name": "owner",
          "type": "address"
        },
        {
          "indexed": false,
          "internalType": "uint256",
          "name": "amount",
          "type": "uint256"
        },
        {
          "indexed": false,
          "internalType": "bytes32",
          "name": "ref",
          "type": "bytes32"
        }
      ],
      "name": "Seize",
      "type": "event"
    },
    {
      "anonymous": false,
      "inputs": [
        {
          "indexed": true,
          "internalType": "bytes32",
          "name": "taskid",
          "type": "bytes32"
        }
      ],
      "name": "TaskClaimed",
      "type": "event"
    },
    {
      "anonymous": false,
      "inputs": [
        {
          "indexed": true,
          "internalType": "bytes32",
          "name": "taskid",
          "type": "bytes32"
        },
        {
          "indexed": false,
          "internalType": "bytes32",
          "name": "consensus",
          "type": "bytes32"
        }
      ],
      "name": "TaskConsensus",
      "type": "event"
    },
    {
      "anonymous": false,
      "inputs": [
        {
          "indexed": true,
          "internalType": "bytes32",
          "name": "taskid",
          "type": "bytes32"
        },
        {
          "indexed": true,
          "internalType": "address",
          "name": "worker",
          "type": "address"
        },
        {
          "indexed": false,
          "internalType": "bytes32",
          "name": "hash",
          "type": "bytes32"
        }
      ],
      "name": "TaskContribute",
      "type": "event"
    },
    {
      "anonymous": false,
      "inputs": [
        {
          "indexed": true,
          "internalType": "bytes32",
          "name": "taskid",
          "type": "bytes32"
        },
        {
          "indexed": false,
          "internalType": "bytes",
          "name": "results",
          "type": "bytes"
        }
      ],
      "name": "TaskFinalize",
      "type": "event"
    },
    {
      "anonymous": false,
      "inputs": [
        {
          "indexed": true,
          "internalType": "bytes32",
          "name": "taskid",
          "type": "bytes32"
        },
        {
          "indexed": true,
          "internalType": "address",
          "name": "workerpool",
          "type": "address"
        }
      ],
      "name": "TaskInitialize",
      "type": "event"
    },
    {
      "anonymous": false,
      "inputs": [
        {
          "indexed": true,
          "internalType": "bytes32",
          "name": "taskid",
          "type": "bytes32"
        }
      ],
      "name": "TaskReopen",
      "type": "event"
    },
    {
      "anonymous": false,
      "inputs": [
        {
          "indexed": true,
          "internalType": "bytes32",
          "name": "taskid",
          "type": "bytes32"
        },
        {
          "indexed": true,
          "internalType": "address",
          "name": "worker",
          "type": "address"
        },
        {
          "indexed": false,
          "internalType": "bytes32",
          "name": "digest",
          "type": "bytes32"
        }
      ],
      "name": "TaskReveal",
      "type": "event"
    },
    {
      "anonymous": false,
      "inputs": [
        {
          "indexed": true,
          "internalType": "address",
          "name": "from",
          "type": "address"
        },
        {
          "indexed": true,
          "internalType": "address",
          "name": "to",
          "type": "address"
        },
        {
          "indexed": false,
          "internalType": "uint256",
          "name": "value",
          "type": "uint256"
        }
      ],
      "name": "Transfer",
      "type": "event"
    },
    {
      "anonymous": false,
      "inputs": [
        {
          "indexed": false,
          "internalType": "address",
          "name": "owner",
          "type": "address"
        },
        {
          "indexed": false,
          "internalType": "uint256",
          "name": "amount",
          "type": "uint256"
        }
      ],
      "name": "Unlock",
      "type": "event"
    },
    {
      "inputs": [],
      "name": "isOwner",
      "outputs": [
        {
          "internalType": "bool",
          "name": "",
          "type": "bool"
        }
      ],
      "stateMutability": "view",
      "type": "function"
    },
    {
      "inputs": [],
      "name": "owner",
      "outputs": [
        {
          "internalType": "address",
          "name": "",
          "type": "address"
        }
      ],
      "stateMutability": "view",
      "type": "function"
    },
    {
      "inputs": [],
      "name": "renounceOwnership",
      "outputs": [],
      "stateMutability": "nonpayable",
      "type": "function"
    },
    {
      "inputs": [
        {
          "internalType": "address",
          "name": "newOwner",
          "type": "address"
        }
      ],
      "name": "transferOwnership",
      "outputs": [],
      "stateMutability": "nonpayable",
      "type": "function"
    },
    {
      "inputs": [
        {
          "internalType": "address",
          "name": "_identity",
          "type": "address"
        },
        {
          "internalType": "bytes32",
          "name": "_hash",
          "type": "bytes32"
        },
        {
          "internalType": "bytes",
          "name": "_signature",
          "type": "bytes"
        }
      ],
      "name": "verifySignature",
      "outputs": [
        {
          "internalType": "bool",
          "name": "",
          "type": "bool"
        }
      ],
      "stateMutability": "view",
      "type": "function"
    },
    {
      "inputs": [
        {
          "internalType": "address",
          "name": "_identity",
          "type": "address"
        },
        {
          "internalType": "bytes32",
          "name": "_hash",
          "type": "bytes32"
        }
      ],
      "name": "verifyPresignature",
      "outputs": [
        {
          "internalType": "bool",
          "name": "",
          "type": "bool"
        }
      ],
      "stateMutability": "view",
      "type": "function"
    },
    {
      "inputs": [
        {
          "internalType": "address",
          "name": "_identity",
          "type": "address"
        },
        {
          "internalType": "bytes32",
          "name": "_hash",
          "type": "bytes32"
        },
        {
          "internalType": "bytes",
          "name": "_signature",
          "type": "bytes"
        }
      ],
      "name": "verifyPresignatureOrSignature",
      "outputs": [
        {
          "internalType": "bool",
          "name": "",
          "type": "bool"
        }
      ],
      "stateMutability": "view",
      "type": "function"
    },
    {
      "inputs": [
        {
          "components": [
            {
              "internalType": "address",
              "name": "app",
              "type": "address"
            },
            {
              "internalType": "uint256",
              "name": "appprice",
              "type": "uint256"
            },
            {
              "internalType": "uint256",
              "name": "volume",
              "type": "uint256"
            },
            {
              "internalType": "bytes32",
              "name": "tag",
              "type": "bytes32"
            },
            {
              "internalType": "address",
              "name": "datasetrestrict",
              "type": "address"
            },
            {
              "internalType": "address",
              "name": "workerpoolrestrict",
              "type": "address"
            },
            {
              "internalType": "address",
              "name": "requesterrestrict",
              "type": "address"
            },
            {
              "internalType": "bytes32",
              "name": "salt",
              "type": "bytes32"
            },
            {
              "internalType": "bytes",
              "name": "sign",
              "type": "bytes"
            }
          ],
          "internalType": "struct IexecLibOrders_v5.AppOrder",
          "name": "_apporder",
          "type": "tuple"
        },
        {
          "components": [
            {
              "internalType": "address",
              "name": "dataset",
              "type": "address"
            },
            {
              "internalType": "uint256",
              "name": "datasetprice",
              "type": "uint256"
            },
            {
              "internalType": "uint256",
              "name": "volume",
              "type": "uint256"
            },
            {
              "internalType": "bytes32",
              "name": "tag",
              "type": "bytes32"
            },
            {
              "internalType": "address",
              "name": "apprestrict",
              "type": "address"
            },
            {
              "internalType": "address",
              "name": "workerpoolrestrict",
              "type": "address"
            },
            {
              "internalType": "address",
              "name": "requesterrestrict",
              "type": "address"
            },
            {
              "internalType": "bytes32",
              "name": "salt",
              "type": "bytes32"
            },
            {
              "internalType": "bytes",
              "name": "sign",
              "type": "bytes"
            }
          ],
          "internalType": "struct IexecLibOrders_v5.DatasetOrder",
          "name": "_datasetorder",
          "type": "tuple"
        },
        {
          "components": [
            {
              "internalType": "address",
              "name": "workerpool",
              "type": "address"
            },
            {
              "internalType": "uint256",
              "name": "workerpoolprice",
              "type": "uint256"
            },
            {
              "internalType": "uint256",
              "name": "volume",
              "type": "uint256"
            },
            {
              "internalType": "bytes32",
              "name": "tag",
              "type": "bytes32"
            },
            {
              "internalType": "uint256",
              "name": "category",
              "type": "uint256"
            },
            {
              "internalType": "uint256",
              "name": "trust",
              "type": "uint256"
            },
            {
              "internalType": "address",
              "name": "apprestrict",
              "type": "address"
            },
            {
              "internalType": "address",
              "name": "datasetrestrict",
              "type": "address"
            },
            {
              "internalType": "address",
              "name": "requesterrestrict",
              "type": "address"
            },
            {
              "internalType": "bytes32",
              "name": "salt",
              "type": "bytes32"
            },
            {
              "internalType": "bytes",
              "name": "sign",
              "type": "bytes"
            }
          ],
          "internalType": "struct IexecLibOrders_v5.WorkerpoolOrder",
          "name": "_workerpoolorder",
          "type": "tuple"
        },
        {
          "components": [
            {
              "internalType": "address",
              "name": "app",
              "type": "address"
            },
            {
              "internalType": "uint256",
              "name": "appmaxprice",
              "type": "uint256"
            },
            {
              "internalType": "address",
              "name": "dataset",
              "type": "address"
            },
            {
              "internalType": "uint256",
              "name": "datasetmaxprice",
              "type": "uint256"
            },
            {
              "internalType": "address",
              "name": "workerpool",
              "type": "address"
            },
            {
              "internalType": "uint256",
              "name": "workerpoolmaxprice",
              "type": "uint256"
            },
            {
              "internalType": "address",
              "name": "requester",
              "type": "address"
            },
            {
              "internalType": "uint256",
              "name": "volume",
              "type": "uint256"
            },
            {
              "internalType": "bytes32",
              "name": "tag",
              "type": "bytes32"
            },
            {
              "internalType": "uint256",
              "name": "category",
              "type": "uint256"
            },
            {
              "internalType": "uint256",
              "name": "trust",
              "type": "uint256"
            },
            {
              "internalType": "address",
              "name": "beneficiary",
              "type": "address"
            },
            {
              "internalType": "address",
              "name": "callback",
              "type": "address"
            },
            {
              "internalType": "string",
              "name": "params",
              "type": "string"
            },
            {
              "internalType": "bytes32",
              "name": "salt",
              "type": "bytes32"
            },
            {
              "internalType": "bytes",
              "name": "sign",
              "type": "bytes"
            }
          ],
          "internalType": "struct IexecLibOrders_v5.RequestOrder",
          "name": "_requestorder",
          "type": "tuple"
        }
      ],
      "name": "matchOrders",
      "outputs": [
        {
          "internalType": "bytes32",
          "name": "",
          "type": "bytes32"
        }
      ],
      "stateMutability": "nonpayable",
      "type": "function"
    },
    {
      "inputs": [
        {
          "internalType": "bytes32",
          "name": "_dealid",
          "type": "bytes32"
        },
        {
          "internalType": "uint256",
          "name": "idx",
          "type": "uint256"
        }
      ],
      "name": "initialize",
      "outputs": [
        {
          "internalType": "bytes32",
          "name": "",
          "type": "bytes32"
        }
      ],
      "stateMutability": "nonpayable",
      "type": "function"
    },
    {
      "inputs": [
        {
          "internalType": "bytes32",
          "name": "_taskid",
          "type": "bytes32"
        },
        {
          "internalType": "bytes32",
          "name": "_resultHash",
          "type": "bytes32"
        },
        {
          "internalType": "bytes32",
          "name": "_resultSeal",
          "type": "bytes32"
        },
        {
          "internalType": "address",
          "name": "_enclaveChallenge",
          "type": "address"
        },
        {
          "internalType": "bytes",
          "name": "_enclaveSign",
          "type": "bytes"
        },
        {
          "internalType": "bytes",
          "name": "_authorizationSign",
          "type": "bytes"
        }
      ],
      "name": "contribute",
      "outputs": [],
      "stateMutability": "nonpayable",
      "type": "function"
    },
    {
      "inputs": [
        {
          "internalType": "bytes32",
          "name": "_taskid",
          "type": "bytes32"
        },
        {
          "internalType": "bytes32",
          "name": "_resultDigest",
          "type": "bytes32"
        }
      ],
      "name": "reveal",
      "outputs": [],
      "stateMutability": "nonpayable",
      "type": "function"
    },
    {
      "inputs": [
        {
          "internalType": "bytes32",
          "name": "_taskid",
          "type": "bytes32"
        }
      ],
      "name": "reopen",
      "outputs": [],
      "stateMutability": "nonpayable",
      "type": "function"
    },
    {
      "inputs": [
        {
          "internalType": "bytes32",
          "name": "_taskid",
          "type": "bytes32"
        },
        {
          "internalType": "bytes",
          "name": "_results",
          "type": "bytes"
        }
      ],
      "name": "finalize",
      "outputs": [],
      "stateMutability": "nonpayable",
      "type": "function"
    },
    {
      "inputs": [
        {
          "internalType": "bytes32",
          "name": "_taskid",
          "type": "bytes32"
        }
      ],
      "name": "claim",
      "outputs": [],
      "stateMutability": "nonpayable",
      "type": "function"
    },
    {
      "inputs": [
        {
          "internalType": "bytes32",
          "name": "_taskid",
          "type": "bytes32"
        },
        {
          "internalType": "bytes32",
          "name": "_resultDigest",
          "type": "bytes32"
        },
        {
          "internalType": "bytes",
          "name": "_results",
          "type": "bytes"
        },
        {
          "internalType": "address",
          "name": "_enclaveChallenge",
          "type": "address"
        },
        {
          "internalType": "bytes",
          "name": "_enclaveSign",
          "type": "bytes"
        },
        {
          "internalType": "bytes",
          "name": "_authorizationSign",
          "type": "bytes"
        }
      ],
      "name": "contributeAndFinalize",
      "outputs": [],
      "stateMutability": "nonpayable",
      "type": "function"
    },
    {
      "inputs": [
        {
          "internalType": "bytes32[]",
          "name": "_dealid",
          "type": "bytes32[]"
        },
        {
          "internalType": "uint256[]",
          "name": "_idx",
          "type": "uint256[]"
        }
      ],
      "name": "initializeArray",
      "outputs": [
        {
          "internalType": "bool",
          "name": "",
          "type": "bool"
        }
      ],
      "stateMutability": "nonpayable",
      "type": "function"
    },
    {
      "inputs": [
        {
          "internalType": "bytes32[]",
          "name": "_taskid",
          "type": "bytes32[]"
        }
      ],
      "name": "claimArray",
      "outputs": [
        {
          "internalType": "bool",
          "name": "",
          "type": "bool"
        }
      ],
      "stateMutability": "nonpayable",
      "type": "function"
    },
    {
      "inputs": [
        {
          "internalType": "bytes32[]",
          "name": "_dealid",
          "type": "bytes32[]"
        },
        {
          "internalType": "uint256[]",
          "name": "_idx",
          "type": "uint256[]"
        }
      ],
      "name": "initializeAndClaimArray",
      "outputs": [
        {
          "internalType": "bool",
          "name": "",
          "type": "bool"
        }
      ],
      "stateMutability": "nonpayable",
      "type": "function"
    }
  ],
  "bytecode": "0x60806040526000620000196001600160e01b036200006b16565b600080546001600160a01b0319166001600160a01b03831690811782556040519293509160008051602062005152833981519152908290a350620000656001600160e01b036200006f16565b62000147565b3390565b620000826001600160e01b03620000e316565b620000aa5760405162461bcd60e51b8152600401620000a19062000112565b60405180910390fd5b600080546040516001600160a01b039091169060008051602062005152833981519152908390a3600080546001600160a01b0319169055565b600080546001600160a01b0316620001036001600160e01b036200006b16565b6001600160a01b031614905090565b6020808252818101527f4f776e61626c653a2063616c6c6572206973206e6f7420746865206f776e6572604082015260600190565b614ffb80620001576000396000f3fe608060405234801561001057600080fd5b50600436106101165760003560e01c8063bf36994e116100a2578063f2fde38b11610071578063f2fde38b14610223578063f6c68e1014610236578063f722cb3214610249578063fa055d7e1461025c578063fc334e8c1461026f57610116565b8063bf36994e146101d7578063c037f13e146101ea578063c87b582a146101fd578063ec52107d1461021057610116565b8063715018a6116100e9578063715018a61461018c5780638da5cb5b146101945780638f32d59b146101a9578063b504681d146101b1578063bd66528a146101c457610116565b8063017519981461011b578063156194d41461014457806334623484146101645780635b36c66b14610179575b600080fd5b61012e610129366004614632565b610282565b60405161013b9190614c19565b60405180910390f35b610157610152366004614905565b6102ce565b60405161013b9190614c24565b610177610172366004614797565b611396565b005b610157610187366004614776565b6119bd565b610177611ce9565b61019c611d60565b60405161013b9190614bcb565b61012e611d70565b61012e6101bf3660046146ca565b611d94565b6101776101d2366004614746565b611df0565b61012e6101e5366004614632565b611ee0565b6101776101f8366004614894565b611f23565b61012e61020b366004614607565b612283565b61017761021e366004614825565b612296565b6101776102313660046145cf565b6129da565b610177610244366004614746565b612a0a565b61012e6102573660046146ca565b612be4565b61012e61026a36600461468b565b612c2a565b61017761027d366004614776565b612c63565b60006102c5858585858080601f016020809104026020016040519081016040528093929190818152602001838380828437600092019190915250612ded92505050565b95945050505050565b60008082610100015185606001518760600151171790508360800151836101200151146102fa57600080fd5b8360a00151836101400151111561031057600080fd5b85602001518360200151101561032557600080fd5b84602001518360600151101561033a57600080fd5b83602001518360a00151101561034f57600080fd5b60608401511981161561036157600080fd5b6060860151811860f81b600160f81b161561037b57600080fd5b855183516001600160a01b0390811691161461039657600080fd5b84600001516001600160a01b031683604001516001600160a01b0316146103bc57600080fd5b60808301516001600160a01b031615806103e557506103e5836080015185600001516004612f3c565b6103ee57600080fd5b60808601516001600160a01b031615806104175750610417866080015186600001516004612f3c565b61042057600080fd5b60a08601516001600160a01b0316158061044957506104498660a0015185600001516004612f3c565b61045257600080fd5b60c08601516001600160a01b0316158061047b575061047b8660c001518460c001516004612f3c565b61048457600080fd5b60808501516001600160a01b031615806104ad57506104ad856080015187600001516004612f3c565b6104b657600080fd5b60a08501516001600160a01b031615806104df57506104df8560a0015185600001516004612f3c565b6104e857600080fd5b60c08501516001600160a01b0316158061051157506105118560c001518460c001516004612f3c565b61051a57600080fd5b60c08401516001600160a01b0316158061054357506105438460c0015187600001516004612f3c565b61054c57600080fd5b60e08401516001600160a01b0316158061057557506105758460e0015186600001516004612f3c565b61057e57600080fd5b6101008401516001600160a01b031615806105a957506105a98461010001518460c001516004612f3c565b6105b257600080fd5b6105ba6140db565b85516001600160a01b0316151560e0820152604051637c0d54d360e01b815273__IexecLibOrders_v5_____________________90637c0d54d390610603908a90600401614db3565b60206040518083038186803b15801561061b57600080fd5b505af415801561062f573d6000803e3d6000fd5b505050506040513d601f19601f82011682018060405250810190610653919061475e565b60105460405163176eaa4960e01b815273__IexecLibOrders_v5_____________________9263176eaa499261068b92600401614bad565b60206040518083038186803b1580156106a357600080fd5b505af41580156106b7573d6000803e3d6000fd5b505050506040513d601f19601f820116820180604052508101906106db919061475e565b81600001818152505086600001516001600160a01b0316638da5cb5b6040518163ffffffff1660e01b815260040160206040518083038186803b15801561072157600080fd5b505afa158015610735573d6000803e3d6000fd5b505050506040513d601f19601f8201168201806040525081019061075991906145eb565b6001600160a01b039081166020830152600554885160405163c3c5a54760e01b8152919092169163c3c5a547916107939190600401614bcb565b60206040518083038186803b1580156107ab57600080fd5b505afa1580156107bf573d6000803e3d6000fd5b505050506040513d601f19601f820116820180604052508101906107e39190614726565b6107ec57600080fd5b61080481602001518260000151896101000151612fe7565b61080d57600080fd5b8060e0015115610a58576040516308d9777160e11b815273__IexecLibOrders_v5_____________________906311b2eee29061084e908990600401614db3565b60206040518083038186803b15801561086657600080fd5b505af415801561087a573d6000803e3d6000fd5b505050506040513d601f19601f8201168201806040525081019061089e919061475e565b60105460405163176eaa4960e01b815273__IexecLibOrders_v5_____________________9263176eaa49926108d692600401614bad565b60206040518083038186803b1580156108ee57600080fd5b505af4158015610902573d6000803e3d6000fd5b505050506040513d601f19601f82011682018060405250810190610926919061475e565b81604001818152505085600001516001600160a01b0316638da5cb5b6040518163ffffffff1660e01b815260040160206040518083038186803b15801561096c57600080fd5b505afa158015610980573d6000803e3d6000fd5b505050506040513d601f19601f820116820180604052508101906109a491906145eb565b6001600160a01b039081166060830152600654875160405163c3c5a54760e01b8152919092169163c3c5a547916109de9190600401614bcb565b60206040518083038186803b1580156109f657600080fd5b505afa158015610a0a573d6000803e3d6000fd5b505050506040513d601f19601f82011682018060405250810190610a2e9190614726565b610a3757600080fd5b610a4f81606001518260400151886101000151612fe7565b610a5857600080fd5b604051637f6cc2ff60e11b815273__IexecLibOrders_v5_____________________9063fed985fe90610a8f908890600401614ee2565b60206040518083038186803b158015610aa757600080fd5b505af4158015610abb573d6000803e3d6000fd5b505050506040513d601f19601f82011682018060405250810190610adf919061475e565b60105460405163176eaa4960e01b815273__IexecLibOrders_v5_____________________9263176eaa4992610b1792600401614bad565b60206040518083038186803b158015610b2f57600080fd5b505af4158015610b43573d6000803e3d6000fd5b505050506040513d601f19601f82011682018060405250810190610b67919061475e565b81608001818152505084600001516001600160a01b0316638da5cb5b6040518163ffffffff1660e01b815260040160206040518083038186803b158015610bad57600080fd5b505afa158015610bc1573d6000803e3d6000fd5b505050506040513d601f19601f82011682018060405250810190610be591906145eb565b6001600160a01b0390811660a0830152600754865160405163c3c5a54760e01b8152919092169163c3c5a54791610c1f9190600401614bcb565b60206040518083038186803b158015610c3757600080fd5b505afa158015610c4b573d6000803e3d6000fd5b505050506040513d601f19601f82011682018060405250810190610c6f9190614726565b610c7857600080fd5b610c908160a001518260800151876101400151612fe7565b610c9957600080fd5b604051638ac03f3360e01b815273__IexecLibOrders_v5_____________________90638ac03f3390610cd0908790600401614dc6565b60206040518083038186803b158015610ce857600080fd5b505af4158015610cfc573d6000803e3d6000fd5b505050506040513d601f19601f82011682018060405250810190610d20919061475e565b60105460405163176eaa4960e01b815273__IexecLibOrders_v5_____________________9263176eaa4992610d5892600401614bad565b60206040518083038186803b158015610d7057600080fd5b505af4158015610d84573d6000803e3d6000fd5b505050506040513d601f19601f82011682018060405250810190610da8919061475e565b60c08083018290528501516101e0860151610dc39290612fe7565b610dcc57600080fd5b80516000908152601260205260408082205490890151610df19163ffffffff61300416565b90508160e00151610e025780610e3b565b604080830151600090815260126020528190205490880151610e3b91610e2e919063ffffffff61300416565b829063ffffffff61301916565b6080830151600090815260126020526040908190205490880151919250610e6b91610e2e9163ffffffff61300416565b60c083015160009081526012602052604090205460e0870151919250610e9a91610e2e9163ffffffff61300416565b905060008111610ea957600080fd5b60c082015160008181526012602090815260408083205490519293610ed093909201614bad565b60408051808303601f190181529181528151602092830120600081815260138452919091208b5181546001600160a01b03199081166001600160a01b03928316178355878501516001840180548316918416919091179055938d01516002830155606087015160048301805486169183169190911790558b5160038301805490951691161790925560e0850151909250610f6b576000610f71565b88602001515b600582015587516006820180546001600160a01b039283166001600160a01b03199182161790915560a086015160078401805491909316911617905560208801516008820155610140870151610fce90600163ffffffff61302f16565b6009820155610120870151600a820155600b810185905560c0870151600c820180546001600160a01b039283166001600160a01b031991821617909155610160890151600d84018054918416918316919091179055610180890151600e840180549190931691161790556101a0870151805161105491600f84019160209091019061411f565b5042601082015560c08401516000908152601260208181526040928390205460118501559083018590558951825163b55e75af60e01b81529251611108936001600160a01b039092169263b55e75af9260048082019391829003018186803b1580156110bf57600080fd5b505afa1580156110d3573d6000803e3d6000fd5b505050506040513d601f19601f820116820180604052508101906110f7919061475e565b60208a01519063ffffffff61303f16565b816013018190555087600001516001600160a01b03166387639c686040518163ffffffff1660e01b815260040160206040518083038186803b15801561114d57600080fd5b505afa158015611161573d6000803e3d6000fd5b505050506040513d601f19601f82011682018060405250810190611185919061475e565b601482015583516000908152601260205260409020546111ab908463ffffffff61304d16565b845160009081526012602052604090205560e08401516111f0906111d05760006111d2565b835b6040808701516000908152601260205220549063ffffffff61304d16565b604080860151600090815260126020528181209290925560808601518252902054611221908463ffffffff61304d16565b60808501516000908152601260205260408082209290925560c086015181522054611252908463ffffffff61304d16565b60c0850151600090815260126020526040902055600c8101546008820154600583015460028401546112c0936001600160a01b0316926112bb9288926112af92916112a3919063ffffffff61304d16565b9063ffffffff61304d16565b9063ffffffff61305f16565b613086565b600781015460088201546112ef916001600160a01b0316906112bb9086906112af90601e63ffffffff61303f16565b60068101546040516001600160a01b03909116907f692ad61076dceddd0f1a861f737553dd61fc8501cf4190d29c4e90af6607f76590611330908590614c24565b60405180910390a27fd811b592ed0899225773e8933d8df64bd0b62761a9d7aad4ed5b22735f4610a4828560000151866040015187608001518860c001518860405161138196959493929190614c2d565b60405180910390a15098975050505050505050565b600086815260146020908152604080832060169092528220909190816113ba613114565b6001600160a01b03166001600160a01b0316815260200190815260200160002090506113e461419d565b60018381015460009081526013602090815260409182902082516102408101845281546001600160a01b039081166101e0830190815283870154821661020084015260028085015461022085015290835285516060808201885260038601548416825260048601548416828801526005860154828901528487019190915286518082018852600686015484168152600786015484168188015260088601548189015284880152600985015490840152600a8401546080840152600b84015460a0840152600c840154821660c0840152600d840154821660e0840152600e84015490911661010080840191909152600f840180548751988116159092026000190190911691909104601f8101859004850287018501909552848652909491936101208601938301828280156115595780601f1061152e57610100808354040283529160200191611559565b820191906000526020600020905b81548152906001019060200180831161153c57829003601f168201915b50505091835250506010820154602082015260118201546040820152601282015460608201526013820154608082015260149091015460a09091015290506001835460ff1660048111156115a957fe5b146115b357600080fd5b428360040154116115c357600080fd5b6000825460ff1660038111156115d557fe5b146115df57600080fd5b6001600160a01b038616151580611604575060a0810151601f1a60f81b600160f81b16155b61160d57600080fd5b61170e6001600160a01b0387161580159061163257506018546001600160a01b031615155b61164457816040015160200151611651565b6018546001600160a01b03165b611659613114565b8b8960405160200161166d93929190614b56565b60408051601f1981840301815290829052805160209091012063918a15cf60e01b825273__IexecLibOrders_v5_____________________9163918a15cf916116b891600401614c24565b60206040518083038186803b1580156116d057600080fd5b505af41580156116e4573d6000803e3d6000fd5b505050506040513d601f19601f82011682018060405250810190611708919061475e565b86612ded565b61171757600080fd5b6001600160a01b03861615806117e057506117e086898960405160200161173f929190614bad565b60408051601f1981840301815290829052805160209091012063918a15cf60e01b825273__IexecLibOrders_v5_____________________9163918a15cf9161178a91600401614c24565b60206040518083038186803b1580156117a257600080fd5b505af41580156117b6573d6000803e3d6000fd5b505050506040513d601f19601f820116820180604052508101906117da919061475e565b87612ded565b6117e957600080fd5b8154600160ff19909116811783558201889055600282018790556003820180546001600160a01b0319166001600160a01b038816179055600a830161182c613114565b815460018082018455600093845260209093200180546001600160a01b0319166001600160a01b03929092169190911790558301546118729061186d613114565b613118565b61187a613114565b6001600160a01b0316897f3fdb8d7797562d49a81078dbf7fa1771958ea452f8b13d1148383bd9506aecfb8a6040516118b39190614c24565b60405180910390a360008981526015602052604081209061192160016119156003611909816017876118e3613114565b6001600160a01b031681526020810191909152604001600020549063ffffffff61313c16565b9063ffffffff61302f16565b9063ffffffff61300416565b60008b81526020849052604081205491925061194c82611915856112af83600163ffffffff61302f16565b90506119578361315e565b600487015560008c81526020859052604090205461197b908263ffffffff61304d16565b60008d815260208690526040902055600184015461199f908263ffffffff61304d16565b60018501556119ae8d8d61331c565b50505050505050505050505050565b60006119c761419d565b60008481526013602090815260409182902082516102408101845281546001600160a01b039081166101e08301908152600180850154831661020085015260028086015461022086015291845286516060808201895260038701548516825260048701548516828901526005870154828a0152858801919091528751808201895260068701548516815260078701548516818901526008870154818a015285890152600986015490850152600a8501546080850152600b85015460a0850152600c850154831660c0850152600d850154831660e0850152600e85015490921661010080850191909152600f850180548851948116159092026000190190911691909104601f81018690048602830186019096528582529194929361012086019391929190830182828015611b3c5780601f10611b1157610100808354040283529160200191611b3c565b820191906000526020600020905b815481529060010190602001808311611b1f57829003601f168201915b50505050508152602001601082015481526020016011820154815260200160128201548152602001601382015481526020016014820154815250509050806101600151831015611b8b57600080fd5b610180810151610160820151611ba69163ffffffff61304d16565b8310611bb157600080fd5b60008484604051602001611bc6929190614bad565b60408051601f1981840301815291815281516020928301206000818152601490935290822090925090815460ff166004811115611bff57fe5b14611c0957600080fd5b805460ff1916600190811782558101869055600281018590556080830151601a80549091908110611c3657fe5b6000918252602090912060039182020160020154908201819055610140840151611c65916112a390600761305f565b60048201556101408301516003820154611c8b91906112a390600a63ffffffff61305f16565b6006820155600082815260156020526040808220600190810155848101515190516001600160a01b039091169184917f252992fb0468d68d6a5784ec03214f0d0a362083f2d7ebd157af43b017a22e069190a3509150505b92915050565b611cf1611d70565b611d165760405162461bcd60e51b8152600401611d0d90614d39565b60405180910390fd5b600080546040516001600160a01b03909116907f8be0079c531659141344cd1fd0a4f28419497f9722a3daafe3b4186f6b6457e0908390a3600080546001600160a01b0319169055565b6000546001600160a01b03165b90565b600080546001600160a01b0316611d85613114565b6001600160a01b031614905090565b6000838214611da257600080fd5b60005b84811015611de457611ddb868683818110611dbc57fe5b90506020020135858584818110611dcf57fe5b905060200201356119bd565b50600101611da5565b50600195945050505050565b60008181526014602052604090206001815460ff166004811115611e1057fe5b1480611e2b57506002815460ff166004811115611e2957fe5b145b611e3457600080fd5b4281600601541115611e4557600080fd5b805460ff191660041781556001810154611e5f90836134d5565b60005b600a820154811015611eb057600082600a018281548110611e7f57fe5b60009182526020909120015460018401546001600160a01b039091169150611ea790826135fa565b50600101611e62565b5060405182907fcbc308b5f91040d2659a5201858344b0b583cd2f9e18e8470c2fa052c5b21ff890600090a25050565b60006102c5858585858080601f016020809104026020016040519081016040528093929190818152602001838380828437600092019190915250612fe792505050565b6000838152601460209081526040808320600101548352601390915290206007015483906001600160a01b0316611f58613114565b6001600160a01b031614611f6b57600080fd5b6000848152601460205260409020611f8161419d565b60018281015460009081526013602090815260409182902082516102408101845281546001600160a01b039081166101e0830190815283870154821661020084015260028085015461022085015290835285516060808201885260038601548416825260048601548416828801526005860154828901528487019190915286518082018852600686015484168152600786015484168188015260088601548189015284880152600985015490840152600a8401546080840152600b84015460a0840152600c840154821660c0840152600d840154821660e0840152600e84015490911661010080840191909152600f840180548751988116159092026000190190911691909104601f8101859004850287018501909552848652909491936101208601938301828280156120f65780601f106120cb576101008083540402835291602001916120f6565b820191906000526020600020905b8154815290600101906020018083116120d957829003601f168201915b50505091835250506010820154602082015260118201546040820152601282015460608201526013820154608082015260149091015460a09091015290506002825460ff16600481111561214657fe5b1461215057600080fd5b4282600601541161216057600080fd5b816009015482600801541480612189575060008260080154118015612189575042826005015411155b61219257600080fd5b6101008101516001600160a01b031615806121c7575081600b015485856040516121bd929190614bbb565b6040518091039020145b6121d057600080fd5b815460ff191660031782556121e9600c83018686614243565b506121f882600101548761361a565b61220186613800565b857f78ce8a8bc0fcb704e8ba3b3dbb36aa88002df8038128b4af2f27ef65db6650448686604051612233929190614c6e565b60405180910390a261227b8686868080601f016020809104026020016040519081016040528093929190818152602001838380828437600092019190915250613c7a92505050565b505050505050565b600061228f8383613d56565b9392505050565b600086815260146020908152604080832060169092528220909190816122ba613114565b6001600160a01b03166001600160a01b0316815260200190815260200160002090506122e461419d565b60018381015460009081526013602090815260409182902082516102408101845281546001600160a01b039081166101e0830190815283870154821661020084015260028085015461022085015290835285516060808201885260038601548416825260048601548416828801526005860154828901528487019190915286518082018852600686015484168152600786015484168188015260088601548189015284880152600985015490840152600a8401546080840152600b84015460a0840152600c840154821660c0840152600d840154821660e0840152600e84015490911661010080840191909152600f840180548751988116159092026000190190911691909104601f8101859004850287018501909552848652909491936101208601938301828280156124595780601f1061242e57610100808354040283529160200191612459565b820191906000526020600020905b81548152906001019060200180831161243c57829003601f168201915b50505091835250506010820154602082015260118201546040820152601282015460608201526013820154608082015260149091015460a09091015290506001835460ff1660048111156124a957fe5b146124b357600080fd5b428360040154116124c357600080fd5b600a830154156124d257600080fd5b80606001516001146124e357600080fd5b600089896040516020016124f8929190614bad565b604051602081830303815290604052805190602001209050600061251a613114565b8b8b60405160200161252e93929190614b83565b60405160208183030381529060405280519060200120905060006001600160a01b03168361010001516001600160a01b031614806125715750885160208a01208a145b61257a57600080fd5b6001600160a01b03881615158061259f575060a0830151601f1a60f81b600160f81b16155b6125a857600080fd5b6126a96001600160a01b038916158015906125cd57506018546001600160a01b031615155b6125df578360400151602001516125ec565b6018546001600160a01b03165b6125f4613114565b8d8b60405160200161260893929190614b56565b60408051601f1981840301815290829052805160209091012063918a15cf60e01b825273__IexecLibOrders_v5_____________________9163918a15cf9161265391600401614c24565b60206040518083038186803b15801561266b57600080fd5b505af415801561267f573d6000803e3d6000fd5b505050506040513d601f19601f820116820180604052508101906126a3919061475e565b88612ded565b6126b257600080fd5b6001600160a01b038816158061277b575061277b8883836040516020016126da929190614bad565b60408051601f1981840301815290829052805160209091012063918a15cf60e01b825273__IexecLibOrders_v5_____________________9163918a15cf9161272591600401614c24565b60206040518083038186803b15801561273d57600080fd5b505af4158015612751573d6000803e3d6000fd5b505050506040513d601f19601f82011682018060405250810190612775919061475e565b89612ded565b61278457600080fd5b8354600260ff199182168117865560018601848155818701849055600380880180546001600160a01b0319166001600160a01b038e16179055885490931683178855546007880155908601546127df9142916112a39161305f565b60058601556001600886018190556009860155600b85018a9055885161280e90600c87019060208c019061411f565b5084600a0161281b613114565b815460018082018455600093845260209093200180546001600160a01b0319166001600160a01b039290921691909117905585015461285a908c61361a565b600061288c612878856101c00151606461300490919063ffffffff16565b60408087015101519063ffffffff61303f16565b905060006128ab8286604001516040015161300490919063ffffffff16565b90506128bf6128b8613114565b838f613d8c565b6128ce8760010154828f613d97565b6128d6613114565b6001600160a01b03168d7f3fdb8d7797562d49a81078dbf7fa1771958ea452f8b13d1148383bd9506aecfb8660405161290f9190614c24565b60405180910390a38c7ff6d49bf3e05d33a4bc497d3c793fb5756388bb96b947cf51bb60aaecb0e022e3856040516129479190614c24565b60405180910390a2612957613114565b6001600160a01b03168d7f4b1763d473ac8fa80b4432ba90047e1b92444d8fabc55e6a002d9b1a316d79598e6040516129909190614c24565b60405180910390a38c7f78ce8a8bc0fcb704e8ba3b3dbb36aa88002df8038128b4af2f27ef65db6650448c6040516129c89190614c9d565b60405180910390a26119ae8d8c613c7a565b6129e2611d70565b6129fe5760405162461bcd60e51b8152600401611d0d90614d39565b612a0781613dbd565b50565b6000818152601460209081526040808320600101548352601390915290206007015481906001600160a01b0316612a3f613114565b6001600160a01b031614612a5257600080fd5b60008281526014602052604090206002815460ff166004811115612a7257fe5b14612a7c57600080fd5b42816006015411612a8c57600080fd5b42816005015411158015612aa257506008810154155b612aab57600080fd5b60005b600a820154811015612b4457600082600a018281548110612acb57fe5b600091825260208083209091015460078601548884526016835260408085206001600160a01b039093168086529290935291909220600101549192501415612b3b5760008581526016602090815260408083206001600160a01b03851684529091529020805460ff191660031790555b50600101612aae565b5060008381526015602090815260408083206007850154845291829052909120546001820154612b799163ffffffff61300416565b600182810191909155600783018054600090815260208490526040808220829055855460ff19169093178555908190556005840181905560098401819055905185917f3afe0f24796ce653c6ab1f3e7aba5ce564eece5e82aee724aff28253e829f07b91a250505050565b6000838214612bf257600080fd5b60005b84811015611de457612c226101d2878784818110612c0f57fe5b90506020020135868685818110611dcf57fe5b600101612bf5565b6000805b82811015612c5957612c51848483818110612c4557fe5b90506020020135611df0565b600101612c2e565b5060019392505050565b60008281526014602090815260408083206016909252822090919081612c87613114565b6001600160a01b03168152602081019190915260400160002090506002825460ff166004811115612cb457fe5b14612cbe57600080fd5b42826005015411612cce57600080fd5b6001815460ff166003811115612ce057fe5b14612cea57600080fd5b8160070154816001015414612cfe57600080fd5b8383604051602001612d11929190614bad565b60405160208183030381529060405280519060200120816001015414612d3657600080fd5b612d3e613114565b8484604051602001612d5293929190614b83565b60405160208183030381529060405280519060200120816002015414612d7757600080fd5b805460ff191660021781556008820154612d9290600161304d565b6008830155600b8201839055612da6613114565b6001600160a01b0316847f4b1763d473ac8fa80b4432ba90047e1b92444d8fabc55e6a002d9b1a316d795985604051612ddf9190614c24565b60405180910390a350505050565b6000612df884613e3e565b15612e9657604051630b135d3f60e11b81526320c13b0b60e01b906001600160a01b03861690631626ba7e90612e349087908790600401614c55565b60206040518083038186803b158015612e4c57600080fd5b505afa158015612e60573d6000803e3d6000fd5b505050506040513d601f19601f82011682018060405250810190612e8491906148dd565b6001600160e01b03191614905061228f565b6040516319045a2560e01b81526001600160a01b0385169073__IexecLibOrders_v5_____________________906319045a2590612eda9087908790600401614c55565b60206040518083038186803b158015612ef257600080fd5b505af4158015612f06573d6000803e3d6000fd5b505050506040513d601f19601f82011682018060405250810190612f2a91906145eb565b6001600160a01b031614949350505050565b6000826001600160a01b0316846001600160a01b03161480612fdf5750836001600160a01b031663d202158d612f7185613e4a565b846040518363ffffffff1660e01b8152600401612f8f929190614bad565b60206040518083038186803b158015612fa757600080fd5b505afa158015612fbb573d6000803e3d6000fd5b505050506040513d601f19601f82011682018060405250810190612fdf9190614726565b949350505050565b6000612ff38484613d56565b80612fdf5750612fdf848484612ded565b60008282111561301357600080fd5b50900390565b6000818310613028578161228f565b5090919050565b600081831015613028578161228f565b600061228f83836064613e56565b60008282018381101561228f57600080fd5b60008261306e57506000611ce3565b8282028284828161307b57fe5b041461228f57600080fd5b613091823083613e6b565b6001600160a01b0382166000908152600e60205260409020546130ba908263ffffffff61304d16565b6001600160a01b0383166000908152600e60205260409081902091909155517f625fed9875dada8643f2418b838ae0bc78d9a148a18eee4ee1979ff0f3f5d427906131089084908490614bdf565b60405180910390a15050565b3390565b613138816013600085815260200190815260200160002060130154613086565b5050565b600080821161314a57600080fd5b600082848161315557fe5b04949350505050565b604080517ff8f9cbfae6cc78fbefe7cdc3a1793dfcf4f0e8bbd8cec470b6a28a7a5a3e1efd81527ff5ecf1b3e9debc68e1d9cfabc5997135bfb7a7a3938b7b606b5b4b3f2f1f0ffe60208201527ff6e4ed9ff2d6b458eadcdf97bd91692de2d4da8fd2d0ac50c6ae9a8272523616818301527fc8c0b887b0a8a4489c948c7f847c6125746c645c544c444038302820181008ff60608201527ff7cae577eec2a03cf3bad76fb589591debb2dd67e0aa9834bea6925f6a4a2e0e60808201527fe39ed557db96902cd38ed14fad815115c786af479b7e8324736353433727170760a08201527fc976c13bb96e881cb166a933a55e490d9d56952b8d4e801485467d236242260660c08201527f753a6d1b65325d0c552a4d1345224105391a310b29122104190a11030902010060e0820152610100808201909252600160f81b6001600160801b68010000000000000000640100000000620100006010600460026000198c019081041790810417908104178881041790810417908104179081041790810417017e818283848586878898a8b8c8d8e8f929395969799a9b9d9e9faaeb6bedeeff0281900460ff039091015104600160ff1b909211020190565b600082815260156020908152604080832060148352818420600190810154855260139093529220600901549061336e9061335d90839063ffffffff61300416565b60018401549063ffffffff61305f16565b60008481526020849052604090205461338d908363ffffffff61305f16565b11156134cf57600084815260146020526040812090805b600a83015481101561345657600083600a0182815481106133c157fe5b60009182526020808320909101548a83526016825260408084206001600160a01b0390921680855291909252912060010154909150871480156134345750600160008981526016602090815260408083206001600160a01b038616845290915290205460ff16600381111561343257fe5b145b1561344d5761344a83600163ffffffff61304d16565b92505b506001016133a4565b50815460ff19166002908117835560078301869055600383015461347f9142916112a39161305f565b6005830155600060088301556009820181905560405186907ff6d49bf3e05d33a4bc497d3c793fb5756388bb96b947cf51bb60aaecb0e022e3906134c4908890614c24565b60405180910390a250505b50505050565b600082815260136020526040812060088101546005820154600283015492939261350a92916112a3919063ffffffff61304d16565b600883015490915060009061352690601e63ffffffff61303f16565b600c840154909150613541906001600160a01b031683613f74565b600783015461355a906001600160a01b03168286613ff6565b60408051808201909152600a81526969457865634b6974747960b01b6020909101526135a77f99c2268479b93fde36232351229815df80837e247066f0acfcf087b5d9321d3c828661407c565b60408051808201909152600a81526969457865634b6974747960b01b6020909101526135f37f99c2268479b93fde36232351229815df80837e247066f0acfcf087b5d9321d3c82613086565b5050505050565b613138816013600085815260200190815260200160002060130154613f74565b600082815260136020526040812060088101546005820154600283015492939261364f92916112a3919063ffffffff61304d16565b600883015490915060009061366b90601e63ffffffff61303f16565b600c840154909150613687906001600160a01b03168386613ff6565b6002830154156136af57600183015460028401546136af916001600160a01b0316908661407c565b6005830154158015906136ce575060038301546001600160a01b031615155b156136f157600483015460058401546136f1916001600160a01b0316908661407c565b6007830154613709906001600160a01b031682613f74565b60408051808201909152600a81526969457865634b6974747960b01b60209182015273229815df80837e247066f0acfcf087b5d9321d3c600052600e90527fa0940de58810e1fb460c62a53fc4b0d383931e0fed377e2acf6869e0de40d4ab54801561227b576137988161378c633b9aca0061190983600a63ffffffff61303f16565b9063ffffffff61301916565b60408051808201909152600a81526969457865634b6974747960b01b60209091015290506137e77f99c2268479b93fde36232351229815df80837e247066f0acfcf087b5d9321d3c8287613ff6565b600784015461227b906001600160a01b0316828761407c565b600081815260146020526040902061381661419d565b60018281015460009081526013602090815260409182902082516102408101845281546001600160a01b039081166101e0830190815283870154821661020084015260028085015461022085015290835285516060808201885260038601548416825260048601548416828801526005860154828901528487019190915286518082018852600686015484168152600786015484168188015260088601548189015284880152600985015490840152600a8401546080840152600b84015460a0840152600c840154821660c0840152600d840154821660e0840152600e84015490911661010080840191909152600f840180548751988116159092026000190190911691909104601f81018590048502870185019095528486529094919361012086019383018282801561398b5780601f106139605761010080835404028352916020019161398b565b820191906000526020600020905b81548152906001019060200180831161396e57829003601f168201915b5050509183525050601082015460208201526011820154604080830191909152601283015460608301526013830154608083015260149092015460a090910152818101510151909150600090815b600a850154811015613a8057600085600a0182815481106139f657fe5b60009182526020808320909101548983526016825260408084206001600160a01b039092168085529190925291209091506002815460ff166003811115613a3957fe5b1415613a5c576004810154613a5590869063ffffffff61304d16565b9450613a76565b6101a0860151613a7390859063ffffffff61304d16565b93505b50506001016139d9565b506000613aac613a9f856101c00151606461300490919063ffffffff16565b839063ffffffff61303f16565b905060005b600a860154811015613c6a57600086600a018281548110613ace57fe5b60009182526020808320909101548a83526016825260408084206001600160a01b039092168085529190925291209091506002815460ff166003811115613b1157fe5b1415613be0576004810154600090613b319086908963ffffffff613e5616565b9050613b43868263ffffffff61300416565b9550613b538960010154846135fa565b613b5e83828c613d8c565b600a89015460011015613bda576001600160a01b038316600090815260176020526040902054613b9590600163ffffffff61304d16565b6001600160a01b0384166000818152601760205260408082209390935591518c927f9703f4589802246c80b822e63697180da799e363cd1b6fd9465a5e5574d5349291a35b50613c60565b613bef8860010154838b6140ba565b6001600160a01b038216600090815260176020526040902054613c1b906002600363ffffffff613e5616565b6001600160a01b0383166000818152601760205260408082209390935591518b927ff868788948d55240774fdbad06555105ef20bbc70d1b7eccda982b65e11e79bb91a35b5050600101613ab1565b5061227b85600101548388613d97565b600082815260146020908152604080832060010154835260139091529020600e01546001600160a01b03168015613d5157601954604051635dd8085560e01b81526001600160a01b03831691635dd8085591613cdc9087908790600401614c55565b600060405180830381600088803b158015613cf657600080fd5b5087f193505050508015613d08575060015b613d51573d808015613d36576040519150601f19603f3d011682016040523d82523d6000602084013e613d3b565b606091505b50603f60195481613d4857fe5b045a116134cf57fe5b505050565b60006001600160a01b0383161580159061228f5750506000908152601160205260409020546001600160a01b0390811691161490565b613d5183838361407c565b600083815260136020526040902060070154613d51906001600160a01b0316838361407c565b6001600160a01b038116613de35760405162461bcd60e51b8152600401611d0d90614cf3565b600080546040516001600160a01b03808516939216917f8be0079c531659141344cd1fd0a4f28419497f9722a3daafe3b4186f6b6457e091a3600080546001600160a01b0319166001600160a01b0392909216919091179055565b3b63ffffffff16151590565b6001600160a01b031690565b6000612fdf613e65858561305f565b8361313c565b6001600160a01b038316613e915760405162461bcd60e51b8152600401611d0d90614d6e565b6001600160a01b038216613eb75760405162461bcd60e51b8152600401611d0d90614cb0565b6001600160a01b0383166000908152600d6020526040902054613ee0908263ffffffff61300416565b6001600160a01b038085166000908152600d60205260408082209390935590841681522054613f15908263ffffffff61304d16565b6001600160a01b038084166000818152600d602052604090819020939093559151908516907fddf252ad1be2c89b69c2b068fc378daa952ba7f163c4a11628f55a4df523b3ef90613f67908590614c24565b60405180910390a3505050565b613f7f308383613e6b565b6001600160a01b0382166000908152600e6020526040902054613fa8908263ffffffff61300416565b6001600160a01b0383166000908152600e60205260409081902091909155517f6381d9813cabeb57471b5a7e05078e64845ccdb563146a6911d536f24ce960f1906131089084908490614bdf565b6001600160a01b0383166000908152600e602052604090205461401f908363ffffffff61300416565b6001600160a01b0384166000908152600e60205260409081902091909155517f1bccc549c38561cd5b57f0db11ceb8dde1b0b6ee05ab5e155b51c7c5ba64becb9061406f90859085908590614bf8565b60405180910390a1505050565b614087308484613e6b565b7fc2aca55aa696938c7e95842e8939ca0fbb2120a3eeb8948cdcee2b70da56667283838360405161406f93929190614bf8565b613d5182601360008681526020019081526020016000206013015483613ff6565b6040805161010081018252600080825260208201819052918101829052606081018290526080810182905260a0810182905260c0810182905260e081019190915290565b828054600181600116156101000203166002900490600052602060002090601f016020900481019282601f1061416057805160ff191683800117855561418d565b8280016001018555821561418d579182015b8281111561418d578251825591602001919060010190614172565b506141999291506142b1565b5090565b604051806101e001604052806141b16142cb565b81526020016141be6142cb565b81526020016141cb6142cb565b815260200160008152602001600081526020016000801916815260200160006001600160a01b0316815260200160006001600160a01b0316815260200160006001600160a01b031681526020016060815260200160008152602001600081526020016000815260200160008152602001600081525090565b828054600181600116156101000203166002900490600052602060002090601f016020900481019282601f106142845782800160ff1982351617855561418d565b8280016001018555821561418d579182015b8281111561418d578235825591602001919060010190614296565b611d6d91905b8082111561419957600081556001016142b7565b604080516060810182526000808252602082018190529181019190915290565b8035611ce381614fb0565b60008083601f840112614307578182fd5b5081356001600160401b0381111561431d578182fd5b602083019150836020808302850101111561433757600080fd5b9250929050565b60008083601f84011261434f578182fd5b5081356001600160401b03811115614365578182fd5b60208301915083602082850101111561433757600080fd5b600082601f83011261438d578081fd5b81356001600160401b038111156143a2578182fd5b6143b5601f8201601f1916602001614f8a565b91508082528360208285010111156143cc57600080fd5b8060208401602084013760009082016020015292915050565b60006101208083850312156143f8578182fd5b61440181614f8a565b91505061440e83836142eb565b815260208201356020820152604082013560408201526060820135606082015261443b83608084016142eb565b608082015261444d8360a084016142eb565b60a082015261445f8360c084016142eb565b60c082015260e082013560e0820152610100808301356001600160401b0381111561448957600080fd5b6144958582860161437d565b82840152505092915050565b60006102008083850312156144b4578182fd5b6144bd81614f8a565b9150506144ca83836142eb565b8152602082013560208201526144e383604084016142eb565b6040820152606082013560608201526144ff83608084016142eb565b608082015260a082013560a082015261451b8360c084016142eb565b60c082015260e0828101359082015261010080830135908201526101208083013590820152610140808301359082015261016061455a848285016142eb565b9082015261018061456d848483016142eb565b908201526101a0828101356001600160401b038082111561458d57600080fd5b6145998683870161437d565b838501526101c0925082850135838501526101e09250828501359150808211156145c257600080fd5b506144958582860161437d565b6000602082840312156145e0578081fd5b813561228f81614fb0565b6000602082840312156145fc578081fd5b815161228f81614fb0565b60008060408385031215614619578081fd5b823561462481614fb0565b946020939093013593505050565b60008060008060608587031215614647578182fd5b843561465281614fb0565b93506020850135925060408501356001600160401b03811115614673578283fd5b61467f8782880161433e565b95989497509550505050565b6000806020838503121561469d578182fd5b82356001600160401b038111156146b2578283fd5b6146be858286016142f6565b90969095509350505050565b600080600080604085870312156146df578182fd5b84356001600160401b03808211156146f5578384fd5b614701888389016142f6565b90965094506020870135915080821115614719578384fd5b5061467f878288016142f6565b600060208284031215614737578081fd5b8151801515811461228f578182fd5b600060208284031215614757578081fd5b5035919050565b60006020828403121561476f578081fd5b5051919050565b60008060408385031215614788578182fd5b50508035926020909101359150565b60008060008060008060c087890312156147af578384fd5b86359550602087013594506040870135935060608701356147cf81614fb0565b925060808701356001600160401b03808211156147ea578384fd5b6147f68a838b0161437d565b935060a089013591508082111561480b578283fd5b5061481889828a0161437d565b9150509295509295509295565b60008060008060008060c0878903121561483d578384fd5b863595506020870135945060408701356001600160401b0380821115614861578586fd5b61486d8a838b0161437d565b95506060890135915061487f82614fb0565b909350608088013590808211156147ea578384fd5b6000806000604084860312156148a8578081fd5b8335925060208401356001600160401b038111156148c4578182fd5b6148d08682870161433e565b9497909650939450505050565b6000602082840312156148ee578081fd5b81516001600160e01b03198116811461228f578182fd5b6000806000806080858703121561491a578182fd5b84356001600160401b0380821115614930578384fd5b61493c888389016143e5565b95506020870135915080821115614951578384fd5b61495d888389016143e5565b94506040870135915080821115614972578384fd5b610160918701808903831315614986578485fd5b61498f83614f8a565b6149998a836142eb565b81526020820135602082015260408201356040820152606082013560608201526080820135608082015260a082013560a08201526149da8a60c084016142eb565b60c08201526149ec8a60e084016142eb565b60e08201526101009350614a028a8584016142eb565b848201526101209350838201358482015261014093508382013583811115614a28578687fd5b614a348b82850161437d565b858301525080955050506060870135915080821115614a51578283fd5b50614a5e878288016144a1565b91505092959194509250565b6001600160a01b03169052565b60008151808452815b81811015614a9c57602081850181015186830182015201614a80565b81811115614aad5782602083870101525b50601f01601f19169290920160200192915050565b600061012060018060a01b0383511684526020830151602085015260408301516040850152606083015160608501526080830151614b036080860182614a6a565b5060a0830151614b1660a0860182614a6a565b5060c0830151614b2960c0860182614a6a565b5060e083015160e0850152610100808401518282870152614b4c83870182614a77565b9695505050505050565b6bffffffffffffffffffffffff19606094851b811682526014820193909352921b16603482015260480190565b60609390931b6bffffffffffffffffffffffff191683526014830191909152603482015260540190565b918252602082015260400190565b6000828483379101908152919050565b6001600160a01b0391909116815260200190565b6001600160a01b03929092168252602082015260400190565b6001600160a01b039390931683526020830191909152604082015260600190565b901515815260200190565b90815260200190565b958652602086019490945260408501929092526060840152608083015260a082015260c00190565b600083825260406020830152612fdf6040830184614a77565b60006020825282602083015282846040840137818301604090810191909152601f909201601f19160101919050565b60006020825261228f6020830184614a77565b60208082526023908201527f45524332303a207472616e7366657220746f20746865207a65726f206164647260408201526265737360e81b606082015260800190565b60208082526026908201527f4f776e61626c653a206e6577206f776e657220697320746865207a65726f206160408201526564647265737360d01b606082015260800190565b6020808252818101527f4f776e61626c653a2063616c6c6572206973206e6f7420746865206f776e6572604082015260600190565b60208082526025908201527f45524332303a207472616e736665722066726f6d20746865207a65726f206164604082015264647265737360d81b606082015260800190565b60006020825261228f6020830184614ac2565b600060208252614dda602083018451614a6a565b602083015160408301526040830151614df66060840182614a6a565b50606083015160808301526080830151614e1360a0840182614a6a565b5060a083015160c083015260c0830151614e3060e0840182614a6a565b5060e083015161010083810191909152830151610120808401919091528301516101408084019190915283015161016080840191909152830151610180614e7981850183614a6a565b84015190506101a0614e8d84820183614a6a565b808501519150506102006101c08181860152614ead610220860184614a77565b908601516101e08681019190915280870151868303601f190184880152935090614ed78185614a77565b979650505050505050565b600060208252614ef6602083018451614a6a565b602083015160408301526040830151606083015260608301516080830152608083015160a083015260a083015160c083015260c0830151614f3a60e0840182614a6a565b5060e0830151610100614f4f81850183614a6a565b8401519050610120614f6384820183614a6a565b84015161014084810191909152840151610160808501529050612fdf610180840182614a77565b6040518181016001600160401b0381118282101715614fa857600080fd5b604052919050565b6001600160a01b0381168114612a0757600080fdfea2646970667358221220a10e574f2e8353d77e93ba6d49089d02002d56ff1ab6f221a0786c31b24f0d9664736f6c634300060400338be0079c531659141344cd1fd0a4f28419497f9722a3daafe3b4186f6b6457e0",
  "source": "pragma solidity ^0.6.0;\npragma experimental ABIEncoderV2;\n\nimport \"@iexec/solidity/contracts/ERC1154/IERC1154.sol\";\nimport \"./IexecERC20Common.sol\";\nimport \"./SignatureVerifier.sol\";\nimport \"../DelegateBase.sol\";\nimport \"../interfaces/IexecPoco.sol\";\n\n\ncontract IexecPocoDelegate is IexecPoco, DelegateBase, IexecERC20Common, SignatureVerifier\n{\n\tusing SafeMathExtended  for uint256;\n\tusing IexecLibOrders_v5 for bytes32;\n\tusing IexecLibOrders_v5 for IexecLibOrders_v5.AppOrder;\n\tusing IexecLibOrders_v5 for IexecLibOrders_v5.DatasetOrder;\n\tusing IexecLibOrders_v5 for IexecLibOrders_v5.WorkerpoolOrder;\n\tusing IexecLibOrders_v5 for IexecLibOrders_v5.RequestOrder;\n\n\t/***************************************************************************\n\t *                        Escrow methods: internal                         *\n\t ***************************************************************************/\n\tfunction reward(address user, uint256 amount, bytes32 ref)\n\tinternal /* returns (bool) */\n\t{\n\t\t_transfer(address(this), user, amount);\n\t\temit Reward(user, amount, ref);\n\t\t/* return true; */\n\t}\n\n\tfunction seize(address user, uint256 amount, bytes32 ref)\n\tinternal /* returns (bool) */\n\t{\n\t\tm_frozens[user] = m_frozens[user].sub(amount);\n\t\temit Seize(user, amount, ref);\n\t\t/* return true; */\n\t}\n\n\tfunction lock(address user, uint256 amount)\n\tinternal /* returns (bool) */\n\t{\n\t\t_transfer(user, address(this), amount);\n\t\tm_frozens[user] = m_frozens[user].add(amount);\n\t\temit Lock(user, amount);\n\t\t/* return true; */\n\t}\n\n\tfunction unlock(address user, uint256 amount)\n\tinternal /* returns (bool) */\n\t{\n\t\t_transfer(address(this), user, amount);\n\t\tm_frozens[user] = m_frozens[user].sub(amount);\n\t\temit Unlock(user, amount);\n\t\t/* return true; */\n\t}\n\n\t/***************************************************************************\n\t *                    Escrow overhead for contribution                     *\n\t ***************************************************************************/\n\tfunction lockContribution(bytes32 _dealid, address _worker)\n\tinternal\n\t{\n\t\tlock(_worker, m_deals[_dealid].workerStake);\n\t}\n\n\tfunction unlockContribution(bytes32 _dealid, address _worker)\n\tinternal\n\t{\n\t\tunlock(_worker, m_deals[_dealid].workerStake);\n\t}\n\n\tfunction rewardForContribution(address _worker, uint256 _amount, bytes32 _taskid)\n\tinternal\n\t{\n\t\treward(_worker, _amount, _taskid);\n\t}\n\n\tfunction seizeContribution(bytes32 _dealid, address _worker, bytes32 _taskid)\n\tinternal\n\t{\n\t\tseize(_worker, m_deals[_dealid].workerStake, _taskid);\n\t}\n\n\tfunction rewardForScheduling(bytes32 _dealid, uint256 _amount, bytes32 _taskid)\n\tinternal\n\t{\n\t\treward(m_deals[_dealid].workerpool.owner, _amount, _taskid);\n\t}\n\n\tfunction successWork(bytes32 _dealid, bytes32 _taskid)\n\tinternal\n\t{\n\t\tIexecLibCore_v5.Deal storage deal = m_deals[_dealid];\n\n\t\tuint256 requesterstake = deal.app.price\n\t\t                         .add(deal.dataset.price)\n\t\t                         .add(deal.workerpool.price);\n\t\tuint256 poolstake = deal.workerpool.price\n\t\t                    .percentage(WORKERPOOL_STAKE_RATIO);\n\n\t\t// seize requester funds\n\t\tseize(deal.requester, requesterstake, _taskid);\n\t\t// dapp reward\n\t\tif (deal.app.price > 0)\n\t\t{\n\t\t\treward(deal.app.owner, deal.app.price, _taskid);\n\t\t}\n\t\t// data reward\n\t\tif (deal.dataset.price > 0 && deal.dataset.pointer != address(0))\n\t\t{\n\t\t\treward(deal.dataset.owner, deal.dataset.price, _taskid);\n\t\t}\n\t\t// unlock pool stake\n\t\tunlock(deal.workerpool.owner, poolstake);\n\t\t// pool reward performed by consensus manager\n\n\t\t/**\n\t\t * Retrieve part of the kitty\n\t\t * TODO: remove / keep ?\n\t\t */\n\t\tuint256 kitty = m_frozens[KITTY_ADDRESS];\n\t\tif (kitty > 0)\n\t\t{\n\t\t\tkitty = kitty\n\t\t\t        .percentage(KITTY_RATIO) // fraction\n\t\t\t        .max(KITTY_MIN)          // at least this\n\t\t\t        .min(kitty);             // but not more than available\n\t\t\tseize (KITTY_ADDRESS,         kitty, _taskid);\n\t\t\treward(deal.workerpool.owner, kitty, _taskid);\n\t\t}\n\t}\n\n\tfunction failedWork(bytes32 _dealid, bytes32 _taskid)\n\tinternal\n\t{\n\t\tIexecLibCore_v5.Deal storage deal = m_deals[_dealid];\n\n\t\tuint256 requesterstake = deal.app.price\n\t\t                         .add(deal.dataset.price)\n\t\t                         .add(deal.workerpool.price);\n\t\tuint256 poolstake = deal.workerpool.price\n\t\t                    .percentage(WORKERPOOL_STAKE_RATIO);\n\n\t\tunlock(deal.requester,        requesterstake    );\n\t\tseize (deal.workerpool.owner, poolstake, _taskid);\n\t\treward(KITTY_ADDRESS,         poolstake, _taskid); //  Kitty / Burn\n\t\tlock  (KITTY_ADDRESS,         poolstake         ); //  Kitty / Burn\n\t}\n\n\t/***************************************************************************\n\t *                           ODB order signature                           *\n\t ***************************************************************************/\n\tfunction verifySignature(address _identity, bytes32 _hash, bytes calldata _signature)\n\texternal view override returns (bool)\n\t{\n\t\treturn _checkSignature(_identity, _hash, _signature);\n\t}\n\n\tfunction verifyPresignature(address _identity, bytes32 _hash)\n\texternal view override returns (bool)\n\t{\n\t\treturn _checkPresignature(_identity, _hash);\n\t}\n\n\tfunction verifyPresignatureOrSignature(address _identity, bytes32 _hash, bytes calldata _signature)\n\texternal view override returns (bool)\n\t{\n\t\treturn _checkPresignatureOrSignature(_identity, _hash, _signature);\n\t}\n\n\t/***************************************************************************\n\t *                           ODB order matching                            *\n\t ***************************************************************************/\n\tstruct Identities\n\t{\n\t\tbytes32 appHash;\n\t\taddress appOwner;\n\t\tbytes32 datasetHash;\n\t\taddress datasetOwner;\n\t\tbytes32 workerpoolHash;\n\t\taddress workerpoolOwner;\n\t\tbytes32 requestHash;\n\t\tbool    hasDataset;\n\t}\n\n\t// should be external\n\tfunction matchOrders(\n\t\tIexecLibOrders_v5.AppOrder        memory _apporder,\n\t\tIexecLibOrders_v5.DatasetOrder    memory _datasetorder,\n\t\tIexecLibOrders_v5.WorkerpoolOrder memory _workerpoolorder,\n\t\tIexecLibOrders_v5.RequestOrder    memory _requestorder)\n\tpublic override returns (bytes32)\n\t{\n\t\t/**\n\t\t * Check orders compatibility\n\t\t */\n\n\t\t// TODO: order evolution - check deadlines\n\t\t// require(_apporder.expiration        < now);\n\t\t// require(_datasetorder.expiration    < now);\n\t\t// require(_workerpoolorder.expiration < now);\n\t\t// require(_requestorder.expiration    < now);\n\n\t\t// computation environment & allowed enough funds\n\t\tbytes32 tag = _apporder.tag | _datasetorder.tag | _requestorder.tag;\n\t\trequire(_requestorder.category           == _workerpoolorder.category       );\n\t\trequire(_requestorder.trust              <= _workerpoolorder.trust          );\n\t\trequire(_requestorder.appmaxprice        >= _apporder.appprice              );\n\t\trequire(_requestorder.datasetmaxprice    >= _datasetorder.datasetprice      );\n\t\trequire(_requestorder.workerpoolmaxprice >= _workerpoolorder.workerpoolprice);\n\t\trequire(tag & ~_workerpoolorder.tag      == 0x0);\n\t\trequire((tag ^ _apporder.tag)[31] & 0x01 == 0x0);\n\n\t\t// Check matching and restrictions\n\t\trequire(_requestorder.app     == _apporder.app        );\n\t\trequire(_requestorder.dataset == _datasetorder.dataset);\n\t\trequire(_requestorder.workerpool           == address(0) || _checkIdentity(_requestorder.workerpool,           _workerpoolorder.workerpool, GROUPMEMBER_PURPOSE)); // requestorder.workerpool is a restriction\n\t\trequire(_apporder.datasetrestrict          == address(0) || _checkIdentity(_apporder.datasetrestrict,          _datasetorder.dataset,       GROUPMEMBER_PURPOSE));\n\t\trequire(_apporder.workerpoolrestrict       == address(0) || _checkIdentity(_apporder.workerpoolrestrict,       _workerpoolorder.workerpool, GROUPMEMBER_PURPOSE));\n\t\trequire(_apporder.requesterrestrict        == address(0) || _checkIdentity(_apporder.requesterrestrict,        _requestorder.requester,     GROUPMEMBER_PURPOSE));\n\t\trequire(_datasetorder.apprestrict          == address(0) || _checkIdentity(_datasetorder.apprestrict,          _apporder.app,               GROUPMEMBER_PURPOSE));\n\t\trequire(_datasetorder.workerpoolrestrict   == address(0) || _checkIdentity(_datasetorder.workerpoolrestrict,   _workerpoolorder.workerpool, GROUPMEMBER_PURPOSE));\n\t\trequire(_datasetorder.requesterrestrict    == address(0) || _checkIdentity(_datasetorder.requesterrestrict,    _requestorder.requester,     GROUPMEMBER_PURPOSE));\n\t\trequire(_workerpoolorder.apprestrict       == address(0) || _checkIdentity(_workerpoolorder.apprestrict,       _apporder.app,               GROUPMEMBER_PURPOSE));\n\t\trequire(_workerpoolorder.datasetrestrict   == address(0) || _checkIdentity(_workerpoolorder.datasetrestrict,   _datasetorder.dataset,       GROUPMEMBER_PURPOSE));\n\t\trequire(_workerpoolorder.requesterrestrict == address(0) || _checkIdentity(_workerpoolorder.requesterrestrict, _requestorder.requester,     GROUPMEMBER_PURPOSE));\n\n\t\t/**\n\t\t * Check orders authenticity\n\t\t */\n\t\tIdentities memory ids;\n\t\tids.hasDataset = _datasetorder.dataset != address(0);\n\n\t\t// app\n\t\tids.appHash  = _apporder.hash().toEthTypedStructHash(EIP712DOMAIN_SEPARATOR);\n\t\tids.appOwner = App(_apporder.app).owner();\n\n\t\trequire(m_appregistry.isRegistered(_apporder.app));\n\t\trequire(_checkPresignatureOrSignature(ids.appOwner, ids.appHash, _apporder.sign));\n\n\t\t// dataset\n\t\tif (ids.hasDataset) // only check if dataset is enabled\n\t\t{\n\t\t\tids.datasetHash  = _datasetorder.hash().toEthTypedStructHash(EIP712DOMAIN_SEPARATOR);\n\t\t\tids.datasetOwner = Dataset(_datasetorder.dataset).owner();\n\n\t\t\trequire(m_datasetregistry.isRegistered(_datasetorder.dataset));\n\t\t\trequire(_checkPresignatureOrSignature(ids.datasetOwner, ids.datasetHash, _datasetorder.sign));\n\t\t}\n\n\t\t// workerpool\n\t\tids.workerpoolHash  = _workerpoolorder.hash().toEthTypedStructHash(EIP712DOMAIN_SEPARATOR);\n\t\tids.workerpoolOwner = Workerpool(_workerpoolorder.workerpool).owner();\n\n\t\trequire(m_workerpoolregistry.isRegistered(_workerpoolorder.workerpool));\n\t\trequire(_checkPresignatureOrSignature(ids.workerpoolOwner, ids.workerpoolHash, _workerpoolorder.sign));\n\n\t\t// request\n\t\tids.requestHash = _requestorder.hash().toEthTypedStructHash(EIP712DOMAIN_SEPARATOR);\n\t\trequire(_checkPresignatureOrSignature(_requestorder.requester, ids.requestHash, _requestorder.sign));\n\n\t\t/**\n\t\t * Check availability\n\t\t */\n\t\tuint256 volume;\n\t\tvolume =                             _apporder.volume.sub       (m_consumed[ids.appHash       ]);\n\t\tvolume = ids.hasDataset ? volume.min(_datasetorder.volume.sub   (m_consumed[ids.datasetHash   ])) : volume;\n\t\tvolume =                  volume.min(_workerpoolorder.volume.sub(m_consumed[ids.workerpoolHash]));\n\t\tvolume =                  volume.min(_requestorder.volume.sub   (m_consumed[ids.requestHash   ]));\n\t\trequire(volume > 0);\n\n\t\t/**\n\t\t * Record\n\t\t */\n\t\tbytes32 dealid = keccak256(abi.encodePacked(\n\t\t\tids.requestHash,            // requestHash\n\t\t\tm_consumed[ids.requestHash] // idx of first subtask\n\t\t));\n\n\t\tIexecLibCore_v5.Deal storage deal = m_deals[dealid];\n\t\tdeal.app.pointer          = _apporder.app;\n\t\tdeal.app.owner            = ids.appOwner;\n\t\tdeal.app.price            = _apporder.appprice;\n\t\tdeal.dataset.owner        = ids.datasetOwner;\n\t\tdeal.dataset.pointer      = _datasetorder.dataset;\n\t\tdeal.dataset.price        = ids.hasDataset ? _datasetorder.datasetprice : 0;\n\t\tdeal.workerpool.pointer   = _workerpoolorder.workerpool;\n\t\tdeal.workerpool.owner     = ids.workerpoolOwner;\n\t\tdeal.workerpool.price     = _workerpoolorder.workerpoolprice;\n\t\tdeal.trust                = _requestorder.trust.max(1);\n\t\tdeal.category             = _requestorder.category;\n\t\tdeal.tag                  = tag;\n\t\tdeal.requester            = _requestorder.requester;\n\t\tdeal.beneficiary          = _requestorder.beneficiary;\n\t\tdeal.callback             = _requestorder.callback;\n\t\tdeal.params               = _requestorder.params;\n\t\tdeal.startTime            = now;\n\t\tdeal.botFirst             = m_consumed[ids.requestHash];\n\t\tdeal.botSize              = volume;\n\t\tdeal.workerStake          = _workerpoolorder.workerpoolprice.percentage(Workerpool(_workerpoolorder.workerpool).m_workerStakeRatioPolicy());\n\t\tdeal.schedulerRewardRatio = Workerpool(_workerpoolorder.workerpool).m_schedulerRewardRatioPolicy();\n\n\t\t/**\n\t\t * Update consumed\n\t\t */\n\t\tm_consumed[ids.appHash       ] = m_consumed[ids.appHash       ].add(                 volume    );\n\t\tm_consumed[ids.datasetHash   ] = m_consumed[ids.datasetHash   ].add(ids.hasDataset ? volume : 0);\n\t\tm_consumed[ids.workerpoolHash] = m_consumed[ids.workerpoolHash].add(                 volume    );\n\t\tm_consumed[ids.requestHash   ] = m_consumed[ids.requestHash   ].add(                 volume    );\n\n\t\t/**\n\t\t * Lock\n\t\t */\n\t\tlock(\n\t\t\tdeal.requester,\n\t\t\tdeal.app.price\n\t\t\t.add(deal.dataset.price)\n\t\t\t.add(deal.workerpool.price)\n\t\t\t.mul(volume)\n\t\t);\n\t\tlock(\n\t\t\tdeal.workerpool.owner,\n\t\t\tdeal.workerpool.price\n\t\t\t.percentage(WORKERPOOL_STAKE_RATIO) // ORDER IS IMPORTANT HERE!\n\t\t\t.mul(volume)                        // ORDER IS IMPORTANT HERE!\n\t\t);\n\n\t\t/**\n\t\t * Advertize deal\n\t\t */\n\t\temit SchedulerNotice(deal.workerpool.pointer, dealid);\n\n\t\t/**\n\t\t * Advertize consumption\n\t\t */\n\t\temit OrdersMatched(\n\t\t\tdealid,\n\t\t\tids.appHash,\n\t\t\tids.datasetHash,\n\t\t\tids.workerpoolHash,\n\t\t\tids.requestHash,\n\t\t\tvolume\n\t\t);\n\n\t\treturn dealid;\n\t}\n\n\t/***************************************************************************\n\t *                            Consensus methods                            *\n\t ***************************************************************************/\n\tfunction initialize(bytes32 _dealid, uint256 idx)\n\tpublic override returns (bytes32)\n\t{\n\t\tIexecLibCore_v5.Deal memory deal = m_deals[_dealid];\n\n\t\trequire(idx >= deal.botFirst                  );\n\t\trequire(idx <  deal.botFirst.add(deal.botSize));\n\n\t\tbytes32 taskid  = keccak256(abi.encodePacked(_dealid, idx));\n\t\tIexecLibCore_v5.Task storage task = m_tasks[taskid];\n\t\trequire(task.status == IexecLibCore_v5.TaskStatusEnum.UNSET);\n\n\t\ttask.status               = IexecLibCore_v5.TaskStatusEnum.ACTIVE;\n\t\ttask.dealid               = _dealid;\n\t\ttask.idx                  = idx;\n\t\ttask.timeref              = m_categories[deal.category].workClockTimeRef;\n\t\ttask.contributionDeadline = task.timeref.mul(CONTRIBUTION_DEADLINE_RATIO).add(deal.startTime);\n\t\ttask.finalDeadline        = task.timeref.mul(       FINAL_DEADLINE_RATIO).add(deal.startTime);\n\n\t\t// setup denominator\n\t\tm_consensus[taskid].total = 1;\n\n\t\temit TaskInitialize(taskid, deal.workerpool.pointer);\n\n\t\treturn taskid;\n\t}\n\n\t// TODO: making it external causes \"stack too deep\" error\n\tfunction contribute(\n\t\tbytes32      _taskid,\n\t\tbytes32      _resultHash,\n\t\tbytes32      _resultSeal,\n\t\taddress      _enclaveChallenge,\n\t\tbytes memory _enclaveSign,\n\t\tbytes memory _authorizationSign)\n\tpublic override\n\t{\n\t\tIexecLibCore_v5.Task         storage task         = m_tasks[_taskid];\n\t\tIexecLibCore_v5.Contribution storage contribution = m_contributions[_taskid][_msgSender()];\n\t\tIexecLibCore_v5.Deal         memory  deal         = m_deals[task.dealid];\n\n\t\trequire(task.status               == IexecLibCore_v5.TaskStatusEnum.ACTIVE       );\n\t\trequire(task.contributionDeadline >  now                                         );\n\t\trequire(contribution.status       == IexecLibCore_v5.ContributionStatusEnum.UNSET);\n\n\t\t// need enclave challenge if tag is set\n\t\trequire(_enclaveChallenge != address(0) || (deal.tag[31] & 0x01 == 0));\n\n\t\t// Check that the worker + taskid + enclave combo is authorized to contribute (scheduler signature)\n\t\trequire(_checkSignature(\n\t\t\t( _enclaveChallenge != address(0) && m_teebroker != address(0) ) ? m_teebroker : deal.workerpool.owner,\n\t\t\tkeccak256(abi.encodePacked(\n\t\t\t\t_msgSender(),\n\t\t\t\t_taskid,\n\t\t\t\t_enclaveChallenge\n\t\t\t)).toEthSignedMessageHash(),\n\t\t\t_authorizationSign\n\t\t));\n\n\t\t// Check enclave signature\n\t\trequire(_enclaveChallenge == address(0) || _checkSignature(\n\t\t\t_enclaveChallenge,\n\t\t\tkeccak256(abi.encodePacked(\n\t\t\t\t_resultHash,\n\t\t\t\t_resultSeal\n\t\t\t)).toEthSignedMessageHash(),\n\t\t\t_enclaveSign\n\t\t));\n\n\t\t// Update contribution entry\n\t\tcontribution.status           = IexecLibCore_v5.ContributionStatusEnum.CONTRIBUTED;\n\t\tcontribution.resultHash       = _resultHash;\n\t\tcontribution.resultSeal       = _resultSeal;\n\t\tcontribution.enclaveChallenge = _enclaveChallenge;\n\t\ttask.contributors.push(_msgSender());\n\n\t\tlockContribution(task.dealid, _msgSender());\n\n\t\temit TaskContribute(_taskid, _msgSender(), _resultHash);\n\n\t\t// Contribution done  updating and checking concensus\n\n\t\t/*************************************************************************\n\t\t *                           SCORE POLICY 1/3                            *\n\t\t *                                                                       *\n\t\t *                          see documentation!                           *\n\t\t *************************************************************************/\n\t\t// k = 3\n\t\tIexecLibCore_v5.Consensus storage consensus = m_consensus[_taskid];\n\n\t\tuint256 weight = m_workerScores[_msgSender()].div(3).max(3).sub(1);\n\t\tuint256 group  = consensus.group[_resultHash];\n\t\tuint256 delta  = group.max(1).mul(weight).sub(group);\n\n\t\tcontribution.weight          = weight.log();\n\t\tconsensus.group[_resultHash] = consensus.group[_resultHash].add(delta);\n\t\tconsensus.total              = consensus.total.add(delta);\n\n\t\t// Check consensus\n\t\tcheckConsensus(_taskid, _resultHash);\n\t}\n\n\tfunction reveal(\n\t\tbytes32 _taskid,\n\t\tbytes32 _resultDigest)\n\texternal override // worker\n\t{\n\t\tIexecLibCore_v5.Task         storage task         = m_tasks[_taskid];\n\t\tIexecLibCore_v5.Contribution storage contribution = m_contributions[_taskid][_msgSender()];\n\t\trequire(task.status             == IexecLibCore_v5.TaskStatusEnum.REVEALING                         );\n\t\trequire(task.revealDeadline     >  now                                                              );\n\t\trequire(contribution.status     == IexecLibCore_v5.ContributionStatusEnum.CONTRIBUTED               );\n\t\trequire(contribution.resultHash == task.consensusValue                                              );\n\t\trequire(contribution.resultHash == keccak256(abi.encodePacked(              _taskid, _resultDigest)));\n\t\trequire(contribution.resultSeal == keccak256(abi.encodePacked(_msgSender(), _taskid, _resultDigest)));\n\n\t\tcontribution.status = IexecLibCore_v5.ContributionStatusEnum.PROVED;\n\t\ttask.revealCounter  = task.revealCounter.add(1);\n\t\ttask.resultDigest   = _resultDigest;\n\n\t\temit TaskReveal(_taskid, _msgSender(), _resultDigest);\n\t}\n\n\tfunction reopen(\n\t\tbytes32 _taskid)\n\texternal override onlyScheduler(_taskid)\n\t{\n\t\tIexecLibCore_v5.Task storage task = m_tasks[_taskid];\n\t\trequire(task.status         == IexecLibCore_v5.TaskStatusEnum.REVEALING);\n\t\trequire(task.finalDeadline  >  now                                     );\n\t\trequire(task.revealDeadline <= now && task.revealCounter == 0          );\n\n\t\tfor (uint256 i = 0; i < task.contributors.length; ++i)\n\t\t{\n\t\t\taddress worker = task.contributors[i];\n\t\t\tif (m_contributions[_taskid][worker].resultHash == task.consensusValue)\n\t\t\t{\n\t\t\t\tm_contributions[_taskid][worker].status = IexecLibCore_v5.ContributionStatusEnum.REJECTED;\n\t\t\t}\n\t\t}\n\n\t\tIexecLibCore_v5.Consensus storage consensus = m_consensus[_taskid];\n\t\tconsensus.total = consensus.total.sub(consensus.group[task.consensusValue]);\n\t\tconsensus.group[task.consensusValue] = 0;\n\n\t\ttask.status         = IexecLibCore_v5.TaskStatusEnum.ACTIVE;\n\t\ttask.consensusValue = 0x0;\n\t\ttask.revealDeadline = 0;\n\t\ttask.winnerCounter  = 0;\n\n\t\temit TaskReopen(_taskid);\n\t}\n\n\tfunction finalize(\n\t\tbytes32          _taskid,\n\t\tbytes   calldata _results)\n\texternal override onlyScheduler(_taskid)\n\t{\n\t\tIexecLibCore_v5.Task storage task = m_tasks[_taskid];\n\t\tIexecLibCore_v5.Deal memory  deal = m_deals[task.dealid];\n\n\t\trequire(task.status        == IexecLibCore_v5.TaskStatusEnum.REVEALING                                    );\n\t\trequire(task.finalDeadline >  now                                                                         );\n\t\trequire(task.revealCounter == task.winnerCounter || (task.revealCounter > 0 && task.revealDeadline <= now));\n\n\t\trequire(deal.callback == address(0) || keccak256(_results) == task.resultDigest);\n\n\t\ttask.status  = IexecLibCore_v5.TaskStatusEnum.COMPLETED;\n\t\ttask.results = _results;\n\n\t\t/**\n\t\t * Stake and reward management\n\t\t */\n\t\tsuccessWork(task.dealid, _taskid);\n\t\tdistributeRewards(_taskid);\n\n\t\t/**\n\t\t * Event\n\t\t */\n\t\temit TaskFinalize(_taskid, _results);\n\n\t\texecuteCallback(_taskid, _results);\n\t}\n\n\tfunction claim(\n\t\tbytes32 _taskid)\n\tpublic override\n\t{\n\t\tIexecLibCore_v5.Task storage task = m_tasks[_taskid];\n\t\trequire(task.status == IexecLibCore_v5.TaskStatusEnum.ACTIVE\n\t\t     || task.status == IexecLibCore_v5.TaskStatusEnum.REVEALING);\n\t\trequire(task.finalDeadline <= now);\n\n\t\ttask.status = IexecLibCore_v5.TaskStatusEnum.FAILLED;\n\n\t\t/**\n\t\t * Stake management\n\t\t */\n\t\tfailedWork(task.dealid, _taskid);\n\t\tfor (uint256 i = 0; i < task.contributors.length; ++i)\n\t\t{\n\t\t\taddress worker = task.contributors[i];\n\t\t\tunlockContribution(task.dealid, worker);\n\t\t}\n\n\t\temit TaskClaimed(_taskid);\n\t}\n\n\t// New\n\t// TODO: making it external causes \"stack too deep\" error\n\tfunction contributeAndFinalize(\n\t\tbytes32      _taskid,\n\t\tbytes32      _resultDigest,\n\t\tbytes memory _results,\n\t\taddress      _enclaveChallenge,\n\t\tbytes memory _enclaveSign,\n\t\tbytes memory _authorizationSign)\n\tpublic override\n\t{\n\t\tIexecLibCore_v5.Task         storage task         = m_tasks[_taskid];\n\t\tIexecLibCore_v5.Contribution storage contribution = m_contributions[_taskid][_msgSender()];\n\t\tIexecLibCore_v5.Deal         memory  deal         = m_deals[task.dealid];\n\n\t\trequire(task.status               == IexecLibCore_v5.TaskStatusEnum.ACTIVE);\n\t\trequire(task.contributionDeadline >  now                                  );\n\t\trequire(task.contributors.length  == 0                                    );\n\t\trequire(deal.trust                == 1                                    ); // TODO, consider sender's score ?\n\n\t\tbytes32 resultHash = keccak256(abi.encodePacked(              _taskid, _resultDigest));\n\t\tbytes32 resultSeal = keccak256(abi.encodePacked(_msgSender(), _taskid, _resultDigest));\n\n\t\trequire(deal.callback == address(0) || keccak256(_results) == _resultDigest);\n\n\t\t// need enclave challenge if tag is set\n\t\trequire(_enclaveChallenge != address(0) || (deal.tag[31] & 0x01 == 0));\n\n\t\t// Check that the worker + taskid + enclave combo is authorized to contribute (scheduler signature)\n\t\trequire(_checkSignature(\n\t\t\t( _enclaveChallenge != address(0) && m_teebroker != address(0) ) ? m_teebroker : deal.workerpool.owner,\n\t\t\tkeccak256(abi.encodePacked(\n\t\t\t\t_msgSender(),\n\t\t\t\t_taskid,\n\t\t\t\t_enclaveChallenge\n\t\t\t)).toEthSignedMessageHash(),\n\t\t\t_authorizationSign\n\t\t));\n\n\t\t// Check enclave signature\n\t\trequire(_enclaveChallenge == address(0) || _checkSignature(\n\t\t\t_enclaveChallenge,\n\t\t\tkeccak256(abi.encodePacked(\n\t\t\t\tresultHash,\n\t\t\t\tresultSeal\n\t\t\t)).toEthSignedMessageHash(),\n\t\t\t_enclaveSign\n\t\t));\n\n\t\tcontribution.status           = IexecLibCore_v5.ContributionStatusEnum.PROVED;\n\t\tcontribution.resultHash       = resultHash;\n\t\tcontribution.resultSeal       = resultSeal;\n\t\tcontribution.enclaveChallenge = _enclaveChallenge;\n\n\t\ttask.status                   = IexecLibCore_v5.TaskStatusEnum.COMPLETED;\n\t\ttask.consensusValue           = contribution.resultHash;\n\t\ttask.revealDeadline           = task.timeref.mul(REVEAL_DEADLINE_RATIO).add(now);\n\t\ttask.revealCounter            = 1;\n\t\ttask.winnerCounter            = 1;\n\t\ttask.resultDigest             = _resultDigest;\n\t\ttask.results                  = _results;\n\t\ttask.contributors.push(_msgSender());\n\n\t\tsuccessWork(task.dealid, _taskid);\n\n\t\t// simple reward, no score consideration\n\t\tuint256 workerReward    = deal.workerpool.price.percentage(uint256(100).sub(deal.schedulerRewardRatio));\n\t\tuint256 schedulerReward = deal.workerpool.price.sub(workerReward);\n\t\trewardForContribution(_msgSender(), workerReward, _taskid);\n\t\trewardForScheduling(task.dealid, schedulerReward, _taskid);\n\n\t\temit TaskContribute(_taskid, _msgSender(), resultHash);\n\t\temit TaskConsensus(_taskid, resultHash);\n\t\temit TaskReveal(_taskid, _msgSender(), _resultDigest);\n\t\temit TaskFinalize(_taskid, _results);\n\n\t\texecuteCallback(_taskid, _results);\n\t}\n\n\t/***************************************************************************\n\t *                       Internal Consensus methods                        *\n\t ***************************************************************************/\n\t/*\n\t * Consensus detection\n\t */\n\tfunction checkConsensus(\n\t\tbytes32 _taskid,\n\t\tbytes32 _consensus)\n\tinternal\n\t{\n\t\tIexecLibCore_v5.Consensus storage consensus = m_consensus[_taskid];\n\n\t\tuint256 trust = m_deals[m_tasks[_taskid].dealid].trust;\n\t\tif (consensus.group[_consensus].mul(trust) > consensus.total.mul(trust.sub(1)))\n\t\t{\n\t\t\t// Preliminary checks done in \"contribute()\"\n\n\t\t\tIexecLibCore_v5.Task storage task = m_tasks[_taskid];\n\t\t\tuint256 winnerCounter = 0;\n\t\t\tfor (uint256 i = 0; i < task.contributors.length; ++i)\n\t\t\t{\n\t\t\t\taddress w = task.contributors[i];\n\t\t\t\tif\n\t\t\t\t(\n\t\t\t\t\tm_contributions[_taskid][w].resultHash == _consensus\n\t\t\t\t\t&&\n\t\t\t\t\tm_contributions[_taskid][w].status == IexecLibCore_v5.ContributionStatusEnum.CONTRIBUTED // REJECTED contribution must not be count\n\t\t\t\t)\n\t\t\t\t{\n\t\t\t\t\twinnerCounter = winnerCounter.add(1);\n\t\t\t\t}\n\t\t\t}\n\t\t\t// _msgSender() is a contributor: no need to check\n\t\t\t// require(winnerCounter > 0);\n\t\t\ttask.status         = IexecLibCore_v5.TaskStatusEnum.REVEALING;\n\t\t\ttask.consensusValue = _consensus;\n\t\t\ttask.revealDeadline = task.timeref.mul(REVEAL_DEADLINE_RATIO).add(now);\n\t\t\ttask.revealCounter  = 0;\n\t\t\ttask.winnerCounter  = winnerCounter;\n\n\t\t\temit TaskConsensus(_taskid, _consensus);\n\t\t}\n\t}\n\n\t/*\n\t * Reward distribution\n\t */\n\tfunction distributeRewards(bytes32 _taskid)\n\tinternal\n\t{\n\t\tIexecLibCore_v5.Task storage task = m_tasks[_taskid];\n\t\tIexecLibCore_v5.Deal memory  deal = m_deals[task.dealid];\n\n\t\tuint256 totalLogWeight = 0;\n\t\tuint256 totalReward    = deal.workerpool.price;\n\n\t\tfor (uint256 i = 0; i < task.contributors.length; ++i)\n\t\t{\n\t\t\taddress                              worker       = task.contributors[i];\n\t\t\tIexecLibCore_v5.Contribution storage contribution = m_contributions[_taskid][worker];\n\n\t\t\tif (contribution.status == IexecLibCore_v5.ContributionStatusEnum.PROVED)\n\t\t\t{\n\t\t\t\ttotalLogWeight = totalLogWeight.add(contribution.weight);\n\t\t\t}\n\t\t\telse // ContributionStatusEnum.REJECT or ContributionStatusEnum.CONTRIBUTED (not revealed)\n\t\t\t{\n\t\t\t\ttotalReward = totalReward.add(deal.workerStake);\n\t\t\t}\n\t\t}\n\n\t\t// compute how much is going to the workers\n\t\tuint256 workersReward = totalReward.percentage(uint256(100).sub(deal.schedulerRewardRatio));\n\n\t\tfor (uint256 i = 0; i < task.contributors.length; ++i)\n\t\t{\n\t\t\taddress                              worker       = task.contributors[i];\n\t\t\tIexecLibCore_v5.Contribution storage contribution = m_contributions[_taskid][worker];\n\n\t\t\tif (contribution.status == IexecLibCore_v5.ContributionStatusEnum.PROVED)\n\t\t\t{\n\t\t\t\tuint256 workerReward = workersReward.mulByFraction(contribution.weight, totalLogWeight);\n\t\t\t\ttotalReward          = totalReward.sub(workerReward);\n\n\t\t\t\tunlockContribution(task.dealid, worker);\n\t\t\t\trewardForContribution(worker, workerReward, _taskid);\n\n\t\t\t\t// Only reward if replication happened\n\t\t\t\tif (task.contributors.length > 1)\n\t\t\t\t{\n\t\t\t\t\t/*******************************************************************\n\t\t\t\t\t *                        SCORE POLICY 2/3                         *\n\t\t\t\t\t *                                                                 *\n\t\t\t\t\t *                       see documentation!                        *\n\t\t\t\t\t *******************************************************************/\n\t\t\t\t\tm_workerScores[worker] = m_workerScores[worker].add(1);\n\t\t\t\t\temit AccurateContribution(worker, _taskid);\n\t\t\t\t}\n\t\t\t}\n\t\t\telse // WorkStatusEnum.POCO_REJECT or ContributionStatusEnum.CONTRIBUTED (not revealed)\n\t\t\t{\n\t\t\t\t// No Reward\n\t\t\t\tseizeContribution(task.dealid, worker, _taskid);\n\n\t\t\t\t// Always punish bad contributors\n\t\t\t\t{\n\t\t\t\t\t/*******************************************************************\n\t\t\t\t\t *                        SCORE POLICY 3/3                         *\n\t\t\t\t\t *                                                                 *\n\t\t\t\t\t *                       see documentation!                        *\n\t\t\t\t\t *******************************************************************/\n\t\t\t\t\t// k = 3\n\t\t\t\t\tm_workerScores[worker] = m_workerScores[worker].mulByFraction(2,3);\n\t\t\t\t\temit FaultyContribution(worker, _taskid);\n\t\t\t\t}\n\t\t\t}\n\t\t}\n\t\t// totalReward now contains the scheduler share\n\t\trewardForScheduling(task.dealid, totalReward, _taskid);\n\t}\n\n\t/**\n\t * Callback for smartcontracts using EIP1154\n\t */\n\tfunction executeCallback(bytes32 _taskid, bytes memory _results)\n\tinternal\n\t{\n\t\taddress target = m_deals[m_tasks[_taskid].dealid].callback;\n\t\tif (target != address(0))\n\t\t{\n\t\t\t/**\n\t\t\t * Call does not revert if the target smart contract is incompatible or reverts\n\t\t\t * Solidity 0.6.0 update. Check hit history for 0.5.0 implementation.\n\t\t\t */\n\t\t\ttry IOracleConsumer(target).receiveResult.gas(m_callbackgas)(_taskid, _results)\n\t\t\t{\n\t\t\t\t// Callback success, do nothing\n\t\t\t}\n\t\t\tcatch (bytes memory /*lowLevelData*/)\n\t\t\t{\n\t\t\t\t// Check gas: https://ronan.eth.link/blog/ethereum-gas-dangers/\n\t\t\t\tassert(gasleft() > m_callbackgas / 63); // no need for safemath here\n\t\t\t}\n\t\t}\n\t}\n\n\t/***************************************************************************\n\t *                            Array operations                             *\n\t ***************************************************************************/\n\tfunction initializeArray(\n\t\tbytes32[] calldata _dealid,\n\t\tuint256[] calldata _idx)\n\texternal override returns (bool)\n\t{\n\t\trequire(_dealid.length == _idx.length);\n\t\tfor (uint i = 0; i < _dealid.length; ++i)\n\t\t{\n\t\t\tinitialize(_dealid[i], _idx[i]);\n\t\t}\n\t\treturn true;\n\t}\n\n\tfunction claimArray(\n\t\tbytes32[] calldata _taskid)\n\texternal override returns (bool)\n\t{\n\t\tfor (uint i = 0; i < _taskid.length; ++i)\n\t\t{\n\t\t\tclaim(_taskid[i]);\n\t\t}\n\t\treturn true;\n\t}\n\n\tfunction initializeAndClaimArray(\n\t\tbytes32[] calldata _dealid,\n\t\tuint256[] calldata _idx)\n\texternal override returns (bool)\n\t{\n\t\trequire(_dealid.length == _idx.length);\n\t\tfor (uint i = 0; i < _dealid.length; ++i)\n\t\t{\n\t\t\tclaim(initialize(_dealid[i], _idx[i]));\n\t\t}\n\t\treturn true;\n\t}\n}\n",
  "sourcePath": "/home/amxx/Work/iExec/code/PoCo-dev/contracts/modules/delegates/IexecPocoDelegate.sol",
  "compiler": {
    "name": "solc",
    "version": "0.6.4+commit.1dca32f3.Emscripten.clang"
  },
  "schemaVersion": "3.0.23",
  "updatedAt": "2020-03-16T11:20:17.289Z",
  "devdoc": {
    "methods": {
      "isOwner()": {
        "details": "Returns true if the caller is the current owner."
      },
      "owner()": {
        "details": "Returns the address of the current owner."
      },
      "renounceOwnership()": {
        "details": "Leaves the contract without owner. It will not be possible to call `onlyOwner` functions anymore. Can only be called by the current owner.     * NOTE: Renouncing ownership will leave the contract without an owner, thereby removing any functionality that is only available to the owner."
      },
      "transferOwnership(address)": {
        "details": "Transfers ownership of the contract to a new account (`newOwner`). Can only be called by the current owner."
      }
    }
  },
  "userdoc": {
    "methods": {
      "initialize(bytes32,uint256)": {
        "notice": "*************************************************************************                           Consensus methods                            ***************************************************************************"
      },
      "initializeArray(bytes32[],uint256[])": {
        "notice": "*************************************************************************                           Array operations                             ***************************************************************************"
      },
      "verifySignature(address,bytes32,bytes)": {
        "notice": "*************************************************************************                          ODB order signature                           ***************************************************************************"
      }
    }
  }
}