{
  "contractName": "IexecPocoDelegate",
  "abi": [
    {
      "constant": true,
      "inputs": [],
      "name": "EIP712DOMAIN_SEPARATOR",
      "outputs": [
        {
          "name": "",
          "type": "bytes32"
        }
      ],
      "payable": false,
      "stateMutability": "view",
      "type": "function"
    },
    {
      "constant": true,
      "inputs": [],
      "name": "appregistry",
      "outputs": [
        {
          "name": "",
          "type": "address"
        }
      ],
      "payable": false,
      "stateMutability": "view",
      "type": "function"
    },
    {
      "constant": true,
      "inputs": [],
      "name": "WORKERPOOL_STAKE_RATIO",
      "outputs": [
        {
          "name": "",
          "type": "uint256"
        }
      ],
      "payable": false,
      "stateMutability": "view",
      "type": "function"
    },
    {
      "constant": true,
      "inputs": [],
      "name": "KITTY_RATIO",
      "outputs": [
        {
          "name": "",
          "type": "uint256"
        }
      ],
      "payable": false,
      "stateMutability": "view",
      "type": "function"
    },
    {
      "constant": true,
      "inputs": [],
      "name": "REVEAL_DEADLINE_RATIO",
      "outputs": [
        {
          "name": "",
          "type": "uint256"
        }
      ],
      "payable": false,
      "stateMutability": "view",
      "type": "function"
    },
    {
      "constant": true,
      "inputs": [],
      "name": "GROUPMEMBER_PURPOSE",
      "outputs": [
        {
          "name": "",
          "type": "uint256"
        }
      ],
      "payable": false,
      "stateMutability": "view",
      "type": "function"
    },
    {
      "constant": false,
      "inputs": [],
      "name": "renounceOwnership",
      "outputs": [],
      "payable": false,
      "stateMutability": "nonpayable",
      "type": "function"
    },
    {
      "constant": true,
      "inputs": [],
      "name": "CONTRIBUTION_DEADLINE_RATIO",
      "outputs": [
        {
          "name": "",
          "type": "uint256"
        }
      ],
      "payable": false,
      "stateMutability": "view",
      "type": "function"
    },
    {
      "constant": true,
      "inputs": [],
      "name": "owner",
      "outputs": [
        {
          "name": "",
          "type": "address"
        }
      ],
      "payable": false,
      "stateMutability": "view",
      "type": "function"
    },
    {
      "constant": true,
      "inputs": [],
      "name": "isOwner",
      "outputs": [
        {
          "name": "",
          "type": "bool"
        }
      ],
      "payable": false,
      "stateMutability": "view",
      "type": "function"
    },
    {
      "constant": true,
      "inputs": [],
      "name": "workerpoolregistry",
      "outputs": [
        {
          "name": "",
          "type": "address"
        }
      ],
      "payable": false,
      "stateMutability": "view",
      "type": "function"
    },
    {
      "constant": true,
      "inputs": [],
      "name": "FINAL_DEADLINE_RATIO",
      "outputs": [
        {
          "name": "",
          "type": "uint256"
        }
      ],
      "payable": false,
      "stateMutability": "view",
      "type": "function"
    },
    {
      "constant": true,
      "inputs": [],
      "name": "KITTY_ADDRESS",
      "outputs": [
        {
          "name": "",
          "type": "address"
        }
      ],
      "payable": false,
      "stateMutability": "view",
      "type": "function"
    },
    {
      "constant": true,
      "inputs": [],
      "name": "datasetregistry",
      "outputs": [
        {
          "name": "",
          "type": "address"
        }
      ],
      "payable": false,
      "stateMutability": "view",
      "type": "function"
    },
    {
      "constant": true,
      "inputs": [],
      "name": "KITTY_MIN",
      "outputs": [
        {
          "name": "",
          "type": "uint256"
        }
      ],
      "payable": false,
      "stateMutability": "view",
      "type": "function"
    },
    {
      "constant": false,
      "inputs": [
        {
          "name": "newOwner",
          "type": "address"
        }
      ],
      "name": "transferOwnership",
      "outputs": [],
      "payable": false,
      "stateMutability": "nonpayable",
      "type": "function"
    },
    {
      "anonymous": false,
      "inputs": [
        {
          "indexed": true,
          "name": "from",
          "type": "address"
        },
        {
          "indexed": true,
          "name": "to",
          "type": "address"
        },
        {
          "indexed": false,
          "name": "value",
          "type": "uint256"
        }
      ],
      "name": "Transfer",
      "type": "event"
    },
    {
      "anonymous": false,
      "inputs": [
        {
          "indexed": true,
          "name": "owner",
          "type": "address"
        },
        {
          "indexed": true,
          "name": "spender",
          "type": "address"
        },
        {
          "indexed": false,
          "name": "value",
          "type": "uint256"
        }
      ],
      "name": "Approval",
      "type": "event"
    },
    {
      "anonymous": false,
      "inputs": [
        {
          "indexed": true,
          "name": "previousOwner",
          "type": "address"
        },
        {
          "indexed": true,
          "name": "newOwner",
          "type": "address"
        }
      ],
      "name": "OwnershipTransferred",
      "type": "event"
    },
    {
      "anonymous": false,
      "inputs": [
        {
          "indexed": false,
          "name": "owner",
          "type": "address"
        },
        {
          "indexed": false,
          "name": "amount",
          "type": "uint256"
        }
      ],
      "name": "Withdraw",
      "type": "event"
    },
    {
      "anonymous": false,
      "inputs": [
        {
          "indexed": false,
          "name": "owner",
          "type": "address"
        },
        {
          "indexed": false,
          "name": "amount",
          "type": "uint256"
        },
        {
          "indexed": false,
          "name": "ref",
          "type": "bytes32"
        }
      ],
      "name": "Reward",
      "type": "event"
    },
    {
      "anonymous": false,
      "inputs": [
        {
          "indexed": false,
          "name": "owner",
          "type": "address"
        },
        {
          "indexed": false,
          "name": "amount",
          "type": "uint256"
        },
        {
          "indexed": false,
          "name": "ref",
          "type": "bytes32"
        }
      ],
      "name": "Seize",
      "type": "event"
    },
    {
      "anonymous": false,
      "inputs": [
        {
          "indexed": false,
          "name": "owner",
          "type": "address"
        },
        {
          "indexed": false,
          "name": "amount",
          "type": "uint256"
        }
      ],
      "name": "Lock",
      "type": "event"
    },
    {
      "anonymous": false,
      "inputs": [
        {
          "indexed": false,
          "name": "owner",
          "type": "address"
        },
        {
          "indexed": false,
          "name": "amount",
          "type": "uint256"
        }
      ],
      "name": "Unlock",
      "type": "event"
    },
    {
      "anonymous": false,
      "inputs": [
        {
          "indexed": false,
          "name": "dealid",
          "type": "bytes32"
        },
        {
          "indexed": false,
          "name": "appHash",
          "type": "bytes32"
        },
        {
          "indexed": false,
          "name": "datasetHash",
          "type": "bytes32"
        },
        {
          "indexed": false,
          "name": "workerpoolHash",
          "type": "bytes32"
        },
        {
          "indexed": false,
          "name": "requestHash",
          "type": "bytes32"
        },
        {
          "indexed": false,
          "name": "volume",
          "type": "uint256"
        }
      ],
      "name": "OrdersMatched",
      "type": "event"
    },
    {
      "anonymous": false,
      "inputs": [
        {
          "indexed": true,
          "name": "workerpool",
          "type": "address"
        },
        {
          "indexed": false,
          "name": "dealid",
          "type": "bytes32"
        }
      ],
      "name": "SchedulerNotice",
      "type": "event"
    },
    {
      "anonymous": false,
      "inputs": [
        {
          "indexed": true,
          "name": "taskid",
          "type": "bytes32"
        },
        {
          "indexed": true,
          "name": "workerpool",
          "type": "address"
        }
      ],
      "name": "TaskInitialize",
      "type": "event"
    },
    {
      "anonymous": false,
      "inputs": [
        {
          "indexed": true,
          "name": "taskid",
          "type": "bytes32"
        },
        {
          "indexed": true,
          "name": "worker",
          "type": "address"
        },
        {
          "indexed": false,
          "name": "hash",
          "type": "bytes32"
        }
      ],
      "name": "TaskContribute",
      "type": "event"
    },
    {
      "anonymous": false,
      "inputs": [
        {
          "indexed": true,
          "name": "taskid",
          "type": "bytes32"
        },
        {
          "indexed": false,
          "name": "consensus",
          "type": "bytes32"
        }
      ],
      "name": "TaskConsensus",
      "type": "event"
    },
    {
      "anonymous": false,
      "inputs": [
        {
          "indexed": true,
          "name": "taskid",
          "type": "bytes32"
        },
        {
          "indexed": true,
          "name": "worker",
          "type": "address"
        },
        {
          "indexed": false,
          "name": "digest",
          "type": "bytes32"
        }
      ],
      "name": "TaskReveal",
      "type": "event"
    },
    {
      "anonymous": false,
      "inputs": [
        {
          "indexed": true,
          "name": "taskid",
          "type": "bytes32"
        }
      ],
      "name": "TaskReopen",
      "type": "event"
    },
    {
      "anonymous": false,
      "inputs": [
        {
          "indexed": true,
          "name": "taskid",
          "type": "bytes32"
        },
        {
          "indexed": false,
          "name": "results",
          "type": "bytes"
        }
      ],
      "name": "TaskFinalize",
      "type": "event"
    },
    {
      "anonymous": false,
      "inputs": [
        {
          "indexed": true,
          "name": "taskid",
          "type": "bytes32"
        }
      ],
      "name": "TaskClaimed",
      "type": "event"
    },
    {
      "anonymous": false,
      "inputs": [
        {
          "indexed": true,
          "name": "worker",
          "type": "address"
        },
        {
          "indexed": true,
          "name": "taskid",
          "type": "bytes32"
        }
      ],
      "name": "AccurateContribution",
      "type": "event"
    },
    {
      "anonymous": false,
      "inputs": [
        {
          "indexed": true,
          "name": "worker",
          "type": "address"
        },
        {
          "indexed": true,
          "name": "taskid",
          "type": "bytes32"
        }
      ],
      "name": "FaultyContribution",
      "type": "event"
    },
    {
      "constant": false,
      "inputs": [
        {
          "name": "_chainid",
          "type": "uint256"
        },
        {
          "name": "_token",
          "type": "address"
        },
        {
          "name": "_name",
          "type": "string"
        },
        {
          "name": "_symbol",
          "type": "string"
        },
        {
          "name": "_decimal",
          "type": "uint8"
        },
        {
          "name": "_appregistryAddress",
          "type": "address"
        },
        {
          "name": "_datasetregistryAddress",
          "type": "address"
        },
        {
          "name": "_workerpoolregistryAddress",
          "type": "address"
        }
      ],
      "name": "configure",
      "outputs": [],
      "payable": false,
      "stateMutability": "nonpayable",
      "type": "function"
    },
    {
      "constant": true,
      "inputs": [
        {
          "name": "_identity",
          "type": "address"
        },
        {
          "name": "_hash",
          "type": "bytes32"
        },
        {
          "name": "_signature",
          "type": "bytes"
        }
      ],
      "name": "verifySignature",
      "outputs": [
        {
          "name": "",
          "type": "bool"
        }
      ],
      "payable": false,
      "stateMutability": "view",
      "type": "function"
    },
    {
      "constant": false,
      "inputs": [
        {
          "components": [
            {
              "name": "app",
              "type": "address"
            },
            {
              "name": "appprice",
              "type": "uint256"
            },
            {
              "name": "volume",
              "type": "uint256"
            },
            {
              "name": "tag",
              "type": "bytes32"
            },
            {
              "name": "datasetrestrict",
              "type": "address"
            },
            {
              "name": "workerpoolrestrict",
              "type": "address"
            },
            {
              "name": "requesterrestrict",
              "type": "address"
            },
            {
              "name": "salt",
              "type": "bytes32"
            },
            {
              "name": "sign",
              "type": "bytes"
            }
          ],
          "name": "_apporder",
          "type": "tuple"
        },
        {
          "components": [
            {
              "name": "dataset",
              "type": "address"
            },
            {
              "name": "datasetprice",
              "type": "uint256"
            },
            {
              "name": "volume",
              "type": "uint256"
            },
            {
              "name": "tag",
              "type": "bytes32"
            },
            {
              "name": "apprestrict",
              "type": "address"
            },
            {
              "name": "workerpoolrestrict",
              "type": "address"
            },
            {
              "name": "requesterrestrict",
              "type": "address"
            },
            {
              "name": "salt",
              "type": "bytes32"
            },
            {
              "name": "sign",
              "type": "bytes"
            }
          ],
          "name": "_datasetorder",
          "type": "tuple"
        },
        {
          "components": [
            {
              "name": "workerpool",
              "type": "address"
            },
            {
              "name": "workerpoolprice",
              "type": "uint256"
            },
            {
              "name": "volume",
              "type": "uint256"
            },
            {
              "name": "tag",
              "type": "bytes32"
            },
            {
              "name": "category",
              "type": "uint256"
            },
            {
              "name": "trust",
              "type": "uint256"
            },
            {
              "name": "apprestrict",
              "type": "address"
            },
            {
              "name": "datasetrestrict",
              "type": "address"
            },
            {
              "name": "requesterrestrict",
              "type": "address"
            },
            {
              "name": "salt",
              "type": "bytes32"
            },
            {
              "name": "sign",
              "type": "bytes"
            }
          ],
          "name": "_workerpoolorder",
          "type": "tuple"
        },
        {
          "components": [
            {
              "name": "app",
              "type": "address"
            },
            {
              "name": "appmaxprice",
              "type": "uint256"
            },
            {
              "name": "dataset",
              "type": "address"
            },
            {
              "name": "datasetmaxprice",
              "type": "uint256"
            },
            {
              "name": "workerpool",
              "type": "address"
            },
            {
              "name": "workerpoolmaxprice",
              "type": "uint256"
            },
            {
              "name": "requester",
              "type": "address"
            },
            {
              "name": "volume",
              "type": "uint256"
            },
            {
              "name": "tag",
              "type": "bytes32"
            },
            {
              "name": "category",
              "type": "uint256"
            },
            {
              "name": "trust",
              "type": "uint256"
            },
            {
              "name": "beneficiary",
              "type": "address"
            },
            {
              "name": "callback",
              "type": "address"
            },
            {
              "name": "params",
              "type": "string"
            },
            {
              "name": "salt",
              "type": "bytes32"
            },
            {
              "name": "sign",
              "type": "bytes"
            }
          ],
          "name": "_requestorder",
          "type": "tuple"
        }
      ],
      "name": "matchOrders",
      "outputs": [
        {
          "name": "",
          "type": "bytes32"
        }
      ],
      "payable": false,
      "stateMutability": "nonpayable",
      "type": "function"
    },
    {
      "constant": false,
      "inputs": [
        {
          "name": "_dealid",
          "type": "bytes32"
        },
        {
          "name": "idx",
          "type": "uint256"
        }
      ],
      "name": "initialize",
      "outputs": [
        {
          "name": "",
          "type": "bytes32"
        }
      ],
      "payable": false,
      "stateMutability": "nonpayable",
      "type": "function"
    },
    {
      "constant": false,
      "inputs": [
        {
          "name": "_taskid",
          "type": "bytes32"
        },
        {
          "name": "_resultHash",
          "type": "bytes32"
        },
        {
          "name": "_resultSeal",
          "type": "bytes32"
        },
        {
          "name": "_enclaveChallenge",
          "type": "address"
        },
        {
          "name": "_enclaveSign",
          "type": "bytes"
        },
        {
          "name": "_workerpoolSign",
          "type": "bytes"
        }
      ],
      "name": "contribute",
      "outputs": [],
      "payable": false,
      "stateMutability": "nonpayable",
      "type": "function"
    },
    {
      "constant": false,
      "inputs": [
        {
          "name": "_taskid",
          "type": "bytes32"
        },
        {
          "name": "_resultDigest",
          "type": "bytes32"
        }
      ],
      "name": "reveal",
      "outputs": [],
      "payable": false,
      "stateMutability": "nonpayable",
      "type": "function"
    },
    {
      "constant": false,
      "inputs": [
        {
          "name": "_taskid",
          "type": "bytes32"
        }
      ],
      "name": "reopen",
      "outputs": [],
      "payable": false,
      "stateMutability": "nonpayable",
      "type": "function"
    },
    {
      "constant": false,
      "inputs": [
        {
          "name": "_taskid",
          "type": "bytes32"
        },
        {
          "name": "_results",
          "type": "bytes"
        }
      ],
      "name": "finalize",
      "outputs": [],
      "payable": false,
      "stateMutability": "nonpayable",
      "type": "function"
    },
    {
      "constant": false,
      "inputs": [
        {
          "name": "_taskid",
          "type": "bytes32"
        }
      ],
      "name": "claim",
      "outputs": [],
      "payable": false,
      "stateMutability": "nonpayable",
      "type": "function"
    },
    {
      "constant": false,
      "inputs": [
        {
          "name": "_dealid",
          "type": "bytes32[]"
        },
        {
          "name": "_idx",
          "type": "uint256[]"
        }
      ],
      "name": "initializeArray",
      "outputs": [
        {
          "name": "",
          "type": "bool"
        }
      ],
      "payable": false,
      "stateMutability": "nonpayable",
      "type": "function"
    },
    {
      "constant": false,
      "inputs": [
        {
          "name": "_taskid",
          "type": "bytes32[]"
        }
      ],
      "name": "claimArray",
      "outputs": [
        {
          "name": "",
          "type": "bool"
        }
      ],
      "payable": false,
      "stateMutability": "nonpayable",
      "type": "function"
    },
    {
      "constant": false,
      "inputs": [
        {
          "name": "_dealid",
          "type": "bytes32[]"
        },
        {
          "name": "_idx",
          "type": "uint256[]"
        }
      ],
      "name": "initializeAndClaimArray",
      "outputs": [
        {
          "name": "",
          "type": "bool"
        }
      ],
      "payable": false,
      "stateMutability": "nonpayable",
      "type": "function"
    }
  ],
  "bytecode": "0x60806040819052600080546001600160a01b03191633178082556001600160a01b03169160008051602062004f1b833981519152908290a36200004a6001600160e01b036200005016565b6200014b565b620000636001600160e01b03620000de16565b620000a5576040517f08c379a00000000000000000000000000000000000000000000000000000000081526004016200009c906200012a565b60405180910390fd5b600080546040516001600160a01b039091169060008051602062004f1b833981519152908390a3600080546001600160a01b0319169055565b6000546001600160a01b0316331490565b6000620000fe60208362000142565b7f4f776e61626c653a2063616c6c6572206973206e6f7420746865206f776e6572815260200192915050565b602080825281016200013c81620000ef565b92915050565b90815260200190565b614dc0806200015b6000396000f3fe608060405234801561001057600080fd5b50600436106101c45760003560e01c80638f32d59b116100f9578063c037f13e11610097578063f6c68e1011610071578063f6c68e1014610323578063f722cb3214610336578063fa055d7e14610349578063fc334e8c1461035c576101c4565b8063c037f13e146102f5578063e2e7a8c114610308578063f2fde38b14610310576101c4565b80639e986e81116100d35780639e986e81146102bf578063b1b11d2c146102c7578063b504681d146102cf578063bd66528a146102e2576101c4565b80638f32d59b146102af57806390a0f546146102b757806390fc26b11461025f576101c4565b806351152de11161016657806368a9ef1c1161014057806368a9ef1c14610282578063715018a61461028a5780637b244832146102925780638da5cb5b1461029a576101c4565b806351152de11461025f5780635b36c66b146102675780635fde601d1461027a576101c4565b8063187fb402116101a2578063187fb4021461021a578063346234841461022f57806345b637a9146102425780634ec3b9e314610257576101c4565b806301751998146101c9578063047411e7146101f2578063156194d414610207575b600080fd5b6101dc6101d7366004613fce565b61036f565b6040516101e99190614ac7565b60405180910390f35b6101fa6103bd565b6040516101e99190614ad5565b6101fa610215366004614276565b6103c3565b61022d610228366004614332565b611513565b005b61022d61023d36600461416c565b6116ac565b61024a611b51565b6040516101e99190614bd3565b6101fa611b60565b6101fa611b65565b6101fa610275366004614132565b611b6a565b6101fa611ea3565b6101fa611ea8565b61022d611ead565b6101fa611f1b565b6102a2611f20565b6040516101e99190614a76565b6101dc611f30565b61024a611f41565b6102a2611f50565b61024a611f8a565b6101dc6102dd366004614076565b611f99565b61022d6102f03660046140f6565b611ff5565b61022d610303366004614221565b6120e5565b6101fa6122d3565b61022d61031e366004613f92565b6122db565b61022d6103313660046140f6565b61230b565b6101dc610344366004614076565b6124e3565b6101dc610357366004614035565b612529565b61022d61036a366004614132565b612562565b60006103b2858585858080601f0160208091040260200160405190810160405280939291908181526020018383808284376000920191909152506126ba92505050565b90505b949350505050565b600f5481565b60008260800151826101200151146103da57600080fd5b8260a0015182610140015111156103f057600080fd5b84602001518260200151101561040557600080fd5b83602001518260600151101561041a57600080fd5b82602001518260a00151101561042f57600080fd5b826060015119826101000151856060015187606001511717166000801b1461045657600080fd5b845182516001600160a01b0390811691161461047157600080fd5b83600001516001600160a01b031682604001516001600160a01b03161461049757600080fd5b60808201516001600160a01b031615806104c057506104c0826080015184600001516004612755565b6104c957600080fd5b60808501516001600160a01b031615806104f257506104f2856080015185600001516004612755565b6104fb57600080fd5b60a08501516001600160a01b0316158061052457506105248560a0015184600001516004612755565b61052d57600080fd5b60c08501516001600160a01b0316158061055657506105568560c001518360c001516004612755565b61055f57600080fd5b60808401516001600160a01b031615806105885750610588846080015186600001516004612755565b61059157600080fd5b60a08401516001600160a01b031615806105ba57506105ba8460a0015184600001516004612755565b6105c357600080fd5b60c08401516001600160a01b031615806105ec57506105ec8460c001518360c001516004612755565b6105f557600080fd5b60c08301516001600160a01b0316158061061e575061061e8360c0015186600001516004612755565b61062757600080fd5b60e08301516001600160a01b0316158061065057506106508360e0015185600001516004612755565b61065957600080fd5b6101008301516001600160a01b0316158061068457506106848361010001518360c001516004612755565b61068d57600080fd5b60048054865160405163c3c5a54760e01b81526001600160a01b039092169263c3c5a547926106bd929101614a76565b60206040518083038186803b1580156106d557600080fd5b505afa1580156106e9573d6000803e3d6000fd5b505050506040513d601f19601f8201168201806040525061070d91908101906140d8565b61071657600080fd5b83516001600160a01b031615806107a85750600554845160405163c3c5a54760e01b81526001600160a01b039092169163c3c5a5479161075891600401614a76565b60206040518083038186803b15801561077057600080fd5b505afa158015610784573d6000803e3d6000fd5b505050506040513d601f19601f820116820180604052506107a891908101906140d8565b6107b157600080fd5b600654835160405163c3c5a54760e01b81526001600160a01b039092169163c3c5a547916107e191600401614a76565b60206040518083038186803b1580156107f957600080fd5b505afa15801561080d573d6000803e3d6000fd5b505050506040513d601f19601f8201168201806040525061083191908101906140d8565b61083a57600080fd5b6108426138bc565b84516001600160a01b0316151560e0820152604051630495132960e01b815273__IexecODBLibOrders_____________________9063049513299061088b908990600401614c31565b60206040518083038186803b1580156108a357600080fd5b505af41580156108b7573d6000803e3d6000fd5b505050506040513d601f19601f820116820180604052506108db9190810190614114565b600f5460405163176eaa4960e01b815273__IexecODBLibOrders_____________________9263176eaa499261091392600401614ae3565b60206040518083038186803b15801561092b57600080fd5b505af415801561093f573d6000803e3d6000fd5b505050506040513d601f19601f820116820180604052506109639190810190614114565b81600001818152505085600001516001600160a01b0316638da5cb5b6040518163ffffffff1660e01b815260040160206040518083038186803b1580156109a957600080fd5b505afa1580156109bd573d6000803e3d6000fd5b505050506040513d601f19601f820116820180604052506109e19190810190613fb0565b6001600160a01b0316602080830191909152815160009081526012909152604090205460ff1680610a255750610a25816020015182600001518861010001516126ba565b610a2e57600080fd5b8060e0015115610c0f57604051630af531cd60e21b815273__IexecODBLibOrders_____________________90632bd4c73490610a6f908890600401614c31565b60206040518083038186803b158015610a8757600080fd5b505af4158015610a9b573d6000803e3d6000fd5b505050506040513d601f19601f82011682018060405250610abf9190810190614114565b600f5460405163176eaa4960e01b815273__IexecODBLibOrders_____________________9263176eaa4992610af792600401614ae3565b60206040518083038186803b158015610b0f57600080fd5b505af4158015610b23573d6000803e3d6000fd5b505050506040513d601f19601f82011682018060405250610b479190810190614114565b81604001818152505084600001516001600160a01b0316638da5cb5b6040518163ffffffff1660e01b815260040160206040518083038186803b158015610b8d57600080fd5b505afa158015610ba1573d6000803e3d6000fd5b505050506040513d601f19601f82011682018060405250610bc59190810190613fb0565b6001600160a01b0316606082015260408082015160009081526012602052205460ff1680610c065750610c06816060015182604001518761010001516126ba565b610c0f57600080fd5b604051632c5a82c360e11b815273__IexecODBLibOrders_____________________906358b5058690610c46908790600401614c64565b60206040518083038186803b158015610c5e57600080fd5b505af4158015610c72573d6000803e3d6000fd5b505050506040513d601f19601f82011682018060405250610c969190810190614114565b600f5460405163176eaa4960e01b815273__IexecODBLibOrders_____________________9263176eaa4992610cce92600401614ae3565b60206040518083038186803b158015610ce657600080fd5b505af4158015610cfa573d6000803e3d6000fd5b505050506040513d601f19601f82011682018060405250610d1e9190810190614114565b81608001818152505083600001516001600160a01b0316638da5cb5b6040518163ffffffff1660e01b815260040160206040518083038186803b158015610d6457600080fd5b505afa158015610d78573d6000803e3d6000fd5b505050506040513d601f19601f82011682018060405250610d9c9190810190613fb0565b6001600160a01b031660a0820152608081015160009081526012602052604090205460ff1680610ddf5750610ddf8160a0015182608001518661014001516126ba565b610de857600080fd5b604051630409a12760e11b815273__IexecODBLibOrders_____________________90630813424e90610e1f908690600401614c53565b60206040518083038186803b158015610e3757600080fd5b505af4158015610e4b573d6000803e3d6000fd5b505050506040513d601f19601f82011682018060405250610e6f9190810190614114565b600f5460405163176eaa4960e01b815273__IexecODBLibOrders_____________________9263176eaa4992610ea792600401614ae3565b60206040518083038186803b158015610ebf57600080fd5b505af4158015610ed3573d6000803e3d6000fd5b505050506040513d601f19601f82011682018060405250610ef79190810190614114565b60c0820181905260009081526012602052604090205460ff1680610f2e5750610f2e8360c001518260c00151856101e001516126ba565b610f3757600080fd5b80516000908152601160205260408082205490880151610f5c9163ffffffff6127a816565b90508160e00151610f6d5780610fa6565b604080830151600090815260116020528190205490870151610fa691610f99919063ffffffff6127a816565b829063ffffffff6127bd16565b6080830151600090815260116020526040908190205490870151919250610fd691610f999163ffffffff6127a816565b60c083015160009081526011602052604090205460e086015191925061100591610f999163ffffffff6127a816565b90506000811161101457600080fd5b60c08201516000818152601160209081526040808320549051929361103b93909201614a24565b60408051808303601f190181529181528151602092830120600081815260108452919091208a5181546001600160a01b03199081166001600160a01b03928316178355878501516001840180548316918416919091179055938c01516002830155606087015160048301805486169183169190911790558a5160038301805490951691161790925560e08501519092506110d65760006110dc565b87602001515b600582015586516006820180546001600160a01b039283166001600160a01b03199182161790915560a08601516007840180549190931691161790556020870151600882015561014086015161113990600163ffffffff6127d316565b6009820155610120860151600a8201556101008601516060808a0151908b01511717600b82015560c0860151600c820180546001600160a01b039283166001600160a01b031991821617909155610160880151600d84018054918416918316919091179055610180880151600e840180549190931691161790556101a086015180516111cf91600f840191602090910190613900565b5042601082015560c08401516000908152601160208181526040928390205491840191909155601283018590558851825163b55e75af60e01b81529251611286936001600160a01b039092169263b55e75af9260048082019391829003018186803b15801561123d57600080fd5b505afa158015611251573d6000803e3d6000fd5b505050506040513d601f19601f820116820180604052506112759190810190614114565b60208901519063ffffffff6127e316565b816013018190555086600001516001600160a01b03166387639c686040518163ffffffff1660e01b815260040160206040518083038186803b1580156112cb57600080fd5b505afa1580156112df573d6000803e3d6000fd5b505050506040513d601f19601f820116820180604052506113039190810190614114565b60148201558351600090815260116020526040902054611329908463ffffffff6127f116565b845160009081526011602052604090205560e084015161136e9061134e576000611350565b835b6040808701516000908152601160205220549063ffffffff6127f116565b60408086015160009081526011602052818120929092556080860151825290205461139f908463ffffffff6127f116565b60808501516000908152601160205260408082209290925560c0860151815220546113d0908463ffffffff6127f116565b60c0850151600090815260116020526040902055600c81015460088201546005830154600284015461143e936001600160a01b03169261143992889261142d9291611421919063ffffffff6127f116565b9063ffffffff6127f116565b9063ffffffff61280316565b61282a565b6007810154600882015461146d916001600160a01b03169061143990869061142d90601e63ffffffff6127e316565b60068101546040516001600160a01b03909116907f692ad61076dceddd0f1a861f737553dd61fc8501cf4190d29c4e90af6607f765906114ae908590614ad5565b60405180910390a27fd811b592ed0899225773e8933d8df64bd0b62761a9d7aad4ed5b22735f4610a4828560000151866040015187608001518860c00151886040516114ff96959493929190614af1565b60405180910390a150979650505050505050565b6007546001600160a01b0316156115455760405162461bcd60e51b815260040161153c90614c01565b60405180910390fd5b600780546001600160a01b0319166001600160a01b038b1617905561156c6008898961397e565b506115796009878761397e565b50600a805460ff191660ff8616179055600480546001600160a01b03199081166001600160a01b03868116919091178355600580548316868316179055600680549092169084161790556040805160c0810182526008608082019081526734a2bc32b1a7a22160c11b60a08301528152815180830183526009815268332e302d616c70686160b81b6020808301919091528201528082018d9052306060820152905163eca34ccf60e01b815273__IexecODBLibOrders_____________________9263eca34ccf9261164d92909101614c42565b60206040518083038186803b15801561166557600080fd5b505af4158015611679573d6000803e3d6000fd5b505050506040513d601f19601f8201168201806040525061169d9190810190614114565b600f5550505050505050505050565b6000868152601360209081526040808320601483528184203385529092529091206116d56139ec565b60018381015460009081526010602090815260409182902082516102408101845281546001600160a01b039081166101e0830190815283870154821661020084015260028085015461022085015290835285516060808201885260038601548416825260048601548416828801526005860154828901528487019190915286518082018852600686015484168152600786015484168188015260088601548189015284880152600985015490840152600a8401546080840152600b84015460a0840152600c840154821660c0840152600d840154821660e0840152600e84015490911661010080840191909152600f840180548751988116159092026000190190911691909104601f81018590048502870185019095528486529094919361012086019383018282801561184a5780601f1061181f5761010080835404028352916020019161184a565b820191906000526020600020905b81548152906001019060200180831161182d57829003601f168201915b50505091835250506010820154602082015260118201546040820152601282015460608201526013820154608082015260149091015460a09091015290506001835460ff16600481111561189a57fe5b146118a457600080fd5b428360040154116118b457600080fd5b6000825460ff1660038111156118c657fe5b146118d057600080fd5b61191581604001516020015161190f338c8a6040516020016118f4939291906149b6565b604051602081830303815290604052805190602001206128b8565b866126ba565b61191e57600080fd5b6001600160a01b038616151580611943575060a0810151601f1a60f81b600160f81b16155b61194c57600080fd5b6001600160a01b038616158061197d575061197d866119778a8a6040516020016118f4929190614a24565b876126ba565b61198657600080fd5b8154600160ff1990911681178355808301899055600283018890556003830180546001600160a01b03199081166001600160a01b038a1617909155600a8501805480840182556000918252602090912001805433921682179055908401546119ed916128e8565b336001600160a01b0316897f3fdb8d7797562d49a81078dbf7fa1771958ea452f8b13d1148383bd9506aecfb8a604051611a279190614ad5565b60405180910390a333600090815260156020526040812054611a7590600190611a6990600390611a5d908263ffffffff61290916565b9063ffffffff6127d316565b9063ffffffff6127a816565b60008b81526017602090815260408083208d8452909152812054919250611aab82611a698561142d83600163ffffffff6127d316565b9050611ab68361292b565b60008d81526016602090815260408083203384528252808320939093558e8252601781528282208e835290522054611af4908263ffffffff6127f116565b60008d81526017602090815260408083208f84528252808320939093558e8252601890522054611b2a908263ffffffff6127f116565b60008d815260186020526040902055611b438c8c612ae9565b505050505050505050505050565b6004546001600160a01b031681565b601e81565b600a81565b6000611b746139ec565b60008481526010602090815260409182902082516102408101845281546001600160a01b039081166101e08301908152600180850154831661020085015260028086015461022086015291845286516060808201895260038701548516825260048701548516828901526005870154828a0152858801919091528751808201895260068701548516815260078701548516818901526008870154818a015285890152600986015490850152600a8501546080850152600b85015460a0850152600c850154831660c0850152600d850154831660e0850152600e85015490921661010080850191909152600f850180548851948116159092026000190190911691909104601f81018690048602830186019096528582529194929361012086019391929190830182828015611ce95780601f10611cbe57610100808354040283529160200191611ce9565b820191906000526020600020905b815481529060010190602001808311611ccc57829003601f168201915b50505050508152602001601082015481526020016011820154815260200160128201548152602001601382015481526020016014820154815250509050806101600151831015611d3857600080fd5b610180810151610160820151611d539163ffffffff6127f116565b8310611d5e57600080fd5b60008484604051602001611d73929190614a24565b60408051601f1981840301815291815281516020928301206000818152601390935290822090925090815460ff166004811115611dac57fe5b14611db657600080fd5b805460ff1916600190811782558101869055600281018590556080830151601980549091908110611de357fe5b6000918252602090912060039182020160020154908201819055610140840151611e1291611421906007612803565b60048201556101408301516003820154611e38919061142190600a63ffffffff61280316565b60068083019190915560008381526018602090815260408083206001905589835260109091528082209092015491516001600160a01b039092169184917f252992fb0468d68d6a5784ec03214f0d0a362083f2d7ebd157af43b017a22e0691a3509150505b92915050565b600281565b600481565b611eb5611f30565b611ed15760405162461bcd60e51b815260040161153c90614c11565b600080546040516001600160a01b03909116907f8be0079c531659141344cd1fd0a4f28419497f9722a3daafe3b4186f6b6457e0908390a3600080546001600160a01b0319169055565b600781565b6000546001600160a01b03165b90565b6000546001600160a01b0316331490565b6006546001600160a01b031681565b60408051808201909152600a81526969457865634b6974747960b01b6020909101527399c2268479b93fde36232351229815df80837e2481565b6005546001600160a01b031681565b6000838214611fa757600080fd5b60005b84811015611fe957611fe0868683818110611fc157fe5b90506020020135858584818110611fd457fe5b90506020020135611b6a565b50600101611faa565b50600195945050505050565b60008181526013602052604090206001815460ff16600481111561201557fe5b148061203057506002815460ff16600481111561202e57fe5b145b61203957600080fd5b428160060154111561204a57600080fd5b805460ff1916600417815560018101546120649083612cb0565b60005b600a8201548110156120b557600082600a01828154811061208457fe5b60009182526020909120015460018401546001600160a01b0390911691506120ac9082612dbd565b50600101612067565b5060405182907fcbc308b5f91040d2659a5201858344b0b583cd2f9e18e8470c2fa052c5b21ff890600090a25050565b6000838152601360209081526040808320600101548352601090915290206007015483906001600160a01b0316331461211d57600080fd5b60008481526013602052604090206002815460ff16600481111561213d57fe5b1461214757600080fd5b4281600601541161215757600080fd5b806009015481600801541480612180575060008160080154118015612180575042816005015411155b61218957600080fd5b805460ff191660031781556121a2600c8201858561397e565b506121b1816001015486612dda565b6121ba85612fb4565b847f78ce8a8bc0fcb704e8ba3b3dbb36aa88002df8038128b4af2f27ef65db66504485856040516121ec929190614bc1565b60405180910390a260018101546000908152601060205260409020600e01546001600160a01b031680156122cb57620186a05a1161222957600080fd5b6000816001600160a01b0316620186a088888860405160240161224e93929190614b4b565b60408051601f198184030181529181526020820180516001600160e01b0316635dd8085560e01b179052516122839190614a4a565b60006040518083038160008787f1925050503d80600081146122c1576040519150601f19603f3d011682016040523d82523d6000602084013e6122c6565b606091505b505050505b505050505050565b633b9aca0081565b6122e3611f30565b6122ff5760405162461bcd60e51b815260040161153c90614c11565b61230881613484565b50565b6000818152601360209081526040808320600101548352601090915290206007015481906001600160a01b0316331461234357600080fd5b60008281526013602052604090206002815460ff16600481111561236357fe5b1461236d57600080fd5b4281600601541161237d57600080fd5b4281600501541115801561239357506008810154155b61239c57600080fd5b60005b600a82015481101561243557600082600a0182815481106123bc57fe5b600091825260208083209091015460078601548884526014835260408085206001600160a01b03909316808652929093529190922060010154919250141561242c5760008581526014602090815260408083206001600160a01b03851684529091529020805460ff191660031790555b5060010161239f565b5060008381526017602090815260408083206007850154845282528083205486845260189092529091205461246f9163ffffffff6127a816565b6000848152601860209081526040808320939093556017815282822060078501805484529152828220829055835460ff191660011784558190556005830181905560098301819055905184917f3afe0f24796ce653c6ab1f3e7aba5ce564eece5e82aee724aff28253e829f07b91a2505050565b60008382146124f157600080fd5b60005b84811015611fe9576125216102f087878481811061250e57fe5b90506020020135868685818110611fd457fe5b6001016124f4565b6000805b828110156125585761255084848381811061254457fe5b90506020020135611ff5565b60010161252d565b5060019392505050565b6000828152601360209081526040808320601483528184203385529092529091206002825460ff16600481111561259557fe5b1461259f57600080fd5b428260050154116125af57600080fd5b6001815460ff1660038111156125c157fe5b146125cb57600080fd5b81600701548160010154146125df57600080fd5b83836040516020016125f2929190614a24565b6040516020818303038152906040528051906020012081600101541461261757600080fd5b33848460405160200161262c939291906149ed565b6040516020818303038152906040528051906020012081600201541461265157600080fd5b805460ff19166002178155600882015461266c9060016127f1565b6008830155600b8201839055604051339085907f4b1763d473ac8fa80b4432ba90047e1b92444d8fabc55e6a002d9b1a316d7959906126ac908790614ad5565b60405180910390a350505050565b60006126c7848484613505565b8061274b5750604051630b135d3f60e11b81526001600160a01b03851690631626ba7e906126fb9086908690600401614b6c565b60206040518083038186803b15801561271357600080fd5b505afa158015612727573d6000803e3d6000fd5b505050506040513d601f19601f8201168201806040525061274b91908101906140d8565b90505b9392505050565b6000826001600160a01b0316846001600160a01b0316148061274b5750836001600160a01b031663d202158d61278a856135da565b846040518363ffffffff1660e01b81526004016126fb929190614ae3565b6000828211156127b757600080fd5b50900390565b60008183106127cc578161274e565b5090919050565b6000818310156127cc578161274e565b600061274e838360646135e6565b60008282018381101561274e57600080fd5b60008261281257506000611e9d565b8282028284828161281f57fe5b041461274e57600080fd5b6128358230836135fb565b6001600160a01b0382166000908152600d602052604090205461285e908263ffffffff6127f116565b6001600160a01b0383166000908152600d60205260409081902091909155517f625fed9875dada8643f2418b838ae0bc78d9a148a18eee4ee1979ff0f3f5d427906128ac9084908490614a84565b60405180910390a15050565b6000816040516020016128cb9190614a56565b604051602081830303815290604052805190602001209050919050565b60008281526010602052604090206013015461290590829061282a565b5050565b600080821161291757600080fd5b600082848161292257fe5b04949350505050565b604080517ff8f9cbfae6cc78fbefe7cdc3a1793dfcf4f0e8bbd8cec470b6a28a7a5a3e1efd81527ff5ecf1b3e9debc68e1d9cfabc5997135bfb7a7a3938b7b606b5b4b3f2f1f0ffe60208201527ff6e4ed9ff2d6b458eadcdf97bd91692de2d4da8fd2d0ac50c6ae9a8272523616818301527fc8c0b887b0a8a4489c948c7f847c6125746c645c544c444038302820181008ff60608201527ff7cae577eec2a03cf3bad76fb589591debb2dd67e0aa9834bea6925f6a4a2e0e60808201527fe39ed557db96902cd38ed14fad815115c786af479b7e8324736353433727170760a08201527fc976c13bb96e881cb166a933a55e490d9d56952b8d4e801485467d236242260660c08201527f753a6d1b65325d0c552a4d1345224105391a310b29122104190a11030902010060e0820152610100808201909252600160f81b6001600160801b68010000000000000000640100000000620100006010600460026000198c019081041790810417908104178881041790810417908104179081041790810417017e818283848586878898a8b8c8d8e8f929395969799a9b9d9e9faaeb6bedeeff0281900460ff039091015104600160ff1b909211020190565b6000828152601360209081526040808320600190810154845260109092529091206009015490612b3f90612b2490839063ffffffff6127a816565b6000858152601860205260409020549063ffffffff61280316565b6000848152601760209081526040808320868452909152902054612b69908363ffffffff61280316565b1115612cab57600083815260136020526040812090805b600a830154811015612c3257600083600a018281548110612b9d57fe5b60009182526020808320909101548983526014825260408084206001600160a01b039092168085529190925291206001015490915086148015612c105750600160008881526014602090815260408083206001600160a01b038616845290915290205460ff166003811115612c0e57fe5b145b15612c2957612c2683600163ffffffff6127f116565b92505b50600101612b80565b50815460ff191660029081178355600783018590556003830154612c5b91429161142191612803565b6005830155600060088301556009820181905560405185907ff6d49bf3e05d33a4bc497d3c793fb5756388bb96b947cf51bb60aaecb0e022e390612ca0908790614ad5565b60405180910390a250505b505050565b6000828152601060205260408120600881015460058201546002830154929392612ce59291611421919063ffffffff6127f116565b6008830154909150600090612d0190601e63ffffffff6127e316565b600c840154909150612d1c906001600160a01b031683613704565b6007830154612d35906001600160a01b03168286613786565b60408051808201909152600a81526969457865634b6974747960b01b602090910152612d767399c2268479b93fde36232351229815df80837e24828661380c565b60408051808201909152600a81526969457865634b6974747960b01b602090910152612db67399c2268479b93fde36232351229815df80837e248261282a565b5050505050565b600082815260106020526040902060130154612905908290613704565b6000828152601060205260408120600881015460058201546002830154929392612e0f9291611421919063ffffffff6127f116565b6008830154909150600090612e2b90601e63ffffffff6127e316565b600c840154909150612e47906001600160a01b03168386613786565b600283015415612e6f5760018301546002840154612e6f916001600160a01b0316908661380c565b600583015415801590612e8e575060038301546001600160a01b031615155b15612eb15760048301546005840154612eb1916001600160a01b0316908661380c565b6007830154612ec9906001600160a01b031682613704565b60408051808201909152600a81526969457865634b6974747960b01b6020918201527399c2268479b93fde36232351229815df80837e24600052600d90527ffd32ddfd5d59d5e7f66e4f3fbdb187c8a93846a5ac2c73e5b969a9a1af20b4d35480156122cb57612f5881612f4c633b9aca00611a5d83600a63ffffffff6127e316565b9063ffffffff6127bd16565b60408051808201909152600a81526969457865634b6974747960b01b6020909101529050612f9b7399c2268479b93fde36232351229815df80837e248287613786565b60078401546122cb906001600160a01b0316828761380c565b6000818152601360205260409020612fca6139ec565b60018281015460009081526010602090815260409182902082516102408101845281546001600160a01b039081166101e0830190815283870154821661020084015260028085015461022085015290835285516060808201885260038601548416825260048601548416828801526005860154828901528487019190915286518082018852600686015484168152600786015484168188015260088601548189015284880152600985015490840152600a8401546080840152600b84015460a0840152600c840154821660c0840152600d840154821660e0840152600e84015490911661010080840191909152600f840180548751988116159092026000190190911691909104601f81018590048502870185019095528486529094919361012086019383018282801561313f5780601f106131145761010080835404028352916020019161313f565b820191906000526020600020905b81548152906001019060200180831161312257829003601f168201915b5050509183525050601082015460208201526011820154604080830191909152601283015460608301526013830154608083015260149092015460a090910152818101510151909150600090819081905b600a86015484101561325b5785600a0184815481106131ab57fe5b6000918252602090912001546001600160a01b03169250600260008881526014602090815260408083206001600160a01b038816845290915290205460ff1660038111156131f557fe5b14156132365760008781526016602090815260408083206001600160a01b038716845290915290205461322f90839063ffffffff6127f116565b9150613250565b6101a085015161324d90829063ffffffff6127f116565b90505b836001019350613190565b6000821161326857600080fd5b6000613293613286876101c0015160646127a890919063ffffffff16565b839063ffffffff6127e316565b9050600094505b600a87015485101561346b5786600a0185815481106132b557fe5b6000918252602090912001546001600160a01b03169350600260008981526014602090815260408083206001600160a01b038916845290915290205460ff1660038111156132ff57fe5b14156133e05760008881526016602090815260408083206001600160a01b038816845290915281205461333a9083908663ffffffff6135e616565b905061334c838263ffffffff6127a816565b925061335e886001015486838c61384a565b600a880154600110156133da576001600160a01b03851660009081526015602052604090205461339590600163ffffffff6127f116565b6001600160a01b0386166000818152601560205260408082209390935591518b927f9703f4589802246c80b822e63697180da799e363cd1b6fd9465a5e5574d5349291a35b50613460565b6133ef8760010154858a613878565b6001600160a01b03841660009081526015602052604090205461341b906002600363ffffffff6135e616565b6001600160a01b0385166000818152601560205260408082209390935591518a927ff868788948d55240774fdbad06555105ef20bbc70d1b7eccda982b65e11e79bb91a35b84600101945061329a565b61347a8760010154838a613896565b5050505050505050565b6001600160a01b0381166134aa5760405162461bcd60e51b815260040161153c90614bf1565b600080546040516001600160a01b03808516939216917f8be0079c531659141344cd1fd0a4f28419497f9722a3daafe3b4186f6b6457e091a3600080546001600160a01b0319166001600160a01b0392909216919091179055565b6000806000808451604114613520576000935050505061274e565b50505060208201516040830151606084015160001a601b81101561354257601b015b8060ff16601b1415801561355a57508060ff16601c14155b1561356b576000935050505061274e565b6001868285856040516000815260200160405260405161358e9493929190614b8c565b6020604051602081039080840390855afa1580156135b0573d6000803e3d6000fd5b505050602060405103516001600160a01b0316876001600160a01b03161493505050509392505050565b6001600160a01b031690565b600061274b6135f58585612803565b83612909565b6001600160a01b0383166136215760405162461bcd60e51b815260040161153c90614c21565b6001600160a01b0382166136475760405162461bcd60e51b815260040161153c90614be1565b6001600160a01b0383166000908152600c6020526040902054613670908263ffffffff6127a816565b6001600160a01b038085166000908152600c602052604080822093909355908416815220546136a5908263ffffffff6127f116565b6001600160a01b038084166000818152600c602052604090819020939093559151908516907fddf252ad1be2c89b69c2b068fc378daa952ba7f163c4a11628f55a4df523b3ef906136f7908590614ad5565b60405180910390a3505050565b61370f3083836135fb565b6001600160a01b0382166000908152600d6020526040902054613738908263ffffffff6127a816565b6001600160a01b0383166000908152600d60205260409081902091909155517f6381d9813cabeb57471b5a7e05078e64845ccdb563146a6911d536f24ce960f1906128ac9084908490614a84565b6001600160a01b0383166000908152600d60205260409020546137af908363ffffffff6127a816565b6001600160a01b0384166000908152600d60205260409081902091909155517f1bccc549c38561cd5b57f0db11ceb8dde1b0b6ee05ab5e155b51c7c5ba64becb906137ff90859085908590614a9f565b60405180910390a1505050565b6138173084846135fb565b7fc2aca55aa696938c7e95842e8939ca0fbb2120a3eeb8948cdcee2b70da5666728383836040516137ff93929190614a9f565b600084815260106020526040902060130154613867908490613704565b61387283838361380c565b50505050565b600083815260106020526040902060130154612cab90839083613786565b600083815260106020526040902060070154612cab906001600160a01b0316838361380c565b6040805161010081018252600080825260208201819052918101829052606081018290526080810182905260a0810182905260c0810182905260e081019190915290565b828054600181600116156101000203166002900490600052602060002090601f016020900481019282601f1061394157805160ff191683800117855561396e565b8280016001018555821561396e579182015b8281111561396e578251825591602001919060010190613953565b5061397a929150613a92565b5090565b828054600181600116156101000203166002900490600052602060002090601f016020900481019282601f106139bf5782800160ff1982351617855561396e565b8280016001018555821561396e579182015b8281111561396e5782358255916020019190600101906139d1565b604051806102a00160405280613a00613aac565b8152602001613a0d613aac565b8152602001613a1a613aac565b815260200160008152602001600081526020016000801916815260200160006001600160a01b0316815260200160006001600160a01b0316815260200160006001600160a01b031681526020016060815260200160008152602001600081526020016000815260200160008152602001600081525090565b611f2d91905b8082111561397a5760008155600101613a98565b604080516060810182526000808252602082018190529181019190915290565b8035611e9d81614d4e565b8051611e9d81614d4e565b60008083601f840112613af457600080fd5b5081356001600160401b03811115613b0b57600080fd5b602083019150836020820283011115613b2357600080fd5b9250929050565b8051611e9d81614d62565b8035611e9d81614d6b565b8051611e9d81614d6b565b60008083601f840112613b5d57600080fd5b5081356001600160401b03811115613b7457600080fd5b602083019150836001820283011115613b2357600080fd5b600082601f830112613b9d57600080fd5b8135613bb0613bab82614c9b565b614c75565b91508082526020830160208301858383011115613bcc57600080fd5b613bd7838284614cf5565b50505092915050565b60006101208284031215613bf357600080fd5b613bfe610120614c75565b90506000613c0c8484613acc565b8252506020613c1d84848301613b35565b6020830152506040613c3184828501613b35565b6040830152506060613c4584828501613b35565b6060830152506080613c5984828501613acc565b60808301525060a0613c6d84828501613acc565b60a08301525060c0613c8184828501613acc565b60c08301525060e0613c9584828501613b35565b60e0830152506101008201356001600160401b03811115613cb557600080fd5b613cc184828501613b8c565b6101008301525092915050565b60006102008284031215613ce157600080fd5b613cec610200614c75565b90506000613cfa8484613acc565b8252506020613d0b84848301613b35565b6020830152506040613d1f84828501613acc565b6040830152506060613d3384828501613b35565b6060830152506080613d4784828501613acc565b60808301525060a0613d5b84828501613b35565b60a08301525060c0613d6f84828501613acc565b60c08301525060e0613d8384828501613b35565b60e083015250610100613d9884828501613b35565b61010083015250610120613dae84828501613b35565b61012083015250610140613dc484828501613b35565b61014083015250610160613dda84828501613acc565b61016083015250610180613df084828501613acc565b610180830152506101a08201356001600160401b03811115613e1157600080fd5b613e1d84828501613b8c565b6101a0830152506101c0613e3384828501613b35565b6101c0830152506101e08201356001600160401b03811115613e5457600080fd5b613e6084828501613b8c565b6101e08301525092915050565b60006101608284031215613e8057600080fd5b613e8b610160614c75565b90506000613e998484613acc565b8252506020613eaa84848301613b35565b6020830152506040613ebe84828501613b35565b6040830152506060613ed284828501613b35565b6060830152506080613ee684828501613b35565b60808301525060a0613efa84828501613b35565b60a08301525060c0613f0e84828501613acc565b60c08301525060e0613f2284828501613acc565b60e083015250610100613f3784828501613acc565b61010083015250610120613f4d84828501613b35565b610120830152506101408201356001600160401b03811115613f6e57600080fd5b613f7a84828501613b8c565b6101408301525092915050565b8035611e9d81614d74565b600060208284031215613fa457600080fd5b60006103b58484613acc565b600060208284031215613fc257600080fd5b60006103b58484613ad7565b60008060008060608587031215613fe457600080fd5b6000613ff08787613acc565b945050602061400187828801613b35565b93505060408501356001600160401b0381111561401d57600080fd5b61402987828801613b4b565b95989497509550505050565b6000806020838503121561404857600080fd5b82356001600160401b0381111561405e57600080fd5b61406a85828601613ae2565b92509250509250929050565b6000806000806040858703121561408c57600080fd5b84356001600160401b038111156140a257600080fd5b6140ae87828801613ae2565b945094505060208501356001600160401b038111156140cc57600080fd5b61402987828801613ae2565b6000602082840312156140ea57600080fd5b60006103b58484613b2a565b60006020828403121561410857600080fd5b60006103b58484613b35565b60006020828403121561412657600080fd5b60006103b58484613b40565b6000806040838503121561414557600080fd5b60006141518585613b35565b925050602061416285828601613b35565b9150509250929050565b60008060008060008060c0878903121561418557600080fd5b60006141918989613b35565b96505060206141a289828a01613b35565b95505060406141b389828a01613b35565b94505060606141c489828a01613acc565b93505060808701356001600160401b038111156141e057600080fd5b6141ec89828a01613b8c565b92505060a08701356001600160401b0381111561420857600080fd5b61421489828a01613b8c565b9150509295509295509295565b60008060006040848603121561423657600080fd5b60006142428686613b35565b93505060208401356001600160401b0381111561425e57600080fd5b61426a86828701613b4b565b92509250509250925092565b6000806000806080858703121561428c57600080fd5b84356001600160401b038111156142a257600080fd5b6142ae87828801613be0565b94505060208501356001600160401b038111156142ca57600080fd5b6142d687828801613be0565b93505060408501356001600160401b038111156142f257600080fd5b6142fe87828801613e6d565b92505060608501356001600160401b0381111561431a57600080fd5b61432687828801613cce565b91505092959194509250565b6000806000806000806000806000806101008b8d03121561435257600080fd5b600061435e8d8d613b35565b9a5050602061436f8d828e01613acc565b99505060408b01356001600160401b0381111561438b57600080fd5b6143978d828e01613b4b565b985098505060608b01356001600160401b038111156143b557600080fd5b6143c18d828e01613b4b565b965096505060806143d48d828e01613f87565b94505060a06143e58d828e01613acc565b93505060c06143f68d828e01613acc565b92505060e06144078d828e01613acc565b9150509295989b9194979a5092959850565b61442a61442582614cd4565b614d2d565b82525050565b61442a81614cd4565b61442a81614cdf565b61442a81611f2d565b61442a61445782611f2d565b611f2d565b60006144688385614cc6565b9350614475838584614cf5565b61447e83614d3e565b9093019392505050565b600061449382614cc2565b61449d8185614cc6565b93506144ad818560208601614d01565b61447e81614d3e565b60006144c182614cc2565b6144cb8185614ccf565b93506144db818560208601614d01565b9290920192915050565b61442a81614cea565b60006144fb602383614cc6565b7f45524332303a207472616e7366657220746f20746865207a65726f206164647281526265737360e81b602082015260400192915050565b6000614540601c83614ccf565b7f19457468657265756d205369676e6564204d6573736167653a0a3332000000008152601c0192915050565b6000614579602683614cc6565b7f4f776e61626c653a206e6577206f776e657220697320746865207a65726f206181526564647265737360d01b602082015260400192915050565b60006145c1601283614cc6565b71185b1c9958591e4b58dbdb999a59dd5c995960721b815260200192915050565b60006145ef602083614cc6565b7f4f776e61626c653a2063616c6c6572206973206e6f7420746865206f776e6572815260200192915050565b6000614628602583614cc6565b7f45524332303a207472616e736665722066726f6d20746865207a65726f206164815264647265737360d81b602082015260400192915050565b80516000906101208401906146778582614430565b50602083015161468a6020860182614442565b50604083015161469d6040860182614442565b5060608301516146b06060860182614442565b5060808301516146c36080860182614430565b5060a08301516146d660a0860182614430565b5060c08301516146e960c0860182614430565b5060e08301516146fc60e0860182614442565b506101008301518482036101008601526147168282614488565b95945050505050565b80516080808452600091908401906147378282614488565b915050602083015184820360208601526147518282614488565b91505060408301516147666040860182614442565b5060608301516147796060860182614430565b509392505050565b80516000906102008401906147968582614430565b5060208301516147a96020860182614442565b5060408301516147bc6040860182614430565b5060608301516147cf6060860182614442565b5060808301516147e26080860182614430565b5060a08301516147f560a0860182614442565b5060c083015161480860c0860182614430565b5060e083015161481b60e0860182614442565b50610100830151614830610100860182614442565b50610120830151614845610120860182614442565b5061014083015161485a610140860182614442565b5061016083015161486f610160860182614430565b50610180830151614884610180860182614430565b506101a08301518482036101a086015261489e8282614488565b9150506101c08301516148b56101c0860182614442565b506101e08301518482036101e08601526147168282614488565b80516000906101608401906148e48582614430565b5060208301516148f76020860182614442565b50604083015161490a6040860182614442565b50606083015161491d6060860182614442565b5060808301516149306080860182614442565b5060a083015161494360a0860182614442565b5060c083015161495660c0860182614430565b5060e083015161496960e0860182614430565b5061010083015161497e610100860182614430565b50610120830151614993610120860182614442565b506101408301518482036101408601526147168282614488565b61442a81614ce4565b60006149c28286614419565b6014820191506149d2828561444b565b6020820191506149e28284614419565b506014019392505050565b60006149f98286614419565b601482019150614a09828561444b565b602082019150614a19828461444b565b506020019392505050565b6000614a30828561444b565b602082019150614a40828461444b565b5060200192915050565b600061274e82846144b6565b6000614a6182614533565b9150614a6d828461444b565b50602001919050565b60208101611e9d8284614430565b60408101614a928285614430565b61274e6020830184614442565b60608101614aad8286614430565b614aba6020830185614442565b6103b56040830184614442565b60208101611e9d8284614439565b60208101611e9d8284614442565b60408101614a928285614442565b60c08101614aff8289614442565b614b0c6020830188614442565b614b196040830187614442565b614b266060830186614442565b614b336080830185614442565b614b4060a0830184614442565b979650505050505050565b60408101614b598286614442565b81810360208301526103b281848661445c565b60408101614b7a8285614442565b818103602083015261274b8184614488565b60808101614b9a8287614442565b614ba760208301866149ad565b614bb46040830185614442565b6147166060830184614442565b6020808252810161274b81848661445c565b60208101611e9d82846144e5565b60208082528101611e9d816144ee565b60208082528101611e9d8161456c565b60208082528101611e9d816145b4565b60208082528101611e9d816145e2565b60208082528101611e9d8161461b565b6020808252810161274e8184614662565b6020808252810161274e818461471f565b6020808252810161274e8184614781565b6020808252810161274e81846148cf565b6040518181016001600160401b0381118282101715614c9357600080fd5b604052919050565b60006001600160401b03821115614cb157600080fd5b506020601f91909101601f19160190565b5190565b90815260200190565b919050565b6000611e9d826135da565b151590565b60ff1690565b6000611e9d82614cd4565b82818337506000910152565b60005b83811015614d1c578181015183820152602001614d04565b838111156138725750506000910152565b6000611e9d826000611e9d82614d48565b601f01601f191690565b60601b90565b614d5781614cd4565b811461230857600080fd5b614d5781614cdf565b614d5781611f2d565b614d5781614ce456fea365627a7a7230582028176cad5d3ac3ac1afb46c16b32df402468bfc6c2119b2103c822865766c2f26c6578706572696d656e74616cf564736f6c634300050a00408be0079c531659141344cd1fd0a4f28419497f9722a3daafe3b4186f6b6457e0",
  "source": "pragma solidity ^0.5.10;\npragma experimental ABIEncoderV2;\n\nimport \"./IexecERC20.sol\";\nimport \"../SignatureVerifier.sol\";\nimport \"../IexecDelegateBase.sol\";\n\n\ninterface IexecPoco\n{\n\tevent Withdraw(address owner, uint256 amount);\n\tevent Reward  (address owner, uint256 amount, bytes32 ref);\n\tevent Seize   (address owner, uint256 amount, bytes32 ref);\n\tevent Lock    (address owner, uint256 amount);\n\tevent Unlock  (address owner, uint256 amount);\n\n\tevent OrdersMatched  (bytes32 dealid, bytes32 appHash, bytes32 datasetHash, bytes32 workerpoolHash, bytes32 requestHash, uint256 volume);\n\tevent SchedulerNotice(address indexed workerpool, bytes32 dealid);\n\n\tevent TaskInitialize(bytes32 indexed taskid, address indexed workerpool);\n\tevent TaskContribute(bytes32 indexed taskid, address indexed worker, bytes32 hash);\n\tevent TaskConsensus (bytes32 indexed taskid, bytes32 consensus);\n\tevent TaskReveal    (bytes32 indexed taskid, address indexed worker, bytes32 digest);\n\tevent TaskReopen    (bytes32 indexed taskid);\n\tevent TaskFinalize  (bytes32 indexed taskid, bytes results);\n\tevent TaskClaimed   (bytes32 indexed taskid);\n\n\tevent AccurateContribution(address indexed worker, bytes32 indexed taskid);\n\tevent FaultyContribution  (address indexed worker, bytes32 indexed taskid);\n\n\tfunction configure(uint256,address,string calldata,string calldata,uint8,address,address,address) external;\n\tfunction verifySignature(address,bytes32,bytes calldata) external view returns (bool);\n\tfunction matchOrders(IexecODBLibOrders.AppOrder calldata,IexecODBLibOrders.DatasetOrder calldata,IexecODBLibOrders.WorkerpoolOrder calldata,IexecODBLibOrders.RequestOrder calldata) external returns (bytes32);\n\tfunction initialize(bytes32,uint256) external returns (bytes32);\n\tfunction contribute(bytes32,bytes32,bytes32,address,bytes calldata,bytes calldata) external;\n\tfunction reveal(bytes32,bytes32) external;\n\tfunction reopen(bytes32) external;\n\tfunction finalize(bytes32,bytes calldata) external;\n\tfunction claim(bytes32) external;\n\tfunction initializeArray(bytes32[] calldata,uint256[] calldata) external returns (bool);\n\tfunction claimArray(bytes32[] calldata) external returns (bool);\n\tfunction initializeAndClaimArray(bytes32[] calldata,uint256[] calldata) external returns (bool);\n}\n\ncontract IexecPocoDelegate is IexecPoco, IexecDelegateBase, IexecERC20Common, SignatureVerifier\n{\n\tusing SafeMathExtended  for uint256;\n\tusing IexecODBLibOrders for bytes32;\n\tusing IexecODBLibOrders for IexecODBLibOrders.EIP712Domain;\n\tusing IexecODBLibOrders for IexecODBLibOrders.AppOrder;\n\tusing IexecODBLibOrders for IexecODBLibOrders.DatasetOrder;\n\tusing IexecODBLibOrders for IexecODBLibOrders.WorkerpoolOrder;\n\tusing IexecODBLibOrders for IexecODBLibOrders.RequestOrder;\n\n\n\tfunction configure(\n\t\tuint256          _chainid,\n\t\taddress          _token,\n\t\tstring  calldata _name,\n\t\tstring  calldata _symbol,\n\t\tuint8            _decimal,\n\t\taddress          _appregistryAddress,\n\t\taddress          _datasetregistryAddress,\n\t\taddress          _workerpoolregistryAddress)\n\texternal\n\t{\n\t\trequire(address(m_baseToken) == address(0), \"already-configured\");\n\n\t\tm_baseToken        = IERC20(_token);\n\t\tm_name             = _name;\n\t\tm_symbol           = _symbol;\n\t\tm_decimals         = _decimal;\n\t\tappregistry        = RegistryBase(_appregistryAddress);\n\t\tdatasetregistry    = RegistryBase(_datasetregistryAddress);\n\t\tworkerpoolregistry = RegistryBase(_workerpoolregistryAddress);\n\n\t\tEIP712DOMAIN_SEPARATOR = IexecODBLibOrders.EIP712Domain({\n\t\t\tname:              \"iExecODB\"\n\t\t, version:           \"3.0-alpha\"\n\t\t, chainId:           _chainid\n\t\t, verifyingContract: address(this)\n\t\t}).hash();\n\t}\n\n\t/***************************************************************************\n\t *                        Escrow methods: internal                         *\n\t ***************************************************************************/\n\tfunction reward(address user, uint256 amount, bytes32 ref)\n\t\tinternal /* returns (bool) */\n\t{\n\t\t_transfer(address(this), user, amount);\n\t\temit Reward(user, amount, ref);\n\t\t/* return true; */\n\t}\n\n\tfunction seize(address user, uint256 amount, bytes32 ref)\n\t\tinternal /* returns (bool) */\n\t{\n\t\tm_frozens[user] = m_frozens[user].sub(amount);\n\t\temit Seize(user, amount, ref);\n\t\t/* return true; */\n\t}\n\n\tfunction lock(address user, uint256 amount)\n\t\tinternal /* returns (bool) */\n\t{\n\t\t_transfer(user, address(this), amount);\n\t\tm_frozens[user] = m_frozens[user].add(amount);\n\t\temit Lock(user, amount);\n\t\t/* return true; */\n\t}\n\n\tfunction unlock(address user, uint256 amount)\n\t\tinternal /* returns (bool) */\n\t{\n\t\t_transfer(address(this), user, amount);\n\t\tm_frozens[user] = m_frozens[user].sub(amount);\n\t\temit Unlock(user, amount);\n\t\t/* return true; */\n\t}\n\n\t/***************************************************************************\n\t *                    Escrow overhead for contribution                     *\n\t ***************************************************************************/\n\tfunction lockContribution(bytes32 _dealid, address _worker)\n\t\tinternal\n\t{\n\t\tlock(_worker, m_deals[_dealid].workerStake);\n\t}\n\n\tfunction unlockContribution(bytes32 _dealid, address _worker)\n\t\tinternal\n\t{\n\t\tunlock(_worker, m_deals[_dealid].workerStake);\n\t}\n\n\tfunction unlockAndRewardForContribution(bytes32 _dealid, address _worker, uint256 _amount, bytes32 _taskid)\n\t\tinternal\n\t{\n\t\tunlock(_worker, m_deals[_dealid].workerStake);\n\t\treward(_worker, _amount, _taskid);\n\t}\n\n\tfunction seizeContribution(bytes32 _dealid, address _worker, bytes32 _taskid)\n\t\tinternal\n\t{\n\t\tseize(_worker, m_deals[_dealid].workerStake, _taskid);\n\t}\n\n\tfunction rewardForScheduling(bytes32 _dealid, uint256 _amount, bytes32 _taskid)\n\t\tinternal\n\t{\n\t\treward(m_deals[_dealid].workerpool.owner, _amount, _taskid);\n\t}\n\n\tfunction successWork(bytes32 _dealid, bytes32 _taskid)\n\t\tinternal\n\t{\n\t\tIexecODBLibCore.Deal storage deal = m_deals[_dealid];\n\n\t\tuint256 requesterstake = deal.app.price\n\t\t                         .add(deal.dataset.price)\n\t\t                         .add(deal.workerpool.price);\n\t\tuint256 poolstake = deal.workerpool.price\n\t\t                    .percentage(WORKERPOOL_STAKE_RATIO);\n\n\t\t// seize requester funds\n\t\tseize(deal.requester, requesterstake, _taskid);\n\t\t// dapp reward\n\t\tif (deal.app.price > 0)\n\t\t{\n\t\t\treward(deal.app.owner, deal.app.price, _taskid);\n\t\t}\n\t\t// data reward\n\t\tif (deal.dataset.price > 0 && deal.dataset.pointer != address(0))\n\t\t{\n\t\t\treward(deal.dataset.owner, deal.dataset.price, _taskid);\n\t\t}\n\t\t// unlock pool stake\n\t\tunlock(deal.workerpool.owner, poolstake);\n\t\t// pool reward performed by consensus manager\n\n\t\t/**\n\t\t * Retrieve part of the kitty\n\t\t * TODO: remove / keep ?\n\t\t */\n\t\tuint256 kitty = m_frozens[KITTY_ADDRESS];\n\t\tif (kitty > 0)\n\t\t{\n\t\t\tkitty = kitty\n\t\t\t        .percentage(KITTY_RATIO) // fraction\n\t\t\t        .max(KITTY_MIN)          // at least this\n\t\t\t        .min(kitty);             // but not more than available\n\t\t\tseize (KITTY_ADDRESS,         kitty, _taskid);\n\t\t\treward(deal.workerpool.owner, kitty, _taskid);\n\t\t}\n\t}\n\n\tfunction failedWork(bytes32 _dealid, bytes32 _taskid)\n\t\tinternal\n\t{\n\t\tIexecODBLibCore.Deal storage deal = m_deals[_dealid];\n\n\t\tuint256 requesterstake = deal.app.price\n\t\t                         .add(deal.dataset.price)\n\t\t                         .add(deal.workerpool.price);\n\t\tuint256 poolstake = deal.workerpool.price\n\t\t                    .percentage(WORKERPOOL_STAKE_RATIO);\n\n\t\tunlock(deal.requester,        requesterstake    );\n\t\tseize (deal.workerpool.owner, poolstake, _taskid);\n\t\treward(KITTY_ADDRESS,         poolstake, _taskid); //  Kitty / Burn\n\t\tlock  (KITTY_ADDRESS,         poolstake         ); //  Kitty / Burn\n\t}\n\n\t/***************************************************************************\n\t *                           ODB order matching                            *\n\t ***************************************************************************/\n\tfunction verifySignature(address _identity, bytes32 _hash, bytes calldata _signature)\n\texternal view returns (bool)\n\t{\n\t\treturn checkSignature(_identity, _hash, _signature);\n\t}\n\n\tstruct Identities\n\t{\n\t\tbytes32 appHash;\n\t\taddress appOwner;\n\t\tbytes32 datasetHash;\n\t\taddress datasetOwner;\n\t\tbytes32 workerpoolHash;\n\t\taddress workerpoolOwner;\n\t\tbytes32 requestHash;\n\t\tbool    hasDataset;\n\t}\n\n\t// should be external\n\tfunction matchOrders(\n\t\tIexecODBLibOrders.AppOrder        memory _apporder,\n\t\tIexecODBLibOrders.DatasetOrder    memory _datasetorder,\n\t\tIexecODBLibOrders.WorkerpoolOrder memory _workerpoolorder,\n\t\tIexecODBLibOrders.RequestOrder    memory _requestorder)\n\tpublic returns (bytes32)\n\t{\n\t\t/**\n\t\t * Check orders compatibility\n\t\t */\n\n\t\t// computation environment & allowed enough funds\n\t\trequire(_requestorder.category           == _workerpoolorder.category       );\n\t\trequire(_requestorder.trust              <= _workerpoolorder.trust          );\n\t\trequire(_requestorder.appmaxprice        >= _apporder.appprice              );\n\t\trequire(_requestorder.datasetmaxprice    >= _datasetorder.datasetprice      );\n\t\trequire(_requestorder.workerpoolmaxprice >= _workerpoolorder.workerpoolprice);\n\t\trequire((_apporder.tag | _datasetorder.tag | _requestorder.tag) & ~_workerpoolorder.tag == 0x0);\n\n\t\t// Check matching and restrictions\n\t\trequire(_requestorder.app     == _apporder.app        );\n\t\trequire(_requestorder.dataset == _datasetorder.dataset);\n\t\trequire(_requestorder.workerpool           == address(0) || checkIdentity(_requestorder.workerpool,           _workerpoolorder.workerpool, GROUPMEMBER_PURPOSE)); // requestorder.workerpool is a restriction\n\t\trequire(_apporder.datasetrestrict          == address(0) || checkIdentity(_apporder.datasetrestrict,          _datasetorder.dataset,       GROUPMEMBER_PURPOSE));\n\t\trequire(_apporder.workerpoolrestrict       == address(0) || checkIdentity(_apporder.workerpoolrestrict,       _workerpoolorder.workerpool, GROUPMEMBER_PURPOSE));\n\t\trequire(_apporder.requesterrestrict        == address(0) || checkIdentity(_apporder.requesterrestrict,        _requestorder.requester,     GROUPMEMBER_PURPOSE));\n\t\trequire(_datasetorder.apprestrict          == address(0) || checkIdentity(_datasetorder.apprestrict,          _apporder.app,               GROUPMEMBER_PURPOSE));\n\t\trequire(_datasetorder.workerpoolrestrict   == address(0) || checkIdentity(_datasetorder.workerpoolrestrict,   _workerpoolorder.workerpool, GROUPMEMBER_PURPOSE));\n\t\trequire(_datasetorder.requesterrestrict    == address(0) || checkIdentity(_datasetorder.requesterrestrict,    _requestorder.requester,     GROUPMEMBER_PURPOSE));\n\t\trequire(_workerpoolorder.apprestrict       == address(0) || checkIdentity(_workerpoolorder.apprestrict,       _apporder.app,               GROUPMEMBER_PURPOSE));\n\t\trequire(_workerpoolorder.datasetrestrict   == address(0) || checkIdentity(_workerpoolorder.datasetrestrict,   _datasetorder.dataset,       GROUPMEMBER_PURPOSE));\n\t\trequire(_workerpoolorder.requesterrestrict == address(0) || checkIdentity(_workerpoolorder.requesterrestrict, _requestorder.requester,     GROUPMEMBER_PURPOSE));\n\n\t\trequire(                                       appregistry.isRegistered(_apporder.app));\n\t\trequire(_datasetorder.dataset == address(0) || datasetregistry.isRegistered(_datasetorder.dataset));\n\t\trequire(                                       workerpoolregistry.isRegistered(_workerpoolorder.workerpool));\n\n\t\t/**\n\t\t * Check orders authenticity\n\t\t */\n\t\tIdentities memory ids;\n\t\tids.hasDataset = _datasetorder.dataset != address(0);\n\n\t\t// app\n\t\tids.appHash  = _apporder.hash().toEthTypedStructHash(EIP712DOMAIN_SEPARATOR);\n\t\tids.appOwner = App(_apporder.app).owner();\n\t\trequire(m_presigned[ids.appHash] || checkSignature(ids.appOwner, ids.appHash, _apporder.sign));\n\n\t\t// dataset\n\t\tif (ids.hasDataset) // only check if dataset is enabled\n\t\t{\n\t\t\tids.datasetHash  = _datasetorder.hash().toEthTypedStructHash(EIP712DOMAIN_SEPARATOR);\n\t\t\tids.datasetOwner = Dataset(_datasetorder.dataset).owner();\n\t\t\trequire(m_presigned[ids.datasetHash] || checkSignature(ids.datasetOwner, ids.datasetHash, _datasetorder.sign));\n\t\t}\n\n\t\t// workerpool\n\t\tids.workerpoolHash  = _workerpoolorder.hash().toEthTypedStructHash(EIP712DOMAIN_SEPARATOR);\n\t\tids.workerpoolOwner = Workerpool(_workerpoolorder.workerpool).owner();\n\t\trequire(m_presigned[ids.workerpoolHash] || checkSignature(ids.workerpoolOwner, ids.workerpoolHash, _workerpoolorder.sign));\n\n\t\t// request\n\t\tids.requestHash = _requestorder.hash().toEthTypedStructHash(EIP712DOMAIN_SEPARATOR);\n\t\trequire(m_presigned[ids.requestHash] || checkSignature(_requestorder.requester, ids.requestHash, _requestorder.sign));\n\n\t\t/**\n\t\t * Check availability\n\t\t */\n\t\tuint256 volume;\n\t\tvolume =                             _apporder.volume.sub       (m_consumed[ids.appHash       ]);\n\t\tvolume = ids.hasDataset ? volume.min(_datasetorder.volume.sub   (m_consumed[ids.datasetHash   ])) : volume;\n\t\tvolume =                  volume.min(_workerpoolorder.volume.sub(m_consumed[ids.workerpoolHash]));\n\t\tvolume =                  volume.min(_requestorder.volume.sub   (m_consumed[ids.requestHash   ]));\n\t\trequire(volume > 0);\n\n\t\t/**\n\t\t * Record\n\t\t */\n\t\tbytes32 dealid = keccak256(abi.encodePacked(\n\t\t\tids.requestHash,            // requestHash\n\t\t\tm_consumed[ids.requestHash] // idx of first subtask\n\t\t));\n\n\t\tIexecODBLibCore.Deal storage deal = m_deals[dealid];\n\t\tdeal.app.pointer          = _apporder.app;\n\t\tdeal.app.owner            = ids.appOwner;\n\t\tdeal.app.price            = _apporder.appprice;\n\t\tdeal.dataset.owner        = ids.datasetOwner;\n\t\tdeal.dataset.pointer      = _datasetorder.dataset;\n\t\tdeal.dataset.price        = ids.hasDataset ? _datasetorder.datasetprice : 0;\n\t\tdeal.workerpool.pointer   = _workerpoolorder.workerpool;\n\t\tdeal.workerpool.owner     = ids.workerpoolOwner;\n\t\tdeal.workerpool.price     = _workerpoolorder.workerpoolprice;\n\t\tdeal.trust                = _requestorder.trust.max(1);\n\t\tdeal.category             = _requestorder.category;\n\t\tdeal.tag                  = _apporder.tag | _datasetorder.tag | _requestorder.tag;\n\t\tdeal.requester            = _requestorder.requester;\n\t\tdeal.beneficiary          = _requestorder.beneficiary;\n\t\tdeal.callback             = _requestorder.callback;\n\t\tdeal.params               = _requestorder.params;\n\t\tdeal.startTime            = now;\n\t\tdeal.botFirst             = m_consumed[ids.requestHash];\n\t\tdeal.botSize              = volume;\n\t\tdeal.workerStake          = _workerpoolorder.workerpoolprice.percentage(Workerpool(_workerpoolorder.workerpool).m_workerStakeRatioPolicy());\n\t\tdeal.schedulerRewardRatio = Workerpool(_workerpoolorder.workerpool).m_schedulerRewardRatioPolicy();\n\n\t\t/**\n\t\t * Update consumed\n\t\t */\n\t\tm_consumed[ids.appHash       ] = m_consumed[ids.appHash       ].add(                 volume    );\n\t\tm_consumed[ids.datasetHash   ] = m_consumed[ids.datasetHash   ].add(ids.hasDataset ? volume : 0);\n\t\tm_consumed[ids.workerpoolHash] = m_consumed[ids.workerpoolHash].add(                 volume    );\n\t\tm_consumed[ids.requestHash   ] = m_consumed[ids.requestHash   ].add(                 volume    );\n\n\t\t/**\n\t\t * Lock\n\t\t */\n\t\tlock(\n\t\t\tdeal.requester,\n\t\t\tdeal.app.price\n\t\t\t.add(deal.dataset.price)\n\t\t\t.add(deal.workerpool.price)\n\t\t\t.mul(volume)\n\t\t);\n\t\tlock(\n\t\t\tdeal.workerpool.owner,\n\t\t\tdeal.workerpool.price\n\t\t\t.percentage(WORKERPOOL_STAKE_RATIO) // ORDER IS IMPORTANT HERE!\n\t\t\t.mul(volume)                        // ORDER IS IMPORTANT HERE!\n\t\t);\n\n\t\t/**\n\t\t * Advertize deal\n\t\t */\n\t\temit SchedulerNotice(deal.workerpool.pointer, dealid);\n\n\t\t/**\n\t\t * Advertize consumption\n\t\t */\n\t\temit OrdersMatched(\n\t\t\tdealid,\n\t\t\tids.appHash,\n\t\t\tids.datasetHash,\n\t\t\tids.workerpoolHash,\n\t\t\tids.requestHash,\n\t\t\tvolume\n\t\t);\n\n\t\treturn dealid;\n\t}\n\n\t/***************************************************************************\n\t *                            Consensus methods                            *\n\t ***************************************************************************/\n\tfunction initialize(bytes32 _dealid, uint256 idx)\n\tpublic returns (bytes32)\n\t{\n\t\tIexecODBLibCore.Deal memory deal = m_deals[_dealid];\n\n\t\trequire(idx >= deal.botFirst                  );\n\t\trequire(idx <  deal.botFirst.add(deal.botSize));\n\n\t\tbytes32 taskid  = keccak256(abi.encodePacked(_dealid, idx));\n\t\tIexecODBLibCore.Task storage task = m_tasks[taskid];\n\t\trequire(task.status == IexecODBLibCore.TaskStatusEnum.UNSET);\n\n\t\ttask.status               = IexecODBLibCore.TaskStatusEnum.ACTIVE;\n\t\ttask.dealid               = _dealid;\n\t\ttask.idx                  = idx;\n\t\ttask.timeref              = m_categories[deal.category].workClockTimeRef;\n\t\ttask.contributionDeadline = task.timeref.mul(CONTRIBUTION_DEADLINE_RATIO).add(deal.startTime);\n\t\ttask.finalDeadline        = task.timeref.mul(       FINAL_DEADLINE_RATIO).add(deal.startTime);\n\n\t\t// setup denominator\n\t\tm_totalweight[taskid] = 1;\n\n\t\temit TaskInitialize(taskid, m_deals[_dealid].workerpool.pointer);\n\n\t\treturn taskid;\n\t}\n\n\t// TODO: make external w/ calldata\n\tfunction contribute(\n\t\tbytes32      _taskid,\n\t\tbytes32      _resultHash,\n\t\tbytes32      _resultSeal,\n\t\taddress      _enclaveChallenge,\n\t\tbytes memory _enclaveSign,\n\t\tbytes memory _workerpoolSign)\n\tpublic\n\t{\n\t\tIexecODBLibCore.Task         storage task         = m_tasks[_taskid];\n\t\tIexecODBLibCore.Contribution storage contribution = m_contributions[_taskid][msg.sender];\n\t\tIexecODBLibCore.Deal         memory  deal         = m_deals[task.dealid];\n\n\t\trequire(task.status               == IexecODBLibCore.TaskStatusEnum.ACTIVE       );\n\t\trequire(task.contributionDeadline >  now                                         );\n\t\trequire(contribution.status       == IexecODBLibCore.ContributionStatusEnum.UNSET);\n\n\t\t// Check that the worker + taskid + enclave combo is authorized to contribute (scheduler signature)\n\t\trequire(checkSignature(\n\t\t\tdeal.workerpool.owner,\n\t\t\ttoEthSignedMessageHash(\n\t\t\t\tkeccak256(abi.encodePacked(\n\t\t\t\t\tmsg.sender,\n\t\t\t\t\t_taskid,\n\t\t\t\t\t_enclaveChallenge\n\t\t\t\t))\n\t\t\t),\n\t\t\t_workerpoolSign\n\t\t));\n\n\t\t// need enclave challenge if tag is set\n\t\trequire(_enclaveChallenge != address(0) || (deal.tag[31] & 0x01 == 0));\n\n\t\t// Check enclave signature\n\t\trequire(_enclaveChallenge == address(0) || checkSignature(\n\t\t\t_enclaveChallenge,\n\t\t\ttoEthSignedMessageHash(\n\t\t\t\tkeccak256(abi.encodePacked(\n\t\t\t\t\t_resultHash,\n\t\t\t\t\t_resultSeal\n\t\t\t\t))\n\t\t\t),\n\t\t\t_enclaveSign\n\t\t));\n\n\t\t// Update contribution entry\n\t\tcontribution.status           = IexecODBLibCore.ContributionStatusEnum.CONTRIBUTED;\n\t\tcontribution.resultHash       = _resultHash;\n\t\tcontribution.resultSeal       = _resultSeal;\n\t\tcontribution.enclaveChallenge = _enclaveChallenge;\n\t\ttask.contributors.push(msg.sender);\n\n\t\tlockContribution(task.dealid, msg.sender);\n\n\t\temit TaskContribute(_taskid, msg.sender, _resultHash);\n\n\t\t// Contribution done  updating and checking concensus\n\n\t\t/*************************************************************************\n\t\t *                           SCORE POLICY 1/3                            *\n\t\t *                                                                       *\n\t\t *                          see documentation!                           *\n\t\t *************************************************************************/\n\t\t// k = 3\n\t\tuint256 weight = m_workerScores[msg.sender].div(3).max(3).sub(1);\n\t\tuint256 group  = m_groupweight[_taskid][_resultHash];\n\t\tuint256 delta  = group.max(1).mul(weight).sub(group);\n\n\t\tm_logweight  [_taskid][msg.sender ] = weight.log();\n\t\tm_groupweight[_taskid][_resultHash] = m_groupweight[_taskid][_resultHash].add(delta);\n\t\tm_totalweight[_taskid]              = m_totalweight[_taskid].add(delta);\n\n\t\t// Check consensus\n\t\tcheckConsensus(_taskid, _resultHash);\n\t}\n\n\tfunction checkConsensus(\n\t\tbytes32 _taskid,\n\t\tbytes32 _consensus)\n\tinternal\n\t{\n\t\tuint256 trust = m_deals[m_tasks[_taskid].dealid].trust;\n\t\tif (m_groupweight[_taskid][_consensus].mul(trust) > m_totalweight[_taskid].mul(trust.sub(1)))\n\t\t{\n\t\t\t// Preliminary checks done in \"contribute()\"\n\n\t\t\tIexecODBLibCore.Task storage task = m_tasks[_taskid];\n\t\t\tuint256 winnerCounter = 0;\n\t\t\tfor (uint256 i = 0; i < task.contributors.length; ++i)\n\t\t\t{\n\t\t\t\taddress w = task.contributors[i];\n\t\t\t\tif\n\t\t\t\t(\n\t\t\t\t\tm_contributions[_taskid][w].resultHash == _consensus\n\t\t\t\t\t&&\n\t\t\t\t\tm_contributions[_taskid][w].status == IexecODBLibCore.ContributionStatusEnum.CONTRIBUTED // REJECTED contribution must not be count\n\t\t\t\t)\n\t\t\t\t{\n\t\t\t\t\twinnerCounter = winnerCounter.add(1);\n\t\t\t\t}\n\t\t\t}\n\t\t\t// msg.sender is a contributor: no need to check\n\t\t\t// require(winnerCounter > 0);\n\t\t\ttask.status         = IexecODBLibCore.TaskStatusEnum.REVEALING;\n\t\t\ttask.consensusValue = _consensus;\n\t\t\ttask.revealDeadline = task.timeref.mul(REVEAL_DEADLINE_RATIO).add(now);\n\t\t\ttask.revealCounter  = 0;\n\t\t\ttask.winnerCounter  = winnerCounter;\n\n\t\t\temit TaskConsensus(_taskid, _consensus);\n\t\t}\n\t}\n\n\tfunction reveal(\n\t\tbytes32 _taskid,\n\t\tbytes32 _resultDigest)\n\texternal // worker\n\t{\n\t\tIexecODBLibCore.Task         storage task         = m_tasks[_taskid];\n\t\tIexecODBLibCore.Contribution storage contribution = m_contributions[_taskid][msg.sender];\n\t\trequire(task.status             == IexecODBLibCore.TaskStatusEnum.REVEALING                       );\n\t\trequire(task.revealDeadline     >  now                                                            );\n\t\trequire(contribution.status     == IexecODBLibCore.ContributionStatusEnum.CONTRIBUTED             );\n\t\trequire(contribution.resultHash == task.consensusValue                                            );\n\t\trequire(contribution.resultHash == keccak256(abi.encodePacked(            _taskid, _resultDigest)));\n\t\trequire(contribution.resultSeal == keccak256(abi.encodePacked(msg.sender, _taskid, _resultDigest)));\n\n\t\tcontribution.status = IexecODBLibCore.ContributionStatusEnum.PROVED;\n\t\ttask.revealCounter  = task.revealCounter.add(1);\n\t\ttask.resultDigest   = _resultDigest;\n\n\t\temit TaskReveal(_taskid, msg.sender, _resultDigest);\n\t}\n\n\tfunction reopen(\n\t\tbytes32 _taskid)\n\texternal onlyScheduler(_taskid)\n\t{\n\t\tIexecODBLibCore.Task storage task = m_tasks[_taskid];\n\t\trequire(task.status         == IexecODBLibCore.TaskStatusEnum.REVEALING);\n\t\trequire(task.finalDeadline  >  now                                     );\n\t\trequire(task.revealDeadline <= now\n\t\t     && task.revealCounter  == 0                                       );\n\n\t\tfor (uint256 i = 0; i < task.contributors.length; ++i)\n\t\t{\n\t\t\taddress worker = task.contributors[i];\n\t\t\tif (m_contributions[_taskid][worker].resultHash == task.consensusValue)\n\t\t\t{\n\t\t\t\tm_contributions[_taskid][worker].status = IexecODBLibCore.ContributionStatusEnum.REJECTED;\n\t\t\t}\n\t\t}\n\n\t\tm_totalweight[_taskid]                      = m_totalweight[_taskid].sub(m_groupweight[_taskid][task.consensusValue]);\n\t\tm_groupweight[_taskid][task.consensusValue] = 0;\n\n\t\ttask.status         = IexecODBLibCore.TaskStatusEnum.ACTIVE;\n\t\ttask.consensusValue = 0x0;\n\t\ttask.revealDeadline = 0;\n\t\ttask.winnerCounter  = 0;\n\n\t\temit TaskReopen(_taskid);\n\t}\n\n\tfunction finalize(\n\t\tbytes32          _taskid,\n\t\tbytes   calldata _results)\n\texternal onlyScheduler(_taskid)\n\t{\n\t\tIexecODBLibCore.Task storage task = m_tasks[_taskid];\n\t\trequire(task.status        == IexecODBLibCore.TaskStatusEnum.REVEALING);\n\t\trequire(task.finalDeadline >  now                                     );\n\t\trequire(task.revealCounter == task.winnerCounter\n\t\t    || (task.revealCounter >  0  && task.revealDeadline <= now)       );\n\n\t\ttask.status  = IexecODBLibCore.TaskStatusEnum.COMPLETED;\n\t\ttask.results = _results;\n\n\t\t/**\n\t\t * Stake and reward management\n\t\t */\n\t\tsuccessWork(task.dealid, _taskid);\n\t\tdistributeRewards(_taskid);\n\n\t\t/**\n\t\t * Event\n\t\t */\n\t\temit TaskFinalize(_taskid, _results);\n\n\t\t/**\n\t\t * Callback for smartcontracts using EIP1154\n\t\t */\n\t\taddress callbackTarget = m_deals[task.dealid].callback;\n\t\tif (callbackTarget != address(0))\n\t\t{\n\t\t\t/**\n\t\t\t * Call does not revert if the target smart contract is incompatible or reverts\n\t\t\t *\n\t\t\t * ATTENTION!\n\t\t\t * This call is dangerous and target smart contract can charge the stack.\n\t\t\t * Assume invalid state after the call.\n\t\t\t * See: https://solidity.readthedocs.io/en/develop/types.html#members-of-addresses\n\t\t\t *\n\t\t\t * TODO: gas provided?\n\t\t\t */\n\t\t\trequire(gasleft() > 100000);\n\t\t\tbool success;\n\t\t\t(success,) = callbackTarget.call.gas(100000)(abi.encodeWithSignature(\n\t\t\t\t\"receiveResult(bytes32,bytes)\",\n\t\t\t\t_taskid,\n\t\t\t\t_results\n\t\t\t));\n\t\t}\n\t}\n\n\tfunction distributeRewards(bytes32 _taskid)\n\tinternal\n\t{\n\t\tIexecODBLibCore.Task storage task = m_tasks[_taskid];\n\t\tIexecODBLibCore.Deal memory  deal = m_deals[task.dealid];\n\n\t\tuint256 i;\n\t\taddress worker;\n\n\t\tuint256 totalLogWeight = 0;\n\t\tuint256 totalReward = deal.workerpool.price;\n\n\t\tfor (i = 0; i < task.contributors.length; ++i)\n\t\t{\n\t\t\tworker = task.contributors[i];\n\t\t\tif (m_contributions[_taskid][worker].status == IexecODBLibCore.ContributionStatusEnum.PROVED)\n\t\t\t{\n\t\t\t\ttotalLogWeight = totalLogWeight.add(m_logweight[_taskid][worker]);\n\t\t\t}\n\t\t\telse // ContributionStatusEnum.REJECT or ContributionStatusEnum.CONTRIBUTED (not revealed)\n\t\t\t{\n\t\t\t\ttotalReward = totalReward.add(deal.workerStake);\n\t\t\t}\n\t\t}\n\t\trequire(totalLogWeight > 0);\n\n\t\t// compute how much is going to the workers\n\t\tuint256 workersReward = totalReward.percentage(uint256(100).sub(deal.schedulerRewardRatio));\n\n\t\tfor (i = 0; i < task.contributors.length; ++i)\n\t\t{\n\t\t\tworker = task.contributors[i];\n\t\t\tif (m_contributions[_taskid][worker].status == IexecODBLibCore.ContributionStatusEnum.PROVED)\n\t\t\t{\n\t\t\t\tuint256 workerReward = workersReward.mulByFraction(m_logweight[_taskid][worker], totalLogWeight);\n\t\t\t\ttotalReward          = totalReward.sub(workerReward);\n\n\t\t\t\tunlockAndRewardForContribution(task.dealid, worker, workerReward, _taskid);\n\n\t\t\t\t// Only reward if replication happened\n\t\t\t\tif (task.contributors.length > 1)\n\t\t\t\t{\n\t\t\t\t\t/*******************************************************************\n\t\t\t\t\t *                        SCORE POLICY 2/3                         *\n\t\t\t\t\t *                                                                 *\n\t\t\t\t\t *                       see documentation!                        *\n\t\t\t\t\t *******************************************************************/\n\t\t\t\t\tm_workerScores[worker] = m_workerScores[worker].add(1);\n\t\t\t\t\temit AccurateContribution(worker, _taskid);\n\t\t\t\t}\n\t\t\t}\n\t\t\telse // WorkStatusEnum.POCO_REJECT or ContributionStatusEnum.CONTRIBUTED (not revealed)\n\t\t\t{\n\t\t\t\t// No Reward\n\t\t\t\tseizeContribution(task.dealid, worker, _taskid);\n\n\t\t\t\t// Always punish bad contributors\n\t\t\t\t{\n\t\t\t\t\t/*******************************************************************\n\t\t\t\t\t *                        SCORE POLICY 3/3                         *\n\t\t\t\t\t *                                                                 *\n\t\t\t\t\t *                       see documentation!                        *\n\t\t\t\t\t *******************************************************************/\n\t\t\t\t\t// k = 3\n\t\t\t\t\tm_workerScores[worker] = m_workerScores[worker].mulByFraction(2,3);\n\t\t\t\t\temit FaultyContribution(worker, _taskid);\n\t\t\t\t}\n\t\t\t}\n\t\t}\n\t\t// totalReward now contains the scheduler share\n\t\trewardForScheduling(task.dealid, totalReward, _taskid);\n\t}\n\n\tfunction claim(\n\t\tbytes32 _taskid)\n\tpublic\n\t{\n\t\tIexecODBLibCore.Task storage task = m_tasks[_taskid];\n\t\trequire(task.status == IexecODBLibCore.TaskStatusEnum.ACTIVE\n\t\t     || task.status == IexecODBLibCore.TaskStatusEnum.REVEALING);\n\t\trequire(task.finalDeadline <= now);\n\n\t\ttask.status = IexecODBLibCore.TaskStatusEnum.FAILLED;\n\n\t\t/**\n\t\t * Stake management\n\t\t */\n\t\tfailedWork(task.dealid, _taskid);\n\t\tfor (uint256 i = 0; i < task.contributors.length; ++i)\n\t\t{\n\t\t\taddress worker = task.contributors[i];\n\t\t\tunlockContribution(task.dealid, worker);\n\t\t}\n\n\t\temit TaskClaimed(_taskid);\n\t}\n\n\t/***************************************************************************\n\t *                            Array operations                             *\n\t ***************************************************************************/\n\tfunction initializeArray(\n\t\tbytes32[] calldata _dealid,\n\t\tuint256[] calldata _idx)\n\texternal returns (bool)\n\t{\n\t\trequire(_dealid.length == _idx.length);\n\t\tfor (uint i = 0; i < _dealid.length; ++i)\n\t\t{\n\t\t\tinitialize(_dealid[i], _idx[i]);\n\t\t}\n\t\treturn true;\n\t}\n\n\tfunction claimArray(\n\t\tbytes32[] calldata _taskid)\n\texternal returns (bool)\n\t{\n\t\tfor (uint i = 0; i < _taskid.length; ++i)\n\t\t{\n\t\t\tclaim(_taskid[i]);\n\t\t}\n\t\treturn true;\n\t}\n\n\tfunction initializeAndClaimArray(\n\t\tbytes32[] calldata _dealid,\n\t\tuint256[] calldata _idx)\n\texternal returns (bool)\n\t{\n\t\trequire(_dealid.length == _idx.length);\n\t\tfor (uint i = 0; i < _dealid.length; ++i)\n\t\t{\n\t\t\tclaim(initialize(_dealid[i], _idx[i]));\n\t\t}\n\t\treturn true;\n\t}\n}\n",
  "sourcePath": "/home/amxx/Work/iExec/code/PoCo-dev/contracts/delegates/IexecPoco.sol",
  "compiler": {
    "name": "solc",
    "version": "0.5.10+commit.5a6ea5b1.Emscripten.clang"
  },
  "schemaVersion": "3.0.11",
  "updatedAt": "2019-06-27T10:05:58.588Z",
  "devdoc": {
    "methods": {
      "isOwner()": {
        "details": "Returns true if the caller is the current owner."
      },
      "owner()": {
        "details": "Returns the address of the current owner."
      },
      "renounceOwnership()": {
        "details": "Leaves the contract without owner. It will not be possible to call `onlyOwner` functions anymore. Can only be called by the current owner.     * > Note: Renouncing ownership will leave the contract without an owner, thereby removing any functionality that is only available to the owner."
      },
      "transferOwnership(address)": {
        "details": "Transfers ownership of the contract to a new account (`newOwner`). Can only be called by the current owner."
      }
    }
  },
  "userdoc": {
    "methods": {
      "initialize(bytes32,uint256)": {
        "notice": "*************************************************************************                           Consensus methods                            ***************************************************************************"
      },
      "initializeArray(bytes32[],uint256[])": {
        "notice": "*************************************************************************                           Array operations                             ***************************************************************************"
      },
      "verifySignature(address,bytes32,bytes)": {
        "notice": "*************************************************************************                          ODB order matching                            ***************************************************************************"
      }
    }
  }
}