{
  "contractName": "IexecEscrowTokenDelegate",
  "abi": [
    {
      "anonymous": false,
      "inputs": [
        {
          "indexed": true,
          "internalType": "address",
          "name": "owner",
          "type": "address"
        },
        {
          "indexed": true,
          "internalType": "address",
          "name": "spender",
          "type": "address"
        },
        {
          "indexed": false,
          "internalType": "uint256",
          "name": "value",
          "type": "uint256"
        }
      ],
      "name": "Approval",
      "type": "event"
    },
    {
      "anonymous": false,
      "inputs": [
        {
          "indexed": true,
          "internalType": "address",
          "name": "previousOwner",
          "type": "address"
        },
        {
          "indexed": true,
          "internalType": "address",
          "name": "newOwner",
          "type": "address"
        }
      ],
      "name": "OwnershipTransferred",
      "type": "event"
    },
    {
      "anonymous": false,
      "inputs": [
        {
          "indexed": true,
          "internalType": "address",
          "name": "from",
          "type": "address"
        },
        {
          "indexed": true,
          "internalType": "address",
          "name": "to",
          "type": "address"
        },
        {
          "indexed": false,
          "internalType": "uint256",
          "name": "value",
          "type": "uint256"
        }
      ],
      "name": "Transfer",
      "type": "event"
    },
    {
      "stateMutability": "payable",
      "type": "fallback"
    },
    {
      "inputs": [],
      "name": "owner",
      "outputs": [
        {
          "internalType": "address",
          "name": "",
          "type": "address"
        }
      ],
      "stateMutability": "view",
      "type": "function"
    },
    {
      "inputs": [],
      "name": "renounceOwnership",
      "outputs": [],
      "stateMutability": "nonpayable",
      "type": "function"
    },
    {
      "inputs": [
        {
          "internalType": "address",
          "name": "newOwner",
          "type": "address"
        }
      ],
      "name": "transferOwnership",
      "outputs": [],
      "stateMutability": "nonpayable",
      "type": "function"
    },
    {
      "stateMutability": "payable",
      "type": "receive"
    },
    {
      "inputs": [
        {
          "internalType": "uint256",
          "name": "amount",
          "type": "uint256"
        }
      ],
      "name": "deposit",
      "outputs": [
        {
          "internalType": "bool",
          "name": "",
          "type": "bool"
        }
      ],
      "stateMutability": "nonpayable",
      "type": "function"
    },
    {
      "inputs": [
        {
          "internalType": "uint256",
          "name": "amount",
          "type": "uint256"
        },
        {
          "internalType": "address",
          "name": "target",
          "type": "address"
        }
      ],
      "name": "depositFor",
      "outputs": [
        {
          "internalType": "bool",
          "name": "",
          "type": "bool"
        }
      ],
      "stateMutability": "nonpayable",
      "type": "function"
    },
    {
      "inputs": [
        {
          "internalType": "uint256[]",
          "name": "amounts",
          "type": "uint256[]"
        },
        {
          "internalType": "address[]",
          "name": "targets",
          "type": "address[]"
        }
      ],
      "name": "depositForArray",
      "outputs": [
        {
          "internalType": "bool",
          "name": "",
          "type": "bool"
        }
      ],
      "stateMutability": "nonpayable",
      "type": "function"
    },
    {
      "inputs": [
        {
          "internalType": "uint256",
          "name": "amount",
          "type": "uint256"
        }
      ],
      "name": "withdraw",
      "outputs": [
        {
          "internalType": "bool",
          "name": "",
          "type": "bool"
        }
      ],
      "stateMutability": "nonpayable",
      "type": "function"
    },
    {
      "inputs": [],
      "name": "recover",
      "outputs": [
        {
          "internalType": "uint256",
          "name": "",
          "type": "uint256"
        }
      ],
      "stateMutability": "nonpayable",
      "type": "function"
    },
    {
      "inputs": [
        {
          "internalType": "address",
          "name": "sender",
          "type": "address"
        },
        {
          "internalType": "uint256",
          "name": "amount",
          "type": "uint256"
        },
        {
          "internalType": "address",
          "name": "token",
          "type": "address"
        },
        {
          "internalType": "bytes",
          "name": "",
          "type": "bytes"
        }
      ],
      "name": "receiveApproval",
      "outputs": [
        {
          "internalType": "bool",
          "name": "",
          "type": "bool"
        }
      ],
      "stateMutability": "nonpayable",
      "type": "function"
    }
  ],
  "bytecode": "0x608060405234801561001057600080fd5b5060006100246001600160e01b0361007216565b600080546001600160a01b0319166001600160a01b038316908117825560405192935091600080516020610dd8833981519152908290a35061006d6001600160e01b0361007616565b61012a565b3390565b6100876001600160e01b0361007216565b6000546001600160a01b039081169116146100bd5760405162461bcd60e51b81526004016100b4906100f5565b60405180910390fd5b600080546040516001600160a01b0390911690600080516020610dd8833981519152908390a3600080546001600160a01b0319169055565b6020808252818101527f4f776e61626c653a2063616c6c6572206973206e6f7420746865206f776e6572604082015260600190565b610c9f806101396000396000f3fe60806040526004361061008a5760003560e01c80638da5cb5b116100595780638da5cb5b146101555780638f4ffcb114610177578063b6b55f2514610197578063ce746024146101b7578063f2fde38b146101d9576100b0565b80632e1a7d4d146100c85780633354f8a5146100fe57806336efd16f1461011e578063715018a61461013e576100b0565b366100b05760405162461bcd60e51b81526004016100a790610b80565b60405180910390fd5b60405162461bcd60e51b81526004016100a790610b80565b3480156100d457600080fd5b506100e86100e33660046109f1565b6101f9565b6040516100f59190610a9e565b60405180910390f35b34801561010a57600080fd5b506100e8610119366004610968565b610225565b34801561012a57600080fd5b506100e8610139366004610a21565b6102c4565b34801561014a57600080fd5b506101536102eb565b005b34801561016157600080fd5b5061016a61036a565b6040516100f59190610a4d565b34801561018357600080fd5b506100e86101923660046108cb565b610379565b3480156101a357600080fd5b506100e86101b23660046109f1565b6103bd565b3480156101c357600080fd5b506101cc6103e1565b6040516100f59190610c48565b3480156101e557600080fd5b506101536101f43660046108b0565b6104c8565b600061020c61020661057e565b83610582565b61021d61021761057e565b8361063f565b506001919050565b60008382146102465760405162461bcd60e51b81526004016100a790610b1d565b60005b848110156102b85761027461025c61057e565b87878481811061026857fe5b905060200201356106c8565b6102b084848381811061028357fe5b905060200201602081019061029891906108b0565b8787848181106102a457fe5b9050602002013561076e565b600101610249565b50600195945050505050565b60006102d76102d161057e565b846106c8565b6102e1828461076e565b5060015b92915050565b6102f361057e565b6000546001600160a01b039081169116146103205760405162461bcd60e51b81526004016100a790610b4b565b600080546040516001600160a01b03909116907f8be0079c531659141344cd1fd0a4f28419497f9722a3daafe3b4186f6b6457e0908390a3600080546001600160a01b0319169055565b6000546001600160a01b031690565b6008546000906001600160a01b038581169116146103a95760405162461bcd60e51b81526004016100a790610bec565b6103b386866106c8565b6102b8868661076e565b60006103d06103ca61057e565b836106c8565b61021d6103db61057e565b8361076e565b60006103eb61057e565b6000546001600160a01b039081169116146104185760405162461bcd60e51b81526004016100a790610b4b565b600c546008546040516370a0823160e01b81526000926104b09290916001600160a01b03909116906370a0823190610454903090600401610a4d565b60206040518083038186803b15801561046c57600080fd5b505afa158015610480573d6000803e3d6000fd5b505050506040513d601f19601f820116820180604052508101906104a49190610a09565b9063ffffffff61082216565b90506104c36104bd61036a565b8261076e565b905090565b6104d061057e565b6000546001600160a01b039081169116146104fd5760405162461bcd60e51b81526004016100a790610b4b565b6001600160a01b0381166105235760405162461bcd60e51b81526004016100a790610aa9565b600080546040516001600160a01b03808516939216917f8be0079c531659141344cd1fd0a4f28419497f9722a3daafe3b4186f6b6457e091a3600080546001600160a01b0319166001600160a01b0392909216919091179055565b3390565b6001600160a01b0382166105a85760405162461bcd60e51b81526004016100a790610bab565b600c546105bb908263ffffffff61082216565b600c556001600160a01b0382166000908152600d60205260409020546105e7908263ffffffff61082216565b6001600160a01b0383166000818152600d60205260408082209390935591517fddf252ad1be2c89b69c2b068fc378daa952ba7f163c4a11628f55a4df523b3ef90610633908590610c48565b60405180910390a35050565b60085460405163a9059cbb60e01b81526001600160a01b039091169063a9059cbb906106719085908590600401610a85565b602060405180830381600087803b15801561068b57600080fd5b505af115801561069f573d6000803e3d6000fd5b505050506040513d601f19601f820116820180604052508101906106c391906109d1565b505050565b6008546040516323b872dd60e01b81526001600160a01b03909116906323b872dd906106fc90859030908690600401610a61565b602060405180830381600087803b15801561071657600080fd5b505af115801561072a573d6000803e3d6000fd5b505050506040513d601f19601f8201168201806040525081019061074e91906109d1565b61076a5760405162461bcd60e51b81526004016100a790610aef565b5050565b6001600160a01b0382166107945760405162461bcd60e51b81526004016100a790610c11565b600c546107a7908263ffffffff61083716565b600c556001600160a01b0382166000908152600d60205260409020546107d3908263ffffffff61083716565b6001600160a01b0383166000818152600d60205260408082209390935591519091907fddf252ad1be2c89b69c2b068fc378daa952ba7f163c4a11628f55a4df523b3ef90610633908590610c48565b60008282111561083157600080fd5b50900390565b60008282018381101561084957600080fd5b9392505050565b80356001600160a01b03811681146102e557600080fd5b60008083601f840112610878578182fd5b50813567ffffffffffffffff81111561088f578182fd5b60208301915083602080830285010111156108a957600080fd5b9250929050565b6000602082840312156108c1578081fd5b6108498383610850565b6000806000806000608086880312156108e2578081fd5b85356108ed81610c51565b945060208601359350604086013561090481610c51565b9250606086013567ffffffffffffffff80821115610920578283fd5b81880189601f820112610931578384fd5b8035925081831115610941578384fd5b896020848301011115610952578384fd5b6020810194505050809150509295509295909350565b6000806000806040858703121561097d578384fd5b843567ffffffffffffffff80821115610994578586fd5b6109a088838901610867565b909650945060208701359150808211156109b8578384fd5b506109c587828801610867565b95989497509550505050565b6000602082840312156109e2578081fd5b81518015158114610849578182fd5b600060208284031215610a02578081fd5b5035919050565b600060208284031215610a1a578081fd5b5051919050565b60008060408385031215610a33578182fd5b82359150610a448460208501610850565b90509250929050565b6001600160a01b0391909116815260200190565b6001600160a01b039384168152919092166020820152604081019190915260600190565b6001600160a01b03929092168252602082015260400190565b901515815260200190565b60208082526026908201527f4f776e61626c653a206e6577206f776e657220697320746865207a65726f206160408201526564647265737360d01b606082015260800190565b6020808252601490820152736661696c6c65642d7472616e7366657246726f6d60601b604082015260600190565b6020808252601490820152730d2dcecc2d8d2c85ac2e4e4c2f25ad8cadccee8d60631b604082015260600190565b6020808252818101527f4f776e61626c653a2063616c6c6572206973206e6f7420746865206f776e6572604082015260600190565b60208082526011908201527019985b1b189858dacb591a5cd8589b1959607a1b604082015260600190565b60208082526021908201527f45524332303a206275726e2066726f6d20746865207a65726f206164647265736040820152607360f81b606082015260800190565b6020808252600b908201526a3bb937b73396ba37b5b2b760a91b604082015260600190565b6020808252601f908201527f45524332303a206d696e7420746f20746865207a65726f206164647265737300604082015260600190565b90815260200190565b6001600160a01b0381168114610c6657600080fd5b5056fea264697066735822122018116c78a2f8e77dad36b6b38765b548758922488944a002984f291280b6ce6664736f6c634300060a00338be0079c531659141344cd1fd0a4f28419497f9722a3daafe3b4186f6b6457e0",
  "immutableReferences": {},
  "source": "pragma solidity ^0.6.0;\npragma experimental ABIEncoderV2;\n\nimport \"./IexecERC20Common.sol\";\nimport \"../DelegateBase.sol\";\nimport \"../interfaces/IexecEscrowToken.sol\";\nimport \"../interfaces/IexecTokenSpender.sol\";\n\n\ncontract IexecEscrowTokenDelegate is IexecEscrowToken, IexecTokenSpender, DelegateBase, IexecERC20Common\n{\n\tusing SafeMathExtended for uint256;\n\n\t/***************************************************************************\n\t *                         Escrow methods: public                          *\n\t ***************************************************************************/\n\treceive()\n\texternal override payable\n\t{\n\t\trevert('fallback-disabled');\n\t}\n\n\tfallback()\n\texternal override payable\n\t{\n\t\trevert('fallback-disabled');\n\t}\n\t\n\tfunction deposit(uint256 amount)\n\texternal override returns (bool)\n\t{\n\t\t_deposit(_msgSender(), amount);\n\t\t_mint(_msgSender(), amount);\n\t\treturn true;\n\t}\n\n\tfunction depositFor(uint256 amount, address target)\n\texternal override returns (bool)\n\t{\n\t\t_deposit(_msgSender(), amount);\n\t\t_mint(target, amount);\n\t\treturn true;\n\t}\n\n\tfunction depositForArray(uint256[] calldata amounts, address[] calldata targets)\n\texternal override returns (bool)\n\t{\n\t\trequire(amounts.length == targets.length, 'invalid-array-length');\n\t\tfor (uint i = 0; i < amounts.length; ++i)\n\t\t{\n\t\t\t_deposit(_msgSender(), amounts[i]);\n\t\t\t_mint(targets[i], amounts[i]);\n\t\t}\n\t\treturn true;\n\t}\n\n\tfunction withdraw(uint256 amount)\n\texternal override returns (bool)\n\t{\n\t\t_burn(_msgSender(), amount);\n\t\t_withdraw(_msgSender(), amount);\n\t\treturn true;\n\t}\n\n\tfunction recover()\n\texternal override onlyOwner returns (uint256)\n\t{\n\t\tuint256 delta = m_baseToken.balanceOf(address(this)).sub(m_totalSupply);\n\t\t_mint(owner(), delta);\n\t\treturn delta;\n\t}\n\n\t// Token Spender (endpoint for approveAndCallback calls to the proxy)\n\tfunction receiveApproval(address sender, uint256 amount, address token, bytes calldata)\n\texternal override returns (bool)\n\t{\n\t\trequire(token == address(m_baseToken), 'wrong-token');\n\t\t_deposit(sender, amount);\n\t\t_mint(sender, amount);\n\t\treturn true;\n\t}\n\n\tfunction _deposit(address from, uint256 amount)\n\tinternal\n\t{\n\t\trequire(m_baseToken.transferFrom(from, address(this), amount), 'failled-transferFrom');\n\t}\n\n\tfunction _withdraw(address to, uint256 amount)\n\tinternal\n\t{\n\t\tm_baseToken.transfer(to, amount);\n\t}\n}\n",
  "sourcePath": "/home/amxx/Work/iExec/code/PoCo-dev/contracts/modules/delegates/IexecEscrowTokenDelegate.sol",
  "compiler": {
    "name": "solc",
    "version": "0.6.10+commit.00c0fcaf.Emscripten.clang"
  },
  "schemaVersion": "3.2.0",
  "updatedAt": "2020-06-24T14:01:23.976Z",
  "devdoc": {
    "methods": {
      "owner()": {
        "details": "Returns the address of the current owner."
      },
      "renounceOwnership()": {
        "details": "Leaves the contract without owner. It will not be possible to call `onlyOwner` functions anymore. Can only be called by the current owner. NOTE: Renouncing ownership will leave the contract without an owner, thereby removing any functionality that is only available to the owner."
      },
      "transferOwnership(address)": {
        "details": "Transfers ownership of the contract to a new account (`newOwner`). Can only be called by the current owner."
      }
    }
  },
  "userdoc": {
    "methods": {}
  }
}