{
  "contractName": "IexecCategoryManagerDelegate",
  "abi": [
    {
      "anonymous": false,
      "inputs": [
        {
          "indexed": false,
          "internalType": "uint256",
          "name": "catid",
          "type": "uint256"
        },
        {
          "indexed": false,
          "internalType": "string",
          "name": "name",
          "type": "string"
        },
        {
          "indexed": false,
          "internalType": "string",
          "name": "description",
          "type": "string"
        },
        {
          "indexed": false,
          "internalType": "uint256",
          "name": "workClockTimeRef",
          "type": "uint256"
        }
      ],
      "name": "CreateCategory",
      "type": "event"
    },
    {
      "anonymous": false,
      "inputs": [
        {
          "indexed": true,
          "internalType": "address",
          "name": "previousOwner",
          "type": "address"
        },
        {
          "indexed": true,
          "internalType": "address",
          "name": "newOwner",
          "type": "address"
        }
      ],
      "name": "OwnershipTransferred",
      "type": "event"
    },
    {
      "inputs": [],
      "name": "owner",
      "outputs": [
        {
          "internalType": "address",
          "name": "",
          "type": "address"
        }
      ],
      "stateMutability": "view",
      "type": "function",
      "constant": true
    },
    {
      "inputs": [],
      "name": "renounceOwnership",
      "outputs": [],
      "stateMutability": "nonpayable",
      "type": "function"
    },
    {
      "inputs": [
        {
          "internalType": "address",
          "name": "newOwner",
          "type": "address"
        }
      ],
      "name": "transferOwnership",
      "outputs": [],
      "stateMutability": "nonpayable",
      "type": "function"
    },
    {
      "inputs": [
        {
          "internalType": "string",
          "name": "name",
          "type": "string"
        },
        {
          "internalType": "string",
          "name": "description",
          "type": "string"
        },
        {
          "internalType": "uint256",
          "name": "workClockTimeRef",
          "type": "uint256"
        }
      ],
      "name": "createCategory",
      "outputs": [
        {
          "internalType": "uint256",
          "name": "",
          "type": "uint256"
        }
      ],
      "stateMutability": "nonpayable",
      "type": "function"
    }
  ],
  "bytecode": "0x608060405260006100176001600160e01b0361006516565b600080546001600160a01b0319166001600160a01b03831690811782556040519293509160008051602061073e833981519152908290a3506100606001600160e01b0361006916565b61011d565b3390565b61007a6001600160e01b0361006516565b6000546001600160a01b039081169116146100b05760405162461bcd60e51b81526004016100a7906100e8565b60405180910390fd5b600080546040516001600160a01b039091169060008051602061073e833981519152908390a3600080546001600160a01b0319169055565b6020808252818101527f4f776e61626c653a2063616c6c6572206973206e6f7420746865206f776e6572604082015260600190565b6106128061012c6000396000f3fe608060405234801561001057600080fd5b506004361061004c5760003560e01c8063298503d914610051578063715018a61461007a5780638da5cb5b14610084578063f2fde38b14610099575b600080fd5b61006461005f366004610468565b6100ac565b6040516100719190610592565b60405180910390f35b610082610212565b005b61008c610291565b6040516100719190610503565b6100826100a736600461043a565b6102a1565b60006100b6610357565b6000546001600160a01b039081169116146100ec5760405162461bcd60e51b81526004016100e39061055d565b60405180910390fd5b6040805160806020601f8901819004028201810190925260608101878152601a928291908a908a9081908501838280828437600092019190915250505090825250604080516020601f89018190048102820181019092528781529181019190889088908190840183828082843760009201829052509385525050506020918201869052835460018101855593815281902082518051939460030290910192610197928492019061035b565b5060208281015180516101b0926001850192019061035b565b50604091820151600290910155601a549051600019909101907f62bf08360c9d561749c54eaf4f8bf8cb6c8b6f4f40607bcec39a8172e714d25c906102009083908a908a908a908a908a9061059b565b60405180910390a19695505050505050565b61021a610357565b6000546001600160a01b039081169116146102475760405162461bcd60e51b81526004016100e39061055d565b600080546040516001600160a01b03909116907f8be0079c531659141344cd1fd0a4f28419497f9722a3daafe3b4186f6b6457e0908390a3600080546001600160a01b0319169055565b6000546001600160a01b03165b90565b6102a9610357565b6000546001600160a01b039081169116146102d65760405162461bcd60e51b81526004016100e39061055d565b6001600160a01b0381166102fc5760405162461bcd60e51b81526004016100e390610517565b600080546040516001600160a01b03808516939216917f8be0079c531659141344cd1fd0a4f28419497f9722a3daafe3b4186f6b6457e091a3600080546001600160a01b0319166001600160a01b0392909216919091179055565b3390565b828054600181600116156101000203166002900490600052602060002090601f016020900481019282601f1061039c57805160ff19168380011785556103c9565b828001600101855582156103c9579182015b828111156103c95782518255916020019190600101906103ae565b506103d59291506103d9565b5090565b61029e91905b808211156103d557600081556001016103df565b60008083601f840112610404578182fd5b50813567ffffffffffffffff81111561041b578182fd5b60208301915083602082850101111561043357600080fd5b9250929050565b60006020828403121561044b578081fd5b81356001600160a01b0381168114610461578182fd5b9392505050565b60008060008060006060868803121561047f578081fd5b853567ffffffffffffffff80821115610496578283fd5b6104a289838a016103f3565b909750955060208801359150808211156104ba578283fd5b506104c7888289016103f3565b96999598509660400135949350505050565b60008284528282602086013780602084860101526020601f19601f85011685010190509392505050565b6001600160a01b0391909116815260200190565b60208082526026908201527f4f776e61626c653a206e6577206f776e657220697320746865207a65726f206160408201526564647265737360d01b606082015260800190565b6020808252818101527f4f776e61626c653a2063616c6c6572206973206e6f7420746865206f776e6572604082015260600190565b90815260200190565b6000878252608060208301526105b56080830187896104d9565b82810360408401526105c88186886104d9565b91505082606083015297965050505050505056fea2646970667358221220cd3d8f02cd4dcc96b9e5d4a5854aa8954f7bd86d909ffb859d93a2438528f58064736f6c634300060600338be0079c531659141344cd1fd0a4f28419497f9722a3daafe3b4186f6b6457e0",
  "immutableReferences": {},
  "source": "pragma solidity ^0.6.0;\npragma experimental ABIEncoderV2;\n\nimport \"../DelegateBase.sol\";\nimport \"../interfaces/IexecCategoryManager.sol\";\n\n\ncontract IexecCategoryManagerDelegate is IexecCategoryManager, DelegateBase\n{\n\t/**\n\t * Methods\n\t */\n\tfunction createCategory(\n\t\tstring  calldata name,\n\t\tstring  calldata description,\n\t\tuint256          workClockTimeRef)\n\texternal override onlyOwner returns (uint256)\n\t{\n\t\tm_categories.push(IexecLibCore_v5.Category(\n\t\t\tname,\n\t\t\tdescription,\n\t\t\tworkClockTimeRef\n\t\t));\n\n\t\tuint256 catid = m_categories.length - 1;\n\n\t\temit CreateCategory(\n\t\t\tcatid,\n\t\t\tname,\n\t\t\tdescription,\n\t\t\tworkClockTimeRef\n\t\t);\n\t\treturn catid;\n\t}\n}\n",
  "sourcePath": "/home/amxx/Work/iExec/code/PoCo-dev/contracts/modules/delegates/IexecCategoryManagerDelegate.sol",
  "compiler": {
    "name": "solc",
    "version": "0.6.6+commit.6c089d02.Emscripten.clang"
  },
  "schemaVersion": "3.1.0",
  "updatedAt": "2020-04-21T18:57:17.758Z",
  "networkType": "ethereum",
  "devdoc": {
    "methods": {
      "owner()": {
        "details": "Returns the address of the current owner."
      },
      "renounceOwnership()": {
        "details": "Leaves the contract without owner. It will not be possible to call `onlyOwner` functions anymore. Can only be called by the current owner.     * NOTE: Renouncing ownership will leave the contract without an owner, thereby removing any functionality that is only available to the owner."
      },
      "transferOwnership(address)": {
        "details": "Transfers ownership of the contract to a new account (`newOwner`). Can only be called by the current owner."
      }
    }
  },
  "userdoc": {
    "methods": {
      "createCategory(string,string,uint256)": {
        "notice": "Methods"
      }
    }
  }
}