{
  "contractName": "IexecEscrowTokenDelegate",
  "abi": [
    {
      "anonymous": false,
      "inputs": [
        {
          "indexed": true,
          "internalType": "address",
          "name": "owner",
          "type": "address"
        },
        {
          "indexed": true,
          "internalType": "address",
          "name": "spender",
          "type": "address"
        },
        {
          "indexed": false,
          "internalType": "uint256",
          "name": "value",
          "type": "uint256"
        }
      ],
      "name": "Approval",
      "type": "event"
    },
    {
      "anonymous": false,
      "inputs": [
        {
          "indexed": false,
          "internalType": "address",
          "name": "owner",
          "type": "address"
        },
        {
          "indexed": false,
          "internalType": "uint256",
          "name": "amount",
          "type": "uint256"
        }
      ],
      "name": "Lock",
      "type": "event"
    },
    {
      "anonymous": false,
      "inputs": [
        {
          "indexed": true,
          "internalType": "address",
          "name": "previousOwner",
          "type": "address"
        },
        {
          "indexed": true,
          "internalType": "address",
          "name": "newOwner",
          "type": "address"
        }
      ],
      "name": "OwnershipTransferred",
      "type": "event"
    },
    {
      "anonymous": false,
      "inputs": [
        {
          "indexed": false,
          "internalType": "address",
          "name": "owner",
          "type": "address"
        },
        {
          "indexed": false,
          "internalType": "uint256",
          "name": "amount",
          "type": "uint256"
        },
        {
          "indexed": false,
          "internalType": "bytes32",
          "name": "ref",
          "type": "bytes32"
        }
      ],
      "name": "Reward",
      "type": "event"
    },
    {
      "anonymous": false,
      "inputs": [
        {
          "indexed": false,
          "internalType": "address",
          "name": "owner",
          "type": "address"
        },
        {
          "indexed": false,
          "internalType": "uint256",
          "name": "amount",
          "type": "uint256"
        },
        {
          "indexed": false,
          "internalType": "bytes32",
          "name": "ref",
          "type": "bytes32"
        }
      ],
      "name": "Seize",
      "type": "event"
    },
    {
      "anonymous": false,
      "inputs": [
        {
          "indexed": true,
          "internalType": "address",
          "name": "from",
          "type": "address"
        },
        {
          "indexed": true,
          "internalType": "address",
          "name": "to",
          "type": "address"
        },
        {
          "indexed": false,
          "internalType": "uint256",
          "name": "value",
          "type": "uint256"
        }
      ],
      "name": "Transfer",
      "type": "event"
    },
    {
      "anonymous": false,
      "inputs": [
        {
          "indexed": false,
          "internalType": "address",
          "name": "owner",
          "type": "address"
        },
        {
          "indexed": false,
          "internalType": "uint256",
          "name": "amount",
          "type": "uint256"
        }
      ],
      "name": "Unlock",
      "type": "event"
    },
    {
      "stateMutability": "payable",
      "type": "fallback"
    },
    {
      "inputs": [],
      "name": "owner",
      "outputs": [
        {
          "internalType": "address",
          "name": "",
          "type": "address"
        }
      ],
      "stateMutability": "view",
      "type": "function"
    },
    {
      "inputs": [],
      "name": "renounceOwnership",
      "outputs": [],
      "stateMutability": "nonpayable",
      "type": "function"
    },
    {
      "inputs": [
        {
          "internalType": "address",
          "name": "newOwner",
          "type": "address"
        }
      ],
      "name": "transferOwnership",
      "outputs": [],
      "stateMutability": "nonpayable",
      "type": "function"
    },
    {
      "stateMutability": "payable",
      "type": "receive"
    },
    {
      "inputs": [
        {
          "internalType": "uint256",
          "name": "amount",
          "type": "uint256"
        }
      ],
      "name": "deposit",
      "outputs": [
        {
          "internalType": "bool",
          "name": "",
          "type": "bool"
        }
      ],
      "stateMutability": "nonpayable",
      "type": "function"
    },
    {
      "inputs": [
        {
          "internalType": "uint256",
          "name": "amount",
          "type": "uint256"
        },
        {
          "internalType": "address",
          "name": "target",
          "type": "address"
        }
      ],
      "name": "depositFor",
      "outputs": [
        {
          "internalType": "bool",
          "name": "",
          "type": "bool"
        }
      ],
      "stateMutability": "nonpayable",
      "type": "function"
    },
    {
      "inputs": [
        {
          "internalType": "uint256[]",
          "name": "amounts",
          "type": "uint256[]"
        },
        {
          "internalType": "address[]",
          "name": "targets",
          "type": "address[]"
        }
      ],
      "name": "depositForArray",
      "outputs": [
        {
          "internalType": "bool",
          "name": "",
          "type": "bool"
        }
      ],
      "stateMutability": "nonpayable",
      "type": "function"
    },
    {
      "inputs": [
        {
          "internalType": "uint256",
          "name": "amount",
          "type": "uint256"
        }
      ],
      "name": "withdraw",
      "outputs": [
        {
          "internalType": "bool",
          "name": "",
          "type": "bool"
        }
      ],
      "stateMutability": "nonpayable",
      "type": "function"
    },
    {
      "inputs": [
        {
          "internalType": "uint256",
          "name": "amount",
          "type": "uint256"
        },
        {
          "internalType": "address",
          "name": "target",
          "type": "address"
        }
      ],
      "name": "withdrawTo",
      "outputs": [
        {
          "internalType": "bool",
          "name": "",
          "type": "bool"
        }
      ],
      "stateMutability": "nonpayable",
      "type": "function"
    },
    {
      "inputs": [],
      "name": "recover",
      "outputs": [
        {
          "internalType": "uint256",
          "name": "",
          "type": "uint256"
        }
      ],
      "stateMutability": "nonpayable",
      "type": "function"
    },
    {
      "inputs": [
        {
          "internalType": "address",
          "name": "sender",
          "type": "address"
        },
        {
          "internalType": "uint256",
          "name": "amount",
          "type": "uint256"
        },
        {
          "internalType": "address",
          "name": "token",
          "type": "address"
        },
        {
          "internalType": "bytes",
          "name": "",
          "type": "bytes"
        }
      ],
      "name": "receiveApproval",
      "outputs": [
        {
          "internalType": "bool",
          "name": "",
          "type": "bool"
        }
      ],
      "stateMutability": "nonpayable",
      "type": "function"
    }
  ],
  "bytecode": "0x608060405234801561001057600080fd5b50600061001b610060565b600080546001600160a01b0319166001600160a01b038316908117825560405192935091600080516020611058833981519152908290a35061005b610064565b61010f565b3390565b61006c610060565b6000546001600160a01b039081169116146100a25760405162461bcd60e51b8152600401610099906100da565b60405180910390fd5b600080546040516001600160a01b0390911690600080516020611058833981519152908390a3600080546001600160a01b0319169055565b6020808252818101527f4f776e61626c653a2063616c6c6572206973206e6f7420746865206f776e6572604082015260600190565b610f3a8061011e6000396000f3fe6080604052600436106100955760003560e01c80638f4ffcb1116100595780638f4ffcb114610182578063b6b55f25146101a2578063c86283c8146101c2578063ce746024146101e2578063f2fde38b14610204576100bb565b80632e1a7d4d146100d35780633354f8a51461010957806336efd16f14610129578063715018a6146101495780638da5cb5b14610160576100bb565b366100bb5760405162461bcd60e51b81526004016100b290610de1565b60405180910390fd5b60405162461bcd60e51b81526004016100b290610de1565b3480156100df57600080fd5b506100f36100ee366004610bfe565b610224565b6040516101009190610ccc565b60405180910390f35b34801561011557600080fd5b506100f3610124366004610ada565b610250565b34801561013557600080fd5b506100f3610144366004610c2e565b6102ef565b34801561015557600080fd5b5061015e610316565b005b34801561016c57600080fd5b50610175610395565b6040516101009190610c7b565b34801561018e57600080fd5b506100f361019d366004610a40565b6103a4565b3480156101ae57600080fd5b506100f36101bd366004610bfe565b6103e8565b3480156101ce57600080fd5b506100f36101dd366004610c2e565b61040c565b3480156101ee57600080fd5b506101f7610429565b6040516101009190610ea9565b34801561021057600080fd5b5061015e61021f366004610a25565b61050a565b60006102376102316105c0565b836105c4565b6102486102426105c0565b83610681565b506001919050565b60008382146102715760405162461bcd60e51b81526004016100b290610d7e565b60005b848110156102e35761029f6102876105c0565b87878481811061029357fe5b9050602002013561070a565b6102db8484838181106102ae57fe5b90506020020160208101906102c39190610a25565b8787848181106102cf57fe5b905060200201356107b0565b600101610274565b50600195945050505050565b60006103026102fc6105c0565b8461070a565b61030c82846107b0565b5060015b92915050565b61031e6105c0565b6000546001600160a01b0390811691161461034b5760405162461bcd60e51b81526004016100b290610dac565b600080546040516001600160a01b03909116907f8be0079c531659141344cd1fd0a4f28419497f9722a3daafe3b4186f6b6457e0908390a3600080546001600160a01b0319169055565b6000546001600160a01b031690565b6008546000906001600160a01b038581169116146103d45760405162461bcd60e51b81526004016100b290610e4d565b6103de868661070a565b6102e386866107b0565b60006103fb6103f56105c0565b8361070a565b6102486104066105c0565b836107b0565b600061041f6104196105c0565b846105c4565b61030c8284610681565b60006104336105c0565b6000546001600160a01b039081169116146104605760405162461bcd60e51b81526004016100b290610dac565b600c546008546040516370a0823160e01b81526000926104f29290916001600160a01b03909116906370a082319061049c903090600401610c7b565b60206040518083038186803b1580156104b457600080fd5b505afa1580156104c8573d6000803e3d6000fd5b505050506040513d601f19601f820116820180604052508101906104ec9190610c16565b90610864565b90506105056104ff610395565b826107b0565b905090565b6105126105c0565b6000546001600160a01b0390811691161461053f5760405162461bcd60e51b81526004016100b290610dac565b6001600160a01b0381166105655760405162461bcd60e51b81526004016100b290610d0a565b600080546040516001600160a01b03808516939216917f8be0079c531659141344cd1fd0a4f28419497f9722a3daafe3b4186f6b6457e091a3600080546001600160a01b0319166001600160a01b0392909216919091179055565b3390565b6001600160a01b0382166105ea5760405162461bcd60e51b81526004016100b290610e0c565b6105f682600083610879565b600c546106039082610864565b600c556001600160a01b0382166000908152600d60205260409020546106299082610864565b6001600160a01b0383166000818152600d60205260408082209390935591517fddf252ad1be2c89b69c2b068fc378daa952ba7f163c4a11628f55a4df523b3ef90610675908590610ea9565b60405180910390a35050565b60085460405163a9059cbb60e01b81526001600160a01b039091169063a9059cbb906106b39085908590600401610cb3565b602060405180830381600087803b1580156106cd57600080fd5b505af11580156106e1573d6000803e3d6000fd5b505050506040513d601f19601f820116820180604052508101906107059190610b43565b505050565b6008546040516323b872dd60e01b81526001600160a01b03909116906323b872dd9061073e90859030908690600401610c8f565b602060405180830381600087803b15801561075857600080fd5b505af115801561076c573d6000803e3d6000fd5b505050506040513d601f19601f820116820180604052508101906107909190610b43565b6107ac5760405162461bcd60e51b81526004016100b290610d50565b5050565b6001600160a01b0382166107d65760405162461bcd60e51b81526004016100b290610e72565b6107e260008383610879565b600c546107ef90826109ac565b600c556001600160a01b0382166000908152600d602052604090205461081590826109ac565b6001600160a01b0383166000818152600d60205260408082209390935591519091907fddf252ad1be2c89b69c2b068fc378daa952ba7f163c4a11628f55a4df523b3ef90610675908590610ea9565b60008282111561087357600080fd5b50900390565b60085460405163d4ce141560e01b81526000916001600160a01b03169063d4ce1415906108ae90879087908790600401610c8f565b60206040518083038186803b1580156108c657600080fd5b505afa1580156108da573d6000803e3d6000fd5b505050506040513d601f19601f820116820180604052508101906108fe9190610c5a565b905060ff8116156109a657600854604051637f4ab1dd60e01b81526001600160a01b0390911690637f4ab1dd90610939908490600401610eb2565b60006040518083038186803b15801561095157600080fd5b505afa158015610965573d6000803e3d6000fd5b505050506040513d6000823e601f3d908101601f1916820160405261098d9190810190610b63565b60405162461bcd60e51b81526004016100b29190610cd7565b50505050565b6000828201838110156109be57600080fd5b9392505050565b80356001600160a01b038116811461031057600080fd5b60008083601f8401126109ed578182fd5b50813567ffffffffffffffff811115610a04578182fd5b6020830191508360208083028501011115610a1e57600080fd5b9250929050565b600060208284031215610a36578081fd5b6109be83836109c5565b600080600080600060808688031215610a57578081fd5b8535610a6281610eec565b9450602086013593506040860135610a7981610eec565b9250606086013567ffffffffffffffff80821115610a95578283fd5b818801915088601f830112610aa8578283fd5b813581811115610ab6578384fd5b896020828501011115610ac7578384fd5b9699959850939650602001949392505050565b60008060008060408587031215610aef578384fd5b843567ffffffffffffffff80821115610b06578586fd5b610b12888389016109dc565b90965094506020870135915080821115610b2a578384fd5b50610b37878288016109dc565b95989497509550505050565b600060208284031215610b54578081fd5b815180151581146109be578182fd5b600060208284031215610b74578081fd5b815167ffffffffffffffff80821115610b8b578283fd5b818401915084601f830112610b9e578283fd5b815181811115610bac578384fd5b604051601f8201601f191681016020018381118282101715610bcc578586fd5b604052818152838201602001871015610be3578485fd5b610bf4826020830160208701610ec0565b9695505050505050565b600060208284031215610c0f578081fd5b5035919050565b600060208284031215610c27578081fd5b5051919050565b60008060408385031215610c40578182fd5b82359150610c5184602085016109c5565b90509250929050565b600060208284031215610c6b578081fd5b815160ff811681146109be578182fd5b6001600160a01b0391909116815260200190565b6001600160a01b039384168152919092166020820152604081019190915260600190565b6001600160a01b03929092168252602082015260400190565b901515815260200190565b6000602082528251806020840152610cf6816040850160208701610ec0565b601f01601f19169190910160400192915050565b60208082526026908201527f4f776e61626c653a206e6577206f776e657220697320746865207a65726f206160408201526564647265737360d01b606082015260800190565b6020808252601490820152736661696c6c65642d7472616e7366657246726f6d60601b604082015260600190565b6020808252601490820152730d2dcecc2d8d2c85ac2e4e4c2f25ad8cadccee8d60631b604082015260600190565b6020808252818101527f4f776e61626c653a2063616c6c6572206973206e6f7420746865206f776e6572604082015260600190565b60208082526011908201527019985b1b189858dacb591a5cd8589b1959607a1b604082015260600190565b60208082526021908201527f45524332303a206275726e2066726f6d20746865207a65726f206164647265736040820152607360f81b606082015260800190565b6020808252600b908201526a3bb937b73396ba37b5b2b760a91b604082015260600190565b6020808252601f908201527f45524332303a206d696e7420746f20746865207a65726f206164647265737300604082015260600190565b90815260200190565b60ff91909116815260200190565b60005b83811015610edb578181015183820152602001610ec3565b838111156109a65750506000910152565b6001600160a01b0381168114610f0157600080fd5b5056fea26469706673582212203f8125d5fbcb210af4b1e3aeda2876bb4f2239d3d9b6382c042333d06888f91c64736f6c634300060c00338be0079c531659141344cd1fd0a4f28419497f9722a3daafe3b4186f6b6457e0",
  "immutableReferences": {},
  "source": "// SPDX-License-Identifier: Apache-2.0\n\n/******************************************************************************\n * Copyright 2020 IEXEC BLOCKCHAIN TECH                                       *\n *                                                                            *\n * Licensed under the Apache License, Version 2.0 (the \"License\");            *\n * you may not use this file except in compliance with the License.           *\n * You may obtain a copy of the License at                                    *\n *                                                                            *\n *     http://www.apache.org/licenses/LICENSE-2.0                             *\n *                                                                            *\n * Unless required by applicable law or agreed to in writing, software        *\n * distributed under the License is distributed on an \"AS IS\" BASIS,          *\n * WITHOUT WARRANTIES OR CONDITIONS OF ANY KIND, either express or implied.   *\n * See the License for the specific language governing permissions and        *\n * limitations under the License.                                             *\n ******************************************************************************/\n\npragma solidity ^0.6.0;\npragma experimental ABIEncoderV2;\n\nimport \"./IexecERC20Common.sol\";\nimport \"../DelegateBase.sol\";\nimport \"../interfaces/IexecEscrowToken.sol\";\nimport \"../interfaces/IexecTokenSpender.sol\";\n\n\ncontract IexecEscrowTokenDelegate is IexecEscrowToken, IexecTokenSpender, DelegateBase, IexecERC20Common\n{\n\tusing SafeMathExtended for uint256;\n\n\t/***************************************************************************\n\t *                         Escrow methods: public                          *\n\t ***************************************************************************/\n\treceive()\n\texternal override payable\n\t{\n\t\trevert('fallback-disabled');\n\t}\n\n\tfallback()\n\texternal override payable\n\t{\n\t\trevert('fallback-disabled');\n\t}\n\n\tfunction deposit(uint256 amount)\n\texternal override returns (bool)\n\t{\n\t\t_deposit(_msgSender(), amount);\n\t\t_mint(_msgSender(), amount);\n\t\treturn true;\n\t}\n\n\tfunction depositFor(uint256 amount, address target)\n\texternal override returns (bool)\n\t{\n\t\t_deposit(_msgSender(), amount);\n\t\t_mint(target, amount);\n\t\treturn true;\n\t}\n\n\tfunction depositForArray(uint256[] calldata amounts, address[] calldata targets)\n\texternal override returns (bool)\n\t{\n\t\trequire(amounts.length == targets.length, 'invalid-array-length');\n\t\tfor (uint i = 0; i < amounts.length; ++i)\n\t\t{\n\t\t\t_deposit(_msgSender(), amounts[i]);\n\t\t\t_mint(targets[i], amounts[i]);\n\t\t}\n\t\treturn true;\n\t}\n\n\tfunction withdraw(uint256 amount)\n\texternal override returns (bool)\n\t{\n\t\t_burn(_msgSender(), amount);\n\t\t_withdraw(_msgSender(), amount);\n\t\treturn true;\n\t}\n\n\tfunction withdrawTo(uint256 amount, address target)\n\texternal override returns (bool)\n\t{\n\t\t_burn(_msgSender(), amount);\n\t\t_withdraw(target, amount);\n\t\treturn true;\n\t}\n\n\tfunction recover()\n\texternal override onlyOwner returns (uint256)\n\t{\n\t\tuint256 delta = m_baseToken.balanceOf(address(this)).sub(m_totalSupply);\n\t\t_mint(owner(), delta);\n\t\treturn delta;\n\t}\n\n\t// Token Spender (endpoint for approveAndCallback calls to the proxy)\n\tfunction receiveApproval(address sender, uint256 amount, address token, bytes calldata)\n\texternal override returns (bool)\n\t{\n\t\trequire(token == address(m_baseToken), 'wrong-token');\n\t\t_deposit(sender, amount);\n\t\t_mint(sender, amount);\n\t\treturn true;\n\t}\n\n\tfunction _deposit(address from, uint256 amount)\n\tinternal\n\t{\n\t\trequire(m_baseToken.transferFrom(from, address(this), amount), 'failled-transferFrom');\n\t}\n\n\tfunction _withdraw(address to, uint256 amount)\n\tinternal\n\t{\n\t\tm_baseToken.transfer(to, amount);\n\t}\n}\n",
  "sourcePath": "/home/amxx/Work/iExec/code/PoCo-dev/contracts/modules/delegates/IexecEscrowTokenDelegate.sol",
  "compiler": {
    "name": "solc",
    "version": "0.6.12+commit.27d51765.Emscripten.clang"
  },
  "schemaVersion": "3.2.2",
  "updatedAt": "2020-11-04T10:28:52.867Z",
  "devdoc": {
    "kind": "dev",
    "methods": {
      "owner()": {
        "details": "Returns the address of the current owner."
      },
      "renounceOwnership()": {
        "details": "Leaves the contract without owner. It will not be possible to call `onlyOwner` functions anymore. Can only be called by the current owner. NOTE: Renouncing ownership will leave the contract without an owner, thereby removing any functionality that is only available to the owner."
      },
      "transferOwnership(address)": {
        "details": "Transfers ownership of the contract to a new account (`newOwner`). Can only be called by the current owner."
      }
    },
    "version": 1
  },
  "userdoc": {
    "kind": "user",
    "methods": {},
    "version": 1
  }
}