{
  "contractName": "IexecERC20Delegate",
  "abi": [
    {
      "anonymous": false,
      "inputs": [
        {
          "indexed": true,
          "internalType": "address",
          "name": "owner",
          "type": "address"
        },
        {
          "indexed": true,
          "internalType": "address",
          "name": "spender",
          "type": "address"
        },
        {
          "indexed": false,
          "internalType": "uint256",
          "name": "value",
          "type": "uint256"
        }
      ],
      "name": "Approval",
      "type": "event"
    },
    {
      "anonymous": false,
      "inputs": [
        {
          "indexed": false,
          "internalType": "address",
          "name": "owner",
          "type": "address"
        },
        {
          "indexed": false,
          "internalType": "uint256",
          "name": "amount",
          "type": "uint256"
        }
      ],
      "name": "Lock",
      "type": "event"
    },
    {
      "anonymous": false,
      "inputs": [
        {
          "indexed": true,
          "internalType": "address",
          "name": "previousOwner",
          "type": "address"
        },
        {
          "indexed": true,
          "internalType": "address",
          "name": "newOwner",
          "type": "address"
        }
      ],
      "name": "OwnershipTransferred",
      "type": "event"
    },
    {
      "anonymous": false,
      "inputs": [
        {
          "indexed": false,
          "internalType": "address",
          "name": "owner",
          "type": "address"
        },
        {
          "indexed": false,
          "internalType": "uint256",
          "name": "amount",
          "type": "uint256"
        },
        {
          "indexed": false,
          "internalType": "bytes32",
          "name": "ref",
          "type": "bytes32"
        }
      ],
      "name": "Reward",
      "type": "event"
    },
    {
      "anonymous": false,
      "inputs": [
        {
          "indexed": false,
          "internalType": "address",
          "name": "owner",
          "type": "address"
        },
        {
          "indexed": false,
          "internalType": "uint256",
          "name": "amount",
          "type": "uint256"
        },
        {
          "indexed": false,
          "internalType": "bytes32",
          "name": "ref",
          "type": "bytes32"
        }
      ],
      "name": "Seize",
      "type": "event"
    },
    {
      "anonymous": false,
      "inputs": [
        {
          "indexed": true,
          "internalType": "address",
          "name": "from",
          "type": "address"
        },
        {
          "indexed": true,
          "internalType": "address",
          "name": "to",
          "type": "address"
        },
        {
          "indexed": false,
          "internalType": "uint256",
          "name": "value",
          "type": "uint256"
        }
      ],
      "name": "Transfer",
      "type": "event"
    },
    {
      "anonymous": false,
      "inputs": [
        {
          "indexed": false,
          "internalType": "address",
          "name": "owner",
          "type": "address"
        },
        {
          "indexed": false,
          "internalType": "uint256",
          "name": "amount",
          "type": "uint256"
        }
      ],
      "name": "Unlock",
      "type": "event"
    },
    {
      "inputs": [],
      "name": "owner",
      "outputs": [
        {
          "internalType": "address",
          "name": "",
          "type": "address"
        }
      ],
      "stateMutability": "view",
      "type": "function"
    },
    {
      "inputs": [],
      "name": "renounceOwnership",
      "outputs": [],
      "stateMutability": "nonpayable",
      "type": "function"
    },
    {
      "inputs": [
        {
          "internalType": "address",
          "name": "newOwner",
          "type": "address"
        }
      ],
      "name": "transferOwnership",
      "outputs": [],
      "stateMutability": "nonpayable",
      "type": "function"
    },
    {
      "inputs": [
        {
          "internalType": "address",
          "name": "recipient",
          "type": "address"
        },
        {
          "internalType": "uint256",
          "name": "amount",
          "type": "uint256"
        }
      ],
      "name": "transfer",
      "outputs": [
        {
          "internalType": "bool",
          "name": "",
          "type": "bool"
        }
      ],
      "stateMutability": "nonpayable",
      "type": "function"
    },
    {
      "inputs": [
        {
          "internalType": "address",
          "name": "spender",
          "type": "address"
        },
        {
          "internalType": "uint256",
          "name": "value",
          "type": "uint256"
        }
      ],
      "name": "approve",
      "outputs": [
        {
          "internalType": "bool",
          "name": "",
          "type": "bool"
        }
      ],
      "stateMutability": "nonpayable",
      "type": "function"
    },
    {
      "inputs": [
        {
          "internalType": "address",
          "name": "spender",
          "type": "address"
        },
        {
          "internalType": "uint256",
          "name": "value",
          "type": "uint256"
        },
        {
          "internalType": "bytes",
          "name": "extraData",
          "type": "bytes"
        }
      ],
      "name": "approveAndCall",
      "outputs": [
        {
          "internalType": "bool",
          "name": "",
          "type": "bool"
        }
      ],
      "stateMutability": "nonpayable",
      "type": "function"
    },
    {
      "inputs": [
        {
          "internalType": "address",
          "name": "sender",
          "type": "address"
        },
        {
          "internalType": "address",
          "name": "recipient",
          "type": "address"
        },
        {
          "internalType": "uint256",
          "name": "amount",
          "type": "uint256"
        }
      ],
      "name": "transferFrom",
      "outputs": [
        {
          "internalType": "bool",
          "name": "",
          "type": "bool"
        }
      ],
      "stateMutability": "nonpayable",
      "type": "function"
    },
    {
      "inputs": [
        {
          "internalType": "address",
          "name": "spender",
          "type": "address"
        },
        {
          "internalType": "uint256",
          "name": "addedValue",
          "type": "uint256"
        }
      ],
      "name": "increaseAllowance",
      "outputs": [
        {
          "internalType": "bool",
          "name": "",
          "type": "bool"
        }
      ],
      "stateMutability": "nonpayable",
      "type": "function"
    },
    {
      "inputs": [
        {
          "internalType": "address",
          "name": "spender",
          "type": "address"
        },
        {
          "internalType": "uint256",
          "name": "subtractedValue",
          "type": "uint256"
        }
      ],
      "name": "decreaseAllowance",
      "outputs": [
        {
          "internalType": "bool",
          "name": "",
          "type": "bool"
        }
      ],
      "stateMutability": "nonpayable",
      "type": "function"
    }
  ],
  "bytecode": "0x608060405234801561001057600080fd5b50600061001b610060565b600080546001600160a01b0319166001600160a01b038316908117825560405192935091600080516020610b6d833981519152908290a35061005b610064565b61010f565b3390565b61006c610060565b6000546001600160a01b039081169116146100a25760405162461bcd60e51b8152600401610099906100da565b60405180910390fd5b600080546040516001600160a01b0390911690600080516020610b6d833981519152908390a3600080546001600160a01b0319169055565b6020808252818101527f4f776e61626c653a2063616c6c6572206973206e6f7420746865206f776e6572604082015260600190565b610a4f8061011e6000396000f3fe608060405234801561001057600080fd5b50600436106100935760003560e01c80638da5cb5b116100665780638da5cb5b146100f1578063a457c2d714610106578063a9059cbb14610119578063cae9ca511461012c578063f2fde38b1461013f57610093565b8063095ea7b31461009857806323b872dd146100c157806339509351146100d4578063715018a6146100e7575b600080fd5b6100ab6100a6366004610707565b610152565b6040516100b8919061083a565b60405180910390f35b6100ab6100cf3660046106c7565b610170565b6100ab6100e2366004610707565b6101df565b6100ef61022d565b005b6100f96102b5565b6040516100b891906107d5565b6100ab610114366004610707565b6102c4565b6100ab610127366004610707565b610312565b6100ab61013a366004610731565b610326565b6100ef61014d3660046106ac565b6103ee565b600061016661015f6104a4565b84846104a8565b5060015b92915050565b600061017d84848461055c565b6101d5846101896104a4565b6001600160a01b0387166000908152600f602052604081206101d0918791906101b06104a4565b6001600160a01b0316815260208101919091526040016000205490610577565b6104a8565b5060019392505050565b60006101666101ec6104a4565b846101d085600f60006101fd6104a4565b6001600160a01b03908116825260208083019390935260409182016000908120918c16815292529020549061058c565b6102356104a4565b6000546001600160a01b0390811691161461026b5760405162461bcd60e51b81526004016102629061093a565b60405180910390fd5b600080546040516001600160a01b03909116907f8be0079c531659141344cd1fd0a4f28419497f9722a3daafe3b4186f6b6457e0908390a3600080546001600160a01b0319169055565b6000546001600160a01b031690565b60006101666102d16104a4565b846101d085600f60006102e26104a4565b6001600160a01b03908116825260208083019390935260409182016000908120918c168152925290205490610577565b600061016661031f6104a4565b848461055c565b600061033a6103336104a4565b86866104a8565b846001600160a01b0316638f4ffcb16103516104a4565b863087876040518663ffffffff1660e01b81526004016103759594939291906107e9565b602060405180830381600087803b15801561038f57600080fd5b505af11580156103a3573d6000803e3d6000fd5b505050506040513d601f19601f820116820180604052508101906103c791906107b5565b6103e35760405162461bcd60e51b815260040161026290610910565b506001949350505050565b6103f66104a4565b6000546001600160a01b039081169116146104235760405162461bcd60e51b81526004016102629061093a565b6001600160a01b0381166104495760405162461bcd60e51b815260040161026290610888565b600080546040516001600160a01b03808516939216917f8be0079c531659141344cd1fd0a4f28419497f9722a3daafe3b4186f6b6457e091a3600080546001600160a01b0319166001600160a01b0392909216919091179055565b3390565b6001600160a01b0383166104ce5760405162461bcd60e51b8152600401610262906109b4565b6001600160a01b0382166104f45760405162461bcd60e51b8152600401610262906108ce565b6001600160a01b038084166000818152600f602090815260408083209487168084529490915290819020849055517f8c5be1e5ebec7d5bd14f71427d1e84f3dd0314c0f7b2291e5b200ac8c7c3b9259061054f9085906109f8565b60405180910390a3505050565b610567838383610572565b6105728383836105a5565b505050565b60008282111561058657600080fd5b50900390565b60008282018381101561059e57600080fd5b9392505050565b6001600160a01b0383166105cb5760405162461bcd60e51b81526004016102629061096f565b6001600160a01b0382166105f15760405162461bcd60e51b815260040161026290610845565b6001600160a01b0383166000908152600d60205260409020546106149082610577565b6001600160a01b038085166000908152600d60205260408082209390935590841681522054610643908261058c565b6001600160a01b038084166000818152600d602052604090819020939093559151908516907fddf252ad1be2c89b69c2b068fc378daa952ba7f163c4a11628f55a4df523b3ef9061054f9085906109f8565b80356001600160a01b038116811461016a57600080fd5b6000602082840312156106bd578081fd5b61059e8383610695565b6000806000606084860312156106db578182fd5b83356106e681610a01565b925060208401356106f681610a01565b929592945050506040919091013590565b60008060408385031215610719578182fd5b6107238484610695565b946020939093013593505050565b60008060008060608587031215610746578081fd5b843561075181610a01565b935060208501359250604085013567ffffffffffffffff80821115610774578283fd5b818701915087601f830112610787578283fd5b813581811115610795578384fd5b8860208285010111156107a6578384fd5b95989497505060200194505050565b6000602082840312156107c6578081fd5b8151801515811461059e578182fd5b6001600160a01b0391909116815260200190565b6001600160a01b038681168252602082018690528416604082015260806060820181905281018290526000828460a084013781830160a090810191909152601f909201601f19160101949350505050565b901515815260200190565b60208082526023908201527f45524332303a207472616e7366657220746f20746865207a65726f206164647260408201526265737360e81b606082015260800190565b60208082526026908201527f4f776e61626c653a206e6577206f776e657220697320746865207a65726f206160408201526564647265737360d01b606082015260800190565b60208082526022908201527f45524332303a20617070726f766520746f20746865207a65726f206164647265604082015261737360f01b606082015260800190565b60208082526010908201526f185c1c1c9bdd985b0b5c99599d5cd95960821b604082015260600190565b6020808252818101527f4f776e61626c653a2063616c6c6572206973206e6f7420746865206f776e6572604082015260600190565b60208082526025908201527f45524332303a207472616e736665722066726f6d20746865207a65726f206164604082015264647265737360d81b606082015260800190565b60208082526024908201527f45524332303a20617070726f76652066726f6d20746865207a65726f206164646040820152637265737360e01b606082015260800190565b90815260200190565b6001600160a01b0381168114610a1657600080fd5b5056fea2646970667358221220009030c4199e994d0a286c372989e7f437c71bb13162967ddd15a6a218bf13b664736f6c634300060c00338be0079c531659141344cd1fd0a4f28419497f9722a3daafe3b4186f6b6457e0",
  "immutableReferences": {},
  "source": "// SPDX-License-Identifier: Apache-2.0\n\n/******************************************************************************\n * Copyright 2020 IEXEC BLOCKCHAIN TECH                                       *\n *                                                                            *\n * Licensed under the Apache License, Version 2.0 (the \"License\");            *\n * you may not use this file except in compliance with the License.           *\n * You may obtain a copy of the License at                                    *\n *                                                                            *\n *     http://www.apache.org/licenses/LICENSE-2.0                             *\n *                                                                            *\n * Unless required by applicable law or agreed to in writing, software        *\n * distributed under the License is distributed on an \"AS IS\" BASIS,          *\n * WITHOUT WARRANTIES OR CONDITIONS OF ANY KIND, either express or implied.   *\n * See the License for the specific language governing permissions and        *\n * limitations under the License.                                             *\n ******************************************************************************/\n\npragma solidity ^0.6.0;\npragma experimental ABIEncoderV2;\n\nimport \"./IexecERC20Core.sol\";\nimport \"../DelegateBase.sol\";\nimport \"../interfaces/IexecERC20.sol\";\nimport \"../interfaces/IexecTokenSpender.sol\";\n\n\ncontract IexecERC20Delegate is IexecERC20, DelegateBase, IexecERC20Core\n{\n\tfunction transfer(address recipient, uint256 amount)\n\texternal override returns (bool)\n\t{\n\t\t_transfer(_msgSender(), recipient, amount);\n\t\treturn true;\n\t}\n\n\tfunction approve(address spender, uint256 value)\n\texternal override returns (bool)\n\t{\n\t\t_approve(_msgSender(), spender, value);\n\t\treturn true;\n\t}\n\n\tfunction approveAndCall(address spender, uint256 value, bytes calldata extraData)\n\texternal override returns (bool)\n\t{\n\t\t_approve(_msgSender(), spender, value);\n\t\trequire(IexecTokenSpender(spender).receiveApproval(_msgSender(), value, address(this), extraData), 'approval-refused');\n\t\treturn true;\n\t}\n\n\tfunction transferFrom(address sender, address recipient, uint256 amount)\n\texternal override returns (bool)\n\t{\n\t\t_transfer(sender, recipient, amount);\n\t\t_approve(sender, _msgSender(), m_allowances[sender][_msgSender()].sub(amount));\n\t\treturn true;\n\t}\n\n\tfunction increaseAllowance(address spender, uint256 addedValue)\n\texternal override returns (bool)\n\t{\n\t\t_approve(_msgSender(), spender, m_allowances[_msgSender()][spender].add(addedValue));\n\t\treturn true;\n\t}\n\n\n\tfunction decreaseAllowance(address spender, uint256 subtractedValue)\n\texternal override returns (bool)\n\t{\n\t\t\t_approve(_msgSender(), spender, m_allowances[_msgSender()][spender].sub(subtractedValue));\n\t\t\treturn true;\n\t}\n}\n",
  "sourcePath": "/home/amxx/Work/iExec/code/PoCo-dev/contracts/modules/delegates/IexecERC20Delegate.sol",
  "compiler": {
    "name": "solc",
    "version": "0.6.12+commit.27d51765.Emscripten.clang"
  },
  "schemaVersion": "3.2.2",
  "updatedAt": "2020-11-09T09:15:00.573Z",
  "devdoc": {
    "kind": "dev",
    "methods": {
      "owner()": {
        "details": "Returns the address of the current owner."
      },
      "renounceOwnership()": {
        "details": "Leaves the contract without owner. It will not be possible to call `onlyOwner` functions anymore. Can only be called by the current owner. NOTE: Renouncing ownership will leave the contract without an owner, thereby removing any functionality that is only available to the owner."
      },
      "transferOwnership(address)": {
        "details": "Transfers ownership of the contract to a new account (`newOwner`). Can only be called by the current owner."
      }
    },
    "version": 1
  },
  "userdoc": {
    "kind": "user",
    "methods": {},
    "version": 1
  }
}