{
  "contractName": "IexecEscrowTokenDelegate",
  "abi": [
    {
      "constant": true,
      "inputs": [],
      "name": "EIP712DOMAIN_SEPARATOR",
      "outputs": [
        {
          "name": "",
          "type": "bytes32"
        }
      ],
      "payable": false,
      "stateMutability": "view",
      "type": "function"
    },
    {
      "constant": true,
      "inputs": [],
      "name": "appregistry",
      "outputs": [
        {
          "name": "",
          "type": "address"
        }
      ],
      "payable": false,
      "stateMutability": "view",
      "type": "function"
    },
    {
      "constant": true,
      "inputs": [],
      "name": "WORKERPOOL_STAKE_RATIO",
      "outputs": [
        {
          "name": "",
          "type": "uint256"
        }
      ],
      "payable": false,
      "stateMutability": "view",
      "type": "function"
    },
    {
      "constant": true,
      "inputs": [],
      "name": "KITTY_RATIO",
      "outputs": [
        {
          "name": "",
          "type": "uint256"
        }
      ],
      "payable": false,
      "stateMutability": "view",
      "type": "function"
    },
    {
      "constant": true,
      "inputs": [],
      "name": "REVEAL_DEADLINE_RATIO",
      "outputs": [
        {
          "name": "",
          "type": "uint256"
        }
      ],
      "payable": false,
      "stateMutability": "view",
      "type": "function"
    },
    {
      "constant": true,
      "inputs": [],
      "name": "GROUPMEMBER_PURPOSE",
      "outputs": [
        {
          "name": "",
          "type": "uint256"
        }
      ],
      "payable": false,
      "stateMutability": "view",
      "type": "function"
    },
    {
      "constant": false,
      "inputs": [],
      "name": "renounceOwnership",
      "outputs": [],
      "payable": false,
      "stateMutability": "nonpayable",
      "type": "function"
    },
    {
      "constant": true,
      "inputs": [],
      "name": "CONTRIBUTION_DEADLINE_RATIO",
      "outputs": [
        {
          "name": "",
          "type": "uint256"
        }
      ],
      "payable": false,
      "stateMutability": "view",
      "type": "function"
    },
    {
      "constant": true,
      "inputs": [],
      "name": "owner",
      "outputs": [
        {
          "name": "",
          "type": "address"
        }
      ],
      "payable": false,
      "stateMutability": "view",
      "type": "function"
    },
    {
      "constant": true,
      "inputs": [],
      "name": "isOwner",
      "outputs": [
        {
          "name": "",
          "type": "bool"
        }
      ],
      "payable": false,
      "stateMutability": "view",
      "type": "function"
    },
    {
      "constant": true,
      "inputs": [],
      "name": "workerpoolregistry",
      "outputs": [
        {
          "name": "",
          "type": "address"
        }
      ],
      "payable": false,
      "stateMutability": "view",
      "type": "function"
    },
    {
      "constant": true,
      "inputs": [],
      "name": "FINAL_DEADLINE_RATIO",
      "outputs": [
        {
          "name": "",
          "type": "uint256"
        }
      ],
      "payable": false,
      "stateMutability": "view",
      "type": "function"
    },
    {
      "constant": true,
      "inputs": [],
      "name": "KITTY_ADDRESS",
      "outputs": [
        {
          "name": "",
          "type": "address"
        }
      ],
      "payable": false,
      "stateMutability": "view",
      "type": "function"
    },
    {
      "constant": true,
      "inputs": [],
      "name": "datasetregistry",
      "outputs": [
        {
          "name": "",
          "type": "address"
        }
      ],
      "payable": false,
      "stateMutability": "view",
      "type": "function"
    },
    {
      "constant": true,
      "inputs": [],
      "name": "KITTY_MIN",
      "outputs": [
        {
          "name": "",
          "type": "uint256"
        }
      ],
      "payable": false,
      "stateMutability": "view",
      "type": "function"
    },
    {
      "constant": false,
      "inputs": [
        {
          "name": "newOwner",
          "type": "address"
        }
      ],
      "name": "transferOwnership",
      "outputs": [],
      "payable": false,
      "stateMutability": "nonpayable",
      "type": "function"
    },
    {
      "anonymous": false,
      "inputs": [
        {
          "indexed": true,
          "name": "from",
          "type": "address"
        },
        {
          "indexed": true,
          "name": "to",
          "type": "address"
        },
        {
          "indexed": false,
          "name": "value",
          "type": "uint256"
        }
      ],
      "name": "Transfer",
      "type": "event"
    },
    {
      "anonymous": false,
      "inputs": [
        {
          "indexed": true,
          "name": "owner",
          "type": "address"
        },
        {
          "indexed": true,
          "name": "spender",
          "type": "address"
        },
        {
          "indexed": false,
          "name": "value",
          "type": "uint256"
        }
      ],
      "name": "Approval",
      "type": "event"
    },
    {
      "anonymous": false,
      "inputs": [
        {
          "indexed": true,
          "name": "previousOwner",
          "type": "address"
        },
        {
          "indexed": true,
          "name": "newOwner",
          "type": "address"
        }
      ],
      "name": "OwnershipTransferred",
      "type": "event"
    },
    {
      "constant": false,
      "inputs": [
        {
          "name": "amount",
          "type": "uint256"
        }
      ],
      "name": "deposit",
      "outputs": [
        {
          "name": "",
          "type": "bool"
        }
      ],
      "payable": false,
      "stateMutability": "nonpayable",
      "type": "function"
    },
    {
      "constant": false,
      "inputs": [
        {
          "name": "amount",
          "type": "uint256"
        },
        {
          "name": "target",
          "type": "address"
        }
      ],
      "name": "depositFor",
      "outputs": [
        {
          "name": "",
          "type": "bool"
        }
      ],
      "payable": false,
      "stateMutability": "nonpayable",
      "type": "function"
    },
    {
      "constant": false,
      "inputs": [
        {
          "name": "amounts",
          "type": "uint256[]"
        },
        {
          "name": "targets",
          "type": "address[]"
        }
      ],
      "name": "depositForArray",
      "outputs": [
        {
          "name": "",
          "type": "bool"
        }
      ],
      "payable": false,
      "stateMutability": "nonpayable",
      "type": "function"
    },
    {
      "constant": false,
      "inputs": [
        {
          "name": "amount",
          "type": "uint256"
        }
      ],
      "name": "withdraw",
      "outputs": [
        {
          "name": "",
          "type": "bool"
        }
      ],
      "payable": false,
      "stateMutability": "nonpayable",
      "type": "function"
    }
  ],
  "bytecode": "0x60806040819052600080546001600160a01b03191633178082556001600160a01b031691600080516020610ce3833981519152908290a36100476001600160e01b0361004c16565b61013d565b61005d6001600160e01b036100d416565b61009c576040517f08c379a00000000000000000000000000000000000000000000000000000000081526004016100939061011e565b60405180910390fd5b600080546040516001600160a01b0390911690600080516020610ce3833981519152908390a3600080546001600160a01b0319169055565b6000546001600160a01b0316331490565b60006100f2602083610134565b7f4f776e61626c653a2063616c6c6572206973206e6f7420746865206f776e6572815260200192915050565b6020808252810161012e816100e5565b92915050565b90815260200190565b610b978061014c6000396000f3fe608060405234801561001057600080fd5b506004361061012c5760003560e01c80637b244832116100ad5780639e986e81116100715780639e986e8114610201578063b1b11d2c14610209578063b6b55f2514610211578063e2e7a8c114610224578063f2fde38b1461022c5761012c565b80637b244832146101d45780638da5cb5b146101dc5780638f32d59b146101f157806390a0f546146101f957806390fc26b1146101b25761012c565b80634ec3b9e3116100f45780634ec3b9e3146101aa57806351152de1146101b25780635fde601d146101ba57806368a9ef1c146101c2578063715018a6146101ca5761012c565b8063047411e7146101315780632e1a7d4d1461014f5780633354f8a51461016f57806336efd16f1461018257806345b637a914610195575b600080fd5b61013961023f565b6040516101469190610a9f565b60405180910390f35b61016261015d3660046108c1565b610245565b6040516101469190610a91565b61016261017d366004610833565b610263565b6101626101903660046108df565b6102ea565b61019d61030a565b6040516101469190610aad565b610139610319565b61013961031e565b610139610323565b610139610328565b6101d261032d565b005b6101396103a4565b6101e46103a9565b6040516101469190610a40565b6101626103b8565b61019d6103c9565b6101e46103d8565b61019d610412565b61016261021f3660046108c1565b610421565b610139610437565b6101d261023a366004610815565b61043f565b600f5481565b6000610251338361046f565b61025b338361052c565b506001919050565b600083821461027157600080fd5b60005b848110156102dc576102983387878481811061028c57fe5b905060200201356105b5565b6102d48484838181106102a757fe5b90506020020160206102bc9190810190610815565b8787848181106102c857fe5b90506020020135610648565b600101610274565b50600190505b949350505050565b60006102f633846105b5565b6103008284610648565b5060015b92915050565b6004546001600160a01b031681565b601e81565b600a81565b600281565b600481565b6103356103b8565b61035a5760405162461bcd60e51b815260040161035190610acb565b60405180910390fd5b600080546040516001600160a01b03909116907f8be0079c531659141344cd1fd0a4f28419497f9722a3daafe3b4186f6b6457e0908390a3600080546001600160a01b0319169055565b600781565b6000546001600160a01b031690565b6000546001600160a01b0316331490565b6006546001600160a01b031681565b60408051808201909152600a81526969457865634b6974747960b01b6020909101527399c2268479b93fde36232351229815df80837e2481565b6005546001600160a01b031681565b600061042d33836105b5565b61025b3383610648565b633b9aca0081565b6104476103b8565b6104635760405162461bcd60e51b815260040161035190610acb565b61046c816106fc565b50565b6001600160a01b0382166104955760405162461bcd60e51b815260040161035190610adb565b600b546104a8908263ffffffff61077d16565b600b556001600160a01b0382166000908152600c60205260409020546104d4908263ffffffff61077d16565b6001600160a01b0383166000818152600c60205260408082209390935591517fddf252ad1be2c89b69c2b068fc378daa952ba7f163c4a11628f55a4df523b3ef90610520908590610a9f565b60405180910390a35050565b60075460405163a9059cbb60e01b81526001600160a01b039091169063a9059cbb9061055e9085908590600401610a76565b602060405180830381600087803b15801561057857600080fd5b505af115801561058c573d6000803e3d6000fd5b505050506040513d601f19601f820116820180604052506105b091908101906108a3565b505050565b6007546040516323b872dd60e01b81526001600160a01b03909116906323b872dd906105e990859030908690600401610a4e565b602060405180830381600087803b15801561060357600080fd5b505af1158015610617573d6000803e3d6000fd5b505050506040513d601f19601f8201168201806040525061063b91908101906108a3565b61064457600080fd5b5050565b6001600160a01b03821661066e5760405162461bcd60e51b815260040161035190610aeb565b600b54610681908263ffffffff61079216565b600b556001600160a01b0382166000908152600c60205260409020546106ad908263ffffffff61079216565b6001600160a01b0383166000818152600c60205260408082209390935591519091907fddf252ad1be2c89b69c2b068fc378daa952ba7f163c4a11628f55a4df523b3ef90610520908590610a9f565b6001600160a01b0381166107225760405162461bcd60e51b815260040161035190610abb565b600080546040516001600160a01b03808516939216917f8be0079c531659141344cd1fd0a4f28419497f9722a3daafe3b4186f6b6457e091a3600080546001600160a01b0319166001600160a01b0392909216919091179055565b60008282111561078c57600080fd5b50900390565b6000828201838110156107a457600080fd5b9392505050565b803561030481610b2e565b60008083601f8401126107c857600080fd5b50813567ffffffffffffffff8111156107e057600080fd5b6020830191508360208202830111156107f857600080fd5b9250929050565b805161030481610b42565b803561030481610b4b565b60006020828403121561082757600080fd5b60006102e284846107ab565b6000806000806040858703121561084957600080fd5b843567ffffffffffffffff81111561086057600080fd5b61086c878288016107b6565b9450945050602085013567ffffffffffffffff81111561088b57600080fd5b610897878288016107b6565b95989497509550505050565b6000602082840312156108b557600080fd5b60006102e284846107ff565b6000602082840312156108d357600080fd5b60006102e2848461080a565b600080604083850312156108f257600080fd5b60006108fe858561080a565b925050602061090f858286016107ab565b9150509250929050565b61092281610b04565b82525050565b61092281610b0f565b61092281610b14565b61092281610b23565b6000610950602683610afb565b7f4f776e61626c653a206e6577206f776e657220697320746865207a65726f206181526564647265737360d01b602082015260400192915050565b6000610998602083610afb565b7f4f776e61626c653a2063616c6c6572206973206e6f7420746865206f776e6572815260200192915050565b60006109d1602183610afb565b7f45524332303a206275726e2066726f6d20746865207a65726f206164647265738152607360f81b602082015260400192915050565b6000610a14601f83610afb565b7f45524332303a206d696e7420746f20746865207a65726f206164647265737300815260200192915050565b602081016103048284610919565b60608101610a5c8286610919565b610a696020830185610919565b6102e26040830184610931565b60408101610a848285610919565b6107a46020830184610931565b602081016103048284610928565b602081016103048284610931565b60208101610304828461093a565b6020808252810161030481610943565b602080825281016103048161098b565b60208082528101610304816109c4565b6020808252810161030481610a07565b90815260200190565b600061030482610b17565b151590565b90565b6001600160a01b031690565b600061030482610b04565b610b3781610b04565b811461046c57600080fd5b610b3781610b0f565b610b3781610b1456fea365627a7a72305820cd9f342501effdde5258fc71a30b15e30d953e1f0ae8e260d61d3c4ada37a0366c6578706572696d656e74616cf564736f6c634300050a00408be0079c531659141344cd1fd0a4f28419497f9722a3daafe3b4186f6b6457e0",
  "source": "pragma solidity ^0.5.10;\npragma experimental ABIEncoderV2;\n\nimport \"./IexecERC20.sol\";\nimport \"../IexecDelegateBase.sol\";\n\n\ninterface IexecEscrowToken\n{\n\tfunction deposit(uint256) external returns (bool);\n\tfunction depositFor(uint256,address) external returns (bool);\n\tfunction depositForArray(uint256[] calldata,address[] calldata) external returns (bool);\n\tfunction withdraw(uint256) external returns (bool);\n}\n\ncontract IexecEscrowTokenDelegate is IexecEscrowToken, IexecDelegateBase, IexecERC20Common\n{\n\t/***************************************************************************\n\t *                         Escrow methods: public                          *\n\t ***************************************************************************/\n\tfunction deposit(uint256 amount)\n\t\texternal returns (bool)\n\t{\n\t\t_deposit(msg.sender, amount);\n\t\t_mint(msg.sender, amount);\n\t\treturn true;\n\t}\n\n\tfunction depositFor(uint256 amount, address target)\n\t\texternal returns (bool)\n\t{\n\t\t_deposit(msg.sender, amount);\n\t\t_mint(target, amount);\n\t\treturn true;\n\t}\n\n\tfunction depositForArray(uint256[] calldata amounts, address[] calldata targets)\n\t\texternal returns (bool)\n\t{\n\t\trequire(amounts.length == targets.length);\n\t\tfor (uint i = 0; i < amounts.length; ++i)\n\t\t{\n\t\t\t_deposit(msg.sender, amounts[i]);\n\t\t\t_mint(targets[i], amounts[i]);\n\t\t}\n\t\treturn true;\n\t}\n\n\tfunction withdraw(uint256 amount)\n\t\texternal returns (bool)\n\t{\n\t\t_burn(msg.sender, amount);\n\t\t_withdraw(msg.sender, amount);\n\t\treturn true;\n\t}\n\n\tfunction _deposit(address from, uint256 amount)\n\t\tinternal\n\t{\n\t\trequire(m_baseToken.transferFrom(from, address(this), amount));\n\t}\n\n\tfunction _withdraw(address to, uint256 amount)\n\t\tinternal\n\t{\n\t\tm_baseToken.transfer(to, amount);\n\t}\n}\n",
  "sourcePath": "/home/amxx/Work/iExec/code/PoCo-dev/contracts/delegates/IexecEscrowToken.sol",
  "compiler": {
    "name": "solc",
    "version": "0.5.10+commit.5a6ea5b1.Emscripten.clang"
  },
  "schemaVersion": "3.0.11",
  "updatedAt": "2019-06-27T08:17:24.580Z",
  "devdoc": {
    "methods": {
      "isOwner()": {
        "details": "Returns true if the caller is the current owner."
      },
      "owner()": {
        "details": "Returns the address of the current owner."
      },
      "renounceOwnership()": {
        "details": "Leaves the contract without owner. It will not be possible to call `onlyOwner` functions anymore. Can only be called by the current owner.     * > Note: Renouncing ownership will leave the contract without an owner, thereby removing any functionality that is only available to the owner."
      },
      "transferOwnership(address)": {
        "details": "Transfers ownership of the contract to a new account (`newOwner`). Can only be called by the current owner."
      }
    }
  },
  "userdoc": {
    "methods": {
      "deposit(uint256)": {
        "notice": "*************************************************************************                        Escrow methods: public                          ***************************************************************************"
      }
    }
  }
}