{
  "contractName": "IexecClerk",
  "abi": [
    {
      "constant": true,
      "inputs": [
        {
          "name": "_identity",
          "type": "address"
        },
        {
          "name": "_hash",
          "type": "bytes32"
        },
        {
          "name": "_signature",
          "type": "bytes"
        }
      ],
      "name": "verifySignature",
      "outputs": [
        {
          "name": "",
          "type": "bool"
        }
      ],
      "payable": false,
      "stateMutability": "view",
      "type": "function"
    },
    {
      "constant": true,
      "inputs": [],
      "name": "EIP712DOMAIN_SEPARATOR",
      "outputs": [
        {
          "name": "",
          "type": "bytes32"
        }
      ],
      "payable": false,
      "stateMutability": "view",
      "type": "function"
    },
    {
      "constant": false,
      "inputs": [
        {
          "name": "_amount",
          "type": "uint256"
        }
      ],
      "name": "withdraw",
      "outputs": [
        {
          "name": "",
          "type": "bool"
        }
      ],
      "payable": false,
      "stateMutability": "nonpayable",
      "type": "function"
    },
    {
      "constant": false,
      "inputs": [
        {
          "name": "_amounts",
          "type": "uint256[]"
        },
        {
          "name": "_targets",
          "type": "address[]"
        }
      ],
      "name": "depositForArray",
      "outputs": [
        {
          "name": "",
          "type": "bool"
        }
      ],
      "payable": true,
      "stateMutability": "payable",
      "type": "function"
    },
    {
      "constant": true,
      "inputs": [
        {
          "name": "",
          "type": "bytes32"
        }
      ],
      "name": "m_presigned",
      "outputs": [
        {
          "name": "",
          "type": "bool"
        }
      ],
      "payable": false,
      "stateMutability": "view",
      "type": "function"
    },
    {
      "constant": false,
      "inputs": [
        {
          "components": [
            {
              "name": "app",
              "type": "address"
            },
            {
              "name": "appmaxprice",
              "type": "uint256"
            },
            {
              "name": "dataset",
              "type": "address"
            },
            {
              "name": "datasetmaxprice",
              "type": "uint256"
            },
            {
              "name": "workerpool",
              "type": "address"
            },
            {
              "name": "workerpoolmaxprice",
              "type": "uint256"
            },
            {
              "name": "requester",
              "type": "address"
            },
            {
              "name": "volume",
              "type": "uint256"
            },
            {
              "name": "tag",
              "type": "bytes32"
            },
            {
              "name": "category",
              "type": "uint256"
            },
            {
              "name": "trust",
              "type": "uint256"
            },
            {
              "name": "beneficiary",
              "type": "address"
            },
            {
              "name": "callback",
              "type": "address"
            },
            {
              "name": "params",
              "type": "string"
            },
            {
              "name": "salt",
              "type": "bytes32"
            },
            {
              "name": "sign",
              "type": "bytes"
            }
          ],
          "name": "_requestorder",
          "type": "tuple"
        }
      ],
      "name": "broadcastRequestOrder",
      "outputs": [],
      "payable": false,
      "stateMutability": "nonpayable",
      "type": "function"
    },
    {
      "constant": false,
      "inputs": [
        {
          "components": [
            {
              "name": "dataset",
              "type": "address"
            },
            {
              "name": "datasetprice",
              "type": "uint256"
            },
            {
              "name": "volume",
              "type": "uint256"
            },
            {
              "name": "tag",
              "type": "bytes32"
            },
            {
              "name": "apprestrict",
              "type": "address"
            },
            {
              "name": "workerpoolrestrict",
              "type": "address"
            },
            {
              "name": "requesterrestrict",
              "type": "address"
            },
            {
              "name": "salt",
              "type": "bytes32"
            },
            {
              "name": "sign",
              "type": "bytes"
            }
          ],
          "name": "_datasetorder",
          "type": "tuple"
        }
      ],
      "name": "broadcastDatasetOrder",
      "outputs": [],
      "payable": false,
      "stateMutability": "nonpayable",
      "type": "function"
    },
    {
      "constant": true,
      "inputs": [],
      "name": "WORKERPOOL_STAKE_RATIO",
      "outputs": [
        {
          "name": "",
          "type": "uint256"
        }
      ],
      "payable": false,
      "stateMutability": "view",
      "type": "function"
    },
    {
      "constant": true,
      "inputs": [],
      "name": "KITTY_RATIO",
      "outputs": [
        {
          "name": "",
          "type": "uint256"
        }
      ],
      "payable": false,
      "stateMutability": "view",
      "type": "function"
    },
    {
      "constant": true,
      "inputs": [],
      "name": "GROUPMEMBER_PURPOSE",
      "outputs": [
        {
          "name": "",
          "type": "uint256"
        }
      ],
      "payable": false,
      "stateMutability": "view",
      "type": "function"
    },
    {
      "constant": true,
      "inputs": [
        {
          "name": "_user",
          "type": "address"
        }
      ],
      "name": "viewAccount",
      "outputs": [
        {
          "components": [
            {
              "name": "stake",
              "type": "uint256"
            },
            {
              "name": "locked",
              "type": "uint256"
            }
          ],
          "name": "account",
          "type": "tuple"
        }
      ],
      "payable": false,
      "stateMutability": "view",
      "type": "function"
    },
    {
      "constant": true,
      "inputs": [],
      "name": "POOL_STAKE_RATIO",
      "outputs": [
        {
          "name": "",
          "type": "uint256"
        }
      ],
      "payable": false,
      "stateMutability": "view",
      "type": "function"
    },
    {
      "constant": true,
      "inputs": [],
      "name": "iexechub",
      "outputs": [
        {
          "name": "",
          "type": "address"
        }
      ],
      "payable": false,
      "stateMutability": "view",
      "type": "function"
    },
    {
      "constant": false,
      "inputs": [
        {
          "components": [
            {
              "name": "workerpool",
              "type": "address"
            },
            {
              "name": "workerpoolprice",
              "type": "uint256"
            },
            {
              "name": "volume",
              "type": "uint256"
            },
            {
              "name": "tag",
              "type": "bytes32"
            },
            {
              "name": "category",
              "type": "uint256"
            },
            {
              "name": "trust",
              "type": "uint256"
            },
            {
              "name": "apprestrict",
              "type": "address"
            },
            {
              "name": "datasetrestrict",
              "type": "address"
            },
            {
              "name": "requesterrestrict",
              "type": "address"
            },
            {
              "name": "salt",
              "type": "bytes32"
            },
            {
              "name": "sign",
              "type": "bytes"
            }
          ],
          "name": "_workerpoolorder",
          "type": "tuple"
        }
      ],
      "name": "broadcastWorkerpoolOrder",
      "outputs": [],
      "payable": false,
      "stateMutability": "nonpayable",
      "type": "function"
    },
    {
      "constant": false,
      "inputs": [
        {
          "name": "_target",
          "type": "address"
        }
      ],
      "name": "depositFor",
      "outputs": [
        {
          "name": "",
          "type": "bool"
        }
      ],
      "payable": true,
      "stateMutability": "payable",
      "type": "function"
    },
    {
      "constant": true,
      "inputs": [
        {
          "name": "",
          "type": "bytes32"
        },
        {
          "name": "",
          "type": "uint256"
        }
      ],
      "name": "m_requestdeals",
      "outputs": [
        {
          "name": "",
          "type": "bytes32"
        }
      ],
      "payable": false,
      "stateMutability": "view",
      "type": "function"
    },
    {
      "constant": false,
      "inputs": [
        {
          "components": [
            {
              "name": "app",
              "type": "address"
            },
            {
              "name": "appprice",
              "type": "uint256"
            },
            {
              "name": "volume",
              "type": "uint256"
            },
            {
              "name": "tag",
              "type": "bytes32"
            },
            {
              "name": "datasetrestrict",
              "type": "address"
            },
            {
              "name": "workerpoolrestrict",
              "type": "address"
            },
            {
              "name": "requesterrestrict",
              "type": "address"
            },
            {
              "name": "salt",
              "type": "bytes32"
            },
            {
              "name": "sign",
              "type": "bytes"
            }
          ],
          "name": "_apporder",
          "type": "tuple"
        }
      ],
      "name": "broadcastAppOrder",
      "outputs": [],
      "payable": false,
      "stateMutability": "nonpayable",
      "type": "function"
    },
    {
      "constant": false,
      "inputs": [],
      "name": "deposit",
      "outputs": [
        {
          "name": "",
          "type": "bool"
        }
      ],
      "payable": true,
      "stateMutability": "payable",
      "type": "function"
    },
    {
      "constant": true,
      "inputs": [],
      "name": "KITTY_MIN",
      "outputs": [
        {
          "name": "",
          "type": "uint256"
        }
      ],
      "payable": false,
      "stateMutability": "view",
      "type": "function"
    },
    {
      "constant": true,
      "inputs": [
        {
          "name": "",
          "type": "bytes32"
        }
      ],
      "name": "m_consumed",
      "outputs": [
        {
          "name": "",
          "type": "uint256"
        }
      ],
      "payable": false,
      "stateMutability": "view",
      "type": "function"
    },
    {
      "inputs": [
        {
          "name": "_iexechub",
          "type": "address"
        },
        {
          "name": "_chainid",
          "type": "uint256"
        }
      ],
      "payable": false,
      "stateMutability": "nonpayable",
      "type": "constructor"
    },
    {
      "payable": true,
      "stateMutability": "payable",
      "type": "fallback"
    },
    {
      "anonymous": false,
      "inputs": [
        {
          "indexed": false,
          "name": "dealid",
          "type": "bytes32"
        },
        {
          "indexed": false,
          "name": "appHash",
          "type": "bytes32"
        },
        {
          "indexed": false,
          "name": "datasetHash",
          "type": "bytes32"
        },
        {
          "indexed": false,
          "name": "workerpoolHash",
          "type": "bytes32"
        },
        {
          "indexed": false,
          "name": "requestHash",
          "type": "bytes32"
        },
        {
          "indexed": false,
          "name": "volume",
          "type": "uint256"
        }
      ],
      "name": "OrdersMatched",
      "type": "event"
    },
    {
      "anonymous": false,
      "inputs": [
        {
          "indexed": false,
          "name": "appHash",
          "type": "bytes32"
        }
      ],
      "name": "ClosedAppOrder",
      "type": "event"
    },
    {
      "anonymous": false,
      "inputs": [
        {
          "indexed": false,
          "name": "datasetHash",
          "type": "bytes32"
        }
      ],
      "name": "ClosedDatasetOrder",
      "type": "event"
    },
    {
      "anonymous": false,
      "inputs": [
        {
          "indexed": false,
          "name": "workerpoolHash",
          "type": "bytes32"
        }
      ],
      "name": "ClosedWorkerpoolOrder",
      "type": "event"
    },
    {
      "anonymous": false,
      "inputs": [
        {
          "indexed": false,
          "name": "requestHash",
          "type": "bytes32"
        }
      ],
      "name": "ClosedRequestOrder",
      "type": "event"
    },
    {
      "anonymous": false,
      "inputs": [
        {
          "indexed": true,
          "name": "workerpool",
          "type": "address"
        },
        {
          "indexed": false,
          "name": "dealid",
          "type": "bytes32"
        }
      ],
      "name": "SchedulerNotice",
      "type": "event"
    },
    {
      "anonymous": false,
      "inputs": [
        {
          "components": [
            {
              "name": "app",
              "type": "address"
            },
            {
              "name": "appprice",
              "type": "uint256"
            },
            {
              "name": "volume",
              "type": "uint256"
            },
            {
              "name": "tag",
              "type": "bytes32"
            },
            {
              "name": "datasetrestrict",
              "type": "address"
            },
            {
              "name": "workerpoolrestrict",
              "type": "address"
            },
            {
              "name": "requesterrestrict",
              "type": "address"
            },
            {
              "name": "salt",
              "type": "bytes32"
            },
            {
              "name": "sign",
              "type": "bytes"
            }
          ],
          "indexed": false,
          "name": "apporder",
          "type": "tuple"
        }
      ],
      "name": "BroadcastAppOrder",
      "type": "event"
    },
    {
      "anonymous": false,
      "inputs": [
        {
          "components": [
            {
              "name": "dataset",
              "type": "address"
            },
            {
              "name": "datasetprice",
              "type": "uint256"
            },
            {
              "name": "volume",
              "type": "uint256"
            },
            {
              "name": "tag",
              "type": "bytes32"
            },
            {
              "name": "apprestrict",
              "type": "address"
            },
            {
              "name": "workerpoolrestrict",
              "type": "address"
            },
            {
              "name": "requesterrestrict",
              "type": "address"
            },
            {
              "name": "salt",
              "type": "bytes32"
            },
            {
              "name": "sign",
              "type": "bytes"
            }
          ],
          "indexed": false,
          "name": "datasetorder",
          "type": "tuple"
        }
      ],
      "name": "BroadcastDatasetOrder",
      "type": "event"
    },
    {
      "anonymous": false,
      "inputs": [
        {
          "components": [
            {
              "name": "workerpool",
              "type": "address"
            },
            {
              "name": "workerpoolprice",
              "type": "uint256"
            },
            {
              "name": "volume",
              "type": "uint256"
            },
            {
              "name": "tag",
              "type": "bytes32"
            },
            {
              "name": "category",
              "type": "uint256"
            },
            {
              "name": "trust",
              "type": "uint256"
            },
            {
              "name": "apprestrict",
              "type": "address"
            },
            {
              "name": "datasetrestrict",
              "type": "address"
            },
            {
              "name": "requesterrestrict",
              "type": "address"
            },
            {
              "name": "salt",
              "type": "bytes32"
            },
            {
              "name": "sign",
              "type": "bytes"
            }
          ],
          "indexed": false,
          "name": "workerpoolorder",
          "type": "tuple"
        }
      ],
      "name": "BroadcastWorkerpoolOrder",
      "type": "event"
    },
    {
      "anonymous": false,
      "inputs": [
        {
          "components": [
            {
              "name": "app",
              "type": "address"
            },
            {
              "name": "appmaxprice",
              "type": "uint256"
            },
            {
              "name": "dataset",
              "type": "address"
            },
            {
              "name": "datasetmaxprice",
              "type": "uint256"
            },
            {
              "name": "workerpool",
              "type": "address"
            },
            {
              "name": "workerpoolmaxprice",
              "type": "uint256"
            },
            {
              "name": "requester",
              "type": "address"
            },
            {
              "name": "volume",
              "type": "uint256"
            },
            {
              "name": "tag",
              "type": "bytes32"
            },
            {
              "name": "category",
              "type": "uint256"
            },
            {
              "name": "trust",
              "type": "uint256"
            },
            {
              "name": "beneficiary",
              "type": "address"
            },
            {
              "name": "callback",
              "type": "address"
            },
            {
              "name": "params",
              "type": "string"
            },
            {
              "name": "salt",
              "type": "bytes32"
            },
            {
              "name": "sign",
              "type": "bytes"
            }
          ],
          "indexed": false,
          "name": "requestorder",
          "type": "tuple"
        }
      ],
      "name": "BroadcastRequestOrder",
      "type": "event"
    },
    {
      "anonymous": false,
      "inputs": [
        {
          "indexed": false,
          "name": "owner",
          "type": "address"
        },
        {
          "indexed": false,
          "name": "amount",
          "type": "uint256"
        }
      ],
      "name": "Deposit",
      "type": "event"
    },
    {
      "anonymous": false,
      "inputs": [
        {
          "indexed": false,
          "name": "owner",
          "type": "address"
        },
        {
          "indexed": false,
          "name": "amount",
          "type": "uint256"
        },
        {
          "indexed": false,
          "name": "target",
          "type": "address"
        }
      ],
      "name": "DepositFor",
      "type": "event"
    },
    {
      "anonymous": false,
      "inputs": [
        {
          "indexed": false,
          "name": "owner",
          "type": "address"
        },
        {
          "indexed": false,
          "name": "amount",
          "type": "uint256"
        }
      ],
      "name": "Withdraw",
      "type": "event"
    },
    {
      "anonymous": false,
      "inputs": [
        {
          "indexed": false,
          "name": "user",
          "type": "address"
        },
        {
          "indexed": false,
          "name": "amount",
          "type": "uint256"
        },
        {
          "indexed": false,
          "name": "ref",
          "type": "bytes32"
        }
      ],
      "name": "Reward",
      "type": "event"
    },
    {
      "anonymous": false,
      "inputs": [
        {
          "indexed": false,
          "name": "user",
          "type": "address"
        },
        {
          "indexed": false,
          "name": "amount",
          "type": "uint256"
        },
        {
          "indexed": false,
          "name": "ref",
          "type": "bytes32"
        }
      ],
      "name": "Seize",
      "type": "event"
    },
    {
      "anonymous": false,
      "inputs": [
        {
          "indexed": false,
          "name": "user",
          "type": "address"
        },
        {
          "indexed": false,
          "name": "amount",
          "type": "uint256"
        }
      ],
      "name": "Lock",
      "type": "event"
    },
    {
      "anonymous": false,
      "inputs": [
        {
          "indexed": false,
          "name": "user",
          "type": "address"
        },
        {
          "indexed": false,
          "name": "amount",
          "type": "uint256"
        }
      ],
      "name": "Unlock",
      "type": "event"
    },
    {
      "constant": true,
      "inputs": [
        {
          "name": "_id",
          "type": "bytes32"
        }
      ],
      "name": "viewRequestDeals",
      "outputs": [
        {
          "name": "requestdeals",
          "type": "bytes32[]"
        }
      ],
      "payable": false,
      "stateMutability": "view",
      "type": "function"
    },
    {
      "constant": true,
      "inputs": [
        {
          "name": "_id",
          "type": "bytes32"
        }
      ],
      "name": "viewDeal",
      "outputs": [
        {
          "components": [
            {
              "components": [
                {
                  "name": "pointer",
                  "type": "address"
                },
                {
                  "name": "owner",
                  "type": "address"
                },
                {
                  "name": "price",
                  "type": "uint256"
                }
              ],
              "name": "app",
              "type": "tuple"
            },
            {
              "components": [
                {
                  "name": "pointer",
                  "type": "address"
                },
                {
                  "name": "owner",
                  "type": "address"
                },
                {
                  "name": "price",
                  "type": "uint256"
                }
              ],
              "name": "dataset",
              "type": "tuple"
            },
            {
              "components": [
                {
                  "name": "pointer",
                  "type": "address"
                },
                {
                  "name": "owner",
                  "type": "address"
                },
                {
                  "name": "price",
                  "type": "uint256"
                }
              ],
              "name": "workerpool",
              "type": "tuple"
            },
            {
              "name": "trust",
              "type": "uint256"
            },
            {
              "name": "category",
              "type": "uint256"
            },
            {
              "name": "tag",
              "type": "bytes32"
            },
            {
              "name": "requester",
              "type": "address"
            },
            {
              "name": "beneficiary",
              "type": "address"
            },
            {
              "name": "callback",
              "type": "address"
            },
            {
              "name": "params",
              "type": "string"
            },
            {
              "name": "startTime",
              "type": "uint256"
            },
            {
              "name": "botFirst",
              "type": "uint256"
            },
            {
              "name": "botSize",
              "type": "uint256"
            },
            {
              "name": "workerStake",
              "type": "uint256"
            },
            {
              "name": "schedulerRewardRatio",
              "type": "uint256"
            }
          ],
          "name": "deal",
          "type": "tuple"
        }
      ],
      "payable": false,
      "stateMutability": "view",
      "type": "function"
    },
    {
      "constant": true,
      "inputs": [
        {
          "name": "_id",
          "type": "bytes32"
        }
      ],
      "name": "viewConsumed",
      "outputs": [
        {
          "name": "consumed",
          "type": "uint256"
        }
      ],
      "payable": false,
      "stateMutability": "view",
      "type": "function"
    },
    {
      "constant": true,
      "inputs": [
        {
          "name": "_id",
          "type": "bytes32"
        }
      ],
      "name": "viewPresigned",
      "outputs": [
        {
          "name": "presigned",
          "type": "bool"
        }
      ],
      "payable": false,
      "stateMutability": "view",
      "type": "function"
    },
    {
      "constant": false,
      "inputs": [
        {
          "components": [
            {
              "name": "app",
              "type": "address"
            },
            {
              "name": "appprice",
              "type": "uint256"
            },
            {
              "name": "volume",
              "type": "uint256"
            },
            {
              "name": "tag",
              "type": "bytes32"
            },
            {
              "name": "datasetrestrict",
              "type": "address"
            },
            {
              "name": "workerpoolrestrict",
              "type": "address"
            },
            {
              "name": "requesterrestrict",
              "type": "address"
            },
            {
              "name": "salt",
              "type": "bytes32"
            },
            {
              "name": "sign",
              "type": "bytes"
            }
          ],
          "name": "_apporder",
          "type": "tuple"
        }
      ],
      "name": "signAppOrder",
      "outputs": [
        {
          "name": "",
          "type": "bool"
        }
      ],
      "payable": false,
      "stateMutability": "nonpayable",
      "type": "function"
    },
    {
      "constant": false,
      "inputs": [
        {
          "components": [
            {
              "name": "dataset",
              "type": "address"
            },
            {
              "name": "datasetprice",
              "type": "uint256"
            },
            {
              "name": "volume",
              "type": "uint256"
            },
            {
              "name": "tag",
              "type": "bytes32"
            },
            {
              "name": "apprestrict",
              "type": "address"
            },
            {
              "name": "workerpoolrestrict",
              "type": "address"
            },
            {
              "name": "requesterrestrict",
              "type": "address"
            },
            {
              "name": "salt",
              "type": "bytes32"
            },
            {
              "name": "sign",
              "type": "bytes"
            }
          ],
          "name": "_datasetorder",
          "type": "tuple"
        }
      ],
      "name": "signDatasetOrder",
      "outputs": [
        {
          "name": "",
          "type": "bool"
        }
      ],
      "payable": false,
      "stateMutability": "nonpayable",
      "type": "function"
    },
    {
      "constant": false,
      "inputs": [
        {
          "components": [
            {
              "name": "workerpool",
              "type": "address"
            },
            {
              "name": "workerpoolprice",
              "type": "uint256"
            },
            {
              "name": "volume",
              "type": "uint256"
            },
            {
              "name": "tag",
              "type": "bytes32"
            },
            {
              "name": "category",
              "type": "uint256"
            },
            {
              "name": "trust",
              "type": "uint256"
            },
            {
              "name": "apprestrict",
              "type": "address"
            },
            {
              "name": "datasetrestrict",
              "type": "address"
            },
            {
              "name": "requesterrestrict",
              "type": "address"
            },
            {
              "name": "salt",
              "type": "bytes32"
            },
            {
              "name": "sign",
              "type": "bytes"
            }
          ],
          "name": "_workerpoolorder",
          "type": "tuple"
        }
      ],
      "name": "signWorkerpoolOrder",
      "outputs": [
        {
          "name": "",
          "type": "bool"
        }
      ],
      "payable": false,
      "stateMutability": "nonpayable",
      "type": "function"
    },
    {
      "constant": false,
      "inputs": [
        {
          "components": [
            {
              "name": "app",
              "type": "address"
            },
            {
              "name": "appmaxprice",
              "type": "uint256"
            },
            {
              "name": "dataset",
              "type": "address"
            },
            {
              "name": "datasetmaxprice",
              "type": "uint256"
            },
            {
              "name": "workerpool",
              "type": "address"
            },
            {
              "name": "workerpoolmaxprice",
              "type": "uint256"
            },
            {
              "name": "requester",
              "type": "address"
            },
            {
              "name": "volume",
              "type": "uint256"
            },
            {
              "name": "tag",
              "type": "bytes32"
            },
            {
              "name": "category",
              "type": "uint256"
            },
            {
              "name": "trust",
              "type": "uint256"
            },
            {
              "name": "beneficiary",
              "type": "address"
            },
            {
              "name": "callback",
              "type": "address"
            },
            {
              "name": "params",
              "type": "string"
            },
            {
              "name": "salt",
              "type": "bytes32"
            },
            {
              "name": "sign",
              "type": "bytes"
            }
          ],
          "name": "_requestorder",
          "type": "tuple"
        }
      ],
      "name": "signRequestOrder",
      "outputs": [
        {
          "name": "",
          "type": "bool"
        }
      ],
      "payable": false,
      "stateMutability": "nonpayable",
      "type": "function"
    },
    {
      "constant": false,
      "inputs": [
        {
          "components": [
            {
              "name": "app",
              "type": "address"
            },
            {
              "name": "appprice",
              "type": "uint256"
            },
            {
              "name": "volume",
              "type": "uint256"
            },
            {
              "name": "tag",
              "type": "bytes32"
            },
            {
              "name": "datasetrestrict",
              "type": "address"
            },
            {
              "name": "workerpoolrestrict",
              "type": "address"
            },
            {
              "name": "requesterrestrict",
              "type": "address"
            },
            {
              "name": "salt",
              "type": "bytes32"
            },
            {
              "name": "sign",
              "type": "bytes"
            }
          ],
          "name": "_apporder",
          "type": "tuple"
        },
        {
          "components": [
            {
              "name": "dataset",
              "type": "address"
            },
            {
              "name": "datasetprice",
              "type": "uint256"
            },
            {
              "name": "volume",
              "type": "uint256"
            },
            {
              "name": "tag",
              "type": "bytes32"
            },
            {
              "name": "apprestrict",
              "type": "address"
            },
            {
              "name": "workerpoolrestrict",
              "type": "address"
            },
            {
              "name": "requesterrestrict",
              "type": "address"
            },
            {
              "name": "salt",
              "type": "bytes32"
            },
            {
              "name": "sign",
              "type": "bytes"
            }
          ],
          "name": "_datasetorder",
          "type": "tuple"
        },
        {
          "components": [
            {
              "name": "workerpool",
              "type": "address"
            },
            {
              "name": "workerpoolprice",
              "type": "uint256"
            },
            {
              "name": "volume",
              "type": "uint256"
            },
            {
              "name": "tag",
              "type": "bytes32"
            },
            {
              "name": "category",
              "type": "uint256"
            },
            {
              "name": "trust",
              "type": "uint256"
            },
            {
              "name": "apprestrict",
              "type": "address"
            },
            {
              "name": "datasetrestrict",
              "type": "address"
            },
            {
              "name": "requesterrestrict",
              "type": "address"
            },
            {
              "name": "salt",
              "type": "bytes32"
            },
            {
              "name": "sign",
              "type": "bytes"
            }
          ],
          "name": "_workerpoolorder",
          "type": "tuple"
        },
        {
          "components": [
            {
              "name": "app",
              "type": "address"
            },
            {
              "name": "appmaxprice",
              "type": "uint256"
            },
            {
              "name": "dataset",
              "type": "address"
            },
            {
              "name": "datasetmaxprice",
              "type": "uint256"
            },
            {
              "name": "workerpool",
              "type": "address"
            },
            {
              "name": "workerpoolmaxprice",
              "type": "uint256"
            },
            {
              "name": "requester",
              "type": "address"
            },
            {
              "name": "volume",
              "type": "uint256"
            },
            {
              "name": "tag",
              "type": "bytes32"
            },
            {
              "name": "category",
              "type": "uint256"
            },
            {
              "name": "trust",
              "type": "uint256"
            },
            {
              "name": "beneficiary",
              "type": "address"
            },
            {
              "name": "callback",
              "type": "address"
            },
            {
              "name": "params",
              "type": "string"
            },
            {
              "name": "salt",
              "type": "bytes32"
            },
            {
              "name": "sign",
              "type": "bytes"
            }
          ],
          "name": "_requestorder",
          "type": "tuple"
        }
      ],
      "name": "matchOrders",
      "outputs": [
        {
          "name": "",
          "type": "bytes32"
        }
      ],
      "payable": false,
      "stateMutability": "nonpayable",
      "type": "function"
    },
    {
      "constant": false,
      "inputs": [
        {
          "components": [
            {
              "name": "app",
              "type": "address"
            },
            {
              "name": "appprice",
              "type": "uint256"
            },
            {
              "name": "volume",
              "type": "uint256"
            },
            {
              "name": "tag",
              "type": "bytes32"
            },
            {
              "name": "datasetrestrict",
              "type": "address"
            },
            {
              "name": "workerpoolrestrict",
              "type": "address"
            },
            {
              "name": "requesterrestrict",
              "type": "address"
            },
            {
              "name": "salt",
              "type": "bytes32"
            },
            {
              "name": "sign",
              "type": "bytes"
            }
          ],
          "name": "_apporder",
          "type": "tuple"
        }
      ],
      "name": "cancelAppOrder",
      "outputs": [
        {
          "name": "",
          "type": "bool"
        }
      ],
      "payable": false,
      "stateMutability": "nonpayable",
      "type": "function"
    },
    {
      "constant": false,
      "inputs": [
        {
          "components": [
            {
              "name": "dataset",
              "type": "address"
            },
            {
              "name": "datasetprice",
              "type": "uint256"
            },
            {
              "name": "volume",
              "type": "uint256"
            },
            {
              "name": "tag",
              "type": "bytes32"
            },
            {
              "name": "apprestrict",
              "type": "address"
            },
            {
              "name": "workerpoolrestrict",
              "type": "address"
            },
            {
              "name": "requesterrestrict",
              "type": "address"
            },
            {
              "name": "salt",
              "type": "bytes32"
            },
            {
              "name": "sign",
              "type": "bytes"
            }
          ],
          "name": "_datasetorder",
          "type": "tuple"
        }
      ],
      "name": "cancelDatasetOrder",
      "outputs": [
        {
          "name": "",
          "type": "bool"
        }
      ],
      "payable": false,
      "stateMutability": "nonpayable",
      "type": "function"
    },
    {
      "constant": false,
      "inputs": [
        {
          "components": [
            {
              "name": "workerpool",
              "type": "address"
            },
            {
              "name": "workerpoolprice",
              "type": "uint256"
            },
            {
              "name": "volume",
              "type": "uint256"
            },
            {
              "name": "tag",
              "type": "bytes32"
            },
            {
              "name": "category",
              "type": "uint256"
            },
            {
              "name": "trust",
              "type": "uint256"
            },
            {
              "name": "apprestrict",
              "type": "address"
            },
            {
              "name": "datasetrestrict",
              "type": "address"
            },
            {
              "name": "requesterrestrict",
              "type": "address"
            },
            {
              "name": "salt",
              "type": "bytes32"
            },
            {
              "name": "sign",
              "type": "bytes"
            }
          ],
          "name": "_workerpoolorder",
          "type": "tuple"
        }
      ],
      "name": "cancelWorkerpoolOrder",
      "outputs": [
        {
          "name": "",
          "type": "bool"
        }
      ],
      "payable": false,
      "stateMutability": "nonpayable",
      "type": "function"
    },
    {
      "constant": false,
      "inputs": [
        {
          "components": [
            {
              "name": "app",
              "type": "address"
            },
            {
              "name": "appmaxprice",
              "type": "uint256"
            },
            {
              "name": "dataset",
              "type": "address"
            },
            {
              "name": "datasetmaxprice",
              "type": "uint256"
            },
            {
              "name": "workerpool",
              "type": "address"
            },
            {
              "name": "workerpoolmaxprice",
              "type": "uint256"
            },
            {
              "name": "requester",
              "type": "address"
            },
            {
              "name": "volume",
              "type": "uint256"
            },
            {
              "name": "tag",
              "type": "bytes32"
            },
            {
              "name": "category",
              "type": "uint256"
            },
            {
              "name": "trust",
              "type": "uint256"
            },
            {
              "name": "beneficiary",
              "type": "address"
            },
            {
              "name": "callback",
              "type": "address"
            },
            {
              "name": "params",
              "type": "string"
            },
            {
              "name": "salt",
              "type": "bytes32"
            },
            {
              "name": "sign",
              "type": "bytes"
            }
          ],
          "name": "_requestorder",
          "type": "tuple"
        }
      ],
      "name": "cancelRequestOrder",
      "outputs": [
        {
          "name": "",
          "type": "bool"
        }
      ],
      "payable": false,
      "stateMutability": "nonpayable",
      "type": "function"
    },
    {
      "constant": false,
      "inputs": [
        {
          "name": "_dealid",
          "type": "bytes32"
        },
        {
          "name": "_worker",
          "type": "address"
        }
      ],
      "name": "lockContribution",
      "outputs": [],
      "payable": false,
      "stateMutability": "nonpayable",
      "type": "function"
    },
    {
      "constant": false,
      "inputs": [
        {
          "name": "_dealid",
          "type": "bytes32"
        },
        {
          "name": "_worker",
          "type": "address"
        }
      ],
      "name": "unlockContribution",
      "outputs": [],
      "payable": false,
      "stateMutability": "nonpayable",
      "type": "function"
    },
    {
      "constant": false,
      "inputs": [
        {
          "name": "_dealid",
          "type": "bytes32"
        },
        {
          "name": "_worker",
          "type": "address"
        },
        {
          "name": "_amount",
          "type": "uint256"
        },
        {
          "name": "_taskid",
          "type": "bytes32"
        }
      ],
      "name": "unlockAndRewardForContribution",
      "outputs": [],
      "payable": false,
      "stateMutability": "nonpayable",
      "type": "function"
    },
    {
      "constant": false,
      "inputs": [
        {
          "name": "_dealid",
          "type": "bytes32"
        },
        {
          "name": "_worker",
          "type": "address"
        },
        {
          "name": "_taskid",
          "type": "bytes32"
        }
      ],
      "name": "seizeContribution",
      "outputs": [],
      "payable": false,
      "stateMutability": "nonpayable",
      "type": "function"
    },
    {
      "constant": false,
      "inputs": [
        {
          "name": "_dealid",
          "type": "bytes32"
        },
        {
          "name": "_amount",
          "type": "uint256"
        },
        {
          "name": "_taskid",
          "type": "bytes32"
        }
      ],
      "name": "rewardForScheduling",
      "outputs": [],
      "payable": false,
      "stateMutability": "nonpayable",
      "type": "function"
    },
    {
      "constant": false,
      "inputs": [
        {
          "name": "_dealid",
          "type": "bytes32"
        },
        {
          "name": "_taskid",
          "type": "bytes32"
        }
      ],
      "name": "successWork",
      "outputs": [],
      "payable": false,
      "stateMutability": "nonpayable",
      "type": "function"
    },
    {
      "constant": false,
      "inputs": [
        {
          "name": "_dealid",
          "type": "bytes32"
        },
        {
          "name": "_taskid",
          "type": "bytes32"
        }
      ],
      "name": "failedWork",
      "outputs": [],
      "payable": false,
      "stateMutability": "nonpayable",
      "type": "function"
    },
    {
      "constant": true,
      "inputs": [
        {
          "name": "_id",
          "type": "bytes32"
        }
      ],
      "name": "viewDealABILegacy_pt1",
      "outputs": [
        {
          "name": "",
          "type": "address"
        },
        {
          "name": "",
          "type": "address"
        },
        {
          "name": "",
          "type": "uint256"
        },
        {
          "name": "",
          "type": "address"
        },
        {
          "name": "",
          "type": "address"
        },
        {
          "name": "",
          "type": "uint256"
        },
        {
          "name": "",
          "type": "address"
        },
        {
          "name": "",
          "type": "address"
        },
        {
          "name": "",
          "type": "uint256"
        }
      ],
      "payable": false,
      "stateMutability": "view",
      "type": "function"
    },
    {
      "constant": true,
      "inputs": [
        {
          "name": "_id",
          "type": "bytes32"
        }
      ],
      "name": "viewDealABILegacy_pt2",
      "outputs": [
        {
          "name": "",
          "type": "uint256"
        },
        {
          "name": "",
          "type": "bytes32"
        },
        {
          "name": "",
          "type": "address"
        },
        {
          "name": "",
          "type": "address"
        },
        {
          "name": "",
          "type": "address"
        },
        {
          "name": "",
          "type": "string"
        }
      ],
      "payable": false,
      "stateMutability": "view",
      "type": "function"
    },
    {
      "constant": true,
      "inputs": [
        {
          "name": "_id",
          "type": "bytes32"
        }
      ],
      "name": "viewConfigABILegacy",
      "outputs": [
        {
          "name": "",
          "type": "uint256"
        },
        {
          "name": "",
          "type": "uint256"
        },
        {
          "name": "",
          "type": "uint256"
        },
        {
          "name": "",
          "type": "uint256"
        },
        {
          "name": "",
          "type": "uint256"
        },
        {
          "name": "",
          "type": "uint256"
        }
      ],
      "payable": false,
      "stateMutability": "view",
      "type": "function"
    },
    {
      "constant": true,
      "inputs": [
        {
          "name": "_user",
          "type": "address"
        }
      ],
      "name": "viewAccountABILegacy",
      "outputs": [
        {
          "name": "",
          "type": "uint256"
        },
        {
          "name": "",
          "type": "uint256"
        }
      ],
      "payable": false,
      "stateMutability": "view",
      "type": "function"
    }
  ],
  "bytecode": "0x60806040523480156200001157600080fd5b50604051604080620050e48339810180604052620000339190810190620001b7565b816001600160a01b0381166200004857600080fd5b600180546001600160a01b0319166001600160a01b03929092169190911790556040805160c0810182526008608082019081527f69457865634f444200000000000000000000000000000000000000000000000060a0830152815281518083018352600981527f332e302d616c706861000000000000000000000000000000000000000000000060208083019190915282015280820183905230606082015290517feca34ccf00000000000000000000000000000000000000000000000000000000815273__IexecODBLibOrders_____________________9163eca34ccf91620001379190600401620002e5565b60206040518083038186803b1580156200015057600080fd5b505af415801562000165573d6000803e3d6000fd5b505050506040513d601f19601f820116820180604052506200018b9190810190620001f6565b600655506200038a9050565b8051620001a48162000365565b92915050565b8051620001a4816200037f565b60008060408385031215620001cb57600080fd5b6000620001d9858562000197565b9250506020620001ec85828601620001aa565b9150509250929050565b6000602082840312156200020957600080fd5b6000620002178484620001aa565b949350505050565b6200022a816200030c565b82525050565b60006200023d82620002ff565b62000249818562000303565b93506200025b81856020860162000328565b62000266816200035b565b9093019392505050565b80516080808452600091908401906200028a828262000230565b91505060208301518482036020860152620002a6828262000230565b9150506040830151620002bd6040860182620002da565b506060830151620002d260608601826200021f565b509392505050565b6200022a8162000319565b60208082528101620002f8818462000270565b9392505050565b5190565b90815260200190565b6000620001a4826200031c565b90565b6001600160a01b031690565b60005b83811015620003455781810151838201526020016200032b565b8381111562000355576000848401525b50505050565b601f01601f191690565b62000370816200030c565b81146200037c57600080fd5b50565b620003708162000319565b614d4a806200039a6000396000f3fe6080604052600436106102675760003560e01c806370c4c27711610144578063b31231de116100b6578063d0e30db01161007a578063d0e30db014610789578063d286eb1614610791578063d5922f50146107b1578063e2e7a8c1146107e3578063e3035ace146107f8578063e798491a1461081857610267565b8063b31231de146106b5578063b74861b2146106d5578063bd19a4f314610702578063c52e9de114610737578063ce5f78951461075757610267565b80639f0c9d6e116101085780639f0c9d6e14610602578063a1f3496c14610622578063a3b37a7914610642578063a3f0ec5814610662578063aa67c91914610682578063ae510d191461069557610267565b806370c4c27714610560578063732e498d1461058057806384724ddf146105a05780638d52e413146105c0578063947f5178146105e257610267565b806351152de1116101dd5780636a6e0bed116101a15780636a6e0bed146104a65780636b55f4a5146104c65780636cb9012e146104f35780636dc2df05146105135780636eb528b514610540578063709ce02b146103f957610267565b806351152de11461040e57806351a0942f14610423578063555859c7146104435780635b3ae3e41461046357806368a9ef1c1461049157610267565b806338a754b41161022f57806338a754b41461035757806343f2c970146103775780634693d172146103975780634b2bec8c146103b95780634c4692de146103d95780634ec3b9e3146103f957610267565b806301751998146102ac578063047411e7146102e2578063156194d4146103045780632e1a7d4d146103245780633354f8a514610344575b6102713334610838565b7fe1fffcc4923d04b559f4d29a8bfc6cda04eb5b0d3c460751c2402c5c5cc9109c33346040516102a2929190614959565b60405180910390a1005b3480156102b857600080fd5b506102cc6102c7366004614004565b610881565b6040516102d99190614a84565b60405180910390f35b3480156102ee57600080fd5b506102f761091f565b6040516102d99190614a92565b34801561031057600080fd5b506102f761031f3660046142a4565b610925565b34801561033057600080fd5b506102cc61033f3660046140f4565b61199a565b6102cc610352366004614068565b611a3a565b34801561036357600080fd5b506102cc610372366004614354565b611b83565b34801561038357600080fd5b506102cc6103923660046140f4565b611d19565b3480156103a357600080fd5b506103b76103b2366004614354565b611d2e565b005b3480156103c557600080fd5b506102f76103d43660046140f4565b611d68565b3480156103e557600080fd5b506103b76103f4366004614270565b611d7a565b34801561040557600080fd5b506102f7611da9565b34801561041a57600080fd5b506102f7611dae565b34801561042f57600080fd5b506103b761043e36600461420e565b611db3565b34801561044f57600080fd5b506102cc61045e366004614270565b611e6e565b34801561046f57600080fd5b5061048361047e366004613fc8565b61205e565b6040516102d9929190614aa0565b34801561049d57600080fd5b506102f76120a2565b3480156104b257600080fd5b506102cc6104c1366004614388565b6120a7565b3480156104d257600080fd5b506104e66104e1366004613fc8565b612280565b6040516102d99190614b6b565b3480156104ff57600080fd5b506102cc61050e366004614270565b6122b9565b34801561051f57600080fd5b5061053361052e3660046140f4565b612390565b6040516102d99190614a73565b34801561054c57600080fd5b506103b761055b366004614130565b6123f2565b34801561056c57600080fd5b506103b761057b36600461420e565b61242a565b34801561058c57600080fd5b506102cc61059b366004614354565b6125c5565b3480156105ac57600080fd5b506102cc6105bb366004614270565b61262c565b3480156105cc57600080fd5b506105d561281c565b6040516102d99190614b5d565b3480156105ee57600080fd5b506103b76105fd366004614388565b61282b565b34801561060e57600080fd5b506103b761061d36600461416a565b61285a565b34801561062e57600080fd5b506103b761063d36600461423e565b612894565b34801561064e57600080fd5b506102cc61065d366004614270565b6128d1565b34801561066e57600080fd5b506103b761067d3660046141ad565b6129a8565b6102cc610690366004613fc8565b6129ed565b3480156106a157600080fd5b506102cc6106b0366004614388565b612a3f565b3480156106c157600080fd5b506102f76106d036600461420e565b612c2f565b3480156106e157600080fd5b506106f56106f03660046140f4565b612c5d565b6040516102d99190614b8a565b34801561070e57600080fd5b5061072261071d3660046140f4565b612e20565b6040516102d9999897969594939291906149b7565b34801561074357600080fd5b506103b7610752366004614270565b61305d565b34801561076357600080fd5b506107776107723660046140f4565b61308c565b6040516102d996959493929190614bbd565b6102cc61328d565b34801561079d57600080fd5b506102cc6107ac3660046140f4565b6132d9565b3480156107bd57600080fd5b506107d16107cc3660046140f4565b6132ee565b6040516102d996959493929190614aae565b3480156107ef57600080fd5b506102f76134ee565b34801561080457600080fd5b506102f76108133660046140f4565b6134f6565b34801561082457600080fd5b506103b7610833366004614130565b613508565b6001600160a01b038216600090815260208190526040902054610861908263ffffffff61353c16565b6001600160a01b0390921660009081526020819052604090209190915550565b600061088e848484613557565b806109155750604051600160e11b630b135d3f0281526001600160a01b03851690631626ba7e906108c59086908690600401614b08565b60206040518083038186803b1580156108dd57600080fd5b505afa1580156108f1573d6000803e3d6000fd5b505050506040513d601f19601f8201168201806040525061091591908101906140d6565b90505b9392505050565b60065481565b600082608001518261012001511461093c57600080fd5b8260a00151826101400151111561095257600080fd5b84602001518260200151101561096757600080fd5b83602001518260600151101561097c57600080fd5b82602001518260a00151101561099157600080fd5b826060015119826101000151856060015187606001511717166000801b146109b857600080fd5b845182516001600160a01b039081169116146109d357600080fd5b83600001516001600160a01b031682604001516001600160a01b0316146109f957600080fd5b60808201516001600160a01b03161580610a225750610a2282608001518460000151600461362c565b610a2b57600080fd5b60808501516001600160a01b03161580610a545750610a5485608001518560000151600461362c565b610a5d57600080fd5b60a08501516001600160a01b03161580610a865750610a868560a001518460000151600461362c565b610a8f57600080fd5b60c08501516001600160a01b03161580610ab85750610ab88560c001518360c00151600461362c565b610ac157600080fd5b60808401516001600160a01b03161580610aea5750610aea84608001518660000151600461362c565b610af357600080fd5b60a08401516001600160a01b03161580610b1c5750610b1c8460a001518460000151600461362c565b610b2557600080fd5b60c08401516001600160a01b03161580610b4e5750610b4e8460c001518360c00151600461362c565b610b5757600080fd5b60c08301516001600160a01b03161580610b805750610b808360c001518660000151600461362c565b610b8957600080fd5b60e08301516001600160a01b03161580610bb25750610bb28360e001518560000151600461362c565b610bbb57600080fd5b6101008301516001600160a01b03161580610be65750610be68361010001518360c00151600461362c565b610bef57600080fd5b600154855185518551604051600160e01b63097d630d0281526001600160a01b039094169363097d630d93610c2a939092909160040161499c565b60206040518083038186803b158015610c4257600080fd5b505afa158015610c56573d6000803e3d6000fd5b505050506040513d601f19601f82011682018060405250610c7a91908101906140d6565b610c8357600080fd5b610c8b613992565b84516001600160a01b0316151560e0820152604051600160e01b630495132902815273__IexecODBLibOrders_____________________90630495132990610cd7908990600401614b79565b60206040518083038186803b158015610cef57600080fd5b505af4158015610d03573d6000803e3d6000fd5b505050506040513d601f19601f82011682018060405250610d279190810190614112565b600654604051600160e01b63176eaa4902815273__IexecODBLibOrders_____________________9263176eaa4992610d6292600401614aa0565b60206040518083038186803b158015610d7a57600080fd5b505af4158015610d8e573d6000803e3d6000fd5b505050506040513d601f19601f82011682018060405250610db29190810190614112565b81600001818152505085600001516001600160a01b0316638da5cb5b6040518163ffffffff1660e01b815260040160206040518083038186803b158015610df857600080fd5b505afa158015610e0c573d6000803e3d6000fd5b505050506040513d601f19601f82011682018060405250610e309190810190613fe6565b6001600160a01b031660208083019190915281516000908152600a909152604090205460ff1680610e745750610e7481602001518260000151886101000151610881565b610e7d57600080fd5b8060e001511561106457604051600160e21b630af531cd02815273__IexecODBLibOrders_____________________90632bd4c73490610ec1908890600401614b79565b60206040518083038186803b158015610ed957600080fd5b505af4158015610eed573d6000803e3d6000fd5b505050506040513d601f19601f82011682018060405250610f119190810190614112565b600654604051600160e01b63176eaa4902815273__IexecODBLibOrders_____________________9263176eaa4992610f4c92600401614aa0565b60206040518083038186803b158015610f6457600080fd5b505af4158015610f78573d6000803e3d6000fd5b505050506040513d601f19601f82011682018060405250610f9c9190810190614112565b81604001818152505084600001516001600160a01b0316638da5cb5b6040518163ffffffff1660e01b815260040160206040518083038186803b158015610fe257600080fd5b505afa158015610ff6573d6000803e3d6000fd5b505050506040513d601f19601f8201168201806040525061101a9190810190613fe6565b6001600160a01b031660608201526040808201516000908152600a602052205460ff168061105b575061105b81606001518260400151876101000151610881565b61106457600080fd5b604051600160e11b632c5a82c302815273__IexecODBLibOrders_____________________906358b505869061109e908790600401614bac565b60206040518083038186803b1580156110b657600080fd5b505af41580156110ca573d6000803e3d6000fd5b505050506040513d601f19601f820116820180604052506110ee9190810190614112565b600654604051600160e01b63176eaa4902815273__IexecODBLibOrders_____________________9263176eaa499261112992600401614aa0565b60206040518083038186803b15801561114157600080fd5b505af4158015611155573d6000803e3d6000fd5b505050506040513d601f19601f820116820180604052506111799190810190614112565b81608001818152505083600001516001600160a01b0316638da5cb5b6040518163ffffffff1660e01b815260040160206040518083038186803b1580156111bf57600080fd5b505afa1580156111d3573d6000803e3d6000fd5b505050506040513d601f19601f820116820180604052506111f79190810190613fe6565b6001600160a01b031660a082015260808101516000908152600a602052604090205460ff168061123a575061123a8160a001518260800151866101400151610881565b61124357600080fd5b604051600160e11b630409a12702815273__IexecODBLibOrders_____________________90630813424e9061127d908690600401614b9b565b60206040518083038186803b15801561129557600080fd5b505af41580156112a9573d6000803e3d6000fd5b505050506040513d601f19601f820116820180604052506112cd9190810190614112565b600654604051600160e01b63176eaa4902815273__IexecODBLibOrders_____________________9263176eaa499261130892600401614aa0565b60206040518083038186803b15801561132057600080fd5b505af4158015611334573d6000803e3d6000fd5b505050506040513d601f19601f820116820180604052506113589190810190614112565b60c082018190526000908152600a602052604090205460ff168061138f575061138f8360c001518260c00151856101e00151610881565b61139857600080fd5b805160009081526009602052604080822054908801516113bd9163ffffffff61367f16565b90508160e001516113ce5780611407565b604080830151600090815260096020528190205490870151611407916113fa919063ffffffff61367f16565b829063ffffffff61369416565b6080830151600090815260096020526040908190205490870151919250611437916113fa9163ffffffff61367f16565b60c083015160009081526009602052604090205460e0860151919250611466916113fa9163ffffffff61367f16565b90506000811161147557600080fd5b60c08201516000818152600960209081526040808320549051929361149c93909201614933565b60408051808303601f190181529181528151602092830120600081815260088452919091208a5181546001600160a01b03199081166001600160a01b03928316178355878501516001840180548316918416919091179055938c01516002830155606087015160048301805486169183169190911790558a5160038301805490951691161790925560e085015190925061153757600061153d565b87602001515b600582015586516006820180546001600160a01b039283166001600160a01b03199182161790915560a08601516007840180549190931691161790556020870151600882015561014086015161159a90600163ffffffff6136aa16565b6009820155610120860151600a8201556101008601516060808a0151908b01511717600b82015560c0860151600c820180546001600160a01b039283166001600160a01b031991821617909155610160880151600d84018054918416918316919091179055610180880151600e840180549190931691161790556101a0860151805161163091600f8401916020909101906139d6565b5042601082015560c08401516000908152600960209081526040918290205460118401556012830185905588518251600160e01b63b55e75af02815292516116e8936001600160a01b039092169263b55e75af9260048082019391829003018186803b15801561169f57600080fd5b505afa1580156116b3573d6000803e3d6000fd5b505050506040513d601f19601f820116820180604052506116d79190810190614112565b60208901519063ffffffff6136ba16565b816013018190555086600001516001600160a01b03166387639c686040518163ffffffff1660e01b815260040160206040518083038186803b15801561172d57600080fd5b505afa158015611741573d6000803e3d6000fd5b505050506040513d601f19601f820116820180604052506117659190810190614112565b601482015560c084015160009081526007602090815260408083208054600181018255908452828420018590558651835260099091529020546117ae908463ffffffff61353c16565b845160009081526009602052604090205560e08401516117f3906117d35760006117d5565b835b6040808701516000908152600960205220549063ffffffff61353c16565b604080860151600090815260096020528181209290925560808601518252902054611824908463ffffffff61353c16565b60808501516000908152600960205260408082209290925560c086015181522054611855908463ffffffff61353c16565b60c0850151600090815260096020526040902055600c8101546008820154600583015460028401546118c3936001600160a01b0316926118be9288926118b292916118a6919063ffffffff61353c16565b9063ffffffff61353c16565b9063ffffffff6136c816565b6136ef565b600781015460088201546118f2916001600160a01b0316906118be9086906118b290601e63ffffffff6136ba16565b60068101546040516001600160a01b03909116907f692ad61076dceddd0f1a861f737553dd61fc8501cf4190d29c4e90af6607f76590611933908590614a92565b60405180910390a27fd811b592ed0899225773e8933d8df64bd0b62761a9d7aad4ed5b22735f4610a4828560000151866040015187608001518860c001518860405161198496959493929190614aae565b60405180910390a150925050505b949350505050565b336000908152602081905260408120546119ba908363ffffffff61367f16565b33600081815260208190526040808220939093559151909184156108fc02918591818181858888f193505050501580156119f8573d6000803e3d6000fd5b507f884edad9ce6fa2440d8a54cc123490eb96d2768479d49ff9c7366125a94243643383604051611a2a929190614959565b60405180910390a1506001919050565b6000838214611a4857600080fd5b3460005b85811015611b2c57611a79878783818110611a6357fe5b905060200201358361367f90919063ffffffff16565b9150611ab7858583818110611a8a57fe5b9050602002016020611a9f9190810190613fc8565b888884818110611aab57fe5b90506020020135610838565b7fcce62bfcdb09eddbe4e5ff5ec3bafdbabc25a52e1cf34f014a0a7a0864f9634c33888884818110611ae557fe5b90506020020135878785818110611af857fe5b9050602002016020611b0d9190810190613fc8565b604051611b1c93929190614974565b60405180910390a1600101611a4c565b508015611b7757611b3d3382610838565b7fe1fffcc4923d04b559f4d29a8bfc6cda04eb5b0d3c460751c2402c5c5cc9109c3382604051611b6e929190614959565b60405180910390a15b50600195945050505050565b604051600160e11b630409a127028152600090819073__IexecODBLibOrders_____________________90630813424e90611bc2908690600401614b9b565b60206040518083038186803b158015611bda57600080fd5b505af4158015611bee573d6000803e3d6000fd5b505050506040513d601f19601f82011682018060405250611c129190810190614112565b600654604051600160e01b63176eaa4902815273__IexecODBLibOrders_____________________9263176eaa4992611c4d92600401614aa0565b60206040518083038186803b158015611c6557600080fd5b505af4158015611c79573d6000803e3d6000fd5b505050506040513d601f19601f82011682018060405250611c9d9190810190614112565b90508260c001516001600160a01b0316336001600160a01b031614611cc157600080fd5b60e08301516000828152600960205260409081902091909155517f582f43f2a741cbe708aae3b8d38a4efc3d09d7e81919697b3ca693f4c444cc0590611d08908390614a92565b60405180910390a150600192915050565b60056020526000908152604090205460ff1681565b7f54bee205d9b03332d6dc82bc907476dfef6ed4fd86058d49a72994baee78117581604051611d5d9190614b9b565b60405180910390a150565b60009081526009602052604090205490565b7fc56d982ad2fd39ebadca073cc88d9bdaee0f4c8e7b2b6be50227169daefc7b3f81604051611d5d9190614b79565b601e81565b600a81565b6001546001600160a01b03163314611dca57600080fd5b600082815260086020819052604082209081015460058201546002830154929392611e0092916118a6919063ffffffff61353c16565b6008830154909150600090611e1c90601e63ffffffff6136ba16565b600c840154909150611e37906001600160a01b0316836137a4565b6007830154611e50906001600160a01b0316828661384f565b611e5c600082866138db565b611e676000826136ef565b5050505050565b604051600160e21b630af531cd028152600090819073__IexecODBLibOrders_____________________90632bd4c73490611ead908690600401614b79565b60206040518083038186803b158015611ec557600080fd5b505af4158015611ed9573d6000803e3d6000fd5b505050506040513d601f19601f82011682018060405250611efd9190810190614112565b600654604051600160e01b63176eaa4902815273__IexecODBLibOrders_____________________9263176eaa4992611f3892600401614aa0565b60206040518083038186803b158015611f5057600080fd5b505af4158015611f64573d6000803e3d6000fd5b505050506040513d601f19601f82011682018060405250611f889190810190614112565b905082600001516001600160a01b0316638da5cb5b6040518163ffffffff1660e01b815260040160206040518083038186803b158015611fc757600080fd5b505afa158015611fdb573d6000803e3d6000fd5b505050506040513d601f19601f82011682018060405250611fff9190810190613fe6565b6001600160a01b0316336001600160a01b03161461201c57600080fd5b6040808401516000838152600960205282902055517fcf52e3228bc482a6656d8ab56c09888b1c5bf6aaadba0185e96a34836f2bb1d490611d08908390614a92565b600080612069613a54565b5050506001600160a01b031660009081526020818152604091829020825180840190935280548084526001909101549290910182905291565b600481565b600081600001516001600160a01b0316638da5cb5b6040518163ffffffff1660e01b815260040160206040518083038186803b1580156120e657600080fd5b505afa1580156120fa573d6000803e3d6000fd5b505050506040513d601f19601f8201168201806040525061211e9190810190613fe6565b6001600160a01b0316336001600160a01b03161461213b57600080fd5b604051600160e11b632c5a82c3028152600190600a9060009073__IexecODBLibOrders_____________________906358b505869061217e908890600401614bac565b60206040518083038186803b15801561219657600080fd5b505af41580156121aa573d6000803e3d6000fd5b505050506040513d601f19601f820116820180604052506121ce9190810190614112565b600654604051600160e01b63176eaa4902815273__IexecODBLibOrders_____________________9263176eaa499261220992600401614aa0565b60206040518083038186803b15801561222157600080fd5b505af4158015612235573d6000803e3d6000fd5b505050506040513d601f19601f820116820180604052506122599190810190614112565b81526020810191909152604001600020805460ff1916911515919091179055506001919050565b612288613a54565b506001600160a01b031660009081526020818152604091829020825180840190935280548352600101549082015290565b600081600001516001600160a01b0316638da5cb5b6040518163ffffffff1660e01b815260040160206040518083038186803b1580156122f857600080fd5b505afa15801561230c573d6000803e3d6000fd5b505050506040513d601f19601f820116820180604052506123309190810190613fe6565b6001600160a01b0316336001600160a01b03161461234d57600080fd5b604051600160e01b6304951329028152600190600a9060009073__IexecODBLibOrders_____________________9063049513299061217e908890600401614b79565b6000818152600760209081526040918290208054835181840281018401909452808452606093928301828280156123e657602002820191906000526020600020905b8154815260200190600101908083116123d2575b50505050509050919050565b6001546001600160a01b0316331461240957600080fd5b6000828152600860205260409020601301546124269082906137a4565b5050565b6001546001600160a01b0316331461244157600080fd5b60008281526008602081905260408220908101546005820154600283015492939261247792916118a6919063ffffffff61353c16565b600883015490915060009061249390601e63ffffffff6136ba16565b600c8401549091506124af906001600160a01b0316838661384f565b6002830154156124d757600183015460028401546124d7916001600160a01b031690866138db565b6005830154158015906124f6575060038301546001600160a01b031615155b156125195760048301546005840154612519916001600160a01b031690866138db565b6007830154612531906001600160a01b0316826137a4565b60008080526020527fad3228b676f7d3cd4284a5443f17f1962b36e491b30a40b2405849e597ba5fb65480156125bd576125968161258a633b9aca0061257e83600a63ffffffff6136ba16565b9063ffffffff6136aa16565b9063ffffffff61369416565b90506125a46000828761384f565b60078401546125bd906001600160a01b031682876138db565b505050505050565b60008160c001516001600160a01b0316336001600160a01b0316146125e957600080fd5b604051600160e11b630409a127028152600190600a9060009073__IexecODBLibOrders_____________________90630813424e9061217e908890600401614b9b565b604051600160e01b6304951329028152600090819073__IexecODBLibOrders_____________________9063049513299061266b908690600401614b79565b60206040518083038186803b15801561268357600080fd5b505af4158015612697573d6000803e3d6000fd5b505050506040513d601f19601f820116820180604052506126bb9190810190614112565b600654604051600160e01b63176eaa4902815273__IexecODBLibOrders_____________________9263176eaa49926126f692600401614aa0565b60206040518083038186803b15801561270e57600080fd5b505af4158015612722573d6000803e3d6000fd5b505050506040513d601f19601f820116820180604052506127469190810190614112565b905082600001516001600160a01b0316638da5cb5b6040518163ffffffff1660e01b815260040160206040518083038186803b15801561278557600080fd5b505afa158015612799573d6000803e3d6000fd5b505050506040513d601f19601f820116820180604052506127bd9190810190613fe6565b6001600160a01b0316336001600160a01b0316146127da57600080fd5b6040808401516000838152600960205282902055517f7343f75be43aba524f85326508cd975d016ef7884676377366c69a7c32e3066890611d08908390614a92565b6001546001600160a01b031681565b7faf81a046e31ebb2be305579e585ac6b2ee3fdc2dc9dba806bb826879bb2c785181604051611d5d9190614bac565b6001546001600160a01b0316331461287157600080fd5b60008381526008602052604090206013015461288f9083908361384f565b505050565b6001546001600160a01b031633146128ab57600080fd5b60008381526008602052604090206007015461288f906001600160a01b031683836138db565b600081600001516001600160a01b0316638da5cb5b6040518163ffffffff1660e01b815260040160206040518083038186803b15801561291057600080fd5b505afa158015612924573d6000803e3d6000fd5b505050506040513d601f19601f820116820180604052506129489190810190613fe6565b6001600160a01b0316336001600160a01b03161461296557600080fd5b604051600160e21b630af531cd028152600190600a9060009073__IexecODBLibOrders_____________________90632bd4c7349061217e908890600401614b79565b6001546001600160a01b031633146129bf57600080fd5b6000848152600860205260409020601301546129dc9084906137a4565b6129e78383836138db565b50505050565b60006001600160a01b038216612a0257600080fd5b612a0c8234610838565b7fcce62bfcdb09eddbe4e5ff5ec3bafdbabc25a52e1cf34f014a0a7a0864f9634c333484604051611a2a93929190614974565b604051600160e11b632c5a82c3028152600090819073__IexecODBLibOrders_____________________906358b5058690612a7e908690600401614bac565b60206040518083038186803b158015612a9657600080fd5b505af4158015612aaa573d6000803e3d6000fd5b505050506040513d601f19601f82011682018060405250612ace9190810190614112565b600654604051600160e01b63176eaa4902815273__IexecODBLibOrders_____________________9263176eaa4992612b0992600401614aa0565b60206040518083038186803b158015612b2157600080fd5b505af4158015612b35573d6000803e3d6000fd5b505050506040513d601f19601f82011682018060405250612b599190810190614112565b905082600001516001600160a01b0316638da5cb5b6040518163ffffffff1660e01b815260040160206040518083038186803b158015612b9857600080fd5b505afa158015612bac573d6000803e3d6000fd5b505050506040513d601f19601f82011682018060405250612bd09190810190613fe6565b6001600160a01b0316336001600160a01b031614612bed57600080fd5b6040808401516000838152600960205282902055517f145ad51e4496173bca15e24e7eb46f9ab3a10eea0497e2801a3a6806c06113a390611d08908390614a92565b60036020528160005260406000208181548110612c4857fe5b90600052602060002001600091509150505481565b612c65613a6e565b60008281526008602081815260409283902083516102408101855281546001600160a01b039081166101e083019081526001808501548316610200850152600280860154610220860152918452875160608082018a5260038701548516825260048701548516828901526005870154828b01528588019190915288518082018a52600687015485168152600787015485168189015297860154888a015284890197909752600985015496840196909652600a8401546080840152600b84015460a0840152600c840154821660c0840152600d840154821660e0840152600e84015490911661010080840191909152600f840180548851978116159092026000190190911691909104601f810185900485028601850190965285855290949193610120860193909290830182828015612dde5780601f10612db357610100808354040283529160200191612dde565b820191906000526020600020905b815481529060010190602001808311612dc157829003601f168201915b50505050508152602001601082015481526020016011820154815260200160128201548152602001601382015481526020016014820154815250509050919050565b6000806000806000806000806000612e36613a6e565b60008b81526008602081815260409283902083516102408101855281546001600160a01b039081166101e083019081526001808501548316610200850152600280860154610220860152918452875160608082018a5260038701548516825260048701548516828901526005870154828b01528588019190915288518082018a52600687015485168152600787015485168189015297860154888a015284890197909752600985015496840196909652600a8401546080840152600b84015460a0840152600c840154821660c0840152600d840154821660e0840152600e84015490911661010080840191909152600f840180548851978116159092026000190190911691909104601f810185900485028601850190965285855290949193610120860193909290830182828015612faf5780601f10612f8457610100808354040283529160200191612faf565b820191906000526020600020905b815481529060010190602001808311612f9257829003601f168201915b50505050508152602001601082015481526020016011820154815260200160128201548152602001601382015481526020016014820154815250509050806000015160000151816000015160200151826000015160400151836020015160000151846020015160200151856020015160400151866040015160000151876040015160200151886040015160400151995099509950995099509950995099509950509193959799909294969850565b7f6fd493f856b22df174df46975d6dcf0895c7dfb3c63d20179c0dcd5563e2f56581604051611d5d9190614b79565b6000806000806000606061309e613a6e565b60008881526008602081815260409283902083516102408101855281546001600160a01b039081166101e083019081526001808501548316610200850152600280860154610220860152918452875160608082018a5260038701548516825260048701548516828901526005870154828b01528588019190915288518082018a52600687015485168152600787015485168189015297860154888a015284890197909752600985015496840196909652600a8401546080840152600b84015460a0840152600c840154821660c0840152600d840154821660e0840152600e84015490911661010080840191909152600f840180548851978116159092026000190190911691909104601f8101859004850286018501909652858552909491936101208601939092908301828280156132175780601f106131ec57610100808354040283529160200191613217565b820191906000526020600020905b8154815290600101906020018083116131fa57829003601f168201915b5050505050815260200160108201548152602001601182015481526020016012820154815260200160138201548152602001601482015481525050905080606001518160a001518260c001518360e001518461010001518561012001518090509650965096509650965096505091939550919395565b60006132993334610838565b7fe1fffcc4923d04b559f4d29a8bfc6cda04eb5b0d3c460751c2402c5c5cc9109c33346040516132ca929190614959565b60405180910390a15060015b90565b6000908152600a602052604090205460ff1690565b6000806000806000806132ff613a6e565b60008881526008602081815260409283902083516102408101855281546001600160a01b039081166101e083019081526001808501548316610200850152600280860154610220860152918452875160608082018a5260038701548516825260048701548516828901526005870154828b01528588019190915288518082018a52600687015485168152600787015485168189015297860154888a015284890197909752600985015496840196909652600a8401546080840152600b84015460a0840152600c840154821660c0840152600d840154821660e0840152600e84015490911661010080840191909152600f840180548851978116159092026000190190911691909104601f8101859004850286018501909652858552909491936101208601939092908301828280156134785780601f1061344d57610100808354040283529160200191613478565b820191906000526020600020905b81548152906001019060200180831161345b57829003601f168201915b505050505081526020016010820154815260200160118201548152602001601282015481526020016013820154815260200160148201548152505090508060800151816101400151826101600151836101800151846101a00151856101c001519650965096509650965096505091939550919395565b633b9aca0081565b60046020526000908152604090205481565b6001546001600160a01b0316331461351f57600080fd5b6000828152600860205260409020601301546124269082906136ef565b60008282018381101561354e57600080fd5b90505b92915050565b60008060008084516041146135725760009350505050610918565b50505060208201516040830151606084015160001a601b81101561359457601b015b8060ff16601b141580156135ac57508060ff16601c14155b156135bd5760009350505050610918565b600186828585604051600081526020016040526040516135e09493929190614b28565b6020604051602081039080840390855afa158015613602573d6000803e3d6000fd5b505050602060405103516001600160a01b0316876001600160a01b03161493505050509392505050565b6000826001600160a01b0316846001600160a01b031614806109155750836001600160a01b031663d202158d61366185613954565b846040518363ffffffff1660e01b81526004016108c5929190614aa0565b60008282111561368e57600080fd5b50900390565b60008183106136a3578161354e565b5090919050565b6000818310156136a3578161354e565b600061354e83836064613960565b6000826136d757506000613551565b828202828482816136e457fe5b041461354e57600080fd5b6001600160a01b038216600090815260208190526040902054613718908263ffffffff61367f16565b6001600160a01b038316600090815260208190526040902090815560010154613747908263ffffffff61353c16565b6001600160a01b0383166000908152602081905260409081902060010191909155517f625fed9875dada8643f2418b838ae0bc78d9a148a18eee4ee1979ff0f3f5d427906137989084908490614a3d565b60405180910390a15050565b6001600160a01b0382166000908152602081905260409020600101546137d0908263ffffffff61367f16565b6001600160a01b0383166000908152602081905260409020600181019190915554613801908263ffffffff61353c16565b6001600160a01b0383166000908152602081905260409081902091909155517f6381d9813cabeb57471b5a7e05078e64845ccdb563146a6911d536f24ce960f1906137989084908490614a3d565b6001600160a01b03831660009081526020819052604090206001015461387b908363ffffffff61367f16565b6001600160a01b0384166000908152602081905260409081902060010191909155517f1bccc549c38561cd5b57f0db11ceb8dde1b0b6ee05ab5e155b51c7c5ba64becb906138ce90859085908590614a4b565b60405180910390a1505050565b6001600160a01b038316600090815260208190526040902054613904908363ffffffff61353c16565b6001600160a01b0384166000908152602081905260409081902091909155517fc2aca55aa696938c7e95842e8939ca0fbb2120a3eeb8948cdcee2b70da566672906138ce90859085908590614a4b565b6001600160a01b031690565b600061091561396f85856136c8565b83600080821161397e57600080fd5b600082848161398957fe5b04949350505050565b6040805161010081018252600080825260208201819052918101829052606081018290526080810182905260a0810182905260c0810182905260e081019190915290565b828054600181600116156101000203166002900490600052602060002090601f016020900481019282601f10613a1757805160ff1916838001178555613a44565b82800160010185558215613a44579182015b82811115613a44578251825591602001919060010190613a29565b50613a50929150613b14565b5090565b604051806040016040528060008152602001600081525090565b604051806102a00160405280613a82613b2e565b8152602001613a8f613b2e565b8152602001613a9c613b2e565b815260200160008152602001600081526020016000801916815260200160006001600160a01b0316815260200160006001600160a01b0316815260200160006001600160a01b031681526020016060815260200160008152602001600081526020016000815260200160008152602001600081525090565b6132d691905b80821115613a505760008155600101613b1a565b604080516060810182526000808252602082018190529181019190915290565b803561355181614ce7565b805161355181614ce7565b60008083601f840112613b7657600080fd5b5081356001600160401b03811115613b8d57600080fd5b602083019150836020820283011115613ba557600080fd5b9250929050565b805161355181614cfe565b803561355181614d07565b805161355181614d07565b600082601f830112613bde57600080fd5b8135613bf1613bec82614c43565b614c1d565b91508082526020830160208301858383011115613c0d57600080fd5b613c18838284614ca5565b50505092915050565b60006101208284031215613c3457600080fd5b613c3f610120614c1d565b90506000613c4d8484613b4e565b8252506020613c5e84848301613bb7565b6020830152506040613c7284828501613bb7565b6040830152506060613c8684828501613bb7565b6060830152506080613c9a84828501613b4e565b60808301525060a0613cae84828501613b4e565b60a08301525060c0613cc284828501613b4e565b60c08301525060e0613cd684828501613bb7565b60e0830152506101008201356001600160401b03811115613cf657600080fd5b613d0284828501613bcd565b6101008301525092915050565b60006102008284031215613d2257600080fd5b613d2d610200614c1d565b90506000613d3b8484613b4e565b8252506020613d4c84848301613bb7565b6020830152506040613d6084828501613b4e565b6040830152506060613d7484828501613bb7565b6060830152506080613d8884828501613b4e565b60808301525060a0613d9c84828501613bb7565b60a08301525060c0613db084828501613b4e565b60c08301525060e0613dc484828501613bb7565b60e083015250610100613dd984828501613bb7565b61010083015250610120613def84828501613bb7565b61012083015250610140613e0584828501613bb7565b61014083015250610160613e1b84828501613b4e565b61016083015250610180613e3184828501613b4e565b610180830152506101a08201356001600160401b03811115613e5257600080fd5b613e5e84828501613bcd565b6101a0830152506101c0613e7484828501613bb7565b6101c0830152506101e08201356001600160401b03811115613e9557600080fd5b613ea184828501613bcd565b6101e08301525092915050565b60006101608284031215613ec157600080fd5b613ecc610160614c1d565b90506000613eda8484613b4e565b8252506020613eeb84848301613bb7565b6020830152506040613eff84828501613bb7565b6040830152506060613f1384828501613bb7565b6060830152506080613f2784828501613bb7565b60808301525060a0613f3b84828501613bb7565b60a08301525060c0613f4f84828501613b4e565b60c08301525060e0613f6384828501613b4e565b60e083015250610100613f7884828501613b4e565b61010083015250610120613f8e84828501613bb7565b610120830152506101408201356001600160401b03811115613faf57600080fd5b613fbb84828501613bcd565b6101408301525092915050565b600060208284031215613fda57600080fd5b60006119928484613b4e565b600060208284031215613ff857600080fd5b60006119928484613b59565b60008060006060848603121561401957600080fd5b60006140258686613b4e565b935050602061403686828701613bb7565b92505060408401356001600160401b0381111561405257600080fd5b61405e86828701613bcd565b9150509250925092565b6000806000806040858703121561407e57600080fd5b84356001600160401b0381111561409457600080fd5b6140a087828801613b64565b945094505060208501356001600160401b038111156140be57600080fd5b6140ca87828801613b64565b95989497509550505050565b6000602082840312156140e857600080fd5b60006119928484613bac565b60006020828403121561410657600080fd5b60006119928484613bb7565b60006020828403121561412457600080fd5b60006119928484613bc2565b6000806040838503121561414357600080fd5b600061414f8585613bb7565b925050602061416085828601613b4e565b9150509250929050565b60008060006060848603121561417f57600080fd5b600061418b8686613bb7565b935050602061419c86828701613b4e565b925050604061405e86828701613bb7565b600080600080608085870312156141c357600080fd5b60006141cf8787613bb7565b94505060206141e087828801613b4e565b93505060406141f187828801613bb7565b925050606061420287828801613bb7565b91505092959194509250565b6000806040838503121561422157600080fd5b600061422d8585613bb7565b925050602061416085828601613bb7565b60008060006060848603121561425357600080fd5b600061425f8686613bb7565b935050602061419c86828701613bb7565b60006020828403121561428257600080fd5b81356001600160401b0381111561429857600080fd5b61199284828501613c21565b600080600080608085870312156142ba57600080fd5b84356001600160401b038111156142d057600080fd5b6142dc87828801613c21565b94505060208501356001600160401b038111156142f857600080fd5b61430487828801613c21565b93505060408501356001600160401b0381111561432057600080fd5b61432c87828801613eae565b92505060608501356001600160401b0381111561434857600080fd5b61420287828801613d0f565b60006020828403121561436657600080fd5b81356001600160401b0381111561437c57600080fd5b61199284828501613d0f565b60006020828403121561439a57600080fd5b81356001600160401b038111156143b057600080fd5b61199284828501613eae565b60006143c8838361444a565b505060200190565b6143d981614c93565b82525050565b6143d981614c7d565b60006143f382614c70565b6143fd8185614c74565b935061440883614c6a565b8060005b8381101561443657815161442088826143bc565b975061442b83614c6a565b92505060010161440c565b509495945050505050565b6143d981614c88565b6143d9816132d6565b6143d961445f826132d6565b6132d6565b600061446f82614c70565b6144798185614c74565b9350614489818560208601614cb1565b61449281614cdd565b9093019392505050565b6143d981614c9a565b805160408301906144b6848261444a565b5060208201516129e7602085018261444a565b80516000906101208401906144de85826143df565b5060208301516144f1602086018261444a565b506040830151614504604086018261444a565b506060830151614517606086018261444a565b50608083015161452a60808601826143df565b5060a083015161453d60a08601826143df565b5060c083015161455060c08601826143df565b5060e083015161456360e086018261444a565b5061010083015184820361010086015261457d8282614464565b95945050505050565b80516000906102a084019061459b8582614815565b5060208301516145ae6060860182614815565b5060408301516145c160c0860182614815565b5060608301516145d561012086018261444a565b5060808301516145e961014086018261444a565b5060a08301516145fd61016086018261444a565b5060c08301516146116101808601826143df565b5060e08301516146256101a08601826143df565b5061010083015161463a6101c08601826143df565b506101208301518482036101e08601526146548282614464565b91505061014083015161466b61020086018261444a565b5061016083015161468061022086018261444a565b5061018083015161469561024086018261444a565b506101a08301516146aa61026086018261444a565b506101c08301516146bf61028086018261444a565b509392505050565b80516000906102008401906146dc85826143df565b5060208301516146ef602086018261444a565b50604083015161470260408601826143df565b506060830151614715606086018261444a565b50608083015161472860808601826143df565b5060a083015161473b60a086018261444a565b5060c083015161474e60c08601826143df565b5060e083015161476160e086018261444a565b5061010083015161477661010086018261444a565b5061012083015161478b61012086018261444a565b506101408301516147a061014086018261444a565b506101608301516147b56101608601826143df565b506101808301516147ca6101808601826143df565b506101a08301518482036101a08601526147e48282614464565b9150506101c08301516147fb6101c086018261444a565b506101e08301518482036101e086015261457d8282614464565b8051606083019061482684826143df565b50602082015161483960208501826143df565b5060408201516129e7604085018261444a565b805160009061016084019061486185826143df565b506020830151614874602086018261444a565b506040830151614887604086018261444a565b50606083015161489a606086018261444a565b5060808301516148ad608086018261444a565b5060a08301516148c060a086018261444a565b5060c08301516148d360c08601826143df565b5060e08301516148e660e08601826143df565b506101008301516148fb6101008601826143df565b5061012083015161491061012086018261444a565b5061014083015184820361014086015261457d8282614464565b6143d981614c8d565b600061493f8285614453565b60208201915061494f8284614453565b5060200192915050565b6040810161496782856143d0565b610918602083018461444a565b6060810161498282866143d0565b61498f602083018561444a565b61199260408301846143df565b606081016149aa82866143df565b61498f60208301856143df565b61012081016149c6828c6143df565b6149d3602083018b6143df565b6149e0604083018a61444a565b6149ed60608301896143df565b6149fa60808301886143df565b614a0760a083018761444a565b614a1460c08301866143df565b614a2160e08301856143df565b614a2f61010083018461444a565b9a9950505050505050505050565b6040810161496782856143df565b60608101614a5982866143df565b614a66602083018561444a565b611992604083018461444a565b6020808252810161354e81846143e8565b602081016135518284614441565b60208101613551828461444a565b60408101614967828561444a565b60c08101614abc828961444a565b614ac9602083018861444a565b614ad6604083018761444a565b614ae3606083018661444a565b614af0608083018561444a565b614afd60a083018461444a565b979650505050505050565b60408101614b16828561444a565b81810360208301526109158184614464565b60808101614b36828761444a565b614b43602083018661492a565b614b50604083018561444a565b61457d606083018461444a565b60208101613551828461449c565b6040810161355182846144a5565b6020808252810161354e81846144c9565b6020808252810161354e8184614586565b6020808252810161354e81846146c7565b6020808252810161354e818461484c565b60c08101614bcb828961444a565b614bd8602083018861444a565b614be560408301876143df565b614bf260608301866143df565b614bff60808301856143df565b81810360a0830152614c118184614464565b98975050505050505050565b6040518181016001600160401b0381118282101715614c3b57600080fd5b604052919050565b60006001600160401b03821115614c5957600080fd5b506020601f91909101601f19160190565b60200190565b5190565b90815260200190565b600061355182613954565b151590565b60ff1690565b6000613551825b600061355182614c7d565b82818337506000910152565b60005b83811015614ccc578181015183820152602001614cb4565b838111156129e75750506000910152565b601f01601f191690565b614cf081614c7d565b8114614cfb57600080fd5b50565b614cf081614c88565b614cf0816132d656fea265627a7a7230582022a92db7e82061c0aa53b8e278630c0eff3a7e9811c1dde21299676b43a0f2b96c6578706572696d656e74616cf50037",
  "source": "pragma solidity ^0.5.8;\npragma experimental ABIEncoderV2;\n\nimport \"iexec-solidity/contracts/Libs/SafeMath.sol\";\n\nimport \"./libs/IexecODBLibCore.sol\";\nimport \"./libs/IexecODBLibOrders.sol\";\nimport \"./registries/App.sol\";\nimport \"./registries/Dataset.sol\";\nimport \"./registries/Workerpool.sol\";\nimport \"./Escrow.sol\";\nimport \"./Relay.sol\";\nimport \"./SignatureVerifier.sol\";\nimport \"./IexecHubAccessor.sol\";\n\n/**\n * /!\\ TEMPORARY LEGACY /!\\\n */\nimport \"./IexecClerkABILegacy.sol\";\n\ncontract IexecClerk is Escrow, Relay, IexecHubAccessor, SignatureVerifier, IexecClerkABILegacy\n{\n\tusing SafeMath          for uint256;\n\tusing IexecODBLibOrders for bytes32;\n\tusing IexecODBLibOrders for IexecODBLibOrders.EIP712Domain;\n\tusing IexecODBLibOrders for IexecODBLibOrders.AppOrder;\n\tusing IexecODBLibOrders for IexecODBLibOrders.DatasetOrder;\n\tusing IexecODBLibOrders for IexecODBLibOrders.WorkerpoolOrder;\n\tusing IexecODBLibOrders for IexecODBLibOrders.RequestOrder;\n\n\t/***************************************************************************\n\t *                                Constants                                *\n\t ***************************************************************************/\n\tuint256 public constant WORKERPOOL_STAKE_RATIO = 30;\n\tuint256 public constant KITTY_RATIO            = 10;\n\tuint256 public constant KITTY_MIN              = 1000000000; // TODO: 1RLC ?\n\n\t// For authorizations\n\tuint256 public constant GROUPMEMBER_PURPOSE    = 4;\n\n\t/***************************************************************************\n\t *                            EIP712 signature                             *\n\t ***************************************************************************/\n\tbytes32 public /* immutable */ EIP712DOMAIN_SEPARATOR;\n\n\t/***************************************************************************\n\t *                               Clerk data                                *\n\t ***************************************************************************/\n\tmapping(bytes32 => bytes32[]           ) m_requestdeals;\n\tmapping(bytes32 => IexecODBLibCore.Deal) m_deals;\n\tmapping(bytes32 => uint256             ) m_consumed;\n\tmapping(bytes32 => bool                ) m_presigned;\n\n\t/***************************************************************************\n\t *                                 Events                                  *\n\t ***************************************************************************/\n\tevent OrdersMatched        (bytes32 dealid, bytes32 appHash, bytes32 datasetHash, bytes32 workerpoolHash, bytes32 requestHash, uint256 volume);\n\tevent ClosedAppOrder       (bytes32 appHash);\n\tevent ClosedDatasetOrder   (bytes32 datasetHash);\n\tevent ClosedWorkerpoolOrder(bytes32 workerpoolHash);\n\tevent ClosedRequestOrder   (bytes32 requestHash);\n\tevent SchedulerNotice      (address indexed workerpool, bytes32 dealid);\n\n\t/***************************************************************************\n\t *                               Constructor                               *\n\t ***************************************************************************/\n\tconstructor(\n\t\taddress _iexechub,\n\t\tuint256 _chainid)\n\tpublic\n\tIexecHubAccessor(_iexechub)\n\t{\n\t\tEIP712DOMAIN_SEPARATOR = IexecODBLibOrders.EIP712Domain({\n\t\t\tname:              \"iExecODB\"\n\t\t, version:           \"3.0-alpha\"\n\t\t, chainId:           _chainid\n\t\t, verifyingContract: address(this)\n\t\t}).hash();\n\t}\n\n\t/***************************************************************************\n\t *                                Accessor                                 *\n\t ***************************************************************************/\n\tfunction viewRequestDeals(bytes32 _id)\n\texternal view returns (bytes32[] memory requestdeals)\n\t{\n\t\treturn m_requestdeals[_id];\n\t}\n\n\tfunction viewDeal(bytes32 _id)\n\texternal view returns (IexecODBLibCore.Deal memory deal)\n\t{\n\t\treturn m_deals[_id];\n\t}\n\n\tfunction viewConsumed(bytes32 _id)\n\texternal view returns (uint256 consumed)\n\t{\n\t\treturn m_consumed[_id];\n\t}\n\n\tfunction viewPresigned(bytes32 _id)\n\texternal view returns (bool presigned)\n\t{\n\t\treturn m_presigned[_id];\n\t}\n\n\t/***************************************************************************\n\t *                            pre-signing tools                            *\n\t ***************************************************************************/\n\t// should be external\n\tfunction signAppOrder(IexecODBLibOrders.AppOrder memory _apporder)\n\tpublic returns (bool)\n\t{\n\t\trequire(msg.sender == App(_apporder.app).owner());\n\t\tm_presigned[_apporder.hash().toEthTypedStructHash(EIP712DOMAIN_SEPARATOR)] = true;\n\t\treturn true;\n\t}\n\n\t// should be external\n\tfunction signDatasetOrder(IexecODBLibOrders.DatasetOrder memory _datasetorder)\n\tpublic returns (bool)\n\t{\n\t\trequire(msg.sender == Dataset(_datasetorder.dataset).owner());\n\t\tm_presigned[_datasetorder.hash().toEthTypedStructHash(EIP712DOMAIN_SEPARATOR)] = true;\n\t\treturn true;\n\t}\n\n\t// should be external\n\tfunction signWorkerpoolOrder(IexecODBLibOrders.WorkerpoolOrder memory _workerpoolorder)\n\tpublic returns (bool)\n\t{\n\t\trequire(msg.sender == Workerpool(_workerpoolorder.workerpool).owner());\n\t\tm_presigned[_workerpoolorder.hash().toEthTypedStructHash(EIP712DOMAIN_SEPARATOR)] = true;\n\t\treturn true;\n\t}\n\n\t// should be external\n\tfunction signRequestOrder(IexecODBLibOrders.RequestOrder memory _requestorder)\n\tpublic returns (bool)\n\t{\n\t\trequire(msg.sender == _requestorder.requester);\n\t\tm_presigned[_requestorder.hash().toEthTypedStructHash(EIP712DOMAIN_SEPARATOR)] = true;\n\t\treturn true;\n\t}\n\n\t/***************************************************************************\n\t *                              Clerk methods                              *\n\t ***************************************************************************/\n\tstruct Identities\n\t{\n\t\tbytes32 appHash;\n\t\taddress appOwner;\n\t\tbytes32 datasetHash;\n\t\taddress datasetOwner;\n\t\tbytes32 workerpoolHash;\n\t\taddress workerpoolOwner;\n\t\tbytes32 requestHash;\n\t\tbool    hasDataset;\n\t}\n\n\t// should be external\n\tfunction matchOrders(\n\t\tIexecODBLibOrders.AppOrder        memory _apporder,\n\t\tIexecODBLibOrders.DatasetOrder    memory _datasetorder,\n\t\tIexecODBLibOrders.WorkerpoolOrder memory _workerpoolorder,\n\t\tIexecODBLibOrders.RequestOrder    memory _requestorder)\n\tpublic returns (bytes32)\n\t{\n\t\t/**\n\t\t * Check orders compatibility\n\t\t */\n\n\t\t// computation environment & allowed enough funds\n\t\trequire(_requestorder.category           == _workerpoolorder.category       );\n\t\trequire(_requestorder.trust              <= _workerpoolorder.trust          );\n\t\trequire(_requestorder.appmaxprice        >= _apporder.appprice              );\n\t\trequire(_requestorder.datasetmaxprice    >= _datasetorder.datasetprice      );\n\t\trequire(_requestorder.workerpoolmaxprice >= _workerpoolorder.workerpoolprice);\n\t\trequire((_apporder.tag | _datasetorder.tag | _requestorder.tag) & ~_workerpoolorder.tag == 0x0);\n\n\t\t// Check matching and restrictions\n\t\trequire(_requestorder.app     == _apporder.app        );\n\t\trequire(_requestorder.dataset == _datasetorder.dataset);\n\t\trequire(_requestorder.workerpool           == address(0) || checkIdentity(_requestorder.workerpool,           _workerpoolorder.workerpool, GROUPMEMBER_PURPOSE)); // requestorder.workerpool is a restriction\n\t\trequire(_apporder.datasetrestrict          == address(0) || checkIdentity(_apporder.datasetrestrict,          _datasetorder.dataset,       GROUPMEMBER_PURPOSE));\n\t\trequire(_apporder.workerpoolrestrict       == address(0) || checkIdentity(_apporder.workerpoolrestrict,       _workerpoolorder.workerpool, GROUPMEMBER_PURPOSE));\n\t\trequire(_apporder.requesterrestrict        == address(0) || checkIdentity(_apporder.requesterrestrict,        _requestorder.requester,     GROUPMEMBER_PURPOSE));\n\t\trequire(_datasetorder.apprestrict          == address(0) || checkIdentity(_datasetorder.apprestrict,          _apporder.app,               GROUPMEMBER_PURPOSE));\n\t\trequire(_datasetorder.workerpoolrestrict   == address(0) || checkIdentity(_datasetorder.workerpoolrestrict,   _workerpoolorder.workerpool, GROUPMEMBER_PURPOSE));\n\t\trequire(_datasetorder.requesterrestrict    == address(0) || checkIdentity(_datasetorder.requesterrestrict,    _requestorder.requester,     GROUPMEMBER_PURPOSE));\n\t\trequire(_workerpoolorder.apprestrict       == address(0) || checkIdentity(_workerpoolorder.apprestrict,       _apporder.app,               GROUPMEMBER_PURPOSE));\n\t\trequire(_workerpoolorder.datasetrestrict   == address(0) || checkIdentity(_workerpoolorder.datasetrestrict,   _datasetorder.dataset,       GROUPMEMBER_PURPOSE));\n\t\trequire(_workerpoolorder.requesterrestrict == address(0) || checkIdentity(_workerpoolorder.requesterrestrict, _requestorder.requester,     GROUPMEMBER_PURPOSE));\n\n\t\trequire(iexechub.checkResources(_apporder.app, _datasetorder.dataset, _workerpoolorder.workerpool));\n\n\t\t/**\n\t\t * Check orders authenticity\n\t\t */\n\t\tIdentities memory ids;\n\t\tids.hasDataset = _datasetorder.dataset != address(0);\n\n\t\t// app\n\t\tids.appHash  = _apporder.hash().toEthTypedStructHash(EIP712DOMAIN_SEPARATOR);\n\t\tids.appOwner = App(_apporder.app).owner();\n\t\trequire(m_presigned[ids.appHash] || verifySignature(ids.appOwner, ids.appHash, _apporder.sign));\n\n\t\t// dataset\n\t\tif (ids.hasDataset) // only check if dataset is enabled\n\t\t{\n\t\t\tids.datasetHash  = _datasetorder.hash().toEthTypedStructHash(EIP712DOMAIN_SEPARATOR);\n\t\t\tids.datasetOwner = Dataset(_datasetorder.dataset).owner();\n\t\t\trequire(m_presigned[ids.datasetHash] || verifySignature(ids.datasetOwner, ids.datasetHash, _datasetorder.sign));\n\t\t}\n\n\t\t// workerpool\n\t\tids.workerpoolHash  = _workerpoolorder.hash().toEthTypedStructHash(EIP712DOMAIN_SEPARATOR);\n\t\tids.workerpoolOwner = Workerpool(_workerpoolorder.workerpool).owner();\n\t\trequire(m_presigned[ids.workerpoolHash] || verifySignature(ids.workerpoolOwner, ids.workerpoolHash, _workerpoolorder.sign));\n\n\t\t// request\n\t\tids.requestHash = _requestorder.hash().toEthTypedStructHash(EIP712DOMAIN_SEPARATOR);\n\t\trequire(m_presigned[ids.requestHash] || verifySignature(_requestorder.requester, ids.requestHash, _requestorder.sign));\n\n\t\t/**\n\t\t * Check availability\n\t\t */\n\t\tuint256 volume;\n\t\tvolume =                             _apporder.volume.sub       (m_consumed[ids.appHash       ]);\n\t\tvolume = ids.hasDataset ? volume.min(_datasetorder.volume.sub   (m_consumed[ids.datasetHash   ])) : volume;\n\t\tvolume =                  volume.min(_workerpoolorder.volume.sub(m_consumed[ids.workerpoolHash]));\n\t\tvolume =                  volume.min(_requestorder.volume.sub   (m_consumed[ids.requestHash   ]));\n\t\trequire(volume > 0);\n\n\t\t/**\n\t\t * Record\n\t\t */\n\t\tbytes32 dealid = keccak256(abi.encodePacked(\n\t\t\tids.requestHash,            // requestHash\n\t\t\tm_consumed[ids.requestHash] // idx of first subtask\n\t\t));\n\n\t\tIexecODBLibCore.Deal storage deal = m_deals[dealid];\n\t\tdeal.app.pointer          = _apporder.app;\n\t\tdeal.app.owner            = ids.appOwner;\n\t\tdeal.app.price            = _apporder.appprice;\n\t\tdeal.dataset.owner        = ids.datasetOwner;\n\t\tdeal.dataset.pointer      = _datasetorder.dataset;\n\t\tdeal.dataset.price        = ids.hasDataset ? _datasetorder.datasetprice : 0;\n\t\tdeal.workerpool.pointer   = _workerpoolorder.workerpool;\n\t\tdeal.workerpool.owner     = ids.workerpoolOwner;\n\t\tdeal.workerpool.price     = _workerpoolorder.workerpoolprice;\n\t\tdeal.trust                = _requestorder.trust.max(1);\n\t\tdeal.category             = _requestorder.category;\n\t\tdeal.tag                  = _apporder.tag | _datasetorder.tag | _requestorder.tag;\n\t\tdeal.requester            = _requestorder.requester;\n\t\tdeal.beneficiary          = _requestorder.beneficiary;\n\t\tdeal.callback             = _requestorder.callback;\n\t\tdeal.params               = _requestorder.params;\n\t\tdeal.startTime            = now;\n\t\tdeal.botFirst             = m_consumed[ids.requestHash];\n\t\tdeal.botSize              = volume;\n\t\tdeal.workerStake          = _workerpoolorder.workerpoolprice.percentage(Workerpool(_workerpoolorder.workerpool).m_workerStakeRatioPolicy());\n\t\tdeal.schedulerRewardRatio = Workerpool(_workerpoolorder.workerpool).m_schedulerRewardRatioPolicy();\n\n\t\tm_requestdeals[ids.requestHash].push(dealid);\n\n\t\t/**\n\t\t * Update consumed\n\t\t */\n\t\tm_consumed[ids.appHash       ] = m_consumed[ids.appHash       ].add(                 volume    );\n\t\tm_consumed[ids.datasetHash   ] = m_consumed[ids.datasetHash   ].add(ids.hasDataset ? volume : 0);\n\t\tm_consumed[ids.workerpoolHash] = m_consumed[ids.workerpoolHash].add(                 volume    );\n\t\tm_consumed[ids.requestHash   ] = m_consumed[ids.requestHash   ].add(                 volume    );\n\n\t\t/**\n\t\t * Lock\n\t\t */\n\t\tlock(\n\t\t\tdeal.requester,\n\t\t\tdeal.app.price\n\t\t\t.add(deal.dataset.price)\n\t\t\t.add(deal.workerpool.price)\n\t\t\t.mul(volume)\n\t\t);\n\t\tlock(\n\t\t\tdeal.workerpool.owner,\n\t\t\tdeal.workerpool.price\n\t\t\t.percentage(WORKERPOOL_STAKE_RATIO) // ORDER IS IMPORTANT HERE!\n\t\t\t.mul(volume)                        // ORDER IS IMPORTANT HERE!\n\t\t);\n\n\t\t/**\n\t\t * Advertize deal\n\t\t */\n\t\temit SchedulerNotice(deal.workerpool.pointer, dealid);\n\n\t\t/**\n\t\t * Advertize consumption\n\t\t */\n\t\temit OrdersMatched(\n\t\t\tdealid,\n\t\t\tids.appHash,\n\t\t\tids.datasetHash,\n\t\t\tids.workerpoolHash,\n\t\t\tids.requestHash,\n\t\t\tvolume\n\t\t);\n\n\t\treturn dealid;\n\t}\n\n\t// should be external\n\tfunction cancelAppOrder(IexecODBLibOrders.AppOrder memory _apporder)\n\tpublic returns (bool)\n\t{\n\t\tbytes32 dapporderHash = _apporder.hash().toEthTypedStructHash(EIP712DOMAIN_SEPARATOR);\n\t\trequire(msg.sender == App(_apporder.app).owner());\n\t\tm_consumed[dapporderHash] = _apporder.volume;\n\t\temit ClosedAppOrder(dapporderHash);\n\t\treturn true;\n\t}\n\n\t// should be external\n\tfunction cancelDatasetOrder(IexecODBLibOrders.DatasetOrder memory _datasetorder)\n\tpublic returns (bool)\n\t{\n\t\tbytes32 dataorderHash = _datasetorder.hash().toEthTypedStructHash(EIP712DOMAIN_SEPARATOR);\n\t\trequire(msg.sender == Dataset(_datasetorder.dataset).owner());\n\t\tm_consumed[dataorderHash] = _datasetorder.volume;\n\t\temit ClosedDatasetOrder(dataorderHash);\n\t\treturn true;\n\t}\n\n\t// should be external\n\tfunction cancelWorkerpoolOrder(IexecODBLibOrders.WorkerpoolOrder memory _workerpoolorder)\n\tpublic returns (bool)\n\t{\n\t\tbytes32 poolorderHash = _workerpoolorder.hash().toEthTypedStructHash(EIP712DOMAIN_SEPARATOR);\n\t\trequire(msg.sender == Workerpool(_workerpoolorder.workerpool).owner());\n\t\tm_consumed[poolorderHash] = _workerpoolorder.volume;\n\t\temit ClosedWorkerpoolOrder(poolorderHash);\n\t\treturn true;\n\t}\n\n\t// should be external\n\tfunction cancelRequestOrder(IexecODBLibOrders.RequestOrder memory _requestorder)\n\tpublic returns (bool)\n\t{\n\t\tbytes32 requestorderHash = _requestorder.hash().toEthTypedStructHash(EIP712DOMAIN_SEPARATOR);\n\t\trequire(msg.sender == _requestorder.requester);\n\t\tm_consumed[requestorderHash] = _requestorder.volume;\n\t\temit ClosedRequestOrder(requestorderHash);\n\t\treturn true;\n\t}\n\n\t/***************************************************************************\n\t *                    Escrow overhead for contribution                     *\n\t ***************************************************************************/\n\tfunction lockContribution(bytes32 _dealid, address _worker)\n\texternal onlyIexecHub\n\t{\n\t\tlock(_worker, m_deals[_dealid].workerStake);\n\t}\n\n\tfunction unlockContribution(bytes32 _dealid, address _worker)\n\texternal onlyIexecHub\n\t{\n\t\tunlock(_worker, m_deals[_dealid].workerStake);\n\t}\n\n\tfunction unlockAndRewardForContribution(bytes32 _dealid, address _worker, uint256 _amount, bytes32 _taskid)\n\texternal onlyIexecHub\n\t{\n\t\tunlock(_worker, m_deals[_dealid].workerStake);\n\t\treward(_worker, _amount, _taskid);\n\t}\n\n\tfunction seizeContribution(bytes32 _dealid, address _worker, bytes32 _taskid)\n\texternal onlyIexecHub\n\t{\n\t\tseize(_worker, m_deals[_dealid].workerStake, _taskid);\n\t}\n\n\tfunction rewardForScheduling(bytes32 _dealid, uint256 _amount, bytes32 _taskid)\n\texternal onlyIexecHub\n\t{\n\t\treward(m_deals[_dealid].workerpool.owner, _amount, _taskid);\n\t}\n\n\tfunction successWork(bytes32 _dealid, bytes32 _taskid)\n\texternal onlyIexecHub\n\t{\n\t\tIexecODBLibCore.Deal storage deal = m_deals[_dealid];\n\n\t\tuint256 requesterstake = deal.app.price\n\t\t                         .add(deal.dataset.price)\n\t\t                         .add(deal.workerpool.price);\n\t\tuint256 poolstake = deal.workerpool.price\n\t\t                    .percentage(WORKERPOOL_STAKE_RATIO);\n\n\t\t// seize requester funds\n\t\tseize(deal.requester, requesterstake, _taskid);\n\t\t// dapp reward\n\t\tif (deal.app.price > 0)\n\t\t{\n\t\t\treward(deal.app.owner, deal.app.price, _taskid);\n\t\t}\n\t\t// data reward\n\t\tif (deal.dataset.price > 0 && deal.dataset.pointer != address(0))\n\t\t{\n\t\t\treward(deal.dataset.owner, deal.dataset.price, _taskid);\n\t\t}\n\t\t// unlock pool stake\n\t\tunlock(deal.workerpool.owner, poolstake);\n\t\t// pool reward performed by consensus manager\n\n\t\t/**\n\t\t * Retrieve part of the kitty\n\t\t * TODO: remove / keep ?\n\t\t */\n\t\tuint256 kitty = m_accounts[address(0)].locked;\n\t\tif (kitty > 0)\n\t\t{\n\t\t\tkitty = kitty\n\t\t\t        .percentage(KITTY_RATIO) // fraction\n\t\t\t        .max(KITTY_MIN)          // at least this\n\t\t\t        .min(kitty);             // but not more than available\n\t\t\tseize (address(0),            kitty, _taskid);\n\t\t\treward(deal.workerpool.owner, kitty, _taskid);\n\t\t}\n\t}\n\n\tfunction failedWork(bytes32 _dealid, bytes32 _taskid)\n\texternal onlyIexecHub\n\t{\n\t\tIexecODBLibCore.Deal storage deal = m_deals[_dealid];\n\n\t\tuint256 requesterstake = deal.app.price\n\t\t                         .add(deal.dataset.price)\n\t\t                         .add(deal.workerpool.price);\n\t\tuint256 poolstake = deal.workerpool.price\n\t\t                    .percentage(WORKERPOOL_STAKE_RATIO);\n\n\t\tunlock(deal.requester,        requesterstake    );\n\t\tseize (deal.workerpool.owner, poolstake, _taskid);\n\t\treward(address(0),            poolstake, _taskid); //  Kitty / Burn\n\t\tlock  (address(0),            poolstake         ); //  Kitty / Burn\n\t}\n\n\n\n\n\n\n\n\n\n\n\n\n\n\n\n\n\n\n\t/**\n\t * /!\\ TEMPORARY LEGACY /!\\\n\t */\n\n\tfunction viewDealABILegacy_pt1(bytes32 _id)\n\texternal view returns\n\t( address\n\t, address\n\t, uint256\n\t, address\n\t, address\n\t, uint256\n\t, address\n\t, address\n\t, uint256\n\t)\n\t{\n\t\tIexecODBLibCore.Deal memory deal = m_deals[_id];\n\t\treturn (\n\t\t\tdeal.app.pointer,\n\t\t\tdeal.app.owner,\n\t\t\tdeal.app.price,\n\t\t\tdeal.dataset.pointer,\n\t\t\tdeal.dataset.owner,\n\t\t\tdeal.dataset.price,\n\t\t\tdeal.workerpool.pointer,\n\t\t\tdeal.workerpool.owner,\n\t\t\tdeal.workerpool.price\n\t\t);\n\t}\n\n\tfunction viewDealABILegacy_pt2(bytes32 _id)\n\texternal view returns\n\t( uint256\n\t, bytes32\n\t, address\n\t, address\n\t, address\n\t, string memory\n\t)\n\t{\n\t\tIexecODBLibCore.Deal memory deal = m_deals[_id];\n\t\treturn (\n\t\t\tdeal.trust,\n\t\t\tdeal.tag,\n\t\t\tdeal.requester,\n\t\t\tdeal.beneficiary,\n\t\t\tdeal.callback,\n\t\t\tdeal.params\n\t\t);\n\t}\n\n\tfunction viewConfigABILegacy(bytes32 _id)\n\texternal view returns\n\t( uint256\n\t, uint256\n\t, uint256\n\t, uint256\n\t, uint256\n\t, uint256\n\t)\n\t{\n\t\tIexecODBLibCore.Deal memory deal = m_deals[_id];\n\t\treturn (\n\t\t\tdeal.category,\n\t\t\tdeal.startTime,\n\t\t\tdeal.botFirst,\n\t\t\tdeal.botSize,\n\t\t\tdeal.workerStake,\n\t\t\tdeal.schedulerRewardRatio\n\t\t);\n\t}\n\n\tfunction viewAccountABILegacy(address _user)\n\texternal view returns (uint256, uint256)\n\t{\n\t\tIexecODBLibCore.Account memory account = m_accounts[_user];\n\t\treturn ( account.stake, account.locked );\n\t}\n}\n",
  "sourcePath": "/home/amxx/Work/iExec/code/PoCo-dev/contracts/IexecClerk.sol",
  "compiler": {
    "name": "solc",
    "version": "0.5.8+commit.23d335f2.Emscripten.clang"
  },
  "schemaVersion": "3.0.11",
  "updatedAt": "2019-07-29T09:14:01.530Z",
  "devdoc": {
    "methods": {}
  },
  "userdoc": {
    "methods": {
      "constructor": "*************************************************************************                              Constructor                               ***************************************************************************",
      "lockContribution(bytes32,address)": {
        "notice": "*************************************************************************                   Escrow overhead for contribution                     ***************************************************************************"
      },
      "signAppOrder((address,uint256,uint256,bytes32,address,address,address,bytes32,bytes))": {
        "notice": "*************************************************************************                           pre-signing tools                            ***************************************************************************"
      },
      "viewAccount(address)": {
        "notice": "Accessor"
      },
      "viewDealABILegacy_pt1(bytes32)": {
        "notice": "/!\\ TEMPORARY LEGACY /!\\"
      },
      "viewRequestDeals(bytes32)": {
        "notice": "*************************************************************************                               Accessor                                 ***************************************************************************"
      }
    }
  }
}