{
  "contractName": "IexecERC20Common",
  "abi": [
    {
      "constant": true,
      "inputs": [],
      "name": "EIP712DOMAIN_SEPARATOR",
      "outputs": [
        {
          "name": "",
          "type": "bytes32"
        }
      ],
      "payable": false,
      "stateMutability": "view",
      "type": "function"
    },
    {
      "constant": true,
      "inputs": [],
      "name": "appregistry",
      "outputs": [
        {
          "name": "",
          "type": "address"
        }
      ],
      "payable": false,
      "stateMutability": "view",
      "type": "function"
    },
    {
      "constant": true,
      "inputs": [],
      "name": "WORKERPOOL_STAKE_RATIO",
      "outputs": [
        {
          "name": "",
          "type": "uint256"
        }
      ],
      "payable": false,
      "stateMutability": "view",
      "type": "function"
    },
    {
      "constant": true,
      "inputs": [],
      "name": "KITTY_RATIO",
      "outputs": [
        {
          "name": "",
          "type": "uint256"
        }
      ],
      "payable": false,
      "stateMutability": "view",
      "type": "function"
    },
    {
      "constant": true,
      "inputs": [],
      "name": "REVEAL_DEADLINE_RATIO",
      "outputs": [
        {
          "name": "",
          "type": "uint256"
        }
      ],
      "payable": false,
      "stateMutability": "view",
      "type": "function"
    },
    {
      "constant": true,
      "inputs": [],
      "name": "GROUPMEMBER_PURPOSE",
      "outputs": [
        {
          "name": "",
          "type": "uint256"
        }
      ],
      "payable": false,
      "stateMutability": "view",
      "type": "function"
    },
    {
      "constant": false,
      "inputs": [],
      "name": "renounceOwnership",
      "outputs": [],
      "payable": false,
      "stateMutability": "nonpayable",
      "type": "function"
    },
    {
      "constant": true,
      "inputs": [],
      "name": "CONTRIBUTION_DEADLINE_RATIO",
      "outputs": [
        {
          "name": "",
          "type": "uint256"
        }
      ],
      "payable": false,
      "stateMutability": "view",
      "type": "function"
    },
    {
      "constant": true,
      "inputs": [],
      "name": "owner",
      "outputs": [
        {
          "name": "",
          "type": "address"
        }
      ],
      "payable": false,
      "stateMutability": "view",
      "type": "function"
    },
    {
      "constant": true,
      "inputs": [],
      "name": "isOwner",
      "outputs": [
        {
          "name": "",
          "type": "bool"
        }
      ],
      "payable": false,
      "stateMutability": "view",
      "type": "function"
    },
    {
      "constant": true,
      "inputs": [],
      "name": "workerpoolregistry",
      "outputs": [
        {
          "name": "",
          "type": "address"
        }
      ],
      "payable": false,
      "stateMutability": "view",
      "type": "function"
    },
    {
      "constant": true,
      "inputs": [],
      "name": "FINAL_DEADLINE_RATIO",
      "outputs": [
        {
          "name": "",
          "type": "uint256"
        }
      ],
      "payable": false,
      "stateMutability": "view",
      "type": "function"
    },
    {
      "constant": true,
      "inputs": [],
      "name": "KITTY_ADDRESS",
      "outputs": [
        {
          "name": "",
          "type": "address"
        }
      ],
      "payable": false,
      "stateMutability": "view",
      "type": "function"
    },
    {
      "constant": true,
      "inputs": [],
      "name": "datasetregistry",
      "outputs": [
        {
          "name": "",
          "type": "address"
        }
      ],
      "payable": false,
      "stateMutability": "view",
      "type": "function"
    },
    {
      "constant": true,
      "inputs": [],
      "name": "KITTY_MIN",
      "outputs": [
        {
          "name": "",
          "type": "uint256"
        }
      ],
      "payable": false,
      "stateMutability": "view",
      "type": "function"
    },
    {
      "constant": false,
      "inputs": [
        {
          "name": "newOwner",
          "type": "address"
        }
      ],
      "name": "transferOwnership",
      "outputs": [],
      "payable": false,
      "stateMutability": "nonpayable",
      "type": "function"
    },
    {
      "anonymous": false,
      "inputs": [
        {
          "indexed": true,
          "name": "from",
          "type": "address"
        },
        {
          "indexed": true,
          "name": "to",
          "type": "address"
        },
        {
          "indexed": false,
          "name": "value",
          "type": "uint256"
        }
      ],
      "name": "Transfer",
      "type": "event"
    },
    {
      "anonymous": false,
      "inputs": [
        {
          "indexed": true,
          "name": "owner",
          "type": "address"
        },
        {
          "indexed": true,
          "name": "spender",
          "type": "address"
        },
        {
          "indexed": false,
          "name": "value",
          "type": "uint256"
        }
      ],
      "name": "Approval",
      "type": "event"
    },
    {
      "anonymous": false,
      "inputs": [
        {
          "indexed": true,
          "name": "previousOwner",
          "type": "address"
        },
        {
          "indexed": true,
          "name": "newOwner",
          "type": "address"
        }
      ],
      "name": "OwnershipTransferred",
      "type": "event"
    }
  ],
  "bytecode": "0x60806040819052600080546001600160a01b03191633178082556001600160a01b0316917f8be0079c531659141344cd1fd0a4f28419497f9722a3daafe3b4186f6b6457e0908290a3610561806100576000396000f3fe608060405234801561001057600080fd5b50600436106101005760003560e01c80638da5cb5b116100975780639e986e81116100665780639e986e811461019c578063b1b11d2c146101a4578063e2e7a8c1146101ac578063f2fde38b146101b457610100565b80638da5cb5b1461016a5780638f32d59b1461017f57806390a0f5461461019457806390fc26b11461014057610100565b80635fde601d116100d35780635fde601d1461014857806368a9ef1c14610150578063715018a6146101585780637b2448321461016257610100565b8063047411e71461010557806345b637a9146101235780634ec3b9e31461013857806351152de114610140575b600080fd5b61010d6101c7565b60405161011a919061049b565b60405180910390f35b61012b6101cd565b60405161011a91906104a9565b61010d6101dc565b61010d6101e1565b61010d6101e6565b61010d6101eb565b6101606101f0565b005b61010d610267565b61017261026c565b60405161011a919061047f565b61018761027b565b60405161011a919061048d565b61012b61028c565b61017261029b565b61012b6102d5565b61010d6102e4565b6101606101c23660046103ae565b6102ec565b600f5481565b6004546001600160a01b031681565b601e81565b600a81565b600281565b600481565b6101f861027b565b61021d5760405162461bcd60e51b8152600401610214906104c7565b60405180910390fd5b600080546040516001600160a01b03909116907f8be0079c531659141344cd1fd0a4f28419497f9722a3daafe3b4186f6b6457e0908390a3600080546001600160a01b0319169055565b600781565b6000546001600160a01b031690565b6000546001600160a01b0316331490565b6006546001600160a01b031681565b60408051808201909152600a81526969457865634b6974747960b01b6020909101527399c2268479b93fde36232351229815df80837e2481565b6005546001600160a01b031681565b633b9aca0081565b6102f461027b565b6103105760405162461bcd60e51b8152600401610214906104c7565b6103198161031c565b50565b6001600160a01b0381166103425760405162461bcd60e51b8152600401610214906104b7565b600080546040516001600160a01b03808516939216917f8be0079c531659141344cd1fd0a4f28419497f9722a3daafe3b4186f6b6457e091a3600080546001600160a01b0319166001600160a01b0392909216919091179055565b80356103a88161050a565b92915050565b6000602082840312156103c057600080fd5b60006103cc848461039d565b949350505050565b6103dd816104e0565b82525050565b6103dd816104eb565b6103dd816104f0565b6103dd816104ff565b600061040b6026836104d7565b7f4f776e61626c653a206e6577206f776e657220697320746865207a65726f206181526564647265737360d01b602082015260400192915050565b60006104536020836104d7565b7f4f776e61626c653a2063616c6c6572206973206e6f7420746865206f776e6572815260200192915050565b602081016103a882846103d4565b602081016103a882846103e3565b602081016103a882846103ec565b602081016103a882846103f5565b602080825281016103a8816103fe565b602080825281016103a881610446565b90815260200190565b60006103a8826104f3565b151590565b90565b6001600160a01b031690565b60006103a8826104e0565b610513816104e0565b811461031957600080fdfea365627a7a72305820af0c7744b99bd02acb2900bbd11cff83169949227653b27701b9af36a32fef546c6578706572696d656e74616cf564736f6c634300050a0040",
  "source": "pragma solidity ^0.5.10;\npragma experimental ABIEncoderV2;\n\nimport \"../IexecDelegateBase.sol\";\n\n\ninterface IexecERC20\n{\n\tevent Transfer(address indexed from, address indexed to, uint256 value);\n\tevent Approval(address indexed owner, address indexed spender, uint256 value);\n\n\tfunction transfer(address,uint256) external returns (bool);\n\tfunction approve(address,uint256) external returns (bool);\n\tfunction transferFrom(address,address,uint256) external returns (bool);\n\tfunction increaseAllowance(address,uint256) external returns (bool);\n\tfunction decreaseAllowance(address,uint256) external returns (bool);\n}\n\ncontract IexecERC20Common is IexecStore\n{\n\tusing SafeMath for uint256;\n\n\tevent Transfer(address indexed from, address indexed to, uint256 value);\n\tevent Approval(address indexed owner, address indexed spender, uint256 value);\n\n\tfunction _transfer(address sender, address recipient, uint256 amount)\n\t\tinternal\n\t{\n\t\t\trequire(sender != address(0), \"ERC20: transfer from the zero address\");\n\t\t\trequire(recipient != address(0), \"ERC20: transfer to the zero address\");\n\n\t\t\tm_balances[sender] = m_balances[sender].sub(amount);\n\t\t\tm_balances[recipient] = m_balances[recipient].add(amount);\n\t\t\temit Transfer(sender, recipient, amount);\n\t}\n\n\tfunction _mint(address account, uint256 amount)\n\t\tinternal\n\t{\n\t\t\trequire(account != address(0), \"ERC20: mint to the zero address\");\n\n\t\t\tm_totalSupply = m_totalSupply.add(amount);\n\t\t\tm_balances[account] = m_balances[account].add(amount);\n\t\t\temit Transfer(address(0), account, amount);\n\t}\n\n\tfunction _burn(address account, uint256 value)\n\t\tinternal\n\t{\n\t\t\trequire(account != address(0), \"ERC20: burn from the zero address\");\n\n\t\t\tm_totalSupply = m_totalSupply.sub(value);\n\t\t\tm_balances[account] = m_balances[account].sub(value);\n\t\t\temit Transfer(account, address(0), value);\n\t}\n\n\tfunction _approve(address owner, address spender, uint256 value)\n\t\tinternal\n\t{\n\t\t\trequire(owner != address(0), \"ERC20: approve from the zero address\");\n\t\t\trequire(spender != address(0), \"ERC20: approve to the zero address\");\n\n\t\t\tm_allowances[owner][spender] = value;\n\t\t\temit Approval(owner, spender, value);\n\t}\n}\n\ncontract IexecERC20Delegate is IexecERC20, IexecDelegateBase, IexecERC20Common\n{\n\tfunction transfer(address recipient, uint256 amount)\n\t\tpublic returns (bool)\n\t{\n\t\t\t_transfer(msg.sender, recipient, amount);\n\t\t\treturn true;\n\t}\n\n\tfunction approve(address spender, uint256 value)\n\t\tpublic returns (bool)\n\t{\n\t\t\t_approve(msg.sender, spender, value);\n\t\t\treturn true;\n\t}\n\n\tfunction transferFrom(address sender, address recipient, uint256 amount)\n\t\tpublic returns (bool)\n\t{\n\t\t\t_transfer(sender, recipient, amount);\n\t\t\t_approve(sender, msg.sender, m_allowances[sender][msg.sender].sub(amount));\n\t\t\treturn true;\n\t}\n\n\tfunction increaseAllowance(address spender, uint256 addedValue)\n\t\tpublic returns (bool)\n\t{\n\t\t\t_approve(msg.sender, spender, m_allowances[msg.sender][spender].add(addedValue));\n\t\t\treturn true;\n\t}\n\n\n\tfunction decreaseAllowance(address spender, uint256 subtractedValue)\n\t\tpublic returns (bool)\n\t{\n\t\t\t_approve(msg.sender, spender, m_allowances[msg.sender][spender].sub(subtractedValue));\n\t\t\treturn true;\n\t}\n}\n",
  "sourcePath": "/home/amxx/Work/iExec/code/PoCo-dev/contracts/delegates/IexecERC20.sol",
  "compiler": {
    "name": "solc",
    "version": "0.5.10+commit.5a6ea5b1.Emscripten.clang"
  },
  "schemaVersion": "3.0.11",
  "updatedAt": "2019-06-27T08:16:10.661Z",
  "devdoc": {
    "methods": {
      "isOwner()": {
        "details": "Returns true if the caller is the current owner."
      },
      "owner()": {
        "details": "Returns the address of the current owner."
      },
      "renounceOwnership()": {
        "details": "Leaves the contract without owner. It will not be possible to call `onlyOwner` functions anymore. Can only be called by the current owner.     * > Note: Renouncing ownership will leave the contract without an owner, thereby removing any functionality that is only available to the owner."
      },
      "transferOwnership(address)": {
        "details": "Transfers ownership of the contract to a new account (`newOwner`). Can only be called by the current owner."
      }
    }
  },
  "userdoc": {
    "methods": {}
  }
}