{
  "contractName": "IexecMaintenanceDelegate",
  "abi": [
    {
      "anonymous": false,
      "inputs": [
        {
          "indexed": true,
          "internalType": "address",
          "name": "previousOwner",
          "type": "address"
        },
        {
          "indexed": true,
          "internalType": "address",
          "name": "newOwner",
          "type": "address"
        }
      ],
      "name": "OwnershipTransferred",
      "type": "event"
    },
    {
      "inputs": [],
      "name": "owner",
      "outputs": [
        {
          "internalType": "address",
          "name": "",
          "type": "address"
        }
      ],
      "stateMutability": "view",
      "type": "function"
    },
    {
      "inputs": [],
      "name": "renounceOwnership",
      "outputs": [],
      "stateMutability": "nonpayable",
      "type": "function"
    },
    {
      "inputs": [
        {
          "internalType": "address",
          "name": "newOwner",
          "type": "address"
        }
      ],
      "name": "transferOwnership",
      "outputs": [],
      "stateMutability": "nonpayable",
      "type": "function"
    },
    {
      "inputs": [
        {
          "internalType": "address",
          "name": "_token",
          "type": "address"
        },
        {
          "internalType": "string",
          "name": "_name",
          "type": "string"
        },
        {
          "internalType": "string",
          "name": "_symbol",
          "type": "string"
        },
        {
          "internalType": "uint8",
          "name": "_decimal",
          "type": "uint8"
        },
        {
          "internalType": "address",
          "name": "_appregistryAddress",
          "type": "address"
        },
        {
          "internalType": "address",
          "name": "_datasetregistryAddress",
          "type": "address"
        },
        {
          "internalType": "address",
          "name": "_workerpoolregistryAddress",
          "type": "address"
        },
        {
          "internalType": "address",
          "name": "_v3_iexecHubAddress",
          "type": "address"
        }
      ],
      "name": "configure",
      "outputs": [],
      "stateMutability": "nonpayable",
      "type": "function"
    },
    {
      "inputs": [],
      "name": "domain",
      "outputs": [
        {
          "components": [
            {
              "internalType": "string",
              "name": "name",
              "type": "string"
            },
            {
              "internalType": "string",
              "name": "version",
              "type": "string"
            },
            {
              "internalType": "uint256",
              "name": "chainId",
              "type": "uint256"
            },
            {
              "internalType": "address",
              "name": "verifyingContract",
              "type": "address"
            }
          ],
          "internalType": "struct IexecLibOrders_v5.EIP712Domain",
          "name": "",
          "type": "tuple"
        }
      ],
      "stateMutability": "view",
      "type": "function"
    },
    {
      "inputs": [],
      "name": "updateDomainSeparator",
      "outputs": [],
      "stateMutability": "nonpayable",
      "type": "function"
    },
    {
      "inputs": [
        {
          "internalType": "address",
          "name": "_worker",
          "type": "address"
        }
      ],
      "name": "importScore",
      "outputs": [],
      "stateMutability": "nonpayable",
      "type": "function"
    },
    {
      "inputs": [
        {
          "internalType": "address",
          "name": "_teebroker",
          "type": "address"
        }
      ],
      "name": "setTeeBroker",
      "outputs": [],
      "stateMutability": "nonpayable",
      "type": "function"
    },
    {
      "inputs": [
        {
          "internalType": "uint256",
          "name": "_callbackgas",
          "type": "uint256"
        }
      ],
      "name": "setCallbackGas",
      "outputs": [],
      "stateMutability": "nonpayable",
      "type": "function"
    }
  ],
  "bytecode": "0x608060405234801561001057600080fd5b50600061001b610060565b600080546001600160a01b0319166001600160a01b038316908117825560405192935091600080516020610c7b833981519152908290a35061005b610064565b61010f565b3390565b61006c610060565b6000546001600160a01b039081169116146100a25760405162461bcd60e51b8152600401610099906100da565b60405180910390fd5b600080546040516001600160a01b0390911690600080516020610c7b833981519152908390a3600080546001600160a01b0319169055565b6020808252818101527f4f776e61626c653a2063616c6c6572206973206e6f7420746865206f776e6572604082015260600190565b610b5d8061011e6000396000f3fe608060405234801561001057600080fd5b50600436106100935760003560e01c8063a9b20cee11610066578063a9b20cee146100db578063aefb52b4146100ee578063b552181714610101578063c2fb26a614610114578063f2fde38b1461012957610093565b806301d09a3c14610098578063715018a6146100ad57806389ccfe89146100b55780638da5cb5b146100bd575b600080fd5b6100ab6100a6366004610934565b61013c565b005b6100ab61017f565b6100ab6101fe565b6100c56102b0565b6040516100d29190610997565b60405180910390f35b6100ab6100e9366004610823565b6102bf565b6100ab6100fc366004610823565b6103cb565b6100ab61010f36600461083e565b610422565b61011c6105ac565b6040516100d29190610aaa565b6100ab610137366004610823565b6105c1565b610144610677565b6000546001600160a01b0390811691161461017a5760405162461bcd60e51b815260040161017190610a1d565b60405180910390fd5b601955565b610187610677565b6000546001600160a01b039081169116146101b45760405162461bcd60e51b815260040161017190610a1d565b600080546040516001600160a01b03909116907f8be0079c531659141344cd1fd0a4f28419497f9722a3daafe3b4186f6b6457e0908390a3600080546001600160a01b0319169055565b60105461021d5760405162461bcd60e51b815260040161017190610a82565b61022561067b565b6040516374147c4d60e01b815273__IexecLibOrders_v5_____________________916374147c4d9161025b9190600401610aaa565b60206040518083038186803b15801561027357600080fd5b505af4158015610287573d6000803e3d6000fd5b505050506040513d601f19601f820116820180604052508101906102ab919061091c565b601055565b6000546001600160a01b031690565b6001600160a01b0381166000908152601c602052604090205460ff16156102f85760405162461bcd60e51b815260040161017190610a52565b601b54604051636d9185a960e11b8152610399916001600160a01b03169063db230b529061032a908590600401610997565b60206040518083038186803b15801561034257600080fd5b505afa158015610356573d6000803e3d6000fd5b505050506040513d601f19601f8201168201806040525081019061037a919061091c565b6001600160a01b038316600090815260176020526040902054906106e2565b6001600160a01b03909116600090815260176020908152604080832093909355601c905220805460ff19166001179055565b6103d3610677565b6000546001600160a01b039081169116146104005760405162461bcd60e51b815260040161017190610a1d565b601880546001600160a01b0319166001600160a01b0392909216919091179055565b61042a610677565b6000546001600160a01b039081169116146104575760405162461bcd60e51b815260040161017190610a1d565b601054156104775760405162461bcd60e51b8152600401610171906109f1565b61047f61067b565b6040516374147c4d60e01b815273__IexecLibOrders_v5_____________________916374147c4d916104b59190600401610aaa565b60206040518083038186803b1580156104cd57600080fd5b505af41580156104e1573d6000803e3d6000fd5b505050506040513d601f19601f82011682018060405250810190610505919061091c565b601055600880546001600160a01b0319166001600160a01b038c1617905561052f60098a8a610701565b5061053c600a8888610701565b50600b805460ff191660ff9690961695909517909455600580546001600160a01b03199081166001600160a01b039586161790915560068054821693851693909317909255600780548316918416919091179055601b8054909116919092161790555050620186a0601955505050565b6105b461077f565b6105bc61067b565b905090565b6105c9610677565b6000546001600160a01b039081169116146105f65760405162461bcd60e51b815260040161017190610a1d565b6001600160a01b03811661061c5760405162461bcd60e51b8152600401610171906109ab565b600080546040516001600160a01b03808516939216917f8be0079c531659141344cd1fd0a4f28419497f9722a3daafe3b4186f6b6457e091a3600080546001600160a01b0319166001600160a01b0392909216919091179055565b3390565b61068361077f565b6040805160c0810182526008608082019081526734a2bc32b1a7a22160c11b60a083015281528151808301835260058152640352e302e360dc1b6020828101919091528201529081016106d46106fd565b815230602090910152905090565b6000818310156106f257816106f4565b825b90505b92915050565b4690565b828054600181600116156101000203166002900490600052602060002090601f016020900481019282601f106107425782800160ff1982351617855561076f565b8280016001018555821561076f579182015b8281111561076f578235825591602001919060010190610754565b5061077b9291506107b0565b5090565b604051806080016040528060608152602001606081526020016000815260200160006001600160a01b031681525090565b5b8082111561077b57600081556001016107b1565b80356001600160a01b03811681146106f757600080fd5b60008083601f8401126107ed578182fd5b50813567ffffffffffffffff811115610804578182fd5b60208301915083602082850101111561081c57600080fd5b9250929050565b600060208284031215610834578081fd5b6106f483836107c5565b6000806000806000806000806000806101008b8d03121561085d578586fd5b8a3561086881610b0f565b995060208b013567ffffffffffffffff80821115610884578788fd5b6108908e838f016107dc565b909b50995060408d01359150808211156108a8578788fd5b506108b58d828e016107dc565b90985096505060608b013560ff811681146108ce578586fd5b945060808b01356108de81610b0f565b93506108ed8c60a08d016107c5565b92506108fc8c60c08d016107c5565b915061090b8c60e08d016107c5565b90509295989b9194979a5092959850565b60006020828403121561092d578081fd5b5051919050565b600060208284031215610945578081fd5b5035919050565b60008151808452815b8181101561097157602081850181015186830182015201610955565b818111156109825782602083870101525b50601f01601f19169290920160200192915050565b6001600160a01b0391909116815260200190565b60208082526026908201527f4f776e61626c653a206e6577206f776e657220697320746865207a65726f206160408201526564647265737360d01b606082015260800190565b602080825260129082015271185b1c9958591e4b58dbdb999a59dd5c995960721b604082015260600190565b6020808252818101527f4f776e61626c653a2063616c6c6572206973206e6f7420746865206f776e6572604082015260600190565b6020808252601690820152751cd8dbdc994b585b1c9958591e4b5a5b5c1bdc9d195960521b604082015260600190565b6020808252600e908201526d1b9bdd0b58dbdb999a59dd5c995960921b604082015260600190565b600060208252825160806020840152610ac660a084018261094c565b90506020840151601f19848303016040850152610ae3828261094c565b6040860151606086810191909152909501516001600160a01b0316608090940193909352509192915050565b6001600160a01b0381168114610b2457600080fd5b5056fea26469706673582212200bc9eb0956b9c7bc67b0b7992bbe42af6bc31001a55732a8ca1c450ada744f3a64736f6c634300060c00338be0079c531659141344cd1fd0a4f28419497f9722a3daafe3b4186f6b6457e0",
  "immutableReferences": {},
  "source": "// SPDX-License-Identifier: Apache-2.0\n\n/******************************************************************************\n * Copyright 2020 IEXEC BLOCKCHAIN TECH                                       *\n *                                                                            *\n * Licensed under the Apache License, Version 2.0 (the \"License\");            *\n * you may not use this file except in compliance with the License.           *\n * You may obtain a copy of the License at                                    *\n *                                                                            *\n *     http://www.apache.org/licenses/LICENSE-2.0                             *\n *                                                                            *\n * Unless required by applicable law or agreed to in writing, software        *\n * distributed under the License is distributed on an \"AS IS\" BASIS,          *\n * WITHOUT WARRANTIES OR CONDITIONS OF ANY KIND, either express or implied.   *\n * See the License for the specific language governing permissions and        *\n * limitations under the License.                                             *\n ******************************************************************************/\n\npragma solidity ^0.6.0;\npragma experimental ABIEncoderV2;\n\nimport \"../DelegateBase.sol\";\nimport \"../interfaces/IexecMaintenance.sol\";\n\n\ncontract IexecMaintenanceDelegate is IexecMaintenance, DelegateBase\n{\n\tusing SafeMathExtended  for uint256;\n\tusing IexecLibOrders_v5 for IexecLibOrders_v5.EIP712Domain;\n\n\tfunction configure(\n\t\taddress          _token,\n\t\tstring  calldata _name,\n\t\tstring  calldata _symbol,\n\t\tuint8            _decimal,\n\t\taddress          _appregistryAddress,\n\t\taddress          _datasetregistryAddress,\n\t\taddress          _workerpoolregistryAddress,\n\t\taddress          _v3_iexecHubAddress)\n\texternal override onlyOwner()\n\t{\n\t\trequire(EIP712DOMAIN_SEPARATOR == bytes32(0), 'already-configured');\n\t\tEIP712DOMAIN_SEPARATOR = _domain().hash();\n\n\t\tm_baseToken          = IERC20KYC(_token);\n\t\tm_name               = _name;\n\t\tm_symbol             = _symbol;\n\t\tm_decimals           = _decimal;\n\t\tm_appregistry        = IRegistry(_appregistryAddress);\n\t\tm_datasetregistry    = IRegistry(_datasetregistryAddress);\n\t\tm_workerpoolregistry = IRegistry(_workerpoolregistryAddress);\n\t\tm_v3_iexecHub        = IexecHubInterface(_v3_iexecHubAddress);\n\t\tm_callbackgas        = 100000;\n\t}\n\n\tfunction domain()\n\texternal view override returns (IexecLibOrders_v5.EIP712Domain memory)\n\t{\n\t\treturn _domain();\n\t}\n\n\tfunction updateDomainSeparator()\n\texternal override\n\t{\n\t\trequire(EIP712DOMAIN_SEPARATOR != bytes32(0), 'not-configured');\n\t\tEIP712DOMAIN_SEPARATOR = _domain().hash();\n\t}\n\n\tfunction importScore(address _worker)\n\texternal override\n\t{\n\t\trequire(!m_v3_scoreImported[_worker], 'score-already-imported');\n\t\tm_workerScores[_worker] = m_workerScores[_worker].max(m_v3_iexecHub.viewScore(_worker));\n\t\tm_v3_scoreImported[_worker] = true;\n\t}\n\n\tfunction setTeeBroker(address _teebroker)\n\texternal override onlyOwner()\n\t{\n\t\tm_teebroker = _teebroker;\n\t}\n\n\tfunction setCallbackGas(uint256 _callbackgas)\n\texternal override onlyOwner()\n\t{\n\t\tm_callbackgas = _callbackgas;\n\t}\n\n\tfunction _chainId()\n\tinternal pure returns (uint256 id)\n\t{\n\t\tassembly { id := chainid() }\n\t}\n\n\tfunction _domain()\n\tinternal view returns (IexecLibOrders_v5.EIP712Domain memory)\n\t{\n\t\treturn IexecLibOrders_v5.EIP712Domain({\n\t\t\tname:              'iExecODB'\n\t\t,\tversion:           '5.0.0'\n\t\t,\tchainId:           _chainId()\n\t\t,\tverifyingContract: address(this)\n\t\t});\n\t}\n}\n",
  "sourcePath": "/home/amxx/Work/iExec/code/PoCo-dev/contracts/modules/delegates/IexecMaintenanceDelegate.sol",
  "compiler": {
    "name": "solc",
    "version": "0.6.12+commit.27d51765.Emscripten.clang"
  },
  "schemaVersion": "3.2.2",
  "updatedAt": "2020-11-09T09:15:00.598Z",
  "devdoc": {
    "kind": "dev",
    "methods": {
      "owner()": {
        "details": "Returns the address of the current owner."
      },
      "renounceOwnership()": {
        "details": "Leaves the contract without owner. It will not be possible to call `onlyOwner` functions anymore. Can only be called by the current owner. NOTE: Renouncing ownership will leave the contract without an owner, thereby removing any functionality that is only available to the owner."
      },
      "transferOwnership(address)": {
        "details": "Transfers ownership of the contract to a new account (`newOwner`). Can only be called by the current owner."
      }
    },
    "version": 1
  },
  "userdoc": {
    "kind": "user",
    "methods": {},
    "version": 1
  }
}