{
  "contractName": "IexecEscrowTokenDelegate",
  "abi": [
    {
      "anonymous": false,
      "inputs": [
        {
          "indexed": true,
          "internalType": "address",
          "name": "owner",
          "type": "address"
        },
        {
          "indexed": true,
          "internalType": "address",
          "name": "spender",
          "type": "address"
        },
        {
          "indexed": false,
          "internalType": "uint256",
          "name": "value",
          "type": "uint256"
        }
      ],
      "name": "Approval",
      "type": "event"
    },
    {
      "anonymous": false,
      "inputs": [
        {
          "indexed": true,
          "internalType": "address",
          "name": "previousOwner",
          "type": "address"
        },
        {
          "indexed": true,
          "internalType": "address",
          "name": "newOwner",
          "type": "address"
        }
      ],
      "name": "OwnershipTransferred",
      "type": "event"
    },
    {
      "anonymous": false,
      "inputs": [
        {
          "indexed": true,
          "internalType": "address",
          "name": "from",
          "type": "address"
        },
        {
          "indexed": true,
          "internalType": "address",
          "name": "to",
          "type": "address"
        },
        {
          "indexed": false,
          "internalType": "uint256",
          "name": "value",
          "type": "uint256"
        }
      ],
      "name": "Transfer",
      "type": "event"
    },
    {
      "inputs": [],
      "name": "owner",
      "outputs": [
        {
          "internalType": "address",
          "name": "",
          "type": "address"
        }
      ],
      "stateMutability": "view",
      "type": "function"
    },
    {
      "inputs": [],
      "name": "renounceOwnership",
      "outputs": [],
      "stateMutability": "nonpayable",
      "type": "function"
    },
    {
      "inputs": [
        {
          "internalType": "address",
          "name": "newOwner",
          "type": "address"
        }
      ],
      "name": "transferOwnership",
      "outputs": [],
      "stateMutability": "nonpayable",
      "type": "function"
    },
    {
      "stateMutability": "payable",
      "type": "receive"
    },
    {
      "inputs": [
        {
          "internalType": "uint256",
          "name": "amount",
          "type": "uint256"
        }
      ],
      "name": "deposit",
      "outputs": [
        {
          "internalType": "bool",
          "name": "",
          "type": "bool"
        }
      ],
      "stateMutability": "nonpayable",
      "type": "function"
    },
    {
      "inputs": [
        {
          "internalType": "uint256",
          "name": "amount",
          "type": "uint256"
        },
        {
          "internalType": "address",
          "name": "target",
          "type": "address"
        }
      ],
      "name": "depositFor",
      "outputs": [
        {
          "internalType": "bool",
          "name": "",
          "type": "bool"
        }
      ],
      "stateMutability": "nonpayable",
      "type": "function"
    },
    {
      "inputs": [
        {
          "internalType": "uint256[]",
          "name": "amounts",
          "type": "uint256[]"
        },
        {
          "internalType": "address[]",
          "name": "targets",
          "type": "address[]"
        }
      ],
      "name": "depositForArray",
      "outputs": [
        {
          "internalType": "bool",
          "name": "",
          "type": "bool"
        }
      ],
      "stateMutability": "nonpayable",
      "type": "function"
    },
    {
      "inputs": [
        {
          "internalType": "uint256",
          "name": "amount",
          "type": "uint256"
        }
      ],
      "name": "withdraw",
      "outputs": [
        {
          "internalType": "bool",
          "name": "",
          "type": "bool"
        }
      ],
      "stateMutability": "nonpayable",
      "type": "function"
    },
    {
      "inputs": [],
      "name": "recover",
      "outputs": [
        {
          "internalType": "uint256",
          "name": "",
          "type": "uint256"
        }
      ],
      "stateMutability": "nonpayable",
      "type": "function"
    },
    {
      "inputs": [
        {
          "internalType": "address",
          "name": "sender",
          "type": "address"
        },
        {
          "internalType": "uint256",
          "name": "amount",
          "type": "uint256"
        },
        {
          "internalType": "address",
          "name": "token",
          "type": "address"
        },
        {
          "internalType": "bytes",
          "name": "",
          "type": "bytes"
        }
      ],
      "name": "receiveApproval",
      "outputs": [
        {
          "internalType": "bool",
          "name": "",
          "type": "bool"
        }
      ],
      "stateMutability": "nonpayable",
      "type": "function"
    }
  ],
  "bytecode": "0x608060405260006100176001600160e01b0361006516565b600080546001600160a01b0319166001600160a01b038316908117825560405192935091600080516020610db8833981519152908290a3506100606001600160e01b0361006916565b61011d565b3390565b61007a6001600160e01b0361006516565b6000546001600160a01b039081169116146100b05760405162461bcd60e51b81526004016100a7906100e8565b60405180910390fd5b600080546040516001600160a01b0390911690600080516020610db8833981519152908390a3600080546001600160a01b0319169055565b6020808252818101527f4f776e61626c653a2063616c6c6572206973206e6f7420746865206f776e6572604082015260600190565b610c8c8061012c6000396000f3fe60806040526004361061008a5760003560e01c80638da5cb5b116100595780638da5cb5b146101425780638f4ffcb114610164578063b6b55f2514610184578063ce746024146101a4578063f2fde38b146101c6576100b0565b80632e1a7d4d146100b55780633354f8a5146100eb57806336efd16f1461010b578063715018a61461012b576100b0565b366100b05760405162461bcd60e51b81526004016100a790610b6d565b60405180910390fd5b600080fd5b3480156100c157600080fd5b506100d56100d03660046109de565b6101e6565b6040516100e29190610a8b565b60405180910390f35b3480156100f757600080fd5b506100d5610106366004610955565b610212565b34801561011757600080fd5b506100d5610126366004610a0e565b6102b1565b34801561013757600080fd5b506101406102d8565b005b34801561014e57600080fd5b50610157610357565b6040516100e29190610a3a565b34801561017057600080fd5b506100d561017f3660046108b8565b610366565b34801561019057600080fd5b506100d561019f3660046109de565b6103aa565b3480156101b057600080fd5b506101b96103ce565b6040516100e29190610c35565b3480156101d257600080fd5b506101406101e136600461089d565b6104b5565b60006101f96101f361056b565b8361056f565b61020a61020461056b565b8361062c565b506001919050565b60008382146102335760405162461bcd60e51b81526004016100a790610b0a565b60005b848110156102a55761026161024961056b565b87878481811061025557fe5b905060200201356106b5565b61029d84848381811061027057fe5b9050602002016020810190610285919061089d565b87878481811061029157fe5b9050602002013561075b565b600101610236565b50600195945050505050565b60006102c46102be61056b565b846106b5565b6102ce828461075b565b5060015b92915050565b6102e061056b565b6000546001600160a01b0390811691161461030d5760405162461bcd60e51b81526004016100a790610b38565b600080546040516001600160a01b03909116907f8be0079c531659141344cd1fd0a4f28419497f9722a3daafe3b4186f6b6457e0908390a3600080546001600160a01b0319169055565b6000546001600160a01b031690565b6008546000906001600160a01b038581169116146103965760405162461bcd60e51b81526004016100a790610bd9565b6103a086866106b5565b6102a5868661075b565b60006103bd6103b761056b565b836106b5565b61020a6103c861056b565b8361075b565b60006103d861056b565b6000546001600160a01b039081169116146104055760405162461bcd60e51b81526004016100a790610b38565b600c546008546040516370a0823160e01b815260009261049d9290916001600160a01b03909116906370a0823190610441903090600401610a3a565b60206040518083038186803b15801561045957600080fd5b505afa15801561046d573d6000803e3d6000fd5b505050506040513d601f19601f8201168201806040525081019061049191906109f6565b9063ffffffff61080f16565b90506104b06104aa610357565b8261075b565b905090565b6104bd61056b565b6000546001600160a01b039081169116146104ea5760405162461bcd60e51b81526004016100a790610b38565b6001600160a01b0381166105105760405162461bcd60e51b81526004016100a790610a96565b600080546040516001600160a01b03808516939216917f8be0079c531659141344cd1fd0a4f28419497f9722a3daafe3b4186f6b6457e091a3600080546001600160a01b0319166001600160a01b0392909216919091179055565b3390565b6001600160a01b0382166105955760405162461bcd60e51b81526004016100a790610b98565b600c546105a8908263ffffffff61080f16565b600c556001600160a01b0382166000908152600d60205260409020546105d4908263ffffffff61080f16565b6001600160a01b0383166000818152600d60205260408082209390935591517fddf252ad1be2c89b69c2b068fc378daa952ba7f163c4a11628f55a4df523b3ef90610620908590610c35565b60405180910390a35050565b60085460405163a9059cbb60e01b81526001600160a01b039091169063a9059cbb9061065e9085908590600401610a72565b602060405180830381600087803b15801561067857600080fd5b505af115801561068c573d6000803e3d6000fd5b505050506040513d601f19601f820116820180604052508101906106b091906109be565b505050565b6008546040516323b872dd60e01b81526001600160a01b03909116906323b872dd906106e990859030908690600401610a4e565b602060405180830381600087803b15801561070357600080fd5b505af1158015610717573d6000803e3d6000fd5b505050506040513d601f19601f8201168201806040525081019061073b91906109be565b6107575760405162461bcd60e51b81526004016100a790610adc565b5050565b6001600160a01b0382166107815760405162461bcd60e51b81526004016100a790610bfe565b600c54610794908263ffffffff61082416565b600c556001600160a01b0382166000908152600d60205260409020546107c0908263ffffffff61082416565b6001600160a01b0383166000818152600d60205260408082209390935591519091907fddf252ad1be2c89b69c2b068fc378daa952ba7f163c4a11628f55a4df523b3ef90610620908590610c35565b60008282111561081e57600080fd5b50900390565b60008282018381101561083657600080fd5b9392505050565b80356001600160a01b03811681146102d257600080fd5b60008083601f840112610865578182fd5b50813567ffffffffffffffff81111561087c578182fd5b602083019150836020808302850101111561089657600080fd5b9250929050565b6000602082840312156108ae578081fd5b610836838361083d565b6000806000806000608086880312156108cf578081fd5b85356108da81610c3e565b94506020860135935060408601356108f181610c3e565b9250606086013567ffffffffffffffff8082111561090d578283fd5b81880189601f82011261091e578384fd5b803592508183111561092e578384fd5b89602084830101111561093f578384fd5b6020810194505050809150509295509295909350565b6000806000806040858703121561096a578384fd5b843567ffffffffffffffff80821115610981578586fd5b61098d88838901610854565b909650945060208701359150808211156109a5578384fd5b506109b287828801610854565b95989497509550505050565b6000602082840312156109cf578081fd5b81518015158114610836578182fd5b6000602082840312156109ef578081fd5b5035919050565b600060208284031215610a07578081fd5b5051919050565b60008060408385031215610a20578182fd5b82359150610a31846020850161083d565b90509250929050565b6001600160a01b0391909116815260200190565b6001600160a01b039384168152919092166020820152604081019190915260600190565b6001600160a01b03929092168252602082015260400190565b901515815260200190565b60208082526026908201527f4f776e61626c653a206e6577206f776e657220697320746865207a65726f206160408201526564647265737360d01b606082015260800190565b6020808252601490820152736661696c6c65642d7472616e7366657246726f6d60601b604082015260600190565b6020808252601490820152730d2dcecc2d8d2c85ac2e4e4c2f25ad8cadccee8d60631b604082015260600190565b6020808252818101527f4f776e61626c653a2063616c6c6572206973206e6f7420746865206f776e6572604082015260600190565b60208082526011908201527019985b1b189858dacb591a5cd8589b1959607a1b604082015260600190565b60208082526021908201527f45524332303a206275726e2066726f6d20746865207a65726f206164647265736040820152607360f81b606082015260800190565b6020808252600b908201526a3bb937b73396ba37b5b2b760a91b604082015260600190565b6020808252601f908201527f45524332303a206d696e7420746f20746865207a65726f206164647265737300604082015260600190565b90815260200190565b6001600160a01b0381168114610c5357600080fd5b5056fea26469706673582212205c5f613a6756f6583aad224b4ac6db2b2db0dfaba47f79d1cc3035470198cc0d64736f6c634300060600338be0079c531659141344cd1fd0a4f28419497f9722a3daafe3b4186f6b6457e0",
  "source": "pragma solidity ^0.6.0;\npragma experimental ABIEncoderV2;\n\nimport \"./IexecERC20Common.sol\";\nimport \"../DelegateBase.sol\";\nimport \"../interfaces/IexecEscrowToken.sol\";\nimport \"../interfaces/IexecTokenSpender.sol\";\n\n\ncontract IexecEscrowTokenDelegate is IexecEscrowToken, IexecTokenSpender, DelegateBase, IexecERC20Common\n{\n\tusing SafeMathExtended for uint256;\n\n\t/***************************************************************************\n\t *                         Escrow methods: public                          *\n\t ***************************************************************************/\n\treceive()\n\texternal override payable\n\t{\n\t\trevert('fallback-disabled');\n\t}\n\n\tfunction deposit(uint256 amount)\n\texternal override returns (bool)\n\t{\n\t\t_deposit(_msgSender(), amount);\n\t\t_mint(_msgSender(), amount);\n\t\treturn true;\n\t}\n\n\tfunction depositFor(uint256 amount, address target)\n\texternal override returns (bool)\n\t{\n\t\t_deposit(_msgSender(), amount);\n\t\t_mint(target, amount);\n\t\treturn true;\n\t}\n\n\tfunction depositForArray(uint256[] calldata amounts, address[] calldata targets)\n\texternal override returns (bool)\n\t{\n\t\trequire(amounts.length == targets.length, 'invalid-array-length');\n\t\tfor (uint i = 0; i < amounts.length; ++i)\n\t\t{\n\t\t\t_deposit(_msgSender(), amounts[i]);\n\t\t\t_mint(targets[i], amounts[i]);\n\t\t}\n\t\treturn true;\n\t}\n\n\tfunction withdraw(uint256 amount)\n\texternal override returns (bool)\n\t{\n\t\t_burn(_msgSender(), amount);\n\t\t_withdraw(_msgSender(), amount);\n\t\treturn true;\n\t}\n\n\tfunction recover()\n\texternal override onlyOwner returns (uint256)\n\t{\n\t\tuint256 delta = m_baseToken.balanceOf(address(this)).sub(m_totalSupply);\n\t\t_mint(owner(), delta);\n\t\treturn delta;\n\t}\n\n\t// Token Spender (endpoint for approveAndCallback calls to the proxy)\n\tfunction receiveApproval(address sender, uint256 amount, address token, bytes calldata)\n\texternal override returns (bool)\n\t{\n\t\trequire(token == address(m_baseToken), 'wrong-token');\n\t\t_deposit(sender, amount);\n\t\t_mint(sender, amount);\n\t\treturn true;\n\t}\n\n\tfunction _deposit(address from, uint256 amount)\n\tinternal\n\t{\n\t\trequire(m_baseToken.transferFrom(from, address(this), amount), 'failled-transferFrom');\n\t}\n\n\tfunction _withdraw(address to, uint256 amount)\n\tinternal\n\t{\n\t\tm_baseToken.transfer(to, amount);\n\t}\n}\n",
  "sourcePath": "/home/amxx/Work/iExec/code/PoCo-dev/contracts/modules/delegates/IexecEscrowTokenDelegate.sol",
  "compiler": {
    "name": "solc",
    "version": "0.6.6+commit.6c089d02.Emscripten.clang"
  },
  "schemaVersion": "3.0.23",
  "updatedAt": "2020-04-21T07:39:58.832Z",
  "devdoc": {
    "methods": {
      "owner()": {
        "details": "Returns the address of the current owner."
      },
      "renounceOwnership()": {
        "details": "Leaves the contract without owner. It will not be possible to call `onlyOwner` functions anymore. Can only be called by the current owner.     * NOTE: Renouncing ownership will leave the contract without an owner, thereby removing any functionality that is only available to the owner."
      },
      "transferOwnership(address)": {
        "details": "Transfers ownership of the contract to a new account (`newOwner`). Can only be called by the current owner."
      }
    }
  },
  "userdoc": {
    "methods": {}
  }
}