{
  "contractName": "IexecAPI",
  "abi": [
    {
      "constant": false,
      "inputs": [
        {
          "name": "_workerPool",
          "type": "address"
        },
        {
          "name": "_app",
          "type": "address"
        },
        {
          "name": "_dataset",
          "type": "address"
        },
        {
          "name": "_taskParam",
          "type": "string"
        },
        {
          "name": "_taskCost",
          "type": "uint256"
        },
        {
          "name": "_askedTrust",
          "type": "uint256"
        },
        {
          "name": "_dappCallback",
          "type": "bool"
        }
      ],
      "name": "createTaskRequest",
      "outputs": [],
      "payable": false,
      "stateMutability": "nonpayable",
      "type": "function"
    },
    {
      "constant": false,
      "inputs": [
        {
          "name": "_taskId",
          "type": "address"
        },
        {
          "name": "_stdout",
          "type": "string"
        },
        {
          "name": "_stderr",
          "type": "string"
        },
        {
          "name": "_uri",
          "type": "string"
        }
      ],
      "name": "taskRequestCallback",
      "outputs": [
        {
          "name": "",
          "type": "bool"
        }
      ],
      "payable": false,
      "stateMutability": "nonpayable",
      "type": "function"
    },
    {
      "inputs": [
        {
          "name": "_iexecHubAddress",
          "type": "address"
        }
      ],
      "payable": false,
      "stateMutability": "nonpayable",
      "type": "constructor"
    },
    {
      "anonymous": false,
      "inputs": [
        {
          "indexed": false,
          "name": "taskId",
          "type": "address"
        },
        {
          "indexed": false,
          "name": "stdout",
          "type": "string"
        },
        {
          "indexed": false,
          "name": "stderr",
          "type": "string"
        },
        {
          "indexed": false,
          "name": "uri",
          "type": "string"
        }
      ],
      "name": "TaskRequestCallback",
      "type": "event"
    }
  ],
  "bytecode": "0x6060604052341561000f57600080fd5b60405160208061071883398101604052808051906020019091905050806000806101000a81548173ffffffffffffffffffffffffffffffffffffffff021916908373ffffffffffffffffffffffffffffffffffffffff1602179055506000809054906101000a900473ffffffffffffffffffffffffffffffffffffffff16600160006101000a81548173ffffffffffffffffffffffffffffffffffffffff021916908373ffffffffffffffffffffffffffffffffffffffff1602179055505061063b806100dd6000396000f30060606040526004361061004c576000357c0100000000000000000000000000000000000000000000000000000000900463ffffffff1680639b60f50214610051578063bfff6b4514610128575b600080fd5b341561005c57600080fd5b610126600480803573ffffffffffffffffffffffffffffffffffffffff1690602001909190803573ffffffffffffffffffffffffffffffffffffffff1690602001909190803573ffffffffffffffffffffffffffffffffffffffff1690602001909190803590602001908201803590602001908080601f016020809104026020016040519081016040528093929190818152602001838380828437820191505050505050919080359060200190919080359060200190919080351515906020019091905050610242565b005b341561013357600080fd5b610228600480803573ffffffffffffffffffffffffffffffffffffffff1690602001909190803590602001908201803590602001908080601f0160208091040260200160405190810160405280939291908181526020018383808284378201915050505050509190803590602001908201803590602001908080601f0160208091040260200160405190810160405280939291908181526020018383808284378201915050505050509190803590602001908201803590602001908080601f0160208091040260200160405190810160405280939291908181526020018383808284378201915050505050509190505061041d565b604051808215151515815260200191505060405180910390f35b600160009054906101000a900473ffffffffffffffffffffffffffffffffffffffff1673ffffffffffffffffffffffffffffffffffffffff16639b60f502888888888888886000604051602001526040518863ffffffff167c0100000000000000000000000000000000000000000000000000000000028152600401808873ffffffffffffffffffffffffffffffffffffffff1673ffffffffffffffffffffffffffffffffffffffff1681526020018773ffffffffffffffffffffffffffffffffffffffff1673ffffffffffffffffffffffffffffffffffffffff1681526020018673ffffffffffffffffffffffffffffffffffffffff1673ffffffffffffffffffffffffffffffffffffffff1681526020018060200185815260200184815260200183151515158152602001828103825286818151815260200191508051906020019080838360005b838110156103a757808201518184015260208101905061038c565b50505050905090810190601f1680156103d45780820380516001836020036101000a031916815260200191505b5098505050505050505050602060405180830381600087803b15156103f857600080fd5b6102c65a03f1151561040957600080fd5b505050604051805190505050505050505050565b60008473ffffffffffffffffffffffffffffffffffffffff163373ffffffffffffffffffffffffffffffffffffffff1614151561045957600080fd5b7f0d89e2fc80817be1f7ba936a4074b91fed70cc5bdd6bf4c470dd7eeb6f7e66cc85858585604051808573ffffffffffffffffffffffffffffffffffffffff1673ffffffffffffffffffffffffffffffffffffffff168152602001806020018060200180602001848103845287818151815260200191508051906020019080838360005b838110156104f85780820151818401526020810190506104dd565b50505050905090810190601f1680156105255780820380516001836020036101000a031916815260200191505b50848103835286818151815260200191508051906020019080838360005b8381101561055e578082015181840152602081019050610543565b50505050905090810190601f16801561058b5780820380516001836020036101000a031916815260200191505b50848103825285818151815260200191508051906020019080838360005b838110156105c45780820151818401526020810190506105a9565b50505050905090810190601f1680156105f15780820380516001836020036101000a031916815260200191505b5097505050505050505060405180910390a1600190509493505050505600a165627a7a723058208fb5799b2d7520621d7599e57f358bae053cbd8f96771b856d6ca17dea2962ce0029",
  "source": "pragma solidity ^0.4.18;\n\nimport \"./IexecHub.sol\";\n\ncontract IexecAPI\n{\n\n\taddress  private iexecHubAddress;\n\tIexecHub private iexecHub;\n\tevent TaskRequestCallback(address taskId, string stdout, string stderr, string uri);\n\n\t//constructor\n\tfunction IexecAPI(address _iexecHubAddress) public\n\t{\n\t\tiexecHubAddress=_iexecHubAddress;\n\t\tiexecHub = IexecHub(iexecHubAddress);\n\t}\n\n\tfunction createTaskRequest(address _workerPool, address _app, address _dataset, string _taskParam, uint _taskCost, uint _askedTrust, bool _dappCallback) public\n\t{\n\t\tiexecHub.createTaskRequest(_workerPool,_app,_dataset,_taskParam,_taskCost,_askedTrust,_dappCallback);\n\t}\n\n\t//TODO add cancel Task function\n\n\tfunction taskRequestCallback(address _taskId, string _stdout, string _stderr, string _uri) public returns(bool)\n\t{\n\t\trequire(msg.sender == _taskId);\n\t\tTaskRequestCallback(_taskId,_stdout,_stderr,_uri);\n\t\treturn true;\n\t}\n}\n",
  "sourcePath": "/home/vagrant/iexecdev/PoCo/contracts/IexecAPI.sol",
  "compiler": {
    "name": "solc",
    "version": "0.4.18+commit.9cf6e910.Emscripten.clang"
  },
  "schemaVersion": "1.0.1",
  "updatedAt": "2018-01-29T14:56:05.515Z"
}