{
  "contractName": "IexecEscrowNativeDelegate",
  "abi": [
    {
      "anonymous": false,
      "inputs": [
        {
          "indexed": true,
          "internalType": "address",
          "name": "owner",
          "type": "address"
        },
        {
          "indexed": true,
          "internalType": "address",
          "name": "spender",
          "type": "address"
        },
        {
          "indexed": false,
          "internalType": "uint256",
          "name": "value",
          "type": "uint256"
        }
      ],
      "name": "Approval",
      "type": "event"
    },
    {
      "anonymous": false,
      "inputs": [
        {
          "indexed": true,
          "internalType": "address",
          "name": "previousOwner",
          "type": "address"
        },
        {
          "indexed": true,
          "internalType": "address",
          "name": "newOwner",
          "type": "address"
        }
      ],
      "name": "OwnershipTransferred",
      "type": "event"
    },
    {
      "anonymous": false,
      "inputs": [
        {
          "indexed": true,
          "internalType": "address",
          "name": "from",
          "type": "address"
        },
        {
          "indexed": true,
          "internalType": "address",
          "name": "to",
          "type": "address"
        },
        {
          "indexed": false,
          "internalType": "uint256",
          "name": "value",
          "type": "uint256"
        }
      ],
      "name": "Transfer",
      "type": "event"
    },
    {
      "inputs": [],
      "name": "isOwner",
      "outputs": [
        {
          "internalType": "bool",
          "name": "",
          "type": "bool"
        }
      ],
      "stateMutability": "view",
      "type": "function"
    },
    {
      "inputs": [],
      "name": "owner",
      "outputs": [
        {
          "internalType": "address",
          "name": "",
          "type": "address"
        }
      ],
      "stateMutability": "view",
      "type": "function"
    },
    {
      "inputs": [],
      "name": "renounceOwnership",
      "outputs": [],
      "stateMutability": "nonpayable",
      "type": "function"
    },
    {
      "inputs": [
        {
          "internalType": "address",
          "name": "newOwner",
          "type": "address"
        }
      ],
      "name": "transferOwnership",
      "outputs": [],
      "stateMutability": "nonpayable",
      "type": "function"
    },
    {
      "stateMutability": "payable",
      "type": "receive"
    },
    {
      "inputs": [],
      "name": "deposit",
      "outputs": [
        {
          "internalType": "bool",
          "name": "",
          "type": "bool"
        }
      ],
      "stateMutability": "payable",
      "type": "function"
    },
    {
      "inputs": [
        {
          "internalType": "address",
          "name": "target",
          "type": "address"
        }
      ],
      "name": "depositFor",
      "outputs": [
        {
          "internalType": "bool",
          "name": "",
          "type": "bool"
        }
      ],
      "stateMutability": "payable",
      "type": "function"
    },
    {
      "inputs": [
        {
          "internalType": "uint256[]",
          "name": "amounts",
          "type": "uint256[]"
        },
        {
          "internalType": "address[]",
          "name": "targets",
          "type": "address[]"
        }
      ],
      "name": "depositForArray",
      "outputs": [
        {
          "internalType": "bool",
          "name": "",
          "type": "bool"
        }
      ],
      "stateMutability": "payable",
      "type": "function"
    },
    {
      "inputs": [
        {
          "internalType": "uint256",
          "name": "amount",
          "type": "uint256"
        }
      ],
      "name": "withdraw",
      "outputs": [
        {
          "internalType": "bool",
          "name": "",
          "type": "bool"
        }
      ],
      "stateMutability": "nonpayable",
      "type": "function"
    },
    {
      "inputs": [],
      "name": "recover",
      "outputs": [
        {
          "internalType": "uint256",
          "name": "",
          "type": "uint256"
        }
      ],
      "stateMutability": "nonpayable",
      "type": "function"
    }
  ],
  "bytecode": "0x608060405260006100176001600160e01b0361006516565b600080546001600160a01b0319166001600160a01b038316908117825560405192935091600080516020610afb833981519152908290a3506100606001600160e01b0361006916565b610139565b3390565b61007a6001600160e01b036100d716565b61009f5760405162461bcd60e51b815260040161009690610104565b60405180910390fd5b600080546040516001600160a01b0390911690600080516020610afb833981519152908390a3600080546001600160a01b0319169055565b600080546001600160a01b03166100f56001600160e01b0361006516565b6001600160a01b031614905090565b6020808252818101527f4f776e61626c653a2063616c6c6572206973206e6f7420746865206f776e6572604082015260600190565b6109b3806101486000396000f3fe60806040526004361061008a5760003560e01c80638f32d59b116100595780638f32d59b14610126578063aa67c9191461013b578063ce7460241461014e578063d0e30db014610170578063f2fde38b14610178576100a1565b80632e1a7d4d146100a65780633354f8a5146100dc578063715018a6146100ef5780638da5cb5b14610104576100a1565b366100a15761009f61009a610198565b61019c565b005b600080fd5b3480156100b257600080fd5b506100c66100c1366004610810565b6101e0565b6040516100d3919061083f565b60405180910390f35b6100c66100ea3660046107a7565b61021a565b3480156100fb57600080fd5b5061009f6102d1565b34801561011057600080fd5b50610119610348565b6040516100d3919061082b565b34801561013257600080fd5b506100c6610357565b6100c6610149366004610780565b61037b565b34801561015a57600080fd5b50610163610386565b6040516100d39190610974565b6100c66103ee565b34801561018457600080fd5b5061009f610193366004610780565b610401565b3390565b6101b9816101b434633b9aca0063ffffffff61042e16565b610452565b6101dd6101c4610198565b6101d834633b9aca0063ffffffff61051216565b61052f565b50565b60006101f36101ed610198565b836105b0565b6102126101fe610198565b6101d884633b9aca0063ffffffff61066116565b506001919050565b600083821461022857600080fd5b3460005b858110156102b35761027085858381811061024357fe5b90506020020160208101906102589190610780565b88888481811061026457fe5b90506020020135610452565b6102a961029c633b9aca0089898581811061028757fe5b9050602002013561066190919063ffffffff16565b839063ffffffff61068f16565b915060010161022c565b506102c56102bf610198565b8261052f565b50600195945050505050565b6102d9610357565b6102fe5760405162461bcd60e51b81526004016102f5906108c7565b60405180910390fd5b600080546040516001600160a01b03909116907f8be0079c531659141344cd1fd0a4f28419497f9722a3daafe3b4186f6b6457e0908390a3600080546001600160a01b0319169055565b6000546001600160a01b031690565b600080546001600160a01b031661036c610198565b6001600160a01b031614905090565b60006102128261019c565b6000610390610357565b6103ac5760405162461bcd60e51b81526004016102f5906108c7565b600c546000906103d6906103ca47633b9aca0063ffffffff61042e16565b9063ffffffff61068f16565b90506103e96103e3610348565b82610452565b905090565b60006103fb61009a610198565b50600190565b610409610357565b6104255760405162461bcd60e51b81526004016102f5906108c7565b6101dd816106a4565b600080821161043c57600080fd5b600082848161044757fe5b049150505b92915050565b6001600160a01b0382166104785760405162461bcd60e51b81526004016102f59061093d565b600c5461048b908263ffffffff61072516565b600c556001600160a01b0382166000908152600d60205260409020546104b7908263ffffffff61072516565b6001600160a01b0383166000818152600d60205260408082209390935591519091907fddf252ad1be2c89b69c2b068fc378daa952ba7f163c4a11628f55a4df523b3ef90610506908590610974565b60405180910390a35050565b60008161051e57600080fd5b81838161052757fe5b069392505050565b6000826001600160a01b03168260405161054890610828565b60006040518083038185875af1925050503d8060008114610585576040519150601f19603f3d011682016040523d82523d6000602084013e61058a565b606091505b50509050806105ab5760405162461bcd60e51b81526004016102f590610890565b505050565b6001600160a01b0382166105d65760405162461bcd60e51b81526004016102f5906108fc565b600c546105e9908263ffffffff61068f16565b600c556001600160a01b0382166000908152600d6020526040902054610615908263ffffffff61068f16565b6001600160a01b0383166000818152600d60205260408082209390935591517fddf252ad1be2c89b69c2b068fc378daa952ba7f163c4a11628f55a4df523b3ef90610506908590610974565b6000826106705750600061044c565b8282028284828161067d57fe5b041461068857600080fd5b9392505050565b60008282111561069e57600080fd5b50900390565b6001600160a01b0381166106ca5760405162461bcd60e51b81526004016102f59061084a565b600080546040516001600160a01b03808516939216917f8be0079c531659141344cd1fd0a4f28419497f9722a3daafe3b4186f6b6457e091a3600080546001600160a01b0319166001600160a01b0392909216919091179055565b60008282018381101561068857600080fd5b60008083601f840112610748578182fd5b50813567ffffffffffffffff81111561075f578182fd5b602083019150836020808302850101111561077957600080fd5b9250929050565b600060208284031215610791578081fd5b81356001600160a01b0381168114610688578182fd5b600080600080604085870312156107bc578283fd5b843567ffffffffffffffff808211156107d3578485fd5b6107df88838901610737565b909650945060208701359150808211156107f7578384fd5b5061080487828801610737565b95989497509550505050565b600060208284031215610821578081fd5b5035919050565b90565b6001600160a01b0391909116815260200190565b901515815260200190565b60208082526026908201527f4f776e61626c653a206e6577206f776e657220697320746865207a65726f206160408201526564647265737360d01b606082015260800190565b60208082526017908201527f6e61746976652d7472616e736665722d6661696c6c6564000000000000000000604082015260600190565b6020808252818101527f4f776e61626c653a2063616c6c6572206973206e6f7420746865206f776e6572604082015260600190565b60208082526021908201527f45524332303a206275726e2066726f6d20746865207a65726f206164647265736040820152607360f81b606082015260800190565b6020808252601f908201527f45524332303a206d696e7420746f20746865207a65726f206164647265737300604082015260600190565b9081526020019056fea264697066735822122088fc83a6309c4e9a66a81d4494a15fdaf2dfe8e81f8c164a6ef0d401bc9f903764736f6c634300060400338be0079c531659141344cd1fd0a4f28419497f9722a3daafe3b4186f6b6457e0",
  "source": "pragma solidity ^0.6.0;\npragma experimental ABIEncoderV2;\n\nimport \"./IexecERC20Common.sol\";\nimport \"../DelegateBase.sol\";\nimport \"../interfaces/IexecEscrowNative.sol\";\n\n\ncontract IexecEscrowNativeDelegate is IexecEscrowNative, DelegateBase, IexecERC20Common\n{\n\tusing SafeMathExtended for uint256;\n\n\tuint256 internal constant nRLCtoWei = 10 ** 9;\n\t/***************************************************************************\n\t *                         Escrow methods: public                          *\n\t ***************************************************************************/\n\treceive()\n\texternal override payable\n\t{\n\t\t_deposit(_msgSender());\n\t}\n\n\tfunction deposit()\n\texternal override payable returns (bool)\n\t{\n\t\t_deposit(_msgSender());\n\t\treturn true;\n\t}\n\n\tfunction depositFor(address target)\n\texternal override payable returns (bool)\n\t{\n\t\t_deposit(target);\n\t\treturn true;\n\t}\n\n\tfunction depositForArray(uint256[] calldata amounts, address[] calldata targets)\n\texternal override payable returns (bool)\n\t{\n\t\trequire(amounts.length == targets.length);\n\t\tuint256 remaining = msg.value;\n\t\tfor (uint i = 0; i < amounts.length; ++i)\n\t\t{\n\t\t\t_mint(targets[i], amounts[i]);\n\t\t\tremaining = remaining.sub(amounts[i].mul(nRLCtoWei));\n\t\t}\n\t\t_withdraw(_msgSender(), remaining);\n\t\treturn true;\n\t}\n\n\tfunction withdraw(uint256 amount)\n\texternal override returns (bool)\n\t{\n\t\t_burn(_msgSender(), amount);\n\t\t_withdraw(_msgSender(), amount.mul(nRLCtoWei));\n\t\treturn true;\n\t}\n\n\tfunction recover()\n\texternal override onlyOwner returns (uint256)\n\t{\n\t\tuint256 delta = address(this).balance.div(nRLCtoWei).sub(m_totalSupply);\n\t\t_mint(owner(), delta);\n\t\treturn delta;\n\t}\n\n\tfunction _deposit(address target)\n\t\tinternal\n\t{\n\t\t_mint(target, msg.value.div(nRLCtoWei));\n\t\t_withdraw(_msgSender(), msg.value.mod(nRLCtoWei));\n\t}\n\n\tfunction _withdraw(address to, uint256 value)\n\t\tinternal\n\t{\n\t\t(bool success, ) = to.call.value(value)('');\n\t\trequire(success, 'native-transfer-failled');\n\t}\n}\n",
  "sourcePath": "/home/amxx/Work/iExec/code/PoCo-dev/contracts/modules/delegates/IexecEscrowNativeDelegate.sol",
  "compiler": {
    "name": "solc",
    "version": "0.6.4+commit.1dca32f3.Emscripten.clang"
  },
  "schemaVersion": "3.0.23",
  "updatedAt": "2020-03-16T11:20:17.231Z",
  "devdoc": {
    "methods": {
      "isOwner()": {
        "details": "Returns true if the caller is the current owner."
      },
      "owner()": {
        "details": "Returns the address of the current owner."
      },
      "renounceOwnership()": {
        "details": "Leaves the contract without owner. It will not be possible to call `onlyOwner` functions anymore. Can only be called by the current owner.     * NOTE: Renouncing ownership will leave the contract without an owner, thereby removing any functionality that is only available to the owner."
      },
      "transferOwnership(address)": {
        "details": "Transfers ownership of the contract to a new account (`newOwner`). Can only be called by the current owner."
      }
    }
  },
  "userdoc": {
    "methods": {}
  }
}