{
  "contractName": "IexecCategoryManagerDelegate",
  "abi": [
    {
      "constant": true,
      "inputs": [],
      "name": "EIP712DOMAIN_SEPARATOR",
      "outputs": [
        {
          "name": "",
          "type": "bytes32"
        }
      ],
      "payable": false,
      "stateMutability": "view",
      "type": "function"
    },
    {
      "constant": true,
      "inputs": [],
      "name": "appregistry",
      "outputs": [
        {
          "name": "",
          "type": "address"
        }
      ],
      "payable": false,
      "stateMutability": "view",
      "type": "function"
    },
    {
      "constant": true,
      "inputs": [],
      "name": "WORKERPOOL_STAKE_RATIO",
      "outputs": [
        {
          "name": "",
          "type": "uint256"
        }
      ],
      "payable": false,
      "stateMutability": "view",
      "type": "function"
    },
    {
      "constant": true,
      "inputs": [],
      "name": "KITTY_RATIO",
      "outputs": [
        {
          "name": "",
          "type": "uint256"
        }
      ],
      "payable": false,
      "stateMutability": "view",
      "type": "function"
    },
    {
      "constant": true,
      "inputs": [],
      "name": "REVEAL_DEADLINE_RATIO",
      "outputs": [
        {
          "name": "",
          "type": "uint256"
        }
      ],
      "payable": false,
      "stateMutability": "view",
      "type": "function"
    },
    {
      "constant": true,
      "inputs": [],
      "name": "GROUPMEMBER_PURPOSE",
      "outputs": [
        {
          "name": "",
          "type": "uint256"
        }
      ],
      "payable": false,
      "stateMutability": "view",
      "type": "function"
    },
    {
      "constant": false,
      "inputs": [],
      "name": "renounceOwnership",
      "outputs": [],
      "payable": false,
      "stateMutability": "nonpayable",
      "type": "function"
    },
    {
      "constant": true,
      "inputs": [],
      "name": "CONTRIBUTION_DEADLINE_RATIO",
      "outputs": [
        {
          "name": "",
          "type": "uint256"
        }
      ],
      "payable": false,
      "stateMutability": "view",
      "type": "function"
    },
    {
      "constant": true,
      "inputs": [],
      "name": "owner",
      "outputs": [
        {
          "name": "",
          "type": "address"
        }
      ],
      "payable": false,
      "stateMutability": "view",
      "type": "function"
    },
    {
      "constant": true,
      "inputs": [],
      "name": "isOwner",
      "outputs": [
        {
          "name": "",
          "type": "bool"
        }
      ],
      "payable": false,
      "stateMutability": "view",
      "type": "function"
    },
    {
      "constant": true,
      "inputs": [],
      "name": "workerpoolregistry",
      "outputs": [
        {
          "name": "",
          "type": "address"
        }
      ],
      "payable": false,
      "stateMutability": "view",
      "type": "function"
    },
    {
      "constant": true,
      "inputs": [],
      "name": "FINAL_DEADLINE_RATIO",
      "outputs": [
        {
          "name": "",
          "type": "uint256"
        }
      ],
      "payable": false,
      "stateMutability": "view",
      "type": "function"
    },
    {
      "constant": true,
      "inputs": [],
      "name": "KITTY_ADDRESS",
      "outputs": [
        {
          "name": "",
          "type": "address"
        }
      ],
      "payable": false,
      "stateMutability": "view",
      "type": "function"
    },
    {
      "constant": true,
      "inputs": [],
      "name": "datasetregistry",
      "outputs": [
        {
          "name": "",
          "type": "address"
        }
      ],
      "payable": false,
      "stateMutability": "view",
      "type": "function"
    },
    {
      "constant": true,
      "inputs": [],
      "name": "KITTY_MIN",
      "outputs": [
        {
          "name": "",
          "type": "uint256"
        }
      ],
      "payable": false,
      "stateMutability": "view",
      "type": "function"
    },
    {
      "constant": false,
      "inputs": [
        {
          "name": "newOwner",
          "type": "address"
        }
      ],
      "name": "transferOwnership",
      "outputs": [],
      "payable": false,
      "stateMutability": "nonpayable",
      "type": "function"
    },
    {
      "anonymous": false,
      "inputs": [
        {
          "indexed": true,
          "name": "previousOwner",
          "type": "address"
        },
        {
          "indexed": true,
          "name": "newOwner",
          "type": "address"
        }
      ],
      "name": "OwnershipTransferred",
      "type": "event"
    },
    {
      "anonymous": false,
      "inputs": [
        {
          "indexed": false,
          "name": "catid",
          "type": "uint256"
        },
        {
          "indexed": false,
          "name": "name",
          "type": "string"
        },
        {
          "indexed": false,
          "name": "description",
          "type": "string"
        },
        {
          "indexed": false,
          "name": "workClockTimeRef",
          "type": "uint256"
        }
      ],
      "name": "CreateCategory",
      "type": "event"
    },
    {
      "constant": false,
      "inputs": [
        {
          "name": "name",
          "type": "string"
        },
        {
          "name": "description",
          "type": "string"
        },
        {
          "name": "workClockTimeRef",
          "type": "uint256"
        }
      ],
      "name": "createCategory",
      "outputs": [
        {
          "name": "",
          "type": "uint256"
        }
      ],
      "payable": false,
      "stateMutability": "nonpayable",
      "type": "function"
    }
  ],
  "bytecode": "0x60806040819052600080546001600160a01b03191633178082556001600160a01b0316917f8be0079c531659141344cd1fd0a4f28419497f9722a3daafe3b4186f6b6457e0908290a36108dc806100576000396000f3fe608060405234801561001057600080fd5b506004361061010b5760003560e01c80637b244832116100a257806390fc26b11161007157806390fc26b11461015e5780639e986e81146101ba578063b1b11d2c146101c2578063e2e7a8c1146101ca578063f2fde38b146101d25761010b565b80637b244832146101805780638da5cb5b146101885780638f32d59b1461019d57806390a0f546146101b25761010b565b806351152de1116100de57806351152de11461015e5780635fde601d1461016657806368a9ef1c1461016e578063715018a6146101765761010b565b8063047411e714610110578063298503d91461012e57806345b637a9146101415780634ec3b9e314610156575b600080fd5b6101186101e5565b60405161012591906107aa565b60405180910390f35b61011861013c366004610631565b6101eb565b610149610346565b60405161012591906107b8565b610118610355565b61011861035a565b61011861035f565b610118610364565b61017e610369565b005b6101186103d7565b6101906103dc565b604051610125919061078e565b6101a56103ec565b604051610125919061079c565b6101496103fd565b61019061040c565b610149610446565b610118610455565b61017e6101e036600461060b565b61045d565b600f5481565b60006101f56103ec565b61021a5760405162461bcd60e51b8152600401610211906107d6565b60405180910390fd5b60006001601a60405180606001604052808a8a8080601f016020809104026020016040519081016040528093929190818152602001838380828437600092019190915250505090825250604080516020601f8b0181900481028201810190925289815291810191908a908a90819084018382808284376000920182905250938552505050602091820188905283546001810180865594825290829020835180516003909302909101926102d29284929091019061050e565b5060208281015180516102eb926001850192019061050e565b506040820151816002015550500390507f62bf08360c9d561749c54eaf4f8bf8cb6c8b6f4f40607bcec39a8172e714d25c818888888888604051610334969594939291906107e6565b60405180910390a19695505050505050565b6004546001600160a01b031681565b601e81565b600a81565b600281565b600481565b6103716103ec565b61038d5760405162461bcd60e51b8152600401610211906107d6565b600080546040516001600160a01b03909116907f8be0079c531659141344cd1fd0a4f28419497f9722a3daafe3b4186f6b6457e0908390a3600080546001600160a01b0319169055565b600781565b6000546001600160a01b03165b90565b6000546001600160a01b0316331490565b6006546001600160a01b031681565b60408051808201909152600a81526969457865634b6974747960b01b6020909101527399c2268479b93fde36232351229815df80837e2481565b6005546001600160a01b031681565b633b9aca0081565b6104656103ec565b6104815760405162461bcd60e51b8152600401610211906107d6565b61048a8161048d565b50565b6001600160a01b0381166104b35760405162461bcd60e51b8152600401610211906107c6565b600080546040516001600160a01b03808516939216917f8be0079c531659141344cd1fd0a4f28419497f9722a3daafe3b4186f6b6457e091a3600080546001600160a01b0319166001600160a01b0392909216919091179055565b828054600181600116156101000203166002900490600052602060002090601f016020900481019282601f1061054f57805160ff191683800117855561057c565b8280016001018555821561057c579182015b8281111561057c578251825591602001919060010190610561565b5061058892915061058c565b5090565b6103e991905b808211156105885760008155600101610592565b80356105b18161087c565b92915050565b60008083601f8401126105c957600080fd5b50813567ffffffffffffffff8111156105e157600080fd5b6020830191508360018202830111156105f957600080fd5b9250929050565b80356105b181610890565b60006020828403121561061d57600080fd5b600061062984846105a6565b949350505050565b60008060008060006060868803121561064957600080fd5b853567ffffffffffffffff81111561066057600080fd5b61066c888289016105b7565b9550955050602086013567ffffffffffffffff81111561068b57600080fd5b610697888289016105b7565b935093505060406106aa88828901610600565b9150509295509295909350565b6106c08161083f565b82525050565b6106c08161084a565b6106c0816103e9565b6106c08161085b565b60006106ed8385610836565b93506106fa838584610866565b61070383610872565b9093019392505050565b600061071a602683610836565b7f4f776e61626c653a206e6577206f776e657220697320746865207a65726f206181526564647265737360d01b602082015260400192915050565b6000610762602083610836565b7f4f776e61626c653a2063616c6c6572206973206e6f7420746865206f776e6572815260200192915050565b602081016105b182846106b7565b602081016105b182846106c6565b602081016105b182846106cf565b602081016105b182846106d8565b602080825281016105b18161070d565b602080825281016105b181610755565b608081016107f482896106cf565b81810360208301526108078187896106e1565b9050818103604083015261081c8185876106e1565b905061082b60608301846106cf565b979650505050505050565b90815260200190565b60006105b18261084f565b151590565b6001600160a01b031690565b60006105b18261083f565b82818337506000910152565b601f01601f191690565b6108858161083f565b811461048a57600080fd5b610885816103e956fea365627a7a72305820b3eae39c42a88fd0d9881faa13fc213b574902503604cfee6c5dd1fdb2050c5c6c6578706572696d656e74616cf564736f6c63430005090040",
  "source": "pragma solidity ^0.5.9;\npragma experimental ABIEncoderV2;\n\nimport \"../IexecStore.sol\";\n\n\ninterface IexecCategoryManager\n{\n\tevent CreateCategory(uint256 catid, string  name, string  description, uint256 workClockTimeRef);\n\n\tfunction createCategory(string calldata,string calldata,uint256) external returns (uint256);\n}\n\ncontract IexecCategoryManagerDelegate is IexecCategoryManager, IexecStore\n{\n\t/**\n\t * Methods\n\t */\n\tfunction createCategory(\n\t\tstring  calldata name,\n\t\tstring  calldata description,\n\t\tuint256          workClockTimeRef)\n\texternal onlyOwner returns (uint256)\n\t{\n\t\tuint256 catid = m_categories.push(IexecODBLibCore.Category(\n\t\t\tname,\n\t\t\tdescription,\n\t\t\tworkClockTimeRef\n\t\t)) - 1;\n\n\t\temit CreateCategory(\n\t\t\tcatid,\n\t\t\tname,\n\t\t\tdescription,\n\t\t\tworkClockTimeRef\n\t\t);\n\t\treturn catid;\n\t}\n}\n",
  "sourcePath": "/home/amxx/Work/iExec/code/PoCo-dev/contracts/delegates/IexecCategoryManager.sol",
  "compiler": {
    "name": "solc",
    "version": "0.5.9+commit.e560f70d.Emscripten.clang"
  },
  "schemaVersion": "3.0.11",
  "updatedAt": "2019-06-26T15:15:59.124Z",
  "devdoc": {
    "methods": {
      "isOwner()": {
        "details": "Returns true if the caller is the current owner."
      },
      "owner()": {
        "details": "Returns the address of the current owner."
      },
      "renounceOwnership()": {
        "details": "Leaves the contract without owner. It will not be possible to call `onlyOwner` functions anymore. Can only be called by the current owner.     * > Note: Renouncing ownership will leave the contract without an owner, thereby removing any functionality that is only available to the owner."
      },
      "transferOwnership(address)": {
        "details": "Transfers ownership of the contract to a new account (`newOwner`). Can only be called by the current owner."
      }
    }
  },
  "userdoc": {
    "methods": {
      "createCategory(string,string,uint256)": {
        "notice": "Methods"
      }
    }
  }
}