{
  "contractName": "IexecHub",
  "abi": [
    {
      "constant": true,
      "inputs": [
        {
          "name": "_identity",
          "type": "address"
        },
        {
          "name": "_hash",
          "type": "bytes32"
        },
        {
          "name": "_signature",
          "type": "bytes"
        }
      ],
      "name": "verifySignature",
      "outputs": [
        {
          "name": "",
          "type": "bool"
        }
      ],
      "payable": false,
      "stateMutability": "view",
      "type": "function"
    },
    {
      "constant": false,
      "inputs": [
        {
          "name": "name",
          "type": "string"
        },
        {
          "name": "description",
          "type": "string"
        },
        {
          "name": "workClockTimeRef",
          "type": "uint256"
        }
      ],
      "name": "createCategory",
      "outputs": [
        {
          "name": "",
          "type": "uint256"
        }
      ],
      "payable": false,
      "stateMutability": "nonpayable",
      "type": "function"
    },
    {
      "constant": true,
      "inputs": [],
      "name": "appregistry",
      "outputs": [
        {
          "name": "",
          "type": "address"
        }
      ],
      "payable": false,
      "stateMutability": "view",
      "type": "function"
    },
    {
      "constant": true,
      "inputs": [],
      "name": "CONSENSUS_DURATION_RATIO",
      "outputs": [
        {
          "name": "",
          "type": "uint256"
        }
      ],
      "payable": false,
      "stateMutability": "view",
      "type": "function"
    },
    {
      "constant": true,
      "inputs": [
        {
          "name": "_catid",
          "type": "uint256"
        }
      ],
      "name": "viewCategory",
      "outputs": [
        {
          "components": [
            {
              "name": "name",
              "type": "string"
            },
            {
              "name": "description",
              "type": "string"
            },
            {
              "name": "workClockTimeRef",
              "type": "uint256"
            }
          ],
          "name": "category",
          "type": "tuple"
        }
      ],
      "payable": false,
      "stateMutability": "view",
      "type": "function"
    },
    {
      "constant": true,
      "inputs": [],
      "name": "REVEAL_DEADLINE_RATIO",
      "outputs": [
        {
          "name": "",
          "type": "uint256"
        }
      ],
      "payable": false,
      "stateMutability": "view",
      "type": "function"
    },
    {
      "constant": false,
      "inputs": [],
      "name": "renounceOwnership",
      "outputs": [],
      "payable": false,
      "stateMutability": "nonpayable",
      "type": "function"
    },
    {
      "constant": true,
      "inputs": [],
      "name": "CONTRIBUTION_DEADLINE_RATIO",
      "outputs": [
        {
          "name": "",
          "type": "uint256"
        }
      ],
      "payable": false,
      "stateMutability": "view",
      "type": "function"
    },
    {
      "constant": true,
      "inputs": [],
      "name": "owner",
      "outputs": [
        {
          "name": "",
          "type": "address"
        }
      ],
      "payable": false,
      "stateMutability": "view",
      "type": "function"
    },
    {
      "constant": true,
      "inputs": [],
      "name": "isOwner",
      "outputs": [
        {
          "name": "",
          "type": "bool"
        }
      ],
      "payable": false,
      "stateMutability": "view",
      "type": "function"
    },
    {
      "constant": true,
      "inputs": [],
      "name": "workerpoolregistry",
      "outputs": [
        {
          "name": "",
          "type": "address"
        }
      ],
      "payable": false,
      "stateMutability": "view",
      "type": "function"
    },
    {
      "constant": true,
      "inputs": [],
      "name": "FINAL_DEADLINE_RATIO",
      "outputs": [
        {
          "name": "",
          "type": "uint256"
        }
      ],
      "payable": false,
      "stateMutability": "view",
      "type": "function"
    },
    {
      "constant": true,
      "inputs": [],
      "name": "iexecclerk",
      "outputs": [
        {
          "name": "",
          "type": "address"
        }
      ],
      "payable": false,
      "stateMutability": "view",
      "type": "function"
    },
    {
      "constant": true,
      "inputs": [],
      "name": "datasetregistry",
      "outputs": [
        {
          "name": "",
          "type": "address"
        }
      ],
      "payable": false,
      "stateMutability": "view",
      "type": "function"
    },
    {
      "constant": true,
      "inputs": [],
      "name": "countCategory",
      "outputs": [
        {
          "name": "count",
          "type": "uint256"
        }
      ],
      "payable": false,
      "stateMutability": "view",
      "type": "function"
    },
    {
      "constant": true,
      "inputs": [],
      "name": "REVEAL_DURATION_RATIO",
      "outputs": [
        {
          "name": "",
          "type": "uint256"
        }
      ],
      "payable": false,
      "stateMutability": "view",
      "type": "function"
    },
    {
      "constant": false,
      "inputs": [
        {
          "name": "newOwner",
          "type": "address"
        }
      ],
      "name": "transferOwnership",
      "outputs": [],
      "payable": false,
      "stateMutability": "nonpayable",
      "type": "function"
    },
    {
      "inputs": [],
      "payable": false,
      "stateMutability": "nonpayable",
      "type": "constructor"
    },
    {
      "anonymous": false,
      "inputs": [
        {
          "indexed": true,
          "name": "taskid",
          "type": "bytes32"
        },
        {
          "indexed": true,
          "name": "workerpool",
          "type": "address"
        }
      ],
      "name": "TaskInitialize",
      "type": "event"
    },
    {
      "anonymous": false,
      "inputs": [
        {
          "indexed": true,
          "name": "taskid",
          "type": "bytes32"
        },
        {
          "indexed": true,
          "name": "worker",
          "type": "address"
        },
        {
          "indexed": false,
          "name": "hash",
          "type": "bytes32"
        }
      ],
      "name": "TaskContribute",
      "type": "event"
    },
    {
      "anonymous": false,
      "inputs": [
        {
          "indexed": true,
          "name": "taskid",
          "type": "bytes32"
        },
        {
          "indexed": false,
          "name": "consensus",
          "type": "bytes32"
        }
      ],
      "name": "TaskConsensus",
      "type": "event"
    },
    {
      "anonymous": false,
      "inputs": [
        {
          "indexed": true,
          "name": "taskid",
          "type": "bytes32"
        },
        {
          "indexed": true,
          "name": "worker",
          "type": "address"
        },
        {
          "indexed": false,
          "name": "digest",
          "type": "bytes32"
        }
      ],
      "name": "TaskReveal",
      "type": "event"
    },
    {
      "anonymous": false,
      "inputs": [
        {
          "indexed": true,
          "name": "taskid",
          "type": "bytes32"
        }
      ],
      "name": "TaskReopen",
      "type": "event"
    },
    {
      "anonymous": false,
      "inputs": [
        {
          "indexed": true,
          "name": "taskid",
          "type": "bytes32"
        },
        {
          "indexed": false,
          "name": "results",
          "type": "bytes"
        }
      ],
      "name": "TaskFinalize",
      "type": "event"
    },
    {
      "anonymous": false,
      "inputs": [
        {
          "indexed": true,
          "name": "taskid",
          "type": "bytes32"
        }
      ],
      "name": "TaskClaimed",
      "type": "event"
    },
    {
      "anonymous": false,
      "inputs": [
        {
          "indexed": true,
          "name": "worker",
          "type": "address"
        },
        {
          "indexed": true,
          "name": "taskid",
          "type": "bytes32"
        }
      ],
      "name": "AccurateContribution",
      "type": "event"
    },
    {
      "anonymous": false,
      "inputs": [
        {
          "indexed": true,
          "name": "worker",
          "type": "address"
        },
        {
          "indexed": true,
          "name": "taskid",
          "type": "bytes32"
        }
      ],
      "name": "FaultyContribution",
      "type": "event"
    },
    {
      "anonymous": false,
      "inputs": [
        {
          "indexed": false,
          "name": "catid",
          "type": "uint256"
        },
        {
          "indexed": false,
          "name": "name",
          "type": "string"
        },
        {
          "indexed": false,
          "name": "description",
          "type": "string"
        },
        {
          "indexed": false,
          "name": "workClockTimeRef",
          "type": "uint256"
        }
      ],
      "name": "CreateCategory",
      "type": "event"
    },
    {
      "anonymous": false,
      "inputs": [
        {
          "indexed": true,
          "name": "previousOwner",
          "type": "address"
        },
        {
          "indexed": true,
          "name": "newOwner",
          "type": "address"
        }
      ],
      "name": "OwnershipTransferred",
      "type": "event"
    },
    {
      "constant": false,
      "inputs": [
        {
          "name": "_iexecclerkAddress",
          "type": "address"
        },
        {
          "name": "_appregistryAddress",
          "type": "address"
        },
        {
          "name": "_datasetregistryAddress",
          "type": "address"
        },
        {
          "name": "_workerpoolregistryAddress",
          "type": "address"
        }
      ],
      "name": "attachContracts",
      "outputs": [],
      "payable": false,
      "stateMutability": "nonpayable",
      "type": "function"
    },
    {
      "constant": true,
      "inputs": [
        {
          "name": "_taskid",
          "type": "bytes32"
        }
      ],
      "name": "viewTask",
      "outputs": [
        {
          "components": [
            {
              "name": "status",
              "type": "uint8"
            },
            {
              "name": "dealid",
              "type": "bytes32"
            },
            {
              "name": "idx",
              "type": "uint256"
            },
            {
              "name": "timeref",
              "type": "uint256"
            },
            {
              "name": "contributionDeadline",
              "type": "uint256"
            },
            {
              "name": "revealDeadline",
              "type": "uint256"
            },
            {
              "name": "finalDeadline",
              "type": "uint256"
            },
            {
              "name": "consensusValue",
              "type": "bytes32"
            },
            {
              "name": "revealCounter",
              "type": "uint256"
            },
            {
              "name": "winnerCounter",
              "type": "uint256"
            },
            {
              "name": "contributors",
              "type": "address[]"
            },
            {
              "name": "resultDigest",
              "type": "bytes32"
            },
            {
              "name": "results",
              "type": "bytes"
            }
          ],
          "name": "",
          "type": "tuple"
        }
      ],
      "payable": false,
      "stateMutability": "view",
      "type": "function"
    },
    {
      "constant": true,
      "inputs": [
        {
          "name": "_taskid",
          "type": "bytes32"
        },
        {
          "name": "_worker",
          "type": "address"
        }
      ],
      "name": "viewContribution",
      "outputs": [
        {
          "components": [
            {
              "name": "status",
              "type": "uint8"
            },
            {
              "name": "resultHash",
              "type": "bytes32"
            },
            {
              "name": "resultSeal",
              "type": "bytes32"
            },
            {
              "name": "enclaveChallenge",
              "type": "address"
            }
          ],
          "name": "",
          "type": "tuple"
        }
      ],
      "payable": false,
      "stateMutability": "view",
      "type": "function"
    },
    {
      "constant": true,
      "inputs": [
        {
          "name": "_worker",
          "type": "address"
        }
      ],
      "name": "viewScore",
      "outputs": [
        {
          "name": "",
          "type": "uint256"
        }
      ],
      "payable": false,
      "stateMutability": "view",
      "type": "function"
    },
    {
      "constant": true,
      "inputs": [
        {
          "name": "app",
          "type": "address"
        },
        {
          "name": "dataset",
          "type": "address"
        },
        {
          "name": "workerpool",
          "type": "address"
        }
      ],
      "name": "checkResources",
      "outputs": [
        {
          "name": "",
          "type": "bool"
        }
      ],
      "payable": false,
      "stateMutability": "view",
      "type": "function"
    },
    {
      "constant": true,
      "inputs": [
        {
          "name": "id",
          "type": "bytes32"
        }
      ],
      "name": "resultFor",
      "outputs": [
        {
          "name": "",
          "type": "bytes"
        }
      ],
      "payable": false,
      "stateMutability": "view",
      "type": "function"
    },
    {
      "constant": false,
      "inputs": [
        {
          "name": "_dealid",
          "type": "bytes32"
        },
        {
          "name": "idx",
          "type": "uint256"
        }
      ],
      "name": "initialize",
      "outputs": [
        {
          "name": "",
          "type": "bytes32"
        }
      ],
      "payable": false,
      "stateMutability": "nonpayable",
      "type": "function"
    },
    {
      "constant": false,
      "inputs": [
        {
          "name": "_taskid",
          "type": "bytes32"
        },
        {
          "name": "_resultHash",
          "type": "bytes32"
        },
        {
          "name": "_resultSeal",
          "type": "bytes32"
        },
        {
          "name": "_enclaveChallenge",
          "type": "address"
        },
        {
          "name": "_enclaveSign",
          "type": "bytes"
        },
        {
          "name": "_workerpoolSign",
          "type": "bytes"
        }
      ],
      "name": "contribute",
      "outputs": [],
      "payable": false,
      "stateMutability": "nonpayable",
      "type": "function"
    },
    {
      "constant": false,
      "inputs": [
        {
          "name": "_taskid",
          "type": "bytes32"
        },
        {
          "name": "_resultDigest",
          "type": "bytes32"
        }
      ],
      "name": "reveal",
      "outputs": [],
      "payable": false,
      "stateMutability": "nonpayable",
      "type": "function"
    },
    {
      "constant": false,
      "inputs": [
        {
          "name": "_taskid",
          "type": "bytes32"
        }
      ],
      "name": "reopen",
      "outputs": [],
      "payable": false,
      "stateMutability": "nonpayable",
      "type": "function"
    },
    {
      "constant": false,
      "inputs": [
        {
          "name": "_taskid",
          "type": "bytes32"
        },
        {
          "name": "_results",
          "type": "bytes"
        }
      ],
      "name": "finalize",
      "outputs": [],
      "payable": false,
      "stateMutability": "nonpayable",
      "type": "function"
    },
    {
      "constant": false,
      "inputs": [
        {
          "name": "_taskid",
          "type": "bytes32"
        }
      ],
      "name": "claim",
      "outputs": [],
      "payable": false,
      "stateMutability": "nonpayable",
      "type": "function"
    },
    {
      "constant": false,
      "inputs": [
        {
          "name": "_dealid",
          "type": "bytes32[]"
        },
        {
          "name": "_idx",
          "type": "uint256[]"
        }
      ],
      "name": "initializeArray",
      "outputs": [
        {
          "name": "",
          "type": "bool"
        }
      ],
      "payable": false,
      "stateMutability": "nonpayable",
      "type": "function"
    },
    {
      "constant": false,
      "inputs": [
        {
          "name": "_taskid",
          "type": "bytes32[]"
        }
      ],
      "name": "claimArray",
      "outputs": [
        {
          "name": "",
          "type": "bool"
        }
      ],
      "payable": false,
      "stateMutability": "nonpayable",
      "type": "function"
    },
    {
      "constant": false,
      "inputs": [
        {
          "name": "_dealid",
          "type": "bytes32[]"
        },
        {
          "name": "_idx",
          "type": "uint256[]"
        }
      ],
      "name": "initializeAndClaimArray",
      "outputs": [
        {
          "name": "",
          "type": "bool"
        }
      ],
      "payable": false,
      "stateMutability": "nonpayable",
      "type": "function"
    },
    {
      "constant": true,
      "inputs": [
        {
          "name": "_taskid",
          "type": "bytes32"
        }
      ],
      "name": "viewTaskABILegacy",
      "outputs": [
        {
          "name": "",
          "type": "uint8"
        },
        {
          "name": "",
          "type": "bytes32"
        },
        {
          "name": "",
          "type": "uint256"
        },
        {
          "name": "",
          "type": "uint256"
        },
        {
          "name": "",
          "type": "uint256"
        },
        {
          "name": "",
          "type": "uint256"
        },
        {
          "name": "",
          "type": "uint256"
        },
        {
          "name": "",
          "type": "bytes32"
        },
        {
          "name": "",
          "type": "uint256"
        },
        {
          "name": "",
          "type": "uint256"
        },
        {
          "name": "",
          "type": "address[]"
        },
        {
          "name": "",
          "type": "bytes"
        }
      ],
      "payable": false,
      "stateMutability": "view",
      "type": "function"
    },
    {
      "constant": true,
      "inputs": [
        {
          "name": "_taskid",
          "type": "bytes32"
        },
        {
          "name": "_worker",
          "type": "address"
        }
      ],
      "name": "viewContributionABILegacy",
      "outputs": [
        {
          "name": "",
          "type": "uint8"
        },
        {
          "name": "",
          "type": "bytes32"
        },
        {
          "name": "",
          "type": "bytes32"
        },
        {
          "name": "",
          "type": "address"
        }
      ],
      "payable": false,
      "stateMutability": "view",
      "type": "function"
    },
    {
      "constant": true,
      "inputs": [
        {
          "name": "_catid",
          "type": "uint256"
        }
      ],
      "name": "viewCategoryABILegacy",
      "outputs": [
        {
          "name": "",
          "type": "string"
        },
        {
          "name": "",
          "type": "string"
        },
        {
          "name": "",
          "type": "uint256"
        }
      ],
      "payable": false,
      "stateMutability": "view",
      "type": "function"
    }
  ],
  "bytecode": "0x608060405234801561001057600080fd5b50600080546001600160a01b03191633178082556040516001600160a01b039190911691907f8be0079c531659141344cd1fd0a4f28419497f9722a3daafe3b4186f6b6457e0908290a36140a3806100696000396000f3fe608060405234801561001057600080fd5b50600436106102115760003560e01c806390fc26b111610125578063db230b52116100ad578063f6c68e101161007c578063f6c68e101461044c578063f722cb321461045f578063f9353b8d14610472578063fa055d7e14610494578063fc334e8c146104a757610211565b8063db230b5214610406578063e741363b14610419578063e9ebbaf814610338578063f2fde38b1461043957610211565b8063b504681d116100f4578063b504681d146103a5578063bd66528a146103b8578063c037f13e146103cb578063c140996f146103de578063d09cc57e146103e657610211565b806390fc26b1146102ea578063adccf0d514610375578063b01c684614610395578063b1b11d2c1461039d57610211565b80634704511d116101a8578063715018a611610177578063715018a6146103405780637b244832146103485780638da5cb5b146103505780638f32d59b1461036557806390a0f5461461036d57610211565b80634704511d146102f25780634f5f44ec146103055780635b36c66b146103255780635fde601d1461033857610211565b8063298503d9116101e4578063298503d9146102a057806334623484146102c057806345b637a9146102d557806345b99d28146102ea57610211565b80630175199814610216578063097d630d1461023f57806311e35aba14610252578063248ad6a014610275575b600080fd5b61022961022436600461341a565b6104ba565b6040516102369190613bf4565b60405180910390f35b61022961024d36600461336c565b610555565b61026561026036600461355f565b61070c565b6040516102369493929190613d66565b610288610283366004613541565b6107b8565b6040516102369c9b9a99989796959493929190613d9b565b6102b36102ae3660046136d3565b6109d7565b6040516102369190613c02565b6102d36102ce3660046135c9565b610b17565b005b6102dd610ef3565b6040516102369190613d58565b6102b3610f02565b6102d36103003660046133b9565b610f07565b610318610313366004613541565b610f7e565b6040516102369190613e8f565b6102b3610333366004613599565b6110f3565b6102b3611385565b6102d361138a565b6102b36113e5565b6103586113ea565b6040516102369190613be6565b6102296113fa565b6102dd61140b565b610388610383366004613541565b61141a565b6040516102369190613eae565b6102dd6115be565b6102dd6115cd565b6102296103b33660046134b5565b6115dc565b6102d36103c6366004613541565b61163a565b6102d36103d936600461367e565b6117d8565b6102b3611b1b565b6103f96103f4366004613541565b611b21565b6040516102369190613d47565b6102b361041436600461334e565b611be3565b61042c61042736600461355f565b611bfe565b6040516102369190613ea0565b6102d361044736600461334e565b611c82565b6102d361045a366004613541565b611c9f565b61022961046d3660046134b5565b611efa565b610485610480366004613541565b611f40565b60405161023693929190613e5b565b6102296104a2366004613474565b6120cd565b6102d36104b5366004613599565b6120fc565b60006104c7848484612254565b8061054b5750604051630b135d3f60e11b81526001600160a01b03851690631626ba7e906104fb9086908690600401613cdf565b60206040518083038186803b15801561051357600080fd5b505afa158015610527573d6000803e3d6000fd5b505050506040513d601f19601f8201168201806040525061054b9190810190613523565b90505b9392505050565b60075460405163c3c5a54760e01b81526000916001600160a01b03169063c3c5a54790610586908790600401613be6565b60206040518083038186803b15801561059e57600080fd5b505afa1580156105b2573d6000803e3d6000fd5b505050506040513d601f19601f820116820180604052506105d69190810190613523565b6105df57600080fd5b6001600160a01b0383161580610670575060085460405163c3c5a54760e01b81526001600160a01b039091169063c3c5a54790610620908690600401613be6565b60206040518083038186803b15801561063857600080fd5b505afa15801561064c573d6000803e3d6000fd5b505050506040513d601f19601f820116820180604052506106709190810190613523565b61067957600080fd5b60095460405163c3c5a54760e01b81526001600160a01b039091169063c3c5a547906106a9908590600401613be6565b60206040518083038186803b1580156106c157600080fd5b505afa1580156106d5573d6000803e3d6000fd5b505050506040513d601f19601f820116820180604052506106f99190810190613523565b61070257600080fd5b5060019392505050565b60008060008061071a612d9a565b6000878152600b602090815260408083206001600160a01b038a168452909152908190208151608081019092528054829060ff16600381111561075957fe5b600381111561076457fe5b8152600182015460208083019190915260028301546040808401919091526003909301546001600160a01b0316606092830152835190840151928401519390910151909a9199509197509095509350505050565b6000806000806000806000806000806060806107d2612dc3565b60008e8152600a60205260409081902081516101a081019092528054829060ff1660048111156107fe57fe5b600481111561080957fe5b8152602001600182015481526020016002820154815260200160038201548152602001600482015481526020016005820154815260200160068201548152602001600782015481526020016008820154815260200160098201548152602001600a82018054806020026020016040519081016040528092919081815260200182805480156108c057602002820191906000526020600020905b81546001600160a01b031681526001909101906020018083116108a2575b5050509183525050600b820154602080830191909152600c8301805460408051601f6002600019610100600187161502019094169390930492830185900485028101850182528281529401939283018282801561095e5780601f106109335761010080835404028352916020019161095e565b820191906000526020600020905b81548152906001019060200180831161094157829003601f168201915b5050505050815250509050806000015181602001518260400151836060015184608001518560a001518660c001518760e001518861010001518961012001518a61014001518b61018001518191508090509c509c509c509c509c509c509c509c509c509c509c509c505091939597999b5091939597999b565b60006109e16113fa565b6109ea57600080fd5b600060018060405180606001604052808a8a8080601f016020809104026020016040519081016040528093929190818152602001838380828437600092019190915250505090825250604080516020601f8b0181900481028201810190925289815291810191908a908a9081908401838280828437600092018290525093855250505060209182018890528354600181018086559482529082902083518051600390930290910192610aa192849290910190612e35565b506020828101518051610aba9260018501920190612e35565b506040820151816002015550500390507f62bf08360c9d561749c54eaf4f8bf8cb6c8b6f4f40607bcec39a8172e714d25c818888888888604051610b0396959493929190613ebf565b60405180910390a190505b95945050505050565b6000868152600a60209081526040808320600b8352818420338552909252909120610b40612eb3565b6006546001840154604051635ba430d960e11b81526001600160a01b039092169163b74861b291610b7391600401613c02565b60006040518083038186803b158015610b8b57600080fd5b505afa158015610b9f573d6000803e3d6000fd5b505050506040513d6000823e601f3d908101601f19168201604052610bc79190810190613757565b90506001835460ff166004811115610bdb57fe5b14610be557600080fd5b42836004015411610bf557600080fd5b6000825460ff166003811115610c0757fe5b14610c1157600080fd5b610c56816040015160200151610c50338c8a604051602001610c3593929190613b26565b60405160208183030381529060405280519060200120612329565b866104ba565b610c5f57600080fd5b6001600160a01b038616151580610c84575060a0810151601f1a60f81b600160f81b16155b610c8d57600080fd5b6001600160a01b0386161580610cbe5750610cbe86610cb88a8a604051602001610c35929190613b94565b876104ba565b610cc757600080fd5b815460ff191660019081178355808301899055600283018890556003830180546001600160a01b03199081166001600160a01b038a811691909117909255600a8601805480850182556000918252602090912001805433921682179055600654928601546040516373cc248d60e11b8152939092169263e798491a92610d51929091600401613c2b565b600060405180830381600087803b158015610d6b57600080fd5b505af1158015610d7f573d6000803e3d6000fd5b50505050336001600160a01b0316897f3fdb8d7797562d49a81078dbf7fa1771958ea452f8b13d1148383bd9506aecfb8a604051610dbd9190613c02565b60405180910390a3336000908152600c6020526040812054610e0b90600190610dff90600390610df3908263ffffffff61235916565b9063ffffffff61237b16565b9063ffffffff61239216565b60008b8152600e602090815260408083208d8452909152812054919250610e4d82610dff85610e4183600163ffffffff61237b16565b9063ffffffff6123a716565b9050610e58836123ce565b60008d8152600d602090815260408083203384528252808320939093558e8252600e81528282208e835290522054610e96908263ffffffff61258c16565b60008d8152600e602090815260408083208f84528252808320939093558e8252600f90522054610ecc908263ffffffff61258c16565b60008d8152600f6020526040902055610ee58c8c61259e565b505050505050505050505050565b6007546001600160a01b031681565b600a81565b610f0f6113fa565b610f1857600080fd5b6006546001600160a01b031615610f2e57600080fd5b600680546001600160a01b039586166001600160a01b0319918216179091556007805494861694821694909417909355600880549285169284169290921790915560098054919093169116179055565b610f86612f59565b60018281548110610f9357fe5b600091825260209182902060408051600393909302909101805460026001821615610100026000190190911604601f81018590049094028301608090810190925260608301848152929390928492909184918401828280156110365780601f1061100b57610100808354040283529160200191611036565b820191906000526020600020905b81548152906001019060200180831161101957829003601f168201915b50505050508152602001600182018054600181600116156101000203166002900480601f0160208091040260200160405190810160405280929190818152602001828054600181600116156101000203166002900480156110d85780601f106110ad576101008083540402835291602001916110d8565b820191906000526020600020905b8154815290600101906020018083116110bb57829003601f168201915b5050505050815260200160028201548152505090505b919050565b60006110fd612eb3565b600654604051635ba430d960e11b81526001600160a01b039091169063b74861b29061112d908790600401613c02565b60006040518083038186803b15801561114557600080fd5b505afa158015611159573d6000803e3d6000fd5b505050506040513d6000823e601f3d908101601f191682016040526111819190810190613757565b905080610160015183101561119557600080fd5b6101808101516101608201516111b09163ffffffff61258c16565b83106111bb57600080fd5b600084846040516020016111d0929190613b94565b60408051601f1981840301815291815281516020928301206000818152600a90935290822090925090815460ff16600481111561120957fe5b1461121357600080fd5b805460ff1916600190811782558082018790556002820186905560808401518154811061123c57fe5b60009182526020909120600391820201600201549082018190556101408401516112779161126b9060076123a7565b9063ffffffff61258c16565b6004820155610140830151600382015461129d919061126b90600a63ffffffff6123a716565b6006808301919091556000838152600f6020526040908190206001905590549051635ba430d960e11b81526001600160a01b039091169063b74861b2906112e8908990600401613c02565b60006040518083038186803b15801561130057600080fd5b505afa158015611314573d6000803e3d6000fd5b505050506040513d6000823e601f3d908101601f1916820160405261133c9190810190613757565b60400151600001516001600160a01b0316827f252992fb0468d68d6a5784ec03214f0d0a362083f2d7ebd157af43b017a22e0660405160405180910390a3509150505b92915050565b600281565b6113926113fa565b61139b57600080fd5b600080546040516001600160a01b03909116907f8be0079c531659141344cd1fd0a4f28419497f9722a3daafe3b4186f6b6457e0908390a3600080546001600160a01b0319169055565b600781565b6000546001600160a01b03165b90565b6000546001600160a01b0316331490565b6009546001600160a01b031681565b611422612dc3565b6000828152600a60205260409081902081516101a081019092528054829060ff16600481111561144e57fe5b600481111561145957fe5b8152602001600182015481526020016002820154815260200160038201548152602001600482015481526020016005820154815260200160068201548152602001600782015481526020016008820154815260200160098201548152602001600a820180548060200260200160405190810160405280929190818152602001828054801561151057602002820191906000526020600020905b81546001600160a01b031681526001909101906020018083116114f2575b5050509183525050600b820154602080830191909152600c8301805460408051601f600260001961010060018716150201909416939093049283018590048502810185018252828152940193928301828280156115ae5780601f10611583576101008083540402835291602001916115ae565b820191906000526020600020905b81548152906001019060200180831161159157829003601f168201915b5050505050815250509050919050565b6006546001600160a01b031681565b6008546001600160a01b031681565b60008382146115ea57600080fd5b60005b8481101561162c5761162386868381811061160457fe5b9050602002013585858481811061161757fe5b905060200201356110f3565b506001016115ed565b50600190505b949350505050565b6000818152600a602052604090206001815460ff16600481111561165a57fe5b148061167557506002815460ff16600481111561167357fe5b145b61167e57600080fd5b428160060154111561168f57600080fd5b805460ff19166004908117825560065460018301546040516351a0942f60e01b81526001600160a01b03909216926351a0942f926116d09291879101613ca3565b600060405180830381600087803b1580156116ea57600080fd5b505af11580156116fe573d6000803e3d6000fd5b506000925050505b600a8201548110156117a857600082600a01828154811061172357fe5b6000918252602090912001546006546001850154604051636eb528b560e01b81526001600160a01b0393841694509290911691636eb528b59161176a918590600401613c10565b600060405180830381600087803b15801561178457600080fd5b505af1158015611798573d6000803e3d6000fd5b5050505050806001019050611706565b5060405182907fcbc308b5f91040d2659a5201858344b0b583cd2f9e18e8470c2fa052c5b21ff890600090a25050565b6006546000848152600a602052604090819020600101549051635ba430d960e11b815285926001600160a01b03169163b74861b29161181a9190600401613c02565b60006040518083038186803b15801561183257600080fd5b505afa158015611846573d6000803e3d6000fd5b505050506040513d6000823e601f3d908101601f1916820160405261186e9190810190613757565b60400151602001516001600160a01b0316336001600160a01b03161461189357600080fd5b6000848152600a602052604090206002815460ff1660048111156118b357fe5b146118bd57600080fd5b428160060154116118cd57600080fd5b8060090154816008015414806118f65750600081600801541180156118f6575042816005015411155b6118ff57600080fd5b805460ff19166003178155611918600c82018585612f7a565b5060065460018201546040516370c4c27760e01b81526001600160a01b03909216916370c4c2779161194e918990600401613ca3565b600060405180830381600087803b15801561196857600080fd5b505af115801561197c573d6000803e3d6000fd5b50505050611989856127d8565b847f78ce8a8bc0fcb704e8ba3b3dbb36aa88002df8038128b4af2f27ef65db66504485856040516119bb929190613d35565b60405180910390a26006546001820154604051635ba430d960e11b81526000926001600160a01b03169163b74861b2916119f89190600401613c02565b60006040518083038186803b158015611a1057600080fd5b505afa158015611a24573d6000803e3d6000fd5b505050506040513d6000823e601f3d908101601f19168201604052611a4c9190810190613757565b610100015190506001600160a01b03811615611b1357620186a05a11611a7157600080fd5b6000816001600160a01b0316620186a0888888604051602401611a9693929190613cbe565b60408051601f198184030181529181526020820180516001600160e01b0316635dd8085560e01b17905251611acb9190613bba565b60006040518083038160008787f1925050503d8060008114611b09576040519150601f19603f3d011682016040523d82523d6000602084013e611b0e565b606091505b505050505b505050505050565b60015490565b6000818152600a602052604090206060906003815460ff166004811115611b4457fe5b14611b4e57600080fd5b600c8101805460408051602060026001851615610100026000190190941693909304601f81018490048402820184019092528181529291830182828015611bd65780601f10611bab57610100808354040283529160200191611bd6565b820191906000526020600020905b815481529060010190602001808311611bb957829003601f168201915b5050505050915050919050565b6001600160a01b03166000908152600c602052604090205490565b611c06612d9a565b6000838152600b602090815260408083206001600160a01b0386168452909152908190208151608081019092528054829060ff166003811115611c4557fe5b6003811115611c5057fe5b815260018201546020820152600282015460408201526003909101546001600160a01b03166060909101529392505050565b611c8a6113fa565b611c9357600080fd5b611c9c81612d0d565b50565b6006546000828152600a602052604090819020600101549051635ba430d960e11b815283926001600160a01b03169163b74861b291611ce19190600401613c02565b60006040518083038186803b158015611cf957600080fd5b505afa158015611d0d573d6000803e3d6000fd5b505050506040513d6000823e601f3d908101601f19168201604052611d359190810190613757565b60400151602001516001600160a01b0316336001600160a01b031614611d5a57600080fd5b6000828152600a602052604090206002815460ff166004811115611d7a57fe5b14611d8457600080fd5b42816006015411611d9457600080fd5b42816005015411158015611daa57506008810154155b611db357600080fd5b60005b600a820154811015611e4c57600082600a018281548110611dd357fe5b60009182526020808320909101546007860154888452600b835260408085206001600160a01b039093168086529290935291909220600101549192501415611e43576000858152600b602090815260408083206001600160a01b03851684529091529020805460ff191660031790555b50600101611db6565b506000838152600e6020908152604080832060078501548452825280832054868452600f90925290912054611e869163ffffffff61239216565b6000848152600f6020908152604080832093909355600e815282822060078501805484529152828220829055835460ff191660011784558190556005830181905560098301819055905184917f3afe0f24796ce653c6ab1f3e7aba5ce564eece5e82aee724aff28253e829f07b91a2505050565b6000838214611f0857600080fd5b60005b8481101561162c57611f386103c6878784818110611f2557fe5b9050602002013586868581811061161757fe5b600101611f0b565b6060806000611f4d612f59565b60018581548110611f5a57fe5b600091825260209182902060408051600393909302909101805460026001821615610100026000190190911604601f8101859004909402830160809081019092526060830184815292939092849290918491840182828015611ffd5780601f10611fd257610100808354040283529160200191611ffd565b820191906000526020600020905b815481529060010190602001808311611fe057829003601f168201915b50505050508152602001600182018054600181600116156101000203166002900480601f01602080910402602001604051908101604052809291908181526020018280546001816001161561010002031660029004801561209f5780601f106120745761010080835404028352916020019161209f565b820191906000526020600020905b81548152906001019060200180831161208257829003601f168201915b5050509183525050600291909101546020918201528151908201516040909201519097919650945092505050565b6000805b82811015610702576120f48484838181106120e857fe5b9050602002013561163a565b6001016120d1565b6000828152600a60209081526040808320600b83528184203385529092529091206002825460ff16600481111561212f57fe5b1461213957600080fd5b4282600501541161214957600080fd5b6001815460ff16600381111561215b57fe5b1461216557600080fd5b816007015481600101541461217957600080fd5b838360405160200161218c929190613b94565b604051602081830303815290604052805190602001208160010154146121b157600080fd5b3384846040516020016121c693929190613b5d565b604051602081830303815290604052805190602001208160020154146121eb57600080fd5b805460ff19166002178155600882015461220690600161258c565b6008830155600b8201839055604051339085907f4b1763d473ac8fa80b4432ba90047e1b92444d8fabc55e6a002d9b1a316d795990612246908790613c02565b60405180910390a350505050565b600080600080845160411461226f576000935050505061054e565b50505060208201516040830151606084015160001a601b81101561229157601b015b8060ff16601b141580156122a957508060ff16601c14155b156122ba576000935050505061054e565b600186828585604051600081526020016040526040516122dd9493929190613d1a565b6020604051602081039080840390855afa1580156122ff573d6000803e3d6000fd5b505050602060405103516001600160a01b0316876001600160a01b03161493505050509392505050565b60008160405160200161233c9190613bc6565b604051602081830303815290604052805190602001209050919050565b600080821161236757600080fd5b600082848161237257fe5b04949350505050565b60008183101561238b578161054e565b5090919050565b6000828211156123a157600080fd5b50900390565b6000826123b65750600061137f565b828202828482816123c357fe5b041461054e57600080fd5b604080517ff8f9cbfae6cc78fbefe7cdc3a1793dfcf4f0e8bbd8cec470b6a28a7a5a3e1efd81527ff5ecf1b3e9debc68e1d9cfabc5997135bfb7a7a3938b7b606b5b4b3f2f1f0ffe60208201527ff6e4ed9ff2d6b458eadcdf97bd91692de2d4da8fd2d0ac50c6ae9a8272523616818301527fc8c0b887b0a8a4489c948c7f847c6125746c645c544c444038302820181008ff60608201527ff7cae577eec2a03cf3bad76fb589591debb2dd67e0aa9834bea6925f6a4a2e0e60808201527fe39ed557db96902cd38ed14fad815115c786af479b7e8324736353433727170760a08201527fc976c13bb96e881cb166a933a55e490d9d56952b8d4e801485467d236242260660c08201527f753a6d1b65325d0c552a4d1345224105391a310b29122104190a11030902010060e0820152610100808201909252600160f81b6001600160801b68010000000000000000640100000000620100006010600460026000198c019081041790810417908104178881041790810417908104179081041790810417017e818283848586878898a8b8c8d8e8f929395969799a9b9d9e9faaeb6bedeeff0281900460ff039091015104600160ff1b909211020190565b60008282018381101561054e57600080fd5b6006546000838152600a6020526040808220600101549051635ba430d960e11b815291926001600160a01b03169163b74861b2916125de91600401613c02565b60006040518083038186803b1580156125f657600080fd5b505afa15801561260a573d6000803e3d6000fd5b505050506040513d6000823e601f3d908101601f191682016040526126329190810190613757565b60600151905061266761264c82600163ffffffff61239216565b6000858152600f60205260409020549063ffffffff6123a716565b6000848152600e60209081526040808320868452909152902054612691908363ffffffff6123a716565b11156127d3576000838152600a6020526040812090805b600a83015481101561275a57600083600a0182815481106126c557fe5b6000918252602080832090910154898352600b825260408084206001600160a01b039092168085529190925291206001015490915086148015612738575060016000888152600b602090815260408083206001600160a01b038616845290915290205460ff16600381111561273657fe5b145b156127515761274e83600163ffffffff61258c16565b92505b506001016126a8565b50815460ff19166002908117835560078301859055600383015461278391429161126b916123a7565b6005830155600060088301556009820181905560405185907ff6d49bf3e05d33a4bc497d3c793fb5756388bb96b947cf51bb60aaecb0e022e3906127c8908790613c02565b60405180910390a250505b505050565b6000818152600a602052604090206127ee612eb3565b6006546001830154604051635ba430d960e11b81526001600160a01b039092169163b74861b29161282191600401613c02565b60006040518083038186803b15801561283957600080fd5b505afa15801561284d573d6000803e3d6000fd5b505050506040513d6000823e601f3d908101601f191682016040526128759190810190613757565b6006546001840154604051635ba430d960e11b81529293506000928392839283926001600160a01b039092169163b74861b2916128b491600401613c02565b60006040518083038186803b1580156128cc57600080fd5b505afa1580156128e0573d6000803e3d6000fd5b505050506040513d6000823e601f3d908101601f191682016040526129089190810190613757565b60400151604001519050600093505b600a8601548410156129e25785600a01848154811061293257fe5b6000918252602090912001546001600160a01b0316925060026000888152600b602090815260408083206001600160a01b038816845290915290205460ff16600381111561297c57fe5b14156129bd576000878152600d602090815260408083206001600160a01b03871684529091529020546129b690839063ffffffff61258c16565b91506129d7565b6101a08501516129d490829063ffffffff61258c16565b90505b836001019350612917565b600082116129ef57600080fd5b6000612a1a612a0d876101c00151606461239290919063ffffffff16565b839063ffffffff612d7b16565b9050600094505b600a870154851015612ca85786600a018581548110612a3c57fe5b6000918252602090912001546001600160a01b0316935060026000898152600b602090815260408083206001600160a01b038916845290915290205460ff166003811115612a8657fe5b1415612bc3576000888152600d602090815260408083206001600160a01b0388168452909152812054612ac19083908663ffffffff612d8516565b9050612ad3838263ffffffff61239216565b60065460018a015460405163147e1d8b60e31b81529295506001600160a01b039091169163a3f0ec5891612b0f91899086908f90600401613c6e565b600060405180830381600087803b158015612b2957600080fd5b505af1158015612b3d573d6000803e3d6000fd5b50505050600a88015460011015612bbd576001600160a01b0385166000908152600c6020526040902054612b7890600163ffffffff61258c16565b6001600160a01b0386166000818152600c60205260408082209390935591518b927f9703f4589802246c80b822e63697180da799e363cd1b6fd9465a5e5574d5349291a35b50612c9d565b6006546001880154604051634f864eb760e11b81526001600160a01b0390921691639f0c9d6e91612bfa9188908d90600401613c46565b600060405180830381600087803b158015612c1457600080fd5b505af1158015612c28573d6000803e3d6000fd5b5050506001600160a01b0385166000908152600c6020526040902054612c5891506002600363ffffffff612d8516565b6001600160a01b0385166000818152600c60205260408082209390935591518a927ff868788948d55240774fdbad06555105ef20bbc70d1b7eccda982b65e11e79bb91a35b846001019450612a21565b600654600188015460405163287cd25b60e21b81526001600160a01b039092169163a1f3496c91612cdf9186908d90600401613cff565b600060405180830381600087803b158015612cf957600080fd5b505af1158015610ee5573d6000803e3d6000fd5b6001600160a01b038116612d2057600080fd5b600080546040516001600160a01b03808516939216917f8be0079c531659141344cd1fd0a4f28419497f9722a3daafe3b4186f6b6457e091a3600080546001600160a01b0319166001600160a01b0392909216919091179055565b600061054e838360645b600061054b612d9485856123a7565b83612359565b604080516080810190915280600081526000602082018190526040820181905260609091015290565b604080516101a0810190915280600081526020016000801916815260200160008152602001600081526020016000815260200160008152602001600081526020016000801916815260200160008152602001600081526020016060815260200160008019168152602001606081525090565b828054600181600116156101000203166002900490600052602060002090601f016020900481019282601f10612e7657805160ff1916838001178555612ea3565b82800160010185558215612ea3579182015b82811115612ea3578251825591602001919060010190612e88565b50612eaf929150612fe8565b5090565b604051806102a00160405280612ec7613002565b8152602001612ed4613002565b8152602001612ee1613002565b815260200160008152602001600081526020016000801916815260200160006001600160a01b0316815260200160006001600160a01b0316815260200160006001600160a01b031681526020016060815260200160008152602001600081526020016000815260200160008152602001600081525090565b60405180606001604052806060815260200160608152602001600081525090565b828054600181600116156101000203166002900490600052602060002090601f016020900481019282601f10612fbb5782800160ff19823516178555612ea3565b82800160010185558215612ea3579182015b82811115612ea3578235825591602001919060010190612fcd565b6113f791905b80821115612eaf5760008155600101612fee565b604080516060810182526000808252602082018190529181019190915290565b803561137f8161403a565b805161137f8161403a565b60008083601f84011261304a57600080fd5b5081356001600160401b0381111561306157600080fd5b60208301915083602082028301111561307957600080fd5b9250929050565b805161137f8161404e565b803561137f81614057565b805161137f81614057565b60008083601f8401126130b357600080fd5b5081356001600160401b038111156130ca57600080fd5b60208301915083600182028301111561307957600080fd5b600082601f8301126130f357600080fd5b813561310661310182613f35565b613f0f565b9150808252602083016020830185838301111561312257600080fd5b61312d838284613fcd565b50505092915050565b600082601f83011261314757600080fd5b815161315561310182613f35565b9150808252602083016020830185838301111561317157600080fd5b61312d838284613fd9565b60006102a0828403121561318f57600080fd5b61319a6101e0613f0f565b905060006131a884846132f3565b82525060606131b9848483016132f3565b60208301525060c06131cd848285016132f3565b6040830152506101206131e284828501613096565b6060830152506101406131f784828501613096565b60808301525061016061320c84828501613096565b60a0830152506101806132218482850161302d565b60c0830152506101a06132368482850161302d565b60e0830152506101c061324b8482850161302d565b610100830152506101e08201516001600160401b0381111561326c57600080fd5b61327884828501613136565b6101208301525061020061328e84828501613096565b610140830152506102206132a484828501613096565b610160830152506102406132ba84828501613096565b610180830152506102606132d084828501613096565b6101a0830152506102806132e684828501613096565b6101c08301525092915050565b60006060828403121561330557600080fd5b61330f6060613f0f565b9050600061331d848461302d565b825250602061332e8484830161302d565b602083015250604061334284828501613096565b60408301525092915050565b60006020828403121561336057600080fd5b60006116328484613022565b60008060006060848603121561338157600080fd5b600061338d8686613022565b935050602061339e86828701613022565b92505060406133af86828701613022565b9150509250925092565b600080600080608085870312156133cf57600080fd5b60006133db8787613022565b94505060206133ec87828801613022565b93505060406133fd87828801613022565b925050606061340e87828801613022565b91505092959194509250565b60008060006060848603121561342f57600080fd5b600061343b8686613022565b935050602061344c8682870161308b565b92505060408401356001600160401b0381111561346857600080fd5b6133af868287016130e2565b6000806020838503121561348757600080fd5b82356001600160401b0381111561349d57600080fd5b6134a985828601613038565b92509250509250929050565b600080600080604085870312156134cb57600080fd5b84356001600160401b038111156134e157600080fd5b6134ed87828801613038565b945094505060208501356001600160401b0381111561350b57600080fd5b61351787828801613038565b95989497509550505050565b60006020828403121561353557600080fd5b60006116328484613080565b60006020828403121561355357600080fd5b6000611632848461308b565b6000806040838503121561357257600080fd5b600061357e858561308b565b925050602061358f85828601613022565b9150509250929050565b600080604083850312156135ac57600080fd5b60006135b8858561308b565b925050602061358f8582860161308b565b60008060008060008060c087890312156135e257600080fd5b60006135ee898961308b565b96505060206135ff89828a0161308b565b955050604061361089828a0161308b565b945050606061362189828a01613022565b93505060808701356001600160401b0381111561363d57600080fd5b61364989828a016130e2565b92505060a08701356001600160401b0381111561366557600080fd5b61367189828a016130e2565b9150509295509295509295565b60008060006040848603121561369357600080fd5b600061369f868661308b565b93505060208401356001600160401b038111156136bb57600080fd5b6136c7868287016130a1565b92509250509250925092565b6000806000806000606086880312156136eb57600080fd5b85356001600160401b0381111561370157600080fd5b61370d888289016130a1565b955095505060208601356001600160401b0381111561372b57600080fd5b613737888289016130a1565b9350935050604061374a8882890161308b565b9150509295509295909350565b60006020828403121561376957600080fd5b81516001600160401b0381111561377f57600080fd5b6116328482850161317c565b600061379783836137bf565b505060200190565b6137a881613fa5565b82525050565b6137a86137ba82613f6f565b614005565b6137a881613f6f565b60006137d382613f62565b6137dd8185613f66565b93506137e883613f5c565b8060005b83811015613816578151613800888261378b565b975061380b83613f5c565b9250506001016137ec565b509495945050505050565b600061382c82613f62565b6138368185613f66565b935061384183613f5c565b8060005b83811015613816578151613859888261378b565b975061386483613f5c565b925050600101613845565b6137a881613f7a565b6137a8816113f7565b6137a861388d826113f7565b6113f7565b600061389e8385613f66565b93506138ab838584613fcd565b6138b483614016565b9093019392505050565b60006138c982613f62565b6138d38185613f66565b93506138e3818560208601613fd9565b6138b481614016565b60006138f782613f62565b61390181856110ee565b9350613911818560208601613fd9565b9290920192915050565b6137a881613fac565b6137a881613fb7565b6137a881613fc2565b6000613943601c836110ee565b7f19457468657265756d205369676e6564204d6573736167653a0a3332000000008152601c0192915050565b805160608084526000919084019061398782826138be565b915050602083015184820360208601526139a182826138be565b91505060408301516139b66040860182613878565b509392505050565b805160808301906139cf8482613924565b5060208201516139e26020850182613878565b5060408201516139f56040850182613878565b506060820151613a0860608501826137bf565b50505050565b80516000906101a0840190613a23858261392d565b506020830151613a366020860182613878565b506040830151613a496040860182613878565b506060830151613a5c6060860182613878565b506080830151613a6f6080860182613878565b5060a0830151613a8260a0860182613878565b5060c0830151613a9560c0860182613878565b5060e0830151613aa860e0860182613878565b50610100830151613abd610100860182613878565b50610120830151613ad2610120860182613878565b50610140830151848203610140860152613aec8282613821565b915050610160830151613b03610160860182613878565b50610180830151848203610180860152610b0e82826138be565b6137a881613f9f565b6000613b3282866137ae565b601482019150613b428285613881565b602082019150613b5282846137ae565b506014019392505050565b6000613b6982866137ae565b601482019150613b798285613881565b602082019150613b898284613881565b506020019392505050565b6000613ba08285613881565b602082019150613bb08284613881565b5060200192915050565b600061054e82846138ec565b6000613bd182613936565b9150613bdd8284613881565b50602001919050565b6020810161137f82846137bf565b6020810161137f828461386f565b6020810161137f8284613878565b60408101613c1e8285613878565b61054e60208301846137bf565b60408101613c398285613878565b61054e602083018461379f565b60608101613c548286613878565b613c6160208301856137bf565b6116326040830184613878565b60808101613c7c8287613878565b613c8960208301866137bf565b613c966040830185613878565b610b0e6060830184613878565b60408101613cb18285613878565b61054e6020830184613878565b60408101613ccc8286613878565b8181036020830152610b0e818486613892565b60408101613ced8285613878565b818103602083015261054b81846138be565b60608101613d0d8286613878565b613c616020830185613878565b60808101613d288287613878565b613c896020830186613b1d565b6020808252810161054b818486613892565b6020808252810161054e81846138be565b6020810161137f828461391b565b60808101613d748287613924565b613d816020830186613878565b613d8e6040830185613878565b610b0e60608301846137bf565b6101808101613daa828f61392d565b613db7602083018e613878565b613dc4604083018d613878565b613dd1606083018c613878565b613dde608083018b613878565b613deb60a083018a613878565b613df860c0830189613878565b613e0560e0830188613878565b613e13610100830187613878565b613e21610120830186613878565b818103610140830152613e3481856137c8565b9050818103610160830152613e4981846138be565b9e9d5050505050505050505050505050565b60608082528101613e6c81866138be565b90508181036020830152613e8081856138be565b90506116326040830184613878565b6020808252810161054e818461396f565b6080810161137f82846139be565b6020808252810161054e8184613a0e565b60808101613ecd8289613878565b8181036020830152613ee0818789613892565b90508181036040830152613ef5818587613892565b9050613f046060830184613878565b979650505050505050565b6040518181016001600160401b0381118282101715613f2d57600080fd5b604052919050565b60006001600160401b03821115613f4b57600080fd5b506020601f91909101601f19160190565b60200190565b5190565b90815260200190565b600061137f82613f93565b151590565b806110ee81614026565b806110ee81614030565b6001600160a01b031690565b60ff1690565b600061137f825b600061137f82613f6f565b600061137f82613f7f565b600061137f82613f89565b82818337506000910152565b60005b83811015613ff4578181015183820152602001613fdc565b83811115613a085750506000910152565b600061137f82600061137f82614020565b601f01601f191690565b60601b90565b60048110611c9c57fe5b60058110611c9c57fe5b61404381613f6f565b8114611c9c57600080fd5b61404381613f7a565b614043816113f756fea365627a7a72305820260ce8bde394dc24da1f8bead98b0899ccef09e4e539beb22c7fda2186c9bf5a6c6578706572696d656e74616cf564736f6c63430005090040",
  "source": "pragma solidity ^0.5.8;\npragma experimental ABIEncoderV2;\n\nimport \"iexec-solidity/contracts/ERC1154_OracleInterface/IERC1154.sol\";\nimport \"iexec-solidity/contracts/Libs/SafeMath.sol\";\n\nimport \"./libs/IexecODBLibCore.sol\";\nimport \"./registries/RegistryBase.sol\";\nimport \"./CategoryManager.sol\";\nimport \"./SignatureVerifier.sol\";\nimport \"./IexecClerk.sol\";\n\n/**\n * /!\\ TEMPORARY LEGACY /!\\\n */\nimport \"./IexecHubABILegacy.sol\";\n\ncontract IexecHub is CategoryManager, IOracle, SignatureVerifier, IexecHubABILegacy\n{\n\tusing SafeMath for uint256;\n\n\t/***************************************************************************\n\t *                                Constants                                *\n\t ***************************************************************************/\n\tuint256 public constant CONTRIBUTION_DEADLINE_RATIO = 7;\n\tuint256 public constant       REVEAL_DEADLINE_RATIO = 2;\n\tuint256 public constant        FINAL_DEADLINE_RATIO = 10;\n\n\t/***************************************************************************\n\t *                             Other contracts                             *\n\t ***************************************************************************/\n\tIexecClerk   public iexecclerk;\n\tRegistryBase public appregistry;\n\tRegistryBase public datasetregistry;\n\tRegistryBase public workerpoolregistry;\n\n\t/***************************************************************************\n\t *                          Consensuses & Workers                          *\n\t ***************************************************************************/\n\tmapping(bytes32 =>                    IexecODBLibCore.Task         ) m_tasks;\n\tmapping(bytes32 => mapping(address => IexecODBLibCore.Contribution)) m_contributions;\n\tmapping(address =>                    uint256                      ) m_workerScores;\n\n\tmapping(bytes32 => mapping(address => uint256                     )) m_logweight;\n\tmapping(bytes32 => mapping(bytes32 => uint256                     )) m_groupweight;\n\tmapping(bytes32 =>                    uint256                      ) m_totalweight;\n\n\t/***************************************************************************\n\t *                                 Events                                  *\n\t ***************************************************************************/\n\tevent TaskInitialize(bytes32 indexed taskid, address indexed workerpool               );\n\tevent TaskContribute(bytes32 indexed taskid, address indexed worker, bytes32 hash     );\n\tevent TaskConsensus (bytes32 indexed taskid,                         bytes32 consensus);\n\tevent TaskReveal    (bytes32 indexed taskid, address indexed worker, bytes32 digest   );\n\tevent TaskReopen    (bytes32 indexed taskid                                           );\n\tevent TaskFinalize  (bytes32 indexed taskid,                         bytes results    );\n\tevent TaskClaimed   (bytes32 indexed taskid                                           );\n\n\tevent AccurateContribution(address indexed worker, bytes32 indexed taskid);\n\tevent FaultyContribution  (address indexed worker, bytes32 indexed taskid);\n\n\t/***************************************************************************\n\t *                                Modifiers                                *\n\t ***************************************************************************/\n\tmodifier onlyScheduler(bytes32 _taskid)\n\t{\n\t\trequire(msg.sender == iexecclerk.viewDeal(m_tasks[_taskid].dealid).workerpool.owner);\n\t\t_;\n\t}\n\n\t/***************************************************************************\n\t *                               Constructor                               *\n\t ***************************************************************************/\n\tconstructor()\n\tpublic\n\t{\n\t}\n\n\tfunction attachContracts(\n\t\taddress _iexecclerkAddress,\n\t\taddress _appregistryAddress,\n\t\taddress _datasetregistryAddress,\n\t\taddress _workerpoolregistryAddress)\n\texternal onlyOwner\n\t{\n\t\trequire(address(iexecclerk) == address(0));\n\t\tiexecclerk         = IexecClerk  (_iexecclerkAddress  );\n\t\tappregistry        = RegistryBase(_appregistryAddress);\n\t\tdatasetregistry    = RegistryBase(_datasetregistryAddress);\n\t\tworkerpoolregistry = RegistryBase(_workerpoolregistryAddress);\n\t}\n\n\t/***************************************************************************\n\t *                                Accessors                                *\n\t ***************************************************************************/\n\tfunction viewTask(bytes32 _taskid)\n\texternal view returns (IexecODBLibCore.Task memory)\n\t{\n\t\treturn m_tasks[_taskid];\n\t}\n\n\tfunction viewContribution(bytes32 _taskid, address _worker)\n\texternal view returns (IexecODBLibCore.Contribution memory)\n\t{\n\t\treturn m_contributions[_taskid][_worker];\n\t}\n\n\tfunction viewScore(address _worker)\n\texternal view returns (uint256)\n\t{\n\t\treturn m_workerScores[_worker];\n\t}\n\n\tfunction checkResources(address app, address dataset, address workerpool)\n\texternal view returns (bool)\n\t{\n\t\trequire(                         appregistry.isRegistered(app));\n\t\trequire(dataset == address(0) || datasetregistry.isRegistered(dataset));\n\t\trequire(                         workerpoolregistry.isRegistered(workerpool));\n\t\treturn true;\n\t}\n\n\t/***************************************************************************\n\t *                         EIP 1154 PULL INTERFACE                         *\n\t ***************************************************************************/\n\tfunction resultFor(bytes32 id)\n\texternal view returns (bytes memory)\n\t{\n\t\tIexecODBLibCore.Task storage task = m_tasks[id];\n\t\trequire(task.status == IexecODBLibCore.TaskStatusEnum.COMPLETED);\n\t\treturn task.results;\n\t}\n\n\t/***************************************************************************\n\t *                            Consensus methods                            *\n\t ***************************************************************************/\n\tfunction initialize(bytes32 _dealid, uint256 idx)\n\tpublic returns (bytes32)\n\t{\n\t\tIexecODBLibCore.Deal memory deal = iexecclerk.viewDeal(_dealid);\n\n\t\trequire(idx >= deal.botFirst                  );\n\t\trequire(idx <  deal.botFirst.add(deal.botSize));\n\n\t\tbytes32 taskid  = keccak256(abi.encodePacked(_dealid, idx));\n\t\tIexecODBLibCore.Task storage task = m_tasks[taskid];\n\t\trequire(task.status == IexecODBLibCore.TaskStatusEnum.UNSET);\n\n\t\ttask.status               = IexecODBLibCore.TaskStatusEnum.ACTIVE;\n\t\ttask.dealid               = _dealid;\n\t\ttask.idx                  = idx;\n\t\ttask.timeref              = m_categories[deal.category].workClockTimeRef;\n\t\ttask.contributionDeadline = task.timeref.mul(CONTRIBUTION_DEADLINE_RATIO).add(deal.startTime);\n\t\ttask.finalDeadline        = task.timeref.mul(       FINAL_DEADLINE_RATIO).add(deal.startTime);\n\n\t\t// setup denominator\n\t\tm_totalweight[taskid] = 1;\n\n\t\temit TaskInitialize(taskid, iexecclerk.viewDeal(_dealid).workerpool.pointer);\n\n\t\treturn taskid;\n\t}\n\n\t// TODO: make external w/ calldata\n\tfunction contribute(\n\t\tbytes32      _taskid,\n\t\tbytes32      _resultHash,\n\t\tbytes32      _resultSeal,\n\t\taddress      _enclaveChallenge,\n\t\tbytes memory _enclaveSign,\n\t\tbytes memory _workerpoolSign)\n\tpublic\n\t{\n\t\tIexecODBLibCore.Task         storage task         = m_tasks[_taskid];\n\t\tIexecODBLibCore.Contribution storage contribution = m_contributions[_taskid][msg.sender];\n\t\tIexecODBLibCore.Deal         memory  deal         = iexecclerk.viewDeal(task.dealid);\n\n\t\trequire(task.status               == IexecODBLibCore.TaskStatusEnum.ACTIVE       );\n\t\trequire(task.contributionDeadline >  now                                         );\n\t\trequire(contribution.status       == IexecODBLibCore.ContributionStatusEnum.UNSET);\n\n\t\t// Check that the worker + taskid + enclave combo is authorized to contribute (scheduler signature)\n\t\trequire(verifySignature(\n\t\t\tdeal.workerpool.owner,\n\t\t\ttoEthSignedMessageHash(\n\t\t\t\tkeccak256(abi.encodePacked(\n\t\t\t\t\tmsg.sender,\n\t\t\t\t\t_taskid,\n\t\t\t\t\t_enclaveChallenge\n\t\t\t\t))\n\t\t\t),\n\t\t\t_workerpoolSign\n\t\t));\n\n\t\t// need enclave challenge if tag is set\n\t\trequire(_enclaveChallenge != address(0) || (deal.tag[31] & 0x01 == 0));\n\n\t\t// Check enclave signature\n\t\trequire(_enclaveChallenge == address(0) || verifySignature(\n\t\t\t_enclaveChallenge,\n\t\t\ttoEthSignedMessageHash(\n\t\t\t\tkeccak256(abi.encodePacked(\n\t\t\t\t\t_resultHash,\n\t\t\t\t\t_resultSeal\n\t\t\t\t))\n\t\t\t),\n\t\t\t_enclaveSign\n\t\t));\n\n\t\t// Update contribution entry\n\t\tcontribution.status           = IexecODBLibCore.ContributionStatusEnum.CONTRIBUTED;\n\t\tcontribution.resultHash       = _resultHash;\n\t\tcontribution.resultSeal       = _resultSeal;\n\t\tcontribution.enclaveChallenge = _enclaveChallenge;\n\t\ttask.contributors.push(msg.sender);\n\n\t\tiexecclerk.lockContribution(task.dealid, msg.sender);\n\n\t\temit TaskContribute(_taskid, msg.sender, _resultHash);\n\n\t\t// Contribution done  updating and checking concensus\n\n\t\t/*************************************************************************\n\t\t *                           SCORE POLICY 1/3                            *\n\t\t *                                                                       *\n\t\t *                          see documentation!                           *\n\t\t *************************************************************************/\n\t\t// k = 3\n\t\tuint256 weight = m_workerScores[msg.sender].div(3).max(3).sub(1);\n\t\tuint256 group  = m_groupweight[_taskid][_resultHash];\n\t\tuint256 delta  = group.max(1).mul(weight).sub(group);\n\n\t\tm_logweight  [_taskid][msg.sender ] = weight.log();\n\t\tm_groupweight[_taskid][_resultHash] = m_groupweight[_taskid][_resultHash].add(delta);\n\t\tm_totalweight[_taskid]              = m_totalweight[_taskid].add(delta);\n\n\t\t// Check consensus\n\t\tcheckConsensus(_taskid, _resultHash);\n\t}\n\tfunction checkConsensus(\n\t\tbytes32 _taskid,\n\t\tbytes32 _consensus)\n\tprivate\n\t{\n\t\tuint256 trust = iexecclerk.viewDeal(m_tasks[_taskid].dealid).trust;\n\t\tif (m_groupweight[_taskid][_consensus].mul(trust) > m_totalweight[_taskid].mul(trust.sub(1)))\n\t\t{\n\t\t\t// Preliminary checks done in \"contribute()\"\n\n\t\t\tIexecODBLibCore.Task storage task = m_tasks[_taskid];\n\t\t\tuint256 winnerCounter = 0;\n\t\t\tfor (uint256 i = 0; i < task.contributors.length; ++i)\n\t\t\t{\n\t\t\t\taddress w = task.contributors[i];\n\t\t\t\tif\n\t\t\t\t(\n\t\t\t\t\tm_contributions[_taskid][w].resultHash == _consensus\n\t\t\t\t\t&&\n\t\t\t\t\tm_contributions[_taskid][w].status == IexecODBLibCore.ContributionStatusEnum.CONTRIBUTED // REJECTED contribution must not be count\n\t\t\t\t)\n\t\t\t\t{\n\t\t\t\t\twinnerCounter = winnerCounter.add(1);\n\t\t\t\t}\n\t\t\t}\n\t\t\t// msg.sender is a contributor: no need to check\n\t\t\t// require(winnerCounter > 0);\n\t\t\ttask.status         = IexecODBLibCore.TaskStatusEnum.REVEALING;\n\t\t\ttask.consensusValue = _consensus;\n\t\t\ttask.revealDeadline = task.timeref.mul(REVEAL_DEADLINE_RATIO).add(now);\n\t\t\ttask.revealCounter  = 0;\n\t\t\ttask.winnerCounter  = winnerCounter;\n\n\t\t\temit TaskConsensus(_taskid, _consensus);\n\t\t}\n\t}\n\n\tfunction reveal(\n\t\tbytes32 _taskid,\n\t\tbytes32 _resultDigest)\n\texternal // worker\n\t{\n\t\tIexecODBLibCore.Task         storage task         = m_tasks[_taskid];\n\t\tIexecODBLibCore.Contribution storage contribution = m_contributions[_taskid][msg.sender];\n\t\trequire(task.status             == IexecODBLibCore.TaskStatusEnum.REVEALING                       );\n\t\trequire(task.revealDeadline     >  now                                                            );\n\t\trequire(contribution.status     == IexecODBLibCore.ContributionStatusEnum.CONTRIBUTED             );\n\t\trequire(contribution.resultHash == task.consensusValue                                            );\n\t\trequire(contribution.resultHash == keccak256(abi.encodePacked(            _taskid, _resultDigest)));\n\t\trequire(contribution.resultSeal == keccak256(abi.encodePacked(msg.sender, _taskid, _resultDigest)));\n\n\t\tcontribution.status = IexecODBLibCore.ContributionStatusEnum.PROVED;\n\t\ttask.revealCounter  = task.revealCounter.add(1);\n\t\ttask.resultDigest   = _resultDigest;\n\n\t\temit TaskReveal(_taskid, msg.sender, _resultDigest);\n\t}\n\n\tfunction reopen(\n\t\tbytes32 _taskid)\n\texternal onlyScheduler(_taskid)\n\t{\n\t\tIexecODBLibCore.Task storage task = m_tasks[_taskid];\n\t\trequire(task.status         == IexecODBLibCore.TaskStatusEnum.REVEALING);\n\t\trequire(task.finalDeadline  >  now                                     );\n\t\trequire(task.revealDeadline <= now\n\t\t     && task.revealCounter  == 0                                       );\n\n\t\tfor (uint256 i = 0; i < task.contributors.length; ++i)\n\t\t{\n\t\t\taddress worker = task.contributors[i];\n\t\t\tif (m_contributions[_taskid][worker].resultHash == task.consensusValue)\n\t\t\t{\n\t\t\t\tm_contributions[_taskid][worker].status = IexecODBLibCore.ContributionStatusEnum.REJECTED;\n\t\t\t}\n\t\t}\n\n\t\tm_totalweight[_taskid]                      = m_totalweight[_taskid].sub(m_groupweight[_taskid][task.consensusValue]);\n\t\tm_groupweight[_taskid][task.consensusValue] = 0;\n\n\t\ttask.status         = IexecODBLibCore.TaskStatusEnum.ACTIVE;\n\t\ttask.consensusValue = 0x0;\n\t\ttask.revealDeadline = 0;\n\t\ttask.winnerCounter  = 0;\n\n\t\temit TaskReopen(_taskid);\n\t}\n\n\tfunction finalize(\n\t\tbytes32          _taskid,\n\t\tbytes   calldata _results)\n\texternal onlyScheduler(_taskid)\n\t{\n\t\tIexecODBLibCore.Task storage task = m_tasks[_taskid];\n\t\trequire(task.status        == IexecODBLibCore.TaskStatusEnum.REVEALING);\n\t\trequire(task.finalDeadline >  now                                     );\n\t\trequire(task.revealCounter == task.winnerCounter\n\t\t    || (task.revealCounter >  0  && task.revealDeadline <= now)       );\n\n\t\ttask.status  = IexecODBLibCore.TaskStatusEnum.COMPLETED;\n\t\ttask.results = _results;\n\n\t\t/**\n\t\t * Stake and reward management\n\t\t */\n\t\tiexecclerk.successWork(task.dealid, _taskid);\n\t\tdistributeRewards(_taskid);\n\n\t\t/**\n\t\t * Event\n\t\t */\n\t\temit TaskFinalize(_taskid, _results);\n\n\t\t/**\n\t\t * Callback for smartcontracts using EIP1154\n\t\t */\n\t\taddress callbackTarget = iexecclerk.viewDeal(task.dealid).callback;\n\t\tif (callbackTarget != address(0))\n\t\t{\n\t\t\t/**\n\t\t\t * Call does not revert if the target smart contract is incompatible or reverts\n\t\t\t *\n\t\t\t * ATTENTION!\n\t\t\t * This call is dangerous and target smart contract can charge the stack.\n\t\t\t * Assume invalid state after the call.\n\t\t\t * See: https://solidity.readthedocs.io/en/develop/types.html#members-of-addresses\n\t\t\t *\n\t\t\t * TODO: gas provided?\n\t\t\t */\n\t\t\trequire(gasleft() > 100000);\n\t\t\tbool success;\n\t\t\t(success,) = callbackTarget.call.gas(100000)(abi.encodeWithSignature(\n\t\t\t\t\"receiveResult(bytes32,bytes)\",\n\t\t\t\t_taskid,\n\t\t\t\t_results\n\t\t\t));\n\t\t}\n\t}\n\n\tfunction distributeRewards(bytes32 _taskid)\n\tprivate\n\t{\n\t\tIexecODBLibCore.Task storage task = m_tasks[_taskid];\n\t\tIexecODBLibCore.Deal memory  deal = iexecclerk.viewDeal(task.dealid);\n\n\t\tuint256 i;\n\t\taddress worker;\n\n\t\tuint256 totalLogWeight = 0;\n\t\tuint256 totalReward = iexecclerk.viewDeal(task.dealid).workerpool.price;\n\n\t\tfor (i = 0; i < task.contributors.length; ++i)\n\t\t{\n\t\t\tworker = task.contributors[i];\n\t\t\tif (m_contributions[_taskid][worker].status == IexecODBLibCore.ContributionStatusEnum.PROVED)\n\t\t\t{\n\t\t\t\ttotalLogWeight = totalLogWeight.add(m_logweight[_taskid][worker]);\n\t\t\t}\n\t\t\telse // ContributionStatusEnum.REJECT or ContributionStatusEnum.CONTRIBUTED (not revealed)\n\t\t\t{\n\t\t\t\ttotalReward = totalReward.add(deal.workerStake);\n\t\t\t}\n\t\t}\n\t\trequire(totalLogWeight > 0);\n\n\t\t// compute how much is going to the workers\n\t\tuint256 workersReward = totalReward.percentage(uint256(100).sub(deal.schedulerRewardRatio));\n\n\t\tfor (i = 0; i < task.contributors.length; ++i)\n\t\t{\n\t\t\tworker = task.contributors[i];\n\t\t\tif (m_contributions[_taskid][worker].status == IexecODBLibCore.ContributionStatusEnum.PROVED)\n\t\t\t{\n\t\t\t\tuint256 workerReward = workersReward.mulByFraction(m_logweight[_taskid][worker], totalLogWeight);\n\t\t\t\ttotalReward          = totalReward.sub(workerReward);\n\n\t\t\t\tiexecclerk.unlockAndRewardForContribution(task.dealid, worker, workerReward, _taskid);\n\n\t\t\t\t// Only reward if replication happened\n\t\t\t\tif (task.contributors.length > 1)\n\t\t\t\t{\n\t\t\t\t\t/*******************************************************************\n\t\t\t\t\t *                        SCORE POLICY 2/3                         *\n\t\t\t\t\t *                                                                 *\n\t\t\t\t\t *                       see documentation!                        *\n\t\t\t\t\t *******************************************************************/\n\t\t\t\t\tm_workerScores[worker] = m_workerScores[worker].add(1);\n\t\t\t\t\temit AccurateContribution(worker, _taskid);\n\t\t\t\t}\n\t\t\t}\n\t\t\telse // WorkStatusEnum.POCO_REJECT or ContributionStatusEnum.CONTRIBUTED (not revealed)\n\t\t\t{\n\t\t\t\t// No Reward\n\t\t\t\tiexecclerk.seizeContribution(task.dealid, worker, _taskid);\n\n\t\t\t\t// Always punish bad contributors\n\t\t\t\t{\n\t\t\t\t\t/*******************************************************************\n\t\t\t\t\t *                        SCORE POLICY 3/3                         *\n\t\t\t\t\t *                                                                 *\n\t\t\t\t\t *                       see documentation!                        *\n\t\t\t\t\t *******************************************************************/\n\t\t\t\t\t// k = 3\n\t\t\t\t\tm_workerScores[worker] = m_workerScores[worker].mulByFraction(2,3);\n\t\t\t\t\temit FaultyContribution(worker, _taskid);\n\t\t\t\t}\n\t\t\t}\n\t\t}\n\t\t// totalReward now contains the scheduler share\n\t\tiexecclerk.rewardForScheduling(task.dealid, totalReward, _taskid);\n\t}\n\n\tfunction claim(\n\t\tbytes32 _taskid)\n\tpublic\n\t{\n\t\tIexecODBLibCore.Task storage task = m_tasks[_taskid];\n\t\trequire(task.status == IexecODBLibCore.TaskStatusEnum.ACTIVE\n\t\t     || task.status == IexecODBLibCore.TaskStatusEnum.REVEALING);\n\t\trequire(task.finalDeadline <= now);\n\n\t\ttask.status = IexecODBLibCore.TaskStatusEnum.FAILLED;\n\n\t\t/**\n\t\t * Stake management\n\t\t */\n\t\tiexecclerk.failedWork(task.dealid, _taskid);\n\t\tfor (uint256 i = 0; i < task.contributors.length; ++i)\n\t\t{\n\t\t\taddress worker = task.contributors[i];\n\t\t\tiexecclerk.unlockContribution(task.dealid, worker);\n\t\t}\n\n\t\temit TaskClaimed(_taskid);\n\t}\n\n\t/***************************************************************************\n\t *                            Array operations                             *\n\t ***************************************************************************/\n\tfunction initializeArray(\n\t\tbytes32[] calldata _dealid,\n\t\tuint256[] calldata _idx)\n\texternal returns (bool)\n\t{\n\t\trequire(_dealid.length == _idx.length);\n\t\tfor (uint i = 0; i < _dealid.length; ++i)\n\t\t{\n\t\t\tinitialize(_dealid[i], _idx[i]);\n\t\t}\n\t\treturn true;\n\t}\n\n\tfunction claimArray(\n\t\tbytes32[] calldata _taskid)\n\texternal returns (bool)\n\t{\n\t\tfor (uint i = 0; i < _taskid.length; ++i)\n\t\t{\n\t\t\tclaim(_taskid[i]);\n\t\t}\n\t\treturn true;\n\t}\n\n\tfunction initializeAndClaimArray(\n\t\tbytes32[] calldata _dealid,\n\t\tuint256[] calldata _idx)\n\texternal returns (bool)\n\t{\n\t\trequire(_dealid.length == _idx.length);\n\t\tfor (uint i = 0; i < _dealid.length; ++i)\n\t\t{\n\t\t\tclaim(initialize(_dealid[i], _idx[i]));\n\t\t}\n\t\treturn true;\n\t}\n\n\t/**\n\t * /!\\ TEMPORARY LEGACY /!\\\n\t */\n\n\tfunction viewTaskABILegacy(bytes32 _taskid)\n\texternal view returns\n\t( IexecODBLibCore.TaskStatusEnum\n\t, bytes32\n\t, uint256\n\t, uint256\n\t, uint256\n\t, uint256\n\t, uint256\n\t, bytes32\n\t, uint256\n\t, uint256\n\t, address[] memory\n\t, bytes     memory\n\t)\n\t{\n\t\tIexecODBLibCore.Task memory task = m_tasks[_taskid];\n\t\treturn (\n\t\t\ttask.status,\n\t\t\ttask.dealid,\n\t\t\ttask.idx,\n\t\t\ttask.timeref,\n\t\t\ttask.contributionDeadline,\n\t\t\ttask.revealDeadline,\n\t\t\ttask.finalDeadline,\n\t\t\ttask.consensusValue,\n\t\t\ttask.revealCounter,\n\t\t\ttask.winnerCounter,\n\t\t\ttask.contributors,\n\t\t\ttask.results\n\t\t);\n\t}\n\n\tfunction viewContributionABILegacy(bytes32 _taskid, address _worker)\n\texternal view returns\n\t( IexecODBLibCore.ContributionStatusEnum\n\t, bytes32\n\t, bytes32\n\t, address\n\t)\n\t{\n\t\tIexecODBLibCore.Contribution memory contribution = m_contributions[_taskid][_worker];\n\t\treturn (\n\t\t\tcontribution.status,\n\t\t\tcontribution.resultHash,\n\t\t\tcontribution.resultSeal,\n\t\t\tcontribution.enclaveChallenge\n\t\t);\n\t}\n\n\tfunction viewCategoryABILegacy(uint256 _catid)\n\texternal view returns (string memory, string memory, uint256)\n\t{\n\t\tIexecODBLibCore.Category memory category = m_categories[_catid];\n\t\treturn ( category.name, category.description, category.workClockTimeRef );\n\t}\n}\n",
  "sourcePath": "/home/amxx/Work/iExec/code/PoCo-dev/contracts/IexecHub.sol",
  "compiler": {
    "name": "solc",
    "version": "0.5.9+commit.e560f70d.Emscripten.clang"
  },
  "schemaVersion": "3.0.9",
  "updatedAt": "2019-06-13T10:40:14.467Z",
  "devdoc": {
    "methods": {
      "isOwner()": {
        "return": "true if `msg.sender` is the owner of the contract."
      },
      "owner()": {
        "return": "the address of the owner."
      },
      "renounceOwnership()": {
        "details": "Allows the current owner to relinquish control of the contract. It will not be possible to call the functions with the `onlyOwner` modifier anymore."
      },
      "transferOwnership(address)": {
        "details": "Allows the current owner to transfer control of the contract to a newOwner.",
        "params": {
          "newOwner": "The address to transfer ownership to."
        }
      }
    }
  },
  "userdoc": {
    "methods": {
      "constructor": "*************************************************************************                              Constructor                               ***************************************************************************",
      "createCategory(string,string,uint256)": {
        "notice": "Methods"
      },
      "initialize(bytes32,uint256)": {
        "notice": "*************************************************************************                           Consensus methods                            ***************************************************************************"
      },
      "initializeArray(bytes32[],uint256[])": {
        "notice": "*************************************************************************                           Array operations                             ***************************************************************************"
      },
      "renounceOwnership()": {
        "notice": "Renouncing ownership will leave the contract without an owner, thereby removing any functionality that is only available to the owner."
      },
      "resultFor(bytes32)": {
        "notice": "*************************************************************************                        EIP 1154 PULL INTERFACE                         ***************************************************************************"
      },
      "viewCategory(uint256)": {
        "notice": "Accessors"
      },
      "viewTask(bytes32)": {
        "notice": "*************************************************************************                               Accessors                                ***************************************************************************"
      },
      "viewTaskABILegacy(bytes32)": {
        "notice": "/!\\ TEMPORARY LEGACY /!\\"
      }
    }
  }
}