{
  "contractName": "KERC20",
  "abi": [
    {
      "inputs": [
        {
          "internalType": "address",
          "name": "token",
          "type": "address"
        },
        {
          "internalType": "string",
          "name": "name",
          "type": "string"
        },
        {
          "internalType": "string",
          "name": "symbol",
          "type": "string"
        },
        {
          "internalType": "uint256",
          "name": "softcap",
          "type": "uint256"
        },
        {
          "internalType": "address[]",
          "name": "kycadmins",
          "type": "address[]"
        }
      ],
      "stateMutability": "nonpayable",
      "type": "constructor"
    },
    {
      "anonymous": false,
      "inputs": [
        {
          "indexed": true,
          "internalType": "address",
          "name": "owner",
          "type": "address"
        },
        {
          "indexed": true,
          "internalType": "address",
          "name": "spender",
          "type": "address"
        },
        {
          "indexed": false,
          "internalType": "uint256",
          "name": "value",
          "type": "uint256"
        }
      ],
      "name": "Approval",
      "type": "event"
    },
    {
      "anonymous": false,
      "inputs": [
        {
          "indexed": false,
          "internalType": "uint256",
          "name": "oldMinDeposit",
          "type": "uint256"
        },
        {
          "indexed": false,
          "internalType": "uint256",
          "name": "newMinDeposit",
          "type": "uint256"
        }
      ],
      "name": "MinDepositChanged",
      "type": "event"
    },
    {
      "anonymous": false,
      "inputs": [
        {
          "indexed": true,
          "internalType": "bytes32",
          "name": "role",
          "type": "bytes32"
        },
        {
          "indexed": true,
          "internalType": "bytes32",
          "name": "previousAdminRole",
          "type": "bytes32"
        },
        {
          "indexed": true,
          "internalType": "bytes32",
          "name": "newAdminRole",
          "type": "bytes32"
        }
      ],
      "name": "RoleAdminChanged",
      "type": "event"
    },
    {
      "anonymous": false,
      "inputs": [
        {
          "indexed": true,
          "internalType": "bytes32",
          "name": "role",
          "type": "bytes32"
        },
        {
          "indexed": true,
          "internalType": "address",
          "name": "account",
          "type": "address"
        },
        {
          "indexed": true,
          "internalType": "address",
          "name": "sender",
          "type": "address"
        }
      ],
      "name": "RoleGranted",
      "type": "event"
    },
    {
      "anonymous": false,
      "inputs": [
        {
          "indexed": true,
          "internalType": "bytes32",
          "name": "role",
          "type": "bytes32"
        },
        {
          "indexed": true,
          "internalType": "address",
          "name": "account",
          "type": "address"
        },
        {
          "indexed": true,
          "internalType": "address",
          "name": "sender",
          "type": "address"
        }
      ],
      "name": "RoleRevoked",
      "type": "event"
    },
    {
      "anonymous": false,
      "inputs": [
        {
          "indexed": false,
          "internalType": "uint256",
          "name": "id",
          "type": "uint256"
        }
      ],
      "name": "Snapshot",
      "type": "event"
    },
    {
      "anonymous": false,
      "inputs": [],
      "name": "SoftCapReached",
      "type": "event"
    },
    {
      "anonymous": false,
      "inputs": [
        {
          "indexed": true,
          "internalType": "address",
          "name": "from",
          "type": "address"
        },
        {
          "indexed": true,
          "internalType": "address",
          "name": "to",
          "type": "address"
        },
        {
          "indexed": false,
          "internalType": "uint256",
          "name": "value",
          "type": "uint256"
        }
      ],
      "name": "Transfer",
      "type": "event"
    },
    {
      "inputs": [],
      "name": "DEFAULT_ADMIN_ROLE",
      "outputs": [
        {
          "internalType": "bytes32",
          "name": "",
          "type": "bytes32"
        }
      ],
      "stateMutability": "view",
      "type": "function"
    },
    {
      "inputs": [],
      "name": "KYC_ADMIN_ROLE",
      "outputs": [
        {
          "internalType": "bytes32",
          "name": "",
          "type": "bytes32"
        }
      ],
      "stateMutability": "view",
      "type": "function"
    },
    {
      "inputs": [],
      "name": "KYC_MEMBER_ROLE",
      "outputs": [
        {
          "internalType": "bytes32",
          "name": "",
          "type": "bytes32"
        }
      ],
      "stateMutability": "view",
      "type": "function"
    },
    {
      "inputs": [
        {
          "internalType": "address",
          "name": "owner",
          "type": "address"
        },
        {
          "internalType": "address",
          "name": "spender",
          "type": "address"
        }
      ],
      "name": "allowance",
      "outputs": [
        {
          "internalType": "uint256",
          "name": "",
          "type": "uint256"
        }
      ],
      "stateMutability": "view",
      "type": "function"
    },
    {
      "inputs": [
        {
          "internalType": "address",
          "name": "spender",
          "type": "address"
        },
        {
          "internalType": "uint256",
          "name": "amount",
          "type": "uint256"
        }
      ],
      "name": "approve",
      "outputs": [
        {
          "internalType": "bool",
          "name": "",
          "type": "bool"
        }
      ],
      "stateMutability": "nonpayable",
      "type": "function"
    },
    {
      "inputs": [
        {
          "internalType": "address",
          "name": "account",
          "type": "address"
        }
      ],
      "name": "balanceOf",
      "outputs": [
        {
          "internalType": "uint256",
          "name": "",
          "type": "uint256"
        }
      ],
      "stateMutability": "view",
      "type": "function"
    },
    {
      "inputs": [
        {
          "internalType": "address",
          "name": "account",
          "type": "address"
        },
        {
          "internalType": "uint256",
          "name": "snapshotId",
          "type": "uint256"
        }
      ],
      "name": "balanceOfAt",
      "outputs": [
        {
          "internalType": "uint256",
          "name": "",
          "type": "uint256"
        }
      ],
      "stateMutability": "view",
      "type": "function"
    },
    {
      "inputs": [],
      "name": "decimals",
      "outputs": [
        {
          "internalType": "uint8",
          "name": "",
          "type": "uint8"
        }
      ],
      "stateMutability": "view",
      "type": "function"
    },
    {
      "inputs": [
        {
          "internalType": "address",
          "name": "spender",
          "type": "address"
        },
        {
          "internalType": "uint256",
          "name": "subtractedValue",
          "type": "uint256"
        }
      ],
      "name": "decreaseAllowance",
      "outputs": [
        {
          "internalType": "bool",
          "name": "",
          "type": "bool"
        }
      ],
      "stateMutability": "nonpayable",
      "type": "function"
    },
    {
      "inputs": [
        {
          "internalType": "bytes32",
          "name": "role",
          "type": "bytes32"
        }
      ],
      "name": "getRoleAdmin",
      "outputs": [
        {
          "internalType": "bytes32",
          "name": "",
          "type": "bytes32"
        }
      ],
      "stateMutability": "view",
      "type": "function"
    },
    {
      "inputs": [
        {
          "internalType": "bytes32",
          "name": "role",
          "type": "bytes32"
        },
        {
          "internalType": "uint256",
          "name": "index",
          "type": "uint256"
        }
      ],
      "name": "getRoleMember",
      "outputs": [
        {
          "internalType": "address",
          "name": "",
          "type": "address"
        }
      ],
      "stateMutability": "view",
      "type": "function"
    },
    {
      "inputs": [
        {
          "internalType": "bytes32",
          "name": "role",
          "type": "bytes32"
        }
      ],
      "name": "getRoleMemberCount",
      "outputs": [
        {
          "internalType": "uint256",
          "name": "",
          "type": "uint256"
        }
      ],
      "stateMutability": "view",
      "type": "function"
    },
    {
      "inputs": [
        {
          "internalType": "bytes32",
          "name": "role",
          "type": "bytes32"
        },
        {
          "internalType": "address",
          "name": "account",
          "type": "address"
        }
      ],
      "name": "grantRole",
      "outputs": [],
      "stateMutability": "nonpayable",
      "type": "function"
    },
    {
      "inputs": [
        {
          "internalType": "bytes32",
          "name": "role",
          "type": "bytes32"
        },
        {
          "internalType": "address",
          "name": "account",
          "type": "address"
        }
      ],
      "name": "hasRole",
      "outputs": [
        {
          "internalType": "bool",
          "name": "",
          "type": "bool"
        }
      ],
      "stateMutability": "view",
      "type": "function"
    },
    {
      "inputs": [
        {
          "internalType": "address",
          "name": "spender",
          "type": "address"
        },
        {
          "internalType": "uint256",
          "name": "addedValue",
          "type": "uint256"
        }
      ],
      "name": "increaseAllowance",
      "outputs": [
        {
          "internalType": "bool",
          "name": "",
          "type": "bool"
        }
      ],
      "stateMutability": "nonpayable",
      "type": "function"
    },
    {
      "inputs": [],
      "name": "minDeposit",
      "outputs": [
        {
          "internalType": "uint256",
          "name": "",
          "type": "uint256"
        }
      ],
      "stateMutability": "view",
      "type": "function"
    },
    {
      "inputs": [],
      "name": "name",
      "outputs": [
        {
          "internalType": "string",
          "name": "",
          "type": "string"
        }
      ],
      "stateMutability": "view",
      "type": "function"
    },
    {
      "inputs": [
        {
          "internalType": "bytes32",
          "name": "role",
          "type": "bytes32"
        },
        {
          "internalType": "address",
          "name": "account",
          "type": "address"
        }
      ],
      "name": "renounceRole",
      "outputs": [],
      "stateMutability": "nonpayable",
      "type": "function"
    },
    {
      "inputs": [
        {
          "internalType": "bytes32",
          "name": "role",
          "type": "bytes32"
        },
        {
          "internalType": "address",
          "name": "account",
          "type": "address"
        }
      ],
      "name": "revokeRole",
      "outputs": [],
      "stateMutability": "nonpayable",
      "type": "function"
    },
    {
      "inputs": [],
      "name": "softCap",
      "outputs": [
        {
          "internalType": "uint256",
          "name": "",
          "type": "uint256"
        }
      ],
      "stateMutability": "view",
      "type": "function"
    },
    {
      "inputs": [],
      "name": "softCapReached",
      "outputs": [
        {
          "internalType": "bool",
          "name": "",
          "type": "bool"
        }
      ],
      "stateMutability": "view",
      "type": "function"
    },
    {
      "inputs": [],
      "name": "symbol",
      "outputs": [
        {
          "internalType": "string",
          "name": "",
          "type": "string"
        }
      ],
      "stateMutability": "view",
      "type": "function"
    },
    {
      "inputs": [],
      "name": "totalSupply",
      "outputs": [
        {
          "internalType": "uint256",
          "name": "",
          "type": "uint256"
        }
      ],
      "stateMutability": "view",
      "type": "function"
    },
    {
      "inputs": [
        {
          "internalType": "uint256",
          "name": "snapshotId",
          "type": "uint256"
        }
      ],
      "name": "totalSupplyAt",
      "outputs": [
        {
          "internalType": "uint256",
          "name": "",
          "type": "uint256"
        }
      ],
      "stateMutability": "view",
      "type": "function"
    },
    {
      "inputs": [
        {
          "internalType": "address",
          "name": "recipient",
          "type": "address"
        },
        {
          "internalType": "uint256",
          "name": "amount",
          "type": "uint256"
        }
      ],
      "name": "transfer",
      "outputs": [
        {
          "internalType": "bool",
          "name": "",
          "type": "bool"
        }
      ],
      "stateMutability": "nonpayable",
      "type": "function"
    },
    {
      "inputs": [
        {
          "internalType": "address",
          "name": "sender",
          "type": "address"
        },
        {
          "internalType": "address",
          "name": "recipient",
          "type": "address"
        },
        {
          "internalType": "uint256",
          "name": "amount",
          "type": "uint256"
        }
      ],
      "name": "transferFrom",
      "outputs": [
        {
          "internalType": "bool",
          "name": "",
          "type": "bool"
        }
      ],
      "stateMutability": "nonpayable",
      "type": "function"
    },
    {
      "inputs": [],
      "name": "underlyingToken",
      "outputs": [
        {
          "internalType": "contract IERC20",
          "name": "",
          "type": "address"
        }
      ],
      "stateMutability": "view",
      "type": "function"
    },
    {
      "inputs": [
        {
          "internalType": "uint256",
          "name": "amount",
          "type": "uint256"
        }
      ],
      "name": "setMinDeposit",
      "outputs": [],
      "stateMutability": "nonpayable",
      "type": "function"
    },
    {
      "inputs": [
        {
          "internalType": "address",
          "name": "account",
          "type": "address"
        }
      ],
      "name": "isKYC",
      "outputs": [
        {
          "internalType": "bool",
          "name": "",
          "type": "bool"
        }
      ],
      "stateMutability": "view",
      "type": "function"
    },
    {
      "inputs": [
        {
          "internalType": "address[]",
          "name": "accounts",
          "type": "address[]"
        }
      ],
      "name": "grantKYC",
      "outputs": [],
      "stateMutability": "nonpayable",
      "type": "function"
    },
    {
      "inputs": [
        {
          "internalType": "address[]",
          "name": "accounts",
          "type": "address[]"
        }
      ],
      "name": "revokeKYC",
      "outputs": [],
      "stateMutability": "nonpayable",
      "type": "function"
    },
    {
      "inputs": [
        {
          "internalType": "uint256",
          "name": "amount",
          "type": "uint256"
        }
      ],
      "name": "deposit",
      "outputs": [],
      "stateMutability": "nonpayable",
      "type": "function"
    },
    {
      "inputs": [
        {
          "internalType": "uint256",
          "name": "amount",
          "type": "uint256"
        }
      ],
      "name": "withdraw",
      "outputs": [],
      "stateMutability": "nonpayable",
      "type": "function"
    },
    {
      "inputs": [],
      "name": "recover",
      "outputs": [],
      "stateMutability": "nonpayable",
      "type": "function"
    },
    {
      "inputs": [
        {
          "internalType": "address",
          "name": "sender",
          "type": "address"
        },
        {
          "internalType": "uint256",
          "name": "amount",
          "type": "uint256"
        },
        {
          "internalType": "address",
          "name": "token",
          "type": "address"
        },
        {
          "internalType": "bytes",
          "name": "",
          "type": "bytes"
        }
      ],
      "name": "receiveApproval",
      "outputs": [
        {
          "internalType": "bool",
          "name": "",
          "type": "bool"
        }
      ],
      "stateMutability": "nonpayable",
      "type": "function"
    },
    {
      "inputs": [
        {
          "internalType": "address",
          "name": "spender",
          "type": "address"
        },
        {
          "internalType": "uint256",
          "name": "amount",
          "type": "uint256"
        },
        {
          "internalType": "bytes",
          "name": "extraData",
          "type": "bytes"
        }
      ],
      "name": "approveAndCall",
      "outputs": [
        {
          "internalType": "bool",
          "name": "",
          "type": "bool"
        }
      ],
      "stateMutability": "nonpayable",
      "type": "function"
    },
    {
      "inputs": [
        {
          "internalType": "address",
          "name": "sender",
          "type": "address"
        },
        {
          "internalType": "uint256",
          "name": "amount",
          "type": "uint256"
        },
        {
          "internalType": "bytes",
          "name": "",
          "type": "bytes"
        }
      ],
      "name": "onTokenTransfer",
      "outputs": [
        {
          "internalType": "bool",
          "name": "",
          "type": "bool"
        }
      ],
      "stateMutability": "nonpayable",
      "type": "function"
    },
    {
      "inputs": [
        {
          "internalType": "address",
          "name": "receiver",
          "type": "address"
        },
        {
          "internalType": "uint256",
          "name": "amount",
          "type": "uint256"
        },
        {
          "internalType": "bytes",
          "name": "data",
          "type": "bytes"
        }
      ],
      "name": "transferAndCall",
      "outputs": [
        {
          "internalType": "bool",
          "name": "",
          "type": "bool"
        }
      ],
      "stateMutability": "nonpayable",
      "type": "function"
    },
    {
      "inputs": [
        {
          "internalType": "address",
          "name": "from",
          "type": "address"
        },
        {
          "internalType": "address",
          "name": "to",
          "type": "address"
        },
        {
          "internalType": "uint256",
          "name": "",
          "type": "uint256"
        }
      ],
      "name": "detectTransferRestriction",
      "outputs": [
        {
          "internalType": "uint8",
          "name": "",
          "type": "uint8"
        }
      ],
      "stateMutability": "view",
      "type": "function"
    },
    {
      "inputs": [
        {
          "internalType": "uint8",
          "name": "restrictionCode",
          "type": "uint8"
        }
      ],
      "name": "messageForTransferRestriction",
      "outputs": [
        {
          "internalType": "string",
          "name": "",
          "type": "string"
        }
      ],
      "stateMutability": "view",
      "type": "function"
    },
    {
      "inputs": [],
      "name": "snapshot",
      "outputs": [
        {
          "internalType": "uint256",
          "name": "",
          "type": "uint256"
        }
      ],
      "stateMutability": "nonpayable",
      "type": "function"
    }
  ],
  "bytecode": "0x60c06040523480156200001157600080fd5b5060405162002e6a38038062002e6a833981810160405260a08110156200003757600080fd5b8151602083018051604051929492938301929190846401000000008211156200005f57600080fd5b9083019060208201858111156200007557600080fd5b82516401000000008111828201881017156200009057600080fd5b82525081516020918201929091019080838360005b83811015620000bf578181015183820152602001620000a5565b50505050905090810190601f168015620000ed5780820380516001836020036101000a031916815260200191505b50604052602001805160405193929190846401000000008211156200011157600080fd5b9083019060208201858111156200012757600080fd5b82516401000000008111828201881017156200014257600080fd5b82525081516020918201929091019080838360005b838110156200017157818101518382015260200162000157565b50505050905090810190601f1680156200019f5780820380516001836020036101000a031916815260200191505b50604081815260208301519201805192949193919284640100000000821115620001c857600080fd5b908301906020820185811115620001de57600080fd5b8251866020820283011164010000000082111715620001fc57600080fd5b82525081516020918201928201910280838360005b838110156200022b57818101518382015260200162000211565b50505050905001604052505050838381600390805190602001906200025292919062000530565b5080516200026890600490602084019062000530565b50506005805460ff19166012179055506001600160601b0319606086901b166080526040805163313ce56760e01b8152905162000305916001600160a01b0388169163313ce56791600480820192602092909190829003018186803b158015620002d157600080fd5b505afa158015620002e6573d6000803e3d6000fd5b505050506040513d6020811015620002fd57600080fd5b5051620003b2565b60a0829052620003457fce55f595624c86c7e93aa4cf15cb4a958406550ae728a9b7ffda71a7d62eca7360008051602062002e4a833981519152620003c8565b6200035b6000620003556200041a565b6200041e565b60005b8151811015620003a6576200039d60008051602062002e4a8339815191528383815181106200038957fe5b60200260200101516200041e60201b60201c565b6001016200035e565b505050505050620005cc565b6005805460ff191660ff92909216919091179055565b6000828152600a6020526040808220600201549051839285917fbd79b86ffe0ab8e8776151514217cd7cacd52c909f66475c3af44e129f0b00ff9190a46000918252600a602052604090912060020155565b3390565b6200042a82826200042e565b5050565b6000828152600a6020908152604090912062000455918390620017b6620004a9821b17901c565b156200042a57620004656200041a565b6001600160a01b0316816001600160a01b0316837f2f8788117e7eff1d82e926ec794901d17c78024a50270940304540a733656f0d60405160405180910390a45050565b6000620004c0836001600160a01b038416620004c9565b90505b92915050565b6000620004d7838362000518565b6200050f57508154600181810184556000848152602080822090930184905584548482528286019093526040902091909155620004c3565b506000620004c3565b60009081526001919091016020526040902054151590565b828054600181600116156101000203166002900490600052602060002090601f016020900481019282601f106200057357805160ff1916838001178555620005a3565b82800160010185558215620005a3579182015b82811115620005a357825182559160200191906001019062000586565b50620005b1929150620005b5565b5090565b5b80821115620005b15760008155600101620005b6565b60805160601c60a051612839620006116000398061119f5280611dbb525080610baf5280610fe352806113945280611627528061194f5280611ca852506128396000f3fe608060405234801561001057600080fd5b50600436106102535760003560e01c80637f4ab1dd11610146578063a217fddf116100c3578063ca15c87311610087578063ca15c873146108ac578063cae9ca51146108c9578063ce7460241461094c578063d4ce141514610954578063d547741f1461098a578063dd62ed3e146109b657610253565b8063a217fddf146107ac578063a457c2d7146107b4578063a4c0ed36146107e0578063a9059cbb14610863578063b6b55f251461088f57610253565b806391d148541161010a57806391d148541461072d57806395d89b41146107595780639711715a14610761578063981b24d0146107695780639944f5181461078657610253565b80637f4ab1dd146106385780638f4ffcb1146106585780638fcc9cfb146106e55780639010d07c14610702578063906a26e01461072557610253565b80632e1a7d4d116101d45780634000aea0116101985780634000aea0146104ed57806341b3d185146105705780634a4e629c146105785780634ee2cd7e146105e657806370a082311461061257610253565b80632e1a7d4d1461042e5780632f2ff15d1461044b578063313ce5671461047757806336568abe1461049557806339509351146104c157610253565b806323b872dd1161021b57806323b872dd146103a7578063248a9ca3146103dd5780632495a599146103fa57806327e9083b1461041e5780632b9edee91461042657610253565b806302d7fd921461025857806306fdde0314610272578063095ea7b3146102ef57806318160ddd1461032f57806318f33caf14610337575b600080fd5b6102606109e4565b60408051918252519081900360200190f35b61027a610a08565b6040805160208082528351818301528351919283929083019185019080838360005b838110156102b457818101518382015260200161029c565b50505050905090810190601f1680156102e15780820380516001836020036101000a031916815260200191505b509250505060405180910390f35b61031b6004803603604081101561030557600080fd5b506001600160a01b038135169060200135610a9e565b604080519115158252519081900360200190f35b610260610abc565b6103a56004803603602081101561034d57600080fd5b810190602081018135600160201b81111561036757600080fd5b82018360208201111561037957600080fd5b803590602001918460208302840111600160201b8311171561039a57600080fd5b509092509050610ac2565b005b61031b600480360360608110156103bd57600080fd5b506001600160a01b03813581169160208101359091169060400135610b0d565b610260600480360360208110156103f357600080fd5b5035610b95565b610402610bad565b604080516001600160a01b039092168252519081900360200190f35b610260610bd1565b61031b610be3565b6103a56004803603602081101561044457600080fd5b5035610bec565b6103a56004803603604081101561046157600080fd5b50803590602001356001600160a01b0316610c11565b61047f610c7d565b6040805160ff9092168252519081900360200190f35b6103a5600480360360408110156104ab57600080fd5b50803590602001356001600160a01b0316610c86565b61031b600480360360408110156104d757600080fd5b506001600160a01b038135169060200135610ce7565b61031b6004803603606081101561050357600080fd5b6001600160a01b0382351691602081013591810190606081016040820135600160201b81111561053257600080fd5b82018360208201111561054457600080fd5b803590602001918460018302840111600160201b8311171561056557600080fd5b509092509050610d35565b610260610e5c565b6103a56004803603602081101561058e57600080fd5b810190602081018135600160201b8111156105a857600080fd5b8201836020820111156105ba57600080fd5b803590602001918460208302840111600160201b831117156105db57600080fd5b509092509050610e62565b610260600480360360408110156105fc57600080fd5b506001600160a01b038135169060200135610ea8565b6102606004803603602081101561062857600080fd5b50356001600160a01b0316610ef1565b61027a6004803603602081101561064e57600080fd5b503560ff16610f0c565b61031b6004803603608081101561066e57600080fd5b6001600160a01b038235811692602081013592604082013590921691810190608081016060820135600160201b8111156106a757600080fd5b8201836020820111156106b957600080fd5b803590602001918460018302840111600160201b831117156106da57600080fd5b509092509050610fdf565b6103a5600480360360208110156106fb57600080fd5b5035611075565b6104026004803603604081101561071857600080fd5b5080359060200135611185565b61026061119d565b61031b6004803603604081101561074357600080fd5b50803590602001356001600160a01b03166111c1565b61027a6111d9565b61026061123a565b6102606004803603602081101561077f57600080fd5b50356112d9565b61031b6004803603602081101561079c57600080fd5b50356001600160a01b0316611309565b610260611323565b61031b600480360360408110156107ca57600080fd5b506001600160a01b038135169060200135611328565b61031b600480360360608110156107f657600080fd5b6001600160a01b0382351691602081013591810190606081016040820135600160201b81111561082557600080fd5b82018360208201111561083757600080fd5b803590602001918460018302840111600160201b8311171561085857600080fd5b509092509050611390565b61031b6004803603604081101561087957600080fd5b506001600160a01b038135169060200135611418565b6103a5600480360360208110156108a557600080fd5b503561142c565b610260600480360360208110156108c257600080fd5b503561144e565b61031b600480360360608110156108df57600080fd5b6001600160a01b0382351691602081013591810190606081016040820135600160201b81111561090e57600080fd5b82018360208201111561092057600080fd5b803590602001918460018302840111600160201b8311171561094157600080fd5b509092509050611465565b6103a5611592565b61047f6004803603606081101561096a57600080fd5b506001600160a01b038135811691602081013590911690604001356116d0565b6103a5600480360360408110156109a057600080fd5b50803590602001356001600160a01b0316611732565b610260600480360360408110156109cc57600080fd5b506001600160a01b038135811691602001351661178b565b7f811427a0fa4932aef534bba16bc34e9b7b2d7d2a79c475fca1765f6cc1faebea81565b60038054604080516020601f6002600019610100600188161502019095169490940493840181900481028201810190925282815260609390929091830182828015610a945780601f10610a6957610100808354040283529160200191610a94565b820191906000526020600020905b815481529060010190602001808311610a7757829003601f168201915b5050505050905090565b6000610ab2610aab6117cb565b84846117cf565b5060015b92915050565b60025490565b60005b81811015610b0857610b006000805160206126fe833981519152848484818110610aeb57fe5b905060200201356001600160a01b0316610c11565b600101610ac5565b505050565b6000610b1a8484846118bb565b610b8a84610b266117cb565b610b858560405180606001604052806028815260200161271e602891396001600160a01b038a16600090815260016020526040812090610b646117cb565b6001600160a01b0316815260208101919091526040016000205491906118d8565b6117cf565b5060015b9392505050565b6000818152600a60205260409020600201545b919050565b7f000000000000000000000000000000000000000000000000000000000000000081565b6000805160206126fe83398151915281565b600b5460ff1681565b610bfd610bf76117cb565b82611932565b610c0e610c086117cb565b8261194d565b50565b6000828152600a6020526040902060020154610c3490610c2f6117cb565b6111c1565b610c6f5760405162461bcd60e51b815260040180806020018281038252602f815260200180612635602f913960400191505060405180910390fd5b610c798282611a33565b5050565b60055460ff1690565b610c8e6117cb565b6001600160a01b0316816001600160a01b031614610cdd5760405162461bcd60e51b815260040180806020018281038252602f8152602001806127d5602f913960400191505060405180910390fd5b610c798282611a9c565b6000610ab2610cf46117cb565b84610b858560016000610d056117cb565b6001600160a01b03908116825260208083019390935260409182016000908120918c168152925290205490611b05565b6000610d418585611418565b50846001600160a01b031663a4c0ed36610d596117cb565b8686866040518563ffffffff1660e01b815260040180856001600160a01b03168152602001848152602001806020018281038252848482818152602001925080828437600081840152601f19601f82011690508083019250505095505050505050602060405180830381600087803b158015610dd457600080fd5b505af1158015610de8573d6000803e3d6000fd5b505050506040513d6020811015610dfe57600080fd5b5051610e51576040805162461bcd60e51b815260206004820152601c60248201527f7472616e736665722d726566757365642d62792d726563656976657200000000604482015290519081900360640190fd5b506001949350505050565b600c5481565b60005b81811015610b0857610ea06000805160206126fe833981519152848484818110610e8b57fe5b905060200201356001600160a01b0316611732565b600101610e65565b6001600160a01b038216600090815260066020526040812081908190610ecf908590611b5f565b9150915081610ee657610ee185610ef1565b610ee8565b805b95945050505050565b6001600160a01b031660009081526020819052604090205490565b606060ff821660011415610f4c575060408051808201909152601581527453656e646572206973206d697373696e67204b594360581b6020820152610ba8565b60ff821660021415610f92575060408051808201909152601781527f5265636569766572206973206d697373696e67204b59430000000000000000006020820152610ba8565b6040805162461bcd60e51b815260206004820152601860248201527f696e76616c69642d7265737472696374696f6e2d636f64650000000000000000604482015290519081900360640190fd5b60007f00000000000000000000000000000000000000000000000000000000000000006001600160a01b0316846001600160a01b031614611055576040805162461bcd60e51b815260206004820152600b60248201526a3bb937b73396ba37b5b2b760a91b604482015290519081900360640190fd5b61105f8686611c5c565b6110698686611da1565b50600195945050505050565b600061107f6117cb565b604051806040016040528060138152602001723932b9ba3934b1ba32b216ba3796b0b236b4b760691b8152506110b583836111c1565b819061113f5760405162461bcd60e51b81526004018080602001828103825283818151815260200191508051906020019080838360005b838110156111045781810151838201526020016110ec565b50505050905090810190601f1680156111315780820380516001836020036101000a031916815260200191505b509250505060405180910390fd5b50600c54604080519182526020820186905280517fcacd94bd1e7bb1185c816a740d9439bc8eff8159f6f4ffad8d306b5aca2ebd929281900390910190a1505050600c55565b6000828152600a60205260408120610b8e9083611e24565b7f000000000000000000000000000000000000000000000000000000000000000081565b6000828152600a60205260408120610b8e9083611e30565b60048054604080516020601f6002600019610100600188161502019095169490940493840181900481028201810190925282815260609390929091830182828015610a945780601f10610a6957610100808354040283529160200191610a94565b6000806112456117cb565b604051806040016040528060138152602001723932b9ba3934b1ba32b216ba3796b0b236b4b760691b81525061127b83836111c1565b81906112c85760405162461bcd60e51b81526020600482018181528351602484015283519092839260449091019190850190808383600083156111045781810151838201526020016110ec565b506112d1611e45565b935050505090565b60008060006112e9846007611b5f565b91509150816112ff576112fa610abc565b611301565b805b949350505050565b6000610ab66000805160206126fe833981519152836111c1565b600081565b6000610ab26113356117cb565b84610b85856040518060600160405280602581526020016127b0602591396001600061135f6117cb565b6001600160a01b03908116825260208083019390935260409182016000908120918d168152925290205491906118d8565b60007f00000000000000000000000000000000000000000000000000000000000000006001600160a01b03166113c46117cb565b6001600160a01b03161461140e576040805162461bcd60e51b815260206004820152600c60248201526b3bb937b73396b9b2b73232b960a11b604482015290519081900360640190fd5b610e518585611da1565b6000610ab26114256117cb565b84846118bb565b61143d6114376117cb565b82611c5c565b610c0e6114486117cb565b82611da1565b6000818152600a60205260408120610ab690611e99565b60006114718585610a9e565b50846001600160a01b0316638f4ffcb16114896117cb565b863087876040518663ffffffff1660e01b815260040180866001600160a01b03168152602001858152602001846001600160a01b03168152602001806020018281038252848482818152602001925080828437600081840152601f19601f8201169050808301925050509650505050505050602060405180830381600087803b15801561151557600080fd5b505af1158015611529573d6000803e3d6000fd5b505050506040513d602081101561153f57600080fd5b5051610e51576040805162461bcd60e51b815260206004820152601c60248201527f617070726f76616c2d726566757365642d62792d726563656976657200000000604482015290519081900360640190fd5b600061159c6117cb565b6040518060400160405280600a81526020016937b7363c96b0b236b4b760b11b8152506115c983836111c1565b81906116165760405162461bcd60e51b81526020600482018181528351602484015283519092839260449091019190850190808383600083156111045781810151838201526020016110ec565b50610b086116226117cb565b6116cb7f00000000000000000000000000000000000000000000000000000000000000006001600160a01b03166370a08231306040518263ffffffff1660e01b815260040180826001600160a01b0316815260200191505060206040518083038186803b15801561169257600080fd5b505afa1580156116a6573d6000803e3d6000fd5b505050506040513d60208110156116bc57600080fd5b50516116c6610abc565b611ea4565b611da1565b60006001600160a01b038416158015906116f057506116ee84611309565b155b156116fd57506001610b8e565b6001600160a01b0383161580159061171b575061171983611309565b155b1561172857506002610b8e565b5060009392505050565b6000828152600a602052604090206002015461175090610c2f6117cb565b610cdd5760405162461bcd60e51b81526004018080602001828103825260308152602001806126ce6030913960400191505060405180910390fd5b6001600160a01b03918216600090815260016020908152604080832093909416825291909152205490565b6000610b8e836001600160a01b038416611ee6565b3390565b6001600160a01b0383166118145760405162461bcd60e51b815260040180806020018281038252602481526020018061278c6024913960400191505060405180910390fd5b6001600160a01b0382166118595760405162461bcd60e51b81526004018080602001828103825260228152602001806126866022913960400191505060405180910390fd5b6001600160a01b03808416600081815260016020908152604080832094871680845294825291829020859055815185815291517f8c5be1e5ebec7d5bd14f71427d1e84f3dd0314c0f7b2291e5b200ac8c7c3b9259281900390910190a3505050565b6118c483611f30565b6118cd82611f30565b610b08838383611f5a565b6000818484111561192a5760405162461bcd60e51b81526020600482018181528351602484015283519092839260449091019190850190808383600083156111045781810151838201526020016110ec565b505050900390565b61193b82611f30565b6119436120b5565b610c7982826120c4565b7f00000000000000000000000000000000000000000000000000000000000000006001600160a01b031663a9059cbb83836040518363ffffffff1660e01b815260040180836001600160a01b0316815260200182815260200192505050602060405180830381600087803b1580156119c457600080fd5b505af11580156119d8573d6000803e3d6000fd5b505050506040513d60208110156119ee57600080fd5b5051610c79576040805162461bcd60e51b815260206004820152600f60248201526e3330b4b632b216ba3930b739b332b960891b604482015290519081900360640190fd5b6000828152600a60205260409020611a4b90826117b6565b15610c7957611a586117cb565b6001600160a01b0316816001600160a01b0316837f2f8788117e7eff1d82e926ec794901d17c78024a50270940304540a733656f0d60405160405180910390a45050565b6000828152600a60205260409020611ab490826121c0565b15610c7957611ac16117cb565b6001600160a01b0316816001600160a01b0316837ff6391f5c32d9c69d2a47ea670b442974b53935d1edc7fd64eb21e047a839171b60405160405180910390a45050565b600082820183811015610b8e576040805162461bcd60e51b815260206004820152601b60248201527f536166654d6174683a206164646974696f6e206f766572666c6f770000000000604482015290519081900360640190fd5b60008060008411611bb0576040805162461bcd60e51b815260206004820152601660248201527504552433230536e617073686f743a20696420697320360541b604482015290519081900360640190fd5b611bba60096121d5565b841115611c0e576040805162461bcd60e51b815260206004820152601d60248201527f4552433230536e617073686f743a206e6f6e6578697374656e74206964000000604482015290519081900360640190fd5b6000611c1a84866121d9565b8454909150811415611c33576000809250925050611c55565b6001846001018281548110611c4457fe5b906000526020600020015492509250505b9250929050565b600c548111611ca6576040805162461bcd60e51b815260206004820152601160248201527019195c1bdcda5d0b5d1bdbcb5cdb585b1b607a1b604482015290519081900360640190fd5b7f00000000000000000000000000000000000000000000000000000000000000006001600160a01b03166323b872dd8330846040518463ffffffff1660e01b815260040180846001600160a01b03168152602001836001600160a01b031681526020018281526020019350505050602060405180830381600087803b158015611d2e57600080fd5b505af1158015611d42573d6000803e3d6000fd5b505050506040513d6020811015611d5857600080fd5b5051610c79576040805162461bcd60e51b81526020600482015260136024820152726661696c65642d7472616e7366657246726f6d60681b604482015290519081900360640190fd5b611dab828261227a565b600b5460ff16158015611de557507f0000000000000000000000000000000000000000000000000000000000000000611de2610abc565b10155b15610c7957600b805460ff191660011790556040517f629c1b672a634075c61f1cbfbec5f3e47b94c3f90f065486f615ecfa18713d3490600090a15050565b6000610b8e8383612295565b6000610b8e836001600160a01b0384166122f9565b6000611e516009612311565b6000611e5d60096121d5565b6040805182815290519192507f8030e83b04d87bef53480e26263266d6ca66863aa8506aca6f2559d18aa1cb67919081900360200190a1905090565b6000610ab6826121d5565b6000610b8e83836040518060400160405280601e81526020017f536166654d6174683a207375627472616374696f6e206f766572666c6f7700008152506118d8565b6000611ef283836122f9565b611f2857508154600181810184556000848152602080822090930184905584548482528286019093526040902091909155610ab6565b506000610ab6565b6001600160a01b0381166000908152600660205260409020610c0e90611f5583610ef1565b61231a565b6001600160a01b038316611f9f5760405162461bcd60e51b81526004018080602001828103825260258152602001806127676025913960400191505060405180910390fd5b6001600160a01b038216611fe45760405162461bcd60e51b81526004018080602001828103825260238152602001806126126023913960400191505060405180910390fd5b611fef838383612366565b61202c816040518060600160405280602681526020016126a8602691396001600160a01b03861660009081526020819052604090205491906118d8565b6001600160a01b03808516600090815260208190526040808220939093559084168152205461205b9082611b05565b6001600160a01b038084166000818152602081815260409182902094909455805185815290519193928716927fddf252ad1be2c89b69c2b068fc378daa952ba7f163c4a11628f55a4df523b3ef92918290030190a3505050565b6120c26007611f55610abc565b565b6001600160a01b0382166121095760405162461bcd60e51b81526004018080602001828103825260218152602001806127466021913960400191505060405180910390fd5b61211582600083612366565b61215281604051806060016040528060228152602001612664602291396001600160a01b03851660009081526020819052604090205491906118d8565b6001600160a01b0383166000908152602081905260409020556002546121789082611ea4565b6002556040805182815290516000916001600160a01b038516917fddf252ad1be2c89b69c2b068fc378daa952ba7f163c4a11628f55a4df523b3ef9181900360200190a35050565b6000610b8e836001600160a01b0384166123df565b5490565b81546000906121ea57506000610ab6565b82546000905b8082101561223957600061220483836124a5565b90508486828154811061221357fe5b9060005260206000200154111561222c57809150612233565b8060010192505b506121f0565b60008211801561226157508385600184038154811061225457fe5b9060005260206000200154145b156122725750600019019050610ab6565b509050610ab6565b61228382611f30565b61228b6120b5565b610c7982826124ca565b815460009082106122d75760405162461bcd60e51b81526004018080602001828103825260228152602001806125f06022913960400191505060405180910390fd5b8260000182815481106122e657fe5b9060005260206000200154905092915050565b60009081526001919091016020526040902054151590565b80546001019055565b600061232660096121d5565b905080612332846125ba565b1015610b08578254600180820185556000858152602080822090930193909355938401805494850181558252902090910155565b60006123738484846116d0565b905060ff8116156123ce5761238781610f0c565b60405162461bcd60e51b81526020600482018181528351602484015283519092839260449091019190850190808383600083156111045781810151838201526020016110ec565b6123d9848484610b08565b50505050565b6000818152600183016020526040812054801561249b578354600019808301919081019060009087908390811061241257fe5b906000526020600020015490508087600001848154811061242f57fe5b60009182526020808320909101929092558281526001898101909252604090209084019055865487908061245f57fe5b60019003818190600052602060002001600090559055866001016000878152602001908152602001600020600090556001945050505050610ab6565b6000915050610ab6565b600060028083066002850601816124b857fe5b04600283046002850401019392505050565b6001600160a01b038216612525576040805162461bcd60e51b815260206004820152601f60248201527f45524332303a206d696e7420746f20746865207a65726f206164647265737300604482015290519081900360640190fd5b61253160008383612366565b60025461253e9082611b05565b6002556001600160a01b0382166000908152602081905260409020546125649082611b05565b6001600160a01b0383166000818152602081815260408083209490945583518581529351929391927fddf252ad1be2c89b69c2b068fc378daa952ba7f163c4a11628f55a4df523b3ef9281900390910190a35050565b80546000906125cb57506000610ba8565b8154829060001981019081106125dd57fe5b90600052602060002001549050610ba856fe456e756d657261626c655365743a20696e646578206f7574206f6620626f756e647345524332303a207472616e7366657220746f20746865207a65726f2061646472657373416363657373436f6e74726f6c3a2073656e646572206d75737420626520616e2061646d696e20746f206772616e7445524332303a206275726e20616d6f756e7420657863656564732062616c616e636545524332303a20617070726f766520746f20746865207a65726f206164647265737345524332303a207472616e7366657220616d6f756e7420657863656564732062616c616e6365416363657373436f6e74726f6c3a2073656e646572206d75737420626520616e2061646d696e20746f207265766f6b65ce55f595624c86c7e93aa4cf15cb4a958406550ae728a9b7ffda71a7d62eca7345524332303a207472616e7366657220616d6f756e74206578636565647320616c6c6f77616e636545524332303a206275726e2066726f6d20746865207a65726f206164647265737345524332303a207472616e736665722066726f6d20746865207a65726f206164647265737345524332303a20617070726f76652066726f6d20746865207a65726f206164647265737345524332303a2064656372656173656420616c6c6f77616e63652062656c6f77207a65726f416363657373436f6e74726f6c3a2063616e206f6e6c792072656e6f756e636520726f6c657320666f722073656c66a2646970667358221220479c99aed85ece3b43a10fc6931180c5ad51f6ac237091dffad87c219af028fa64736f6c634300060c0033811427a0fa4932aef534bba16bc34e9b7b2d7d2a79c475fca1765f6cc1faebea",
  "immutableReferences": {
    "481": [
      {
        "length": 32,
        "start": 2991
      },
      {
        "length": 32,
        "start": 4067
      },
      {
        "length": 32,
        "start": 5012
      },
      {
        "length": 32,
        "start": 5671
      },
      {
        "length": 32,
        "start": 6479
      },
      {
        "length": 32,
        "start": 7336
      }
    ],
    "483": [
      {
        "length": 32,
        "start": 4511
      },
      {
        "length": 32,
        "start": 7611
      }
    ]
  },
  "source": "// SPDX-License-Identifier: Apache-2.0\n\n/******************************************************************************\n * Copyright 2020 IEXEC BLOCKCHAIN TECH                                       *\n *                                                                            *\n * Licensed under the Apache License, Version 2.0 (the \"License\");            *\n * you may not use this file except in compliance with the License.           *\n * You may obtain a copy of the License at                                    *\n *                                                                            *\n *     http://www.apache.org/licenses/LICENSE-2.0                             *\n *                                                                            *\n * Unless required by applicable law or agreed to in writing, software        *\n * distributed under the License is distributed on an \"AS IS\" BASIS,          *\n * WITHOUT WARRANTIES OR CONDITIONS OF ANY KIND, either express or implied.   *\n * See the License for the specific language governing permissions and        *\n * limitations under the License.                                             *\n ******************************************************************************/\n\npragma solidity ^0.6.0;\n\nimport \"@openzeppelin/contracts/access/AccessControl.sol\";\nimport \"@openzeppelin/contracts/token/ERC20/ERC20Snapshot.sol\";\nimport \"@openzeppelin/contracts/math/SafeMath.sol\";\nimport \"./IKERC20.sol\";\n\n\ncontract KERC20 is IKERC20, ERC20Snapshot, AccessControl\n{\n    bytes32 public constant KYC_ADMIN_ROLE  = keccak256(\"KYC_ADMIN_ROLE\");\n    bytes32 public constant KYC_MEMBER_ROLE = keccak256(\"KYC_MEMBER_ROLE\");\n\n    modifier onlyRole(bytes32 role, address member, string memory message)\n    {\n        require(hasRole(role, member), message);\n        _;\n    }\n\n    IERC20  public immutable underlyingToken;\n    uint256 public immutable softCap;\n    bool    public softCapReached;\n    uint256 public minDeposit;\n\n    event MinDepositChanged(uint256 oldMinDeposit, uint256 newMinDeposit);\n    event SoftCapReached();\n\n    constructor(address token, string memory name, string memory symbol, uint256 softcap, address[] memory kycadmins)\n    public ERC20(name, symbol)\n    {\n        // configure token\n        underlyingToken = IERC20(token);\n        _setupDecimals(ERC20(token).decimals());\n        softCap = softcap;\n        // configure roles\n        _setRoleAdmin(KYC_MEMBER_ROLE, KYC_ADMIN_ROLE);\n        // grant roles\n        _setupRole(DEFAULT_ADMIN_ROLE, _msgSender());\n        for (uint256 i = 0; i < kycadmins.length; ++i)\n        {\n            _setupRole(KYC_ADMIN_ROLE, kycadmins[i]);\n        }\n    }\n\n    function setMinDeposit(uint256 amount)\n    external override\n    onlyRole(DEFAULT_ADMIN_ROLE, _msgSender(), \"restricted-to-admin\")\n    {\n        emit MinDepositChanged(minDeposit, amount);\n        minDeposit = amount;\n    }\n\n    /*************************************************************************\n     *                              Public view                              *\n     *************************************************************************/\n    function isKYC(address account)\n    public view override returns (bool)\n    {\n        return hasRole(KYC_MEMBER_ROLE, account);\n    }\n\n    function grantKYC(address[] calldata accounts)\n    external override\n    {\n        for (uint256 i = 0; i < accounts.length; ++i)\n        {\n            grantRole(KYC_MEMBER_ROLE, accounts[i]);\n        }\n    }\n\n    function revokeKYC(address[] calldata accounts)\n    external override\n    {\n        for (uint256 i = 0; i < accounts.length; ++i)\n        {\n            revokeRole(KYC_MEMBER_ROLE, accounts[i]);\n        }\n    }\n\n    /*************************************************************************\n     *                       Escrow - public interface                       *\n     *************************************************************************/\n    function deposit(uint256 amount)\n    external override\n    {\n        _deposit(_msgSender(), amount);\n        _mint(_msgSender(), amount);\n    }\n\n    function withdraw(uint256 amount)\n    external override\n    {\n        _burn(_msgSender(), amount);\n        _withdraw(_msgSender(), amount);\n    }\n\n    function recover()\n    external override\n    onlyRole(DEFAULT_ADMIN_ROLE, _msgSender(), \"only-admin\")\n    {\n        _mint(_msgSender(), SafeMath.sub(underlyingToken.balanceOf(address(this)), totalSupply()));\n    }\n\n    /*************************************************************************\n     *                ERC677 - One-transaction ERC20 deposits                *\n     *************************************************************************/\n    function receiveApproval(address sender, uint256 amount, address token, bytes calldata)\n    external override returns (bool)\n    {\n        require(token == address(underlyingToken), \"wrong-token\");\n        _deposit(sender, amount);\n        _mint(sender, amount);\n        return true;\n    }\n\n    function approveAndCall(address spender, uint256 amount, bytes calldata extraData)\n    external override returns (bool)\n    {\n        approve(spender, amount);\n        require(IERC677Receiver(spender).receiveApproval(_msgSender(), amount, address(this), extraData), \"approval-refused-by-receiver\");\n        return true;\n    }\n\n    function onTokenTransfer(address sender, uint256 amount, bytes calldata)\n    external override returns (bool)\n    {\n        require(_msgSender() == address(underlyingToken), \"wrong-sender\");\n        _mint(sender, amount);\n        return true;\n    }\n\n    function transferAndCall(address receiver, uint256 amount, bytes calldata data)\n    external override returns (bool)\n    {\n        transfer(receiver, amount);\n        require(IERC677Receiver(receiver).onTokenTransfer(_msgSender(), amount, data), \"transfer-refused-by-receiver\");\n        return true;\n    }\n\n    /*************************************************************************\n     *                  ERC1404 - KYC transfer restriction                   *\n     *************************************************************************/\n    uint8 internal constant _RESTRICTION_OK               = uint8(0);\n    uint8 internal constant _RESTRICTION_MISSING_KYC_FROM = uint8(0x01);\n    uint8 internal constant _RESTRICTION_MISSING_KYC_TO   = uint8(0x02);\n\n    function detectTransferRestriction(address from, address to, uint256)\n    public view override returns (uint8)\n    {\n        // Allow non kyc to withdraw\n        // if (to == address(0)) return _RESTRICTION_OK;\n\n        // sender must be whitelisted or mint\n        if (from != address(0) && !isKYC(from))\n        {\n            return _RESTRICTION_MISSING_KYC_FROM;\n        }\n        // receiver must be whitelisted or burn\n        if (to != address(0) && !isKYC(to))\n        {\n            return _RESTRICTION_MISSING_KYC_TO;\n        }\n        return _RESTRICTION_OK;\n    }\n\n    function messageForTransferRestriction(uint8 restrictionCode)\n    public view override returns (string memory)\n    {\n        if (restrictionCode == _RESTRICTION_MISSING_KYC_FROM)\n        {\n            return \"Sender is missing KYC\";\n        }\n        if (restrictionCode == _RESTRICTION_MISSING_KYC_TO)\n        {\n            return \"Receiver is missing KYC\";\n        }\n        revert(\"invalid-restriction-code\");\n    }\n\n    /*************************************************************************\n     *                      Escrow - internal functions                      *\n     *************************************************************************/\n    function _deposit(address from, uint256 amount)\n    internal\n    {\n        require(amount > minDeposit, \"deposit-too-small\");\n        require(underlyingToken.transferFrom(from, address(this), amount), \"failed-transferFrom\");\n    }\n\n    function _withdraw(address to, uint256 amount)\n    internal\n    {\n        require(underlyingToken.transfer(to, amount), \"failed-transfer\");\n    }\n\n    /*************************************************************************\n     *                 ERC20 - alter behaviour to enable KYC                 *\n     *************************************************************************/\n    // Only allow transfer between KYC members\n    function _beforeTokenTransfer(address from, address to, uint256 amount)\n    internal override\n    {\n        uint8 restrictionCode = detectTransferRestriction(from, to, amount);\n        if (restrictionCode != _RESTRICTION_OK)\n        {\n            revert(messageForTransferRestriction(restrictionCode));\n        }\n        super._beforeTokenTransfer(from, to, amount);\n    }\n\n    // Check softcap\n    function _mint(address account, uint256 amount)\n    internal override\n    {\n        super._mint(account, amount);\n        if (!softCapReached && totalSupply() >= softCap)\n        {\n            softCapReached = true;\n            emit SoftCapReached();\n        }\n    }\n\n    /*************************************************************************\n     *                             ERC20Snapshot                             *\n     *************************************************************************/\n    function snapshot()\n    external\n    onlyRole(DEFAULT_ADMIN_ROLE, _msgSender(), \"restricted-to-admin\")\n    returns (uint256)\n    {\n        return _snapshot();\n    }\n}\n",
  "sourcePath": "/home/amxx/Work/iExec/code/PoCo-dev/contracts/erlc/KERC20.sol",
  "compiler": {
    "name": "solc",
    "version": "0.6.12+commit.27d51765.Emscripten.clang"
  },
  "schemaVersion": "3.2.2",
  "updatedAt": "2020-11-05T09:36:21.529Z",
  "devdoc": {
    "kind": "dev",
    "methods": {
      "allowance(address,address)": {
        "details": "See {IERC20-allowance}."
      },
      "approve(address,uint256)": {
        "details": "See {IERC20-approve}. Requirements: - `spender` cannot be the zero address."
      },
      "balanceOf(address)": {
        "details": "See {IERC20-balanceOf}."
      },
      "balanceOfAt(address,uint256)": {
        "details": "Retrieves the balance of `account` at the time `snapshotId` was created."
      },
      "decimals()": {
        "details": "Returns the number of decimals used to get its user representation. For example, if `decimals` equals `2`, a balance of `505` tokens should be displayed to a user as `5,05` (`505 / 10 ** 2`). Tokens usually opt for a value of 18, imitating the relationship between Ether and Wei. This is the value {ERC20} uses, unless {_setupDecimals} is called. NOTE: This information is only used for _display_ purposes: it in no way affects any of the arithmetic of the contract, including {IERC20-balanceOf} and {IERC20-transfer}."
      },
      "decreaseAllowance(address,uint256)": {
        "details": "Atomically decreases the allowance granted to `spender` by the caller. This is an alternative to {approve} that can be used as a mitigation for problems described in {IERC20-approve}. Emits an {Approval} event indicating the updated allowance. Requirements: - `spender` cannot be the zero address. - `spender` must have allowance for the caller of at least `subtractedValue`."
      },
      "getRoleAdmin(bytes32)": {
        "details": "Returns the admin role that controls `role`. See {grantRole} and {revokeRole}. To change a role's admin, use {_setRoleAdmin}."
      },
      "getRoleMember(bytes32,uint256)": {
        "details": "Returns one of the accounts that have `role`. `index` must be a value between 0 and {getRoleMemberCount}, non-inclusive. Role bearers are not sorted in any particular way, and their ordering may change at any point. WARNING: When using {getRoleMember} and {getRoleMemberCount}, make sure you perform all queries on the same block. See the following https://forum.openzeppelin.com/t/iterating-over-elements-on-enumerableset-in-openzeppelin-contracts/2296[forum post] for more information."
      },
      "getRoleMemberCount(bytes32)": {
        "details": "Returns the number of accounts that have `role`. Can be used together with {getRoleMember} to enumerate all bearers of a role."
      },
      "grantRole(bytes32,address)": {
        "details": "Grants `role` to `account`. If `account` had not been already granted `role`, emits a {RoleGranted} event. Requirements: - the caller must have ``role``'s admin role."
      },
      "hasRole(bytes32,address)": {
        "details": "Returns `true` if `account` has been granted `role`."
      },
      "increaseAllowance(address,uint256)": {
        "details": "Atomically increases the allowance granted to `spender` by the caller. This is an alternative to {approve} that can be used as a mitigation for problems described in {IERC20-approve}. Emits an {Approval} event indicating the updated allowance. Requirements: - `spender` cannot be the zero address."
      },
      "name()": {
        "details": "Returns the name of the token."
      },
      "renounceRole(bytes32,address)": {
        "details": "Revokes `role` from the calling account. Roles are often managed via {grantRole} and {revokeRole}: this function's purpose is to provide a mechanism for accounts to lose their privileges if they are compromised (such as when a trusted device is misplaced). If the calling account had been granted `role`, emits a {RoleRevoked} event. Requirements: - the caller must be `account`."
      },
      "revokeRole(bytes32,address)": {
        "details": "Revokes `role` from `account`. If `account` had been granted `role`, emits a {RoleRevoked} event. Requirements: - the caller must have ``role``'s admin role."
      },
      "symbol()": {
        "details": "Returns the symbol of the token, usually a shorter version of the name."
      },
      "totalSupply()": {
        "details": "See {IERC20-totalSupply}."
      },
      "totalSupplyAt(uint256)": {
        "details": "Retrieves the total supply at the time `snapshotId` was created."
      },
      "transfer(address,uint256)": {
        "details": "See {IERC20-transfer}. Requirements: - `recipient` cannot be the zero address. - the caller must have a balance of at least `amount`."
      },
      "transferFrom(address,address,uint256)": {
        "details": "See {IERC20-transferFrom}. Emits an {Approval} event indicating the updated allowance. This is not required by the EIP. See the note at the beginning of {ERC20}; Requirements: - `sender` and `recipient` cannot be the zero address. - `sender` must have a balance of at least `amount`. - the caller must have allowance for ``sender``'s tokens of at least `amount`."
      }
    },
    "version": 1
  },
  "userdoc": {
    "kind": "user",
    "methods": {},
    "version": 1
  }
}