{
  "contractName": "Marketplace",
  "abi": [
    {
      "constant": true,
      "inputs": [
        {
          "name": "",
          "type": "uint256"
        }
      ],
      "name": "m_orderBook",
      "outputs": [
        {
          "name": "direction",
          "type": "uint8"
        },
        {
          "name": "category",
          "type": "uint256"
        },
        {
          "name": "trust",
          "type": "uint256"
        },
        {
          "name": "value",
          "type": "uint256"
        },
        {
          "name": "volume",
          "type": "uint256"
        },
        {
          "name": "remaining",
          "type": "uint256"
        },
        {
          "name": "workerpool",
          "type": "address"
        },
        {
          "name": "workerpoolOwner",
          "type": "address"
        }
      ],
      "payable": false,
      "stateMutability": "view",
      "type": "function"
    },
    {
      "constant": true,
      "inputs": [],
      "name": "m_orderCount",
      "outputs": [
        {
          "name": "",
          "type": "uint256"
        }
      ],
      "payable": false,
      "stateMutability": "view",
      "type": "function"
    },
    {
      "constant": true,
      "inputs": [],
      "name": "ASK_STAKE_RATIO",
      "outputs": [
        {
          "name": "",
          "type": "uint256"
        }
      ],
      "payable": false,
      "stateMutability": "view",
      "type": "function"
    },
    {
      "inputs": [
        {
          "name": "_iexecHubAddress",
          "type": "address"
        }
      ],
      "payable": false,
      "stateMutability": "nonpayable",
      "type": "constructor"
    },
    {
      "anonymous": false,
      "inputs": [
        {
          "indexed": false,
          "name": "marketorderIdx",
          "type": "uint256"
        }
      ],
      "name": "MarketOrderCreated",
      "type": "event"
    },
    {
      "anonymous": false,
      "inputs": [
        {
          "indexed": false,
          "name": "marketorderIdx",
          "type": "uint256"
        }
      ],
      "name": "MarketOrderClosed",
      "type": "event"
    },
    {
      "anonymous": false,
      "inputs": [
        {
          "indexed": false,
          "name": "marketorderIdx",
          "type": "uint256"
        },
        {
          "indexed": false,
          "name": "requester",
          "type": "address"
        }
      ],
      "name": "MarketOrderAskConsume",
      "type": "event"
    },
    {
      "anonymous": false,
      "inputs": [
        {
          "indexed": true,
          "name": "woid",
          "type": "address"
        },
        {
          "indexed": false,
          "name": "requester",
          "type": "address"
        },
        {
          "indexed": false,
          "name": "beneficiary",
          "type": "address"
        },
        {
          "indexed": true,
          "name": "callbackTo",
          "type": "address"
        },
        {
          "indexed": true,
          "name": "gasCallbackProvider",
          "type": "address"
        },
        {
          "indexed": false,
          "name": "stdout",
          "type": "string"
        },
        {
          "indexed": false,
          "name": "stderr",
          "type": "string"
        },
        {
          "indexed": false,
          "name": "uri",
          "type": "string"
        }
      ],
      "name": "WorkOrderCallbackProof",
      "type": "event"
    },
    {
      "constant": false,
      "inputs": [
        {
          "name": "_direction",
          "type": "uint8"
        },
        {
          "name": "_category",
          "type": "uint256"
        },
        {
          "name": "_trust",
          "type": "uint256"
        },
        {
          "name": "_value",
          "type": "uint256"
        },
        {
          "name": "_workerpool",
          "type": "address"
        },
        {
          "name": "_volume",
          "type": "uint256"
        }
      ],
      "name": "createMarketOrder",
      "outputs": [
        {
          "name": "",
          "type": "uint256"
        }
      ],
      "payable": false,
      "stateMutability": "nonpayable",
      "type": "function"
    },
    {
      "constant": false,
      "inputs": [
        {
          "name": "_marketorderIdx",
          "type": "uint256"
        }
      ],
      "name": "closeMarketOrder",
      "outputs": [
        {
          "name": "",
          "type": "bool"
        }
      ],
      "payable": false,
      "stateMutability": "nonpayable",
      "type": "function"
    },
    {
      "constant": false,
      "inputs": [
        {
          "name": "_marketorderIdx",
          "type": "uint256"
        },
        {
          "name": "_requester",
          "type": "address"
        },
        {
          "name": "_workerpool",
          "type": "address"
        }
      ],
      "name": "consumeMarketOrderAsk",
      "outputs": [
        {
          "name": "",
          "type": "bool"
        }
      ],
      "payable": false,
      "stateMutability": "nonpayable",
      "type": "function"
    },
    {
      "constant": true,
      "inputs": [
        {
          "name": "_marketorderIdx",
          "type": "uint256"
        }
      ],
      "name": "existingMarketOrder",
      "outputs": [
        {
          "name": "marketOrderExist",
          "type": "bool"
        }
      ],
      "payable": false,
      "stateMutability": "view",
      "type": "function"
    },
    {
      "constant": true,
      "inputs": [
        {
          "name": "_marketorderIdx",
          "type": "uint256"
        }
      ],
      "name": "getMarketOrderValue",
      "outputs": [
        {
          "name": "",
          "type": "uint256"
        }
      ],
      "payable": false,
      "stateMutability": "view",
      "type": "function"
    },
    {
      "constant": true,
      "inputs": [
        {
          "name": "_marketorderIdx",
          "type": "uint256"
        }
      ],
      "name": "getMarketOrderWorkerpoolOwner",
      "outputs": [
        {
          "name": "",
          "type": "address"
        }
      ],
      "payable": false,
      "stateMutability": "view",
      "type": "function"
    },
    {
      "constant": true,
      "inputs": [
        {
          "name": "_marketorderIdx",
          "type": "uint256"
        }
      ],
      "name": "getMarketOrderCategory",
      "outputs": [
        {
          "name": "",
          "type": "uint256"
        }
      ],
      "payable": false,
      "stateMutability": "view",
      "type": "function"
    },
    {
      "constant": true,
      "inputs": [
        {
          "name": "_marketorderIdx",
          "type": "uint256"
        }
      ],
      "name": "getMarketOrderTrust",
      "outputs": [
        {
          "name": "",
          "type": "uint256"
        }
      ],
      "payable": false,
      "stateMutability": "view",
      "type": "function"
    },
    {
      "constant": true,
      "inputs": [
        {
          "name": "_marketorderIdx",
          "type": "uint256"
        }
      ],
      "name": "getMarketOrder",
      "outputs": [
        {
          "name": "direction",
          "type": "uint8"
        },
        {
          "name": "category",
          "type": "uint256"
        },
        {
          "name": "trust",
          "type": "uint256"
        },
        {
          "name": "value",
          "type": "uint256"
        },
        {
          "name": "volume",
          "type": "uint256"
        },
        {
          "name": "remaining",
          "type": "uint256"
        },
        {
          "name": "workerpool",
          "type": "address"
        },
        {
          "name": "workerpoolOwner",
          "type": "address"
        }
      ],
      "payable": false,
      "stateMutability": "view",
      "type": "function"
    },
    {
      "constant": true,
      "inputs": [
        {
          "name": "_woid",
          "type": "address"
        }
      ],
      "name": "isCallbackDone",
      "outputs": [
        {
          "name": "callbackDone",
          "type": "bool"
        }
      ],
      "payable": false,
      "stateMutability": "view",
      "type": "function"
    },
    {
      "constant": false,
      "inputs": [
        {
          "name": "_woid",
          "type": "address"
        },
        {
          "name": "_stdout",
          "type": "string"
        },
        {
          "name": "_stderr",
          "type": "string"
        },
        {
          "name": "_uri",
          "type": "string"
        }
      ],
      "name": "workOrderCallback",
      "outputs": [],
      "payable": false,
      "stateMutability": "nonpayable",
      "type": "function"
    }
  ],
  "bytecode": "0x6060604052341561000f57600080fd5b6040516020806112b8833981016040528080519150819050600160a060020a038116151561003c57600080fd5b60008054600160a060020a03909216600160a060020a031992831681179091556001805490921617905550611242806100766000396000f3006060604052600436106100b65763ffffffff60e060020a60003504166302a63c2881146100bb57806324026bfb146100f7578063270a8ef71461011f57806338c4090b146101355780633ab679561461014b5780634cfddcfb146101c2578063514d7067146101d857806355d66c3e146102bd57806360f75f3b146102ef57806369c7c180146103055780636b14ea361461031857806397e645f31461032b578063ea0b25901461034a578063eb3721be1461037b575b600080fd5b34156100c657600080fd5b6100e3600435600160a060020a0360243581169060443516610391565b604051901515815260200160405180910390f35b341561010257600080fd5b61010d600435610506565b60405190815260200160405180910390f35b341561012a57600080fd5b6100e3600435610532565b341561014057600080fd5b61010d600435610548565b341561015657600080fd5b610161600435610575565b6040518089600381111561017157fe5b60ff1681526020810198909852506040808801969096526060870194909452608086019290925260a0850152600160a060020a0390811660c08501521660e083015261010090910191505180910390f35b34156101cd57600080fd5b61010d6004356105cb565b34156101e357600080fd5b6102bb60048035600160a060020a03169060446024803590810190830135806020601f8201819004810201604051908101604052818152929190602084018383808284378201915050505050509190803590602001908201803590602001908080601f01602080910402602001604051908101604052818152929190602084018383808284378201915050505050509190803590602001908201803590602001908080601f0160208091040260200160405190810160405281815292919060208401838380828437509496506105f795505050505050565b005b34156102c857600080fd5b6102d3600435610ce0565b604051600160a060020a03909116815260200160405180910390f35b34156102fa57600080fd5b6100e3600435610d15565b341561031057600080fd5b61010d610e4b565b341561032357600080fd5b61010d610e51565b341561033657600080fd5b6100e3600160a060020a0360043516610e56565b341561035557600080fd5b61010d60ff60043516602435604435606435600160a060020a036084351660a435610e74565b341561038657600080fd5b6101616004356110f6565b60008054819033600160a060020a039081169116146103af57600080fd5b5060008481526003602052604090206002815460ff1660038111156103d057fe5b146103da57600080fd5b6005810154600090116103ec57600080fd5b6006810154600160a060020a0384811691161461040857600080fd5b600581015461041e90600163ffffffff61117616565b60058201819055151561043757805460ff191660031781555b6001546003820154600160a060020a039091169063ac26109e90869060405160e060020a63ffffffff8516028152600160a060020a0390921660048301526024820152604401602060405180830381600087803b151561049657600080fd5b5af115156104a357600080fd5b5050506040518051905015156104b857600080fd5b7fe15b7f1dd90867f2f9084033184322ae15a1572828d3d2a5a2dca5f6038332ba8585604051918252600160a060020a031660208201526040908101905180910390a1506001949350505050565b600061051182610532565b151561051c57600080fd5b5060009081526003602052604090206002015490565b6000908152600360205260408120600101541190565b600061055382610532565b151561055e57600080fd5b506000908152600360208190526040909120015490565b60036020819052600091825260409091208054600182015460028301549383015460048401546005850154600686015460079096015460ff9095169693959394929391929091600160a060020a03908116911688565b60006105d682610532565b15156105e157600080fd5b5060009081526003602052604090206001015490565b600154600090600160a060020a03166332ca55878660405160e060020a63ffffffff8416028152600160a060020a039091166004820152602401602060405180830381600087803b151561064a57600080fd5b5af1151561065757600080fd5b50505060405180519050151561066c57600080fd5b61067585610e56565b1561067f57600080fd5b600160a060020a0385166000908152600460208190526040909120805460ff1916600117905585600160a060020a031663e329c4786040518163ffffffff1660e060020a028152600401602060405180830381600087803b15156106e257600080fd5b5af115156106ef57600080fd5b50505060405180519050600481111561070457fe5b1461070e57600080fd5b8383836040518084805190602001908083835b602083106107405780518252601f199092019160209182019101610721565b6001836020036101000a038019825116818451161790925250505091909101905083805190602001908083835b6020831061078c5780518252601f19909201916020918201910161076d565b6001836020036101000a038019825116818451161790925250505091909101905082805190602001908083835b602083106107d85780518252601f1990920191602091820191016107b9565b6001836020036101000a03801982511681845116179092525050509190910194506040935050505051908190039020600160a060020a03861663d3281fd66040518163ffffffff1660e060020a028152600401602060405180830381600087803b151561084457600080fd5b5af1151561085157600080fd5b505050604051805191909114905061086857600080fd5b84600160a060020a031663da1fea286040518163ffffffff1660e060020a028152600401602060405180830381600087803b15156108a557600080fd5b5af115156108b257600080fd5b5050506040518051915050600160a060020a03811615156108d257600080fd5b80600160a060020a031663514d7067868686866040518563ffffffff1660e060020a0281526004018085600160a060020a0316600160a060020a03168152602001806020018060200180602001848103845287818151815260200191508051906020019080838360005b8381101561095457808201518382015260200161093c565b50505050905090810190601f1680156109815780820380516001836020036101000a031916815260200191505b50848103835286818151815260200191508051906020019080838360005b838110156109b757808201518382015260200161099f565b50505050905090810190601f1680156109e45780820380516001836020036101000a031916815260200191505b50848103825285818151815260200191508051906020019080838360005b83811015610a1a578082015183820152602001610a02565b50505050905090810190601f168015610a475780820380516001836020036101000a031916815260200191505b50975050505050505050602060405180830381600087803b1515610a6a57600080fd5b5af11515610a7757600080fd5b505050604051805190501515610a8c57600080fd5b32600160a060020a031681600160a060020a031686600160a060020a03167ffaa5bd626c00cd99117399c04259a0d49a005fdde47f67ed013a1f473a49587088600160a060020a0316635f44910c6040518163ffffffff1660e060020a028152600401602060405180830381600087803b1515610b0857600080fd5b5af11515610b1557600080fd5b5050506040518051905089600160a060020a031663f6a5b13e6040518163ffffffff1660e060020a028152600401602060405180830381600087803b1515610b5c57600080fd5b5af11515610b6957600080fd5b50505060405180519050898989604051600160a060020a0380871682528516602082015260a0604082018181529060608301906080840190840187818151815260200191508051906020019080838360005b83811015610bd3578082015183820152602001610bbb565b50505050905090810190601f168015610c005780820380516001836020036101000a031916815260200191505b50848103835286818151815260200191508051906020019080838360005b83811015610c36578082015183820152602001610c1e565b50505050905090810190601f168015610c635780820380516001836020036101000a031916815260200191505b50848103825285818151815260200191508051906020019080838360005b83811015610c99578082015183820152602001610c81565b50505050905090810190601f168015610cc65780820380516001836020036101000a031916815260200191505b509850505050505050505060405180910390a45050505050565b6000610ceb82610532565b1515610cf657600080fd5b50600090815260036020526040902060070154600160a060020a031690565b60008181526003602052604081206002815460ff166003811115610d3557fe5b14156100b657600781015433600160a060020a03908116911614610d5857600080fd5b600154600782015460058301546003840154600160a060020a039384169363b7b6e978931691610d9f91610d9390601e63ffffffff61118816565b9063ffffffff61119d16565b60405160e060020a63ffffffff8516028152600160a060020a0390921660048301526024820152604401602060405180830381600087803b1515610de257600080fd5b5af11515610def57600080fd5b505050604051805190501515610e0457600080fd5b805460ff191660031781557f9a05087bc2e92d4e31e031af3ffb9da7e4dffd4be5573811330541cc559315fe8360405190815260200160405180910390a150600192915050565b60025481565b601e81565b600160a060020a031660009081526004602052604090205460ff1690565b6001546000908190600160a060020a03166332baa8d98860405160e060020a63ffffffff84160281526004810191909152602401602060405180830381600087803b1515610ec157600080fd5b5af11515610ece57600080fd5b505050604051805190501515610ee357600080fd5b60008311610ef057600080fd5b600254610f0490600163ffffffff6111d316565b6002819055600090815260036020819052604090912080549092508991839160ff1916906001908490811115610f3657fe5b0217905550600181018790556002808201879055600382018690556004820184905560058201849055886003811115610f6b57fe5b14156100b65733600160a060020a031684600160a060020a031663deff41c16040518163ffffffff1660e060020a028152600401602060405180830381600087803b1515610fb857600080fd5b5af11515610fc557600080fd5b50505060405180519050600160a060020a0316141515610fe457600080fd5b600154600160a060020a031663ac26109e3361100b86610d938a601e63ffffffff61118816565b60405160e060020a63ffffffff8516028152600160a060020a0390921660048301526024820152604401602060405180830381600087803b151561104e57600080fd5b5af1151561105b57600080fd5b50505060405180519050151561107057600080fd5b600681018054600160a060020a0380871673ffffffffffffffffffffffffffffffffffffffff199283161790925560078301805433909316929091169190911790557fb0be9c5566c7b426b2e5378a75c24af27818f33e0b6aa5ea6208562c144c98f160025460405190815260200160405180910390a150506002549695505050505050565b600080600080600080600080600061110d8a610532565b151561111857600080fd5b505050600096875250506003602081905260409095208054600182015460028301549783015460048401546005850154600686015460079096015460ff9095169b939a995091975095509350600160a060020a039283169290911690565b60008282111561118257fe5b50900390565b6000611196838360646111e2565b9392505050565b6000808315156111b057600091506111cc565b508282028284828115156111c057fe5b04146111c857fe5b8091505b5092915050565b6000828201838110156111c857fe5b60006111f76111f1858561119d565b836111ff565b949350505050565b600080828481151561120d57fe5b049493505050505600a165627a7a7230582085bf5e16e46f431ec588aa208eb3814bfd116f626c11f170b4577f12cb454fa80029",
  "source": "pragma solidity ^0.4.21;\nimport './IexecLib.sol';\nimport './IexecHubAccessor.sol';\nimport './WorkerPool.sol';\nimport \"./SafeMathOZ.sol\";\nimport './IexecCallbackInterface.sol';\n\ncontract Marketplace is IexecHubAccessor\n{\n\tusing SafeMathOZ for uint256;\n\n\t/**\n\t * Marketplace\n\t */\n\tuint                                 public m_orderCount;\n\tmapping(uint =>IexecLib.MarketOrder) public m_orderBook;\n\n\tuint256 public constant ASK_STAKE_RATIO  = 30;\n\n\t/**\n\t * Events\n\t */\n\tevent MarketOrderCreated   (uint marketorderIdx);\n\tevent MarketOrderClosed    (uint marketorderIdx);\n\tevent MarketOrderAskConsume(uint marketorderIdx, address requester);\n\n\t/**\n\t * Constructor\n\t */\n\tfunction Marketplace(address _iexecHubAddress)\n\tIexecHubAccessor(_iexecHubAddress)\n\tpublic\n\t{\n\t}\n\n\t/**\n\t * Market orders\n\t */\n\tfunction createMarketOrder(\n\t\tIexecLib.MarketOrderDirectionEnum _direction,\n\t\tuint256 _category,\n\t\tuint256 _trust,\n\t\tuint256 _value,\n\t\taddress _workerpool,\n\t\tuint256 _volume)\n\tpublic returns (uint)\n\t{\n\t\trequire(iexecHubInterface.existingCategory(_category));\n\t\trequire(_volume >0);\n\t\tm_orderCount = m_orderCount.add(1);\n\t\tIexecLib.MarketOrder storage marketorder    = m_orderBook[m_orderCount];\n\t\tmarketorder.direction      = _direction;\n\t\tmarketorder.category       = _category;\n\t\tmarketorder.trust          = _trust;\n\t\tmarketorder.value          = _value;\n\t\tmarketorder.volume         = _volume;\n\t\tmarketorder.remaining      = _volume;\n\n\t\tif (_direction == IexecLib.MarketOrderDirectionEnum.ASK)\n\t\t{\n\t\t\trequire(WorkerPool(_workerpool).m_owner() == msg.sender);\n\n\t\t\trequire(iexecHubInterface.lockForOrder(msg.sender, _value.percentage(ASK_STAKE_RATIO).mul(_volume))); // mul must be done after percentage to avoid rounding errors\n\t\t\tmarketorder.workerpool      = _workerpool;\n\t\t\tmarketorder.workerpoolOwner = msg.sender;\n\t\t}\n\t\telse\n\t\t{\n\t\t\t// no BID implementation\n\t\t\trevert();\n\t\t}\n\t\temit MarketOrderCreated(m_orderCount);\n\t\treturn m_orderCount;\n\t}\n\n\tfunction closeMarketOrder(uint256 _marketorderIdx) public returns (bool)\n\t{\n\t\tIexecLib.MarketOrder storage marketorder = m_orderBook[_marketorderIdx];\n\t\tif (marketorder.direction == IexecLib.MarketOrderDirectionEnum.ASK)\n\t\t{\n\t\t\trequire(marketorder.workerpoolOwner == msg.sender);\n\t\t\trequire(iexecHubInterface.unlockForOrder(marketorder.workerpoolOwner, marketorder.value.percentage(ASK_STAKE_RATIO).mul(marketorder.remaining))); // mul must be done after percentage to avoid rounding errors\n\t\t}\n\t\telse\n\t\t{\n\t\t\t// no BID implementation\n\t\t\trevert();\n\t\t}\n\t\tmarketorder.direction = IexecLib.MarketOrderDirectionEnum.CLOSED;\n\t\temit MarketOrderClosed(_marketorderIdx);\n\t\treturn true;\n\t}\n\n\n\t/**\n\t * Assets consumption\n\t */\n\tfunction consumeMarketOrderAsk(\n\t\tuint256 _marketorderIdx,\n\t\taddress _requester,\n\t\taddress _workerpool)\n\tpublic onlyIexecHub returns (bool)\n\t{\n\t\tIexecLib.MarketOrder storage marketorder = m_orderBook[_marketorderIdx];\n\t\trequire(marketorder.direction  == IexecLib.MarketOrderDirectionEnum.ASK);\n\t\trequire(marketorder.remaining  >  0);\n\t\trequire(marketorder.workerpool == _workerpool);\n\n\t\tmarketorder.remaining = marketorder.remaining.sub(1);\n\t\tif (marketorder.remaining == 0)\n\t\t{\n\t\t\tmarketorder.direction = IexecLib.MarketOrderDirectionEnum.CLOSED;\n\t\t}\n\t\trequire(iexecHubInterface.lockForOrder(_requester, marketorder.value));\n\t\temit MarketOrderAskConsume(_marketorderIdx, _requester);\n\t\treturn true;\n\t}\n\n\tfunction existingMarketOrder(uint256 _marketorderIdx) public view  returns (bool marketOrderExist)\n\t{\n\t\treturn m_orderBook[_marketorderIdx].category > 0;\n\t}\n\n\t/**\n\t * Views\n\t */\n\tfunction getMarketOrderValue(uint256 _marketorderIdx) public view returns (uint256)\n\t{\n\t\trequire(existingMarketOrder(_marketorderIdx)); // no silent value returned\n\t\treturn m_orderBook[_marketorderIdx].value;\n\t}\n\tfunction getMarketOrderWorkerpoolOwner(uint256 _marketorderIdx) public view returns (address)\n\t{\n\t\trequire(existingMarketOrder(_marketorderIdx)); // no silent value returned\n\t\treturn m_orderBook[_marketorderIdx].workerpoolOwner;\n\t}\n\tfunction getMarketOrderCategory(uint256 _marketorderIdx) public view returns (uint256)\n\t{\n\t\trequire(existingMarketOrder(_marketorderIdx)); // no silent value returned\n\t\treturn m_orderBook[_marketorderIdx].category;\n\t}\n\tfunction getMarketOrderTrust(uint256 _marketorderIdx) public view returns (uint256)\n\t{\n\t\trequire(existingMarketOrder(_marketorderIdx)); // no silent value returned\n\t\treturn m_orderBook[_marketorderIdx].trust;\n\t}\n\tfunction getMarketOrder(uint256 _marketorderIdx) public view returns\n\t(\n\t\tIexecLib.MarketOrderDirectionEnum direction,\n\t\tuint256 category,       // runtime selection\n\t\tuint256 trust,          // for PoCo\n\t\tuint256 value,          // value/cost/price\n\t\tuint256 volume,         // quantity of instances (total)\n\t\tuint256 remaining,      // remaining instances\n\t\taddress workerpool,     // BID can use null for any\n\t\taddress workerpoolOwner)\n\t{\n\t\trequire(existingMarketOrder(_marketorderIdx)); // no silent value returned\n\t\tIexecLib.MarketOrder storage marketorder = m_orderBook[_marketorderIdx];\n\t\treturn (\n\t\t\tmarketorder.direction,\n\t\t\tmarketorder.category,\n\t\t\tmarketorder.trust,\n\t\t\tmarketorder.value,\n\t\t\tmarketorder.volume,\n\t\t\tmarketorder.remaining,\n\t\t\tmarketorder.workerpool,\n\t\t\tmarketorder.workerpoolOwner\n\t\t);\n\t}\n\n\t/**\n\t * Callback Proof managment\n\t */\n\n\tevent WorkOrderCallbackProof(address indexed woid, address requester, address beneficiary,address indexed callbackTo, address indexed gasCallbackProvider,string stdout, string stderr , string uri);\n\n\t//mapping(workorder => bool)\n\t mapping(address => bool) m_callbackDone;\n\n\t function isCallbackDone(address _woid) public view  returns (bool callbackDone)\n\t {\n\t\t return m_callbackDone[_woid];\n\t }\n\n\t function workOrderCallback(address _woid,string _stdout, string _stderr, string _uri) public\n\t {\n\t\t require(iexecHubInterface.isWoidRegistred(_woid));\n\t\t require(!isCallbackDone(_woid));\n\t\t m_callbackDone[_woid] = true;\n\t\t require(WorkOrder(_woid).m_status() == IexecLib.WorkOrderStatusEnum.COMPLETED);\n\t\t require(WorkOrder(_woid).m_resultCallbackProof() == keccak256(_stdout,_stderr,_uri));\n\t\t address callbackTo =WorkOrder(_woid).m_callback();\n\t\t require(callbackTo != address(0));\n\t\t require(IexecCallbackInterface(callbackTo).workOrderCallback(\n\t\t\t _woid,\n\t\t\t _stdout,\n\t\t\t _stderr,\n\t\t\t _uri\n\t\t ));\n\t\t emit WorkOrderCallbackProof(_woid,WorkOrder(_woid).m_requester(),WorkOrder(_woid).m_beneficiary(),callbackTo,tx.origin,_stdout,_stderr,_uri);\n\t }\n\n}\n",
  "sourcePath": "/Users/fbranci/iexecdev/PoCo/contracts/Marketplace.sol",
  "compiler": {
    "name": "solc",
    "version": "0.4.21+commit.dfe3193c.Emscripten.clang"
  },
  "schemaVersion": "2.0.0",
  "updatedAt": "2018-05-18T16:31:51.291Z"
}