{
  "contractName": "Marketplace",
  "abi": [
    {
      "constant": true,
      "inputs": [],
      "name": "ASK_STAKE_RATIO",
      "outputs": [
        {
          "name": "",
          "type": "uint256"
        }
      ],
      "payable": false,
      "stateMutability": "view",
      "type": "function"
    },
    {
      "constant": true,
      "inputs": [
        {
          "name": "",
          "type": "bytes32"
        }
      ],
      "name": "m_consumed",
      "outputs": [
        {
          "name": "",
          "type": "uint256"
        }
      ],
      "payable": false,
      "stateMutability": "view",
      "type": "function"
    },
    {
      "inputs": [
        {
          "name": "_iexecHubAddress",
          "type": "address"
        }
      ],
      "payable": false,
      "stateMutability": "nonpayable",
      "type": "constructor"
    },
    {
      "anonymous": false,
      "inputs": [
        {
          "indexed": false,
          "name": "poolHash",
          "type": "bytes32"
        },
        {
          "indexed": false,
          "name": "userHash",
          "type": "bytes32"
        }
      ],
      "name": "MarketMatched",
      "type": "event"
    },
    {
      "anonymous": false,
      "inputs": [
        {
          "indexed": false,
          "name": "poolHash",
          "type": "bytes32"
        }
      ],
      "name": "MarketClosedPool",
      "type": "event"
    },
    {
      "anonymous": false,
      "inputs": [
        {
          "indexed": false,
          "name": "userHash",
          "type": "bytes32"
        }
      ],
      "name": "MarketClosedUser",
      "type": "event"
    },
    {
      "constant": true,
      "inputs": [
        {
          "name": "signer",
          "type": "address"
        },
        {
          "name": "hash",
          "type": "bytes32"
        },
        {
          "name": "v",
          "type": "uint8"
        },
        {
          "name": "r",
          "type": "bytes32"
        },
        {
          "name": "s",
          "type": "bytes32"
        }
      ],
      "name": "isValidSignature",
      "outputs": [
        {
          "name": "",
          "type": "bool"
        }
      ],
      "payable": false,
      "stateMutability": "pure",
      "type": "function"
    },
    {
      "constant": true,
      "inputs": [
        {
          "name": "_commonOrder",
          "type": "uint256[3]"
        },
        {
          "name": "_poolOrder_volume",
          "type": "uint256"
        },
        {
          "name": "_poolOrder_workerpool",
          "type": "address"
        },
        {
          "name": "_poolOrder_salt",
          "type": "uint256"
        }
      ],
      "name": "getPoolOrderHash",
      "outputs": [
        {
          "name": "",
          "type": "bytes32"
        }
      ],
      "payable": false,
      "stateMutability": "view",
      "type": "function"
    },
    {
      "constant": true,
      "inputs": [
        {
          "name": "_commonOrder",
          "type": "uint256[3]"
        },
        {
          "name": "_userOrder",
          "type": "address[5]"
        },
        {
          "name": "_userOrder_params",
          "type": "string"
        },
        {
          "name": "_userOrder_salt",
          "type": "uint256"
        }
      ],
      "name": "getUserOrderHash",
      "outputs": [
        {
          "name": "",
          "type": "bytes32"
        }
      ],
      "payable": false,
      "stateMutability": "view",
      "type": "function"
    },
    {
      "constant": false,
      "inputs": [
        {
          "name": "_commonOrder",
          "type": "uint256[3]"
        },
        {
          "name": "_poolOrder_volume",
          "type": "uint256"
        },
        {
          "name": "_poolOrder_workerpool",
          "type": "address"
        },
        {
          "name": "_userOrder",
          "type": "address[5]"
        },
        {
          "name": "_userOrder_params",
          "type": "string"
        },
        {
          "name": "_salt",
          "type": "uint256[2]"
        },
        {
          "name": "_v",
          "type": "uint8[2]"
        },
        {
          "name": "_r",
          "type": "bytes32[2]"
        },
        {
          "name": "_s",
          "type": "bytes32[2]"
        }
      ],
      "name": "matchOrders",
      "outputs": [
        {
          "name": "",
          "type": "bool"
        }
      ],
      "payable": false,
      "stateMutability": "nonpayable",
      "type": "function"
    },
    {
      "constant": false,
      "inputs": [
        {
          "name": "_commonOrder",
          "type": "uint256[3]"
        },
        {
          "name": "_poolOrder_volume",
          "type": "uint256"
        },
        {
          "name": "_poolOrder_workerpool",
          "type": "address"
        },
        {
          "name": "_salt",
          "type": "uint256"
        },
        {
          "name": "_v",
          "type": "uint8"
        },
        {
          "name": "_r",
          "type": "bytes32"
        },
        {
          "name": "_s",
          "type": "bytes32"
        }
      ],
      "name": "cancelPoolMarket",
      "outputs": [
        {
          "name": "",
          "type": "bool"
        }
      ],
      "payable": false,
      "stateMutability": "nonpayable",
      "type": "function"
    },
    {
      "constant": false,
      "inputs": [
        {
          "name": "_commonOrder",
          "type": "uint256[3]"
        },
        {
          "name": "_userOrder",
          "type": "address[5]"
        },
        {
          "name": "_userOrder_params",
          "type": "string"
        },
        {
          "name": "_salt",
          "type": "uint256"
        },
        {
          "name": "_v",
          "type": "uint8"
        },
        {
          "name": "_r",
          "type": "bytes32"
        },
        {
          "name": "_s",
          "type": "bytes32"
        }
      ],
      "name": "cancelUserMarket",
      "outputs": [
        {
          "name": "",
          "type": "bool"
        }
      ],
      "payable": false,
      "stateMutability": "nonpayable",
      "type": "function"
    }
  ],
  "bytecode": "0x6060604052341561000f57600080fd5b604051602080610dfe833981016040528080519150819050600160a060020a038116151561003c57600080fd5b60008054600160a060020a03909216600160a060020a031992831681179091556001805490921617905550610d88806100766000396000f3006060604052600436106100745763ffffffff60e060020a600035041663341c395b811461007957806339ed6c541461012c578063477498a7146101f5578063493cd64b146102575780636b14ea36146103bb5780638163681e146103ce578063959f6ed0146103fc578063e3035ace1461044b575b600080fd5b341561008457600080fd5b61011a60046064816003606060405190810160405291908282606080828437820191505050505091908060a001906005806020026040519081016040529190828260a0808284375093959460208082019550903586018082019450359250829150601f82018190048102016040519081016040528181529291906020840183838082843750949650509335935061046192505050565b60405190815260200160405180910390f35b341561013757600080fd5b6101e160046064816003606060405190810160405291908282606080828437820191505050505091908060a001906005806020026040519081016040529190828260a0808284375093959460208082019550903586018082019450359250829150601f820181900481020160405190810160405281815292919060208401838380828437509496505084359460ff6020820135169450604081013593506060013591506105619050565b604051901515815260200160405180910390f35b341561020057600080fd5b6101e1600460648160036060604051908101604052919082826060808284375093955050833593600160a060020a0360208201351693506040810135925060ff606082013516915060808101359060a00135610604565b341561026257600080fd5b6101e160046064816003606060405190810160405291908282606080828437509395853595600160a060020a03602082013516955090935060e0810192506040908101915060059060a090519081016040529190828260a0808284375093959460208082019550903586018082019450359250829150601f820181900481020160405190810160405281815292919060208401838380828437820191505050505050919080604001906002806020026040519081016040528092919082600260200280828437820191505050505091908060400190600280602002604051908101604052809291908260026020028082843782019150505050509190806040019060028060200260405190810160405280929190826002602002808284378201915050505050919080604001906002806020026040519081016040528092919082600260200280828437509395506106f5945050505050565b34156103c657600080fd5b61011a610af5565b34156103d957600080fd5b6101e1600160a060020a036004351660243560ff60443516606435608435610afa565b341561040757600080fd5b61011a600460648160036060604051908101604052919082826060808284375093955050833593600160a060020a036020820135169350604001359150610bb59050565b341561045657600080fd5b61011a600435610c2f565b6000308551602087015160408801518751602089015160408a015160608b015160808c01518b8b6040516c01000000000000000000000000600160a060020a03808e1682028352601483018d9052603483018c9052605483018b905289811682026074840152888116820260888401528781168202609c840152868116820260b084015285160260c482015260d8810183805190602001908083835b6020831061051c5780518252601f1990920191602091820191016104fd565b6001836020036101000a038019825116818451161790925250505091909101928352505060200199506040985050505050505050505180910390209050949350505050565b6000806080880151600160a060020a031633600160a060020a031614151561058857600080fd5b61059489898989610461565b90506105a33382878787610afa565b15156105ae57600080fd5b60008181526002602052604090819020600190557fb430faa6cb2a785af83f93ff88c07c4d78e12b128f17e91b48a597699698db689082905190815260200160405180910390a150600198975050505050505050565b60008086600160a060020a031663deff41c16040518163ffffffff1660e060020a028152600401602060405180830381600087803b151561064457600080fd5b5af1151561065157600080fd5b50505060405180519050600160a060020a031633600160a060020a031614151561067a57600080fd5b61068689898989610bb5565b90506106953382878787610afa565b15156106a057600080fd5b600081815260026020526040908190208990557f208c3606f89bcd64a88ce245f90b0bdd60d67fb545fac8e2df8aed4a69c79a119082905190815260200160405180910390a150600198975050505050505050565b60006106ff610ccf565b60008054819033600160a060020a0390811691161461071d57600080fd5b6101c0604051908101604052808e5181526020018e60016020020151815260200160408f015181526020018d81526020018c600160a060020a031681526020018c600160a060020a031663deff41c16040518163ffffffff1660e060020a028152600401602060405180830381600087803b151561079a57600080fd5b5af115156107a757600080fd5b5050506040518051600160a060020a0316825250602001895181526020018b51600160a060020a031681526020018b60016020020151600160a060020a0316815260200160408c0151600160a060020a0316815260200160608c0151600160a060020a0316815260200160808c0151600160a060020a03168152602081018b90526040018960016020020151905292506108448d8d8d8b51610bb5565b91506108568d8b8b60208c0151610461565b90506108738360a0015183895189518960005b6020020151610afa565b151561087e57600080fd5b61089a8361016001518260208a015160208a0151896001610869565b15156108a557600080fd5b600154600160a060020a03166332baa8d9845160405160e060020a63ffffffff84160281526004810191909152602401602060405180830381600087803b15156108ee57600080fd5b5af115156108fb57600080fd5b50505060405180519050151561091057600080fd5b82606001516000838152600260205260409020541061092e57600080fd5b6000818152600260205260409020541561094757600080fd5b60008281526002602052604090205461096790600163ffffffff610c4116565b600083815260026020526040808220929092558281522060019081905554600160a060020a031663ac26109e60a08501516109c286606001516109b6601e89604001519063ffffffff610c5b16565b9063ffffffff610c7016565b60405160e060020a63ffffffff8516028152600160a060020a0390921660048301526024820152604401602060405180830381600087803b1515610a0557600080fd5b5af11515610a1257600080fd5b505050604051805190501515610a2757600080fd5b600154600160a060020a031663ac26109e610160850151856040015160405160e060020a63ffffffff8516028152600160a060020a0390921660048301526024820152604401602060405180830381600087803b1515610a8657600080fd5b5af11515610a9357600080fd5b505050604051805190501515610aa857600080fd5b7fd6604e95b4420d05caba7b08f2b6a1be98c8b9187d010079c26e49887762ef68828260405191825260208201526040908101905180910390a15060019c9b505050505050505050505050565b601e81565b60006001856040517f19457468657265756d205369676e6564204d6573736167653a0a3332000000008152601c810191909152603c0160405180910390208585856040516000815260200160405260405193845260ff9092166020808501919091526040808501929092526060840192909252608090920191516020810390808403906000865af11515610b8d57600080fd5b505060206040510351600160a060020a031686600160a060020a031614905095945050505050565b6000308551602087015160408801518787876040516c01000000000000000000000000600160a060020a03988916810282526014820197909752603481019590955260548501939093526074840191909152909316909102609482015260a881019190915260c80160405180910390209050949350505050565b60026020526000908152604090205481565b600082820183811015610c5057fe5b8091505b5092915050565b6000610c6983836064610c9b565b9392505050565b600080831515610c835760009150610c54565b50828202828482811515610c9357fe5b0414610c5057fe5b6000610cb0610caa8585610c70565b83610cb8565b949350505050565b6000808284811515610cc657fe5b04949350505050565b6101c06040519081016040908152600080835260208301819052908201819052606082018190526080820181905260a0820181905260c0820181905260e082018190526101008201819052610120820181905261014082018190526101608201526101808101610d3d610d4a565b8152602001600081525090565b602060405190810160405260008152905600a165627a7a7230582000c6f87397798107583495bc9e0dd3c489b78490b2f3179a541e77496cc560e80029",
  "source": "pragma solidity ^0.4.18;\n/* import './IexecLib.sol'; */\nimport './IexecHubAccessor.sol';\nimport './WorkerPool.sol';\nimport \"./SafeMathOZ.sol\";\n\ncontract Marketplace is IexecHubAccessor\n{\n\tusing SafeMathOZ for uint256;\n\n\t/**\n\t * Marketplace\n\t */\n\t// IexecLib.MarketMatching[]   public m_matchings;\n\tmapping(bytes32 => uint256) public m_consumed;\n\n\tuint256 public constant ASK_STAKE_RATIO = 30;\n\n\t/**\n\t * Events\n\t */\n\tevent MarketMatched   (bytes32 poolHash, bytes32 userHash);\n\tevent MarketClosedPool(bytes32 poolHash);\n\tevent MarketClosedUser(bytes32 userHash);\n\n\t/* event MarketOrderCancel(bytes32 hash, ); */\n\t/* event MarketOrderDeal  (bytes32 hash, ); */\n\n\t/**\n\t * Constructor\n\t */\n\tfunction Marketplace(address _iexecHubAddress)\n\tIexecHubAccessor(_iexecHubAddress)\n\tpublic\n\t{\n\t}\n\n\tfunction isValidSignature(\n\t\taddress signer,\n\t\tbytes32 hash,\n\t\tuint8   v,\n\t\tbytes32 r,\n\t\tbytes32 s)\n\tpublic pure returns (bool)\n\t{\n\t\treturn signer == ecrecover(keccak256(\"\\x19Ethereum Signed Message:\\n32\", hash), v, r, s);\n\t}\n\n\tfunction getPoolOrderHash(\n\t\t/********** Order settings **********/\n\t\tuint256[3] _commonOrder,\n\t\t/* uint256 _commonOrder_category, */\n\t\t/* uint256 _commonOrder_trust, */\n\t\t/* uint256 _commonOrder_value, */\n\t\t/********** Pool settings **********/\n\t\tuint256 _poolOrder_volume,\n\t\taddress _poolOrder_workerpool,\n\t\tuint256 _poolOrder_salt)\n\tpublic view returns (bytes32)\n\t{\n\t\treturn keccak256(\n\t\t\taddress(this),\n\t\t\t_commonOrder[0],\n\t\t\t_commonOrder[1],\n\t\t\t_commonOrder[2],\n\t\t\t_poolOrder_volume,\n\t\t\t_poolOrder_workerpool,\n\t\t\t_poolOrder_salt);\n\t}\n\n\tfunction getUserOrderHash(\n\t\t/********** Order settings **********/\n\t\tuint256[3] _commonOrder,\n\t\t/* uint256 _commonOrder_category, */\n\t\t/* uint256 _commonOrder_trust, */\n\t\t/* uint256 _commonOrder_value, */\n\t\t/********** User settings **********/\n\t\taddress[5] _userOrder,\n\t\t/* address _userOrder_app, */\n\t\t/* address _userOrder_dataset, */\n\t\t/* address _userOrder_callback, */\n\t\t/* address _userOrder_beneficiary, */\n\t\t/* address _userOrder_requester, */\n\t\tstring  _userOrder_params,\n\t\tuint256 _userOrder_salt)\n\tpublic view returns (bytes32)\n\t{\n\t\treturn keccak256(\n\t\t\taddress(this),\n\t\t\t_commonOrder[0],   // category\n\t\t\t_commonOrder[1],   // trust\n\t\t\t_commonOrder[2],   // value\n\t\t\t_userOrder[0],     // app\n\t\t\t_userOrder[1],     // dataset\n\t\t\t_userOrder[2],     // callback\n\t\t\t_userOrder[3],     // beneficiary\n\t\t\t_userOrder[4],     // requester\n\t\t\t_userOrder_params, // params\n\t\t\t_userOrder_salt    // salt\n\t\t);\n\t}\n\n\t/**\n\t * Deal on Market\n\t */\n\tfunction matchOrders(\n\t\t/********** Order settings **********/\n\t\tuint256[3] _commonOrder,\n\t\t/* uint256 _commonOrder_category, */\n\t\t/* uint256 _commonOrder_trust, */\n\t\t/* uint256 _commonOrder_value, */\n\t\t/********** Pool settings **********/\n\t\tuint256 _poolOrder_volume,\n\t\taddress _poolOrder_workerpool,\n\t\t/********** User settings **********/\n\t\taddress[5] _userOrder,\n\t\t/* address _userOrder_app, */\n\t\t/* address _userOrder_dataset, */\n\t\t/* address _userOrder_callback, */\n\t\t/* address _userOrder_beneficiary, */\n\t\t/* address _userOrder_requester, */\n\t\tstring  _userOrder_params,\n\t\t/********** Signatures **********/\n\t\tuint256[2] _salt,\n\t\tuint8[2]   _v,\n\t\tbytes32[2] _r,\n\t\tbytes32[2] _s)\n\tpublic onlyIexecHub returns (bool)\n\t{\n\t\tIexecLib.MarketMatching memory matching = IexecLib.MarketMatching({\n\t\t\tcommon_category:      _commonOrder[0],\n\t\t\tcommon_trust:         _commonOrder[1],\n\t\t\tcommon_value:         _commonOrder[2],\n\t\t\tpool_volume:          _poolOrder_volume,\n\t\t\tpool_workerpool:      _poolOrder_workerpool,\n\t\t\tpool_workerpoolOwner: WorkerPool(_poolOrder_workerpool).m_owner(),\n\t\t\tpool_salt:            _salt[0],\n\t\t\tuser_app:             _userOrder[0],\n\t\t\tuser_dataset:         _userOrder[1],\n\t\t\tuser_callback:        _userOrder[2],\n\t\t\tuser_beneficiary:     _userOrder[3],\n\t\t\tuser_requester:       _userOrder[4],\n\t\t\tuser_params:          _userOrder_params,\n\t\t\tuser_salt:            _salt[1]\n\t\t});\n\n\t\tbytes32 poolHash = getPoolOrderHash(_commonOrder, _poolOrder_volume, _poolOrder_workerpool, _salt[0]);\n\t\tbytes32 userHash = getUserOrderHash(_commonOrder, _userOrder, _userOrder_params, _salt[1]);\n\n\t\t// Check signatures\n\t\trequire(isValidSignature(matching.pool_workerpoolOwner, poolHash, _v[0], _r[0], _s[0]));\n\t\trequire(isValidSignature(matching.user_requester,       userHash, _v[1], _r[1], _s[1]));\n\n\t\trequire(iexecHubInterface.existingCategory(matching.common_category));\n\n\t\t// check consumption\n\t\trequire(m_consumed[poolHash] <  matching.pool_volume);\n\t\trequire(m_consumed[userHash] == 0);\n\t\tm_consumed[poolHash] = m_consumed[poolHash].add(1);\n\t\tm_consumed[userHash] = 1;\n\n\t\t// Lock\n\t\trequire(iexecHubInterface.lockForOrder(matching.pool_workerpoolOwner, matching.common_value.percentage(ASK_STAKE_RATIO).mul(matching.pool_volume))); // mul must be done after percentage to avoid rounding errors\n\t\trequire(iexecHubInterface.lockForOrder(matching.user_requester,       matching.common_value)); // Lock funds for app + dataset payment\n\n\t\temit MarketMatched(poolHash, userHash);\n\t\treturn true;\n\t}\n\n\n\n\n\n\n\n\tfunction cancelPoolMarket(\n\t\t/********** Order settings **********/\n\t\tuint256[3] _commonOrder,\n\t\t/* uint256 _commonOrder_category, */\n\t\t/* uint256 _commonOrder_trust, */\n\t\t/* uint256 _commonOrder_value, */\n\t\t/********** Pool settings **********/\n\t\tuint256 _poolOrder_volume,\n\t\taddress _poolOrder_workerpool,\n\t\t/********** Signature **********/\n\t\tuint256 _salt,\n\t\tuint8   _v,\n\t\tbytes32 _r,\n\t\tbytes32 _s)\n\tpublic returns (bool)\n\t{\n\t\t// msg.sender = workerpoolOwner\n\t\trequire(msg.sender == WorkerPool(_poolOrder_workerpool).m_owner());\n\n\t\t// compute hashs & check signatures\n\t\tbytes32 poolHash = getPoolOrderHash(_commonOrder, _poolOrder_volume, _poolOrder_workerpool, _salt);\n\t\trequire(isValidSignature(msg.sender, poolHash, _v, _r, _s));\n\n\t\tm_consumed[poolHash] = _poolOrder_volume;\n\n\t\temit MarketClosedPool(poolHash);\n\t\treturn true;\n\t}\n\n\tfunction cancelUserMarket(\n\t\t/********** Order settings **********/\n\t\tuint256[3] _commonOrder,\n\t\t/* uint256 _commonOrder_category, */\n\t\t/* uint256 _commonOrder_trust, */\n\t\t/* uint256 _commonOrder_value, */\n\t\t/********** User settings **********/\n\t\taddress[5] _userOrder,\n\t\t/* address _userOrder_app, */\n\t\t/* address _userOrder_dataset, */\n\t\t/* address _userOrder_callback, */\n\t\t/* address _userOrder_beneficiary, */\n\t\t/* address _userOrder_requester, */\n\t\tstring  _userOrder_params,\n\t\t/********** Signature **********/\n\t\tuint256 _salt,\n\t\tuint8   _v,\n\t\tbytes32 _r,\n\t\tbytes32 _s)\n\tpublic returns (bool)\n\t{\n\t\t// msg.sender = requester\n\t\trequire(msg.sender == _userOrder[4]);\n\n\t\t// compute hashs & check signatures\n\t\tbytes32 userHash = getUserOrderHash(_commonOrder, _userOrder, _userOrder_params, _salt);\n\t\trequire(isValidSignature(msg.sender, userHash, _v, _r, _s));\n\n\t\tm_consumed[userHash] = 1;\n\n\t\temit MarketClosedUser(userHash);\n\t\treturn true;\n\t}\n\n}\n",
  "sourcePath": "/home/amxx/Work/iExec/PoCo-dev/contracts/Marketplace.sol",
  "compiler": {
    "name": "solc",
    "version": "0.4.21+commit.dfe3193c.Emscripten.clang"
  },
  "schemaVersion": "2.0.0",
  "updatedAt": "2018-04-18T19:16:34.340Z"
}