{
  "contractName": "Marketplace",
  "abi": [
    {
      "constant": true,
      "inputs": [
        {
          "name": "",
          "type": "uint256"
        }
      ],
      "name": "m_orderBook",
      "outputs": [
        {
          "name": "direction",
          "type": "uint8"
        },
        {
          "name": "category",
          "type": "uint256"
        },
        {
          "name": "trust",
          "type": "uint256"
        },
        {
          "name": "value",
          "type": "uint256"
        },
        {
          "name": "volume",
          "type": "uint256"
        },
        {
          "name": "remaining",
          "type": "uint256"
        },
        {
          "name": "workerpool",
          "type": "address"
        },
        {
          "name": "workerpoolOwner",
          "type": "address"
        }
      ],
      "payable": false,
      "stateMutability": "view",
      "type": "function"
    },
    {
      "constant": true,
      "inputs": [],
      "name": "m_orderCount",
      "outputs": [
        {
          "name": "",
          "type": "uint256"
        }
      ],
      "payable": false,
      "stateMutability": "view",
      "type": "function"
    },
    {
      "constant": true,
      "inputs": [],
      "name": "ASK_STAKE_RATIO",
      "outputs": [
        {
          "name": "",
          "type": "uint256"
        }
      ],
      "payable": false,
      "stateMutability": "view",
      "type": "function"
    },
    {
      "inputs": [
        {
          "name": "_iexecHubAddress",
          "type": "address"
        }
      ],
      "payable": false,
      "stateMutability": "nonpayable",
      "type": "constructor"
    },
    {
      "anonymous": false,
      "inputs": [
        {
          "indexed": false,
          "name": "marketorderIdx",
          "type": "uint256"
        }
      ],
      "name": "MarketOrderCreated",
      "type": "event"
    },
    {
      "anonymous": false,
      "inputs": [
        {
          "indexed": false,
          "name": "marketorderIdx",
          "type": "uint256"
        }
      ],
      "name": "MarketOrderClosed",
      "type": "event"
    },
    {
      "anonymous": false,
      "inputs": [
        {
          "indexed": false,
          "name": "marketorderIdx",
          "type": "uint256"
        },
        {
          "indexed": false,
          "name": "requester",
          "type": "address"
        }
      ],
      "name": "MarketOrderAskConsume",
      "type": "event"
    },
    {
      "constant": false,
      "inputs": [
        {
          "name": "_direction",
          "type": "uint8"
        },
        {
          "name": "_category",
          "type": "uint256"
        },
        {
          "name": "_trust",
          "type": "uint256"
        },
        {
          "name": "_value",
          "type": "uint256"
        },
        {
          "name": "_workerpool",
          "type": "address"
        },
        {
          "name": "_volume",
          "type": "uint256"
        }
      ],
      "name": "createMarketOrder",
      "outputs": [
        {
          "name": "",
          "type": "uint256"
        }
      ],
      "payable": false,
      "stateMutability": "nonpayable",
      "type": "function"
    },
    {
      "constant": false,
      "inputs": [
        {
          "name": "_marketorderIdx",
          "type": "uint256"
        }
      ],
      "name": "closeMarketOrder",
      "outputs": [
        {
          "name": "",
          "type": "bool"
        }
      ],
      "payable": false,
      "stateMutability": "nonpayable",
      "type": "function"
    },
    {
      "constant": false,
      "inputs": [
        {
          "name": "_marketorderIdx",
          "type": "uint256"
        },
        {
          "name": "_requester",
          "type": "address"
        },
        {
          "name": "_workerpool",
          "type": "address"
        }
      ],
      "name": "consumeMarketOrderAsk",
      "outputs": [
        {
          "name": "",
          "type": "bool"
        }
      ],
      "payable": false,
      "stateMutability": "nonpayable",
      "type": "function"
    },
    {
      "constant": true,
      "inputs": [
        {
          "name": "_marketorderIdx",
          "type": "uint256"
        }
      ],
      "name": "existingMarketOrder",
      "outputs": [
        {
          "name": "marketOrderExist",
          "type": "bool"
        }
      ],
      "payable": false,
      "stateMutability": "view",
      "type": "function"
    },
    {
      "constant": true,
      "inputs": [
        {
          "name": "_marketorderIdx",
          "type": "uint256"
        }
      ],
      "name": "getMarketOrderValue",
      "outputs": [
        {
          "name": "",
          "type": "uint256"
        }
      ],
      "payable": false,
      "stateMutability": "view",
      "type": "function"
    },
    {
      "constant": true,
      "inputs": [
        {
          "name": "_marketorderIdx",
          "type": "uint256"
        }
      ],
      "name": "getMarketOrderWorkerpoolOwner",
      "outputs": [
        {
          "name": "",
          "type": "address"
        }
      ],
      "payable": false,
      "stateMutability": "view",
      "type": "function"
    },
    {
      "constant": true,
      "inputs": [
        {
          "name": "_marketorderIdx",
          "type": "uint256"
        }
      ],
      "name": "getMarketOrderCategory",
      "outputs": [
        {
          "name": "",
          "type": "uint256"
        }
      ],
      "payable": false,
      "stateMutability": "view",
      "type": "function"
    },
    {
      "constant": true,
      "inputs": [
        {
          "name": "_marketorderIdx",
          "type": "uint256"
        }
      ],
      "name": "getMarketOrderTrust",
      "outputs": [
        {
          "name": "",
          "type": "uint256"
        }
      ],
      "payable": false,
      "stateMutability": "view",
      "type": "function"
    },
    {
      "constant": true,
      "inputs": [
        {
          "name": "_marketorderIdx",
          "type": "uint256"
        }
      ],
      "name": "getMarketOrder",
      "outputs": [
        {
          "name": "direction",
          "type": "uint8"
        },
        {
          "name": "category",
          "type": "uint256"
        },
        {
          "name": "trust",
          "type": "uint256"
        },
        {
          "name": "value",
          "type": "uint256"
        },
        {
          "name": "volume",
          "type": "uint256"
        },
        {
          "name": "remaining",
          "type": "uint256"
        },
        {
          "name": "workerpool",
          "type": "address"
        },
        {
          "name": "workerpoolOwner",
          "type": "address"
        }
      ],
      "payable": false,
      "stateMutability": "view",
      "type": "function"
    }
  ],
  "bytecode": "0x6060604052341561000f57600080fd5b604051602080610a97833981016040528080519150819050600160a060020a038116151561003c57600080fd5b60008054600160a060020a03909216600160a060020a031992831681179091556001805490921617905550610a21806100766000396000f3006060604052600436106100a05763ffffffff60e060020a60003504166302a63c2881146100a557806324026bfb146100e1578063270a8ef71461010957806338c4090b1461011f5780633ab67956146101355780634cfddcfb146101ac57806355d66c3e146101c257806360f75f3b146101f457806369c7c1801461020a5780636b14ea361461021d578063ea0b259014610230578063eb3721be14610261575b600080fd5b34156100b057600080fd5b6100cd600435600160a060020a0360243581169060443516610277565b604051901515815260200160405180910390f35b34156100ec57600080fd5b6100f76004356103ec565b60405190815260200160405180910390f35b341561011457600080fd5b6100cd600435610418565b341561012a57600080fd5b6100f760043561042e565b341561014057600080fd5b61014b60043561045b565b6040518089600381111561015b57fe5b60ff1681526020810198909852506040808801969096526060870194909452608086019290925260a0850152600160a060020a0390811660c08501521660e083015261010090910191505180910390f35b34156101b757600080fd5b6100f76004356104b1565b34156101cd57600080fd5b6101d86004356104dd565b604051600160a060020a03909116815260200160405180910390f35b34156101ff57600080fd5b6100cd600435610512565b341561021557600080fd5b6100f7610648565b341561022857600080fd5b6100f761064e565b341561023b57600080fd5b6100f760ff60043516602435604435606435600160a060020a036084351660a435610653565b341561026c57600080fd5b61014b6004356108d5565b60008054819033600160a060020a0390811691161461029557600080fd5b5060008481526003602052604090206002815460ff1660038111156102b657fe5b146102c057600080fd5b6005810154600090116102d257600080fd5b6006810154600160a060020a038481169116146102ee57600080fd5b600581015461030490600163ffffffff61095516565b60058201819055151561031d57805460ff191660031781555b6001546003820154600160a060020a039091169063ac26109e90869060405160e060020a63ffffffff8516028152600160a060020a0390921660048301526024820152604401602060405180830381600087803b151561037c57600080fd5b5af1151561038957600080fd5b50505060405180519050151561039e57600080fd5b7fe15b7f1dd90867f2f9084033184322ae15a1572828d3d2a5a2dca5f6038332ba8585604051918252600160a060020a031660208201526040908101905180910390a1506001949350505050565b60006103f782610418565b151561040257600080fd5b5060009081526003602052604090206002015490565b6000908152600360205260408120600101541190565b600061043982610418565b151561044457600080fd5b506000908152600360208190526040909120015490565b60036020819052600091825260409091208054600182015460028301549383015460048401546005850154600686015460079096015460ff9095169693959394929391929091600160a060020a03908116911688565b60006104bc82610418565b15156104c757600080fd5b5060009081526003602052604090206001015490565b60006104e882610418565b15156104f357600080fd5b50600090815260036020526040902060070154600160a060020a031690565b60008181526003602052604081206002815460ff16600381111561053257fe5b14156100a057600781015433600160a060020a0390811691161461055557600080fd5b600154600782015460058301546003840154600160a060020a039384169363b7b6e97893169161059c9161059090601e63ffffffff61096716565b9063ffffffff61097c16565b60405160e060020a63ffffffff8516028152600160a060020a0390921660048301526024820152604401602060405180830381600087803b15156105df57600080fd5b5af115156105ec57600080fd5b50505060405180519050151561060157600080fd5b805460ff191660031781557f9a05087bc2e92d4e31e031af3ffb9da7e4dffd4be5573811330541cc559315fe8360405190815260200160405180910390a150600192915050565b60025481565b601e81565b6001546000908190600160a060020a03166332baa8d98860405160e060020a63ffffffff84160281526004810191909152602401602060405180830381600087803b15156106a057600080fd5b5af115156106ad57600080fd5b5050506040518051905015156106c257600080fd5b600083116106cf57600080fd5b6002546106e390600163ffffffff6109b216565b6002819055600090815260036020819052604090912080549092508991839160ff191690600190849081111561071557fe5b021790555060018101879055600280820187905560038201869055600482018490556005820184905588600381111561074a57fe5b14156100a05733600160a060020a031684600160a060020a031663deff41c16040518163ffffffff1660e060020a028152600401602060405180830381600087803b151561079757600080fd5b5af115156107a457600080fd5b50505060405180519050600160a060020a03161415156107c357600080fd5b600154600160a060020a031663ac26109e336107ea866105908a601e63ffffffff61096716565b60405160e060020a63ffffffff8516028152600160a060020a0390921660048301526024820152604401602060405180830381600087803b151561082d57600080fd5b5af1151561083a57600080fd5b50505060405180519050151561084f57600080fd5b600681018054600160a060020a0380871673ffffffffffffffffffffffffffffffffffffffff199283161790925560078301805433909316929091169190911790557fb0be9c5566c7b426b2e5378a75c24af27818f33e0b6aa5ea6208562c144c98f160025460405190815260200160405180910390a150506002549695505050505050565b60008060008060008060008060006108ec8a610418565b15156108f757600080fd5b505050600096875250506003602081905260409095208054600182015460028301549783015460048401546005850154600686015460079096015460ff9095169b939a995091975095509350600160a060020a039283169290911690565b60008282111561096157fe5b50900390565b6000610975838360646109c1565b9392505050565b60008083151561098f57600091506109ab565b5082820282848281151561099f57fe5b04146109a757fe5b8091505b5092915050565b6000828201838110156109a757fe5b60006109d66109d0858561097c565b836109de565b949350505050565b60008082848115156109ec57fe5b049493505050505600a165627a7a72305820b5de7138f1918cc0e0c0729e89a3e080386e473f5ecf2f81ee41f2c477cefafb0029",
  "source": "pragma solidity ^0.4.21;\nimport './IexecLib.sol';\nimport './IexecHubAccessor.sol';\nimport './WorkerPool.sol';\nimport \"./SafeMathOZ.sol\";\n\ncontract Marketplace is IexecHubAccessor\n{\n\tusing SafeMathOZ for uint256;\n\n\t/**\n\t * Marketplace\n\t */\n\tuint                                 public m_orderCount;\n\tmapping(uint =>IexecLib.MarketOrder) public m_orderBook;\n\n\tuint256 public constant ASK_STAKE_RATIO  = 30;\n\n\t/**\n\t * Events\n\t */\n\tevent MarketOrderCreated   (uint marketorderIdx);\n\tevent MarketOrderClosed    (uint marketorderIdx);\n\tevent MarketOrderAskConsume(uint marketorderIdx, address requester);\n\n\n\t/**\n\t * Constructor\n\t */\n\tfunction Marketplace(address _iexecHubAddress)\n\tIexecHubAccessor(_iexecHubAddress)\n\tpublic\n\t{\n\t}\n\n\t/**\n\t * Market orders\n\t */\n\tfunction createMarketOrder(\n\t\tIexecLib.MarketOrderDirectionEnum _direction,\n\t\tuint256 _category,\n\t\tuint256 _trust,\n\t\tuint256 _value,\n\t\taddress _workerpool,\n\t\tuint256 _volume)\n\tpublic returns (uint)\n\t{\n\t\trequire(iexecHubInterface.existingCategory(_category));\n\t\trequire(_volume >0);\n\t\tm_orderCount = m_orderCount.add(1);\n\t\tIexecLib.MarketOrder storage marketorder    = m_orderBook[m_orderCount];\n\t\tmarketorder.direction      = _direction;\n\t\tmarketorder.category       = _category;\n\t\tmarketorder.trust          = _trust;\n\t\tmarketorder.value          = _value;\n\t\tmarketorder.volume         = _volume;\n\t\tmarketorder.remaining      = _volume;\n\n\t\tif (_direction == IexecLib.MarketOrderDirectionEnum.ASK)\n\t\t{\n\t\t\trequire(WorkerPool(_workerpool).m_owner() == msg.sender);\n\n\t\t\trequire(iexecHubInterface.lockForOrder(msg.sender, _value.percentage(ASK_STAKE_RATIO).mul(_volume))); // mul must be done after percentage to avoid rounding errors\n\t\t\tmarketorder.workerpool      = _workerpool;\n\t\t\tmarketorder.workerpoolOwner = msg.sender;\n\t\t}\n\t\telse\n\t\t{\n\t\t\t// no BID implementation\n\t\t\trevert();\n\t\t}\n\t\temit MarketOrderCreated(m_orderCount);\n\t\treturn m_orderCount;\n\t}\n\n\tfunction closeMarketOrder(uint256 _marketorderIdx) public returns (bool)\n\t{\n\t\tIexecLib.MarketOrder storage marketorder = m_orderBook[_marketorderIdx];\n\t\tif (marketorder.direction == IexecLib.MarketOrderDirectionEnum.ASK)\n\t\t{\n\t\t\trequire(marketorder.workerpoolOwner == msg.sender);\n\t\t\trequire(iexecHubInterface.unlockForOrder(marketorder.workerpoolOwner, marketorder.value.percentage(ASK_STAKE_RATIO).mul(marketorder.remaining))); // mul must be done after percentage to avoid rounding errors\n\t\t}\n\t\telse\n\t\t{\n\t\t\t// no BID implementation\n\t\t\trevert();\n\t\t}\n\t\tmarketorder.direction = IexecLib.MarketOrderDirectionEnum.CLOSED;\n\t\temit MarketOrderClosed(_marketorderIdx);\n\t\treturn true;\n\t}\n\n\n\t/**\n\t * Assets consumption\n\t */\n\tfunction consumeMarketOrderAsk(\n\t\tuint256 _marketorderIdx,\n\t\taddress _requester,\n\t\taddress _workerpool)\n\tpublic onlyIexecHub returns (bool)\n\t{\n\t\tIexecLib.MarketOrder storage marketorder = m_orderBook[_marketorderIdx];\n\t\trequire(marketorder.direction  == IexecLib.MarketOrderDirectionEnum.ASK);\n\t\trequire(marketorder.remaining  >  0);\n\t\trequire(marketorder.workerpool == _workerpool);\n\n\t\tmarketorder.remaining = marketorder.remaining.sub(1);\n\t\tif (marketorder.remaining == 0)\n\t\t{\n\t\t\tmarketorder.direction = IexecLib.MarketOrderDirectionEnum.CLOSED;\n\t\t}\n\t\trequire(iexecHubInterface.lockForOrder(_requester, marketorder.value));\n\t\temit MarketOrderAskConsume(_marketorderIdx, _requester);\n\t\treturn true;\n\t}\n\n\tfunction existingMarketOrder(uint256 _marketorderIdx) public view  returns (bool marketOrderExist)\n\t{\n\t\treturn m_orderBook[_marketorderIdx].category > 0;\n\t}\n\n\t/**\n\t * Views\n\t */\n\tfunction getMarketOrderValue(uint256 _marketorderIdx) public view returns (uint256)\n\t{\n\t\trequire(existingMarketOrder(_marketorderIdx)); // no silent value returned\n\t\treturn m_orderBook[_marketorderIdx].value;\n\t}\n\tfunction getMarketOrderWorkerpoolOwner(uint256 _marketorderIdx) public view returns (address)\n\t{\n\t\trequire(existingMarketOrder(_marketorderIdx)); // no silent value returned\n\t\treturn m_orderBook[_marketorderIdx].workerpoolOwner;\n\t}\n\tfunction getMarketOrderCategory(uint256 _marketorderIdx) public view returns (uint256)\n\t{\n\t\trequire(existingMarketOrder(_marketorderIdx)); // no silent value returned\n\t\treturn m_orderBook[_marketorderIdx].category;\n\t}\n\tfunction getMarketOrderTrust(uint256 _marketorderIdx) public view returns (uint256)\n\t{\n\t\trequire(existingMarketOrder(_marketorderIdx)); // no silent value returned\n\t\treturn m_orderBook[_marketorderIdx].trust;\n\t}\n\tfunction getMarketOrder(uint256 _marketorderIdx) public view returns\n\t(\n\t\tIexecLib.MarketOrderDirectionEnum direction,\n\t\tuint256 category,       // runtime selection\n\t\tuint256 trust,          // for PoCo\n\t\tuint256 value,          // value/cost/price\n\t\tuint256 volume,         // quantity of instances (total)\n\t\tuint256 remaining,      // remaining instances\n\t\taddress workerpool,     // BID can use null for any\n\t\taddress workerpoolOwner)\n\t{\n\t\trequire(existingMarketOrder(_marketorderIdx)); // no silent value returned\n\t\tIexecLib.MarketOrder storage marketorder = m_orderBook[_marketorderIdx];\n\t\treturn (\n\t\t\tmarketorder.direction,\n\t\t\tmarketorder.category,\n\t\t\tmarketorder.trust,\n\t\t\tmarketorder.value,\n\t\t\tmarketorder.volume,\n\t\t\tmarketorder.remaining,\n\t\t\tmarketorder.workerpool,\n\t\t\tmarketorder.workerpoolOwner\n\t\t);\n\t}\n\n}\n",
  "sourcePath": "/Users/fbranci/iexecdev/PoCo/contracts/Marketplace.sol",
  "compiler": {
    "name": "solc",
    "version": "0.4.21+commit.dfe3193c.Emscripten.clang"
  },
  "schemaVersion": "2.0.0",
  "updatedAt": "2018-04-12T19:19:29.265Z"
}