{
  "contractName": "OwnableOZ",
  "abi": [
    {
      "constant": true,
      "inputs": [],
      "name": "m_owner",
      "outputs": [
        {
          "name": "",
          "type": "address"
        }
      ],
      "payable": false,
      "stateMutability": "view",
      "type": "function"
    },
    {
      "constant": false,
      "inputs": [
        {
          "name": "_newOwner",
          "type": "address"
        }
      ],
      "name": "transferOwnership",
      "outputs": [],
      "payable": false,
      "stateMutability": "nonpayable",
      "type": "function"
    },
    {
      "inputs": [],
      "payable": false,
      "stateMutability": "nonpayable",
      "type": "constructor"
    },
    {
      "anonymous": false,
      "inputs": [
        {
          "indexed": true,
          "name": "previousOwner",
          "type": "address"
        },
        {
          "indexed": true,
          "name": "newOwner",
          "type": "address"
        }
      ],
      "name": "OwnershipTransferred",
      "type": "event"
    }
  ],
  "bytecode": "0x6060604052341561000f57600080fd5b336000806101000a81548173ffffffffffffffffffffffffffffffffffffffff021916908373ffffffffffffffffffffffffffffffffffffffff1602179055506102858061005e6000396000f30060606040526004361061004c576000357c0100000000000000000000000000000000000000000000000000000000900463ffffffff168063deff41c114610051578063f2fde38b146100a6575b600080fd5b341561005c57600080fd5b6100646100df565b604051808273ffffffffffffffffffffffffffffffffffffffff1673ffffffffffffffffffffffffffffffffffffffff16815260200191505060405180910390f35b34156100b157600080fd5b6100dd600480803573ffffffffffffffffffffffffffffffffffffffff16906020019091905050610104565b005b6000809054906101000a900473ffffffffffffffffffffffffffffffffffffffff1681565b6000809054906101000a900473ffffffffffffffffffffffffffffffffffffffff1673ffffffffffffffffffffffffffffffffffffffff163373ffffffffffffffffffffffffffffffffffffffff1614151561015f57600080fd5b600073ffffffffffffffffffffffffffffffffffffffff168173ffffffffffffffffffffffffffffffffffffffff161415151561019b57600080fd5b8073ffffffffffffffffffffffffffffffffffffffff166000809054906101000a900473ffffffffffffffffffffffffffffffffffffffff1673ffffffffffffffffffffffffffffffffffffffff167f8be0079c531659141344cd1fd0a4f28419497f9722a3daafe3b4186f6b6457e060405160405180910390a3806000806101000a81548173ffffffffffffffffffffffffffffffffffffffff021916908373ffffffffffffffffffffffffffffffffffffffff160217905550505600a165627a7a72305820072955a26b4527be2e526c115c41d00c395a5cc20a8e170df00876d72d7add2f0029",
  "source": "pragma solidity ^0.4.18;\n\n/**\n * @title Ownable\n * @dev The Ownable contract has an owner address, and provides basic authorization control\n * functions, this simplifies the implementation of \"user permissions\".\n */\ncontract OwnableOZ\n{\n\taddress public m_owner;\n\n\tevent OwnershipTransferred(address indexed previousOwner, address indexed newOwner);\n\n\t/**\n\t * @dev Throws if called by any account other than the owner.\n\t */\n\tmodifier onlyOwner()\n\t{\n\t\trequire(msg.sender == m_owner);\n\t\t_;\n\t}\n\n\t/**\n\t * @dev The Ownable constructor sets the original `owner` of the contract to the sender\n\t * account.\n\t */\n\tfunction OwnableOZ() public\n\t{\n\t\tm_owner = msg.sender;\n\t}\n\n\t/**\n\t * @dev Allows the current owner to transfer control of the contract to a newOwner.\n\t * @param _newOwner The address to transfer ownership to.\n\t */\n\tfunction transferOwnership(address _newOwner) public onlyOwner\n\t{\n\t\trequire(_newOwner != address(0));\n\t\tOwnershipTransferred(m_owner, _newOwner);\n\t\tm_owner = _newOwner;\n\t}\n\n}\n",
  "sourcePath": "/home/vagrant/iexecdev/PoCo/contracts/OwnableOZ.sol",
  "compiler": {
    "name": "solc",
    "version": "0.4.18+commit.9cf6e910.Emscripten.clang"
  },
  "schemaVersion": "1.0.1",
  "updatedAt": "2018-01-29T14:56:05.519Z"
}