{
  "contractName": "OwnableOZ",
  "abi": [
    {
      "constant": true,
      "inputs": [],
      "name": "changeable",
      "outputs": [
        {
          "name": "",
          "type": "bool"
        }
      ],
      "payable": false,
      "stateMutability": "view",
      "type": "function"
    },
    {
      "constant": true,
      "inputs": [],
      "name": "m_owner",
      "outputs": [
        {
          "name": "",
          "type": "address"
        }
      ],
      "payable": false,
      "stateMutability": "view",
      "type": "function"
    },
    {
      "inputs": [],
      "payable": false,
      "stateMutability": "nonpayable",
      "type": "constructor"
    },
    {
      "anonymous": false,
      "inputs": [
        {
          "indexed": true,
          "name": "previousOwner",
          "type": "address"
        },
        {
          "indexed": true,
          "name": "newOwner",
          "type": "address"
        }
      ],
      "name": "OwnershipTransferred",
      "type": "event"
    },
    {
      "constant": false,
      "inputs": [
        {
          "name": "_newOwner",
          "type": "address"
        }
      ],
      "name": "setImmutableOwnership",
      "outputs": [],
      "payable": false,
      "stateMutability": "nonpayable",
      "type": "function"
    }
  ],
  "bytecode": "0x6060604052341561000f57600080fd5b6000805474010000000000000000000000000000000000000000600160a060020a031990911633600160a060020a03161760a060020a60ff02191617815561024c90819061005d90396000f3006060604052600436106100565763ffffffff7c0100000000000000000000000000000000000000000000000000000000600035041663951b26a3811461005b578063bbac78a914610082578063deff41c1146100b0575b600080fd5b341561006657600080fd5b61006e6100ec565b604051901515815260200160405180910390f35b341561008d57600080fd5b6100ae73ffffffffffffffffffffffffffffffffffffffff6004351661010d565b005b34156100bb57600080fd5b6100c3610204565b60405173ffffffffffffffffffffffffffffffffffffffff909116815260200160405180910390f35b60005474010000000000000000000000000000000000000000900460ff1681565b6000543373ffffffffffffffffffffffffffffffffffffffff90811691161461013557600080fd5b60005474010000000000000000000000000000000000000000900460ff16151561015e57600080fd5b73ffffffffffffffffffffffffffffffffffffffff8116151561018057600080fd5b6000805473ffffffffffffffffffffffffffffffffffffffff191673ffffffffffffffffffffffffffffffffffffffff83811691821774ff00000000000000000000000000000000000000001981169093559091167f8be0079c531659141344cd1fd0a4f28419497f9722a3daafe3b4186f6b6457e060405160405180910390a350565b60005473ffffffffffffffffffffffffffffffffffffffff16815600a165627a7a723058204ad5055c0c96a5ed7ac6f49625f66e9407aa8c18fba6d722f069bda35c3ba50f0029",
  "source": "pragma solidity ^0.4.21;\n\n/**\n * @title Ownable\n * @dev The Ownable contract has an owner address, and provides basic authorization control\n * functions, this simplifies the implementation of \"user permissions\".\n */\ncontract OwnableOZ\n{\n\taddress public m_owner;\n\tbool    public changeable;\n\n\tevent OwnershipTransferred(address indexed previousOwner, address indexed newOwner);\n\n\t/**\n\t * @dev Throws if called by any account other than the owner.\n\t */\n\tmodifier onlyOwner()\n\t{\n\t\trequire(msg.sender == m_owner);\n\t\t_;\n\t}\n\n\t/**\n\t * @dev The Ownable constructor sets the original `owner` of the contract to the sender\n\t * account.\n\t */\n\tfunction OwnableOZ() public\n\t{\n\t\tm_owner = msg.sender;\n\t\tchangeable =true;\n\t}\n\n\t/**\n\t * @dev Allows the current owner to transfer control of the contract to a newOwner.\n\t * @param _newOwner The address to transfer ownership to.\n\t */\n\tfunction setImmutableOwnership(address _newOwner) public onlyOwner\n\t{\n\t\trequire(changeable);\n\t\trequire(_newOwner != address(0));\n\t\tm_owner = _newOwner;\n\t\tchangeable = false;\n\t\temit OwnershipTransferred(m_owner, _newOwner);\n\t}\n\n}\n",
  "sourcePath": "/Users/fbranci/iexecdev/PoCo/contracts/OwnableOZ.sol",
  "compiler": {
    "name": "solc",
    "version": "0.4.21+commit.dfe3193c.Emscripten.clang"
  },
  "schemaVersion": "2.0.0",
  "updatedAt": "2018-05-18T16:17:06.060Z"
}