{
  "contractName": "PubKeyRegistry",
  "abi": [
    {
      "anonymous": false,
      "inputs": [
        {
          "indexed": false,
          "internalType": "address",
          "name": "",
          "type": "address"
        },
        {
          "indexed": false,
          "internalType": "bytes",
          "name": "",
          "type": "bytes"
        }
      ],
      "name": "PubKey",
      "type": "event"
    },
    {
      "inputs": [
        {
          "internalType": "address",
          "name": "",
          "type": "address"
        }
      ],
      "name": "pubkeys",
      "outputs": [
        {
          "internalType": "bytes",
          "name": "",
          "type": "bytes"
        }
      ],
      "stateMutability": "view",
      "type": "function"
    },
    {
      "inputs": [
        {
          "internalType": "bytes",
          "name": "pubkey",
          "type": "bytes"
        }
      ],
      "name": "addEthPubKey",
      "outputs": [],
      "stateMutability": "nonpayable",
      "type": "function"
    },
    {
      "inputs": [
        {
          "internalType": "bytes",
          "name": "pubkey",
          "type": "bytes"
        }
      ],
      "name": "setPubKey",
      "outputs": [],
      "stateMutability": "nonpayable",
      "type": "function"
    }
  ],
  "bytecode": "0x608060405234801561001057600080fd5b5061055c806100206000396000f3fe608060405234801561001057600080fd5b50600436106100415760003560e01c80639e50f99c14610046578063ac99bde2146100e1578063e32d291314610153575b600080fd5b61006c6004803603602081101561005c57600080fd5b50356001600160a01b03166101c3565b6040805160208082528351818301528351919283929083019185019080838360005b838110156100a657818101518382015260200161008e565b50505050905090810190601f1680156100d35780820380516001836020036101000a031916815260200191505b509250505060405180910390f35b610151600480360360208110156100f757600080fd5b81019060208101813564010000000081111561011257600080fd5b82018360208201111561012457600080fd5b8035906020019184600183028401116401000000008311171561014657600080fd5b50909250905061025d565b005b6101516004803603602081101561016957600080fd5b81019060208101813564010000000081111561018457600080fd5b82018360208201111561019657600080fd5b803590602001918460018302840111640100000000831117156101b857600080fd5b50909250905061037a565b600060208181529181526040908190208054825160026001831615610100026000190190921691909104601f8101859004850282018501909352828152929091908301828280156102555780601f1061022a57610100808354040283529160200191610255565b820191906000526020600020905b81548152906001019060200180831161023857829003601f168201915b505050505081565b600061029e83838080601f01602080910402602001604051908101604052809392919081815260200183838082843760009201919091525061040392505050565b6001600160a01b03811660009081526020819052604090205490915060026000196101006001841615020190911604156102d757600080fd5b6001600160a01b03811660009081526020819052604090206102fa90848461048b565b507f0ceb751f31e47453ca6cc79585f90f5068e6b6129b4a19aa7a83610acaab4a5d81848460405180846001600160a01b03166001600160a01b03168152602001806020018281038252848482818152602001925080828437600083820152604051601f909101601f1916909201829003965090945050505050a1505050565b33600090815260208190526040902061039490838361048b565b506040805133808252602082018381529282018490527f0ceb751f31e47453ca6cc79585f90f5068e6b6129b4a19aa7a83610acaab4a5d929091859185919060608201848480828437600083820152604051601f909101601f1916909201829003965090945050505050a15050565b6000815160401461041357600080fd5b816040516020018082805190602001908083835b602083106104465780518252601f199092019160209182019101610427565b6001836020036101000a0380198251168184511680821785525050505050509050019150506040516020818303038152906040528051906020012060001c9050919050565b828054600181600116156101000203166002900490600052602060002090601f016020900481019282601f106104cc5782800160ff198235161785556104f9565b828001600101855582156104f9579182015b828111156104f95782358255916020019190600101906104de565b50610505929150610509565b5090565b61052391905b80821115610505576000815560010161050f565b9056fea264697066735822122036180cd9fc0c7d6e84d16888bfc49ddf96f395498ff0149a2d4f5332dc40ee6e64736f6c63430006030033",
  "source": "pragma solidity ^0.6.0;\n\n\ncontract PubKeyRegistry\n{\n\tmapping(address => bytes) public pubkeys;\n\n\tevent PubKey(address, bytes);\n\n\tfunction _pubKeyToAddr(bytes memory pubkey) internal pure returns (address)\n\t{\n\t\trequire(pubkey.length == 64);\n\t\treturn address(uint256(keccak256(abi.encodePacked(pubkey))));\n\t}\n\n\tfunction addEthPubKey(bytes calldata pubkey) external\n\t{\n\t\t\taddress addr = _pubKeyToAddr(pubkey);\n\t\t\trequire(pubkeys[addr].length == 0);\n\t\t\tpubkeys[addr] = pubkey;\n\t\t\temit PubKey(addr, pubkey);\n\t}\n\n\tfunction setPubKey(bytes calldata pubkey) external\n\t{\n\t\t\tpubkeys[msg.sender] = pubkey;\n\t\t\temit PubKey(msg.sender, pubkey);\n\t}\n}\n\n// Example:\n// full pubkey: 0x0410a624b246b827f4e0b20133e86f7144036b01a42e8520f6da40268b2b26a98f8f0b1648984d61c1f842c9cc0b8c29e49f49d3f712e047df0913362234fc1cb3\n// core pubkey: 0x10a624b246b827f4e0b20133e86f7144036b01a42e8520f6da40268b2b26a98f8f0b1648984d61c1f842c9cc0b8c29e49f49d3f712e047df0913362234fc1cb3\n// address:     0x201DA2Db04e8F3a1DbBb2F133dDf020b6f85Da2F\n",
  "sourcePath": "/home/amxx/Work/iExec/code/PoCo-dev/contracts/PubKeyRegistry.sol",
  "compiler": {
    "name": "solc",
    "version": "0.6.3+commit.8dda9521.Emscripten.clang"
  },
  "schemaVersion": "3.0.23",
  "updatedAt": "2020-02-28T09:18:25.274Z",
  "devdoc": {
    "methods": {}
  },
  "userdoc": {
    "methods": {}
  }
}