{
  "contractName": "RegistryBase",
  "abi": [
    {
      "inputs": [],
      "payable": false,
      "stateMutability": "nonpayable",
      "type": "constructor"
    },
    {
      "constant": true,
      "inputs": [
        {
          "name": "_entry",
          "type": "address"
        }
      ],
      "name": "isRegistered",
      "outputs": [
        {
          "name": "",
          "type": "bool"
        }
      ],
      "payable": false,
      "stateMutability": "view",
      "type": "function"
    },
    {
      "constant": true,
      "inputs": [
        {
          "name": "_owner",
          "type": "address"
        },
        {
          "name": "_index",
          "type": "uint256"
        }
      ],
      "name": "viewEntry",
      "outputs": [
        {
          "name": "",
          "type": "address"
        }
      ],
      "payable": false,
      "stateMutability": "view",
      "type": "function"
    },
    {
      "constant": true,
      "inputs": [
        {
          "name": "_owner",
          "type": "address"
        }
      ],
      "name": "viewCount",
      "outputs": [
        {
          "name": "",
          "type": "uint256"
        }
      ],
      "payable": false,
      "stateMutability": "view",
      "type": "function"
    }
  ],
  "bytecode": "0x608060405234801561001057600080fd5b50610196806100206000396000f3fe608060405234801561001057600080fd5b50600436106100415760003560e01c806365a2c10414610046578063c0a8cae21461008e578063c3c5a547146100c6575b600080fd5b6100726004803603604081101561005c57600080fd5b506001600160a01b038135169060200135610100565b604080516001600160a01b039092168252519081900360200190f35b6100b4600480360360208110156100a457600080fd5b50356001600160a01b0316610128565b60408051918252519081900360200190f35b6100ec600480360360208110156100dc57600080fd5b50356001600160a01b0316610143565b604080519115158252519081900360200190f35b6001600160a01b03918216600090815260016020908152604080832093835292905220541690565b6001600160a01b031660009081526002602052604090205490565b6001600160a01b031660009081526020819052604090205460ff169056fea265627a7a7230582005eacef6908f9c9d66c2f8f2e91200fae8afb4129f4abc31e6dc3494fce1523364736f6c63430005090032",
  "source": "pragma solidity ^0.5.8;\n\nimport \"iexec-solidity/contracts/Libs/SafeMath.sol\";\n\ncontract RegistryBase\n{\n\n\tusing SafeMath for uint256;\n\n\t/**\n\t * Members\n\t */\n\tmapping(address => bool                       ) m_registered;\n\tmapping(address => mapping(uint256 => address)) m_byOwnerByIndex;\n\tmapping(address => uint256                    ) m_countByOwner;\n\n\t/**\n\t * Constructor\n\t */\n\tconstructor()\n\tpublic\n\t{\n\t}\n\n\t/**\n\t * Accessors\n\t */\n\tfunction isRegistered(address _entry)\n\tpublic view returns (bool)\n\t{\n\t\treturn m_registered[_entry];\n\t}\n\n\tfunction viewEntry(address _owner, uint256 _index)\n\tpublic view returns (address)\n\t{\n\t\treturn m_byOwnerByIndex[_owner][_index];\n\t}\n\n\tfunction viewCount(address _owner)\n\tpublic view returns (uint256)\n\t{\n\t\treturn m_countByOwner[_owner];\n\t}\n\n\t/**\n\t * Internal\n\t */\n\tfunction insert(\n\t\taddress _entry,\n\t\taddress _owner)\n\tinternal returns (bool)\n\t{\n\t\tuint id = m_countByOwner[_owner].add(1);\n\t\tm_countByOwner  [_owner]     = id;\n\t\tm_byOwnerByIndex[_owner][id] = _entry;\n\t\tm_registered    [_entry]     = true;\n\t\treturn true;\n\t}\n}\n",
  "sourcePath": "/home/amxx/Work/iExec/code/PoCo-dev/contracts/registries/RegistryBase.sol",
  "compiler": {
    "name": "solc",
    "version": "0.5.9+commit.e560f70d.Emscripten.clang"
  },
  "schemaVersion": "3.0.9",
  "updatedAt": "2019-06-13T09:54:21.432Z",
  "devdoc": {
    "methods": {}
  },
  "userdoc": {
    "methods": {
      "constructor": "Constructor",
      "isRegistered(address)": {
        "notice": "Accessors"
      }
    }
  }
}