{
  "contractName": "RegistryBase",
  "abi": [
    {
      "inputs": [],
      "payable": false,
      "stateMutability": "nonpayable",
      "type": "constructor"
    },
    {
      "constant": true,
      "inputs": [
        {
          "name": "_entry",
          "type": "address"
        }
      ],
      "name": "isRegistered",
      "outputs": [
        {
          "name": "",
          "type": "bool"
        }
      ],
      "payable": false,
      "stateMutability": "view",
      "type": "function"
    },
    {
      "constant": true,
      "inputs": [
        {
          "name": "_owner",
          "type": "address"
        },
        {
          "name": "_index",
          "type": "uint256"
        }
      ],
      "name": "viewEntry",
      "outputs": [
        {
          "name": "",
          "type": "address"
        }
      ],
      "payable": false,
      "stateMutability": "view",
      "type": "function"
    },
    {
      "constant": true,
      "inputs": [
        {
          "name": "_owner",
          "type": "address"
        }
      ],
      "name": "viewCount",
      "outputs": [
        {
          "name": "",
          "type": "uint256"
        }
      ],
      "payable": false,
      "stateMutability": "view",
      "type": "function"
    }
  ],
  "bytecode": "0x608060405234801561001057600080fd5b506101a9806100206000396000f3fe608060405234801561001057600080fd5b506004361061005d577c0100000000000000000000000000000000000000000000000000000000600035046365a2c1048114610062578063c0a8cae2146100aa578063c3c5a547146100e2575b600080fd5b61008e6004803603604081101561007857600080fd5b50600160a060020a03813516906020013561011c565b60408051600160a060020a039092168252519081900360200190f35b6100d0600480360360208110156100c057600080fd5b5035600160a060020a0316610144565b60408051918252519081900360200190f35b610108600480360360208110156100f857600080fd5b5035600160a060020a031661015f565b604080519115158252519081900360200190f35b600160a060020a03918216600090815260016020908152604080832093835292905220541690565b600160a060020a031660009081526002602052604090205490565b600160a060020a031660009081526020819052604090205460ff169056fea165627a7a723058206a91704031ef8f037a0f5aa287908238a12cf57e13b42e1df9b80a8f03c332330029",
  "source": "pragma solidity ^0.5.8;\n\nimport \"iexec-solidity/contracts/Libs/SafeMath.sol\";\n\ncontract RegistryBase\n{\n\n\tusing SafeMath for uint256;\n\n\t/**\n\t * Members\n\t */\n\tmapping(address => bool                       ) m_registered;\n\tmapping(address => mapping(uint256 => address)) m_byOwnerByIndex;\n\tmapping(address => uint256                    ) m_countByOwner;\n\n\t/**\n\t * Constructor\n\t */\n\tconstructor()\n\tpublic\n\t{\n\t}\n\n\t/**\n\t * Accessors\n\t */\n\tfunction isRegistered(address _entry)\n\tpublic view returns (bool)\n\t{\n\t\treturn m_registered[_entry];\n\t}\n\n\tfunction viewEntry(address _owner, uint256 _index)\n\tpublic view returns (address)\n\t{\n\t\treturn m_byOwnerByIndex[_owner][_index];\n\t}\n\n\tfunction viewCount(address _owner)\n\tpublic view returns (uint256)\n\t{\n\t\treturn m_countByOwner[_owner];\n\t}\n\n\t/**\n\t * Internal\n\t */\n\tfunction insert(\n\t\taddress _entry,\n\t\taddress _owner)\n\tinternal returns (bool)\n\t{\n\t\tuint id = m_countByOwner[_owner].add(1);\n\t\tm_countByOwner  [_owner]     = id;\n\t\tm_byOwnerByIndex[_owner][id] = _entry;\n\t\tm_registered    [_entry]     = true;\n\t\treturn true;\n\t}\n}\n",
  "sourcePath": "/home/amxx/Work/iExec/code/PoCo-dev/contracts/registries/RegistryBase.sol",
  "compiler": {
    "name": "solc",
    "version": "0.5.8+commit.23d335f2.Emscripten.clang"
  },
  "schemaVersion": "3.0.8",
  "updatedAt": "2019-05-03T09:55:21.348Z",
  "devdoc": {
    "methods": {}
  },
  "userdoc": {
    "methods": {
      "constructor": "Constructor",
      "isRegistered(address)": {
        "notice": "Accessors"
      }
    }
  }
}