{
  "contractName": "Registry",
  "abi": [
    {
      "inputs": [
        {
          "internalType": "address",
          "name": "_master",
          "type": "address"
        },
        {
          "internalType": "string",
          "name": "_name",
          "type": "string"
        },
        {
          "internalType": "string",
          "name": "_symbol",
          "type": "string"
        },
        {
          "internalType": "address",
          "name": "_previous",
          "type": "address"
        }
      ],
      "stateMutability": "nonpayable",
      "type": "constructor"
    },
    {
      "anonymous": false,
      "inputs": [
        {
          "indexed": true,
          "internalType": "address",
          "name": "owner",
          "type": "address"
        },
        {
          "indexed": true,
          "internalType": "address",
          "name": "approved",
          "type": "address"
        },
        {
          "indexed": true,
          "internalType": "uint256",
          "name": "tokenId",
          "type": "uint256"
        }
      ],
      "name": "Approval",
      "type": "event"
    },
    {
      "anonymous": false,
      "inputs": [
        {
          "indexed": true,
          "internalType": "address",
          "name": "owner",
          "type": "address"
        },
        {
          "indexed": true,
          "internalType": "address",
          "name": "operator",
          "type": "address"
        },
        {
          "indexed": false,
          "internalType": "bool",
          "name": "approved",
          "type": "bool"
        }
      ],
      "name": "ApprovalForAll",
      "type": "event"
    },
    {
      "anonymous": false,
      "inputs": [
        {
          "indexed": true,
          "internalType": "address",
          "name": "previousOwner",
          "type": "address"
        },
        {
          "indexed": true,
          "internalType": "address",
          "name": "newOwner",
          "type": "address"
        }
      ],
      "name": "OwnershipTransferred",
      "type": "event"
    },
    {
      "anonymous": false,
      "inputs": [
        {
          "indexed": true,
          "internalType": "address",
          "name": "from",
          "type": "address"
        },
        {
          "indexed": true,
          "internalType": "address",
          "name": "to",
          "type": "address"
        },
        {
          "indexed": true,
          "internalType": "uint256",
          "name": "tokenId",
          "type": "uint256"
        }
      ],
      "name": "Transfer",
      "type": "event"
    },
    {
      "inputs": [
        {
          "internalType": "address",
          "name": "to",
          "type": "address"
        },
        {
          "internalType": "uint256",
          "name": "tokenId",
          "type": "uint256"
        }
      ],
      "name": "approve",
      "outputs": [],
      "stateMutability": "nonpayable",
      "type": "function"
    },
    {
      "inputs": [
        {
          "internalType": "address",
          "name": "owner",
          "type": "address"
        }
      ],
      "name": "balanceOf",
      "outputs": [
        {
          "internalType": "uint256",
          "name": "",
          "type": "uint256"
        }
      ],
      "stateMutability": "view",
      "type": "function"
    },
    {
      "inputs": [],
      "name": "baseURI",
      "outputs": [
        {
          "internalType": "string",
          "name": "",
          "type": "string"
        }
      ],
      "stateMutability": "view",
      "type": "function"
    },
    {
      "inputs": [
        {
          "internalType": "uint256",
          "name": "tokenId",
          "type": "uint256"
        }
      ],
      "name": "getApproved",
      "outputs": [
        {
          "internalType": "address",
          "name": "",
          "type": "address"
        }
      ],
      "stateMutability": "view",
      "type": "function"
    },
    {
      "inputs": [
        {
          "internalType": "address",
          "name": "owner",
          "type": "address"
        },
        {
          "internalType": "address",
          "name": "operator",
          "type": "address"
        }
      ],
      "name": "isApprovedForAll",
      "outputs": [
        {
          "internalType": "bool",
          "name": "",
          "type": "bool"
        }
      ],
      "stateMutability": "view",
      "type": "function"
    },
    {
      "inputs": [],
      "name": "isOwner",
      "outputs": [
        {
          "internalType": "bool",
          "name": "",
          "type": "bool"
        }
      ],
      "stateMutability": "view",
      "type": "function"
    },
    {
      "inputs": [],
      "name": "master",
      "outputs": [
        {
          "internalType": "address",
          "name": "",
          "type": "address"
        }
      ],
      "stateMutability": "view",
      "type": "function"
    },
    {
      "inputs": [],
      "name": "name",
      "outputs": [
        {
          "internalType": "string",
          "name": "",
          "type": "string"
        }
      ],
      "stateMutability": "view",
      "type": "function"
    },
    {
      "inputs": [],
      "name": "owner",
      "outputs": [
        {
          "internalType": "address",
          "name": "",
          "type": "address"
        }
      ],
      "stateMutability": "view",
      "type": "function"
    },
    {
      "inputs": [
        {
          "internalType": "uint256",
          "name": "tokenId",
          "type": "uint256"
        }
      ],
      "name": "ownerOf",
      "outputs": [
        {
          "internalType": "address",
          "name": "",
          "type": "address"
        }
      ],
      "stateMutability": "view",
      "type": "function"
    },
    {
      "inputs": [],
      "name": "previous",
      "outputs": [
        {
          "internalType": "contract IRegistry",
          "name": "",
          "type": "address"
        }
      ],
      "stateMutability": "view",
      "type": "function"
    },
    {
      "inputs": [],
      "name": "proxyCode",
      "outputs": [
        {
          "internalType": "bytes",
          "name": "",
          "type": "bytes"
        }
      ],
      "stateMutability": "view",
      "type": "function"
    },
    {
      "inputs": [],
      "name": "renounceOwnership",
      "outputs": [],
      "stateMutability": "nonpayable",
      "type": "function"
    },
    {
      "inputs": [
        {
          "internalType": "address",
          "name": "from",
          "type": "address"
        },
        {
          "internalType": "address",
          "name": "to",
          "type": "address"
        },
        {
          "internalType": "uint256",
          "name": "tokenId",
          "type": "uint256"
        }
      ],
      "name": "safeTransferFrom",
      "outputs": [],
      "stateMutability": "nonpayable",
      "type": "function"
    },
    {
      "inputs": [
        {
          "internalType": "address",
          "name": "from",
          "type": "address"
        },
        {
          "internalType": "address",
          "name": "to",
          "type": "address"
        },
        {
          "internalType": "uint256",
          "name": "tokenId",
          "type": "uint256"
        },
        {
          "internalType": "bytes",
          "name": "_data",
          "type": "bytes"
        }
      ],
      "name": "safeTransferFrom",
      "outputs": [],
      "stateMutability": "nonpayable",
      "type": "function"
    },
    {
      "inputs": [
        {
          "internalType": "address",
          "name": "operator",
          "type": "address"
        },
        {
          "internalType": "bool",
          "name": "approved",
          "type": "bool"
        }
      ],
      "name": "setApprovalForAll",
      "outputs": [],
      "stateMutability": "nonpayable",
      "type": "function"
    },
    {
      "inputs": [
        {
          "internalType": "bytes4",
          "name": "interfaceId",
          "type": "bytes4"
        }
      ],
      "name": "supportsInterface",
      "outputs": [
        {
          "internalType": "bool",
          "name": "",
          "type": "bool"
        }
      ],
      "stateMutability": "view",
      "type": "function"
    },
    {
      "inputs": [],
      "name": "symbol",
      "outputs": [
        {
          "internalType": "string",
          "name": "",
          "type": "string"
        }
      ],
      "stateMutability": "view",
      "type": "function"
    },
    {
      "inputs": [
        {
          "internalType": "uint256",
          "name": "index",
          "type": "uint256"
        }
      ],
      "name": "tokenByIndex",
      "outputs": [
        {
          "internalType": "uint256",
          "name": "",
          "type": "uint256"
        }
      ],
      "stateMutability": "view",
      "type": "function"
    },
    {
      "inputs": [
        {
          "internalType": "address",
          "name": "owner",
          "type": "address"
        },
        {
          "internalType": "uint256",
          "name": "index",
          "type": "uint256"
        }
      ],
      "name": "tokenOfOwnerByIndex",
      "outputs": [
        {
          "internalType": "uint256",
          "name": "",
          "type": "uint256"
        }
      ],
      "stateMutability": "view",
      "type": "function"
    },
    {
      "inputs": [
        {
          "internalType": "uint256",
          "name": "tokenId",
          "type": "uint256"
        }
      ],
      "name": "tokenURI",
      "outputs": [
        {
          "internalType": "string",
          "name": "",
          "type": "string"
        }
      ],
      "stateMutability": "view",
      "type": "function"
    },
    {
      "inputs": [],
      "name": "totalSupply",
      "outputs": [
        {
          "internalType": "uint256",
          "name": "",
          "type": "uint256"
        }
      ],
      "stateMutability": "view",
      "type": "function"
    },
    {
      "inputs": [
        {
          "internalType": "address",
          "name": "from",
          "type": "address"
        },
        {
          "internalType": "address",
          "name": "to",
          "type": "address"
        },
        {
          "internalType": "uint256",
          "name": "tokenId",
          "type": "uint256"
        }
      ],
      "name": "transferFrom",
      "outputs": [],
      "stateMutability": "nonpayable",
      "type": "function"
    },
    {
      "inputs": [
        {
          "internalType": "address",
          "name": "newOwner",
          "type": "address"
        }
      ],
      "name": "transferOwnership",
      "outputs": [],
      "stateMutability": "nonpayable",
      "type": "function"
    },
    {
      "inputs": [
        {
          "internalType": "address",
          "name": "_entry",
          "type": "address"
        }
      ],
      "name": "isRegistered",
      "outputs": [
        {
          "internalType": "bool",
          "name": "",
          "type": "bool"
        }
      ],
      "stateMutability": "view",
      "type": "function"
    },
    {
      "inputs": [
        {
          "internalType": "address",
          "name": "_ens",
          "type": "address"
        },
        {
          "internalType": "string",
          "name": "_name",
          "type": "string"
        }
      ],
      "name": "setName",
      "outputs": [],
      "stateMutability": "nonpayable",
      "type": "function"
    },
    {
      "inputs": [
        {
          "internalType": "uint256",
          "name": "_tokenId",
          "type": "uint256"
        },
        {
          "internalType": "string",
          "name": "_uri",
          "type": "string"
        }
      ],
      "name": "setTokenURI",
      "outputs": [],
      "stateMutability": "nonpayable",
      "type": "function"
    }
  ],
  "bytecode": "0x60806040523480156200001157600080fd5b5060405162002a7038038062002a70833981810160405260808110156200003757600080fd5b8151602083018051604051929492938301929190846401000000008211156200005f57600080fd5b9083019060208201858111156200007557600080fd5b82516401000000008111828201881017156200009057600080fd5b82525081516020918201929091019080838360005b83811015620000bf578181015183820152602001620000a5565b50505050905090810190601f168015620000ed5780820380516001836020036101000a031916815260200191505b50604052602001805160405193929190846401000000008211156200011157600080fd5b9083019060208201858111156200012757600080fd5b82516401000000008111828201881017156200014257600080fd5b82525081516020918201929091019080838360005b838110156200017157818101518382015260200162000157565b50505050905090810190601f1680156200019f5780820380516001836020036101000a031916815260200191505b50604052602001519150839050828181620001ca6301ffc9a760e01b6001600160e01b036200032c16565b620001e56380ac58cd60e01b6001600160e01b036200032c16565b6200020063780e9d6360e01b6001600160e01b036200032c16565b815162000215906009906020850190620003b6565b5080516200022b90600a906020840190620003b6565b5062000247635b5e139f60e01b6001600160e01b036200032c16565b5050505060006200025d620003b160201b60201c565b600d80546001600160a01b0319166001600160a01b038316908117909155604051919250906000907f8be0079c531659141344cd1fd0a4f28419497f9722a3daafe3b4186f6b6457e0908290a350600e80546001600160a01b0319166001600160a01b038616179055604051620002d7602082016200043b565b601f1982820381018352601f9091011660405280516200030191600f9160209190910190620003b6565b50601080546001600160a01b0319166001600160a01b03929092169190911790555062000466915050565b6001600160e01b031980821614156200038c576040805162461bcd60e51b815260206004820152601c60248201527f4552433136353a20696e76616c696420696e7465726661636520696400000000604482015290519081900360640190fd5b6001600160e01b0319166000908152602081905260409020805460ff19166001179055565b335b90565b828054600181600116156101000203166002900490600052602060002090601f016020900481019282601f10620003f957805160ff191683800117855562000429565b8280016001018555821562000429579182015b82811115620004295782518255916020019190600101906200040c565b506200043792915062000449565b5090565b6103cd80620026a383390190565b620003b391905b8082111562000437576000815560010162000450565b61222d80620004766000396000f3fe608060405234801561001057600080fd5b50600436106101a95760003560e01c80636fa59bbc116100f9578063a22cb46511610097578063c87b56dd11610071578063c87b56dd14610628578063e985e9c514610645578063ee97f7f314610673578063f2fde38b1461067b576101a9565b8063a22cb4651461050e578063b88d4fde1461053c578063c3c5a54714610602576101a9565b80637c2b2e71116100d35780637c2b2e71146104ee5780638da5cb5b146104f65780638f32d59b146104fe57806395d89b4114610506576101a9565b80636fa59bbc146104b857806370a08231146104c0578063715018a6146104e6576101a9565b806323b872dd1161016657806342842e0e1161014057806342842e0e146104405780634f6ccce7146104765780636352211e146104935780636c0360eb146104b0576101a9565b806323b872dd1461035e5780632f745c59146103945780633121db1c146103c0576101a9565b806301ffc9a7146101ae57806306fdde03146101e9578063081812fc14610266578063095ea7b31461029f578063162094c4146102cd57806318160ddd14610344575b600080fd5b6101d5600480360360208110156101c457600080fd5b50356001600160e01b0319166106a1565b604080519115158252519081900360200190f35b6101f16106c4565b6040805160208082528351818301528351919283929083019185019080838360005b8381101561022b578181015183820152602001610213565b50505050905090810190601f1680156102585780820380516001836020036101000a031916815260200191505b509250505060405180910390f35b6102836004803603602081101561027c57600080fd5b503561075b565b604080516001600160a01b039092168252519081900360200190f35b6102cb600480360360408110156102b557600080fd5b506001600160a01b0381351690602001356107bd565b005b6102cb600480360360408110156102e357600080fd5b8135919081019060408101602082013564010000000081111561030557600080fd5b82018360208201111561031757600080fd5b8035906020019184600183028401116401000000008311171561033957600080fd5b509092509050610898565b61034c610937565b60408051918252519081900360200190f35b6102cb6004803603606081101561037457600080fd5b506001600160a01b0381358116916020810135909116906040013561093d565b61034c600480360360408110156103aa57600080fd5b506001600160a01b038135169060200135610994565b6102cb600480360360408110156103d657600080fd5b6001600160a01b03823516919081019060408101602082013564010000000081111561040157600080fd5b82018360208201111561041357600080fd5b8035906020019184600183028401116401000000008311171561043557600080fd5b509092509050610a13565b6102cb6004803603606081101561045657600080fd5b506001600160a01b03813581169160208101359091169060400135610aac565b61034c6004803603602081101561048c57600080fd5b5035610ac7565b610283600480360360208110156104a957600080fd5b5035610b2d565b6101f1610b87565b6101f1610be8565b61034c600480360360208110156104d657600080fd5b50356001600160a01b0316610c76565b6102cb610cde565b610283610d81565b610283610d90565b6101d5610d9f565b6101f1610dc5565b6102cb6004803603604081101561052457600080fd5b506001600160a01b0381351690602001351515610e26565b6102cb6004803603608081101561055257600080fd5b6001600160a01b0382358116926020810135909116916040820135919081019060808101606082013564010000000081111561058d57600080fd5b82018360208201111561059f57600080fd5b803590602001918460018302840111640100000000831117156105c157600080fd5b91908080601f016020809104026020016040519081016040528093929190818152602001838380828437600092019190915250929550610f2b945050505050565b6101d56004803603602081101561061857600080fd5b50356001600160a01b0316610f89565b6101f16004803603602081101561063e57600080fd5b5035611037565b6101d56004803603604081101561065b57600080fd5b506001600160a01b0381358116916020013516611203565b610283611231565b6102cb6004803603602081101561069157600080fd5b50356001600160a01b0316611240565b6001600160e01b0319811660009081526020819052604090205460ff165b919050565b60098054604080516020601f60026000196101006001881615020190951694909404938401819004810282018101909252828152606093909290918301828280156107505780601f1061072557610100808354040283529160200191610750565b820191906000526020600020905b81548152906001019060200180831161073357829003601f168201915b505050505090505b90565b6000610766826112a5565b6107a15760405162461bcd60e51b815260040180806020018281038252602c8152602001806120ca602c913960400191505060405180910390fd5b506000908152600260205260409020546001600160a01b031690565b60006107c882610b2d565b9050806001600160a01b0316836001600160a01b0316141561081b5760405162461bcd60e51b815260040180806020018281038252602181526020018061217a6021913960400191505060405180910390fd5b806001600160a01b031661082d6112c2565b6001600160a01b0316148061084e575061084e816108496112c2565b611203565b6108895760405162461bcd60e51b815260040180806020018281038252603881526020018061203f6038913960400191505060405180910390fd5b61089383836112c6565b505050565b6108a183610b2d565b6001600160a01b03166108b26112c2565b6001600160a01b0316146108f75760405162461bcd60e51b8152600401808060200182810382526028815260200180611f446028913960400191505060405180910390fd5b6108938383838080601f01602080910402602001604051908101604052809392919081815260200183838082843760009201919091525061133492505050565b60075490565b61094e6109486112c2565b82611397565b6109895760405162461bcd60e51b815260040180806020018281038252603181526020018061219b6031913960400191505060405180910390fd5b61089383838361143b565b600061099f83610c76565b82106109dc5760405162461bcd60e51b815260040180806020018281038252602b815260200180611f6c602b913960400191505060405180910390fd5b6001600160a01b0383166000908152600560205260409020805483908110610a0057fe5b9060005260206000200154905092915050565b610a1b610d9f565b610a6c576040805162461bcd60e51b815260206004820181905260248201527f4f776e61626c653a2063616c6c6572206973206e6f7420746865206f776e6572604482015290519081900360640190fd5b6108938383838080601f01602080910402602001604051908101604052809392919081815260200183838082843760009201919091525061158c92505050565b61089383838360405180602001604052806000815250610f2b565b6000610ad1610937565b8210610b0e5760405162461bcd60e51b815260040180806020018281038252602c8152602001806121cc602c913960400191505060405180910390fd5b60078281548110610b1b57fe5b90600052602060002001549050919050565b6000818152600160205260408120546001600160a01b031680610b815760405162461bcd60e51b81526004018080602001828103825260298152602001806120a16029913960400191505060405180910390fd5b92915050565b600b8054604080516020601f60026000196101006001881615020190951694909404938401819004810282018101909252828152606093909290918301828280156107505780601f1061072557610100808354040283529160200191610750565b600f805460408051602060026001851615610100026000190190941693909304601f81018490048402820184019092528181529291830182828015610c6e5780601f10610c4357610100808354040283529160200191610c6e565b820191906000526020600020905b815481529060010190602001808311610c5157829003601f168201915b505050505081565b60006001600160a01b038216610cbd5760405162461bcd60e51b815260040180806020018281038252602a815260200180612077602a913960400191505060405180910390fd5b6001600160a01b0382166000908152600360205260409020610b81906116f1565b610ce6610d9f565b610d37576040805162461bcd60e51b815260206004820181905260248201527f4f776e61626c653a2063616c6c6572206973206e6f7420746865206f776e6572604482015290519081900360640190fd5b600d546040516000916001600160a01b0316907f8be0079c531659141344cd1fd0a4f28419497f9722a3daafe3b4186f6b6457e0908390a3600d80546001600160a01b0319169055565b6010546001600160a01b031681565b600d546001600160a01b031690565b600d546000906001600160a01b0316610db66112c2565b6001600160a01b031614905090565b600a8054604080516020601f60026000196101006001881615020190951694909404938401819004810282018101909252828152606093909290918301828280156107505780601f1061072557610100808354040283529160200191610750565b610e2e6112c2565b6001600160a01b0316826001600160a01b03161415610e94576040805162461bcd60e51b815260206004820152601960248201527f4552433732313a20617070726f766520746f2063616c6c657200000000000000604482015290519081900360640190fd5b8060046000610ea16112c2565b6001600160a01b03908116825260208083019390935260409182016000908120918716808252919093529120805460ff191692151592909217909155610ee56112c2565b60408051841515815290516001600160a01b0392909216917f17307eab39ab6107e8899845ad3d59bd9653f200f220920489ca2b5937696c319181900360200190a35050565b610f3c610f366112c2565b83611397565b610f775760405162461bcd60e51b815260040180806020018281038252603181526020018061219b6031913960400191505060405180910390fd5b610f83848484846116f5565b50505050565b6000610f9d826001600160a01b03166112a5565b80610b8157506010546001600160a01b031615801590610b8157506010546040805163c3c5a54760e01b81526001600160a01b0385811660048301529151919092169163c3c5a547916024808301926020929190829003018186803b15801561100557600080fd5b505afa158015611019573d6000803e3d6000fd5b505050506040513d602081101561102f57600080fd5b505192915050565b6060611042826112a5565b61107d5760405162461bcd60e51b815260040180806020018281038252602f81526020018061214b602f913960400191505060405180910390fd5b6000828152600c602090815260409182902080548351601f60026000196101006001861615020190931692909204918201849004840281018401909452808452606093928301828280156111125780601f106110e757610100808354040283529160200191611112565b820191906000526020600020905b8154815290600101906020018083116110f557829003601f168201915b505050505090508051600014156111395750506040805160208101909152600081526106bf565b600b81604051602001808380546001816001161561010002031660029004801561119a5780601f1061117857610100808354040283529182019161119a565b820191906000526020600020905b815481529060010190602001808311611186575b5050825160208401908083835b602083106111c65780518252601f1990920191602091820191016111a7565b6001836020036101000a038019825116818451168082178552505050505050905001925050506040516020818303038152906040529150506106bf565b6001600160a01b03918216600090815260046020908152604080832093909416825291909152205460ff1690565b600e546001600160a01b031681565b611248610d9f565b611299576040805162461bcd60e51b815260206004820181905260248201527f4f776e61626c653a2063616c6c6572206973206e6f7420746865206f776e6572604482015290519081900360640190fd5b6112a281611747565b50565b6000908152600160205260409020546001600160a01b0316151590565b3390565b600081815260026020526040902080546001600160a01b0319166001600160a01b03841690811790915581906112fb82610b2d565b6001600160a01b03167f8c5be1e5ebec7d5bd14f71427d1e84f3dd0314c0f7b2291e5b200ac8c7c3b92560405160405180910390a45050565b61133d826112a5565b6113785760405162461bcd60e51b815260040180806020018281038252602c8152602001806120f6602c913960400191505060405180910390fd5b6000828152600c60209081526040909120825161089392840190611e6b565b60006113a2826112a5565b6113dd5760405162461bcd60e51b815260040180806020018281038252602c815260200180612013602c913960400191505060405180910390fd5b60006113e883610b2d565b9050806001600160a01b0316846001600160a01b031614806114235750836001600160a01b03166114188461075b565b6001600160a01b0316145b8061143357506114338185611203565b949350505050565b826001600160a01b031661144e82610b2d565b6001600160a01b0316146114935760405162461bcd60e51b81526004018080602001828103825260298152602001806121226029913960400191505060405180910390fd5b6001600160a01b0382166114d85760405162461bcd60e51b8152600401808060200182810382526024815260200180611fef6024913960400191505060405180910390fd5b6114e38383836117e8565b6114ee6000826112c6565b6001600160a01b038316600090815260036020526040902061150f906117f3565b6001600160a01b03821660009081526003602052604090206115309061180a565b60008181526001602052604080822080546001600160a01b0319166001600160a01b0386811691821790925591518493918716917fddf252ad1be2c89b69c2b068fc378daa952ba7f163c4a11628f55a4df523b3ef91a4505050565b604080516302571be360e01b81527f91d1777781884d03a6757a803996e38de2a42967fb37eeaca72729271025a9e2600482015290516001600160a01b038416916302571be3916024808301926020929190829003018186803b1580156115f257600080fd5b505afa158015611606573d6000803e3d6000fd5b505050506040513d602081101561161c57600080fd5b505160405163c47f002760e01b81526020600482018181528451602484015284516001600160a01b039094169363c47f002793869383926044909201919085019080838360005b8381101561167b578181015183820152602001611663565b50505050905090810190601f1680156116a85780820380516001836020036101000a031916815260200191505b5092505050602060405180830381600087803b1580156116c757600080fd5b505af11580156116db573d6000803e3d6000fd5b505050506040513d6020811015610f8357600080fd5b5490565b61170084848461143b565b61170c84848484611813565b610f835760405162461bcd60e51b8152600401808060200182810382526032815260200180611f976032913960400191505060405180910390fd5b6001600160a01b03811661178c5760405162461bcd60e51b8152600401808060200182810382526026815260200180611fc96026913960400191505060405180910390fd5b600d546040516001600160a01b038084169216907f8be0079c531659141344cd1fd0a4f28419497f9722a3daafe3b4186f6b6457e090600090a3600d80546001600160a01b0319166001600160a01b0392909216919091179055565b610893838383611a4e565b805461180690600163ffffffff611aa516565b9055565b80546001019055565b6000611827846001600160a01b0316611aee565b61183357506001611433565b600060606001600160a01b038616630a85bd0160e11b6118516112c2565b89888860405160240180856001600160a01b03166001600160a01b03168152602001846001600160a01b03166001600160a01b0316815260200183815260200180602001828103825283818151815260200191508051906020019080838360005b838110156118ca5781810151838201526020016118b2565b50505050905090810190601f1680156118f75780820380516001836020036101000a031916815260200191505b5060408051601f198184030181529181526020820180516001600160e01b03166001600160e01b0319909a16999099178952518151919890975087965094509250829150849050835b6020831061195f5780518252601f199092019160209182019101611940565b6001836020036101000a0380198251168184511680821785525050505050509050019150506000604051808303816000865af19150503d80600081146119c1576040519150601f19603f3d011682016040523d82523d6000602084013e6119c6565b606091505b509150915081611a17578051156119e05780518082602001fd5b60405162461bcd60e51b8152600401808060200182810382526032815260200180611f976032913960400191505060405180910390fd5b6000818060200190516020811015611a2e57600080fd5b50516001600160e01b031916630a85bd0160e11b14935061143392505050565b611a59838383611b27565b6001600160a01b038216610893576000818152600c60205260409020546002600019610100600184161502019091160415610893576000818152600c6020526040812061089391611ee9565b6000611ae783836040518060400160405280601e81526020017f536166654d6174683a207375627472616374696f6e206f766572666c6f770000815250611b9c565b9392505050565b6000813f7fc5d2460186f7233c927e7db2dcc703c0e500b653ca82273b7bfad8045d85a470818114801590611433575050151592915050565b611b32838383610893565b6001600160a01b038316611b5857611b4a8282611c33565b611b5381611c71565b610893565b6001600160a01b038216611b8857611b708382611cb5565b600081815260066020526040812055611b5381611db7565b611b928382611cb5565b6108938282611c33565b60008184841115611c2b5760405162461bcd60e51b81526004018080602001828103825283818151815260200191508051906020019080838360005b83811015611bf0578181015183820152602001611bd8565b50505050905090810190601f168015611c1d5780820380516001836020036101000a031916815260200191505b509250505060405180910390fd5b505050900390565b6001600160a01b0390911660009081526005602081815260408084208054868652600684529185208290559282526001810183559183529091200155565b600780546000838152600860205260408120829055600182018355919091527fa66cc928b5edb82af9bd49922954155ab7b0942694bea4ce44661d9a8736c6880155565b6001600160a01b038216600090815260056020526040812054611cdf90600163ffffffff611aa516565b600083815260066020526040902054909150808214611d7a576001600160a01b0384166000908152600560205260408120805484908110611d1c57fe5b906000526020600020015490508060056000876001600160a01b03166001600160a01b031681526020019081526020016000208381548110611d5a57fe5b600091825260208083209091019290925591825260069052604090208190555b6001600160a01b0384166000908152600560205260409020805480611d9b57fe5b6001900381819060005260206000200160009055905550505050565b600754600090611dce90600163ffffffff611aa516565b60008381526008602052604081205460078054939450909284908110611df057fe5b906000526020600020015490508060078381548110611e0b57fe5b60009182526020808320909101929092558281526008909152604090208290556007805480611e3657fe5b600190038181906000526020600020016000905590556000600860008681526020019081526020016000208190555050505050565b828054600181600116156101000203166002900490600052602060002090601f016020900481019282601f10611eac57805160ff1916838001178555611ed9565b82800160010185558215611ed9579182015b82811115611ed9578251825591602001919060010190611ebe565b50611ee5929150611f29565b5090565b50805460018160011615610100020316600290046000825580601f10611f0f57506112a2565b601f0160209004906000526020600020908101906112a291905b61075891905b80821115611ee55760008155600101611f2f56fe4552433732313a20616363657373207265737472696374656420746f20746f6b656e206f776e6572455243373231456e756d657261626c653a206f776e657220696e646578206f7574206f6620626f756e64734552433732313a207472616e7366657220746f206e6f6e20455243373231526563656976657220696d706c656d656e7465724f776e61626c653a206e6577206f776e657220697320746865207a65726f20616464726573734552433732313a207472616e7366657220746f20746865207a65726f20616464726573734552433732313a206f70657261746f7220717565727920666f72206e6f6e6578697374656e7420746f6b656e4552433732313a20617070726f76652063616c6c6572206973206e6f74206f776e6572206e6f7220617070726f76656420666f7220616c6c4552433732313a2062616c616e636520717565727920666f7220746865207a65726f20616464726573734552433732313a206f776e657220717565727920666f72206e6f6e6578697374656e7420746f6b656e4552433732313a20617070726f76656420717565727920666f72206e6f6e6578697374656e7420746f6b656e4552433732314d657461646174613a2055524920736574206f66206e6f6e6578697374656e7420746f6b656e4552433732313a207472616e73666572206f6620746f6b656e2074686174206973206e6f74206f776e4552433732314d657461646174613a2055524920717565727920666f72206e6f6e6578697374656e7420746f6b656e4552433732313a20617070726f76616c20746f2063757272656e74206f776e65724552433732313a207472616e736665722063616c6c6572206973206e6f74206f776e6572206e6f7220617070726f766564455243373231456e756d657261626c653a20676c6f62616c20696e646578206f7574206f6620626f756e6473a2646970667358221220c57a2bb9ed1183416c3409703cbad31adb34c5ab0715a241cd5f719390621c1b64736f6c63430006030033608060405234801561001057600080fd5b506103ad806100206000396000f3fe6080604052600436106100225760003560e01c8063d1f578941461003957610031565b366100315761002f6100ef565b005b61002f6100ef565b61002f6004803603604081101561004f57600080fd5b6001600160a01b03823516919081019060408101602082013564010000000081111561007a57600080fd5b82018360208201111561008c57600080fd5b803590602001918460018302840111640100000000831117156100ae57600080fd5b91908080601f016020809104026020016040519081016040528093929190818152602001838380828437600092019190915250929550610109945050505050565b6100f7610107565b61010761010261022c565b610251565b565b600061011361022c565b6001600160a01b03161461012657600080fd5b60405180602361031a82396040519081900360230190207f7050c9e0f4ca769c69bd3a8ef740bc37934f8e2c036e5a723fd8ee048ed3f8c314905061016757fe5b61017082610275565b805115610228576000826001600160a01b0316826040518082805190602001908083835b602083106101b35780518252601f199092019160209182019101610194565b6001836020036101000a038019825116818451168082178552505050505050905001915050600060405180830381855af49150503d8060008114610213576040519150601f19603f3d011682016040523d82523d6000602084013e610218565b606091505b505090508061022657600080fd5b505b5050565b7f7050c9e0f4ca769c69bd3a8ef740bc37934f8e2c036e5a723fd8ee048ed3f8c35490565b3660008037600080366000845af43d6000803e808015610270573d6000f35b3d6000fd5b61027e816102dd565b6102b95760405162461bcd60e51b815260040180806020018281038252603b81526020018061033d603b913960400191505060405180910390fd5b7f7050c9e0f4ca769c69bd3a8ef740bc37934f8e2c036e5a723fd8ee048ed3f8c355565b6000813f7fc5d2460186f7233c927e7db2dcc703c0e500b653ca82273b7bfad8045d85a47081811480159061031157508115155b94935050505056fe6f72672e7a657070656c696e6f732e70726f78792e696d706c656d656e746174696f6e43616e6e6f742073657420612070726f787920696d706c656d656e746174696f6e20746f2061206e6f6e2d636f6e74726163742061646472657373a2646970667358221220c689741fe0e4d8735c2255691a7e0a15905936266210ddbdcdfd5d74591399df64736f6c63430006030033",
  "source": "pragma solidity ^0.6.0;\n\nimport \"@iexec/solidity/contracts/ENStools/ENSReverseRegistration.sol\";\nimport \"@iexec/solidity/contracts/Upgradeability/InitializableUpgradeabilityProxy.sol\";\nimport \"@openzeppelin/contracts/ownership/Ownable.sol\";\nimport \"@openzeppelin/contracts/token/ERC721/ERC721Full.sol\";\nimport \"@openzeppelin/contracts/utils/Create2.sol\";\nimport \"./IRegistry.sol\";\n\n\ncontract Registry is IRegistry, ERC721Full, ENSReverseRegistration, Ownable\n{\n\taddress   public master;\n\tbytes     public proxyCode;\n\tIRegistry public previous;\n\n\tconstructor(\n\t\taddress       _master,\n\t\tstring memory _name,\n\t\tstring memory _symbol,\n\t\taddress       _previous)\n\tpublic ERC721Full(_name, _symbol)\n\t{\n\t\tmaster    = _master;\n\t\tproxyCode = type(InitializableUpgradeabilityProxy).creationCode;\n\t\tprevious  = IRegistry(_previous);\n\t}\n\n\t/* Factory */\n\tfunction _mintCreate(\n\t\taddress      _owner,\n\t\tbytes memory _args)\n\tinternal returns (uint256)\n\t{\n\t\t// Create entry (proxy)\n\t\taddress entry = Create2.deploy(keccak256(abi.encodePacked(_args, _owner)), proxyCode);\n\t\t// Initialize entry (casting to address payable is a pain in ^0.5.0)\n\t\tInitializableUpgradeabilityProxy(address(uint160(entry))).initialize(master, _args);\n\t\t// Mint corresponding token\n\t\t_mint(_owner, uint256(entry));\n\t\treturn uint256(entry);\n\t}\n\n\t/* Interface */\n\tfunction isRegistered(address _entry)\n\texternal view override returns (bool)\n\t{\n\t\treturn _exists(uint256(_entry)) || (address(previous) != address(0) && previous.isRegistered(_entry));\n\t}\n\n\tfunction setName(address _ens, string calldata _name)\n\texternal onlyOwner()\n\t{\n\t\t_setName(ENS(_ens), _name);\n\t}\n\n\tfunction setTokenURI(uint256 _tokenId, string calldata _uri)\n\texternal\n\t{\n\t\trequire(_msgSender() == ownerOf(_tokenId), \"ERC721: access restricted to token owner\");\n\t\t_setTokenURI(_tokenId, _uri);\n\t}\n}\n",
  "sourcePath": "/home/amxx/Work/iExec/code/PoCo-dev/contracts/registries/Registry.sol",
  "compiler": {
    "name": "solc",
    "version": "0.6.3+commit.8dda9521.Emscripten.clang"
  },
  "schemaVersion": "3.0.23",
  "updatedAt": "2020-03-03T23:51:48.446Z",
  "devdoc": {
    "methods": {
      "approve(address,uint256)": {
        "details": "Approves another address to transfer the given token ID The zero address indicates there is no approved address. There can only be one approved address per token at a given time. Can only be called by the token owner or an approved operator.",
        "params": {
          "to": "address to be approved for the given token ID",
          "tokenId": "uint256 ID of the token to be approved"
        }
      },
      "balanceOf(address)": {
        "details": "Gets the balance of the specified address.",
        "params": {
          "owner": "address to query the balance of"
        },
        "returns": {
          "_0": "uint256 representing the amount owned by the passed address"
        }
      },
      "baseURI()": {
        "details": "Returns the base URI set via {_setBaseURI}. This will be automatically added as a preffix in {tokenURI} to each token's URI, when they are non-empty.    * _Available since v2.5.0._"
      },
      "getApproved(uint256)": {
        "details": "Gets the approved address for a token ID, or zero if no address set Reverts if the token ID does not exist.",
        "params": {
          "tokenId": "uint256 ID of the token to query the approval of"
        },
        "returns": {
          "_0": "address currently approved for the given token ID"
        }
      },
      "isApprovedForAll(address,address)": {
        "details": "Tells whether an operator is approved by a given owner.",
        "params": {
          "operator": "operator address which you want to query the approval of",
          "owner": "owner address which you want to query the approval of"
        },
        "returns": {
          "_0": "bool whether the given operator is approved by the given owner"
        }
      },
      "isOwner()": {
        "details": "Returns true if the caller is the current owner."
      },
      "name()": {
        "details": "Gets the token name.",
        "returns": {
          "_0": "string representing the token name"
        }
      },
      "owner()": {
        "details": "Returns the address of the current owner."
      },
      "ownerOf(uint256)": {
        "details": "Gets the owner of the specified token ID.",
        "params": {
          "tokenId": "uint256 ID of the token to query the owner of"
        },
        "returns": {
          "_0": "address currently marked as the owner of the given token ID"
        }
      },
      "renounceOwnership()": {
        "details": "Leaves the contract without owner. It will not be possible to call `onlyOwner` functions anymore. Can only be called by the current owner.     * NOTE: Renouncing ownership will leave the contract without an owner, thereby removing any functionality that is only available to the owner."
      },
      "safeTransferFrom(address,address,uint256)": {
        "details": "Safely transfers the ownership of a given token ID to another address If the target address is a contract, it must implement {IERC721Receiver-onERC721Received}, which is called upon a safe transfer, and return the magic value `bytes4(keccak256(\"onERC721Received(address,address,uint256,bytes)\"))`; otherwise, the transfer is reverted. Requires the msg.sender to be the owner, approved, or operator",
        "params": {
          "from": "current owner of the token",
          "to": "address to receive the ownership of the given token ID",
          "tokenId": "uint256 ID of the token to be transferred"
        }
      },
      "safeTransferFrom(address,address,uint256,bytes)": {
        "details": "Safely transfers the ownership of a given token ID to another address If the target address is a contract, it must implement {IERC721Receiver-onERC721Received}, which is called upon a safe transfer, and return the magic value `bytes4(keccak256(\"onERC721Received(address,address,uint256,bytes)\"))`; otherwise, the transfer is reverted. Requires the _msgSender() to be the owner, approved, or operator",
        "params": {
          "_data": "bytes data to send along with a safe transfer check",
          "from": "current owner of the token",
          "to": "address to receive the ownership of the given token ID",
          "tokenId": "uint256 ID of the token to be transferred"
        }
      },
      "setApprovalForAll(address,bool)": {
        "details": "Sets or unsets the approval of a given operator An operator is allowed to transfer all tokens of the sender on their behalf.",
        "params": {
          "approved": "representing the status of the approval to be set",
          "operator": "operator address to set the approval"
        }
      },
      "supportsInterface(bytes4)": {
        "details": "See {IERC165-supportsInterface}.     * Time complexity O(1), guaranteed to always use less than 30 000 gas."
      },
      "symbol()": {
        "details": "Gets the token symbol.",
        "returns": {
          "_0": "string representing the token symbol"
        }
      },
      "tokenByIndex(uint256)": {
        "details": "Gets the token ID at a given index of all the tokens in this contract Reverts if the index is greater or equal to the total number of tokens.",
        "params": {
          "index": "uint256 representing the index to be accessed of the tokens list"
        },
        "returns": {
          "_0": "uint256 token ID at the given index of the tokens list"
        }
      },
      "tokenOfOwnerByIndex(address,uint256)": {
        "details": "Gets the token ID at a given index of the tokens list of the requested owner.",
        "params": {
          "index": "uint256 representing the index to be accessed of the requested tokens list",
          "owner": "address owning the tokens list to be accessed"
        },
        "returns": {
          "_0": "uint256 token ID at the given index of the tokens list owned by the requested address"
        }
      },
      "tokenURI(uint256)": {
        "details": "Returns the URI for a given token ID. May return an empty string.     * If the token's URI is non-empty and a base URI was set (via {_setBaseURI}), it will be added to the token ID's URI as a prefix.     * Reverts if the token ID does not exist."
      },
      "totalSupply()": {
        "details": "Gets the total amount of tokens stored by the contract.",
        "returns": {
          "_0": "uint256 representing the total amount of tokens"
        }
      },
      "transferFrom(address,address,uint256)": {
        "details": "Transfers the ownership of a given token ID to another address. Usage of this method is discouraged, use {safeTransferFrom} whenever possible. Requires the msg.sender to be the owner, approved, or operator.",
        "params": {
          "from": "current owner of the token",
          "to": "address to receive the ownership of the given token ID",
          "tokenId": "uint256 ID of the token to be transferred"
        }
      },
      "transferOwnership(address)": {
        "details": "Transfers ownership of the contract to a new account (`newOwner`). Can only be called by the current owner."
      }
    }
  },
  "userdoc": {
    "methods": {}
  }
}