{
  "contractName": "Registry",
  "abi": [
    {
      "inputs": [
        {
          "internalType": "address",
          "name": "_master",
          "type": "address"
        },
        {
          "internalType": "string",
          "name": "_name",
          "type": "string"
        },
        {
          "internalType": "string",
          "name": "_symbol",
          "type": "string"
        }
      ],
      "stateMutability": "nonpayable",
      "type": "constructor"
    },
    {
      "anonymous": false,
      "inputs": [
        {
          "indexed": true,
          "internalType": "address",
          "name": "owner",
          "type": "address"
        },
        {
          "indexed": true,
          "internalType": "address",
          "name": "approved",
          "type": "address"
        },
        {
          "indexed": true,
          "internalType": "uint256",
          "name": "tokenId",
          "type": "uint256"
        }
      ],
      "name": "Approval",
      "type": "event"
    },
    {
      "anonymous": false,
      "inputs": [
        {
          "indexed": true,
          "internalType": "address",
          "name": "owner",
          "type": "address"
        },
        {
          "indexed": true,
          "internalType": "address",
          "name": "operator",
          "type": "address"
        },
        {
          "indexed": false,
          "internalType": "bool",
          "name": "approved",
          "type": "bool"
        }
      ],
      "name": "ApprovalForAll",
      "type": "event"
    },
    {
      "anonymous": false,
      "inputs": [
        {
          "indexed": true,
          "internalType": "address",
          "name": "previousOwner",
          "type": "address"
        },
        {
          "indexed": true,
          "internalType": "address",
          "name": "newOwner",
          "type": "address"
        }
      ],
      "name": "OwnershipTransferred",
      "type": "event"
    },
    {
      "anonymous": false,
      "inputs": [
        {
          "indexed": true,
          "internalType": "address",
          "name": "from",
          "type": "address"
        },
        {
          "indexed": true,
          "internalType": "address",
          "name": "to",
          "type": "address"
        },
        {
          "indexed": true,
          "internalType": "uint256",
          "name": "tokenId",
          "type": "uint256"
        }
      ],
      "name": "Transfer",
      "type": "event"
    },
    {
      "inputs": [
        {
          "internalType": "address",
          "name": "to",
          "type": "address"
        },
        {
          "internalType": "uint256",
          "name": "tokenId",
          "type": "uint256"
        }
      ],
      "name": "approve",
      "outputs": [],
      "stateMutability": "nonpayable",
      "type": "function"
    },
    {
      "inputs": [
        {
          "internalType": "address",
          "name": "owner",
          "type": "address"
        }
      ],
      "name": "balanceOf",
      "outputs": [
        {
          "internalType": "uint256",
          "name": "",
          "type": "uint256"
        }
      ],
      "stateMutability": "view",
      "type": "function"
    },
    {
      "inputs": [],
      "name": "baseURI",
      "outputs": [
        {
          "internalType": "string",
          "name": "",
          "type": "string"
        }
      ],
      "stateMutability": "view",
      "type": "function"
    },
    {
      "inputs": [
        {
          "internalType": "uint256",
          "name": "tokenId",
          "type": "uint256"
        }
      ],
      "name": "getApproved",
      "outputs": [
        {
          "internalType": "address",
          "name": "",
          "type": "address"
        }
      ],
      "stateMutability": "view",
      "type": "function"
    },
    {
      "inputs": [],
      "name": "initialized",
      "outputs": [
        {
          "internalType": "bool",
          "name": "",
          "type": "bool"
        }
      ],
      "stateMutability": "view",
      "type": "function"
    },
    {
      "inputs": [
        {
          "internalType": "address",
          "name": "owner",
          "type": "address"
        },
        {
          "internalType": "address",
          "name": "operator",
          "type": "address"
        }
      ],
      "name": "isApprovedForAll",
      "outputs": [
        {
          "internalType": "bool",
          "name": "",
          "type": "bool"
        }
      ],
      "stateMutability": "view",
      "type": "function"
    },
    {
      "inputs": [],
      "name": "isOwner",
      "outputs": [
        {
          "internalType": "bool",
          "name": "",
          "type": "bool"
        }
      ],
      "stateMutability": "view",
      "type": "function"
    },
    {
      "inputs": [],
      "name": "master",
      "outputs": [
        {
          "internalType": "address",
          "name": "",
          "type": "address"
        }
      ],
      "stateMutability": "view",
      "type": "function"
    },
    {
      "inputs": [],
      "name": "name",
      "outputs": [
        {
          "internalType": "string",
          "name": "",
          "type": "string"
        }
      ],
      "stateMutability": "view",
      "type": "function"
    },
    {
      "inputs": [],
      "name": "owner",
      "outputs": [
        {
          "internalType": "address",
          "name": "",
          "type": "address"
        }
      ],
      "stateMutability": "view",
      "type": "function"
    },
    {
      "inputs": [
        {
          "internalType": "uint256",
          "name": "tokenId",
          "type": "uint256"
        }
      ],
      "name": "ownerOf",
      "outputs": [
        {
          "internalType": "address",
          "name": "",
          "type": "address"
        }
      ],
      "stateMutability": "view",
      "type": "function"
    },
    {
      "inputs": [],
      "name": "previous",
      "outputs": [
        {
          "internalType": "contract IRegistry",
          "name": "",
          "type": "address"
        }
      ],
      "stateMutability": "view",
      "type": "function"
    },
    {
      "inputs": [],
      "name": "proxyCode",
      "outputs": [
        {
          "internalType": "bytes",
          "name": "",
          "type": "bytes"
        }
      ],
      "stateMutability": "view",
      "type": "function"
    },
    {
      "inputs": [],
      "name": "renounceOwnership",
      "outputs": [],
      "stateMutability": "nonpayable",
      "type": "function"
    },
    {
      "inputs": [
        {
          "internalType": "address",
          "name": "from",
          "type": "address"
        },
        {
          "internalType": "address",
          "name": "to",
          "type": "address"
        },
        {
          "internalType": "uint256",
          "name": "tokenId",
          "type": "uint256"
        }
      ],
      "name": "safeTransferFrom",
      "outputs": [],
      "stateMutability": "nonpayable",
      "type": "function"
    },
    {
      "inputs": [
        {
          "internalType": "address",
          "name": "from",
          "type": "address"
        },
        {
          "internalType": "address",
          "name": "to",
          "type": "address"
        },
        {
          "internalType": "uint256",
          "name": "tokenId",
          "type": "uint256"
        },
        {
          "internalType": "bytes",
          "name": "_data",
          "type": "bytes"
        }
      ],
      "name": "safeTransferFrom",
      "outputs": [],
      "stateMutability": "nonpayable",
      "type": "function"
    },
    {
      "inputs": [
        {
          "internalType": "address",
          "name": "operator",
          "type": "address"
        },
        {
          "internalType": "bool",
          "name": "approved",
          "type": "bool"
        }
      ],
      "name": "setApprovalForAll",
      "outputs": [],
      "stateMutability": "nonpayable",
      "type": "function"
    },
    {
      "inputs": [
        {
          "internalType": "bytes4",
          "name": "interfaceId",
          "type": "bytes4"
        }
      ],
      "name": "supportsInterface",
      "outputs": [
        {
          "internalType": "bool",
          "name": "",
          "type": "bool"
        }
      ],
      "stateMutability": "view",
      "type": "function"
    },
    {
      "inputs": [],
      "name": "symbol",
      "outputs": [
        {
          "internalType": "string",
          "name": "",
          "type": "string"
        }
      ],
      "stateMutability": "view",
      "type": "function"
    },
    {
      "inputs": [
        {
          "internalType": "uint256",
          "name": "index",
          "type": "uint256"
        }
      ],
      "name": "tokenByIndex",
      "outputs": [
        {
          "internalType": "uint256",
          "name": "",
          "type": "uint256"
        }
      ],
      "stateMutability": "view",
      "type": "function"
    },
    {
      "inputs": [
        {
          "internalType": "address",
          "name": "owner",
          "type": "address"
        },
        {
          "internalType": "uint256",
          "name": "index",
          "type": "uint256"
        }
      ],
      "name": "tokenOfOwnerByIndex",
      "outputs": [
        {
          "internalType": "uint256",
          "name": "",
          "type": "uint256"
        }
      ],
      "stateMutability": "view",
      "type": "function"
    },
    {
      "inputs": [
        {
          "internalType": "uint256",
          "name": "tokenId",
          "type": "uint256"
        }
      ],
      "name": "tokenURI",
      "outputs": [
        {
          "internalType": "string",
          "name": "",
          "type": "string"
        }
      ],
      "stateMutability": "view",
      "type": "function"
    },
    {
      "inputs": [],
      "name": "totalSupply",
      "outputs": [
        {
          "internalType": "uint256",
          "name": "",
          "type": "uint256"
        }
      ],
      "stateMutability": "view",
      "type": "function"
    },
    {
      "inputs": [
        {
          "internalType": "address",
          "name": "from",
          "type": "address"
        },
        {
          "internalType": "address",
          "name": "to",
          "type": "address"
        },
        {
          "internalType": "uint256",
          "name": "tokenId",
          "type": "uint256"
        }
      ],
      "name": "transferFrom",
      "outputs": [],
      "stateMutability": "nonpayable",
      "type": "function"
    },
    {
      "inputs": [
        {
          "internalType": "address",
          "name": "newOwner",
          "type": "address"
        }
      ],
      "name": "transferOwnership",
      "outputs": [],
      "stateMutability": "nonpayable",
      "type": "function"
    },
    {
      "inputs": [
        {
          "internalType": "address",
          "name": "_previous",
          "type": "address"
        }
      ],
      "name": "initialize",
      "outputs": [],
      "stateMutability": "nonpayable",
      "type": "function"
    },
    {
      "inputs": [
        {
          "internalType": "address",
          "name": "_entry",
          "type": "address"
        }
      ],
      "name": "isRegistered",
      "outputs": [
        {
          "internalType": "bool",
          "name": "",
          "type": "bool"
        }
      ],
      "stateMutability": "view",
      "type": "function"
    },
    {
      "inputs": [
        {
          "internalType": "address",
          "name": "_ens",
          "type": "address"
        },
        {
          "internalType": "string",
          "name": "_name",
          "type": "string"
        }
      ],
      "name": "setName",
      "outputs": [],
      "stateMutability": "nonpayable",
      "type": "function"
    },
    {
      "inputs": [
        {
          "internalType": "uint256",
          "name": "_tokenId",
          "type": "uint256"
        },
        {
          "internalType": "string",
          "name": "_uri",
          "type": "string"
        }
      ],
      "name": "setTokenURI",
      "outputs": [],
      "stateMutability": "nonpayable",
      "type": "function"
    }
  ],
  "bytecode": "0x60806040523480156200001157600080fd5b5060405162002b2938038062002b29833981810160405260608110156200003757600080fd5b8151602083018051604051929492938301929190846401000000008211156200005f57600080fd5b9083019060208201858111156200007557600080fd5b82516401000000008111828201881017156200009057600080fd5b82525081516020918201929091019080838360005b83811015620000bf578181015183820152602001620000a5565b50505050905090810190601f168015620000ed5780820380516001836020036101000a031916815260200191505b50604052602001805160405193929190846401000000008211156200011157600080fd5b9083019060208201858111156200012757600080fd5b82516401000000008111828201881017156200014257600080fd5b82525081516020918201929091019080838360005b838110156200017157818101518382015260200162000157565b50505050905090810190601f1680156200019f5780820380516001836020036101000a031916815260200191505b50604052508391508290508181620001c76301ffc9a760e01b6001600160e01b036200030816565b620001e26380ac58cd60e01b6001600160e01b036200030816565b620001fd63780e9d6360e01b6001600160e01b036200030816565b81516200021290600990602085019062000392565b5080516200022890600a90602084019062000392565b5062000244635b5e139f60e01b6001600160e01b036200030816565b5050505060006200025a6200038d60201b60201c565b600d80546001600160a01b0319166001600160a01b038316908117909155604051919250906000907f8be0079c531659141344cd1fd0a4f28419497f9722a3daafe3b4186f6b6457e0908290a350600e80546001600160a01b0319166001600160a01b038516179055604051620002d46020820162000417565b601f1982820381018352601f909101166040528051620002fe91600f916020919091019062000392565b5050505062000442565b6001600160e01b0319808216141562000368576040805162461bcd60e51b815260206004820152601c60248201527f4552433136353a20696e76616c696420696e7465726661636520696400000000604482015290519081900360640190fd5b6001600160e01b0319166000908152602081905260409020805460ff19166001179055565b335b90565b828054600181600116156101000203166002900490600052602060002090601f016020900481019282601f10620003d557805160ff191683800117855562000405565b8280016001018555821562000405579182015b8281111562000405578251825591602001919060010190620003e8565b506200041392915062000425565b5090565b6103cd806200275c83390190565b6200038f91905b808211156200041357600081556001016200042c565b61230a80620004526000396000f3fe608060405234801561001057600080fd5b50600436106101cf5760003560e01c80636fa59bbc11610104578063a22cb465116100a2578063c87b56dd11610071578063c87b56dd1461067c578063e985e9c514610699578063ee97f7f3146106c7578063f2fde38b146106cf576101cf565b8063a22cb4651461053c578063b88d4fde1461056a578063c3c5a54714610630578063c4d66de814610656576101cf565b80637c2b2e71116100de5780637c2b2e711461051c5780638da5cb5b146105245780638f32d59b1461052c57806395d89b4114610534576101cf565b80636fa59bbc146104e657806370a08231146104ee578063715018a614610514576101cf565b806323b872dd1161017157806342842e0e1161014b57806342842e0e1461046e5780634f6ccce7146104a45780636352211e146104c15780636c0360eb146104de576101cf565b806323b872dd1461038c5780632f745c59146103c25780633121db1c146103ee576101cf565b8063095ea7b3116101ad578063095ea7b3146102c5578063158ef93e146102f3578063162094c4146102fb57806318160ddd14610372576101cf565b806301ffc9a7146101d457806306fdde031461020f578063081812fc1461028c575b600080fd5b6101fb600480360360208110156101ea57600080fd5b50356001600160e01b0319166106f5565b604080519115158252519081900360200190f35b610217610718565b6040805160208082528351818301528351919283929083019185019080838360005b83811015610251578181015183820152602001610239565b50505050905090810190601f16801561027e5780820380516001836020036101000a031916815260200191505b509250505060405180910390f35b6102a9600480360360208110156102a257600080fd5b50356107af565b604080516001600160a01b039092168252519081900360200190f35b6102f1600480360360408110156102db57600080fd5b506001600160a01b038135169060200135610811565b005b6101fb6108ec565b6102f16004803603604081101561031157600080fd5b8135919081019060408101602082013564010000000081111561033357600080fd5b82018360208201111561034557600080fd5b8035906020019184600183028401116401000000008311171561036757600080fd5b5090925090506108fc565b61037a61099b565b60408051918252519081900360200190f35b6102f1600480360360608110156103a257600080fd5b506001600160a01b038135811691602081013590911690604001356109a1565b61037a600480360360408110156103d857600080fd5b506001600160a01b0381351690602001356109f8565b6102f16004803603604081101561040457600080fd5b6001600160a01b03823516919081019060408101602082013564010000000081111561042f57600080fd5b82018360208201111561044157600080fd5b8035906020019184600183028401116401000000008311171561046357600080fd5b509092509050610a77565b6102f16004803603606081101561048457600080fd5b506001600160a01b03813581169160208101359091169060400135610afe565b61037a600480360360208110156104ba57600080fd5b5035610b19565b6102a9600480360360208110156104d757600080fd5b5035610b7f565b610217610bd9565b610217610c3a565b61037a6004803603602081101561050457600080fd5b50356001600160a01b0316610cc8565b6102f1610d30565b6102a9610dc1565b6102a9610dd0565b6101fb610ddf565b610217610e05565b6102f16004803603604081101561055257600080fd5b506001600160a01b0381351690602001351515610e66565b6102f16004803603608081101561058057600080fd5b6001600160a01b038235811692602081013590911691604082013591908101906080810160608201356401000000008111156105bb57600080fd5b8201836020820111156105cd57600080fd5b803590602001918460018302840111640100000000831117156105ef57600080fd5b91908080601f016020809104026020016040519081016040528093929190818152602001838380828437600092019190915250929550610f6b945050505050565b6101fb6004803603602081101561064657600080fd5b50356001600160a01b0316610fc9565b6102f16004803603602081101561066c57600080fd5b50356001600160a01b0316611077565b6102176004803603602081101561069257600080fd5b5035611106565b6101fb600480360360408110156106af57600080fd5b506001600160a01b03813581169160200135166112d2565b6102a9611300565b6102f1600480360360208110156106e557600080fd5b50356001600160a01b031661130f565b6001600160e01b0319811660009081526020819052604090205460ff165b919050565b60098054604080516020601f60026000196101006001881615020190951694909404938401819004810282018101909252828152606093909290918301828280156107a45780601f10610779576101008083540402835291602001916107a4565b820191906000526020600020905b81548152906001019060200180831161078757829003601f168201915b505050505090505b90565b60006107ba82611362565b6107f55760405162461bcd60e51b815260040180806020018281038252602c815260200180612187602c913960400191505060405180910390fd5b506000908152600260205260409020546001600160a01b031690565b600061081c82610b7f565b9050806001600160a01b0316836001600160a01b0316141561086f5760405162461bcd60e51b81526004018080602001828103825260218152602001806122576021913960400191505060405180910390fd5b806001600160a01b031661088161137f565b6001600160a01b031614806108a257506108a28161089d61137f565b6112d2565b6108dd5760405162461bcd60e51b81526004018080602001828103825260388152602001806120fc6038913960400191505060405180910390fd5b6108e78383611383565b505050565b601054600160a01b900460ff1681565b61090583610b7f565b6001600160a01b031661091661137f565b6001600160a01b03161461095b5760405162461bcd60e51b81526004018080602001828103825260288152602001806120016028913960400191505060405180910390fd5b6108e78383838080601f0160208091040260200160405190810160405280939291908181526020018383808284376000920191909152506113f192505050565b60075490565b6109b26109ac61137f565b82611454565b6109ed5760405162461bcd60e51b81526004018080602001828103825260318152602001806122786031913960400191505060405180910390fd5b6108e78383836114f8565b6000610a0383610cc8565b8210610a405760405162461bcd60e51b815260040180806020018281038252602b815260200180612029602b913960400191505060405180910390fd5b6001600160a01b0383166000908152600560205260409020805483908110610a6457fe5b9060005260206000200154905092915050565b610a7f610ddf565b610abe576040805162461bcd60e51b815260206004820181905260248201526000805160206121df833981519152604482015290519081900360640190fd5b6108e78383838080601f01602080910402602001604051908101604052809392919081815260200183838082843760009201919091525061164992505050565b6108e783838360405180602001604052806000815250610f6b565b6000610b2361099b565b8210610b605760405162461bcd60e51b815260040180806020018281038252602c8152602001806122a9602c913960400191505060405180910390fd5b60078281548110610b6d57fe5b90600052602060002001549050919050565b6000818152600160205260408120546001600160a01b031680610bd35760405162461bcd60e51b815260040180806020018281038252602981526020018061215e6029913960400191505060405180910390fd5b92915050565b600b8054604080516020601f60026000196101006001881615020190951694909404938401819004810282018101909252828152606093909290918301828280156107a45780601f10610779576101008083540402835291602001916107a4565b600f805460408051602060026001851615610100026000190190941693909304601f81018490048402820184019092528181529291830182828015610cc05780601f10610c9557610100808354040283529160200191610cc0565b820191906000526020600020905b815481529060010190602001808311610ca357829003601f168201915b505050505081565b60006001600160a01b038216610d0f5760405162461bcd60e51b815260040180806020018281038252602a815260200180612134602a913960400191505060405180910390fd5b6001600160a01b0382166000908152600360205260409020610bd3906117ae565b610d38610ddf565b610d77576040805162461bcd60e51b815260206004820181905260248201526000805160206121df833981519152604482015290519081900360640190fd5b600d546040516000916001600160a01b0316907f8be0079c531659141344cd1fd0a4f28419497f9722a3daafe3b4186f6b6457e0908390a3600d80546001600160a01b0319169055565b6010546001600160a01b031681565b600d546001600160a01b031690565b600d546000906001600160a01b0316610df661137f565b6001600160a01b031614905090565b600a8054604080516020601f60026000196101006001881615020190951694909404938401819004810282018101909252828152606093909290918301828280156107a45780601f10610779576101008083540402835291602001916107a4565b610e6e61137f565b6001600160a01b0316826001600160a01b03161415610ed4576040805162461bcd60e51b815260206004820152601960248201527f4552433732313a20617070726f766520746f2063616c6c657200000000000000604482015290519081900360640190fd5b8060046000610ee161137f565b6001600160a01b03908116825260208083019390935260409182016000908120918716808252919093529120805460ff191692151592909217909155610f2561137f565b60408051841515815290516001600160a01b0392909216917f17307eab39ab6107e8899845ad3d59bd9653f200f220920489ca2b5937696c319181900360200190a35050565b610f7c610f7661137f565b83611454565b610fb75760405162461bcd60e51b81526004018080602001828103825260318152602001806122786031913960400191505060405180910390fd5b610fc3848484846117b2565b50505050565b6000610fdd826001600160a01b0316611362565b80610bd357506010546001600160a01b031615801590610bd357506010546040805163c3c5a54760e01b81526001600160a01b0385811660048301529151919092169163c3c5a547916024808301926020929190829003018186803b15801561104557600080fd5b505afa158015611059573d6000803e3d6000fd5b505050506040513d602081101561106f57600080fd5b505192915050565b61107f610ddf565b6110be576040805162461bcd60e51b815260206004820181905260248201526000805160206121df833981519152604482015290519081900360640190fd5b601054600160a01b900460ff16156110d557600080fd5b60108054600160a01b60ff60a01b19909116176001600160a01b0319166001600160a01b0392909216919091179055565b606061111182611362565b61114c5760405162461bcd60e51b815260040180806020018281038252602f815260200180612228602f913960400191505060405180910390fd5b6000828152600c602090815260409182902080548351601f60026000196101006001861615020190931692909204918201849004840281018401909452808452606093928301828280156111e15780601f106111b6576101008083540402835291602001916111e1565b820191906000526020600020905b8154815290600101906020018083116111c457829003601f168201915b50505050509050805160001415611208575050604080516020810190915260008152610713565b600b8160405160200180838054600181600116156101000203166002900480156112695780601f10611247576101008083540402835291820191611269565b820191906000526020600020905b815481529060010190602001808311611255575b5050825160208401908083835b602083106112955780518252601f199092019160209182019101611276565b6001836020036101000a03801982511681845116808217855250505050505090500192505050604051602081830303815290604052915050610713565b6001600160a01b03918216600090815260046020908152604080832093909416825291909152205460ff1690565b600e546001600160a01b031681565b611317610ddf565b611356576040805162461bcd60e51b815260206004820181905260248201526000805160206121df833981519152604482015290519081900360640190fd5b61135f81611804565b50565b6000908152600160205260409020546001600160a01b0316151590565b3390565b600081815260026020526040902080546001600160a01b0319166001600160a01b03841690811790915581906113b882610b7f565b6001600160a01b03167f8c5be1e5ebec7d5bd14f71427d1e84f3dd0314c0f7b2291e5b200ac8c7c3b92560405160405180910390a45050565b6113fa82611362565b6114355760405162461bcd60e51b815260040180806020018281038252602c8152602001806121b3602c913960400191505060405180910390fd5b6000828152600c6020908152604090912082516108e792840190611f28565b600061145f82611362565b61149a5760405162461bcd60e51b815260040180806020018281038252602c8152602001806120d0602c913960400191505060405180910390fd5b60006114a583610b7f565b9050806001600160a01b0316846001600160a01b031614806114e05750836001600160a01b03166114d5846107af565b6001600160a01b0316145b806114f057506114f081856112d2565b949350505050565b826001600160a01b031661150b82610b7f565b6001600160a01b0316146115505760405162461bcd60e51b81526004018080602001828103825260298152602001806121ff6029913960400191505060405180910390fd5b6001600160a01b0382166115955760405162461bcd60e51b81526004018080602001828103825260248152602001806120ac6024913960400191505060405180910390fd5b6115a08383836118a5565b6115ab600082611383565b6001600160a01b03831660009081526003602052604090206115cc906118b0565b6001600160a01b03821660009081526003602052604090206115ed906118c7565b60008181526001602052604080822080546001600160a01b0319166001600160a01b0386811691821790925591518493918716917fddf252ad1be2c89b69c2b068fc378daa952ba7f163c4a11628f55a4df523b3ef91a4505050565b604080516302571be360e01b81527f91d1777781884d03a6757a803996e38de2a42967fb37eeaca72729271025a9e2600482015290516001600160a01b038416916302571be3916024808301926020929190829003018186803b1580156116af57600080fd5b505afa1580156116c3573d6000803e3d6000fd5b505050506040513d60208110156116d957600080fd5b505160405163c47f002760e01b81526020600482018181528451602484015284516001600160a01b039094169363c47f002793869383926044909201919085019080838360005b83811015611738578181015183820152602001611720565b50505050905090810190601f1680156117655780820380516001836020036101000a031916815260200191505b5092505050602060405180830381600087803b15801561178457600080fd5b505af1158015611798573d6000803e3d6000fd5b505050506040513d6020811015610fc357600080fd5b5490565b6117bd8484846114f8565b6117c9848484846118d0565b610fc35760405162461bcd60e51b81526004018080602001828103825260328152602001806120546032913960400191505060405180910390fd5b6001600160a01b0381166118495760405162461bcd60e51b81526004018080602001828103825260268152602001806120866026913960400191505060405180910390fd5b600d546040516001600160a01b038084169216907f8be0079c531659141344cd1fd0a4f28419497f9722a3daafe3b4186f6b6457e090600090a3600d80546001600160a01b0319166001600160a01b0392909216919091179055565b6108e7838383611b0b565b80546118c390600163ffffffff611b6216565b9055565b80546001019055565b60006118e4846001600160a01b0316611bab565b6118f0575060016114f0565b600060606001600160a01b038616630a85bd0160e11b61190e61137f565b89888860405160240180856001600160a01b03166001600160a01b03168152602001846001600160a01b03166001600160a01b0316815260200183815260200180602001828103825283818151815260200191508051906020019080838360005b8381101561198757818101518382015260200161196f565b50505050905090810190601f1680156119b45780820380516001836020036101000a031916815260200191505b5060408051601f198184030181529181526020820180516001600160e01b03166001600160e01b0319909a16999099178952518151919890975087965094509250829150849050835b60208310611a1c5780518252601f1990920191602091820191016119fd565b6001836020036101000a0380198251168184511680821785525050505050509050019150506000604051808303816000865af19150503d8060008114611a7e576040519150601f19603f3d011682016040523d82523d6000602084013e611a83565b606091505b509150915081611ad457805115611a9d5780518082602001fd5b60405162461bcd60e51b81526004018080602001828103825260328152602001806120546032913960400191505060405180910390fd5b6000818060200190516020811015611aeb57600080fd5b50516001600160e01b031916630a85bd0160e11b1493506114f092505050565b611b16838383611be4565b6001600160a01b0382166108e7576000818152600c602052604090205460026000196101006001841615020190911604156108e7576000818152600c602052604081206108e791611fa6565b6000611ba483836040518060400160405280601e81526020017f536166654d6174683a207375627472616374696f6e206f766572666c6f770000815250611c59565b9392505050565b6000813f7fc5d2460186f7233c927e7db2dcc703c0e500b653ca82273b7bfad8045d85a4708181148015906114f0575050151592915050565b611bef8383836108e7565b6001600160a01b038316611c1557611c078282611cf0565b611c1081611d2e565b6108e7565b6001600160a01b038216611c4557611c2d8382611d72565b600081815260066020526040812055611c1081611e74565b611c4f8382611d72565b6108e78282611cf0565b60008184841115611ce85760405162461bcd60e51b81526004018080602001828103825283818151815260200191508051906020019080838360005b83811015611cad578181015183820152602001611c95565b50505050905090810190601f168015611cda5780820380516001836020036101000a031916815260200191505b509250505060405180910390fd5b505050900390565b6001600160a01b0390911660009081526005602081815260408084208054868652600684529185208290559282526001810183559183529091200155565b600780546000838152600860205260408120829055600182018355919091527fa66cc928b5edb82af9bd49922954155ab7b0942694bea4ce44661d9a8736c6880155565b6001600160a01b038216600090815260056020526040812054611d9c90600163ffffffff611b6216565b600083815260066020526040902054909150808214611e37576001600160a01b0384166000908152600560205260408120805484908110611dd957fe5b906000526020600020015490508060056000876001600160a01b03166001600160a01b031681526020019081526020016000208381548110611e1757fe5b600091825260208083209091019290925591825260069052604090208190555b6001600160a01b0384166000908152600560205260409020805480611e5857fe5b6001900381819060005260206000200160009055905550505050565b600754600090611e8b90600163ffffffff611b6216565b60008381526008602052604081205460078054939450909284908110611ead57fe5b906000526020600020015490508060078381548110611ec857fe5b60009182526020808320909101929092558281526008909152604090208290556007805480611ef357fe5b600190038181906000526020600020016000905590556000600860008681526020019081526020016000208190555050505050565b828054600181600116156101000203166002900490600052602060002090601f016020900481019282601f10611f6957805160ff1916838001178555611f96565b82800160010185558215611f96579182015b82811115611f96578251825591602001919060010190611f7b565b50611fa2929150611fe6565b5090565b50805460018160011615610100020316600290046000825580601f10611fcc575061135f565b601f01602090049060005260206000209081019061135f91905b6107ac91905b80821115611fa25760008155600101611fec56fe4552433732313a20616363657373207265737472696374656420746f20746f6b656e206f776e6572455243373231456e756d657261626c653a206f776e657220696e646578206f7574206f6620626f756e64734552433732313a207472616e7366657220746f206e6f6e20455243373231526563656976657220696d706c656d656e7465724f776e61626c653a206e6577206f776e657220697320746865207a65726f20616464726573734552433732313a207472616e7366657220746f20746865207a65726f20616464726573734552433732313a206f70657261746f7220717565727920666f72206e6f6e6578697374656e7420746f6b656e4552433732313a20617070726f76652063616c6c6572206973206e6f74206f776e6572206e6f7220617070726f76656420666f7220616c6c4552433732313a2062616c616e636520717565727920666f7220746865207a65726f20616464726573734552433732313a206f776e657220717565727920666f72206e6f6e6578697374656e7420746f6b656e4552433732313a20617070726f76656420717565727920666f72206e6f6e6578697374656e7420746f6b656e4552433732314d657461646174613a2055524920736574206f66206e6f6e6578697374656e7420746f6b656e4f776e61626c653a2063616c6c6572206973206e6f7420746865206f776e65724552433732313a207472616e73666572206f6620746f6b656e2074686174206973206e6f74206f776e4552433732314d657461646174613a2055524920717565727920666f72206e6f6e6578697374656e7420746f6b656e4552433732313a20617070726f76616c20746f2063757272656e74206f776e65724552433732313a207472616e736665722063616c6c6572206973206e6f74206f776e6572206e6f7220617070726f766564455243373231456e756d657261626c653a20676c6f62616c20696e646578206f7574206f6620626f756e6473a2646970667358221220010e829edc7ff0e6eadec67c28b3162a8132bb248760dca0007caa3e4dc2734264736f6c63430006030033608060405234801561001057600080fd5b506103ad806100206000396000f3fe6080604052600436106100225760003560e01c8063d1f578941461003957610031565b366100315761002f6100ef565b005b61002f6100ef565b61002f6004803603604081101561004f57600080fd5b6001600160a01b03823516919081019060408101602082013564010000000081111561007a57600080fd5b82018360208201111561008c57600080fd5b803590602001918460018302840111640100000000831117156100ae57600080fd5b91908080601f016020809104026020016040519081016040528093929190818152602001838380828437600092019190915250929550610109945050505050565b6100f7610107565b61010761010261022c565b610251565b565b600061011361022c565b6001600160a01b03161461012657600080fd5b60405180602361031a82396040519081900360230190207f7050c9e0f4ca769c69bd3a8ef740bc37934f8e2c036e5a723fd8ee048ed3f8c314905061016757fe5b61017082610275565b805115610228576000826001600160a01b0316826040518082805190602001908083835b602083106101b35780518252601f199092019160209182019101610194565b6001836020036101000a038019825116818451168082178552505050505050905001915050600060405180830381855af49150503d8060008114610213576040519150601f19603f3d011682016040523d82523d6000602084013e610218565b606091505b505090508061022657600080fd5b505b5050565b7f7050c9e0f4ca769c69bd3a8ef740bc37934f8e2c036e5a723fd8ee048ed3f8c35490565b3660008037600080366000845af43d6000803e808015610270573d6000f35b3d6000fd5b61027e816102dd565b6102b95760405162461bcd60e51b815260040180806020018281038252603b81526020018061033d603b913960400191505060405180910390fd5b7f7050c9e0f4ca769c69bd3a8ef740bc37934f8e2c036e5a723fd8ee048ed3f8c355565b6000813f7fc5d2460186f7233c927e7db2dcc703c0e500b653ca82273b7bfad8045d85a47081811480159061031157508115155b94935050505056fe6f72672e7a657070656c696e6f732e70726f78792e696d706c656d656e746174696f6e43616e6e6f742073657420612070726f787920696d706c656d656e746174696f6e20746f2061206e6f6e2d636f6e74726163742061646472657373a2646970667358221220c689741fe0e4d8735c2255691a7e0a15905936266210ddbdcdfd5d74591399df64736f6c63430006030033",
  "source": "pragma solidity ^0.6.0;\n\nimport \"@iexec/solidity/contracts/ENStools/ENSReverseRegistration.sol\";\nimport \"@iexec/solidity/contracts/Upgradeability/InitializableUpgradeabilityProxy.sol\";\nimport \"@openzeppelin/contracts/ownership/Ownable.sol\";\nimport \"@openzeppelin/contracts/token/ERC721/ERC721Full.sol\";\nimport \"@openzeppelin/contracts/utils/Create2.sol\";\nimport \"./IRegistry.sol\";\n\n\ncontract Registry is IRegistry, ERC721Full, ENSReverseRegistration, Ownable\n{\n\taddress   public master;\n\tbytes     public proxyCode;\n\tIRegistry public previous;\n\tbool      public initialized;\n\n\tconstructor(address _master, string memory _name, string memory _symbol)\n\tpublic ERC721Full(_name, _symbol)\n\t{\n\t\tmaster    = _master;\n\t\tproxyCode = type(InitializableUpgradeabilityProxy).creationCode;\n\t}\n\n\tfunction initialize(address _previous)\n\texternal onlyOwner()\n\t{\n\t\trequire(!initialized);\n\t\tinitialized = true;\n\t\tprevious    = IRegistry(_previous);\n\t}\n\n\t/* Factory */\n\tfunction _mintCreate(\n\t\taddress      _owner,\n\t\tbytes memory _args)\n\tinternal returns (uint256)\n\t{\n\t\t// Create entry (proxy)\n\t\taddress entry = Create2.deploy(keccak256(abi.encodePacked(_args, _owner)), proxyCode);\n\t\t// Initialize entry (casting to address payable is a pain in ^0.5.0)\n\t\tInitializableUpgradeabilityProxy(address(uint160(entry))).initialize(master, _args);\n\t\t// Mint corresponding token\n\t\t_mint(_owner, uint256(entry));\n\t\treturn uint256(entry);\n\t}\n\n\t/* Interface */\n\tfunction isRegistered(address _entry)\n\texternal view override returns (bool)\n\t{\n\t\treturn _exists(uint256(_entry)) || (address(previous) != address(0) && previous.isRegistered(_entry));\n\t}\n\n\tfunction setName(address _ens, string calldata _name)\n\texternal onlyOwner()\n\t{\n\t\t_setName(ENS(_ens), _name);\n\t}\n\n\tfunction setTokenURI(uint256 _tokenId, string calldata _uri)\n\texternal\n\t{\n\t\trequire(_msgSender() == ownerOf(_tokenId), \"ERC721: access restricted to token owner\");\n\t\t_setTokenURI(_tokenId, _uri);\n\t}\n}\n",
  "sourcePath": "/home/amxx/Work/iExec/code/PoCo-dev/contracts/registries/Registry.sol",
  "compiler": {
    "name": "solc",
    "version": "0.6.3+commit.8dda9521.Emscripten.clang"
  },
  "schemaVersion": "3.0.23",
  "updatedAt": "2020-03-09T19:01:54.367Z",
  "devdoc": {
    "methods": {
      "approve(address,uint256)": {
        "details": "Approves another address to transfer the given token ID The zero address indicates there is no approved address. There can only be one approved address per token at a given time. Can only be called by the token owner or an approved operator.",
        "params": {
          "to": "address to be approved for the given token ID",
          "tokenId": "uint256 ID of the token to be approved"
        }
      },
      "balanceOf(address)": {
        "details": "Gets the balance of the specified address.",
        "params": {
          "owner": "address to query the balance of"
        },
        "returns": {
          "_0": "uint256 representing the amount owned by the passed address"
        }
      },
      "baseURI()": {
        "details": "Returns the base URI set via {_setBaseURI}. This will be automatically added as a preffix in {tokenURI} to each token's URI, when they are non-empty.    * _Available since v2.5.0._"
      },
      "getApproved(uint256)": {
        "details": "Gets the approved address for a token ID, or zero if no address set Reverts if the token ID does not exist.",
        "params": {
          "tokenId": "uint256 ID of the token to query the approval of"
        },
        "returns": {
          "_0": "address currently approved for the given token ID"
        }
      },
      "isApprovedForAll(address,address)": {
        "details": "Tells whether an operator is approved by a given owner.",
        "params": {
          "operator": "operator address which you want to query the approval of",
          "owner": "owner address which you want to query the approval of"
        },
        "returns": {
          "_0": "bool whether the given operator is approved by the given owner"
        }
      },
      "isOwner()": {
        "details": "Returns true if the caller is the current owner."
      },
      "name()": {
        "details": "Gets the token name.",
        "returns": {
          "_0": "string representing the token name"
        }
      },
      "owner()": {
        "details": "Returns the address of the current owner."
      },
      "ownerOf(uint256)": {
        "details": "Gets the owner of the specified token ID.",
        "params": {
          "tokenId": "uint256 ID of the token to query the owner of"
        },
        "returns": {
          "_0": "address currently marked as the owner of the given token ID"
        }
      },
      "renounceOwnership()": {
        "details": "Leaves the contract without owner. It will not be possible to call `onlyOwner` functions anymore. Can only be called by the current owner.     * NOTE: Renouncing ownership will leave the contract without an owner, thereby removing any functionality that is only available to the owner."
      },
      "safeTransferFrom(address,address,uint256)": {
        "details": "Safely transfers the ownership of a given token ID to another address If the target address is a contract, it must implement {IERC721Receiver-onERC721Received}, which is called upon a safe transfer, and return the magic value `bytes4(keccak256(\"onERC721Received(address,address,uint256,bytes)\"))`; otherwise, the transfer is reverted. Requires the msg.sender to be the owner, approved, or operator",
        "params": {
          "from": "current owner of the token",
          "to": "address to receive the ownership of the given token ID",
          "tokenId": "uint256 ID of the token to be transferred"
        }
      },
      "safeTransferFrom(address,address,uint256,bytes)": {
        "details": "Safely transfers the ownership of a given token ID to another address If the target address is a contract, it must implement {IERC721Receiver-onERC721Received}, which is called upon a safe transfer, and return the magic value `bytes4(keccak256(\"onERC721Received(address,address,uint256,bytes)\"))`; otherwise, the transfer is reverted. Requires the _msgSender() to be the owner, approved, or operator",
        "params": {
          "_data": "bytes data to send along with a safe transfer check",
          "from": "current owner of the token",
          "to": "address to receive the ownership of the given token ID",
          "tokenId": "uint256 ID of the token to be transferred"
        }
      },
      "setApprovalForAll(address,bool)": {
        "details": "Sets or unsets the approval of a given operator An operator is allowed to transfer all tokens of the sender on their behalf.",
        "params": {
          "approved": "representing the status of the approval to be set",
          "operator": "operator address to set the approval"
        }
      },
      "supportsInterface(bytes4)": {
        "details": "See {IERC165-supportsInterface}.     * Time complexity O(1), guaranteed to always use less than 30 000 gas."
      },
      "symbol()": {
        "details": "Gets the token symbol.",
        "returns": {
          "_0": "string representing the token symbol"
        }
      },
      "tokenByIndex(uint256)": {
        "details": "Gets the token ID at a given index of all the tokens in this contract Reverts if the index is greater or equal to the total number of tokens.",
        "params": {
          "index": "uint256 representing the index to be accessed of the tokens list"
        },
        "returns": {
          "_0": "uint256 token ID at the given index of the tokens list"
        }
      },
      "tokenOfOwnerByIndex(address,uint256)": {
        "details": "Gets the token ID at a given index of the tokens list of the requested owner.",
        "params": {
          "index": "uint256 representing the index to be accessed of the requested tokens list",
          "owner": "address owning the tokens list to be accessed"
        },
        "returns": {
          "_0": "uint256 token ID at the given index of the tokens list owned by the requested address"
        }
      },
      "tokenURI(uint256)": {
        "details": "Returns the URI for a given token ID. May return an empty string.     * If the token's URI is non-empty and a base URI was set (via {_setBaseURI}), it will be added to the token ID's URI as a prefix.     * Reverts if the token ID does not exist."
      },
      "totalSupply()": {
        "details": "Gets the total amount of tokens stored by the contract.",
        "returns": {
          "_0": "uint256 representing the total amount of tokens"
        }
      },
      "transferFrom(address,address,uint256)": {
        "details": "Transfers the ownership of a given token ID to another address. Usage of this method is discouraged, use {safeTransferFrom} whenever possible. Requires the msg.sender to be the owner, approved, or operator.",
        "params": {
          "from": "current owner of the token",
          "to": "address to receive the ownership of the given token ID",
          "tokenId": "uint256 ID of the token to be transferred"
        }
      },
      "transferOwnership(address)": {
        "details": "Transfers ownership of the contract to a new account (`newOwner`). Can only be called by the current owner."
      }
    }
  },
  "userdoc": {
    "methods": {}
  }
}