{
  "contractName": "Relay",
  "abi": [
    {
      "inputs": [],
      "payable": false,
      "stateMutability": "nonpayable",
      "type": "constructor"
    },
    {
      "anonymous": false,
      "inputs": [
        {
          "components": [
            {
              "name": "app",
              "type": "address"
            },
            {
              "name": "appprice",
              "type": "uint256"
            },
            {
              "name": "volume",
              "type": "uint256"
            },
            {
              "name": "tag",
              "type": "bytes32"
            },
            {
              "name": "datasetrestrict",
              "type": "address"
            },
            {
              "name": "workerpoolrestrict",
              "type": "address"
            },
            {
              "name": "requesterrestrict",
              "type": "address"
            },
            {
              "name": "salt",
              "type": "bytes32"
            },
            {
              "name": "sign",
              "type": "bytes"
            }
          ],
          "indexed": false,
          "name": "apporder",
          "type": "tuple"
        }
      ],
      "name": "BroadcastAppOrder",
      "type": "event"
    },
    {
      "anonymous": false,
      "inputs": [
        {
          "components": [
            {
              "name": "dataset",
              "type": "address"
            },
            {
              "name": "datasetprice",
              "type": "uint256"
            },
            {
              "name": "volume",
              "type": "uint256"
            },
            {
              "name": "tag",
              "type": "bytes32"
            },
            {
              "name": "apprestrict",
              "type": "address"
            },
            {
              "name": "workerpoolrestrict",
              "type": "address"
            },
            {
              "name": "requesterrestrict",
              "type": "address"
            },
            {
              "name": "salt",
              "type": "bytes32"
            },
            {
              "name": "sign",
              "type": "bytes"
            }
          ],
          "indexed": false,
          "name": "datasetorder",
          "type": "tuple"
        }
      ],
      "name": "BroadcastDatasetOrder",
      "type": "event"
    },
    {
      "anonymous": false,
      "inputs": [
        {
          "components": [
            {
              "name": "workerpool",
              "type": "address"
            },
            {
              "name": "workerpoolprice",
              "type": "uint256"
            },
            {
              "name": "volume",
              "type": "uint256"
            },
            {
              "name": "tag",
              "type": "bytes32"
            },
            {
              "name": "category",
              "type": "uint256"
            },
            {
              "name": "trust",
              "type": "uint256"
            },
            {
              "name": "apprestrict",
              "type": "address"
            },
            {
              "name": "datasetrestrict",
              "type": "address"
            },
            {
              "name": "requesterrestrict",
              "type": "address"
            },
            {
              "name": "salt",
              "type": "bytes32"
            },
            {
              "name": "sign",
              "type": "bytes"
            }
          ],
          "indexed": false,
          "name": "workerpoolorder",
          "type": "tuple"
        }
      ],
      "name": "BroadcastWorkerpoolOrder",
      "type": "event"
    },
    {
      "anonymous": false,
      "inputs": [
        {
          "components": [
            {
              "name": "app",
              "type": "address"
            },
            {
              "name": "appmaxprice",
              "type": "uint256"
            },
            {
              "name": "dataset",
              "type": "address"
            },
            {
              "name": "datasetmaxprice",
              "type": "uint256"
            },
            {
              "name": "workerpool",
              "type": "address"
            },
            {
              "name": "workerpoolmaxprice",
              "type": "uint256"
            },
            {
              "name": "requester",
              "type": "address"
            },
            {
              "name": "volume",
              "type": "uint256"
            },
            {
              "name": "tag",
              "type": "bytes32"
            },
            {
              "name": "category",
              "type": "uint256"
            },
            {
              "name": "trust",
              "type": "uint256"
            },
            {
              "name": "beneficiary",
              "type": "address"
            },
            {
              "name": "callback",
              "type": "address"
            },
            {
              "name": "params",
              "type": "string"
            },
            {
              "name": "salt",
              "type": "bytes32"
            },
            {
              "name": "sign",
              "type": "bytes"
            }
          ],
          "indexed": false,
          "name": "requestorder",
          "type": "tuple"
        }
      ],
      "name": "BroadcastRequestOrder",
      "type": "event"
    },
    {
      "constant": false,
      "inputs": [
        {
          "components": [
            {
              "name": "app",
              "type": "address"
            },
            {
              "name": "appprice",
              "type": "uint256"
            },
            {
              "name": "volume",
              "type": "uint256"
            },
            {
              "name": "tag",
              "type": "bytes32"
            },
            {
              "name": "datasetrestrict",
              "type": "address"
            },
            {
              "name": "workerpoolrestrict",
              "type": "address"
            },
            {
              "name": "requesterrestrict",
              "type": "address"
            },
            {
              "name": "salt",
              "type": "bytes32"
            },
            {
              "name": "sign",
              "type": "bytes"
            }
          ],
          "name": "_apporder",
          "type": "tuple"
        }
      ],
      "name": "broadcastAppOrder",
      "outputs": [],
      "payable": false,
      "stateMutability": "nonpayable",
      "type": "function"
    },
    {
      "constant": false,
      "inputs": [
        {
          "components": [
            {
              "name": "dataset",
              "type": "address"
            },
            {
              "name": "datasetprice",
              "type": "uint256"
            },
            {
              "name": "volume",
              "type": "uint256"
            },
            {
              "name": "tag",
              "type": "bytes32"
            },
            {
              "name": "apprestrict",
              "type": "address"
            },
            {
              "name": "workerpoolrestrict",
              "type": "address"
            },
            {
              "name": "requesterrestrict",
              "type": "address"
            },
            {
              "name": "salt",
              "type": "bytes32"
            },
            {
              "name": "sign",
              "type": "bytes"
            }
          ],
          "name": "_datasetorder",
          "type": "tuple"
        }
      ],
      "name": "broadcastDatasetOrder",
      "outputs": [],
      "payable": false,
      "stateMutability": "nonpayable",
      "type": "function"
    },
    {
      "constant": false,
      "inputs": [
        {
          "components": [
            {
              "name": "workerpool",
              "type": "address"
            },
            {
              "name": "workerpoolprice",
              "type": "uint256"
            },
            {
              "name": "volume",
              "type": "uint256"
            },
            {
              "name": "tag",
              "type": "bytes32"
            },
            {
              "name": "category",
              "type": "uint256"
            },
            {
              "name": "trust",
              "type": "uint256"
            },
            {
              "name": "apprestrict",
              "type": "address"
            },
            {
              "name": "datasetrestrict",
              "type": "address"
            },
            {
              "name": "requesterrestrict",
              "type": "address"
            },
            {
              "name": "salt",
              "type": "bytes32"
            },
            {
              "name": "sign",
              "type": "bytes"
            }
          ],
          "name": "_workerpoolorder",
          "type": "tuple"
        }
      ],
      "name": "broadcastWorkerpoolOrder",
      "outputs": [],
      "payable": false,
      "stateMutability": "nonpayable",
      "type": "function"
    },
    {
      "constant": false,
      "inputs": [
        {
          "components": [
            {
              "name": "app",
              "type": "address"
            },
            {
              "name": "appmaxprice",
              "type": "uint256"
            },
            {
              "name": "dataset",
              "type": "address"
            },
            {
              "name": "datasetmaxprice",
              "type": "uint256"
            },
            {
              "name": "workerpool",
              "type": "address"
            },
            {
              "name": "workerpoolmaxprice",
              "type": "uint256"
            },
            {
              "name": "requester",
              "type": "address"
            },
            {
              "name": "volume",
              "type": "uint256"
            },
            {
              "name": "tag",
              "type": "bytes32"
            },
            {
              "name": "category",
              "type": "uint256"
            },
            {
              "name": "trust",
              "type": "uint256"
            },
            {
              "name": "beneficiary",
              "type": "address"
            },
            {
              "name": "callback",
              "type": "address"
            },
            {
              "name": "params",
              "type": "string"
            },
            {
              "name": "salt",
              "type": "bytes32"
            },
            {
              "name": "sign",
              "type": "bytes"
            }
          ],
          "name": "_requestorder",
          "type": "tuple"
        }
      ],
      "name": "broadcastRequestOrder",
      "outputs": [],
      "payable": false,
      "stateMutability": "nonpayable",
      "type": "function"
    }
  ],
  "bytecode": "0x608060405234801561001057600080fd5b50610aba806100206000396000f3fe608060405234801561001057600080fd5b506004361061004c5760003560e01c80634693d172146100515780634c4692de14610066578063947f517814610079578063c52e9de11461008c575b600080fd5b61006461005f3660046105be565b61009f565b005b610064610074366004610581565b6100d9565b6100646100873660046105f3565b610108565b61006461009a366004610581565b610137565b7f54bee205d9b03332d6dc82bc907476dfef6ed4fd86058d49a72994baee781175816040516100ce9190610979565b60405180910390a150565b7fc56d982ad2fd39ebadca073cc88d9bdaee0f4c8e7b2b6be50227169daefc7b3f816040516100ce9190610961565b7faf81a046e31ebb2be305579e585ac6b2ee3fdc2dc9dba806bb826879bb2c7851816040516100ce919061098a565b7f6fd493f856b22df174df46975d6dcf0895c7dfb3c63d20179c0dcd5563e2f565816040516100ce9190610961565b803561017181610a57565b92915050565b803561017181610a6e565b600082601f83011261019357600080fd5b81356101a66101a1826109c2565b61099b565b915080825260208301602083018583830111156101c257600080fd5b6101cd838284610a11565b50505092915050565b600061012082840312156101e957600080fd5b6101f461012061099b565b905060006102028484610166565b825250602061021384848301610177565b602083015250604061022784828501610177565b604083015250606061023b84828501610177565b606083015250608061024f84828501610166565b60808301525060a061026384828501610166565b60a08301525060c061027784828501610166565b60c08301525060e061028b84828501610177565b60e08301525061010082013567ffffffffffffffff8111156102ac57600080fd5b6102b884828501610182565b6101008301525092915050565b600061020082840312156102d857600080fd5b6102e361020061099b565b905060006102f18484610166565b825250602061030284848301610177565b602083015250604061031684828501610166565b604083015250606061032a84828501610177565b606083015250608061033e84828501610166565b60808301525060a061035284828501610177565b60a08301525060c061036684828501610166565b60c08301525060e061037a84828501610177565b60e08301525061010061038f84828501610177565b610100830152506101206103a584828501610177565b610120830152506101406103bb84828501610177565b610140830152506101606103d184828501610166565b610160830152506101806103e784828501610166565b610180830152506101a082013567ffffffffffffffff81111561040957600080fd5b61041584828501610182565b6101a0830152506101c061042b84828501610177565b6101c0830152506101e082013567ffffffffffffffff81111561044d57600080fd5b61045984828501610182565b6101e08301525092915050565b6000610160828403121561047957600080fd5b61048461016061099b565b905060006104928484610166565b82525060206104a384848301610177565b60208301525060406104b784828501610177565b60408301525060606104cb84828501610177565b60608301525060806104df84828501610177565b60808301525060a06104f384828501610177565b60a08301525060c061050784828501610166565b60c08301525060e061051b84828501610166565b60e08301525061010061053084828501610166565b6101008301525061012061054684828501610177565b6101208301525061014082013567ffffffffffffffff81111561056857600080fd5b61057484828501610182565b6101408301525092915050565b60006020828403121561059357600080fd5b813567ffffffffffffffff8111156105aa57600080fd5b6105b6848285016101d6565b949350505050565b6000602082840312156105d057600080fd5b813567ffffffffffffffff8111156105e757600080fd5b6105b6848285016102c5565b60006020828403121561060557600080fd5b813567ffffffffffffffff81111561061c57600080fd5b6105b684828501610466565b610631816109f7565b82525050565b61063181610a02565b600061064b826109ea565b61065581856109ee565b9350610665818560208601610a1d565b61066e81610a4d565b9093019392505050565b805160009061012084019061068d8582610628565b5060208301516106a06020860182610637565b5060408301516106b36040860182610637565b5060608301516106c66060860182610637565b5060808301516106d96080860182610628565b5060a08301516106ec60a0860182610628565b5060c08301516106ff60c0860182610628565b5060e083015161071260e0860182610637565b5061010083015184820361010086015261072c8282610640565b95945050505050565b805160009061020084019061074a8582610628565b50602083015161075d6020860182610637565b5060408301516107706040860182610628565b5060608301516107836060860182610637565b5060808301516107966080860182610628565b5060a08301516107a960a0860182610637565b5060c08301516107bc60c0860182610628565b5060e08301516107cf60e0860182610637565b506101008301516107e4610100860182610637565b506101208301516107f9610120860182610637565b5061014083015161080e610140860182610637565b50610160830151610823610160860182610628565b50610180830151610838610180860182610628565b506101a08301518482036101a08601526108528282610640565b9150506101c08301516108696101c0860182610637565b506101e08301518482036101e086015261072c8282610640565b80516000906101608401906108988582610628565b5060208301516108ab6020860182610637565b5060408301516108be6040860182610637565b5060608301516108d16060860182610637565b5060808301516108e46080860182610637565b5060a08301516108f760a0860182610637565b5060c083015161090a60c0860182610628565b5060e083015161091d60e0860182610628565b50610100830151610932610100860182610628565b50610120830151610947610120860182610637565b5061014083015184820361014086015261072c8282610640565b602080825281016109728184610678565b9392505050565b602080825281016109728184610735565b602080825281016109728184610883565b60405181810167ffffffffffffffff811182821017156109ba57600080fd5b604052919050565b600067ffffffffffffffff8211156109d957600080fd5b506020601f91909101601f19160190565b5190565b90815260200190565b600061017182610a05565b90565b6001600160a01b031690565b82818337506000910152565b60005b83811015610a38578181015183820152602001610a20565b83811115610a47576000848401525b50505050565b601f01601f191690565b610a60816109f7565b8114610a6b57600080fd5b50565b610a6081610a0256fea365627a7a72305820896709e65346394d47c15f21c6c2d331d6d25e2d9fa3b9f51f825ff041fa4c596c6578706572696d656e74616cf564736f6c634300050a0040",
  "source": "pragma solidity ^0.5.8;\npragma experimental ABIEncoderV2;\n\nimport \"./libs/IexecODBLibOrders.sol\";\n\ncontract Relay\n{\n\tevent BroadcastAppOrder       (IexecODBLibOrders.AppOrder        apporder       );\n\tevent BroadcastDatasetOrder   (IexecODBLibOrders.DatasetOrder    datasetorder   );\n\tevent BroadcastWorkerpoolOrder(IexecODBLibOrders.WorkerpoolOrder workerpoolorder);\n\tevent BroadcastRequestOrder   (IexecODBLibOrders.RequestOrder    requestorder   );\n\n\tconstructor() public {}\n\n\tfunction broadcastAppOrder       (IexecODBLibOrders.AppOrder        memory _apporder       ) public { emit BroadcastAppOrder       (_apporder       ); }\n\tfunction broadcastDatasetOrder   (IexecODBLibOrders.DatasetOrder    memory _datasetorder   ) public { emit BroadcastDatasetOrder   (_datasetorder   ); }\n\tfunction broadcastWorkerpoolOrder(IexecODBLibOrders.WorkerpoolOrder memory _workerpoolorder) public { emit BroadcastWorkerpoolOrder(_workerpoolorder); }\n\tfunction broadcastRequestOrder   (IexecODBLibOrders.RequestOrder    memory _requestorder   ) public { emit BroadcastRequestOrder   (_requestorder   ); }\n}\n",
  "sourcePath": "/home/amxx/Work/iExec/code/PoCo-dev/contracts/Relay.sol",
  "compiler": {
    "name": "solc",
    "version": "0.5.10+commit.5a6ea5b1.Emscripten.clang"
  },
  "schemaVersion": "3.0.13",
  "updatedAt": "2019-09-02T09:55:23.718Z",
  "devdoc": {
    "methods": {}
  },
  "userdoc": {
    "methods": {}
  }
}