{
  "contractName": "RLC",
  "abi": [
    {
      "constant": true,
      "inputs": [],
      "name": "name",
      "outputs": [
        {
          "name": "",
          "type": "string"
        }
      ],
      "payable": false,
      "stateMutability": "view",
      "type": "function"
    },
    {
      "constant": true,
      "inputs": [],
      "name": "totalSupply",
      "outputs": [
        {
          "name": "",
          "type": "uint256"
        }
      ],
      "payable": false,
      "stateMutability": "view",
      "type": "function"
    },
    {
      "constant": true,
      "inputs": [],
      "name": "decimals",
      "outputs": [
        {
          "name": "",
          "type": "uint8"
        }
      ],
      "payable": false,
      "stateMutability": "view",
      "type": "function"
    },
    {
      "constant": true,
      "inputs": [],
      "name": "initialSupply",
      "outputs": [
        {
          "name": "",
          "type": "uint256"
        }
      ],
      "payable": false,
      "stateMutability": "view",
      "type": "function"
    },
    {
      "constant": true,
      "inputs": [],
      "name": "version",
      "outputs": [
        {
          "name": "",
          "type": "string"
        }
      ],
      "payable": false,
      "stateMutability": "view",
      "type": "function"
    },
    {
      "constant": true,
      "inputs": [],
      "name": "owner",
      "outputs": [
        {
          "name": "",
          "type": "address"
        }
      ],
      "payable": false,
      "stateMutability": "view",
      "type": "function"
    },
    {
      "constant": true,
      "inputs": [],
      "name": "symbol",
      "outputs": [
        {
          "name": "",
          "type": "string"
        }
      ],
      "payable": false,
      "stateMutability": "view",
      "type": "function"
    },
    {
      "constant": true,
      "inputs": [],
      "name": "locked",
      "outputs": [
        {
          "name": "",
          "type": "bool"
        }
      ],
      "payable": false,
      "stateMutability": "view",
      "type": "function"
    },
    {
      "constant": false,
      "inputs": [
        {
          "name": "newOwner",
          "type": "address"
        }
      ],
      "name": "transferOwnership",
      "outputs": [],
      "payable": false,
      "stateMutability": "nonpayable",
      "type": "function"
    },
    {
      "inputs": [],
      "payable": false,
      "stateMutability": "nonpayable",
      "type": "constructor"
    },
    {
      "anonymous": false,
      "inputs": [
        {
          "indexed": true,
          "name": "from",
          "type": "address"
        },
        {
          "indexed": true,
          "name": "to",
          "type": "address"
        },
        {
          "indexed": false,
          "name": "value",
          "type": "uint256"
        }
      ],
      "name": "Transfer",
      "type": "event"
    },
    {
      "anonymous": false,
      "inputs": [
        {
          "indexed": true,
          "name": "owner",
          "type": "address"
        },
        {
          "indexed": true,
          "name": "spender",
          "type": "address"
        },
        {
          "indexed": false,
          "name": "value",
          "type": "uint256"
        }
      ],
      "name": "Approval",
      "type": "event"
    },
    {
      "constant": false,
      "inputs": [],
      "name": "unlock",
      "outputs": [],
      "payable": false,
      "stateMutability": "nonpayable",
      "type": "function"
    },
    {
      "constant": false,
      "inputs": [
        {
          "name": "_value",
          "type": "uint256"
        }
      ],
      "name": "burn",
      "outputs": [
        {
          "name": "",
          "type": "bool"
        }
      ],
      "payable": false,
      "stateMutability": "nonpayable",
      "type": "function"
    },
    {
      "constant": false,
      "inputs": [
        {
          "name": "_to",
          "type": "address"
        },
        {
          "name": "_value",
          "type": "uint256"
        }
      ],
      "name": "transfer",
      "outputs": [
        {
          "name": "",
          "type": "bool"
        }
      ],
      "payable": false,
      "stateMutability": "nonpayable",
      "type": "function"
    },
    {
      "constant": false,
      "inputs": [
        {
          "name": "_from",
          "type": "address"
        },
        {
          "name": "_to",
          "type": "address"
        },
        {
          "name": "_value",
          "type": "uint256"
        }
      ],
      "name": "transferFrom",
      "outputs": [
        {
          "name": "",
          "type": "bool"
        }
      ],
      "payable": false,
      "stateMutability": "nonpayable",
      "type": "function"
    },
    {
      "constant": true,
      "inputs": [
        {
          "name": "_owner",
          "type": "address"
        }
      ],
      "name": "balanceOf",
      "outputs": [
        {
          "name": "balance",
          "type": "uint256"
        }
      ],
      "payable": false,
      "stateMutability": "view",
      "type": "function"
    },
    {
      "constant": false,
      "inputs": [
        {
          "name": "_spender",
          "type": "address"
        },
        {
          "name": "_value",
          "type": "uint256"
        }
      ],
      "name": "approve",
      "outputs": [
        {
          "name": "",
          "type": "bool"
        }
      ],
      "payable": false,
      "stateMutability": "nonpayable",
      "type": "function"
    },
    {
      "constant": false,
      "inputs": [
        {
          "name": "_spender",
          "type": "address"
        },
        {
          "name": "_value",
          "type": "uint256"
        },
        {
          "name": "_extraData",
          "type": "bytes"
        }
      ],
      "name": "approveAndCall",
      "outputs": [],
      "payable": false,
      "stateMutability": "nonpayable",
      "type": "function"
    },
    {
      "constant": true,
      "inputs": [
        {
          "name": "_owner",
          "type": "address"
        },
        {
          "name": "_spender",
          "type": "address"
        }
      ],
      "name": "allowance",
      "outputs": [
        {
          "name": "remaining",
          "type": "uint256"
        }
      ],
      "payable": false,
      "stateMutability": "view",
      "type": "function"
    }
  ],
  "bytecode": "0x606060405260408051908101604052600481527f76302e31000000000000000000000000000000000000000000000000000000006020820152600590805161004b929160200190610145565b50341561005757600080fd5b60018054600160a060020a03191633600160a060020a031690811782556008805460ff19169092179091556701351609ff7580006006819055600781905560009182526009602052604091829020558051908101604052601481527f6945782e6563204e6574776f726b20546f6b656e000000000000000000000000602082015260029080516100eb929160200190610145565b506040805190810160405260038082527f524c4300000000000000000000000000000000000000000000000000000000006020830152908051610132929160200190610145565b506004805460ff191660091790556101e0565b828054600181600116156101000203166002900490600052602060002090601f016020900481019282601f1061018657805160ff19168380011785556101b3565b828001600101855582156101b3579182015b828111156101b3578251825591602001919060010190610198565b506101bf9291506101c3565b5090565b6101dd91905b808211156101bf57600081556001016101c9565b90565b610abd806101ef6000396000f3006060604052600436106100f05763ffffffff7c010000000000000000000000000000000000000000000000000000000060003504166306fdde0381146100f5578063095ea7b31461017f57806318160ddd146101b557806323b872dd146101da578063313ce56714610202578063378dc3dc1461022b57806342966c681461023e57806354fd4d501461025457806370a08231146102675780638da5cb5b1461028657806395d89b41146102b5578063a69df4b5146102c8578063a9059cbb146102dd578063cae9ca51146102ff578063cf30901214610364578063dd62ed3e14610377578063f2fde38b1461039c575b600080fd5b341561010057600080fd5b6101086103bb565b60405160208082528190810183818151815260200191508051906020019080838360005b8381101561014457808201518382015260200161012c565b50505050905090810190601f1680156101715780820380516001836020036101000a031916815260200191505b509250505060405180910390f35b341561018a57600080fd5b6101a1600160a060020a0360043516602435610459565b604051901515815260200160405180910390f35b34156101c057600080fd5b6101c86104c5565b60405190815260200160405180910390f35b34156101e557600080fd5b6101a1600160a060020a03600435811690602435166044356104cb565b341561020d57600080fd5b6102156105fa565b60405160ff909116815260200160405180910390f35b341561023657600080fd5b6101c8610603565b341561024957600080fd5b6101a1600435610609565b341561025f57600080fd5b61010861069c565b341561027257600080fd5b6101c8600160a060020a0360043516610707565b341561029157600080fd5b610299610722565b604051600160a060020a03909116815260200160405180910390f35b34156102c057600080fd5b610108610731565b34156102d357600080fd5b6102db61079c565b005b34156102e857600080fd5b6101a1600160a060020a03600435166024356107c0565b341561030a57600080fd5b6102db60048035600160a060020a03169060248035919060649060443590810190830135806020601f820181900481020160405190810160405281815292919060208401838380828437509496506108a195505050505050565b341561036f57600080fd5b6101a16109c7565b341561038257600080fd5b6101c8600160a060020a03600435811690602435166109d0565b34156103a757600080fd5b6102db600160a060020a03600435166109fb565b60028054600181600116156101000203166002900480601f0160208091040260200160405190810160405280929190818152602001828054600181600116156101000203166002900480156104515780601f1061042657610100808354040283529160200191610451565b820191906000526020600020905b81548152906001019060200180831161043457829003601f168201915b505050505081565b600160a060020a033381166000818152600a6020908152604080832094871680845294909152808220859055909291907f8c5be1e5ebec7d5bd14f71427d1e84f3dd0314c0f7b2291e5b200ac8c7c3b9259085905190815260200160405180910390a350600192915050565b60075481565b600154600090819033600160a060020a039081169116148015906104f1575060085460ff165b156104fb57600080fd5b50600160a060020a038085166000908152600a6020908152604080832033851684528252808320549387168352600990915290205461053a9084610a4d565b600160a060020a0380861660009081526009602052604080822093909355908716815220546105699084610a71565b600160a060020a03861660009081526009602052604090205561058c8184610a71565b600160a060020a038087166000818152600a6020908152604080832033861684529091529081902093909355908616917fddf252ad1be2c89b69c2b068fc378daa952ba7f163c4a11628f55a4df523b3ef9086905190815260200160405180910390a3506001949350505050565b60045460ff1681565b60065481565b600160a060020a03331660009081526009602052604081205461062c9083610a71565b600160a060020a0333166000908152600960205260409020556007546106529083610a71565b6007556000600160a060020a0333167fddf252ad1be2c89b69c2b068fc378daa952ba7f163c4a11628f55a4df523b3ef8460405190815260200160405180910390a3506001919050565b60058054600181600116156101000203166002900480601f0160208091040260200160405190810160405280929190818152602001828054600181600116156101000203166002900480156104515780601f1061042657610100808354040283529160200191610451565b600160a060020a031660009081526009602052604090205490565b600154600160a060020a031681565b60038054600181600116156101000203166002900480601f0160208091040260200160405190810160405280929190818152602001828054600181600116156101000203166002900480156104515780601f1061042657610100808354040283529160200191610451565b60015433600160a060020a03908116911614156107be576008805460ff191690555b565b60015460009033600160a060020a039081169116148015906107e4575060085460ff165b156107ee57600080fd5b600160a060020a0333166000908152600960205260409020546108119083610a71565b600160a060020a0333811660009081526009602052604080822093909355908516815220546108409083610a4d565b600160a060020a0380851660008181526009602052604090819020939093559133909116907fddf252ad1be2c89b69c2b068fc378daa952ba7f163c4a11628f55a4df523b3ef9085905190815260200160405180910390a350600192915050565b826108ac8184610459565b156109c15780600160a060020a0316638f4ffcb1338530866040518563ffffffff167c01000000000000000000000000000000000000000000000000000000000281526004018085600160a060020a0316600160a060020a0316815260200184815260200183600160a060020a0316600160a060020a0316815260200180602001828103825283818151815260200191508051906020019080838360005b8381101561096257808201518382015260200161094a565b50505050905090810190601f16801561098f5780820380516001836020036101000a031916815260200191505b5095505050505050600060405180830381600087803b15156109b057600080fd5b5af115156109bd57600080fd5b5050505b50505050565b60085460ff1681565b600160a060020a039182166000908152600a6020908152604080832093909416825291909152205490565b60015433600160a060020a0390811691161415610a4a57600160a060020a03811615610a4a576001805473ffffffffffffffffffffffffffffffffffffffff1916600160a060020a0383161790555b50565b6000828201610a6a848210801590610a655750838210155b610a85565b9392505050565b6000610a7f83831115610a85565b50900390565b801515610a4a57600080fd00a165627a7a723058209729dbd2bcee57176d13aff929be5de57539c913706673bd54ab375467a2ac6f0029",
  "source": "pragma solidity ^0.4.8;\n\nimport \"./Ownable.sol\";\nimport \"./SafeMath.sol\";\nimport \"./ERC20.sol\";\nimport \"./TokenSpender.sol\";\ncontract RLC is ERC20, SafeMath, Ownable {\n\n    /* Public variables of the token */\n  string public name;       //fancy name\n  string public symbol;\n  uint8 public decimals;    //How many decimals to show.\n  string public version = 'v0.1'; \n  uint public initialSupply;\n  uint public totalSupply;\n  bool public locked;\n  //uint public unlockBlock;\n\n  mapping(address => uint) balances;\n  mapping (address => mapping (address => uint)) allowed;\n\n  // lock transfer during the ICO\n  modifier onlyUnlocked() {\n    if (msg.sender != owner && locked) throw;\n    _;\n  }\n\n  /*\n   *  The RLC Token created with the time at which the crowdsale end\n   */\n\n  function RLC() {\n    // lock the transfer function during the crowdsale\n    locked = true;\n    //unlockBlock=  now + 45 days; // (testnet) - for mainnet put the block number\n\n    initialSupply = 87000000000000000;\n    totalSupply = initialSupply;\n    balances[msg.sender] = initialSupply;// Give the creator all initial tokens                    \n    name = 'iEx.ec Network Token';        // Set the name for display purposes     \n    symbol = 'RLC';                       // Set the symbol for display purposes  \n    decimals = 9;                        // Amount of decimals for display purposes\n  }\n\n  function unlock() onlyOwner {\n    locked = false;\n  }\n\n  function burn(uint256 _value) returns (bool){\n    balances[msg.sender] = safeSub(balances[msg.sender], _value) ;\n    totalSupply = safeSub(totalSupply, _value);\n    Transfer(msg.sender, 0x0, _value);\n    return true;\n  }\n\n  function transfer(address _to, uint _value) onlyUnlocked returns (bool) {\n    balances[msg.sender] = safeSub(balances[msg.sender], _value);\n    balances[_to] = safeAdd(balances[_to], _value);\n    Transfer(msg.sender, _to, _value);\n    return true;\n  }\n\n  function transferFrom(address _from, address _to, uint _value) onlyUnlocked returns (bool) {\n    var _allowance = allowed[_from][msg.sender];\n    \n    balances[_to] = safeAdd(balances[_to], _value);\n    balances[_from] = safeSub(balances[_from], _value);\n    allowed[_from][msg.sender] = safeSub(_allowance, _value);\n    Transfer(_from, _to, _value);\n    return true;\n  }\n\n  function balanceOf(address _owner) constant returns (uint balance) {\n    return balances[_owner];\n  }\n\n  function approve(address _spender, uint _value) returns (bool) {\n    allowed[msg.sender][_spender] = _value;\n    Approval(msg.sender, _spender, _value);\n    return true;\n  }\n\n    /* Approve and then comunicate the approved contract in a single tx */\n  function approveAndCall(address _spender, uint256 _value, bytes _extraData){    \n      TokenSpender spender = TokenSpender(_spender);\n      if (approve(_spender, _value)) {\n          spender.receiveApproval(msg.sender, _value, this, _extraData);\n      }\n  }\n\n  function allowance(address _owner, address _spender) constant returns (uint remaining) {\n    return allowed[_owner][_spender];\n  }\n  \n}\n\n",
  "sourcePath": "rlc-token/contracts/RLC.sol",
  "compiler": {
    "name": "solc",
    "version": "0.4.21+commit.dfe3193c.Emscripten.clang"
  },
  "schemaVersion": "2.0.0",
  "updatedAt": "2018-04-18T19:16:34.335Z"
}