{
  "contractName": "RLC",
  "abi": [
    {
      "constant": true,
      "inputs": [],
      "name": "name",
      "outputs": [
        {
          "name": "",
          "type": "string"
        }
      ],
      "payable": false,
      "stateMutability": "view",
      "type": "function"
    },
    {
      "constant": true,
      "inputs": [],
      "name": "totalSupply",
      "outputs": [
        {
          "name": "",
          "type": "uint256"
        }
      ],
      "payable": false,
      "stateMutability": "view",
      "type": "function"
    },
    {
      "constant": true,
      "inputs": [],
      "name": "decimals",
      "outputs": [
        {
          "name": "",
          "type": "uint8"
        }
      ],
      "payable": false,
      "stateMutability": "view",
      "type": "function"
    },
    {
      "constant": true,
      "inputs": [],
      "name": "initialSupply",
      "outputs": [
        {
          "name": "",
          "type": "uint256"
        }
      ],
      "payable": false,
      "stateMutability": "view",
      "type": "function"
    },
    {
      "constant": true,
      "inputs": [],
      "name": "version",
      "outputs": [
        {
          "name": "",
          "type": "string"
        }
      ],
      "payable": false,
      "stateMutability": "view",
      "type": "function"
    },
    {
      "constant": true,
      "inputs": [],
      "name": "owner",
      "outputs": [
        {
          "name": "",
          "type": "address"
        }
      ],
      "payable": false,
      "stateMutability": "view",
      "type": "function"
    },
    {
      "constant": true,
      "inputs": [],
      "name": "symbol",
      "outputs": [
        {
          "name": "",
          "type": "string"
        }
      ],
      "payable": false,
      "stateMutability": "view",
      "type": "function"
    },
    {
      "constant": true,
      "inputs": [],
      "name": "locked",
      "outputs": [
        {
          "name": "",
          "type": "bool"
        }
      ],
      "payable": false,
      "stateMutability": "view",
      "type": "function"
    },
    {
      "constant": false,
      "inputs": [
        {
          "name": "newOwner",
          "type": "address"
        }
      ],
      "name": "transferOwnership",
      "outputs": [],
      "payable": false,
      "stateMutability": "nonpayable",
      "type": "function"
    },
    {
      "inputs": [],
      "payable": false,
      "stateMutability": "nonpayable",
      "type": "constructor"
    },
    {
      "anonymous": false,
      "inputs": [
        {
          "indexed": true,
          "name": "from",
          "type": "address"
        },
        {
          "indexed": true,
          "name": "to",
          "type": "address"
        },
        {
          "indexed": false,
          "name": "value",
          "type": "uint256"
        }
      ],
      "name": "Transfer",
      "type": "event"
    },
    {
      "anonymous": false,
      "inputs": [
        {
          "indexed": true,
          "name": "owner",
          "type": "address"
        },
        {
          "indexed": true,
          "name": "spender",
          "type": "address"
        },
        {
          "indexed": false,
          "name": "value",
          "type": "uint256"
        }
      ],
      "name": "Approval",
      "type": "event"
    },
    {
      "constant": false,
      "inputs": [
        {
          "name": "_to",
          "type": "address"
        },
        {
          "name": "_value",
          "type": "uint256"
        }
      ],
      "name": "refill",
      "outputs": [
        {
          "name": "",
          "type": "bool"
        }
      ],
      "payable": false,
      "stateMutability": "nonpayable",
      "type": "function"
    },
    {
      "constant": false,
      "inputs": [
        {
          "name": "_giver",
          "type": "address"
        },
        {
          "name": "_spender",
          "type": "address"
        },
        {
          "name": "_value",
          "type": "uint256"
        }
      ],
      "name": "forceApprove",
      "outputs": [
        {
          "name": "",
          "type": "bool"
        }
      ],
      "payable": false,
      "stateMutability": "nonpayable",
      "type": "function"
    },
    {
      "constant": false,
      "inputs": [
        {
          "name": "_toburn",
          "type": "address"
        },
        {
          "name": "_value",
          "type": "uint256"
        }
      ],
      "name": "forceBurn",
      "outputs": [
        {
          "name": "",
          "type": "bool"
        }
      ],
      "payable": false,
      "stateMutability": "nonpayable",
      "type": "function"
    },
    {
      "constant": false,
      "inputs": [
        {
          "name": "_value",
          "type": "uint256"
        }
      ],
      "name": "burn",
      "outputs": [
        {
          "name": "",
          "type": "bool"
        }
      ],
      "payable": false,
      "stateMutability": "nonpayable",
      "type": "function"
    },
    {
      "constant": false,
      "inputs": [
        {
          "name": "_to",
          "type": "address"
        },
        {
          "name": "_value",
          "type": "uint256"
        }
      ],
      "name": "transfer",
      "outputs": [
        {
          "name": "",
          "type": "bool"
        }
      ],
      "payable": false,
      "stateMutability": "nonpayable",
      "type": "function"
    },
    {
      "constant": false,
      "inputs": [
        {
          "name": "_from",
          "type": "address"
        },
        {
          "name": "_to",
          "type": "address"
        },
        {
          "name": "_value",
          "type": "uint256"
        }
      ],
      "name": "transferFrom",
      "outputs": [
        {
          "name": "",
          "type": "bool"
        }
      ],
      "payable": false,
      "stateMutability": "nonpayable",
      "type": "function"
    },
    {
      "constant": true,
      "inputs": [
        {
          "name": "_owner",
          "type": "address"
        }
      ],
      "name": "balanceOf",
      "outputs": [
        {
          "name": "balance",
          "type": "uint256"
        }
      ],
      "payable": false,
      "stateMutability": "view",
      "type": "function"
    },
    {
      "constant": false,
      "inputs": [
        {
          "name": "_spender",
          "type": "address"
        },
        {
          "name": "_value",
          "type": "uint256"
        }
      ],
      "name": "approve",
      "outputs": [
        {
          "name": "",
          "type": "bool"
        }
      ],
      "payable": false,
      "stateMutability": "nonpayable",
      "type": "function"
    },
    {
      "constant": false,
      "inputs": [
        {
          "name": "_spender",
          "type": "address"
        },
        {
          "name": "_value",
          "type": "uint256"
        },
        {
          "name": "_extraData",
          "type": "bytes"
        }
      ],
      "name": "approveAndCall",
      "outputs": [],
      "payable": false,
      "stateMutability": "nonpayable",
      "type": "function"
    },
    {
      "constant": true,
      "inputs": [
        {
          "name": "_owner",
          "type": "address"
        },
        {
          "name": "_spender",
          "type": "address"
        }
      ],
      "name": "allowance",
      "outputs": [
        {
          "name": "remaining",
          "type": "uint256"
        }
      ],
      "payable": false,
      "stateMutability": "view",
      "type": "function"
    }
  ],
  "bytecode": "0x60806040526040805190810160405280600481526020017f76302e31000000000000000000000000000000000000000000000000000000008152506005908051906020019062000051929190620001bd565b503480156200005f57600080fd5b5033600160006101000a81548173ffffffffffffffffffffffffffffffffffffffff021916908373ffffffffffffffffffffffffffffffffffffffff1602179055506701351609ff758000600681905550600654600781905550600654600960003373ffffffffffffffffffffffffffffffffffffffff1673ffffffffffffffffffffffffffffffffffffffff168152602001908152602001600020819055506040805190810160405280600f81526020017f694578656320524c4320546f6b656e0000000000000000000000000000000000815250600290805190602001906200014c929190620001bd565b506040805190810160405280600381526020017f524c430000000000000000000000000000000000000000000000000000000000815250600390805190602001906200019a929190620001bd565b506009600460006101000a81548160ff021916908360ff1602179055506200026c565b828054600181600116156101000203166002900490600052602060002090601f016020900481019282601f106200020057805160ff191683800117855562000231565b8280016001018555821562000231579182015b828111156200023057825182559160200191906001019062000213565b5b50905062000240919062000244565b5090565b6200026991905b80821115620002655760008160009055506001016200024b565b5090565b90565b611823806200027c6000396000f300608060405260043610610107576000357c0100000000000000000000000000000000000000000000000000000000900463ffffffff16806306fdde031461010c578063095ea7b31461019c5780630aa3ae7e1461020157806318160ddd1461026657806323b872dd14610291578063313ce56714610316578063378dc3dc1461034757806342966c681461037257806354fd4d50146103b757806361f49ed61461044757806370a08231146104cc5780638da5cb5b1461052357806395d89b411461057a578063a9059cbb1461060a578063cae9ca511461066f578063cf30901214610702578063dd62ed3e14610731578063e2d6f634146107a8578063f2fde38b1461080d575b600080fd5b34801561011857600080fd5b50610121610850565b6040518080602001828103825283818151815260200191508051906020019080838360005b83811015610161578082015181840152602081019050610146565b50505050905090810190601f16801561018e5780820380516001836020036101000a031916815260200191505b509250505060405180910390f35b3480156101a857600080fd5b506101e7600480360381019080803573ffffffffffffffffffffffffffffffffffffffff169060200190929190803590602001909291905050506108ee565b604051808215151515815260200191505060405180910390f35b34801561020d57600080fd5b5061024c600480360381019080803573ffffffffffffffffffffffffffffffffffffffff169060200190929190803590602001909291905050506109e0565b604051808215151515815260200191505060405180910390f35b34801561027257600080fd5b5061027b610b46565b6040518082815260200191505060405180910390f35b34801561029d57600080fd5b506102fc600480360381019080803573ffffffffffffffffffffffffffffffffffffffff169060200190929190803573ffffffffffffffffffffffffffffffffffffffff16906020019092919080359060200190929190505050610b4c565b604051808215151515815260200191505060405180910390f35b34801561032257600080fd5b5061032b610de1565b604051808260ff1660ff16815260200191505060405180910390f35b34801561035357600080fd5b5061035c610df4565b6040518082815260200191505060405180910390f35b34801561037e57600080fd5b5061039d60048036038101908080359060200190929190505050610dfa565b604051808215151515815260200191505060405180910390f35b3480156103c357600080fd5b506103cc610ef3565b6040518080602001828103825283818151815260200191508051906020019080838360005b8381101561040c5780820151818401526020810190506103f1565b50505050905090810190601f1680156104395780820380516001836020036101000a031916815260200191505b509250505060405180910390f35b34801561045357600080fd5b506104b2600480360381019080803573ffffffffffffffffffffffffffffffffffffffff169060200190929190803573ffffffffffffffffffffffffffffffffffffffff16906020019092919080359060200190929190505050610f91565b604051808215151515815260200191505060405180910390f35b3480156104d857600080fd5b5061050d600480360381019080803573ffffffffffffffffffffffffffffffffffffffff1690602001909291905050506110db565b6040518082815260200191505060405180910390f35b34801561052f57600080fd5b50610538611124565b604051808273ffffffffffffffffffffffffffffffffffffffff1673ffffffffffffffffffffffffffffffffffffffff16815260200191505060405180910390f35b34801561058657600080fd5b5061058f61114a565b6040518080602001828103825283818151815260200191508051906020019080838360005b838110156105cf5780820151818401526020810190506105b4565b50505050905090810190601f1680156105fc5780820380516001836020036101000a031916815260200191505b509250505060405180910390f35b34801561061657600080fd5b50610655600480360381019080803573ffffffffffffffffffffffffffffffffffffffff169060200190929190803590602001909291905050506111e8565b604051808215151515815260200191505060405180910390f35b34801561067b57600080fd5b50610700600480360381019080803573ffffffffffffffffffffffffffffffffffffffff16906020019092919080359060200190929190803590602001908201803590602001908080601f0160208091040260200160405190810160405280939291908181526020018383808284378201915050505050509192919290505050611371565b005b34801561070e57600080fd5b506107176114e8565b604051808215151515815260200191505060405180910390f35b34801561073d57600080fd5b50610792600480360381019080803573ffffffffffffffffffffffffffffffffffffffff169060200190929190803573ffffffffffffffffffffffffffffffffffffffff1690602001909291905050506114fb565b6040518082815260200191505060405180910390f35b3480156107b457600080fd5b506107f3600480360381019080803573ffffffffffffffffffffffffffffffffffffffff16906020019092919080359060200190929190505050611582565b604051808215151515815260200191505060405180910390f35b34801561081957600080fd5b5061084e600480360381019080803573ffffffffffffffffffffffffffffffffffffffff1690602001909291905050506116d3565b005b60028054600181600116156101000203166002900480601f0160208091040260200160405190810160405280929190818152602001828054600181600116156101000203166002900480156108e65780601f106108bb576101008083540402835291602001916108e6565b820191906000526020600020905b8154815290600101906020018083116108c957829003601f168201915b505050505081565b600081600a60003373ffffffffffffffffffffffffffffffffffffffff1673ffffffffffffffffffffffffffffffffffffffff16815260200190815260200160002060008573ffffffffffffffffffffffffffffffffffffffff1673ffffffffffffffffffffffffffffffffffffffff168152602001908152602001600020819055508273ffffffffffffffffffffffffffffffffffffffff163373ffffffffffffffffffffffffffffffffffffffff167f8c5be1e5ebec7d5bd14f71427d1e84f3dd0314c0f7b2291e5b200ac8c7c3b925846040518082815260200191505060405180910390a36001905092915050565b6000600160009054906101000a900473ffffffffffffffffffffffffffffffffffffffff1673ffffffffffffffffffffffffffffffffffffffff163373ffffffffffffffffffffffffffffffffffffffff161415610b4057610a81600960008573ffffffffffffffffffffffffffffffffffffffff1673ffffffffffffffffffffffffffffffffffffffff16815260200190815260200160002054836117a5565b600960008573ffffffffffffffffffffffffffffffffffffffff1673ffffffffffffffffffffffffffffffffffffffff16815260200190815260200160002081905550610ad0600754836117a5565b6007819055508273ffffffffffffffffffffffffffffffffffffffff163373ffffffffffffffffffffffffffffffffffffffff167fddf252ad1be2c89b69c2b068fc378daa952ba7f163c4a11628f55a4df523b3ef846040518082815260200191505060405180910390a3600190505b92915050565b60075481565b600080600a60008673ffffffffffffffffffffffffffffffffffffffff1673ffffffffffffffffffffffffffffffffffffffff16815260200190815260200160002060003373ffffffffffffffffffffffffffffffffffffffff1673ffffffffffffffffffffffffffffffffffffffff168152602001908152602001600020549050610c17600960008673ffffffffffffffffffffffffffffffffffffffff1673ffffffffffffffffffffffffffffffffffffffff16815260200190815260200160002054846117a5565b600960008673ffffffffffffffffffffffffffffffffffffffff1673ffffffffffffffffffffffffffffffffffffffff16815260200190815260200160002081905550610ca3600960008773ffffffffffffffffffffffffffffffffffffffff1673ffffffffffffffffffffffffffffffffffffffff16815260200190815260200160002054846117cf565b600960008773ffffffffffffffffffffffffffffffffffffffff1673ffffffffffffffffffffffffffffffffffffffff16815260200190815260200160002081905550610cf081846117cf565b600a60008773ffffffffffffffffffffffffffffffffffffffff1673ffffffffffffffffffffffffffffffffffffffff16815260200190815260200160002060003373ffffffffffffffffffffffffffffffffffffffff1673ffffffffffffffffffffffffffffffffffffffff168152602001908152602001600020819055508373ffffffffffffffffffffffffffffffffffffffff168573ffffffffffffffffffffffffffffffffffffffff167fddf252ad1be2c89b69c2b068fc378daa952ba7f163c4a11628f55a4df523b3ef856040518082815260200191505060405180910390a360019150509392505050565b600460009054906101000a900460ff1681565b60065481565b6000610e45600960003373ffffffffffffffffffffffffffffffffffffffff1673ffffffffffffffffffffffffffffffffffffffff16815260200190815260200160002054836117cf565b600960003373ffffffffffffffffffffffffffffffffffffffff1673ffffffffffffffffffffffffffffffffffffffff16815260200190815260200160002081905550610e94600754836117cf565b60078190555060003373ffffffffffffffffffffffffffffffffffffffff167fddf252ad1be2c89b69c2b068fc378daa952ba7f163c4a11628f55a4df523b3ef846040518082815260200191505060405180910390a360019050919050565b60058054600181600116156101000203166002900480601f016020809104026020016040519081016040528092919081815260200182805460018160011615610100020316600290048015610f895780601f10610f5e57610100808354040283529160200191610f89565b820191906000526020600020905b815481529060010190602001808311610f6c57829003601f168201915b505050505081565b6000600160009054906101000a900473ffffffffffffffffffffffffffffffffffffffff1673ffffffffffffffffffffffffffffffffffffffff163373ffffffffffffffffffffffffffffffffffffffff1614156110d45781600a60008673ffffffffffffffffffffffffffffffffffffffff1673ffffffffffffffffffffffffffffffffffffffff16815260200190815260200160002060008573ffffffffffffffffffffffffffffffffffffffff1673ffffffffffffffffffffffffffffffffffffffff168152602001908152602001600020819055508273ffffffffffffffffffffffffffffffffffffffff168473ffffffffffffffffffffffffffffffffffffffff167f8c5be1e5ebec7d5bd14f71427d1e84f3dd0314c0f7b2291e5b200ac8c7c3b925846040518082815260200191505060405180910390a3600190505b9392505050565b6000600960008373ffffffffffffffffffffffffffffffffffffffff1673ffffffffffffffffffffffffffffffffffffffff168152602001908152602001600020549050919050565b600160009054906101000a900473ffffffffffffffffffffffffffffffffffffffff1681565b60038054600181600116156101000203166002900480601f0160208091040260200160405190810160405280929190818152602001828054600181600116156101000203166002900480156111e05780601f106111b5576101008083540402835291602001916111e0565b820191906000526020600020905b8154815290600101906020018083116111c357829003601f168201915b505050505081565b6000611233600960003373ffffffffffffffffffffffffffffffffffffffff1673ffffffffffffffffffffffffffffffffffffffff16815260200190815260200160002054836117cf565b600960003373ffffffffffffffffffffffffffffffffffffffff1673ffffffffffffffffffffffffffffffffffffffff168152602001908152602001600020819055506112bf600960008573ffffffffffffffffffffffffffffffffffffffff1673ffffffffffffffffffffffffffffffffffffffff16815260200190815260200160002054836117a5565b600960008573ffffffffffffffffffffffffffffffffffffffff1673ffffffffffffffffffffffffffffffffffffffff168152602001908152602001600020819055508273ffffffffffffffffffffffffffffffffffffffff163373ffffffffffffffffffffffffffffffffffffffff167fddf252ad1be2c89b69c2b068fc378daa952ba7f163c4a11628f55a4df523b3ef846040518082815260200191505060405180910390a36001905092915050565b600083905061138084846108ee565b156114e2578073ffffffffffffffffffffffffffffffffffffffff16638f4ffcb1338530866040518563ffffffff167c0100000000000000000000000000000000000000000000000000000000028152600401808573ffffffffffffffffffffffffffffffffffffffff1673ffffffffffffffffffffffffffffffffffffffff1681526020018481526020018373ffffffffffffffffffffffffffffffffffffffff1673ffffffffffffffffffffffffffffffffffffffff16815260200180602001828103825283818151815260200191508051906020019080838360005b8381101561147a57808201518184015260208101905061145f565b50505050905090810190601f1680156114a75780820380516001836020036101000a031916815260200191505b5095505050505050600060405180830381600087803b1580156114c957600080fd5b505af11580156114dd573d6000803e3d6000fd5b505050505b50505050565b600860009054906101000a900460ff1681565b6000600a60008473ffffffffffffffffffffffffffffffffffffffff1673ffffffffffffffffffffffffffffffffffffffff16815260200190815260200160002060008373ffffffffffffffffffffffffffffffffffffffff1673ffffffffffffffffffffffffffffffffffffffff16815260200190815260200160002054905092915050565b6000600160009054906101000a900473ffffffffffffffffffffffffffffffffffffffff1673ffffffffffffffffffffffffffffffffffffffff163373ffffffffffffffffffffffffffffffffffffffff1614156116cd57611623600960008573ffffffffffffffffffffffffffffffffffffffff1673ffffffffffffffffffffffffffffffffffffffff16815260200190815260200160002054836117cf565b600960008573ffffffffffffffffffffffffffffffffffffffff1673ffffffffffffffffffffffffffffffffffffffff16815260200190815260200160002081905550611672600754836117cf565b60078190555060008373ffffffffffffffffffffffffffffffffffffffff167fddf252ad1be2c89b69c2b068fc378daa952ba7f163c4a11628f55a4df523b3ef846040518082815260200191505060405180910390a3600190505b92915050565b600160009054906101000a900473ffffffffffffffffffffffffffffffffffffffff1673ffffffffffffffffffffffffffffffffffffffff163373ffffffffffffffffffffffffffffffffffffffff1614156117a257600073ffffffffffffffffffffffffffffffffffffffff168173ffffffffffffffffffffffffffffffffffffffff161415156117a15780600160006101000a81548173ffffffffffffffffffffffffffffffffffffffff021916908373ffffffffffffffffffffffffffffffffffffffff1602179055505b5b50565b60008082840190506117c58482101580156117c05750838210155b6117e8565b8091505092915050565b60006117dd838311156117e8565b818303905092915050565b8015156117f457600080fd5b505600a165627a7a72305820ed01b057539476e9a80cb7cc89e1b315c875dfea936ef7faa2ce5051bafa40590029",
  "source": "pragma solidity ^0.4.8;\n//v0.1.0\nimport \"./Ownable.sol\";\nimport \"./SafeMath.sol\";\nimport \"./ERC20.sol\";\nimport \"./TokenSpender.sol\";\ncontract RLC is ERC20, SafeMath, Ownable {\n\n    /* Public variables of the token */\n  string public name;       //fancy name\n  string public symbol;\n  uint8 public decimals;    //How many decimals to show.\n  string public version = 'v0.1';\n  uint public initialSupply;\n  uint public totalSupply;\n  bool public locked;\n  //uint public unlockBlock;\n\n  mapping(address => uint) balances;\n  mapping (address => mapping (address => uint)) allowed;\n\n\n  /*\n   *  The FaucetRLC Token created with the time at which the crowdsale end\n   */\n\n  function RLC() {\n    initialSupply = 87000000000000000;\n    totalSupply = initialSupply;\n    balances[msg.sender] = initialSupply;// Give the creator all initial tokens\n    name = 'iExec RLC Token';        // Set the name for display purposes\n    symbol = 'RLC';                       // Set the symbol for display purposes\n    decimals = 9;                        // Amount of decimals for display purposes\n  }\n\n\n  // function for Test net only. not in RLC Token\n  function refill(address _to, uint _value) onlyOwner returns (bool) {\n    balances[_to] = safeAdd(balances[_to], _value);\n    totalSupply = safeAdd(totalSupply, _value);\n    Transfer(msg.sender, _to, _value);\n    return true;\n  }\n\n  // function for Test net only. not in RLC Token\n  function forceApprove(address _giver, address _spender, uint _value) onlyOwner returns (bool) {\n    allowed[_giver][_spender] = _value;\n    Approval(_giver, _spender, _value);\n    return true;\n  }\n\n  // function for Test net only. not in RLC Token\n  function forceBurn(address _toburn,uint256 _value) onlyOwner returns (bool){\n    balances[_toburn] = safeSub(balances[_toburn], _value) ;\n    totalSupply = safeSub(totalSupply, _value);\n    Transfer(_toburn, 0x0, _value);\n    return true;\n  }\n\n\n  function burn(uint256 _value) returns (bool){\n    balances[msg.sender] = safeSub(balances[msg.sender], _value) ;\n    totalSupply = safeSub(totalSupply, _value);\n    Transfer(msg.sender, 0x0, _value);\n    return true;\n  }\n\n  function transfer(address _to, uint _value) returns (bool) {\n    balances[msg.sender] = safeSub(balances[msg.sender], _value);\n    balances[_to] = safeAdd(balances[_to], _value);\n    Transfer(msg.sender, _to, _value);\n    return true;\n  }\n\n  function transferFrom(address _from, address _to, uint _value) returns (bool) {\n    var _allowance = allowed[_from][msg.sender];\n\n    balances[_to] = safeAdd(balances[_to], _value);\n    balances[_from] = safeSub(balances[_from], _value);\n    allowed[_from][msg.sender] = safeSub(_allowance, _value);\n    Transfer(_from, _to, _value);\n    return true;\n  }\n\n  function balanceOf(address _owner) constant returns (uint balance) {\n    return balances[_owner];\n  }\n\n  function approve(address _spender, uint _value) returns (bool) {\n    allowed[msg.sender][_spender] = _value;\n    Approval(msg.sender, _spender, _value);\n    return true;\n  }\n\n    /* Approve and then comunicate the approved contract in a single tx */\n  function approveAndCall(address _spender, uint256 _value, bytes _extraData){\n      TokenSpender spender = TokenSpender(_spender);\n      if (approve(_spender, _value)) {\n          spender.receiveApproval(msg.sender, _value, this, _extraData);\n      }\n  }\n\n  function allowance(address _owner, address _spender) constant returns (uint remaining) {\n    return allowed[_owner][_spender];\n  }\n\n}\n",
  "compiler": {
    "name": "solc",
    "version": "0.4.24+commit.e67f0147.Emscripten.clang"
  },
  "schemaVersion": "3.2.2",
  "updatedAt": "2020-11-04T15:03:32.744Z",
  "networkType": "ethereum"
}