{
  "contractName": "TaskRequest",
  "abi": [
    {
      "constant": true,
      "inputs": [],
      "name": "m_workerPoolRequested",
      "outputs": [
        {
          "name": "",
          "type": "address"
        }
      ],
      "payable": false,
      "stateMutability": "view",
      "type": "function"
    },
    {
      "constant": false,
      "inputs": [],
      "name": "setAccepted",
      "outputs": [
        {
          "name": "",
          "type": "bool"
        }
      ],
      "payable": false,
      "stateMutability": "nonpayable",
      "type": "function"
    },
    {
      "constant": true,
      "inputs": [],
      "name": "m_askedTrust",
      "outputs": [
        {
          "name": "",
          "type": "uint256"
        }
      ],
      "payable": false,
      "stateMutability": "view",
      "type": "function"
    },
    {
      "constant": false,
      "inputs": [],
      "name": "setCancelled",
      "outputs": [
        {
          "name": "",
          "type": "bool"
        }
      ],
      "payable": false,
      "stateMutability": "nonpayable",
      "type": "function"
    },
    {
      "constant": true,
      "inputs": [],
      "name": "m_taskParam",
      "outputs": [
        {
          "name": "",
          "type": "string"
        }
      ],
      "payable": false,
      "stateMutability": "view",
      "type": "function"
    },
    {
      "constant": true,
      "inputs": [],
      "name": "m_appRequested",
      "outputs": [
        {
          "name": "",
          "type": "address"
        }
      ],
      "payable": false,
      "stateMutability": "view",
      "type": "function"
    },
    {
      "constant": true,
      "inputs": [],
      "name": "m_uri",
      "outputs": [
        {
          "name": "",
          "type": "string"
        }
      ],
      "payable": false,
      "stateMutability": "view",
      "type": "function"
    },
    {
      "constant": true,
      "inputs": [],
      "name": "m_datasetRequested",
      "outputs": [
        {
          "name": "",
          "type": "address"
        }
      ],
      "payable": false,
      "stateMutability": "view",
      "type": "function"
    },
    {
      "constant": true,
      "inputs": [],
      "name": "m_dappCallback",
      "outputs": [
        {
          "name": "",
          "type": "bool"
        }
      ],
      "payable": false,
      "stateMutability": "view",
      "type": "function"
    },
    {
      "constant": true,
      "inputs": [],
      "name": "m_stdout",
      "outputs": [
        {
          "name": "",
          "type": "string"
        }
      ],
      "payable": false,
      "stateMutability": "view",
      "type": "function"
    },
    {
      "constant": false,
      "inputs": [
        {
          "name": "_stdout",
          "type": "string"
        },
        {
          "name": "_stderr",
          "type": "string"
        },
        {
          "name": "_uri",
          "type": "string"
        }
      ],
      "name": "setResult",
      "outputs": [
        {
          "name": "",
          "type": "bool"
        }
      ],
      "payable": false,
      "stateMutability": "nonpayable",
      "type": "function"
    },
    {
      "constant": true,
      "inputs": [],
      "name": "m_taskCost",
      "outputs": [
        {
          "name": "",
          "type": "uint256"
        }
      ],
      "payable": false,
      "stateMutability": "view",
      "type": "function"
    },
    {
      "constant": true,
      "inputs": [],
      "name": "m_owner",
      "outputs": [
        {
          "name": "",
          "type": "address"
        }
      ],
      "payable": false,
      "stateMutability": "view",
      "type": "function"
    },
    {
      "constant": true,
      "inputs": [],
      "name": "m_status",
      "outputs": [
        {
          "name": "",
          "type": "uint8"
        }
      ],
      "payable": false,
      "stateMutability": "view",
      "type": "function"
    },
    {
      "constant": false,
      "inputs": [
        {
          "name": "_newOwner",
          "type": "address"
        }
      ],
      "name": "transferOwnership",
      "outputs": [],
      "payable": false,
      "stateMutability": "nonpayable",
      "type": "function"
    },
    {
      "constant": true,
      "inputs": [],
      "name": "m_stderr",
      "outputs": [
        {
          "name": "",
          "type": "string"
        }
      ],
      "payable": false,
      "stateMutability": "view",
      "type": "function"
    },
    {
      "constant": false,
      "inputs": [],
      "name": "setAborted",
      "outputs": [
        {
          "name": "",
          "type": "bool"
        }
      ],
      "payable": false,
      "stateMutability": "nonpayable",
      "type": "function"
    },
    {
      "inputs": [
        {
          "name": "_iexecHubAddress",
          "type": "address"
        },
        {
          "name": "_requester",
          "type": "address"
        },
        {
          "name": "_workerPool",
          "type": "address"
        },
        {
          "name": "_app",
          "type": "address"
        },
        {
          "name": "_dataset",
          "type": "address"
        },
        {
          "name": "_taskParam",
          "type": "string"
        },
        {
          "name": "_taskCost",
          "type": "uint256"
        },
        {
          "name": "_askedTrust",
          "type": "uint256"
        },
        {
          "name": "_dappCallback",
          "type": "bool"
        }
      ],
      "payable": false,
      "stateMutability": "nonpayable",
      "type": "constructor"
    },
    {
      "anonymous": false,
      "inputs": [
        {
          "indexed": true,
          "name": "previousOwner",
          "type": "address"
        },
        {
          "indexed": true,
          "name": "newOwner",
          "type": "address"
        }
      ],
      "name": "OwnershipTransferred",
      "type": "event"
    }
  ],
  "bytecode": "0x606060405234156200001057600080fd5b60405162001673380380620016738339810160405280805190602001909190805190602001909190805190602001909190805190602001909190805190602001909190805182019190602001805190602001909190805190602001909190805190602001909190505088336000806101000a81548173ffffffffffffffffffffffffffffffffffffffff021916908373ffffffffffffffffffffffffffffffffffffffff160217905550600073ffffffffffffffffffffffffffffffffffffffff168173ffffffffffffffffffffffffffffffffffffffff1614151515620000f757600080fd5b80600160006101000a81548173ffffffffffffffffffffffffffffffffffffffff021916908373ffffffffffffffffffffffffffffffffffffffff16021790555080600260006101000a81548173ffffffffffffffffffffffffffffffffffffffff021916908373ffffffffffffffffffffffffffffffffffffffff16021790555050600073ffffffffffffffffffffffffffffffffffffffff168873ffffffffffffffffffffffffffffffffffffffff1614151515620001b757600080fd5b620001d6886200034f6401000000000262000dc1176401000000009004565b33600360006101000a81548173ffffffffffffffffffffffffffffffffffffffff021916908373ffffffffffffffffffffffffffffffffffffffff16021790555086600460006101000a81548173ffffffffffffffffffffffffffffffffffffffff021916908373ffffffffffffffffffffffffffffffffffffffff16021790555085600560006101000a81548173ffffffffffffffffffffffffffffffffffffffff021916908373ffffffffffffffffffffffffffffffffffffffff16021790555084600660006101000a81548173ffffffffffffffffffffffffffffffffffffffff021916908373ffffffffffffffffffffffffffffffffffffffff1602179055508360079080519060200190620002f2929190620004a6565b50826008819055508160098190555080600a60006101000a81548160ff0219169083151502179055506001600a60016101000a81548160ff021916908360058111156200033b57fe5b021790555050505050505050505062000555565b6000809054906101000a900473ffffffffffffffffffffffffffffffffffffffff1673ffffffffffffffffffffffffffffffffffffffff163373ffffffffffffffffffffffffffffffffffffffff16141515620003ab57600080fd5b600073ffffffffffffffffffffffffffffffffffffffff168173ffffffffffffffffffffffffffffffffffffffff1614151515620003e857600080fd5b8073ffffffffffffffffffffffffffffffffffffffff166000809054906101000a900473ffffffffffffffffffffffffffffffffffffffff1673ffffffffffffffffffffffffffffffffffffffff167f8be0079c531659141344cd1fd0a4f28419497f9722a3daafe3b4186f6b6457e060405160405180910390a3806000806101000a81548173ffffffffffffffffffffffffffffffffffffffff021916908373ffffffffffffffffffffffffffffffffffffffff16021790555050565b828054600181600116156101000203166002900490600052602060002090601f016020900481019282601f10620004e957805160ff19168380011785556200051a565b828001600101855582156200051a579182015b8281111562000519578251825591602001919060010190620004fc565b5b5090506200052991906200052d565b5090565b6200055291905b808211156200054e57600081600090555060010162000534565b5090565b90565b61110e80620005656000396000f3006060604052600436106100f1576000357c0100000000000000000000000000000000000000000000000000000000900463ffffffff16806301df522c146100f65780630cc2ded21461014b578063139beeb5146101785780633055d790146101a1578063514b93c6146101ce57806360c27ae21461025c5780639c4a8561146102b1578063c289664c1461033f578063c63132b914610394578063cc3a2dfa146103c1578063d5fdfdbc1461044f578063dd9689161461054a578063deff41c114610573578063e329c478146105c8578063f2fde38b146105ff578063f3859f5714610638578063fbc22407146106c6575b600080fd5b341561010157600080fd5b6101096106f3565b604051808273ffffffffffffffffffffffffffffffffffffffff1673ffffffffffffffffffffffffffffffffffffffff16815260200191505060405180910390f35b341561015657600080fd5b61015e610719565b604051808215151515815260200191505060405180910390f35b341561018357600080fd5b61018b6107a2565b6040518082815260200191505060405180910390f35b34156101ac57600080fd5b6101b46107a8565b604051808215151515815260200191505060405180910390f35b34156101d957600080fd5b6101e1610831565b6040518080602001828103825283818151815260200191508051906020019080838360005b83811015610221578082015181840152602081019050610206565b50505050905090810190601f16801561024e5780820380516001836020036101000a031916815260200191505b509250505060405180910390f35b341561026757600080fd5b61026f6108cf565b604051808273ffffffffffffffffffffffffffffffffffffffff1673ffffffffffffffffffffffffffffffffffffffff16815260200191505060405180910390f35b34156102bc57600080fd5b6102c46108f5565b6040518080602001828103825283818151815260200191508051906020019080838360005b838110156103045780820151818401526020810190506102e9565b50505050905090810190601f1680156103315780820380516001836020036101000a031916815260200191505b509250505060405180910390f35b341561034a57600080fd5b610352610993565b604051808273ffffffffffffffffffffffffffffffffffffffff1673ffffffffffffffffffffffffffffffffffffffff16815260200191505060405180910390f35b341561039f57600080fd5b6103a76109b9565b604051808215151515815260200191505060405180910390f35b34156103cc57600080fd5b6103d46109cc565b6040518080602001828103825283818151815260200191508051906020019080838360005b838110156104145780820151818401526020810190506103f9565b50505050905090810190601f1680156104415780820380516001836020036101000a031916815260200191505b509250505060405180910390f35b341561045a57600080fd5b610530600480803590602001908201803590602001908080601f0160208091040260200160405190810160405280939291908181526020018383808284378201915050505050509190803590602001908201803590602001908080601f0160208091040260200160405190810160405280939291908181526020018383808284378201915050505050509190803590602001908201803590602001908080601f01602080910402602001604051908101604052809392919081815260200183838082843782019150505050505091905050610a6a565b604051808215151515815260200191505060405180910390f35b341561055557600080fd5b61055d610d83565b6040518082815260200191505060405180910390f35b341561057e57600080fd5b610586610d89565b604051808273ffffffffffffffffffffffffffffffffffffffff1673ffffffffffffffffffffffffffffffffffffffff16815260200191505060405180910390f35b34156105d357600080fd5b6105db610dae565b604051808260058111156105eb57fe5b60ff16815260200191505060405180910390f35b341561060a57600080fd5b610636600480803573ffffffffffffffffffffffffffffffffffffffff16906020019091905050610dc1565b005b341561064357600080fd5b61064b610f16565b6040518080602001828103825283818151815260200191508051906020019080838360005b8381101561068b578082015181840152602081019050610670565b50505050905090810190601f1680156106b85780820380516001836020036101000a031916815260200191505b509250505060405180910390f35b34156106d157600080fd5b6106d9610fb4565b604051808215151515815260200191505060405180910390f35b600460009054906101000a900473ffffffffffffffffffffffffffffffffffffffff1681565b6000600360009054906101000a900473ffffffffffffffffffffffffffffffffffffffff1673ffffffffffffffffffffffffffffffffffffffff163373ffffffffffffffffffffffffffffffffffffffff1614151561077757600080fd5b6002600a60016101000a81548160ff0219169083600581111561079657fe5b02179055506001905090565b60095481565b6000600360009054906101000a900473ffffffffffffffffffffffffffffffffffffffff1673ffffffffffffffffffffffffffffffffffffffff163373ffffffffffffffffffffffffffffffffffffffff1614151561080657600080fd5b6003600a60016101000a81548160ff0219169083600581111561082557fe5b02179055506001905090565b60078054600181600116156101000203166002900480601f0160208091040260200160405190810160405280929190818152602001828054600181600116156101000203166002900480156108c75780601f1061089c576101008083540402835291602001916108c7565b820191906000526020600020905b8154815290600101906020018083116108aa57829003601f168201915b505050505081565b600560009054906101000a900473ffffffffffffffffffffffffffffffffffffffff1681565b600d8054600181600116156101000203166002900480601f01602080910402602001604051908101604052809291908181526020018280546001816001161561010002031660029004801561098b5780601f106109605761010080835404028352916020019161098b565b820191906000526020600020905b81548152906001019060200180831161096e57829003601f168201915b505050505081565b600660009054906101000a900473ffffffffffffffffffffffffffffffffffffffff1681565b600a60009054906101000a900460ff1681565b600b8054600181600116156101000203166002900480601f016020809104026020016040519081016040528092919081815260200182805460018160011615610100020316600290048015610a625780601f10610a3757610100808354040283529160200191610a62565b820191906000526020600020905b815481529060010190602001808311610a4557829003601f168201915b505050505081565b6000600360009054906101000a900473ffffffffffffffffffffffffffffffffffffffff1673ffffffffffffffffffffffffffffffffffffffff163373ffffffffffffffffffffffffffffffffffffffff16141515610ac857600080fd5b83600b9080519060200190610ade92919061103d565b5082600c9080519060200190610af592919061103d565b5081600d9080519060200190610b0c92919061103d565b506005600a60016101000a81548160ff02191690836005811115610b2c57fe5b0217905550600a60009054906101000a900460ff1615610d78576000809054906101000a900473ffffffffffffffffffffffffffffffffffffffff1673ffffffffffffffffffffffffffffffffffffffff1663bfff6b45308686866000604051602001526040518563ffffffff167c0100000000000000000000000000000000000000000000000000000000028152600401808573ffffffffffffffffffffffffffffffffffffffff1673ffffffffffffffffffffffffffffffffffffffff168152602001806020018060200180602001848103845287818151815260200191508051906020019080838360005b83811015610c35578082015181840152602081019050610c1a565b50505050905090810190601f168015610c625780820380516001836020036101000a031916815260200191505b50848103835286818151815260200191508051906020019080838360005b83811015610c9b578082015181840152602081019050610c80565b50505050905090810190601f168015610cc85780820380516001836020036101000a031916815260200191505b50848103825285818151815260200191508051906020019080838360005b83811015610d01578082015181840152602081019050610ce6565b50505050905090810190601f168015610d2e5780820380516001836020036101000a031916815260200191505b50975050505050505050602060405180830381600087803b1515610d5157600080fd5b6102c65a03f11515610d6257600080fd5b505050604051805190501515610d7757600080fd5b5b600190509392505050565b60085481565b6000809054906101000a900473ffffffffffffffffffffffffffffffffffffffff1681565b600a60019054906101000a900460ff1681565b6000809054906101000a900473ffffffffffffffffffffffffffffffffffffffff1673ffffffffffffffffffffffffffffffffffffffff163373ffffffffffffffffffffffffffffffffffffffff16141515610e1c57600080fd5b600073ffffffffffffffffffffffffffffffffffffffff168173ffffffffffffffffffffffffffffffffffffffff1614151515610e5857600080fd5b8073ffffffffffffffffffffffffffffffffffffffff166000809054906101000a900473ffffffffffffffffffffffffffffffffffffffff1673ffffffffffffffffffffffffffffffffffffffff167f8be0079c531659141344cd1fd0a4f28419497f9722a3daafe3b4186f6b6457e060405160405180910390a3806000806101000a81548173ffffffffffffffffffffffffffffffffffffffff021916908373ffffffffffffffffffffffffffffffffffffffff16021790555050565b600c8054600181600116156101000203166002900480601f016020809104026020016040519081016040528092919081815260200182805460018160011615610100020316600290048015610fac5780601f10610f8157610100808354040283529160200191610fac565b820191906000526020600020905b815481529060010190602001808311610f8f57829003601f168201915b505050505081565b6000600360009054906101000a900473ffffffffffffffffffffffffffffffffffffffff1673ffffffffffffffffffffffffffffffffffffffff163373ffffffffffffffffffffffffffffffffffffffff1614151561101257600080fd5b6004600a60016101000a81548160ff0219169083600581111561103157fe5b02179055506001905090565b828054600181600116156101000203166002900490600052602060002090601f016020900481019282601f1061107e57805160ff19168380011785556110ac565b828001600101855582156110ac579182015b828111156110ab578251825591602001919060010190611090565b5b5090506110b991906110bd565b5090565b6110df91905b808211156110db5760008160009055506001016110c3565b5090565b905600a165627a7a723058202ece12b14f3b9e8fdd61048e3cd6bf5b1c33ad6f8caa0ab443aac9fdd345046f0029",
  "source": "pragma solidity ^0.4.18;\n\nimport \"./OwnableOZ.sol\";\nimport './IexecHubAccessor.sol';\nimport './IexecAPI.sol';\n\ncontract TaskRequest is OwnableOZ, IexecHubAccessor\n{\n\n\n\tenum TaskRequestStatusEnum\n\t{\n\t\tUNSET,\n\t\tPENDING,\n\t\tACCEPTED,\n\t\tCANCELLED,\n\t\tABORTED,\n\t\tCOMPLETED\n\t}\n\n\n\t/**\n\t * Members\n\t */\n\taddress private m_taskRequestHubAddress;\n\n\tmodifier onlytaskRequestHub()\n\t{\n\t\trequire(msg.sender == m_taskRequestHubAddress);\n\t\t_;\n\t}\n\n\n\taddress public m_workerPoolRequested;\n\taddress public m_appRequested;\n\taddress public m_datasetRequested;\n\tstring  public m_taskParam;\n\tuint256 public m_taskCost;\n\tuint256 public m_askedTrust;\n\tbool    public m_dappCallback;\n\n  TaskRequestStatusEnum  public m_status;\n\tstring  public m_stdout;\n\tstring  public m_stderr;\n\tstring  public m_uri;\n\n\t/**\n\t * Constructor\n\t */\n\tfunction TaskRequest(\n\t\taddress _iexecHubAddress,\n\t\taddress _requester,\n\t\taddress _workerPool,\n\t\taddress _app,\n\t\taddress _dataset,\n\t\tstring  _taskParam,\n\t\tuint    _taskCost,\n\t\tuint    _askedTrust,\n\t\tbool    _dappCallback)\n\tIexecHubAccessor(_iexecHubAddress)\n\tpublic\n\t{\n\t\trequire(_requester != address(0));\n\t\ttransferOwnership(_requester); // owner → tx.origin\n\t\tm_taskRequestHubAddress =msg.sender;\n\n\t\tm_workerPoolRequested = _workerPool;\n\t\tm_appRequested        = _app;\n\t\tm_datasetRequested    = _dataset;\n\t\tm_taskParam           = _taskParam;\n\t\tm_taskCost            = _taskCost;\n\t\tm_askedTrust          = _askedTrust;\n\t\tm_dappCallback        = _dappCallback;\n\t\tm_status =TaskRequestStatusEnum.PENDING;\n\t}\n\n\tfunction setAccepted() onlytaskRequestHub public returns (bool)\n\t{\n\t\tm_status = TaskRequestStatusEnum.ACCEPTED;\n\t\treturn true;\n\t}\n\n\tfunction setCancelled() onlytaskRequestHub  public returns (bool)\n\t{\n\t\tm_status = TaskRequestStatusEnum.CANCELLED;\n\t\treturn true;\n\t}\n\n\tfunction setAborted() onlytaskRequestHub  public returns (bool)\n\t{\n\t\tm_status = TaskRequestStatusEnum.ABORTED;\n\t\treturn true;\n\t}\n\n\tfunction setResult(string _stdout, string _stderr, string _uri) onlytaskRequestHub public returns (bool)\n\t{\n\t\tm_stdout = _stdout;\n\t\tm_stderr = _stderr;\n\t\tm_uri    = _uri;\n\t\tm_status = TaskRequestStatusEnum.COMPLETED;\n\t\tif(m_dappCallback){\n\t\t\t//optional dappCallback call can be done\n\t\t\trequire(IexecAPI(m_owner).taskRequestCallback(\n\t\t\t\tthis,\n\t\t\t\t_stdout,\n\t\t\t\t_stderr,\n\t\t\t\t_uri\n\t\t\t));\n\t\t}\n\t\treturn true;\n\t}\n\n\n\n\n}\n",
  "sourcePath": "/home/vagrant/iexecdev/PoCo/contracts/TaskRequest.sol",
  "compiler": {
    "name": "solc",
    "version": "0.4.18+commit.9cf6e910.Emscripten.clang"
  },
  "schemaVersion": "1.0.1",
  "updatedAt": "2018-01-29T14:56:05.519Z"
}