{
  "contractName": "TaskRequestHub",
  "abi": [
    {
      "constant": true,
      "inputs": [
        {
          "name": "_taskRequest",
          "type": "address"
        }
      ],
      "name": "getTaskRequestOwner",
      "outputs": [
        {
          "name": "",
          "type": "address"
        }
      ],
      "payable": false,
      "stateMutability": "view",
      "type": "function"
    },
    {
      "constant": false,
      "inputs": [
        {
          "name": "_taskId",
          "type": "address"
        }
      ],
      "name": "setAccepted",
      "outputs": [
        {
          "name": "",
          "type": "bool"
        }
      ],
      "payable": false,
      "stateMutability": "nonpayable",
      "type": "function"
    },
    {
      "constant": true,
      "inputs": [
        {
          "name": "_taskId",
          "type": "address"
        }
      ],
      "name": "getTaskCost",
      "outputs": [
        {
          "name": "",
          "type": "uint256"
        }
      ],
      "payable": false,
      "stateMutability": "view",
      "type": "function"
    },
    {
      "constant": false,
      "inputs": [
        {
          "name": "_taskId",
          "type": "address"
        }
      ],
      "name": "setCancelled",
      "outputs": [
        {
          "name": "",
          "type": "bool"
        }
      ],
      "payable": false,
      "stateMutability": "nonpayable",
      "type": "function"
    },
    {
      "constant": true,
      "inputs": [
        {
          "name": "_owner",
          "type": "address"
        },
        {
          "name": "_index",
          "type": "uint256"
        }
      ],
      "name": "getTaskRequest",
      "outputs": [
        {
          "name": "",
          "type": "address"
        }
      ],
      "payable": false,
      "stateMutability": "view",
      "type": "function"
    },
    {
      "constant": false,
      "inputs": [
        {
          "name": "_taskId",
          "type": "address"
        },
        {
          "name": "_stdout",
          "type": "string"
        },
        {
          "name": "_stderr",
          "type": "string"
        },
        {
          "name": "_uri",
          "type": "string"
        }
      ],
      "name": "setResult",
      "outputs": [
        {
          "name": "",
          "type": "bool"
        }
      ],
      "payable": false,
      "stateMutability": "nonpayable",
      "type": "function"
    },
    {
      "constant": true,
      "inputs": [
        {
          "name": "_taskRequest",
          "type": "address"
        }
      ],
      "name": "isTaskRequestRegistred",
      "outputs": [
        {
          "name": "",
          "type": "bool"
        }
      ],
      "payable": false,
      "stateMutability": "view",
      "type": "function"
    },
    {
      "constant": true,
      "inputs": [
        {
          "name": "_owner",
          "type": "address"
        }
      ],
      "name": "getTaskRequestsCount",
      "outputs": [
        {
          "name": "",
          "type": "uint256"
        }
      ],
      "payable": false,
      "stateMutability": "view",
      "type": "function"
    },
    {
      "constant": false,
      "inputs": [
        {
          "name": "_requester",
          "type": "address"
        },
        {
          "name": "_workerPool",
          "type": "address"
        },
        {
          "name": "_app",
          "type": "address"
        },
        {
          "name": "_dataset",
          "type": "address"
        },
        {
          "name": "_taskParam",
          "type": "string"
        },
        {
          "name": "_taskCost",
          "type": "uint256"
        },
        {
          "name": "_askedTrust",
          "type": "uint256"
        },
        {
          "name": "_dappCallback",
          "type": "bool"
        }
      ],
      "name": "createTaskRequest",
      "outputs": [
        {
          "name": "createdTaskRequest",
          "type": "address"
        }
      ],
      "payable": false,
      "stateMutability": "nonpayable",
      "type": "function"
    },
    {
      "constant": true,
      "inputs": [],
      "name": "m_owner",
      "outputs": [
        {
          "name": "",
          "type": "address"
        }
      ],
      "payable": false,
      "stateMutability": "view",
      "type": "function"
    },
    {
      "constant": false,
      "inputs": [
        {
          "name": "_newOwner",
          "type": "address"
        }
      ],
      "name": "transferOwnership",
      "outputs": [],
      "payable": false,
      "stateMutability": "nonpayable",
      "type": "function"
    },
    {
      "constant": false,
      "inputs": [
        {
          "name": "_taskId",
          "type": "address"
        }
      ],
      "name": "setAborted",
      "outputs": [
        {
          "name": "",
          "type": "bool"
        }
      ],
      "payable": false,
      "stateMutability": "nonpayable",
      "type": "function"
    },
    {
      "inputs": [],
      "payable": false,
      "stateMutability": "nonpayable",
      "type": "constructor"
    },
    {
      "anonymous": false,
      "inputs": [
        {
          "indexed": false,
          "name": "taskRequestOwner",
          "type": "address"
        },
        {
          "indexed": false,
          "name": "taskRequest",
          "type": "address"
        },
        {
          "indexed": true,
          "name": "workerPool",
          "type": "address"
        },
        {
          "indexed": true,
          "name": "app",
          "type": "address"
        },
        {
          "indexed": true,
          "name": "dataset",
          "type": "address"
        },
        {
          "indexed": false,
          "name": "taskParam",
          "type": "string"
        },
        {
          "indexed": false,
          "name": "taskCost",
          "type": "uint256"
        },
        {
          "indexed": false,
          "name": "askedTrust",
          "type": "uint256"
        },
        {
          "indexed": false,
          "name": "dappCallback",
          "type": "bool"
        }
      ],
      "name": "CreateTaskRequest",
      "type": "event"
    },
    {
      "anonymous": false,
      "inputs": [
        {
          "indexed": true,
          "name": "previousOwner",
          "type": "address"
        },
        {
          "indexed": true,
          "name": "newOwner",
          "type": "address"
        }
      ],
      "name": "OwnershipTransferred",
      "type": "event"
    }
  ],
  "bytecode": "0x6060604052341561000f57600080fd5b336000806101000a81548173ffffffffffffffffffffffffffffffffffffffff021916908373ffffffffffffffffffffffffffffffffffffffff160217905550612bb18061005e6000396000f300606060405260043610620000c7576000357c0100000000000000000000000000000000000000000000000000000000900463ffffffff16806306c206c714620000cc57806332b4b1291462000148578063448be440146200019c5780634735913714620001ec57806367a3ee7714620002405780636990457614620002c557806370c95a8114620003e2578063b939a2a31462000436578063d4dfc55a1462000486578063deff41c114620005bf578063f2fde38b1462000617578063f7374e611462000653575b600080fd5b3415620000d857600080fd5b62000106600480803573ffffffffffffffffffffffffffffffffffffffff16906020019091905050620006a7565b604051808273ffffffffffffffffffffffffffffffffffffffff1673ffffffffffffffffffffffffffffffffffffffff16815260200191505060405180910390f35b34156200015457600080fd5b62000182600480803573ffffffffffffffffffffffffffffffffffffffff1690602001909190505062000710565b604051808215151515815260200191505060405180910390f35b3415620001a857600080fd5b620001d6600480803573ffffffffffffffffffffffffffffffffffffffff16906020019091905050620007fe565b6040518082815260200191505060405180910390f35b3415620001f857600080fd5b62000226600480803573ffffffffffffffffffffffffffffffffffffffff1690602001909190505062000890565b604051808215151515815260200191505060405180910390f35b34156200024c57600080fd5b62000283600480803573ffffffffffffffffffffffffffffffffffffffff169060200190919080359060200190919050506200097e565b604051808273ffffffffffffffffffffffffffffffffffffffff1673ffffffffffffffffffffffffffffffffffffffff16815260200191505060405180910390f35b3415620002d157600080fd5b620003c8600480803573ffffffffffffffffffffffffffffffffffffffff1690602001909190803590602001908201803590602001908080601f0160208091040260200160405190810160405280939291908181526020018383808284378201915050505050509190803590602001908201803590602001908080601f0160208091040260200160405190810160405280939291908181526020018383808284378201915050505050509190803590602001908201803590602001908080601f01602080910402602001604051908101604052809392919081815260200183838082843782019150505050505091905050620009f9565b604051808215151515815260200191505060405180910390f35b3415620003ee57600080fd5b6200041c600480803573ffffffffffffffffffffffffffffffffffffffff1690602001909190505062000c3d565b604051808215151515815260200191505060405180910390f35b34156200044257600080fd5b62000470600480803573ffffffffffffffffffffffffffffffffffffffff1690602001909190505062000cbf565b6040518082815260200191505060405180910390f35b34156200049257600080fd5b6200057d600480803573ffffffffffffffffffffffffffffffffffffffff1690602001909190803573ffffffffffffffffffffffffffffffffffffffff1690602001909190803573ffffffffffffffffffffffffffffffffffffffff1690602001909190803573ffffffffffffffffffffffffffffffffffffffff1690602001909190803590602001908201803590602001908080601f01602080910402602001604051908101604052809392919081815260200183838082843782019150505050505091908035906020019091908035906020019091908035151590602001909190505062000d08565b604051808273ffffffffffffffffffffffffffffffffffffffff1673ffffffffffffffffffffffffffffffffffffffff16815260200191505060405180910390f35b3415620005cb57600080fd5b620005d562001278565b604051808273ffffffffffffffffffffffffffffffffffffffff1673ffffffffffffffffffffffffffffffffffffffff16815260200191505060405180910390f35b34156200062357600080fd5b62000651600480803573ffffffffffffffffffffffffffffffffffffffff169060200190919050506200129d565b005b34156200065f57600080fd5b6200068d600480803573ffffffffffffffffffffffffffffffffffffffff16906020019091905050620013f4565b604051808215151515815260200191505060405180910390f35b6000600360008373ffffffffffffffffffffffffffffffffffffffff1673ffffffffffffffffffffffffffffffffffffffff16815260200190815260200160002060009054906101000a900473ffffffffffffffffffffffffffffffffffffffff169050919050565b60008060009054906101000a900473ffffffffffffffffffffffffffffffffffffffff1673ffffffffffffffffffffffffffffffffffffffff163373ffffffffffffffffffffffffffffffffffffffff161415156200076e57600080fd5b8173ffffffffffffffffffffffffffffffffffffffff16630cc2ded26000604051602001526040518163ffffffff167c0100000000000000000000000000000000000000000000000000000000028152600401602060405180830381600087803b1515620007db57600080fd5b6102c65a03f11515620007ed57600080fd5b505050604051805190509050919050565b60008173ffffffffffffffffffffffffffffffffffffffff1663dd9689166000604051602001526040518163ffffffff167c0100000000000000000000000000000000000000000000000000000000028152600401602060405180830381600087803b15156200086d57600080fd5b6102c65a03f115156200087f57600080fd5b505050604051805190509050919050565b60008060009054906101000a900473ffffffffffffffffffffffffffffffffffffffff1673ffffffffffffffffffffffffffffffffffffffff163373ffffffffffffffffffffffffffffffffffffffff16141515620008ee57600080fd5b8173ffffffffffffffffffffffffffffffffffffffff16633055d7906000604051602001526040518163ffffffff167c0100000000000000000000000000000000000000000000000000000000028152600401602060405180830381600087803b15156200095b57600080fd5b6102c65a03f115156200096d57600080fd5b505050604051805190509050919050565b6000600260008473ffffffffffffffffffffffffffffffffffffffff1673ffffffffffffffffffffffffffffffffffffffff168152602001908152602001600020600083815260200190815260200160002060009054906101000a900473ffffffffffffffffffffffffffffffffffffffff16905092915050565b60008060009054906101000a900473ffffffffffffffffffffffffffffffffffffffff1673ffffffffffffffffffffffffffffffffffffffff163373ffffffffffffffffffffffffffffffffffffffff1614151562000a5757600080fd5b8473ffffffffffffffffffffffffffffffffffffffff1663d5fdfdbc8585856000604051602001526040518463ffffffff167c010000000000000000000000000000000000000000000000000000000002815260040180806020018060200180602001848103845287818151815260200191508051906020019080838360005b8381101562000af457808201518184015260208101905062000ad7565b50505050905090810190601f16801562000b225780820380516001836020036101000a031916815260200191505b50848103835286818151815260200191508051906020019080838360005b8381101562000b5d57808201518184015260208101905062000b40565b50505050905090810190601f16801562000b8b5780820380516001836020036101000a031916815260200191505b50848103825285818151815260200191508051906020019080838360005b8381101562000bc657808201518184015260208101905062000ba9565b50505050905090810190601f16801562000bf45780820380516001836020036101000a031916815260200191505b509650505050505050602060405180830381600087803b151562000c1757600080fd5b6102c65a03f1151562000c2957600080fd5b505050604051805190509050949350505050565b600080600360008473ffffffffffffffffffffffffffffffffffffffff1673ffffffffffffffffffffffffffffffffffffffff16815260200190815260200160002060009054906101000a900473ffffffffffffffffffffffffffffffffffffffff1673ffffffffffffffffffffffffffffffffffffffff1614159050919050565b6000600160008373ffffffffffffffffffffffffffffffffffffffff1673ffffffffffffffffffffffffffffffffffffffff168152602001908152602001600020549050919050565b6000806000809054906101000a900473ffffffffffffffffffffffffffffffffffffffff1673ffffffffffffffffffffffffffffffffffffffff163373ffffffffffffffffffffffffffffffffffffffff1614151562000d6757600080fd5b338a8a8a8a8a8a8a8a62000d7a62001501565b808a73ffffffffffffffffffffffffffffffffffffffff1673ffffffffffffffffffffffffffffffffffffffff1681526020018973ffffffffffffffffffffffffffffffffffffffff1673ffffffffffffffffffffffffffffffffffffffff1681526020018873ffffffffffffffffffffffffffffffffffffffff1673ffffffffffffffffffffffffffffffffffffffff1681526020018773ffffffffffffffffffffffffffffffffffffffff1673ffffffffffffffffffffffffffffffffffffffff1681526020018673ffffffffffffffffffffffffffffffffffffffff1673ffffffffffffffffffffffffffffffffffffffff1681526020018060200185815260200184815260200183151515158152602001828103825286818151815260200191508051906020019080838360005b8381101562000ec957808201518184015260208101905062000eac565b50505050905090810190601f16801562000ef75780820380516001836020036101000a031916815260200191505b509a5050505050505050505050604051809103906000f080151562000f1b57600080fd5b905062000f7160018060008d73ffffffffffffffffffffffffffffffffffffffff1673ffffffffffffffffffffffffffffffffffffffff16815260200190815260200160002054620014e290919063ffffffff16565b600160008c73ffffffffffffffffffffffffffffffffffffffff1673ffffffffffffffffffffffffffffffffffffffff1681526020019081526020016000208190555080600260008c73ffffffffffffffffffffffffffffffffffffffff1673ffffffffffffffffffffffffffffffffffffffff1681526020019081526020016000206000600160008e73ffffffffffffffffffffffffffffffffffffffff1673ffffffffffffffffffffffffffffffffffffffff16815260200190815260200160002054815260200190815260200160002060006101000a81548173ffffffffffffffffffffffffffffffffffffffff021916908373ffffffffffffffffffffffffffffffffffffffff16021790555089600360008373ffffffffffffffffffffffffffffffffffffffff1673ffffffffffffffffffffffffffffffffffffffff16815260200190815260200160002060006101000a81548173ffffffffffffffffffffffffffffffffffffffff021916908373ffffffffffffffffffffffffffffffffffffffff1602179055508673ffffffffffffffffffffffffffffffffffffffff168873ffffffffffffffffffffffffffffffffffffffff168a73ffffffffffffffffffffffffffffffffffffffff167f0aa59a6a37c9a2cf806687ebf31f348556ad939ab7dc334b47162d18af80c7f68d858b8b8b8b604051808773ffffffffffffffffffffffffffffffffffffffff1673ffffffffffffffffffffffffffffffffffffffff1681526020018673ffffffffffffffffffffffffffffffffffffffff1673ffffffffffffffffffffffffffffffffffffffff1681526020018060200185815260200184815260200183151515158152602001828103825286818151815260200191508051906020019080838360005b83811015620012285780820151818401526020810190506200120b565b50505050905090810190601f168015620012565780820380516001836020036101000a031916815260200191505b5097505050505050505060405180910390a48091505098975050505050505050565b6000809054906101000a900473ffffffffffffffffffffffffffffffffffffffff1681565b6000809054906101000a900473ffffffffffffffffffffffffffffffffffffffff1673ffffffffffffffffffffffffffffffffffffffff163373ffffffffffffffffffffffffffffffffffffffff16141515620012f957600080fd5b600073ffffffffffffffffffffffffffffffffffffffff168173ffffffffffffffffffffffffffffffffffffffff16141515156200133657600080fd5b8073ffffffffffffffffffffffffffffffffffffffff166000809054906101000a900473ffffffffffffffffffffffffffffffffffffffff1673ffffffffffffffffffffffffffffffffffffffff167f8be0079c531659141344cd1fd0a4f28419497f9722a3daafe3b4186f6b6457e060405160405180910390a3806000806101000a81548173ffffffffffffffffffffffffffffffffffffffff021916908373ffffffffffffffffffffffffffffffffffffffff16021790555050565b60008060009054906101000a900473ffffffffffffffffffffffffffffffffffffffff1673ffffffffffffffffffffffffffffffffffffffff163373ffffffffffffffffffffffffffffffffffffffff161415156200145257600080fd5b8173ffffffffffffffffffffffffffffffffffffffff1663fbc224076000604051602001526040518163ffffffff167c0100000000000000000000000000000000000000000000000000000000028152600401602060405180830381600087803b1515620014bf57600080fd5b6102c65a03f11515620014d157600080fd5b505050604051805190509050919050565b6000808284019050838110151515620014f757fe5b8091505092915050565b6040516116738062001513833901905600606060405234156200001057600080fd5b60405162001673380380620016738339810160405280805190602001909190805190602001909190805190602001909190805190602001909190805190602001909190805182019190602001805190602001909190805190602001909190805190602001909190505088336000806101000a81548173ffffffffffffffffffffffffffffffffffffffff021916908373ffffffffffffffffffffffffffffffffffffffff160217905550600073ffffffffffffffffffffffffffffffffffffffff168173ffffffffffffffffffffffffffffffffffffffff1614151515620000f757600080fd5b80600160006101000a81548173ffffffffffffffffffffffffffffffffffffffff021916908373ffffffffffffffffffffffffffffffffffffffff16021790555080600260006101000a81548173ffffffffffffffffffffffffffffffffffffffff021916908373ffffffffffffffffffffffffffffffffffffffff16021790555050600073ffffffffffffffffffffffffffffffffffffffff168873ffffffffffffffffffffffffffffffffffffffff1614151515620001b757600080fd5b620001d6886200034f6401000000000262000dc1176401000000009004565b33600360006101000a81548173ffffffffffffffffffffffffffffffffffffffff021916908373ffffffffffffffffffffffffffffffffffffffff16021790555086600460006101000a81548173ffffffffffffffffffffffffffffffffffffffff021916908373ffffffffffffffffffffffffffffffffffffffff16021790555085600560006101000a81548173ffffffffffffffffffffffffffffffffffffffff021916908373ffffffffffffffffffffffffffffffffffffffff16021790555084600660006101000a81548173ffffffffffffffffffffffffffffffffffffffff021916908373ffffffffffffffffffffffffffffffffffffffff1602179055508360079080519060200190620002f2929190620004a6565b50826008819055508160098190555080600a60006101000a81548160ff0219169083151502179055506001600a60016101000a81548160ff021916908360058111156200033b57fe5b021790555050505050505050505062000555565b6000809054906101000a900473ffffffffffffffffffffffffffffffffffffffff1673ffffffffffffffffffffffffffffffffffffffff163373ffffffffffffffffffffffffffffffffffffffff16141515620003ab57600080fd5b600073ffffffffffffffffffffffffffffffffffffffff168173ffffffffffffffffffffffffffffffffffffffff1614151515620003e857600080fd5b8073ffffffffffffffffffffffffffffffffffffffff166000809054906101000a900473ffffffffffffffffffffffffffffffffffffffff1673ffffffffffffffffffffffffffffffffffffffff167f8be0079c531659141344cd1fd0a4f28419497f9722a3daafe3b4186f6b6457e060405160405180910390a3806000806101000a81548173ffffffffffffffffffffffffffffffffffffffff021916908373ffffffffffffffffffffffffffffffffffffffff16021790555050565b828054600181600116156101000203166002900490600052602060002090601f016020900481019282601f10620004e957805160ff19168380011785556200051a565b828001600101855582156200051a579182015b8281111562000519578251825591602001919060010190620004fc565b5b5090506200052991906200052d565b5090565b6200055291905b808211156200054e57600081600090555060010162000534565b5090565b90565b61110e80620005656000396000f3006060604052600436106100f1576000357c0100000000000000000000000000000000000000000000000000000000900463ffffffff16806301df522c146100f65780630cc2ded21461014b578063139beeb5146101785780633055d790146101a1578063514b93c6146101ce57806360c27ae21461025c5780639c4a8561146102b1578063c289664c1461033f578063c63132b914610394578063cc3a2dfa146103c1578063d5fdfdbc1461044f578063dd9689161461054a578063deff41c114610573578063e329c478146105c8578063f2fde38b146105ff578063f3859f5714610638578063fbc22407146106c6575b600080fd5b341561010157600080fd5b6101096106f3565b604051808273ffffffffffffffffffffffffffffffffffffffff1673ffffffffffffffffffffffffffffffffffffffff16815260200191505060405180910390f35b341561015657600080fd5b61015e610719565b604051808215151515815260200191505060405180910390f35b341561018357600080fd5b61018b6107a2565b6040518082815260200191505060405180910390f35b34156101ac57600080fd5b6101b46107a8565b604051808215151515815260200191505060405180910390f35b34156101d957600080fd5b6101e1610831565b6040518080602001828103825283818151815260200191508051906020019080838360005b83811015610221578082015181840152602081019050610206565b50505050905090810190601f16801561024e5780820380516001836020036101000a031916815260200191505b509250505060405180910390f35b341561026757600080fd5b61026f6108cf565b604051808273ffffffffffffffffffffffffffffffffffffffff1673ffffffffffffffffffffffffffffffffffffffff16815260200191505060405180910390f35b34156102bc57600080fd5b6102c46108f5565b6040518080602001828103825283818151815260200191508051906020019080838360005b838110156103045780820151818401526020810190506102e9565b50505050905090810190601f1680156103315780820380516001836020036101000a031916815260200191505b509250505060405180910390f35b341561034a57600080fd5b610352610993565b604051808273ffffffffffffffffffffffffffffffffffffffff1673ffffffffffffffffffffffffffffffffffffffff16815260200191505060405180910390f35b341561039f57600080fd5b6103a76109b9565b604051808215151515815260200191505060405180910390f35b34156103cc57600080fd5b6103d46109cc565b6040518080602001828103825283818151815260200191508051906020019080838360005b838110156104145780820151818401526020810190506103f9565b50505050905090810190601f1680156104415780820380516001836020036101000a031916815260200191505b509250505060405180910390f35b341561045a57600080fd5b610530600480803590602001908201803590602001908080601f0160208091040260200160405190810160405280939291908181526020018383808284378201915050505050509190803590602001908201803590602001908080601f0160208091040260200160405190810160405280939291908181526020018383808284378201915050505050509190803590602001908201803590602001908080601f01602080910402602001604051908101604052809392919081815260200183838082843782019150505050505091905050610a6a565b604051808215151515815260200191505060405180910390f35b341561055557600080fd5b61055d610d83565b6040518082815260200191505060405180910390f35b341561057e57600080fd5b610586610d89565b604051808273ffffffffffffffffffffffffffffffffffffffff1673ffffffffffffffffffffffffffffffffffffffff16815260200191505060405180910390f35b34156105d357600080fd5b6105db610dae565b604051808260058111156105eb57fe5b60ff16815260200191505060405180910390f35b341561060a57600080fd5b610636600480803573ffffffffffffffffffffffffffffffffffffffff16906020019091905050610dc1565b005b341561064357600080fd5b61064b610f16565b6040518080602001828103825283818151815260200191508051906020019080838360005b8381101561068b578082015181840152602081019050610670565b50505050905090810190601f1680156106b85780820380516001836020036101000a031916815260200191505b509250505060405180910390f35b34156106d157600080fd5b6106d9610fb4565b604051808215151515815260200191505060405180910390f35b600460009054906101000a900473ffffffffffffffffffffffffffffffffffffffff1681565b6000600360009054906101000a900473ffffffffffffffffffffffffffffffffffffffff1673ffffffffffffffffffffffffffffffffffffffff163373ffffffffffffffffffffffffffffffffffffffff1614151561077757600080fd5b6002600a60016101000a81548160ff0219169083600581111561079657fe5b02179055506001905090565b60095481565b6000600360009054906101000a900473ffffffffffffffffffffffffffffffffffffffff1673ffffffffffffffffffffffffffffffffffffffff163373ffffffffffffffffffffffffffffffffffffffff1614151561080657600080fd5b6003600a60016101000a81548160ff0219169083600581111561082557fe5b02179055506001905090565b60078054600181600116156101000203166002900480601f0160208091040260200160405190810160405280929190818152602001828054600181600116156101000203166002900480156108c75780601f1061089c576101008083540402835291602001916108c7565b820191906000526020600020905b8154815290600101906020018083116108aa57829003601f168201915b505050505081565b600560009054906101000a900473ffffffffffffffffffffffffffffffffffffffff1681565b600d8054600181600116156101000203166002900480601f01602080910402602001604051908101604052809291908181526020018280546001816001161561010002031660029004801561098b5780601f106109605761010080835404028352916020019161098b565b820191906000526020600020905b81548152906001019060200180831161096e57829003601f168201915b505050505081565b600660009054906101000a900473ffffffffffffffffffffffffffffffffffffffff1681565b600a60009054906101000a900460ff1681565b600b8054600181600116156101000203166002900480601f016020809104026020016040519081016040528092919081815260200182805460018160011615610100020316600290048015610a625780601f10610a3757610100808354040283529160200191610a62565b820191906000526020600020905b815481529060010190602001808311610a4557829003601f168201915b505050505081565b6000600360009054906101000a900473ffffffffffffffffffffffffffffffffffffffff1673ffffffffffffffffffffffffffffffffffffffff163373ffffffffffffffffffffffffffffffffffffffff16141515610ac857600080fd5b83600b9080519060200190610ade92919061103d565b5082600c9080519060200190610af592919061103d565b5081600d9080519060200190610b0c92919061103d565b506005600a60016101000a81548160ff02191690836005811115610b2c57fe5b0217905550600a60009054906101000a900460ff1615610d78576000809054906101000a900473ffffffffffffffffffffffffffffffffffffffff1673ffffffffffffffffffffffffffffffffffffffff1663bfff6b45308686866000604051602001526040518563ffffffff167c0100000000000000000000000000000000000000000000000000000000028152600401808573ffffffffffffffffffffffffffffffffffffffff1673ffffffffffffffffffffffffffffffffffffffff168152602001806020018060200180602001848103845287818151815260200191508051906020019080838360005b83811015610c35578082015181840152602081019050610c1a565b50505050905090810190601f168015610c625780820380516001836020036101000a031916815260200191505b50848103835286818151815260200191508051906020019080838360005b83811015610c9b578082015181840152602081019050610c80565b50505050905090810190601f168015610cc85780820380516001836020036101000a031916815260200191505b50848103825285818151815260200191508051906020019080838360005b83811015610d01578082015181840152602081019050610ce6565b50505050905090810190601f168015610d2e5780820380516001836020036101000a031916815260200191505b50975050505050505050602060405180830381600087803b1515610d5157600080fd5b6102c65a03f11515610d6257600080fd5b505050604051805190501515610d7757600080fd5b5b600190509392505050565b60085481565b6000809054906101000a900473ffffffffffffffffffffffffffffffffffffffff1681565b600a60019054906101000a900460ff1681565b6000809054906101000a900473ffffffffffffffffffffffffffffffffffffffff1673ffffffffffffffffffffffffffffffffffffffff163373ffffffffffffffffffffffffffffffffffffffff16141515610e1c57600080fd5b600073ffffffffffffffffffffffffffffffffffffffff168173ffffffffffffffffffffffffffffffffffffffff1614151515610e5857600080fd5b8073ffffffffffffffffffffffffffffffffffffffff166000809054906101000a900473ffffffffffffffffffffffffffffffffffffffff1673ffffffffffffffffffffffffffffffffffffffff167f8be0079c531659141344cd1fd0a4f28419497f9722a3daafe3b4186f6b6457e060405160405180910390a3806000806101000a81548173ffffffffffffffffffffffffffffffffffffffff021916908373ffffffffffffffffffffffffffffffffffffffff16021790555050565b600c8054600181600116156101000203166002900480601f016020809104026020016040519081016040528092919081815260200182805460018160011615610100020316600290048015610fac5780601f10610f8157610100808354040283529160200191610fac565b820191906000526020600020905b815481529060010190602001808311610f8f57829003601f168201915b505050505081565b6000600360009054906101000a900473ffffffffffffffffffffffffffffffffffffffff1673ffffffffffffffffffffffffffffffffffffffff163373ffffffffffffffffffffffffffffffffffffffff1614151561101257600080fd5b6004600a60016101000a81548160ff0219169083600581111561103157fe5b02179055506001905090565b828054600181600116156101000203166002900490600052602060002090601f016020900481019282601f1061107e57805160ff19168380011785556110ac565b828001600101855582156110ac579182015b828111156110ab578251825591602001919060010190611090565b5b5090506110b991906110bd565b5090565b6110df91905b808211156110db5760008160009055506001016110c3565b5090565b905600a165627a7a723058202ece12b14f3b9e8fdd61048e3cd6bf5b1c33ad6f8caa0ab443aac9fdd345046f0029a165627a7a723058208982d21ad1e83a439c0ba6518cd651f7dbecad9c58a9ccb764a554e9363f8fc50029",
  "source": "pragma solidity ^0.4.18;\n\nimport \"./TaskRequest.sol\";\nimport \"./OwnableOZ.sol\";\nimport \"./SafeMathOZ.sol\";\n\ncontract TaskRequestHub is OwnableOZ // is Owned by IexecHub\n{\n\n\tusing SafeMathOZ for uint256;\n\n\t/**\n\t * Members\n\t */\n\t// owner => taskRequests count\n\tmapping(address => uint256)                  m_taskRequestsCountByOwner;\n\t// owner => index => taskRequest\n\tmapping(address => mapping(uint => address)) m_taskRequestByOwnerByIndex;\n\t//  taskRequest => owner\n\tmapping(address => address)                  m_ownerByTaskRequest;\n\n\t/**\n\t * Events\n\t */\n\tevent CreateTaskRequest(\n\t\taddress taskRequestOwner,\n\t\taddress taskRequest,\n\t\taddress indexed workerPool,\n\t\taddress indexed app,\n\t\taddress indexed dataset,\n\t\tstring  taskParam,\n\t\tuint    taskCost,\n\t\tuint    askedTrust,\n\t\tbool    dappCallback\n\t);\n\n\t/**\n\t * Constructor\n\t */\n\tfunction TaskRequestHub() public\n\t{\n\t}\n\n\t/**\n\t * Methods\n\t */\n\tfunction getTaskRequestsCount(address _owner) public view returns (uint256)\n\t{\n\t\treturn m_taskRequestsCountByOwner[_owner];\n\t}\n\n\tfunction getTaskRequest(address _owner,uint256 _index) public view returns (address)\n\t{\n\t\treturn m_taskRequestByOwnerByIndex[_owner][_index];\n\t}\n\n\tfunction getTaskRequestOwner(address _taskRequest) public view returns (address)\n\t{\n\t\treturn m_ownerByTaskRequest[_taskRequest];\n\t}\n\n\tfunction isTaskRequestRegistred(address _taskRequest) public view returns (bool)\n\t{\n\t\treturn m_ownerByTaskRequest[_taskRequest] != 0x0;\n\t}\n\n\tfunction createTaskRequest(\n\t\taddress _requester,\n\t\taddress _workerPool,\n\t\taddress _app,\n\t\taddress _dataset,\n\t\tstring  _taskParam,\n\t\tuint    _taskCost,\n\t\tuint    _askedTrust,\n\t\tbool    _dappCallback)\n\tpublic onlyOwner /*owner == IexecHub*/ returns(address createdTaskRequest)\n\t{\n\t\t// _requester == owner of the task\n\t\t// msg.sender == IexecHub\n\t\taddress newTaskRequest = new TaskRequest(\n\t\t\tmsg.sender,\n\t\t\t_requester,\n\t\t\t_workerPool,\n\t\t\t_app,\n\t\t\t_dataset,\n\t\t\t_taskParam,\n\t\t\t_taskCost,\n\t\t\t_askedTrust,\n\t\t\t_dappCallback\n\t\t);\n\n\t\tm_taskRequestsCountByOwner[_requester] = m_taskRequestsCountByOwner[_requester].add(1);\n\t\tm_taskRequestByOwnerByIndex[_requester][m_taskRequestsCountByOwner[_requester]] = newTaskRequest;\n\t\tm_ownerByTaskRequest[newTaskRequest] = _requester;\n\n\t\tCreateTaskRequest(\n\t\t\t_requester,\n\t\t\tnewTaskRequest,\n\t\t\t_workerPool,\n\t\t\t_app,\n\t\t\t_dataset,\n\t\t\t_taskParam,\n\t\t\t_taskCost,\n\t\t\t_askedTrust,\n\t\t\t_dappCallback\n\t\t);\n\n\t\treturn newTaskRequest;\n\t}\n\n\tfunction getTaskCost(address _taskId) public view returns (uint256)\n\t{\n\t\treturn TaskRequest(_taskId).m_taskCost();\n\t}\n\n\tfunction setResult(address _taskId,string _stdout, string _stderr, string _uri)  onlyOwner /*owner == IexecHub*/ public returns (bool)\n\t{\n\t\treturn TaskRequest(_taskId).setResult(_stdout,_stderr,_uri);\n\t}\n\n\tfunction setAccepted(address _taskId)  onlyOwner /*owner == IexecHub*/ public returns (bool)\n\t{\n\t\treturn TaskRequest(_taskId).setAccepted();\n\t}\n\n\tfunction setCancelled(address _taskId)  onlyOwner /*owner == IexecHub*/ public returns (bool)\n\t{\n\t\treturn TaskRequest(_taskId).setCancelled();\n\t}\n\n\tfunction setAborted(address _taskId)  onlyOwner /*owner == IexecHub*/ public returns (bool)\n\t{\n\t\treturn TaskRequest(_taskId).setAborted();\n\t}\n\n\n}\n",
  "sourcePath": "/home/vagrant/iexecdev/PoCo/contracts/TaskRequestHub.sol",
  "compiler": {
    "name": "solc",
    "version": "0.4.18+commit.9cf6e910.Emscripten.clang"
  },
  "schemaVersion": "1.0.1",
  "updatedAt": "2018-01-29T14:56:05.520Z"
}