{
  "contractName": "TestSha",
  "abi": [
    {
      "anonymous": false,
      "inputs": [
        {
          "indexed": false,
          "name": "result",
          "type": "bytes32"
        },
        {
          "indexed": false,
          "name": "input",
          "type": "bytes32"
        }
      ],
      "name": "SolidityKeccak256FromBytes",
      "type": "event"
    },
    {
      "anonymous": false,
      "inputs": [
        {
          "indexed": false,
          "name": "result",
          "type": "bytes32"
        },
        {
          "indexed": false,
          "name": "input",
          "type": "string"
        }
      ],
      "name": "SolidityKeccak256FromString",
      "type": "event"
    },
    {
      "anonymous": false,
      "inputs": [
        {
          "indexed": false,
          "name": "result",
          "type": "bytes32"
        },
        {
          "indexed": false,
          "name": "input",
          "type": "address"
        }
      ],
      "name": "SolidityKeccak256FromAddress",
      "type": "event"
    },
    {
      "anonymous": false,
      "inputs": [
        {
          "indexed": false,
          "name": "input",
          "type": "bytes32"
        },
        {
          "indexed": false,
          "name": "voter",
          "type": "address"
        },
        {
          "indexed": false,
          "name": "vote",
          "type": "bytes32"
        },
        {
          "indexed": false,
          "name": "sign",
          "type": "bytes32"
        }
      ],
      "name": "SignedVote",
      "type": "event"
    },
    {
      "constant": false,
      "inputs": [
        {
          "name": "_input",
          "type": "bytes32"
        }
      ],
      "name": "testSolidityKeccak256FromBytes",
      "outputs": [],
      "payable": false,
      "stateMutability": "nonpayable",
      "type": "function"
    },
    {
      "constant": false,
      "inputs": [
        {
          "name": "_input",
          "type": "string"
        }
      ],
      "name": "testSolidityKeccak256FromString",
      "outputs": [],
      "payable": false,
      "stateMutability": "nonpayable",
      "type": "function"
    },
    {
      "constant": false,
      "inputs": [
        {
          "name": "_input",
          "type": "address"
        }
      ],
      "name": "testSolidityKeccak256FromAddress",
      "outputs": [],
      "payable": false,
      "stateMutability": "nonpayable",
      "type": "function"
    },
    {
      "constant": false,
      "inputs": [
        {
          "name": "_result",
          "type": "bytes32"
        }
      ],
      "name": "testSignedVote",
      "outputs": [],
      "payable": false,
      "stateMutability": "nonpayable",
      "type": "function"
    }
  ],
  "bytecode": "0x6060604052341561000f57600080fd5b6103e38061001e6000396000f3006060604052600436106100615763ffffffff7c0100000000000000000000000000000000000000000000000000000000600035041663040c9c6581146100665780634c4bc901146100b9578063b4b5cae9146100cf578063d29da48c146100e5575b600080fd5b341561007157600080fd5b6100b760046024813581810190830135806020601f8201819004810201604051908101604052818152929190602084018383808284375094965061011195505050505050565b005b34156100c457600080fd5b6100b760043561020f565b34156100da57600080fd5b6100b760043561025d565b34156100f057600080fd5b6100b773ffffffffffffffffffffffffffffffffffffffff6004351661032c565b7f3f5e68e2b6822310a06a920b9b73daa30286bba2c001fa2133308e55a1d2820c816040518082805190602001908083835b602083106101625780518252601f199092019160209182019101610143565b6001836020036101000a038019825116818451161790925250505091909101925060409150505180910390208260405182815260406020820181815290820183818151815260200191508051906020019080838360005b838110156101d15780820151838201526020016101b9565b50505050905090810190601f1680156101fe5780820380516001836020036101000a031916815260200191505b50935050505060405180910390a150565b7f5f9b0066ef1432686f95afb566285f26646659039499219f4e8db0f462e889738160405190815260200160405180910390208260405191825260208201526040908101905180910390a150565b60008082604051908152602001604051809103902091503360405173ffffffffffffffffffffffffffffffffffffffff919091166c0100000000000000000000000002815260140160405180910390208318604051908152602001604051809103902090507f01477555f917271446523927e2e1e6172851347fc25430923a78abc27ef37e978333848460405193845273ffffffffffffffffffffffffffffffffffffffff909216602084015260408084019190915260608301919091526080909101905180910390a1505050565b7fd44e9c0d833bb9a963228a03302f0599e829fc4c38a919695779a05c2f54fd4d8160405173ffffffffffffffffffffffffffffffffffffffff919091166c0100000000000000000000000002815260140160405180910390208260405191825273ffffffffffffffffffffffffffffffffffffffff1660208201526040908101905180910390a1505600a165627a7a723058200ea47c286a485d4a3d20f10ef3bab17afb01dceb7244b36bcf4748906d18a5470029",
  "source": "pragma solidity ^0.4.21;\n\n\n//smart contract for testing purpose only\n\ncontract TestSha\n{\n\tevent SolidityKeccak256FromBytes  (bytes32 result, bytes32 input);\n\tevent SolidityKeccak256FromString (bytes32 result, string  input);\n\tevent SolidityKeccak256FromAddress(bytes32 result, address input);\n\n\tevent SignedVote(\n\t\tbytes32 input,\n\t\taddress voter,\n\t\tbytes32 vote,\n\t\tbytes32 sign\n\t);\n\n\tfunction testSolidityKeccak256FromBytes(bytes32 _input) public\n\t{\n\t\temit SolidityKeccak256FromBytes(keccak256(_input), _input);\n\t}\n\n\tfunction testSolidityKeccak256FromString(string _input) public\n\t{\n\t\temit SolidityKeccak256FromString(keccak256(_input), _input);\n\t}\n\n\tfunction testSolidityKeccak256FromAddress(address _input) public\n\t{\n\t\temit SolidityKeccak256FromAddress(keccak256(_input), _input);\n\t}\n\n\tfunction testSignedVote(bytes32 _result) public\n\t{\n\t\tbytes32 vote = keccak256(_result                        );\n\t\tbytes32 sign = keccak256(_result ^ keccak256(msg.sender));\n\t\temit SignedVote(_result, msg.sender, vote, sign);\n\t}\n}\n",
  "sourcePath": "/Users/fbranci/iexecdev/PoCo/contracts/TestSha.sol",
  "compiler": {
    "name": "solc",
    "version": "0.4.21+commit.dfe3193c.Emscripten.clang"
  },
  "schemaVersion": "2.0.0",
  "updatedAt": "2018-04-12T18:32:30.798Z"
}