{
  "contractName": "TestClient",
  "abi": [
    {
      "constant": true,
      "inputs": [
        {
          "name": "",
          "type": "bytes32"
        }
      ],
      "name": "store",
      "outputs": [
        {
          "name": "",
          "type": "bytes"
        }
      ],
      "payable": false,
      "stateMutability": "view",
      "type": "function"
    },
    {
      "inputs": [],
      "payable": false,
      "stateMutability": "nonpayable",
      "type": "constructor"
    },
    {
      "anonymous": false,
      "inputs": [
        {
          "indexed": true,
          "name": "id",
          "type": "bytes32"
        },
        {
          "indexed": false,
          "name": "result",
          "type": "bytes"
        }
      ],
      "name": "GotResult",
      "type": "event"
    },
    {
      "constant": false,
      "inputs": [
        {
          "name": "id",
          "type": "bytes32"
        },
        {
          "name": "result",
          "type": "bytes"
        }
      ],
      "name": "receiveResult",
      "outputs": [],
      "payable": false,
      "stateMutability": "nonpayable",
      "type": "function"
    }
  ],
  "bytecode": "0x608060405234801561001057600080fd5b50610330806100206000396000f3fe608060405234801561001057600080fd5b50600436106100365760003560e01c80635dd808551461003b578063654cf88c146100b4575b600080fd5b6100b26004803603604081101561005157600080fd5b8135919081019060408101602082013564010000000081111561007357600080fd5b82018360208201111561008557600080fd5b803590602001918460018302840111640100000000831117156100a757600080fd5b509092509050610146565b005b6100d1600480360360208110156100ca57600080fd5b50356101c6565b6040805160208082528351818301528351919283929083019185019080838360005b8381101561010b5781810151838201526020016100f3565b50505050905090810190601f1680156101385780820380516001836020036101000a031916815260200191505b509250505060405180910390f35b600083815260208190526040902061015f908383610260565b50827fccc426763ac02171b240f5f93cd8963dad9700205747a4a23f9c9854f9e9cf3a838360405180806020018281038252848482818152602001925080828437600083820152604051601f909101601f19169092018290039550909350505050a2505050565b600060208181529181526040908190208054825160026001831615610100026000190190921691909104601f8101859004850282018501909352828152929091908301828280156102585780601f1061022d57610100808354040283529160200191610258565b820191906000526020600020905b81548152906001019060200180831161023b57829003601f168201915b505050505081565b828054600181600116156101000203166002900490600052602060002090601f016020900481019282601f106102a15782800160ff198235161785556102ce565b828001600101855582156102ce579182015b828111156102ce5782358255916020019190600101906102b3565b506102da9291506102de565b5090565b6102f891905b808211156102da57600081556001016102e4565b9056fea265627a7a72305820d643f6bdd7b8fe402d0d2511257e767608431f975bbce8a5f1b7b7d4f859318f64736f6c63430005090032",
  "source": "pragma solidity ^0.5.8;\n\nimport \"iexec-solidity/contracts/ERC1154_OracleInterface/IERC1154.sol\";\n\ncontract TestClient is IOracleConsumer\n{\n\tevent GotResult(bytes32 indexed id, bytes result);\n\n\tmapping(bytes32 => bytes) public store;\n\n\tconstructor()\n\tpublic\n\t{\n\t}\n\n\tfunction receiveResult(bytes32 id, bytes calldata result) external\n\t{\n\t\tstore[id] = result;\n\t\temit GotResult(id, result);\n\t}\n\n}\n",
  "sourcePath": "/home/amxx/Work/iExec/code/PoCo-dev/contracts/tools/TestClient.sol",
  "compiler": {
    "name": "solc",
    "version": "0.5.9+commit.e560f70d.Emscripten.clang"
  },
  "schemaVersion": "3.0.9",
  "updatedAt": "2019-06-13T09:54:21.434Z",
  "devdoc": {
    "methods": {}
  },
  "userdoc": {
    "methods": {}
  }
}