{
  "contractName": "TestClient",
  "abi": [
    {
      "inputs": [],
      "stateMutability": "nonpayable",
      "type": "constructor"
    },
    {
      "anonymous": false,
      "inputs": [
        {
          "indexed": true,
          "internalType": "bytes32",
          "name": "id",
          "type": "bytes32"
        },
        {
          "indexed": false,
          "internalType": "bytes",
          "name": "result",
          "type": "bytes"
        }
      ],
      "name": "GotResult",
      "type": "event"
    },
    {
      "inputs": [
        {
          "internalType": "bytes32",
          "name": "",
          "type": "bytes32"
        }
      ],
      "name": "gstore",
      "outputs": [
        {
          "internalType": "uint256",
          "name": "",
          "type": "uint256"
        }
      ],
      "stateMutability": "view",
      "type": "function"
    },
    {
      "inputs": [
        {
          "internalType": "bytes32",
          "name": "",
          "type": "bytes32"
        }
      ],
      "name": "store",
      "outputs": [
        {
          "internalType": "bytes",
          "name": "",
          "type": "bytes"
        }
      ],
      "stateMutability": "view",
      "type": "function"
    },
    {
      "inputs": [
        {
          "internalType": "bytes32",
          "name": "id",
          "type": "bytes32"
        },
        {
          "internalType": "bytes",
          "name": "result",
          "type": "bytes"
        }
      ],
      "name": "receiveResult",
      "outputs": [],
      "stateMutability": "nonpayable",
      "type": "function"
    }
  ],
  "bytecode": "0x608060405234801561001057600080fd5b50610380806100206000396000f3fe608060405234801561001057600080fd5b50600436106100415760003560e01c80635dd8085514610046578063654cf88c146100bf578063905f658c14610151575b600080fd5b6100bd6004803603604081101561005c57600080fd5b8135919081019060408101602082013564010000000081111561007e57600080fd5b82018360208201111561009057600080fd5b803590602001918460018302840111640100000000831117156100b257600080fd5b509092509050610180565b005b6100dc600480360360208110156100d557600080fd5b503561020b565b6040805160208082528351818301528351919283929083019185019080838360005b838110156101165781810151838201526020016100fe565b50505050905090810190601f1680156101435780820380516001836020036101000a031916815260200191505b509250505060405180910390f35b61016e6004803603602081101561016757600080fd5b50356102a5565b60408051918252519081900360200190f35b5a6000848152602081815260408083209390935560019052206101a49083836102b7565b50827fccc426763ac02171b240f5f93cd8963dad9700205747a4a23f9c9854f9e9cf3a838360405180806020018281038252848482818152602001925080828437600083820152604051601f909101601f19169092018290039550909350505050a2505050565b60016020818152600092835260409283902080548451600294821615610100026000190190911693909304601f810183900483028401830190945283835291929083018282801561029d5780601f106102725761010080835404028352916020019161029d565b820191906000526020600020905b81548152906001019060200180831161028057829003601f168201915b505050505081565b60006020819052908152604090205481565b828054600181600116156101000203166002900490600052602060002090601f016020900481019282601f106102f85782800160ff19823516178555610325565b82800160010185558215610325579182015b8281111561032557823582559160200191906001019061030a565b50610331929150610335565b5090565b5b80821115610331576000815560010161033656fea264697066735822122072f2385d8b2eae8c0496b10392bd06a79bad25568417fd36aaaa53edde92387e64736f6c634300060c0033",
  "immutableReferences": {},
  "source": "// SPDX-License-Identifier: Apache-2.0\n\n/******************************************************************************\n * Copyright 2020 IEXEC BLOCKCHAIN TECH                                       *\n *                                                                            *\n * Licensed under the Apache License, Version 2.0 (the \"License\");            *\n * you may not use this file except in compliance with the License.           *\n * You may obtain a copy of the License at                                    *\n *                                                                            *\n *     http://www.apache.org/licenses/LICENSE-2.0                             *\n *                                                                            *\n * Unless required by applicable law or agreed to in writing, software        *\n * distributed under the License is distributed on an \"AS IS\" BASIS,          *\n * WITHOUT WARRANTIES OR CONDITIONS OF ANY KIND, either express or implied.   *\n * See the License for the specific language governing permissions and        *\n * limitations under the License.                                             *\n ******************************************************************************/\n\npragma solidity ^0.6.0;\n\nimport \"@iexec/solidity/contracts/ERC1154/IERC1154.sol\";\n\n\ncontract TestClient is IOracleConsumer\n{\n\tevent GotResult(bytes32 indexed id, bytes result);\n\n\tmapping(bytes32 => uint256) public gstore;\n\tmapping(bytes32 => bytes  ) public store;\n\n\tconstructor()\n\tpublic\n\t{\n\t}\n\n\tfunction receiveResult(bytes32 id, bytes calldata result) external override\n\t{\n\t\tgstore[id] = gasleft();\n\t\tstore[id]  = result;\n\t\temit GotResult(id, result);\n\t}\n\n}\n",
  "sourcePath": "/home/amxx/Work/iExec/code/PoCo-dev/contracts/tools/testing/TestClient.sol",
  "compiler": {
    "name": "solc",
    "version": "0.6.12+commit.27d51765.Emscripten.clang"
  },
  "schemaVersion": "3.2.2",
  "updatedAt": "2020-09-22T12:25:17.395Z",
  "devdoc": {
    "kind": "dev",
    "methods": {},
    "version": 1
  },
  "userdoc": {
    "kind": "user",
    "methods": {},
    "version": 1
  }
}