{
  "contractName": "TestReceiver",
  "abi": [
    {
      "inputs": [],
      "stateMutability": "nonpayable",
      "type": "constructor"
    },
    {
      "anonymous": false,
      "inputs": [
        {
          "indexed": false,
          "internalType": "address",
          "name": "sender",
          "type": "address"
        },
        {
          "indexed": false,
          "internalType": "uint256",
          "name": "value",
          "type": "uint256"
        },
        {
          "indexed": false,
          "internalType": "address",
          "name": "token",
          "type": "address"
        },
        {
          "indexed": false,
          "internalType": "bytes",
          "name": "extraData",
          "type": "bytes"
        }
      ],
      "name": "GotApproval",
      "type": "event"
    },
    {
      "inputs": [
        {
          "internalType": "address",
          "name": "_sender",
          "type": "address"
        },
        {
          "internalType": "uint256",
          "name": "_value",
          "type": "uint256"
        },
        {
          "internalType": "address",
          "name": "_token",
          "type": "address"
        },
        {
          "internalType": "bytes",
          "name": "_extraData",
          "type": "bytes"
        }
      ],
      "name": "receiveApproval",
      "outputs": [
        {
          "internalType": "bool",
          "name": "",
          "type": "bool"
        }
      ],
      "stateMutability": "nonpayable",
      "type": "function"
    }
  ],
  "bytecode": "0x608060405234801561001057600080fd5b506101c1806100206000396000f3fe608060405234801561001057600080fd5b506004361061002b5760003560e01c80638f4ffcb114610030575b600080fd5b6100bf6004803603608081101561004657600080fd5b6001600160a01b03823581169260208101359260408201359092169181019060808101606082013564010000000081111561008057600080fd5b82018360208201111561009257600080fd5b803590602001918460018302840111640100000000831117156100b457600080fd5b5090925090506100d3565b604080519115158252519081900360200190f35b6000846100e257506000610182565b7f9304cb4e5095c22133682d56d385bc94b8f429a2d989572ae241952c950714fa868686868660405180866001600160a01b03166001600160a01b03168152602001858152602001846001600160a01b03166001600160a01b03168152602001806020018281038252848482818152602001925080828437600083820152604051601f909101601f19169092018290039850909650505050505050a15060015b9594505050505056fea264697066735822122060643b80ea91f85bb5ccbd9e80211033b8912d4d0d5f4a02dec2d51418d876a264736f6c63430006060033",
  "immutableReferences": {},
  "source": "pragma solidity ^0.6.0;\n\nimport \"../../modules/interfaces/IexecTokenSpender.sol\";\n\n\ncontract TestReceiver is IexecTokenSpender\n{\n\tevent GotApproval(address sender, uint256 value, address token, bytes extraData);\n\n\tconstructor()\n\tpublic\n\t{\n\t}\n\n\tfunction receiveApproval(\n\t\taddress        _sender,\n\t\tuint256        _value,\n\t\taddress        _token,\n\t\tbytes calldata _extraData)\n\texternal override returns (bool)\n\t{\n\t\tif (_value == 0)\n\t\t{\n\t\t\treturn false;\n\t\t}\n\t\telse\n\t\t{\n\t\t\temit GotApproval(_sender, _value, _token, _extraData);\n\t\t\treturn true;\n\t\t}\n\t}\n\n}\n",
  "sourcePath": "/home/amxx/Work/iExec/code/PoCo-dev/contracts/tools/testing/TestReceiver.sol",
  "compiler": {
    "name": "solc",
    "version": "0.6.6+commit.6c089d02.Emscripten.clang"
  },
  "schemaVersion": "3.1.0",
  "updatedAt": "2020-04-21T18:10:34.947Z",
  "devdoc": {
    "methods": {}
  },
  "userdoc": {
    "methods": {}
  }
}