{
  "contractName": "TestSha",
  "abi": [
    {
      "constant": false,
      "inputs": [
        {
          "name": "input",
          "type": "string"
        }
      ],
      "name": "testSolidityKeccak256FromString",
      "outputs": [],
      "payable": false,
      "stateMutability": "nonpayable",
      "type": "function"
    },
    {
      "constant": false,
      "inputs": [
        {
          "name": "input",
          "type": "bytes32"
        }
      ],
      "name": "testSolidityKeccak256FromBytes",
      "outputs": [],
      "payable": false,
      "stateMutability": "nonpayable",
      "type": "function"
    },
    {
      "anonymous": false,
      "inputs": [
        {
          "indexed": false,
          "name": "result",
          "type": "bytes32"
        },
        {
          "indexed": false,
          "name": "input",
          "type": "string"
        }
      ],
      "name": "SolidityKeccak256FromString",
      "type": "event"
    },
    {
      "anonymous": false,
      "inputs": [
        {
          "indexed": false,
          "name": "result",
          "type": "bytes32"
        },
        {
          "indexed": false,
          "name": "input",
          "type": "bytes32"
        }
      ],
      "name": "SolidityKeccak256FromBytes",
      "type": "event"
    }
  ],
  "bytecode": "0x6060604052341561000f57600080fd5b6102818061001e6000396000f30060606040526004361061004c576000357c0100000000000000000000000000000000000000000000000000000000900463ffffffff168063040c9c65146100515780634c4bc901146100ae575b600080fd5b341561005c57600080fd5b6100ac600480803590602001908201803590602001908080601f016020809104026020016040519081016040528093929190818152602001838380828437820191505050505050919050506100d5565b005b34156100b957600080fd5b6100d36004808035600019169060200190919050506101e6565b005b7f3f5e68e2b6822310a06a920b9b73daa30286bba2c001fa2133308e55a1d2820c816040518082805190602001908083835b60208310151561012c5780518252602082019150602081019050602083039250610107565b6001836020036101000a03801982511681845116808217855250505050505090500191505060405180910390208260405180836000191660001916815260200180602001828103825283818151815260200191508051906020019080838360005b838110156101a857808201518184015260208101905061018d565b50505050905090810190601f1680156101d55780820380516001836020036101000a031916815260200191505b50935050505060405180910390a150565b7f5f9b0066ef1432686f95afb566285f26646659039499219f4e8db0f462e889738160405180826000191660001916815260200191505060405180910390208260405180836000191660001916815260200182600019166000191681526020019250505060405180910390a1505600a165627a7a72305820324dd640d928feab24e9800dafdfc6f7237fcafe5abbe11a5c89cb28283543710029",
  "source": "pragma solidity ^0.4.18;\ncontract TestSha {\n\n    \tevent SolidityKeccak256FromString(bytes32  result, string input);\n    \tevent SolidityKeccak256FromBytes(bytes32  result, bytes32 input);\n\n      function testSolidityKeccak256FromString(string input) {\n        SolidityKeccak256FromString(keccak256(input),input);\n      }\n\n      function testSolidityKeccak256FromBytes(bytes32 input) {\n        SolidityKeccak256FromBytes(keccak256(input),input);\n      }\n\n}\n",
  "sourcePath": "/home/vagrant/iexecdev/PoCo/contracts/TestSha.sol",
  "compiler": {
    "name": "solc",
    "version": "0.4.18+commit.9cf6e910.Emscripten.clang"
  },
  "schemaVersion": "1.0.1",
  "updatedAt": "2018-01-29T14:56:05.520Z"
}