{
  "contractName": "WorkOrder",
  "abi": [
    {
      "constant": true,
      "inputs": [],
      "name": "m_workerpool",
      "outputs": [
        {
          "name": "",
          "type": "address"
        }
      ],
      "payable": false,
      "stateMutability": "view",
      "type": "function"
    },
    {
      "constant": true,
      "inputs": [],
      "name": "m_params",
      "outputs": [
        {
          "name": "",
          "type": "string"
        }
      ],
      "payable": false,
      "stateMutability": "view",
      "type": "function"
    },
    {
      "constant": true,
      "inputs": [],
      "name": "m_requester",
      "outputs": [
        {
          "name": "",
          "type": "address"
        }
      ],
      "payable": false,
      "stateMutability": "view",
      "type": "function"
    },
    {
      "constant": true,
      "inputs": [],
      "name": "m_app",
      "outputs": [
        {
          "name": "",
          "type": "address"
        }
      ],
      "payable": false,
      "stateMutability": "view",
      "type": "function"
    },
    {
      "constant": true,
      "inputs": [],
      "name": "m_dataset",
      "outputs": [
        {
          "name": "",
          "type": "address"
        }
      ],
      "payable": false,
      "stateMutability": "view",
      "type": "function"
    },
    {
      "constant": true,
      "inputs": [],
      "name": "m_emitcost",
      "outputs": [
        {
          "name": "",
          "type": "uint256"
        }
      ],
      "payable": false,
      "stateMutability": "view",
      "type": "function"
    },
    {
      "constant": true,
      "inputs": [],
      "name": "m_uri",
      "outputs": [
        {
          "name": "",
          "type": "string"
        }
      ],
      "payable": false,
      "stateMutability": "view",
      "type": "function"
    },
    {
      "constant": true,
      "inputs": [],
      "name": "m_stdout",
      "outputs": [
        {
          "name": "",
          "type": "string"
        }
      ],
      "payable": false,
      "stateMutability": "view",
      "type": "function"
    },
    {
      "constant": true,
      "inputs": [],
      "name": "m_resultCallbackProof",
      "outputs": [
        {
          "name": "",
          "type": "bytes32"
        }
      ],
      "payable": false,
      "stateMutability": "view",
      "type": "function"
    },
    {
      "constant": true,
      "inputs": [],
      "name": "m_iexecHubAddress",
      "outputs": [
        {
          "name": "",
          "type": "address"
        }
      ],
      "payable": false,
      "stateMutability": "view",
      "type": "function"
    },
    {
      "constant": true,
      "inputs": [],
      "name": "m_callback",
      "outputs": [
        {
          "name": "",
          "type": "address"
        }
      ],
      "payable": false,
      "stateMutability": "view",
      "type": "function"
    },
    {
      "constant": true,
      "inputs": [],
      "name": "m_status",
      "outputs": [
        {
          "name": "",
          "type": "uint8"
        }
      ],
      "payable": false,
      "stateMutability": "view",
      "type": "function"
    },
    {
      "constant": true,
      "inputs": [],
      "name": "m_marketorderIdx",
      "outputs": [
        {
          "name": "",
          "type": "uint256"
        }
      ],
      "payable": false,
      "stateMutability": "view",
      "type": "function"
    },
    {
      "constant": true,
      "inputs": [],
      "name": "m_stderr",
      "outputs": [
        {
          "name": "",
          "type": "string"
        }
      ],
      "payable": false,
      "stateMutability": "view",
      "type": "function"
    },
    {
      "constant": true,
      "inputs": [],
      "name": "m_beneficiary",
      "outputs": [
        {
          "name": "",
          "type": "address"
        }
      ],
      "payable": false,
      "stateMutability": "view",
      "type": "function"
    },
    {
      "inputs": [
        {
          "name": "_marketorderIdx",
          "type": "uint256"
        },
        {
          "name": "_requester",
          "type": "address"
        },
        {
          "name": "_app",
          "type": "address"
        },
        {
          "name": "_dataset",
          "type": "address"
        },
        {
          "name": "_workerpool",
          "type": "address"
        },
        {
          "name": "_emitcost",
          "type": "uint256"
        },
        {
          "name": "_params",
          "type": "string"
        },
        {
          "name": "_callback",
          "type": "address"
        },
        {
          "name": "_beneficiary",
          "type": "address"
        }
      ],
      "payable": false,
      "stateMutability": "nonpayable",
      "type": "constructor"
    },
    {
      "anonymous": false,
      "inputs": [],
      "name": "WorkOrderActivated",
      "type": "event"
    },
    {
      "anonymous": false,
      "inputs": [],
      "name": "WorkOrderReActivated",
      "type": "event"
    },
    {
      "anonymous": false,
      "inputs": [],
      "name": "WorkOrderRevealing",
      "type": "event"
    },
    {
      "anonymous": false,
      "inputs": [],
      "name": "WorkOrderClaimed",
      "type": "event"
    },
    {
      "anonymous": false,
      "inputs": [],
      "name": "WorkOrderCompleted",
      "type": "event"
    },
    {
      "constant": false,
      "inputs": [],
      "name": "startRevealingPhase",
      "outputs": [
        {
          "name": "",
          "type": "bool"
        }
      ],
      "payable": false,
      "stateMutability": "nonpayable",
      "type": "function"
    },
    {
      "constant": false,
      "inputs": [],
      "name": "reActivate",
      "outputs": [
        {
          "name": "",
          "type": "bool"
        }
      ],
      "payable": false,
      "stateMutability": "nonpayable",
      "type": "function"
    },
    {
      "constant": false,
      "inputs": [],
      "name": "claim",
      "outputs": [],
      "payable": false,
      "stateMutability": "nonpayable",
      "type": "function"
    },
    {
      "constant": false,
      "inputs": [
        {
          "name": "_stdout",
          "type": "string"
        },
        {
          "name": "_stderr",
          "type": "string"
        },
        {
          "name": "_uri",
          "type": "string"
        }
      ],
      "name": "setResult",
      "outputs": [],
      "payable": false,
      "stateMutability": "nonpayable",
      "type": "function"
    }
  ],
  "bytecode": "0x6060604052341561000f57600080fd5b604051610c5a380380610c5a8339810160405280805191906020018051919060200180519190602001805191906020018051919060200180519190602001805182019190602001805191906020018051600e8054600160a060020a03191633600160a060020a039081169190911790915590925089161515905061009257600080fd5b6000805460ff1916600190811790915589905560028054600160a060020a0319908116600160a060020a038a81169190911790925560038054821689841617905560048054821688841617905560058054909116918a1691909117905560068490556007838051610107929160200190610141565b5060088054600160a060020a03938416600160a060020a03199182161790915560098054929093169116179055506101dc95505050505050565b828054600181600116156101000203166002900490600052602060002090601f016020900481019282601f1061018257805160ff19168380011785556101af565b828001600101855582156101af579182015b828111156101af578251825591602001919060010190610194565b506101bb9291506101bf565b5090565b6101d991905b808211156101bb57600081556001016101c5565b90565b610a6f806101eb6000396000f3006060604052600436106101065763ffffffff7c01000000000000000000000000000000000000000000000000000000006000350416630690e5b8811461010b57806315298c771461013a5780631a514d97146101c45780632d4d671f146101eb5780634e71d92d146101fe5780635f44910c146102135780636946f6921461022657806371a599ca146102395780638628aaff1461024c5780639c4a856114610271578063cc3a2dfa14610284578063d3281fd614610297578063d3a69e01146102aa578063d5fdfdbc146102bd578063da1fea2814610392578063e329c478146103a5578063ecc40f64146103dc578063f3859f57146103ef578063f6a5b13e14610402575b600080fd5b341561011657600080fd5b61011e610415565b604051600160a060020a03909116815260200160405180910390f35b341561014557600080fd5b61014d610424565b60405160208082528190810183818151815260200191508051906020019080838360005b83811015610189578082015183820152602001610171565b50505050905090810190601f1680156101b65780820380516001836020036101000a031916815260200191505b509250505060405180910390f35b34156101cf57600080fd5b6101d76104c2565b604051901515815260200160405180910390f35b34156101f657600080fd5b6101d761053d565b341561020957600080fd5b6102116105b7565b005b341561021e57600080fd5b61011e610647565b341561023157600080fd5b61011e610656565b341561024457600080fd5b61011e610665565b341561025757600080fd5b61025f610674565b60405190815260200160405180910390f35b341561027c57600080fd5b61014d61067a565b341561028f57600080fd5b61014d6106e5565b34156102a257600080fd5b61025f610750565b34156102b557600080fd5b61011e610756565b34156102c857600080fd5b61021160046024813581810190830135806020601f8201819004810201604051908101604052818152929190602084018383808284378201915050505050509190803590602001908201803590602001908080601f01602080910402602001604051908101604052818152929190602084018383808284378201915050505050509190803590602001908201803590602001908080601f01602080910402602001604051908101604052818152929190602084018383808284375094965061076595505050505050565b341561039d57600080fd5b61011e610913565b34156103b057600080fd5b6103b8610922565b604051808260048111156103c857fe5b60ff16815260200191505060405180910390f35b34156103e757600080fd5b61025f61092b565b34156103fa57600080fd5b61014d610931565b341561040d57600080fd5b61011e61099c565b600454600160a060020a031681565b60078054600181600116156101000203166002900480601f0160208091040260200160405190810160405280929190818152602001828054600181600116156101000203166002900480156104ba5780601f1061048f576101008083540402835291602001916104ba565b820191906000526020600020905b81548152906001019060200180831161049d57829003601f168201915b505050505081565b60045460009033600160a060020a039081169116146104e057600080fd5b600260005460ff1660048111156104f357fe5b146104fd57600080fd5b6000805460ff191660011790557f06c42818c4ab74dff6aec55942f601c2e9b7f2aa4321ee71690b125eacfe465460405160405180910390a15060015b90565b60045460009033600160a060020a0390811691161461055b57600080fd5b600160005460ff16600481111561056e57fe5b1461057857600080fd5b6000805460ff191660021790557f2b0cab0be6d82b2661b3b789c540ec9c7223aac635ac8e59a1e71e1137f2dd7760405160405180910390a150600190565b600e5433600160a060020a039081169116146105d257600080fd5b600160005460ff1660048111156105e557fe5b14806106015750600260005460ff1660048111156105ff57fe5b145b151561060c57600080fd5b6000805460ff191660031790557f1938697ee29e363ecda49e464c6d2aae25f0974bd1f2c81a91c21e13ad8dbf7760405160405180910390a1565b600554600160a060020a031681565b600254600160a060020a031681565b600354600160a060020a031681565b60065481565b600d8054600181600116156101000203166002900480601f0160208091040260200160405190810160405280929190818152602001828054600181600116156101000203166002900480156104ba5780601f1061048f576101008083540402835291602001916104ba565b600b8054600181600116156101000203166002900480601f0160208091040260200160405190810160405280929190818152602001828054600181600116156101000203166002900480156104ba5780601f1061048f576101008083540402835291602001916104ba565b600a5481565b600e54600160a060020a031681565b600e5433600160a060020a0390811691161461078057600080fd5b600260005460ff16600481111561079357fe5b1461079d57600080fd5b6000805460ff19166004179055600b8380516107bd9291602001906109ab565b50600c8280516107d19291602001906109ab565b50600d8180516107e59291602001906109ab565b508282826040518084805190602001908083835b602083106108185780518252601f1990920191602091820191016107f9565b6001836020036101000a038019825116818451161790925250505091909101905083805190602001908083835b602083106108645780518252601f199092019160209182019101610845565b6001836020036101000a038019825116818451161790925250505091909101905082805190602001908083835b602083106108b05780518252601f199092019160209182019101610891565b6001836020036101000a03801982511681845116179092525050509190910194506040935050505051908190039020600a557f777f59509d985349c80271b657d2649b218bc6f075a4625821b64448cc235b8660405160405180910390a1505050565b600854600160a060020a031681565b60005460ff1681565b60015481565b600c8054600181600116156101000203166002900480601f0160208091040260200160405190810160405280929190818152602001828054600181600116156101000203166002900480156104ba5780601f1061048f576101008083540402835291602001916104ba565b600954600160a060020a031681565b828054600181600116156101000203166002900490600052602060002090601f016020900481019282601f106109ec57805160ff1916838001178555610a19565b82800160010185558215610a19579182015b82811115610a195782518255916020019190600101906109fe565b50610a25929150610a29565b5090565b61053a91905b80821115610a255760008155600101610a2f5600a165627a7a723058202bd7e7c59f8f865a7556221a503620f29dc631b06b8b21cbe08ad9aa9e0aa5fd0029",
  "source": "pragma solidity ^0.4.21;\n\nimport './IexecLib.sol';\ncontract WorkOrder\n{\n\n\n\tevent WorkOrderActivated();\n\tevent WorkOrderReActivated();\n\tevent WorkOrderRevealing();\n\tevent WorkOrderClaimed  ();\n\tevent WorkOrderCompleted();\n\n\t/**\n\t * Members\n\t */\n\tIexecLib.WorkOrderStatusEnum public m_status;\n\n\tuint256 public m_marketorderIdx;\n\n\taddress public m_app;\n\taddress public m_dataset;\n\taddress public m_workerpool;\n\taddress public m_requester;\n\n\tuint256 public m_emitcost;\n\tstring  public m_params;\n\taddress public m_callback;\n\taddress public m_beneficiary;\n\n\tbytes32 public m_resultCallbackProof;\n\tstring  public m_stdout;\n\tstring  public m_stderr;\n\tstring  public m_uri;\n\n\taddress public m_iexecHubAddress;\n\n\tmodifier onlyIexecHub()\n\t{\n\t\trequire(msg.sender == m_iexecHubAddress);\n\t\t_;\n\t}\n\n\t/**\n\t * Constructor\n\t */\n\tfunction WorkOrder(\n\t\tuint256 _marketorderIdx,\n\t\taddress _requester,\n\t\taddress _app,\n\t\taddress _dataset,\n\t\taddress _workerpool,\n\t\tuint256 _emitcost,\n\t\tstring  _params,\n\t\taddress _callback,\n\t\taddress _beneficiary)\n\tpublic\n\t{\n\t\tm_iexecHubAddress = msg.sender;\n\t\trequire(_requester != address(0));\n\t\tm_status         = IexecLib.WorkOrderStatusEnum.ACTIVE;\n\t\tm_marketorderIdx = _marketorderIdx;\n\t\tm_app            = _app;\n\t\tm_dataset        = _dataset;\n\t\tm_workerpool     = _workerpool;\n\t\tm_requester      = _requester;\n\t\tm_emitcost       = _emitcost;\n\t\tm_params         = _params;\n\t\tm_callback       = _callback;\n\t\tm_beneficiary    = _beneficiary;\n\t\t// needed for the scheduler to authorize api token access on this m_beneficiary address in case _requester is a smart contract.\n\t}\n\n\tfunction startRevealingPhase() public returns (bool)\n\t{\n\t\trequire(m_workerpool == msg.sender);\n\t\trequire(m_status == IexecLib.WorkOrderStatusEnum.ACTIVE);\n\t\tm_status = IexecLib.WorkOrderStatusEnum.REVEALING;\n\t\temit WorkOrderRevealing();\n\t\treturn true;\n\t}\n\n\tfunction reActivate() public returns (bool)\n\t{\n\t\trequire(m_workerpool == msg.sender);\n\t\trequire(m_status == IexecLib.WorkOrderStatusEnum.REVEALING);\n\t\tm_status = IexecLib.WorkOrderStatusEnum.ACTIVE;\n\t\temit WorkOrderReActivated();\n\t\treturn true;\n\t}\n\n\n\tfunction claim() public onlyIexecHub\n\t{\n\t\trequire(m_status == IexecLib.WorkOrderStatusEnum.ACTIVE || m_status == IexecLib.WorkOrderStatusEnum.REVEALING);\n\t\tm_status = IexecLib.WorkOrderStatusEnum.CLAIMED;\n\t\temit WorkOrderClaimed();\n\t}\n\n\n\tfunction setResult(string _stdout, string _stderr, string _uri) public onlyIexecHub\n\t{\n\t\trequire(m_status == IexecLib.WorkOrderStatusEnum.REVEALING);\n\t\tm_status = IexecLib.WorkOrderStatusEnum.COMPLETED;\n\t\tm_stdout = _stdout;\n\t\tm_stderr = _stderr;\n\t\tm_uri    = _uri;\n\t\tm_resultCallbackProof =keccak256(_stdout,_stderr,_uri);\n\t\temit WorkOrderCompleted();\n\t}\n\n}\n",
  "sourcePath": "/home/amxx/Work/iExec/PoCo/contracts/WorkOrder.sol",
  "compiler": {
    "name": "solc",
    "version": "0.4.21+commit.dfe3193c.Emscripten.clang"
  },
  "schemaVersion": "2.0.0",
  "updatedAt": "2018-05-19T20:37:01.875Z"
}