{
  "contractName": "WorkerpoolRegistry",
  "abi": [
    {
      "inputs": [],
      "stateMutability": "nonpayable",
      "type": "constructor"
    },
    {
      "anonymous": false,
      "inputs": [
        {
          "indexed": true,
          "internalType": "address",
          "name": "owner",
          "type": "address"
        },
        {
          "indexed": true,
          "internalType": "address",
          "name": "approved",
          "type": "address"
        },
        {
          "indexed": true,
          "internalType": "uint256",
          "name": "tokenId",
          "type": "uint256"
        }
      ],
      "name": "Approval",
      "type": "event"
    },
    {
      "anonymous": false,
      "inputs": [
        {
          "indexed": true,
          "internalType": "address",
          "name": "owner",
          "type": "address"
        },
        {
          "indexed": true,
          "internalType": "address",
          "name": "operator",
          "type": "address"
        },
        {
          "indexed": false,
          "internalType": "bool",
          "name": "approved",
          "type": "bool"
        }
      ],
      "name": "ApprovalForAll",
      "type": "event"
    },
    {
      "anonymous": false,
      "inputs": [
        {
          "indexed": true,
          "internalType": "address",
          "name": "previousOwner",
          "type": "address"
        },
        {
          "indexed": true,
          "internalType": "address",
          "name": "newOwner",
          "type": "address"
        }
      ],
      "name": "OwnershipTransferred",
      "type": "event"
    },
    {
      "anonymous": false,
      "inputs": [
        {
          "indexed": true,
          "internalType": "address",
          "name": "from",
          "type": "address"
        },
        {
          "indexed": true,
          "internalType": "address",
          "name": "to",
          "type": "address"
        },
        {
          "indexed": true,
          "internalType": "uint256",
          "name": "tokenId",
          "type": "uint256"
        }
      ],
      "name": "Transfer",
      "type": "event"
    },
    {
      "inputs": [
        {
          "internalType": "address",
          "name": "to",
          "type": "address"
        },
        {
          "internalType": "uint256",
          "name": "tokenId",
          "type": "uint256"
        }
      ],
      "name": "approve",
      "outputs": [],
      "stateMutability": "nonpayable",
      "type": "function"
    },
    {
      "inputs": [
        {
          "internalType": "address",
          "name": "owner",
          "type": "address"
        }
      ],
      "name": "balanceOf",
      "outputs": [
        {
          "internalType": "uint256",
          "name": "",
          "type": "uint256"
        }
      ],
      "stateMutability": "view",
      "type": "function"
    },
    {
      "inputs": [],
      "name": "baseURI",
      "outputs": [
        {
          "internalType": "string",
          "name": "",
          "type": "string"
        }
      ],
      "stateMutability": "view",
      "type": "function"
    },
    {
      "inputs": [
        {
          "internalType": "uint256",
          "name": "tokenId",
          "type": "uint256"
        }
      ],
      "name": "getApproved",
      "outputs": [
        {
          "internalType": "address",
          "name": "",
          "type": "address"
        }
      ],
      "stateMutability": "view",
      "type": "function"
    },
    {
      "inputs": [
        {
          "internalType": "address",
          "name": "_previous",
          "type": "address"
        }
      ],
      "name": "initialize",
      "outputs": [],
      "stateMutability": "nonpayable",
      "type": "function"
    },
    {
      "inputs": [],
      "name": "initialized",
      "outputs": [
        {
          "internalType": "bool",
          "name": "",
          "type": "bool"
        }
      ],
      "stateMutability": "view",
      "type": "function"
    },
    {
      "inputs": [
        {
          "internalType": "address",
          "name": "owner",
          "type": "address"
        },
        {
          "internalType": "address",
          "name": "operator",
          "type": "address"
        }
      ],
      "name": "isApprovedForAll",
      "outputs": [
        {
          "internalType": "bool",
          "name": "",
          "type": "bool"
        }
      ],
      "stateMutability": "view",
      "type": "function"
    },
    {
      "inputs": [],
      "name": "isOwner",
      "outputs": [
        {
          "internalType": "bool",
          "name": "",
          "type": "bool"
        }
      ],
      "stateMutability": "view",
      "type": "function"
    },
    {
      "inputs": [
        {
          "internalType": "address",
          "name": "_entry",
          "type": "address"
        }
      ],
      "name": "isRegistered",
      "outputs": [
        {
          "internalType": "bool",
          "name": "",
          "type": "bool"
        }
      ],
      "stateMutability": "view",
      "type": "function"
    },
    {
      "inputs": [],
      "name": "master",
      "outputs": [
        {
          "internalType": "address",
          "name": "",
          "type": "address"
        }
      ],
      "stateMutability": "view",
      "type": "function"
    },
    {
      "inputs": [],
      "name": "name",
      "outputs": [
        {
          "internalType": "string",
          "name": "",
          "type": "string"
        }
      ],
      "stateMutability": "view",
      "type": "function"
    },
    {
      "inputs": [],
      "name": "owner",
      "outputs": [
        {
          "internalType": "address",
          "name": "",
          "type": "address"
        }
      ],
      "stateMutability": "view",
      "type": "function"
    },
    {
      "inputs": [
        {
          "internalType": "uint256",
          "name": "tokenId",
          "type": "uint256"
        }
      ],
      "name": "ownerOf",
      "outputs": [
        {
          "internalType": "address",
          "name": "",
          "type": "address"
        }
      ],
      "stateMutability": "view",
      "type": "function"
    },
    {
      "inputs": [],
      "name": "previous",
      "outputs": [
        {
          "internalType": "contract IRegistry",
          "name": "",
          "type": "address"
        }
      ],
      "stateMutability": "view",
      "type": "function"
    },
    {
      "inputs": [],
      "name": "proxyCode",
      "outputs": [
        {
          "internalType": "bytes",
          "name": "",
          "type": "bytes"
        }
      ],
      "stateMutability": "view",
      "type": "function"
    },
    {
      "inputs": [],
      "name": "renounceOwnership",
      "outputs": [],
      "stateMutability": "nonpayable",
      "type": "function"
    },
    {
      "inputs": [
        {
          "internalType": "address",
          "name": "from",
          "type": "address"
        },
        {
          "internalType": "address",
          "name": "to",
          "type": "address"
        },
        {
          "internalType": "uint256",
          "name": "tokenId",
          "type": "uint256"
        }
      ],
      "name": "safeTransferFrom",
      "outputs": [],
      "stateMutability": "nonpayable",
      "type": "function"
    },
    {
      "inputs": [
        {
          "internalType": "address",
          "name": "from",
          "type": "address"
        },
        {
          "internalType": "address",
          "name": "to",
          "type": "address"
        },
        {
          "internalType": "uint256",
          "name": "tokenId",
          "type": "uint256"
        },
        {
          "internalType": "bytes",
          "name": "_data",
          "type": "bytes"
        }
      ],
      "name": "safeTransferFrom",
      "outputs": [],
      "stateMutability": "nonpayable",
      "type": "function"
    },
    {
      "inputs": [
        {
          "internalType": "address",
          "name": "operator",
          "type": "address"
        },
        {
          "internalType": "bool",
          "name": "approved",
          "type": "bool"
        }
      ],
      "name": "setApprovalForAll",
      "outputs": [],
      "stateMutability": "nonpayable",
      "type": "function"
    },
    {
      "inputs": [
        {
          "internalType": "address",
          "name": "_ens",
          "type": "address"
        },
        {
          "internalType": "string",
          "name": "_name",
          "type": "string"
        }
      ],
      "name": "setName",
      "outputs": [],
      "stateMutability": "nonpayable",
      "type": "function"
    },
    {
      "inputs": [
        {
          "internalType": "uint256",
          "name": "_tokenId",
          "type": "uint256"
        },
        {
          "internalType": "string",
          "name": "_uri",
          "type": "string"
        }
      ],
      "name": "setTokenURI",
      "outputs": [],
      "stateMutability": "nonpayable",
      "type": "function"
    },
    {
      "inputs": [
        {
          "internalType": "bytes4",
          "name": "interfaceId",
          "type": "bytes4"
        }
      ],
      "name": "supportsInterface",
      "outputs": [
        {
          "internalType": "bool",
          "name": "",
          "type": "bool"
        }
      ],
      "stateMutability": "view",
      "type": "function"
    },
    {
      "inputs": [],
      "name": "symbol",
      "outputs": [
        {
          "internalType": "string",
          "name": "",
          "type": "string"
        }
      ],
      "stateMutability": "view",
      "type": "function"
    },
    {
      "inputs": [
        {
          "internalType": "uint256",
          "name": "index",
          "type": "uint256"
        }
      ],
      "name": "tokenByIndex",
      "outputs": [
        {
          "internalType": "uint256",
          "name": "",
          "type": "uint256"
        }
      ],
      "stateMutability": "view",
      "type": "function"
    },
    {
      "inputs": [
        {
          "internalType": "address",
          "name": "owner",
          "type": "address"
        },
        {
          "internalType": "uint256",
          "name": "index",
          "type": "uint256"
        }
      ],
      "name": "tokenOfOwnerByIndex",
      "outputs": [
        {
          "internalType": "uint256",
          "name": "",
          "type": "uint256"
        }
      ],
      "stateMutability": "view",
      "type": "function"
    },
    {
      "inputs": [
        {
          "internalType": "uint256",
          "name": "tokenId",
          "type": "uint256"
        }
      ],
      "name": "tokenURI",
      "outputs": [
        {
          "internalType": "string",
          "name": "",
          "type": "string"
        }
      ],
      "stateMutability": "view",
      "type": "function"
    },
    {
      "inputs": [],
      "name": "totalSupply",
      "outputs": [
        {
          "internalType": "uint256",
          "name": "",
          "type": "uint256"
        }
      ],
      "stateMutability": "view",
      "type": "function"
    },
    {
      "inputs": [
        {
          "internalType": "address",
          "name": "from",
          "type": "address"
        },
        {
          "internalType": "address",
          "name": "to",
          "type": "address"
        },
        {
          "internalType": "uint256",
          "name": "tokenId",
          "type": "uint256"
        }
      ],
      "name": "transferFrom",
      "outputs": [],
      "stateMutability": "nonpayable",
      "type": "function"
    },
    {
      "inputs": [
        {
          "internalType": "address",
          "name": "newOwner",
          "type": "address"
        }
      ],
      "name": "transferOwnership",
      "outputs": [],
      "stateMutability": "nonpayable",
      "type": "function"
    },
    {
      "inputs": [
        {
          "internalType": "address",
          "name": "_workerpoolOwner",
          "type": "address"
        },
        {
          "internalType": "string",
          "name": "_workerpoolDescription",
          "type": "string"
        }
      ],
      "name": "createWorkerpool",
      "outputs": [
        {
          "internalType": "contract Workerpool",
          "name": "",
          "type": "address"
        }
      ],
      "stateMutability": "nonpayable",
      "type": "function"
    },
    {
      "inputs": [
        {
          "internalType": "address",
          "name": "_workerpoolOwner",
          "type": "address"
        },
        {
          "internalType": "string",
          "name": "_workerpoolDescription",
          "type": "string"
        }
      ],
      "name": "predictWorkerpool",
      "outputs": [
        {
          "internalType": "contract Workerpool",
          "name": "",
          "type": "address"
        }
      ],
      "stateMutability": "view",
      "type": "function"
    }
  ],
  "bytecode": "0x60806040523480156200001157600080fd5b50604051620000209062000285565b604051809103906000f0801580156200003d573d6000803e3d6000fd5b50604080518082018252601e81527f694578656320576f726b6572706f6f6c20526567697374727920285635290000602080830191909152825180840190935260118352706945786563576f726b6572706f6f6c563560781b908301529081818181620000ba6301ffc9a760e01b6001600160e01b03620001fb16565b620000d56380ac58cd60e01b6001600160e01b03620001fb16565b620000f063780e9d6360e01b6001600160e01b03620001fb16565b81516200010590600990602085019062000293565b5080516200011b90600a90602084019062000293565b5062000137635b5e139f60e01b6001600160e01b03620001fb16565b5050505060006200014d6200028060201b60201c565b600d80546001600160a01b0319166001600160a01b038316908117909155604051919250906000907f8be0079c531659141344cd1fd0a4f28419497f9722a3daafe3b4186f6b6457e0908290a350600e80546001600160a01b0319166001600160a01b038516179055604051620001c76020820162000318565b601f1982820381018352601f909101166040528051620001f191600f916020919091019062000293565b5050505062000343565b6001600160e01b031980821614156200025b576040805162461bcd60e51b815260206004820152601c60248201527f4552433136353a20696e76616c696420696e7465726661636520696400000000604482015290519081900360640190fd5b6001600160e01b0319166000908152602081905260409020805460ff19166001179055565b335b90565b6108298062002e3883390190565b828054600181600116156101000203166002900490600052602060002090601f016020900481019282601f10620002d657805160ff191683800117855562000306565b8280016001018555821562000306579182015b8281111562000306578251825591602001919060010190620002e9565b506200031492915062000326565b5090565b6103cd806200366183390190565b6200028291905b808211156200031457600081556001016200032d565b612ae580620003536000396000f3fe608060405234801561001057600080fd5b50600436106101e55760003560e01c80636fa59bbc1161010f578063b88d4fde116100a2578063e40238f411610071578063e40238f414610727578063e985e9c5146107a5578063ee97f7f3146107d3578063f2fde38b146107db576101e5565b8063b88d4fde146105fa578063c3c5a547146106be578063c4d66de8146106e4578063c87b56dd1461070a576101e5565b80638da5cb5b116100de5780638da5cb5b146105b45780638f32d59b146105bc57806395d89b41146105c4578063a22cb465146105cc576101e5565b80636fa59bbc1461057657806370a082311461057e578063715018a6146105a45780637c2b2e71146105ac576101e5565b806318160ddd1161018757806342842e0e1161015657806342842e0e146104fe5780634f6ccce7146105345780636352211e146105515780636c0360eb1461056e576101e5565b806318160ddd1461040457806323b872dd1461041e5780632f745c59146104545780633121db1c14610480576101e5565b8063081812fc116101c3578063081812fc1461033c578063095ea7b314610359578063158ef93e14610387578063162094c41461038f576101e5565b806301ffc9a7146101ea578063064a6c2a1461022557806306fdde03146102bf575b600080fd5b6102116004803603602081101561020057600080fd5b50356001600160e01b031916610801565b604080519115158252519081900360200190f35b6102a36004803603604081101561023b57600080fd5b6001600160a01b038235169190810190604081016020820135600160201b81111561026557600080fd5b82018360208201111561027757600080fd5b803590602001918460018302840111600160201b8311171561029857600080fd5b509092509050610824565b604080516001600160a01b039092168252519081900360200190f35b6102c7610876565b6040805160208082528351818301528351919283929083019185019080838360005b838110156103015781810151838201526020016102e9565b50505050905090810190601f16801561032e5780820380516001836020036101000a031916815260200191505b509250505060405180910390f35b6102a36004803603602081101561035257600080fd5b503561090d565b6103856004803603604081101561036f57600080fd5b506001600160a01b03813516906020013561096f565b005b610211610a4a565b610385600480360360408110156103a557600080fd5b81359190810190604081016020820135600160201b8111156103c657600080fd5b8201836020820111156103d857600080fd5b803590602001918460018302840111600160201b831117156103f957600080fd5b509092509050610a5a565b61040c610af9565b60408051918252519081900360200190f35b6103856004803603606081101561043457600080fd5b506001600160a01b03813581169160208101359091169060400135610aff565b61040c6004803603604081101561046a57600080fd5b506001600160a01b038135169060200135610b56565b6103856004803603604081101561049657600080fd5b6001600160a01b038235169190810190604081016020820135600160201b8111156104c057600080fd5b8201836020820111156104d257600080fd5b803590602001918460018302840111600160201b831117156104f357600080fd5b509092509050610bd5565b6103856004803603606081101561051457600080fd5b506001600160a01b03813581169160208101359091169060400135610c5c565b61040c6004803603602081101561054a57600080fd5b5035610c77565b6102a36004803603602081101561056757600080fd5b5035610cdd565b6102c7610d37565b6102c7610d98565b61040c6004803603602081101561059457600080fd5b50356001600160a01b0316610e26565b610385610e8e565b6102a3610f1f565b6102a3610f2e565b610211610f3d565b6102c7610f63565b610385600480360360408110156105e257600080fd5b506001600160a01b0381351690602001351515610fc4565b6103856004803603608081101561061057600080fd5b6001600160a01b03823581169260208101359091169160408201359190810190608081016060820135600160201b81111561064a57600080fd5b82018360208201111561065c57600080fd5b803590602001918460018302840111600160201b8311171561067d57600080fd5b91908080601f0160208091040260200160405190810160405280939291908181526020018383808284376000920191909152509295506110c9945050505050565b610211600480360360208110156106d457600080fd5b50356001600160a01b0316611127565b610385600480360360208110156106fa57600080fd5b50356001600160a01b03166111d5565b6102c76004803603602081101561072057600080fd5b5035611264565b6102a36004803603604081101561073d57600080fd5b6001600160a01b038235169190810190604081016020820135600160201b81111561076757600080fd5b82018360208201111561077957600080fd5b803590602001918460018302840111600160201b8311171561079a57600080fd5b509092509050611430565b610211600480360360408110156107bb57600080fd5b506001600160a01b038135811691602001351661147a565b6102a36114a8565b610385600480360360208110156107f157600080fd5b50356001600160a01b03166114b7565b6001600160e01b0319811660009081526020819052604090205460ff165b919050565b600061086e8461086985858080601f01602080910402602001604051908101604052809392919081815260200183838082843760009201919091525061150a92505050565b6115af565b949350505050565b60098054604080516020601f60026000196101006001881615020190951694909404938401819004810282018101909252828152606093909290918301828280156109025780601f106108d757610100808354040283529160200191610902565b820191906000526020600020905b8154815290600101906020018083116108e557829003601f168201915b505050505090505b90565b6000610918826116f1565b6109535760405162461bcd60e51b815260040180806020018281038252602c815260200180612962602c913960400191505060405180910390fd5b506000908152600260205260409020546001600160a01b031690565b600061097a82610cdd565b9050806001600160a01b0316836001600160a01b031614156109cd5760405162461bcd60e51b8152600401808060200182810382526021815260200180612a326021913960400191505060405180910390fd5b806001600160a01b03166109df61170e565b6001600160a01b03161480610a005750610a00816109fb61170e565b61147a565b610a3b5760405162461bcd60e51b81526004018080602001828103825260388152602001806128d76038913960400191505060405180910390fd5b610a458383611712565b505050565b601054600160a01b900460ff1681565b610a6383610cdd565b6001600160a01b0316610a7461170e565b6001600160a01b031614610ab95760405162461bcd60e51b81526004018080602001828103825260288152602001806127dc6028913960400191505060405180910390fd5b610a458383838080601f01602080910402602001604051908101604052809392919081815260200183838082843760009201919091525061178092505050565b60075490565b610b10610b0a61170e565b826117e3565b610b4b5760405162461bcd60e51b8152600401808060200182810382526031815260200180612a536031913960400191505060405180910390fd5b610a4583838361187f565b6000610b6183610e26565b8210610b9e5760405162461bcd60e51b815260040180806020018281038252602b815260200180612804602b913960400191505060405180910390fd5b6001600160a01b0383166000908152600560205260409020805483908110610bc257fe5b9060005260206000200154905092915050565b610bdd610f3d565b610c1c576040805162461bcd60e51b815260206004820181905260248201526000805160206129ba833981519152604482015290519081900360640190fd5b610a458383838080601f0160208091040260200160405190810160405280939291908181526020018383808284376000920191909152506119d092505050565b610a45838383604051806020016040528060008152506110c9565b6000610c81610af9565b8210610cbe5760405162461bcd60e51b815260040180806020018281038252602c815260200180612a84602c913960400191505060405180910390fd5b60078281548110610ccb57fe5b90600052602060002001549050919050565b6000818152600160205260408120546001600160a01b031680610d315760405162461bcd60e51b81526004018080602001828103825260298152602001806129396029913960400191505060405180910390fd5b92915050565b600b8054604080516020601f60026000196101006001881615020190951694909404938401819004810282018101909252828152606093909290918301828280156109025780601f106108d757610100808354040283529160200191610902565b600f805460408051602060026001851615610100026000190190941693909304601f81018490048402820184019092528181529291830182828015610e1e5780601f10610df357610100808354040283529160200191610e1e565b820191906000526020600020905b815481529060010190602001808311610e0157829003601f168201915b505050505081565b60006001600160a01b038216610e6d5760405162461bcd60e51b815260040180806020018281038252602a81526020018061290f602a913960400191505060405180910390fd5b6001600160a01b0382166000908152600360205260409020610d3190611b35565b610e96610f3d565b610ed5576040805162461bcd60e51b815260206004820181905260248201526000805160206129ba833981519152604482015290519081900360640190fd5b600d546040516000916001600160a01b0316907f8be0079c531659141344cd1fd0a4f28419497f9722a3daafe3b4186f6b6457e0908390a3600d80546001600160a01b0319169055565b6010546001600160a01b031681565b600d546001600160a01b031690565b600d546000906001600160a01b0316610f5461170e565b6001600160a01b031614905090565b600a8054604080516020601f60026000196101006001881615020190951694909404938401819004810282018101909252828152606093909290918301828280156109025780601f106108d757610100808354040283529160200191610902565b610fcc61170e565b6001600160a01b0316826001600160a01b03161415611032576040805162461bcd60e51b815260206004820152601960248201527f4552433732313a20617070726f766520746f2063616c6c657200000000000000604482015290519081900360640190fd5b806004600061103f61170e565b6001600160a01b03908116825260208083019390935260409182016000908120918716808252919093529120805460ff19169215159290921790915561108361170e565b60408051841515815290516001600160a01b0392909216917f17307eab39ab6107e8899845ad3d59bd9653f200f220920489ca2b5937696c319181900360200190a35050565b6110da6110d461170e565b836117e3565b6111155760405162461bcd60e51b8152600401808060200182810382526031815260200180612a536031913960400191505060405180910390fd5b61112184848484611b39565b50505050565b600061113b826001600160a01b03166116f1565b80610d3157506010546001600160a01b031615801590610d3157506010546040805163c3c5a54760e01b81526001600160a01b0385811660048301529151919092169163c3c5a547916024808301926020929190829003018186803b1580156111a357600080fd5b505afa1580156111b7573d6000803e3d6000fd5b505050506040513d60208110156111cd57600080fd5b505192915050565b6111dd610f3d565b61121c576040805162461bcd60e51b815260206004820181905260248201526000805160206129ba833981519152604482015290519081900360640190fd5b601054600160a01b900460ff161561123357600080fd5b60108054600160a01b60ff60a01b19909116176001600160a01b0319166001600160a01b0392909216919091179055565b606061126f826116f1565b6112aa5760405162461bcd60e51b815260040180806020018281038252602f815260200180612a03602f913960400191505060405180910390fd5b6000828152600c602090815260409182902080548351601f600260001961010060018616150201909316929092049182018490048402810184019094528084526060939283018282801561133f5780601f106113145761010080835404028352916020019161133f565b820191906000526020600020905b81548152906001019060200180831161132257829003601f168201915b5050505050905080516000141561136657505060408051602081019091526000815261081f565b600b8160405160200180838054600181600116156101000203166002900480156113c75780601f106113a55761010080835404028352918201916113c7565b820191906000526020600020905b8154815290600101906020018083116113b3575b5050825160208401908083835b602083106113f35780518252601f1990920191602091820191016113d4565b6001836020036101000a0380198251168184511680821785525050505050509050019250505060405160208183030381529060405291505061081f565b600061086e8461147585858080601f01602080910402602001604051908101604052809392919081815260200183838082843760009201919091525061150a92505050565b611b8b565b6001600160a01b03918216600090815260046020908152604080832093909416825291909152205460ff1690565b600e546001600160a01b031681565b6114bf610f3d565b6114fe576040805162461bcd60e51b815260206004820181905260248201526000805160206129ba833981519152604482015290519081900360640190fd5b61150781611db3565b50565b6060816040516024018080602001828103825283818151815260200191508051906020019080838360005b8381101561154d578181015183820152602001611535565b50505050905090810190601f16801561157a5780820380516001836020036101000a031916815260200191505b5060408051601f198184030181529190526020810180516001600160e01b0316631ec5a31160e31b1790529350505050919050565b6000806116e083856040516020018083805190602001908083835b602083106115e95780518252601f1990920191602091820191016115ca565b6001836020036101000a038019825116818451168082178552505050505050905001826001600160a01b03166001600160a01b031660601b81526014019250505060405160208183030381529060405280519060200120600f8054600181600116156101000203166002900480601f0160208091040260200160405190810160405280929190818152602001828054600181600116156101000203166002900480156116d65780601f106116ab576101008083540402835291602001916116d6565b820191906000526020600020905b8154815290600101906020018083116116b957829003601f168201915b5050505050611e54565b6001600160a01b0316949350505050565b6000908152600160205260409020546001600160a01b0316151590565b3390565b600081815260026020526040902080546001600160a01b0319166001600160a01b038416908117909155819061174782610cdd565b6001600160a01b03167f8c5be1e5ebec7d5bd14f71427d1e84f3dd0314c0f7b2291e5b200ac8c7c3b92560405160405180910390a45050565b611789826116f1565b6117c45760405162461bcd60e51b815260040180806020018281038252602c81526020018061298e602c913960400191505060405180910390fd5b6000828152600c602090815260409091208251610a4592840190612703565b60006117ee826116f1565b6118295760405162461bcd60e51b815260040180806020018281038252602c8152602001806128ab602c913960400191505060405180910390fd5b600061183483610cdd565b9050806001600160a01b0316846001600160a01b0316148061186f5750836001600160a01b03166118648461090d565b6001600160a01b0316145b8061086e575061086e818561147a565b826001600160a01b031661189282610cdd565b6001600160a01b0316146118d75760405162461bcd60e51b81526004018080602001828103825260298152602001806129da6029913960400191505060405180910390fd5b6001600160a01b03821661191c5760405162461bcd60e51b81526004018080602001828103825260248152602001806128876024913960400191505060405180910390fd5b611927838383611e68565b611932600082611712565b6001600160a01b038316600090815260036020526040902061195390611e73565b6001600160a01b038216600090815260036020526040902061197490611e8a565b60008181526001602052604080822080546001600160a01b0319166001600160a01b0386811691821790925591518493918716917fddf252ad1be2c89b69c2b068fc378daa952ba7f163c4a11628f55a4df523b3ef91a4505050565b604080516302571be360e01b81527f91d1777781884d03a6757a803996e38de2a42967fb37eeaca72729271025a9e2600482015290516001600160a01b038416916302571be3916024808301926020929190829003018186803b158015611a3657600080fd5b505afa158015611a4a573d6000803e3d6000fd5b505050506040513d6020811015611a6057600080fd5b505160405163c47f002760e01b81526020600482018181528451602484015284516001600160a01b039094169363c47f002793869383926044909201919085019080838360005b83811015611abf578181015183820152602001611aa7565b50505050905090810190601f168015611aec5780820380516001836020036101000a031916815260200191505b5092505050602060405180830381600087803b158015611b0b57600080fd5b505af1158015611b1f573d6000803e3d6000fd5b505050506040513d602081101561112157600080fd5b5490565b611b4484848461187f565b611b5084848484611e93565b6111215760405162461bcd60e51b815260040180806020018281038252603281526020018061282f6032913960400191505060405180910390fd5b600080611cbc83856040516020018083805190602001908083835b60208310611bc55780518252601f199092019160209182019101611ba6565b6001836020036101000a038019825116818451168082178552505050505050905001826001600160a01b03166001600160a01b031660601b81526014019250505060405160208183030381529060405280519060200120600f8054600181600116156101000203166002900480601f016020809104026020016040519081016040528092919081815260200182805460018160011615610100020316600290048015611cb25780601f10611c8757610100808354040283529160200191611cb2565b820191906000526020600020905b815481529060010190602001808311611c9557829003601f168201915b50505050506120ce565b600e546040805163347d5e2560e21b81526001600160a01b0392831660048201818152602483019384528851604484015288519596509386169463d1f5789494919389939091606490910190602085019080838360005b83811015611d2b578181015183820152602001611d13565b50505050905090810190601f168015611d585780820380516001836020036101000a031916815260200191505b509350505050600060405180830381600087803b158015611d7857600080fd5b505af1158015611d8c573d6000803e3d6000fd5b50505050611da384826001600160a01b0316612138565b6001600160a01b03169392505050565b6001600160a01b038116611df85760405162461bcd60e51b81526004018080602001828103825260268152602001806128616026913960400191505060405180910390fd5b600d546040516001600160a01b038084169216907f8be0079c531659141344cd1fd0a4f28419497f9722a3daafe3b4186f6b6457e090600090a3600d80546001600160a01b0319166001600160a01b0392909216919091179055565b6000611e61838330612275565b9392505050565b610a45838383612289565b8054611e8690600163ffffffff6122e016565b9055565b80546001019055565b6000611ea7846001600160a01b0316612322565b611eb35750600161086e565b600060606001600160a01b038616630a85bd0160e11b611ed161170e565b89888860405160240180856001600160a01b03166001600160a01b03168152602001846001600160a01b03166001600160a01b0316815260200183815260200180602001828103825283818151815260200191508051906020019080838360005b83811015611f4a578181015183820152602001611f32565b50505050905090810190601f168015611f775780820380516001836020036101000a031916815260200191505b5060408051601f198184030181529181526020820180516001600160e01b03166001600160e01b0319909a16999099178952518151919890975087965094509250829150849050835b60208310611fdf5780518252601f199092019160209182019101611fc0565b6001836020036101000a0380198251168184511680821785525050505050509050019150506000604051808303816000865af19150503d8060008114612041576040519150601f19603f3d011682016040523d82523d6000602084013e612046565b606091505b509150915081612097578051156120605780518082602001fd5b60405162461bcd60e51b815260040180806020018281038252603281526020018061282f6032913960400191505060405180910390fd5b60008180602001905160208110156120ae57600080fd5b50516001600160e01b031916630a85bd0160e11b14935061086e92505050565b600080838351602085016000f590506001600160a01b038116611e61576040805162461bcd60e51b815260206004820152601960248201527f437265617465323a204661696c6564206f6e206465706c6f7900000000000000604482015290519081900360640190fd5b6001600160a01b038216612193576040805162461bcd60e51b815260206004820181905260248201527f4552433732313a206d696e7420746f20746865207a65726f2061646472657373604482015290519081900360640190fd5b61219c816116f1565b156121ee576040805162461bcd60e51b815260206004820152601c60248201527f4552433732313a20746f6b656e20616c7265616479206d696e74656400000000604482015290519081900360640190fd5b6121fa60008383611e68565b600081815260016020908152604080832080546001600160a01b0319166001600160a01b03871690811790915583526003909152902061223990611e8a565b60405181906001600160a01b038416906000907fddf252ad1be2c89b69c2b068fc378daa952ba7f163c4a11628f55a4df523b3ef908290a45050565b600061086e8484805190602001208461235b565b6122948383836123bf565b6001600160a01b038216610a45576000818152600c60205260409020546002600019610100600184161502019091160415610a45576000818152600c60205260408120610a4591612781565b6000611e6183836040518060400160405280601e81526020017f536166654d6174683a207375627472616374696f6e206f766572666c6f770000815250612434565b6000813f7fc5d2460186f7233c927e7db2dcc703c0e500b653ca82273b7bfad8045d85a47081811480159061086e575050151592915050565b604080516001600160f81b031960208083019190915260609390931b6bffffffffffffffffffffffff19166021820152603581019490945260558085019390935280518085039093018352607590930190925280519101206001600160a01b031690565b6123ca838383610a45565b6001600160a01b0383166123f0576123e282826124cb565b6123eb81612509565b610a45565b6001600160a01b03821661242057612408838261254d565b6000818152600660205260408120556123eb8161264f565b61242a838261254d565b610a4582826124cb565b600081848411156124c35760405162461bcd60e51b81526004018080602001828103825283818151815260200191508051906020019080838360005b83811015612488578181015183820152602001612470565b50505050905090810190601f1680156124b55780820380516001836020036101000a031916815260200191505b509250505060405180910390fd5b505050900390565b6001600160a01b0390911660009081526005602081815260408084208054868652600684529185208290559282526001810183559183529091200155565b600780546000838152600860205260408120829055600182018355919091527fa66cc928b5edb82af9bd49922954155ab7b0942694bea4ce44661d9a8736c6880155565b6001600160a01b03821660009081526005602052604081205461257790600163ffffffff6122e016565b600083815260066020526040902054909150808214612612576001600160a01b03841660009081526005602052604081208054849081106125b457fe5b906000526020600020015490508060056000876001600160a01b03166001600160a01b0316815260200190815260200160002083815481106125f257fe5b600091825260208083209091019290925591825260069052604090208190555b6001600160a01b038416600090815260056020526040902080548061263357fe5b6001900381819060005260206000200160009055905550505050565b60075460009061266690600163ffffffff6122e016565b6000838152600860205260408120546007805493945090928490811061268857fe5b9060005260206000200154905080600783815481106126a357fe5b600091825260208083209091019290925582815260089091526040902082905560078054806126ce57fe5b600190038181906000526020600020016000905590556000600860008681526020019081526020016000208190555050505050565b828054600181600116156101000203166002900490600052602060002090601f016020900481019282601f1061274457805160ff1916838001178555612771565b82800160010185558215612771579182015b82811115612771578251825591602001919060010190612756565b5061277d9291506127c1565b5090565b50805460018160011615610100020316600290046000825580601f106127a75750611507565b601f01602090049060005260206000209081019061150791905b61090a91905b8082111561277d57600081556001016127c756fe4552433732313a20616363657373207265737472696374656420746f20746f6b656e206f776e6572455243373231456e756d657261626c653a206f776e657220696e646578206f7574206f6620626f756e64734552433732313a207472616e7366657220746f206e6f6e20455243373231526563656976657220696d706c656d656e7465724f776e61626c653a206e6577206f776e657220697320746865207a65726f20616464726573734552433732313a207472616e7366657220746f20746865207a65726f20616464726573734552433732313a206f70657261746f7220717565727920666f72206e6f6e6578697374656e7420746f6b656e4552433732313a20617070726f76652063616c6c6572206973206e6f74206f776e6572206e6f7220617070726f76656420666f7220616c6c4552433732313a2062616c616e636520717565727920666f7220746865207a65726f20616464726573734552433732313a206f776e657220717565727920666f72206e6f6e6578697374656e7420746f6b656e4552433732313a20617070726f76656420717565727920666f72206e6f6e6578697374656e7420746f6b656e4552433732314d657461646174613a2055524920736574206f66206e6f6e6578697374656e7420746f6b656e4f776e61626c653a2063616c6c6572206973206e6f7420746865206f776e65724552433732313a207472616e73666572206f6620746f6b656e2074686174206973206e6f74206f776e4552433732314d657461646174613a2055524920717565727920666f72206e6f6e6578697374656e7420746f6b656e4552433732313a20617070726f76616c20746f2063757272656e74206f776e65724552433732313a207472616e736665722063616c6c6572206973206e6f74206f776e6572206e6f7220617070726f766564455243373231456e756d657261626c653a20676c6f62616c20696e646578206f7574206f6620626f756e6473a2646970667358221220010437ed4109823512ee2c9df4c8df2e412beec87b50284c29d5fdeb9eac922b64736f6c63430006040033608060405234801561001057600080fd5b50610809806100206000396000f3fe608060405234801561001057600080fd5b50600436106100885760003560e01c80638da5cb5b1161005b5780638da5cb5b146101ca578063b55e75af146101d2578063f199413c146101da578063f62d1888146101fd57610088565b80633121db1c1461008d578063584feb3a1461010f5780637b1039991461018c57806387639c68146101b0575b600080fd5b61010d600480360360408110156100a357600080fd5b6001600160a01b0382351691908101906040810160208201356401000000008111156100ce57600080fd5b8201836020820111156100e057600080fd5b8035906020019184600183028401116401000000008311171561010257600080fd5b5090925090506102a3565b005b610117610346565b6040805160208082528351818301528351919283929083019185019080838360005b83811015610151578181015183820152602001610139565b50505050905090810190601f16801561017e5780820380516001836020036101000a031916815260200191505b509250505060405180910390f35b6101946103d3565b604080516001600160a01b039092168252519081900360200190f35b6101b86103e2565b60408051918252519081900360200190f35b6101946103e8565b6101b8610466565b61010d600480360360408110156101f057600080fd5b508035906020013561046c565b61010d6004803603602081101561021357600080fd5b81019060208101813564010000000081111561022e57600080fd5b82018360208201111561024057600080fd5b8035906020019184600183028401116401000000008311171561026257600080fd5b91908080601f016020809104026020016040519081016040528093929190818152602001838380828437600092019190915250929550610530945050505050565b336102ac6103e8565b6001600160a01b031614610301576040805162461bcd60e51b815260206004820152601760248201527631b0b63632b91034b9903737ba103a34329037bbb732b960491b604482015290519081900360640190fd5b6103418383838080601f01602080910402602001604051908101604052809392919081815260200183838082843760009201919091525061055a92505050565b505050565b60018054604080516020600284861615610100026000190190941693909304601f810184900484028201840190925281815292918301828280156103cb5780601f106103a0576101008083540402835291602001916103cb565b820191906000526020600020905b8154815290600101906020018083116103ae57829003601f168201915b505050505081565b6000546001600160a01b031681565b60035481565b60008054604080516331a9108f60e11b815230600482015290516001600160a01b0390921691636352211e91602480820192602092909190829003018186803b15801561043457600080fd5b505afa158015610448573d6000803e3d6000fd5b505050506040513d602081101561045e57600080fd5b505190505b90565b60025481565b336104756103e8565b6001600160a01b0316146104ca576040805162461bcd60e51b815260206004820152601760248201527631b0b63632b91034b9903737ba103a34329037bbb732b960491b604482015290519081900360640190fd5b60648111156104d857600080fd5b60025460035460408051928352602083018590528281019190915260608201839052517f61f37ef3a6d587ce2d6be79492e1fac570f2745787015db7ed95ad4397b05c1e9181900360800190a1600291909155600355565b610539336106c5565b805161054c90600190602084019061073b565b5050601e6002556001600355565b604080516302571be360e01b81527f91d1777781884d03a6757a803996e38de2a42967fb37eeaca72729271025a9e2600482015290516001600160a01b038416916302571be3916024808301926020929190829003018186803b1580156105c057600080fd5b505afa1580156105d4573d6000803e3d6000fd5b505050506040513d60208110156105ea57600080fd5b505160405163c47f002760e01b81526020600482018181528451602484015284516001600160a01b039094169363c47f002793869383926044909201919085019080838360005b83811015610649578181015183820152602001610631565b50505050905090810190601f1680156106765780820380516001836020036101000a031916815260200191505b5092505050602060405180830381600087803b15801561069557600080fd5b505af11580156106a9573d6000803e3d6000fd5b505050506040513d60208110156106bf57600080fd5b50505050565b6000546001600160a01b031615610719576040805162461bcd60e51b8152602060048201526013602482015272185b1c9958591e481a5b9a5d1a585b1a5e9959606a1b604482015290519081900360640190fd5b600080546001600160a01b0319166001600160a01b0392909216919091179055565b828054600181600116156101000203166002900490600052602060002090601f016020900481019282601f1061077c57805160ff19168380011785556107a9565b828001600101855582156107a9579182015b828111156107a957825182559160200191906001019061078e565b506107b59291506107b9565b5090565b61046391905b808211156107b557600081556001016107bf56fea264697066735822122086308173048d72ca43ceaa98abd72e1b1906aaf6534853154d825725d4c42b0264736f6c63430006040033608060405234801561001057600080fd5b506103ad806100206000396000f3fe6080604052600436106100225760003560e01c8063d1f578941461003957610031565b366100315761002f6100ef565b005b61002f6100ef565b61002f6004803603604081101561004f57600080fd5b6001600160a01b03823516919081019060408101602082013564010000000081111561007a57600080fd5b82018360208201111561008c57600080fd5b803590602001918460018302840111640100000000831117156100ae57600080fd5b91908080601f016020809104026020016040519081016040528093929190818152602001838380828437600092019190915250929550610109945050505050565b6100f7610107565b61010761010261022c565b610251565b565b600061011361022c565b6001600160a01b03161461012657600080fd5b60405180602361031a82396040519081900360230190207f7050c9e0f4ca769c69bd3a8ef740bc37934f8e2c036e5a723fd8ee048ed3f8c314905061016757fe5b61017082610275565b805115610228576000826001600160a01b0316826040518082805190602001908083835b602083106101b35780518252601f199092019160209182019101610194565b6001836020036101000a038019825116818451168082178552505050505050905001915050600060405180830381855af49150503d8060008114610213576040519150601f19603f3d011682016040523d82523d6000602084013e610218565b606091505b505090508061022657600080fd5b505b5050565b7f7050c9e0f4ca769c69bd3a8ef740bc37934f8e2c036e5a723fd8ee048ed3f8c35490565b3660008037600080366000845af43d6000803e808015610270573d6000f35b3d6000fd5b61027e816102dd565b6102b95760405162461bcd60e51b815260040180806020018281038252603b81526020018061033d603b913960400191505060405180910390fd5b7f7050c9e0f4ca769c69bd3a8ef740bc37934f8e2c036e5a723fd8ee048ed3f8c355565b6000813f7fc5d2460186f7233c927e7db2dcc703c0e500b653ca82273b7bfad8045d85a47081811480159061031157508115155b94935050505056fe6f72672e7a657070656c696e6f732e70726f78792e696d706c656d656e746174696f6e43616e6e6f742073657420612070726f787920696d706c656d656e746174696f6e20746f2061206e6f6e2d636f6e74726163742061646472657373a264697066735822122054d7aa3c843bf41b29a61ce539db1f2e9829491d85c504242e389b69b3c5f59164736f6c63430006040033",
  "source": "pragma solidity ^0.6.0;\n\nimport '../Registry.sol';\nimport './Workerpool.sol';\n\n\ncontract WorkerpoolRegistry is Registry\n{\n\t/**\n\t * Constructor\n\t */\n\tconstructor()\n\tpublic Registry(\n\t\taddress(new Workerpool()),\n\t\t\"iExec Workerpool Registry (V5)\",\n\t\t\"iExecWorkerpoolV5\")\n\t{\n\t}\n\n\t/**\n\t * Pool creation\n\t */\n\tfunction encodeInitializer(\n\t\tstring memory _workerpoolDescription)\n\tinternal pure returns (bytes memory)\n\t{\n\t\treturn abi.encodeWithSignature(\n\t\t\t\"initialize(string)\",\n\t\t\t_workerpoolDescription\n\t\t);\n\t}\n\n\tfunction createWorkerpool(\n\t\taddress          _workerpoolOwner,\n\t\tstring  calldata _workerpoolDescription)\n\texternal returns (Workerpool)\n\t{\n\t\treturn Workerpool(_mintCreate(_workerpoolOwner, encodeInitializer(_workerpoolDescription)));\n\t}\n\n\tfunction predictWorkerpool(\n\t\taddress          _workerpoolOwner,\n\t\tstring  calldata _workerpoolDescription)\n\texternal view returns (Workerpool)\n\t{\n\t\treturn Workerpool(_mintPredict(_workerpoolOwner, encodeInitializer(_workerpoolDescription)));\n\t}\n}\n",
  "sourcePath": "/home/amxx/Work/iExec/code/PoCo-dev/contracts/registries/workerpools/WorkerpoolRegistry.sol",
  "compiler": {
    "name": "solc",
    "version": "0.6.4+commit.1dca32f3.Emscripten.clang"
  },
  "schemaVersion": "3.0.23",
  "updatedAt": "2020-03-16T11:20:17.337Z",
  "devdoc": {
    "methods": {
      "approve(address,uint256)": {
        "details": "Approves another address to transfer the given token ID The zero address indicates there is no approved address. There can only be one approved address per token at a given time. Can only be called by the token owner or an approved operator.",
        "params": {
          "to": "address to be approved for the given token ID",
          "tokenId": "uint256 ID of the token to be approved"
        }
      },
      "balanceOf(address)": {
        "details": "Gets the balance of the specified address.",
        "params": {
          "owner": "address to query the balance of"
        },
        "returns": {
          "_0": "uint256 representing the amount owned by the passed address"
        }
      },
      "baseURI()": {
        "details": "Returns the base URI set via {_setBaseURI}. This will be automatically added as a preffix in {tokenURI} to each token's URI, when they are non-empty.    * _Available since v2.5.0._"
      },
      "getApproved(uint256)": {
        "details": "Gets the approved address for a token ID, or zero if no address set Reverts if the token ID does not exist.",
        "params": {
          "tokenId": "uint256 ID of the token to query the approval of"
        },
        "returns": {
          "_0": "address currently approved for the given token ID"
        }
      },
      "isApprovedForAll(address,address)": {
        "details": "Tells whether an operator is approved by a given owner.",
        "params": {
          "operator": "operator address which you want to query the approval of",
          "owner": "owner address which you want to query the approval of"
        },
        "returns": {
          "_0": "bool whether the given operator is approved by the given owner"
        }
      },
      "isOwner()": {
        "details": "Returns true if the caller is the current owner."
      },
      "name()": {
        "details": "Gets the token name.",
        "returns": {
          "_0": "string representing the token name"
        }
      },
      "owner()": {
        "details": "Returns the address of the current owner."
      },
      "ownerOf(uint256)": {
        "details": "Gets the owner of the specified token ID.",
        "params": {
          "tokenId": "uint256 ID of the token to query the owner of"
        },
        "returns": {
          "_0": "address currently marked as the owner of the given token ID"
        }
      },
      "renounceOwnership()": {
        "details": "Leaves the contract without owner. It will not be possible to call `onlyOwner` functions anymore. Can only be called by the current owner.     * NOTE: Renouncing ownership will leave the contract without an owner, thereby removing any functionality that is only available to the owner."
      },
      "safeTransferFrom(address,address,uint256)": {
        "details": "Safely transfers the ownership of a given token ID to another address If the target address is a contract, it must implement {IERC721Receiver-onERC721Received}, which is called upon a safe transfer, and return the magic value `bytes4(keccak256(\"onERC721Received(address,address,uint256,bytes)\"))`; otherwise, the transfer is reverted. Requires the msg.sender to be the owner, approved, or operator",
        "params": {
          "from": "current owner of the token",
          "to": "address to receive the ownership of the given token ID",
          "tokenId": "uint256 ID of the token to be transferred"
        }
      },
      "safeTransferFrom(address,address,uint256,bytes)": {
        "details": "Safely transfers the ownership of a given token ID to another address If the target address is a contract, it must implement {IERC721Receiver-onERC721Received}, which is called upon a safe transfer, and return the magic value `bytes4(keccak256(\"onERC721Received(address,address,uint256,bytes)\"))`; otherwise, the transfer is reverted. Requires the _msgSender() to be the owner, approved, or operator",
        "params": {
          "_data": "bytes data to send along with a safe transfer check",
          "from": "current owner of the token",
          "to": "address to receive the ownership of the given token ID",
          "tokenId": "uint256 ID of the token to be transferred"
        }
      },
      "setApprovalForAll(address,bool)": {
        "details": "Sets or unsets the approval of a given operator An operator is allowed to transfer all tokens of the sender on their behalf.",
        "params": {
          "approved": "representing the status of the approval to be set",
          "operator": "operator address to set the approval"
        }
      },
      "supportsInterface(bytes4)": {
        "details": "See {IERC165-supportsInterface}.     * Time complexity O(1), guaranteed to always use less than 30 000 gas."
      },
      "symbol()": {
        "details": "Gets the token symbol.",
        "returns": {
          "_0": "string representing the token symbol"
        }
      },
      "tokenByIndex(uint256)": {
        "details": "Gets the token ID at a given index of all the tokens in this contract Reverts if the index is greater or equal to the total number of tokens.",
        "params": {
          "index": "uint256 representing the index to be accessed of the tokens list"
        },
        "returns": {
          "_0": "uint256 token ID at the given index of the tokens list"
        }
      },
      "tokenOfOwnerByIndex(address,uint256)": {
        "details": "Gets the token ID at a given index of the tokens list of the requested owner.",
        "params": {
          "index": "uint256 representing the index to be accessed of the requested tokens list",
          "owner": "address owning the tokens list to be accessed"
        },
        "returns": {
          "_0": "uint256 token ID at the given index of the tokens list owned by the requested address"
        }
      },
      "tokenURI(uint256)": {
        "details": "Returns the URI for a given token ID. May return an empty string.     * If the token's URI is non-empty and a base URI was set (via {_setBaseURI}), it will be added to the token ID's URI as a prefix.     * Reverts if the token ID does not exist."
      },
      "totalSupply()": {
        "details": "Gets the total amount of tokens stored by the contract.",
        "returns": {
          "_0": "uint256 representing the total amount of tokens"
        }
      },
      "transferFrom(address,address,uint256)": {
        "details": "Transfers the ownership of a given token ID to another address. Usage of this method is discouraged, use {safeTransferFrom} whenever possible. Requires the msg.sender to be the owner, approved, or operator.",
        "params": {
          "from": "current owner of the token",
          "to": "address to receive the ownership of the given token ID",
          "tokenId": "uint256 ID of the token to be transferred"
        }
      },
      "transferOwnership(address)": {
        "details": "Transfers ownership of the contract to a new account (`newOwner`). Can only be called by the current owner."
      }
    }
  },
  "userdoc": {
    "methods": {
      "constructor": "Constructor"
    }
  }
}