{
  "contractName": "WorkerPool",
  "abi": [
    {
      "constant": true,
      "inputs": [
        {
          "name": "",
          "type": "address"
        }
      ],
      "name": "m_consensus",
      "outputs": [
        {
          "name": "poolReward",
          "type": "uint256"
        },
        {
          "name": "stakeAmount",
          "type": "uint256"
        },
        {
          "name": "consensus",
          "type": "bytes32"
        },
        {
          "name": "revealDate",
          "type": "uint256"
        },
        {
          "name": "revealCounter",
          "type": "uint256"
        },
        {
          "name": "consensusTimeout",
          "type": "uint256"
        },
        {
          "name": "winnerCount",
          "type": "uint256"
        },
        {
          "name": "workerpoolOwner",
          "type": "address"
        },
        {
          "name": "schedulerRewardRatioPolicy",
          "type": "uint256"
        }
      ],
      "payable": false,
      "stateMutability": "view",
      "type": "function"
    },
    {
      "constant": true,
      "inputs": [
        {
          "name": "",
          "type": "uint256"
        }
      ],
      "name": "m_workers",
      "outputs": [
        {
          "name": "",
          "type": "address"
        }
      ],
      "payable": false,
      "stateMutability": "view",
      "type": "function"
    },
    {
      "constant": true,
      "inputs": [
        {
          "name": "",
          "type": "address"
        }
      ],
      "name": "m_workerIndex",
      "outputs": [
        {
          "name": "",
          "type": "uint256"
        }
      ],
      "payable": false,
      "stateMutability": "view",
      "type": "function"
    },
    {
      "constant": true,
      "inputs": [],
      "name": "CONSENSUS_DURATION_RATIO",
      "outputs": [
        {
          "name": "",
          "type": "uint256"
        }
      ],
      "payable": false,
      "stateMutability": "view",
      "type": "function"
    },
    {
      "constant": true,
      "inputs": [],
      "name": "m_subscriptionMinimumStakePolicy",
      "outputs": [
        {
          "name": "",
          "type": "uint256"
        }
      ],
      "payable": false,
      "stateMutability": "view",
      "type": "function"
    },
    {
      "constant": true,
      "inputs": [
        {
          "name": "",
          "type": "address"
        },
        {
          "name": "",
          "type": "address"
        }
      ],
      "name": "m_contributions",
      "outputs": [
        {
          "name": "status",
          "type": "uint8"
        },
        {
          "name": "resultHash",
          "type": "bytes32"
        },
        {
          "name": "resultSign",
          "type": "bytes32"
        },
        {
          "name": "enclaveChallenge",
          "type": "address"
        },
        {
          "name": "score",
          "type": "uint256"
        },
        {
          "name": "weight",
          "type": "uint256"
        }
      ],
      "payable": false,
      "stateMutability": "view",
      "type": "function"
    },
    {
      "constant": true,
      "inputs": [],
      "name": "m_schedulerRewardRatioPolicy",
      "outputs": [
        {
          "name": "",
          "type": "uint256"
        }
      ],
      "payable": false,
      "stateMutability": "view",
      "type": "function"
    },
    {
      "constant": true,
      "inputs": [],
      "name": "m_description",
      "outputs": [
        {
          "name": "",
          "type": "string"
        }
      ],
      "payable": false,
      "stateMutability": "view",
      "type": "function"
    },
    {
      "constant": true,
      "inputs": [],
      "name": "m_workerPoolHubAddress",
      "outputs": [
        {
          "name": "",
          "type": "address"
        }
      ],
      "payable": false,
      "stateMutability": "view",
      "type": "function"
    },
    {
      "constant": false,
      "inputs": [
        {
          "name": "_newOwner",
          "type": "address"
        }
      ],
      "name": "setImmutableOwnership",
      "outputs": [],
      "payable": false,
      "stateMutability": "nonpayable",
      "type": "function"
    },
    {
      "constant": true,
      "inputs": [],
      "name": "m_stakeRatioPolicy",
      "outputs": [
        {
          "name": "",
          "type": "uint256"
        }
      ],
      "payable": false,
      "stateMutability": "view",
      "type": "function"
    },
    {
      "constant": true,
      "inputs": [],
      "name": "m_subscriptionMinimumScorePolicy",
      "outputs": [
        {
          "name": "",
          "type": "uint256"
        }
      ],
      "payable": false,
      "stateMutability": "view",
      "type": "function"
    },
    {
      "constant": true,
      "inputs": [],
      "name": "m_owner",
      "outputs": [
        {
          "name": "",
          "type": "address"
        }
      ],
      "payable": false,
      "stateMutability": "view",
      "type": "function"
    },
    {
      "constant": true,
      "inputs": [],
      "name": "m_changeable",
      "outputs": [
        {
          "name": "",
          "type": "bool"
        }
      ],
      "payable": false,
      "stateMutability": "view",
      "type": "function"
    },
    {
      "constant": true,
      "inputs": [],
      "name": "m_subscriptionLockStakePolicy",
      "outputs": [
        {
          "name": "",
          "type": "uint256"
        }
      ],
      "payable": false,
      "stateMutability": "view",
      "type": "function"
    },
    {
      "constant": true,
      "inputs": [],
      "name": "REVEAL_PERIOD_DURATION_RATIO",
      "outputs": [
        {
          "name": "",
          "type": "uint256"
        }
      ],
      "payable": false,
      "stateMutability": "view",
      "type": "function"
    },
    {
      "inputs": [
        {
          "name": "_iexecHubAddress",
          "type": "address"
        },
        {
          "name": "_description",
          "type": "string"
        },
        {
          "name": "_subscriptionLockStakePolicy",
          "type": "uint256"
        },
        {
          "name": "_subscriptionMinimumStakePolicy",
          "type": "uint256"
        },
        {
          "name": "_subscriptionMinimumScorePolicy",
          "type": "uint256"
        },
        {
          "name": "_marketplaceAddress",
          "type": "address"
        }
      ],
      "payable": false,
      "stateMutability": "nonpayable",
      "type": "constructor"
    },
    {
      "anonymous": false,
      "inputs": [
        {
          "indexed": false,
          "name": "oldStakeRatioPolicy",
          "type": "uint256"
        },
        {
          "indexed": false,
          "name": "newStakeRatioPolicy",
          "type": "uint256"
        },
        {
          "indexed": false,
          "name": "oldSchedulerRewardRatioPolicy",
          "type": "uint256"
        },
        {
          "indexed": false,
          "name": "newSchedulerRewardRatioPolicy",
          "type": "uint256"
        },
        {
          "indexed": false,
          "name": "oldSubscriptionMinimumStakePolicy",
          "type": "uint256"
        },
        {
          "indexed": false,
          "name": "newSubscriptionMinimumStakePolicy",
          "type": "uint256"
        },
        {
          "indexed": false,
          "name": "oldSubscriptionMinimumScorePolicy",
          "type": "uint256"
        },
        {
          "indexed": false,
          "name": "newSubscriptionMinimumScorePolicy",
          "type": "uint256"
        }
      ],
      "name": "WorkerPoolPolicyUpdate",
      "type": "event"
    },
    {
      "anonymous": false,
      "inputs": [
        {
          "indexed": true,
          "name": "woid",
          "type": "address"
        }
      ],
      "name": "WorkOrderActive",
      "type": "event"
    },
    {
      "anonymous": false,
      "inputs": [
        {
          "indexed": true,
          "name": "woid",
          "type": "address"
        }
      ],
      "name": "WorkOrderClaimed",
      "type": "event"
    },
    {
      "anonymous": false,
      "inputs": [
        {
          "indexed": true,
          "name": "woid",
          "type": "address"
        },
        {
          "indexed": true,
          "name": "worker",
          "type": "address"
        },
        {
          "indexed": false,
          "name": "workerScore",
          "type": "uint256"
        }
      ],
      "name": "AllowWorkerToContribute",
      "type": "event"
    },
    {
      "anonymous": false,
      "inputs": [
        {
          "indexed": true,
          "name": "woid",
          "type": "address"
        },
        {
          "indexed": true,
          "name": "worker",
          "type": "address"
        },
        {
          "indexed": false,
          "name": "resultHash",
          "type": "bytes32"
        }
      ],
      "name": "Contribute",
      "type": "event"
    },
    {
      "anonymous": false,
      "inputs": [
        {
          "indexed": true,
          "name": "woid",
          "type": "address"
        },
        {
          "indexed": false,
          "name": "consensus",
          "type": "bytes32"
        }
      ],
      "name": "RevealConsensus",
      "type": "event"
    },
    {
      "anonymous": false,
      "inputs": [
        {
          "indexed": true,
          "name": "woid",
          "type": "address"
        },
        {
          "indexed": true,
          "name": "worker",
          "type": "address"
        },
        {
          "indexed": false,
          "name": "result",
          "type": "bytes32"
        }
      ],
      "name": "Reveal",
      "type": "event"
    },
    {
      "anonymous": false,
      "inputs": [
        {
          "indexed": true,
          "name": "woid",
          "type": "address"
        }
      ],
      "name": "Reopen",
      "type": "event"
    },
    {
      "anonymous": false,
      "inputs": [
        {
          "indexed": true,
          "name": "woid",
          "type": "address"
        },
        {
          "indexed": false,
          "name": "stdout",
          "type": "string"
        },
        {
          "indexed": false,
          "name": "stderr",
          "type": "string"
        },
        {
          "indexed": false,
          "name": "uri",
          "type": "string"
        }
      ],
      "name": "FinalizeWork",
      "type": "event"
    },
    {
      "anonymous": false,
      "inputs": [
        {
          "indexed": true,
          "name": "worker",
          "type": "address"
        }
      ],
      "name": "WorkerSubscribe",
      "type": "event"
    },
    {
      "anonymous": false,
      "inputs": [
        {
          "indexed": true,
          "name": "worker",
          "type": "address"
        }
      ],
      "name": "WorkerUnsubscribe",
      "type": "event"
    },
    {
      "anonymous": false,
      "inputs": [
        {
          "indexed": true,
          "name": "worker",
          "type": "address"
        }
      ],
      "name": "WorkerEviction",
      "type": "event"
    },
    {
      "anonymous": false,
      "inputs": [
        {
          "indexed": true,
          "name": "previousOwner",
          "type": "address"
        },
        {
          "indexed": true,
          "name": "newOwner",
          "type": "address"
        }
      ],
      "name": "OwnershipTransferred",
      "type": "event"
    },
    {
      "constant": false,
      "inputs": [
        {
          "name": "_newStakeRatioPolicy",
          "type": "uint256"
        },
        {
          "name": "_newSchedulerRewardRatioPolicy",
          "type": "uint256"
        },
        {
          "name": "_newSubscriptionMinimumStakePolicy",
          "type": "uint256"
        },
        {
          "name": "_newSubscriptionMinimumScorePolicy",
          "type": "uint256"
        }
      ],
      "name": "changeWorkerPoolPolicy",
      "outputs": [],
      "payable": false,
      "stateMutability": "nonpayable",
      "type": "function"
    },
    {
      "constant": true,
      "inputs": [
        {
          "name": "_index",
          "type": "uint256"
        }
      ],
      "name": "getWorkerAddress",
      "outputs": [
        {
          "name": "",
          "type": "address"
        }
      ],
      "payable": false,
      "stateMutability": "view",
      "type": "function"
    },
    {
      "constant": true,
      "inputs": [
        {
          "name": "_worker",
          "type": "address"
        }
      ],
      "name": "getWorkerIndex",
      "outputs": [
        {
          "name": "",
          "type": "uint256"
        }
      ],
      "payable": false,
      "stateMutability": "view",
      "type": "function"
    },
    {
      "constant": true,
      "inputs": [],
      "name": "getWorkersCount",
      "outputs": [
        {
          "name": "",
          "type": "uint256"
        }
      ],
      "payable": false,
      "stateMutability": "view",
      "type": "function"
    },
    {
      "constant": false,
      "inputs": [],
      "name": "subscribeToPool",
      "outputs": [
        {
          "name": "",
          "type": "bool"
        }
      ],
      "payable": false,
      "stateMutability": "nonpayable",
      "type": "function"
    },
    {
      "constant": false,
      "inputs": [],
      "name": "unsubscribeFromPool",
      "outputs": [
        {
          "name": "",
          "type": "bool"
        }
      ],
      "payable": false,
      "stateMutability": "nonpayable",
      "type": "function"
    },
    {
      "constant": false,
      "inputs": [
        {
          "name": "_worker",
          "type": "address"
        }
      ],
      "name": "evictWorker",
      "outputs": [
        {
          "name": "",
          "type": "bool"
        }
      ],
      "payable": false,
      "stateMutability": "nonpayable",
      "type": "function"
    },
    {
      "constant": true,
      "inputs": [
        {
          "name": "_woid",
          "type": "address"
        }
      ],
      "name": "getConsensusDetails",
      "outputs": [
        {
          "name": "c_poolReward",
          "type": "uint256"
        },
        {
          "name": "c_stakeAmount",
          "type": "uint256"
        },
        {
          "name": "c_consensus",
          "type": "bytes32"
        },
        {
          "name": "c_revealDate",
          "type": "uint256"
        },
        {
          "name": "c_revealCounter",
          "type": "uint256"
        },
        {
          "name": "c_consensusTimeout",
          "type": "uint256"
        },
        {
          "name": "c_winnerCount",
          "type": "uint256"
        },
        {
          "name": "c_workerpoolOwner",
          "type": "address"
        }
      ],
      "payable": false,
      "stateMutability": "view",
      "type": "function"
    },
    {
      "constant": true,
      "inputs": [
        {
          "name": "_woid",
          "type": "address"
        }
      ],
      "name": "getContributorsCount",
      "outputs": [
        {
          "name": "contributorsCount",
          "type": "uint256"
        }
      ],
      "payable": false,
      "stateMutability": "view",
      "type": "function"
    },
    {
      "constant": true,
      "inputs": [
        {
          "name": "_woid",
          "type": "address"
        },
        {
          "name": "index",
          "type": "uint256"
        }
      ],
      "name": "getContributor",
      "outputs": [
        {
          "name": "contributor",
          "type": "address"
        }
      ],
      "payable": false,
      "stateMutability": "view",
      "type": "function"
    },
    {
      "constant": true,
      "inputs": [
        {
          "name": "_woid",
          "type": "address"
        },
        {
          "name": "_worker",
          "type": "address"
        }
      ],
      "name": "existingContribution",
      "outputs": [
        {
          "name": "contributionExist",
          "type": "bool"
        }
      ],
      "payable": false,
      "stateMutability": "view",
      "type": "function"
    },
    {
      "constant": true,
      "inputs": [
        {
          "name": "_woid",
          "type": "address"
        },
        {
          "name": "_worker",
          "type": "address"
        }
      ],
      "name": "getContribution",
      "outputs": [
        {
          "name": "status",
          "type": "uint8"
        },
        {
          "name": "resultHash",
          "type": "bytes32"
        },
        {
          "name": "resultSign",
          "type": "bytes32"
        },
        {
          "name": "enclaveChallenge",
          "type": "address"
        },
        {
          "name": "score",
          "type": "uint256"
        },
        {
          "name": "weight",
          "type": "uint256"
        }
      ],
      "payable": false,
      "stateMutability": "view",
      "type": "function"
    },
    {
      "constant": false,
      "inputs": [
        {
          "name": "_woid",
          "type": "address"
        },
        {
          "name": "_marketorderIdx",
          "type": "uint256"
        }
      ],
      "name": "emitWorkOrder",
      "outputs": [
        {
          "name": "",
          "type": "bool"
        }
      ],
      "payable": false,
      "stateMutability": "nonpayable",
      "type": "function"
    },
    {
      "constant": false,
      "inputs": [
        {
          "name": "_woid",
          "type": "address"
        }
      ],
      "name": "claimFailedConsensus",
      "outputs": [
        {
          "name": "",
          "type": "bool"
        }
      ],
      "payable": false,
      "stateMutability": "nonpayable",
      "type": "function"
    },
    {
      "constant": false,
      "inputs": [
        {
          "name": "_woid",
          "type": "address"
        },
        {
          "name": "_workers",
          "type": "address[]"
        },
        {
          "name": "_enclaveChallenge",
          "type": "address"
        }
      ],
      "name": "allowWorkersToContribute",
      "outputs": [
        {
          "name": "",
          "type": "bool"
        }
      ],
      "payable": false,
      "stateMutability": "nonpayable",
      "type": "function"
    },
    {
      "constant": false,
      "inputs": [
        {
          "name": "_woid",
          "type": "address"
        },
        {
          "name": "_worker",
          "type": "address"
        },
        {
          "name": "_enclaveChallenge",
          "type": "address"
        }
      ],
      "name": "allowWorkerToContribute",
      "outputs": [
        {
          "name": "",
          "type": "bool"
        }
      ],
      "payable": false,
      "stateMutability": "nonpayable",
      "type": "function"
    },
    {
      "constant": false,
      "inputs": [
        {
          "name": "_woid",
          "type": "address"
        },
        {
          "name": "_resultHash",
          "type": "bytes32"
        },
        {
          "name": "_resultSign",
          "type": "bytes32"
        },
        {
          "name": "_v",
          "type": "uint8"
        },
        {
          "name": "_r",
          "type": "bytes32"
        },
        {
          "name": "_s",
          "type": "bytes32"
        }
      ],
      "name": "contribute",
      "outputs": [
        {
          "name": "workerStake",
          "type": "uint256"
        }
      ],
      "payable": false,
      "stateMutability": "nonpayable",
      "type": "function"
    },
    {
      "constant": false,
      "inputs": [
        {
          "name": "_woid",
          "type": "address"
        },
        {
          "name": "_consensus",
          "type": "bytes32"
        }
      ],
      "name": "revealConsensus",
      "outputs": [
        {
          "name": "",
          "type": "bool"
        }
      ],
      "payable": false,
      "stateMutability": "nonpayable",
      "type": "function"
    },
    {
      "constant": false,
      "inputs": [
        {
          "name": "_woid",
          "type": "address"
        },
        {
          "name": "_result",
          "type": "bytes32"
        }
      ],
      "name": "reveal",
      "outputs": [
        {
          "name": "",
          "type": "bool"
        }
      ],
      "payable": false,
      "stateMutability": "nonpayable",
      "type": "function"
    },
    {
      "constant": false,
      "inputs": [
        {
          "name": "_woid",
          "type": "address"
        }
      ],
      "name": "reopen",
      "outputs": [
        {
          "name": "",
          "type": "bool"
        }
      ],
      "payable": false,
      "stateMutability": "nonpayable",
      "type": "function"
    },
    {
      "constant": false,
      "inputs": [
        {
          "name": "_woid",
          "type": "address"
        },
        {
          "name": "_stdout",
          "type": "string"
        },
        {
          "name": "_stderr",
          "type": "string"
        },
        {
          "name": "_uri",
          "type": "string"
        }
      ],
      "name": "finalizeWork",
      "outputs": [
        {
          "name": "",
          "type": "bool"
        }
      ],
      "payable": false,
      "stateMutability": "nonpayable",
      "type": "function"
    }
  ],
  "bytecode": "0x606060405234156200001057600080fd5b604051620033a1380380620033a183398101604052808051919060200180518201919060200180519190602001805191906020018051919060200180516000805460a060020a60ff0219600160a060020a03338116600160a060020a031990931692909217167401000000000000000000000000000000000000000017909155909250829150879081161515620000a657600080fd5b60018054600160a060020a031916600160a060020a0392831617905581161515620000d057600080fd5b60028054600160a060020a03928316600160a060020a031991821681179092556003805490911690911790553281163390911614156200010f57600080fd5b6200012832640100000000620020476200017882021704565b60048580516200013d9291602001906200023c565b5050601e60055560016006556007929092556008556009555050600e8054600160a060020a03191633600160a060020a0316179055620002e1565b60005433600160a060020a039081169116146200019457600080fd5b60005474010000000000000000000000000000000000000000900460ff161515620001be57600080fd5b600160a060020a0381161515620001d457600080fd5b600054600160a060020a0380831691167f8be0079c531659141344cd1fd0a4f28419497f9722a3daafe3b4186f6b6457e060405160405180910390a360008054600160a060020a031916600160a060020a03929092169190911760a060020a60ff0219169055565b828054600181600116156101000203166002900490600052602060002090601f016020900481019282601f106200027f57805160ff1916838001178555620002af565b82800160010185558215620002af579182015b82811115620002af57825182559160200191906001019062000292565b50620002bd929150620002c1565b5090565b620002de91905b80821115620002bd5760008155600101620002c8565b90565b6130b080620002f16000396000f3006060604052600436106101b35763ffffffff60e060020a600035041663031ee1c881146101b857806306021e7e146101fb5780630c6e29e3146102f2578063126eac431461030557806316ebf77d146103795780631f1e74061461039b5780632b8fd18a146104105780633ec6a4c41461044257806340f036051461046157806341cb01ad1461048657806345b99d28146104a55780635a628525146104b85780636ab6936a146104da5780637919233f146104ed5780637bd220bb1461050f5780637c60988514610534578063835436b41461059c57806387639c68146105bb57806389869163146105ce5780638d7db2f7146105ed578063900b7b6214610677578063b32ca9c51461068d578063bb7fb08b146106a0578063bbac78a9146106c2578063c6c5b072146106e3578063c6ced32b146106f6578063cc6f06a314610709578063dc988b401461071c578063deff41c114610747578063e21b9d081461075a578063e2d36ef51461076d578063e653ec6a14610780578063ec1847b614610793578063ef9cb474146107b2578063f20e56ec146107d1578063f4efa24c146107e4578063ff266d2614610852575b600080fd5b34156101c357600080fd5b6101e9600160a060020a036004351660243560443560ff6064351660843560a435610871565b60405190815260200160405180910390f35b341561020657600080fd5b6102de60048035600160a060020a03169060446024803590810190830135806020601f8201819004810201604051908101604052818152929190602084018383808284378201915050505050509190803590602001908201803590602001908080601f01602080910402602001604051908101604052818152929190602084018383808284378201915050505050509190803590602001908201803590602001908080601f016020809104026020016040519081016040528181529291906020840183838082843750949650610c4a95505050505050565b604051901515815260200160405180910390f35b34156102fd57600080fd5b6102de611168565b341561031057600080fd5b61032a600160a060020a0360043581169060243516611275565b6040518087600481111561033a57fe5b60ff168152602081019690965250604080860194909452600160a060020a039092166060850152608084015260a083015260c090910191505180910390f35b341561038457600080fd5b6102de600160a060020a03600435166024356112f1565b34156103a657600080fd5b6103ba600160a060020a036004351661166d565b60405198895260208901979097526040808901969096526060880194909452608087019290925260a086015260c0850152600160a060020a031660e0840152610100830191909152610120909101905180910390f35b341561041b57600080fd5b6104266004356116c1565b604051600160a060020a03909116815260200160405180910390f35b341561044d57600080fd5b6101e9600160a060020a03600435166116e9565b341561046c57600080fd5b6102de600160a060020a0360043581169060243516611707565b341561049157600080fd5b6101e9600160a060020a0360043516611747565b34156104b057600080fd5b6101e9611759565b34156104c357600080fd5b6102de600160a060020a036004351660243561175e565b34156104e557600080fd5b6101e96119b3565b34156104f857600080fd5b6102de600160a060020a03600435166024356119b9565b341561051a57600080fd5b61032a600160a060020a0360043581169060243516611bf1565b341561053f57600080fd5b6102de60048035600160a060020a031690604460248035908101908301358060208082020160405190810160405280939291908181526020018383602002808284375094965050509235600160a060020a03169250611c3f915050565b34156105a757600080fd5b6102de600160a060020a0360043516611ca8565b34156105c657600080fd5b6101e9611d88565b34156105d957600080fd5b6102de600160a060020a0360043516611d8e565b34156105f857600080fd5b610600611f2b565b60405160208082528190810183818151815260200191508051906020019080838360005b8381101561063c578082015183820152602001610624565b50505050905090810190601f1680156106695780820380516001836020036101000a031916815260200191505b509250505060405180910390f35b341561068257600080fd5b610426600435611fc9565b341561069857600080fd5b610426611ff5565b34156106ab57600080fd5b610426600160a060020a0360043516602435612004565b34156106cd57600080fd5b6106e1600160a060020a0360043516612047565b005b34156106ee57600080fd5b6101e9612116565b341561070157600080fd5b6101e961211c565b341561071457600080fd5b6101e9612123565b341561072757600080fd5b6102de600160a060020a0360043581169060243581169060443516612129565b341561075257600080fd5b61042661238e565b341561076557600080fd5b6102de61239d565b341561077857600080fd5b6101e96123be565b341561078b57600080fd5b6102de6123c4565b341561079e57600080fd5b6101e9600160a060020a0360043516612489565b34156107bd57600080fd5b6106e16004356024356044356064356124d9565b34156107dc57600080fd5b6101e961258d565b34156107ef57600080fd5b610803600160a060020a0360043516612592565b60405197885260208801969096526040808801959095526060870193909352608086019190915260a085015260c0840152600160a060020a0390911660e0830152610100909101905180910390f35b341561085d57600080fd5b6102de600160a060020a03600435166125e4565b60015460009081908190600160a060020a03166332ca55878a60405160e060020a63ffffffff8416028152600160a060020a039091166004820152602401602060405180830381600087803b15156108c857600080fd5b5af115156108d557600080fd5b5050506040518051905015156108ea57600080fd5b600160a060020a0389166000908152600c60205260409020600581015490925042111561091657600080fd5b600189600160a060020a031663e329c4786040518163ffffffff1660e060020a028152600401602060405180830381600087803b151561095557600080fd5b5af1151561096257600080fd5b50505060405180519050600481111561097757fe5b1461098157600080fd5b50600160a060020a038089166000908152600d60209081526040808320339094168352929052208715156109b457600080fd5b8615156109c057600080fd5b6003810154600160a060020a031615610a8f57600188886040517f19457468657265756d205369676e6564204d6573736167653a0a3634000000008152601c810192909252603c820152605c0160405180910390208787876040516000815260200160405260405193845260ff9092166020808501919091526040808501929092526060840192909252608090920191516020810390808403906000865af11515610a6a57600080fd5b5050602060405103516003820154600160a060020a03908116911614610a8f57600080fd5b6001815460ff166004811115610aa157fe5b14610aab57600080fd5b805460ff19166002908117825560018083018a905590820188905554600160a060020a0316638c0f8e113360405160e060020a63ffffffff8416028152600160a060020a039091166004820152602401602060405180830381600087803b1515610b1457600080fd5b5af11515610b2157600080fd5b505050604051805160048301555060078201805460018101610b43838261302f565b5060009182526020909120018054600160a060020a03191633600160a060020a03818116929092179092556001805490850154911691638981d077918c919060405160e060020a63ffffffff8616028152600160a060020a0393841660048201529190921660248201526044810191909152606401602060405180830381600087803b1515610bd157600080fd5b5af11515610bde57600080fd5b505050604051805190501515610bf357600080fd5b33600160a060020a031689600160a060020a03167f1593a9a000265660fd299c9f8c9bbacfeb4d428861542e6c44b68615324225d48a60405190815260200160405180910390a35060010154979650505050505050565b60008054819033600160a060020a03908116911614610c6857600080fd5b600154600160a060020a03166332ca55878760405160e060020a63ffffffff8416028152600160a060020a039091166004820152602401602060405180830381600087803b1515610cb857600080fd5b5af11515610cc557600080fd5b505050604051805190501515610cda57600080fd5b50600160a060020a0385166000908152600c602052604090206005810154421115610d0457600080fd5b42816003015411158015610d1c575060008160040154115b80610d2e575080600601548160040154145b1515610d3957600080fd5b610e1e8682610140604051908101604052908160008201548152602001600182015481526020016002820154600019166000191681526020016003820154815260200160048201548152602001600582015481526020016006820154815260200160078201805480602002602001604051908101604052809291908181526020018280548015610df257602002820191906000526020600020905b8154600160a060020a03168152600190910190602001808311610dd4575b50505091835250506008820154600160a060020a03166020820152600990910154604090910152612818565b1515610e2957600080fd5b600154600160a060020a031663b6b57ebd878787876040518563ffffffff1660e060020a0281526004018085600160a060020a0316600160a060020a03168152602001806020018060200180602001848103845287818151815260200191508051906020019080838360005b83811015610ead578082015183820152602001610e95565b50505050905090810190601f168015610eda5780820380516001836020036101000a031916815260200191505b50848103835286818151815260200191508051906020019080838360005b83811015610f10578082015183820152602001610ef8565b50505050905090810190601f168015610f3d5780820380516001836020036101000a031916815260200191505b50848103825285818151815260200191508051906020019080838360005b83811015610f73578082015183820152602001610f5b565b50505050905090810190601f168015610fa05780820380516001836020036101000a031916815260200191505b50975050505050505050602060405180830381600087803b1515610fc357600080fd5b5af11515610fd057600080fd5b505050604051805190501515610fe557600080fd5b85600160a060020a03167f4bfecaabd22e1b95e9aa9eb161b19f645b3460e7533d5e0f6349faf8dc0a724486868660405180806020018060200180602001848103845287818151815260200191508051906020019080838360005b83811015611058578082015183820152602001611040565b50505050905090810190601f1680156110855780820380516001836020036101000a031916815260200191505b50848103835286818151815260200191508051906020019080838360005b838110156110bb5780820151838201526020016110a3565b50505050905090810190601f1680156110e85780820380516001836020036101000a031916815260200191505b50848103825285818151815260200191508051906020019080838360005b8381101561111e578082015183820152602001611106565b50505050905090810190601f16801561114b5780820380516001836020036101000a031916815260200191505b50965050505050505060405180910390a250600195945050505050565b6001546000908190600160a060020a031663b218cf153360405160e060020a63ffffffff8416028152600160a060020a039091166004820152602401602060405180830381600087803b15156111bd57600080fd5b5af115156111ca57600080fd5b5050506040518051905015156111df57600080fd5b600a8054600181016111f1838261302f565b60009283526020909220018054600160a060020a03191633600160a060020a03161790559050611222816001612c92565b600160a060020a0333166000818152600b60205260409081902092909255907f67799bb3ec4a3491a0c1c4e6d02ec99927df7ba7fa268c216672c0c5ecc1e8f8905160405180910390a2600191505b5090565b600080600080600080600061128a8989611707565b151561129557600080fd5b50505050600160a060020a039485166000908152600d602090815260408083209688168352959052939093208054600182015460028301546003840154600485015460059095015460ff90941699929891975016945091925090565b6000805481908190819033600160a060020a0390811691161461131357600080fd5b600154600160a060020a03166332ca55878760405160e060020a63ffffffff8416028152600160a060020a039091166004820152602401602060405180830381600087803b151561136357600080fd5b5af1151561137057600080fd5b50505060405180519050151561138557600080fd5b600160a060020a0386166000908152600c6020526040902060058101549093504211156113b157600080fd5b85600160a060020a0316632d4d671f6040518163ffffffff1660e060020a028152600401602060405180830381600087803b15156113ee57600080fd5b5af115156113fb57600080fd5b50505060405180519050151561141057600080fd5b60006006840181905591505b60078301548210156114dc576007830180548390811061143857fe5b6000918252602080832090910154600160a060020a038981168452600d8352604080852091909216808552925290912060010154909150851480156114b057506002600160a060020a038088166000908152600d602090815260408083209386168352929052205460ff1660048111156114ae57fe5b145b156114d15760068301546114cb90600163ffffffff612ca416565b60068401555b81600101915061141c565b6006830154600090116114ee57600080fd5b600280840186905560015460035461161f92429261161392600160a060020a0391821691631f87172691811690634cfddcfb908e1663ecc40f646040518163ffffffff1660e060020a028152600401602060405180830381600087803b151561155657600080fd5b5af1151561156357600080fd5b5050506040518051905060405160e060020a63ffffffff84160281526004810191909152602401602060405180830381600087803b15156115a357600080fd5b5af115156115b057600080fd5b5050506040518051905060405160e060020a63ffffffff84160281526004810191909152602401602060405180830381600087803b15156115f057600080fd5b5af115156115fd57600080fd5b505050604051805191905063ffffffff612cbe16565b9063ffffffff612ca416565b6003840155600160a060020a0386167fa1b9f527f9799a46d54103401c99dc62f3744afe1d095a1c53620758dc38b2868660405190815260200160405180910390a250600195945050505050565b600c602052600090815260409020805460018201546002830154600384015460048501546005860154600687015460088801546009909801549697959694959394929391929091600160a060020a03169089565b600a8054829081106116cf57fe5b600091825260209091200154600160a060020a0316905081565b600160a060020a03166000908152600c602052604090206007015490565b600080600160a060020a038085166000908152600d602090815260408083209387168352929052205460ff16600481111561173e57fe5b14159392505050565b600b6020526000908152604090205481565b600a81565b60015460009081908190600160a060020a03166332ca55878660405160e060020a63ffffffff8416028152600160a060020a039091166004820152602401602060405180830381600087803b15156117b557600080fd5b5af115156117c257600080fd5b5050506040518051905015156117d757600080fd5b600160a060020a0385166000908152600c60205260409020600581015490925042111561180357600080fd5b50600160a060020a038085166000908152600d6020908152604080832033909416835292905220600285600160a060020a031663e329c4786040518163ffffffff1660e060020a028152600401602060405180830381600087803b151561186957600080fd5b5af1151561187657600080fd5b50505060405180519050600481111561188b57fe5b1461189557600080fd5b60038201544290116118a657600080fd5b6002815460ff1660048111156118b857fe5b146118c257600080fd5b60028201546001820154146118d657600080fd5b836040519081526020016040519081900390206001820154146118f857600080fd5b33604051600160a060020a03919091166c010000000000000000000000000281526014016040518091039020841860405190815260200160405190819003902060028201541461194757600080fd5b805460ff191660031781556004820154611962906001612ca4565b6004830155600160a060020a033381169086167f4f5df7005a83b6f11e90ead1268eb534656169a5034e8d239c763471294be3d58660405190815260200160405180910390a3506001949350505050565b60085481565b60015460009081908190819033600160a060020a039081169116146119dd57600080fd5b600354600160a060020a0316634cfddcfb8660405160e060020a63ffffffff84160281526004810191909152602401602060405180830381600087803b1515611a2557600080fd5b5af11515611a3257600080fd5b5050506040518051600154909450611a939150429061161390600a90600160a060020a0316631f8717268860405160e060020a63ffffffff84160281526004810191909152602401602060405180830381600087803b15156115f057600080fd5b600160a060020a038088166000908152600c60205260409081902060035493955093509116906338c4090b9087905160e060020a63ffffffff84160281526004810191909152602401602060405180830381600087803b1515611af557600080fd5b5af11515611b0257600080fd5b5050506040518051825550600354600160a060020a03166355d66c3e8660405160e060020a63ffffffff84160281526004810191909152602401602060405180830381600087803b1515611b5557600080fd5b5af11515611b6257600080fd5b5050506040518051600883018054600160a060020a031916600160a060020a0392909216919091179055506005548154611b9b91612ce9565b6001820155600581018290556006546009820155600160a060020a0386167f9c081174ce28e85a62530b1102b0df58428b8da5027e81fbb4984aa1dc03310760405160405180910390a250600195945050505050565b600d60209081526000928352604080842090915290825290208054600182015460028301546003840154600485015460059095015460ff9094169492939192600160a060020a039091169186565b60008054819033600160a060020a03908116911614611c5d57600080fd5b5060005b8351811015611c9d57611c8a85858381518110611c7a57fe5b9060200190602002015185612129565b1515611c9557600080fd5b600101611c61565b506001949350505050565b6000805433600160a060020a03908116911614611cc457600080fd5b600154600160a060020a031663835436b48360405160e060020a63ffffffff8416028152600160a060020a039091166004820152602401602060405180830381600087803b1515611d1457600080fd5b5af11515611d2157600080fd5b505050604051805190501515611d3657600080fd5b611d3f82612cfe565b1515611d4a57600080fd5b81600160a060020a03167fb22288215ec8cbd28148d7ffa053c6e6e23c62b58d0eb71a6387b59fad33a01960405160405180910390a2506001919050565b60065481565b60015460009081908190819033600160a060020a03908116911614611db257600080fd5b600160a060020a0385166000908152600c6020526040902060058101549093504211611ddd57600080fd5b600091505b6007830154821015611eea5760078301805483908110611dfe57fe5b600091825260209091200154600160a060020a031690506001600160a060020a038087166000908152600d602090815260408083209386168352929052205460ff166004811115611e4b57fe5b14611edf576001805490840154600160a060020a0390911690636b4f6865908790849060405160e060020a63ffffffff8616028152600160a060020a0393841660048201529190921660248201526044810191909152606401602060405180830381600087803b1515611ebd57600080fd5b5af11515611eca57600080fd5b505050604051805190501515611edf57600080fd5b816001019150611de2565b84600160a060020a03167f8d8d47a5d5034ce9c01a2308543fdaa83d60863e4b735b7d57361987cdc8ed9460405160405180910390a2506001949350505050565b60048054600181600116156101000203166002900480601f016020809104026020016040519081016040528092919081815260200182805460018160011615610100020316600290048015611fc15780601f10611f9657610100808354040283529160200191611fc1565b820191906000526020600020905b815481529060010190602001808311611fa457829003601f168201915b505050505081565b6000600a82815481101515611fda57fe5b600091825260209091200154600160a060020a031692915050565b600e54600160a060020a031681565b600160a060020a0382166000908152600c6020526040812060070180548390811061202b57fe5b600091825260209091200154600160a060020a03169392505050565b60005433600160a060020a0390811691161461206257600080fd5b60005474010000000000000000000000000000000000000000900460ff16151561208b57600080fd5b600160a060020a03811615156120a057600080fd5b600054600160a060020a0380831691167f8be0079c531659141344cd1fd0a4f28419497f9722a3daafe3b4186f6b6457e060405160405180910390a360008054600160a060020a031916600160a060020a03929092169190911774ff000000000000000000000000000000000000000019169055565b60055481565b600a545b90565b60095481565b60008054819081908190819033600160a060020a0390811691161461214d57600080fd5b600154600160a060020a03166332ca55878960405160e060020a63ffffffff8416028152600160a060020a039091166004820152602401602060405180830381600087803b151561219d57600080fd5b5af115156121aa57600080fd5b5050506040518051905015156121bf57600080fd5b600188600160a060020a031663e329c4786040518163ffffffff1660e060020a028152600401602060405180830381600087803b15156121fe57600080fd5b5af1151561220b57600080fd5b50505060405180519050600481111561222057fe5b1461222a57600080fd5b600160a060020a038089166000818152600d60209081526040808320948c168352938152838220928252600c9052919091206005810154919550935042111561227257600080fd5b600154600160a060020a031663f69f190c8860405160e060020a63ffffffff8416028152600160a060020a0390911660048201526024016040805180830381600087803b15156122c157600080fd5b5af115156122ce57600080fd5b50505060405180519060200180519193509091505030600160a060020a03908116908316146122fc57600080fd5b6000845460ff16600481111561230e57fe5b1461231857600080fd5b835460ff19166001178455600384018054600160a060020a03888116600160a060020a0319909216919091179091558781169089167f9cade22a92ceb705fefd1c03e9ac4dbbf787cd493ec63a9f2b078cbc859c06298360405190815260200160405180910390a3506001979650505050505050565b600054600160a060020a031681565b60005474010000000000000000000000000000000000000000900460ff1681565b60075481565b600154600090600160a060020a0316631708d7253360405160e060020a63ffffffff8416028152600160a060020a039091166004820152602401602060405180830381600087803b151561241757600080fd5b5af1151561242457600080fd5b50505060405180519050151561243957600080fd5b61244233612cfe565b151561244d57600080fd5b33600160a060020a03167fd08d61a9c25ada3385d23554bae10e5d15c9518d4bfd27571c190558f7030f6e60405160405180910390a250600190565b600160a060020a0381166000818152600b6020526040812054600a805492939192839081106124b457fe5b600091825260209091200154600160a060020a0316146124d357600080fd5b92915050565b60005433600160a060020a039081169116146124f457600080fd5b7f52bb55d3097463659f724f9b420d259719787a8563b48eb82368680999bfea0760055485600654866008548760095488604051808981526020018881526020018781526020018681526020018581526020018481526020018381526020018281526020019850505050505050505060405180910390a1606483111561257957600080fd5b600593909355600691909155600855600955565b600281565b600160a060020a039081166000908152600c6020526040902080546001820154600283015460038401546004850154600586015460068701546008909701549598949793969295919490939190911690565b6000805481908190819033600160a060020a0390811691161461260657600080fd5b600154600160a060020a03166332ca55878660405160e060020a63ffffffff8416028152600160a060020a039091166004820152602401602060405180830381600087803b151561265657600080fd5b5af1151561266357600080fd5b50505060405180519050151561267857600080fd5b600160a060020a0385166000908152600c6020526040902060058101549093504211156126a457600080fd5b428360030154111580156126ba57506004830154155b15156126c557600080fd5b84600160a060020a0316631a514d976040518163ffffffff1660e060020a028152600401602060405180830381600087803b151561270257600080fd5b5af1151561270f57600080fd5b50505060405180519050151561272457600080fd5b600091505b60078301548210156127c2576007830180548390811061274557fe5b60009182526020808320909101546002860154600160a060020a038981168552600d8452604080862091909316808652935292206001015490925014156127b757600160a060020a038581166000908152600d60209081526040808320938516835292905220805460ff191660041790555b816001019150612729565b600060068401819055600284018190556003840155600160a060020a0385167f631055693b4cbe13143279bc507432c42de858b6d04b3ba4e1ff3d2c88a7e52b60405160405180910390a2506001949350505050565b60008060008060008060008061282c613058565b6000808b5193508b60e001519250600099505b82518a101561292857828a8151811061285457fe5b90602001906020020151600160a060020a03808f166000908152600d6020908152604080832093851683529290522090995091506003825460ff16600481111561289a57fe5b1415612905576003820154600160a060020a031615156128bb5760016128be565b60035b60ff1697506128e26128dd898460040154612cbe90919063ffffffff16565b612de2565b60010196506128f7868863ffffffff612ca416565b60058301889055955061291d565b61291a8c60200151859063ffffffff612ca416565b93505b89600101995061283f565b6000861161293557600080fd5b61295c61294f8d610120015160649063ffffffff612c9216565b859063ffffffff612ce916565b9050600099505b82518a1015612bee57828a8151811061297857fe5b9060200190602002015198506003600160a060020a03808f166000908152600d60209081526040808320938e168352929052205460ff1660048111156129ba57fe5b1415612b4057600160a060020a03808e166000908152600d60209081526040808320938d16835292905220600501546129fb9082908863ffffffff612ffb16565b9450612a0d848663ffffffff612c9216565b9350600160009054906101000a9004600160a060020a0316600160a060020a0316636b4f68658e8b8f6020015160405160e060020a63ffffffff8616028152600160a060020a0393841660048201529190921660248201526044810191909152606401602060405180830381600087803b1515612a8957600080fd5b5af11515612a9657600080fd5b505050604051805190501515612aab57600080fd5b60018054600160a060020a031690630c91f2d0908f908c90899060405160e060020a63ffffffff8716028152600160a060020a03948516600482015292909316602483015260448201529015156064820152608401602060405180830381600087803b1515612b1957600080fd5b5af11515612b2657600080fd5b505050604051805190501515612b3b57600080fd5b612be3565b600160009054906101000a9004600160a060020a0316600160a060020a0316639fdf96258e8b8f60200151600160405160e060020a63ffffffff8716028152600160a060020a03948516600482015292909316602483015260448201529015156064820152608401602060405180830381600087803b1515612bc157600080fd5b5af11515612bce57600080fd5b505050604051805190501515612be357600080fd5b896001019950612963565b600154600160a060020a0316630c91f2d08e6101008f015187600060405160e060020a63ffffffff8716028152600160a060020a03948516600482015292909316602483015260448201529015156064820152608401602060405180830381600087803b1515612c5d57600080fd5b5af11515612c6a57600080fd5b505050604051805190501515612c7f57600080fd5b5060019c9b505050505050505050505050565b600082821115612c9e57fe5b50900390565b600082820183811015612cb357fe5b8091505b5092915050565b600080831515612cd15760009150612cb7565b50828202828482811515612ce157fe5b0414612cb357fe5b6000612cf783836064612ffb565b9392505050565b6000806000612d0c84612489565b600a805491935090612d2590600163ffffffff612c9216565b81548110612d2f57fe5b600091825260209091200154600a8054600160a060020a039092169250829184908110612d5857fe5b60009182526020808320919091018054600160a060020a031916600160a060020a039485161790559183168152600b90915260409020829055600a8054612da0906001612c92565b81548110612daa57fe5b60009182526020909120018054600160a060020a0319169055600a54612dd790600163ffffffff612c9216565b611c9d600a8261302f565b700100000000000000000000000000000000680100000000000000006401000000006201000061010060106004600260001989019081041790810417908104179081041790810417908104179081041790810417600101906000906040517ff8f9cbfae6cc78fbefe7cdc3a1793dfcf4f0e8bbd8cec470b6a28a7a5a3e1efd81527ff5ecf1b3e9debc68e1d9cfabc5997135bfb7a7a3938b7b606b5b4b3f2f1f0ffe60208201527ff6e4ed9ff2d6b458eadcdf97bd91692de2d4da8fd2d0ac50c6ae9a827252361660408201527fc8c0b887b0a8a4489c948c7f847c6125746c645c544c444038302820181008ff60608201527ff7cae577eec2a03cf3bad76fb589591debb2dd67e0aa9834bea6925f6a4a2e0e60808201527fe39ed557db96902cd38ed14fad815115c786af479b7e8324736353433727170760a08201527fc976c13bb96e881cb166a933a55e490d9d56952b8d4e801485467d236242260660c08201527f753a6d1b65325d0c552a4d1345224105391a310b29122104190a11030902010060e082015261010081016040527e818283848586878898a8b8c8d8e8f929395969799a9b9d9e9faaeb6bedeeff7f01000000000000000000000000000000000000000000000000000000000000008082870204818160ff038501510495507f8000000000000000000000000000000000000000000000000000000000000000851161010002860195505050505050919050565b600061301061300a8585612cbe565b83613018565b949350505050565b600080828481151561302657fe5b04949350505050565b8154818355818115116130535760008381526020902061305391810190830161306a565b505050565b60206040519081016040526000815290565b61212091905b8082111561127157600081556001016130705600a165627a7a7230582065611159d17657b023295e8fc204391c05e93b9c80a240e60da82d1ef90187460029",
  "source": "pragma solidity ^0.4.21;\n\nimport './OwnableOZ.sol';\nimport './IexecHubAccessor.sol';\nimport './MarketplaceAccessor.sol';\nimport './IexecHub.sol';\nimport \"./SafeMathOZ.sol\";\nimport \"./WorkOrder.sol\";\nimport \"./Marketplace.sol\";\nimport './IexecLib.sol';\n\ncontract WorkerPool is OwnableOZ, IexecHubAccessor, MarketplaceAccessor\n{\n\tusing SafeMathOZ for uint256;\n\n\n\t/**\n\t * Members\n\t */\n\tstring                      public m_description;\n\tuint256                     public m_stakeRatioPolicy;               // % of reward to stake\n\tuint256                     public m_schedulerRewardRatioPolicy;     // % of reward given to scheduler\n\tuint256                     public m_subscriptionLockStakePolicy;    // Stake locked when in workerpool - Constant set by constructor, do not update\n\tuint256                     public m_subscriptionMinimumStakePolicy; // Minimum stake for subscribing\n\tuint256                     public m_subscriptionMinimumScorePolicy; // Minimum score for subscribing\n\taddress[]                   public m_workers;\n\tmapping(address => uint256) public m_workerIndex;\n\n\t// mapping(woid => IexecLib.Consensus)\n\tmapping(address => IexecLib.Consensus) public m_consensus;\n\t// mapping(woid => worker address => Contribution);\n\tmapping(address => mapping(address => IexecLib.Contribution)) public m_contributions;\n\n\tuint256 public constant REVEAL_PERIOD_DURATION_RATIO  = 2;\n\tuint256 public constant CONSENSUS_DURATION_RATIO      = 10;\n\n\t/**\n\t * Address of slave/related contracts\n\t */\n\taddress        public  m_workerPoolHubAddress;\n\n\n\t/**\n\t * Events\n\t */\n\tevent WorkerPoolPolicyUpdate(\n\t\tuint256 oldStakeRatioPolicy,               uint256 newStakeRatioPolicy,\n\t\tuint256 oldSchedulerRewardRatioPolicy,     uint256 newSchedulerRewardRatioPolicy,\n\t\tuint256 oldSubscriptionMinimumStakePolicy, uint256 newSubscriptionMinimumStakePolicy,\n\t\tuint256 oldSubscriptionMinimumScorePolicy, uint256 newSubscriptionMinimumScorePolicy);\n\n\tevent WorkOrderActive         (address indexed woid);\n\tevent WorkOrderClaimed        (address indexed woid);\n\n\tevent AllowWorkerToContribute (address indexed woid, address indexed worker, uint256 workerScore);\n\tevent Contribute              (address indexed woid, address indexed worker, bytes32 resultHash);\n\tevent RevealConsensus         (address indexed woid, bytes32 consensus);\n\tevent Reveal                  (address indexed woid, address indexed worker, bytes32 result);\n\tevent Reopen                  (address indexed woid);\n  event FinalizeWork            (address indexed woid, string stdout, string stderr, string uri);\n\n\n\n\tevent WorkerSubscribe         (address indexed worker);\n\tevent WorkerUnsubscribe       (address indexed worker);\n\tevent WorkerEviction          (address indexed worker);\n\n\t/**\n\t * Methods\n\t */\n\t// Constructor\n\tfunction WorkerPool(\n\t\taddress _iexecHubAddress,\n\t\tstring  _description,\n\t\tuint256 _subscriptionLockStakePolicy,\n\t\tuint256 _subscriptionMinimumStakePolicy,\n\t\tuint256 _subscriptionMinimumScorePolicy,\n\t\taddress _marketplaceAddress)\n\tIexecHubAccessor(_iexecHubAddress)\n\tMarketplaceAccessor(_marketplaceAddress)\n\tpublic\n\t{\n\t\t// tx.origin == owner\n\t\t// msg.sender ==  WorkerPoolHub\n\t\trequire(tx.origin != msg.sender);\n\t\tsetImmutableOwnership(tx.origin); // owner  tx.origin\n\n\t\tm_description                    = _description;\n\t\tm_stakeRatioPolicy               = 30; // % of the work order price to stake\n\t\tm_schedulerRewardRatioPolicy     = 1;  // % of the work reward going to scheduler vs workers reward\n\t\tm_subscriptionLockStakePolicy    = _subscriptionLockStakePolicy; // only at creation. cannot be change to respect lock/unlock of worker stake\n\t\tm_subscriptionMinimumStakePolicy = _subscriptionMinimumStakePolicy;\n\t\tm_subscriptionMinimumScorePolicy = _subscriptionMinimumScorePolicy;\n\t\tm_workerPoolHubAddress           = msg.sender;\n\n\t}\n\n\tfunction changeWorkerPoolPolicy(\n\t\tuint256 _newStakeRatioPolicy,\n\t\tuint256 _newSchedulerRewardRatioPolicy,\n\t\tuint256 _newSubscriptionMinimumStakePolicy,\n\t\tuint256 _newSubscriptionMinimumScorePolicy)\n\tpublic onlyOwner\n\t{\n\t\temit WorkerPoolPolicyUpdate(\n\t\t\tm_stakeRatioPolicy,               _newStakeRatioPolicy,\n\t\t\tm_schedulerRewardRatioPolicy,     _newSchedulerRewardRatioPolicy,\n\t\t\tm_subscriptionMinimumStakePolicy, _newSubscriptionMinimumStakePolicy,\n\t\t\tm_subscriptionMinimumScorePolicy, _newSubscriptionMinimumScorePolicy\n\t\t);\n\t\trequire(_newSchedulerRewardRatioPolicy <= 100);\n\t\tm_stakeRatioPolicy               = _newStakeRatioPolicy;\n\t\tm_schedulerRewardRatioPolicy     = _newSchedulerRewardRatioPolicy;\n\t\tm_subscriptionMinimumStakePolicy = _newSubscriptionMinimumStakePolicy;\n\t\tm_subscriptionMinimumScorePolicy = _newSubscriptionMinimumScorePolicy;\n\t}\n\n\t/************************* worker list management **************************/\n\tfunction getWorkerAddress(uint _index) public view returns (address)\n\t{\n\t\treturn m_workers[_index];\n\t}\n\tfunction getWorkerIndex(address _worker) public view returns (uint)\n\t{\n\t\tuint index = m_workerIndex[_worker];\n\t\trequire(m_workers[index] == _worker);\n\t\treturn index;\n\t}\n\tfunction getWorkersCount() public view returns (uint)\n\t{\n\t\treturn m_workers.length;\n\t}\n\n\tfunction subscribeToPool() public returns (bool)\n\t{\n\t\t// msg.sender = worker\n\t\trequire(iexecHubInterface.registerToPool(msg.sender));\n\t\tuint index = m_workers.push(msg.sender);\n\t\tm_workerIndex[msg.sender] = index.sub(1);\n\t\temit WorkerSubscribe(msg.sender);\n\t\treturn true;\n\t}\n\n\tfunction unsubscribeFromPool() public  returns (bool)\n\t{\n\t\t// msg.sender = worker\n\t\trequire(iexecHubInterface.unregisterFromPool(msg.sender));\n\t\trequire(removeWorker(msg.sender));\n\t\temit WorkerUnsubscribe(msg.sender);\n\t\treturn true;\n\t}\n\n\tfunction evictWorker(address _worker) public onlyOwner returns (bool)\n\t{\n\t\t// msg.sender = scheduler\n\t\trequire(iexecHubInterface.evictWorker(_worker));\n\t\trequire(removeWorker(_worker));\n\t\temit WorkerEviction(_worker);\n\t\treturn true;\n\t}\n\n\tfunction removeWorker(address _worker) internal returns (bool)\n\t{\n\t\tuint index = getWorkerIndex(_worker); // fails if worker not registered\n\t\taddress lastWorker = m_workers[m_workers.length.sub(1)];\n\t\tm_workers    [index     ] = lastWorker;\n\t\tm_workerIndex[lastWorker] = index;\n\t\tdelete m_workers[m_workers.length.sub(1)];\n\t\tm_workers.length = m_workers.length.sub(1);\n\t\treturn true;\n\t}\n\n\tfunction getConsensusDetails(address _woid) public view returns (\n\t\tuint256 c_poolReward,\n\t\tuint256 c_stakeAmount,\n\t\tbytes32 c_consensus,\n\t\tuint256 c_revealDate,\n\t\tuint256 c_revealCounter,\n\t\tuint256 c_consensusTimeout,\n\t\tuint256 c_winnerCount,\n\t\taddress c_workerpoolOwner)\n\t{\n\t\tIexecLib.Consensus storage consensus = m_consensus[_woid];\n\t\treturn (\n\t\t\tconsensus.poolReward,\n\t\t\tconsensus.stakeAmount,\n\t\t\tconsensus.consensus,\n\t\t\tconsensus.revealDate,\n\t\t\tconsensus.revealCounter,\n\t\t\tconsensus.consensusTimeout,\n\t\t\tconsensus.winnerCount,\n\t\t\tconsensus.workerpoolOwner\n\t\t);\n\t}\n\n\tfunction getContributorsCount(address _woid) public view returns (uint256 contributorsCount)\n\t{\n\t\treturn m_consensus[_woid].contributors.length;\n\t}\n\n\tfunction getContributor(address _woid, uint256 index) public view returns (address contributor)\n\t{\n\t\treturn m_consensus[_woid].contributors[index];\n\t}\n\n\tfunction existingContribution(address _woid, address _worker) public view  returns (bool contributionExist)\n\t{\n\t\treturn m_contributions[_woid][_worker].status != IexecLib.ContributionStatusEnum.UNSET;\n\t}\n\n\tfunction getContribution(address _woid, address _worker) public view returns\n\t(\n\t\tIexecLib.ContributionStatusEnum status,\n\t\tbytes32 resultHash,\n\t\tbytes32 resultSign,\n\t\taddress enclaveChallenge,\n\t\tuint256 score,\n\t\tuint256 weight)\n\t{\n\t\trequire(existingContribution(_woid, _worker)); // no silent value returned\n\t\tIexecLib.Contribution storage contribution = m_contributions[_woid][_worker];\n\t\treturn (\n\t\t\tcontribution.status,\n\t\t\tcontribution.resultHash,\n\t\t\tcontribution.resultSign,\n\t\t\tcontribution.enclaveChallenge,\n\t\t\tcontribution.score,\n\t\t\tcontribution.weight\n\t\t);\n\t}\n\n\n\t/**************************** Works management *****************************/\n\tfunction emitWorkOrder(address _woid, uint256 _marketorderIdx) public onlyIexecHub returns (bool)\n\t{\n\t\tuint256 catid   = marketplaceInterface.getMarketOrderCategory(_marketorderIdx);\n\t\tuint256 timeout = iexecHubInterface.getCategoryWorkClockTimeRef(catid).mul(CONSENSUS_DURATION_RATIO).add(now);\n\n\t\tIexecLib.Consensus storage consensus = m_consensus[_woid];\n\t\tconsensus.poolReward                 = marketplaceInterface.getMarketOrderValue(_marketorderIdx);\n\t\tconsensus.workerpoolOwner            = marketplaceInterface.getMarketOrderWorkerpoolOwner(_marketorderIdx);\n\t\tconsensus.stakeAmount                = consensus.poolReward.percentage(m_stakeRatioPolicy);\n\t\tconsensus.consensusTimeout            = timeout;\n\t\tconsensus.schedulerRewardRatioPolicy = m_schedulerRewardRatioPolicy;\n\n\t\temit WorkOrderActive(_woid);\n\n\t\treturn true;\n\t}\n\n\tfunction claimFailedConsensus(address _woid) public onlyIexecHub returns (bool)\n\t{\n\t  IexecLib.Consensus storage consensus = m_consensus[_woid];\n\t\trequire(now > consensus.consensusTimeout);\n\t\tuint256 i;\n\t\taddress w;\n\t\tfor (i = 0; i < consensus.contributors.length; ++i)\n\t\t{\n\t\t\tw = consensus.contributors[i];\n\t\t\tif (m_contributions[_woid][w].status != IexecLib.ContributionStatusEnum.AUTHORIZED)\n\t\t\t{\n\t\t\t\trequire(iexecHubInterface.unlockForWork(_woid, w, consensus.stakeAmount));\n\t\t\t}\n\t\t}\n\t\temit WorkOrderClaimed(_woid);\n\t\treturn true;\n\t}\n\n\tfunction allowWorkersToContribute(address _woid, address[] _workers, address _enclaveChallenge) public onlyOwner /*onlySheduler*/ returns (bool)\n\t{\n\t\tfor (uint i = 0; i < _workers.length; ++i)\n\t\t{\n\t\t\trequire(allowWorkerToContribute(_woid, _workers[i], _enclaveChallenge));\n\t\t}\n\t\treturn true;\n\t}\n\n\tfunction allowWorkerToContribute(address _woid, address _worker, address _enclaveChallenge) public onlyOwner /*onlySheduler*/ returns (bool)\n\t{\n\t\trequire(iexecHubInterface.isWoidRegistred(_woid));\n\t\trequire(WorkOrder(_woid).m_status() == IexecLib.WorkOrderStatusEnum.ACTIVE);\n\t\tIexecLib.Contribution storage contribution = m_contributions[_woid][_worker];\n\t\tIexecLib.Consensus    storage consensus    = m_consensus[_woid];\n\t\trequire(now <= consensus.consensusTimeout);\n\n\t\taddress workerPool;\n\t\tuint256 workerScore;\n\t\t(workerPool, workerScore) = iexecHubInterface.getWorkerStatus(_worker); // workerPool, workerScore\n\t\trequire(workerPool == address(this));\n\n\t\trequire(contribution.status == IexecLib.ContributionStatusEnum.UNSET);\n\t\tcontribution.status           = IexecLib.ContributionStatusEnum.AUTHORIZED;\n\t\tcontribution.enclaveChallenge = _enclaveChallenge;\n\n\t\temit AllowWorkerToContribute(_woid, _worker, workerScore);\n\t\treturn true;\n\t}\n\n\tfunction contribute(address _woid, bytes32 _resultHash, bytes32 _resultSign, uint8 _v, bytes32 _r, bytes32 _s) public returns (uint256 workerStake)\n\t{\n\t\trequire(iexecHubInterface.isWoidRegistred(_woid));\n\t\tIexecLib.Consensus    storage consensus    = m_consensus[_woid];\n\t\trequire(now <= consensus.consensusTimeout);\n\t\trequire(WorkOrder(_woid).m_status() == IexecLib.WorkOrderStatusEnum.ACTIVE); // can't contribute on a claimed or completed workorder\n\t\tIexecLib.Contribution storage contribution = m_contributions[_woid][msg.sender];\n\n\t\t// msg.sender = a worker\n\t\trequire(_resultHash != 0x0);\n\t\trequire(_resultSign != 0x0);\n\t\tif (contribution.enclaveChallenge != address(0))\n\t\t{\n\t\t\trequire(contribution.enclaveChallenge == ecrecover(keccak256(\"\\x19Ethereum Signed Message:\\n64\", _resultHash, _resultSign), _v, _r, _s));\n\t\t}\n\n\t\trequire(contribution.status == IexecLib.ContributionStatusEnum.AUTHORIZED);\n\t\tcontribution.status     = IexecLib.ContributionStatusEnum.CONTRIBUTED;\n\t\tcontribution.resultHash = _resultHash;\n\t\tcontribution.resultSign = _resultSign;\n\t\tcontribution.score      = iexecHubInterface.getWorkerScore(msg.sender);\n\t\tconsensus.contributors.push(msg.sender);\n\n\t\trequire(iexecHubInterface.lockForWork(_woid, msg.sender, consensus.stakeAmount));\n\t\temit Contribute(_woid, msg.sender, _resultHash);\n\t\treturn consensus.stakeAmount;\n\t}\n\n\tfunction revealConsensus(address _woid, bytes32 _consensus) public onlyOwner /*onlySheduler*/ returns (bool)\n\t{\n\t\trequire(iexecHubInterface.isWoidRegistred(_woid));\n\t\tIexecLib.Consensus storage consensus = m_consensus[_woid];\n\t\trequire(now <= consensus.consensusTimeout);\n\t\trequire(WorkOrder(_woid).startRevealingPhase());\n\n\t\tconsensus.winnerCount = 0;\n\t\tfor (uint256 i = 0; i<consensus.contributors.length; ++i)\n\t\t{\n\t\t\taddress w = consensus.contributors[i];\n\t\t\tif (\n\t\t\t\tm_contributions[_woid][w].resultHash == _consensus\n\t\t\t\t&&\n\t\t\t\tm_contributions[_woid][w].status == IexecLib.ContributionStatusEnum.CONTRIBUTED // REJECTED contribution must not be count\n\t\t\t)\n\t\t\t{\n\t\t\t\tconsensus.winnerCount = consensus.winnerCount.add(1);\n\t\t\t}\n\t\t}\n\t\trequire(consensus.winnerCount > 0); // you cannot revealConsensus if no worker has contributed to this hash\n\n\t\tconsensus.consensus  = _consensus;\n\t\tconsensus.revealDate = iexecHubInterface.getCategoryWorkClockTimeRef(marketplaceInterface.getMarketOrderCategory(WorkOrder(_woid).m_marketorderIdx())).mul(REVEAL_PERIOD_DURATION_RATIO).add(now); // is it better to store th catid ?\n\t\temit RevealConsensus(_woid, _consensus);\n\t\treturn true;\n\t}\n\n\tfunction reveal(address _woid, bytes32 _result) public returns (bool)\n\t{\n\t\trequire(iexecHubInterface.isWoidRegistred(_woid));\n\t\tIexecLib.Consensus    storage consensus    = m_consensus[_woid];\n\t\trequire(now <= consensus.consensusTimeout);\n\t\tIexecLib.Contribution storage contribution = m_contributions[_woid][msg.sender];\n\n\t\trequire(WorkOrder(_woid).m_status() == IexecLib.WorkOrderStatusEnum.REVEALING     );\n\t\trequire(consensus.revealDate        >  now                                        );\n\t\trequire(contribution.status         == IexecLib.ContributionStatusEnum.CONTRIBUTED);\n\t\trequire(contribution.resultHash     == consensus.consensus                        );\n\t\trequire(contribution.resultHash     == keccak256(_result                        ) );\n\t\trequire(contribution.resultSign     == keccak256(_result ^ keccak256(msg.sender)) );\n\n\t\tcontribution.status     = IexecLib.ContributionStatusEnum.PROVED;\n\t\tconsensus.revealCounter = consensus.revealCounter.add(1);\n\n\t\temit Reveal(_woid, msg.sender, _result);\n\t\treturn true;\n\t}\n\n\tfunction reopen(address _woid) public onlyOwner /*onlySheduler*/ returns (bool)\n\t{\n\t\trequire(iexecHubInterface.isWoidRegistred(_woid));\n\t\tIexecLib.Consensus storage consensus = m_consensus[_woid];\n\t\trequire(now <= consensus.consensusTimeout);\n\t\trequire(consensus.revealDate <= now && consensus.revealCounter == 0);\n\t\trequire(WorkOrder(_woid).reActivate());\n\n\t\tfor (uint256 i = 0; i < consensus.contributors.length; ++i)\n\t\t{\n\t\t\taddress w = consensus.contributors[i];\n\t\t\tif (m_contributions[_woid][w].resultHash == consensus.consensus)\n\t\t\t{\n\t\t\t\tm_contributions[_woid][w].status = IexecLib.ContributionStatusEnum.REJECTED;\n\t\t\t}\n\t\t}\n\t\t// Reset to status before revealConsensus. Must be after REJECTED traitement above because of consensus.consensus check\n\t\tconsensus.winnerCount = 0;\n\t\tconsensus.consensus   = 0x0;\n\t\tconsensus.revealDate  = 0;\n\t\temit Reopen(_woid);\n\t\treturn true;\n\t}\n\n\t// if sheduler never call finalized ? no incetive to do that. schedulermust be pay also at this time\n\tfunction finalizeWork(address _woid, string _stdout, string _stderr, string _uri) public onlyOwner /*onlySheduler*/ returns (bool)\n\t{\n\t\trequire(iexecHubInterface.isWoidRegistred(_woid));\n\t\tIexecLib.Consensus storage consensus = m_consensus[_woid];\n\t\trequire(now <= consensus.consensusTimeout);\n\t\trequire((consensus.revealDate <= now && consensus.revealCounter > 0) || (consensus.revealCounter == consensus.winnerCount)); // consensus.winnerCount never 0 at this step\n\n\t\t// add penalized to the call worker to contribution and they never contribute ?\n\t\trequire(distributeRewards(_woid, consensus));\n\n\t\trequire(iexecHubInterface.finalizeWorkOrder(_woid, _stdout, _stderr, _uri));\n\t\temit FinalizeWork(_woid,_stdout,_stderr,_uri);\n\t\treturn true;\n\t}\n\n\tfunction distributeRewards(address _woid, IexecLib.Consensus _consensus) internal returns (bool)\n\t{\n\t\tuint256 i;\n\t\taddress w;\n\t\tuint256 workerBonus;\n\t\tuint256 workerWeight;\n\t\tuint256 totalWeight;\n\t\tuint256 individualWorkerReward;\n\t\tuint256 totalReward = _consensus.poolReward;\n\t\taddress[] memory contributors = _consensus.contributors;\n\t\tfor (i = 0; i<contributors.length; ++i)\n\t\t{\n\t\t\tw = contributors[i];\n\t\t\tIexecLib.Contribution storage c = m_contributions[_woid][w];\n\t\t\tif (c.status == IexecLib.ContributionStatusEnum.PROVED)\n\t\t\t{\n\t\t\t\tworkerBonus  = (c.enclaveChallenge != address(0)) ? 3 : 1; // TODO: bonus sgx = 3 ?\n\t\t\t\tworkerWeight = 1 + c.score.mul(workerBonus).log();\n\t\t\t\ttotalWeight  = totalWeight.add(workerWeight);\n\t\t\t\tc.weight     = workerWeight; // store so we don't have to recompute\n\t\t\t}\n\t\t\telse // ContributionStatusEnum.REJECT or ContributionStatusEnum.CONTRIBUTED (not revealed)\n\t\t\t{\n\t\t\t\ttotalReward = totalReward.add(_consensus.stakeAmount);\n\t\t\t}\n\t\t}\n\t\trequire(totalWeight > 0);\n\n\t\t// compute how much is going to the workers\n\t\tuint256 totalWorkersReward = totalReward.percentage(uint256(100).sub(_consensus.schedulerRewardRatioPolicy));\n\n\t\tfor (i = 0; i<contributors.length; ++i)\n\t\t{\n\t\t\tw = contributors[i];\n\t\t\tif (m_contributions[_woid][w].status == IexecLib.ContributionStatusEnum.PROVED)\n\t\t\t{\n\t\t\t\tindividualWorkerReward = totalWorkersReward.mulByFraction(m_contributions[_woid][w].weight, totalWeight);\n\t\t\t\ttotalReward  = totalReward.sub(individualWorkerReward);\n\t\t\t\trequire(iexecHubInterface.unlockForWork(_woid, w, _consensus.stakeAmount));\n\t\t\t\trequire(iexecHubInterface.rewardForWork(_woid, w, individualWorkerReward, true));\n\t\t\t}\n\t\t\telse // WorkStatusEnum.POCO_REJECT or ContributionStatusEnum.CONTRIBUTED (not revealed)\n\t\t\t{\n\t\t\t\trequire(iexecHubInterface.seizeForWork(_woid, w, _consensus.stakeAmount, true));\n\t\t\t\t// No Reward\n\t\t\t}\n\t\t}\n\t\t// totalReward now contains the scheduler share\n\t\trequire(iexecHubInterface.rewardForWork(_woid, _consensus.workerpoolOwner, totalReward, false));\n\n\t\treturn true;\n\t}\n\n}\n",
  "sourcePath": "/Users/fbranci/iexecdev/PoCo/contracts/WorkerPool.sol",
  "compiler": {
    "name": "solc",
    "version": "0.4.21+commit.dfe3193c.Emscripten.clang"
  },
  "schemaVersion": "2.0.0",
  "updatedAt": "2018-05-20T20:12:33.563Z"
}