{
  "contractName": "WorkerpoolRegistry",
  "abi": [
    {
      "inputs": [],
      "stateMutability": "nonpayable",
      "type": "constructor"
    },
    {
      "anonymous": false,
      "inputs": [
        {
          "indexed": true,
          "internalType": "address",
          "name": "owner",
          "type": "address"
        },
        {
          "indexed": true,
          "internalType": "address",
          "name": "approved",
          "type": "address"
        },
        {
          "indexed": true,
          "internalType": "uint256",
          "name": "tokenId",
          "type": "uint256"
        }
      ],
      "name": "Approval",
      "type": "event"
    },
    {
      "anonymous": false,
      "inputs": [
        {
          "indexed": true,
          "internalType": "address",
          "name": "owner",
          "type": "address"
        },
        {
          "indexed": true,
          "internalType": "address",
          "name": "operator",
          "type": "address"
        },
        {
          "indexed": false,
          "internalType": "bool",
          "name": "approved",
          "type": "bool"
        }
      ],
      "name": "ApprovalForAll",
      "type": "event"
    },
    {
      "anonymous": false,
      "inputs": [
        {
          "indexed": true,
          "internalType": "address",
          "name": "previousOwner",
          "type": "address"
        },
        {
          "indexed": true,
          "internalType": "address",
          "name": "newOwner",
          "type": "address"
        }
      ],
      "name": "OwnershipTransferred",
      "type": "event"
    },
    {
      "anonymous": false,
      "inputs": [
        {
          "indexed": true,
          "internalType": "address",
          "name": "from",
          "type": "address"
        },
        {
          "indexed": true,
          "internalType": "address",
          "name": "to",
          "type": "address"
        },
        {
          "indexed": true,
          "internalType": "uint256",
          "name": "tokenId",
          "type": "uint256"
        }
      ],
      "name": "Transfer",
      "type": "event"
    },
    {
      "inputs": [
        {
          "internalType": "address",
          "name": "to",
          "type": "address"
        },
        {
          "internalType": "uint256",
          "name": "tokenId",
          "type": "uint256"
        }
      ],
      "name": "approve",
      "outputs": [],
      "stateMutability": "nonpayable",
      "type": "function"
    },
    {
      "inputs": [
        {
          "internalType": "address",
          "name": "owner",
          "type": "address"
        }
      ],
      "name": "balanceOf",
      "outputs": [
        {
          "internalType": "uint256",
          "name": "",
          "type": "uint256"
        }
      ],
      "stateMutability": "view",
      "type": "function",
      "constant": true
    },
    {
      "inputs": [],
      "name": "baseURI",
      "outputs": [
        {
          "internalType": "string",
          "name": "",
          "type": "string"
        }
      ],
      "stateMutability": "view",
      "type": "function",
      "constant": true
    },
    {
      "inputs": [
        {
          "internalType": "uint256",
          "name": "tokenId",
          "type": "uint256"
        }
      ],
      "name": "getApproved",
      "outputs": [
        {
          "internalType": "address",
          "name": "",
          "type": "address"
        }
      ],
      "stateMutability": "view",
      "type": "function",
      "constant": true
    },
    {
      "inputs": [
        {
          "internalType": "address",
          "name": "_previous",
          "type": "address"
        }
      ],
      "name": "initialize",
      "outputs": [],
      "stateMutability": "nonpayable",
      "type": "function"
    },
    {
      "inputs": [],
      "name": "initialized",
      "outputs": [
        {
          "internalType": "bool",
          "name": "",
          "type": "bool"
        }
      ],
      "stateMutability": "view",
      "type": "function",
      "constant": true
    },
    {
      "inputs": [
        {
          "internalType": "address",
          "name": "owner",
          "type": "address"
        },
        {
          "internalType": "address",
          "name": "operator",
          "type": "address"
        }
      ],
      "name": "isApprovedForAll",
      "outputs": [
        {
          "internalType": "bool",
          "name": "",
          "type": "bool"
        }
      ],
      "stateMutability": "view",
      "type": "function",
      "constant": true
    },
    {
      "inputs": [
        {
          "internalType": "address",
          "name": "_entry",
          "type": "address"
        }
      ],
      "name": "isRegistered",
      "outputs": [
        {
          "internalType": "bool",
          "name": "",
          "type": "bool"
        }
      ],
      "stateMutability": "view",
      "type": "function",
      "constant": true
    },
    {
      "inputs": [],
      "name": "master",
      "outputs": [
        {
          "internalType": "address",
          "name": "",
          "type": "address"
        }
      ],
      "stateMutability": "view",
      "type": "function",
      "constant": true
    },
    {
      "inputs": [],
      "name": "name",
      "outputs": [
        {
          "internalType": "string",
          "name": "",
          "type": "string"
        }
      ],
      "stateMutability": "view",
      "type": "function",
      "constant": true
    },
    {
      "inputs": [],
      "name": "owner",
      "outputs": [
        {
          "internalType": "address",
          "name": "",
          "type": "address"
        }
      ],
      "stateMutability": "view",
      "type": "function",
      "constant": true
    },
    {
      "inputs": [
        {
          "internalType": "uint256",
          "name": "tokenId",
          "type": "uint256"
        }
      ],
      "name": "ownerOf",
      "outputs": [
        {
          "internalType": "address",
          "name": "",
          "type": "address"
        }
      ],
      "stateMutability": "view",
      "type": "function",
      "constant": true
    },
    {
      "inputs": [],
      "name": "previous",
      "outputs": [
        {
          "internalType": "contract IRegistry",
          "name": "",
          "type": "address"
        }
      ],
      "stateMutability": "view",
      "type": "function",
      "constant": true
    },
    {
      "inputs": [],
      "name": "proxyCode",
      "outputs": [
        {
          "internalType": "bytes",
          "name": "",
          "type": "bytes"
        }
      ],
      "stateMutability": "view",
      "type": "function",
      "constant": true
    },
    {
      "inputs": [],
      "name": "proxyCodeHash",
      "outputs": [
        {
          "internalType": "bytes32",
          "name": "",
          "type": "bytes32"
        }
      ],
      "stateMutability": "view",
      "type": "function",
      "constant": true
    },
    {
      "inputs": [],
      "name": "renounceOwnership",
      "outputs": [],
      "stateMutability": "nonpayable",
      "type": "function"
    },
    {
      "inputs": [
        {
          "internalType": "address",
          "name": "from",
          "type": "address"
        },
        {
          "internalType": "address",
          "name": "to",
          "type": "address"
        },
        {
          "internalType": "uint256",
          "name": "tokenId",
          "type": "uint256"
        }
      ],
      "name": "safeTransferFrom",
      "outputs": [],
      "stateMutability": "nonpayable",
      "type": "function"
    },
    {
      "inputs": [
        {
          "internalType": "address",
          "name": "from",
          "type": "address"
        },
        {
          "internalType": "address",
          "name": "to",
          "type": "address"
        },
        {
          "internalType": "uint256",
          "name": "tokenId",
          "type": "uint256"
        },
        {
          "internalType": "bytes",
          "name": "_data",
          "type": "bytes"
        }
      ],
      "name": "safeTransferFrom",
      "outputs": [],
      "stateMutability": "nonpayable",
      "type": "function"
    },
    {
      "inputs": [
        {
          "internalType": "address",
          "name": "operator",
          "type": "address"
        },
        {
          "internalType": "bool",
          "name": "approved",
          "type": "bool"
        }
      ],
      "name": "setApprovalForAll",
      "outputs": [],
      "stateMutability": "nonpayable",
      "type": "function"
    },
    {
      "inputs": [
        {
          "internalType": "string",
          "name": "_baseURI",
          "type": "string"
        }
      ],
      "name": "setBaseURI",
      "outputs": [],
      "stateMutability": "nonpayable",
      "type": "function"
    },
    {
      "inputs": [
        {
          "internalType": "address",
          "name": "_ens",
          "type": "address"
        },
        {
          "internalType": "string",
          "name": "_name",
          "type": "string"
        }
      ],
      "name": "setName",
      "outputs": [],
      "stateMutability": "nonpayable",
      "type": "function"
    },
    {
      "inputs": [
        {
          "internalType": "bytes4",
          "name": "interfaceId",
          "type": "bytes4"
        }
      ],
      "name": "supportsInterface",
      "outputs": [
        {
          "internalType": "bool",
          "name": "",
          "type": "bool"
        }
      ],
      "stateMutability": "view",
      "type": "function",
      "constant": true
    },
    {
      "inputs": [],
      "name": "symbol",
      "outputs": [
        {
          "internalType": "string",
          "name": "",
          "type": "string"
        }
      ],
      "stateMutability": "view",
      "type": "function",
      "constant": true
    },
    {
      "inputs": [
        {
          "internalType": "uint256",
          "name": "index",
          "type": "uint256"
        }
      ],
      "name": "tokenByIndex",
      "outputs": [
        {
          "internalType": "uint256",
          "name": "",
          "type": "uint256"
        }
      ],
      "stateMutability": "view",
      "type": "function",
      "constant": true
    },
    {
      "inputs": [
        {
          "internalType": "address",
          "name": "owner",
          "type": "address"
        },
        {
          "internalType": "uint256",
          "name": "index",
          "type": "uint256"
        }
      ],
      "name": "tokenOfOwnerByIndex",
      "outputs": [
        {
          "internalType": "uint256",
          "name": "",
          "type": "uint256"
        }
      ],
      "stateMutability": "view",
      "type": "function",
      "constant": true
    },
    {
      "inputs": [
        {
          "internalType": "uint256",
          "name": "tokenId",
          "type": "uint256"
        }
      ],
      "name": "tokenURI",
      "outputs": [
        {
          "internalType": "string",
          "name": "",
          "type": "string"
        }
      ],
      "stateMutability": "view",
      "type": "function",
      "constant": true
    },
    {
      "inputs": [],
      "name": "totalSupply",
      "outputs": [
        {
          "internalType": "uint256",
          "name": "",
          "type": "uint256"
        }
      ],
      "stateMutability": "view",
      "type": "function",
      "constant": true
    },
    {
      "inputs": [
        {
          "internalType": "address",
          "name": "from",
          "type": "address"
        },
        {
          "internalType": "address",
          "name": "to",
          "type": "address"
        },
        {
          "internalType": "uint256",
          "name": "tokenId",
          "type": "uint256"
        }
      ],
      "name": "transferFrom",
      "outputs": [],
      "stateMutability": "nonpayable",
      "type": "function"
    },
    {
      "inputs": [
        {
          "internalType": "address",
          "name": "newOwner",
          "type": "address"
        }
      ],
      "name": "transferOwnership",
      "outputs": [],
      "stateMutability": "nonpayable",
      "type": "function"
    },
    {
      "inputs": [
        {
          "internalType": "address",
          "name": "_workerpoolOwner",
          "type": "address"
        },
        {
          "internalType": "string",
          "name": "_workerpoolDescription",
          "type": "string"
        }
      ],
      "name": "createWorkerpool",
      "outputs": [
        {
          "internalType": "contract Workerpool",
          "name": "",
          "type": "address"
        }
      ],
      "stateMutability": "nonpayable",
      "type": "function"
    },
    {
      "inputs": [
        {
          "internalType": "address",
          "name": "_workerpoolOwner",
          "type": "address"
        },
        {
          "internalType": "string",
          "name": "_workerpoolDescription",
          "type": "string"
        }
      ],
      "name": "predictWorkerpool",
      "outputs": [
        {
          "internalType": "contract Workerpool",
          "name": "",
          "type": "address"
        }
      ],
      "stateMutability": "view",
      "type": "function",
      "constant": true
    }
  ],
  "bytecode": "0x60806040523480156200001157600080fd5b506040516200002090620002f7565b604051809103906000f0801580156200003d573d6000803e3d6000fd5b50604080518082018252601e81527f694578656320576f726b6572706f6f6c20526567697374727920285635290000602080830191909152825180840190935260118352706945786563576f726b6572706f6f6c563560781b90830152908181620000b86301ffc9a760e01b6001600160e01b036200026d16565b8151620000cd90600690602085019062000305565b508051620000e390600790602084019062000305565b50620000ff6380ac58cd60e01b6001600160e01b036200026d16565b6200011a635b5e139f60e01b6001600160e01b036200026d16565b6200013563780e9d6360e01b6001600160e01b036200026d16565b50600090506200014d6001600160e01b03620002f216565b600a80546001600160a01b0319166001600160a01b038316908117909155604051919250906000907f8be0079c531659141344cd1fd0a4f28419497f9722a3daafe3b4186f6b6457e0908290a350600b80546001600160a01b0319166001600160a01b038516179055604051620001c7602082016200038a565b601f1982820381018352601f909101166040528051620001f191600c916020919091019062000305565b50600c6040518082805460018160011615610100020316600290048015620002535780601f106200023057610100808354040283529182019162000253565b820191906000526020600020905b8154815290600101906020018083116200023e575b5050604051908190039020600d5550620003b59350505050565b6001600160e01b03198082161415620002cd576040805162461bcd60e51b815260206004820152601c60248201527f4552433136353a20696e76616c696420696e7465726661636520696400000000604482015290519081900360640190fd5b6001600160e01b0319166000908152602081905260409020805460ff19166001179055565b335b90565b6108298062002e6683390190565b828054600181600116156101000203166002900490600052602060002090601f016020900481019282601f106200034857805160ff191683800117855562000378565b8280016001018555821562000378579182015b82811115620003785782518255916020019190600101906200035b565b506200038692915062000398565b5090565b6103cd806200368f83390190565b620002f491905b808211156200038657600081556001016200039f565b612aa180620003c56000396000f3fe608060405234801561001057600080fd5b50600436106101e55760003560e01c80636fa59bbc1161010f578063c3c5a547116100a2578063e985e9c511610071578063e985e9c514610796578063ee97f7f3146107c4578063eee39111146107cc578063f2fde38b146107d4576101e5565b8063c3c5a547146106af578063c4d66de8146106d5578063c87b56dd146106fb578063e40238f414610718576101e5565b80638da5cb5b116100de5780638da5cb5b146105ad57806395d89b41146105b5578063a22cb465146105bd578063b88d4fde146105eb576101e5565b80636fa59bbc1461056f57806370a0823114610577578063715018a61461059d5780637c2b2e71146105a5576101e5565b806323b872dd116101875780634f6ccce7116101565780634f6ccce7146104bf57806355f804b3146104dc5780636352211e1461054a5780636c0360eb14610567576101e5565b806323b872dd146103a95780632f745c59146103df5780633121db1c1461040b57806342842e0e14610489576101e5565b8063081812fc116101c3578063081812fc1461033c578063095ea7b314610359578063158ef93e1461038757806318160ddd1461038f576101e5565b806301ffc9a7146101ea578063064a6c2a1461022557806306fdde03146102bf575b600080fd5b6102116004803603602081101561020057600080fd5b50356001600160e01b0319166107fa565b604080519115158252519081900360200190f35b6102a36004803603604081101561023b57600080fd5b6001600160a01b038235169190810190604081016020820135600160201b81111561026557600080fd5b82018360208201111561027757600080fd5b803590602001918460018302840111600160201b8311171561029857600080fd5b50909250905061081d565b604080516001600160a01b039092168252519081900360200190f35b6102c7610871565b6040805160208082528351818301528351919283929083019185019080838360005b838110156103015781810151838201526020016102e9565b50505050905090810190601f16801561032e5780820380516001836020036101000a031916815260200191505b509250505060405180910390f35b6102a36004803603602081101561035257600080fd5b5035610908565b6103856004803603604081101561036f57600080fd5b506001600160a01b03813516906020013561096a565b005b610211610a45565b610397610a55565b60408051918252519081900360200190f35b610385600480360360608110156103bf57600080fd5b506001600160a01b03813581169160208101359091169060400135610a66565b610397600480360360408110156103f557600080fd5b506001600160a01b038135169060200135610abd565b6103856004803603604081101561042157600080fd5b6001600160a01b038235169190810190604081016020820135600160201b81111561044b57600080fd5b82018360208201111561045d57600080fd5b803590602001918460018302840111600160201b8311171561047e57600080fd5b509092509050610aee565b6103856004803603606081101561049f57600080fd5b506001600160a01b03813581169160208101359091169060400135610b86565b610397600480360360208110156104d557600080fd5b5035610ba1565b610385600480360360208110156104f257600080fd5b810190602081018135600160201b81111561050c57600080fd5b82018360208201111561051e57600080fd5b803590602001918460018302840111600160201b8311171561053f57600080fd5b509092509050610bbd565b6102a36004803603602081101561056057600080fd5b5035610c58565b6102c7610c86565b6102c7610ce7565b6103976004803603602081101561058d57600080fd5b50356001600160a01b0316610d75565b610385610ddd565b6102a3610e7f565b6102a3610e8e565b6102c7610e9d565b610385600480360360408110156105d357600080fd5b506001600160a01b0381351690602001351515610efe565b6103856004803603608081101561060157600080fd5b6001600160a01b03823581169260208101359091169160408201359190810190608081016060820135600160201b81111561063b57600080fd5b82018360208201111561064d57600080fd5b803590602001918460018302840111600160201b8311171561066e57600080fd5b91908080601f016020809104026020016040519081016040528093929190818152602001838380828437600092019190915250929550611003945050505050565b610211600480360360208110156106c557600080fd5b50356001600160a01b0316611061565b610385600480360360208110156106eb57600080fd5b50356001600160a01b031661110f565b6102c76004803603602081101561071157600080fd5b50356111af565b6102a36004803603604081101561072e57600080fd5b6001600160a01b038235169190810190604081016020820135600160201b81111561075857600080fd5b82018360208201111561076a57600080fd5b803590602001918460018302840111600160201b8311171561078b57600080fd5b50909250905061137b565b610211600480360360408110156107ac57600080fd5b506001600160a01b03813581169160200135166113c5565b6102a36113f3565b610397611402565b610385600480360360208110156107ea57600080fd5b50356001600160a01b0316611408565b6001600160e01b0319811660009081526020819052604090205460ff165b919050565b60006108678461086285858080601f01602080910402602001604051908101604052809392919081815260200183838082843760009201919091525061150192505050565b6115a6565b90505b9392505050565b60068054604080516020601f60026000196101006001881615020190951694909404938401819004810282018101909252828152606093909290918301828280156108fd5780601f106108d2576101008083540402835291602001916108fd565b820191906000526020600020905b8154815290600101906020018083116108e057829003601f168201915b505050505090505b90565b600061091382611650565b61094e5760405162461bcd60e51b815260040180806020018281038252602c81526020018061294a602c913960400191505060405180910390fd5b506000908152600460205260409020546001600160a01b031690565b600061097582610c58565b9050806001600160a01b0316836001600160a01b031614156109c85760405162461bcd60e51b8152600401808060200182810382526021815260200180612a1a6021913960400191505060405180910390fd5b806001600160a01b03166109da611663565b6001600160a01b031614806109fb57506109fb816109f6611663565b6113c5565b610a365760405162461bcd60e51b815260040180806020018281038252603881526020018061289d6038913960400191505060405180910390fd5b610a408383611667565b505050565b600e54600160a01b900460ff1681565b6000610a6160026116d5565b905090565b610a77610a71611663565b826116e0565b610ab25760405162461bcd60e51b8152600401808060200182810382526031815260200180612a3b6031913960400191505060405180910390fd5b610a40838383611784565b6001600160a01b0382166000908152600160205260408120610ae5908363ffffffff6118e216565b90505b92915050565b610af6611663565b600a546001600160a01b03908116911614610b46576040805162461bcd60e51b815260206004820181905260248201526000805160206129a2833981519152604482015290519081900360640190fd5b610a408383838080601f0160208091040260200160405190810160405280939291908181526020018383808284376000920191909152506118ee92505050565b610a4083838360405180602001604052806000815250611003565b600080610bb560028463ffffffff611a5316565b509392505050565b610bc5611663565b600a546001600160a01b03908116911614610c15576040805162461bcd60e51b815260206004820181905260248201526000805160206129a2833981519152604482015290519081900360640190fd5b610c5482828080601f016020809104026020016040519081016040528093929190818152602001838380828437600092019190915250611a6f92505050565b5050565b6000610ae8826040518060600160405280602981526020016128ff602991396002919063ffffffff611a8216565b60098054604080516020601f60026000196101006001881615020190951694909404938401819004810282018101909252828152606093909290918301828280156108fd5780601f106108d2576101008083540402835291602001916108fd565b600c805460408051602060026001851615610100026000190190941693909304601f81018490048402820184019092528181529291830182828015610d6d5780601f10610d4257610100808354040283529160200191610d6d565b820191906000526020600020905b815481529060010190602001808311610d5057829003601f168201915b505050505081565b60006001600160a01b038216610dbc5760405162461bcd60e51b815260040180806020018281038252602a8152602001806128d5602a913960400191505060405180910390fd5b6001600160a01b0382166000908152600160205260409020610ae8906116d5565b610de5611663565b600a546001600160a01b03908116911614610e35576040805162461bcd60e51b815260206004820181905260248201526000805160206129a2833981519152604482015290519081900360640190fd5b600a546040516000916001600160a01b0316907f8be0079c531659141344cd1fd0a4f28419497f9722a3daafe3b4186f6b6457e0908390a3600a80546001600160a01b0319169055565b600e546001600160a01b031681565b600a546001600160a01b031690565b60078054604080516020601f60026000196101006001881615020190951694909404938401819004810282018101909252828152606093909290918301828280156108fd5780601f106108d2576101008083540402835291602001916108fd565b610f06611663565b6001600160a01b0316826001600160a01b03161415610f6c576040805162461bcd60e51b815260206004820152601960248201527f4552433732313a20617070726f766520746f2063616c6c657200000000000000604482015290519081900360640190fd5b8060056000610f79611663565b6001600160a01b03908116825260208083019390935260409182016000908120918716808252919093529120805460ff191692151592909217909155610fbd611663565b60408051841515815290516001600160a01b0392909216917f17307eab39ab6107e8899845ad3d59bd9653f200f220920489ca2b5937696c319181900360200190a35050565b61101461100e611663565b836116e0565b61104f5760405162461bcd60e51b8152600401808060200182810382526031815260200180612a3b6031913960400191505060405180910390fd5b61105b84848484611a8f565b50505050565b6000611075826001600160a01b0316611650565b80610ae85750600e546001600160a01b031615801590610ae85750600e546040805163c3c5a54760e01b81526001600160a01b0385811660048301529151919092169163c3c5a547916024808301926020929190829003018186803b1580156110dd57600080fd5b505afa1580156110f1573d6000803e3d6000fd5b505050506040513d602081101561110757600080fd5b505192915050565b611117611663565b600a546001600160a01b03908116911614611167576040805162461bcd60e51b815260206004820181905260248201526000805160206129a2833981519152604482015290519081900360640190fd5b600e54600160a01b900460ff161561117e57600080fd5b600e8054600160a01b60ff60a01b19909116176001600160a01b0319166001600160a01b0392909216919091179055565b60606111ba82611650565b6111f55760405162461bcd60e51b815260040180806020018281038252602f8152602001806129eb602f913960400191505060405180910390fd5b60008281526008602090815260409182902080548351601f600260001961010060018616150201909316929092049182018490048402810184019094528084526060939283018282801561128a5780601f1061125f5761010080835404028352916020019161128a565b820191906000526020600020905b81548152906001019060200180831161126d57829003601f168201915b505050505090508051600014156112b1575050604080516020810190915260008152610818565b60098160405160200180838054600181600116156101000203166002900480156113125780601f106112f0576101008083540402835291820191611312565b820191906000526020600020905b8154815290600101906020018083116112fe575b5050825160208401908083835b6020831061133e5780518252601f19909201916020918201910161131f565b6001836020036101000a03801982511681845116808217855250505050505090500192505050604051602081830303815290604052915050610818565b6000610867846113c085858080601f01602080910402602001604051908101604052809392919081815260200183838082843760009201919091525061150192505050565b611ae1565b6001600160a01b03918216600090815260056020908152604080832093909416825291909152205460ff1690565b600b546001600160a01b031681565b600d5481565b611410611663565b600a546001600160a01b03908116911614611460576040805162461bcd60e51b815260206004820181905260248201526000805160206129a2833981519152604482015290519081900360640190fd5b6001600160a01b0381166114a55760405162461bcd60e51b81526004018080602001828103825260268152602001806128276026913960400191505060405180910390fd5b600a546040516001600160a01b038084169216907f8be0079c531659141344cd1fd0a4f28419497f9722a3daafe3b4186f6b6457e090600090a3600a80546001600160a01b0319166001600160a01b0392909216919091179055565b6060816040516024018080602001828103825283818151815260200191508051906020019080838360005b8381101561154457818101518382015260200161152c565b50505050905090810190601f1680156115715780820380516001836020036101000a031916815260200191505b5060408051601f198184030181529190526020810180516001600160e01b0316631ec5a31160e31b1790529350505050919050565b60008061163f83856040516020018083805190602001908083835b602083106115e05780518252601f1990920191602091820191016115c1565b6001836020036101000a038019825116818451168082178552505050505050905001826001600160a01b03166001600160a01b031660601b81526014019250505060405160208183030381529060405280519060200120600d54611d26565b6001600160a01b0316949350505050565b6000610ae860028363ffffffff611d3316565b3390565b600081815260046020526040902080546001600160a01b0319166001600160a01b038416908117909155819061169c82610c58565b6001600160a01b03167f8c5be1e5ebec7d5bd14f71427d1e84f3dd0314c0f7b2291e5b200ac8c7c3b92560405160405180910390a45050565b6000610ae882611d3f565b60006116eb82611650565b6117265760405162461bcd60e51b815260040180806020018281038252602c815260200180612871602c913960400191505060405180910390fd5b600061173183610c58565b9050806001600160a01b0316846001600160a01b0316148061176c5750836001600160a01b031661176184610908565b6001600160a01b0316145b8061177c575061177c81856113c5565b949350505050565b826001600160a01b031661179782610c58565b6001600160a01b0316146117dc5760405162461bcd60e51b81526004018080602001828103825260298152602001806129c26029913960400191505060405180910390fd5b6001600160a01b0382166118215760405162461bcd60e51b815260040180806020018281038252602481526020018061284d6024913960400191505060405180910390fd5b61182c838383610a40565b611837600082611667565b6001600160a01b038316600090815260016020526040902061185f908263ffffffff611d4316565b506001600160a01b0382166000908152600160205260409020611888908263ffffffff611d4f16565b5061189b6002828463ffffffff611d5b16565b5080826001600160a01b0316846001600160a01b03167fddf252ad1be2c89b69c2b068fc378daa952ba7f163c4a11628f55a4df523b3ef60405160405180910390a4505050565b6000610ae58383611d71565b604080516302571be360e01b81527f91d1777781884d03a6757a803996e38de2a42967fb37eeaca72729271025a9e2600482015290516001600160a01b038416916302571be3916024808301926020929190829003018186803b15801561195457600080fd5b505afa158015611968573d6000803e3d6000fd5b505050506040513d602081101561197e57600080fd5b505160405163c47f002760e01b81526020600482018181528451602484015284516001600160a01b039094169363c47f002793869383926044909201919085019080838360005b838110156119dd5781810151838201526020016119c5565b50505050905090810190601f168015611a0a5780820380516001836020036101000a031916815260200191505b5092505050602060405180830381600087803b158015611a2957600080fd5b505af1158015611a3d573d6000803e3d6000fd5b505050506040513d602081101561105b57600080fd5b6000808080611a628686611dd5565b9097909650945050505050565b8051610c5490600990602084019061273a565b6000610867848484611e50565b611a9a848484611784565b611aa684848484611f1a565b61105b5760405162461bcd60e51b81526004018080602001828103825260328152602001806127f56032913960400191505060405180910390fd5b600080611c14600084866040516020018083805190602001908083835b60208310611b1d5780518252601f199092019160209182019101611afe565b6001836020036101000a038019825116818451168082178552505050505050905001826001600160a01b03166001600160a01b031660601b81526014019250505060405160208183030381529060405280519060200120600c8054600181600116156101000203166002900480601f016020809104026020016040519081016040528092919081815260200182805460018160011615610100020316600290048015611c0a5780601f10611bdf57610100808354040283529160200191611c0a565b820191906000526020600020905b815481529060010190602001808311611bed57829003601f168201915b5050505050612155565b600b546040805163347d5e2560e21b81526001600160a01b0392831660048201818152602483019384528851604484015288519596509386169463d1f5789494919389939091606490910190602085019080838360005b83811015611c83578181015183820152602001611c6b565b50505050905090810190601f168015611cb05780820380516001836020036101000a031916815260200191505b509350505050600060405180830381600087803b158015611cd057600080fd5b505af1158015611ce4573d6000803e3d6000fd5b50505050611cfb84826001600160a01b0316612266565b611d166001600160a01b038216611d11816123a0565b61247b565b6001600160a01b03169392505050565b6000610ae58383306124de565b6000610ae58383612542565b5490565b6000610ae5838361255a565b6000610ae58383612620565b600061086784846001600160a01b03851661266a565b81546000908210611db35760405162461bcd60e51b81526004018080602001828103825260228152602001806127d36022913960400191505060405180910390fd5b826000018281548110611dc257fe5b9060005260206000200154905092915050565b815460009081908310611e195760405162461bcd60e51b81526004018080602001828103825260228152602001806129286022913960400191505060405180910390fd5b6000846000018481548110611e2a57fe5b906000526020600020906002020190508060000154816001015492509250509250929050565b60008281526001840160205260408120548281611eeb5760405162461bcd60e51b81526004018080602001828103825283818151815260200191508051906020019080838360005b83811015611eb0578181015183820152602001611e98565b50505050905090810190601f168015611edd5780820380516001836020036101000a031916815260200191505b509250505060405180910390fd5b50846000016001820381548110611efe57fe5b9060005260206000209060020201600101549150509392505050565b6000611f2e846001600160a01b0316612701565b611f3a5750600161177c565b600060606001600160a01b038616630a85bd0160e11b611f58611663565b89888860405160240180856001600160a01b03166001600160a01b03168152602001846001600160a01b03166001600160a01b0316815260200183815260200180602001828103825283818151815260200191508051906020019080838360005b83811015611fd1578181015183820152602001611fb9565b50505050905090810190601f168015611ffe5780820380516001836020036101000a031916815260200191505b5060408051601f198184030181529181526020820180516001600160e01b03166001600160e01b0319909a16999099178952518151919890975087965094509250829150849050835b602083106120665780518252601f199092019160209182019101612047565b6001836020036101000a0380198251168184511680821785525050505050509050019150506000604051808303816000865af19150503d80600081146120c8576040519150601f19603f3d011682016040523d82523d6000602084013e6120cd565b606091505b50915091508161211e578051156120e75780518082602001fd5b60405162461bcd60e51b81526004018080602001828103825260328152602001806127f56032913960400191505060405180910390fd5b600081806020019051602081101561213557600080fd5b50516001600160e01b031916630a85bd0160e11b14935061177c92505050565b600080844710156121ad576040805162461bcd60e51b815260206004820152601d60248201527f437265617465323a20696e73756666696369656e742062616c616e6365000000604482015290519081900360640190fd5b8251612200576040805162461bcd60e51b815260206004820181905260248201527f437265617465323a2062797465636f6465206c656e677468206973207a65726f604482015290519081900360640190fd5b8383516020850187f590506001600160a01b038116610867576040805162461bcd60e51b815260206004820152601960248201527f437265617465323a204661696c6564206f6e206465706c6f7900000000000000604482015290519081900360640190fd5b6001600160a01b0382166122c1576040805162461bcd60e51b815260206004820181905260248201527f4552433732313a206d696e7420746f20746865207a65726f2061646472657373604482015290519081900360640190fd5b6122ca81611650565b1561231c576040805162461bcd60e51b815260206004820152601c60248201527f4552433732313a20746f6b656e20616c7265616479206d696e74656400000000604482015290519081900360640190fd5b61232860008383610a40565b6001600160a01b0382166000908152600160205260409020612350908263ffffffff611d4f16565b506123636002828463ffffffff611d5b16565b5060405181906001600160a01b038416906000907fddf252ad1be2c89b69c2b068fc378daa952ba7f163c4a11628f55a4df523b3ef908290a45050565b6060816123c557506040805180820190915260018152600360fc1b6020820152610818565b8160005b81156123dd57600101600a820491506123c9565b60608167ffffffffffffffff811180156123f657600080fd5b506040519080825280601f01601f191660200182016040528015612421576020820181803683370190505b50859350905060001982015b831561247257600a840660300160f81b8282806001900393508151811061245057fe5b60200101906001600160f81b031916908160001a905350600a8404935061242d565b50949350505050565b61248482611650565b6124bf5760405162461bcd60e51b815260040180806020018281038252602c815260200180612976602c913960400191505060405180910390fd5b60008281526008602090815260409091208251610a409284019061273a565b604080516001600160f81b031960208083019190915260609390931b6bffffffffffffffffffffffff19166021820152603581019490945260558085019390935280518085039093018352607590930190925280519101206001600160a01b031690565b60009081526001919091016020526040902054151590565b60008181526001830160205260408120548015612616578354600019808301919081019060009087908390811061258d57fe5b90600052602060002001549050808760000184815481106125aa57fe5b6000918252602080832090910192909255828152600189810190925260409020908401905586548790806125da57fe5b60019003818190600052602060002001600090559055866001016000878152602001908152602001600020600090556001945050505050610ae8565b6000915050610ae8565b600061262c8383612542565b61266257508154600181810184556000848152602080822090930184905584548482528286019093526040902091909155610ae8565b506000610ae8565b6000828152600184016020526040812054806126cf57505060408051808201825283815260208082018481528654600181810189556000898152848120955160029093029095019182559151908201558654868452818801909252929091205561086a565b828560000160018303815481106126e257fe5b906000526020600020906002020160010181905550600091505061086a565b6000813f7fc5d2460186f7233c927e7db2dcc703c0e500b653ca82273b7bfad8045d85a47081811480159061177c575050151592915050565b828054600181600116156101000203166002900490600052602060002090601f016020900481019282601f1061277b57805160ff19168380011785556127a8565b828001600101855582156127a8579182015b828111156127a857825182559160200191906001019061278d565b506127b49291506127b8565b5090565b61090591905b808211156127b457600081556001016127be56fe456e756d657261626c655365743a20696e646578206f7574206f6620626f756e64734552433732313a207472616e7366657220746f206e6f6e20455243373231526563656976657220696d706c656d656e7465724f776e61626c653a206e6577206f776e657220697320746865207a65726f20616464726573734552433732313a207472616e7366657220746f20746865207a65726f20616464726573734552433732313a206f70657261746f7220717565727920666f72206e6f6e6578697374656e7420746f6b656e4552433732313a20617070726f76652063616c6c6572206973206e6f74206f776e6572206e6f7220617070726f76656420666f7220616c6c4552433732313a2062616c616e636520717565727920666f7220746865207a65726f20616464726573734552433732313a206f776e657220717565727920666f72206e6f6e6578697374656e7420746f6b656e456e756d657261626c654d61703a20696e646578206f7574206f6620626f756e64734552433732313a20617070726f76656420717565727920666f72206e6f6e6578697374656e7420746f6b656e4552433732314d657461646174613a2055524920736574206f66206e6f6e6578697374656e7420746f6b656e4f776e61626c653a2063616c6c6572206973206e6f7420746865206f776e65724552433732313a207472616e73666572206f6620746f6b656e2074686174206973206e6f74206f776e4552433732314d657461646174613a2055524920717565727920666f72206e6f6e6578697374656e7420746f6b656e4552433732313a20617070726f76616c20746f2063757272656e74206f776e65724552433732313a207472616e736665722063616c6c6572206973206e6f74206f776e6572206e6f7220617070726f766564a2646970667358221220cdb8befc245fbf3bb0190e4794d4691518061b3d152a67b913aa277e364bc34864736f6c63430006060033608060405234801561001057600080fd5b50610809806100206000396000f3fe608060405234801561001057600080fd5b50600436106100885760003560e01c80638da5cb5b1161005b5780638da5cb5b146101ca578063b55e75af146101d2578063f199413c146101da578063f62d1888146101fd57610088565b80633121db1c1461008d578063584feb3a1461010f5780637b1039991461018c57806387639c68146101b0575b600080fd5b61010d600480360360408110156100a357600080fd5b6001600160a01b0382351691908101906040810160208201356401000000008111156100ce57600080fd5b8201836020820111156100e057600080fd5b8035906020019184600183028401116401000000008311171561010257600080fd5b5090925090506102a3565b005b610117610346565b6040805160208082528351818301528351919283929083019185019080838360005b83811015610151578181015183820152602001610139565b50505050905090810190601f16801561017e5780820380516001836020036101000a031916815260200191505b509250505060405180910390f35b6101946103d3565b604080516001600160a01b039092168252519081900360200190f35b6101b86103e2565b60408051918252519081900360200190f35b6101946103e8565b6101b8610466565b61010d600480360360408110156101f057600080fd5b508035906020013561046c565b61010d6004803603602081101561021357600080fd5b81019060208101813564010000000081111561022e57600080fd5b82018360208201111561024057600080fd5b8035906020019184600183028401116401000000008311171561026257600080fd5b91908080601f016020809104026020016040519081016040528093929190818152602001838380828437600092019190915250929550610530945050505050565b336102ac6103e8565b6001600160a01b031614610301576040805162461bcd60e51b815260206004820152601760248201527631b0b63632b91034b9903737ba103a34329037bbb732b960491b604482015290519081900360640190fd5b6103418383838080601f01602080910402602001604051908101604052809392919081815260200183838082843760009201919091525061055a92505050565b505050565b60018054604080516020600284861615610100026000190190941693909304601f810184900484028201840190925281815292918301828280156103cb5780601f106103a0576101008083540402835291602001916103cb565b820191906000526020600020905b8154815290600101906020018083116103ae57829003601f168201915b505050505081565b6000546001600160a01b031681565b60035481565b60008054604080516331a9108f60e11b815230600482015290516001600160a01b0390921691636352211e91602480820192602092909190829003018186803b15801561043457600080fd5b505afa158015610448573d6000803e3d6000fd5b505050506040513d602081101561045e57600080fd5b505190505b90565b60025481565b336104756103e8565b6001600160a01b0316146104ca576040805162461bcd60e51b815260206004820152601760248201527631b0b63632b91034b9903737ba103a34329037bbb732b960491b604482015290519081900360640190fd5b60648111156104d857600080fd5b60025460035460408051928352602083018590528281019190915260608201839052517f61f37ef3a6d587ce2d6be79492e1fac570f2745787015db7ed95ad4397b05c1e9181900360800190a1600291909155600355565b610539336106c5565b805161054c90600190602084019061073b565b5050601e6002556001600355565b604080516302571be360e01b81527f91d1777781884d03a6757a803996e38de2a42967fb37eeaca72729271025a9e2600482015290516001600160a01b038416916302571be3916024808301926020929190829003018186803b1580156105c057600080fd5b505afa1580156105d4573d6000803e3d6000fd5b505050506040513d60208110156105ea57600080fd5b505160405163c47f002760e01b81526020600482018181528451602484015284516001600160a01b039094169363c47f002793869383926044909201919085019080838360005b83811015610649578181015183820152602001610631565b50505050905090810190601f1680156106765780820380516001836020036101000a031916815260200191505b5092505050602060405180830381600087803b15801561069557600080fd5b505af11580156106a9573d6000803e3d6000fd5b505050506040513d60208110156106bf57600080fd5b50505050565b6000546001600160a01b031615610719576040805162461bcd60e51b8152602060048201526013602482015272185b1c9958591e481a5b9a5d1a585b1a5e9959606a1b604482015290519081900360640190fd5b600080546001600160a01b0319166001600160a01b0392909216919091179055565b828054600181600116156101000203166002900490600052602060002090601f016020900481019282601f1061077c57805160ff19168380011785556107a9565b828001600101855582156107a9579182015b828111156107a957825182559160200191906001019061078e565b506107b59291506107b9565b5090565b61046391905b808211156107b557600081556001016107bf56fea264697066735822122020648786b4524ed08af276ba4d2272de89915d62c21511543febb7ab1280142b64736f6c63430006060033608060405234801561001057600080fd5b506103ad806100206000396000f3fe6080604052600436106100225760003560e01c8063d1f578941461003957610031565b366100315761002f6100ef565b005b61002f6100ef565b61002f6004803603604081101561004f57600080fd5b6001600160a01b03823516919081019060408101602082013564010000000081111561007a57600080fd5b82018360208201111561008c57600080fd5b803590602001918460018302840111640100000000831117156100ae57600080fd5b91908080601f016020809104026020016040519081016040528093929190818152602001838380828437600092019190915250929550610109945050505050565b6100f7610107565b61010761010261022c565b610251565b565b600061011361022c565b6001600160a01b03161461012657600080fd5b60405180602361031a82396040519081900360230190207f7050c9e0f4ca769c69bd3a8ef740bc37934f8e2c036e5a723fd8ee048ed3f8c314905061016757fe5b61017082610275565b805115610228576000826001600160a01b0316826040518082805190602001908083835b602083106101b35780518252601f199092019160209182019101610194565b6001836020036101000a038019825116818451168082178552505050505050905001915050600060405180830381855af49150503d8060008114610213576040519150601f19603f3d011682016040523d82523d6000602084013e610218565b606091505b505090508061022657600080fd5b505b5050565b7f7050c9e0f4ca769c69bd3a8ef740bc37934f8e2c036e5a723fd8ee048ed3f8c35490565b3660008037600080366000845af43d6000803e808015610270573d6000f35b3d6000fd5b61027e816102dd565b6102b95760405162461bcd60e51b815260040180806020018281038252603b81526020018061033d603b913960400191505060405180910390fd5b7f7050c9e0f4ca769c69bd3a8ef740bc37934f8e2c036e5a723fd8ee048ed3f8c355565b6000813f7fc5d2460186f7233c927e7db2dcc703c0e500b653ca82273b7bfad8045d85a47081811480159061031157508115155b94935050505056fe6f72672e7a657070656c696e6f732e70726f78792e696d706c656d656e746174696f6e43616e6e6f742073657420612070726f787920696d706c656d656e746174696f6e20746f2061206e6f6e2d636f6e74726163742061646472657373a2646970667358221220aba26a9b820bc0864305fc4079425084b46cf2b0366ff1738101bb17f58c20e964736f6c63430006060033",
  "source": "pragma solidity ^0.6.0;\n\nimport '../Registry.sol';\nimport './Workerpool.sol';\n\n\ncontract WorkerpoolRegistry is Registry\n{\n\t/**\n\t * Constructor\n\t */\n\tconstructor()\n\tpublic Registry(\n\t\taddress(new Workerpool()),\n\t\t'iExec Workerpool Registry (V5)',\n\t\t'iExecWorkerpoolV5')\n\t{\n\t}\n\n\t/**\n\t * Pool creation\n\t */\n\tfunction encodeInitializer(\n\t\tstring memory _workerpoolDescription)\n\tinternal pure returns (bytes memory)\n\t{\n\t\treturn abi.encodeWithSignature(\n\t\t\t'initialize(string)'\n\t\t,\t_workerpoolDescription\n\t\t);\n\t}\n\n\tfunction createWorkerpool(\n\t\taddress          _workerpoolOwner,\n\t\tstring  calldata _workerpoolDescription)\n\texternal returns (Workerpool)\n\t{\n\t\treturn Workerpool(_mintCreate(_workerpoolOwner, encodeInitializer(_workerpoolDescription)));\n\t}\n\n\tfunction predictWorkerpool(\n\t\taddress          _workerpoolOwner,\n\t\tstring  calldata _workerpoolDescription)\n\texternal view returns (Workerpool)\n\t{\n\t\treturn Workerpool(_mintPredict(_workerpoolOwner, encodeInitializer(_workerpoolDescription)));\n\t}\n}\n",
  "sourcePath": "/home/amxx/Work/iExec/code/PoCo-dev/contracts/registries/workerpools/WorkerpoolRegistry.sol",
  "compiler": {
    "name": "solc",
    "version": "0.6.6+commit.6c089d02.Emscripten.clang"
  },
  "schemaVersion": "3.0.23",
  "updatedAt": "2020-04-20T12:29:54.311Z",
  "devdoc": {
    "methods": {
      "approve(address,uint256)": {
        "details": "Approves another address to transfer the given token ID The zero address indicates there is no approved address. There can only be one approved address per token at a given time. Can only be called by the token owner or an approved operator.",
        "params": {
          "to": "address to be approved for the given token ID",
          "tokenId": "uint256 ID of the token to be approved"
        }
      },
      "balanceOf(address)": {
        "details": "Gets the balance of the specified address.",
        "params": {
          "owner": "address to query the balance of"
        },
        "returns": {
          "_0": "uint256 representing the amount owned by the passed address"
        }
      },
      "baseURI()": {
        "details": "Returns the base URI set via {_setBaseURI}. This will be automatically added as a preffix in {tokenURI} to each token's URI, when they are non-empty."
      },
      "getApproved(uint256)": {
        "details": "Gets the approved address for a token ID, or zero if no address set Reverts if the token ID does not exist.",
        "params": {
          "tokenId": "uint256 ID of the token to query the approval of"
        },
        "returns": {
          "_0": "address currently approved for the given token ID"
        }
      },
      "isApprovedForAll(address,address)": {
        "details": "Tells whether an operator is approved by a given owner.",
        "params": {
          "operator": "operator address which you want to query the approval of",
          "owner": "owner address which you want to query the approval of"
        },
        "returns": {
          "_0": "bool whether the given operator is approved by the given owner"
        }
      },
      "name()": {
        "details": "Gets the token name.",
        "returns": {
          "_0": "string representing the token name"
        }
      },
      "owner()": {
        "details": "Returns the address of the current owner."
      },
      "ownerOf(uint256)": {
        "details": "Gets the owner of the specified token ID.",
        "params": {
          "tokenId": "uint256 ID of the token to query the owner of"
        },
        "returns": {
          "_0": "address currently marked as the owner of the given token ID"
        }
      },
      "renounceOwnership()": {
        "details": "Leaves the contract without owner. It will not be possible to call `onlyOwner` functions anymore. Can only be called by the current owner.     * NOTE: Renouncing ownership will leave the contract without an owner, thereby removing any functionality that is only available to the owner."
      },
      "safeTransferFrom(address,address,uint256)": {
        "details": "Safely transfers the ownership of a given token ID to another address If the target address is a contract, it must implement {IERC721Receiver-onERC721Received}, which is called upon a safe transfer, and return the magic value `bytes4(keccak256(\"onERC721Received(address,address,uint256,bytes)\"))`; otherwise, the transfer is reverted. Requires the msg.sender to be the owner, approved, or operator",
        "params": {
          "from": "current owner of the token",
          "to": "address to receive the ownership of the given token ID",
          "tokenId": "uint256 ID of the token to be transferred"
        }
      },
      "safeTransferFrom(address,address,uint256,bytes)": {
        "details": "Safely transfers the ownership of a given token ID to another address If the target address is a contract, it must implement {IERC721Receiver-onERC721Received}, which is called upon a safe transfer, and return the magic value `bytes4(keccak256(\"onERC721Received(address,address,uint256,bytes)\"))`; otherwise, the transfer is reverted. Requires the _msgSender() to be the owner, approved, or operator",
        "params": {
          "_data": "bytes data to send along with a safe transfer check",
          "from": "current owner of the token",
          "to": "address to receive the ownership of the given token ID",
          "tokenId": "uint256 ID of the token to be transferred"
        }
      },
      "setApprovalForAll(address,bool)": {
        "details": "Sets or unsets the approval of a given operator An operator is allowed to transfer all tokens of the sender on their behalf.",
        "params": {
          "approved": "representing the status of the approval to be set",
          "operator": "operator address to set the approval"
        }
      },
      "supportsInterface(bytes4)": {
        "details": "See {IERC165-supportsInterface}.     * Time complexity O(1), guaranteed to always use less than 30 000 gas."
      },
      "symbol()": {
        "details": "Gets the token symbol.",
        "returns": {
          "_0": "string representing the token symbol"
        }
      },
      "tokenByIndex(uint256)": {
        "details": "Gets the token ID at a given index of all the tokens in this contract Reverts if the index is greater or equal to the total number of tokens.",
        "params": {
          "index": "uint256 representing the index to be accessed of the tokens list"
        },
        "returns": {
          "_0": "uint256 token ID at the given index of the tokens list"
        }
      },
      "tokenOfOwnerByIndex(address,uint256)": {
        "details": "Gets the token ID at a given index of the tokens list of the requested owner.",
        "params": {
          "index": "uint256 representing the index to be accessed of the requested tokens list",
          "owner": "address owning the tokens list to be accessed"
        },
        "returns": {
          "_0": "uint256 token ID at the given index of the tokens list owned by the requested address"
        }
      },
      "tokenURI(uint256)": {
        "details": "Returns the URI for a given token ID. May return an empty string.     * If the token's URI is non-empty and a base URI was set (via {_setBaseURI}), it will be added to the token ID's URI as a prefix.     * Reverts if the token ID does not exist."
      },
      "totalSupply()": {
        "details": "Gets the total amount of tokens stored by the contract.",
        "returns": {
          "_0": "uint256 representing the total amount of tokens"
        }
      },
      "transferFrom(address,address,uint256)": {
        "details": "Transfers the ownership of a given token ID to another address. Usage of this method is discouraged, use {safeTransferFrom} whenever possible. Requires the msg.sender to be the owner, approved, or operator.",
        "params": {
          "from": "current owner of the token",
          "to": "address to receive the ownership of the given token ID",
          "tokenId": "uint256 ID of the token to be transferred"
        }
      },
      "transferOwnership(address)": {
        "details": "Transfers ownership of the contract to a new account (`newOwner`). Can only be called by the current owner."
      }
    }
  },
  "userdoc": {
    "methods": {
      "constructor": "Constructor"
    }
  }
}