{
  "contractName": "WorkerPool",
  "abi": [
    {
      "constant": true,
      "inputs": [
        {
          "name": "",
          "type": "address"
        }
      ],
      "name": "m_consensus",
      "outputs": [
        {
          "name": "poolReward",
          "type": "uint256"
        },
        {
          "name": "stakeAmount",
          "type": "uint256"
        },
        {
          "name": "consensus",
          "type": "bytes32"
        },
        {
          "name": "revealDate",
          "type": "uint256"
        },
        {
          "name": "revealCounter",
          "type": "uint256"
        },
        {
          "name": "consensusTimout",
          "type": "uint256"
        },
        {
          "name": "winnerCount",
          "type": "uint256"
        },
        {
          "name": "workerpoolOwner",
          "type": "address"
        }
      ],
      "payable": false,
      "stateMutability": "view",
      "type": "function"
    },
    {
      "constant": true,
      "inputs": [
        {
          "name": "",
          "type": "uint256"
        }
      ],
      "name": "m_workers",
      "outputs": [
        {
          "name": "",
          "type": "address"
        }
      ],
      "payable": false,
      "stateMutability": "view",
      "type": "function"
    },
    {
      "constant": true,
      "inputs": [
        {
          "name": "",
          "type": "address"
        }
      ],
      "name": "m_workerIndex",
      "outputs": [
        {
          "name": "",
          "type": "uint256"
        }
      ],
      "payable": false,
      "stateMutability": "view",
      "type": "function"
    },
    {
      "constant": true,
      "inputs": [],
      "name": "CONSENSUS_DURATION_RATIO",
      "outputs": [
        {
          "name": "",
          "type": "uint256"
        }
      ],
      "payable": false,
      "stateMutability": "view",
      "type": "function"
    },
    {
      "constant": true,
      "inputs": [],
      "name": "m_subscriptionMinimumStakePolicy",
      "outputs": [
        {
          "name": "",
          "type": "uint256"
        }
      ],
      "payable": false,
      "stateMutability": "view",
      "type": "function"
    },
    {
      "constant": true,
      "inputs": [
        {
          "name": "",
          "type": "address"
        },
        {
          "name": "",
          "type": "address"
        }
      ],
      "name": "m_contributions",
      "outputs": [
        {
          "name": "status",
          "type": "uint8"
        },
        {
          "name": "resultHash",
          "type": "bytes32"
        },
        {
          "name": "resultSign",
          "type": "bytes32"
        },
        {
          "name": "enclaveChallenge",
          "type": "address"
        },
        {
          "name": "score",
          "type": "uint256"
        },
        {
          "name": "weight",
          "type": "uint256"
        }
      ],
      "payable": false,
      "stateMutability": "view",
      "type": "function"
    },
    {
      "constant": true,
      "inputs": [],
      "name": "m_schedulerRewardRatioPolicy",
      "outputs": [
        {
          "name": "",
          "type": "uint256"
        }
      ],
      "payable": false,
      "stateMutability": "view",
      "type": "function"
    },
    {
      "constant": true,
      "inputs": [],
      "name": "m_description",
      "outputs": [
        {
          "name": "",
          "type": "string"
        }
      ],
      "payable": false,
      "stateMutability": "view",
      "type": "function"
    },
    {
      "constant": true,
      "inputs": [],
      "name": "m_workerPoolHubAddress",
      "outputs": [
        {
          "name": "",
          "type": "address"
        }
      ],
      "payable": false,
      "stateMutability": "view",
      "type": "function"
    },
    {
      "constant": true,
      "inputs": [],
      "name": "m_stakeRatioPolicy",
      "outputs": [
        {
          "name": "",
          "type": "uint256"
        }
      ],
      "payable": false,
      "stateMutability": "view",
      "type": "function"
    },
    {
      "constant": true,
      "inputs": [],
      "name": "m_subscriptionMinimumScorePolicy",
      "outputs": [
        {
          "name": "",
          "type": "uint256"
        }
      ],
      "payable": false,
      "stateMutability": "view",
      "type": "function"
    },
    {
      "constant": true,
      "inputs": [],
      "name": "m_owner",
      "outputs": [
        {
          "name": "",
          "type": "address"
        }
      ],
      "payable": false,
      "stateMutability": "view",
      "type": "function"
    },
    {
      "constant": true,
      "inputs": [],
      "name": "m_subscriptionLockStakePolicy",
      "outputs": [
        {
          "name": "",
          "type": "uint256"
        }
      ],
      "payable": false,
      "stateMutability": "view",
      "type": "function"
    },
    {
      "constant": true,
      "inputs": [],
      "name": "REVEAL_PERIOD_DURATION_RATIO",
      "outputs": [
        {
          "name": "",
          "type": "uint256"
        }
      ],
      "payable": false,
      "stateMutability": "view",
      "type": "function"
    },
    {
      "constant": false,
      "inputs": [
        {
          "name": "_newOwner",
          "type": "address"
        }
      ],
      "name": "transferOwnership",
      "outputs": [],
      "payable": false,
      "stateMutability": "nonpayable",
      "type": "function"
    },
    {
      "inputs": [
        {
          "name": "_iexecHubAddress",
          "type": "address"
        },
        {
          "name": "_description",
          "type": "string"
        },
        {
          "name": "_subscriptionLockStakePolicy",
          "type": "uint256"
        },
        {
          "name": "_subscriptionMinimumStakePolicy",
          "type": "uint256"
        },
        {
          "name": "_subscriptionMinimumScorePolicy",
          "type": "uint256"
        },
        {
          "name": "_marketplaceAddress",
          "type": "address"
        }
      ],
      "payable": false,
      "stateMutability": "nonpayable",
      "type": "constructor"
    },
    {
      "anonymous": false,
      "inputs": [
        {
          "indexed": false,
          "name": "oldStakeRatioPolicy",
          "type": "uint256"
        },
        {
          "indexed": false,
          "name": "newStakeRatioPolicy",
          "type": "uint256"
        },
        {
          "indexed": false,
          "name": "oldSchedulerRewardRatioPolicy",
          "type": "uint256"
        },
        {
          "indexed": false,
          "name": "newSchedulerRewardRatioPolicy",
          "type": "uint256"
        },
        {
          "indexed": false,
          "name": "oldSubscriptionMinimumStakePolicy",
          "type": "uint256"
        },
        {
          "indexed": false,
          "name": "newSubscriptionMinimumStakePolicy",
          "type": "uint256"
        },
        {
          "indexed": false,
          "name": "oldSubscriptionMinimumScorePolicy",
          "type": "uint256"
        },
        {
          "indexed": false,
          "name": "newSubscriptionMinimumScorePolicy",
          "type": "uint256"
        }
      ],
      "name": "WorkerPoolPolicyUpdate",
      "type": "event"
    },
    {
      "anonymous": false,
      "inputs": [
        {
          "indexed": true,
          "name": "woid",
          "type": "address"
        }
      ],
      "name": "WorkOrderActive",
      "type": "event"
    },
    {
      "anonymous": false,
      "inputs": [
        {
          "indexed": true,
          "name": "woid",
          "type": "address"
        }
      ],
      "name": "WorkOrderClaimed",
      "type": "event"
    },
    {
      "anonymous": false,
      "inputs": [
        {
          "indexed": true,
          "name": "woid",
          "type": "address"
        },
        {
          "indexed": true,
          "name": "worker",
          "type": "address"
        },
        {
          "indexed": false,
          "name": "workerScore",
          "type": "uint256"
        }
      ],
      "name": "AllowWorkerToContribute",
      "type": "event"
    },
    {
      "anonymous": false,
      "inputs": [
        {
          "indexed": true,
          "name": "woid",
          "type": "address"
        },
        {
          "indexed": true,
          "name": "worker",
          "type": "address"
        },
        {
          "indexed": false,
          "name": "resultHash",
          "type": "bytes32"
        }
      ],
      "name": "Contribute",
      "type": "event"
    },
    {
      "anonymous": false,
      "inputs": [
        {
          "indexed": true,
          "name": "woid",
          "type": "address"
        },
        {
          "indexed": false,
          "name": "consensus",
          "type": "bytes32"
        }
      ],
      "name": "RevealConsensus",
      "type": "event"
    },
    {
      "anonymous": false,
      "inputs": [
        {
          "indexed": true,
          "name": "woid",
          "type": "address"
        },
        {
          "indexed": true,
          "name": "worker",
          "type": "address"
        },
        {
          "indexed": false,
          "name": "result",
          "type": "bytes32"
        }
      ],
      "name": "Reveal",
      "type": "event"
    },
    {
      "anonymous": false,
      "inputs": [
        {
          "indexed": true,
          "name": "woid",
          "type": "address"
        }
      ],
      "name": "Reopen",
      "type": "event"
    },
    {
      "anonymous": false,
      "inputs": [
        {
          "indexed": true,
          "name": "woid",
          "type": "address"
        },
        {
          "indexed": false,
          "name": "stdout",
          "type": "string"
        },
        {
          "indexed": false,
          "name": "stderr",
          "type": "string"
        },
        {
          "indexed": false,
          "name": "uri",
          "type": "string"
        }
      ],
      "name": "FinalizeWork",
      "type": "event"
    },
    {
      "anonymous": false,
      "inputs": [
        {
          "indexed": true,
          "name": "worker",
          "type": "address"
        }
      ],
      "name": "WorkerSubscribe",
      "type": "event"
    },
    {
      "anonymous": false,
      "inputs": [
        {
          "indexed": true,
          "name": "worker",
          "type": "address"
        }
      ],
      "name": "WorkerUnsubscribe",
      "type": "event"
    },
    {
      "anonymous": false,
      "inputs": [
        {
          "indexed": true,
          "name": "worker",
          "type": "address"
        }
      ],
      "name": "WorkerEviction",
      "type": "event"
    },
    {
      "anonymous": false,
      "inputs": [
        {
          "indexed": true,
          "name": "previousOwner",
          "type": "address"
        },
        {
          "indexed": true,
          "name": "newOwner",
          "type": "address"
        }
      ],
      "name": "OwnershipTransferred",
      "type": "event"
    },
    {
      "constant": false,
      "inputs": [
        {
          "name": "_newStakeRatioPolicy",
          "type": "uint256"
        },
        {
          "name": "_newSchedulerRewardRatioPolicy",
          "type": "uint256"
        },
        {
          "name": "_newSubscriptionMinimumStakePolicy",
          "type": "uint256"
        },
        {
          "name": "_newSubscriptionMinimumScorePolicy",
          "type": "uint256"
        }
      ],
      "name": "changeWorkerPoolPolicy",
      "outputs": [],
      "payable": false,
      "stateMutability": "nonpayable",
      "type": "function"
    },
    {
      "constant": true,
      "inputs": [
        {
          "name": "_index",
          "type": "uint256"
        }
      ],
      "name": "getWorkerAddress",
      "outputs": [
        {
          "name": "",
          "type": "address"
        }
      ],
      "payable": false,
      "stateMutability": "view",
      "type": "function"
    },
    {
      "constant": true,
      "inputs": [
        {
          "name": "_worker",
          "type": "address"
        }
      ],
      "name": "getWorkerIndex",
      "outputs": [
        {
          "name": "",
          "type": "uint256"
        }
      ],
      "payable": false,
      "stateMutability": "view",
      "type": "function"
    },
    {
      "constant": true,
      "inputs": [],
      "name": "getWorkersCount",
      "outputs": [
        {
          "name": "",
          "type": "uint256"
        }
      ],
      "payable": false,
      "stateMutability": "view",
      "type": "function"
    },
    {
      "constant": false,
      "inputs": [],
      "name": "subscribeToPool",
      "outputs": [
        {
          "name": "",
          "type": "bool"
        }
      ],
      "payable": false,
      "stateMutability": "nonpayable",
      "type": "function"
    },
    {
      "constant": false,
      "inputs": [],
      "name": "unsubscribeFromPool",
      "outputs": [
        {
          "name": "",
          "type": "bool"
        }
      ],
      "payable": false,
      "stateMutability": "nonpayable",
      "type": "function"
    },
    {
      "constant": false,
      "inputs": [
        {
          "name": "_worker",
          "type": "address"
        }
      ],
      "name": "evictWorker",
      "outputs": [
        {
          "name": "",
          "type": "bool"
        }
      ],
      "payable": false,
      "stateMutability": "nonpayable",
      "type": "function"
    },
    {
      "constant": true,
      "inputs": [
        {
          "name": "_woid",
          "type": "address"
        }
      ],
      "name": "getConsensusDetails",
      "outputs": [
        {
          "name": "c_poolReward",
          "type": "uint256"
        },
        {
          "name": "c_stakeAmount",
          "type": "uint256"
        },
        {
          "name": "c_consensus",
          "type": "bytes32"
        },
        {
          "name": "c_revealDate",
          "type": "uint256"
        },
        {
          "name": "c_revealCounter",
          "type": "uint256"
        },
        {
          "name": "c_consensusTimout",
          "type": "uint256"
        },
        {
          "name": "c_winnerCount",
          "type": "uint256"
        },
        {
          "name": "c_workerpoolOwner",
          "type": "address"
        }
      ],
      "payable": false,
      "stateMutability": "view",
      "type": "function"
    },
    {
      "constant": true,
      "inputs": [
        {
          "name": "_woid",
          "type": "address"
        }
      ],
      "name": "getContributorsCount",
      "outputs": [
        {
          "name": "contributorsCount",
          "type": "uint256"
        }
      ],
      "payable": false,
      "stateMutability": "view",
      "type": "function"
    },
    {
      "constant": true,
      "inputs": [
        {
          "name": "_woid",
          "type": "address"
        },
        {
          "name": "index",
          "type": "uint256"
        }
      ],
      "name": "getContributor",
      "outputs": [
        {
          "name": "contributor",
          "type": "address"
        }
      ],
      "payable": false,
      "stateMutability": "view",
      "type": "function"
    },
    {
      "constant": true,
      "inputs": [
        {
          "name": "_woid",
          "type": "address"
        },
        {
          "name": "_worker",
          "type": "address"
        }
      ],
      "name": "existingContribution",
      "outputs": [
        {
          "name": "contributionExist",
          "type": "bool"
        }
      ],
      "payable": false,
      "stateMutability": "view",
      "type": "function"
    },
    {
      "constant": true,
      "inputs": [
        {
          "name": "_woid",
          "type": "address"
        },
        {
          "name": "_worker",
          "type": "address"
        }
      ],
      "name": "getContribution",
      "outputs": [
        {
          "name": "status",
          "type": "uint8"
        },
        {
          "name": "resultHash",
          "type": "bytes32"
        },
        {
          "name": "resultSign",
          "type": "bytes32"
        },
        {
          "name": "enclaveChallenge",
          "type": "address"
        },
        {
          "name": "score",
          "type": "uint256"
        },
        {
          "name": "weight",
          "type": "uint256"
        }
      ],
      "payable": false,
      "stateMutability": "view",
      "type": "function"
    },
    {
      "constant": false,
      "inputs": [
        {
          "name": "_woid",
          "type": "address"
        },
        {
          "name": "_marketorderIdx",
          "type": "uint256"
        }
      ],
      "name": "emitWorkOrder",
      "outputs": [
        {
          "name": "",
          "type": "bool"
        }
      ],
      "payable": false,
      "stateMutability": "nonpayable",
      "type": "function"
    },
    {
      "constant": false,
      "inputs": [
        {
          "name": "_woid",
          "type": "address"
        }
      ],
      "name": "claimFailedConsensus",
      "outputs": [
        {
          "name": "",
          "type": "bool"
        }
      ],
      "payable": false,
      "stateMutability": "nonpayable",
      "type": "function"
    },
    {
      "constant": false,
      "inputs": [
        {
          "name": "_woid",
          "type": "address"
        },
        {
          "name": "_workers",
          "type": "address[]"
        },
        {
          "name": "_enclaveChallenge",
          "type": "address"
        }
      ],
      "name": "allowWorkersToContribute",
      "outputs": [
        {
          "name": "",
          "type": "bool"
        }
      ],
      "payable": false,
      "stateMutability": "nonpayable",
      "type": "function"
    },
    {
      "constant": false,
      "inputs": [
        {
          "name": "_woid",
          "type": "address"
        },
        {
          "name": "_worker",
          "type": "address"
        },
        {
          "name": "_enclaveChallenge",
          "type": "address"
        }
      ],
      "name": "allowWorkerToContribute",
      "outputs": [
        {
          "name": "",
          "type": "bool"
        }
      ],
      "payable": false,
      "stateMutability": "nonpayable",
      "type": "function"
    },
    {
      "constant": false,
      "inputs": [
        {
          "name": "_woid",
          "type": "address"
        },
        {
          "name": "_resultHash",
          "type": "bytes32"
        },
        {
          "name": "_resultSign",
          "type": "bytes32"
        },
        {
          "name": "_v",
          "type": "uint8"
        },
        {
          "name": "_r",
          "type": "bytes32"
        },
        {
          "name": "_s",
          "type": "bytes32"
        }
      ],
      "name": "contribute",
      "outputs": [
        {
          "name": "workerStake",
          "type": "uint256"
        }
      ],
      "payable": false,
      "stateMutability": "nonpayable",
      "type": "function"
    },
    {
      "constant": false,
      "inputs": [
        {
          "name": "_woid",
          "type": "address"
        },
        {
          "name": "_consensus",
          "type": "bytes32"
        }
      ],
      "name": "revealConsensus",
      "outputs": [
        {
          "name": "",
          "type": "bool"
        }
      ],
      "payable": false,
      "stateMutability": "nonpayable",
      "type": "function"
    },
    {
      "constant": false,
      "inputs": [
        {
          "name": "_woid",
          "type": "address"
        },
        {
          "name": "_result",
          "type": "bytes32"
        }
      ],
      "name": "reveal",
      "outputs": [
        {
          "name": "",
          "type": "bool"
        }
      ],
      "payable": false,
      "stateMutability": "nonpayable",
      "type": "function"
    },
    {
      "constant": false,
      "inputs": [
        {
          "name": "_woid",
          "type": "address"
        }
      ],
      "name": "reopen",
      "outputs": [
        {
          "name": "",
          "type": "bool"
        }
      ],
      "payable": false,
      "stateMutability": "nonpayable",
      "type": "function"
    },
    {
      "constant": false,
      "inputs": [
        {
          "name": "_woid",
          "type": "address"
        },
        {
          "name": "_stdout",
          "type": "string"
        },
        {
          "name": "_stderr",
          "type": "string"
        },
        {
          "name": "_uri",
          "type": "string"
        }
      ],
      "name": "finalizeWork",
      "outputs": [
        {
          "name": "",
          "type": "bool"
        }
      ],
      "payable": false,
      "stateMutability": "nonpayable",
      "type": "function"
    }
  ],
  "bytecode": "0x606060405234156200001057600080fd5b60405162002fa938038062002fa9833981016040528080519190602001805182019190602001805191906020018051919060200180519190602001805160008054600160a060020a03191633600160a060020a03908116919091179091559092508291508790811615156200008457600080fd5b60018054600160a060020a03928316600160a060020a0319918216811790925560028054909116909117905581161515620000be57600080fd5b60038054600160a060020a03928316600160a060020a03199182168117909255600480549091169091179055328116339091161415620000fd57600080fd5b6200011632640100000000620021c96200016682021704565b60058580516200012b929160200190620001f6565b5050601e6006556001600755600892909255600955600a555050600f8054600160a060020a03191633600160a060020a03161790556200029b565b60005433600160a060020a039081169116146200018257600080fd5b600160a060020a03811615156200019857600080fd5b600054600160a060020a0380831691167f8be0079c531659141344cd1fd0a4f28419497f9722a3daafe3b4186f6b6457e060405160405180910390a360008054600160a060020a031916600160a060020a0392909216919091179055565b828054600181600116156101000203166002900490600052602060002090601f016020900481019282601f106200023957805160ff191683800117855562000269565b8280016001018555821562000269579182015b82811115620002695782518255916020019190600101906200024c565b50620002779291506200027b565b5090565b6200029891905b8082111562000277576000815560010162000282565b90565b612cfe80620002ab6000396000f3006060604052600436106101a85763ffffffff60e060020a600035041663031ee1c881146101ad57806306021e7e146101f05780630c6e29e3146102e7578063126eac43146102fa57806316ebf77d1461036e5780631f1e7406146103905780632b8fd18a146103fe5780633ec6a4c41461043057806340f036051461044f57806341cb01ad1461047457806345b99d28146104935780635a628525146104a65780636ab6936a146104c85780637919233f146104db5780637bd220bb146104fd5780637c60988514610522578063835436b41461058a57806387639c68146105a957806389869163146105bc5780638d7db2f7146105db578063900b7b6214610665578063b32ca9c51461067b578063bb7fb08b1461068e578063c6c5b072146106b0578063c6ced32b146106c3578063cc6f06a3146106d6578063dc988b40146106e9578063deff41c114610714578063e2d36ef514610727578063e653ec6a1461073a578063ec1847b61461074d578063ef9cb4741461076c578063f20e56ec1461078d578063f2fde38b146107a0578063f4efa24c146107bf578063ff266d26146107de575b600080fd5b34156101b857600080fd5b6101de600160a060020a036004351660243560443560ff6064351660843560a4356107fd565b60405190815260200160405180910390f35b34156101fb57600080fd5b6102d360048035600160a060020a03169060446024803590810190830135806020601f8201819004810201604051908101604052818152929190602084018383808284378201915050505050509190803590602001908201803590602001908080601f01602080910402602001604051908101604052818152929190602084018383808284378201915050505050509190803590602001908201803590602001908080601f016020809104026020016040519081016040528181529291906020840183838082843750949650610b5b95505050505050565b604051901515815260200160405180910390f35b34156102f257600080fd5b6102d3610ffe565b341561030557600080fd5b61031f600160a060020a036004358116906024351661110b565b6040518087600481111561032f57fe5b60ff168152602081019690965250604080860194909452600160a060020a039092166060850152608084015260a083015260c090910191505180910390f35b341561037957600080fd5b6102d3600160a060020a0360043516602435611187565b341561039b57600080fd5b6103af600160a060020a0360043516611490565b60405197885260208801969096526040808801959095526060870193909352608086019190915260a085015260c0840152600160a060020a0390911660e0830152610100909101905180910390f35b341561040957600080fd5b6104146004356114dc565b604051600160a060020a03909116815260200160405180910390f35b341561043b57600080fd5b6101de600160a060020a0360043516611504565b341561045a57600080fd5b6102d3600160a060020a0360043581169060243516611522565b341561047f57600080fd5b6101de600160a060020a0360043516611562565b341561049e57600080fd5b6101de611574565b34156104b157600080fd5b6102d3600160a060020a0360043516602435611579565b34156104d357600080fd5b6101de611754565b34156104e657600080fd5b6102d3600160a060020a036004351660243561175a565b341561050857600080fd5b61031f600160a060020a036004358116906024351661198a565b341561052d57600080fd5b6102d360048035600160a060020a031690604460248035908101908301358060208082020160405190810160405280939291908181526020018383602002808284375094965050509235600160a060020a031692506119d8915050565b341561059557600080fd5b6102d3600160a060020a0360043516611a41565b34156105b457600080fd5b6101de611b21565b34156105c757600080fd5b6102d3600160a060020a0360043516611b27565b34156105e657600080fd5b6105ee611cc4565b60405160208082528190810183818151815260200191508051906020019080838360005b8381101561062a578082015183820152602001610612565b50505050905090810190601f1680156106575780820380516001836020036101000a031916815260200191505b509250505060405180910390f35b341561067057600080fd5b610414600435611d62565b341561068657600080fd5b610414611d8e565b341561069957600080fd5b610414600160a060020a0360043516602435611d9d565b34156106bb57600080fd5b6101de611de0565b34156106ce57600080fd5b6101de611de6565b34156106e157600080fd5b6101de611ded565b34156106f457600080fd5b6102d3600160a060020a0360043581169060243581169060443516611df3565b341561071f57600080fd5b610414611fe6565b341561073257600080fd5b6101de611ff5565b341561074557600080fd5b6102d3611ffb565b341561075857600080fd5b6101de600160a060020a03600435166120c0565b341561077757600080fd5b61078b600435602435604435606435612110565b005b341561079857600080fd5b6101de6121c4565b34156107ab57600080fd5b61078b600160a060020a03600435166121c9565b34156107ca57600080fd5b6103af600160a060020a0360043516612257565b34156107e957600080fd5b6102d3600160a060020a03600435166122a9565b600160a060020a0386166000908152600d602052604081206005810154829042111561082857600080fd5b600189600160a060020a031663e329c4786040518163ffffffff1660e060020a028152600401602060405180830381600087803b151561086757600080fd5b5af1151561087457600080fd5b50505060405180519050600481111561088957fe5b1461089357600080fd5b50600160a060020a038089166000908152600e60209081526040808320339094168352929052208715156108c657600080fd5b8615156108d257600080fd5b6003810154600160a060020a0316156109a157600188886040517f19457468657265756d205369676e6564204d6573736167653a0a3634000000008152601c810192909252603c820152605c0160405180910390208787876040516000815260200160405260405193845260ff9092166020808501919091526040808501929092526060840192909252608090920191516020810390808403906000865af1151561097c57600080fd5b5050602060405103516003820154600160a060020a039081169116146109a157600080fd5b6001815460ff1660048111156109b357fe5b146109bd57600080fd5b805460ff1916600290811782556001820189905580820188905554600160a060020a0316638c0f8e113360405160e060020a63ffffffff8416028152600160a060020a039091166004820152602401602060405180830381600087803b1515610a2557600080fd5b5af11515610a3257600080fd5b505050604051805160048301555060078201805460018101610a548382612c7d565b5060009182526020909120018054600160a060020a03191633600160a060020a03818116929092179092556002546001850154911691638981d077918c919060405160e060020a63ffffffff8616028152600160a060020a0393841660048201529190921660248201526044810191909152606401602060405180830381600087803b1515610ae257600080fd5b5af11515610aef57600080fd5b505050604051805190501515610b0457600080fd5b33600160a060020a031689600160a060020a03167f1593a9a000265660fd299c9f8c9bbacfeb4d428861542e6c44b68615324225d48a60405190815260200160405180910390a35060010154979650505050505050565b60008054819033600160a060020a03908116911614610b7957600080fd5b50600160a060020a0385166000908152600d602052604090206005810154421115610ba357600080fd5b42816003015411158015610bbb575060008160040154115b80610bcd575080600601548160040154145b1515610bd857600080fd5b610cb48682610120604051908101604052908160008201548152602001600182015481526020016002820154600019166000191681526020016003820154815260200160048201548152602001600582015481526020016006820154815260200160078201805480602002602001604051908101604052809291908181526020018280548015610c9157602002820191906000526020600020905b8154600160a060020a03168152600190910190602001808311610c73575b505050918352505060089190910154600160a060020a031660209091015261246b565b1515610cbf57600080fd5b600254600160a060020a031663b6b57ebd878787876040518563ffffffff1660e060020a0281526004018085600160a060020a0316600160a060020a03168152602001806020018060200180602001848103845287818151815260200191508051906020019080838360005b83811015610d43578082015183820152602001610d2b565b50505050905090810190601f168015610d705780820380516001836020036101000a031916815260200191505b50848103835286818151815260200191508051906020019080838360005b83811015610da6578082015183820152602001610d8e565b50505050905090810190601f168015610dd35780820380516001836020036101000a031916815260200191505b50848103825285818151815260200191508051906020019080838360005b83811015610e09578082015183820152602001610df1565b50505050905090810190601f168015610e365780820380516001836020036101000a031916815260200191505b50975050505050505050602060405180830381600087803b1515610e5957600080fd5b5af11515610e6657600080fd5b505050604051805190501515610e7b57600080fd5b85600160a060020a03167f4bfecaabd22e1b95e9aa9eb161b19f645b3460e7533d5e0f6349faf8dc0a724486868660405180806020018060200180602001848103845287818151815260200191508051906020019080838360005b83811015610eee578082015183820152602001610ed6565b50505050905090810190601f168015610f1b5780820380516001836020036101000a031916815260200191505b50848103835286818151815260200191508051906020019080838360005b83811015610f51578082015183820152602001610f39565b50505050905090810190601f168015610f7e5780820380516001836020036101000a031916815260200191505b50848103825285818151815260200191508051906020019080838360005b83811015610fb4578082015183820152602001610f9c565b50505050905090810190601f168015610fe15780820380516001836020036101000a031916815260200191505b50965050505050505060405180910390a250600195945050505050565b6002546000908190600160a060020a031663b218cf153360405160e060020a63ffffffff8416028152600160a060020a039091166004820152602401602060405180830381600087803b151561105357600080fd5b5af1151561106057600080fd5b50505060405180519050151561107557600080fd5b600b8054600181016110878382612c7d565b60009283526020909220018054600160a060020a03191633600160a060020a031617905590506110b88160016128e0565b600160a060020a0333166000818152600c60205260409081902092909255907f67799bb3ec4a3491a0c1c4e6d02ec99927df7ba7fa268c216672c0c5ecc1e8f8905160405180910390a2600191505b5090565b60008060008060008060006111208989611522565b151561112b57600080fd5b50505050600160a060020a039485166000908152600e602090815260408083209688168352959052939093208054600182015460028301546003840154600485015460059095015460ff90941699929891975016945091925090565b6000805481908190819033600160a060020a039081169116146111a957600080fd5b600160a060020a0386166000908152600d6020526040902060058101549093504211156111d557600080fd5b85600160a060020a0316632d4d671f6040518163ffffffff1660e060020a028152600401602060405180830381600087803b151561121257600080fd5b5af1151561121f57600080fd5b50505060405180519050151561123457600080fd5b60006006840181905591505b6007830154821015611300576007830180548390811061125c57fe5b6000918252602080832090910154600160a060020a038981168452600e8352604080852091909216808552925290912060010154909150851480156112d457506002600160a060020a038088166000908152600e602090815260408083209386168352929052205460ff1660048111156112d257fe5b145b156112f55760068301546112ef90600163ffffffff6128f216565b60068401555b816001019150611240565b60068301546000901161131257600080fd5b6002808401869055805460045461144292429261143692600160a060020a0391821691631f87172691811690634cfddcfb908e1663ecc40f646040518163ffffffff1660e060020a028152600401602060405180830381600087803b151561137957600080fd5b5af1151561138657600080fd5b5050506040518051905060405160e060020a63ffffffff84160281526004810191909152602401602060405180830381600087803b15156113c657600080fd5b5af115156113d357600080fd5b5050506040518051905060405160e060020a63ffffffff84160281526004810191909152602401602060405180830381600087803b151561141357600080fd5b5af1151561142057600080fd5b505050604051805191905063ffffffff61290c16565b9063ffffffff6128f216565b6003840155600160a060020a0386167fa1b9f527f9799a46d54103401c99dc62f3744afe1d095a1c53620758dc38b2868660405190815260200160405180910390a250600195945050505050565b600d6020526000908152604090208054600182015460028301546003840154600485015460058601546006870154600890970154959694959394929391929091600160a060020a031688565b600b8054829081106114ea57fe5b600091825260209091200154600160a060020a0316905081565b600160a060020a03166000908152600d602052604090206007015490565b600080600160a060020a038085166000908152600e602090815260408083209387168352929052205460ff16600481111561155957fe5b14159392505050565b600c6020526000908152604090205481565b600a81565b600160a060020a0382166000908152600d60205260408120600581015482904211156115a457600080fd5b50600160a060020a038085166000908152600e6020908152604080832033909416835292905220600285600160a060020a031663e329c4786040518163ffffffff1660e060020a028152600401602060405180830381600087803b151561160a57600080fd5b5af1151561161757600080fd5b50505060405180519050600481111561162c57fe5b1461163657600080fd5b600382015442901161164757600080fd5b6002815460ff16600481111561165957fe5b1461166357600080fd5b600282015460018201541461167757600080fd5b8360405190815260200160405190819003902060018201541461169957600080fd5b33604051600160a060020a03919091166c01000000000000000000000000028152601401604051809103902084186040519081526020016040519081900390206002820154146116e857600080fd5b805460ff1916600317815560048201546117039060016128f2565b6004830155600160a060020a033381169086167f4f5df7005a83b6f11e90ead1268eb534656169a5034e8d239c763471294be3d58660405190815260200160405180910390a3506001949350505050565b60095481565b60015460009081908190819033600160a060020a0390811691161461177e57600080fd5b600454600160a060020a0316634cfddcfb8660405160e060020a63ffffffff84160281526004810191909152602401602060405180830381600087803b15156117c657600080fd5b5af115156117d357600080fd5b50505060405180516002549094506118349150429061143690600a90600160a060020a0316631f8717268860405160e060020a63ffffffff84160281526004810191909152602401602060405180830381600087803b151561141357600080fd5b600160a060020a038088166000908152600d60205260409081902060045493955093509116906338c4090b9087905160e060020a63ffffffff84160281526004810191909152602401602060405180830381600087803b151561189657600080fd5b5af115156118a357600080fd5b5050506040518051825550600454600160a060020a03166355d66c3e8660405160e060020a63ffffffff84160281526004810191909152602401602060405180830381600087803b15156118f657600080fd5b5af1151561190357600080fd5b5050506040518051600883018054600160a060020a031916600160a060020a039290921691909117905550600654815461193c91612937565b600182015560058101829055600160a060020a0386167f9c081174ce28e85a62530b1102b0df58428b8da5027e81fbb4984aa1dc03310760405160405180910390a250600195945050505050565b600e60209081526000928352604080842090915290825290208054600182015460028301546003840154600485015460059095015460ff9094169492939192600160a060020a039091169186565b60008054819033600160a060020a039081169116146119f657600080fd5b5060005b8351811015611a3657611a2385858381518110611a1357fe5b9060200190602002015185611df3565b1515611a2e57600080fd5b6001016119fa565b506001949350505050565b6000805433600160a060020a03908116911614611a5d57600080fd5b600254600160a060020a031663835436b48360405160e060020a63ffffffff8416028152600160a060020a039091166004820152602401602060405180830381600087803b1515611aad57600080fd5b5af11515611aba57600080fd5b505050604051805190501515611acf57600080fd5b611ad88261294c565b1515611ae357600080fd5b81600160a060020a03167fb22288215ec8cbd28148d7ffa053c6e6e23c62b58d0eb71a6387b59fad33a01960405160405180910390a2506001919050565b60075481565b60015460009081908190819033600160a060020a03908116911614611b4b57600080fd5b600160a060020a0385166000908152600d6020526040902060058101549093504211611b7657600080fd5b600091505b6007830154821015611c835760078301805483908110611b9757fe5b600091825260209091200154600160a060020a031690506001600160a060020a038087166000908152600e602090815260408083209386168352929052205460ff166004811115611be457fe5b14611c78576002546001840154600160a060020a0390911690636b4f6865908790849060405160e060020a63ffffffff8616028152600160a060020a0393841660048201529190921660248201526044810191909152606401602060405180830381600087803b1515611c5657600080fd5b5af11515611c6357600080fd5b505050604051805190501515611c7857600080fd5b816001019150611b7b565b84600160a060020a03167f8d8d47a5d5034ce9c01a2308543fdaa83d60863e4b735b7d57361987cdc8ed9460405160405180910390a2506001949350505050565b60058054600181600116156101000203166002900480601f016020809104026020016040519081016040528092919081815260200182805460018160011615610100020316600290048015611d5a5780601f10611d2f57610100808354040283529160200191611d5a565b820191906000526020600020905b815481529060010190602001808311611d3d57829003601f168201915b505050505081565b6000600b82815481101515611d7357fe5b600091825260209091200154600160a060020a031692915050565b600f54600160a060020a031681565b600160a060020a0382166000908152600d60205260408120600701805483908110611dc457fe5b600091825260209091200154600160a060020a03169392505050565b60065481565b600b545b90565b600a5481565b60008054819081908190819033600160a060020a03908116911614611e1757600080fd5b600188600160a060020a031663e329c4786040518163ffffffff1660e060020a028152600401602060405180830381600087803b1515611e5657600080fd5b5af11515611e6357600080fd5b505050604051805190506004811115611e7857fe5b14611e8257600080fd5b600160a060020a038089166000818152600e60209081526040808320948c168352938152838220928252600d90529190912060058101549195509350421115611eca57600080fd5b600254600160a060020a031663f69f190c8860405160e060020a63ffffffff8416028152600160a060020a0390911660048201526024016040805180830381600087803b1515611f1957600080fd5b5af11515611f2657600080fd5b50505060405180519060200180519193509091505030600160a060020a0390811690831614611f5457600080fd5b6000845460ff166004811115611f6657fe5b14611f7057600080fd5b835460ff19166001178455600384018054600160a060020a03888116600160a060020a0319909216919091179091558781169089167f9cade22a92ceb705fefd1c03e9ac4dbbf787cd493ec63a9f2b078cbc859c06298360405190815260200160405180910390a3506001979650505050505050565b600054600160a060020a031681565b60085481565b600254600090600160a060020a0316631708d7253360405160e060020a63ffffffff8416028152600160a060020a039091166004820152602401602060405180830381600087803b151561204e57600080fd5b5af1151561205b57600080fd5b50505060405180519050151561207057600080fd5b6120793361294c565b151561208457600080fd5b33600160a060020a03167fd08d61a9c25ada3385d23554bae10e5d15c9518d4bfd27571c190558f7030f6e60405160405180910390a250600190565b600160a060020a0381166000818152600c6020526040812054600b805492939192839081106120eb57fe5b600091825260209091200154600160a060020a03161461210a57600080fd5b92915050565b60005433600160a060020a0390811691161461212b57600080fd5b7f52bb55d3097463659f724f9b420d259719787a8563b48eb82368680999bfea07600654856007548660095487600a5488604051808981526020018881526020018781526020018681526020018581526020018481526020018381526020018281526020019850505050505050505060405180910390a160648311156121b057600080fd5b600693909355600791909155600955600a55565b600281565b60005433600160a060020a039081169116146121e457600080fd5b600160a060020a03811615156121f957600080fd5b600054600160a060020a0380831691167f8be0079c531659141344cd1fd0a4f28419497f9722a3daafe3b4186f6b6457e060405160405180910390a360008054600160a060020a031916600160a060020a0392909216919091179055565b600160a060020a039081166000908152600d6020526040902080546001820154600283015460038401546004850154600586015460068701546008909701549598949793969295919490939190911690565b6000805481908190819033600160a060020a039081169116146122cb57600080fd5b600160a060020a0385166000908152600d6020526040902060058101549093504211156122f757600080fd5b4283600301541115801561230d57506004830154155b151561231857600080fd5b84600160a060020a0316631a514d976040518163ffffffff1660e060020a028152600401602060405180830381600087803b151561235557600080fd5b5af1151561236257600080fd5b50505060405180519050151561237757600080fd5b600091505b6007830154821015612415576007830180548390811061239857fe5b60009182526020808320909101546002860154600160a060020a038981168552600e84526040808620919093168086529352922060010154909250141561240a57600160a060020a038581166000908152600e60209081526040808320938516835292905220805460ff191660041790555b81600101915061237c565b600060068401819055600284018190556003840155600160a060020a0385167f631055693b4cbe13143279bc507432c42de858b6d04b3ba4e1ff3d2c88a7e52b60405160405180910390a2506001949350505050565b60008060008060008060008061247f612ca6565b6000808b5193508b60e001519250600099505b82518a101561257b57828a815181106124a757fe5b90602001906020020151600160a060020a03808f166000908152600e6020908152604080832093851683529290522090995091506003825460ff1660048111156124ed57fe5b1415612558576003820154600160a060020a0316151561250e576001612511565b60035b60ff16975061253561253089846004015461290c90919063ffffffff16565b612a30565b600101965061254a868863ffffffff6128f216565b600583018890559550612570565b61256d8c60200151859063ffffffff6128f216565b93505b896001019950612492565b6000861161258857600080fd5b6125ae6125a160075460646128e090919063ffffffff16565b859063ffffffff61293716565b9050600099505b82518a101561283c57828a815181106125ca57fe5b9060200190602002015198506003600160a060020a03808f166000908152600e60209081526040808320938e168352929052205460ff16600481111561260c57fe5b141561278e57600160a060020a03808e166000908152600e60209081526040808320938d168352929052206005015461264d9082908863ffffffff612c4916565b945061265f848663ffffffff6128e016565b9350600260009054906101000a9004600160a060020a0316600160a060020a0316636b4f68658e8b8f6020015160405160e060020a63ffffffff8616028152600160a060020a0393841660048201529190921660248201526044810191909152606401602060405180830381600087803b15156126db57600080fd5b5af115156126e857600080fd5b5050506040518051905015156126fd57600080fd5b600254600160a060020a0316630c91f2d08e8b88600160405160e060020a63ffffffff8716028152600160a060020a03948516600482015292909316602483015260448201529015156064820152608401602060405180830381600087803b151561276757600080fd5b5af1151561277457600080fd5b50505060405180519050151561278957600080fd5b612831565b600260009054906101000a9004600160a060020a0316600160a060020a0316639fdf96258e8b8f60200151600160405160e060020a63ffffffff8716028152600160a060020a03948516600482015292909316602483015260448201529015156064820152608401602060405180830381600087803b151561280f57600080fd5b5af1151561281c57600080fd5b50505060405180519050151561283157600080fd5b8960010199506125b5565b600254600160a060020a0316630c91f2d08e6101008f015187600060405160e060020a63ffffffff8716028152600160a060020a03948516600482015292909316602483015260448201529015156064820152608401602060405180830381600087803b15156128ab57600080fd5b5af115156128b857600080fd5b5050506040518051905015156128cd57600080fd5b5060019c9b505050505050505050505050565b6000828211156128ec57fe5b50900390565b60008282018381101561290157fe5b8091505b5092915050565b60008083151561291f5760009150612905565b5082820282848281151561292f57fe5b041461290157fe5b600061294583836064612c49565b9392505050565b600080600061295a846120c0565b600b80549193509061297390600163ffffffff6128e016565b8154811061297d57fe5b600091825260209091200154600b8054600160a060020a0390921692508291849081106129a657fe5b60009182526020808320919091018054600160a060020a031916600160a060020a039485161790559183168152600c90915260409020829055600b80546129ee9060016128e0565b815481106129f857fe5b60009182526020909120018054600160a060020a0319169055600b54612a2590600163ffffffff6128e016565b611a36600b82612c7d565b700100000000000000000000000000000000680100000000000000006401000000006201000061010060106004600260001989019081041790810417908104179081041790810417908104179081041790810417600101906000906040517ff8f9cbfae6cc78fbefe7cdc3a1793dfcf4f0e8bbd8cec470b6a28a7a5a3e1efd81527ff5ecf1b3e9debc68e1d9cfabc5997135bfb7a7a3938b7b606b5b4b3f2f1f0ffe60208201527ff6e4ed9ff2d6b458eadcdf97bd91692de2d4da8fd2d0ac50c6ae9a827252361660408201527fc8c0b887b0a8a4489c948c7f847c6125746c645c544c444038302820181008ff60608201527ff7cae577eec2a03cf3bad76fb589591debb2dd67e0aa9834bea6925f6a4a2e0e60808201527fe39ed557db96902cd38ed14fad815115c786af479b7e8324736353433727170760a08201527fc976c13bb96e881cb166a933a55e490d9d56952b8d4e801485467d236242260660c08201527f753a6d1b65325d0c552a4d1345224105391a310b29122104190a11030902010060e082015261010081016040527e818283848586878898a8b8c8d8e8f929395969799a9b9d9e9faaeb6bedeeff7f01000000000000000000000000000000000000000000000000000000000000008082870204818160ff038501510495507f8000000000000000000000000000000000000000000000000000000000000000851161010002860195505050505050919050565b6000612c5e612c58858561290c565b83612c66565b949350505050565b6000808284811515612c7457fe5b04949350505050565b815481835581811511612ca157600083815260209020612ca1918101908301612cb8565b505050565b60206040519081016040526000815290565b611dea91905b808211156111075760008155600101612cbe5600a165627a7a72305820ff2d27cc1146b9eb2b7159a53e32446ccdd19e7134daecbbd9cd4b6a2f66228e0029",
  "source": "pragma solidity ^0.4.21;\n\nimport './OwnableOZ.sol';\nimport './IexecHubAccessor.sol';\nimport './MarketplaceAccessor.sol';\nimport './IexecHub.sol';\nimport \"./SafeMathOZ.sol\";\nimport \"./WorkOrder.sol\";\nimport \"./Marketplace.sol\";\nimport './IexecLib.sol';\n\ncontract WorkerPool is OwnableOZ, IexecHubAccessor, MarketplaceAccessor\n{\n\tusing SafeMathOZ for uint256;\n\n\n\t/**\n\t * Members\n\t */\n\tstring                      public m_description;\n\tuint256                     public m_stakeRatioPolicy;               // % of reward to stake\n\tuint256                     public m_schedulerRewardRatioPolicy;     // % of reward given to scheduler\n\tuint256                     public m_subscriptionLockStakePolicy;    // Stake locked when in workerpool - Constant set by constructor, do not update\n\tuint256                     public m_subscriptionMinimumStakePolicy; // Minimum stake for subscribing\n\tuint256                     public m_subscriptionMinimumScorePolicy; // Minimum score for subscribing\n\taddress[]                   public m_workers;\n\tmapping(address => uint256) public m_workerIndex;\n\n\t// mapping(woid => IexecLib.Consensus)\n\tmapping(address => IexecLib.Consensus) public m_consensus;\n\t// mapping(woid => worker address => Contribution);\n\tmapping(address => mapping(address => IexecLib.Contribution)) public m_contributions;\n\n\tuint256 public constant REVEAL_PERIOD_DURATION_RATIO  = 2;\n\tuint256 public constant CONSENSUS_DURATION_RATIO      = 10;\n\n\t/**\n\t * Address of slave/related contracts\n\t */\n\taddress        public  m_workerPoolHubAddress;\n\n\n\t/**\n\t * Events\n\t */\n\tevent WorkerPoolPolicyUpdate(\n\t\tuint256 oldStakeRatioPolicy,               uint256 newStakeRatioPolicy,\n\t\tuint256 oldSchedulerRewardRatioPolicy,     uint256 newSchedulerRewardRatioPolicy,\n\t\tuint256 oldSubscriptionMinimumStakePolicy, uint256 newSubscriptionMinimumStakePolicy,\n\t\tuint256 oldSubscriptionMinimumScorePolicy, uint256 newSubscriptionMinimumScorePolicy);\n\n\tevent WorkOrderActive         (address indexed woid);\n\tevent WorkOrderClaimed        (address indexed woid);\n\n\tevent AllowWorkerToContribute (address indexed woid, address indexed worker, uint256 workerScore);\n\tevent Contribute              (address indexed woid, address indexed worker, bytes32 resultHash);\n\tevent RevealConsensus         (address indexed woid, bytes32 consensus);\n\tevent Reveal                  (address indexed woid, address indexed worker, bytes32 result);\n\tevent Reopen                  (address indexed woid);\n  event FinalizeWork            (address indexed woid, string stdout, string stderr, string uri);\n\n\n\n\tevent WorkerSubscribe         (address indexed worker);\n\tevent WorkerUnsubscribe       (address indexed worker);\n\tevent WorkerEviction          (address indexed worker);\n\n\t/**\n\t * Methods\n\t */\n\t// Constructor\n\tfunction WorkerPool(\n\t\taddress _iexecHubAddress,\n\t\tstring  _description,\n\t\tuint256 _subscriptionLockStakePolicy,\n\t\tuint256 _subscriptionMinimumStakePolicy,\n\t\tuint256 _subscriptionMinimumScorePolicy,\n\t\taddress _marketplaceAddress)\n\tIexecHubAccessor(_iexecHubAddress)\n\tMarketplaceAccessor(_marketplaceAddress)\n\tpublic\n\t{\n\t\t// tx.origin == owner\n\t\t// msg.sender ==  WorkerPoolHub\n\t\trequire(tx.origin != msg.sender);\n\t\ttransferOwnership(tx.origin); // owner  tx.origin\n\n\t\tm_description                    = _description;\n\t\tm_stakeRatioPolicy               = 30; // % of the work order price to stake\n\t\tm_schedulerRewardRatioPolicy     = 1;  // % of the work reward going to scheduler vs workers reward\n\t\tm_subscriptionLockStakePolicy    = _subscriptionLockStakePolicy; // only at creation. cannot be change to respect lock/unlock of worker stake\n\t\tm_subscriptionMinimumStakePolicy = _subscriptionMinimumStakePolicy;\n\t\tm_subscriptionMinimumScorePolicy = _subscriptionMinimumScorePolicy;\n\t\tm_workerPoolHubAddress           = msg.sender;\n\n\t}\n\n\tfunction changeWorkerPoolPolicy(\n\t\tuint256 _newStakeRatioPolicy,\n\t\tuint256 _newSchedulerRewardRatioPolicy,\n\t\tuint256 _newSubscriptionMinimumStakePolicy,\n\t\tuint256 _newSubscriptionMinimumScorePolicy)\n\tpublic onlyOwner\n\t{\n\t\temit WorkerPoolPolicyUpdate(\n\t\t\tm_stakeRatioPolicy,               _newStakeRatioPolicy,\n\t\t\tm_schedulerRewardRatioPolicy,     _newSchedulerRewardRatioPolicy,\n\t\t\tm_subscriptionMinimumStakePolicy, _newSubscriptionMinimumStakePolicy,\n\t\t\tm_subscriptionMinimumScorePolicy, _newSubscriptionMinimumScorePolicy\n\t\t);\n\t\trequire(_newSchedulerRewardRatioPolicy <= 100);\n\t\tm_stakeRatioPolicy               = _newStakeRatioPolicy;\n\t\tm_schedulerRewardRatioPolicy     = _newSchedulerRewardRatioPolicy;\n\t\tm_subscriptionMinimumStakePolicy = _newSubscriptionMinimumStakePolicy;\n\t\tm_subscriptionMinimumScorePolicy = _newSubscriptionMinimumScorePolicy;\n\t}\n\n\t/************************* worker list management **************************/\n\tfunction getWorkerAddress(uint _index) public view returns (address)\n\t{\n\t\treturn m_workers[_index];\n\t}\n\tfunction getWorkerIndex(address _worker) public view returns (uint)\n\t{\n\t\tuint index = m_workerIndex[_worker];\n\t\trequire(m_workers[index] == _worker);\n\t\treturn index;\n\t}\n\tfunction getWorkersCount() public view returns (uint)\n\t{\n\t\treturn m_workers.length;\n\t}\n\n\tfunction subscribeToPool() public returns (bool)\n\t{\n\t\t// msg.sender = worker\n\t\trequire(iexecHubInterface.registerToPool(msg.sender));\n\t\tuint index = m_workers.push(msg.sender);\n\t\tm_workerIndex[msg.sender] = index.sub(1);\n\t\temit WorkerSubscribe(msg.sender);\n\t\treturn true;\n\t}\n\n\tfunction unsubscribeFromPool() public  returns (bool)\n\t{\n\t\t// msg.sender = worker\n\t\trequire(iexecHubInterface.unregisterFromPool(msg.sender));\n\t\trequire(removeWorker(msg.sender));\n\t\temit WorkerUnsubscribe(msg.sender);\n\t\treturn true;\n\t}\n\n\tfunction evictWorker(address _worker) public onlyOwner returns (bool)\n\t{\n\t\t// msg.sender = scheduler\n\t\trequire(iexecHubInterface.evictWorker(_worker));\n\t\trequire(removeWorker(_worker));\n\t\temit WorkerEviction(_worker);\n\t\treturn true;\n\t}\n\n\tfunction removeWorker(address _worker) internal returns (bool)\n\t{\n\t\tuint index = getWorkerIndex(_worker); // fails if worker not registered\n\t\taddress lastWorker = m_workers[m_workers.length.sub(1)];\n\t\tm_workers    [index     ] = lastWorker;\n\t\tm_workerIndex[lastWorker] = index;\n\t\tdelete m_workers[m_workers.length.sub(1)];\n\t\tm_workers.length = m_workers.length.sub(1);\n\t\treturn true;\n\t}\n\n\tfunction getConsensusDetails(address _woid) public view returns (\n\t\tuint256 c_poolReward,\n\t\tuint256 c_stakeAmount,\n\t\tbytes32 c_consensus,\n\t\tuint256 c_revealDate,\n\t\tuint256 c_revealCounter,\n\t\tuint256 c_consensusTimout,\n\t\tuint256 c_winnerCount,\n\t\taddress c_workerpoolOwner)\n\t{\n\t\tIexecLib.Consensus storage consensus = m_consensus[_woid];\n\t\treturn (\n\t\t\tconsensus.poolReward,\n\t\t\tconsensus.stakeAmount,\n\t\t\tconsensus.consensus,\n\t\t\tconsensus.revealDate,\n\t\t\tconsensus.revealCounter,\n\t\t\tconsensus.consensusTimout,\n\t\t\tconsensus.winnerCount,\n\t\t\tconsensus.workerpoolOwner\n\t\t);\n\t}\n\n\tfunction getContributorsCount(address _woid) public view returns (uint256 contributorsCount)\n\t{\n\t\treturn m_consensus[_woid].contributors.length;\n\t}\n\n\tfunction getContributor(address _woid, uint256 index) public view returns (address contributor)\n\t{\n\t\treturn m_consensus[_woid].contributors[index];\n\t}\n\n\tfunction existingContribution(address _woid, address _worker) public view  returns (bool contributionExist)\n\t{\n\t\treturn m_contributions[_woid][_worker].status != IexecLib.ContributionStatusEnum.UNSET;\n\t}\n\n\tfunction getContribution(address _woid, address _worker) public view returns\n\t(\n\t\tIexecLib.ContributionStatusEnum status,\n\t\tbytes32 resultHash,\n\t\tbytes32 resultSign,\n\t\taddress enclaveChallenge,\n\t\tuint256 score,\n\t\tuint256 weight)\n\t{\n\t\trequire(existingContribution(_woid, _worker)); // no silent value returned\n\t\tIexecLib.Contribution storage contribution = m_contributions[_woid][_worker];\n\t\treturn (\n\t\t\tcontribution.status,\n\t\t\tcontribution.resultHash,\n\t\t\tcontribution.resultSign,\n\t\t\tcontribution.enclaveChallenge,\n\t\t\tcontribution.score,\n\t\t\tcontribution.weight\n\t\t);\n\t}\n\n\n\t/**************************** Works management *****************************/\n\tfunction emitWorkOrder(address _woid, uint256 _marketorderIdx) public onlyIexecHub returns (bool)\n\t{\n\t\tuint256 catid   = marketplaceInterface.getMarketOrderCategory(_marketorderIdx);\n\t\tuint256 timeout = iexecHubInterface.getCategoryWorkClockTimeRef(catid).mul(CONSENSUS_DURATION_RATIO).add(now);\n\n\t\tIexecLib.Consensus storage consensus = m_consensus[_woid];\n\t\tconsensus.poolReward      = marketplaceInterface.getMarketOrderValue(_marketorderIdx);\n\t\tconsensus.workerpoolOwner = marketplaceInterface.getMarketOrderWorkerpoolOwner(_marketorderIdx);\n\t\tconsensus.stakeAmount     = consensus.poolReward.percentage(m_stakeRatioPolicy);\n\t\tconsensus.consensusTimout = timeout;\n\n\t\temit WorkOrderActive(_woid);\n\t\treturn true;\n\t}\n\n\tfunction claimFailedConsensus(address _woid) public onlyIexecHub returns (bool)\n\t{\n\t  IexecLib.Consensus storage consensus = m_consensus[_woid];\n\t\trequire(now > consensus.consensusTimout);\n\t\tuint256 i;\n\t\taddress w;\n\t\tfor (i = 0; i < consensus.contributors.length; ++i)\n\t\t{\n\t\t\tw = consensus.contributors[i];\n\t\t\tif (m_contributions[_woid][w].status != IexecLib.ContributionStatusEnum.AUTHORIZED)\n\t\t\t{\n\t\t\t\trequire(iexecHubInterface.unlockForWork(_woid, w, consensus.stakeAmount));\n\t\t\t}\n\t\t}\n\t\temit WorkOrderClaimed(_woid);\n\t\treturn true;\n\t}\n\n\tfunction allowWorkersToContribute(address _woid, address[] _workers, address _enclaveChallenge) public onlyOwner /*onlySheduler*/ returns (bool)\n\t{\n\t\tfor (uint i = 0; i < _workers.length; ++i)\n\t\t{\n\t\t\trequire(allowWorkerToContribute(_woid, _workers[i], _enclaveChallenge));\n\t\t}\n\t\treturn true;\n\t}\n\n\tfunction allowWorkerToContribute(address _woid, address _worker, address _enclaveChallenge) public onlyOwner /*onlySheduler*/ returns (bool)\n\t{\n\t\trequire(WorkOrder(_woid).m_status() == IexecLib.WorkOrderStatusEnum.ACTIVE);\n\t\tIexecLib.Contribution storage contribution = m_contributions[_woid][_worker];\n\t\tIexecLib.Consensus    storage consensus    = m_consensus[_woid];\n\t\trequire(now <= consensus.consensusTimout);\n\n\t\taddress workerPool;\n\t\tuint256 workerScore;\n\t\t(workerPool, workerScore) = iexecHubInterface.getWorkerStatus(_worker); // workerPool, workerScore\n\t\trequire(workerPool == address(this));\n\n\t\trequire(contribution.status == IexecLib.ContributionStatusEnum.UNSET);\n\t\tcontribution.status           = IexecLib.ContributionStatusEnum.AUTHORIZED;\n\t\tcontribution.enclaveChallenge = _enclaveChallenge;\n\n\t\temit AllowWorkerToContribute(_woid, _worker, workerScore);\n\t\treturn true;\n\t}\n\n\tfunction contribute(address _woid, bytes32 _resultHash, bytes32 _resultSign, uint8 _v, bytes32 _r, bytes32 _s) public returns (uint256 workerStake)\n\t{\n\t\tIexecLib.Consensus    storage consensus    = m_consensus[_woid];\n\t\trequire(now <= consensus.consensusTimout);\n\t\trequire(WorkOrder(_woid).m_status() == IexecLib.WorkOrderStatusEnum.ACTIVE); // can't contribute on a claimed or completed workorder\n\t\tIexecLib.Contribution storage contribution = m_contributions[_woid][msg.sender];\n\n\t\t// msg.sender = a worker\n\t\trequire(_resultHash != 0x0);\n\t\trequire(_resultSign != 0x0);\n\t\tif (contribution.enclaveChallenge != address(0))\n\t\t{\n\t\t\trequire(contribution.enclaveChallenge == ecrecover(keccak256(\"\\x19Ethereum Signed Message:\\n64\", _resultHash, _resultSign), _v, _r, _s));\n\t\t}\n\n\t\trequire(contribution.status == IexecLib.ContributionStatusEnum.AUTHORIZED);\n\t\tcontribution.status     = IexecLib.ContributionStatusEnum.CONTRIBUTED;\n\t\tcontribution.resultHash = _resultHash;\n\t\tcontribution.resultSign = _resultSign;\n\t\tcontribution.score      = iexecHubInterface.getWorkerScore(msg.sender);\n\t\tconsensus.contributors.push(msg.sender);\n\n\t\trequire(iexecHubInterface.lockForWork(_woid, msg.sender, consensus.stakeAmount));\n\t\temit Contribute(_woid, msg.sender, _resultHash);\n\t\treturn consensus.stakeAmount;\n\t}\n\n\tfunction revealConsensus(address _woid, bytes32 _consensus) public onlyOwner /*onlySheduler*/ returns (bool)\n\t{\n\t\tIexecLib.Consensus storage consensus = m_consensus[_woid];\n\t\trequire(now <= consensus.consensusTimout);\n\t\trequire(WorkOrder(_woid).startRevealingPhase());\n\n\t\tconsensus.winnerCount = 0;\n\t\tfor (uint256 i = 0; i<consensus.contributors.length; ++i)\n\t\t{\n\t\t\taddress w = consensus.contributors[i];\n\t\t\tif (\n\t\t\t\tm_contributions[_woid][w].resultHash == _consensus\n\t\t\t\t&&\n\t\t\t\tm_contributions[_woid][w].status == IexecLib.ContributionStatusEnum.CONTRIBUTED // REJECTED contribution must not be count\n\t\t\t)\n\t\t\t{\n\t\t\t\tconsensus.winnerCount = consensus.winnerCount.add(1);\n\t\t\t}\n\t\t}\n\t\trequire(consensus.winnerCount > 0); // you cannot revealConsensus if no worker has contributed to this hash\n\n\t\tconsensus.consensus  = _consensus;\n\t\tconsensus.revealDate = iexecHubInterface.getCategoryWorkClockTimeRef(marketplaceInterface.getMarketOrderCategory(WorkOrder(_woid).m_marketorderIdx())).mul(REVEAL_PERIOD_DURATION_RATIO).add(now); // is it better to store th catid ?\n\t\temit RevealConsensus(_woid, _consensus);\n\t\treturn true;\n\t}\n\n\tfunction reveal(address _woid, bytes32 _result) public returns (bool)\n\t{\n\t\tIexecLib.Consensus    storage consensus    = m_consensus[_woid];\n\t\trequire(now <= consensus.consensusTimout);\n\t\tIexecLib.Contribution storage contribution = m_contributions[_woid][msg.sender];\n\n\t\trequire(WorkOrder(_woid).m_status() == IexecLib.WorkOrderStatusEnum.REVEALING     );\n\t\trequire(consensus.revealDate        >  now                                        );\n\t\trequire(contribution.status         == IexecLib.ContributionStatusEnum.CONTRIBUTED);\n\t\trequire(contribution.resultHash     == consensus.consensus                        );\n\t\trequire(contribution.resultHash     == keccak256(_result                        ) );\n\t\trequire(contribution.resultSign     == keccak256(_result ^ keccak256(msg.sender)) );\n\n\t\tcontribution.status     = IexecLib.ContributionStatusEnum.PROVED;\n\t\tconsensus.revealCounter = consensus.revealCounter.add(1);\n\n\t\temit Reveal(_woid, msg.sender, _result);\n\t\treturn true;\n\t}\n\n\tfunction reopen(address _woid) public onlyOwner /*onlySheduler*/ returns (bool)\n\t{\n\t\tIexecLib.Consensus storage consensus = m_consensus[_woid];\n\t\trequire(now <= consensus.consensusTimout);\n\t\trequire(consensus.revealDate <= now && consensus.revealCounter == 0);\n\t\trequire(WorkOrder(_woid).reActivate());\n\n\t\tfor (uint256 i = 0; i < consensus.contributors.length; ++i)\n\t\t{\n\t\t\taddress w = consensus.contributors[i];\n\t\t\tif (m_contributions[_woid][w].resultHash == consensus.consensus)\n\t\t\t{\n\t\t\t\tm_contributions[_woid][w].status = IexecLib.ContributionStatusEnum.REJECTED;\n\t\t\t}\n\t\t}\n\t\t// Reset to status before revealConsensus. Must be after REJECTED traitement above because of consensus.consensus check\n\t\tconsensus.winnerCount = 0;\n\t\tconsensus.consensus   = 0x0;\n\t\tconsensus.revealDate  = 0;\n\t\temit Reopen(_woid);\n\t\treturn true;\n\t}\n\n\t// if sheduler never call finalized ? no incetive to do that. schedulermust be pay also at this time\n\tfunction finalizeWork(address _woid, string _stdout, string _stderr, string _uri) public onlyOwner /*onlySheduler*/ returns (bool)\n\t{\n\t\tIexecLib.Consensus storage consensus = m_consensus[_woid];\n\t\trequire(now <= consensus.consensusTimout);\n\t\trequire((consensus.revealDate <= now && consensus.revealCounter > 0) || (consensus.revealCounter == consensus.winnerCount)); // consensus.winnerCount never 0 at this step\n\n\t\t// add penalized to the call worker to contribution and they never contribute ?\n\t\trequire(distributeRewards(_woid, consensus));\n\n\t\trequire(iexecHubInterface.finalizeWorkOrder(_woid, _stdout, _stderr, _uri));\n\t\temit FinalizeWork(_woid,_stdout,_stderr,_uri);\n\t\treturn true;\n\t}\n\n\tfunction distributeRewards(address _woid, IexecLib.Consensus _consensus) internal returns (bool)\n\t{\n\t\tuint256 i;\n\t\taddress w;\n\t\tuint256 workerBonus;\n\t\tuint256 workerWeight;\n\t\tuint256 totalWeight;\n\t\tuint256 workerReward;\n\t\tuint256 totalReward = _consensus.poolReward;\n\t\taddress[] memory contributors = _consensus.contributors;\n\t\tfor (i = 0; i<contributors.length; ++i)\n\t\t{\n\t\t\tw = contributors[i];\n\t\t\tIexecLib.Contribution storage c = m_contributions[_woid][w];\n\t\t\tif (c.status == IexecLib.ContributionStatusEnum.PROVED)\n\t\t\t{\n\t\t\t\tworkerBonus  = (c.enclaveChallenge != address(0)) ? 3 : 1; // TODO: bonus sgx = 3 ?\n\t\t\t\tworkerWeight = 1 + c.score.mul(workerBonus).log();\n\t\t\t\ttotalWeight  = totalWeight.add(workerWeight);\n\t\t\t\tc.weight     = workerWeight; // store so we don't have to recompute\n\t\t\t}\n\t\t\telse // ContributionStatusEnum.REJECT or ContributionStatusEnum.CONTRIBUTED (not revealed)\n\t\t\t{\n\t\t\t\ttotalReward = totalReward.add(_consensus.stakeAmount);\n\t\t\t}\n\t\t}\n\t\trequire(totalWeight > 0);\n\n\t\t// compute how much is going to the workers\n\t\tuint256 workersReward = totalReward.percentage(uint256(100).sub(m_schedulerRewardRatioPolicy));\n\n\t\tfor (i = 0; i<contributors.length; ++i)\n\t\t{\n\t\t\tw = contributors[i];\n\t\t\tif (m_contributions[_woid][w].status == IexecLib.ContributionStatusEnum.PROVED)\n\t\t\t{\n\t\t\t\tworkerReward = workersReward.mulByFraction(m_contributions[_woid][w].weight, totalWeight);\n\t\t\t\ttotalReward  = totalReward.sub(workerReward);\n\t\t\t\trequire(iexecHubInterface.unlockForWork(_woid, w, _consensus.stakeAmount));\n\t\t\t\trequire(iexecHubInterface.rewardForWork(_woid, w, workerReward, true));\n\t\t\t}\n\t\t\telse // WorkStatusEnum.POCO_REJECT or ContributionStatusEnum.CONTRIBUTED (not revealed)\n\t\t\t{\n\t\t\t\trequire(iexecHubInterface.seizeForWork(_woid, w, _consensus.stakeAmount, true));\n\t\t\t\t// No Reward\n\t\t\t}\n\t\t}\n\t\t// totalReward now contains the scheduler share\n\t\trequire(iexecHubInterface.rewardForWork(_woid, _consensus.workerpoolOwner, totalReward, false));\n\n\t\treturn true;\n\t}\n\n}\n",
  "sourcePath": "/Users/fbranci/iexecdev/PoCo/contracts/WorkerPool.sol",
  "compiler": {
    "name": "solc",
    "version": "0.4.21+commit.dfe3193c.Emscripten.clang"
  },
  "schemaVersion": "2.0.0",
  "updatedAt": "2018-04-12T18:32:30.799Z"
}