{
  "contractName": "WorkOrder",
  "abi": [
    {
      "constant": true,
      "inputs": [],
      "name": "m_workerpool",
      "outputs": [
        {
          "name": "",
          "type": "address"
        }
      ],
      "payable": false,
      "stateMutability": "view",
      "type": "function"
    },
    {
      "constant": true,
      "inputs": [],
      "name": "m_category",
      "outputs": [
        {
          "name": "",
          "type": "uint256"
        }
      ],
      "payable": false,
      "stateMutability": "view",
      "type": "function"
    },
    {
      "constant": true,
      "inputs": [],
      "name": "m_params",
      "outputs": [
        {
          "name": "",
          "type": "string"
        }
      ],
      "payable": false,
      "stateMutability": "view",
      "type": "function"
    },
    {
      "constant": true,
      "inputs": [],
      "name": "m_workerpoolOwner",
      "outputs": [
        {
          "name": "",
          "type": "address"
        }
      ],
      "payable": false,
      "stateMutability": "view",
      "type": "function"
    },
    {
      "constant": true,
      "inputs": [],
      "name": "m_trust",
      "outputs": [
        {
          "name": "",
          "type": "uint256"
        }
      ],
      "payable": false,
      "stateMutability": "view",
      "type": "function"
    },
    {
      "constant": true,
      "inputs": [],
      "name": "m_value",
      "outputs": [
        {
          "name": "",
          "type": "uint256"
        }
      ],
      "payable": false,
      "stateMutability": "view",
      "type": "function"
    },
    {
      "constant": true,
      "inputs": [],
      "name": "m_requester",
      "outputs": [
        {
          "name": "",
          "type": "address"
        }
      ],
      "payable": false,
      "stateMutability": "view",
      "type": "function"
    },
    {
      "constant": true,
      "inputs": [],
      "name": "m_app",
      "outputs": [
        {
          "name": "",
          "type": "address"
        }
      ],
      "payable": false,
      "stateMutability": "view",
      "type": "function"
    },
    {
      "constant": true,
      "inputs": [],
      "name": "m_dataset",
      "outputs": [
        {
          "name": "",
          "type": "address"
        }
      ],
      "payable": false,
      "stateMutability": "view",
      "type": "function"
    },
    {
      "constant": true,
      "inputs": [],
      "name": "m_emitcost",
      "outputs": [
        {
          "name": "",
          "type": "uint256"
        }
      ],
      "payable": false,
      "stateMutability": "view",
      "type": "function"
    },
    {
      "constant": true,
      "inputs": [],
      "name": "m_uri",
      "outputs": [
        {
          "name": "",
          "type": "string"
        }
      ],
      "payable": false,
      "stateMutability": "view",
      "type": "function"
    },
    {
      "constant": true,
      "inputs": [],
      "name": "m_stdout",
      "outputs": [
        {
          "name": "",
          "type": "string"
        }
      ],
      "payable": false,
      "stateMutability": "view",
      "type": "function"
    },
    {
      "constant": true,
      "inputs": [],
      "name": "m_iexecHubAddress",
      "outputs": [
        {
          "name": "",
          "type": "address"
        }
      ],
      "payable": false,
      "stateMutability": "view",
      "type": "function"
    },
    {
      "constant": true,
      "inputs": [],
      "name": "m_callback",
      "outputs": [
        {
          "name": "",
          "type": "address"
        }
      ],
      "payable": false,
      "stateMutability": "view",
      "type": "function"
    },
    {
      "constant": true,
      "inputs": [],
      "name": "m_status",
      "outputs": [
        {
          "name": "",
          "type": "uint8"
        }
      ],
      "payable": false,
      "stateMutability": "view",
      "type": "function"
    },
    {
      "constant": true,
      "inputs": [],
      "name": "m_stderr",
      "outputs": [
        {
          "name": "",
          "type": "string"
        }
      ],
      "payable": false,
      "stateMutability": "view",
      "type": "function"
    },
    {
      "constant": true,
      "inputs": [],
      "name": "m_beneficiary",
      "outputs": [
        {
          "name": "",
          "type": "address"
        }
      ],
      "payable": false,
      "stateMutability": "view",
      "type": "function"
    },
    {
      "inputs": [
        {
          "name": "_commonOrder",
          "type": "uint256[3]"
        },
        {
          "name": "_poolOrder_workerpool",
          "type": "address"
        },
        {
          "name": "_poolOrder_workerpoolOwner",
          "type": "address"
        },
        {
          "name": "_userOrder",
          "type": "address[5]"
        },
        {
          "name": "_userOrder_params",
          "type": "string"
        },
        {
          "name": "_emitcost",
          "type": "uint256"
        }
      ],
      "payable": false,
      "stateMutability": "nonpayable",
      "type": "constructor"
    },
    {
      "anonymous": false,
      "inputs": [],
      "name": "WorkOrderActivated",
      "type": "event"
    },
    {
      "anonymous": false,
      "inputs": [],
      "name": "WorkOrderReActivated",
      "type": "event"
    },
    {
      "anonymous": false,
      "inputs": [],
      "name": "WorkOrderRevealing",
      "type": "event"
    },
    {
      "anonymous": false,
      "inputs": [],
      "name": "WorkOrderClaimed",
      "type": "event"
    },
    {
      "anonymous": false,
      "inputs": [],
      "name": "WorkOrderCompleted",
      "type": "event"
    },
    {
      "constant": false,
      "inputs": [],
      "name": "startRevealingPhase",
      "outputs": [
        {
          "name": "",
          "type": "bool"
        }
      ],
      "payable": false,
      "stateMutability": "nonpayable",
      "type": "function"
    },
    {
      "constant": false,
      "inputs": [],
      "name": "reActivate",
      "outputs": [
        {
          "name": "",
          "type": "bool"
        }
      ],
      "payable": false,
      "stateMutability": "nonpayable",
      "type": "function"
    },
    {
      "constant": false,
      "inputs": [],
      "name": "claim",
      "outputs": [],
      "payable": false,
      "stateMutability": "nonpayable",
      "type": "function"
    },
    {
      "constant": false,
      "inputs": [
        {
          "name": "_stdout",
          "type": "string"
        },
        {
          "name": "_stderr",
          "type": "string"
        },
        {
          "name": "_uri",
          "type": "string"
        }
      ],
      "name": "setResult",
      "outputs": [],
      "payable": false,
      "stateMutability": "nonpayable",
      "type": "function"
    }
  ],
  "bytecode": "0x6060604052341561000f57600080fd5b604051610ded380380610ded83398101604052806060810180519190602001805191602082019160c001805182019190602001805160108054600160a060020a03191633600160a060020a03161790556000805460ff191660011790559150869050516001556020860151600255604086015160035560048054600160a060020a03878116600160a060020a0319928316179092556005805492871692909116919091179055825160068054600160a060020a031916600160a060020a0392909216919091179055826001602002015160078054600160a060020a031916600160a060020a0392909216919091179055826002602002015160088054600160a060020a031916600160a060020a0392909216919091179055826003602002015160098054600160a060020a031916600160a060020a03929092169190911790558260046020020151600a8054600160a060020a031916600160a060020a0392909216919091179055600b82805161018a929160200190610199565b50600c55506102349350505050565b828054600181600116156101000203166002900490600052602060002090601f016020900481019282601f106101da57805160ff1916838001178555610207565b82800160010185558215610207579182015b828111156102075782518255916020019190600101906101ec565b50610213929150610217565b5090565b61023191905b80821115610213576000815560010161021d565b90565b610baa806102436000396000f30060606040526004361061011c5763ffffffff7c01000000000000000000000000000000000000000000000000000000006000350416630690e5b88114610121578063143c43ce1461015057806315298c77146101755780631a514d97146101ff5780632d4d671f146102265780632e2a9ca114610239578063428da35d1461024c57806349e587b61461025f5780634e71d92d146102725780635f44910c146102875780636946f6921461029a57806371a599ca146102ad5780638628aaff146102c05780639c4a8561146102d3578063cc3a2dfa146102e6578063d3a69e01146102f9578063d5fdfdbc1461030c578063da1fea28146103e1578063e329c478146103f4578063f3859f571461042b578063f6a5b13e1461043e575b600080fd5b341561012c57600080fd5b610134610451565b604051600160a060020a03909116815260200160405180910390f35b341561015b57600080fd5b610163610460565b60405190815260200160405180910390f35b341561018057600080fd5b610188610466565b60405160208082528190810183818151815260200191508051906020019080838360005b838110156101c45780820151838201526020016101ac565b50505050905090810190601f1680156101f15780820380516001836020036101000a031916815260200191505b509250505060405180910390f35b341561020a57600080fd5b610212610504565b604051901515815260200160405180910390f35b341561023157600080fd5b61021261057f565b341561024457600080fd5b6101346105f9565b341561025757600080fd5b610163610608565b341561026a57600080fd5b61016361060e565b341561027d57600080fd5b610285610614565b005b341561029257600080fd5b6101346106a4565b34156102a557600080fd5b6101346106b3565b34156102b857600080fd5b6101346106c2565b34156102cb57600080fd5b6101636106d1565b34156102de57600080fd5b6101886106d7565b34156102f157600080fd5b610188610742565b341561030457600080fd5b6101346107ad565b341561031757600080fd5b61028560046024813581810190830135806020601f8201819004810201604051908101604052818152929190602084018383808284378201915050505050509190803590602001908201803590602001908080601f01602080910402602001604051908101604052818152929190602084018383808284378201915050505050509190803590602001908201803590602001908080601f0160208091040260200160405190810160405281815292919060208401838380828437509496506107bc95505050505050565b34156103ec57600080fd5b610134610a54565b34156103ff57600080fd5b610407610a63565b6040518082600481111561041757fe5b60ff16815260200191505060405180910390f35b341561043657600080fd5b610188610a6c565b341561044957600080fd5b610134610ad7565b600454600160a060020a031681565b60015481565b600b8054600181600116156101000203166002900480601f0160208091040260200160405190810160405280929190818152602001828054600181600116156101000203166002900480156104fc5780601f106104d1576101008083540402835291602001916104fc565b820191906000526020600020905b8154815290600101906020018083116104df57829003601f168201915b505050505081565b60045460009033600160a060020a0390811691161461052257600080fd5b600260005460ff16600481111561053557fe5b1461053f57600080fd5b6000805460ff191660011790557f06c42818c4ab74dff6aec55942f601c2e9b7f2aa4321ee71690b125eacfe465460405160405180910390a15060015b90565b60045460009033600160a060020a0390811691161461059d57600080fd5b600160005460ff1660048111156105b057fe5b146105ba57600080fd5b6000805460ff191660021790557f2b0cab0be6d82b2661b3b789c540ec9c7223aac635ac8e59a1e71e1137f2dd7760405160405180910390a150600190565b600554600160a060020a031681565b60025481565b60035481565b60105433600160a060020a0390811691161461062f57600080fd5b600160005460ff16600481111561064257fe5b148061065e5750600260005460ff16600481111561065c57fe5b145b151561066957600080fd5b6000805460ff191660031790557f1938697ee29e363ecda49e464c6d2aae25f0974bd1f2c81a91c21e13ad8dbf7760405160405180910390a1565b600a54600160a060020a031681565b600654600160a060020a031681565b600754600160a060020a031681565b600c5481565b600f8054600181600116156101000203166002900480601f0160208091040260200160405190810160405280929190818152602001828054600181600116156101000203166002900480156104fc5780601f106104d1576101008083540402835291602001916104fc565b600d8054600181600116156101000203166002900480601f0160208091040260200160405190810160405280929190818152602001828054600181600116156101000203166002900480156104fc5780601f106104d1576101008083540402835291602001916104fc565b601054600160a060020a031681565b60105433600160a060020a039081169116146107d757600080fd5b600260005460ff1660048111156107ea57fe5b146107f457600080fd5b6000805460ff19166004179055600d838051610814929160200190610ae6565b50600e828051610828929160200190610ae6565b50600f81805161083c929160200190610ae6565b50600854600160a060020a031615610a2357600854600160a060020a031663514d7067308585856040518563ffffffff167c01000000000000000000000000000000000000000000000000000000000281526004018085600160a060020a0316600160a060020a03168152602001806020018060200180602001848103845287818151815260200191508051906020019080838360005b838110156108eb5780820151838201526020016108d3565b50505050905090810190601f1680156109185780820380516001836020036101000a031916815260200191505b50848103835286818151815260200191508051906020019080838360005b8381101561094e578082015183820152602001610936565b50505050905090810190601f16801561097b5780820380516001836020036101000a031916815260200191505b50848103825285818151815260200191508051906020019080838360005b838110156109b1578082015183820152602001610999565b50505050905090810190601f1680156109de5780820380516001836020036101000a031916815260200191505b50975050505050505050602060405180830381600087803b1515610a0157600080fd5b5af11515610a0e57600080fd5b505050604051805190501515610a2357600080fd5b7f777f59509d985349c80271b657d2649b218bc6f075a4625821b64448cc235b8660405160405180910390a1505050565b600854600160a060020a031681565b60005460ff1681565b600e8054600181600116156101000203166002900480601f0160208091040260200160405190810160405280929190818152602001828054600181600116156101000203166002900480156104fc5780601f106104d1576101008083540402835291602001916104fc565b600954600160a060020a031681565b828054600181600116156101000203166002900490600052602060002090601f016020900481019282601f10610b2757805160ff1916838001178555610b54565b82800160010185558215610b54579182015b82811115610b54578251825591602001919060010190610b39565b50610b60929150610b64565b5090565b61057c91905b80821115610b605760008155600101610b6a5600a165627a7a7230582072e226241633e8f8a10bad358190bf218bbdad324081ca0d24dd6c952cea60c00029",
  "source": "pragma solidity ^0.4.21;\n\nimport './IexecCallbackInterface.sol';\nimport './IexecLib.sol';\ncontract WorkOrder\n{\n\n\n\tevent WorkOrderActivated();\n\tevent WorkOrderReActivated();\n\tevent WorkOrderRevealing();\n\tevent WorkOrderClaimed  ();\n\tevent WorkOrderCompleted();\n\n\t/**\n\t * Members\n\t */\n\tIexecLib.WorkOrderStatusEnum public m_status;\n\n\tuint256 public m_category;\n\tuint256 public m_trust;\n\tuint256 public m_value;\n\n\taddress public m_workerpool;\n\taddress public m_workerpoolOwner;\n\n\taddress public m_app;\n\taddress public m_dataset;\n\taddress public m_callback;\n\taddress public m_beneficiary;\n\taddress public m_requester;\n\tstring  public m_params;\n\n\tuint256 public m_emitcost;\n\n\tstring  public m_stdout;\n\tstring  public m_stderr;\n\tstring  public m_uri;\n\n\taddress public m_iexecHubAddress;\n\n\tmodifier onlyIexecHub()\n\t{\n\t\trequire(msg.sender == m_iexecHubAddress);\n\t\t_;\n\t}\n\n\t/**\n\t * Constructor\n\t */\n\tfunction WorkOrder(\n\t\t/********** Order settings **********/\n\t\tuint256[3] _commonOrder,\n\t\t/* uint256 _commonOrder_category, */\n\t\t/* uint256 _commonOrder_trust, */\n\t\t/* uint256 _commonOrder_value, */\n\t\t/********** Pool settings **********/\n\t\t/* uint256 _poolOrder_volume, */ // NOT NEEDED\n\t\taddress _poolOrder_workerpool,\n\t\taddress _poolOrder_workerpoolOwner,\n\t\t/********** User settings **********/\n\t\taddress[5] _userOrder,\n\t\t/* address _userOrder_app, */\n\t\t/* address _userOrder_dataset, */\n\t\t/* address _userOrder_callback, */\n\t\t/* address _userOrder_beneficiary, */\n\t\t/* address _userOrder_requester, */\n\t\tstring  _userOrder_params,\n\t\t/********** Extra **********/\n\t\tuint256 _emitcost)\n\tpublic\n\t{\n\t\tm_iexecHubAddress = msg.sender;\n\t\tm_status          = IexecLib.WorkOrderStatusEnum.ACTIVE;\n\t\tm_category        = _commonOrder[0];\n\t\tm_trust           = _commonOrder[1];\n\t\tm_value           = _commonOrder[2];\n\t\tm_workerpool      = _poolOrder_workerpool;\n\t\tm_workerpoolOwner = _poolOrder_workerpoolOwner;\n\t\tm_app             = _userOrder[0];\n\t\tm_dataset         = _userOrder[1];\n\t\tm_callback        = _userOrder[2];\n\t\tm_beneficiary     = _userOrder[3];\n\t\tm_requester       = _userOrder[4];\n\t\tm_params          = _userOrder_params;\n\t\tm_emitcost        = _emitcost;\n\t}\n\n\tfunction startRevealingPhase() public returns (bool)\n\t{\n\t\trequire(m_workerpool == msg.sender);\n\t\trequire(m_status == IexecLib.WorkOrderStatusEnum.ACTIVE);\n\t\tm_status = IexecLib.WorkOrderStatusEnum.REVEALING;\n\t\temit WorkOrderRevealing();\n\t\treturn true;\n\t}\n\n\tfunction reActivate() public returns (bool)\n\t{\n\t\trequire(m_workerpool == msg.sender);\n\t\trequire(m_status == IexecLib.WorkOrderStatusEnum.REVEALING);\n\t\tm_status = IexecLib.WorkOrderStatusEnum.ACTIVE;\n\t\temit WorkOrderReActivated();\n\t\treturn true;\n\t}\n\n\n\tfunction claim() public onlyIexecHub\n\t{\n\t\trequire(m_status == IexecLib.WorkOrderStatusEnum.ACTIVE || m_status == IexecLib.WorkOrderStatusEnum.REVEALING);\n\t\tm_status = IexecLib.WorkOrderStatusEnum.CLAIMED;\n\t\temit WorkOrderClaimed();\n\t}\n\n\n\tfunction setResult(string _stdout, string _stderr, string _uri) public onlyIexecHub\n\t{\n\t\trequire(m_status == IexecLib.WorkOrderStatusEnum.REVEALING);\n\t\tm_status = IexecLib.WorkOrderStatusEnum.COMPLETED;\n\t\tm_stdout = _stdout;\n\t\tm_stderr = _stderr;\n\t\tm_uri    = _uri;\n\t\tif (m_callback != address(0))\n\t\t{\n\t\t\t// optional dappCallback call can be done\n\t\t\trequire(IexecCallbackInterface(m_callback).workOrderCallback(\n\t\t\t\tthis,\n\t\t\t\t_stdout,\n\t\t\t\t_stderr,\n\t\t\t\t_uri\n\t\t\t));\n\t\t}\n\t\temit WorkOrderCompleted();\n\t}\n\n}\n",
  "sourcePath": "/home/amxx/Work/iExec/PoCo-dev/contracts/WorkOrder.sol",
  "compiler": {
    "name": "solc",
    "version": "0.4.21+commit.dfe3193c.Emscripten.clang"
  },
  "schemaVersion": "2.0.0",
  "updatedAt": "2018-04-18T13:26:11.063Z"
}