{
  "contractName": "WorkerPoolHub",
  "abi": [
    {
      "constant": true,
      "inputs": [],
      "name": "m_owner",
      "outputs": [
        {
          "name": "",
          "type": "address"
        }
      ],
      "payable": false,
      "stateMutability": "view",
      "type": "function"
    },
    {
      "constant": false,
      "inputs": [
        {
          "name": "_newOwner",
          "type": "address"
        }
      ],
      "name": "transferOwnership",
      "outputs": [],
      "payable": false,
      "stateMutability": "nonpayable",
      "type": "function"
    },
    {
      "inputs": [],
      "payable": false,
      "stateMutability": "nonpayable",
      "type": "constructor"
    },
    {
      "anonymous": false,
      "inputs": [
        {
          "indexed": true,
          "name": "previousOwner",
          "type": "address"
        },
        {
          "indexed": true,
          "name": "newOwner",
          "type": "address"
        }
      ],
      "name": "OwnershipTransferred",
      "type": "event"
    },
    {
      "constant": true,
      "inputs": [
        {
          "name": "_workerPool",
          "type": "address"
        }
      ],
      "name": "isWorkerPoolRegistered",
      "outputs": [
        {
          "name": "",
          "type": "bool"
        }
      ],
      "payable": false,
      "stateMutability": "view",
      "type": "function"
    },
    {
      "constant": true,
      "inputs": [
        {
          "name": "_owner",
          "type": "address"
        }
      ],
      "name": "getWorkerPoolsCount",
      "outputs": [
        {
          "name": "",
          "type": "uint256"
        }
      ],
      "payable": false,
      "stateMutability": "view",
      "type": "function"
    },
    {
      "constant": true,
      "inputs": [
        {
          "name": "_owner",
          "type": "address"
        },
        {
          "name": "_index",
          "type": "uint256"
        }
      ],
      "name": "getWorkerPool",
      "outputs": [
        {
          "name": "",
          "type": "address"
        }
      ],
      "payable": false,
      "stateMutability": "view",
      "type": "function"
    },
    {
      "constant": true,
      "inputs": [
        {
          "name": "_worker",
          "type": "address"
        }
      ],
      "name": "getWorkerAffectation",
      "outputs": [
        {
          "name": "workerPool",
          "type": "address"
        }
      ],
      "payable": false,
      "stateMutability": "view",
      "type": "function"
    },
    {
      "constant": false,
      "inputs": [
        {
          "name": "_description",
          "type": "string"
        },
        {
          "name": "_subscriptionLockStakePolicy",
          "type": "uint256"
        },
        {
          "name": "_subscriptionMinimumStakePolicy",
          "type": "uint256"
        },
        {
          "name": "_subscriptionMinimumScorePolicy",
          "type": "uint256"
        },
        {
          "name": "_marketplaceAddress",
          "type": "address"
        }
      ],
      "name": "createWorkerPool",
      "outputs": [
        {
          "name": "createdWorkerPool",
          "type": "address"
        }
      ],
      "payable": false,
      "stateMutability": "nonpayable",
      "type": "function"
    },
    {
      "constant": false,
      "inputs": [
        {
          "name": "_workerPool",
          "type": "address"
        },
        {
          "name": "_worker",
          "type": "address"
        }
      ],
      "name": "registerWorkerAffectation",
      "outputs": [
        {
          "name": "subscribed",
          "type": "bool"
        }
      ],
      "payable": false,
      "stateMutability": "nonpayable",
      "type": "function"
    },
    {
      "constant": false,
      "inputs": [
        {
          "name": "_workerPool",
          "type": "address"
        },
        {
          "name": "_worker",
          "type": "address"
        }
      ],
      "name": "unregisterWorkerAffectation",
      "outputs": [
        {
          "name": "unsubscribed",
          "type": "bool"
        }
      ],
      "payable": false,
      "stateMutability": "nonpayable",
      "type": "function"
    }
  ],
  "bytecode": "0x6060604052341561000f57600080fd5b60008054600160a060020a033316600160a060020a03199091161790556135768061003b6000396000f3006060604052600436106100985763ffffffff7c010000000000000000000000000000000000000000000000000000000060003504166301a08a8b811461009d5780630b00de8d146100db5780631884c51714610114578063215bd3031461013957806368c197dd1461016d57806369bee8a11461018c578063d440c6f3146101bd578063deff41c1146101dc578063f2fde38b146101ef575b600080fd5b34156100a857600080fd5b6100bf600160a060020a0360043516602435610210565b604051600160a060020a03909116815260200160405180910390f35b34156100e657600080fd5b610100600160a060020a0360043581169060243516610238565b604051901515815260200160405180910390f35b341561011f57600080fd5b610100600160a060020a03600435811690602435166102b8565b341561014457600080fd5b6100bf602460048035828101929101359035604435606435600160a060020a036084351661033c565b341561017857600080fd5b610100600160a060020a03600435166103e7565b341561019757600080fd5b6101ab600160a060020a0360043516610405565b60405190815260200160405180910390f35b34156101c857600080fd5b6100bf600160a060020a0360043516610420565b34156101e757600080fd5b6100bf61043e565b34156101fa57600080fd5b61020e600160a060020a036004351661044d565b005b600160a060020a03918216600090815260036020908152604080832093835292905220541690565b6000805433600160a060020a0390811691161461025457600080fd5b600160a060020a0382811660009081526001602052604090205481169084161461027d57600080fd5b50600160a060020a03166000908152600160208190526040909120805473ffffffffffffffffffffffffffffffffffffffff19169055919050565b6000805433600160a060020a039081169116146102d457600080fd5b600160a060020a0382811660009081526001602052604090205416156102f957600080fd5b50600160a060020a039081166000908152600160208190526040909120805473ffffffffffffffffffffffffffffffffffffffff19169390921692909217905590565b60008054819033600160a060020a0390811691161461035a57600080fd5b33888888888888610369610591565b600160a060020a038089168252604082018690526060820185905260808201849052821660a082015260c06020820181815290820187905260e08201888880828437820191505098505050505050505050604051809103906000f08015156103d057600080fd5b90506103dc32826104e8565b979650505050505050565b600160a060020a031660009081526004602052604090205460ff1690565b600160a060020a031660009081526002602052604090205490565b600160a060020a039081166000908152600160205260409020541690565b600054600160a060020a031681565b60005433600160a060020a0390811691161461046857600080fd5b600160a060020a038116151561047d57600080fd5b600054600160a060020a0380831691167f8be0079c531659141344cd1fd0a4f28419497f9722a3daafe3b4186f6b6457e060405160405180910390a36000805473ffffffffffffffffffffffffffffffffffffffff1916600160a060020a0392909216919091179055565b600160a060020a03821660009081526002602052604081205461051290600163ffffffff61057b16565b600160a060020a03938416600090815260026020908152604080832084905560038252808320938352928152828220805473ffffffffffffffffffffffffffffffffffffffff19169590961694851790955592835260049093525020805460ff19166001179055565b60008282018381101561058a57fe5b9392505050565b604051612fa9806105a2833901905600606060405234156200001057600080fd5b60405162002fa938038062002fa9833981016040528080519190602001805182019190602001805191906020018051919060200180519190602001805160008054600160a060020a03191633600160a060020a03908116919091179091559092508291508790811615156200008457600080fd5b60018054600160a060020a03928316600160a060020a0319918216811790925560028054909116909117905581161515620000be57600080fd5b60038054600160a060020a03928316600160a060020a03199182168117909255600480549091169091179055328116339091161415620000fd57600080fd5b6200011632640100000000620021c96200016682021704565b60058580516200012b929160200190620001f6565b5050601e6006556001600755600892909255600955600a555050600f8054600160a060020a03191633600160a060020a03161790556200029b565b60005433600160a060020a039081169116146200018257600080fd5b600160a060020a03811615156200019857600080fd5b600054600160a060020a0380831691167f8be0079c531659141344cd1fd0a4f28419497f9722a3daafe3b4186f6b6457e060405160405180910390a360008054600160a060020a031916600160a060020a0392909216919091179055565b828054600181600116156101000203166002900490600052602060002090601f016020900481019282601f106200023957805160ff191683800117855562000269565b8280016001018555821562000269579182015b82811115620002695782518255916020019190600101906200024c565b50620002779291506200027b565b5090565b6200029891905b8082111562000277576000815560010162000282565b90565b612cfe80620002ab6000396000f3006060604052600436106101a85763ffffffff60e060020a600035041663031ee1c881146101ad57806306021e7e146101f05780630c6e29e3146102e7578063126eac43146102fa57806316ebf77d1461036e5780631f1e7406146103905780632b8fd18a146103fe5780633ec6a4c41461043057806340f036051461044f57806341cb01ad1461047457806345b99d28146104935780635a628525146104a65780636ab6936a146104c85780637919233f146104db5780637bd220bb146104fd5780637c60988514610522578063835436b41461058a57806387639c68146105a957806389869163146105bc5780638d7db2f7146105db578063900b7b6214610665578063b32ca9c51461067b578063bb7fb08b1461068e578063c6c5b072146106b0578063c6ced32b146106c3578063cc6f06a3146106d6578063dc988b40146106e9578063deff41c114610714578063e2d36ef514610727578063e653ec6a1461073a578063ec1847b61461074d578063ef9cb4741461076c578063f20e56ec1461078d578063f2fde38b146107a0578063f4efa24c146107bf578063ff266d26146107de575b600080fd5b34156101b857600080fd5b6101de600160a060020a036004351660243560443560ff6064351660843560a4356107fd565b60405190815260200160405180910390f35b34156101fb57600080fd5b6102d360048035600160a060020a03169060446024803590810190830135806020601f8201819004810201604051908101604052818152929190602084018383808284378201915050505050509190803590602001908201803590602001908080601f01602080910402602001604051908101604052818152929190602084018383808284378201915050505050509190803590602001908201803590602001908080601f016020809104026020016040519081016040528181529291906020840183838082843750949650610b5b95505050505050565b604051901515815260200160405180910390f35b34156102f257600080fd5b6102d3610ffe565b341561030557600080fd5b61031f600160a060020a036004358116906024351661110b565b6040518087600481111561032f57fe5b60ff168152602081019690965250604080860194909452600160a060020a039092166060850152608084015260a083015260c090910191505180910390f35b341561037957600080fd5b6102d3600160a060020a0360043516602435611187565b341561039b57600080fd5b6103af600160a060020a0360043516611490565b60405197885260208801969096526040808801959095526060870193909352608086019190915260a085015260c0840152600160a060020a0390911660e0830152610100909101905180910390f35b341561040957600080fd5b6104146004356114dc565b604051600160a060020a03909116815260200160405180910390f35b341561043b57600080fd5b6101de600160a060020a0360043516611504565b341561045a57600080fd5b6102d3600160a060020a0360043581169060243516611522565b341561047f57600080fd5b6101de600160a060020a0360043516611562565b341561049e57600080fd5b6101de611574565b34156104b157600080fd5b6102d3600160a060020a0360043516602435611579565b34156104d357600080fd5b6101de611754565b34156104e657600080fd5b6102d3600160a060020a036004351660243561175a565b341561050857600080fd5b61031f600160a060020a036004358116906024351661198a565b341561052d57600080fd5b6102d360048035600160a060020a031690604460248035908101908301358060208082020160405190810160405280939291908181526020018383602002808284375094965050509235600160a060020a031692506119d8915050565b341561059557600080fd5b6102d3600160a060020a0360043516611a41565b34156105b457600080fd5b6101de611b21565b34156105c757600080fd5b6102d3600160a060020a0360043516611b27565b34156105e657600080fd5b6105ee611cc4565b60405160208082528190810183818151815260200191508051906020019080838360005b8381101561062a578082015183820152602001610612565b50505050905090810190601f1680156106575780820380516001836020036101000a031916815260200191505b509250505060405180910390f35b341561067057600080fd5b610414600435611d62565b341561068657600080fd5b610414611d8e565b341561069957600080fd5b610414600160a060020a0360043516602435611d9d565b34156106bb57600080fd5b6101de611de0565b34156106ce57600080fd5b6101de611de6565b34156106e157600080fd5b6101de611ded565b34156106f457600080fd5b6102d3600160a060020a0360043581169060243581169060443516611df3565b341561071f57600080fd5b610414611fe6565b341561073257600080fd5b6101de611ff5565b341561074557600080fd5b6102d3611ffb565b341561075857600080fd5b6101de600160a060020a03600435166120c0565b341561077757600080fd5b61078b600435602435604435606435612110565b005b341561079857600080fd5b6101de6121c4565b34156107ab57600080fd5b61078b600160a060020a03600435166121c9565b34156107ca57600080fd5b6103af600160a060020a0360043516612257565b34156107e957600080fd5b6102d3600160a060020a03600435166122a9565b600160a060020a0386166000908152600d602052604081206005810154829042111561082857600080fd5b600189600160a060020a031663e329c4786040518163ffffffff1660e060020a028152600401602060405180830381600087803b151561086757600080fd5b5af1151561087457600080fd5b50505060405180519050600481111561088957fe5b1461089357600080fd5b50600160a060020a038089166000908152600e60209081526040808320339094168352929052208715156108c657600080fd5b8615156108d257600080fd5b6003810154600160a060020a0316156109a157600188886040517f19457468657265756d205369676e6564204d6573736167653a0a3634000000008152601c810192909252603c820152605c0160405180910390208787876040516000815260200160405260405193845260ff9092166020808501919091526040808501929092526060840192909252608090920191516020810390808403906000865af1151561097c57600080fd5b5050602060405103516003820154600160a060020a039081169116146109a157600080fd5b6001815460ff1660048111156109b357fe5b146109bd57600080fd5b805460ff1916600290811782556001820189905580820188905554600160a060020a0316638c0f8e113360405160e060020a63ffffffff8416028152600160a060020a039091166004820152602401602060405180830381600087803b1515610a2557600080fd5b5af11515610a3257600080fd5b505050604051805160048301555060078201805460018101610a548382612c7d565b5060009182526020909120018054600160a060020a03191633600160a060020a03818116929092179092556002546001850154911691638981d077918c919060405160e060020a63ffffffff8616028152600160a060020a0393841660048201529190921660248201526044810191909152606401602060405180830381600087803b1515610ae257600080fd5b5af11515610aef57600080fd5b505050604051805190501515610b0457600080fd5b33600160a060020a031689600160a060020a03167f1593a9a000265660fd299c9f8c9bbacfeb4d428861542e6c44b68615324225d48a60405190815260200160405180910390a35060010154979650505050505050565b60008054819033600160a060020a03908116911614610b7957600080fd5b50600160a060020a0385166000908152600d602052604090206005810154421115610ba357600080fd5b42816003015411158015610bbb575060008160040154115b80610bcd575080600601548160040154145b1515610bd857600080fd5b610cb48682610120604051908101604052908160008201548152602001600182015481526020016002820154600019166000191681526020016003820154815260200160048201548152602001600582015481526020016006820154815260200160078201805480602002602001604051908101604052809291908181526020018280548015610c9157602002820191906000526020600020905b8154600160a060020a03168152600190910190602001808311610c73575b505050918352505060089190910154600160a060020a031660209091015261246b565b1515610cbf57600080fd5b600254600160a060020a031663b6b57ebd878787876040518563ffffffff1660e060020a0281526004018085600160a060020a0316600160a060020a03168152602001806020018060200180602001848103845287818151815260200191508051906020019080838360005b83811015610d43578082015183820152602001610d2b565b50505050905090810190601f168015610d705780820380516001836020036101000a031916815260200191505b50848103835286818151815260200191508051906020019080838360005b83811015610da6578082015183820152602001610d8e565b50505050905090810190601f168015610dd35780820380516001836020036101000a031916815260200191505b50848103825285818151815260200191508051906020019080838360005b83811015610e09578082015183820152602001610df1565b50505050905090810190601f168015610e365780820380516001836020036101000a031916815260200191505b50975050505050505050602060405180830381600087803b1515610e5957600080fd5b5af11515610e6657600080fd5b505050604051805190501515610e7b57600080fd5b85600160a060020a03167f4bfecaabd22e1b95e9aa9eb161b19f645b3460e7533d5e0f6349faf8dc0a724486868660405180806020018060200180602001848103845287818151815260200191508051906020019080838360005b83811015610eee578082015183820152602001610ed6565b50505050905090810190601f168015610f1b5780820380516001836020036101000a031916815260200191505b50848103835286818151815260200191508051906020019080838360005b83811015610f51578082015183820152602001610f39565b50505050905090810190601f168015610f7e5780820380516001836020036101000a031916815260200191505b50848103825285818151815260200191508051906020019080838360005b83811015610fb4578082015183820152602001610f9c565b50505050905090810190601f168015610fe15780820380516001836020036101000a031916815260200191505b50965050505050505060405180910390a250600195945050505050565b6002546000908190600160a060020a031663b218cf153360405160e060020a63ffffffff8416028152600160a060020a039091166004820152602401602060405180830381600087803b151561105357600080fd5b5af1151561106057600080fd5b50505060405180519050151561107557600080fd5b600b8054600181016110878382612c7d565b60009283526020909220018054600160a060020a03191633600160a060020a031617905590506110b88160016128e0565b600160a060020a0333166000818152600c60205260409081902092909255907f67799bb3ec4a3491a0c1c4e6d02ec99927df7ba7fa268c216672c0c5ecc1e8f8905160405180910390a2600191505b5090565b60008060008060008060006111208989611522565b151561112b57600080fd5b50505050600160a060020a039485166000908152600e602090815260408083209688168352959052939093208054600182015460028301546003840154600485015460059095015460ff90941699929891975016945091925090565b6000805481908190819033600160a060020a039081169116146111a957600080fd5b600160a060020a0386166000908152600d6020526040902060058101549093504211156111d557600080fd5b85600160a060020a0316632d4d671f6040518163ffffffff1660e060020a028152600401602060405180830381600087803b151561121257600080fd5b5af1151561121f57600080fd5b50505060405180519050151561123457600080fd5b60006006840181905591505b6007830154821015611300576007830180548390811061125c57fe5b6000918252602080832090910154600160a060020a038981168452600e8352604080852091909216808552925290912060010154909150851480156112d457506002600160a060020a038088166000908152600e602090815260408083209386168352929052205460ff1660048111156112d257fe5b145b156112f55760068301546112ef90600163ffffffff6128f216565b60068401555b816001019150611240565b60068301546000901161131257600080fd5b6002808401869055805460045461144292429261143692600160a060020a0391821691631f87172691811690634cfddcfb908e1663ecc40f646040518163ffffffff1660e060020a028152600401602060405180830381600087803b151561137957600080fd5b5af1151561138657600080fd5b5050506040518051905060405160e060020a63ffffffff84160281526004810191909152602401602060405180830381600087803b15156113c657600080fd5b5af115156113d357600080fd5b5050506040518051905060405160e060020a63ffffffff84160281526004810191909152602401602060405180830381600087803b151561141357600080fd5b5af1151561142057600080fd5b505050604051805191905063ffffffff61290c16565b9063ffffffff6128f216565b6003840155600160a060020a0386167fa1b9f527f9799a46d54103401c99dc62f3744afe1d095a1c53620758dc38b2868660405190815260200160405180910390a250600195945050505050565b600d6020526000908152604090208054600182015460028301546003840154600485015460058601546006870154600890970154959694959394929391929091600160a060020a031688565b600b8054829081106114ea57fe5b600091825260209091200154600160a060020a0316905081565b600160a060020a03166000908152600d602052604090206007015490565b600080600160a060020a038085166000908152600e602090815260408083209387168352929052205460ff16600481111561155957fe5b14159392505050565b600c6020526000908152604090205481565b600a81565b600160a060020a0382166000908152600d60205260408120600581015482904211156115a457600080fd5b50600160a060020a038085166000908152600e6020908152604080832033909416835292905220600285600160a060020a031663e329c4786040518163ffffffff1660e060020a028152600401602060405180830381600087803b151561160a57600080fd5b5af1151561161757600080fd5b50505060405180519050600481111561162c57fe5b1461163657600080fd5b600382015442901161164757600080fd5b6002815460ff16600481111561165957fe5b1461166357600080fd5b600282015460018201541461167757600080fd5b8360405190815260200160405190819003902060018201541461169957600080fd5b33604051600160a060020a03919091166c01000000000000000000000000028152601401604051809103902084186040519081526020016040519081900390206002820154146116e857600080fd5b805460ff1916600317815560048201546117039060016128f2565b6004830155600160a060020a033381169086167f4f5df7005a83b6f11e90ead1268eb534656169a5034e8d239c763471294be3d58660405190815260200160405180910390a3506001949350505050565b60095481565b60015460009081908190819033600160a060020a0390811691161461177e57600080fd5b600454600160a060020a0316634cfddcfb8660405160e060020a63ffffffff84160281526004810191909152602401602060405180830381600087803b15156117c657600080fd5b5af115156117d357600080fd5b50505060405180516002549094506118349150429061143690600a90600160a060020a0316631f8717268860405160e060020a63ffffffff84160281526004810191909152602401602060405180830381600087803b151561141357600080fd5b600160a060020a038088166000908152600d60205260409081902060045493955093509116906338c4090b9087905160e060020a63ffffffff84160281526004810191909152602401602060405180830381600087803b151561189657600080fd5b5af115156118a357600080fd5b5050506040518051825550600454600160a060020a03166355d66c3e8660405160e060020a63ffffffff84160281526004810191909152602401602060405180830381600087803b15156118f657600080fd5b5af1151561190357600080fd5b5050506040518051600883018054600160a060020a031916600160a060020a039290921691909117905550600654815461193c91612937565b600182015560058101829055600160a060020a0386167f9c081174ce28e85a62530b1102b0df58428b8da5027e81fbb4984aa1dc03310760405160405180910390a250600195945050505050565b600e60209081526000928352604080842090915290825290208054600182015460028301546003840154600485015460059095015460ff9094169492939192600160a060020a039091169186565b60008054819033600160a060020a039081169116146119f657600080fd5b5060005b8351811015611a3657611a2385858381518110611a1357fe5b9060200190602002015185611df3565b1515611a2e57600080fd5b6001016119fa565b506001949350505050565b6000805433600160a060020a03908116911614611a5d57600080fd5b600254600160a060020a031663835436b48360405160e060020a63ffffffff8416028152600160a060020a039091166004820152602401602060405180830381600087803b1515611aad57600080fd5b5af11515611aba57600080fd5b505050604051805190501515611acf57600080fd5b611ad88261294c565b1515611ae357600080fd5b81600160a060020a03167fb22288215ec8cbd28148d7ffa053c6e6e23c62b58d0eb71a6387b59fad33a01960405160405180910390a2506001919050565b60075481565b60015460009081908190819033600160a060020a03908116911614611b4b57600080fd5b600160a060020a0385166000908152600d6020526040902060058101549093504211611b7657600080fd5b600091505b6007830154821015611c835760078301805483908110611b9757fe5b600091825260209091200154600160a060020a031690506001600160a060020a038087166000908152600e602090815260408083209386168352929052205460ff166004811115611be457fe5b14611c78576002546001840154600160a060020a0390911690636b4f6865908790849060405160e060020a63ffffffff8616028152600160a060020a0393841660048201529190921660248201526044810191909152606401602060405180830381600087803b1515611c5657600080fd5b5af11515611c6357600080fd5b505050604051805190501515611c7857600080fd5b816001019150611b7b565b84600160a060020a03167f8d8d47a5d5034ce9c01a2308543fdaa83d60863e4b735b7d57361987cdc8ed9460405160405180910390a2506001949350505050565b60058054600181600116156101000203166002900480601f016020809104026020016040519081016040528092919081815260200182805460018160011615610100020316600290048015611d5a5780601f10611d2f57610100808354040283529160200191611d5a565b820191906000526020600020905b815481529060010190602001808311611d3d57829003601f168201915b505050505081565b6000600b82815481101515611d7357fe5b600091825260209091200154600160a060020a031692915050565b600f54600160a060020a031681565b600160a060020a0382166000908152600d60205260408120600701805483908110611dc457fe5b600091825260209091200154600160a060020a03169392505050565b60065481565b600b545b90565b600a5481565b60008054819081908190819033600160a060020a03908116911614611e1757600080fd5b600188600160a060020a031663e329c4786040518163ffffffff1660e060020a028152600401602060405180830381600087803b1515611e5657600080fd5b5af11515611e6357600080fd5b505050604051805190506004811115611e7857fe5b14611e8257600080fd5b600160a060020a038089166000818152600e60209081526040808320948c168352938152838220928252600d90529190912060058101549195509350421115611eca57600080fd5b600254600160a060020a031663f69f190c8860405160e060020a63ffffffff8416028152600160a060020a0390911660048201526024016040805180830381600087803b1515611f1957600080fd5b5af11515611f2657600080fd5b50505060405180519060200180519193509091505030600160a060020a0390811690831614611f5457600080fd5b6000845460ff166004811115611f6657fe5b14611f7057600080fd5b835460ff19166001178455600384018054600160a060020a03888116600160a060020a0319909216919091179091558781169089167f9cade22a92ceb705fefd1c03e9ac4dbbf787cd493ec63a9f2b078cbc859c06298360405190815260200160405180910390a3506001979650505050505050565b600054600160a060020a031681565b60085481565b600254600090600160a060020a0316631708d7253360405160e060020a63ffffffff8416028152600160a060020a039091166004820152602401602060405180830381600087803b151561204e57600080fd5b5af1151561205b57600080fd5b50505060405180519050151561207057600080fd5b6120793361294c565b151561208457600080fd5b33600160a060020a03167fd08d61a9c25ada3385d23554bae10e5d15c9518d4bfd27571c190558f7030f6e60405160405180910390a250600190565b600160a060020a0381166000818152600c6020526040812054600b805492939192839081106120eb57fe5b600091825260209091200154600160a060020a03161461210a57600080fd5b92915050565b60005433600160a060020a0390811691161461212b57600080fd5b7f52bb55d3097463659f724f9b420d259719787a8563b48eb82368680999bfea07600654856007548660095487600a5488604051808981526020018881526020018781526020018681526020018581526020018481526020018381526020018281526020019850505050505050505060405180910390a160648311156121b057600080fd5b600693909355600791909155600955600a55565b600281565b60005433600160a060020a039081169116146121e457600080fd5b600160a060020a03811615156121f957600080fd5b600054600160a060020a0380831691167f8be0079c531659141344cd1fd0a4f28419497f9722a3daafe3b4186f6b6457e060405160405180910390a360008054600160a060020a031916600160a060020a0392909216919091179055565b600160a060020a039081166000908152600d6020526040902080546001820154600283015460038401546004850154600586015460068701546008909701549598949793969295919490939190911690565b6000805481908190819033600160a060020a039081169116146122cb57600080fd5b600160a060020a0385166000908152600d6020526040902060058101549093504211156122f757600080fd5b4283600301541115801561230d57506004830154155b151561231857600080fd5b84600160a060020a0316631a514d976040518163ffffffff1660e060020a028152600401602060405180830381600087803b151561235557600080fd5b5af1151561236257600080fd5b50505060405180519050151561237757600080fd5b600091505b6007830154821015612415576007830180548390811061239857fe5b60009182526020808320909101546002860154600160a060020a038981168552600e84526040808620919093168086529352922060010154909250141561240a57600160a060020a038581166000908152600e60209081526040808320938516835292905220805460ff191660041790555b81600101915061237c565b600060068401819055600284018190556003840155600160a060020a0385167f631055693b4cbe13143279bc507432c42de858b6d04b3ba4e1ff3d2c88a7e52b60405160405180910390a2506001949350505050565b60008060008060008060008061247f612ca6565b6000808b5193508b60e001519250600099505b82518a101561257b57828a815181106124a757fe5b90602001906020020151600160a060020a03808f166000908152600e6020908152604080832093851683529290522090995091506003825460ff1660048111156124ed57fe5b1415612558576003820154600160a060020a0316151561250e576001612511565b60035b60ff16975061253561253089846004015461290c90919063ffffffff16565b612a30565b600101965061254a868863ffffffff6128f216565b600583018890559550612570565b61256d8c60200151859063ffffffff6128f216565b93505b896001019950612492565b6000861161258857600080fd5b6125ae6125a160075460646128e090919063ffffffff16565b859063ffffffff61293716565b9050600099505b82518a101561283c57828a815181106125ca57fe5b9060200190602002015198506003600160a060020a03808f166000908152600e60209081526040808320938e168352929052205460ff16600481111561260c57fe5b141561278e57600160a060020a03808e166000908152600e60209081526040808320938d168352929052206005015461264d9082908863ffffffff612c4916565b945061265f848663ffffffff6128e016565b9350600260009054906101000a9004600160a060020a0316600160a060020a0316636b4f68658e8b8f6020015160405160e060020a63ffffffff8616028152600160a060020a0393841660048201529190921660248201526044810191909152606401602060405180830381600087803b15156126db57600080fd5b5af115156126e857600080fd5b5050506040518051905015156126fd57600080fd5b600254600160a060020a0316630c91f2d08e8b88600160405160e060020a63ffffffff8716028152600160a060020a03948516600482015292909316602483015260448201529015156064820152608401602060405180830381600087803b151561276757600080fd5b5af1151561277457600080fd5b50505060405180519050151561278957600080fd5b612831565b600260009054906101000a9004600160a060020a0316600160a060020a0316639fdf96258e8b8f60200151600160405160e060020a63ffffffff8716028152600160a060020a03948516600482015292909316602483015260448201529015156064820152608401602060405180830381600087803b151561280f57600080fd5b5af1151561281c57600080fd5b50505060405180519050151561283157600080fd5b8960010199506125b5565b600254600160a060020a0316630c91f2d08e6101008f015187600060405160e060020a63ffffffff8716028152600160a060020a03948516600482015292909316602483015260448201529015156064820152608401602060405180830381600087803b15156128ab57600080fd5b5af115156128b857600080fd5b5050506040518051905015156128cd57600080fd5b5060019c9b505050505050505050505050565b6000828211156128ec57fe5b50900390565b60008282018381101561290157fe5b8091505b5092915050565b60008083151561291f5760009150612905565b5082820282848281151561292f57fe5b041461290157fe5b600061294583836064612c49565b9392505050565b600080600061295a846120c0565b600b80549193509061297390600163ffffffff6128e016565b8154811061297d57fe5b600091825260209091200154600b8054600160a060020a0390921692508291849081106129a657fe5b60009182526020808320919091018054600160a060020a031916600160a060020a039485161790559183168152600c90915260409020829055600b80546129ee9060016128e0565b815481106129f857fe5b60009182526020909120018054600160a060020a0319169055600b54612a2590600163ffffffff6128e016565b611a36600b82612c7d565b700100000000000000000000000000000000680100000000000000006401000000006201000061010060106004600260001989019081041790810417908104179081041790810417908104179081041790810417600101906000906040517ff8f9cbfae6cc78fbefe7cdc3a1793dfcf4f0e8bbd8cec470b6a28a7a5a3e1efd81527ff5ecf1b3e9debc68e1d9cfabc5997135bfb7a7a3938b7b606b5b4b3f2f1f0ffe60208201527ff6e4ed9ff2d6b458eadcdf97bd91692de2d4da8fd2d0ac50c6ae9a827252361660408201527fc8c0b887b0a8a4489c948c7f847c6125746c645c544c444038302820181008ff60608201527ff7cae577eec2a03cf3bad76fb589591debb2dd67e0aa9834bea6925f6a4a2e0e60808201527fe39ed557db96902cd38ed14fad815115c786af479b7e8324736353433727170760a08201527fc976c13bb96e881cb166a933a55e490d9d56952b8d4e801485467d236242260660c08201527f753a6d1b65325d0c552a4d1345224105391a310b29122104190a11030902010060e082015261010081016040527e818283848586878898a8b8c8d8e8f929395969799a9b9d9e9faaeb6bedeeff7f01000000000000000000000000000000000000000000000000000000000000008082870204818160ff038501510495507f8000000000000000000000000000000000000000000000000000000000000000851161010002860195505050505050919050565b6000612c5e612c58858561290c565b83612c66565b949350505050565b6000808284811515612c7457fe5b04949350505050565b815481835581811511612ca157600083815260209020612ca1918101908301612cb8565b505050565b60206040519081016040526000815290565b611dea91905b808211156111075760008155600101612cbe5600a165627a7a72305820bec182b2885e0336518dcac43c2b41bc5e7afb28e6b2b298ff1431c0e8ecd5710029a165627a7a72305820a50b6f2d28d1f6e32ca0613defc3418ecee0faffd325a488bb4033db0f46da820029",
  "source": "pragma solidity ^0.4.21;\n\nimport './WorkerPool.sol';\nimport \"./OwnableOZ.sol\";\nimport \"./SafeMathOZ.sol\";\n\ncontract WorkerPoolHub is OwnableOZ // is Owned by IexecHub\n{\n\n\tusing SafeMathOZ for uint256;\n\n\t/**\n\t * Members\n\t */\n\t// worker => workerPool\n\tmapping(address => address)                     m_workerAffectation;\n\t// owner => index\n\tmapping(address => uint256)                     m_workerPoolCountByOwner;\n\t// owner => index => workerPool\n\tmapping(address => mapping(uint256 => address)) m_workerPoolByOwnerByIndex;\n\t//  workerPool => owner // stored in the workerPool\n\t/* mapping(address => address)                     m_ownerByWorkerPool; */\n\tmapping(address => bool)                        m_workerPoolRegistered;\n\n\t/**\n\t * Constructor\n\t */\n\tfunction WorkerPoolHub() public\n\t{\n\t}\n\n\t/**\n\t * Methods\n\t */\n\tfunction isWorkerPoolRegistered(address _workerPool) public view returns (bool)\n\t{\n\t\treturn m_workerPoolRegistered[_workerPool];\n\t}\n\tfunction getWorkerPoolsCount(address _owner) public view returns (uint256)\n\t{\n\t\treturn m_workerPoolCountByOwner[_owner];\n\t}\n\tfunction getWorkerPool(address _owner, uint256 _index) public view returns (address)\n\t{\n\t\treturn m_workerPoolByOwnerByIndex[_owner][_index];\n\t}\n\tfunction getWorkerAffectation(address _worker) public view returns (address workerPool)\n\t{\n\t\treturn m_workerAffectation[_worker];\n\t}\n\n\tfunction addWorkerPool(address _owner, address _workerPool) internal\n\t{\n\t\tuint id = m_workerPoolCountByOwner[_owner].add(1);\n\t\tm_workerPoolCountByOwner  [_owner]      = id;\n\t\tm_workerPoolByOwnerByIndex[_owner][id]  = _workerPool;\n\t\tm_workerPoolRegistered    [_workerPool] = true;\n\t}\n\n\tfunction createWorkerPool(\n\t\tstring _description,\n\t\tuint256 _subscriptionLockStakePolicy,\n\t\tuint256 _subscriptionMinimumStakePolicy,\n\t\tuint256 _subscriptionMinimumScorePolicy,\n\t\taddress _marketplaceAddress)\n\texternal onlyOwner /*owner == IexecHub*/ returns (address createdWorkerPool)\n\t{\n\t\t// tx.origin == owner\n\t\t// msg.sender == IexecHub\n\t\t// At creating ownership is transfered to tx.origin\n\t\taddress newWorkerPool = new WorkerPool(\n\t\t\tmsg.sender, // iexecHubAddress\n\t\t\t_description,\n\t\t\t_subscriptionLockStakePolicy,\n\t\t\t_subscriptionMinimumStakePolicy,\n\t\t\t_subscriptionMinimumScorePolicy,\n\t\t\t_marketplaceAddress\n\t\t);\n\t\taddWorkerPool(tx.origin, newWorkerPool);\n\t\treturn newWorkerPool;\n\t}\n\n\tfunction registerWorkerAffectation(address _workerPool, address _worker) public onlyOwner /*owner == IexecHub*/ returns (bool subscribed)\n\t{\n\t\t// you must have no cuurent affectation on others worker Pool\n\t\trequire(m_workerAffectation[_worker] == address(0));\n\t\tm_workerAffectation[_worker] = _workerPool;\n\t\treturn true;\n\t}\n\n\tfunction unregisterWorkerAffectation(address _workerPool, address _worker) public onlyOwner /*owner == IexecHub*/ returns (bool unsubscribed)\n\t{\n\t\trequire(m_workerAffectation[_worker] == _workerPool);\n\t\tm_workerAffectation[_worker] = address(0);\n\t\treturn true;\n\t}\n}\n",
  "sourcePath": "/Users/fbranci/iexecdev/PoCo/contracts/WorkerPoolHub.sol",
  "compiler": {
    "name": "solc",
    "version": "0.4.21+commit.dfe3193c.Emscripten.clang"
  },
  "schemaVersion": "2.0.0",
  "updatedAt": "2018-04-24T13:47:21.806Z"
}