{
  "contractName": "Workerpool",
  "abi": [
    {
      "constant": true,
      "inputs": [],
      "name": "m_workerpoolDescription",
      "outputs": [
        {
          "name": "",
          "type": "string"
        }
      ],
      "payable": false,
      "stateMutability": "view",
      "type": "function"
    },
    {
      "constant": false,
      "inputs": [],
      "name": "renounceOwnership",
      "outputs": [],
      "payable": false,
      "stateMutability": "nonpayable",
      "type": "function"
    },
    {
      "constant": true,
      "inputs": [],
      "name": "m_schedulerRewardRatioPolicy",
      "outputs": [
        {
          "name": "",
          "type": "uint256"
        }
      ],
      "payable": false,
      "stateMutability": "view",
      "type": "function"
    },
    {
      "constant": true,
      "inputs": [],
      "name": "owner",
      "outputs": [
        {
          "name": "",
          "type": "address"
        }
      ],
      "payable": false,
      "stateMutability": "view",
      "type": "function"
    },
    {
      "constant": true,
      "inputs": [],
      "name": "isOwner",
      "outputs": [
        {
          "name": "",
          "type": "bool"
        }
      ],
      "payable": false,
      "stateMutability": "view",
      "type": "function"
    },
    {
      "constant": true,
      "inputs": [],
      "name": "m_workerStakeRatioPolicy",
      "outputs": [
        {
          "name": "",
          "type": "uint256"
        }
      ],
      "payable": false,
      "stateMutability": "view",
      "type": "function"
    },
    {
      "inputs": [
        {
          "name": "_workerpoolOwner",
          "type": "address"
        },
        {
          "name": "_workerpoolDescription",
          "type": "string"
        }
      ],
      "payable": false,
      "stateMutability": "nonpayable",
      "type": "constructor"
    },
    {
      "anonymous": false,
      "inputs": [
        {
          "indexed": false,
          "name": "oldWorkerStakeRatioPolicy",
          "type": "uint256"
        },
        {
          "indexed": false,
          "name": "newWorkerStakeRatioPolicy",
          "type": "uint256"
        },
        {
          "indexed": false,
          "name": "oldSchedulerRewardRatioPolicy",
          "type": "uint256"
        },
        {
          "indexed": false,
          "name": "newSchedulerRewardRatioPolicy",
          "type": "uint256"
        }
      ],
      "name": "PolicyUpdate",
      "type": "event"
    },
    {
      "anonymous": false,
      "inputs": [
        {
          "indexed": true,
          "name": "previousOwner",
          "type": "address"
        },
        {
          "indexed": true,
          "name": "newOwner",
          "type": "address"
        }
      ],
      "name": "OwnershipTransferred",
      "type": "event"
    },
    {
      "constant": false,
      "inputs": [
        {
          "name": "_newWorkerStakeRatioPolicy",
          "type": "uint256"
        },
        {
          "name": "_newSchedulerRewardRatioPolicy",
          "type": "uint256"
        }
      ],
      "name": "changePolicy",
      "outputs": [],
      "payable": false,
      "stateMutability": "nonpayable",
      "type": "function"
    },
    {
      "constant": false,
      "inputs": [
        {
          "name": "",
          "type": "address"
        }
      ],
      "name": "transferOwnership",
      "outputs": [],
      "payable": false,
      "stateMutability": "nonpayable",
      "type": "function"
    }
  ],
  "bytecode": "0x608060405234801561001057600080fd5b506040516106d23803806106d28339818101604052604081101561003357600080fd5b81516020830180519193928301929164010000000081111561005457600080fd5b8201602081018481111561006757600080fd5b815164010000000081118282018710171561008157600080fd5b5050600080546001600160a01b03191633178082556040519295506001600160a01b0316935091506000805160206106b2833981519152908290a36100ce826001600160e01b036100f316565b80516100e190600190602084019061019b565b5050601e600255506001600355610236565b6001600160a01b038116610152576040517f08c379a000000000000000000000000000000000000000000000000000000000815260040180806020018281038252602681526020018061068c6026913960400191505060405180910390fd5b600080546040516001600160a01b03808516939216916000805160206106b283398151915291a3600080546001600160a01b0319166001600160a01b0392909216919091179055565b828054600181600116156101000203166002900490600052602060002090601f016020900481019282601f106101dc57805160ff1916838001178555610209565b82800160010185558215610209579182015b828111156102095782518255916020019190600101906101ee565b50610215929150610219565b5090565b61023391905b80821115610215576000815560010161021f565b90565b610447806102456000396000f3fe608060405234801561001057600080fd5b50600436106100885760003560e01c80638f32d59b1161005b5780638f32d59b14610152578063b55e75af1461016e578063f199413c14610176578063f2fde38b1461019957610088565b8063584feb3a1461008d578063715018a61461010a57806387639c68146101145780638da5cb5b1461012e575b600080fd5b6100956101bf565b6040805160208082528351818301528351919283929083019185019080838360005b838110156100cf5781810151838201526020016100b7565b50505050905090810190601f1680156100fc5780820380516001836020036101000a031916815260200191505b509250505060405180910390f35b61011261024c565b005b61011c6102ef565b60408051918252519081900360200190f35b6101366102f5565b604080516001600160a01b039092168252519081900360200190f35b61015a610304565b604080519115158252519081900360200190f35b61011c610315565b6101126004803603604081101561018c57600080fd5b508035906020013561031b565b610112600480360360208110156101af57600080fd5b50356001600160a01b03166103da565b60018054604080516020600284861615610100026000190190941693909304601f810184900484028201840190925281815292918301828280156102445780601f1061021957610100808354040283529160200191610244565b820191906000526020600020905b81548152906001019060200180831161022757829003601f168201915b505050505081565b610254610304565b6102a5576040805162461bcd60e51b815260206004820181905260248201527f4f776e61626c653a2063616c6c6572206973206e6f7420746865206f776e6572604482015290519081900360640190fd5b600080546040516001600160a01b03909116907f8be0079c531659141344cd1fd0a4f28419497f9722a3daafe3b4186f6b6457e0908390a3600080546001600160a01b0319169055565b60035481565b6000546001600160a01b031690565b6000546001600160a01b0316331490565b60025481565b610323610304565b610374576040805162461bcd60e51b815260206004820181905260248201527f4f776e61626c653a2063616c6c6572206973206e6f7420746865206f776e6572604482015290519081900360640190fd5b606481111561038257600080fd5b60025460035460408051928352602083018590528281019190915260608201839052517f61f37ef3a6d587ce2d6be79492e1fac570f2745787015db7ed95ad4397b05c1e9181900360800190a1600291909155600355565b6040805162461bcd60e51b8152602060048201526008602482015267191a5cd8589b195960c21b604482015290519081900360640190fdfea265627a7a72305820d26db890cec9ad686ffe6c5a56a3eb76d65bc45a7add1ea6d668d5f564c931af64736f6c634300050a00324f776e61626c653a206e6577206f776e657220697320746865207a65726f20616464726573738be0079c531659141344cd1fd0a4f28419497f9722a3daafe3b4186f6b6457e0",
  "source": "pragma solidity ^0.5.8;\n\nimport \"openzeppelin-solidity/contracts/ownership/Ownable.sol\";\n\ncontract Workerpool is Ownable\n{\n\t/**\n\t * Parameters\n\t */\n\tstring  public m_workerpoolDescription;\n\tuint256 public m_workerStakeRatioPolicy;     // % of reward to stake\n\tuint256 public m_schedulerRewardRatioPolicy; // % of reward given to scheduler\n\n\t/**\n\t * Events\n\t */\n\tevent PolicyUpdate(\n\t\tuint256 oldWorkerStakeRatioPolicy,     uint256 newWorkerStakeRatioPolicy,\n\t\tuint256 oldSchedulerRewardRatioPolicy, uint256 newSchedulerRewardRatioPolicy);\n\n\t/**\n\t * Constructor\n\t */\n\tconstructor(\n\t\taddress        _workerpoolOwner,\n\t\tstring  memory _workerpoolDescription)\n\tpublic\n\t{\n\t\t_transferOwnership(_workerpoolOwner);\n\t\tm_workerpoolDescription      = _workerpoolDescription;\n\t\tm_workerStakeRatioPolicy     = 30; // mutable\n\t\tm_schedulerRewardRatioPolicy = 1;  // mutable\n\t}\n\n\tfunction changePolicy(\n\t\tuint256 _newWorkerStakeRatioPolicy,\n\t\tuint256 _newSchedulerRewardRatioPolicy)\n\tpublic onlyOwner\n\t{\n\t\trequire(_newSchedulerRewardRatioPolicy <= 100);\n\n\t\temit PolicyUpdate(\n\t\t\tm_workerStakeRatioPolicy,     _newWorkerStakeRatioPolicy,\n\t\t\tm_schedulerRewardRatioPolicy, _newSchedulerRewardRatioPolicy\n\t\t);\n\n\t\tm_workerStakeRatioPolicy     = _newWorkerStakeRatioPolicy;\n\t\tm_schedulerRewardRatioPolicy = _newSchedulerRewardRatioPolicy;\n\t}\n\n\tfunction transferOwnership(address) public { revert(\"disabled\"); }\n\n}\n",
  "sourcePath": "/home/amxx/Work/iExec/code/PoCo-dev/contracts/registries/Workerpool.sol",
  "compiler": {
    "name": "solc",
    "version": "0.5.10+commit.5a6ea5b1.Emscripten.clang"
  },
  "schemaVersion": "3.0.13",
  "updatedAt": "2019-08-28T10:01:49.249Z",
  "devdoc": {
    "methods": {
      "isOwner()": {
        "details": "Returns true if the caller is the current owner."
      },
      "owner()": {
        "details": "Returns the address of the current owner."
      },
      "renounceOwnership()": {
        "details": "Leaves the contract without owner. It will not be possible to call `onlyOwner` functions anymore. Can only be called by the current owner.     * > Note: Renouncing ownership will leave the contract without an owner, thereby removing any functionality that is only available to the owner."
      }
    }
  },
  "userdoc": {
    "methods": {
      "constructor": "Constructor"
    }
  }
}