{
  "contractName": "WorkerPoolHub",
  "abi": [
    {
      "constant": false,
      "inputs": [
        {
          "name": "_newOwner",
          "type": "address"
        }
      ],
      "name": "setImmutableOwnership",
      "outputs": [],
      "payable": false,
      "stateMutability": "nonpayable",
      "type": "function"
    },
    {
      "constant": true,
      "inputs": [],
      "name": "m_totalWorkerPoolCount",
      "outputs": [
        {
          "name": "",
          "type": "uint256"
        }
      ],
      "payable": false,
      "stateMutability": "view",
      "type": "function"
    },
    {
      "constant": true,
      "inputs": [],
      "name": "m_owner",
      "outputs": [
        {
          "name": "",
          "type": "address"
        }
      ],
      "payable": false,
      "stateMutability": "view",
      "type": "function"
    },
    {
      "constant": true,
      "inputs": [],
      "name": "m_changeable",
      "outputs": [
        {
          "name": "",
          "type": "bool"
        }
      ],
      "payable": false,
      "stateMutability": "view",
      "type": "function"
    },
    {
      "inputs": [],
      "payable": false,
      "stateMutability": "nonpayable",
      "type": "constructor"
    },
    {
      "anonymous": false,
      "inputs": [
        {
          "indexed": true,
          "name": "previousOwner",
          "type": "address"
        },
        {
          "indexed": true,
          "name": "newOwner",
          "type": "address"
        }
      ],
      "name": "OwnershipTransferred",
      "type": "event"
    },
    {
      "constant": true,
      "inputs": [
        {
          "name": "_workerPool",
          "type": "address"
        }
      ],
      "name": "isWorkerPoolRegistered",
      "outputs": [
        {
          "name": "",
          "type": "bool"
        }
      ],
      "payable": false,
      "stateMutability": "view",
      "type": "function"
    },
    {
      "constant": true,
      "inputs": [
        {
          "name": "_owner",
          "type": "address"
        }
      ],
      "name": "getWorkerPoolsCount",
      "outputs": [
        {
          "name": "",
          "type": "uint256"
        }
      ],
      "payable": false,
      "stateMutability": "view",
      "type": "function"
    },
    {
      "constant": true,
      "inputs": [
        {
          "name": "_owner",
          "type": "address"
        },
        {
          "name": "_index",
          "type": "uint256"
        }
      ],
      "name": "getWorkerPool",
      "outputs": [
        {
          "name": "",
          "type": "address"
        }
      ],
      "payable": false,
      "stateMutability": "view",
      "type": "function"
    },
    {
      "constant": true,
      "inputs": [
        {
          "name": "_index",
          "type": "uint256"
        }
      ],
      "name": "getWorkerPoolByIndex",
      "outputs": [
        {
          "name": "",
          "type": "address"
        }
      ],
      "payable": false,
      "stateMutability": "view",
      "type": "function"
    },
    {
      "constant": true,
      "inputs": [
        {
          "name": "_worker",
          "type": "address"
        }
      ],
      "name": "getWorkerAffectation",
      "outputs": [
        {
          "name": "workerPool",
          "type": "address"
        }
      ],
      "payable": false,
      "stateMutability": "view",
      "type": "function"
    },
    {
      "constant": false,
      "inputs": [
        {
          "name": "_description",
          "type": "string"
        },
        {
          "name": "_subscriptionLockStakePolicy",
          "type": "uint256"
        },
        {
          "name": "_subscriptionMinimumStakePolicy",
          "type": "uint256"
        },
        {
          "name": "_subscriptionMinimumScorePolicy",
          "type": "uint256"
        },
        {
          "name": "_marketplaceAddress",
          "type": "address"
        }
      ],
      "name": "createWorkerPool",
      "outputs": [
        {
          "name": "createdWorkerPool",
          "type": "address"
        }
      ],
      "payable": false,
      "stateMutability": "nonpayable",
      "type": "function"
    },
    {
      "constant": false,
      "inputs": [
        {
          "name": "_workerPool",
          "type": "address"
        },
        {
          "name": "_worker",
          "type": "address"
        }
      ],
      "name": "registerWorkerAffectation",
      "outputs": [
        {
          "name": "subscribed",
          "type": "bool"
        }
      ],
      "payable": false,
      "stateMutability": "nonpayable",
      "type": "function"
    },
    {
      "constant": false,
      "inputs": [
        {
          "name": "_workerPool",
          "type": "address"
        },
        {
          "name": "_worker",
          "type": "address"
        }
      ],
      "name": "unregisterWorkerAffectation",
      "outputs": [
        {
          "name": "unsubscribed",
          "type": "bool"
        }
      ],
      "payable": false,
      "stateMutability": "nonpayable",
      "type": "function"
    }
  ],
  "bytecode": "0x6060604052341561000f57600080fd5b6000805474010000000000000000000000000000000000000000600160a060020a031990911633600160a060020a03161760a060020a60ff021916178155613a7d90819061005d90396000f3006060604052600436106100b95763ffffffff7c010000000000000000000000000000000000000000000000000000000060003504166301a08a8b81146100be5780630b00de8d146100fc5780631884c51714610135578063215bd3031461015a57806368c197dd1461018e57806369bee8a1146101ad578063bbac78a9146101de578063bc1013db146101ff578063d440c6f314610212578063dee3efb214610231578063deff41c114610247578063e21b9d081461025a575b600080fd5b34156100c957600080fd5b6100e0600160a060020a036004351660243561026d565b604051600160a060020a03909116815260200160405180910390f35b341561010757600080fd5b610121600160a060020a0360043581169060243516610295565b604051901515815260200160405180910390f35b341561014057600080fd5b610121600160a060020a0360043581169060243516610315565b341561016557600080fd5b6100e0602460048035828101929101359035604435606435600160a060020a0360843516610399565b341561019957600080fd5b610121600160a060020a0360043516610444565b34156101b857600080fd5b6101cc600160a060020a0360043516610462565b60405190815260200160405180910390f35b34156101e957600080fd5b6101fd600160a060020a036004351661047d565b005b341561020a57600080fd5b6101cc610559565b341561021d57600080fd5b6100e0600160a060020a036004351661055f565b341561023c57600080fd5b6100e060043561057d565b341561025257600080fd5b6100e0610598565b341561026557600080fd5b6101216105a7565b600160a060020a03918216600090815260036020908152604080832093835292905220541690565b6000805433600160a060020a039081169116146102b157600080fd5b600160a060020a038281166000908152600160205260409020548116908416146102da57600080fd5b50600160a060020a03166000908152600160208190526040909120805473ffffffffffffffffffffffffffffffffffffffff19169055919050565b6000805433600160a060020a0390811691161461033157600080fd5b600160a060020a03828116600090815260016020526040902054161561035657600080fd5b50600160a060020a039081166000908152600160208190526040909120805473ffffffffffffffffffffffffffffffffffffffff19169390921692909217905590565b60008054819033600160a060020a039081169116146103b757600080fd5b338888888888886103c66106a0565b600160a060020a038089168252604082018690526060820185905260808201849052821660a082015260c06020820181815290820187905260e08201888880828437820191505098505050505050505050604051809103906000f080151561042d57600080fd5b905061043932826105c8565b979650505050505050565b600160a060020a031660009081526004602052604090205460ff1690565b600160a060020a031660009081526002602052604090205490565b60005433600160a060020a0390811691161461049857600080fd5b60005474010000000000000000000000000000000000000000900460ff1615156104c157600080fd5b600160a060020a03811615156104d657600080fd5b600054600160a060020a0380831691167f8be0079c531659141344cd1fd0a4f28419497f9722a3daafe3b4186f6b6457e060405160405180910390a36000805473ffffffffffffffffffffffffffffffffffffffff1916600160a060020a03929092169190911774ff000000000000000000000000000000000000000019169055565b60065481565b600160a060020a039081166000908152600160205260409020541690565b600090815260056020526040902054600160a060020a031690565b600054600160a060020a031681565b60005474010000000000000000000000000000000000000000900460ff1681565b600160a060020a0382166000908152600260205260408120546105f290600163ffffffff61068a16565b60065490915061060990600163ffffffff61068a16565b600681905560009081526005602090815260408083208054600160a060020a0396871673ffffffffffffffffffffffffffffffffffffffff199182168117909255969095168352600282528083208490556003825280832093835292815282822080549095168417909455918252600490925220805460ff19166001179055565b60008282018381101561069957fe5b9392505050565b6040516133a1806106b1833901905600606060405234156200001057600080fd5b604051620033a1380380620033a183398101604052808051919060200180518201919060200180519190602001805191906020018051919060200180516000805460a060020a60ff0219600160a060020a03338116600160a060020a031990931692909217167401000000000000000000000000000000000000000017909155909250829150879081161515620000a657600080fd5b60018054600160a060020a031916600160a060020a0392831617905581161515620000d057600080fd5b60028054600160a060020a03928316600160a060020a031991821681179092556003805490911690911790553281163390911614156200010f57600080fd5b6200012832640100000000620020476200017882021704565b60048580516200013d9291602001906200023c565b5050601e60055560016006556007929092556008556009555050600e8054600160a060020a03191633600160a060020a0316179055620002e1565b60005433600160a060020a039081169116146200019457600080fd5b60005474010000000000000000000000000000000000000000900460ff161515620001be57600080fd5b600160a060020a0381161515620001d457600080fd5b600054600160a060020a0380831691167f8be0079c531659141344cd1fd0a4f28419497f9722a3daafe3b4186f6b6457e060405160405180910390a360008054600160a060020a031916600160a060020a03929092169190911760a060020a60ff0219169055565b828054600181600116156101000203166002900490600052602060002090601f016020900481019282601f106200027f57805160ff1916838001178555620002af565b82800160010185558215620002af579182015b82811115620002af57825182559160200191906001019062000292565b50620002bd929150620002c1565b5090565b620002de91905b80821115620002bd5760008155600101620002c8565b90565b6130b080620002f16000396000f3006060604052600436106101b35763ffffffff60e060020a600035041663031ee1c881146101b857806306021e7e146101fb5780630c6e29e3146102f2578063126eac431461030557806316ebf77d146103795780631f1e74061461039b5780632b8fd18a146104105780633ec6a4c41461044257806340f036051461046157806341cb01ad1461048657806345b99d28146104a55780635a628525146104b85780636ab6936a146104da5780637919233f146104ed5780637bd220bb1461050f5780637c60988514610534578063835436b41461059c57806387639c68146105bb57806389869163146105ce5780638d7db2f7146105ed578063900b7b6214610677578063b32ca9c51461068d578063bb7fb08b146106a0578063bbac78a9146106c2578063c6c5b072146106e3578063c6ced32b146106f6578063cc6f06a314610709578063dc988b401461071c578063deff41c114610747578063e21b9d081461075a578063e2d36ef51461076d578063e653ec6a14610780578063ec1847b614610793578063ef9cb474146107b2578063f20e56ec146107d1578063f4efa24c146107e4578063ff266d2614610852575b600080fd5b34156101c357600080fd5b6101e9600160a060020a036004351660243560443560ff6064351660843560a435610871565b60405190815260200160405180910390f35b341561020657600080fd5b6102de60048035600160a060020a03169060446024803590810190830135806020601f8201819004810201604051908101604052818152929190602084018383808284378201915050505050509190803590602001908201803590602001908080601f01602080910402602001604051908101604052818152929190602084018383808284378201915050505050509190803590602001908201803590602001908080601f016020809104026020016040519081016040528181529291906020840183838082843750949650610c4a95505050505050565b604051901515815260200160405180910390f35b34156102fd57600080fd5b6102de611168565b341561031057600080fd5b61032a600160a060020a0360043581169060243516611275565b6040518087600481111561033a57fe5b60ff168152602081019690965250604080860194909452600160a060020a039092166060850152608084015260a083015260c090910191505180910390f35b341561038457600080fd5b6102de600160a060020a03600435166024356112f1565b34156103a657600080fd5b6103ba600160a060020a036004351661166d565b60405198895260208901979097526040808901969096526060880194909452608087019290925260a086015260c0850152600160a060020a031660e0840152610100830191909152610120909101905180910390f35b341561041b57600080fd5b6104266004356116c1565b604051600160a060020a03909116815260200160405180910390f35b341561044d57600080fd5b6101e9600160a060020a03600435166116e9565b341561046c57600080fd5b6102de600160a060020a0360043581169060243516611707565b341561049157600080fd5b6101e9600160a060020a0360043516611747565b34156104b057600080fd5b6101e9611759565b34156104c357600080fd5b6102de600160a060020a036004351660243561175e565b34156104e557600080fd5b6101e96119b3565b34156104f857600080fd5b6102de600160a060020a03600435166024356119b9565b341561051a57600080fd5b61032a600160a060020a0360043581169060243516611bf1565b341561053f57600080fd5b6102de60048035600160a060020a031690604460248035908101908301358060208082020160405190810160405280939291908181526020018383602002808284375094965050509235600160a060020a03169250611c3f915050565b34156105a757600080fd5b6102de600160a060020a0360043516611ca8565b34156105c657600080fd5b6101e9611d88565b34156105d957600080fd5b6102de600160a060020a0360043516611d8e565b34156105f857600080fd5b610600611f2b565b60405160208082528190810183818151815260200191508051906020019080838360005b8381101561063c578082015183820152602001610624565b50505050905090810190601f1680156106695780820380516001836020036101000a031916815260200191505b509250505060405180910390f35b341561068257600080fd5b610426600435611fc9565b341561069857600080fd5b610426611ff5565b34156106ab57600080fd5b610426600160a060020a0360043516602435612004565b34156106cd57600080fd5b6106e1600160a060020a0360043516612047565b005b34156106ee57600080fd5b6101e9612116565b341561070157600080fd5b6101e961211c565b341561071457600080fd5b6101e9612123565b341561072757600080fd5b6102de600160a060020a0360043581169060243581169060443516612129565b341561075257600080fd5b61042661238e565b341561076557600080fd5b6102de61239d565b341561077857600080fd5b6101e96123be565b341561078b57600080fd5b6102de6123c4565b341561079e57600080fd5b6101e9600160a060020a0360043516612489565b34156107bd57600080fd5b6106e16004356024356044356064356124d9565b34156107dc57600080fd5b6101e961258d565b34156107ef57600080fd5b610803600160a060020a0360043516612592565b60405197885260208801969096526040808801959095526060870193909352608086019190915260a085015260c0840152600160a060020a0390911660e0830152610100909101905180910390f35b341561085d57600080fd5b6102de600160a060020a03600435166125e4565b60015460009081908190600160a060020a03166332ca55878a60405160e060020a63ffffffff8416028152600160a060020a039091166004820152602401602060405180830381600087803b15156108c857600080fd5b5af115156108d557600080fd5b5050506040518051905015156108ea57600080fd5b600160a060020a0389166000908152600c60205260409020600581015490925042111561091657600080fd5b600189600160a060020a031663e329c4786040518163ffffffff1660e060020a028152600401602060405180830381600087803b151561095557600080fd5b5af1151561096257600080fd5b50505060405180519050600481111561097757fe5b1461098157600080fd5b50600160a060020a038089166000908152600d60209081526040808320339094168352929052208715156109b457600080fd5b8615156109c057600080fd5b6003810154600160a060020a031615610a8f57600188886040517f19457468657265756d205369676e6564204d6573736167653a0a3634000000008152601c810192909252603c820152605c0160405180910390208787876040516000815260200160405260405193845260ff9092166020808501919091526040808501929092526060840192909252608090920191516020810390808403906000865af11515610a6a57600080fd5b5050602060405103516003820154600160a060020a03908116911614610a8f57600080fd5b6001815460ff166004811115610aa157fe5b14610aab57600080fd5b805460ff19166002908117825560018083018a905590820188905554600160a060020a0316638c0f8e113360405160e060020a63ffffffff8416028152600160a060020a039091166004820152602401602060405180830381600087803b1515610b1457600080fd5b5af11515610b2157600080fd5b505050604051805160048301555060078201805460018101610b43838261302f565b5060009182526020909120018054600160a060020a03191633600160a060020a03818116929092179092556001805490850154911691638981d077918c919060405160e060020a63ffffffff8616028152600160a060020a0393841660048201529190921660248201526044810191909152606401602060405180830381600087803b1515610bd157600080fd5b5af11515610bde57600080fd5b505050604051805190501515610bf357600080fd5b33600160a060020a031689600160a060020a03167f1593a9a000265660fd299c9f8c9bbacfeb4d428861542e6c44b68615324225d48a60405190815260200160405180910390a35060010154979650505050505050565b60008054819033600160a060020a03908116911614610c6857600080fd5b600154600160a060020a03166332ca55878760405160e060020a63ffffffff8416028152600160a060020a039091166004820152602401602060405180830381600087803b1515610cb857600080fd5b5af11515610cc557600080fd5b505050604051805190501515610cda57600080fd5b50600160a060020a0385166000908152600c602052604090206005810154421115610d0457600080fd5b42816003015411158015610d1c575060008160040154115b80610d2e575080600601548160040154145b1515610d3957600080fd5b610e1e8682610140604051908101604052908160008201548152602001600182015481526020016002820154600019166000191681526020016003820154815260200160048201548152602001600582015481526020016006820154815260200160078201805480602002602001604051908101604052809291908181526020018280548015610df257602002820191906000526020600020905b8154600160a060020a03168152600190910190602001808311610dd4575b50505091835250506008820154600160a060020a03166020820152600990910154604090910152612818565b1515610e2957600080fd5b600154600160a060020a031663b6b57ebd878787876040518563ffffffff1660e060020a0281526004018085600160a060020a0316600160a060020a03168152602001806020018060200180602001848103845287818151815260200191508051906020019080838360005b83811015610ead578082015183820152602001610e95565b50505050905090810190601f168015610eda5780820380516001836020036101000a031916815260200191505b50848103835286818151815260200191508051906020019080838360005b83811015610f10578082015183820152602001610ef8565b50505050905090810190601f168015610f3d5780820380516001836020036101000a031916815260200191505b50848103825285818151815260200191508051906020019080838360005b83811015610f73578082015183820152602001610f5b565b50505050905090810190601f168015610fa05780820380516001836020036101000a031916815260200191505b50975050505050505050602060405180830381600087803b1515610fc357600080fd5b5af11515610fd057600080fd5b505050604051805190501515610fe557600080fd5b85600160a060020a03167f4bfecaabd22e1b95e9aa9eb161b19f645b3460e7533d5e0f6349faf8dc0a724486868660405180806020018060200180602001848103845287818151815260200191508051906020019080838360005b83811015611058578082015183820152602001611040565b50505050905090810190601f1680156110855780820380516001836020036101000a031916815260200191505b50848103835286818151815260200191508051906020019080838360005b838110156110bb5780820151838201526020016110a3565b50505050905090810190601f1680156110e85780820380516001836020036101000a031916815260200191505b50848103825285818151815260200191508051906020019080838360005b8381101561111e578082015183820152602001611106565b50505050905090810190601f16801561114b5780820380516001836020036101000a031916815260200191505b50965050505050505060405180910390a250600195945050505050565b6001546000908190600160a060020a031663b218cf153360405160e060020a63ffffffff8416028152600160a060020a039091166004820152602401602060405180830381600087803b15156111bd57600080fd5b5af115156111ca57600080fd5b5050506040518051905015156111df57600080fd5b600a8054600181016111f1838261302f565b60009283526020909220018054600160a060020a03191633600160a060020a03161790559050611222816001612c92565b600160a060020a0333166000818152600b60205260409081902092909255907f67799bb3ec4a3491a0c1c4e6d02ec99927df7ba7fa268c216672c0c5ecc1e8f8905160405180910390a2600191505b5090565b600080600080600080600061128a8989611707565b151561129557600080fd5b50505050600160a060020a039485166000908152600d602090815260408083209688168352959052939093208054600182015460028301546003840154600485015460059095015460ff90941699929891975016945091925090565b6000805481908190819033600160a060020a0390811691161461131357600080fd5b600154600160a060020a03166332ca55878760405160e060020a63ffffffff8416028152600160a060020a039091166004820152602401602060405180830381600087803b151561136357600080fd5b5af1151561137057600080fd5b50505060405180519050151561138557600080fd5b600160a060020a0386166000908152600c6020526040902060058101549093504211156113b157600080fd5b85600160a060020a0316632d4d671f6040518163ffffffff1660e060020a028152600401602060405180830381600087803b15156113ee57600080fd5b5af115156113fb57600080fd5b50505060405180519050151561141057600080fd5b60006006840181905591505b60078301548210156114dc576007830180548390811061143857fe5b6000918252602080832090910154600160a060020a038981168452600d8352604080852091909216808552925290912060010154909150851480156114b057506002600160a060020a038088166000908152600d602090815260408083209386168352929052205460ff1660048111156114ae57fe5b145b156114d15760068301546114cb90600163ffffffff612ca416565b60068401555b81600101915061141c565b6006830154600090116114ee57600080fd5b600280840186905560015460035461161f92429261161392600160a060020a0391821691631f87172691811690634cfddcfb908e1663ecc40f646040518163ffffffff1660e060020a028152600401602060405180830381600087803b151561155657600080fd5b5af1151561156357600080fd5b5050506040518051905060405160e060020a63ffffffff84160281526004810191909152602401602060405180830381600087803b15156115a357600080fd5b5af115156115b057600080fd5b5050506040518051905060405160e060020a63ffffffff84160281526004810191909152602401602060405180830381600087803b15156115f057600080fd5b5af115156115fd57600080fd5b505050604051805191905063ffffffff612cbe16565b9063ffffffff612ca416565b6003840155600160a060020a0386167fa1b9f527f9799a46d54103401c99dc62f3744afe1d095a1c53620758dc38b2868660405190815260200160405180910390a250600195945050505050565b600c602052600090815260409020805460018201546002830154600384015460048501546005860154600687015460088801546009909801549697959694959394929391929091600160a060020a03169089565b600a8054829081106116cf57fe5b600091825260209091200154600160a060020a0316905081565b600160a060020a03166000908152600c602052604090206007015490565b600080600160a060020a038085166000908152600d602090815260408083209387168352929052205460ff16600481111561173e57fe5b14159392505050565b600b6020526000908152604090205481565b600a81565b60015460009081908190600160a060020a03166332ca55878660405160e060020a63ffffffff8416028152600160a060020a039091166004820152602401602060405180830381600087803b15156117b557600080fd5b5af115156117c257600080fd5b5050506040518051905015156117d757600080fd5b600160a060020a0385166000908152600c60205260409020600581015490925042111561180357600080fd5b50600160a060020a038085166000908152600d6020908152604080832033909416835292905220600285600160a060020a031663e329c4786040518163ffffffff1660e060020a028152600401602060405180830381600087803b151561186957600080fd5b5af1151561187657600080fd5b50505060405180519050600481111561188b57fe5b1461189557600080fd5b60038201544290116118a657600080fd5b6002815460ff1660048111156118b857fe5b146118c257600080fd5b60028201546001820154146118d657600080fd5b836040519081526020016040519081900390206001820154146118f857600080fd5b33604051600160a060020a03919091166c010000000000000000000000000281526014016040518091039020841860405190815260200160405190819003902060028201541461194757600080fd5b805460ff191660031781556004820154611962906001612ca4565b6004830155600160a060020a033381169086167f4f5df7005a83b6f11e90ead1268eb534656169a5034e8d239c763471294be3d58660405190815260200160405180910390a3506001949350505050565b60085481565b60015460009081908190819033600160a060020a039081169116146119dd57600080fd5b600354600160a060020a0316634cfddcfb8660405160e060020a63ffffffff84160281526004810191909152602401602060405180830381600087803b1515611a2557600080fd5b5af11515611a3257600080fd5b5050506040518051600154909450611a939150429061161390600a90600160a060020a0316631f8717268860405160e060020a63ffffffff84160281526004810191909152602401602060405180830381600087803b15156115f057600080fd5b600160a060020a038088166000908152600c60205260409081902060035493955093509116906338c4090b9087905160e060020a63ffffffff84160281526004810191909152602401602060405180830381600087803b1515611af557600080fd5b5af11515611b0257600080fd5b5050506040518051825550600354600160a060020a03166355d66c3e8660405160e060020a63ffffffff84160281526004810191909152602401602060405180830381600087803b1515611b5557600080fd5b5af11515611b6257600080fd5b5050506040518051600883018054600160a060020a031916600160a060020a0392909216919091179055506005548154611b9b91612ce9565b6001820155600581018290556006546009820155600160a060020a0386167f9c081174ce28e85a62530b1102b0df58428b8da5027e81fbb4984aa1dc03310760405160405180910390a250600195945050505050565b600d60209081526000928352604080842090915290825290208054600182015460028301546003840154600485015460059095015460ff9094169492939192600160a060020a039091169186565b60008054819033600160a060020a03908116911614611c5d57600080fd5b5060005b8351811015611c9d57611c8a85858381518110611c7a57fe5b9060200190602002015185612129565b1515611c9557600080fd5b600101611c61565b506001949350505050565b6000805433600160a060020a03908116911614611cc457600080fd5b600154600160a060020a031663835436b48360405160e060020a63ffffffff8416028152600160a060020a039091166004820152602401602060405180830381600087803b1515611d1457600080fd5b5af11515611d2157600080fd5b505050604051805190501515611d3657600080fd5b611d3f82612cfe565b1515611d4a57600080fd5b81600160a060020a03167fb22288215ec8cbd28148d7ffa053c6e6e23c62b58d0eb71a6387b59fad33a01960405160405180910390a2506001919050565b60065481565b60015460009081908190819033600160a060020a03908116911614611db257600080fd5b600160a060020a0385166000908152600c6020526040902060058101549093504211611ddd57600080fd5b600091505b6007830154821015611eea5760078301805483908110611dfe57fe5b600091825260209091200154600160a060020a031690506001600160a060020a038087166000908152600d602090815260408083209386168352929052205460ff166004811115611e4b57fe5b14611edf576001805490840154600160a060020a0390911690636b4f6865908790849060405160e060020a63ffffffff8616028152600160a060020a0393841660048201529190921660248201526044810191909152606401602060405180830381600087803b1515611ebd57600080fd5b5af11515611eca57600080fd5b505050604051805190501515611edf57600080fd5b816001019150611de2565b84600160a060020a03167f8d8d47a5d5034ce9c01a2308543fdaa83d60863e4b735b7d57361987cdc8ed9460405160405180910390a2506001949350505050565b60048054600181600116156101000203166002900480601f016020809104026020016040519081016040528092919081815260200182805460018160011615610100020316600290048015611fc15780601f10611f9657610100808354040283529160200191611fc1565b820191906000526020600020905b815481529060010190602001808311611fa457829003601f168201915b505050505081565b6000600a82815481101515611fda57fe5b600091825260209091200154600160a060020a031692915050565b600e54600160a060020a031681565b600160a060020a0382166000908152600c6020526040812060070180548390811061202b57fe5b600091825260209091200154600160a060020a03169392505050565b60005433600160a060020a0390811691161461206257600080fd5b60005474010000000000000000000000000000000000000000900460ff16151561208b57600080fd5b600160a060020a03811615156120a057600080fd5b600054600160a060020a0380831691167f8be0079c531659141344cd1fd0a4f28419497f9722a3daafe3b4186f6b6457e060405160405180910390a360008054600160a060020a031916600160a060020a03929092169190911774ff000000000000000000000000000000000000000019169055565b60055481565b600a545b90565b60095481565b60008054819081908190819033600160a060020a0390811691161461214d57600080fd5b600154600160a060020a03166332ca55878960405160e060020a63ffffffff8416028152600160a060020a039091166004820152602401602060405180830381600087803b151561219d57600080fd5b5af115156121aa57600080fd5b5050506040518051905015156121bf57600080fd5b600188600160a060020a031663e329c4786040518163ffffffff1660e060020a028152600401602060405180830381600087803b15156121fe57600080fd5b5af1151561220b57600080fd5b50505060405180519050600481111561222057fe5b1461222a57600080fd5b600160a060020a038089166000818152600d60209081526040808320948c168352938152838220928252600c9052919091206005810154919550935042111561227257600080fd5b600154600160a060020a031663f69f190c8860405160e060020a63ffffffff8416028152600160a060020a0390911660048201526024016040805180830381600087803b15156122c157600080fd5b5af115156122ce57600080fd5b50505060405180519060200180519193509091505030600160a060020a03908116908316146122fc57600080fd5b6000845460ff16600481111561230e57fe5b1461231857600080fd5b835460ff19166001178455600384018054600160a060020a03888116600160a060020a0319909216919091179091558781169089167f9cade22a92ceb705fefd1c03e9ac4dbbf787cd493ec63a9f2b078cbc859c06298360405190815260200160405180910390a3506001979650505050505050565b600054600160a060020a031681565b60005474010000000000000000000000000000000000000000900460ff1681565b60075481565b600154600090600160a060020a0316631708d7253360405160e060020a63ffffffff8416028152600160a060020a039091166004820152602401602060405180830381600087803b151561241757600080fd5b5af1151561242457600080fd5b50505060405180519050151561243957600080fd5b61244233612cfe565b151561244d57600080fd5b33600160a060020a03167fd08d61a9c25ada3385d23554bae10e5d15c9518d4bfd27571c190558f7030f6e60405160405180910390a250600190565b600160a060020a0381166000818152600b6020526040812054600a805492939192839081106124b457fe5b600091825260209091200154600160a060020a0316146124d357600080fd5b92915050565b60005433600160a060020a039081169116146124f457600080fd5b7f52bb55d3097463659f724f9b420d259719787a8563b48eb82368680999bfea0760055485600654866008548760095488604051808981526020018881526020018781526020018681526020018581526020018481526020018381526020018281526020019850505050505050505060405180910390a1606483111561257957600080fd5b600593909355600691909155600855600955565b600281565b600160a060020a039081166000908152600c6020526040902080546001820154600283015460038401546004850154600586015460068701546008909701549598949793969295919490939190911690565b6000805481908190819033600160a060020a0390811691161461260657600080fd5b600154600160a060020a03166332ca55878660405160e060020a63ffffffff8416028152600160a060020a039091166004820152602401602060405180830381600087803b151561265657600080fd5b5af1151561266357600080fd5b50505060405180519050151561267857600080fd5b600160a060020a0385166000908152600c6020526040902060058101549093504211156126a457600080fd5b428360030154111580156126ba57506004830154155b15156126c557600080fd5b84600160a060020a0316631a514d976040518163ffffffff1660e060020a028152600401602060405180830381600087803b151561270257600080fd5b5af1151561270f57600080fd5b50505060405180519050151561272457600080fd5b600091505b60078301548210156127c2576007830180548390811061274557fe5b60009182526020808320909101546002860154600160a060020a038981168552600d8452604080862091909316808652935292206001015490925014156127b757600160a060020a038581166000908152600d60209081526040808320938516835292905220805460ff191660041790555b816001019150612729565b600060068401819055600284018190556003840155600160a060020a0385167f631055693b4cbe13143279bc507432c42de858b6d04b3ba4e1ff3d2c88a7e52b60405160405180910390a2506001949350505050565b60008060008060008060008061282c613058565b6000808b5193508b60e001519250600099505b82518a101561292857828a8151811061285457fe5b90602001906020020151600160a060020a03808f166000908152600d6020908152604080832093851683529290522090995091506003825460ff16600481111561289a57fe5b1415612905576003820154600160a060020a031615156128bb5760016128be565b60035b60ff1697506128e26128dd898460040154612cbe90919063ffffffff16565b612de2565b60010196506128f7868863ffffffff612ca416565b60058301889055955061291d565b61291a8c60200151859063ffffffff612ca416565b93505b89600101995061283f565b6000861161293557600080fd5b61295c61294f8d610120015160649063ffffffff612c9216565b859063ffffffff612ce916565b9050600099505b82518a1015612bee57828a8151811061297857fe5b9060200190602002015198506003600160a060020a03808f166000908152600d60209081526040808320938e168352929052205460ff1660048111156129ba57fe5b1415612b4057600160a060020a03808e166000908152600d60209081526040808320938d16835292905220600501546129fb9082908863ffffffff612ffb16565b9450612a0d848663ffffffff612c9216565b9350600160009054906101000a9004600160a060020a0316600160a060020a0316636b4f68658e8b8f6020015160405160e060020a63ffffffff8616028152600160a060020a0393841660048201529190921660248201526044810191909152606401602060405180830381600087803b1515612a8957600080fd5b5af11515612a9657600080fd5b505050604051805190501515612aab57600080fd5b60018054600160a060020a031690630c91f2d0908f908c90899060405160e060020a63ffffffff8716028152600160a060020a03948516600482015292909316602483015260448201529015156064820152608401602060405180830381600087803b1515612b1957600080fd5b5af11515612b2657600080fd5b505050604051805190501515612b3b57600080fd5b612be3565b600160009054906101000a9004600160a060020a0316600160a060020a0316639fdf96258e8b8f60200151600160405160e060020a63ffffffff8716028152600160a060020a03948516600482015292909316602483015260448201529015156064820152608401602060405180830381600087803b1515612bc157600080fd5b5af11515612bce57600080fd5b505050604051805190501515612be357600080fd5b896001019950612963565b600154600160a060020a0316630c91f2d08e6101008f015187600060405160e060020a63ffffffff8716028152600160a060020a03948516600482015292909316602483015260448201529015156064820152608401602060405180830381600087803b1515612c5d57600080fd5b5af11515612c6a57600080fd5b505050604051805190501515612c7f57600080fd5b5060019c9b505050505050505050505050565b600082821115612c9e57fe5b50900390565b600082820183811015612cb357fe5b8091505b5092915050565b600080831515612cd15760009150612cb7565b50828202828482811515612ce157fe5b0414612cb357fe5b6000612cf783836064612ffb565b9392505050565b6000806000612d0c84612489565b600a805491935090612d2590600163ffffffff612c9216565b81548110612d2f57fe5b600091825260209091200154600a8054600160a060020a039092169250829184908110612d5857fe5b60009182526020808320919091018054600160a060020a031916600160a060020a039485161790559183168152600b90915260409020829055600a8054612da0906001612c92565b81548110612daa57fe5b60009182526020909120018054600160a060020a0319169055600a54612dd790600163ffffffff612c9216565b611c9d600a8261302f565b700100000000000000000000000000000000680100000000000000006401000000006201000061010060106004600260001989019081041790810417908104179081041790810417908104179081041790810417600101906000906040517ff8f9cbfae6cc78fbefe7cdc3a1793dfcf4f0e8bbd8cec470b6a28a7a5a3e1efd81527ff5ecf1b3e9debc68e1d9cfabc5997135bfb7a7a3938b7b606b5b4b3f2f1f0ffe60208201527ff6e4ed9ff2d6b458eadcdf97bd91692de2d4da8fd2d0ac50c6ae9a827252361660408201527fc8c0b887b0a8a4489c948c7f847c6125746c645c544c444038302820181008ff60608201527ff7cae577eec2a03cf3bad76fb589591debb2dd67e0aa9834bea6925f6a4a2e0e60808201527fe39ed557db96902cd38ed14fad815115c786af479b7e8324736353433727170760a08201527fc976c13bb96e881cb166a933a55e490d9d56952b8d4e801485467d236242260660c08201527f753a6d1b65325d0c552a4d1345224105391a310b29122104190a11030902010060e082015261010081016040527e818283848586878898a8b8c8d8e8f929395969799a9b9d9e9faaeb6bedeeff7f01000000000000000000000000000000000000000000000000000000000000008082870204818160ff038501510495507f8000000000000000000000000000000000000000000000000000000000000000851161010002860195505050505050919050565b600061301061300a8585612cbe565b83613018565b949350505050565b600080828481151561302657fe5b04949350505050565b8154818355818115116130535760008381526020902061305391810190830161306a565b505050565b60206040519081016040526000815290565b61212091905b8082111561127157600081556001016130705600a165627a7a7230582065611159d17657b023295e8fc204391c05e93b9c80a240e60da82d1ef90187460029a165627a7a7230582018491756121f6b226383a623fe544defbd2a5bc7ce85acc3e6d9bbf4fd37eb310029",
  "source": "pragma solidity ^0.4.21;\n\nimport './WorkerPool.sol';\nimport \"./OwnableOZ.sol\";\nimport \"./SafeMathOZ.sol\";\n\ncontract WorkerPoolHub is OwnableOZ // is Owned by IexecHub\n{\n\n\tusing SafeMathOZ for uint256;\n\n\t/**\n\t * Members\n\t */\n\t// worker => workerPool\n\tmapping(address => address)                     m_workerAffectation;\n\t// owner => index\n\tmapping(address => uint256)                     m_workerPoolCountByOwner;\n\t// owner => index => workerPool\n\tmapping(address => mapping(uint256 => address)) m_workerPoolByOwnerByIndex;\n\t//  workerPool => owner // stored in the workerPool\n\t/* mapping(address => address)                     m_ownerByWorkerPool; */\n\tmapping(address => bool)                        m_workerPoolRegistered;\n\n\tmapping(uint256 => address)                     m_workerPoolByIndex;\n\tuint256 public                                  m_totalWorkerPoolCount;\n\n\n\n\t/**\n\t * Constructor\n\t */\n\tfunction WorkerPoolHub() public\n\t{\n\t}\n\n\t/**\n\t * Methods\n\t */\n\tfunction isWorkerPoolRegistered(address _workerPool) public view returns (bool)\n\t{\n\t\treturn m_workerPoolRegistered[_workerPool];\n\t}\n\tfunction getWorkerPoolsCount(address _owner) public view returns (uint256)\n\t{\n\t\treturn m_workerPoolCountByOwner[_owner];\n\t}\n\tfunction getWorkerPool(address _owner, uint256 _index) public view returns (address)\n\t{\n\t\treturn m_workerPoolByOwnerByIndex[_owner][_index];\n\t}\n\tfunction getWorkerPoolByIndex(uint256 _index) public view returns (address)\n\t{\n\t\treturn m_workerPoolByIndex[_index];\n\t}\n\tfunction getWorkerAffectation(address _worker) public view returns (address workerPool)\n\t{\n\t\treturn m_workerAffectation[_worker];\n\t}\n\n\tfunction addWorkerPool(address _owner, address _workerPool) internal\n\t{\n\t\tuint id = m_workerPoolCountByOwner[_owner].add(1);\n\t\tm_totalWorkerPoolCount = m_totalWorkerPoolCount.add(1);\n\t\tm_workerPoolByIndex       [m_totalWorkerPoolCount] = _workerPool;\n\t\tm_workerPoolCountByOwner  [_owner]                 = id;\n\t\tm_workerPoolByOwnerByIndex[_owner][id]             = _workerPool;\n\t\tm_workerPoolRegistered    [_workerPool]            = true;\n\t}\n\n\tfunction createWorkerPool(\n\t\tstring _description,\n\t\tuint256 _subscriptionLockStakePolicy,\n\t\tuint256 _subscriptionMinimumStakePolicy,\n\t\tuint256 _subscriptionMinimumScorePolicy,\n\t\taddress _marketplaceAddress)\n\texternal onlyOwner /*owner == IexecHub*/ returns (address createdWorkerPool)\n\t{\n\t\t// tx.origin == owner\n\t\t// msg.sender == IexecHub\n\t\t// At creating ownership is transfered to tx.origin\n\t\taddress newWorkerPool = new WorkerPool(\n\t\t\tmsg.sender, // iexecHubAddress\n\t\t\t_description,\n\t\t\t_subscriptionLockStakePolicy,\n\t\t\t_subscriptionMinimumStakePolicy,\n\t\t\t_subscriptionMinimumScorePolicy,\n\t\t\t_marketplaceAddress\n\t\t);\n\t\taddWorkerPool(tx.origin, newWorkerPool);\n\t\treturn newWorkerPool;\n\t}\n\n\tfunction registerWorkerAffectation(address _workerPool, address _worker) public onlyOwner /*owner == IexecHub*/ returns (bool subscribed)\n\t{\n\t\t// you must have no cuurent affectation on others worker Pool\n\t\trequire(m_workerAffectation[_worker] == address(0));\n\t\tm_workerAffectation[_worker] = _workerPool;\n\t\treturn true;\n\t}\n\n\tfunction unregisterWorkerAffectation(address _workerPool, address _worker) public onlyOwner /*owner == IexecHub*/ returns (bool unsubscribed)\n\t{\n\t\trequire(m_workerAffectation[_worker] == _workerPool);\n\t\tm_workerAffectation[_worker] = address(0);\n\t\treturn true;\n\t}\n}\n",
  "sourcePath": "/Users/fbranci/iexecdev/PoCo/contracts/WorkerPoolHub.sol",
  "compiler": {
    "name": "solc",
    "version": "0.4.21+commit.dfe3193c.Emscripten.clang"
  },
  "schemaVersion": "2.0.0",
  "updatedAt": "2018-05-21T11:48:56.460Z"
}