{
  "contractName": "WorkOrder",
  "abi": [
    {
      "constant": true,
      "inputs": [],
      "name": "m_workerpool",
      "outputs": [
        {
          "name": "",
          "type": "address"
        }
      ],
      "payable": false,
      "stateMutability": "view",
      "type": "function"
    },
    {
      "constant": true,
      "inputs": [],
      "name": "m_params",
      "outputs": [
        {
          "name": "",
          "type": "string"
        }
      ],
      "payable": false,
      "stateMutability": "view",
      "type": "function"
    },
    {
      "constant": true,
      "inputs": [],
      "name": "m_requester",
      "outputs": [
        {
          "name": "",
          "type": "address"
        }
      ],
      "payable": false,
      "stateMutability": "view",
      "type": "function"
    },
    {
      "constant": true,
      "inputs": [],
      "name": "m_app",
      "outputs": [
        {
          "name": "",
          "type": "address"
        }
      ],
      "payable": false,
      "stateMutability": "view",
      "type": "function"
    },
    {
      "constant": true,
      "inputs": [],
      "name": "m_dataset",
      "outputs": [
        {
          "name": "",
          "type": "address"
        }
      ],
      "payable": false,
      "stateMutability": "view",
      "type": "function"
    },
    {
      "constant": true,
      "inputs": [],
      "name": "m_emitcost",
      "outputs": [
        {
          "name": "",
          "type": "uint256"
        }
      ],
      "payable": false,
      "stateMutability": "view",
      "type": "function"
    },
    {
      "constant": true,
      "inputs": [],
      "name": "m_uri",
      "outputs": [
        {
          "name": "",
          "type": "string"
        }
      ],
      "payable": false,
      "stateMutability": "view",
      "type": "function"
    },
    {
      "constant": true,
      "inputs": [],
      "name": "m_stdout",
      "outputs": [
        {
          "name": "",
          "type": "string"
        }
      ],
      "payable": false,
      "stateMutability": "view",
      "type": "function"
    },
    {
      "constant": true,
      "inputs": [],
      "name": "m_iexecHubAddress",
      "outputs": [
        {
          "name": "",
          "type": "address"
        }
      ],
      "payable": false,
      "stateMutability": "view",
      "type": "function"
    },
    {
      "constant": true,
      "inputs": [],
      "name": "m_callback",
      "outputs": [
        {
          "name": "",
          "type": "address"
        }
      ],
      "payable": false,
      "stateMutability": "view",
      "type": "function"
    },
    {
      "constant": true,
      "inputs": [],
      "name": "m_status",
      "outputs": [
        {
          "name": "",
          "type": "uint8"
        }
      ],
      "payable": false,
      "stateMutability": "view",
      "type": "function"
    },
    {
      "constant": true,
      "inputs": [],
      "name": "m_marketorderIdx",
      "outputs": [
        {
          "name": "",
          "type": "uint256"
        }
      ],
      "payable": false,
      "stateMutability": "view",
      "type": "function"
    },
    {
      "constant": true,
      "inputs": [],
      "name": "m_stderr",
      "outputs": [
        {
          "name": "",
          "type": "string"
        }
      ],
      "payable": false,
      "stateMutability": "view",
      "type": "function"
    },
    {
      "constant": true,
      "inputs": [],
      "name": "m_beneficiary",
      "outputs": [
        {
          "name": "",
          "type": "address"
        }
      ],
      "payable": false,
      "stateMutability": "view",
      "type": "function"
    },
    {
      "inputs": [
        {
          "name": "_marketorderIdx",
          "type": "uint256"
        },
        {
          "name": "_requester",
          "type": "address"
        },
        {
          "name": "_app",
          "type": "address"
        },
        {
          "name": "_dataset",
          "type": "address"
        },
        {
          "name": "_workerpool",
          "type": "address"
        },
        {
          "name": "_emitcost",
          "type": "uint256"
        },
        {
          "name": "_params",
          "type": "string"
        },
        {
          "name": "_callback",
          "type": "address"
        },
        {
          "name": "_beneficiary",
          "type": "address"
        }
      ],
      "payable": false,
      "stateMutability": "nonpayable",
      "type": "constructor"
    },
    {
      "anonymous": false,
      "inputs": [],
      "name": "WorkOrderActivated",
      "type": "event"
    },
    {
      "anonymous": false,
      "inputs": [],
      "name": "WorkOrderReActivated",
      "type": "event"
    },
    {
      "anonymous": false,
      "inputs": [],
      "name": "WorkOrderRevealing",
      "type": "event"
    },
    {
      "anonymous": false,
      "inputs": [],
      "name": "WorkOrderClaimed",
      "type": "event"
    },
    {
      "anonymous": false,
      "inputs": [],
      "name": "WorkOrderCompleted",
      "type": "event"
    },
    {
      "constant": false,
      "inputs": [],
      "name": "startRevealingPhase",
      "outputs": [
        {
          "name": "",
          "type": "bool"
        }
      ],
      "payable": false,
      "stateMutability": "nonpayable",
      "type": "function"
    },
    {
      "constant": false,
      "inputs": [],
      "name": "reActivate",
      "outputs": [
        {
          "name": "",
          "type": "bool"
        }
      ],
      "payable": false,
      "stateMutability": "nonpayable",
      "type": "function"
    },
    {
      "constant": false,
      "inputs": [],
      "name": "claim",
      "outputs": [],
      "payable": false,
      "stateMutability": "nonpayable",
      "type": "function"
    },
    {
      "constant": false,
      "inputs": [
        {
          "name": "_stdout",
          "type": "string"
        },
        {
          "name": "_stderr",
          "type": "string"
        },
        {
          "name": "_uri",
          "type": "string"
        }
      ],
      "name": "setResult",
      "outputs": [],
      "payable": false,
      "stateMutability": "nonpayable",
      "type": "function"
    }
  ],
  "bytecode": "0x6060604052341561000f57600080fd5b604051610d20380380610d208339810160405280805191906020018051919060200180519190602001805191906020018051919060200180519190602001805182019190602001805191906020018051600d8054600160a060020a03191633600160a060020a039081169190911790915590925089161515905061009257600080fd5b6000805460ff1916600190811790915589905560028054600160a060020a0319908116600160a060020a038a81169190911790925560038054821689841617905560048054821688841617905560058054909116918a1691909117905560068490556007838051610107929160200190610141565b5060088054600160a060020a03938416600160a060020a03199182161790915560098054929093169116179055506101dc95505050505050565b828054600181600116156101000203166002900490600052602060002090601f016020900481019282601f1061018257805160ff19168380011785556101af565b828001600101855582156101af579182015b828111156101af578251825591602001919060010190610194565b506101bb9291506101bf565b5090565b6101d991905b808211156101bb57600081556001016101c5565b90565b610b35806101eb6000396000f3006060604052600436106100fb5763ffffffff7c01000000000000000000000000000000000000000000000000000000006000350416630690e5b8811461010057806315298c771461012f5780631a514d97146101b95780632d4d671f146101e05780634e71d92d146101f35780635f44910c146102085780636946f6921461021b57806371a599ca1461022e5780638628aaff146102415780639c4a856114610266578063cc3a2dfa14610279578063d3a69e011461028c578063d5fdfdbc1461029f578063da1fea2814610374578063e329c47814610387578063ecc40f64146103be578063f3859f57146103d1578063f6a5b13e146103e4575b600080fd5b341561010b57600080fd5b6101136103f7565b604051600160a060020a03909116815260200160405180910390f35b341561013a57600080fd5b610142610406565b60405160208082528190810183818151815260200191508051906020019080838360005b8381101561017e578082015183820152602001610166565b50505050905090810190601f1680156101ab5780820380516001836020036101000a031916815260200191505b509250505060405180910390f35b34156101c457600080fd5b6101cc6104a4565b604051901515815260200160405180910390f35b34156101eb57600080fd5b6101cc61051f565b34156101fe57600080fd5b610206610599565b005b341561021357600080fd5b610113610629565b341561022657600080fd5b610113610638565b341561023957600080fd5b610113610647565b341561024c57600080fd5b610254610656565b60405190815260200160405180910390f35b341561027157600080fd5b61014261065c565b341561028457600080fd5b6101426106c7565b341561029757600080fd5b610113610732565b34156102aa57600080fd5b61020660046024813581810190830135806020601f8201819004810201604051908101604052818152929190602084018383808284378201915050505050509190803590602001908201803590602001908080601f01602080910402602001604051908101604052818152929190602084018383808284378201915050505050509190803590602001908201803590602001908080601f01602080910402602001604051908101604052818152929190602084018383808284375094965061074195505050505050565b341561037f57600080fd5b6101136109d9565b341561039257600080fd5b61039a6109e8565b604051808260048111156103aa57fe5b60ff16815260200191505060405180910390f35b34156103c957600080fd5b6102546109f1565b34156103dc57600080fd5b6101426109f7565b34156103ef57600080fd5b610113610a62565b600454600160a060020a031681565b60078054600181600116156101000203166002900480601f01602080910402602001604051908101604052809291908181526020018280546001816001161561010002031660029004801561049c5780601f106104715761010080835404028352916020019161049c565b820191906000526020600020905b81548152906001019060200180831161047f57829003601f168201915b505050505081565b60045460009033600160a060020a039081169116146104c257600080fd5b600260005460ff1660048111156104d557fe5b146104df57600080fd5b6000805460ff191660011790557f06c42818c4ab74dff6aec55942f601c2e9b7f2aa4321ee71690b125eacfe465460405160405180910390a15060015b90565b60045460009033600160a060020a0390811691161461053d57600080fd5b600160005460ff16600481111561055057fe5b1461055a57600080fd5b6000805460ff191660021790557f2b0cab0be6d82b2661b3b789c540ec9c7223aac635ac8e59a1e71e1137f2dd7760405160405180910390a150600190565b600d5433600160a060020a039081169116146105b457600080fd5b600160005460ff1660048111156105c757fe5b14806105e35750600260005460ff1660048111156105e157fe5b145b15156105ee57600080fd5b6000805460ff191660031790557f1938697ee29e363ecda49e464c6d2aae25f0974bd1f2c81a91c21e13ad8dbf7760405160405180910390a1565b600554600160a060020a031681565b600254600160a060020a031681565b600354600160a060020a031681565b60065481565b600c8054600181600116156101000203166002900480601f01602080910402602001604051908101604052809291908181526020018280546001816001161561010002031660029004801561049c5780601f106104715761010080835404028352916020019161049c565b600a8054600181600116156101000203166002900480601f01602080910402602001604051908101604052809291908181526020018280546001816001161561010002031660029004801561049c5780601f106104715761010080835404028352916020019161049c565b600d54600160a060020a031681565b600d5433600160a060020a0390811691161461075c57600080fd5b600260005460ff16600481111561076f57fe5b1461077957600080fd5b6000805460ff19166004179055600a838051610799929160200190610a71565b50600b8280516107ad929160200190610a71565b50600c8180516107c1929160200190610a71565b50600854600160a060020a0316156109a857600854600160a060020a031663514d7067308585856040518563ffffffff167c01000000000000000000000000000000000000000000000000000000000281526004018085600160a060020a0316600160a060020a03168152602001806020018060200180602001848103845287818151815260200191508051906020019080838360005b83811015610870578082015183820152602001610858565b50505050905090810190601f16801561089d5780820380516001836020036101000a031916815260200191505b50848103835286818151815260200191508051906020019080838360005b838110156108d35780820151838201526020016108bb565b50505050905090810190601f1680156109005780820380516001836020036101000a031916815260200191505b50848103825285818151815260200191508051906020019080838360005b8381101561093657808201518382015260200161091e565b50505050905090810190601f1680156109635780820380516001836020036101000a031916815260200191505b50975050505050505050602060405180830381600087803b151561098657600080fd5b5af1151561099357600080fd5b5050506040518051905015156109a857600080fd5b7f777f59509d985349c80271b657d2649b218bc6f075a4625821b64448cc235b8660405160405180910390a1505050565b600854600160a060020a031681565b60005460ff1681565b60015481565b600b8054600181600116156101000203166002900480601f01602080910402602001604051908101604052809291908181526020018280546001816001161561010002031660029004801561049c5780601f106104715761010080835404028352916020019161049c565b600954600160a060020a031681565b828054600181600116156101000203166002900490600052602060002090601f016020900481019282601f10610ab257805160ff1916838001178555610adf565b82800160010185558215610adf579182015b82811115610adf578251825591602001919060010190610ac4565b50610aeb929150610aef565b5090565b61051c91905b80821115610aeb5760008155600101610af55600a165627a7a7230582002b52a6173b11eb2a9ca31ed4bb225d6a9a072b9e8f9dd5ca4d5e17d4b6d5f0b0029",
  "source": "pragma solidity ^0.4.21;\n\nimport './IexecCallbackInterface.sol';\nimport './IexecLib.sol';\ncontract WorkOrder\n{\n\n\n\tevent WorkOrderActivated();\n\tevent WorkOrderReActivated();\n\tevent WorkOrderRevealing();\n\tevent WorkOrderClaimed  ();\n\tevent WorkOrderCompleted();\n\n\t/**\n\t * Members\n\t */\n\tIexecLib.WorkOrderStatusEnum public m_status;\n\n\tuint256 public m_marketorderIdx;\n\n\taddress public m_app;\n\taddress public m_dataset;\n\taddress public m_workerpool;\n\taddress public m_requester;\n\n\tuint256 public m_emitcost;\n\tstring  public m_params;\n\taddress public m_callback;\n\taddress public m_beneficiary;\n\n\tstring  public m_stdout;\n\tstring  public m_stderr;\n\tstring  public m_uri;\n\n\taddress public m_iexecHubAddress;\n\n\tmodifier onlyIexecHub()\n\t{\n\t\trequire(msg.sender == m_iexecHubAddress);\n\t\t_;\n\t}\n\n\t/**\n\t * Constructor\n\t */\n\tfunction WorkOrder(\n\t\tuint256 _marketorderIdx,\n\t\taddress _requester,\n\t\taddress _app,\n\t\taddress _dataset,\n\t\taddress _workerpool,\n\t\tuint256 _emitcost,\n\t\tstring  _params,\n\t\taddress _callback,\n\t\taddress _beneficiary)\n\tpublic\n\t{\n\t\tm_iexecHubAddress = msg.sender;\n\t\trequire(_requester != address(0));\n\t\tm_status         = IexecLib.WorkOrderStatusEnum.ACTIVE;\n\t\tm_marketorderIdx = _marketorderIdx;\n\t\tm_app            = _app;\n\t\tm_dataset        = _dataset;\n\t\tm_workerpool     = _workerpool;\n\t\tm_requester      = _requester;\n\t\tm_emitcost       = _emitcost;\n\t\tm_params         = _params;\n\t\tm_callback       = _callback;\n\t\tm_beneficiary    = _beneficiary;\n\t\t// needed for the scheduler to authorize api token access on this m_beneficiary address in case _requester is a smart contract.\n\t}\n\n\tfunction startRevealingPhase() public returns (bool)\n\t{\n\t\trequire(m_workerpool == msg.sender);\n\t\trequire(m_status == IexecLib.WorkOrderStatusEnum.ACTIVE);\n\t\tm_status = IexecLib.WorkOrderStatusEnum.REVEALING;\n\t\temit WorkOrderRevealing();\n\t\treturn true;\n\t}\n\n\tfunction reActivate() public returns (bool)\n\t{\n\t\trequire(m_workerpool == msg.sender);\n\t\trequire(m_status == IexecLib.WorkOrderStatusEnum.REVEALING);\n\t\tm_status = IexecLib.WorkOrderStatusEnum.ACTIVE;\n\t\temit WorkOrderReActivated();\n\t\treturn true;\n\t}\n\n\n\tfunction claim() public onlyIexecHub\n\t{\n\t\trequire(m_status == IexecLib.WorkOrderStatusEnum.ACTIVE || m_status == IexecLib.WorkOrderStatusEnum.REVEALING);\n\t\tm_status = IexecLib.WorkOrderStatusEnum.CLAIMED;\n\t\temit WorkOrderClaimed();\n\t}\n\n\n\tfunction setResult(string _stdout, string _stderr, string _uri) public onlyIexecHub\n\t{\n\t\trequire(m_status == IexecLib.WorkOrderStatusEnum.REVEALING);\n\t\tm_status = IexecLib.WorkOrderStatusEnum.COMPLETED;\n\t\tm_stdout = _stdout;\n\t\tm_stderr = _stderr;\n\t\tm_uri    = _uri;\n\t\tif (m_callback != address(0))\n\t\t{\n\t\t\t// optional dappCallback call can be done\n\t\t\trequire(IexecCallbackInterface(m_callback).workOrderCallback(\n\t\t\t\tthis,\n\t\t\t\t_stdout,\n\t\t\t\t_stderr,\n\t\t\t\t_uri\n\t\t\t));\n\t\t}\n\t\temit WorkOrderCompleted();\n\t}\n\n}\n",
  "sourcePath": "/Users/fbranci/iexecdev/PoCo/contracts/WorkOrder.sol",
  "compiler": {
    "name": "solc",
    "version": "0.4.21+commit.dfe3193c.Emscripten.clang"
  },
  "schemaVersion": "2.0.0",
  "updatedAt": "2018-04-24T13:30:35.530Z"
}