{
  "contractName": "WorkerpoolRegistry",
  "abi": [
    {
      "inputs": [],
      "stateMutability": "nonpayable",
      "type": "constructor"
    },
    {
      "anonymous": false,
      "inputs": [
        {
          "indexed": true,
          "internalType": "address",
          "name": "owner",
          "type": "address"
        },
        {
          "indexed": true,
          "internalType": "address",
          "name": "approved",
          "type": "address"
        },
        {
          "indexed": true,
          "internalType": "uint256",
          "name": "tokenId",
          "type": "uint256"
        }
      ],
      "name": "Approval",
      "type": "event"
    },
    {
      "anonymous": false,
      "inputs": [
        {
          "indexed": true,
          "internalType": "address",
          "name": "owner",
          "type": "address"
        },
        {
          "indexed": true,
          "internalType": "address",
          "name": "operator",
          "type": "address"
        },
        {
          "indexed": false,
          "internalType": "bool",
          "name": "approved",
          "type": "bool"
        }
      ],
      "name": "ApprovalForAll",
      "type": "event"
    },
    {
      "anonymous": false,
      "inputs": [
        {
          "indexed": true,
          "internalType": "address",
          "name": "previousOwner",
          "type": "address"
        },
        {
          "indexed": true,
          "internalType": "address",
          "name": "newOwner",
          "type": "address"
        }
      ],
      "name": "OwnershipTransferred",
      "type": "event"
    },
    {
      "anonymous": false,
      "inputs": [
        {
          "indexed": true,
          "internalType": "address",
          "name": "from",
          "type": "address"
        },
        {
          "indexed": true,
          "internalType": "address",
          "name": "to",
          "type": "address"
        },
        {
          "indexed": true,
          "internalType": "uint256",
          "name": "tokenId",
          "type": "uint256"
        }
      ],
      "name": "Transfer",
      "type": "event"
    },
    {
      "inputs": [
        {
          "internalType": "address",
          "name": "to",
          "type": "address"
        },
        {
          "internalType": "uint256",
          "name": "tokenId",
          "type": "uint256"
        }
      ],
      "name": "approve",
      "outputs": [],
      "stateMutability": "nonpayable",
      "type": "function"
    },
    {
      "inputs": [
        {
          "internalType": "address",
          "name": "owner",
          "type": "address"
        }
      ],
      "name": "balanceOf",
      "outputs": [
        {
          "internalType": "uint256",
          "name": "",
          "type": "uint256"
        }
      ],
      "stateMutability": "view",
      "type": "function"
    },
    {
      "inputs": [],
      "name": "baseURI",
      "outputs": [
        {
          "internalType": "string",
          "name": "",
          "type": "string"
        }
      ],
      "stateMutability": "view",
      "type": "function"
    },
    {
      "inputs": [
        {
          "internalType": "uint256",
          "name": "tokenId",
          "type": "uint256"
        }
      ],
      "name": "getApproved",
      "outputs": [
        {
          "internalType": "address",
          "name": "",
          "type": "address"
        }
      ],
      "stateMutability": "view",
      "type": "function"
    },
    {
      "inputs": [
        {
          "internalType": "address",
          "name": "_previous",
          "type": "address"
        }
      ],
      "name": "initialize",
      "outputs": [],
      "stateMutability": "nonpayable",
      "type": "function"
    },
    {
      "inputs": [],
      "name": "initialized",
      "outputs": [
        {
          "internalType": "bool",
          "name": "",
          "type": "bool"
        }
      ],
      "stateMutability": "view",
      "type": "function"
    },
    {
      "inputs": [
        {
          "internalType": "address",
          "name": "owner",
          "type": "address"
        },
        {
          "internalType": "address",
          "name": "operator",
          "type": "address"
        }
      ],
      "name": "isApprovedForAll",
      "outputs": [
        {
          "internalType": "bool",
          "name": "",
          "type": "bool"
        }
      ],
      "stateMutability": "view",
      "type": "function"
    },
    {
      "inputs": [],
      "name": "isOwner",
      "outputs": [
        {
          "internalType": "bool",
          "name": "",
          "type": "bool"
        }
      ],
      "stateMutability": "view",
      "type": "function"
    },
    {
      "inputs": [
        {
          "internalType": "address",
          "name": "_entry",
          "type": "address"
        }
      ],
      "name": "isRegistered",
      "outputs": [
        {
          "internalType": "bool",
          "name": "",
          "type": "bool"
        }
      ],
      "stateMutability": "view",
      "type": "function"
    },
    {
      "inputs": [],
      "name": "master",
      "outputs": [
        {
          "internalType": "address",
          "name": "",
          "type": "address"
        }
      ],
      "stateMutability": "view",
      "type": "function"
    },
    {
      "inputs": [],
      "name": "name",
      "outputs": [
        {
          "internalType": "string",
          "name": "",
          "type": "string"
        }
      ],
      "stateMutability": "view",
      "type": "function"
    },
    {
      "inputs": [],
      "name": "owner",
      "outputs": [
        {
          "internalType": "address",
          "name": "",
          "type": "address"
        }
      ],
      "stateMutability": "view",
      "type": "function"
    },
    {
      "inputs": [
        {
          "internalType": "uint256",
          "name": "tokenId",
          "type": "uint256"
        }
      ],
      "name": "ownerOf",
      "outputs": [
        {
          "internalType": "address",
          "name": "",
          "type": "address"
        }
      ],
      "stateMutability": "view",
      "type": "function"
    },
    {
      "inputs": [],
      "name": "previous",
      "outputs": [
        {
          "internalType": "contract IRegistry",
          "name": "",
          "type": "address"
        }
      ],
      "stateMutability": "view",
      "type": "function"
    },
    {
      "inputs": [],
      "name": "proxyCode",
      "outputs": [
        {
          "internalType": "bytes",
          "name": "",
          "type": "bytes"
        }
      ],
      "stateMutability": "view",
      "type": "function"
    },
    {
      "inputs": [],
      "name": "renounceOwnership",
      "outputs": [],
      "stateMutability": "nonpayable",
      "type": "function"
    },
    {
      "inputs": [
        {
          "internalType": "address",
          "name": "from",
          "type": "address"
        },
        {
          "internalType": "address",
          "name": "to",
          "type": "address"
        },
        {
          "internalType": "uint256",
          "name": "tokenId",
          "type": "uint256"
        }
      ],
      "name": "safeTransferFrom",
      "outputs": [],
      "stateMutability": "nonpayable",
      "type": "function"
    },
    {
      "inputs": [
        {
          "internalType": "address",
          "name": "from",
          "type": "address"
        },
        {
          "internalType": "address",
          "name": "to",
          "type": "address"
        },
        {
          "internalType": "uint256",
          "name": "tokenId",
          "type": "uint256"
        },
        {
          "internalType": "bytes",
          "name": "_data",
          "type": "bytes"
        }
      ],
      "name": "safeTransferFrom",
      "outputs": [],
      "stateMutability": "nonpayable",
      "type": "function"
    },
    {
      "inputs": [
        {
          "internalType": "address",
          "name": "operator",
          "type": "address"
        },
        {
          "internalType": "bool",
          "name": "approved",
          "type": "bool"
        }
      ],
      "name": "setApprovalForAll",
      "outputs": [],
      "stateMutability": "nonpayable",
      "type": "function"
    },
    {
      "inputs": [
        {
          "internalType": "address",
          "name": "_ens",
          "type": "address"
        },
        {
          "internalType": "string",
          "name": "_name",
          "type": "string"
        }
      ],
      "name": "setName",
      "outputs": [],
      "stateMutability": "nonpayable",
      "type": "function"
    },
    {
      "inputs": [
        {
          "internalType": "uint256",
          "name": "_tokenId",
          "type": "uint256"
        },
        {
          "internalType": "string",
          "name": "_uri",
          "type": "string"
        }
      ],
      "name": "setTokenURI",
      "outputs": [],
      "stateMutability": "nonpayable",
      "type": "function"
    },
    {
      "inputs": [
        {
          "internalType": "bytes4",
          "name": "interfaceId",
          "type": "bytes4"
        }
      ],
      "name": "supportsInterface",
      "outputs": [
        {
          "internalType": "bool",
          "name": "",
          "type": "bool"
        }
      ],
      "stateMutability": "view",
      "type": "function"
    },
    {
      "inputs": [],
      "name": "symbol",
      "outputs": [
        {
          "internalType": "string",
          "name": "",
          "type": "string"
        }
      ],
      "stateMutability": "view",
      "type": "function"
    },
    {
      "inputs": [
        {
          "internalType": "uint256",
          "name": "index",
          "type": "uint256"
        }
      ],
      "name": "tokenByIndex",
      "outputs": [
        {
          "internalType": "uint256",
          "name": "",
          "type": "uint256"
        }
      ],
      "stateMutability": "view",
      "type": "function"
    },
    {
      "inputs": [
        {
          "internalType": "address",
          "name": "owner",
          "type": "address"
        },
        {
          "internalType": "uint256",
          "name": "index",
          "type": "uint256"
        }
      ],
      "name": "tokenOfOwnerByIndex",
      "outputs": [
        {
          "internalType": "uint256",
          "name": "",
          "type": "uint256"
        }
      ],
      "stateMutability": "view",
      "type": "function"
    },
    {
      "inputs": [
        {
          "internalType": "uint256",
          "name": "tokenId",
          "type": "uint256"
        }
      ],
      "name": "tokenURI",
      "outputs": [
        {
          "internalType": "string",
          "name": "",
          "type": "string"
        }
      ],
      "stateMutability": "view",
      "type": "function"
    },
    {
      "inputs": [],
      "name": "totalSupply",
      "outputs": [
        {
          "internalType": "uint256",
          "name": "",
          "type": "uint256"
        }
      ],
      "stateMutability": "view",
      "type": "function"
    },
    {
      "inputs": [
        {
          "internalType": "address",
          "name": "from",
          "type": "address"
        },
        {
          "internalType": "address",
          "name": "to",
          "type": "address"
        },
        {
          "internalType": "uint256",
          "name": "tokenId",
          "type": "uint256"
        }
      ],
      "name": "transferFrom",
      "outputs": [],
      "stateMutability": "nonpayable",
      "type": "function"
    },
    {
      "inputs": [
        {
          "internalType": "address",
          "name": "newOwner",
          "type": "address"
        }
      ],
      "name": "transferOwnership",
      "outputs": [],
      "stateMutability": "nonpayable",
      "type": "function"
    },
    {
      "inputs": [
        {
          "internalType": "address",
          "name": "_workerpoolOwner",
          "type": "address"
        },
        {
          "internalType": "string",
          "name": "_workerpoolDescription",
          "type": "string"
        }
      ],
      "name": "createWorkerpool",
      "outputs": [
        {
          "internalType": "contract Workerpool",
          "name": "",
          "type": "address"
        }
      ],
      "stateMutability": "nonpayable",
      "type": "function"
    }
  ],
  "bytecode": "0x60806040523480156200001157600080fd5b50604051620000209062000285565b604051809103906000f0801580156200003d573d6000803e3d6000fd5b50604080518082018252601e81527f694578656320576f726b6572706f6f6c20526567697374727920285635290000602080830191909152825180840190935260118352706945786563576f726b6572706f6f6c563560781b908301529081818181620000ba6301ffc9a760e01b6001600160e01b03620001fb16565b620000d56380ac58cd60e01b6001600160e01b03620001fb16565b620000f063780e9d6360e01b6001600160e01b03620001fb16565b81516200010590600990602085019062000293565b5080516200011b90600a90602084019062000293565b5062000137635b5e139f60e01b6001600160e01b03620001fb16565b5050505060006200014d6200028060201b60201c565b600d80546001600160a01b0319166001600160a01b038316908117909155604051919250906000907f8be0079c531659141344cd1fd0a4f28419497f9722a3daafe3b4186f6b6457e0908290a350600e80546001600160a01b0319166001600160a01b038516179055604051620001c76020820162000318565b601f1982820381018352601f909101166040528051620001f191600f916020919091019062000293565b5050505062000343565b6001600160e01b031980821614156200025b576040805162461bcd60e51b815260206004820152601c60248201527f4552433136353a20696e76616c696420696e7465726661636520696400000000604482015290519081900360640190fd5b6001600160e01b0319166000908152602081905260409020805460ff19166001179055565b335b90565b6108298062002b1e83390190565b828054600181600116156101000203166002900490600052602060002090601f016020900481019282601f10620002d657805160ff191683800117855562000306565b8280016001018555821562000306579182015b8281111562000306578251825591602001919060010190620002e9565b506200031492915062000326565b5090565b6103cd806200334783390190565b6200028291905b808211156200031457600081556001016200032d565b6127cb80620003536000396000f3fe608060405234801561001057600080fd5b50600436106101da5760003560e01c806370a0823111610104578063b88d4fde116100a2578063e40238f411610071578063e40238f41461069e578063e985e9c51461071c578063ee97f7f31461074a578063f2fde38b14610752576101da565b8063b88d4fde14610571578063c3c5a54714610635578063c4d66de81461065b578063c87b56dd14610681576101da565b80638da5cb5b116100de5780638da5cb5b1461052b5780638f32d59b1461053357806395d89b411461053b578063a22cb46514610543576101da565b806370a08231146104f5578063715018a61461051b5780637c2b2e7114610523576101da565b806323b872dd1161017c5780634f6ccce71161014b5780634f6ccce7146104ab5780636352211e146104c85780636c0360eb146104e55780636fa59bbc146104ed576101da565b806323b872dd146103955780632f745c59146103cb5780633121db1c146103f757806342842e0e14610475576101da565b8063095ea7b3116101b8578063095ea7b3146102d0578063158ef93e146102fe578063162094c41461030657806318160ddd1461037b576101da565b806301ffc9a7146101df57806306fdde031461021a578063081812fc14610297575b600080fd5b610206600480360360208110156101f557600080fd5b50356001600160e01b031916610778565b604080519115158252519081900360200190f35b61022261079b565b6040805160208082528351818301528351919283929083019185019080838360005b8381101561025c578181015183820152602001610244565b50505050905090810190601f1680156102895780820380516001836020036101000a031916815260200191505b509250505060405180910390f35b6102b4600480360360208110156102ad57600080fd5b5035610832565b604080516001600160a01b039092168252519081900360200190f35b6102fc600480360360408110156102e657600080fd5b506001600160a01b038135169060200135610894565b005b61020661096f565b6102fc6004803603604081101561031c57600080fd5b81359190810190604081016020820135600160201b81111561033d57600080fd5b82018360208201111561034f57600080fd5b803590602001918460018302840111600160201b8311171561037057600080fd5b50909250905061097f565b610383610a1e565b60408051918252519081900360200190f35b6102fc600480360360608110156103ab57600080fd5b506001600160a01b03813581169160208101359091169060400135610a24565b610383600480360360408110156103e157600080fd5b506001600160a01b038135169060200135610a7b565b6102fc6004803603604081101561040d57600080fd5b6001600160a01b038235169190810190604081016020820135600160201b81111561043757600080fd5b82018360208201111561044957600080fd5b803590602001918460018302840111600160201b8311171561046a57600080fd5b509092509050610afa565b6102fc6004803603606081101561048b57600080fd5b506001600160a01b03813581169160208101359091169060400135610b81565b610383600480360360208110156104c157600080fd5b5035610b9c565b6102b4600480360360208110156104de57600080fd5b5035610c02565b610222610c5c565b610222610cbd565b6103836004803603602081101561050b57600080fd5b50356001600160a01b0316610d4b565b6102fc610db3565b6102b4610e44565b6102b4610e53565b610206610e62565b610222610e88565b6102fc6004803603604081101561055957600080fd5b506001600160a01b0381351690602001351515610ee9565b6102fc6004803603608081101561058757600080fd5b6001600160a01b03823581169260208101359091169160408201359190810190608081016060820135600160201b8111156105c157600080fd5b8201836020820111156105d357600080fd5b803590602001918460018302840111600160201b831117156105f457600080fd5b91908080601f016020809104026020016040519081016040528093929190818152602001838380828437600092019190915250929550610fee945050505050565b6102066004803603602081101561064b57600080fd5b50356001600160a01b031661104c565b6102fc6004803603602081101561067157600080fd5b50356001600160a01b03166110fa565b6102226004803603602081101561069757600080fd5b5035611189565b6102b4600480360360408110156106b457600080fd5b6001600160a01b038235169190810190604081016020820135600160201b8111156106de57600080fd5b8201836020820111156106f057600080fd5b803590602001918460018302840111600160201b8311171561071157600080fd5b509092509050611355565b6102066004803603604081101561073257600080fd5b506001600160a01b03813581169160200135166113cc565b6102b46113fa565b6102fc6004803603602081101561076857600080fd5b50356001600160a01b0316611409565b6001600160e01b0319811660009081526020819052604090205460ff165b919050565b60098054604080516020601f60026000196101006001881615020190951694909404938401819004810282018101909252828152606093909290918301828280156108275780601f106107fc57610100808354040283529160200191610827565b820191906000526020600020905b81548152906001019060200180831161080a57829003601f168201915b505050505090505b90565b600061083d8261145c565b6108785760405162461bcd60e51b815260040180806020018281038252602c815260200180612648602c913960400191505060405180910390fd5b506000908152600260205260409020546001600160a01b031690565b600061089f82610c02565b9050806001600160a01b0316836001600160a01b031614156108f25760405162461bcd60e51b81526004018080602001828103825260218152602001806127186021913960400191505060405180910390fd5b806001600160a01b0316610904611479565b6001600160a01b03161480610925575061092581610920611479565b6113cc565b6109605760405162461bcd60e51b81526004018080602001828103825260388152602001806125bd6038913960400191505060405180910390fd5b61096a838361147d565b505050565b601054600160a01b900460ff1681565b61098883610c02565b6001600160a01b0316610999611479565b6001600160a01b0316146109de5760405162461bcd60e51b81526004018080602001828103825260288152602001806124c26028913960400191505060405180910390fd5b61096a8383838080601f0160208091040260200160405190810160405280939291908181526020018383808284376000920191909152506114eb92505050565b60075490565b610a35610a2f611479565b8261154e565b610a705760405162461bcd60e51b81526004018080602001828103825260318152602001806127396031913960400191505060405180910390fd5b61096a8383836115ea565b6000610a8683610d4b565b8210610ac35760405162461bcd60e51b815260040180806020018281038252602b8152602001806124ea602b913960400191505060405180910390fd5b6001600160a01b0383166000908152600560205260409020805483908110610ae757fe5b9060005260206000200154905092915050565b610b02610e62565b610b41576040805162461bcd60e51b815260206004820181905260248201526000805160206126a0833981519152604482015290519081900360640190fd5b61096a8383838080601f01602080910402602001604051908101604052809392919081815260200183838082843760009201919091525061173b92505050565b61096a83838360405180602001604052806000815250610fee565b6000610ba6610a1e565b8210610be35760405162461bcd60e51b815260040180806020018281038252602c81526020018061276a602c913960400191505060405180910390fd5b60078281548110610bf057fe5b90600052602060002001549050919050565b6000818152600160205260408120546001600160a01b031680610c565760405162461bcd60e51b815260040180806020018281038252602981526020018061261f6029913960400191505060405180910390fd5b92915050565b600b8054604080516020601f60026000196101006001881615020190951694909404938401819004810282018101909252828152606093909290918301828280156108275780601f106107fc57610100808354040283529160200191610827565b600f805460408051602060026001851615610100026000190190941693909304601f81018490048402820184019092528181529291830182828015610d435780601f10610d1857610100808354040283529160200191610d43565b820191906000526020600020905b815481529060010190602001808311610d2657829003601f168201915b505050505081565b60006001600160a01b038216610d925760405162461bcd60e51b815260040180806020018281038252602a8152602001806125f5602a913960400191505060405180910390fd5b6001600160a01b0382166000908152600360205260409020610c56906118a0565b610dbb610e62565b610dfa576040805162461bcd60e51b815260206004820181905260248201526000805160206126a0833981519152604482015290519081900360640190fd5b600d546040516000916001600160a01b0316907f8be0079c531659141344cd1fd0a4f28419497f9722a3daafe3b4186f6b6457e0908390a3600d80546001600160a01b0319169055565b6010546001600160a01b031681565b600d546001600160a01b031690565b600d546000906001600160a01b0316610e79611479565b6001600160a01b031614905090565b600a8054604080516020601f60026000196101006001881615020190951694909404938401819004810282018101909252828152606093909290918301828280156108275780601f106107fc57610100808354040283529160200191610827565b610ef1611479565b6001600160a01b0316826001600160a01b03161415610f57576040805162461bcd60e51b815260206004820152601960248201527f4552433732313a20617070726f766520746f2063616c6c657200000000000000604482015290519081900360640190fd5b8060046000610f64611479565b6001600160a01b03908116825260208083019390935260409182016000908120918716808252919093529120805460ff191692151592909217909155610fa8611479565b60408051841515815290516001600160a01b0392909216917f17307eab39ab6107e8899845ad3d59bd9653f200f220920489ca2b5937696c319181900360200190a35050565b610fff610ff9611479565b8361154e565b61103a5760405162461bcd60e51b81526004018080602001828103825260318152602001806127396031913960400191505060405180910390fd5b611046848484846118a4565b50505050565b6000611060826001600160a01b031661145c565b80610c5657506010546001600160a01b031615801590610c5657506010546040805163c3c5a54760e01b81526001600160a01b0385811660048301529151919092169163c3c5a547916024808301926020929190829003018186803b1580156110c857600080fd5b505afa1580156110dc573d6000803e3d6000fd5b505050506040513d60208110156110f257600080fd5b505192915050565b611102610e62565b611141576040805162461bcd60e51b815260206004820181905260248201526000805160206126a0833981519152604482015290519081900360640190fd5b601054600160a01b900460ff161561115857600080fd5b60108054600160a01b60ff60a01b19909116176001600160a01b0319166001600160a01b0392909216919091179055565b60606111948261145c565b6111cf5760405162461bcd60e51b815260040180806020018281038252602f8152602001806126e9602f913960400191505060405180910390fd5b6000828152600c602090815260409182902080548351601f60026000196101006001861615020190931692909204918201849004840281018401909452808452606093928301828280156112645780601f1061123957610100808354040283529160200191611264565b820191906000526020600020905b81548152906001019060200180831161124757829003601f168201915b5050505050905080516000141561128b575050604080516020810190915260008152610796565b600b8160405160200180838054600181600116156101000203166002900480156112ec5780601f106112ca5761010080835404028352918201916112ec565b820191906000526020600020905b8154815290600101906020018083116112d8575b5050825160208401908083835b602083106113185780518252601f1990920191602091820191016112f9565b6001836020036101000a03801982511681845116808217855250505050505090500192505050604051602081830303815290604052915050610796565b60006113c48484846040516024018080602001828103825284848281815260200192508082843760008184015260408051601f19601f909301831690940184810390920184525250602081018051631ec5a31160e31b6001600160e01b0390911617905293506118f692505050565b949350505050565b6001600160a01b03918216600090815260046020908152604080832093909416825291909152205460ff1690565b600e546001600160a01b031681565b611411610e62565b611450576040805162461bcd60e51b815260206004820181905260248201526000805160206126a0833981519152604482015290519081900360640190fd5b61145981611b1e565b50565b6000908152600160205260409020546001600160a01b0316151590565b3390565b600081815260026020526040902080546001600160a01b0319166001600160a01b03841690811790915581906114b282610c02565b6001600160a01b03167f8c5be1e5ebec7d5bd14f71427d1e84f3dd0314c0f7b2291e5b200ac8c7c3b92560405160405180910390a45050565b6114f48261145c565b61152f5760405162461bcd60e51b815260040180806020018281038252602c815260200180612674602c913960400191505060405180910390fd5b6000828152600c60209081526040909120825161096a928401906123e9565b60006115598261145c565b6115945760405162461bcd60e51b815260040180806020018281038252602c815260200180612591602c913960400191505060405180910390fd5b600061159f83610c02565b9050806001600160a01b0316846001600160a01b031614806115da5750836001600160a01b03166115cf84610832565b6001600160a01b0316145b806113c457506113c481856113cc565b826001600160a01b03166115fd82610c02565b6001600160a01b0316146116425760405162461bcd60e51b81526004018080602001828103825260298152602001806126c06029913960400191505060405180910390fd5b6001600160a01b0382166116875760405162461bcd60e51b815260040180806020018281038252602481526020018061256d6024913960400191505060405180910390fd5b611692838383611bbf565b61169d60008261147d565b6001600160a01b03831660009081526003602052604090206116be90611bca565b6001600160a01b03821660009081526003602052604090206116df90611be1565b60008181526001602052604080822080546001600160a01b0319166001600160a01b0386811691821790925591518493918716917fddf252ad1be2c89b69c2b068fc378daa952ba7f163c4a11628f55a4df523b3ef91a4505050565b604080516302571be360e01b81527f91d1777781884d03a6757a803996e38de2a42967fb37eeaca72729271025a9e2600482015290516001600160a01b038416916302571be3916024808301926020929190829003018186803b1580156117a157600080fd5b505afa1580156117b5573d6000803e3d6000fd5b505050506040513d60208110156117cb57600080fd5b505160405163c47f002760e01b81526020600482018181528451602484015284516001600160a01b039094169363c47f002793869383926044909201919085019080838360005b8381101561182a578181015183820152602001611812565b50505050905090810190601f1680156118575780820380516001836020036101000a031916815260200191505b5092505050602060405180830381600087803b15801561187657600080fd5b505af115801561188a573d6000803e3d6000fd5b505050506040513d602081101561104657600080fd5b5490565b6118af8484846115ea565b6118bb84848484611bea565b6110465760405162461bcd60e51b81526004018080602001828103825260328152602001806125156032913960400191505060405180910390fd5b600080611a2783856040516020018083805190602001908083835b602083106119305780518252601f199092019160209182019101611911565b6001836020036101000a038019825116818451168082178552505050505050905001826001600160a01b03166001600160a01b031660601b81526014019250505060405160208183030381529060405280519060200120600f8054600181600116156101000203166002900480601f016020809104026020016040519081016040528092919081815260200182805460018160011615610100020316600290048015611a1d5780601f106119f257610100808354040283529160200191611a1d565b820191906000526020600020905b815481529060010190602001808311611a0057829003601f168201915b5050505050611e25565b600e546040805163347d5e2560e21b81526001600160a01b0392831660048201818152602483019384528851604484015288519596509386169463d1f5789494919389939091606490910190602085019080838360005b83811015611a96578181015183820152602001611a7e565b50505050905090810190601f168015611ac35780820380516001836020036101000a031916815260200191505b509350505050600060405180830381600087803b158015611ae357600080fd5b505af1158015611af7573d6000803e3d6000fd5b50505050611b0e84826001600160a01b0316611e96565b6001600160a01b03169392505050565b6001600160a01b038116611b635760405162461bcd60e51b81526004018080602001828103825260268152602001806125476026913960400191505060405180910390fd5b600d546040516001600160a01b038084169216907f8be0079c531659141344cd1fd0a4f28419497f9722a3daafe3b4186f6b6457e090600090a3600d80546001600160a01b0319166001600160a01b0392909216919091179055565b61096a838383611fd3565b8054611bdd90600163ffffffff61202a16565b9055565b80546001019055565b6000611bfe846001600160a01b031661206c565b611c0a575060016113c4565b600060606001600160a01b038616630a85bd0160e11b611c28611479565b89888860405160240180856001600160a01b03166001600160a01b03168152602001846001600160a01b03166001600160a01b0316815260200183815260200180602001828103825283818151815260200191508051906020019080838360005b83811015611ca1578181015183820152602001611c89565b50505050905090810190601f168015611cce5780820380516001836020036101000a031916815260200191505b5060408051601f198184030181529181526020820180516001600160e01b03166001600160e01b0319909a16999099178952518151919890975087965094509250829150849050835b60208310611d365780518252601f199092019160209182019101611d17565b6001836020036101000a0380198251168184511680821785525050505050509050019150506000604051808303816000865af19150503d8060008114611d98576040519150601f19603f3d011682016040523d82523d6000602084013e611d9d565b606091505b509150915081611dee57805115611db75780518082602001fd5b60405162461bcd60e51b81526004018080602001828103825260328152602001806125156032913960400191505060405180910390fd5b6000818060200190516020811015611e0557600080fd5b50516001600160e01b031916630a85bd0160e11b1493506113c492505050565b600080838351602085016000f590506001600160a01b038116611e8f576040805162461bcd60e51b815260206004820152601960248201527f437265617465323a204661696c6564206f6e206465706c6f7900000000000000604482015290519081900360640190fd5b9392505050565b6001600160a01b038216611ef1576040805162461bcd60e51b815260206004820181905260248201527f4552433732313a206d696e7420746f20746865207a65726f2061646472657373604482015290519081900360640190fd5b611efa8161145c565b15611f4c576040805162461bcd60e51b815260206004820152601c60248201527f4552433732313a20746f6b656e20616c7265616479206d696e74656400000000604482015290519081900360640190fd5b611f5860008383611bbf565b600081815260016020908152604080832080546001600160a01b0319166001600160a01b038716908117909155835260039091529020611f9790611be1565b60405181906001600160a01b038416906000907fddf252ad1be2c89b69c2b068fc378daa952ba7f163c4a11628f55a4df523b3ef908290a45050565b611fde8383836120a5565b6001600160a01b03821661096a576000818152600c6020526040902054600260001961010060018416150201909116041561096a576000818152600c6020526040812061096a91612467565b6000611e8f83836040518060400160405280601e81526020017f536166654d6174683a207375627472616374696f6e206f766572666c6f77000081525061211a565b6000813f7fc5d2460186f7233c927e7db2dcc703c0e500b653ca82273b7bfad8045d85a4708181148015906113c4575050151592915050565b6120b083838361096a565b6001600160a01b0383166120d6576120c882826121b1565b6120d1816121ef565b61096a565b6001600160a01b038216612106576120ee8382612233565b6000818152600660205260408120556120d181612335565b6121108382612233565b61096a82826121b1565b600081848411156121a95760405162461bcd60e51b81526004018080602001828103825283818151815260200191508051906020019080838360005b8381101561216e578181015183820152602001612156565b50505050905090810190601f16801561219b5780820380516001836020036101000a031916815260200191505b509250505060405180910390fd5b505050900390565b6001600160a01b0390911660009081526005602081815260408084208054868652600684529185208290559282526001810183559183529091200155565b600780546000838152600860205260408120829055600182018355919091527fa66cc928b5edb82af9bd49922954155ab7b0942694bea4ce44661d9a8736c6880155565b6001600160a01b03821660009081526005602052604081205461225d90600163ffffffff61202a16565b6000838152600660205260409020549091508082146122f8576001600160a01b038416600090815260056020526040812080548490811061229a57fe5b906000526020600020015490508060056000876001600160a01b03166001600160a01b0316815260200190815260200160002083815481106122d857fe5b600091825260208083209091019290925591825260069052604090208190555b6001600160a01b038416600090815260056020526040902080548061231957fe5b6001900381819060005260206000200160009055905550505050565b60075460009061234c90600163ffffffff61202a16565b6000838152600860205260408120546007805493945090928490811061236e57fe5b90600052602060002001549050806007838154811061238957fe5b600091825260208083209091019290925582815260089091526040902082905560078054806123b457fe5b600190038181906000526020600020016000905590556000600860008681526020019081526020016000208190555050505050565b828054600181600116156101000203166002900490600052602060002090601f016020900481019282601f1061242a57805160ff1916838001178555612457565b82800160010185558215612457579182015b8281111561245757825182559160200191906001019061243c565b506124639291506124a7565b5090565b50805460018160011615610100020316600290046000825580601f1061248d5750611459565b601f01602090049060005260206000209081019061145991905b61082f91905b8082111561246357600081556001016124ad56fe4552433732313a20616363657373207265737472696374656420746f20746f6b656e206f776e6572455243373231456e756d657261626c653a206f776e657220696e646578206f7574206f6620626f756e64734552433732313a207472616e7366657220746f206e6f6e20455243373231526563656976657220696d706c656d656e7465724f776e61626c653a206e6577206f776e657220697320746865207a65726f20616464726573734552433732313a207472616e7366657220746f20746865207a65726f20616464726573734552433732313a206f70657261746f7220717565727920666f72206e6f6e6578697374656e7420746f6b656e4552433732313a20617070726f76652063616c6c6572206973206e6f74206f776e6572206e6f7220617070726f76656420666f7220616c6c4552433732313a2062616c616e636520717565727920666f7220746865207a65726f20616464726573734552433732313a206f776e657220717565727920666f72206e6f6e6578697374656e7420746f6b656e4552433732313a20617070726f76656420717565727920666f72206e6f6e6578697374656e7420746f6b656e4552433732314d657461646174613a2055524920736574206f66206e6f6e6578697374656e7420746f6b656e4f776e61626c653a2063616c6c6572206973206e6f7420746865206f776e65724552433732313a207472616e73666572206f6620746f6b656e2074686174206973206e6f74206f776e4552433732314d657461646174613a2055524920717565727920666f72206e6f6e6578697374656e7420746f6b656e4552433732313a20617070726f76616c20746f2063757272656e74206f776e65724552433732313a207472616e736665722063616c6c6572206973206e6f74206f776e6572206e6f7220617070726f766564455243373231456e756d657261626c653a20676c6f62616c20696e646578206f7574206f6620626f756e6473a2646970667358221220884e156a2472165e3d286fffdd5b5911190520fc0bb6a2fb86ee35ce88e5adbe64736f6c63430006040033608060405234801561001057600080fd5b50610809806100206000396000f3fe608060405234801561001057600080fd5b50600436106100885760003560e01c80638da5cb5b1161005b5780638da5cb5b146101ca578063b55e75af146101d2578063f199413c146101da578063f62d1888146101fd57610088565b80633121db1c1461008d578063584feb3a1461010f5780637b1039991461018c57806387639c68146101b0575b600080fd5b61010d600480360360408110156100a357600080fd5b6001600160a01b0382351691908101906040810160208201356401000000008111156100ce57600080fd5b8201836020820111156100e057600080fd5b8035906020019184600183028401116401000000008311171561010257600080fd5b5090925090506102a3565b005b610117610346565b6040805160208082528351818301528351919283929083019185019080838360005b83811015610151578181015183820152602001610139565b50505050905090810190601f16801561017e5780820380516001836020036101000a031916815260200191505b509250505060405180910390f35b6101946103d3565b604080516001600160a01b039092168252519081900360200190f35b6101b86103e2565b60408051918252519081900360200190f35b6101946103e8565b6101b8610466565b61010d600480360360408110156101f057600080fd5b508035906020013561046c565b61010d6004803603602081101561021357600080fd5b81019060208101813564010000000081111561022e57600080fd5b82018360208201111561024057600080fd5b8035906020019184600183028401116401000000008311171561026257600080fd5b91908080601f016020809104026020016040519081016040528093929190818152602001838380828437600092019190915250929550610530945050505050565b336102ac6103e8565b6001600160a01b031614610301576040805162461bcd60e51b815260206004820152601760248201527631b0b63632b91034b9903737ba103a34329037bbb732b960491b604482015290519081900360640190fd5b6103418383838080601f01602080910402602001604051908101604052809392919081815260200183838082843760009201919091525061055a92505050565b505050565b60018054604080516020600284861615610100026000190190941693909304601f810184900484028201840190925281815292918301828280156103cb5780601f106103a0576101008083540402835291602001916103cb565b820191906000526020600020905b8154815290600101906020018083116103ae57829003601f168201915b505050505081565b6000546001600160a01b031681565b60035481565b60008054604080516331a9108f60e11b815230600482015290516001600160a01b0390921691636352211e91602480820192602092909190829003018186803b15801561043457600080fd5b505afa158015610448573d6000803e3d6000fd5b505050506040513d602081101561045e57600080fd5b505190505b90565b60025481565b336104756103e8565b6001600160a01b0316146104ca576040805162461bcd60e51b815260206004820152601760248201527631b0b63632b91034b9903737ba103a34329037bbb732b960491b604482015290519081900360640190fd5b60648111156104d857600080fd5b60025460035460408051928352602083018590528281019190915260608201839052517f61f37ef3a6d587ce2d6be79492e1fac570f2745787015db7ed95ad4397b05c1e9181900360800190a1600291909155600355565b610539336106c5565b805161054c90600190602084019061073b565b5050601e6002556001600355565b604080516302571be360e01b81527f91d1777781884d03a6757a803996e38de2a42967fb37eeaca72729271025a9e2600482015290516001600160a01b038416916302571be3916024808301926020929190829003018186803b1580156105c057600080fd5b505afa1580156105d4573d6000803e3d6000fd5b505050506040513d60208110156105ea57600080fd5b505160405163c47f002760e01b81526020600482018181528451602484015284516001600160a01b039094169363c47f002793869383926044909201919085019080838360005b83811015610649578181015183820152602001610631565b50505050905090810190601f1680156106765780820380516001836020036101000a031916815260200191505b5092505050602060405180830381600087803b15801561069557600080fd5b505af11580156106a9573d6000803e3d6000fd5b505050506040513d60208110156106bf57600080fd5b50505050565b6000546001600160a01b031615610719576040805162461bcd60e51b8152602060048201526013602482015272185b1c9958591e481a5b9a5d1a585b1a5e9959606a1b604482015290519081900360640190fd5b600080546001600160a01b0319166001600160a01b0392909216919091179055565b828054600181600116156101000203166002900490600052602060002090601f016020900481019282601f1061077c57805160ff19168380011785556107a9565b828001600101855582156107a9579182015b828111156107a957825182559160200191906001019061078e565b506107b59291506107b9565b5090565b61046391905b808211156107b557600081556001016107bf56fea264697066735822122074517dc0b27353c67f68c8ad08bdb7b05396b5252f0f7939f70f15937a6d550b64736f6c63430006040033608060405234801561001057600080fd5b506103ad806100206000396000f3fe6080604052600436106100225760003560e01c8063d1f578941461003957610031565b366100315761002f6100ef565b005b61002f6100ef565b61002f6004803603604081101561004f57600080fd5b6001600160a01b03823516919081019060408101602082013564010000000081111561007a57600080fd5b82018360208201111561008c57600080fd5b803590602001918460018302840111640100000000831117156100ae57600080fd5b91908080601f016020809104026020016040519081016040528093929190818152602001838380828437600092019190915250929550610109945050505050565b6100f7610107565b61010761010261022c565b610251565b565b600061011361022c565b6001600160a01b03161461012657600080fd5b60405180602361031a82396040519081900360230190207f7050c9e0f4ca769c69bd3a8ef740bc37934f8e2c036e5a723fd8ee048ed3f8c314905061016757fe5b61017082610275565b805115610228576000826001600160a01b0316826040518082805190602001908083835b602083106101b35780518252601f199092019160209182019101610194565b6001836020036101000a038019825116818451168082178552505050505050905001915050600060405180830381855af49150503d8060008114610213576040519150601f19603f3d011682016040523d82523d6000602084013e610218565b606091505b505090508061022657600080fd5b505b5050565b7f7050c9e0f4ca769c69bd3a8ef740bc37934f8e2c036e5a723fd8ee048ed3f8c35490565b3660008037600080366000845af43d6000803e808015610270573d6000f35b3d6000fd5b61027e816102dd565b6102b95760405162461bcd60e51b815260040180806020018281038252603b81526020018061033d603b913960400191505060405180910390fd5b7f7050c9e0f4ca769c69bd3a8ef740bc37934f8e2c036e5a723fd8ee048ed3f8c355565b6000813f7fc5d2460186f7233c927e7db2dcc703c0e500b653ca82273b7bfad8045d85a47081811480159061031157508115155b94935050505056fe6f72672e7a657070656c696e6f732e70726f78792e696d706c656d656e746174696f6e43616e6e6f742073657420612070726f787920696d706c656d656e746174696f6e20746f2061206e6f6e2d636f6e74726163742061646472657373a264697066735822122054d7aa3c843bf41b29a61ce539db1f2e9829491d85c504242e389b69b3c5f59164736f6c63430006040033",
  "source": "pragma solidity ^0.6.0;\n\nimport '../Registry.sol';\nimport './Workerpool.sol';\n\n\ncontract WorkerpoolRegistry is Registry\n{\n\t/**\n\t * Constructor\n\t */\n\tconstructor()\n\tpublic Registry(\n\t\taddress(new Workerpool()),\n\t\t\"iExec Workerpool Registry (V5)\",\n\t\t\"iExecWorkerpoolV5\")\n\t{\n\t}\n\n\t/**\n\t * Pool creation\n\t */\n\tfunction createWorkerpool(\n\t\taddress          _workerpoolOwner,\n\t\tstring  calldata _workerpoolDescription)\n\texternal returns (Workerpool)\n\t{\n\t\treturn Workerpool(_mintCreate(\n\t\t\t_workerpoolOwner,\n\t\t\tabi.encodeWithSignature(\n\t\t\t\t\"initialize(string)\",\n\t\t\t\t_workerpoolDescription\n\t\t\t)\n\t\t));\n\t}\n}\n",
  "sourcePath": "/home/amxx/Work/iExec/code/PoCo-dev/contracts/registries/workerpools/WorkerpoolRegistry.sol",
  "compiler": {
    "name": "solc",
    "version": "0.6.4+commit.1dca32f3.Emscripten.clang"
  },
  "schemaVersion": "3.0.23",
  "updatedAt": "2020-03-13T16:37:49.141Z",
  "devdoc": {
    "methods": {
      "approve(address,uint256)": {
        "details": "Approves another address to transfer the given token ID The zero address indicates there is no approved address. There can only be one approved address per token at a given time. Can only be called by the token owner or an approved operator.",
        "params": {
          "to": "address to be approved for the given token ID",
          "tokenId": "uint256 ID of the token to be approved"
        }
      },
      "balanceOf(address)": {
        "details": "Gets the balance of the specified address.",
        "params": {
          "owner": "address to query the balance of"
        },
        "returns": {
          "_0": "uint256 representing the amount owned by the passed address"
        }
      },
      "baseURI()": {
        "details": "Returns the base URI set via {_setBaseURI}. This will be automatically added as a preffix in {tokenURI} to each token's URI, when they are non-empty.    * _Available since v2.5.0._"
      },
      "getApproved(uint256)": {
        "details": "Gets the approved address for a token ID, or zero if no address set Reverts if the token ID does not exist.",
        "params": {
          "tokenId": "uint256 ID of the token to query the approval of"
        },
        "returns": {
          "_0": "address currently approved for the given token ID"
        }
      },
      "isApprovedForAll(address,address)": {
        "details": "Tells whether an operator is approved by a given owner.",
        "params": {
          "operator": "operator address which you want to query the approval of",
          "owner": "owner address which you want to query the approval of"
        },
        "returns": {
          "_0": "bool whether the given operator is approved by the given owner"
        }
      },
      "isOwner()": {
        "details": "Returns true if the caller is the current owner."
      },
      "name()": {
        "details": "Gets the token name.",
        "returns": {
          "_0": "string representing the token name"
        }
      },
      "owner()": {
        "details": "Returns the address of the current owner."
      },
      "ownerOf(uint256)": {
        "details": "Gets the owner of the specified token ID.",
        "params": {
          "tokenId": "uint256 ID of the token to query the owner of"
        },
        "returns": {
          "_0": "address currently marked as the owner of the given token ID"
        }
      },
      "renounceOwnership()": {
        "details": "Leaves the contract without owner. It will not be possible to call `onlyOwner` functions anymore. Can only be called by the current owner.     * NOTE: Renouncing ownership will leave the contract without an owner, thereby removing any functionality that is only available to the owner."
      },
      "safeTransferFrom(address,address,uint256)": {
        "details": "Safely transfers the ownership of a given token ID to another address If the target address is a contract, it must implement {IERC721Receiver-onERC721Received}, which is called upon a safe transfer, and return the magic value `bytes4(keccak256(\"onERC721Received(address,address,uint256,bytes)\"))`; otherwise, the transfer is reverted. Requires the msg.sender to be the owner, approved, or operator",
        "params": {
          "from": "current owner of the token",
          "to": "address to receive the ownership of the given token ID",
          "tokenId": "uint256 ID of the token to be transferred"
        }
      },
      "safeTransferFrom(address,address,uint256,bytes)": {
        "details": "Safely transfers the ownership of a given token ID to another address If the target address is a contract, it must implement {IERC721Receiver-onERC721Received}, which is called upon a safe transfer, and return the magic value `bytes4(keccak256(\"onERC721Received(address,address,uint256,bytes)\"))`; otherwise, the transfer is reverted. Requires the _msgSender() to be the owner, approved, or operator",
        "params": {
          "_data": "bytes data to send along with a safe transfer check",
          "from": "current owner of the token",
          "to": "address to receive the ownership of the given token ID",
          "tokenId": "uint256 ID of the token to be transferred"
        }
      },
      "setApprovalForAll(address,bool)": {
        "details": "Sets or unsets the approval of a given operator An operator is allowed to transfer all tokens of the sender on their behalf.",
        "params": {
          "approved": "representing the status of the approval to be set",
          "operator": "operator address to set the approval"
        }
      },
      "supportsInterface(bytes4)": {
        "details": "See {IERC165-supportsInterface}.     * Time complexity O(1), guaranteed to always use less than 30 000 gas."
      },
      "symbol()": {
        "details": "Gets the token symbol.",
        "returns": {
          "_0": "string representing the token symbol"
        }
      },
      "tokenByIndex(uint256)": {
        "details": "Gets the token ID at a given index of all the tokens in this contract Reverts if the index is greater or equal to the total number of tokens.",
        "params": {
          "index": "uint256 representing the index to be accessed of the tokens list"
        },
        "returns": {
          "_0": "uint256 token ID at the given index of the tokens list"
        }
      },
      "tokenOfOwnerByIndex(address,uint256)": {
        "details": "Gets the token ID at a given index of the tokens list of the requested owner.",
        "params": {
          "index": "uint256 representing the index to be accessed of the requested tokens list",
          "owner": "address owning the tokens list to be accessed"
        },
        "returns": {
          "_0": "uint256 token ID at the given index of the tokens list owned by the requested address"
        }
      },
      "tokenURI(uint256)": {
        "details": "Returns the URI for a given token ID. May return an empty string.     * If the token's URI is non-empty and a base URI was set (via {_setBaseURI}), it will be added to the token ID's URI as a prefix.     * Reverts if the token ID does not exist."
      },
      "totalSupply()": {
        "details": "Gets the total amount of tokens stored by the contract.",
        "returns": {
          "_0": "uint256 representing the total amount of tokens"
        }
      },
      "transferFrom(address,address,uint256)": {
        "details": "Transfers the ownership of a given token ID to another address. Usage of this method is discouraged, use {safeTransferFrom} whenever possible. Requires the msg.sender to be the owner, approved, or operator.",
        "params": {
          "from": "current owner of the token",
          "to": "address to receive the ownership of the given token ID",
          "tokenId": "uint256 ID of the token to be transferred"
        }
      },
      "transferOwnership(address)": {
        "details": "Transfers ownership of the contract to a new account (`newOwner`). Can only be called by the current owner."
      }
    }
  },
  "userdoc": {
    "methods": {
      "constructor": "Constructor",
      "createWorkerpool(address,string)": {
        "notice": "Pool creation"
      }
    }
  }
}