{
  "contractName": "WorkOrderFactory",
  "abi": [
    {
      "constant": true,
      "inputs": [
        {
          "name": "",
          "type": "address"
        }
      ],
      "name": "m_workorders",
      "outputs": [
        {
          "name": "",
          "type": "bool"
        }
      ],
      "payable": false,
      "stateMutability": "view",
      "type": "function"
    },
    {
      "constant": true,
      "inputs": [],
      "name": "m_owner",
      "outputs": [
        {
          "name": "",
          "type": "address"
        }
      ],
      "payable": false,
      "stateMutability": "view",
      "type": "function"
    },
    {
      "constant": false,
      "inputs": [
        {
          "name": "_newOwner",
          "type": "address"
        }
      ],
      "name": "transferOwnership",
      "outputs": [],
      "payable": false,
      "stateMutability": "nonpayable",
      "type": "function"
    },
    {
      "inputs": [],
      "payable": false,
      "stateMutability": "nonpayable",
      "type": "constructor"
    },
    {
      "anonymous": false,
      "inputs": [
        {
          "indexed": true,
          "name": "previousOwner",
          "type": "address"
        },
        {
          "indexed": true,
          "name": "newOwner",
          "type": "address"
        }
      ],
      "name": "OwnershipTransferred",
      "type": "event"
    },
    {
      "constant": false,
      "inputs": [
        {
          "name": "_commonOrder",
          "type": "uint256[3]"
        },
        {
          "name": "_poolOrder_workerpool",
          "type": "address"
        },
        {
          "name": "_poolOrder_workerpoolOwner",
          "type": "address"
        },
        {
          "name": "_userOrder",
          "type": "address[5]"
        },
        {
          "name": "_userOrder_params",
          "type": "string"
        },
        {
          "name": "_appPayment",
          "type": "uint256"
        }
      ],
      "name": "createWorkOrder",
      "outputs": [
        {
          "name": "",
          "type": "address"
        }
      ],
      "payable": false,
      "stateMutability": "nonpayable",
      "type": "function"
    },
    {
      "constant": true,
      "inputs": [
        {
          "name": "_woid",
          "type": "address"
        }
      ],
      "name": "isValid",
      "outputs": [
        {
          "name": "",
          "type": "bool"
        }
      ],
      "payable": false,
      "stateMutability": "view",
      "type": "function"
    }
  ],
  "bytecode": "0x6060604052341561000f57600080fd5b60008054600160a060020a033316600160a060020a03199091161790556114398061003b6000396000f30060606040526004361061006c5763ffffffff7c01000000000000000000000000000000000000000000000000000000006000350416638780dc6181146100715780638b1b925f14610147578063c60891171461017a578063deff41c114610199578063f2fde38b146101ac575b600080fd5b341561007c57600080fd5b61012b60046064816003606060405190810160405291908282606080828437509395600160a060020a0386358116966020810135909116955090935060e0810192506040908101915060059060a090519081016040529190828260a0808284375093959460208082019550903586018082019450359250829150601f8201819004810201604051908101604052818152929190602084018383808284375094965050933593506101cd92505050565b604051600160a060020a03909116815260200160405180910390f35b341561015257600080fd5b610166600160a060020a03600435166103a1565b604051901515815260200160405180910390f35b341561018557600080fd5b610166600160a060020a03600435166103bf565b34156101a457600080fd5b61012b6103d4565b34156101b757600080fd5b6101cb600160a060020a03600435166103e3565b005b60008054819033600160a060020a039081169116146101eb57600080fd5b8787878787876101f961047e565b8087606080838360005b8381101561021b578082015183820152602001610203565b505050600160a060020a03808b16949092019384525087166020830152506040018460a080838360005b8381101561025d578082015183820152602001610245565b5050505090500180602001838152602001828103825284818151815260200191508051906020019080838360005b838110156102a357808201518382015260200161028b565b50505050905090810190601f1680156102d05780820380516001836020036101000a031916815260200191505b50975050505050505050604051809103906000f08015156102f057600080fd5b600054909150600160a060020a038083169163f2fde38b91166040517c010000000000000000000000000000000000000000000000000000000063ffffffff8416028152600160a060020a039091166004820152602401600060405180830381600087803b151561036057600080fd5b5af1151561036d57600080fd5b505050600160a060020a0381166000908152600160208190526040909120805460ff19169091179055979650505050505050565b600160a060020a031660009081526001602052604090205460ff1690565b60016020526000908152604090205460ff1681565b600054600160a060020a031681565b60005433600160a060020a039081169116146103fe57600080fd5b600160a060020a038116151561041357600080fd5b600054600160a060020a0380831691167f8be0079c531659141344cd1fd0a4f28419497f9722a3daafe3b4186f6b6457e060405160405180910390a36000805473ffffffffffffffffffffffffffffffffffffffff1916600160a060020a0392909216919091179055565b604051610f7f8061048f8339019056006060604052341561000f57600080fd5b604051610f7f380380610f7f83398101604052806060810180519190602001805191602082019160c001805182019190602001805160008054600160a060020a03191633600160a060020a03161760a060020a60ff021916740100000000000000000000000000000000000000001790559150869050516001556020860151600255604086015160035560048054600160a060020a03878116600160a060020a0319928316179092556005805492871692909116919091179055825160068054600160a060020a031916600160a060020a0392909216919091179055826001602002015160078054600160a060020a031916600160a060020a0392909216919091179055826002602002015160088054600160a060020a031916600160a060020a0392909216919091179055826003602002015160098054600160a060020a031916600160a060020a03929092169190911790558260046020020151600a8054600160a060020a031916600160a060020a0392909216919091179055600b82805161019e9291602001906101ad565b50600c55506102489350505050565b828054600181600116156101000203166002900490600052602060002090601f016020900481019282601f106101ee57805160ff191683800117855561021b565b8280016001018555821561021b579182015b8281111561021b578251825591602001919060010190610200565b5061022792915061022b565b5090565b61024591905b808211156102275760008155600101610231565b90565b610d28806102576000396000f3006060604052600436106101275763ffffffff7c01000000000000000000000000000000000000000000000000000000006000350416630690e5b8811461012c578063143c43ce1461015b57806315298c77146101805780631a514d971461020a5780632d4d671f146102315780632e2a9ca114610244578063428da35d1461025757806349e587b61461026a5780634e71d92d1461027d5780635f44910c146102925780636946f692146102a557806371a599ca146102b85780639c4a8561146102cb578063cc3a2dfa146102de578063d5fdfdbc146102f1578063d72769ac146103c6578063da1fea28146103d9578063deff41c1146103ec578063e329c478146103ff578063f2fde38b14610436578063f3859f5714610455578063f6a5b13e14610468575b600080fd5b341561013757600080fd5b61013f61047b565b604051600160a060020a03909116815260200160405180910390f35b341561016657600080fd5b61016e61048a565b60405190815260200160405180910390f35b341561018b57600080fd5b610193610490565b60405160208082528190810183818151815260200191508051906020019080838360005b838110156101cf5780820151838201526020016101b7565b50505050905090810190601f1680156101fc5780820380516001836020036101000a031916815260200191505b509250505060405180910390f35b341561021557600080fd5b61021d61052e565b604051901515815260200160405180910390f35b341561023c57600080fd5b61021d6105c7565b341561024f57600080fd5b61013f610670565b341561026257600080fd5b61016e61067f565b341561027557600080fd5b61016e610685565b341561028857600080fd5b61029061068b565b005b341561029d57600080fd5b61013f610751565b34156102b057600080fd5b61013f610760565b34156102c357600080fd5b61013f61076f565b34156102d657600080fd5b61019361077e565b34156102e957600080fd5b6101936107e9565b34156102fc57600080fd5b61029060046024813581810190830135806020601f8201819004810201604051908101604052818152929190602084018383808284378201915050505050509190803590602001908201803590602001908080601f01602080910402602001604051908101604052818152929190602084018383808284378201915050505050509190803590602001908201803590602001908080601f01602080910402602001604051908101604052818152929190602084018383808284375094965061085495505050505050565b34156103d157600080fd5b61016e610b1b565b34156103e457600080fd5b61013f610b21565b34156103f757600080fd5b61013f610b30565b341561040a57600080fd5b610412610b3f565b6040518082600481111561042257fe5b60ff16815260200191505060405180910390f35b341561044157600080fd5b610290600160a060020a0360043516610b4f565b341561046057600080fd5b610193610bea565b341561047357600080fd5b61013f610c55565b600454600160a060020a031681565b60015481565b600b8054600181600116156101000203166002900480601f0160208091040260200160405190810160405280929190818152602001828054600181600116156101000203166002900480156105265780601f106104fb57610100808354040283529160200191610526565b820191906000526020600020905b81548152906001019060200180831161050957829003601f168201915b505050505081565b60045460009033600160a060020a0390811691161461054c57600080fd5b600260005460a060020a900460ff16600481111561056657fe5b1461057057600080fd5b6000805474ff0000000000000000000000000000000000000000191660a060020a1790557f06c42818c4ab74dff6aec55942f601c2e9b7f2aa4321ee71690b125eacfe465460405160405180910390a15060015b90565b60045460009033600160a060020a039081169116146105e557600080fd5b600160005460a060020a900460ff1660048111156105ff57fe5b1461060957600080fd5b6000805474ff00000000000000000000000000000000000000001916740200000000000000000000000000000000000000001790557f2b0cab0be6d82b2661b3b789c540ec9c7223aac635ac8e59a1e71e1137f2dd7760405160405180910390a150600190565b600554600160a060020a031681565b60025481565b60035481565b60005433600160a060020a039081169116146106a657600080fd5b600160005460a060020a900460ff1660048111156106c057fe5b14806106e35750600260005460a060020a900460ff1660048111156106e157fe5b145b15156106ee57600080fd5b6000805474ff00000000000000000000000000000000000000001916740300000000000000000000000000000000000000001790557f1938697ee29e363ecda49e464c6d2aae25f0974bd1f2c81a91c21e13ad8dbf7760405160405180910390a1565b600a54600160a060020a031681565b600654600160a060020a031681565b600754600160a060020a031681565b600f8054600181600116156101000203166002900480601f0160208091040260200160405190810160405280929190818152602001828054600181600116156101000203166002900480156105265780601f106104fb57610100808354040283529160200191610526565b600d8054600181600116156101000203166002900480601f0160208091040260200160405190810160405280929190818152602001828054600181600116156101000203166002900480156105265780601f106104fb57610100808354040283529160200191610526565b60005433600160a060020a0390811691161461086f57600080fd5b600260005460a060020a900460ff16600481111561088957fe5b1461089357600080fd5b6000805474ff0000000000000000000000000000000000000000191674040000000000000000000000000000000000000000179055600d8380516108db929160200190610c64565b50600e8280516108ef929160200190610c64565b50600f818051610903929160200190610c64565b50600854600160a060020a031615610aea57600854600160a060020a031663514d7067308585856040518563ffffffff167c01000000000000000000000000000000000000000000000000000000000281526004018085600160a060020a0316600160a060020a03168152602001806020018060200180602001848103845287818151815260200191508051906020019080838360005b838110156109b257808201518382015260200161099a565b50505050905090810190601f1680156109df5780820380516001836020036101000a031916815260200191505b50848103835286818151815260200191508051906020019080838360005b83811015610a155780820151838201526020016109fd565b50505050905090810190601f168015610a425780820380516001836020036101000a031916815260200191505b50848103825285818151815260200191508051906020019080838360005b83811015610a78578082015183820152602001610a60565b50505050905090810190601f168015610aa55780820380516001836020036101000a031916815260200191505b50975050505050505050602060405180830381600087803b1515610ac857600080fd5b5af11515610ad557600080fd5b505050604051805190501515610aea57600080fd5b7f777f59509d985349c80271b657d2649b218bc6f075a4625821b64448cc235b8660405160405180910390a1505050565b600c5481565b600854600160a060020a031681565b600054600160a060020a031681565b60005460a060020a900460ff1681565b60005433600160a060020a03908116911614610b6a57600080fd5b600160a060020a0381161515610b7f57600080fd5b600054600160a060020a0380831691167f8be0079c531659141344cd1fd0a4f28419497f9722a3daafe3b4186f6b6457e060405160405180910390a36000805473ffffffffffffffffffffffffffffffffffffffff1916600160a060020a0392909216919091179055565b600e8054600181600116156101000203166002900480601f0160208091040260200160405190810160405280929190818152602001828054600181600116156101000203166002900480156105265780601f106104fb57610100808354040283529160200191610526565b600954600160a060020a031681565b828054600181600116156101000203166002900490600052602060002090601f016020900481019282601f10610ca557805160ff1916838001178555610cd2565b82800160010185558215610cd2579182015b82811115610cd2578251825591602001919060010190610cb7565b50610cde929150610ce2565b5090565b6105c491905b80821115610cde5760008155600101610ce85600a165627a7a72305820342d25abe050f007c8ee420ad54fd3702915cb5fc66016ce55c1142fd53452ab0029a165627a7a723058207bb08e085997f9dad50dc41d69f57e2cb1460be29a8cad01d62e671bf71ebfeb0029",
  "source": "pragma solidity ^0.4.21;\n\nimport './WorkOrder.sol';\nimport \"./OwnableOZ.sol\";\nimport \"./SafeMathOZ.sol\";\n\ncontract WorkOrderFactory is OwnableOZ\n{\n\n\tusing SafeMathOZ for uint256;\n\n\t/**\n\t * Data\n\t */\n\tmapping(address => bool) public m_workorders;\n\n\t/**\n\t * Constructor\n\t */\n\tfunction WorkOrderFactory()\n\tpublic\n\t{\n\t}\n\n\t/**\n\t * Methods\n\t */\n\tfunction createWorkOrder(\n\t\t/********** Order settings **********/\n\t\tuint256[3] _commonOrder,\n\t\t/* uint256 _commonOrder_category, */\n\t\t/* uint256 _commonOrder_trust, */\n\t\t/* uint256 _commonOrder_value, */\n\t\t/********** Pool settings **********/\n\t\t/* uint256 _poolOrder_volume, */ // NOT NEEDED\n\t\taddress _poolOrder_workerpool,\n\t\taddress _poolOrder_workerpoolOwner,\n\t\t/********** User settings **********/\n\t\taddress[5] _userOrder,\n\t\t/* address _userOrder_app, */\n\t\t/* address _userOrder_dataset, */\n\t\t/* address _userOrder_callback, */\n\t\t/* address _userOrder_beneficiary, */\n\t\t/* address _userOrder_requester, */\n\t\tstring  _userOrder_params,\n\t\t/********** Extra **********/\n\t\tuint256 _appPayment)\n\tpublic onlyOwner returns (WorkOrder)\n\t{\n\t\tWorkOrder workorder = new WorkOrder(\n\t\t\t_commonOrder,\n\t\t\t_poolOrder_workerpool,\n\t\t\t_poolOrder_workerpoolOwner,\n\t\t\t_userOrder,\n\t\t\t_userOrder_params,\n\t\t\t_appPayment\n\t\t);\n\t\tworkorder.transferOwnership(m_owner); // ownership to iExecHub\n\n\t\tm_workorders[workorder] = true;\n\n\t\treturn workorder;\n\t}\n\n\t/*\n\tfunction eraseWorkOrder(address _woid)\n\tpublic onlyOwner\n\t{\n\t\tm_workorders[_woid] = false;\n\t}\n\t*/\n\n\tfunction isValid(address _woid)\n\tpublic view returns (bool)\n\t{\n\t\treturn m_workorders[_woid];\n\t}\n\n}\n",
  "sourcePath": "/home/amxx/Work/iExec/PoCo-dev/contracts/WorkOrderFactory.sol",
  "compiler": {
    "name": "solc",
    "version": "0.4.21+commit.dfe3193c.Emscripten.clang"
  },
  "schemaVersion": "2.0.0",
  "updatedAt": "2018-05-19T17:46:30.118Z"
}