{
  "contractName": "WorkerPool",
  "abi": [
    {
      "constant": true,
      "inputs": [
        {
          "name": "",
          "type": "uint256"
        }
      ],
      "name": "m_workers",
      "outputs": [
        {
          "name": "",
          "type": "address"
        }
      ],
      "payable": false,
      "stateMutability": "view",
      "type": "function"
    },
    {
      "constant": true,
      "inputs": [],
      "name": "m_workersAuthorizedListAddress",
      "outputs": [
        {
          "name": "",
          "type": "address"
        }
      ],
      "payable": false,
      "stateMutability": "view",
      "type": "function"
    },
    {
      "constant": true,
      "inputs": [
        {
          "name": "",
          "type": "address"
        }
      ],
      "name": "m_workerIndex",
      "outputs": [
        {
          "name": "",
          "type": "uint256"
        }
      ],
      "payable": false,
      "stateMutability": "view",
      "type": "function"
    },
    {
      "constant": false,
      "inputs": [],
      "name": "close",
      "outputs": [
        {
          "name": "",
          "type": "bool"
        }
      ],
      "payable": false,
      "stateMutability": "nonpayable",
      "type": "function"
    },
    {
      "constant": true,
      "inputs": [],
      "name": "isOpen",
      "outputs": [
        {
          "name": "",
          "type": "bool"
        }
      ],
      "payable": false,
      "stateMutability": "view",
      "type": "function"
    },
    {
      "constant": true,
      "inputs": [],
      "name": "m_resultRetentionPolicy",
      "outputs": [
        {
          "name": "",
          "type": "uint256"
        }
      ],
      "payable": false,
      "stateMutability": "view",
      "type": "function"
    },
    {
      "constant": false,
      "inputs": [
        {
          "name": "_taskID",
          "type": "address"
        },
        {
          "name": "_taskCost",
          "type": "uint256"
        }
      ],
      "name": "acceptTask",
      "outputs": [
        {
          "name": "taskContributions",
          "type": "address"
        }
      ],
      "payable": false,
      "stateMutability": "nonpayable",
      "type": "function"
    },
    {
      "constant": false,
      "inputs": [
        {
          "name": "_workerPoolsAuthorizedListAddress",
          "type": "address"
        }
      ],
      "name": "attachWorkerPoolsAuthorizedListContract",
      "outputs": [],
      "payable": false,
      "stateMutability": "nonpayable",
      "type": "function"
    },
    {
      "constant": true,
      "inputs": [
        {
          "name": "_worker",
          "type": "address"
        }
      ],
      "name": "isWorkerAllowed",
      "outputs": [
        {
          "name": "",
          "type": "bool"
        }
      ],
      "payable": false,
      "stateMutability": "view",
      "type": "function"
    },
    {
      "constant": false,
      "inputs": [
        {
          "name": "_worker",
          "type": "address"
        }
      ],
      "name": "addWorker",
      "outputs": [
        {
          "name": "",
          "type": "bool"
        }
      ],
      "payable": false,
      "stateMutability": "nonpayable",
      "type": "function"
    },
    {
      "constant": true,
      "inputs": [],
      "name": "m_schedulerRewardRatioPolicy",
      "outputs": [
        {
          "name": "",
          "type": "uint256"
        }
      ],
      "payable": false,
      "stateMutability": "view",
      "type": "function"
    },
    {
      "constant": true,
      "inputs": [],
      "name": "getWorkerPoolOwner",
      "outputs": [
        {
          "name": "",
          "type": "address"
        }
      ],
      "payable": false,
      "stateMutability": "view",
      "type": "function"
    },
    {
      "constant": true,
      "inputs": [
        {
          "name": "_index",
          "type": "uint256"
        }
      ],
      "name": "getWorkerAddress",
      "outputs": [
        {
          "name": "",
          "type": "address"
        }
      ],
      "payable": false,
      "stateMutability": "view",
      "type": "function"
    },
    {
      "constant": true,
      "inputs": [],
      "name": "m_name",
      "outputs": [
        {
          "name": "",
          "type": "string"
        }
      ],
      "payable": false,
      "stateMutability": "view",
      "type": "function"
    },
    {
      "constant": false,
      "inputs": [
        {
          "name": "_newStakeRatioPolicy",
          "type": "uint256"
        },
        {
          "name": "_newSchedulerRewardRatioPolicy",
          "type": "uint256"
        },
        {
          "name": "_newResultRetentionPolicy",
          "type": "uint256"
        }
      ],
      "name": "changeWorkerPoolPolicy",
      "outputs": [],
      "payable": false,
      "stateMutability": "nonpayable",
      "type": "function"
    },
    {
      "constant": false,
      "inputs": [
        {
          "name": "_worker",
          "type": "address"
        }
      ],
      "name": "removeWorker",
      "outputs": [
        {
          "name": "",
          "type": "bool"
        }
      ],
      "payable": false,
      "stateMutability": "nonpayable",
      "type": "function"
    },
    {
      "constant": true,
      "inputs": [],
      "name": "m_stakeRatioPolicy",
      "outputs": [
        {
          "name": "",
          "type": "uint256"
        }
      ],
      "payable": false,
      "stateMutability": "view",
      "type": "function"
    },
    {
      "constant": true,
      "inputs": [],
      "name": "getWorkersCount",
      "outputs": [
        {
          "name": "",
          "type": "uint256"
        }
      ],
      "payable": false,
      "stateMutability": "view",
      "type": "function"
    },
    {
      "constant": true,
      "inputs": [],
      "name": "m_workerPoolStatus",
      "outputs": [
        {
          "name": "",
          "type": "uint8"
        }
      ],
      "payable": false,
      "stateMutability": "view",
      "type": "function"
    },
    {
      "constant": true,
      "inputs": [],
      "name": "m_owner",
      "outputs": [
        {
          "name": "",
          "type": "address"
        }
      ],
      "payable": false,
      "stateMutability": "view",
      "type": "function"
    },
    {
      "constant": true,
      "inputs": [
        {
          "name": "_worker",
          "type": "address"
        }
      ],
      "name": "getWorkerIndex",
      "outputs": [
        {
          "name": "",
          "type": "uint256"
        }
      ],
      "payable": false,
      "stateMutability": "view",
      "type": "function"
    },
    {
      "constant": false,
      "inputs": [
        {
          "name": "_newOwner",
          "type": "address"
        }
      ],
      "name": "transferOwnership",
      "outputs": [],
      "payable": false,
      "stateMutability": "nonpayable",
      "type": "function"
    },
    {
      "constant": false,
      "inputs": [],
      "name": "open",
      "outputs": [
        {
          "name": "",
          "type": "bool"
        }
      ],
      "payable": false,
      "stateMutability": "nonpayable",
      "type": "function"
    },
    {
      "inputs": [
        {
          "name": "_iexecHubAddress",
          "type": "address"
        },
        {
          "name": "_name",
          "type": "string"
        }
      ],
      "payable": false,
      "stateMutability": "nonpayable",
      "type": "constructor"
    },
    {
      "anonymous": false,
      "inputs": [
        {
          "indexed": false,
          "name": "oldStakeRatioPolicy",
          "type": "uint256"
        },
        {
          "indexed": false,
          "name": "newStakeRatioPolicy",
          "type": "uint256"
        },
        {
          "indexed": false,
          "name": "oldSchedulerRewardRatioPolicy",
          "type": "uint256"
        },
        {
          "indexed": false,
          "name": "newSchedulerRewardRatioPolicy",
          "type": "uint256"
        },
        {
          "indexed": false,
          "name": "oldResultRetentionPolicyPolicy",
          "type": "uint256"
        },
        {
          "indexed": false,
          "name": "newResultRetentionPolicyPolicy",
          "type": "uint256"
        }
      ],
      "name": "WorkerPoolPolicyUpdate",
      "type": "event"
    },
    {
      "anonymous": false,
      "inputs": [
        {
          "indexed": true,
          "name": "previousOwner",
          "type": "address"
        },
        {
          "indexed": true,
          "name": "newOwner",
          "type": "address"
        }
      ],
      "name": "OwnershipTransferred",
      "type": "event"
    }
  ],
  "bytecode": "0x606060405234156200001057600080fd5b604051620041dd380380620041dd8339810160405280805190602001909190805182019190505081336000806101000a81548173ffffffffffffffffffffffffffffffffffffffff021916908373ffffffffffffffffffffffffffffffffffffffff160217905550600073ffffffffffffffffffffffffffffffffffffffff168173ffffffffffffffffffffffffffffffffffffffff1614151515620000b557600080fd5b80600160006101000a81548173ffffffffffffffffffffffffffffffffffffffff021916908373ffffffffffffffffffffffffffffffffffffffff16021790555080600260006101000a81548173ffffffffffffffffffffffffffffffffffffffff021916908373ffffffffffffffffffffffffffffffffffffffff160217905550503373ffffffffffffffffffffffffffffffffffffffff163273ffffffffffffffffffffffffffffffffffffffff16141515156200017457600080fd5b620001933262000234640100000000026200127f176401000000009004565b8060039080519060200190620001ab9291906200038b565b50600a600481905550601e60058190555062093a806006819055506000600760006101000a81548160ff02191690836001811115620001e657fe5b021790555033600a60006101000a81548173ffffffffffffffffffffffffffffffffffffffff021916908373ffffffffffffffffffffffffffffffffffffffff16021790555050506200043a565b6000809054906101000a900473ffffffffffffffffffffffffffffffffffffffff1673ffffffffffffffffffffffffffffffffffffffff163373ffffffffffffffffffffffffffffffffffffffff161415156200029057600080fd5b600073ffffffffffffffffffffffffffffffffffffffff168173ffffffffffffffffffffffffffffffffffffffff1614151515620002cd57600080fd5b8073ffffffffffffffffffffffffffffffffffffffff166000809054906101000a900473ffffffffffffffffffffffffffffffffffffffff1673ffffffffffffffffffffffffffffffffffffffff167f8be0079c531659141344cd1fd0a4f28419497f9722a3daafe3b4186f6b6457e060405160405180910390a3806000806101000a81548173ffffffffffffffffffffffffffffffffffffffff021916908373ffffffffffffffffffffffffffffffffffffffff16021790555050565b828054600181600116156101000203166002900490600052602060002090601f016020900481019282601f10620003ce57805160ff1916838001178555620003ff565b82800160010185558215620003ff579182015b82811115620003fe578251825591602001919060010190620003e1565b5b5090506200040e919062000412565b5090565b6200043791905b808211156200043357600081600090555060010162000419565b5090565b90565b613d93806200044a6000396000f3006060604052600436106200014b576000357c0100000000000000000000000000000000000000000000000000000000900463ffffffff1680632b8fd18a1462000150578063323e17b414620001b657806341cb01ad146200020e57806343d726d6146200025e57806347535d7b146200028e5780634c9a4c0414620002be578063539ccb3a14620002ea57806361d62c63146200036f57806371a0c8c314620003ab578063806ad57e14620003ff57806387639c6814620004535780638daa4caf146200047f578063900b7b6214620004d7578063b889dc8d146200053d578063beb19f5d14620005d1578063c4f987a51462000609578063c6c5b072146200065d578063c6ced32b1462000689578063d2afa71614620006b5578063deff41c114620006f0578063ec1847b61462000748578063f2fde38b1462000798578063fcfff16f14620007d4575b600080fd5b34156200015c57600080fd5b62000174600480803590602001909190505062000804565b604051808273ffffffffffffffffffffffffffffffffffffffff1673ffffffffffffffffffffffffffffffffffffffff16815260200191505060405180910390f35b3415620001c257600080fd5b620001cc62000844565b604051808273ffffffffffffffffffffffffffffffffffffffff1673ffffffffffffffffffffffffffffffffffffffff16815260200191505060405180910390f35b34156200021a57600080fd5b62000248600480803573ffffffffffffffffffffffffffffffffffffffff169060200190919050506200086a565b6040518082815260200191505060405180910390f35b34156200026a57600080fd5b6200027462000882565b604051808215151515815260200191505060405180910390f35b34156200029a57600080fd5b620002a462000944565b604051808215151515815260200191505060405180910390f35b3415620002ca57600080fd5b620002d462000975565b6040518082815260200191505060405180910390f35b3415620002f657600080fd5b6200032d600480803573ffffffffffffffffffffffffffffffffffffffff169060200190919080359060200190919050506200097b565b604051808273ffffffffffffffffffffffffffffffffffffffff1673ffffffffffffffffffffffffffffffffffffffff16815260200191505060405180910390f35b34156200037b57600080fd5b620003a9600480803573ffffffffffffffffffffffffffffffffffffffff1690602001909190505062000b6e565b005b3415620003b757600080fd5b620003e5600480803573ffffffffffffffffffffffffffffffffffffffff1690602001909190505062000c0e565b604051808215151515815260200191505060405180910390f35b34156200040b57600080fd5b62000439600480803573ffffffffffffffffffffffffffffffffffffffff1690602001909190505062000cf9565b604051808215151515815260200191505060405180910390f35b34156200045f57600080fd5b6200046962000e0d565b6040518082815260200191505060405180910390f35b34156200048b57600080fd5b6200049562000e13565b604051808273ffffffffffffffffffffffffffffffffffffffff1673ffffffffffffffffffffffffffffffffffffffff16815260200191505060405180910390f35b3415620004e357600080fd5b620004fb600480803590602001909190505062000e3c565b604051808273ffffffffffffffffffffffffffffffffffffffff1673ffffffffffffffffffffffffffffffffffffffff16815260200191505060405180910390f35b34156200054957600080fd5b6200055362000e81565b6040518080602001828103825283818151815260200191508051906020019080838360005b838110156200059557808201518184015260208101905062000578565b50505050905090810190601f168015620005c35780820380516001836020036101000a031916815260200191505b509250505060405180910390f35b3415620005dd57600080fd5b62000607600480803590602001909190803590602001909190803590602001909190505062000f23565b005b34156200061557600080fd5b62000643600480803573ffffffffffffffffffffffffffffffffffffffff1690602001909190505062000ffe565b604051808215151515815260200191505060405180910390f35b34156200066957600080fd5b6200067362001170565b6040518082815260200191505060405180910390f35b34156200069557600080fd5b6200069f62001176565b6040518082815260200191505060405180910390f35b3415620006c157600080fd5b620006cb62001183565b60405180826001811115620006dc57fe5b60ff16815260200191505060405180910390f35b3415620006fc57600080fd5b6200070662001196565b604051808273ffffffffffffffffffffffffffffffffffffffff1673ffffffffffffffffffffffffffffffffffffffff16815260200191505060405180910390f35b34156200075457600080fd5b62000782600480803573ffffffffffffffffffffffffffffffffffffffff16906020019091905050620011bb565b6040518082815260200191505060405180910390f35b3415620007a457600080fd5b620007d2600480803573ffffffffffffffffffffffffffffffffffffffff169060200190919050506200127f565b005b3415620007e057600080fd5b620007ea620013d6565b604051808215151515815260200191505060405180910390f35b6008818154811015156200081457fe5b90600052602060002090016000915054906101000a900473ffffffffffffffffffffffffffffffffffffffff1681565b600b60009054906101000a900473ffffffffffffffffffffffffffffffffffffffff1681565b60096020528060005260406000206000915090505481565b6000600160009054906101000a900473ffffffffffffffffffffffffffffffffffffffff1673ffffffffffffffffffffffffffffffffffffffff163373ffffffffffffffffffffffffffffffffffffffff16141515620008e157600080fd5b60006001811115620008ef57fe5b600760009054906101000a900460ff1660018111156200090b57fe5b1415156200091857600080fd5b6001600760006101000a81548160ff021916908360018111156200093857fe5b02179055506001905090565b60008060018111156200095357fe5b600760009054906101000a900460ff1660018111156200096f57fe5b14905090565b60065481565b600080600080600160009054906101000a900473ffffffffffffffffffffffffffffffffffffffff1673ffffffffffffffffffffffffffffffffffffffff163373ffffffffffffffffffffffffffffffffffffffff16141515620009de57600080fd5b62000a0a6064620009fb600454886200149790919063ffffffff16565b620014d690919063ffffffff16565b925062000a4d606462000a3e62000a2e6004546064620014f290919063ffffffff16565b886200149790919063ffffffff16565b620014d690919063ffffffff16565b91508462000a6583856200150c90919063ffffffff16565b14151562000a6f57fe5b600160009054906101000a900473ffffffffffffffffffffffffffffffffffffffff1686838562000ac1606462000ab26005548c6200149790919063ffffffff16565b620014d690919063ffffffff16565b62000acb6200152b565b808673ffffffffffffffffffffffffffffffffffffffff1673ffffffffffffffffffffffffffffffffffffffff1681526020018573ffffffffffffffffffffffffffffffffffffffff1673ffffffffffffffffffffffffffffffffffffffff16815260200184815260200183815260200182815260200195505050505050604051809103906000f080151562000b6057600080fd5b905080935050505092915050565b6000809054906101000a900473ffffffffffffffffffffffffffffffffffffffff1673ffffffffffffffffffffffffffffffffffffffff163373ffffffffffffffffffffffffffffffffffffffff1614151562000bca57600080fd5b80600b60006101000a81548173ffffffffffffffffffffffffffffffffffffffff021916908373ffffffffffffffffffffffffffffffffffffffff16021790555050565b6000600b60009054906101000a900473ffffffffffffffffffffffffffffffffffffffff1673ffffffffffffffffffffffffffffffffffffffff1663361895c8836000604051602001526040518263ffffffff167c0100000000000000000000000000000000000000000000000000000000028152600401808273ffffffffffffffffffffffffffffffffffffffff1673ffffffffffffffffffffffffffffffffffffffff168152602001915050602060405180830381600087803b151562000cd657600080fd5b6102c65a03f1151562000ce857600080fd5b505050604051805190509050919050565b600080600a60009054906101000a900473ffffffffffffffffffffffffffffffffffffffff1673ffffffffffffffffffffffffffffffffffffffff163373ffffffffffffffffffffffffffffffffffffffff1614151562000d5957600080fd5b6008805480600101828162000d6f91906200153c565b9160005260206000209001600085909190916101000a81548173ffffffffffffffffffffffffffffffffffffffff021916908373ffffffffffffffffffffffffffffffffffffffff160217905550905080600960008573ffffffffffffffffffffffffffffffffffffffff1673ffffffffffffffffffffffffffffffffffffffff168152602001908152602001600020819055506001915050919050565b60045481565b60008060009054906101000a900473ffffffffffffffffffffffffffffffffffffffff16905090565b600060088281548110151562000e4e57fe5b906000526020600020900160009054906101000a900473ffffffffffffffffffffffffffffffffffffffff169050919050565b60038054600181600116156101000203166002900480601f01602080910402602001604051908101604052809291908181526020018280546001816001161561010002031660029004801562000f1b5780601f1062000eef5761010080835404028352916020019162000f1b565b820191906000526020600020905b81548152906001019060200180831162000efd57829003601f168201915b505050505081565b6000809054906101000a900473ffffffffffffffffffffffffffffffffffffffff1673ffffffffffffffffffffffffffffffffffffffff163373ffffffffffffffffffffffffffffffffffffffff1614151562000f7f57600080fd5b7f0da3fc6987413020615228d503903eec96eb1f1ed45fc7e9791da4ca896f793260055484600454856006548660405180878152602001868152602001858152602001848152602001838152602001828152602001965050505050505060405180910390a1826005819055508160048190555080600681905550505050565b600080600a60009054906101000a900473ffffffffffffffffffffffffffffffffffffffff1673ffffffffffffffffffffffffffffffffffffffff163373ffffffffffffffffffffffffffffffffffffffff161415156200105e57600080fd5b6200106983620011bb565b905060086001600880549050038154811015156200108357fe5b906000526020600020900160009054906101000a900473ffffffffffffffffffffffffffffffffffffffff16600882815481101515620010bf57fe5b906000526020600020900160006101000a81548173ffffffffffffffffffffffffffffffffffffffff021916908373ffffffffffffffffffffffffffffffffffffffff16021790555060086001600880549050038154811015156200112057fe5b906000526020600020900160006101000a81549073ffffffffffffffffffffffffffffffffffffffff021916905560088054809190600190036200116591906200156b565b506001915050919050565b60055481565b6000600880549050905090565b600760009054906101000a900460ff1681565b6000809054906101000a900473ffffffffffffffffffffffffffffffffffffffff1681565b600080600960008473ffffffffffffffffffffffffffffffffffffffff1673ffffffffffffffffffffffffffffffffffffffff1681526020019081526020016000205490508273ffffffffffffffffffffffffffffffffffffffff166008828154811015156200122757fe5b906000526020600020900160009054906101000a900473ffffffffffffffffffffffffffffffffffffffff1673ffffffffffffffffffffffffffffffffffffffff161415156200127657600080fd5b80915050919050565b6000809054906101000a900473ffffffffffffffffffffffffffffffffffffffff1673ffffffffffffffffffffffffffffffffffffffff163373ffffffffffffffffffffffffffffffffffffffff16141515620012db57600080fd5b600073ffffffffffffffffffffffffffffffffffffffff168173ffffffffffffffffffffffffffffffffffffffff16141515156200131857600080fd5b8073ffffffffffffffffffffffffffffffffffffffff166000809054906101000a900473ffffffffffffffffffffffffffffffffffffffff1673ffffffffffffffffffffffffffffffffffffffff167f8be0079c531659141344cd1fd0a4f28419497f9722a3daafe3b4186f6b6457e060405160405180910390a3806000806101000a81548173ffffffffffffffffffffffffffffffffffffffff021916908373ffffffffffffffffffffffffffffffffffffffff16021790555050565b6000600160009054906101000a900473ffffffffffffffffffffffffffffffffffffffff1673ffffffffffffffffffffffffffffffffffffffff163373ffffffffffffffffffffffffffffffffffffffff161415156200143557600080fd5b6001808111156200144257fe5b600760009054906101000a900460ff1660018111156200145e57fe5b1415156200146b57600080fd5b6000600760006101000a81548160ff021916908360018111156200148b57fe5b02179055506001905090565b6000806000841415620014ae5760009150620014cf565b8284029050828482811515620014c057fe5b04141515620014cb57fe5b8091505b5092915050565b6000808284811515620014e557fe5b0490508091505092915050565b60008282111515156200150157fe5b818303905092915050565b60008082840190508381101515156200152157fe5b8091505092915050565b6040516127a580620015c383390190565b81548183558181151162001566578183600052602060002091820191016200156591906200159a565b5b505050565b81548183558181151162001595578183600052602060002091820191016200159491906200159a565b5b505050565b620015bf91905b80821115620015bb576000816000905550600101620015a1565b5090565b905600606060405234156200001057600080fd5b60405160a080620027a58339810160405280805190602001909190805190602001909190805190602001909190805190602001909190805190602001909190505084336000806101000a81548173ffffffffffffffffffffffffffffffffffffffff021916908373ffffffffffffffffffffffffffffffffffffffff160217905550600073ffffffffffffffffffffffffffffffffffffffff168173ffffffffffffffffffffffffffffffffffffffff1614151515620000cf57600080fd5b80600160006101000a81548173ffffffffffffffffffffffffffffffffffffffff021916908373ffffffffffffffffffffffffffffffffffffffff16021790555080600260006101000a81548173ffffffffffffffffffffffffffffffffffffffff021916908373ffffffffffffffffffffffffffffffffffffffff1602179055505083600460006101000a81548173ffffffffffffffffffffffffffffffffffffffff021916908373ffffffffffffffffffffffffffffffffffffffff1602179055506001600460146101000a81548160ff02191690836004811115620001b357fe5b02179055508060078190555033600360006101000a81548173ffffffffffffffffffffffffffffffffffffffff021916908373ffffffffffffffffffffffffffffffffffffffff1602179055508260068190555081600581905550620002344262093a80620002646401000000000262002305179091906401000000009004565b600b8190555062000259326200028364010000000002620017ea176401000000009004565b5050505050620003da565b60008082840190508381101515156200027957fe5b8091505092915050565b6000809054906101000a900473ffffffffffffffffffffffffffffffffffffffff1673ffffffffffffffffffffffffffffffffffffffff163373ffffffffffffffffffffffffffffffffffffffff16141515620002df57600080fd5b600073ffffffffffffffffffffffffffffffffffffffff168173ffffffffffffffffffffffffffffffffffffffff16141515156200031c57600080fd5b8073ffffffffffffffffffffffffffffffffffffffff166000809054906101000a900473ffffffffffffffffffffffffffffffffffffffff1673ffffffffffffffffffffffffffffffffffffffff167f8be0079c531659141344cd1fd0a4f28419497f9722a3daafe3b4186f6b6457e060405160405180910390a3806000806101000a81548173ffffffffffffffffffffffffffffffffffffffff021916908373ffffffffffffffffffffffffffffffffffffffff16021790555050565b6123bb80620003ea6000396000f300606060405260043610610128576000357c0100000000000000000000000000000000000000000000000000000000900463ffffffff16806309eb6fba1461012d57806315ebe3fe146101565780631a3a8871146101875780631c656455146101d8578063453634c5146102055780634c8ea3b8146103005780635180ab80146103805780635d0923fc146103a95780635eec6c59146103d257806362cb5b011461041157806379e026051461043a5780639f9ef42b1461048f578063b3f6568e146104e4578063c1cc11831461052c578063dbd781f314610555578063deff41c11461057e578063e329c478146105d3578063f27f7be11461060a578063f2fde38b14610633578063fc334e8c1461066c578063fceeccb6146106b8578063ff773dee146106e1575b600080fd5b341561013857600080fd5b610140610744565b6040518082815260200191505060405180910390f35b341561016157600080fd5b61016961074a565b60405180826000191660001916815260200191505060405180910390f35b341561019257600080fd5b6101be600480803573ffffffffffffffffffffffffffffffffffffffff16906020019091905050610750565b604051808215151515815260200191505060405180910390f35b34156101e357600080fd5b6101eb610a73565b604051808215151515815260200191505060405180910390f35b341561021057600080fd5b6102e6600480803590602001908201803590602001908080601f0160208091040260200160405190810160405280939291908181526020018383808284378201915050505050509190803590602001908201803590602001908080601f0160208091040260200160405190810160405280939291908181526020018383808284378201915050505050509190803590602001908201803590602001908080601f01602080910402602001604051908101604052809392919081815260200183838082843782019150505050505091905050610e9b565b604051808215151515815260200191505060405180910390f35b341561030b57600080fd5b610337600480803573ffffffffffffffffffffffffffffffffffffffff169060200190919050506111ed565b6040518085600481111561034757fe5b60ff1681526020018460001916600019168152602001836000191660001916815260200182815260200194505050505060405180910390f35b341561038b57600080fd5b61039361122a565b6040518082815260200191505060405180910390f35b34156103b457600080fd5b6103bc611230565b6040518082815260200191505060405180910390f35b34156103dd57600080fd5b6103f7600480803560001916906020019091905050611236565b604051808215151515815260200191505060405180910390f35b341561041c57600080fd5b61042461136d565b6040518082815260200191505060405180910390f35b341561044557600080fd5b61044d611373565b604051808273ffffffffffffffffffffffffffffffffffffffff1673ffffffffffffffffffffffffffffffffffffffff16815260200191505060405180910390f35b341561049a57600080fd5b6104a2611399565b604051808273ffffffffffffffffffffffffffffffffffffffff1673ffffffffffffffffffffffffffffffffffffffff16815260200191505060405180910390f35b34156104ef57600080fd5b610516600480803560001916906020019091908035600019169060200190919050506113bf565b6040518082815260200191505060405180910390f35b341561053757600080fd5b61053f6117a0565b6040518082815260200191505060405180910390f35b341561056057600080fd5b6105686117a6565b6040518082815260200191505060405180910390f35b341561058957600080fd5b6105916117ac565b604051808273ffffffffffffffffffffffffffffffffffffffff1673ffffffffffffffffffffffffffffffffffffffff16815260200191505060405180910390f35b34156105de57600080fd5b6105e66117d1565b604051808260048111156105f657fe5b60ff16815260200191505060405180910390f35b341561061557600080fd5b61061d6117e4565b6040518082815260200191505060405180910390f35b341561063e57600080fd5b61066a600480803573ffffffffffffffffffffffffffffffffffffffff169060200190919050506117ea565b005b341561067757600080fd5b61069e6004808035600019169060200190919080356000191690602001909190505061193f565b604051808215151515815260200191505060405180910390f35b34156106c357600080fd5b6106cb611c44565b6040518082815260200191505060405180910390f35b34156106ec57600080fd5b6107026004808035906020019091905050611c4b565b604051808273ffffffffffffffffffffffffffffffffffffffff1673ffffffffffffffffffffffffffffffffffffffff16815260200191505060405180910390f35b60065481565b60085481565b6000806000806000809054906101000a900473ffffffffffffffffffffffffffffffffffffffff1673ffffffffffffffffffffffffffffffffffffffff163373ffffffffffffffffffffffffffffffffffffffff161415156107b157600080fd5b600160048111156107be57fe5b600460149054906101000a900460ff1660048111156107d957fe5b1415156107e557600080fd5b600260009054906101000a900473ffffffffffffffffffffffffffffffffffffffff1673ffffffffffffffffffffffffffffffffffffffff1663f69f190c866000604051606001526040518263ffffffff167c0100000000000000000000000000000000000000000000000000000000028152600401808273ffffffffffffffffffffffffffffffffffffffff1673ffffffffffffffffffffffffffffffffffffffff168152602001915050606060405180830381600087803b15156108aa57600080fd5b6102c65a03f115156108bb57600080fd5b50505060405180519060200180519060200180519050809350819450829550505050600360009054906101000a900473ffffffffffffffffffffffffffffffffffffffff1673ffffffffffffffffffffffffffffffffffffffff168373ffffffffffffffffffffffffffffffffffffffff1614151561093957600080fd5b6000600481111561094657fe5b600c60008773ffffffffffffffffffffffffffffffffffffffff1673ffffffffffffffffffffffffffffffffffffffff16815260200190815260200160002060000160009054906101000a900460ff1660048111156109a157fe5b1415156109ad57600080fd5b6001600c60008773ffffffffffffffffffffffffffffffffffffffff1673ffffffffffffffffffffffffffffffffffffffff16815260200190815260200160002060000160006101000a81548160ff02191690836004811115610a0c57fe5b02179055508473ffffffffffffffffffffffffffffffffffffffff167f365f313bc0acc37c5dbc5a4322047304f42beda33a59e1f1aa43dda78bc216128383604051808381526020018281526020019250505060405180910390a260019350505050919050565b6000806000600160009054906101000a900473ffffffffffffffffffffffffffffffffffffffff1673ffffffffffffffffffffffffffffffffffffffff163373ffffffffffffffffffffffffffffffffffffffff16141515610ad457600080fd5b60016004811115610ae157fe5b600460149054906101000a900460ff166004811115610afc57fe5b141515610b0857600080fd5b600b5442111515610b1857600080fd5b6003600460146101000a81548160ff02191690836004811115610b3757fe5b0217905550600091505b600d80549050821015610e9257600d82815481101515610b5d57fe5b906000526020600020900160009054906101000a900473ffffffffffffffffffffffffffffffffffffffff16905060016004811115610b9857fe5b600c60008373ffffffffffffffffffffffffffffffffffffffff1673ffffffffffffffffffffffffffffffffffffffff16815260200190815260200160002060000160009054906101000a900460ff166004811115610bf357fe5b141515610d4657600260009054906101000a900473ffffffffffffffffffffffffffffffffffffffff1673ffffffffffffffffffffffffffffffffffffffff16638d877dd3600460009054906101000a900473ffffffffffffffffffffffffffffffffffffffff16836007546000604051602001526040518463ffffffff167c0100000000000000000000000000000000000000000000000000000000028152600401808473ffffffffffffffffffffffffffffffffffffffff1673ffffffffffffffffffffffffffffffffffffffff1681526020018373ffffffffffffffffffffffffffffffffffffffff1673ffffffffffffffffffffffffffffffffffffffff1681526020018281526020019350505050602060405180830381600087803b1515610d1f57600080fd5b6102c65a03f11515610d3057600080fd5b505050604051805190501515610d4557600080fd5b5b600260009054906101000a900473ffffffffffffffffffffffffffffffffffffffff1673ffffffffffffffffffffffffffffffffffffffff1663237994f4600460009054906101000a900473ffffffffffffffffffffffffffffffffffffffff16836000604051602001526040518363ffffffff167c0100000000000000000000000000000000000000000000000000000000028152600401808373ffffffffffffffffffffffffffffffffffffffff1673ffffffffffffffffffffffffffffffffffffffff1681526020018273ffffffffffffffffffffffffffffffffffffffff1673ffffffffffffffffffffffffffffffffffffffff16815260200192505050602060405180830381600087803b1515610e6157600080fd5b6102c65a03f11515610e7257600080fd5b505050604051805190501515610e8757600080fd5b816001019150610b41565b60019250505090565b60008060009054906101000a900473ffffffffffffffffffffffffffffffffffffffff1673ffffffffffffffffffffffffffffffffffffffff163373ffffffffffffffffffffffffffffffffffffffff16141515610ef857600080fd5b60026004811115610f0557fe5b600460149054906101000a900460ff166004811115610f2057fe5b141515610f2c57600080fd5b42600954111580610f435750600d80549050600a54145b1515610f4e57600080fd5b60048060146101000a81548160ff02191690836004811115610f6c57fe5b0217905550610f79611c8a565b1515610f8457600080fd5b600260009054906101000a900473ffffffffffffffffffffffffffffffffffffffff1673ffffffffffffffffffffffffffffffffffffffff1663f8ecdc69600460009054906101000a900473ffffffffffffffffffffffffffffffffffffffff168686866005546000604051602001526040518663ffffffff167c0100000000000000000000000000000000000000000000000000000000028152600401808673ffffffffffffffffffffffffffffffffffffffff1673ffffffffffffffffffffffffffffffffffffffff168152602001806020018060200180602001858152602001848103845288818151815260200191508051906020019080838360005b8381101561109f578082015181840152602081019050611084565b50505050905090810190601f1680156110cc5780820380516001836020036101000a031916815260200191505b50848103835287818151815260200191508051906020019080838360005b838110156111055780820151818401526020810190506110ea565b50505050905090810190601f1680156111325780820380516001836020036101000a031916815260200191505b50848103825286818151815260200191508051906020019080838360005b8381101561116b578082015181840152602081019050611150565b50505050905090810190601f1680156111985780820380516001836020036101000a031916815260200191505b5098505050505050505050602060405180830381600087803b15156111bc57600080fd5b6102c65a03f115156111cd57600080fd5b5050506040518051905015156111e257600080fd5b600190509392505050565b600c6020528060005260406000206000915090508060000160009054906101000a900460ff16908060010154908060020154908060030154905084565b600a5481565b60095481565b60008060009054906101000a900473ffffffffffffffffffffffffffffffffffffffff1673ffffffffffffffffffffffffffffffffffffffff163373ffffffffffffffffffffffffffffffffffffffff1614151561129357600080fd5b600160048111156112a057fe5b600460149054906101000a900460ff1660048111156112bb57fe5b1415156112c757600080fd5b6000600d805490501115156112db57600080fd5b6002600460146101000a81548160ff021916908360048111156112fa57fe5b0217905550816008816000191690555061131f42612a3061230590919063ffffffff16565b6009819055507fca0146ecc42534204a8cfa1c47ffdf76e2bf77813e8df99e3faef81f66e13f6d8260405180826000191660001916815260200191505060405180910390a160019050919050565b600b5481565b600460009054906101000a900473ffffffffffffffffffffffffffffffffffffffff1681565b600360009054906101000a900473ffffffffffffffffffffffffffffffffffffffff1681565b6000600160048111156113ce57fe5b600460149054906101000a900460ff1660048111156113e957fe5b1415156113f557600080fd5b6001600481111561140257fe5b600c60003373ffffffffffffffffffffffffffffffffffffffff1673ffffffffffffffffffffffffffffffffffffffff16815260200190815260200160002060000160009054906101000a900460ff16600481111561145d57fe5b14151561146957600080fd5b600060010283600019161415151561148057600080fd5b600060010282600019161415151561149757600080fd5b600d80548060010182816114ab919061233e565b9160005260206000209001600033909190916101000a81548173ffffffffffffffffffffffffffffffffffffffff021916908373ffffffffffffffffffffffffffffffffffffffff160217905550506002600c60003373ffffffffffffffffffffffffffffffffffffffff1673ffffffffffffffffffffffffffffffffffffffff16815260200190815260200160002060000160006101000a81548160ff0219169083600481111561155957fe5b021790555082600c60003373ffffffffffffffffffffffffffffffffffffffff1673ffffffffffffffffffffffffffffffffffffffff168152602001908152602001600020600101816000191690555081600c60003373ffffffffffffffffffffffffffffffffffffffff1673ffffffffffffffffffffffffffffffffffffffff1681526020019081526020016000206002018160001916905550600260009054906101000a900473ffffffffffffffffffffffffffffffffffffffff1673ffffffffffffffffffffffffffffffffffffffff16638537c515600460009054906101000a900473ffffffffffffffffffffffffffffffffffffffff16336007546000604051602001526040518463ffffffff167c0100000000000000000000000000000000000000000000000000000000028152600401808473ffffffffffffffffffffffffffffffffffffffff1673ffffffffffffffffffffffffffffffffffffffff1681526020018373ffffffffffffffffffffffffffffffffffffffff1673ffffffffffffffffffffffffffffffffffffffff1681526020018281526020019350505050602060405180830381600087803b151561171957600080fd5b6102c65a03f1151561172a57600080fd5b50505060405180519050151561173f57600080fd5b3373ffffffffffffffffffffffffffffffffffffffff167ff3b129c47d42fbf6997bc710ea44fa651fb588be58d0f6cac7cd2224abdca7cf8460405180826000191660001916815260200191505060405180910390a2600754905092915050565b60075481565b60055481565b6000809054906101000a900473ffffffffffffffffffffffffffffffffffffffff1681565b600460149054906101000a900460ff1681565b612a3081565b6000809054906101000a900473ffffffffffffffffffffffffffffffffffffffff1673ffffffffffffffffffffffffffffffffffffffff163373ffffffffffffffffffffffffffffffffffffffff1614151561184557600080fd5b600073ffffffffffffffffffffffffffffffffffffffff168173ffffffffffffffffffffffffffffffffffffffff161415151561188157600080fd5b8073ffffffffffffffffffffffffffffffffffffffff166000809054906101000a900473ffffffffffffffffffffffffffffffffffffffff1673ffffffffffffffffffffffffffffffffffffffff167f8be0079c531659141344cd1fd0a4f28419497f9722a3daafe3b4186f6b6457e060405160405180910390a3806000806101000a81548173ffffffffffffffffffffffffffffffffffffffff021916908373ffffffffffffffffffffffffffffffffffffffff16021790555050565b6000806002600481111561194f57fe5b600460149054906101000a900460ff16600481111561196a57fe5b14151561197657600080fd5b4260095411151561198657600080fd5b6002600481111561199357fe5b600c60003373ffffffffffffffffffffffffffffffffffffffff1673ffffffffffffffffffffffffffffffffffffffff16815260200190815260200160002060000160009054906101000a900460ff1660048111156119ee57fe5b1415156119fa57600080fd5b6000600102846000191614151515611a1157600080fd5b600c60003373ffffffffffffffffffffffffffffffffffffffff1673ffffffffffffffffffffffffffffffffffffffff168152602001908152602001600020600101546000191684604051808260001916600019168152602001915050604051809103902060001916148015611aef5750600c60003373ffffffffffffffffffffffffffffffffffffffff1673ffffffffffffffffffffffffffffffffffffffff1681526020019081526020016000206002015460001916838518604051808260001916600019168152602001915050604051809103902060001916145b905080611afd576003611b00565b60045b600c60003373ffffffffffffffffffffffffffffffffffffffff1673ffffffffffffffffffffffffffffffffffffffff16815260200190815260200160002060000160006101000a81548160ff02191690836004811115611b5d57fe5b0217905550611b786001600a5461230590919063ffffffff16565b600a819055503373ffffffffffffffffffffffffffffffffffffffff167f3a55c2a687ae273233cfdd772c2ea17f60801bdccf7fab5c87e27927c1d1dcb785600c60003373ffffffffffffffffffffffffffffffffffffffff1673ffffffffffffffffffffffffffffffffffffffff16815260200190815260200160002060000160009054906101000a900460ff16604051808360001916600019168152602001826004811115611c2557fe5b60ff1681526020019250505060405180910390a2600191505092915050565b62093a8081565b600d81815481101515611c5a57fe5b90600052602060002090016000915054906101000a900473ffffffffffffffffffffffffffffffffffffffff1681565b600080600080600080600092506006549150600094505b600d80549050851015611d9657600d85815481101515611cbd57fe5b906000526020600020900160009054906101000a900473ffffffffffffffffffffffffffffffffffffffff169350600480811115611cf757fe5b600c60008673ffffffffffffffffffffffffffffffffffffffff1673ffffffffffffffffffffffffffffffffffffffff16815260200190815260200160002060000160009054906101000a900460ff166004811115611d5257fe5b1415611d7357611d6c60018461230590919063ffffffff16565b9250611d8b565b611d886007548361230590919063ffffffff16565b91505b846001019450611ca1565b600083111515611da557600080fd5b611db8838361232390919063ffffffff16565b9050600094505b600d805490508510156122f957600d85815481101515611ddb57fe5b906000526020600020900160009054906101000a900473ffffffffffffffffffffffffffffffffffffffff169350600480811115611e1557fe5b600c60008673ffffffffffffffffffffffffffffffffffffffff1673ffffffffffffffffffffffffffffffffffffffff16815260200190815260200160002060000160009054906101000a900460ff166004811115611e7057fe5b141561215657600260009054906101000a900473ffffffffffffffffffffffffffffffffffffffff1673ffffffffffffffffffffffffffffffffffffffff16638d877dd3600460009054906101000a900473ffffffffffffffffffffffffffffffffffffffff16866007546000604051602001526040518463ffffffff167c0100000000000000000000000000000000000000000000000000000000028152600401808473ffffffffffffffffffffffffffffffffffffffff1673ffffffffffffffffffffffffffffffffffffffff1681526020018373ffffffffffffffffffffffffffffffffffffffff1673ffffffffffffffffffffffffffffffffffffffff1681526020018281526020019350505050602060405180830381600087803b1515611f9b57600080fd5b6102c65a03f11515611fac57600080fd5b505050604051805190501515611fc157600080fd5b600260009054906101000a900473ffffffffffffffffffffffffffffffffffffffff1673ffffffffffffffffffffffffffffffffffffffff1663ca44a11f600460009054906101000a900473ffffffffffffffffffffffffffffffffffffffff1686846000604051602001526040518463ffffffff167c0100000000000000000000000000000000000000000000000000000000028152600401808473ffffffffffffffffffffffffffffffffffffffff1673ffffffffffffffffffffffffffffffffffffffff1681526020018373ffffffffffffffffffffffffffffffffffffffff1673ffffffffffffffffffffffffffffffffffffffff1681526020018281526020019350505050602060405180830381600087803b15156120e457600080fd5b6102c65a03f115156120f557600080fd5b50505060405180519050151561210a57600080fd5b80600c60008673ffffffffffffffffffffffffffffffffffffffff1673ffffffffffffffffffffffffffffffffffffffff168152602001908152602001600020600301819055506122ee565b600260009054906101000a900473ffffffffffffffffffffffffffffffffffffffff1673ffffffffffffffffffffffffffffffffffffffff1663855e9770600460009054906101000a900473ffffffffffffffffffffffffffffffffffffffff16866007546000604051602001526040518463ffffffff167c0100000000000000000000000000000000000000000000000000000000028152600401808473ffffffffffffffffffffffffffffffffffffffff1673ffffffffffffffffffffffffffffffffffffffff1681526020018373ffffffffffffffffffffffffffffffffffffffff1673ffffffffffffffffffffffffffffffffffffffff1681526020018281526020019350505050602060405180830381600087803b151561227b57600080fd5b6102c65a03f1151561228c57600080fd5b5050506040518051905015156122a157600080fd5b600754600003600c60008673ffffffffffffffffffffffffffffffffffffffff1673ffffffffffffffffffffffffffffffffffffffff168152602001908152602001600020600301819055505b846001019450611dbf565b60019550505050505090565b600080828401905083811015151561231957fe5b8091505092915050565b600080828481151561233157fe5b0490508091505092915050565b81548183558181151161236557818360005260206000209182019101612364919061236a565b5b505050565b61238c91905b80821115612388576000816000905550600101612370565b5090565b905600a165627a7a723058201aa21bf09be6b6a00774cfc05dfc39287d9d25f75f76abbd69cb6c76668c171c0029a165627a7a72305820b817ef9daab4630f91d5b8f6ca4f5a43e2e5a9b134772d771877f9d80e50a4940029",
  "source": "pragma solidity ^0.4.18;\n\nimport './OwnableOZ.sol';\nimport './IexecHubAccessor.sol';\nimport './IexecHub.sol';\nimport \"./SafeMathOZ.sol\";\nimport \"./AuthorizedList.sol\";\nimport \"./Contributions.sol\";\n\ncontract WorkerPool is OwnableOZ, IexecHubAccessor//Owned by a S(w)\n{\n\tusing SafeMathOZ for uint256;\n\n\tenum WorkerPoolStatusEnum { OPEN, CLOSE }\n\n  event WorkerPoolPolicyUpdate(uint256 oldStakeRatioPolicy, uint256 newStakeRatioPolicy,uint256 oldSchedulerRewardRatioPolicy, uint256 newSchedulerRewardRatioPolicy, uint256 oldResultRetentionPolicyPolicy, uint256  newResultRetentionPolicyPolicy);\n\n\t/**\n\t * Members\n\t */\n\tstring                                       public m_name;\n\tuint256                                      public m_schedulerRewardRatioPolicy;\n\tuint256                                      public m_stakeRatioPolicy;\n\tuint256                                      public m_resultRetentionPolicy;\n\tWorkerPoolStatusEnum                         public m_workerPoolStatus;\n\taddress[]                                    public m_workers;\n\t// mapping(address=> index)\n\tmapping(address => uint256)                  public m_workerIndex;\n\t// mapping(taskID => TaskContributions address);\n\t//mapping(address => address)                     public m_tasks;\n\n\taddress private m_workerPoolHubAddress;\n\n\t/**\n\t * Address of slave contracts\n\t */\n\taddress public m_workersAuthorizedListAddress;\n\n\tmodifier onlyWorkerPoolHub()\n\t{\n\t\trequire(msg.sender == m_workerPoolHubAddress);\n\t\t_;\n\t}\n\n\t/**\n\t * Methods\n\t */\n\n\t//constructor\n\tfunction WorkerPool(\n\t\taddress _iexecHubAddress,\n\t\tstring  _name)\n\tIexecHubAccessor(_iexecHubAddress)\n\tpublic\n\t{\n\t\t// tx.origin == owner\n\t\t// msg.sender ==  WorkerPoolHub\n\t\trequire(tx.origin != msg.sender );\n\t\ttransferOwnership(tx.origin); // owner  tx.origin\n\n\t\tm_name             = _name;\n\t\tm_schedulerRewardRatioPolicy = 10; //% of the task reward going to scheduler vs workers reward\n\t\tm_stakeRatioPolicy = 30; // % of the task price to stake  cf function SubmitTask\n\t\tm_resultRetentionPolicy  = 7 days;\n\t\tm_workerPoolStatus = WorkerPoolStatusEnum.OPEN;\n\t\tm_workerPoolHubAddress =msg.sender;\n\n\n\t\t/* cannot do the following AuthorizedList contracts creation because of :\n\t\t   VM Exception while processing transaction: out of gas at deploy.\n\t\t   use attach....AuthorizedListContract instead function\n\t\t*/\n   /*\n\t  workersAuthorizedListAddress = new AuthorizedList();\n\t  AuthorizedList(workersAuthorizedListAddress).transferOwnership(tx.origin); // owner  tx.origin\n\t\tdappsAuthorizedListAddress = new AuthorizedList();\n\t\tAuthorizedList(dappsAuthorizedListAddress).transferOwnership(tx.origin); // owner  tx.origin\n\t\trequesterAuthorizedListAddress = new AuthorizedList();\n\t\tAuthorizedList(requesterAuthorizedListAddress).transferOwnership(tx.origin); // owner  tx.origin\n\t\t*/\n\t}\n\n\n\tfunction attachWorkerPoolsAuthorizedListContract(address _workerPoolsAuthorizedListAddress) public onlyOwner{\n \t\tm_workersAuthorizedListAddress =_workerPoolsAuthorizedListAddress;\n \t}\n\n\tfunction changeWorkerPoolPolicy(\n\tuint256 _newStakeRatioPolicy,\n\tuint256 _newSchedulerRewardRatioPolicy,\n\tuint256 _newResultRetentionPolicy\n\t)\n\tpublic onlyOwner\n\t{\n\t\tWorkerPoolPolicyUpdate(m_stakeRatioPolicy,_newStakeRatioPolicy,m_schedulerRewardRatioPolicy,_newSchedulerRewardRatioPolicy,m_resultRetentionPolicy,_newResultRetentionPolicy);\n\t\tm_stakeRatioPolicy = _newStakeRatioPolicy;\n\t\tm_schedulerRewardRatioPolicy =_newSchedulerRewardRatioPolicy;\n\t\tm_resultRetentionPolicy = _newResultRetentionPolicy;\n\t}\n\n\tfunction getWorkerPoolOwner() public view returns (address)\n\t{\n\t\treturn m_owner;\n\t}\n\n\t/************************* worker list management **************************/\n\tfunction isWorkerAllowed(address _worker) public view returns (bool)\n\t{\n\t\treturn AuthorizedList(m_workersAuthorizedListAddress).isActorAllowed(_worker);\n\t}\n\n\tfunction getWorkerAddress(uint _index) constant public returns (address)\n\t{\n\t\treturn m_workers[_index];\n\t}\n\tfunction getWorkerIndex(address _worker) constant public returns (uint)\n\t{\n\t\tuint index = m_workerIndex[_worker];\n\t\trequire(m_workers[index] == _worker);\n\t\treturn index;\n\t}\n\tfunction getWorkersCount() constant public returns (uint)\n\t{\n\t\treturn m_workers.length;\n\t}\n\tfunction addWorker(address _worker) public onlyWorkerPoolHub  returns (bool)\n\t{\n\t\tuint index = m_workers.push(_worker);\n\t\tm_workerIndex[_worker] = index;\n\t\treturn true;\n\t}\n\tfunction removeWorker(address _worker) public onlyWorkerPoolHub returns (bool)\n\t{\n\t\tuint index = getWorkerIndex(_worker); // fails if worker not registered\n\t\tm_workers[index] = m_workers[m_workers.length-1];\n\t\tdelete m_workers[m_workers.length-1];\n\t\tm_workers.length--;\n\t\treturn true;\n\t}\n\n\t/************************* open / close mechanisms *************************/\n\tfunction open() public onlyIexecHub /*for staking management*/ returns (bool)\n\t{\n\t\trequire(m_workerPoolStatus == WorkerPoolStatusEnum.CLOSE);\n\t\tm_workerPoolStatus = WorkerPoolStatusEnum.OPEN;\n\t\treturn true;\n\t}\n\tfunction close() public onlyIexecHub /*for staking management*/ returns (bool)\n\t{\n\t\trequire(m_workerPoolStatus == WorkerPoolStatusEnum.OPEN);\n\t\tm_workerPoolStatus = WorkerPoolStatusEnum.CLOSE;\n\t\treturn true;\n\t}\n\tfunction isOpen() public view returns (bool)\n\t{\n\t\treturn m_workerPoolStatus == WorkerPoolStatusEnum.OPEN;\n\t}\n\n\t/**************************** tasks management *****************************/\n\tfunction acceptTask(address _taskID, uint256 _taskCost) public onlyIexecHub returns (address taskContributions)\n\t{\n\t\t// when 2 cannot be divide by 3 for ratio calculus ?\n\t\tuint256 schedulerReward =_taskCost.mul(m_schedulerRewardRatioPolicy).div(100);\n\t\tuint256 workersReward =_taskCost.mul(uint256(100).sub(m_schedulerRewardRatioPolicy)).div(100);\n\t\tassert(schedulerReward.add(workersReward) == _taskCost);\n\t\taddress newContributions = new Contributions(iexecHubAddress,_taskID,workersReward,schedulerReward,_taskCost.mul(m_stakeRatioPolicy).div(100));\n\t\treturn newContributions;\n\t}\n\n\n\n\n\n\n\n}\n",
  "sourcePath": "/home/vagrant/iexecdev/PoCo/contracts/WorkerPool.sol",
  "compiler": {
    "name": "solc",
    "version": "0.4.18+commit.9cf6e910.Emscripten.clang"
  },
  "schemaVersion": "1.0.1",
  "updatedAt": "2018-01-29T14:56:05.521Z"
}