{
  "contractName": "WorkerpoolRegistry",
  "abi": [
    {
      "constant": true,
      "inputs": [
        {
          "name": "_owner",
          "type": "address"
        },
        {
          "name": "_index",
          "type": "uint256"
        }
      ],
      "name": "viewEntry",
      "outputs": [
        {
          "name": "",
          "type": "address"
        }
      ],
      "payable": false,
      "stateMutability": "view",
      "type": "function"
    },
    {
      "constant": true,
      "inputs": [
        {
          "name": "_owner",
          "type": "address"
        }
      ],
      "name": "viewCount",
      "outputs": [
        {
          "name": "",
          "type": "uint256"
        }
      ],
      "payable": false,
      "stateMutability": "view",
      "type": "function"
    },
    {
      "constant": true,
      "inputs": [
        {
          "name": "_entry",
          "type": "address"
        }
      ],
      "name": "isRegistered",
      "outputs": [
        {
          "name": "",
          "type": "bool"
        }
      ],
      "payable": false,
      "stateMutability": "view",
      "type": "function"
    },
    {
      "inputs": [],
      "payable": false,
      "stateMutability": "nonpayable",
      "type": "constructor"
    },
    {
      "anonymous": false,
      "inputs": [
        {
          "indexed": true,
          "name": "workerpoolOwner",
          "type": "address"
        },
        {
          "indexed": true,
          "name": "workerpool",
          "type": "address"
        },
        {
          "indexed": false,
          "name": "workerpoolDescription",
          "type": "string"
        }
      ],
      "name": "CreateWorkerpool",
      "type": "event"
    },
    {
      "constant": false,
      "inputs": [
        {
          "name": "_workerpoolOwner",
          "type": "address"
        },
        {
          "name": "_workerpoolDescription",
          "type": "string"
        }
      ],
      "name": "createWorkerpool",
      "outputs": [
        {
          "name": "",
          "type": "address"
        }
      ],
      "payable": false,
      "stateMutability": "nonpayable",
      "type": "function"
    }
  ],
  "bytecode": "0x608060405234801561001057600080fd5b50610aa4806100206000396000f3fe608060405234801561001057600080fd5b506004361061004c5760003560e01c806365a2c10414610051578063c0a8cae214610099578063c3c5a547146100d1578063e40238f41461010b575b600080fd5b61007d6004803603604081101561006757600080fd5b506001600160a01b03813516906020013561018b565b604080516001600160a01b039092168252519081900360200190f35b6100bf600480360360208110156100af57600080fd5b50356001600160a01b03166101b3565b60408051918252519081900360200190f35b6100f7600480360360208110156100e757600080fd5b50356001600160a01b03166101ce565b604080519115158252519081900360200190f35b61007d6004803603604081101561012157600080fd5b6001600160a01b03823516919081019060408101602082013564010000000081111561014c57600080fd5b82018360208201111561015e57600080fd5b8035906020019184600183028401116401000000008311171561018057600080fd5b5090925090506101ec565b6001600160a01b03918216600090815260016020908152604080832093835292905220541690565b6001600160a01b031660009081526002602052604090205490565b6001600160a01b031660009081526020819052604090205460ff1690565b6000808484846040516101fe90610390565b6001600160a01b0384168152604060208201818152908201839052606082018484808284376000838201819052604051601f909201601f191690930181900397509550909350505050f08015801561025a573d6000803e3d6000fd5b50905061026781866102ec565b61027057600080fd5b806001600160a01b0316856001600160a01b03167fc1bcdd8228d0d7750d2a9fea671d1fe9eb0b751661857d93dee400659670e52c868660405180806020018281038252848482818152602001925080828437600083820152604051601f909101601f19169092018290039550909350505050a3949350505050565b6001600160a01b038116600090815260026020526040812054819061031890600163ffffffff61037716565b6001600160a01b03808516600090815260026020908152604080832085905560018083528184209584529482528083208054948a166001600160a01b03199095168517905592825281905220805460ff19168217905591505092915050565b60008282018381101561038957600080fd5b9392505050565b6106d28061039e8339019056fe608060405234801561001057600080fd5b506040516106d23803806106d28339818101604052604081101561003357600080fd5b81516020830180519193928301929164010000000081111561005457600080fd5b8201602081018481111561006757600080fd5b815164010000000081118282018710171561008157600080fd5b5050600080546001600160a01b03191633178082556040519295506001600160a01b0316935091506000805160206106b2833981519152908290a36100ce826001600160e01b036100f316565b80516100e190600190602084019061019b565b5050601e600255506001600355610236565b6001600160a01b038116610152576040517f08c379a000000000000000000000000000000000000000000000000000000000815260040180806020018281038252602681526020018061068c6026913960400191505060405180910390fd5b600080546040516001600160a01b03808516939216916000805160206106b283398151915291a3600080546001600160a01b0319166001600160a01b0392909216919091179055565b828054600181600116156101000203166002900490600052602060002090601f016020900481019282601f106101dc57805160ff1916838001178555610209565b82800160010185558215610209579182015b828111156102095782518255916020019190600101906101ee565b50610215929150610219565b5090565b61023391905b80821115610215576000815560010161021f565b90565b610447806102456000396000f3fe608060405234801561001057600080fd5b50600436106100885760003560e01c80638f32d59b1161005b5780638f32d59b14610152578063b55e75af1461016e578063f199413c14610176578063f2fde38b1461019957610088565b8063584feb3a1461008d578063715018a61461010a57806387639c68146101145780638da5cb5b1461012e575b600080fd5b6100956101bf565b6040805160208082528351818301528351919283929083019185019080838360005b838110156100cf5781810151838201526020016100b7565b50505050905090810190601f1680156100fc5780820380516001836020036101000a031916815260200191505b509250505060405180910390f35b61011261024c565b005b61011c6102ef565b60408051918252519081900360200190f35b6101366102f5565b604080516001600160a01b039092168252519081900360200190f35b61015a610304565b604080519115158252519081900360200190f35b61011c610315565b6101126004803603604081101561018c57600080fd5b508035906020013561031b565b610112600480360360208110156101af57600080fd5b50356001600160a01b03166103da565b60018054604080516020600284861615610100026000190190941693909304601f810184900484028201840190925281815292918301828280156102445780601f1061021957610100808354040283529160200191610244565b820191906000526020600020905b81548152906001019060200180831161022757829003601f168201915b505050505081565b610254610304565b6102a5576040805162461bcd60e51b815260206004820181905260248201527f4f776e61626c653a2063616c6c6572206973206e6f7420746865206f776e6572604482015290519081900360640190fd5b600080546040516001600160a01b03909116907f8be0079c531659141344cd1fd0a4f28419497f9722a3daafe3b4186f6b6457e0908390a3600080546001600160a01b0319169055565b60035481565b6000546001600160a01b031690565b6000546001600160a01b0316331490565b60025481565b610323610304565b610374576040805162461bcd60e51b815260206004820181905260248201527f4f776e61626c653a2063616c6c6572206973206e6f7420746865206f776e6572604482015290519081900360640190fd5b606481111561038257600080fd5b60025460035460408051928352602083018590528281019190915260608201839052517f61f37ef3a6d587ce2d6be79492e1fac570f2745787015db7ed95ad4397b05c1e9181900360800190a1600291909155600355565b6040805162461bcd60e51b8152602060048201526008602482015267191a5cd8589b195960c21b604482015290519081900360640190fdfea265627a7a723058204a07f7967b745d41430ad5711fae5115a25ae9fd8fc8fa1d5476748e18cf4f6f64736f6c634300050900324f776e61626c653a206e6577206f776e657220697320746865207a65726f20616464726573738be0079c531659141344cd1fd0a4f28419497f9722a3daafe3b4186f6b6457e0a265627a7a72305820fa76011b90aee7c4c2de075b326c62199f19be080a02548f158443bbb57f14d164736f6c63430005090032",
  "source": "pragma solidity ^0.5.9;\n\nimport './Workerpool.sol';\nimport './RegistryBase.sol';\n\ncontract WorkerpoolRegistry is RegistryBase //, OwnableMutable // is Owned by IexecHub\n{\n\tevent CreateWorkerpool(address indexed workerpoolOwner, address indexed workerpool, string workerpoolDescription);\n\n\t/**\n\t * Constructor\n\t */\n\tconstructor()\n\tpublic\n\t{\n\t}\n\n\t/**\n\t * Pool creation\n\t */\n\tfunction createWorkerpool(\n\t\taddress          _workerpoolOwner,\n\t\tstring  calldata _workerpoolDescription)\n\texternal /* onlyOwner /*owner == IexecHub*/ returns (Workerpool)\n\t{\n\t\tWorkerpool newWorkerpool = new Workerpool(\n\t\t\t_workerpoolOwner,\n\t\t\t_workerpoolDescription\n\t\t);\n\t\trequire(insert(address(newWorkerpool), _workerpoolOwner));\n\t\temit CreateWorkerpool(_workerpoolOwner, address(newWorkerpool), _workerpoolDescription);\n\t\treturn newWorkerpool;\n\t}\n}\n",
  "sourcePath": "/home/amxx/Work/iExec/code/PoCo-dev/contracts/registries/WorkerpoolRegistry.sol",
  "compiler": {
    "name": "solc",
    "version": "0.5.9+commit.e560f70d.Emscripten.clang"
  },
  "schemaVersion": "3.0.11",
  "updatedAt": "2019-06-26T13:43:41.418Z",
  "devdoc": {
    "methods": {}
  },
  "userdoc": {
    "methods": {
      "constructor": "Constructor",
      "createWorkerpool(address,string)": {
        "notice": "Pool creation"
      },
      "isRegistered(address)": {
        "notice": "Accessors"
      }
    }
  }
}