{
  "contractName": "WorkerpoolRegistry",
  "abi": [
    {
      "constant": true,
      "inputs": [
        {
          "name": "_owner",
          "type": "address"
        },
        {
          "name": "_index",
          "type": "uint256"
        }
      ],
      "name": "viewEntry",
      "outputs": [
        {
          "name": "",
          "type": "address"
        }
      ],
      "payable": false,
      "stateMutability": "view",
      "type": "function",
      "signature": "0x65a2c104"
    },
    {
      "constant": true,
      "inputs": [
        {
          "name": "_owner",
          "type": "address"
        }
      ],
      "name": "viewCount",
      "outputs": [
        {
          "name": "",
          "type": "uint256"
        }
      ],
      "payable": false,
      "stateMutability": "view",
      "type": "function",
      "signature": "0xc0a8cae2"
    },
    {
      "constant": true,
      "inputs": [
        {
          "name": "_entry",
          "type": "address"
        }
      ],
      "name": "isRegistered",
      "outputs": [
        {
          "name": "",
          "type": "bool"
        }
      ],
      "payable": false,
      "stateMutability": "view",
      "type": "function",
      "signature": "0xc3c5a547"
    },
    {
      "inputs": [],
      "payable": false,
      "stateMutability": "nonpayable",
      "type": "constructor",
      "signature": "constructor"
    },
    {
      "anonymous": false,
      "inputs": [
        {
          "indexed": true,
          "name": "workerpoolOwner",
          "type": "address"
        },
        {
          "indexed": true,
          "name": "workerpool",
          "type": "address"
        },
        {
          "indexed": false,
          "name": "workerpoolDescription",
          "type": "string"
        }
      ],
      "name": "CreateWorkerpool",
      "type": "event",
      "signature": "0xc1bcdd8228d0d7750d2a9fea671d1fe9eb0b751661857d93dee400659670e52c"
    },
    {
      "constant": false,
      "inputs": [
        {
          "name": "_workerpoolOwner",
          "type": "address"
        },
        {
          "name": "_workerpoolDescription",
          "type": "string"
        }
      ],
      "name": "createWorkerpool",
      "outputs": [
        {
          "name": "",
          "type": "address"
        }
      ],
      "payable": false,
      "stateMutability": "nonpayable",
      "type": "function",
      "signature": "0xe40238f4"
    }
  ],
  "bytecode": "0x608060405234801561001057600080fd5b50610a53806100206000396000f3fe608060405234801561001057600080fd5b5060043610610068577c0100000000000000000000000000000000000000000000000000000000600035046365a2c104811461006d578063c0a8cae2146100b5578063c3c5a547146100ed578063e40238f414610127575b600080fd5b6100996004803603604081101561008357600080fd5b50600160a060020a0381351690602001356101a7565b60408051600160a060020a039092168252519081900360200190f35b6100db600480360360208110156100cb57600080fd5b5035600160a060020a03166101cf565b60408051918252519081900360200190f35b6101136004803603602081101561010357600080fd5b5035600160a060020a03166101ea565b604080519115158252519081900360200190f35b6100996004803603604081101561013d57600080fd5b600160a060020a03823516919081019060408101602082013564010000000081111561016857600080fd5b82018360208201111561017a57600080fd5b8035906020019184600183028401116401000000008311171561019c57600080fd5b509092509050610208565b600160a060020a03918216600090815260016020908152604080832093835292905220541690565b600160a060020a031660009081526002602052604090205490565b600160a060020a031660009081526020819052604090205460ff1690565b60008084848460405161021a906103b9565b600160a060020a0384168152604060208201818152908201839052606082018484808284376000838201819052604051601f909201601f191690930181900397509550909350505050f080158015610276573d6000803e3d6000fd5b5090506102838186610308565b61028c57600080fd5b80600160a060020a031685600160a060020a03167fc1bcdd8228d0d7750d2a9fea671d1fe9eb0b751661857d93dee400659670e52c868660405180806020018281038252848482818152602001925080828437600083820152604051601f909101601f19169092018290039550909350505050a3949350505050565b600160a060020a038116600090815260026020526040812054819061033490600163ffffffff6103a016565b600160a060020a03808516600090815260026020908152604080832085905560018083528184209584529482528083208054948a1673ffffffffffffffffffffffffffffffffffffffff199095168517905592825281905220805460ff19168217905591505092915050565b6000828201838110156103b257600080fd5b9392505050565b610661806103c78339019056fe608060405234801561001057600080fd5b506040516106613803806106618339810180604052604081101561003357600080fd5b81516020830180519193928301929164010000000081111561005457600080fd5b8201602081018481111561006757600080fd5b815164010000000081118282018710171561008157600080fd5b505060008054600160a060020a0319163317808255604051929550600160a060020a031693509150600080516020610641833981519152908290a36100ce826401000000006100f3810204565b80516100e190600190602084019061014f565b5050601e6002555060016003556101ea565b600160a060020a03811661010657600080fd5b60008054604051600160a060020a038085169392169160008051602061064183398151915291a360008054600160a060020a031916600160a060020a0392909216919091179055565b828054600181600116156101000203166002900490600052602060002090601f016020900481019282601f1061019057805160ff19168380011785556101bd565b828001600101855582156101bd579182015b828111156101bd5782518255916020019190600101906101a2565b506101c99291506101cd565b5090565b6101e791905b808211156101c957600081556001016101d3565b90565b610448806101f96000396000f3fe608060405234801561001057600080fd5b50600436106100a5576000357c0100000000000000000000000000000000000000000000000000000000900480638f32d59b116100785780638f32d59b1461017c578063b55e75af14610198578063f199413c146101a0578063f2fde38b146101c3576100a5565b8063584feb3a146100aa578063715018a61461012757806387639c68146101315780638da5cb5b1461014b575b600080fd5b6100b26101f6565b6040805160208082528351818301528351919283929083019185019080838360005b838110156100ec5781810151838201526020016100d4565b50505050905090810190601f1680156101195780820380516001836020036101000a031916815260200191505b509250505060405180910390f35b61012f610283565b005b6101396102f8565b60408051918252519081900360200190f35b6101536102fe565b6040805173ffffffffffffffffffffffffffffffffffffffff9092168252519081900360200190f35b61018461031a565b604080519115158252519081900360200190f35b610139610338565b61012f600480360360408110156101b657600080fd5b508035906020013561033e565b61012f600480360360208110156101d957600080fd5b503573ffffffffffffffffffffffffffffffffffffffff166103b5565b60018054604080516020600284861615610100026000190190941693909304601f8101849004840282018401909252818152929183018282801561027b5780601f106102505761010080835404028352916020019161027b565b820191906000526020600020905b81548152906001019060200180831161025e57829003601f168201915b505050505081565b61028b61031a565b61029457600080fd5b6000805460405173ffffffffffffffffffffffffffffffffffffffff909116907f8be0079c531659141344cd1fd0a4f28419497f9722a3daafe3b4186f6b6457e0908390a36000805473ffffffffffffffffffffffffffffffffffffffff19169055565b60035481565b60005473ffffffffffffffffffffffffffffffffffffffff1690565b60005473ffffffffffffffffffffffffffffffffffffffff16331490565b60025481565b61034661031a565b61034f57600080fd5b606481111561035d57600080fd5b60025460035460408051928352602083018590528281019190915260608201839052517f61f37ef3a6d587ce2d6be79492e1fac570f2745787015db7ed95ad4397b05c1e9181900360800190a1600291909155600355565b604080517f08c379a000000000000000000000000000000000000000000000000000000000815260206004820152600860248201527f64697361626c6564000000000000000000000000000000000000000000000000604482015290519081900360640190fdfea165627a7a7230582038f1f5948d011ded69432c4aea1c4c815088922ab041618ea1438a60a6b763d900298be0079c531659141344cd1fd0a4f28419497f9722a3daafe3b4186f6b6457e0a165627a7a72305820e751839adb87e6f7352dab98108ed7ee32d73aa53b2e52493e1f27ab314e77210029",
  "source": "pragma solidity ^0.5.7;\n\nimport './Workerpool.sol';\nimport './RegistryBase.sol';\n\ncontract WorkerpoolRegistry is RegistryBase //, OwnableMutable // is Owned by IexecHub\n{\n\tevent CreateWorkerpool(address indexed workerpoolOwner, address indexed workerpool, string workerpoolDescription);\n\n\t/**\n\t * Constructor\n\t */\n\tconstructor()\n\tpublic\n\t{\n\t}\n\n\t/**\n\t * Pool creation\n\t */\n\tfunction createWorkerpool(\n\t\taddress          _workerpoolOwner,\n\t\tstring  calldata _workerpoolDescription)\n\texternal /* onlyOwner /*owner == IexecHub*/ returns (Workerpool)\n\t{\n\t\tWorkerpool newWorkerpool = new Workerpool(\n\t\t\t_workerpoolOwner,\n\t\t\t_workerpoolDescription\n\t\t);\n\t\trequire(insert(address(newWorkerpool), _workerpoolOwner));\n\t\temit CreateWorkerpool(_workerpoolOwner, address(newWorkerpool), _workerpoolDescription);\n\t\treturn newWorkerpool;\n\t}\n}\n",
  "sourcePath": "/home/amxx/Work/iExec/code/PoCo-dev/contracts/registries/WorkerpoolRegistry.sol",
  "compiler": {
    "name": "solc",
    "version": "0.5.7+commit.6da8b019.Emscripten.clang"
  },
  "schemaVersion": "3.0.6",
  "updatedAt": "2019-05-02T15:05:02.045Z",
  "devdoc": {
    "methods": {}
  },
  "userdoc": {
    "methods": {
      "constructor": "Constructor",
      "createWorkerpool(address,string)": {
        "notice": "Pool creation"
      },
      "isRegistered(address)": {
        "notice": "Accessors"
      }
    }
  }
}