{
  "contractName": "WorkOrder",
  "abi": [
    {
      "constant": true,
      "inputs": [],
      "name": "m_workerpool",
      "outputs": [
        {
          "name": "",
          "type": "address"
        }
      ],
      "payable": false,
      "stateMutability": "view",
      "type": "function"
    },
    {
      "constant": true,
      "inputs": [],
      "name": "m_category",
      "outputs": [
        {
          "name": "",
          "type": "uint256"
        }
      ],
      "payable": false,
      "stateMutability": "view",
      "type": "function"
    },
    {
      "constant": true,
      "inputs": [],
      "name": "m_params",
      "outputs": [
        {
          "name": "",
          "type": "string"
        }
      ],
      "payable": false,
      "stateMutability": "view",
      "type": "function"
    },
    {
      "constant": true,
      "inputs": [],
      "name": "m_workerpoolOwner",
      "outputs": [
        {
          "name": "",
          "type": "address"
        }
      ],
      "payable": false,
      "stateMutability": "view",
      "type": "function"
    },
    {
      "constant": true,
      "inputs": [],
      "name": "m_trust",
      "outputs": [
        {
          "name": "",
          "type": "uint256"
        }
      ],
      "payable": false,
      "stateMutability": "view",
      "type": "function"
    },
    {
      "constant": true,
      "inputs": [],
      "name": "m_value",
      "outputs": [
        {
          "name": "",
          "type": "uint256"
        }
      ],
      "payable": false,
      "stateMutability": "view",
      "type": "function"
    },
    {
      "constant": true,
      "inputs": [],
      "name": "m_requester",
      "outputs": [
        {
          "name": "",
          "type": "address"
        }
      ],
      "payable": false,
      "stateMutability": "view",
      "type": "function"
    },
    {
      "constant": true,
      "inputs": [],
      "name": "m_app",
      "outputs": [
        {
          "name": "",
          "type": "address"
        }
      ],
      "payable": false,
      "stateMutability": "view",
      "type": "function"
    },
    {
      "constant": true,
      "inputs": [],
      "name": "m_dataset",
      "outputs": [
        {
          "name": "",
          "type": "address"
        }
      ],
      "payable": false,
      "stateMutability": "view",
      "type": "function"
    },
    {
      "constant": true,
      "inputs": [],
      "name": "m_uri",
      "outputs": [
        {
          "name": "",
          "type": "string"
        }
      ],
      "payable": false,
      "stateMutability": "view",
      "type": "function"
    },
    {
      "constant": true,
      "inputs": [],
      "name": "m_stdout",
      "outputs": [
        {
          "name": "",
          "type": "string"
        }
      ],
      "payable": false,
      "stateMutability": "view",
      "type": "function"
    },
    {
      "constant": true,
      "inputs": [],
      "name": "m_appPayment",
      "outputs": [
        {
          "name": "",
          "type": "uint256"
        }
      ],
      "payable": false,
      "stateMutability": "view",
      "type": "function"
    },
    {
      "constant": true,
      "inputs": [],
      "name": "m_callback",
      "outputs": [
        {
          "name": "",
          "type": "address"
        }
      ],
      "payable": false,
      "stateMutability": "view",
      "type": "function"
    },
    {
      "constant": true,
      "inputs": [],
      "name": "m_owner",
      "outputs": [
        {
          "name": "",
          "type": "address"
        }
      ],
      "payable": false,
      "stateMutability": "view",
      "type": "function"
    },
    {
      "constant": true,
      "inputs": [],
      "name": "m_status",
      "outputs": [
        {
          "name": "",
          "type": "uint8"
        }
      ],
      "payable": false,
      "stateMutability": "view",
      "type": "function"
    },
    {
      "constant": false,
      "inputs": [
        {
          "name": "_newOwner",
          "type": "address"
        }
      ],
      "name": "transferOwnership",
      "outputs": [],
      "payable": false,
      "stateMutability": "nonpayable",
      "type": "function"
    },
    {
      "constant": true,
      "inputs": [],
      "name": "m_stderr",
      "outputs": [
        {
          "name": "",
          "type": "string"
        }
      ],
      "payable": false,
      "stateMutability": "view",
      "type": "function"
    },
    {
      "constant": true,
      "inputs": [],
      "name": "m_beneficiary",
      "outputs": [
        {
          "name": "",
          "type": "address"
        }
      ],
      "payable": false,
      "stateMutability": "view",
      "type": "function"
    },
    {
      "inputs": [
        {
          "name": "_commonOrder",
          "type": "uint256[3]"
        },
        {
          "name": "_poolOrder_workerpool",
          "type": "address"
        },
        {
          "name": "_poolOrder_workerpoolOwner",
          "type": "address"
        },
        {
          "name": "_userOrder",
          "type": "address[5]"
        },
        {
          "name": "_userOrder_params",
          "type": "string"
        },
        {
          "name": "_appPayment",
          "type": "uint256"
        }
      ],
      "payable": false,
      "stateMutability": "nonpayable",
      "type": "constructor"
    },
    {
      "anonymous": false,
      "inputs": [],
      "name": "WorkOrderActivated",
      "type": "event"
    },
    {
      "anonymous": false,
      "inputs": [],
      "name": "WorkOrderReActivated",
      "type": "event"
    },
    {
      "anonymous": false,
      "inputs": [],
      "name": "WorkOrderRevealing",
      "type": "event"
    },
    {
      "anonymous": false,
      "inputs": [],
      "name": "WorkOrderClaimed",
      "type": "event"
    },
    {
      "anonymous": false,
      "inputs": [],
      "name": "WorkOrderCompleted",
      "type": "event"
    },
    {
      "anonymous": false,
      "inputs": [
        {
          "indexed": true,
          "name": "previousOwner",
          "type": "address"
        },
        {
          "indexed": true,
          "name": "newOwner",
          "type": "address"
        }
      ],
      "name": "OwnershipTransferred",
      "type": "event"
    },
    {
      "constant": false,
      "inputs": [],
      "name": "startRevealingPhase",
      "outputs": [
        {
          "name": "",
          "type": "bool"
        }
      ],
      "payable": false,
      "stateMutability": "nonpayable",
      "type": "function"
    },
    {
      "constant": false,
      "inputs": [],
      "name": "reActivate",
      "outputs": [
        {
          "name": "",
          "type": "bool"
        }
      ],
      "payable": false,
      "stateMutability": "nonpayable",
      "type": "function"
    },
    {
      "constant": false,
      "inputs": [],
      "name": "claim",
      "outputs": [],
      "payable": false,
      "stateMutability": "nonpayable",
      "type": "function"
    },
    {
      "constant": false,
      "inputs": [
        {
          "name": "_stdout",
          "type": "string"
        },
        {
          "name": "_stderr",
          "type": "string"
        },
        {
          "name": "_uri",
          "type": "string"
        }
      ],
      "name": "setResult",
      "outputs": [],
      "payable": false,
      "stateMutability": "nonpayable",
      "type": "function"
    }
  ],
  "bytecode": "0x6060604052341561000f57600080fd5b604051610f7f380380610f7f83398101604052806060810180519190602001805191602082019160c001805182019190602001805160008054600160a060020a03191633600160a060020a03161760a060020a60ff021916740100000000000000000000000000000000000000001790559150869050516001556020860151600255604086015160035560048054600160a060020a03878116600160a060020a0319928316179092556005805492871692909116919091179055825160068054600160a060020a031916600160a060020a0392909216919091179055826001602002015160078054600160a060020a031916600160a060020a0392909216919091179055826002602002015160088054600160a060020a031916600160a060020a0392909216919091179055826003602002015160098054600160a060020a031916600160a060020a03929092169190911790558260046020020151600a8054600160a060020a031916600160a060020a0392909216919091179055600b82805161019e9291602001906101ad565b50600c55506102489350505050565b828054600181600116156101000203166002900490600052602060002090601f016020900481019282601f106101ee57805160ff191683800117855561021b565b8280016001018555821561021b579182015b8281111561021b578251825591602001919060010190610200565b5061022792915061022b565b5090565b61024591905b808211156102275760008155600101610231565b90565b610d28806102576000396000f3006060604052600436106101275763ffffffff7c01000000000000000000000000000000000000000000000000000000006000350416630690e5b8811461012c578063143c43ce1461015b57806315298c77146101805780631a514d971461020a5780632d4d671f146102315780632e2a9ca114610244578063428da35d1461025757806349e587b61461026a5780634e71d92d1461027d5780635f44910c146102925780636946f692146102a557806371a599ca146102b85780639c4a8561146102cb578063cc3a2dfa146102de578063d5fdfdbc146102f1578063d72769ac146103c6578063da1fea28146103d9578063deff41c1146103ec578063e329c478146103ff578063f2fde38b14610436578063f3859f5714610455578063f6a5b13e14610468575b600080fd5b341561013757600080fd5b61013f61047b565b604051600160a060020a03909116815260200160405180910390f35b341561016657600080fd5b61016e61048a565b60405190815260200160405180910390f35b341561018b57600080fd5b610193610490565b60405160208082528190810183818151815260200191508051906020019080838360005b838110156101cf5780820151838201526020016101b7565b50505050905090810190601f1680156101fc5780820380516001836020036101000a031916815260200191505b509250505060405180910390f35b341561021557600080fd5b61021d61052e565b604051901515815260200160405180910390f35b341561023c57600080fd5b61021d6105c7565b341561024f57600080fd5b61013f610670565b341561026257600080fd5b61016e61067f565b341561027557600080fd5b61016e610685565b341561028857600080fd5b61029061068b565b005b341561029d57600080fd5b61013f610751565b34156102b057600080fd5b61013f610760565b34156102c357600080fd5b61013f61076f565b34156102d657600080fd5b61019361077e565b34156102e957600080fd5b6101936107e9565b34156102fc57600080fd5b61029060046024813581810190830135806020601f8201819004810201604051908101604052818152929190602084018383808284378201915050505050509190803590602001908201803590602001908080601f01602080910402602001604051908101604052818152929190602084018383808284378201915050505050509190803590602001908201803590602001908080601f01602080910402602001604051908101604052818152929190602084018383808284375094965061085495505050505050565b34156103d157600080fd5b61016e610b1b565b34156103e457600080fd5b61013f610b21565b34156103f757600080fd5b61013f610b30565b341561040a57600080fd5b610412610b3f565b6040518082600481111561042257fe5b60ff16815260200191505060405180910390f35b341561044157600080fd5b610290600160a060020a0360043516610b4f565b341561046057600080fd5b610193610bea565b341561047357600080fd5b61013f610c55565b600454600160a060020a031681565b60015481565b600b8054600181600116156101000203166002900480601f0160208091040260200160405190810160405280929190818152602001828054600181600116156101000203166002900480156105265780601f106104fb57610100808354040283529160200191610526565b820191906000526020600020905b81548152906001019060200180831161050957829003601f168201915b505050505081565b60045460009033600160a060020a0390811691161461054c57600080fd5b600260005460a060020a900460ff16600481111561056657fe5b1461057057600080fd5b6000805474ff0000000000000000000000000000000000000000191660a060020a1790557f06c42818c4ab74dff6aec55942f601c2e9b7f2aa4321ee71690b125eacfe465460405160405180910390a15060015b90565b60045460009033600160a060020a039081169116146105e557600080fd5b600160005460a060020a900460ff1660048111156105ff57fe5b1461060957600080fd5b6000805474ff00000000000000000000000000000000000000001916740200000000000000000000000000000000000000001790557f2b0cab0be6d82b2661b3b789c540ec9c7223aac635ac8e59a1e71e1137f2dd7760405160405180910390a150600190565b600554600160a060020a031681565b60025481565b60035481565b60005433600160a060020a039081169116146106a657600080fd5b600160005460a060020a900460ff1660048111156106c057fe5b14806106e35750600260005460a060020a900460ff1660048111156106e157fe5b145b15156106ee57600080fd5b6000805474ff00000000000000000000000000000000000000001916740300000000000000000000000000000000000000001790557f1938697ee29e363ecda49e464c6d2aae25f0974bd1f2c81a91c21e13ad8dbf7760405160405180910390a1565b600a54600160a060020a031681565b600654600160a060020a031681565b600754600160a060020a031681565b600f8054600181600116156101000203166002900480601f0160208091040260200160405190810160405280929190818152602001828054600181600116156101000203166002900480156105265780601f106104fb57610100808354040283529160200191610526565b600d8054600181600116156101000203166002900480601f0160208091040260200160405190810160405280929190818152602001828054600181600116156101000203166002900480156105265780601f106104fb57610100808354040283529160200191610526565b60005433600160a060020a0390811691161461086f57600080fd5b600260005460a060020a900460ff16600481111561088957fe5b1461089357600080fd5b6000805474ff0000000000000000000000000000000000000000191674040000000000000000000000000000000000000000179055600d8380516108db929160200190610c64565b50600e8280516108ef929160200190610c64565b50600f818051610903929160200190610c64565b50600854600160a060020a031615610aea57600854600160a060020a031663514d7067308585856040518563ffffffff167c01000000000000000000000000000000000000000000000000000000000281526004018085600160a060020a0316600160a060020a03168152602001806020018060200180602001848103845287818151815260200191508051906020019080838360005b838110156109b257808201518382015260200161099a565b50505050905090810190601f1680156109df5780820380516001836020036101000a031916815260200191505b50848103835286818151815260200191508051906020019080838360005b83811015610a155780820151838201526020016109fd565b50505050905090810190601f168015610a425780820380516001836020036101000a031916815260200191505b50848103825285818151815260200191508051906020019080838360005b83811015610a78578082015183820152602001610a60565b50505050905090810190601f168015610aa55780820380516001836020036101000a031916815260200191505b50975050505050505050602060405180830381600087803b1515610ac857600080fd5b5af11515610ad557600080fd5b505050604051805190501515610aea57600080fd5b7f777f59509d985349c80271b657d2649b218bc6f075a4625821b64448cc235b8660405160405180910390a1505050565b600c5481565b600854600160a060020a031681565b600054600160a060020a031681565b60005460a060020a900460ff1681565b60005433600160a060020a03908116911614610b6a57600080fd5b600160a060020a0381161515610b7f57600080fd5b600054600160a060020a0380831691167f8be0079c531659141344cd1fd0a4f28419497f9722a3daafe3b4186f6b6457e060405160405180910390a36000805473ffffffffffffffffffffffffffffffffffffffff1916600160a060020a0392909216919091179055565b600e8054600181600116156101000203166002900480601f0160208091040260200160405190810160405280929190818152602001828054600181600116156101000203166002900480156105265780601f106104fb57610100808354040283529160200191610526565b600954600160a060020a031681565b828054600181600116156101000203166002900490600052602060002090601f016020900481019282601f10610ca557805160ff1916838001178555610cd2565b82800160010185558215610cd2579182015b82811115610cd2578251825591602001919060010190610cb7565b50610cde929150610ce2565b5090565b6105c491905b80821115610cde5760008155600101610ce85600a165627a7a72305820342d25abe050f007c8ee420ad54fd3702915cb5fc66016ce55c1142fd53452ab0029",
  "source": "pragma solidity ^0.4.21;\n\nimport './IexecCallbackInterface.sol';\nimport './IexecLib.sol';\nimport './OwnableOZ.sol';\n\ncontract WorkOrder is OwnableOZ\n{\n\n\tevent WorkOrderActivated();\n\tevent WorkOrderReActivated();\n\tevent WorkOrderRevealing();\n\tevent WorkOrderClaimed  ();\n\tevent WorkOrderCompleted();\n\n\t/**\n\t * Members\n\t */\n\tIexecLib.WorkOrderStatusEnum public m_status;\n\n\tuint256 public m_category;\n\tuint256 public m_trust;\n\tuint256 public m_value;\n\n\taddress public m_workerpool;\n\taddress public m_workerpoolOwner;\n\n\taddress public m_app;\n\taddress public m_dataset;\n\taddress public m_callback;\n\taddress public m_beneficiary;\n\taddress public m_requester;\n\tstring  public m_params;\n\n\tuint256 public m_appPayment;\n\n\tstring  public m_stdout;\n\tstring  public m_stderr;\n\tstring  public m_uri;\n\n\t/**\n\t * Constructor\n\t */\n\t/* constructor( */\n\tfunction WorkOrder(\n\t\t/********** Order settings **********/\n\t\tuint256[3] _commonOrder,\n\t\t/* uint256 _commonOrder_category, */\n\t\t/* uint256 _commonOrder_trust, */\n\t\t/* uint256 _commonOrder_value, */\n\t\t/********** Pool settings **********/\n\t\t/* uint256 _poolOrder_volume, */ // NOT NEEDED\n\t\taddress _poolOrder_workerpool,\n\t\taddress _poolOrder_workerpoolOwner,\n\t\t/********** User settings **********/\n\t\taddress[5] _userOrder,\n\t\t/* address _userOrder_app, */\n\t\t/* address _userOrder_dataset, */\n\t\t/* address _userOrder_callback, */\n\t\t/* address _userOrder_beneficiary, */\n\t\t/* address _userOrder_requester, */\n\t\tstring  _userOrder_params,\n\t\t/********** Extra **********/\n\t\tuint256 _appPayment)\n\tpublic\n\t{\n\t\t// Creator is owner →  iExecHub\n\t\tm_status          = IexecLib.WorkOrderStatusEnum.ACTIVE;\n\t\tm_category        = _commonOrder[0];\n\t\tm_trust           = _commonOrder[1];\n\t\tm_value           = _commonOrder[2];\n\t\tm_workerpool      = _poolOrder_workerpool;\n\t\tm_workerpoolOwner = _poolOrder_workerpoolOwner;\n\t\tm_app             = _userOrder[0];\n\t\tm_dataset         = _userOrder[1];\n\t\tm_callback        = _userOrder[2];\n\t\tm_beneficiary     = _userOrder[3];\n\t\tm_requester       = _userOrder[4];\n\t\tm_params          = _userOrder_params;\n\t\tm_appPayment      = _appPayment;\n\t}\n\n\tfunction startRevealingPhase()\n\tpublic returns (bool)\n\t{\n\t\trequire(m_workerpool == msg.sender);\n\t\trequire(m_status == IexecLib.WorkOrderStatusEnum.ACTIVE);\n\t\tm_status = IexecLib.WorkOrderStatusEnum.REVEALING;\n\t\temit WorkOrderRevealing();\n\t\treturn true;\n\t}\n\n\tfunction reActivate()\n\tpublic returns (bool)\n\t{\n\t\trequire(m_workerpool == msg.sender);\n\t\trequire(m_status == IexecLib.WorkOrderStatusEnum.REVEALING);\n\t\tm_status = IexecLib.WorkOrderStatusEnum.ACTIVE;\n\t\temit WorkOrderReActivated();\n\t\treturn true;\n\t}\n\n\n\tfunction claim()\n\tpublic onlyOwner /* owner = iExecHub */\n\t{\n\t\trequire(m_status == IexecLib.WorkOrderStatusEnum.ACTIVE || m_status == IexecLib.WorkOrderStatusEnum.REVEALING);\n\t\tm_status = IexecLib.WorkOrderStatusEnum.CLAIMED;\n\t\temit WorkOrderClaimed();\n\t}\n\n\n\tfunction setResult(string _stdout, string _stderr, string _uri)\n\tpublic onlyOwner /* owner = iExecHub */\n\t{\n\t\trequire(m_status == IexecLib.WorkOrderStatusEnum.REVEALING);\n\t\tm_status = IexecLib.WorkOrderStatusEnum.COMPLETED;\n\t\tm_stdout = _stdout;\n\t\tm_stderr = _stderr;\n\t\tm_uri    = _uri;\n\t\tif (m_callback != address(0))\n\t\t{\n\t\t\t// optional dappCallback call can be done\n\t\t\trequire(IexecCallbackInterface(m_callback).workOrderCallback(\n\t\t\t\tthis,\n\t\t\t\t_stdout,\n\t\t\t\t_stderr,\n\t\t\t\t_uri\n\t\t\t));\n\t\t}\n\t\temit WorkOrderCompleted();\n\t}\n\n}\n",
  "sourcePath": "/home/amxx/Work/iExec/PoCo-dev/contracts/WorkOrder.sol",
  "compiler": {
    "name": "solc",
    "version": "0.4.21+commit.dfe3193c.Emscripten.clang"
  },
  "schemaVersion": "2.0.0",
  "updatedAt": "2018-05-19T17:45:04.243Z"
}