{
  "contractName": "Workerpool",
  "abi": [
    {
      "anonymous": false,
      "inputs": [
        {
          "indexed": false,
          "internalType": "uint256",
          "name": "oldWorkerStakeRatioPolicy",
          "type": "uint256"
        },
        {
          "indexed": false,
          "internalType": "uint256",
          "name": "newWorkerStakeRatioPolicy",
          "type": "uint256"
        },
        {
          "indexed": false,
          "internalType": "uint256",
          "name": "oldSchedulerRewardRatioPolicy",
          "type": "uint256"
        },
        {
          "indexed": false,
          "internalType": "uint256",
          "name": "newSchedulerRewardRatioPolicy",
          "type": "uint256"
        }
      ],
      "name": "PolicyUpdate",
      "type": "event"
    },
    {
      "inputs": [],
      "name": "m_schedulerRewardRatioPolicy",
      "outputs": [
        {
          "internalType": "uint256",
          "name": "",
          "type": "uint256"
        }
      ],
      "stateMutability": "view",
      "type": "function"
    },
    {
      "inputs": [],
      "name": "m_workerStakeRatioPolicy",
      "outputs": [
        {
          "internalType": "uint256",
          "name": "",
          "type": "uint256"
        }
      ],
      "stateMutability": "view",
      "type": "function"
    },
    {
      "inputs": [],
      "name": "m_workerpoolDescription",
      "outputs": [
        {
          "internalType": "string",
          "name": "",
          "type": "string"
        }
      ],
      "stateMutability": "view",
      "type": "function"
    },
    {
      "inputs": [],
      "name": "owner",
      "outputs": [
        {
          "internalType": "address",
          "name": "",
          "type": "address"
        }
      ],
      "stateMutability": "view",
      "type": "function"
    },
    {
      "inputs": [],
      "name": "registry",
      "outputs": [
        {
          "internalType": "contract IRegistry",
          "name": "",
          "type": "address"
        }
      ],
      "stateMutability": "view",
      "type": "function"
    },
    {
      "inputs": [
        {
          "internalType": "address",
          "name": "_ens",
          "type": "address"
        },
        {
          "internalType": "string",
          "name": "_name",
          "type": "string"
        }
      ],
      "name": "setName",
      "outputs": [],
      "stateMutability": "nonpayable",
      "type": "function"
    },
    {
      "inputs": [
        {
          "internalType": "string",
          "name": "_workerpoolDescription",
          "type": "string"
        }
      ],
      "name": "initialize",
      "outputs": [],
      "stateMutability": "nonpayable",
      "type": "function"
    },
    {
      "inputs": [
        {
          "internalType": "uint256",
          "name": "_newWorkerStakeRatioPolicy",
          "type": "uint256"
        },
        {
          "internalType": "uint256",
          "name": "_newSchedulerRewardRatioPolicy",
          "type": "uint256"
        }
      ],
      "name": "changePolicy",
      "outputs": [],
      "stateMutability": "nonpayable",
      "type": "function"
    }
  ],
  "bytecode": "0x608060405234801561001057600080fd5b50610809806100206000396000f3fe608060405234801561001057600080fd5b50600436106100885760003560e01c80638da5cb5b1161005b5780638da5cb5b146101ca578063b55e75af146101d2578063f199413c146101da578063f62d1888146101fd57610088565b80633121db1c1461008d578063584feb3a1461010f5780637b1039991461018c57806387639c68146101b0575b600080fd5b61010d600480360360408110156100a357600080fd5b6001600160a01b0382351691908101906040810160208201356401000000008111156100ce57600080fd5b8201836020820111156100e057600080fd5b8035906020019184600183028401116401000000008311171561010257600080fd5b5090925090506102a3565b005b610117610346565b6040805160208082528351818301528351919283929083019185019080838360005b83811015610151578181015183820152602001610139565b50505050905090810190601f16801561017e5780820380516001836020036101000a031916815260200191505b509250505060405180910390f35b6101946103d3565b604080516001600160a01b039092168252519081900360200190f35b6101b86103e2565b60408051918252519081900360200190f35b6101946103e8565b6101b8610466565b61010d600480360360408110156101f057600080fd5b508035906020013561046c565b61010d6004803603602081101561021357600080fd5b81019060208101813564010000000081111561022e57600080fd5b82018360208201111561024057600080fd5b8035906020019184600183028401116401000000008311171561026257600080fd5b91908080601f016020809104026020016040519081016040528093929190818152602001838380828437600092019190915250929550610530945050505050565b336102ac6103e8565b6001600160a01b031614610301576040805162461bcd60e51b815260206004820152601760248201527631b0b63632b91034b9903737ba103a34329037bbb732b960491b604482015290519081900360640190fd5b6103418383838080601f01602080910402602001604051908101604052809392919081815260200183838082843760009201919091525061055a92505050565b505050565b60018054604080516020600284861615610100026000190190941693909304601f810184900484028201840190925281815292918301828280156103cb5780601f106103a0576101008083540402835291602001916103cb565b820191906000526020600020905b8154815290600101906020018083116103ae57829003601f168201915b505050505081565b6000546001600160a01b031681565b60035481565b60008054604080516331a9108f60e11b815230600482015290516001600160a01b0390921691636352211e91602480820192602092909190829003018186803b15801561043457600080fd5b505afa158015610448573d6000803e3d6000fd5b505050506040513d602081101561045e57600080fd5b505190505b90565b60025481565b336104756103e8565b6001600160a01b0316146104ca576040805162461bcd60e51b815260206004820152601760248201527631b0b63632b91034b9903737ba103a34329037bbb732b960491b604482015290519081900360640190fd5b60648111156104d857600080fd5b60025460035460408051928352602083018590528281019190915260608201839052517f61f37ef3a6d587ce2d6be79492e1fac570f2745787015db7ed95ad4397b05c1e9181900360800190a1600291909155600355565b610539336106c5565b805161054c90600190602084019061073b565b5050601e6002556001600355565b604080516302571be360e01b81527f91d1777781884d03a6757a803996e38de2a42967fb37eeaca72729271025a9e2600482015290516001600160a01b038416916302571be3916024808301926020929190829003018186803b1580156105c057600080fd5b505afa1580156105d4573d6000803e3d6000fd5b505050506040513d60208110156105ea57600080fd5b505160405163c47f002760e01b81526020600482018181528451602484015284516001600160a01b039094169363c47f002793869383926044909201919085019080838360005b83811015610649578181015183820152602001610631565b50505050905090810190601f1680156106765780820380516001836020036101000a031916815260200191505b5092505050602060405180830381600087803b15801561069557600080fd5b505af11580156106a9573d6000803e3d6000fd5b505050506040513d60208110156106bf57600080fd5b50505050565b6000546001600160a01b031615610719576040805162461bcd60e51b8152602060048201526013602482015272185b1c9958591e481a5b9a5d1a585b1a5e9959606a1b604482015290519081900360640190fd5b600080546001600160a01b0319166001600160a01b0392909216919091179055565b828054600181600116156101000203166002900490600052602060002090601f016020900481019282601f1061077c57805160ff19168380011785556107a9565b828001600101855582156107a9579182015b828111156107a957825182559160200191906001019061078e565b506107b59291506107b9565b5090565b61046391905b808211156107b557600081556001016107bf56fea264697066735822122045e24a4d6dcd657935e03c7822ea7fa3d67f9aa7f6c1d512add165b5cbea5a2064736f6c63430006060033",
  "immutableReferences": {},
  "source": "pragma solidity ^0.6.0;\n\nimport \"../RegistryEntry.sol\";\n\n\ncontract Workerpool is RegistryEntry\n{\n\t/**\n\t * Parameters\n\t */\n\tstring  public m_workerpoolDescription;\n\tuint256 public m_workerStakeRatioPolicy;     // % of reward to stake\n\tuint256 public m_schedulerRewardRatioPolicy; // % of reward given to scheduler\n\n\t/**\n\t * Events\n\t */\n\tevent PolicyUpdate(\n\t\tuint256 oldWorkerStakeRatioPolicy,     uint256 newWorkerStakeRatioPolicy,\n\t\tuint256 oldSchedulerRewardRatioPolicy, uint256 newSchedulerRewardRatioPolicy);\n\n\t/**\n\t * Constructor\n\t */\n\tfunction initialize(\n\t\tstring memory _workerpoolDescription)\n\tpublic\n\t{\n\t\t_initialize(msg.sender);\n\t\tm_workerpoolDescription      = _workerpoolDescription;\n\t\tm_workerStakeRatioPolicy     = 30; // mutable\n\t\tm_schedulerRewardRatioPolicy = 1;  // mutable\n\t}\n\n\tfunction changePolicy(\n\t\tuint256 _newWorkerStakeRatioPolicy,\n\t\tuint256 _newSchedulerRewardRatioPolicy)\n\texternal onlyOwner()\n\t{\n\t\trequire(_newSchedulerRewardRatioPolicy <= 100);\n\n\t\temit PolicyUpdate(\n\t\t\tm_workerStakeRatioPolicy,     _newWorkerStakeRatioPolicy,\n\t\t\tm_schedulerRewardRatioPolicy, _newSchedulerRewardRatioPolicy\n\t\t);\n\n\t\tm_workerStakeRatioPolicy     = _newWorkerStakeRatioPolicy;\n\t\tm_schedulerRewardRatioPolicy = _newSchedulerRewardRatioPolicy;\n\t}\n}\n",
  "sourcePath": "/home/amxx/Work/iExec/code/PoCo-dev/contracts/registries/workerpools/Workerpool.sol",
  "compiler": {
    "name": "solc",
    "version": "0.6.6+commit.6c089d02.Emscripten.clang"
  },
  "schemaVersion": "3.1.0",
  "updatedAt": "2020-04-21T18:10:34.944Z",
  "devdoc": {
    "methods": {}
  },
  "userdoc": {
    "methods": {
      "initialize(string)": {
        "notice": "Constructor"
      }
    }
  }
}