{
  "contractName": "WorkerPoolHub",
  "abi": [
    {
      "constant": true,
      "inputs": [],
      "name": "changeable",
      "outputs": [
        {
          "name": "",
          "type": "bool"
        }
      ],
      "payable": false,
      "stateMutability": "view",
      "type": "function"
    },
    {
      "constant": false,
      "inputs": [
        {
          "name": "_newOwner",
          "type": "address"
        }
      ],
      "name": "setImmutableOwnership",
      "outputs": [],
      "payable": false,
      "stateMutability": "nonpayable",
      "type": "function"
    },
    {
      "constant": true,
      "inputs": [],
      "name": "m_totalWorkerPoolCount",
      "outputs": [
        {
          "name": "",
          "type": "uint256"
        }
      ],
      "payable": false,
      "stateMutability": "view",
      "type": "function"
    },
    {
      "constant": true,
      "inputs": [],
      "name": "m_owner",
      "outputs": [
        {
          "name": "",
          "type": "address"
        }
      ],
      "payable": false,
      "stateMutability": "view",
      "type": "function"
    },
    {
      "inputs": [],
      "payable": false,
      "stateMutability": "nonpayable",
      "type": "constructor"
    },
    {
      "anonymous": false,
      "inputs": [
        {
          "indexed": true,
          "name": "previousOwner",
          "type": "address"
        },
        {
          "indexed": true,
          "name": "newOwner",
          "type": "address"
        }
      ],
      "name": "OwnershipTransferred",
      "type": "event"
    },
    {
      "constant": true,
      "inputs": [
        {
          "name": "_workerPool",
          "type": "address"
        }
      ],
      "name": "isWorkerPoolRegistered",
      "outputs": [
        {
          "name": "",
          "type": "bool"
        }
      ],
      "payable": false,
      "stateMutability": "view",
      "type": "function"
    },
    {
      "constant": true,
      "inputs": [
        {
          "name": "_owner",
          "type": "address"
        }
      ],
      "name": "getWorkerPoolsCount",
      "outputs": [
        {
          "name": "",
          "type": "uint256"
        }
      ],
      "payable": false,
      "stateMutability": "view",
      "type": "function"
    },
    {
      "constant": true,
      "inputs": [
        {
          "name": "_owner",
          "type": "address"
        },
        {
          "name": "_index",
          "type": "uint256"
        }
      ],
      "name": "getWorkerPool",
      "outputs": [
        {
          "name": "",
          "type": "address"
        }
      ],
      "payable": false,
      "stateMutability": "view",
      "type": "function"
    },
    {
      "constant": true,
      "inputs": [
        {
          "name": "_index",
          "type": "uint256"
        }
      ],
      "name": "getWorkerPoolByIndex",
      "outputs": [
        {
          "name": "",
          "type": "address"
        }
      ],
      "payable": false,
      "stateMutability": "view",
      "type": "function"
    },
    {
      "constant": true,
      "inputs": [
        {
          "name": "_worker",
          "type": "address"
        }
      ],
      "name": "getWorkerAffectation",
      "outputs": [
        {
          "name": "workerPool",
          "type": "address"
        }
      ],
      "payable": false,
      "stateMutability": "view",
      "type": "function"
    },
    {
      "constant": false,
      "inputs": [
        {
          "name": "_description",
          "type": "string"
        },
        {
          "name": "_subscriptionLockStakePolicy",
          "type": "uint256"
        },
        {
          "name": "_subscriptionMinimumStakePolicy",
          "type": "uint256"
        },
        {
          "name": "_subscriptionMinimumScorePolicy",
          "type": "uint256"
        },
        {
          "name": "_marketplaceAddress",
          "type": "address"
        }
      ],
      "name": "createWorkerPool",
      "outputs": [
        {
          "name": "createdWorkerPool",
          "type": "address"
        }
      ],
      "payable": false,
      "stateMutability": "nonpayable",
      "type": "function"
    },
    {
      "constant": false,
      "inputs": [
        {
          "name": "_workerPool",
          "type": "address"
        },
        {
          "name": "_worker",
          "type": "address"
        }
      ],
      "name": "registerWorkerAffectation",
      "outputs": [
        {
          "name": "subscribed",
          "type": "bool"
        }
      ],
      "payable": false,
      "stateMutability": "nonpayable",
      "type": "function"
    },
    {
      "constant": false,
      "inputs": [
        {
          "name": "_workerPool",
          "type": "address"
        },
        {
          "name": "_worker",
          "type": "address"
        }
      ],
      "name": "unregisterWorkerAffectation",
      "outputs": [
        {
          "name": "unsubscribed",
          "type": "bool"
        }
      ],
      "payable": false,
      "stateMutability": "nonpayable",
      "type": "function"
    }
  ],
  "bytecode": "0x6060604052341561000f57600080fd5b6000805474010000000000000000000000000000000000000000600160a060020a031990911633600160a060020a03161760a060020a60ff021916178155613a6390819061005d90396000f3006060604052600436106100b95763ffffffff7c010000000000000000000000000000000000000000000000000000000060003504166301a08a8b81146100be5780630b00de8d146100fc5780631884c51714610135578063215bd3031461015a57806368c197dd1461018e57806369bee8a1146101ad578063951b26a3146101de578063bbac78a9146101f1578063bc1013db14610212578063d440c6f314610225578063dee3efb214610244578063deff41c11461025a575b600080fd5b34156100c957600080fd5b6100e0600160a060020a036004351660243561026d565b604051600160a060020a03909116815260200160405180910390f35b341561010757600080fd5b610121600160a060020a0360043581169060243516610295565b604051901515815260200160405180910390f35b341561014057600080fd5b610121600160a060020a0360043581169060243516610315565b341561016557600080fd5b6100e0602460048035828101929101359035604435606435600160a060020a0360843516610399565b341561019957600080fd5b610121600160a060020a0360043516610444565b34156101b857600080fd5b6101cc600160a060020a0360043516610462565b60405190815260200160405180910390f35b34156101e957600080fd5b61012161047d565b34156101fc57600080fd5b610210600160a060020a036004351661049e565b005b341561021d57600080fd5b6101cc61056e565b341561023057600080fd5b6100e0600160a060020a0360043516610574565b341561024f57600080fd5b6100e0600435610592565b341561026557600080fd5b6100e06105ad565b600160a060020a03918216600090815260036020908152604080832093835292905220541690565b6000805433600160a060020a039081169116146102b157600080fd5b600160a060020a038281166000908152600160205260409020548116908416146102da57600080fd5b50600160a060020a03166000908152600160208190526040909120805473ffffffffffffffffffffffffffffffffffffffff19169055919050565b6000805433600160a060020a0390811691161461033157600080fd5b600160a060020a03828116600090815260016020526040902054161561035657600080fd5b50600160a060020a039081166000908152600160208190526040909120805473ffffffffffffffffffffffffffffffffffffffff19169390921692909217905590565b60008054819033600160a060020a039081169116146103b757600080fd5b338888888888886103c6610694565b600160a060020a038089168252604082018690526060820185905260808201849052821660a082015260c06020820181815290820187905260e08201888880828437820191505098505050505050505050604051809103906000f080151561042d57600080fd5b905061043932826105bc565b979650505050505050565b600160a060020a031660009081526004602052604090205460ff1690565b600160a060020a031660009081526002602052604090205490565b60005474010000000000000000000000000000000000000000900460ff1681565b60005433600160a060020a039081169116146104b957600080fd5b60005474010000000000000000000000000000000000000000900460ff1615156104e257600080fd5b600160a060020a03811615156104f757600080fd5b6000805473ffffffffffffffffffffffffffffffffffffffff1916600160a060020a0383811691821774ff00000000000000000000000000000000000000001981169093559091167f8be0079c531659141344cd1fd0a4f28419497f9722a3daafe3b4186f6b6457e060405160405180910390a350565b60065481565b600160a060020a039081166000908152600160205260409020541690565b600090815260056020526040902054600160a060020a031690565b600054600160a060020a031681565b600160a060020a0382166000908152600260205260408120546105e690600163ffffffff61067e16565b6006549091506105fd90600163ffffffff61067e16565b600681905560009081526005602090815260408083208054600160a060020a0396871673ffffffffffffffffffffffffffffffffffffffff199182168117909255969095168352600282528083208490556003825280832093835292815282822080549095168417909455918252600490925220805460ff19166001179055565b60008282018381101561068d57fe5b9392505050565b604051613393806106a5833901905600606060405234156200001057600080fd5b604051620033933803806200339383398101604052808051919060200180518201919060200180519190602001805191906020018051919060200180516000805460a060020a60ff0219600160a060020a03338116600160a060020a031990931692909217167401000000000000000000000000000000000000000017909155909250829150879081161515620000a657600080fd5b60018054600160a060020a03928316600160a060020a0319918216811790925560028054909116909117905581161515620000e057600080fd5b60038054600160a060020a03928316600160a060020a031991821681179092556004805490911690911790553281163390911614156200011f57600080fd5b6200013832640100000000620020666200018882021704565b60058580516200014d92916020019062000240565b5050601e6006556001600755600892909255600955600a555050600f8054600160a060020a03191633600160a060020a0316179055620002e5565b60005433600160a060020a03908116911614620001a457600080fd5b60005474010000000000000000000000000000000000000000900460ff161515620001ce57600080fd5b600160a060020a0381161515620001e457600080fd5b60008054600160a060020a031916600160a060020a0383811691821760a060020a60ff021981169093559091167f8be0079c531659141344cd1fd0a4f28419497f9722a3daafe3b4186f6b6457e060405160405180910390a350565b828054600181600116156101000203166002900490600052602060002090601f016020900481019282601f106200028357805160ff1916838001178555620002b3565b82800160010185558215620002b3579182015b82811115620002b357825182559160200191906001019062000296565b50620002c1929150620002c5565b5090565b620002e291905b80821115620002c15760008155600101620002cc565b90565b61309e80620002f56000396000f3006060604052600436106101b35763ffffffff60e060020a600035041663031ee1c881146101b857806306021e7e146101fb5780630c6e29e3146102f2578063126eac431461030557806316ebf77d146103795780631f1e74061461039b5780632b8fd18a146104105780633ec6a4c41461044257806340f036051461046157806341cb01ad1461048657806345b99d28146104a55780635a628525146104b85780636ab6936a146104da5780637919233f146104ed5780637bd220bb1461050f5780637c60988514610534578063835436b41461059c57806387639c68146105bb57806389869163146105ce5780638d7db2f7146105ed578063900b7b6214610677578063951b26a31461068d578063b32ca9c5146106a0578063bb7fb08b146106b3578063bbac78a9146106d5578063c6c5b072146106f6578063c6ced32b14610709578063cc6f06a31461071c578063dc988b401461072f578063deff41c11461075a578063e2d36ef51461076d578063e653ec6a14610780578063ec1847b614610793578063ef9cb474146107b2578063f20e56ec146107d1578063f4efa24c146107e4578063ff266d2614610852575b600080fd5b34156101c357600080fd5b6101e9600160a060020a036004351660243560443560ff6064351660843560a435610871565b60405190815260200160405180910390f35b341561020657600080fd5b6102de60048035600160a060020a03169060446024803590810190830135806020601f8201819004810201604051908101604052818152929190602084018383808284378201915050505050509190803590602001908201803590602001908080601f01602080910402602001604051908101604052818152929190602084018383808284378201915050505050509190803590602001908201803590602001908080601f016020809104026020016040519081016040528181529291906020840183838082843750949650610c4995505050505050565b604051901515815260200160405180910390f35b34156102fd57600080fd5b6102de611167565b341561031057600080fd5b61032a600160a060020a0360043581169060243516611274565b6040518087600481111561033a57fe5b60ff168152602081019690965250604080860194909452600160a060020a039092166060850152608084015260a083015260c090910191505180910390f35b341561038457600080fd5b6102de600160a060020a03600435166024356112f0565b34156103a657600080fd5b6103ba600160a060020a036004351661166b565b60405198895260208901979097526040808901969096526060880194909452608087019290925260a086015260c0850152600160a060020a031660e0840152610100830191909152610120909101905180910390f35b341561041b57600080fd5b6104266004356116bf565b604051600160a060020a03909116815260200160405180910390f35b341561044d57600080fd5b6101e9600160a060020a03600435166116e7565b341561046c57600080fd5b6102de600160a060020a0360043581169060243516611705565b341561049157600080fd5b6101e9600160a060020a0360043516611745565b34156104b057600080fd5b6101e9611757565b34156104c357600080fd5b6102de600160a060020a036004351660243561175c565b34156104e557600080fd5b6101e96119b1565b34156104f857600080fd5b6102de600160a060020a03600435166024356119b7565b341561051a57600080fd5b61032a600160a060020a0360043581169060243516611bef565b341561053f57600080fd5b6102de60048035600160a060020a031690604460248035908101908301358060208082020160405190810160405280939291908181526020018383602002808284375094965050509235600160a060020a03169250611c3d915050565b34156105a757600080fd5b6102de600160a060020a0360043516611ca6565b34156105c657600080fd5b6101e9611d86565b34156105d957600080fd5b6102de600160a060020a0360043516611d8c565b34156105f857600080fd5b610600611f29565b60405160208082528190810183818151815260200191508051906020019080838360005b8381101561063c578082015183820152602001610624565b50505050905090810190601f1680156106695780820380516001836020036101000a031916815260200191505b509250505060405180910390f35b341561068257600080fd5b610426600435611fc7565b341561069857600080fd5b6102de611ff3565b34156106ab57600080fd5b610426612014565b34156106be57600080fd5b610426600160a060020a0360043516602435612023565b34156106e057600080fd5b6106f4600160a060020a0360043516612066565b005b341561070157600080fd5b6101e9612129565b341561071457600080fd5b6101e961212f565b341561072757600080fd5b6101e9612136565b341561073a57600080fd5b6102de600160a060020a036004358116906024358116906044351661213c565b341561076557600080fd5b6104266123a1565b341561077857600080fd5b6101e96123b0565b341561078b57600080fd5b6102de6123b6565b341561079e57600080fd5b6101e9600160a060020a036004351661247b565b34156107bd57600080fd5b6106f46004356024356044356064356124cb565b34156107dc57600080fd5b6101e961257f565b34156107ef57600080fd5b610803600160a060020a0360043516612584565b60405197885260208801969096526040808801959095526060870193909352608086019190915260a085015260c0840152600160a060020a0390911660e0830152610100909101905180910390f35b341561085d57600080fd5b6102de600160a060020a03600435166125d6565b60025460009081908190600160a060020a03166332ca55878a60405160e060020a63ffffffff8416028152600160a060020a039091166004820152602401602060405180830381600087803b15156108c857600080fd5b5af115156108d557600080fd5b5050506040518051905015156108ea57600080fd5b600160a060020a0389166000908152600d60205260409020600581015490925042111561091657600080fd5b600189600160a060020a031663e329c4786040518163ffffffff1660e060020a028152600401602060405180830381600087803b151561095557600080fd5b5af1151561096257600080fd5b50505060405180519050600481111561097757fe5b1461098157600080fd5b50600160a060020a038089166000908152600e60209081526040808320339094168352929052208715156109b457600080fd5b8615156109c057600080fd5b6003810154600160a060020a031615610a8f57600188886040517f19457468657265756d205369676e6564204d6573736167653a0a3634000000008152601c810192909252603c820152605c0160405180910390208787876040516000815260200160405260405193845260ff9092166020808501919091526040808501929092526060840192909252608090920191516020810390808403906000865af11515610a6a57600080fd5b5050602060405103516003820154600160a060020a03908116911614610a8f57600080fd5b6001815460ff166004811115610aa157fe5b14610aab57600080fd5b805460ff1916600290811782556001820189905580820188905554600160a060020a0316638c0f8e113360405160e060020a63ffffffff8416028152600160a060020a039091166004820152602401602060405180830381600087803b1515610b1357600080fd5b5af11515610b2057600080fd5b505050604051805160048301555060078201805460018101610b42838261301d565b5060009182526020909120018054600160a060020a03191633600160a060020a03818116929092179092556002546001850154911691638981d077918c919060405160e060020a63ffffffff8616028152600160a060020a0393841660048201529190921660248201526044810191909152606401602060405180830381600087803b1515610bd057600080fd5b5af11515610bdd57600080fd5b505050604051805190501515610bf257600080fd5b33600160a060020a031689600160a060020a03167f1593a9a000265660fd299c9f8c9bbacfeb4d428861542e6c44b68615324225d48a60405190815260200160405180910390a35060010154979650505050505050565b60008054819033600160a060020a03908116911614610c6757600080fd5b600254600160a060020a03166332ca55878760405160e060020a63ffffffff8416028152600160a060020a039091166004820152602401602060405180830381600087803b1515610cb757600080fd5b5af11515610cc457600080fd5b505050604051805190501515610cd957600080fd5b50600160a060020a0385166000908152600d602052604090206005810154421115610d0357600080fd5b42816003015411158015610d1b575060008160040154115b80610d2d575080600601548160040154145b1515610d3857600080fd5b610e1d8682610140604051908101604052908160008201548152602001600182015481526020016002820154600019166000191681526020016003820154815260200160048201548152602001600582015481526020016006820154815260200160078201805480602002602001604051908101604052809291908181526020018280548015610df157602002820191906000526020600020905b8154600160a060020a03168152600190910190602001808311610dd3575b50505091835250506008820154600160a060020a0316602082015260099091015460409091015261280a565b1515610e2857600080fd5b600254600160a060020a031663b6b57ebd878787876040518563ffffffff1660e060020a0281526004018085600160a060020a0316600160a060020a03168152602001806020018060200180602001848103845287818151815260200191508051906020019080838360005b83811015610eac578082015183820152602001610e94565b50505050905090810190601f168015610ed95780820380516001836020036101000a031916815260200191505b50848103835286818151815260200191508051906020019080838360005b83811015610f0f578082015183820152602001610ef7565b50505050905090810190601f168015610f3c5780820380516001836020036101000a031916815260200191505b50848103825285818151815260200191508051906020019080838360005b83811015610f72578082015183820152602001610f5a565b50505050905090810190601f168015610f9f5780820380516001836020036101000a031916815260200191505b50975050505050505050602060405180830381600087803b1515610fc257600080fd5b5af11515610fcf57600080fd5b505050604051805190501515610fe457600080fd5b85600160a060020a03167f4bfecaabd22e1b95e9aa9eb161b19f645b3460e7533d5e0f6349faf8dc0a724486868660405180806020018060200180602001848103845287818151815260200191508051906020019080838360005b8381101561105757808201518382015260200161103f565b50505050905090810190601f1680156110845780820380516001836020036101000a031916815260200191505b50848103835286818151815260200191508051906020019080838360005b838110156110ba5780820151838201526020016110a2565b50505050905090810190601f1680156110e75780820380516001836020036101000a031916815260200191505b50848103825285818151815260200191508051906020019080838360005b8381101561111d578082015183820152602001611105565b50505050905090810190601f16801561114a5780820380516001836020036101000a031916815260200191505b50965050505050505060405180910390a250600195945050505050565b6002546000908190600160a060020a031663b218cf153360405160e060020a63ffffffff8416028152600160a060020a039091166004820152602401602060405180830381600087803b15156111bc57600080fd5b5af115156111c957600080fd5b5050506040518051905015156111de57600080fd5b600b8054600181016111f0838261301d565b60009283526020909220018054600160a060020a03191633600160a060020a03161790559050611221816001612c80565b600160a060020a0333166000818152600c60205260409081902092909255907f67799bb3ec4a3491a0c1c4e6d02ec99927df7ba7fa268c216672c0c5ecc1e8f8905160405180910390a2600191505b5090565b60008060008060008060006112898989611705565b151561129457600080fd5b50505050600160a060020a039485166000908152600e602090815260408083209688168352959052939093208054600182015460028301546003840154600485015460059095015460ff90941699929891975016945091925090565b6000805481908190819033600160a060020a0390811691161461131257600080fd5b600254600160a060020a03166332ca55878760405160e060020a63ffffffff8416028152600160a060020a039091166004820152602401602060405180830381600087803b151561136257600080fd5b5af1151561136f57600080fd5b50505060405180519050151561138457600080fd5b600160a060020a0386166000908152600d6020526040902060058101549093504211156113b057600080fd5b85600160a060020a0316632d4d671f6040518163ffffffff1660e060020a028152600401602060405180830381600087803b15156113ed57600080fd5b5af115156113fa57600080fd5b50505060405180519050151561140f57600080fd5b60006006840181905591505b60078301548210156114db576007830180548390811061143757fe5b6000918252602080832090910154600160a060020a038981168452600e8352604080852091909216808552925290912060010154909150851480156114af57506002600160a060020a038088166000908152600e602090815260408083209386168352929052205460ff1660048111156114ad57fe5b145b156114d05760068301546114ca90600163ffffffff612c9216565b60068401555b81600101915061141b565b6006830154600090116114ed57600080fd5b6002808401869055805460045461161d92429261161192600160a060020a0391821691631f87172691811690634cfddcfb908e1663ecc40f646040518163ffffffff1660e060020a028152600401602060405180830381600087803b151561155457600080fd5b5af1151561156157600080fd5b5050506040518051905060405160e060020a63ffffffff84160281526004810191909152602401602060405180830381600087803b15156115a157600080fd5b5af115156115ae57600080fd5b5050506040518051905060405160e060020a63ffffffff84160281526004810191909152602401602060405180830381600087803b15156115ee57600080fd5b5af115156115fb57600080fd5b505050604051805191905063ffffffff612cac16565b9063ffffffff612c9216565b6003840155600160a060020a0386167fa1b9f527f9799a46d54103401c99dc62f3744afe1d095a1c53620758dc38b2868660405190815260200160405180910390a250600195945050505050565b600d602052600090815260409020805460018201546002830154600384015460048501546005860154600687015460088801546009909801549697959694959394929391929091600160a060020a03169089565b600b8054829081106116cd57fe5b600091825260209091200154600160a060020a0316905081565b600160a060020a03166000908152600d602052604090206007015490565b600080600160a060020a038085166000908152600e602090815260408083209387168352929052205460ff16600481111561173c57fe5b14159392505050565b600c6020526000908152604090205481565b600a81565b60025460009081908190600160a060020a03166332ca55878660405160e060020a63ffffffff8416028152600160a060020a039091166004820152602401602060405180830381600087803b15156117b357600080fd5b5af115156117c057600080fd5b5050506040518051905015156117d557600080fd5b600160a060020a0385166000908152600d60205260409020600581015490925042111561180157600080fd5b50600160a060020a038085166000908152600e6020908152604080832033909416835292905220600285600160a060020a031663e329c4786040518163ffffffff1660e060020a028152600401602060405180830381600087803b151561186757600080fd5b5af1151561187457600080fd5b50505060405180519050600481111561188957fe5b1461189357600080fd5b60038201544290116118a457600080fd5b6002815460ff1660048111156118b657fe5b146118c057600080fd5b60028201546001820154146118d457600080fd5b836040519081526020016040519081900390206001820154146118f657600080fd5b33604051600160a060020a03919091166c010000000000000000000000000281526014016040518091039020841860405190815260200160405190819003902060028201541461194557600080fd5b805460ff191660031781556004820154611960906001612c92565b6004830155600160a060020a033381169086167f4f5df7005a83b6f11e90ead1268eb534656169a5034e8d239c763471294be3d58660405190815260200160405180910390a3506001949350505050565b60095481565b60015460009081908190819033600160a060020a039081169116146119db57600080fd5b600454600160a060020a0316634cfddcfb8660405160e060020a63ffffffff84160281526004810191909152602401602060405180830381600087803b1515611a2357600080fd5b5af11515611a3057600080fd5b5050506040518051600254909450611a919150429061161190600a90600160a060020a0316631f8717268860405160e060020a63ffffffff84160281526004810191909152602401602060405180830381600087803b15156115ee57600080fd5b600160a060020a038088166000908152600d60205260409081902060045493955093509116906338c4090b9087905160e060020a63ffffffff84160281526004810191909152602401602060405180830381600087803b1515611af357600080fd5b5af11515611b0057600080fd5b5050506040518051825550600454600160a060020a03166355d66c3e8660405160e060020a63ffffffff84160281526004810191909152602401602060405180830381600087803b1515611b5357600080fd5b5af11515611b6057600080fd5b5050506040518051600883018054600160a060020a031916600160a060020a0392909216919091179055506006548154611b9991612cd7565b6001820155600581018290556007546009820155600160a060020a0386167f9c081174ce28e85a62530b1102b0df58428b8da5027e81fbb4984aa1dc03310760405160405180910390a250600195945050505050565b600e60209081526000928352604080842090915290825290208054600182015460028301546003840154600485015460059095015460ff9094169492939192600160a060020a039091169186565b60008054819033600160a060020a03908116911614611c5b57600080fd5b5060005b8351811015611c9b57611c8885858381518110611c7857fe5b906020019060200201518561213c565b1515611c9357600080fd5b600101611c5f565b506001949350505050565b6000805433600160a060020a03908116911614611cc257600080fd5b600254600160a060020a031663835436b48360405160e060020a63ffffffff8416028152600160a060020a039091166004820152602401602060405180830381600087803b1515611d1257600080fd5b5af11515611d1f57600080fd5b505050604051805190501515611d3457600080fd5b611d3d82612cec565b1515611d4857600080fd5b81600160a060020a03167fb22288215ec8cbd28148d7ffa053c6e6e23c62b58d0eb71a6387b59fad33a01960405160405180910390a2506001919050565b60075481565b60015460009081908190819033600160a060020a03908116911614611db057600080fd5b600160a060020a0385166000908152600d6020526040902060058101549093504211611ddb57600080fd5b600091505b6007830154821015611ee85760078301805483908110611dfc57fe5b600091825260209091200154600160a060020a031690506001600160a060020a038087166000908152600e602090815260408083209386168352929052205460ff166004811115611e4957fe5b14611edd576002546001840154600160a060020a0390911690636b4f6865908790849060405160e060020a63ffffffff8616028152600160a060020a0393841660048201529190921660248201526044810191909152606401602060405180830381600087803b1515611ebb57600080fd5b5af11515611ec857600080fd5b505050604051805190501515611edd57600080fd5b816001019150611de0565b84600160a060020a03167f8d8d47a5d5034ce9c01a2308543fdaa83d60863e4b735b7d57361987cdc8ed9460405160405180910390a2506001949350505050565b60058054600181600116156101000203166002900480601f016020809104026020016040519081016040528092919081815260200182805460018160011615610100020316600290048015611fbf5780601f10611f9457610100808354040283529160200191611fbf565b820191906000526020600020905b815481529060010190602001808311611fa257829003601f168201915b505050505081565b6000600b82815481101515611fd857fe5b600091825260209091200154600160a060020a031692915050565b60005474010000000000000000000000000000000000000000900460ff1681565b600f54600160a060020a031681565b600160a060020a0382166000908152600d6020526040812060070180548390811061204a57fe5b600091825260209091200154600160a060020a03169392505050565b60005433600160a060020a0390811691161461208157600080fd5b60005474010000000000000000000000000000000000000000900460ff1615156120aa57600080fd5b600160a060020a03811615156120bf57600080fd5b60008054600160a060020a031916600160a060020a0383811691821774ff00000000000000000000000000000000000000001981169093559091167f8be0079c531659141344cd1fd0a4f28419497f9722a3daafe3b4186f6b6457e060405160405180910390a350565b60065481565b600b545b90565b600a5481565b60008054819081908190819033600160a060020a0390811691161461216057600080fd5b600254600160a060020a03166332ca55878960405160e060020a63ffffffff8416028152600160a060020a039091166004820152602401602060405180830381600087803b15156121b057600080fd5b5af115156121bd57600080fd5b5050506040518051905015156121d257600080fd5b600188600160a060020a031663e329c4786040518163ffffffff1660e060020a028152600401602060405180830381600087803b151561221157600080fd5b5af1151561221e57600080fd5b50505060405180519050600481111561223357fe5b1461223d57600080fd5b600160a060020a038089166000818152600e60209081526040808320948c168352938152838220928252600d9052919091206005810154919550935042111561228557600080fd5b600254600160a060020a031663f69f190c8860405160e060020a63ffffffff8416028152600160a060020a0390911660048201526024016040805180830381600087803b15156122d457600080fd5b5af115156122e157600080fd5b50505060405180519060200180519193509091505030600160a060020a039081169083161461230f57600080fd5b6000845460ff16600481111561232157fe5b1461232b57600080fd5b835460ff19166001178455600384018054600160a060020a03888116600160a060020a0319909216919091179091558781169089167f9cade22a92ceb705fefd1c03e9ac4dbbf787cd493ec63a9f2b078cbc859c06298360405190815260200160405180910390a3506001979650505050505050565b600054600160a060020a031681565b60085481565b600254600090600160a060020a0316631708d7253360405160e060020a63ffffffff8416028152600160a060020a039091166004820152602401602060405180830381600087803b151561240957600080fd5b5af1151561241657600080fd5b50505060405180519050151561242b57600080fd5b61243433612cec565b151561243f57600080fd5b33600160a060020a03167fd08d61a9c25ada3385d23554bae10e5d15c9518d4bfd27571c190558f7030f6e60405160405180910390a250600190565b600160a060020a0381166000818152600c6020526040812054600b805492939192839081106124a657fe5b600091825260209091200154600160a060020a0316146124c557600080fd5b92915050565b60005433600160a060020a039081169116146124e657600080fd5b7f52bb55d3097463659f724f9b420d259719787a8563b48eb82368680999bfea07600654856007548660095487600a5488604051808981526020018881526020018781526020018681526020018581526020018481526020018381526020018281526020019850505050505050505060405180910390a1606483111561256b57600080fd5b600693909355600791909155600955600a55565b600281565b600160a060020a039081166000908152600d6020526040902080546001820154600283015460038401546004850154600586015460068701546008909701549598949793969295919490939190911690565b6000805481908190819033600160a060020a039081169116146125f857600080fd5b600254600160a060020a03166332ca55878660405160e060020a63ffffffff8416028152600160a060020a039091166004820152602401602060405180830381600087803b151561264857600080fd5b5af1151561265557600080fd5b50505060405180519050151561266a57600080fd5b600160a060020a0385166000908152600d60205260409020600581015490935042111561269657600080fd5b428360030154111580156126ac57506004830154155b15156126b757600080fd5b84600160a060020a0316631a514d976040518163ffffffff1660e060020a028152600401602060405180830381600087803b15156126f457600080fd5b5af1151561270157600080fd5b50505060405180519050151561271657600080fd5b600091505b60078301548210156127b4576007830180548390811061273757fe5b60009182526020808320909101546002860154600160a060020a038981168552600e8452604080862091909316808652935292206001015490925014156127a957600160a060020a038581166000908152600e60209081526040808320938516835292905220805460ff191660041790555b81600101915061271b565b600060068401819055600284018190556003840155600160a060020a0385167f631055693b4cbe13143279bc507432c42de858b6d04b3ba4e1ff3d2c88a7e52b60405160405180910390a2506001949350505050565b60008060008060008060008061281e613046565b6000808b5193508b60e001519250600099505b82518a101561291a57828a8151811061284657fe5b90602001906020020151600160a060020a03808f166000908152600e6020908152604080832093851683529290522090995091506003825460ff16600481111561288c57fe5b14156128f7576003820154600160a060020a031615156128ad5760016128b0565b60035b60ff1697506128d46128cf898460040154612cac90919063ffffffff16565b612dd0565b60010196506128e9868863ffffffff612c9216565b60058301889055955061290f565b61290c8c60200151859063ffffffff612c9216565b93505b896001019950612831565b6000861161292757600080fd5b61294e6129418d610120015160649063ffffffff612c8016565b859063ffffffff612cd716565b9050600099505b82518a1015612bdc57828a8151811061296a57fe5b9060200190602002015198506003600160a060020a03808f166000908152600e60209081526040808320938e168352929052205460ff1660048111156129ac57fe5b1415612b2e57600160a060020a03808e166000908152600e60209081526040808320938d16835292905220600501546129ed9082908863ffffffff612fe916565b94506129ff848663ffffffff612c8016565b9350600260009054906101000a9004600160a060020a0316600160a060020a0316636b4f68658e8b8f6020015160405160e060020a63ffffffff8616028152600160a060020a0393841660048201529190921660248201526044810191909152606401602060405180830381600087803b1515612a7b57600080fd5b5af11515612a8857600080fd5b505050604051805190501515612a9d57600080fd5b600254600160a060020a0316630c91f2d08e8b88600160405160e060020a63ffffffff8716028152600160a060020a03948516600482015292909316602483015260448201529015156064820152608401602060405180830381600087803b1515612b0757600080fd5b5af11515612b1457600080fd5b505050604051805190501515612b2957600080fd5b612bd1565b600260009054906101000a9004600160a060020a0316600160a060020a0316639fdf96258e8b8f60200151600160405160e060020a63ffffffff8716028152600160a060020a03948516600482015292909316602483015260448201529015156064820152608401602060405180830381600087803b1515612baf57600080fd5b5af11515612bbc57600080fd5b505050604051805190501515612bd157600080fd5b896001019950612955565b600254600160a060020a0316630c91f2d08e6101008f015187600060405160e060020a63ffffffff8716028152600160a060020a03948516600482015292909316602483015260448201529015156064820152608401602060405180830381600087803b1515612c4b57600080fd5b5af11515612c5857600080fd5b505050604051805190501515612c6d57600080fd5b5060019c9b505050505050505050505050565b600082821115612c8c57fe5b50900390565b600082820183811015612ca157fe5b8091505b5092915050565b600080831515612cbf5760009150612ca5565b50828202828482811515612ccf57fe5b0414612ca157fe5b6000612ce583836064612fe9565b9392505050565b6000806000612cfa8461247b565b600b805491935090612d1390600163ffffffff612c8016565b81548110612d1d57fe5b600091825260209091200154600b8054600160a060020a039092169250829184908110612d4657fe5b60009182526020808320919091018054600160a060020a031916600160a060020a039485161790559183168152600c90915260409020829055600b8054612d8e906001612c80565b81548110612d9857fe5b60009182526020909120018054600160a060020a0319169055600b54612dc590600163ffffffff612c8016565b611c9b600b8261301d565b700100000000000000000000000000000000680100000000000000006401000000006201000061010060106004600260001989019081041790810417908104179081041790810417908104179081041790810417600101906000906040517ff8f9cbfae6cc78fbefe7cdc3a1793dfcf4f0e8bbd8cec470b6a28a7a5a3e1efd81527ff5ecf1b3e9debc68e1d9cfabc5997135bfb7a7a3938b7b606b5b4b3f2f1f0ffe60208201527ff6e4ed9ff2d6b458eadcdf97bd91692de2d4da8fd2d0ac50c6ae9a827252361660408201527fc8c0b887b0a8a4489c948c7f847c6125746c645c544c444038302820181008ff60608201527ff7cae577eec2a03cf3bad76fb589591debb2dd67e0aa9834bea6925f6a4a2e0e60808201527fe39ed557db96902cd38ed14fad815115c786af479b7e8324736353433727170760a08201527fc976c13bb96e881cb166a933a55e490d9d56952b8d4e801485467d236242260660c08201527f753a6d1b65325d0c552a4d1345224105391a310b29122104190a11030902010060e082015261010081016040527e818283848586878898a8b8c8d8e8f929395969799a9b9d9e9faaeb6bedeeff7f01000000000000000000000000000000000000000000000000000000000000008082870204818160ff038501510495507f8000000000000000000000000000000000000000000000000000000000000000851161010002860195505050505050919050565b6000612ffe612ff88585612cac565b83613006565b949350505050565b600080828481151561301457fe5b04949350505050565b81548183558181151161304157600083815260209020613041918101908301613058565b505050565b60206040519081016040526000815290565b61213391905b80821115611270576000815560010161305e5600a165627a7a72305820189b51ec37d6dfa85387cccadd3a98392087efb883baefa97e82be8b8026e47c0029a165627a7a7230582050d26e7c028357e688085851d58b17230c50223ae0fb32771fbb20075033df790029",
  "source": "pragma solidity ^0.4.21;\n\nimport './WorkerPool.sol';\nimport \"./OwnableOZ.sol\";\nimport \"./SafeMathOZ.sol\";\n\ncontract WorkerPoolHub is OwnableOZ // is Owned by IexecHub\n{\n\n\tusing SafeMathOZ for uint256;\n\n\t/**\n\t * Members\n\t */\n\t// worker => workerPool\n\tmapping(address => address)                     m_workerAffectation;\n\t// owner => index\n\tmapping(address => uint256)                     m_workerPoolCountByOwner;\n\t// owner => index => workerPool\n\tmapping(address => mapping(uint256 => address)) m_workerPoolByOwnerByIndex;\n\t//  workerPool => owner // stored in the workerPool\n\t/* mapping(address => address)                     m_ownerByWorkerPool; */\n\tmapping(address => bool)                        m_workerPoolRegistered;\n\n\tmapping(uint256 => address)                     m_workerPoolByIndex;\n\tuint256 public                                  m_totalWorkerPoolCount;\n\n\n\n\t/**\n\t * Constructor\n\t */\n\tfunction WorkerPoolHub() public\n\t{\n\t}\n\n\t/**\n\t * Methods\n\t */\n\tfunction isWorkerPoolRegistered(address _workerPool) public view returns (bool)\n\t{\n\t\treturn m_workerPoolRegistered[_workerPool];\n\t}\n\tfunction getWorkerPoolsCount(address _owner) public view returns (uint256)\n\t{\n\t\treturn m_workerPoolCountByOwner[_owner];\n\t}\n\tfunction getWorkerPool(address _owner, uint256 _index) public view returns (address)\n\t{\n\t\treturn m_workerPoolByOwnerByIndex[_owner][_index];\n\t}\n\tfunction getWorkerPoolByIndex(uint256 _index) public view returns (address)\n\t{\n\t\treturn m_workerPoolByIndex[_index];\n\t}\n\tfunction getWorkerAffectation(address _worker) public view returns (address workerPool)\n\t{\n\t\treturn m_workerAffectation[_worker];\n\t}\n\n\tfunction addWorkerPool(address _owner, address _workerPool) internal\n\t{\n\t\tuint id = m_workerPoolCountByOwner[_owner].add(1);\n\t\tm_totalWorkerPoolCount = m_totalWorkerPoolCount.add(1);\n\t\tm_workerPoolByIndex       [m_totalWorkerPoolCount] = _workerPool;\n\t\tm_workerPoolCountByOwner  [_owner]                 = id;\n\t\tm_workerPoolByOwnerByIndex[_owner][id]             = _workerPool;\n\t\tm_workerPoolRegistered    [_workerPool]            = true;\n\t}\n\n\tfunction createWorkerPool(\n\t\tstring _description,\n\t\tuint256 _subscriptionLockStakePolicy,\n\t\tuint256 _subscriptionMinimumStakePolicy,\n\t\tuint256 _subscriptionMinimumScorePolicy,\n\t\taddress _marketplaceAddress)\n\texternal onlyOwner /*owner == IexecHub*/ returns (address createdWorkerPool)\n\t{\n\t\t// tx.origin == owner\n\t\t// msg.sender == IexecHub\n\t\t// At creating ownership is transfered to tx.origin\n\t\taddress newWorkerPool = new WorkerPool(\n\t\t\tmsg.sender, // iexecHubAddress\n\t\t\t_description,\n\t\t\t_subscriptionLockStakePolicy,\n\t\t\t_subscriptionMinimumStakePolicy,\n\t\t\t_subscriptionMinimumScorePolicy,\n\t\t\t_marketplaceAddress\n\t\t);\n\t\taddWorkerPool(tx.origin, newWorkerPool);\n\t\treturn newWorkerPool;\n\t}\n\n\tfunction registerWorkerAffectation(address _workerPool, address _worker) public onlyOwner /*owner == IexecHub*/ returns (bool subscribed)\n\t{\n\t\t// you must have no cuurent affectation on others worker Pool\n\t\trequire(m_workerAffectation[_worker] == address(0));\n\t\tm_workerAffectation[_worker] = _workerPool;\n\t\treturn true;\n\t}\n\n\tfunction unregisterWorkerAffectation(address _workerPool, address _worker) public onlyOwner /*owner == IexecHub*/ returns (bool unsubscribed)\n\t{\n\t\trequire(m_workerAffectation[_worker] == _workerPool);\n\t\tm_workerAffectation[_worker] = address(0);\n\t\treturn true;\n\t}\n}\n",
  "sourcePath": "/Users/fbranci/iexecdev/PoCo/contracts/WorkerPoolHub.sol",
  "compiler": {
    "name": "solc",
    "version": "0.4.21+commit.dfe3193c.Emscripten.clang"
  },
  "schemaVersion": "2.0.0",
  "updatedAt": "2018-05-18T16:31:51.277Z"
}