{
  "contractName": "WorkerPoolHub",
  "abi": [
    {
      "constant": true,
      "inputs": [],
      "name": "m_owner",
      "outputs": [
        {
          "name": "",
          "type": "address"
        }
      ],
      "payable": false,
      "stateMutability": "view",
      "type": "function"
    },
    {
      "constant": false,
      "inputs": [
        {
          "name": "_newOwner",
          "type": "address"
        }
      ],
      "name": "transferOwnership",
      "outputs": [],
      "payable": false,
      "stateMutability": "nonpayable",
      "type": "function"
    },
    {
      "inputs": [],
      "payable": false,
      "stateMutability": "nonpayable",
      "type": "constructor"
    },
    {
      "anonymous": false,
      "inputs": [
        {
          "indexed": true,
          "name": "previousOwner",
          "type": "address"
        },
        {
          "indexed": true,
          "name": "newOwner",
          "type": "address"
        }
      ],
      "name": "OwnershipTransferred",
      "type": "event"
    },
    {
      "constant": true,
      "inputs": [
        {
          "name": "_workerPool",
          "type": "address"
        }
      ],
      "name": "isWorkerPoolRegistered",
      "outputs": [
        {
          "name": "",
          "type": "bool"
        }
      ],
      "payable": false,
      "stateMutability": "view",
      "type": "function"
    },
    {
      "constant": true,
      "inputs": [
        {
          "name": "_owner",
          "type": "address"
        }
      ],
      "name": "getWorkerPoolsCount",
      "outputs": [
        {
          "name": "",
          "type": "uint256"
        }
      ],
      "payable": false,
      "stateMutability": "view",
      "type": "function"
    },
    {
      "constant": true,
      "inputs": [
        {
          "name": "_owner",
          "type": "address"
        },
        {
          "name": "_index",
          "type": "uint256"
        }
      ],
      "name": "getWorkerPool",
      "outputs": [
        {
          "name": "",
          "type": "address"
        }
      ],
      "payable": false,
      "stateMutability": "view",
      "type": "function"
    },
    {
      "constant": true,
      "inputs": [
        {
          "name": "_worker",
          "type": "address"
        }
      ],
      "name": "getWorkerAffectation",
      "outputs": [
        {
          "name": "workerPool",
          "type": "address"
        }
      ],
      "payable": false,
      "stateMutability": "view",
      "type": "function"
    },
    {
      "constant": false,
      "inputs": [
        {
          "name": "_description",
          "type": "string"
        },
        {
          "name": "_subscriptionLockStakePolicy",
          "type": "uint256"
        },
        {
          "name": "_subscriptionMinimumStakePolicy",
          "type": "uint256"
        },
        {
          "name": "_subscriptionMinimumScorePolicy",
          "type": "uint256"
        }
      ],
      "name": "createWorkerPool",
      "outputs": [
        {
          "name": "createdWorkerPool",
          "type": "address"
        }
      ],
      "payable": false,
      "stateMutability": "nonpayable",
      "type": "function"
    },
    {
      "constant": false,
      "inputs": [
        {
          "name": "_workerPool",
          "type": "address"
        },
        {
          "name": "_worker",
          "type": "address"
        }
      ],
      "name": "registerWorkerAffectation",
      "outputs": [
        {
          "name": "subscribed",
          "type": "bool"
        }
      ],
      "payable": false,
      "stateMutability": "nonpayable",
      "type": "function"
    },
    {
      "constant": false,
      "inputs": [
        {
          "name": "_workerPool",
          "type": "address"
        },
        {
          "name": "_worker",
          "type": "address"
        }
      ],
      "name": "unregisterWorkerAffectation",
      "outputs": [
        {
          "name": "unsubscribed",
          "type": "bool"
        }
      ],
      "payable": false,
      "stateMutability": "nonpayable",
      "type": "function"
    }
  ],
  "bytecode": "0x6060604052341561000f57600080fd5b60008054600160a060020a033316600160a060020a03199091161790556134f38061003b6000396000f3006060604052600436106100985763ffffffff7c010000000000000000000000000000000000000000000000000000000060003504166301a08a8b811461009d5780630b00de8d146100db5780631884c5171461011457806366de5a4f1461013957806368c197dd1461016157806369bee8a114610180578063d440c6f3146101b1578063deff41c1146101d0578063f2fde38b146101e3575b600080fd5b34156100a857600080fd5b6100bf600160a060020a0360043516602435610204565b604051600160a060020a03909116815260200160405180910390f35b34156100e657600080fd5b610100600160a060020a036004358116906024351661022c565b604051901515815260200160405180910390f35b341561011f57600080fd5b610100600160a060020a03600435811690602435166102ac565b341561014457600080fd5b6100bf602460048035828101929101359035604435606435610330565b341561016c57600080fd5b610100600160a060020a03600435166103d0565b341561018b57600080fd5b61019f600160a060020a03600435166103ee565b60405190815260200160405180910390f35b34156101bc57600080fd5b6100bf600160a060020a0360043516610409565b34156101db57600080fd5b6100bf610427565b34156101ee57600080fd5b610202600160a060020a0360043516610436565b005b600160a060020a03918216600090815260036020908152604080832093835292905220541690565b6000805433600160a060020a0390811691161461024857600080fd5b600160a060020a0382811660009081526001602052604090205481169084161461027157600080fd5b50600160a060020a03166000908152600160208190526040909120805473ffffffffffffffffffffffffffffffffffffffff19169055919050565b6000805433600160a060020a039081169116146102c857600080fd5b600160a060020a0382811660009081526001602052604090205416156102ed57600080fd5b50600160a060020a039081166000908152600160208190526040909120805473ffffffffffffffffffffffffffffffffffffffff19169390921692909217905590565b60008054819033600160a060020a0390811691161461034e57600080fd5b33878787878761035c61057a565b600160a060020a038716815260408101849052606081018390526080810182905260a06020820181815290820186905260c082018787808284378201915050975050505050505050604051809103906000f08015156103ba57600080fd5b90506103c632826104d1565b9695505050505050565b600160a060020a031660009081526004602052604090205460ff1690565b600160a060020a031660009081526002602052604090205490565b600160a060020a039081166000908152600160205260409020541690565b600054600160a060020a031681565b60005433600160a060020a0390811691161461045157600080fd5b600160a060020a038116151561046657600080fd5b600054600160a060020a0380831691167f8be0079c531659141344cd1fd0a4f28419497f9722a3daafe3b4186f6b6457e060405160405180910390a36000805473ffffffffffffffffffffffffffffffffffffffff1916600160a060020a0392909216919091179055565b600160a060020a0382166000908152600260205260408120546104fb90600163ffffffff61056416565b600160a060020a03938416600090815260026020908152604080832084905560038252808320938352928152828220805473ffffffffffffffffffffffffffffffffffffffff19169590961694851790955592835260049093525020805460ff19166001179055565b60008282018381101561057357fe5b9392505050565b604051612f3d8061058b833901905600606060405234156200001057600080fd5b60405162002f3d38038062002f3d8339810160405280805191906020018051820191906020018051919060200180519190602001805160008054600160a060020a03191633600160a060020a0390811691909117909155909250869150811615156200007b57600080fd5b60018054600160a060020a03928316600160a060020a03199182168117909255600280549091169091179055328116339091161415620000ba57600080fd5b620000d3326401000000006200219b6200012282021704565b6003848051620000e8929160200190620001b2565b50601e60045560016005556006929092556007556008555050600d8054600160a060020a03191633600160a060020a031617905562000257565b60005433600160a060020a039081169116146200013e57600080fd5b600160a060020a03811615156200015457600080fd5b600054600160a060020a0380831691167f8be0079c531659141344cd1fd0a4f28419497f9722a3daafe3b4186f6b6457e060405160405180910390a360008054600160a060020a031916600160a060020a0392909216919091179055565b828054600181600116156101000203166002900490600052602060002090601f016020900481019282601f10620001f557805160ff191683800117855562000225565b8280016001018555821562000225579182015b828111156200022557825182559160200191906001019062000208565b506200023392915062000237565b5090565b6200025491905b808211156200023357600081556001016200023e565b90565b612cd680620002676000396000f3006060604052600436106101a85763ffffffff60e060020a600035041663031ee1c881146101ad57806306021e7e146101f05780630c6e29e3146102e7578063126eac43146102fa57806316ebf77d1461036e5780631f1e7406146103905780632b8fd18a146103fe5780633ec6a4c41461043057806340f036051461044f57806341cb01ad1461047457806345b99d28146104935780635a628525146104a65780636ab6936a146104c85780637bd220bb146104db5780637c60988514610500578063835436b41461056857806387639c6814610587578063898691631461059a5780638d7db2f7146105b9578063900b7b621461064357806390108dc414610659578063b32ca9c514610678578063bb7fb08b1461068b578063c6c5b072146106ad578063c6ced32b146106c0578063cc6f06a3146106d3578063dc988b40146106e6578063deff41c114610711578063e2d36ef514610724578063e653ec6a14610737578063ec1847b61461074a578063ef9cb47414610769578063f20e56ec1461078a578063f2fde38b1461079d578063f4efa24c146107bc578063ff266d26146107db575b600080fd5b34156101b857600080fd5b6101de600160a060020a036004351660243560443560ff6064351660843560a4356107fa565b60405190815260200160405180910390f35b34156101fb57600080fd5b6102d360048035600160a060020a03169060446024803590810190830135806020601f8201819004810201604051908101604052818152929190602084018383808284378201915050505050509190803590602001908201803590602001908080601f01602080910402602001604051908101604052818152929190602084018383808284378201915050505050509190803590602001908201803590602001908080601f016020809104026020016040519081016040528181529291906020840183838082843750949650610b5c95505050505050565b604051901515815260200160405180910390f35b34156102f257600080fd5b6102d3610fff565b341561030557600080fd5b61031f600160a060020a036004358116906024351661110c565b6040518087600481111561032f57fe5b60ff168152602081019690965250604080860194909452600160a060020a039092166060850152608084015260a083015260c090910191505180910390f35b341561037957600080fd5b6102d3600160a060020a0360043516602435611188565b341561039b57600080fd5b6103af600160a060020a0360043516611453565b60405197885260208801969096526040808801959095526060870193909352608086019190915260a085015260c0840152600160a060020a0390911660e0830152610100909101905180910390f35b341561040957600080fd5b61041460043561149f565b604051600160a060020a03909116815260200160405180910390f35b341561043b57600080fd5b6101de600160a060020a03600435166114c7565b341561045a57600080fd5b6102d3600160a060020a03600435811690602435166114e5565b341561047f57600080fd5b6101de600160a060020a0360043516611525565b341561049e57600080fd5b6101de611537565b34156104b157600080fd5b6102d3600160a060020a036004351660243561153c565b34156104d357600080fd5b6101de61171b565b34156104e657600080fd5b61031f600160a060020a0360043581169060243516611721565b341561050b57600080fd5b6102d360048035600160a060020a031690604460248035908101908301358060208082020160405190810160405280939291908181526020018383602002808284375094965050509235600160a060020a0316925061176f915050565b341561057357600080fd5b6102d3600160a060020a03600435166117d8565b341561059257600080fd5b6101de6118b8565b34156105a557600080fd5b6102d3600160a060020a03600435166118be565b34156105c457600080fd5b6105cc611a5b565b60405160208082528190810183818151815260200191508051906020019080838360005b838110156106085780820151838201526020016105f0565b50505050905090810190601f1680156106355780820380516001836020036101000a031916815260200191505b509250505060405180910390f35b341561064e57600080fd5b610414600435611af9565b341561066457600080fd5b6102d3600160a060020a0360043516611b25565b341561068357600080fd5b610414611d59565b341561069657600080fd5b610414600160a060020a0360043516602435611d68565b34156106b857600080fd5b6101de611dab565b34156106cb57600080fd5b6101de611db1565b34156106de57600080fd5b6101de611db8565b34156106f157600080fd5b6102d3600160a060020a0360043581169060243581169060443516611dbe565b341561071c57600080fd5b610414611fb8565b341561072f57600080fd5b6101de611fc7565b341561074257600080fd5b6102d3611fcd565b341561075557600080fd5b6101de600160a060020a0360043516612092565b341561077457600080fd5b6107886004356024356044356064356120e2565b005b341561079557600080fd5b6101de612196565b34156107a857600080fd5b610788600160a060020a036004351661219b565b34156107c757600080fd5b6103af600160a060020a0360043516612229565b34156107e657600080fd5b6102d3600160a060020a036004351661227b565b600160a060020a0386166000908152600b602052604081206005810154889190839042111561082857600080fd5b600183600160a060020a031663e329c4786040518163ffffffff1660e060020a028152600401602060405180830381600087803b151561086757600080fd5b5af1151561087457600080fd5b50505060405180519050600481111561088957fe5b1461089357600080fd5b50600160a060020a03808a166000908152600c60209081526040808320339094168352929052208815156108c657600080fd5b8715156108d257600080fd5b6003810154600160a060020a0316156109a157600189896040517f19457468657265756d205369676e6564204d6573736167653a0a3634000000008152601c810192909252603c820152605c0160405180910390208888886040516000815260200160405260405193845260ff9092166020808501919091526040808501929092526060840192909252608090920191516020810390808403906000865af1151561097c57600080fd5b5050602060405103516003820154600160a060020a039081169116146109a157600080fd5b6001815460ff1660048111156109b357fe5b146109bd57600080fd5b805460ff191660029081178255600182018a905580820189905554600160a060020a0316638c0f8e113360405160e060020a63ffffffff8416028152600160a060020a039091166004820152602401602060405180830381600087803b1515610a2557600080fd5b5af11515610a3257600080fd5b505050604051805160048301555060078201805460018101610a548382612c55565b5060009182526020909120018054600160a060020a03191633600160a060020a03818116929092179092556002546001850154911691638981d077918d919060405160e060020a63ffffffff8616028152600160a060020a0393841660048201529190921660248201526044810191909152606401602060405180830381600087803b1515610ae257600080fd5b5af11515610aef57600080fd5b505050604051805190501515610b0457600080fd5b33600160a060020a03168a600160a060020a03167f1593a9a000265660fd299c9f8c9bbacfeb4d428861542e6c44b68615324225d48b60405190815260200160405180910390a3506001015498975050505050505050565b60008054819033600160a060020a03908116911614610b7a57600080fd5b50600160a060020a0385166000908152600b602052604090206005810154421115610ba457600080fd5b42816003015411158015610bbc575060008160040154115b80610bce575080600601548160040154145b1515610bd957600080fd5b610cb58682610120604051908101604052908160008201548152602001600182015481526020016002820154600019166000191681526020016003820154815260200160048201548152602001600582015481526020016006820154815260200160078201805480602002602001604051908101604052809291908181526020018280548015610c9257602002820191906000526020600020905b8154600160a060020a03168152600190910190602001808311610c74575b505050918352505060089190910154600160a060020a0316602090910152612443565b1515610cc057600080fd5b600254600160a060020a031663b6b57ebd878787876040518563ffffffff1660e060020a0281526004018085600160a060020a0316600160a060020a03168152602001806020018060200180602001848103845287818151815260200191508051906020019080838360005b83811015610d44578082015183820152602001610d2c565b50505050905090810190601f168015610d715780820380516001836020036101000a031916815260200191505b50848103835286818151815260200191508051906020019080838360005b83811015610da7578082015183820152602001610d8f565b50505050905090810190601f168015610dd45780820380516001836020036101000a031916815260200191505b50848103825285818151815260200191508051906020019080838360005b83811015610e0a578082015183820152602001610df2565b50505050905090810190601f168015610e375780820380516001836020036101000a031916815260200191505b50975050505050505050602060405180830381600087803b1515610e5a57600080fd5b5af11515610e6757600080fd5b505050604051805190501515610e7c57600080fd5b85600160a060020a03167f4bfecaabd22e1b95e9aa9eb161b19f645b3460e7533d5e0f6349faf8dc0a724486868660405180806020018060200180602001848103845287818151815260200191508051906020019080838360005b83811015610eef578082015183820152602001610ed7565b50505050905090810190601f168015610f1c5780820380516001836020036101000a031916815260200191505b50848103835286818151815260200191508051906020019080838360005b83811015610f52578082015183820152602001610f3a565b50505050905090810190601f168015610f7f5780820380516001836020036101000a031916815260200191505b50848103825285818151815260200191508051906020019080838360005b83811015610fb5578082015183820152602001610f9d565b50505050905090810190601f168015610fe25780820380516001836020036101000a031916815260200191505b50965050505050505060405180910390a250600195945050505050565b6002546000908190600160a060020a031663b218cf153360405160e060020a63ffffffff8416028152600160a060020a039091166004820152602401602060405180830381600087803b151561105457600080fd5b5af1151561106157600080fd5b50505060405180519050151561107657600080fd5b60098054600181016110888382612c55565b60009283526020909220018054600160a060020a03191633600160a060020a031617905590506110b98160016128b8565b600160a060020a0333166000818152600a60205260409081902092909255907f67799bb3ec4a3491a0c1c4e6d02ec99927df7ba7fa268c216672c0c5ecc1e8f8905160405180910390a2600191505b5090565b600080600080600080600061112189896114e5565b151561112c57600080fd5b50505050600160a060020a039485166000908152600c602090815260408083209688168352959052939093208054600182015460028301546003840154600485015460059095015460ff90941699929891975016945091925090565b600080548190819081908190819033600160a060020a039081169116146111ae57600080fd5b600160a060020a0388166000908152600b6020526040902060058101548996509094504211156111dd57600080fd5b84600160a060020a0316632d4d671f6040518163ffffffff1660e060020a028152600401602060405180830381600087803b151561121a57600080fd5b5af1151561122757600080fd5b50505060405180519050151561123c57600080fd5b60006006850181905592505b6007840154831015611308576007840180548490811061126457fe5b6000918252602080832090910154600160a060020a038b81168452600c8352604080852091909216808552925290912060010154909250871480156112dc57506002600160a060020a03808a166000908152600c602090815260408083209387168352929052205460ff1660048111156112da57fe5b145b156112fd5760068401546112f790600163ffffffff6128ca16565b60068501555b826001019250611248565b60068401546000901161131a57600080fd5b600254600160a060020a039081169063f3052d2690871663143c43ce6040518163ffffffff1660e060020a028152600401602060405180830381600087803b151561136457600080fd5b5af1151561137157600080fd5b5050506040518051905060405160e060020a63ffffffff84160281526004810191909152602401606060405180830381600087803b15156113b157600080fd5b5af115156113be57600080fd5b505050604051805190602001805190602001805160028089018c905590945061140393504292506113f79150849063ffffffff6128e416565b9063ffffffff6128ca16565b6003850155600160a060020a0388167fa1b9f527f9799a46d54103401c99dc62f3744afe1d095a1c53620758dc38b2868860405190815260200160405180910390a2506001979650505050505050565b600b6020526000908152604090208054600182015460028301546003840154600485015460058601546006870154600890970154959694959394929391929091600160a060020a031688565b60098054829081106114ad57fe5b600091825260209091200154600160a060020a0316905081565b600160a060020a03166000908152600b602052604090206007015490565b600080600160a060020a038085166000908152600c602090815260408083209387168352929052205460ff16600481111561151c57fe5b14159392505050565b600a6020526000908152604090205481565b600a81565b600160a060020a0382166000908152600b602052604081206005810154849190839042111561156a57600080fd5b50600160a060020a038086166000908152600c6020908152604080832033909416835292905220600283600160a060020a031663e329c4786040518163ffffffff1660e060020a028152600401602060405180830381600087803b15156115d057600080fd5b5af115156115dd57600080fd5b5050506040518051905060048111156115f257fe5b146115fc57600080fd5b600382015442901161160d57600080fd5b6002815460ff16600481111561161f57fe5b1461162957600080fd5b600282015460018201541461163d57600080fd5b8460405190815260200160405190819003902060018201541461165f57600080fd5b33604051600160a060020a03919091166c01000000000000000000000000028152601401604051809103902085186040519081526020016040519081900390206002820154146116ae57600080fd5b805460ff1916600317815560048201546116c99060016128ca565b6004830155600160a060020a033381169087167f4f5df7005a83b6f11e90ead1268eb534656169a5034e8d239c763471294be3d58760405190815260200160405180910390a350600195945050505050565b60075481565b600c60209081526000928352604080842090915290825290208054600182015460028301546003840154600485015460059095015460ff9094169492939192600160a060020a039091169186565b60008054819033600160a060020a0390811691161461178d57600080fd5b5060005b83518110156117cd576117ba858583815181106117aa57fe5b9060200190602002015185611dbe565b15156117c557600080fd5b600101611791565b506001949350505050565b6000805433600160a060020a039081169116146117f457600080fd5b600254600160a060020a031663835436b48360405160e060020a63ffffffff8416028152600160a060020a039091166004820152602401602060405180830381600087803b151561184457600080fd5b5af1151561185157600080fd5b50505060405180519050151561186657600080fd5b61186f8261290f565b151561187a57600080fd5b81600160a060020a03167fb22288215ec8cbd28148d7ffa053c6e6e23c62b58d0eb71a6387b59fad33a01960405160405180910390a2506001919050565b60055481565b60015460009081908190819033600160a060020a039081169116146118e257600080fd5b600160a060020a0385166000908152600b602052604090206005810154909350421161190d57600080fd5b600091505b6007830154821015611a1a576007830180548390811061192e57fe5b600091825260209091200154600160a060020a031690506001600160a060020a038087166000908152600c602090815260408083209386168352929052205460ff16600481111561197b57fe5b14611a0f576002546001840154600160a060020a0390911690636b4f6865908790849060405160e060020a63ffffffff8616028152600160a060020a0393841660048201529190921660248201526044810191909152606401602060405180830381600087803b15156119ed57600080fd5b5af115156119fa57600080fd5b505050604051805190501515611a0f57600080fd5b816001019150611912565b84600160a060020a03167f8d8d47a5d5034ce9c01a2308543fdaa83d60863e4b735b7d57361987cdc8ed9460405160405180910390a2506001949350505050565b60038054600181600116156101000203166002900480601f016020809104026020016040519081016040528092919081815260200182805460018160011615610100020316600290048015611af15780601f10611ac657610100808354040283529160200191611af1565b820191906000526020600020905b815481529060010190602001808311611ad457829003601f168201915b505050505081565b6000600982815481101515611b0a57fe5b600091825260209091200154600160a060020a031692915050565b60015460009081908190819033600160a060020a03908116911614611b4957600080fd5b600254859350600160a060020a039081169063f3052d2690851663143c43ce6040518163ffffffff1660e060020a028152600401602060405180830381600087803b1515611b9657600080fd5b5af11515611ba357600080fd5b5050506040518051905060405160e060020a63ffffffff84160281526004810191909152602401606060405180830381600087803b1515611be357600080fd5b5af11515611bf057600080fd5b5050506040518051906020018051906020018051600160a060020a03808a166000908152600b602052604090819020929750919550871693506349e587b692509050518163ffffffff1660e060020a028152600401602060405180830381600087803b1515611c5e57600080fd5b5af11515611c6b57600080fd5b5050506040518051825550600160a060020a038316632e2a9ca16040518163ffffffff1660e060020a028152600401602060405180830381600087803b1515611cb357600080fd5b5af11515611cc057600080fd5b5050506040518051600883018054600160a060020a031916600160a060020a0392909216919091179055506004548154611cf9916129f3565b6001820155611d13426113f784600a63ffffffff6128e416565b6005820155600160a060020a0385167f9c081174ce28e85a62530b1102b0df58428b8da5027e81fbb4984aa1dc03310760405160405180910390a2506001949350505050565b600d54600160a060020a031681565b600160a060020a0382166000908152600b60205260408120600701805483908110611d8f57fe5b600091825260209091200154600160a060020a03169392505050565b60045481565b6009545b90565b60085481565b600080548190819081908190819033600160a060020a03908116911614611de457600080fd5b889450600185600160a060020a031663e329c4786040518163ffffffff1660e060020a028152600401602060405180830381600087803b1515611e2657600080fd5b5af11515611e3357600080fd5b505050604051805190506004811115611e4857fe5b14611e5257600080fd5b600160a060020a03808a166000818152600c60209081526040808320948d168352938152838220928252600b90529190912060058101549195509350421115611e9a57600080fd5b600254600160a060020a031663f69f190c8960405160e060020a63ffffffff8416028152600160a060020a0390911660048201526024016040805180830381600087803b1515611ee957600080fd5b5af11515611ef657600080fd5b50505060405180519060200180519193509091505030600160a060020a0390811690831614611f2457600080fd5b6000845460ff166004811115611f3657fe5b14611f4057600080fd5b835460ff19166001178455600384018054600160a060020a03898116600160a060020a031990921691909117909155888116908a167f9cade22a92ceb705fefd1c03e9ac4dbbf787cd493ec63a9f2b078cbc859c0629600060405190815260200160405180910390a350600198975050505050505050565b600054600160a060020a031681565b60065481565b600254600090600160a060020a0316631708d7253360405160e060020a63ffffffff8416028152600160a060020a039091166004820152602401602060405180830381600087803b151561202057600080fd5b5af1151561202d57600080fd5b50505060405180519050151561204257600080fd5b61204b3361290f565b151561205657600080fd5b33600160a060020a03167fd08d61a9c25ada3385d23554bae10e5d15c9518d4bfd27571c190558f7030f6e60405160405180910390a250600190565b600160a060020a0381166000818152600a60205260408120546009805492939192839081106120bd57fe5b600091825260209091200154600160a060020a0316146120dc57600080fd5b92915050565b60005433600160a060020a039081169116146120fd57600080fd5b7f52bb55d3097463659f724f9b420d259719787a8563b48eb82368680999bfea0760045485600554866007548760085488604051808981526020018881526020018781526020018681526020018581526020018481526020018381526020018281526020019850505050505050505060405180910390a1606483111561218257600080fd5b600493909355600591909155600755600855565b600281565b60005433600160a060020a039081169116146121b657600080fd5b600160a060020a03811615156121cb57600080fd5b600054600160a060020a0380831691167f8be0079c531659141344cd1fd0a4f28419497f9722a3daafe3b4186f6b6457e060405160405180910390a360008054600160a060020a031916600160a060020a0392909216919091179055565b600160a060020a039081166000908152600b6020526040902080546001820154600283015460038401546004850154600586015460068701546008909701549598949793969295919490939190911690565b60008054819081908190819033600160a060020a0390811691161461229f57600080fd5b600160a060020a0386166000908152600b6020526040902060058101548795509093504211156122ce57600080fd5b428360030154111580156122e457506004830154155b15156122ef57600080fd5b83600160a060020a0316631a514d976040518163ffffffff1660e060020a028152600401602060405180830381600087803b151561232c57600080fd5b5af1151561233957600080fd5b50505060405180519050151561234e57600080fd5b600091505b60078301548210156123ec576007830180548390811061236f57fe5b60009182526020808320909101546002860154600160a060020a038a81168552600c8452604080862091909316808652935292206001015490925014156123e157600160a060020a038681166000908152600c60209081526040808320938516835292905220805460ff191660041790555b816001019150612353565b600060068401819055600284018190556003840155600160a060020a0386167f631055693b4cbe13143279bc507432c42de858b6d04b3ba4e1ff3d2c88a7e52b60405160405180910390a250600195945050505050565b600080600080600080600080612457612c7e565b6000808b5193508b60e001519250600099505b82518a101561255357828a8151811061247f57fe5b90602001906020020151600160a060020a03808f166000908152600c6020908152604080832093851683529290522090995091506003825460ff1660048111156124c557fe5b1415612530576003820154600160a060020a031615156124e65760016124e9565b60035b60ff16975061250d6125088984600401546128e490919063ffffffff16565b612a08565b6001019650612522868863ffffffff6128ca16565b600583018890559550612548565b6125458c60200151859063ffffffff6128ca16565b93505b89600101995061246a565b6000861161256057600080fd5b61258661257960055460646128b890919063ffffffff16565b859063ffffffff6129f316565b9050600099505b82518a101561281457828a815181106125a257fe5b9060200190602002015198506003600160a060020a03808f166000908152600c60209081526040808320938e168352929052205460ff1660048111156125e457fe5b141561276657600160a060020a03808e166000908152600c60209081526040808320938d16835292905220600501546126259082908863ffffffff612c2116565b9450612637848663ffffffff6128b816565b9350600260009054906101000a9004600160a060020a0316600160a060020a0316636b4f68658e8b8f6020015160405160e060020a63ffffffff8616028152600160a060020a0393841660048201529190921660248201526044810191909152606401602060405180830381600087803b15156126b357600080fd5b5af115156126c057600080fd5b5050506040518051905015156126d557600080fd5b600254600160a060020a0316630c91f2d08e8b88600160405160e060020a63ffffffff8716028152600160a060020a03948516600482015292909316602483015260448201529015156064820152608401602060405180830381600087803b151561273f57600080fd5b5af1151561274c57600080fd5b50505060405180519050151561276157600080fd5b612809565b600260009054906101000a9004600160a060020a0316600160a060020a0316639fdf96258e8b8f60200151600160405160e060020a63ffffffff8716028152600160a060020a03948516600482015292909316602483015260448201529015156064820152608401602060405180830381600087803b15156127e757600080fd5b5af115156127f457600080fd5b50505060405180519050151561280957600080fd5b89600101995061258d565b600254600160a060020a0316630c91f2d08e6101008f015187600060405160e060020a63ffffffff8716028152600160a060020a03948516600482015292909316602483015260448201529015156064820152608401602060405180830381600087803b151561288357600080fd5b5af1151561289057600080fd5b5050506040518051905015156128a557600080fd5b5060019c9b505050505050505050505050565b6000828211156128c457fe5b50900390565b6000828201838110156128d957fe5b8091505b5092915050565b6000808315156128f757600091506128dd565b5082820282848281151561290757fe5b04146128d957fe5b600080600061291d84612092565b600980549193509061293690600163ffffffff6128b816565b8154811061294057fe5b60009182526020909120015460098054600160a060020a03909216925082918490811061296957fe5b60009182526020808320919091018054600160a060020a031916600160a060020a039485161790559183168152600a90915260409020829055600980546129b19060016128b8565b815481106129bb57fe5b60009182526020909120018054600160a060020a03191690556009546129e890600163ffffffff6128b816565b6117cd600982612c55565b6000612a0183836064612c21565b9392505050565b700100000000000000000000000000000000680100000000000000006401000000006201000061010060106004600260001989019081041790810417908104179081041790810417908104179081041790810417600101906000906040517ff8f9cbfae6cc78fbefe7cdc3a1793dfcf4f0e8bbd8cec470b6a28a7a5a3e1efd81527ff5ecf1b3e9debc68e1d9cfabc5997135bfb7a7a3938b7b606b5b4b3f2f1f0ffe60208201527ff6e4ed9ff2d6b458eadcdf97bd91692de2d4da8fd2d0ac50c6ae9a827252361660408201527fc8c0b887b0a8a4489c948c7f847c6125746c645c544c444038302820181008ff60608201527ff7cae577eec2a03cf3bad76fb589591debb2dd67e0aa9834bea6925f6a4a2e0e60808201527fe39ed557db96902cd38ed14fad815115c786af479b7e8324736353433727170760a08201527fc976c13bb96e881cb166a933a55e490d9d56952b8d4e801485467d236242260660c08201527f753a6d1b65325d0c552a4d1345224105391a310b29122104190a11030902010060e082015261010081016040527e818283848586878898a8b8c8d8e8f929395969799a9b9d9e9faaeb6bedeeff7f01000000000000000000000000000000000000000000000000000000000000008082870204818160ff038501510495507f8000000000000000000000000000000000000000000000000000000000000000851161010002860195505050505050919050565b6000612c36612c3085856128e4565b83612c3e565b949350505050565b6000808284811515612c4c57fe5b04949350505050565b815481835581811511612c7957600083815260209020612c79918101908301612c90565b505050565b60206040519081016040526000815290565b611db591905b808211156111085760008155600101612c965600a165627a7a723058202ec71ec21543959d182dd44355766f5e02463c24a2ae3c93c53d1c8a12b07c160029a165627a7a7230582065e0466f302c34bad2c1405b33735584a650f71967036747753034c4500139690029",
  "source": "pragma solidity ^0.4.21;\n\nimport './WorkerPool.sol';\nimport \"./OwnableOZ.sol\";\nimport \"./SafeMathOZ.sol\";\n\ncontract WorkerPoolHub is OwnableOZ // is Owned by IexecHub\n{\n\n\tusing SafeMathOZ for uint256;\n\n\t/**\n\t * Members\n\t */\n\t// worker => workerPool\n\tmapping(address => address)                     m_workerAffectation;\n\t// owner => index\n\tmapping(address => uint256)                     m_workerPoolCountByOwner;\n\t// owner => index => workerPool\n\tmapping(address => mapping(uint256 => address)) m_workerPoolByOwnerByIndex;\n\t//  workerPool => owner // stored in the workerPool\n\t/* mapping(address => address)                     m_ownerByWorkerPool; */\n\tmapping(address => bool)                        m_workerPoolRegistered;\n\n\t/**\n\t * Constructor\n\t */\n\tfunction WorkerPoolHub() public\n\t{\n\t}\n\n\t/**\n\t * Methods\n\t */\n\tfunction isWorkerPoolRegistered(address _workerPool) public view returns (bool)\n\t{\n\t\treturn m_workerPoolRegistered[_workerPool];\n\t}\n\tfunction getWorkerPoolsCount(address _owner) public view returns (uint256)\n\t{\n\t\treturn m_workerPoolCountByOwner[_owner];\n\t}\n\tfunction getWorkerPool(address _owner, uint256 _index) public view returns (address)\n\t{\n\t\treturn m_workerPoolByOwnerByIndex[_owner][_index];\n\t}\n\tfunction getWorkerAffectation(address _worker) public view returns (address workerPool)\n\t{\n\t\treturn m_workerAffectation[_worker];\n\t}\n\n\tfunction addWorkerPool(address _owner, address _workerPool) internal\n\t{\n\t\tuint id = m_workerPoolCountByOwner[_owner].add(1);\n\t\tm_workerPoolCountByOwner  [_owner]      = id;\n\t\tm_workerPoolByOwnerByIndex[_owner][id]  = _workerPool;\n\t\tm_workerPoolRegistered    [_workerPool] = true;\n\t}\n\n\tfunction createWorkerPool(\n\t\tstring _description,\n\t\tuint256 _subscriptionLockStakePolicy,\n\t\tuint256 _subscriptionMinimumStakePolicy,\n\t\tuint256 _subscriptionMinimumScorePolicy)\n\texternal onlyOwner /*owner == IexecHub*/ returns (address createdWorkerPool)\n\t{\n\t\t// tx.origin == owner\n\t\t// msg.sender == IexecHub\n\t\t// At creating ownership is transfered to tx.origin\n\t\taddress newWorkerPool = new WorkerPool(\n\t\t\tmsg.sender, // iexecHubAddress\n\t\t\t_description,\n\t\t\t_subscriptionLockStakePolicy,\n\t\t\t_subscriptionMinimumStakePolicy,\n\t\t\t_subscriptionMinimumScorePolicy\n\t\t);\n\t\taddWorkerPool(tx.origin, newWorkerPool);\n\t\treturn newWorkerPool;\n\t}\n\n\tfunction registerWorkerAffectation(address _workerPool, address _worker) public onlyOwner /*owner == IexecHub*/ returns (bool subscribed)\n\t{\n\t\t// you must have no cuurent affectation on others worker Pool\n\t\trequire(m_workerAffectation[_worker] == address(0));\n\t\tm_workerAffectation[_worker] = _workerPool;\n\t\treturn true;\n\t}\n\n\tfunction unregisterWorkerAffectation(address _workerPool, address _worker) public onlyOwner /*owner == IexecHub*/ returns (bool unsubscribed)\n\t{\n\t\trequire(m_workerAffectation[_worker] == _workerPool);\n\t\tm_workerAffectation[_worker] = address(0);\n\t\treturn true;\n\t}\n}\n",
  "sourcePath": "/home/amxx/Work/iExec/PoCo-dev/contracts/WorkerPoolHub.sol",
  "compiler": {
    "name": "solc",
    "version": "0.4.21+commit.dfe3193c.Emscripten.clang"
  },
  "schemaVersion": "2.0.0",
  "updatedAt": "2018-05-19T17:46:30.167Z"
}