{
  "contractName": "Beacon",
  "abi": [
    {
      "inputs": [],
      "payable": false,
      "stateMutability": "nonpayable",
      "type": "constructor"
    },
    {
      "anonymous": false,
      "inputs": [
        {
          "components": [
            {
              "name": "dapp",
              "type": "address"
            },
            {
              "name": "dappprice",
              "type": "uint256"
            },
            {
              "name": "volume",
              "type": "uint256"
            },
            {
              "name": "datarestrict",
              "type": "address"
            },
            {
              "name": "poolrestrict",
              "type": "address"
            },
            {
              "name": "userrestrict",
              "type": "address"
            },
            {
              "name": "salt",
              "type": "bytes32"
            },
            {
              "components": [
                {
                  "name": "v",
                  "type": "uint8"
                },
                {
                  "name": "r",
                  "type": "bytes32"
                },
                {
                  "name": "s",
                  "type": "bytes32"
                }
              ],
              "name": "sign",
              "type": "tuple"
            }
          ],
          "indexed": false,
          "name": "",
          "type": "tuple"
        }
      ],
      "name": "BroadcastDappOrder",
      "type": "event"
    },
    {
      "anonymous": false,
      "inputs": [
        {
          "components": [
            {
              "name": "data",
              "type": "address"
            },
            {
              "name": "dataprice",
              "type": "uint256"
            },
            {
              "name": "volume",
              "type": "uint256"
            },
            {
              "name": "dapprestrict",
              "type": "address"
            },
            {
              "name": "poolrestrict",
              "type": "address"
            },
            {
              "name": "userrestrict",
              "type": "address"
            },
            {
              "name": "salt",
              "type": "bytes32"
            },
            {
              "components": [
                {
                  "name": "v",
                  "type": "uint8"
                },
                {
                  "name": "r",
                  "type": "bytes32"
                },
                {
                  "name": "s",
                  "type": "bytes32"
                }
              ],
              "name": "sign",
              "type": "tuple"
            }
          ],
          "indexed": false,
          "name": "",
          "type": "tuple"
        }
      ],
      "name": "BroadcastDataOrder",
      "type": "event"
    },
    {
      "anonymous": false,
      "inputs": [
        {
          "components": [
            {
              "name": "pool",
              "type": "address"
            },
            {
              "name": "poolprice",
              "type": "uint256"
            },
            {
              "name": "volume",
              "type": "uint256"
            },
            {
              "name": "category",
              "type": "uint256"
            },
            {
              "name": "trust",
              "type": "uint256"
            },
            {
              "name": "tag",
              "type": "uint256"
            },
            {
              "name": "dapprestrict",
              "type": "address"
            },
            {
              "name": "datarestrict",
              "type": "address"
            },
            {
              "name": "userrestrict",
              "type": "address"
            },
            {
              "name": "salt",
              "type": "bytes32"
            },
            {
              "components": [
                {
                  "name": "v",
                  "type": "uint8"
                },
                {
                  "name": "r",
                  "type": "bytes32"
                },
                {
                  "name": "s",
                  "type": "bytes32"
                }
              ],
              "name": "sign",
              "type": "tuple"
            }
          ],
          "indexed": false,
          "name": "",
          "type": "tuple"
        }
      ],
      "name": "BroadcastPoolOrder",
      "type": "event"
    },
    {
      "anonymous": false,
      "inputs": [
        {
          "components": [
            {
              "name": "dapp",
              "type": "address"
            },
            {
              "name": "dappmaxprice",
              "type": "uint256"
            },
            {
              "name": "data",
              "type": "address"
            },
            {
              "name": "datamaxprice",
              "type": "uint256"
            },
            {
              "name": "pool",
              "type": "address"
            },
            {
              "name": "poolmaxprice",
              "type": "uint256"
            },
            {
              "name": "requester",
              "type": "address"
            },
            {
              "name": "volume",
              "type": "uint256"
            },
            {
              "name": "category",
              "type": "uint256"
            },
            {
              "name": "trust",
              "type": "uint256"
            },
            {
              "name": "tag",
              "type": "uint256"
            },
            {
              "name": "beneficiary",
              "type": "address"
            },
            {
              "name": "callback",
              "type": "address"
            },
            {
              "name": "params",
              "type": "string"
            },
            {
              "name": "salt",
              "type": "bytes32"
            },
            {
              "components": [
                {
                  "name": "v",
                  "type": "uint8"
                },
                {
                  "name": "r",
                  "type": "bytes32"
                },
                {
                  "name": "s",
                  "type": "bytes32"
                }
              ],
              "name": "sign",
              "type": "tuple"
            }
          ],
          "indexed": false,
          "name": "",
          "type": "tuple"
        }
      ],
      "name": "BroadcastUserOrder",
      "type": "event"
    },
    {
      "constant": false,
      "inputs": [
        {
          "components": [
            {
              "name": "dapp",
              "type": "address"
            },
            {
              "name": "dappprice",
              "type": "uint256"
            },
            {
              "name": "volume",
              "type": "uint256"
            },
            {
              "name": "datarestrict",
              "type": "address"
            },
            {
              "name": "poolrestrict",
              "type": "address"
            },
            {
              "name": "userrestrict",
              "type": "address"
            },
            {
              "name": "salt",
              "type": "bytes32"
            },
            {
              "components": [
                {
                  "name": "v",
                  "type": "uint8"
                },
                {
                  "name": "r",
                  "type": "bytes32"
                },
                {
                  "name": "s",
                  "type": "bytes32"
                }
              ],
              "name": "sign",
              "type": "tuple"
            }
          ],
          "name": "_dapporder",
          "type": "tuple"
        }
      ],
      "name": "broadcastDappOrder",
      "outputs": [],
      "payable": false,
      "stateMutability": "nonpayable",
      "type": "function"
    },
    {
      "constant": false,
      "inputs": [
        {
          "components": [
            {
              "name": "data",
              "type": "address"
            },
            {
              "name": "dataprice",
              "type": "uint256"
            },
            {
              "name": "volume",
              "type": "uint256"
            },
            {
              "name": "dapprestrict",
              "type": "address"
            },
            {
              "name": "poolrestrict",
              "type": "address"
            },
            {
              "name": "userrestrict",
              "type": "address"
            },
            {
              "name": "salt",
              "type": "bytes32"
            },
            {
              "components": [
                {
                  "name": "v",
                  "type": "uint8"
                },
                {
                  "name": "r",
                  "type": "bytes32"
                },
                {
                  "name": "s",
                  "type": "bytes32"
                }
              ],
              "name": "sign",
              "type": "tuple"
            }
          ],
          "name": "_dataorder",
          "type": "tuple"
        }
      ],
      "name": "broadcastDataOrder",
      "outputs": [],
      "payable": false,
      "stateMutability": "nonpayable",
      "type": "function"
    },
    {
      "constant": false,
      "inputs": [
        {
          "components": [
            {
              "name": "pool",
              "type": "address"
            },
            {
              "name": "poolprice",
              "type": "uint256"
            },
            {
              "name": "volume",
              "type": "uint256"
            },
            {
              "name": "category",
              "type": "uint256"
            },
            {
              "name": "trust",
              "type": "uint256"
            },
            {
              "name": "tag",
              "type": "uint256"
            },
            {
              "name": "dapprestrict",
              "type": "address"
            },
            {
              "name": "datarestrict",
              "type": "address"
            },
            {
              "name": "userrestrict",
              "type": "address"
            },
            {
              "name": "salt",
              "type": "bytes32"
            },
            {
              "components": [
                {
                  "name": "v",
                  "type": "uint8"
                },
                {
                  "name": "r",
                  "type": "bytes32"
                },
                {
                  "name": "s",
                  "type": "bytes32"
                }
              ],
              "name": "sign",
              "type": "tuple"
            }
          ],
          "name": "_poolorder",
          "type": "tuple"
        }
      ],
      "name": "broadcastPoolOrder",
      "outputs": [],
      "payable": false,
      "stateMutability": "nonpayable",
      "type": "function"
    },
    {
      "constant": false,
      "inputs": [
        {
          "components": [
            {
              "name": "dapp",
              "type": "address"
            },
            {
              "name": "dappmaxprice",
              "type": "uint256"
            },
            {
              "name": "data",
              "type": "address"
            },
            {
              "name": "datamaxprice",
              "type": "uint256"
            },
            {
              "name": "pool",
              "type": "address"
            },
            {
              "name": "poolmaxprice",
              "type": "uint256"
            },
            {
              "name": "requester",
              "type": "address"
            },
            {
              "name": "volume",
              "type": "uint256"
            },
            {
              "name": "category",
              "type": "uint256"
            },
            {
              "name": "trust",
              "type": "uint256"
            },
            {
              "name": "tag",
              "type": "uint256"
            },
            {
              "name": "beneficiary",
              "type": "address"
            },
            {
              "name": "callback",
              "type": "address"
            },
            {
              "name": "params",
              "type": "string"
            },
            {
              "name": "salt",
              "type": "bytes32"
            },
            {
              "components": [
                {
                  "name": "v",
                  "type": "uint8"
                },
                {
                  "name": "r",
                  "type": "bytes32"
                },
                {
                  "name": "s",
                  "type": "bytes32"
                }
              ],
              "name": "sign",
              "type": "tuple"
            }
          ],
          "name": "_userorder",
          "type": "tuple"
        }
      ],
      "name": "broadcastUserOrder",
      "outputs": [],
      "payable": false,
      "stateMutability": "nonpayable",
      "type": "function"
    }
  ],
  "bytecode": "0x608060405234801561001057600080fd5b50610ac8806100206000396000f3006080604052600436106100615763ffffffff7c01000000000000000000000000000000000000000000000000000000006000350416634d807b0881146100665780636cbe84fa1461008857806391ff710d146100a8578063dcf36385146100c8575b600080fd5b34801561007257600080fd5b5061008661008136600461061c565b6100e8565b005b34801561009457600080fd5b506100866100a33660046105fd565b610122565b3480156100b457600080fd5b506100866100c33660046105d6565b610151565b3480156100d457600080fd5b506100866100e33660046105d6565b610180565b7fe53e7acd5bb99fcb5fbe3eee5b0cecafd22cd8704788cadd41d17d86270089028160405161011791906109c6565b60405180910390a150565b7f9a1a3a6bd66728182f4fb091904ecca5ecf358683d3b44702c064d23d4c7ba848160405161011791906109b7565b7fee2121e0f85a0afe055aca627d7604e0025c8977f0d9f57bfb887e5f1807ab2f8160405161011791906109a2565b7f6d0c822b14d93d149b36592d2867e3030636a2ef5efad046d7972dbb223ba13e8160405161011791906109a2565b60006101bb8235610a2a565b9392505050565b60006101bb8235610a43565b6000601f820183136101df57600080fd5b81356101f26101ed826109fe565b6109d7565b9150808252602083016020830185838301111561020e57600080fd5b610219838284610a4c565b50505092915050565b6000610140828403121561023557600080fd5b6102406101006109d7565b9050600061024e84846101af565b825250602061025f848483016101c2565b6020830152506040610273848285016101c2565b6040830152506060610287848285016101af565b606083015250608061029b848285016101af565b60808301525060a06102af848285016101af565b60a08301525060c06102c3848285016101c2565b60c08301525060e06102d78482850161056f565b60e08301525092915050565b60006101a082840312156102f657600080fd5b6103016101606109d7565b9050600061030f84846101af565b8252506020610320848483016101c2565b6020830152506040610334848285016101c2565b6040830152506060610348848285016101c2565b606083015250608061035c848285016101c2565b60808301525060a0610370848285016101c2565b60a08301525060c0610384848285016101af565b60c08301525060e0610398848285016101af565b60e0830152506101006103ad848285016101af565b610100830152506101206103c3848285016101c2565b610120830152506101406103d98482850161056f565b6101408301525092915050565b600061024082840312156103f957600080fd5b6104046102006109d7565b9050600061041284846101af565b8252506020610423848483016101c2565b6020830152506040610437848285016101af565b604083015250606061044b848285016101c2565b606083015250608061045f848285016101af565b60808301525060a0610473848285016101c2565b60a08301525060c0610487848285016101af565b60c08301525060e061049b848285016101c2565b60e0830152506101006104b0848285016101c2565b610100830152506101206104c6848285016101c2565b610120830152506101406104dc848285016101c2565b610140830152506101606104f2848285016101af565b61016083015250610180610508848285016101af565b610180830152506101a082013567ffffffffffffffff81111561052a57600080fd5b610536848285016101ce565b6101a0830152506101c061054c848285016101c2565b6101c0830152506101e06105628482850161056f565b6101e08301525092915050565b60006060828403121561058157600080fd5b61058b60606109d7565b9050600061059984846105ca565b82525060206105aa848483016101c2565b60208301525060406105be848285016101c2565b60408301525092915050565b60006101bb8235610a46565b600061014082840312156105e957600080fd5b60006105f58484610222565b949350505050565b60006101a0828403121561061057600080fd5b60006105f584846102e3565b60006020828403121561062e57600080fd5b813567ffffffffffffffff81111561064557600080fd5b6105f5848285016103e6565b61065a81610a2a565b82525050565b61065a81610a43565b600061067482610a26565b808452610688816020860160208601610a58565b61069181610a84565b9093016020019392505050565b80516101408301906106b08482610651565b5060208201516106c36020850182610660565b5060408201516106d66040850182610660565b5060608201516106e96060850182610651565b5060808201516106fc6080850182610651565b5060a082015161070f60a0850182610651565b5060c082015161072260c0850182610660565b5060e082015161073560e0850182610962565b50505050565b80516101a083019061074d8482610651565b5060208201516107606020850182610660565b5060408201516107736040850182610660565b5060608201516107866060850182610660565b5060808201516107996080850182610660565b5060a08201516107ac60a0850182610660565b5060c08201516107bf60c0850182610651565b5060e08201516107d260e0850182610651565b506101008201516107e7610100850182610651565b506101208201516107fc610120850182610660565b50610140820151610735610140850182610962565b80516000906102408401906108268582610651565b5060208301516108396020860182610660565b50604083015161084c6040860182610651565b50606083015161085f6060860182610660565b5060808301516108726080860182610651565b5060a083015161088560a0860182610660565b5060c083015161089860c0860182610651565b5060e08301516108ab60e0860182610660565b506101008301516108c0610100860182610660565b506101208301516108d5610120860182610660565b506101408301516108ea610140860182610660565b506101608301516108ff610160860182610651565b50610180830151610914610180860182610651565b506101a08301518482036101a086015261092e8282610669565b9150506101c08301516109456101c0860182610660565b506101e083015161095a6101e0860182610962565b509392505050565b805160608301906109738482610999565b5060208201516109866020850182610660565b5060408201516107356040850182610660565b61065a81610a46565b61014081016109b1828461069e565b92915050565b6101a081016109b1828461073b565b602080825281016101bb8184610811565b60405181810167ffffffffffffffff811182821017156109f657600080fd5b604052919050565b600067ffffffffffffffff821115610a1557600080fd5b506020601f91909101601f19160190565b5190565b73ffffffffffffffffffffffffffffffffffffffff1690565b90565b60ff1690565b82818337506000910152565b60005b83811015610a73578181015183820152602001610a5b565b838111156107355750506000910152565b601f01601f1916905600a265627a7a723058202de379346677efa0c8417cb8b35ea3c0698e0a2a678cbb1690ddcb973827d0056c6578706572696d656e74616cf50037",
  "source": "pragma solidity ^0.4.24;\npragma experimental ABIEncoderV2;\n\nimport \"./tools/IexecODBLibOrders.sol\";\n\ncontract Beacon\n{\n\tevent BroadcastDappOrder(IexecODBLibOrders.DappOrder);\n\tevent BroadcastDataOrder(IexecODBLibOrders.DataOrder);\n\tevent BroadcastPoolOrder(IexecODBLibOrders.PoolOrder);\n\tevent BroadcastUserOrder(IexecODBLibOrders.UserOrder);\n\n\tconstructor() public {}\n\n\tfunction broadcastDappOrder(IexecODBLibOrders.DappOrder _dapporder) public { emit BroadcastDappOrder(_dapporder); }\n\tfunction broadcastDataOrder(IexecODBLibOrders.DataOrder _dataorder) public { emit BroadcastDataOrder(_dataorder); }\n\tfunction broadcastPoolOrder(IexecODBLibOrders.PoolOrder _poolorder) public { emit BroadcastPoolOrder(_poolorder); }\n\tfunction broadcastUserOrder(IexecODBLibOrders.UserOrder _userorder) public { emit BroadcastUserOrder(_userorder); }\n}\n",
  "sourcePath": "/home/amxx/Work/iExec/code/PoCo-dev/contracts/Beacon.sol",
  "compiler": {
    "name": "solc",
    "version": "0.4.24+commit.e67f0147.Emscripten.clang"
  },
  "schemaVersion": "2.0.1",
  "updatedAt": "2018-10-10T21:45:53.134Z"
}