{
  "contractName": "Broker",
  "abi": [
    {
      "constant": true,
      "inputs": [
        {
          "name": "",
          "type": "address"
        }
      ],
      "name": "m_balance",
      "outputs": [
        {
          "name": "",
          "type": "uint256"
        }
      ],
      "payable": false,
      "stateMutability": "view",
      "type": "function"
    },
    {
      "constant": true,
      "inputs": [],
      "name": "iexecclerk",
      "outputs": [
        {
          "name": "",
          "type": "address"
        }
      ],
      "payable": false,
      "stateMutability": "view",
      "type": "function"
    },
    {
      "constant": true,
      "inputs": [],
      "name": "m_price",
      "outputs": [
        {
          "name": "",
          "type": "uint256"
        }
      ],
      "payable": false,
      "stateMutability": "view",
      "type": "function"
    },
    {
      "inputs": [
        {
          "name": "_iexecclerk",
          "type": "address"
        }
      ],
      "payable": false,
      "stateMutability": "nonpayable",
      "type": "constructor"
    },
    {
      "constant": false,
      "inputs": [],
      "name": "deposit",
      "outputs": [],
      "payable": true,
      "stateMutability": "payable",
      "type": "function"
    },
    {
      "constant": false,
      "inputs": [
        {
          "name": "_account",
          "type": "address"
        }
      ],
      "name": "depositFrom",
      "outputs": [],
      "payable": true,
      "stateMutability": "payable",
      "type": "function"
    },
    {
      "constant": false,
      "inputs": [
        {
          "name": "_amount",
          "type": "uint256"
        }
      ],
      "name": "withdraw",
      "outputs": [],
      "payable": false,
      "stateMutability": "nonpayable",
      "type": "function"
    },
    {
      "constant": false,
      "inputs": [
        {
          "components": [
            {
              "name": "dapp",
              "type": "address"
            },
            {
              "name": "dappprice",
              "type": "uint256"
            },
            {
              "name": "volume",
              "type": "uint256"
            },
            {
              "name": "datarestrict",
              "type": "address"
            },
            {
              "name": "poolrestrict",
              "type": "address"
            },
            {
              "name": "userrestrict",
              "type": "address"
            },
            {
              "name": "salt",
              "type": "bytes32"
            },
            {
              "components": [
                {
                  "name": "v",
                  "type": "uint8"
                },
                {
                  "name": "r",
                  "type": "bytes32"
                },
                {
                  "name": "s",
                  "type": "bytes32"
                }
              ],
              "name": "sign",
              "type": "tuple"
            }
          ],
          "name": "_dapporder",
          "type": "tuple"
        },
        {
          "components": [
            {
              "name": "data",
              "type": "address"
            },
            {
              "name": "dataprice",
              "type": "uint256"
            },
            {
              "name": "volume",
              "type": "uint256"
            },
            {
              "name": "dapprestrict",
              "type": "address"
            },
            {
              "name": "poolrestrict",
              "type": "address"
            },
            {
              "name": "userrestrict",
              "type": "address"
            },
            {
              "name": "salt",
              "type": "bytes32"
            },
            {
              "components": [
                {
                  "name": "v",
                  "type": "uint8"
                },
                {
                  "name": "r",
                  "type": "bytes32"
                },
                {
                  "name": "s",
                  "type": "bytes32"
                }
              ],
              "name": "sign",
              "type": "tuple"
            }
          ],
          "name": "_dataorder",
          "type": "tuple"
        },
        {
          "components": [
            {
              "name": "pool",
              "type": "address"
            },
            {
              "name": "poolprice",
              "type": "uint256"
            },
            {
              "name": "volume",
              "type": "uint256"
            },
            {
              "name": "category",
              "type": "uint256"
            },
            {
              "name": "trust",
              "type": "uint256"
            },
            {
              "name": "tag",
              "type": "uint256"
            },
            {
              "name": "dapprestrict",
              "type": "address"
            },
            {
              "name": "datarestrict",
              "type": "address"
            },
            {
              "name": "userrestrict",
              "type": "address"
            },
            {
              "name": "salt",
              "type": "bytes32"
            },
            {
              "components": [
                {
                  "name": "v",
                  "type": "uint8"
                },
                {
                  "name": "r",
                  "type": "bytes32"
                },
                {
                  "name": "s",
                  "type": "bytes32"
                }
              ],
              "name": "sign",
              "type": "tuple"
            }
          ],
          "name": "_poolorder",
          "type": "tuple"
        },
        {
          "components": [
            {
              "name": "dapp",
              "type": "address"
            },
            {
              "name": "dappmaxprice",
              "type": "uint256"
            },
            {
              "name": "data",
              "type": "address"
            },
            {
              "name": "datamaxprice",
              "type": "uint256"
            },
            {
              "name": "pool",
              "type": "address"
            },
            {
              "name": "poolmaxprice",
              "type": "uint256"
            },
            {
              "name": "requester",
              "type": "address"
            },
            {
              "name": "volume",
              "type": "uint256"
            },
            {
              "name": "category",
              "type": "uint256"
            },
            {
              "name": "trust",
              "type": "uint256"
            },
            {
              "name": "tag",
              "type": "uint256"
            },
            {
              "name": "beneficiary",
              "type": "address"
            },
            {
              "name": "callback",
              "type": "address"
            },
            {
              "name": "params",
              "type": "string"
            },
            {
              "name": "salt",
              "type": "bytes32"
            },
            {
              "components": [
                {
                  "name": "v",
                  "type": "uint8"
                },
                {
                  "name": "r",
                  "type": "bytes32"
                },
                {
                  "name": "s",
                  "type": "bytes32"
                }
              ],
              "name": "sign",
              "type": "tuple"
            }
          ],
          "name": "_userorder",
          "type": "tuple"
        }
      ],
      "name": "matchOrdersForUser",
      "outputs": [
        {
          "name": "",
          "type": "bytes32"
        }
      ],
      "payable": false,
      "stateMutability": "nonpayable",
      "type": "function"
    },
    {
      "constant": false,
      "inputs": [
        {
          "components": [
            {
              "name": "dapp",
              "type": "address"
            },
            {
              "name": "dappprice",
              "type": "uint256"
            },
            {
              "name": "volume",
              "type": "uint256"
            },
            {
              "name": "datarestrict",
              "type": "address"
            },
            {
              "name": "poolrestrict",
              "type": "address"
            },
            {
              "name": "userrestrict",
              "type": "address"
            },
            {
              "name": "salt",
              "type": "bytes32"
            },
            {
              "components": [
                {
                  "name": "v",
                  "type": "uint8"
                },
                {
                  "name": "r",
                  "type": "bytes32"
                },
                {
                  "name": "s",
                  "type": "bytes32"
                }
              ],
              "name": "sign",
              "type": "tuple"
            }
          ],
          "name": "_dapporder",
          "type": "tuple"
        },
        {
          "components": [
            {
              "name": "data",
              "type": "address"
            },
            {
              "name": "dataprice",
              "type": "uint256"
            },
            {
              "name": "volume",
              "type": "uint256"
            },
            {
              "name": "dapprestrict",
              "type": "address"
            },
            {
              "name": "poolrestrict",
              "type": "address"
            },
            {
              "name": "userrestrict",
              "type": "address"
            },
            {
              "name": "salt",
              "type": "bytes32"
            },
            {
              "components": [
                {
                  "name": "v",
                  "type": "uint8"
                },
                {
                  "name": "r",
                  "type": "bytes32"
                },
                {
                  "name": "s",
                  "type": "bytes32"
                }
              ],
              "name": "sign",
              "type": "tuple"
            }
          ],
          "name": "_dataorder",
          "type": "tuple"
        },
        {
          "components": [
            {
              "name": "pool",
              "type": "address"
            },
            {
              "name": "poolprice",
              "type": "uint256"
            },
            {
              "name": "volume",
              "type": "uint256"
            },
            {
              "name": "category",
              "type": "uint256"
            },
            {
              "name": "trust",
              "type": "uint256"
            },
            {
              "name": "tag",
              "type": "uint256"
            },
            {
              "name": "dapprestrict",
              "type": "address"
            },
            {
              "name": "datarestrict",
              "type": "address"
            },
            {
              "name": "userrestrict",
              "type": "address"
            },
            {
              "name": "salt",
              "type": "bytes32"
            },
            {
              "components": [
                {
                  "name": "v",
                  "type": "uint8"
                },
                {
                  "name": "r",
                  "type": "bytes32"
                },
                {
                  "name": "s",
                  "type": "bytes32"
                }
              ],
              "name": "sign",
              "type": "tuple"
            }
          ],
          "name": "_poolorder",
          "type": "tuple"
        },
        {
          "components": [
            {
              "name": "dapp",
              "type": "address"
            },
            {
              "name": "dappmaxprice",
              "type": "uint256"
            },
            {
              "name": "data",
              "type": "address"
            },
            {
              "name": "datamaxprice",
              "type": "uint256"
            },
            {
              "name": "pool",
              "type": "address"
            },
            {
              "name": "poolmaxprice",
              "type": "uint256"
            },
            {
              "name": "requester",
              "type": "address"
            },
            {
              "name": "volume",
              "type": "uint256"
            },
            {
              "name": "category",
              "type": "uint256"
            },
            {
              "name": "trust",
              "type": "uint256"
            },
            {
              "name": "tag",
              "type": "uint256"
            },
            {
              "name": "beneficiary",
              "type": "address"
            },
            {
              "name": "callback",
              "type": "address"
            },
            {
              "name": "params",
              "type": "string"
            },
            {
              "name": "salt",
              "type": "bytes32"
            },
            {
              "components": [
                {
                  "name": "v",
                  "type": "uint8"
                },
                {
                  "name": "r",
                  "type": "bytes32"
                },
                {
                  "name": "s",
                  "type": "bytes32"
                }
              ],
              "name": "sign",
              "type": "tuple"
            }
          ],
          "name": "_userorder",
          "type": "tuple"
        }
      ],
      "name": "matchOrdersForPool",
      "outputs": [
        {
          "name": "",
          "type": "bytes32"
        }
      ],
      "payable": false,
      "stateMutability": "nonpayable",
      "type": "function"
    }
  ],
  "bytecode": "0x6080604052662386f26fc1000060015534801561001b57600080fd5b50604051602080610f24833981018060405261003a9190810190610072565b60008054600160a060020a031916600160a060020a03929092169190911790556100a4565b600061006b8251610098565b9392505050565b60006020828403121561008457600080fd5b6000610090848461005f565b949350505050565b600160a060020a031690565b610e71806100b36000396000f30060806040526004361061008d5763ffffffff7c010000000000000000000000000000000000000000000000000000000060003504166325fd088981146100925780632e1a7d4d146100c85780638085659d146100ea578063a8d3b3d11461010a578063b01c68461461012a578063b69040ad1461014c578063d0e30db014610161578063d35a904d14610169575b600080fd5b34801561009e57600080fd5b506100b26100ad366004610933565b61017c565b6040516100bf9190610d28565b60405180910390f35b3480156100d457600080fd5b506100e86100e33660046109b0565b6102a7565b005b3480156100f657600080fd5b506100b2610105366004610933565b610309565b34801561011657600080fd5b506100b26101253660046108d1565b6103ce565b34801561013657600080fd5b5061013f6103e0565b6040516100bf9190610d36565b34801561015857600080fd5b506100b26103ef565b6100e86103f5565b6100e86101773660046108d1565b610427565b60c0810151600154600160a060020a0382166000908152600260205260408120549092916101b0919063ffffffff61046c16565b600160a060020a038216600090815260026020526040808220929092556001549151339280156108fc0292909190818181858888f193505050501580156101fb573d6000803e3d6000fd5b506000546040517f2090d240000000000000000000000000000000000000000000000000000000008152600160a060020a0390911690632090d2409061024b908990899089908990600401610d44565b602060405180830381600087803b15801561026557600080fd5b505af1158015610279573d6000803e3d6000fd5b505050506040513d601f19601f8201168201806040525061029d9190810190610915565b9695505050505050565b336000908152600260205260409020546102c7908263ffffffff61046c16565b33600081815260026020526040808220939093559151909183156108fc02918491818181858888f19350505050158015610305573d6000803e3d6000fd5b5050565b6000808360000151600160a060020a031663deff41c16040518163ffffffff167c0100000000000000000000000000000000000000000000000000000000028152600401602060405180830381600087803b15801561036757600080fd5b505af115801561037b573d6000803e3d6000fd5b505050506040513d601f19601f8201168201806040525061039f91908101906108f7565b600154600160a060020a0382166000908152600260205260409020549192506101b0919063ffffffff61046c16565b60026020526000908152604090205481565b600054600160a060020a031681565b60015481565b33600090815260026020526040902054610415903463ffffffff61048316565b33600090815260026020526040902055565b600160a060020a038116600090815260026020526040902054610450903463ffffffff61048316565b600160a060020a03909116600090815260026020526040902055565b60008282111561047857fe5b508082035b92915050565b60008282018381101561049257fe5b9392505050565b60006104928235610dd5565b60006104928251610dd5565b60006104928235610de1565b60006104928251610de1565b6000601f820183136104da57600080fd5b81356104ed6104e882610da9565b610d82565b9150808252602083016020830185838301111561050957600080fd5b610514838284610df5565b50505092915050565b6000610140828403121561053057600080fd5b61053b610100610d82565b905060006105498484610499565b825250602061055a848483016104b1565b602083015250604061056e848285016104b1565b604083015250606061058284828501610499565b606083015250608061059684828501610499565b60808301525060a06105aa84828501610499565b60a08301525060c06105be848285016104b1565b60c08301525060e06105d28482850161086a565b60e08301525092915050565b60006101a082840312156105f157600080fd5b6105fc610160610d82565b9050600061060a8484610499565b825250602061061b848483016104b1565b602083015250604061062f848285016104b1565b6040830152506060610643848285016104b1565b6060830152506080610657848285016104b1565b60808301525060a061066b848285016104b1565b60a08301525060c061067f84828501610499565b60c08301525060e061069384828501610499565b60e0830152506101006106a884828501610499565b610100830152506101206106be848285016104b1565b610120830152506101406106d48482850161086a565b6101408301525092915050565b600061024082840312156106f457600080fd5b6106ff610200610d82565b9050600061070d8484610499565b825250602061071e848483016104b1565b602083015250604061073284828501610499565b6040830152506060610746848285016104b1565b606083015250608061075a84828501610499565b60808301525060a061076e848285016104b1565b60a08301525060c061078284828501610499565b60c08301525060e0610796848285016104b1565b60e0830152506101006107ab848285016104b1565b610100830152506101206107c1848285016104b1565b610120830152506101406107d7848285016104b1565b610140830152506101606107ed84828501610499565b6101608301525061018061080384828501610499565b610180830152506101a082013567ffffffffffffffff81111561082557600080fd5b610831848285016104c9565b6101a0830152506101c0610847848285016104b1565b6101c0830152506101e061085d8482850161086a565b6101e08301525092915050565b60006060828403121561087c57600080fd5b6108866060610d82565b9050600061089484846108c5565b82525060206108a5848483016104b1565b60208301525060406108b9848285016104b1565b60408301525092915050565b60006104928235610de4565b6000602082840312156108e357600080fd5b60006108ef8484610499565b949350505050565b60006020828403121561090957600080fd5b60006108ef84846104a5565b60006020828403121561092757600080fd5b60006108ef84846104bd565b600080600080610440858703121561094a57600080fd5b6000610956878761051d565b9450506101406109688782880161051d565b93505061028061097a878288016105de565b92505061042085013567ffffffffffffffff81111561099857600080fd5b6109a4878288016106e1565b91505092959194509250565b6000602082840312156109c257600080fd5b60006108ef84846104b1565b6109d781610dd5565b82525050565b6109d781610de1565b6109d781610dea565b60006109fa82610dd1565b808452610a0e816020860160208601610e01565b610a1781610e2d565b9093016020019392505050565b8051610140830190610a3684826109ce565b506020820151610a4960208501826109dd565b506040820151610a5c60408501826109dd565b506060820151610a6f60608501826109ce565b506080820151610a8260808501826109ce565b5060a0820151610a9560a08501826109ce565b5060c0820151610aa860c08501826109dd565b5060e0820151610abb60e0850182610ce8565b50505050565b80516101a0830190610ad384826109ce565b506020820151610ae660208501826109dd565b506040820151610af960408501826109dd565b506060820151610b0c60608501826109dd565b506080820151610b1f60808501826109dd565b5060a0820151610b3260a08501826109dd565b5060c0820151610b4560c08501826109ce565b5060e0820151610b5860e08501826109ce565b50610100820151610b6d6101008501826109ce565b50610120820151610b826101208501826109dd565b50610140820151610abb610140850182610ce8565b8051600090610240840190610bac85826109ce565b506020830151610bbf60208601826109dd565b506040830151610bd260408601826109ce565b506060830151610be560608601826109dd565b506080830151610bf860808601826109ce565b5060a0830151610c0b60a08601826109dd565b5060c0830151610c1e60c08601826109ce565b5060e0830151610c3160e08601826109dd565b50610100830151610c466101008601826109dd565b50610120830151610c5b6101208601826109dd565b50610140830151610c706101408601826109dd565b50610160830151610c856101608601826109ce565b50610180830151610c9a6101808601826109ce565b506101a08301518482036101a0860152610cb482826109ef565b9150506101c0830151610ccb6101c08601826109dd565b506101e0830151610ce06101e0860182610ce8565b509392505050565b80516060830190610cf98482610d1f565b506020820151610d0c60208501826109dd565b506040820151610abb60408501826109dd565b6109d781610de4565b6020810161047d82846109dd565b6020810161047d82846109e6565b6104408101610d538287610a24565b610d61610140830186610a24565b610d6f610280830185610ac1565b81810361042083015261029d8184610b97565b60405181810167ffffffffffffffff81118282101715610da157600080fd5b604052919050565b600067ffffffffffffffff821115610dc057600080fd5b506020601f91909101601f19160190565b5190565b600160a060020a031690565b90565b60ff1690565b600061047d82610dd5565b82818337506000910152565b60005b83811015610e1c578181015183820152602001610e04565b83811115610abb5750506000910152565b601f01601f1916905600a265627a7a7230582085c7dffa2ed3fbb04d6a71862f29acd64a9c2bcaf2c15e8d75214398d954d25c6c6578706572696d656e74616cf50037",
  "source": "pragma solidity ^0.4.24;\npragma experimental ABIEncoderV2;\n\nimport \"./tools/IexecODBLibOrders.sol\";\nimport \"./tools/SafeMathOZ.sol\";\n\nimport \"./IexecClerk.sol\";\n\ncontract Broker\n{\n\tusing SafeMathOZ for uint256;\n\n\tIexecClerk                  public iexecclerk;\n\tuint256                     public m_price = 0.01 ether;\n\tmapping(address => uint256) public m_balance;\n\n\tconstructor(address _iexecclerk)\n\tpublic\n\t{\n\t\tiexecclerk = IexecClerk(_iexecclerk);\n\t}\n\n\tfunction deposit()\n\tpublic payable\n\t{\n\t\tm_balance[msg.sender] = m_balance[msg.sender].add(msg.value);\n\t}\n\n\tfunction depositFrom(address _account)\n\tpublic payable\n\t{\n\t\tm_balance[_account] = m_balance[_account].add(msg.value);\n\t}\n\n\tfunction withdraw(uint256 _amount)\n\tpublic\n\t{\n\t\tm_balance[msg.sender] = m_balance[msg.sender].sub(_amount);\n\t\tmsg.sender.transfer(_amount);\n\t}\n\n\tfunction matchOrdersForUser(\n\t\tIexecODBLibOrders.DappOrder _dapporder,\n\t\tIexecODBLibOrders.DataOrder _dataorder,\n\t\tIexecODBLibOrders.PoolOrder _poolorder,\n\t\tIexecODBLibOrders.UserOrder _userorder)\n\tpublic /* onlyOwner */ returns (bytes32)\n\t{\n\t\taddress account = _userorder.requester;\n\t\tm_balance[account] = m_balance[account].sub(m_price);\n\t\tmsg.sender.transfer(m_price);\n\n\t\treturn iexecclerk.matchOrders(\n\t\t\t_dapporder,\n\t\t\t_dataorder,\n\t\t\t_poolorder,\n\t\t\t_userorder);\n\t}\n\n\tfunction matchOrdersForPool(\n\t\tIexecODBLibOrders.DappOrder _dapporder,\n\t\tIexecODBLibOrders.DataOrder _dataorder,\n\t\tIexecODBLibOrders.PoolOrder _poolorder,\n\t\tIexecODBLibOrders.UserOrder _userorder)\n\tpublic /* onlyOwner */ returns (bytes32)\n\t{\n\t\taddress account = Pool(_poolorder.pool).m_owner();\n\t\tm_balance[account] = m_balance[account].sub(m_price);\n\t\tmsg.sender.transfer(m_price);\n\n\t\treturn iexecclerk.matchOrders(\n\t\t\t_dapporder,\n\t\t\t_dataorder,\n\t\t\t_poolorder,\n\t\t\t_userorder);\n\t}\n\n}\n",
  "sourcePath": "/home/amxx/Work/iExec/code/PoCo-dev/contracts/Broker.sol",
  "compiler": {
    "name": "solc",
    "version": "0.4.24+commit.e67f0147.Emscripten.clang"
  },
  "schemaVersion": "2.0.1",
  "updatedAt": "2018-10-10T21:45:53.138Z"
}