{
  "contractName": "CategoryManager",
  "abi": [
    {
      "constant": true,
      "inputs": [],
      "name": "m_owner",
      "outputs": [
        {
          "name": "",
          "type": "address"
        }
      ],
      "payable": false,
      "stateMutability": "view",
      "type": "function"
    },
    {
      "constant": true,
      "inputs": [
        {
          "name": "",
          "type": "uint256"
        }
      ],
      "name": "m_categories",
      "outputs": [
        {
          "name": "name",
          "type": "string"
        },
        {
          "name": "description",
          "type": "string"
        },
        {
          "name": "workClockTimeRef",
          "type": "uint256"
        }
      ],
      "payable": false,
      "stateMutability": "view",
      "type": "function"
    },
    {
      "constant": false,
      "inputs": [
        {
          "name": "_newOwner",
          "type": "address"
        }
      ],
      "name": "transferOwnership",
      "outputs": [],
      "payable": false,
      "stateMutability": "nonpayable",
      "type": "function"
    },
    {
      "inputs": [],
      "payable": false,
      "stateMutability": "nonpayable",
      "type": "constructor"
    },
    {
      "anonymous": false,
      "inputs": [
        {
          "indexed": false,
          "name": "catid",
          "type": "uint256"
        },
        {
          "indexed": false,
          "name": "name",
          "type": "string"
        },
        {
          "indexed": false,
          "name": "description",
          "type": "string"
        },
        {
          "indexed": false,
          "name": "workClockTimeRef",
          "type": "uint256"
        }
      ],
      "name": "CreateCategory",
      "type": "event"
    },
    {
      "anonymous": false,
      "inputs": [
        {
          "indexed": true,
          "name": "previousOwner",
          "type": "address"
        },
        {
          "indexed": true,
          "name": "newOwner",
          "type": "address"
        }
      ],
      "name": "OwnershipTransferred",
      "type": "event"
    },
    {
      "constant": true,
      "inputs": [
        {
          "name": "_catid",
          "type": "uint256"
        }
      ],
      "name": "viewCategory",
      "outputs": [
        {
          "components": [
            {
              "name": "name",
              "type": "string"
            },
            {
              "name": "description",
              "type": "string"
            },
            {
              "name": "workClockTimeRef",
              "type": "uint256"
            }
          ],
          "name": "",
          "type": "tuple"
        }
      ],
      "payable": false,
      "stateMutability": "view",
      "type": "function"
    },
    {
      "constant": true,
      "inputs": [],
      "name": "countCategory",
      "outputs": [
        {
          "name": "",
          "type": "uint256"
        }
      ],
      "payable": false,
      "stateMutability": "view",
      "type": "function"
    },
    {
      "constant": false,
      "inputs": [
        {
          "name": "name",
          "type": "string"
        },
        {
          "name": "description",
          "type": "string"
        },
        {
          "name": "workClockTimeRef",
          "type": "uint256"
        }
      ],
      "name": "createCategory",
      "outputs": [
        {
          "name": "",
          "type": "uint256"
        }
      ],
      "payable": false,
      "stateMutability": "nonpayable",
      "type": "function"
    }
  ],
  "bytecode": "0x608060405234801561001057600080fd5b5060008054600160a060020a031916331790556109e3806100326000396000f3006080604052600436106100775763ffffffff7c0100000000000000000000000000000000000000000000000000000000600035041663298503d9811461007c5780634f5f44ec146100b2578063c140996f146100df578063deff41c1146100f4578063eeeb2ba014610116578063f2fde38b14610145575b600080fd5b34801561008857600080fd5b5061009c61009736600461071b565b610167565b6040516100a991906108aa565b60405180910390f35b3480156100be57600080fd5b506100d26100cd366004610797565b610254565b6040516100a99190610899565b3480156100eb57600080fd5b5061009c6103c9565b34801561010057600080fd5b506101096103d0565b6040516100a99190610851565b34801561012257600080fd5b50610136610131366004610797565b6103df565b6040516100a993929190610865565b34801561015157600080fd5b506101656101603660046106f5565b610534565b005b600080548190600160a060020a0316331461018157600080fd5b6040805160608101825286815260208082018790529181018590526001805480820180835560009290925282518051929460039092027fb10e2d527612073b26eecdfd717e6a320cf44b4afac2b0732d9fcbe2b7fa0cf601926101e792849201906105c8565b50602082810151805161020092600185019201906105c8565b5060408201518160020155505090507f62bf08360c9d561749c54eaf4f8bf8cb6c8b6f4f40607bcec39a8172e714d25c8186868660405161024494939291906108b8565b60405180910390a1949350505050565b61025c610646565b600180548390811061026a57fe5b600091825260209182902060408051600393909302909101805460026001821615610100026000190190911604601f810185900490940283016080908101909252606083018481529293909284929091849184018282801561030d5780601f106102e25761010080835404028352916020019161030d565b820191906000526020600020905b8154815290600101906020018083116102f057829003601f168201915b50505050508152602001600182018054600181600116156101000203166002900480601f0160208091040260200160405190810160405280929190818152602001828054600181600116156101000203166002900480156103af5780601f10610384576101008083540402835291602001916103af565b820191906000526020600020905b81548152906001019060200180831161039257829003601f168201915b505050505081526020016002820154815250509050919050565b6001545b90565b600054600160a060020a031681565b60018054829081106103ed57fe5b60009182526020918290206003919091020180546040805160026001841615610100026000190190931692909204601f8101859004850283018501909152808252919350918391908301828280156104865780601f1061045b57610100808354040283529160200191610486565b820191906000526020600020905b81548152906001019060200180831161046957829003601f168201915b505050505090806001018054600181600116156101000203166002900480601f0160208091040260200160405190810160405280929190818152602001828054600181600116156101000203166002900480156105245780601f106104f957610100808354040283529160200191610524565b820191906000526020600020905b81548152906001019060200180831161050757829003601f168201915b5050505050908060020154905083565b600054600160a060020a0316331461054b57600080fd5b600160a060020a038116151561056057600080fd5b60008054604051600160a060020a03808516939216917f8be0079c531659141344cd1fd0a4f28419497f9722a3daafe3b4186f6b6457e091a36000805473ffffffffffffffffffffffffffffffffffffffff1916600160a060020a0392909216919091179055565b828054600181600116156101000203166002900490600052602060002090601f016020900481019282601f1061060957805160ff1916838001178555610636565b82800160010185558215610636579182015b8281111561063657825182559160200191906001019061061b565b50610642929150610668565b5090565b6060604051908101604052806060815260200160608152602001600081525090565b6103cd91905b80821115610642576000815560010161066e565b600061068e8235610957565b9392505050565b6000601f820183136106a657600080fd5b81356106b96106b48261092b565b610904565b915080825260208301602083018583830111156106d557600080fd5b6106e0838284610963565b50505092915050565b600061068e82356103cd565b60006020828403121561070757600080fd5b60006107138484610682565b949350505050565b60008060006060848603121561073057600080fd5b833567ffffffffffffffff81111561074757600080fd5b61075386828701610695565b935050602084013567ffffffffffffffff81111561077057600080fd5b61077c86828701610695565b925050604061078d868287016106e9565b9150509250925092565b6000602082840312156107a957600080fd5b600061071384846106e9565b6107be81610957565b82525050565b60006107cf82610953565b8084526107e381602086016020860161096f565b6107ec8161099f565b9093016020019392505050565b805160608084526000919084019061081182826107c4565b9150506020830151848203602086015261082b82826107c4565b91505060408301516108406040860182610848565b509392505050565b6107be816103cd565b6020810161085f82846107b5565b92915050565b6060808252810161087681866107c4565b9050818103602083015261088a81856107c4565b90506107136040830184610848565b6020808252810161068e81846107f9565b6020810161085f8284610848565b608081016108c68287610848565b81810360208301526108d881866107c4565b905081810360408301526108ec81856107c4565b90506108fb6060830184610848565b95945050505050565b60405181810167ffffffffffffffff8111828210171561092357600080fd5b604052919050565b600067ffffffffffffffff82111561094257600080fd5b506020601f91909101601f19160190565b5190565b600160a060020a031690565b82818337506000910152565b60005b8381101561098a578181015183820152602001610972565b83811115610999576000848401525b50505050565b601f01601f1916905600a265627a7a723058207192b95e0090b6dfda2745102d8dd5a303df70ccc673b379f84860e558be57c66c6578706572696d656e74616cf50037",
  "source": "pragma solidity ^0.4.24;\npragma experimental ABIEncoderV2;\n\nimport \"./tools/IexecODBLibCore.sol\";\nimport \"./tools/Ownable.sol\";\n\ncontract CategoryManager is OwnableMutable\n{\n\t/**\n\t * Content\n\t */\n\tIexecODBLibCore.Category[] public m_categories;\n\n\t/**\n\t * Event\n\t */\n\tevent CreateCategory(\n\t\tuint256 catid,\n\t\tstring  name,\n\t\tstring  description,\n\t\tuint256 workClockTimeRef);\n\n\t/**\n\t * Constructor\n\t */\n\tconstructor()\n\tpublic\n\t{\n\t}\n\n\t/**\n\t * Accessors\n\t */\n\tfunction viewCategory(uint256 _catid)\n\tpublic view returns (IexecODBLibCore.Category)\n\t{\n\t\treturn m_categories[_catid];\n\t}\n\n\tfunction countCategory()\n\tpublic view returns (uint256)\n\t{\n\t\treturn m_categories.length;\n\t}\n\n\t/**\n\t * Methods\n\t */\n\tfunction createCategory(\n\t\tstring  name,\n\t\tstring  description,\n\t\tuint256 workClockTimeRef)\n\tpublic onlyOwner returns (uint256)\n\t{\n\t\tuint256 catid = m_categories.push(IexecODBLibCore.Category(\n\t\t\tname,\n\t\t\tdescription,\n\t\t\tworkClockTimeRef\n\t\t));\n\t\temit CreateCategory(\n\t\t\tcatid,\n\t\t\tname,\n\t\t\tdescription,\n\t\t\tworkClockTimeRef\n\t\t);\n\t\treturn catid;\n\t}\n\t/**\n\t * TODO: move to struct based initialization ?\n\t *\n\tfunction createCategory(IexecODBLib.Category _category)\n\tpublic onlyOwner returns (uint256)\n\t{\n\t\tuint256 catid = m_categories.push(_category);\n\t\temit CreateCategory(\n\t\t\tcatid,\n\t\t\t_category.name,\n\t\t\t_category.description,\n\t\t\t_category.workClockTimeRef\n\t\t);\n\t\treturn catid;\n\t}\n\t*/\n\n}\n",
  "sourcePath": "/home/amxx/Work/iExec/code/PoCo-dev/contracts/CategoryManager.sol",
  "compiler": {
    "name": "solc",
    "version": "0.4.24+commit.e67f0147.Emscripten.clang"
  },
  "schemaVersion": "2.0.1",
  "updatedAt": "2018-10-10T21:45:43.778Z"
}