{
  "contractName": "DappRegistry",
  "abi": [
    {
      "constant": true,
      "inputs": [
        {
          "name": "",
          "type": "address"
        },
        {
          "name": "",
          "type": "uint256"
        }
      ],
      "name": "m_byOwnerByIndex",
      "outputs": [
        {
          "name": "",
          "type": "address"
        }
      ],
      "payable": false,
      "stateMutability": "view",
      "type": "function"
    },
    {
      "constant": true,
      "inputs": [
        {
          "name": "",
          "type": "address"
        }
      ],
      "name": "m_countByOwner",
      "outputs": [
        {
          "name": "",
          "type": "uint256"
        }
      ],
      "payable": false,
      "stateMutability": "view",
      "type": "function"
    },
    {
      "constant": true,
      "inputs": [
        {
          "name": "_owner",
          "type": "address"
        },
        {
          "name": "_index",
          "type": "uint256"
        }
      ],
      "name": "viewEntry",
      "outputs": [
        {
          "name": "",
          "type": "address"
        }
      ],
      "payable": false,
      "stateMutability": "view",
      "type": "function"
    },
    {
      "constant": true,
      "inputs": [
        {
          "name": "_owner",
          "type": "address"
        }
      ],
      "name": "viewCount",
      "outputs": [
        {
          "name": "",
          "type": "uint256"
        }
      ],
      "payable": false,
      "stateMutability": "view",
      "type": "function"
    },
    {
      "constant": true,
      "inputs": [
        {
          "name": "_entry",
          "type": "address"
        }
      ],
      "name": "isRegistered",
      "outputs": [
        {
          "name": "",
          "type": "bool"
        }
      ],
      "payable": false,
      "stateMutability": "view",
      "type": "function"
    },
    {
      "constant": true,
      "inputs": [
        {
          "name": "",
          "type": "address"
        }
      ],
      "name": "m_registered",
      "outputs": [
        {
          "name": "",
          "type": "bool"
        }
      ],
      "payable": false,
      "stateMutability": "view",
      "type": "function"
    },
    {
      "inputs": [],
      "payable": false,
      "stateMutability": "nonpayable",
      "type": "constructor"
    },
    {
      "anonymous": false,
      "inputs": [
        {
          "indexed": true,
          "name": "dappOwner",
          "type": "address"
        },
        {
          "indexed": false,
          "name": "dapp",
          "type": "address"
        },
        {
          "indexed": false,
          "name": "dappName",
          "type": "string"
        },
        {
          "indexed": false,
          "name": "dappParams",
          "type": "string"
        },
        {
          "indexed": false,
          "name": "dappHash",
          "type": "bytes32"
        }
      ],
      "name": "CreateDapp",
      "type": "event"
    },
    {
      "constant": false,
      "inputs": [
        {
          "name": "_dappOwner",
          "type": "address"
        },
        {
          "name": "_dappName",
          "type": "string"
        },
        {
          "name": "_dappParams",
          "type": "string"
        },
        {
          "name": "_dappHash",
          "type": "bytes32"
        }
      ],
      "name": "createDapp",
      "outputs": [
        {
          "name": "",
          "type": "address"
        }
      ],
      "payable": false,
      "stateMutability": "nonpayable",
      "type": "function"
    }
  ],
  "bytecode": "0x608060405234801561001057600080fd5b50610d3f806100206000396000f3006080604052600436106200008a5763ffffffff7c0100000000000000000000000000000000000000000000000000000000600035041663045af4e381146200008f578063196de63014620000cc57806340302a0e146200010057806365a2c1041462000134578063c0a8cae21462000159578063c3c5a547146200017e578063cf4ba23f14620001b2575b600080fd5b3480156200009c57600080fd5b50620000b4620000ae36600462000534565b620001d7565b604051620000c39190620005e0565b60405180910390f35b348015620000d957600080fd5b50620000f1620000eb36600462000498565b620001fd565b604051620000c3919062000654565b3480156200010d57600080fd5b50620001256200011f3660046200046f565b620002a7565b604051620000c3919062000674565b3480156200014157600080fd5b50620000b46200015336600462000534565b620002b9565b3480156200016657600080fd5b5062000125620001783660046200046f565b620002e6565b3480156200018b57600080fd5b50620001a36200019d3660046200046f565b62000301565b604051620000c3919062000644565b348015620001bf57600080fd5b50620001a3620001d13660046200046f565b6200031f565b6001602090815260009283526040808420909152908252902054600160a060020a031681565b600080858585856200020e620003e6565b6200021d9493929190620005f0565b604051809103906000f0801580156200023a573d6000803e3d6000fd5b50905062000249818762000334565b15156200025557600080fd5b85600160a060020a03167f0fa0e8c78cc30c62fa72c6c8d3a3f4e7689d3cc559ceaeb1ec21c85d439241088287878760405162000296949392919062000664565b60405180910390a295945050505050565b60006020819052908152604090205481565b600160a060020a038083166000908152600160209081526040808320858452909152902054165b92915050565b600160a060020a031660009081526020819052604090205490565b600160a060020a031660009081526002602052604090205460ff1690565b60026020526000908152604090205460ff1681565b600160a060020a03811660009081526020819052604081205481906200036290600163ffffffff620003cf16565b600160a060020a039384166000908152602081815260408083208490556001808352818420948452938252808320805473ffffffffffffffffffffffffffffffffffffffff191698909716978817909655958152600290955292909320805460ff19168317905550919050565b600082820183811015620003df57fe5b9392505050565b6040516105c2806200074483390190565b6000620003df8235620006d9565b6000620003df8235620006ea565b6000601f820183136200042557600080fd5b81356200043c6200043682620006ac565b62000684565b915080825260208301602083018583830111156200045957600080fd5b62000466838284620006fa565b50505092915050565b6000602082840312156200048257600080fd5b6000620004908484620003f7565b949350505050565b60008060008060808587031215620004af57600080fd5b6000620004bd8787620003f7565b945050602085013567ffffffffffffffff811115620004db57600080fd5b620004e98782880162000413565b935050604085013567ffffffffffffffff8111156200050757600080fd5b620005158782880162000413565b9250506060620005288782880162000405565b91505092959194509250565b600080604083850312156200054857600080fd5b6000620005568585620003f7565b9250506020620005698582860162000405565b9150509250929050565b6200057e81620006d9565b82525050565b6200057e81620006e5565b6200057e81620006ea565b6200057e81620006ed565b6000620005b282620006d5565b808452620005c881602086016020860162000706565b620005d38162000739565b9093016020019392505050565b60208101620002e0828462000573565b6080810162000600828762000573565b8181036020830152620006148186620005a5565b905081810360408301526200062a8185620005a5565b90506200063b60608301846200058f565b95945050505050565b60208101620002e0828462000584565b60208101620002e082846200059a565b608081016200060082876200059a565b60208101620002e082846200058f565b60405181810167ffffffffffffffff81118282101715620006a457600080fd5b604052919050565b600067ffffffffffffffff821115620006c457600080fd5b506020601f91909101601f19160190565b5190565b600160a060020a031690565b151590565b90565b6000620002e082620006d9565b82818337506000910152565b60005b838110156200072357818101518382015260200162000709565b8381111562000733576000848401525b50505050565b601f01601f1916905600608060405234801561001057600080fd5b506040516105c23803806105c28339810180604052610032919081019061018f565b60008054600160a060020a031916600160a060020a0386161790558251610060906001906020860190610081565b508151610074906002906020850190610081565b50600355506102a7915050565b828054600181600116156101000203166002900490600052602060002090601f016020900481019282601f106100c257805160ff19168380011785556100ef565b828001600101855582156100ef579182015b828111156100ef5782518255916020019190600101906100d4565b506100fb9291506100ff565b5090565b61011991905b808211156100fb5760008155600101610105565b90565b6000610128825161026b565b9392505050565b60006101288251610119565b6000601f8201831361014c57600080fd5b815161015f61015a82610244565b61021e565b9150808252602083016020830185838301111561017b57600080fd5b610186838284610277565b50505092915050565b600080600080608085870312156101a557600080fd5b60006101b1878761011c565b94505060208501516001604060020a038111156101cd57600080fd5b6101d98782880161013b565b93505060408501516001604060020a038111156101f557600080fd5b6102018782880161013b565b92505060606102128782880161012f565b91505092959194509250565b6040518181016001604060020a038111828210171561023c57600080fd5b604052919050565b60006001604060020a0382111561025a57600080fd5b506020601f91909101601f19160190565b600160a060020a031690565b60005b8381101561029257818101518382015260200161027a565b838111156102a1576000848401525b50505050565b61030c806102b66000396000f3006080604052600436106100615763ffffffff7c0100000000000000000000000000000000000000000000000000000000600035041663422063d0811461006657806367042a8c14610091578063b1066456146100a6578063deff41c1146100c8575b600080fd5b34801561007257600080fd5b5061007b6100ea565b6040516100889190610260565b60405180910390f35b34801561009d57600080fd5b5061007b610177565b3480156100b257600080fd5b506100bb6101cf565b6040516100889190610252565b3480156100d457600080fd5b506100dd6101d5565b604051610088919061023e565b60018054604080516020600284861615610100026000190190941693909304601f8101849004840282018401909252818152929183018282801561016f5780601f106101445761010080835404028352916020019161016f565b820191906000526020600020905b81548152906001019060200180831161015257829003601f168201915b505050505081565b6002805460408051602060018416156101000260001901909316849004601f8101849004840282018401909252818152929183018282801561016f5780601f106101445761010080835404028352916020019161016f565b60035481565b60005473ffffffffffffffffffffffffffffffffffffffff1681565b6101fa8161027c565b82525050565b6101fa81610295565b600061021482610278565b808452610228816020860160208601610298565b610231816102c8565b9093016020019392505050565b6020810161024c82846101f1565b92915050565b6020810161024c8284610200565b602080825281016102718184610209565b9392505050565b5190565b73ffffffffffffffffffffffffffffffffffffffff1690565b90565b60005b838110156102b357818101518382015260200161029b565b838111156102c2576000848401525b50505050565b601f01601f1916905600a265627a7a72305820dab99c0d0deb6ac8e8265d37a30f4fb51d8666cba7357ab93bc3b27dfbfaac026c6578706572696d656e74616cf50037a265627a7a7230582025e7dc2d84fafa5c1bf1f2e8fa77d0c350a57a06bc86a7d8a837714718fc26aa6c6578706572696d656e74616cf50037",
  "source": "pragma solidity ^0.4.24;\npragma experimental ABIEncoderV2;\n\nimport './Dapp.sol';\nimport './RegistryBase.sol';\n\ncontract DappRegistry is RegistryBase //, OwnableMutable // is Owned by IexecHub\n{\n\tevent CreateDapp(\n\t\taddress indexed dappOwner,\n\t\taddress dapp,\n\t\tstring  dappName,\n\t\tstring  dappParams,\n\t\tbytes32 dappHash);\n\n\t/**\n\t * Constructor\n\t */\n\tconstructor()\n\tpublic\n\t{\n\t}\n\n\t/**\n\t * Dapp creation\n\t */\n\tfunction createDapp(\n\t\taddress _dappOwner,\n\t\tstring  _dappName,\n\t\tstring  _dappParams,\n\t\tbytes32 _dappHash)\n\tpublic /* onlyOwner /*owner == IexecHub*/ returns (Dapp)\n\t{\n\t\tDapp newDapp = new Dapp(_dappOwner, _dappName, _dappParams, _dappHash);\n\t\trequire(insert(newDapp, _dappOwner));\n\t\temit CreateDapp(_dappOwner, newDapp, _dappName, _dappParams, _dappHash);\n\t\treturn newDapp;\n\t}\n\n}\n",
  "sourcePath": "/home/amxx/Work/iExec/code/PoCo-dev/contracts/registries/DappRegistry.sol",
  "compiler": {
    "name": "solc",
    "version": "0.4.24+commit.e67f0147.Emscripten.clang"
  },
  "schemaVersion": "2.0.1",
  "updatedAt": "2018-10-10T21:45:53.132Z"
}