{
  "contractName": "Data",
  "abi": [
    {
      "constant": true,
      "inputs": [],
      "name": "m_dataName",
      "outputs": [
        {
          "name": "",
          "type": "string"
        }
      ],
      "payable": false,
      "stateMutability": "view",
      "type": "function"
    },
    {
      "constant": true,
      "inputs": [],
      "name": "m_dataParams",
      "outputs": [
        {
          "name": "",
          "type": "string"
        }
      ],
      "payable": false,
      "stateMutability": "view",
      "type": "function"
    },
    {
      "constant": true,
      "inputs": [],
      "name": "m_owner",
      "outputs": [
        {
          "name": "",
          "type": "address"
        }
      ],
      "payable": false,
      "stateMutability": "view",
      "type": "function"
    },
    {
      "constant": true,
      "inputs": [],
      "name": "m_dataHash",
      "outputs": [
        {
          "name": "",
          "type": "bytes32"
        }
      ],
      "payable": false,
      "stateMutability": "view",
      "type": "function"
    },
    {
      "inputs": [
        {
          "name": "_dataOwner",
          "type": "address"
        },
        {
          "name": "_dataName",
          "type": "string"
        },
        {
          "name": "_dataParams",
          "type": "string"
        },
        {
          "name": "_dataHash",
          "type": "bytes32"
        }
      ],
      "payable": false,
      "stateMutability": "nonpayable",
      "type": "constructor"
    }
  ],
  "bytecode": "0x608060405234801561001057600080fd5b506040516105c23803806105c28339810180604052610032919081019061018f565b60008054600160a060020a031916600160a060020a0386161790558251610060906001906020860190610081565b508151610074906002906020850190610081565b50600355506102a7915050565b828054600181600116156101000203166002900490600052602060002090601f016020900481019282601f106100c257805160ff19168380011785556100ef565b828001600101855582156100ef579182015b828111156100ef5782518255916020019190600101906100d4565b506100fb9291506100ff565b5090565b61011991905b808211156100fb5760008155600101610105565b90565b6000610128825161026b565b9392505050565b60006101288251610119565b6000601f8201831361014c57600080fd5b815161015f61015a82610244565b61021e565b9150808252602083016020830185838301111561017b57600080fd5b610186838284610277565b50505092915050565b600080600080608085870312156101a557600080fd5b60006101b1878761011c565b94505060208501516001604060020a038111156101cd57600080fd5b6101d98782880161013b565b93505060408501516001604060020a038111156101f557600080fd5b6102018782880161013b565b92505060606102128782880161012f565b91505092959194509250565b6040518181016001604060020a038111828210171561023c57600080fd5b604052919050565b60006001604060020a0382111561025a57600080fd5b506020601f91909101601f19160190565b600160a060020a031690565b60005b8381101561029257818101518382015260200161027a565b838111156102a1576000848401525b50505050565b61030c806102b66000396000f3006080604052600436106100615763ffffffff7c01000000000000000000000000000000000000000000000000000000006000350416635c6381d181146100665780637430e1d914610091578063deff41c1146100a6578063e3708186146100c8575b600080fd5b34801561007257600080fd5b5061007b6100ea565b6040516100889190610260565b60405180910390f35b34801561009d57600080fd5b5061007b610177565b3480156100b257600080fd5b506100bb6101cf565b604051610088919061023e565b3480156100d457600080fd5b506100dd6101eb565b6040516100889190610252565b60018054604080516020600284861615610100026000190190941693909304601f8101849004840282018401909252818152929183018282801561016f5780601f106101445761010080835404028352916020019161016f565b820191906000526020600020905b81548152906001019060200180831161015257829003601f168201915b505050505081565b6002805460408051602060018416156101000260001901909316849004601f8101849004840282018401909252818152929183018282801561016f5780601f106101445761010080835404028352916020019161016f565b60005473ffffffffffffffffffffffffffffffffffffffff1681565b60035481565b6101fa8161027c565b82525050565b6101fa81610295565b600061021482610278565b808452610228816020860160208601610298565b610231816102c8565b9093016020019392505050565b6020810161024c82846101f1565b92915050565b6020810161024c8284610200565b602080825281016102718184610209565b9392505050565b5190565b73ffffffffffffffffffffffffffffffffffffffff1690565b90565b60005b838110156102b357818101518382015260200161029b565b838111156102c2576000848401525b50505050565b601f01601f1916905600a265627a7a723058208682daf63bda7c613b66c5dc99dcda885f76319b7d30e7823c1af8fc6f01573d6c6578706572696d656e74616cf50037",
  "source": "pragma solidity ^0.4.24;\npragma experimental ABIEncoderV2;\n\nimport '../tools/Ownable.sol';\n\ncontract Data is OwnableImmutable\n{\n\n\t/**\n\t * Members\n\t */\n\tstring  public m_dataName;\n\tstring  public m_dataParams;\n\tbytes32 public m_dataHash;\n\n\t/**\n\t * Constructor\n\t */\n\tconstructor(\n\t\taddress _dataOwner,\n\t\tstring  _dataName,\n\t\tstring  _dataParams,\n\t\tbytes32 _dataHash)\n\tpublic\n\tOwnableImmutable(_dataOwner)\n\t{\n\t\tm_dataName   = _dataName;\n\t\tm_dataParams = _dataParams;\n\t\tm_dataHash   = _dataHash;\n\t}\n\n}\n",
  "sourcePath": "/home/amxx/Work/iExec/code/PoCo-dev/contracts/registries/Data.sol",
  "compiler": {
    "name": "solc",
    "version": "0.4.25+commit.59dbf8f1.Emscripten.clang"
  },
  "schemaVersion": "3.0.0-beta.1",
  "updatedAt": "2018-10-05T12:37:37.176Z"
}