{
  "contractName": "Escrow",
  "abi": [
    {
      "constant": true,
      "inputs": [],
      "name": "rlc",
      "outputs": [
        {
          "name": "",
          "type": "address"
        }
      ],
      "payable": false,
      "stateMutability": "view",
      "type": "function"
    },
    {
      "constant": true,
      "inputs": [
        {
          "name": "",
          "type": "address"
        }
      ],
      "name": "m_accounts",
      "outputs": [
        {
          "name": "stake",
          "type": "uint256"
        },
        {
          "name": "locked",
          "type": "uint256"
        }
      ],
      "payable": false,
      "stateMutability": "view",
      "type": "function"
    },
    {
      "inputs": [
        {
          "name": "_rlctoken",
          "type": "address"
        }
      ],
      "payable": false,
      "stateMutability": "nonpayable",
      "type": "constructor"
    },
    {
      "anonymous": false,
      "inputs": [
        {
          "indexed": false,
          "name": "owner",
          "type": "address"
        },
        {
          "indexed": false,
          "name": "amount",
          "type": "uint256"
        }
      ],
      "name": "Deposit",
      "type": "event"
    },
    {
      "anonymous": false,
      "inputs": [
        {
          "indexed": false,
          "name": "owner",
          "type": "address"
        },
        {
          "indexed": false,
          "name": "amount",
          "type": "uint256"
        }
      ],
      "name": "Withdraw",
      "type": "event"
    },
    {
      "anonymous": false,
      "inputs": [
        {
          "indexed": false,
          "name": "user",
          "type": "address"
        },
        {
          "indexed": false,
          "name": "amount",
          "type": "uint256"
        }
      ],
      "name": "Reward",
      "type": "event"
    },
    {
      "anonymous": false,
      "inputs": [
        {
          "indexed": false,
          "name": "user",
          "type": "address"
        },
        {
          "indexed": false,
          "name": "amount",
          "type": "uint256"
        }
      ],
      "name": "Seize",
      "type": "event"
    },
    {
      "constant": true,
      "inputs": [
        {
          "name": "_user",
          "type": "address"
        }
      ],
      "name": "viewAccount",
      "outputs": [
        {
          "components": [
            {
              "name": "stake",
              "type": "uint256"
            },
            {
              "name": "locked",
              "type": "uint256"
            }
          ],
          "name": "",
          "type": "tuple"
        }
      ],
      "payable": false,
      "stateMutability": "view",
      "type": "function"
    },
    {
      "constant": true,
      "inputs": [
        {
          "name": "_user",
          "type": "address"
        }
      ],
      "name": "viewAccountLegacy",
      "outputs": [
        {
          "name": "stake",
          "type": "uint256"
        },
        {
          "name": "locked",
          "type": "uint256"
        }
      ],
      "payable": false,
      "stateMutability": "view",
      "type": "function"
    },
    {
      "constant": false,
      "inputs": [
        {
          "name": "_amount",
          "type": "uint256"
        }
      ],
      "name": "deposit",
      "outputs": [
        {
          "name": "",
          "type": "bool"
        }
      ],
      "payable": false,
      "stateMutability": "nonpayable",
      "type": "function"
    },
    {
      "constant": false,
      "inputs": [
        {
          "name": "_amount",
          "type": "uint256"
        }
      ],
      "name": "withdraw",
      "outputs": [
        {
          "name": "",
          "type": "bool"
        }
      ],
      "payable": false,
      "stateMutability": "nonpayable",
      "type": "function"
    }
  ],
  "bytecode": "0x608060405234801561001057600080fd5b50604051602080610719833981018060405261002f919081019061007c565b600160a060020a038116151561004457600080fd5b60008054600160a060020a031916600160a060020a03929092169190911790556100ae565b600061007582516100a2565b9392505050565b60006020828403121561008e57600080fd5b600061009a8484610069565b949350505050565b600160a060020a031690565b61065c806100bd6000396000f3006080604052600436106100775763ffffffff7c01000000000000000000000000000000000000000000000000000000006000350416632e1a7d4d811461007c5780636b55f4a5146100b2578063a578dee5146100df578063b017c0361461010d578063b6b55f251461012f578063be02ee6e1461014f575b600080fd5b34801561008857600080fd5b5061009c610097366004610509565b61016f565b6040516100a991906105be565b60405180910390f35b3480156100be57600080fd5b506100d26100cd3660046104c5565b610294565b6040516100a991906105da565b3480156100eb57600080fd5b506100ff6100fa3660046104c5565b6102dc565b6040516100a99291906105e8565b34801561011957600080fd5b5061012261030c565b6040516100a991906105cc565b34801561013b57600080fd5b5061009c61014a366004610509565b610328565b34801561015b57600080fd5b506100ff61016a3660046104c5565b610444565b3360009081526001602052604081205461018f908363ffffffff61045d16565b33600081815260016020526040808220939093555491517fa9059cbb00000000000000000000000000000000000000000000000000000000815273ffffffffffffffffffffffffffffffffffffffff9092169163a9059cbb916101f69186906004016105a3565b602060405180830381600087803b15801561021057600080fd5b505af1158015610224573d6000803e3d6000fd5b505050506040513d601f19601f8201168201806040525061024891908101906104eb565b151561025357600080fd5b7f884edad9ce6fa2440d8a54cc123490eb96d2768479d49ff9c7366125a942436433836040516102849291906105a3565b60405180910390a1506001919050565b61029c61048a565b5073ffffffffffffffffffffffffffffffffffffffff16600090815260016020818152604092839020835180850190945280548452909101549082015290565b73ffffffffffffffffffffffffffffffffffffffff16600090815260016020819052604090912080549101549091565b60005473ffffffffffffffffffffffffffffffffffffffff1681565b600080546040517f23b872dd00000000000000000000000000000000000000000000000000000000815273ffffffffffffffffffffffffffffffffffffffff909116906323b872dd906103839033903090879060040161057b565b602060405180830381600087803b15801561039d57600080fd5b505af11580156103b1573d6000803e3d6000fd5b505050506040513d601f19601f820116820180604052506103d591908101906104eb565b15156103e057600080fd5b33600090815260016020526040902054610400908363ffffffff61047416565b33600081815260016020526040908190209290925590517fe1fffcc4923d04b559f4d29a8bfc6cda04eb5b0d3c460751c2402c5c5cc9109c916102849185906105a3565b6001602081905260009182526040909120805491015482565b60008282111561046957fe5b508082035b92915050565b60008282018381101561048357fe5b9392505050565b604080518082019091526000808252602082015290565b600061048382356105f6565b6000610483825161060f565b60006104838235610614565b6000602082840312156104d757600080fd5b60006104e384846104a1565b949350505050565b6000602082840312156104fd57600080fd5b60006104e384846104ad565b60006020828403121561051b57600080fd5b60006104e384846104b9565b610530816105f6565b82525050565b6105308161060f565b61053081610617565b805160408301906105598482610572565b50602082015161056c6020850182610572565b50505050565b61053081610614565b606081016105898286610527565b6105966020830185610527565b6104e36040830184610572565b604081016105b18285610527565b6104836020830184610572565b6020810161046e8284610536565b6020810161046e828461053f565b6040810161046e8284610548565b604081016105b18285610572565b73ffffffffffffffffffffffffffffffffffffffff1690565b151590565b90565b600061046e826105f65600a265627a7a72305820ba75f3d7681959cf8eb3bdc19cc69f92c252f03855a3b6ffbdee7d040c9620c86c6578706572696d656e74616cf50037",
  "source": "pragma solidity ^0.4.24;\npragma experimental ABIEncoderV2;\n\nimport \"rlc-token/contracts/RLC.sol\";\n\nimport \"./tools/IexecODBLibCore.sol\";\nimport \"./tools/SafeMathOZ.sol\";\n\ncontract Escrow\n{\n\tusing SafeMathOZ for uint256;\n\n\t/**\n\t* RLC contract for token transfers.\n\t*/\n\tRLC public rlc;\n\n\t/**\n\t * Escrow content\n\t */\n\tmapping(address => IexecODBLibCore.Account) public m_accounts;\n\n\t/**\n\t * Events\n\t */\n\tevent Deposit (address owner, uint256 amount);\n\tevent Withdraw(address owner, uint256 amount);\n\tevent Reward  (address user,  uint256 amount);\n\tevent Seize   (address user,  uint256 amount);\n\n\t/**\n\t * Constructor\n\t */\n\tconstructor(address _rlctoken)\n\tpublic\n\t{\n\t\trequire(_rlctoken != address(0));\n\t\trlc = RLC(_rlctoken);\n\t}\n\n\t/**\n\t * Accessor\n\t */\n\tfunction viewAccount(address _user)\n\tpublic view returns (IexecODBLibCore.Account)\n\t{\n\t\treturn m_accounts[_user];\n\t}\n\n\tfunction viewAccountLegacy(address _user)\n\tpublic view returns (uint256 stake, uint256 locked)\n\t{\n\t\treturn ( m_accounts[_user].stake, m_accounts[_user].locked );\n\t}\n\n\t/**\n\t * Wallet methods: public\n\t */\n\tfunction deposit(uint256 _amount) external returns (bool)\n\t{\n\t\trequire(rlc.transferFrom(msg.sender, address(this), _amount));\n\t\tm_accounts[msg.sender].stake = m_accounts[msg.sender].stake.add(_amount);\n\t\temit Deposit(msg.sender, _amount);\n\t\treturn true;\n\t}\n\tfunction withdraw(uint256 _amount) external returns (bool)\n\t{\n\t\tm_accounts[msg.sender].stake = m_accounts[msg.sender].stake.sub(_amount);\n\t\trequire(rlc.transfer(msg.sender, _amount));\n\t\temit Withdraw(msg.sender, _amount);\n\t\treturn true;\n\t}\n\t/**\n\t * Wallet methods: Internal\n\t */\n\tfunction reward(address _user, uint256 _amount) internal /* returns (bool) */\n\t{\n\t\tm_accounts[_user].stake = m_accounts[_user].stake.add(_amount);\n\t\temit Reward(_user, _amount);\n\t\t/* return true; */\n\t}\n\tfunction seize(address _user, uint256 _amount) internal /* returns (bool) */\n\t{\n\t\tm_accounts[_user].locked = m_accounts[_user].locked.sub(_amount);\n\t\temit Seize(_user, _amount);\n\t\t/* return true; */\n\t}\n\tfunction lock(address _user, uint256 _amount) internal /* returns (bool) */\n\t{\n\t\tm_accounts[_user].stake  = m_accounts[_user].stake.sub(_amount);\n\t\tm_accounts[_user].locked = m_accounts[_user].locked.add(_amount);\n\t\t/* return true; */\n\t}\n\tfunction unlock(address _user, uint256 _amount) internal /* returns (bool) */\n\t{\n\t\tm_accounts[_user].locked = m_accounts[_user].locked.sub(_amount);\n\t\tm_accounts[_user].stake  = m_accounts[_user].stake.add(_amount);\n\t\t/* return true; */\n\t}\n}\n",
  "sourcePath": "/home/amxx/Work/iExec/code/PoCo-dev/contracts/Escrow.sol",
  "compiler": {
    "name": "solc",
    "version": "0.4.24+commit.e67f0147.Emscripten.clang"
  },
  "schemaVersion": "2.0.1",
  "updatedAt": "2018-10-10T21:45:43.791Z"
}