{
  "contractName": "IexecHub",
  "abi": [
    {
      "constant": true,
      "inputs": [],
      "name": "dataregistry",
      "outputs": [
        {
          "name": "",
          "type": "address"
        }
      ],
      "payable": false,
      "stateMutability": "view",
      "type": "function"
    },
    {
      "constant": false,
      "inputs": [
        {
          "name": "name",
          "type": "string"
        },
        {
          "name": "description",
          "type": "string"
        },
        {
          "name": "workClockTimeRef",
          "type": "uint256"
        }
      ],
      "name": "createCategory",
      "outputs": [
        {
          "name": "",
          "type": "uint256"
        }
      ],
      "payable": false,
      "stateMutability": "nonpayable",
      "type": "function"
    },
    {
      "constant": true,
      "inputs": [],
      "name": "dappregistry",
      "outputs": [
        {
          "name": "",
          "type": "address"
        }
      ],
      "payable": false,
      "stateMutability": "view",
      "type": "function"
    },
    {
      "constant": true,
      "inputs": [],
      "name": "CONSENSUS_DURATION_RATIO",
      "outputs": [
        {
          "name": "",
          "type": "uint256"
        }
      ],
      "payable": false,
      "stateMutability": "view",
      "type": "function"
    },
    {
      "constant": true,
      "inputs": [],
      "name": "poolregistry",
      "outputs": [
        {
          "name": "",
          "type": "address"
        }
      ],
      "payable": false,
      "stateMutability": "view",
      "type": "function"
    },
    {
      "constant": true,
      "inputs": [
        {
          "name": "_catid",
          "type": "uint256"
        }
      ],
      "name": "viewCategory",
      "outputs": [
        {
          "components": [
            {
              "name": "name",
              "type": "string"
            },
            {
              "name": "description",
              "type": "string"
            },
            {
              "name": "workClockTimeRef",
              "type": "uint256"
            }
          ],
          "name": "",
          "type": "tuple"
        }
      ],
      "payable": false,
      "stateMutability": "view",
      "type": "function"
    },
    {
      "constant": true,
      "inputs": [],
      "name": "SCORE_UNITARY_SLASH",
      "outputs": [
        {
          "name": "",
          "type": "uint256"
        }
      ],
      "payable": false,
      "stateMutability": "view",
      "type": "function"
    },
    {
      "constant": true,
      "inputs": [
        {
          "name": "",
          "type": "address"
        }
      ],
      "name": "m_workerScores",
      "outputs": [
        {
          "name": "",
          "type": "uint256"
        }
      ],
      "payable": false,
      "stateMutability": "view",
      "type": "function"
    },
    {
      "constant": true,
      "inputs": [],
      "name": "iexecclerk",
      "outputs": [
        {
          "name": "",
          "type": "address"
        }
      ],
      "payable": false,
      "stateMutability": "view",
      "type": "function"
    },
    {
      "constant": true,
      "inputs": [],
      "name": "countCategory",
      "outputs": [
        {
          "name": "",
          "type": "uint256"
        }
      ],
      "payable": false,
      "stateMutability": "view",
      "type": "function"
    },
    {
      "constant": true,
      "inputs": [],
      "name": "m_owner",
      "outputs": [
        {
          "name": "",
          "type": "address"
        }
      ],
      "payable": false,
      "stateMutability": "view",
      "type": "function"
    },
    {
      "constant": true,
      "inputs": [],
      "name": "REVEAL_DURATION_RATIO",
      "outputs": [
        {
          "name": "",
          "type": "uint256"
        }
      ],
      "payable": false,
      "stateMutability": "view",
      "type": "function"
    },
    {
      "constant": true,
      "inputs": [
        {
          "name": "",
          "type": "uint256"
        }
      ],
      "name": "m_categories",
      "outputs": [
        {
          "name": "name",
          "type": "string"
        },
        {
          "name": "description",
          "type": "string"
        },
        {
          "name": "workClockTimeRef",
          "type": "uint256"
        }
      ],
      "payable": false,
      "stateMutability": "view",
      "type": "function"
    },
    {
      "constant": false,
      "inputs": [
        {
          "name": "_newOwner",
          "type": "address"
        }
      ],
      "name": "transferOwnership",
      "outputs": [],
      "payable": false,
      "stateMutability": "nonpayable",
      "type": "function"
    },
    {
      "constant": true,
      "inputs": [
        {
          "name": "",
          "type": "address"
        }
      ],
      "name": "m_workerAffectations",
      "outputs": [
        {
          "name": "",
          "type": "address"
        }
      ],
      "payable": false,
      "stateMutability": "view",
      "type": "function"
    },
    {
      "inputs": [],
      "payable": false,
      "stateMutability": "nonpayable",
      "type": "constructor"
    },
    {
      "anonymous": false,
      "inputs": [
        {
          "indexed": true,
          "name": "taskid",
          "type": "bytes32"
        },
        {
          "indexed": true,
          "name": "pool",
          "type": "address"
        }
      ],
      "name": "ConsensusInitialize",
      "type": "event"
    },
    {
      "anonymous": false,
      "inputs": [
        {
          "indexed": true,
          "name": "taskid",
          "type": "bytes32"
        },
        {
          "indexed": true,
          "name": "worker",
          "type": "address"
        }
      ],
      "name": "ConsensusAllowContribution",
      "type": "event"
    },
    {
      "anonymous": false,
      "inputs": [
        {
          "indexed": true,
          "name": "taskid",
          "type": "bytes32"
        },
        {
          "indexed": true,
          "name": "worker",
          "type": "address"
        },
        {
          "indexed": false,
          "name": "resultHash",
          "type": "bytes32"
        }
      ],
      "name": "ConsensusContribute",
      "type": "event"
    },
    {
      "anonymous": false,
      "inputs": [
        {
          "indexed": true,
          "name": "taskid",
          "type": "bytes32"
        },
        {
          "indexed": false,
          "name": "consensus",
          "type": "bytes32"
        }
      ],
      "name": "ConsensusRevealConsensus",
      "type": "event"
    },
    {
      "anonymous": false,
      "inputs": [
        {
          "indexed": true,
          "name": "taskid",
          "type": "bytes32"
        },
        {
          "indexed": true,
          "name": "worker",
          "type": "address"
        },
        {
          "indexed": false,
          "name": "result",
          "type": "bytes32"
        }
      ],
      "name": "ConsensusReveal",
      "type": "event"
    },
    {
      "anonymous": false,
      "inputs": [
        {
          "indexed": true,
          "name": "taskid",
          "type": "bytes32"
        }
      ],
      "name": "ConsensusReopen",
      "type": "event"
    },
    {
      "anonymous": false,
      "inputs": [
        {
          "indexed": true,
          "name": "taskid",
          "type": "bytes32"
        },
        {
          "indexed": false,
          "name": "stdout",
          "type": "string"
        },
        {
          "indexed": false,
          "name": "stderr",
          "type": "string"
        },
        {
          "indexed": false,
          "name": "uri",
          "type": "string"
        }
      ],
      "name": "ConsensusFinalized",
      "type": "event"
    },
    {
      "anonymous": false,
      "inputs": [
        {
          "indexed": true,
          "name": "taskid",
          "type": "bytes32"
        }
      ],
      "name": "ConsensusClaimed",
      "type": "event"
    },
    {
      "anonymous": false,
      "inputs": [
        {
          "indexed": true,
          "name": "taskid",
          "type": "bytes32"
        },
        {
          "indexed": true,
          "name": "worker",
          "type": "address"
        }
      ],
      "name": "AccurateContribution",
      "type": "event"
    },
    {
      "anonymous": false,
      "inputs": [
        {
          "indexed": true,
          "name": "taskid",
          "type": "bytes32"
        },
        {
          "indexed": true,
          "name": "worker",
          "type": "address"
        }
      ],
      "name": "FaultyContribution",
      "type": "event"
    },
    {
      "anonymous": false,
      "inputs": [
        {
          "indexed": true,
          "name": "pool",
          "type": "address"
        },
        {
          "indexed": false,
          "name": "worker",
          "type": "address"
        }
      ],
      "name": "WorkerSubscription",
      "type": "event"
    },
    {
      "anonymous": false,
      "inputs": [
        {
          "indexed": true,
          "name": "pool",
          "type": "address"
        },
        {
          "indexed": false,
          "name": "worker",
          "type": "address"
        }
      ],
      "name": "WorkerUnsubscription",
      "type": "event"
    },
    {
      "anonymous": false,
      "inputs": [
        {
          "indexed": true,
          "name": "pool",
          "type": "address"
        },
        {
          "indexed": false,
          "name": "worker",
          "type": "address"
        }
      ],
      "name": "WorkerEviction",
      "type": "event"
    },
    {
      "anonymous": false,
      "inputs": [
        {
          "indexed": false,
          "name": "catid",
          "type": "uint256"
        },
        {
          "indexed": false,
          "name": "name",
          "type": "string"
        },
        {
          "indexed": false,
          "name": "description",
          "type": "string"
        },
        {
          "indexed": false,
          "name": "workClockTimeRef",
          "type": "uint256"
        }
      ],
      "name": "CreateCategory",
      "type": "event"
    },
    {
      "anonymous": false,
      "inputs": [
        {
          "indexed": true,
          "name": "previousOwner",
          "type": "address"
        },
        {
          "indexed": true,
          "name": "newOwner",
          "type": "address"
        }
      ],
      "name": "OwnershipTransferred",
      "type": "event"
    },
    {
      "constant": false,
      "inputs": [
        {
          "name": "_iexecclerkAddress",
          "type": "address"
        },
        {
          "name": "_dappRegistryAddress",
          "type": "address"
        },
        {
          "name": "_dataRegistryAddress",
          "type": "address"
        },
        {
          "name": "_poolRegistryAddress",
          "type": "address"
        }
      ],
      "name": "attachContracts",
      "outputs": [],
      "payable": false,
      "stateMutability": "nonpayable",
      "type": "function"
    },
    {
      "constant": true,
      "inputs": [
        {
          "name": "_taskid",
          "type": "bytes32"
        }
      ],
      "name": "viewTask",
      "outputs": [
        {
          "components": [
            {
              "name": "status",
              "type": "uint8"
            },
            {
              "name": "dealid",
              "type": "bytes32"
            },
            {
              "name": "idx",
              "type": "uint256"
            },
            {
              "name": "consensusDeadline",
              "type": "uint256"
            },
            {
              "name": "consensusValue",
              "type": "bytes32"
            },
            {
              "name": "revealDeadline",
              "type": "uint256"
            },
            {
              "name": "revealCounter",
              "type": "uint256"
            },
            {
              "name": "winnerCounter",
              "type": "uint256"
            },
            {
              "name": "contributors",
              "type": "address[]"
            }
          ],
          "name": "",
          "type": "tuple"
        }
      ],
      "payable": false,
      "stateMutability": "view",
      "type": "function"
    },
    {
      "constant": true,
      "inputs": [
        {
          "name": "_taskid",
          "type": "bytes32"
        },
        {
          "name": "_worker",
          "type": "address"
        }
      ],
      "name": "viewContribution",
      "outputs": [
        {
          "components": [
            {
              "name": "status",
              "type": "uint8"
            },
            {
              "name": "resultHash",
              "type": "bytes32"
            },
            {
              "name": "resultSign",
              "type": "bytes32"
            },
            {
              "name": "enclaveChallenge",
              "type": "address"
            },
            {
              "name": "score",
              "type": "uint256"
            },
            {
              "name": "weight",
              "type": "uint256"
            }
          ],
          "name": "",
          "type": "tuple"
        }
      ],
      "payable": false,
      "stateMutability": "view",
      "type": "function"
    },
    {
      "constant": true,
      "inputs": [
        {
          "name": "_worker",
          "type": "address"
        }
      ],
      "name": "viewScore",
      "outputs": [
        {
          "name": "",
          "type": "uint256"
        }
      ],
      "payable": false,
      "stateMutability": "view",
      "type": "function"
    },
    {
      "constant": true,
      "inputs": [
        {
          "name": "_worker",
          "type": "address"
        }
      ],
      "name": "viewAffectation",
      "outputs": [
        {
          "name": "",
          "type": "address"
        }
      ],
      "payable": false,
      "stateMutability": "view",
      "type": "function"
    },
    {
      "constant": true,
      "inputs": [
        {
          "name": "daap",
          "type": "address"
        },
        {
          "name": "data",
          "type": "address"
        },
        {
          "name": "pool",
          "type": "address"
        }
      ],
      "name": "checkResources",
      "outputs": [
        {
          "name": "",
          "type": "bool"
        }
      ],
      "payable": false,
      "stateMutability": "view",
      "type": "function"
    },
    {
      "constant": false,
      "inputs": [
        {
          "name": "_dealid",
          "type": "bytes32"
        },
        {
          "name": "idx",
          "type": "uint256"
        }
      ],
      "name": "initialize",
      "outputs": [
        {
          "name": "",
          "type": "bytes32"
        }
      ],
      "payable": false,
      "stateMutability": "nonpayable",
      "type": "function"
    },
    {
      "constant": false,
      "inputs": [
        {
          "name": "_taskid",
          "type": "bytes32"
        },
        {
          "name": "_resultHash",
          "type": "bytes32"
        },
        {
          "name": "_resultSign",
          "type": "bytes32"
        },
        {
          "name": "_enclaveChallenge",
          "type": "address"
        },
        {
          "components": [
            {
              "name": "v",
              "type": "uint8"
            },
            {
              "name": "r",
              "type": "bytes32"
            },
            {
              "name": "s",
              "type": "bytes32"
            }
          ],
          "name": "_enclaveSign",
          "type": "tuple"
        },
        {
          "components": [
            {
              "name": "v",
              "type": "uint8"
            },
            {
              "name": "r",
              "type": "bytes32"
            },
            {
              "name": "s",
              "type": "bytes32"
            }
          ],
          "name": "_poolSign",
          "type": "tuple"
        }
      ],
      "name": "signedContribute",
      "outputs": [],
      "payable": false,
      "stateMutability": "nonpayable",
      "type": "function"
    },
    {
      "constant": false,
      "inputs": [
        {
          "name": "_taskid",
          "type": "bytes32"
        },
        {
          "name": "_consensus",
          "type": "bytes32"
        }
      ],
      "name": "revealConsensus",
      "outputs": [],
      "payable": false,
      "stateMutability": "nonpayable",
      "type": "function"
    },
    {
      "constant": false,
      "inputs": [
        {
          "name": "_taskid",
          "type": "bytes32"
        },
        {
          "name": "_result",
          "type": "bytes32"
        }
      ],
      "name": "reveal",
      "outputs": [],
      "payable": false,
      "stateMutability": "nonpayable",
      "type": "function"
    },
    {
      "constant": false,
      "inputs": [
        {
          "name": "_taskid",
          "type": "bytes32"
        }
      ],
      "name": "reopen",
      "outputs": [],
      "payable": false,
      "stateMutability": "nonpayable",
      "type": "function"
    },
    {
      "constant": false,
      "inputs": [
        {
          "name": "_taskid",
          "type": "bytes32"
        },
        {
          "name": "_stdout",
          "type": "string"
        },
        {
          "name": "_stderr",
          "type": "string"
        },
        {
          "name": "_uri",
          "type": "string"
        }
      ],
      "name": "finalizeWork",
      "outputs": [],
      "payable": false,
      "stateMutability": "nonpayable",
      "type": "function"
    },
    {
      "constant": false,
      "inputs": [
        {
          "name": "_taskid",
          "type": "bytes32"
        }
      ],
      "name": "claimfailed",
      "outputs": [],
      "payable": false,
      "stateMutability": "nonpayable",
      "type": "function"
    },
    {
      "constant": false,
      "inputs": [
        {
          "name": "_pool",
          "type": "address"
        }
      ],
      "name": "subscribe",
      "outputs": [
        {
          "name": "",
          "type": "bool"
        }
      ],
      "payable": false,
      "stateMutability": "nonpayable",
      "type": "function"
    },
    {
      "constant": false,
      "inputs": [],
      "name": "unsubscribe",
      "outputs": [
        {
          "name": "",
          "type": "bool"
        }
      ],
      "payable": false,
      "stateMutability": "nonpayable",
      "type": "function"
    },
    {
      "constant": false,
      "inputs": [
        {
          "name": "_worker",
          "type": "address"
        }
      ],
      "name": "evict",
      "outputs": [
        {
          "name": "",
          "type": "bool"
        }
      ],
      "payable": false,
      "stateMutability": "nonpayable",
      "type": "function"
    }
  ],
  "bytecode": "0x608060405234801561001057600080fd5b5060008054600160a060020a03191633179055614105806100326000396000f3006080604052600436106101715763ffffffff60e060020a600035041663097d630d81146101765780631e99f54f146101ac5780632641ad78146101ce578063298503d9146101ee578063313ecd9d1461021b57806341a7726a1461023057806345b99d28146102505780634704511d146102655780634e156935146102875780634f5f44ec1461029c5780635b36c66b146102c95780635f688cf7146102e9578063747bcd72146103095780637858c11e1461031e57806378fbba541461033e578063adccf0d51461035e578063b01c68461461038b578063b9a11e21146103a0578063c140996f146103c0578063db230b52146103d5578063deff41c1146103f5578063e4fe52ac14610417578063e741363b14610437578063e9ebbaf814610464578063ea55ce8514610479578063eeeb2ba014610499578063f2fde38b146104c8578063f6c68e10146104e8578063fc334e8c14610508578063fcae448414610528578063ff816a4f1461053d575b600080fd5b34801561018257600080fd5b5061019661019136600461383c565b61055d565b6040516101a39190613e50565b60405180910390f35b3480156101b857600080fd5b506101c1610729565b6040516101a39190613ef2565b3480156101da57600080fd5b506101966101e9366004613800565b610738565b3480156101fa57600080fd5b5061020e610209366004613ad3565b61094d565b6040516101a39190613e5e565b34801561022757600080fd5b506101c1610a3a565b34801561023c57600080fd5b5061019661024b366004613ab5565b610a49565b34801561025c57600080fd5b5061020e610e04565b34801561027157600080fd5b50610285610280366004613889565b610e09565b005b34801561029357600080fd5b506101c1610e86565b3480156102a857600080fd5b506102bc6102b7366004613908565b610e95565b6040516101a39190613f6d565b3480156102d557600080fd5b5061020e6102e4366004613960565b61100a565b3480156102f557600080fd5b506101c1610304366004613800565b6112c6565b34801561031557600080fd5b5061020e6112e4565b34801561032a57600080fd5b5061020e610339366004613800565b6112e9565b34801561034a57600080fd5b50610285610359366004613908565b6112fb565b34801561036a57600080fd5b5061037e610379366004613908565b6114cd565b6040516101a39190613f8c565b34801561039757600080fd5b506101c16115c6565b3480156103ac57600080fd5b506102856103bb366004613990565b6115d5565b3480156103cc57600080fd5b5061020e611bf7565b3480156103e157600080fd5b5061020e6103f0366004613800565b611bfe565b34801561040157600080fd5b5061040a611c19565b6040516101a39190613e27565b34801561042357600080fd5b50610285610432366004613a18565b611c28565b34801561044357600080fd5b50610457610452366004613926565b611e2a565b6040516101a39190613f7e565b34801561047057600080fd5b5061020e611ec4565b34801561048557600080fd5b50610285610494366004613960565b611ec9565b3480156104a557600080fd5b506104b96104b4366004613908565b6121ab565b6040516101a393929190613f39565b3480156104d457600080fd5b506102856104e3366004613800565b612300565b3480156104f457600080fd5b50610285610503366004613908565b612387565b34801561051457600080fd5b50610285610523366004613960565b61258c565b34801561053457600080fd5b506101966127a3565b34801561054957600080fd5b5061040a610558366004613800565b61291d565b60035460405160e060020a63c3c5a547028152600091600160a060020a03169063c3c5a54790610591908790600401613e27565b602060405180830381600087803b1580156105ab57600080fd5b505af11580156105bf573d6000803e3d6000fd5b505050506040513d601f19601f820116820180604052506105e391908101906138ea565b15156105ee57600080fd5b600160a060020a038316158061068357506004805460405160e060020a63c3c5a547028152600160a060020a039091169163c3c5a5479161063191879101613e27565b602060405180830381600087803b15801561064b57600080fd5b505af115801561065f573d6000803e3d6000fd5b505050506040513d601f19601f8201168201806040525061068391908101906138ea565b151561068e57600080fd5b60055460405160e060020a63c3c5a547028152600160a060020a039091169063c3c5a547906106c1908590600401613e27565b602060405180830381600087803b1580156106db57600080fd5b505af11580156106ef573d6000803e3d6000fd5b505050506040513d601f19601f8201168201806040525061071391908101906138ea565b151561071e57600080fd5b5060015b9392505050565b600454600160a060020a031681565b600160a060020a0380821660009081526009602052604081205490911680151561076157600080fd5b33600160a060020a031681600160a060020a031663deff41c16040518163ffffffff1660e060020a028152600401602060405180830381600087803b1580156107a957600080fd5b505af11580156107bd573d6000803e3d6000fd5b505050506040513d601f19601f820116820180604052506107e1919081019061381e565b600160a060020a0316146107f457600080fd5b600260009054906101000a9004600160a060020a0316600160a060020a031663858fb57c8483600160a060020a031663e2d36ef56040518163ffffffff1660e060020a028152600401602060405180830381600087803b15801561085757600080fd5b505af115801561086b573d6000803e3d6000fd5b505050506040513d601f19601f8201168201806040525061088f9190810190613bb6565b6040518363ffffffff1660e060020a0281526004016108af929190613e35565b600060405180830381600087803b1580156108c957600080fd5b505af11580156108dd573d6000803e3d6000fd5b505050600160a060020a03808516600090815260096020526040908190208054600160a060020a03191690555190831691507f34a1851ba7e964fceb44d895ae72310f00eaf8fd0d65d6f4994d7558bd123eae9061093c908690613e27565b60405180910390a250600192915050565b600080548190600160a060020a0316331461096757600080fd5b6040805160608101825286815260208082018790529181018590526001805480820180835560009290925282518051929460039092027fb10e2d527612073b26eecdfd717e6a320cf44b4afac2b0732d9fcbe2b7fa0cf601926109cd928492019061328e565b5060208281015180516109e6926001850192019061328e565b5060408201518160020155505090507f62bf08360c9d561749c54eaf4f8bf8cb6c8b6f4f40607bcec39a8172e714d25c81868686604051610a2a9493929190613f9d565b60405180910390a1949350505050565b600354600160a060020a031681565b60055460405160e060020a63c3c5a547028152600091600160a060020a03169063c3c5a54790610a7d908590600401613ef2565b602060405180830381600087803b158015610a9757600080fd5b505af1158015610aab573d6000803e3d6000fd5b505050506040513d601f19601f82011682018060405250610acf91908101906138ea565b1515610ada57600080fd5b33600090815260096020526040902054600160a060020a031615610afd57600080fd5b600260009054906101000a9004600160a060020a0316600160a060020a031663c38da0963384600160a060020a031663e2d36ef56040518163ffffffff1660e060020a028152600401602060405180830381600087803b158015610b6057600080fd5b505af1158015610b74573d6000803e3d6000fd5b505050506040513d601f19601f82011682018060405250610b989190810190613bb6565b6040518363ffffffff1660e060020a028152600401610bb8929190613e35565b600060405180830381600087803b158015610bd257600080fd5b505af1158015610be6573d6000803e3d6000fd5b5050505081600160a060020a0316636ab6936a6040518163ffffffff1660e060020a028152600401602060405180830381600087803b158015610c2857600080fd5b505af1158015610c3c573d6000803e3d6000fd5b505050506040513d601f19601f82011682018060405250610c609190810190613bb6565b6002546040517f6b55f4a5000000000000000000000000000000000000000000000000000000008152600160a060020a0390911690636b55f4a590610ca9903390600401613e27565b6040805180830381600087803b158015610cc257600080fd5b505af1158015610cd6573d6000803e3d6000fd5b505050506040513d601f19601f82011682018060405250610cfa9190810190613b45565b511015610d0657600080fd5b81600160a060020a031663cc6f06a36040518163ffffffff1660e060020a028152600401602060405180830381600087803b158015610d4457600080fd5b505af1158015610d58573d6000803e3d6000fd5b505050506040513d601f19601f82011682018060405250610d7c9190810190613bb6565b336000908152600860205260409020541015610d9757600080fd5b33600081815260096020526040908190208054600160a060020a031916600160a060020a038616908117909155905190917fa3974a24374c249e652605b8c9507c8e427206e633a0f29fe4cafa025662543791610df49190613e27565b60405180910390a2506001919050565b600a81565b600054600160a060020a03163314610e2057600080fd5b600254600160a060020a031615610e3657600080fd5b60028054600160a060020a03958616600160a060020a0319918216179091556003805494861694821694909417909355600480549285169284169290921790915560058054919093169116179055565b600554600160a060020a031681565b610e9d613308565b6001805483908110610eab57fe5b600091825260209182902060408051600393909302909101805460026001821615610100026000190190911604601f8101859004909402830160809081019092526060830184815292939092849290918491840182828015610f4e5780601f10610f2357610100808354040283529160200191610f4e565b820191906000526020600020905b815481529060010190602001808311610f3157829003601f168201915b50505050508152602001600182018054600181600116156101000203166002900480601f016020809104026020016040519081016040528092919081815260200182805460018160011615610100020316600290048015610ff05780601f10610fc557610100808354040283529160200191610ff0565b820191906000526020600020905b815481529060010190602001808311610fd357829003601f168201915b505050505081526020016002820154815250509050919050565b600061101461332a565b6002546040517fc8d967290000000000000000000000000000000000000000000000000000000081526000918291600160a060020a039091169063c8d9672990611062908990600401613e5e565b60c060405180830381600087803b15801561107c57600080fd5b505af1158015611090573d6000803e3d6000fd5b505050506040513d601f19601f820116820180604052506110b49190810190613b63565b60408101519093508510156110c857600080fd5b606083015160408401516110e19163ffffffff61293816565b85106110ec57600080fd5b604080516020808201899052818301889052825180830384018152606090920192839052815191929182918401908083835b6020831061113d5780518252601f19909201916020918201910161111e565b51815160209384036101000a6000190180199092169116179052604080519290940182900390912060008181526006909252928120929650919450909250611183915050565b815460ff16600481111561119357fe5b1461119d57600080fd5b805460ff191660019081178255810186905560028101859055602083015183516111ee91906111e290600a906111d290610e95565b604001519063ffffffff61295216565b9063ffffffff61293816565b600382015560025460405160e160020a635ba430d9028152600160a060020a039091169063b74861b290611226908990600401613e5e565b600060405180830381600087803b15801561124057600080fd5b505af1158015611254573d6000803e3d6000fd5b505050506040513d6000823e601f3d908101601f1916820160405261127c9190810190613b81565b604090810151519051600160a060020a039091169083907f78c5f70e9451a4a7c0628d57299897e0e5eee0504ab1824bb0989b08978db47c90600090a38193505b50505092915050565b600160a060020a039081166000908152600960205260409020541690565b603281565b60086020526000908152604090205481565b600081815260066020526040812090806001835460ff16600481111561131d57fe5b148061133857506002835460ff16600481111561133657fe5b145b151561134357600080fd5b600383015442101561135457600080fd5b825460ff19166004908117845560025460018501546040517f5d0c812f000000000000000000000000000000000000000000000000000000008152600160a060020a0390921692635d0c812f926113ac929101613e5e565b600060405180830381600087803b1580156113c657600080fd5b505af11580156113da573d6000803e3d6000fd5b50505050600091505b600883015482101561149c57600883018054839081106113ff57fe5b60009182526020909120015460025460018501546040517f6eb528b5000000000000000000000000000000000000000000000000000000008152600160a060020a0393841694509290911691636eb528b59161145f918590600401613e6c565b600060405180830381600087803b15801561147957600080fd5b505af115801561148d573d6000803e3d6000fd5b505050508160010191506113e3565b60405184907f7dfe63380371e82927224a64d2040f5820e8b1118d55c138e045175c325d66f190600090a250505050565b6114d5613361565b60008281526006602052604090819020815161012081019092528054829060ff16600481111561150157fe5b600481111561150c57fe5b8152600182015460208083019190915260028301546040808401919091526003840154606084015260048401546080840152600584015460a0840152600684015460c0840152600784015460e08401526008840180548251818502810185019093528083526101009094019391929091908301828280156115b657602002820191906000526020600020905b8154600160a060020a03168152600190910190602001808311611598575b5050505050815250509050919050565b600254600160a060020a031681565b6000806115e06133b4565b600089815260066020908152604080832060078352818420338552909252918290206002546001830154935160e160020a635ba430d9028152929650909450600160a060020a03169163b74861b29161163c9190600401613e5e565b600060405180830381600087803b15801561165657600080fd5b505af115801561166a573d6000803e3d6000fd5b505050506040513d6000823e601f3d908101601f191682016040526116929190810190613b81565b90506001835460ff1660048111156116a657fe5b146116b057600080fd5b600383015442106116c057600080fd5b6000825460ff1660038111156116d257fe5b146116dc57600080fd5b604080516c01000000000000000000000000338102602080840191909152603483018d9052600160a060020a038a169091026054830152825160488184030181526068909201928390528151600193918291908401908083835b602083106117555780518252601f199092019160209182019101611736565b51815160209384036101000a6000190180199092169116179052604080519290940182900382207f19457468657265756d205369676e6564204d6573736167653a0a33320000000083830152603c8084019190915284518084039091018152605c9092019384905281519195509293508392850191508083835b602083106117ee5780518252601f1990920191602091820191016117cf565b51815160209384036101000a6000190180199092169116179052604080519290940182900382208b518c8301518d87015160008652949093019586905261183c975090955093909250613ebd565b60206040516020810390808403906000865af1158015611860573d6000803e3d6000fd5b50505060206040510351600160a060020a0316816040015160200151600160a060020a031614151561189157600080fd5b6040808201515133600090815260096020529190912054600160a060020a039081169116146118bf57600080fd5b600160a060020a0386161515806118db57506080810151600116155b15156118e657600080fd5b600160a060020a03861615611a7c576040805160208082018b90528183018a90528251808303840181526060909201928390528151600193918291908401908083835b602083106119485780518252601f199092019160209182019101611929565b51815160209384036101000a6000190180199092169116179052604080519290940182900382207f19457468657265756d205369676e6564204d6573736167653a0a33320000000083830152603c8084019190915284518084039091018152605c9092019384905281519195509293508392850191508083835b602083106119e15780518252601f1990920191602091820191016119c2565b51815160209384036101000a6000190180199092169116179052604080519290940182900382208c518d8301518e870151600086529490930195869052611a2f975090955093909250613ebd565b60206040516020810390808403906000865af1158015611a53573d6000803e3d6000fd5b50505060206040510351600160a060020a031686600160a060020a0316141515611a7c57600080fd5b8154600160ff1990911681178355600383018054600160a060020a031916600160a060020a0389811691909117918290559184018a905560028401899055611aee91161515611acc576001611acf565b60035b336000908152600860205260409020549060ff1663ffffffff61295216565b60048301819055611afe9061297d565b60019081016005840155600884018054808301825560009182526020909120018054600160a060020a03191633908117909155600254918501546040517fe798491a000000000000000000000000000000000000000000000000000000008152600160a060020a03939093169263e798491a92611b7e9291600401613e6c565b600060405180830381600087803b158015611b9857600080fd5b505af1158015611bac573d6000803e3d6000fd5b50506040513392508b91507f658e21144c13c57abb260c322fd12619a96d563ee949692a57c50bb53cd9d31690611be4908c90613e5e565b60405180910390a3505050505050505050565b6001545b90565b600160a060020a031660009081526008602052604090205490565b600054600160a060020a031681565b60025460008581526006602052604080822060010154905160e160020a635ba430d902815291928792600160a060020a039091169163b74861b291611c709190600401613e5e565b600060405180830381600087803b158015611c8a57600080fd5b505af1158015611c9e573d6000803e3d6000fd5b505050506040513d6000823e601f3d908101601f19168201604052611cc69190810190613b81565b6040015160200151600160a060020a03163314611ce257600080fd5b600086815260066020526040902091506002825460ff166004811115611d0457fe5b14611d0e57600080fd5b60038201544210611d1e57600080fd5b816007015482600601541480611d47575060008260060154118015611d47575042826005015411155b1515611d5257600080fd5b815460ff1916600317825560025460018301546040517f88044a7d000000000000000000000000000000000000000000000000000000008152600160a060020a03909216916388044a7d91611da991600401613e5e565b600060405180830381600087803b158015611dc357600080fd5b505af1158015611dd7573d6000803e3d6000fd5b50505050611de486612b80565b60405186907fdcd05cde82529485314f76a706901b73f7250e5b9a44ac9af6bffc9830f25d8490611e1a90889088908890613f00565b60405180910390a2505050505050565b611e3261342e565b6000838152600760209081526040808320600160a060020a038616845290915290819020815160c081019092528054829060ff166003811115611e7157fe5b6003811115611e7c57fe5b815260018201546020820152600282015460408201526003820154600160a060020a031660608201526004820154608082015260059091015460a09091015290505b92915050565b600281565b60025460008381526006602052604080822060010154905160e160020a635ba430d902815291928392839283928892600160a060020a039091169163b74861b291611f179190600401613e5e565b600060405180830381600087803b158015611f3157600080fd5b505af1158015611f45573d6000803e3d6000fd5b505050506040513d6000823e601f3d908101601f19168201604052611f6d9190810190613b81565b6040015160200151600160a060020a03163314611f8957600080fd5b600087815260066020526040902094506001855460ff166004811115611fab57fe5b14611fb557600080fd5b60038501544210611fc557600080fd5b60009350600092505b60088501548310156120815760088501805484908110611fea57fe5b6000918252602080832090910154898352600782526040808420600160a060020a03909216808552919092529120600101549092508614801561205d575060016000888152600760209081526040808320600160a060020a038716845290915290205460ff16600381111561205b57fe5b145b156120765761207384600163ffffffff61293816565b93505b826001019250611fce565b6000841161208e57600080fd5b845460ff1916600290811786556004808701889055815460018801546040517fc8d967290000000000000000000000000000000000000000000000000000000081526121559442946111e29491936111d293600160a060020a039093169263c8d96729926120fd929101613e5e565b60c060405180830381600087803b15801561211757600080fd5b505af115801561212b573d6000803e3d6000fd5b505050506040513d601f19601f8201168201806040525061214f9190810190613b63565b51610e95565b6005860155600060068601556007850184905560405187907f377ad932b199c2a5b63fae02ae33b3ff0869c34356754d53fc8cb652a47392ad9061219a908990613e5e565b60405180910390a250505050505050565b60018054829081106121b957fe5b60009182526020918290206003919091020180546040805160026001841615610100026000190190931692909204601f8101859004850283018501909152808252919350918391908301828280156122525780601f1061222757610100808354040283529160200191612252565b820191906000526020600020905b81548152906001019060200180831161223557829003601f168201915b505050505090806001018054600181600116156101000203166002900480601f0160208091040260200160405190810160405280929190818152602001828054600181600116156101000203166002900480156122f05780601f106122c5576101008083540402835291602001916122f0565b820191906000526020600020905b8154815290600101906020018083116122d357829003601f168201915b5050505050908060020154905083565b600054600160a060020a0316331461231757600080fd5b600160a060020a038116151561232c57600080fd5b60008054604051600160a060020a03808516939216917f8be0079c531659141344cd1fd0a4f28419497f9722a3daafe3b4186f6b6457e091a360008054600160a060020a031916600160a060020a0392909216919091179055565b60025460008281526006602052604080822060010154905160e160020a635ba430d90281529192839283928692600160a060020a03169163b74861b2916123d091600401613e5e565b600060405180830381600087803b1580156123ea57600080fd5b505af11580156123fe573d6000803e3d6000fd5b505050506040513d6000823e601f3d908101601f191682016040526124269190810190613b81565b6040015160200151600160a060020a0316331461244257600080fd5b600085815260066020526040902093506002845460ff16600481111561246457fe5b1461246e57600080fd5b6003840154421061247e57600080fd5b4284600501541115801561249457506006840154155b151561249f57600080fd5b600092505b600884015483101561253b57600884018054849081106124c057fe5b60009182526020808320909101546004870154888452600783526040808520600160a060020a039093168086529290935291909220600101549193501415612530576000858152600760209081526040808320600160a060020a03861684529091529020805460ff191660031790555b8260010192506124a4565b835460ff19166001178455600060048501819055600585018190556007850181905560405186917f05640b80f03fb1305ea8389f21525abf1e571a12574911be9e36545abad3129391a25050505050565b6000828152600660209081526040808320600783528184203385529092529091206002825460ff1660048111156125bf57fe5b146125c957600080fd5b600382015442106125d957600080fd5b600582015442106125e957600080fd5b6001815460ff1660038111156125fb57fe5b1461260557600080fd5b600482015460018201541461261957600080fd5b60408051602080820186905282518083038201815291830192839052815191929182918401908083835b602083106126625780518252601f199092019160209182019101612643565b5181516020939093036101000a60001901801990911692169190911790526040519201829003909120600185015414925061269f91505057600080fd5b604080516c010000000000000000000000003302602080830191909152603480830187905283518084039091018152605490920192839052815191929182918401908083835b602083106127045780518252601f1990920191602091820191016126e5565b5181516020939093036101000a60001901801990911692169190911790526040519201829003909120600285015414925061274191505057600080fd5b805460ff19166002178155600682015461275c906001612938565b6006830155604051339085907f6015745e681a62abea4683f9e7537f49cbe7c45deb000bdaf9abf069896cd95590612795908790613e5e565b60405180910390a350505050565b33600090815260096020526040812054600160a060020a03168015156127c857600080fd5b600260009054906101000a9004600160a060020a0316600160a060020a031663858fb57c3383600160a060020a031663e2d36ef56040518163ffffffff1660e060020a028152600401602060405180830381600087803b15801561282b57600080fd5b505af115801561283f573d6000803e3d6000fd5b505050506040513d601f19601f820116820180604052506128639190810190613bb6565b6040518363ffffffff1660e060020a028152600401612883929190613e35565b600060405180830381600087803b15801561289d57600080fd5b505af11580156128b1573d6000803e3d6000fd5b505033600081815260096020526040908190208054600160a060020a031916905551600160a060020a03851693507f59c4939508149b103b5e3a2e3f385ff89014721ec611b843a954ba6b87e5fa1a925061290c9190613e27565b60405180910390a2600191505b5090565b600960205260009081526040902054600160a060020a031681565b60008282018381101561294757fe5b8091505b5092915050565b600080831515612965576000915061294b565b5082820282848281151561297557fe5b041461294757fe5b604080517ff8f9cbfae6cc78fbefe7cdc3a1793dfcf4f0e8bbd8cec470b6a28a7a5a3e1efd81527ff5ecf1b3e9debc68e1d9cfabc5997135bfb7a7a3938b7b606b5b4b3f2f1f0ffe60208201527ff6e4ed9ff2d6b458eadcdf97bd91692de2d4da8fd2d0ac50c6ae9a8272523616818301527fc8c0b887b0a8a4489c948c7f847c6125746c645c544c444038302820181008ff60608201527ff7cae577eec2a03cf3bad76fb589591debb2dd67e0aa9834bea6925f6a4a2e0e60808201527fe39ed557db96902cd38ed14fad815115c786af479b7e8324736353433727170760a08201527fc976c13bb96e881cb166a933a55e490d9d56952b8d4e801485467d236242260660c08201527f753a6d1b65325d0c552a4d1345224105391a310b29122104190a11030902010060e08201526101008082019092527f0100000000000000000000000000000000000000000000000000000000000000600170010000000000000000000000000000000068010000000000000000640100000000620100006010600460026000198c019081041790810417908104178881041790810417908104179081041790810417017e818283848586878898a8b8c8d8e8f929395969799a9b9d9e9faaeb6bedeeff0281900460ff0390910151047f8000000000000000000000000000000000000000000000000000000000000000909211020190565b612b88613361565b612b9061332a565b600083815260066020526040808220815161012081019092528054839283928392839283929091829060ff166004811115612bc757fe5b6004811115612bd257fe5b8152600182015460208083019190915260028301546040808401919091526003840154606084015260048401546080840152600584015460a0840152600684015460c0840152600784015460e0840152600884018054825181850281018501909352808352610100909401939192909190830182828015612c7c57602002820191906000526020600020905b8154600160a060020a03168152600190910190602001808311612c5e575b50505091909252505060025460208301516040517fc8d96729000000000000000000000000000000000000000000000000000000008152939b50600160a060020a039091169263c8d967299250612cd69190600401613e5e565b60c060405180830381600087803b158015612cf057600080fd5b505af1158015612d04573d6000803e3d6000fd5b505050506040513d601f19601f82011682018060405250612d289190810190613b63565b60025460208a015160405160e160020a635ba430d902815292995060009650600160a060020a039091169163b74861b291612d6591600401613e5e565b600060405180830381600087803b158015612d7f57600080fd5b505af1158015612d93573d6000803e3d6000fd5b505050506040513d6000823e601f3d908101601f19168201604052612dbb9190810190613b81565b60400151604001519250600095505b87610100015151861015612e9157610100880151805187908110612dea57fe5b602090810290910101519450600260008a8152600760209081526040808320600160a060020a038a16845290915290205460ff166003811115612e2957fe5b1415612e6d576000898152600760209081526040808320600160a060020a0389168452909152902060050154612e6690859063ffffffff61293816565b9350612e86565b6080870151612e8390849063ffffffff61293816565b92505b856001019550612dca565b60008411612e9e57600080fd5b612ec6612eb98860a00151606461322890919063ffffffff16565b849063ffffffff61323a16565b9150600095505b8761010001515186101561319d57610100880151805187908110612eed57fe5b602090810290910101519450600260008a8152600760209081526040808320600160a060020a038a16845290915290205460ff166003811115612f2c57fe5b1415613077576000898152600760209081526040808320600160a060020a0389168452909152902060050154612f6a9083908663ffffffff61324416565b9050612f7c838263ffffffff61322816565b60025460208a01516040517f83729251000000000000000000000000000000000000000000000000000000008152929550600160a060020a0390911691638372925191612fcf9189908690600401613e87565b600060405180830381600087803b158015612fe957600080fd5b505af1158015612ffd573d6000803e3d6000fd5b505050600160a060020a03861660009081526008602052604090205461302b9150600163ffffffff61293816565b600160a060020a03861660008181526008602052604080822093909355915190918b917fec4b8b967fd4d4d4a20f52e4196809830e91c3ab6be74b2278c88217c030a9039190a3613192565b60025460208901516040517f0d0c233c000000000000000000000000000000000000000000000000000000008152600160a060020a0390921691630d0c233c916130c5918990600401613e6c565b600060405180830381600087803b1580156130df57600080fd5b505af11580156130f3573d6000803e3d6000fd5b505050600160a060020a03861660009081526008602052604090205461314a915061312590603263ffffffff61326116565b600160a060020a0387166000908152600860205260409020549063ffffffff61322816565b600160a060020a03861660008181526008602052604080822093909355915190918b917fdc393bb39360ed615235788315b4656637a4f73d23c52bd35b195c01338e803e9190a35b856001019550612ecd565b60025460208901516040517f4a8e362e000000000000000000000000000000000000000000000000000000008152600160a060020a0390921691634a8e362e916131eb918790600401613eaf565b600060405180830381600087803b15801561320557600080fd5b505af1158015613219573d6000803e3d6000fd5b50505050505050505050505050565b60008282111561323457fe5b50900390565b6000610722838360645b60006132596132538585612952565b83613277565b949350505050565b60008183106132705781610722565b5090919050565b600080828481151561328557fe5b04949350505050565b828054600181600116156101000203166002900490600052602060002090601f016020900481019282601f106132cf57805160ff19168380011785556132fc565b828001600101855582156132fc579182015b828111156132fc5782518255916020019190600101906132e1565b50612919929150613465565b6060604051908101604052806060815260200160608152602001600081525090565b60c0604051908101604052806000815260200160008152602001600081526020016000815260200160008152602001600081525090565b604080516101208101909152806000815260200160008019168152602001600081526020016000815260200160008019168152602001600081526020016000815260200160008152602001606081525090565b6101e0604051908101604052806133c961347f565b81526020016133d661347f565b81526020016133e361347f565b815260200160008152602001600081526020016000600160a060020a031681526020016000600160a060020a031681526020016000600160a060020a03168152602001606081525090565b6040805160c08101909152806000815260006020820181905260408201819052606082018190526080820181905260a09091015290565b611bfb91905b80821115612919576000815560010161346b565b604080516060810182526000808252602082018190529181019190915290565b60006107228235614039565b60006107228251614039565b60006107228251614045565b60006107228235611bfb565b60006107228235614068565b6000601f820183136134ec57600080fd5b81516134ff6134fa82614007565b613fe0565b9150808252602083016020830185838301111561351b57600080fd5b6112bd838284614095565b6000601f8201831361353757600080fd5b81356135456134fa82614007565b9150808252602083016020830185838301111561356157600080fd5b6112bd838284614089565b60006040828403121561357e57600080fd5b6135886040613fe0565b9050600061359684846137e8565b82525060206135a7848483016137e8565b60208301525092915050565b600060c082840312156135c557600080fd5b6135cf60c0613fe0565b905060006135dd84846137e8565b82525060206135ee848483016137e8565b6020830152506040613602848285016137e8565b6040830152506060613616848285016137e8565b606083015250608061362a848285016137e8565b60808301525060a061363e848285016137e8565b60a08301525092915050565b60006101e0828403121561365d57600080fd5b613668610120613fe0565b90506000613676848461373e565b82525060606136878484830161373e565b60208301525060c061369b8482850161373e565b6040830152506101206136b0848285016137e8565b6060830152506101406136c5848285016137e8565b6080830152506101606136da848285016134ab565b60a0830152506101806136ef848285016134ab565b60c0830152506101a0613704848285016134ab565b60e0830152506101c082015167ffffffffffffffff81111561372557600080fd5b613731848285016134db565b6101008301525092915050565b60006060828403121561375057600080fd5b61375a6060613fe0565b9050600061376884846134ab565b8252506020613779848483016134ab565b602083015250604061378d848285016137e8565b60408301525092915050565b6000606082840312156137ab57600080fd5b6137b56060613fe0565b905060006137c384846137f4565b82525060206137d4848483016134c3565b602083015250604061378d848285016134c3565b60006107228251611bfb565b60006107228235614062565b60006020828403121561381257600080fd5b6000613259848461349f565b60006020828403121561383057600080fd5b600061325984846134ab565b60008060006060848603121561385157600080fd5b600061385d868661349f565b935050602061386e8682870161349f565b925050604061387f8682870161349f565b9150509250925092565b6000806000806080858703121561389f57600080fd5b60006138ab878761349f565b94505060206138bc8782880161349f565b93505060406138cd8782880161349f565b92505060606138de8782880161349f565b91505092959194509250565b6000602082840312156138fc57600080fd5b600061325984846134b7565b60006020828403121561391a57600080fd5b600061325984846134c3565b6000806040838503121561393957600080fd5b600061394585856134c3565b92505060206139568582860161349f565b9150509250929050565b6000806040838503121561397357600080fd5b600061397f85856134c3565b9250506020613956858286016134c3565b60008060008060008061014087890312156139aa57600080fd5b60006139b689896134c3565b96505060206139c789828a016134c3565b95505060406139d889828a016134c3565b94505060606139e989828a0161349f565b93505060806139fa89828a01613799565b92505060e0613a0b89828a01613799565b9150509295509295509295565b60008060008060808587031215613a2e57600080fd5b6000613a3a87876134c3565b945050602085013567ffffffffffffffff811115613a5757600080fd5b613a6387828801613526565b935050604085013567ffffffffffffffff811115613a8057600080fd5b613a8c87828801613526565b925050606085013567ffffffffffffffff811115613aa957600080fd5b6138de87828801613526565b600060208284031215613ac757600080fd5b600061325984846134cf565b600080600060608486031215613ae857600080fd5b833567ffffffffffffffff811115613aff57600080fd5b613b0b86828701613526565b935050602084013567ffffffffffffffff811115613b2857600080fd5b613b3486828701613526565b925050604061387f868287016134c3565b600060408284031215613b5757600080fd5b6000613259848461356c565b600060c08284031215613b7557600080fd5b600061325984846135b3565b600060208284031215613b9357600080fd5b815167ffffffffffffffff811115613baa57600080fd5b6132598482850161364a565b600060208284031215613bc857600080fd5b600061325984846137e8565b613bdd81614039565b82525050565b6000613bee82614035565b808452602084019350613c008361402f565b60005b82811015613c3057613c16868351613bd4565b613c1f8261402f565b602096909601959150600101613c03565b5093949350505050565b613bdd81614045565b613bdd81611bfb565b613bdd81614068565b613bdd81614073565b613bdd8161407e565b6000613c7282614035565b808452613c86816020860160208601614095565b613c8f816140c1565b9093016020019392505050565b8051606080845260009190840190613cb48282613c67565b91505060208301518482036020860152613cce8282613c67565b9150506040830151613ce36040860182613c43565b509392505050565b805160c0830190613cfc8482613c55565b506020820151613d0f6020850182613c43565b506040820151613d226040850182613c43565b506060820151613d356060850182613bd4565b506080820151613d486080850182613c43565b5060a0820151613d5b60a0850182613c43565b50505050565b8051600090610120840190613d768582613c5e565b506020830151613d896020860182613c43565b506040830151613d9c6040860182613c43565b506060830151613daf6060860182613c43565b506080830151613dc26080860182613c43565b5060a0830151613dd560a0860182613c43565b5060c0830151613de860c0860182613c43565b5060e0830151613dfb60e0860182613c43565b50610100830151848203610100860152613e158282613be3565b95945050505050565b613bdd81614062565b60208101611ebe8284613bd4565b60408101613e438285613bd4565b6107226020830184613c43565b60208101611ebe8284613c3a565b60208101611ebe8284613c43565b60408101613e7a8285613c43565b6107226020830184613bd4565b60608101613e958286613c43565b613ea26020830185613bd4565b6132596040830184613c43565b60408101613e438285613c43565b60808101613ecb8287613c43565b613ed86020830186613e1e565b613ee56040830185613c43565b613e156060830184613c43565b60208101611ebe8284613c4c565b60608082528101613f118186613c67565b90508181036020830152613f258185613c67565b90508181036040830152613e158184613c67565b60608082528101613f4a8186613c67565b90508181036020830152613f5e8185613c67565b90506132596040830184613c43565b602080825281016107228184613c9c565b60c08101611ebe8284613ceb565b602080825281016107228184613d61565b60808101613fab8287613c43565b8181036020830152613fbd8186613c67565b90508181036040830152613fd18185613c67565b9050613e156060830184613c43565b60405181810167ffffffffffffffff81118282101715613fff57600080fd5b604052919050565b600067ffffffffffffffff82111561401e57600080fd5b506020601f91909101601f19160190565b60200190565b5190565b600160a060020a031690565b151590565b60006004821061291957fe5b60006005821061291957fe5b60ff1690565b6000611ebe82614039565b6000611ebe8261404a565b6000611ebe82614056565b82818337506000910152565b60005b838110156140b0578181015183820152602001614098565b83811115613d5b5750506000910152565b601f01601f1916905600a265627a7a72305820cc24308ba4cf951dc4e1ef189967fe8267b966be636bc0e2bd42594b3b30c7706c6578706572696d656e74616cf50037",
  "source": "pragma solidity ^0.4.24;\npragma experimental ABIEncoderV2;\n\nimport \"./tools/IexecODBLibCore.sol\";\nimport \"./tools/IexecODBLibOrders.sol\";\nimport \"./tools/SafeMathOZ.sol\";\n\nimport \"./CategoryManager.sol\";\n\nimport \"./IexecClerk.sol\";\nimport \"./registries/RegistryBase.sol\";\n/* import \"./registries/DappRegistry.sol\"; */\n/* import \"./registries/DataRegistry.sol\"; */\n/* import \"./registries/PoolRegistry.sol\"; */\n\ncontract IexecHub is CategoryManager\n{\n\tusing SafeMathOZ for uint256;\n\n\t/***************************************************************************\n\t *                                Constants                                *\n\t ***************************************************************************/\n\tuint256 public constant SCORE_UNITARY_SLASH      = 50;\n\tuint256 public constant CONSENSUS_DURATION_RATIO = 10;\n\tuint256 public constant REVEAL_DURATION_RATIO    = 2;\n\n\t/***************************************************************************\n\t *                             Other contracts                             *\n\t ***************************************************************************/\n\tIexecClerk   public iexecclerk;\n\tRegistryBase public dappregistry;\n\tRegistryBase public dataregistry;\n\tRegistryBase public poolregistry;\n\t/* DappRegistry dappregistry; */\n\t/* DataRegistry dataregistry; */\n\t/* PoolRegistry poolregistry; */\n\n\t/***************************************************************************\n\t *                               Consensuses                               *\n\t ***************************************************************************/\n\tmapping(bytes32 => IexecODBLibCore.Task)                             m_tasks;\n\tmapping(bytes32 => mapping(address => IexecODBLibCore.Contribution)) m_contributions;\n\n\t/***************************************************************************\n\t *                                 Workers                                 *\n\t ***************************************************************************/\n\tmapping(address => uint256) public m_workerScores;\n\tmapping(address => address) public m_workerAffectations;\n\n\t/***************************************************************************\n\t *                                 Events                                  *\n\t ***************************************************************************/\n\tevent ConsensusInitialize       (bytes32 indexed taskid, address indexed pool);\n\tevent ConsensusAllowContribution(bytes32 indexed taskid, address indexed worker);\n\tevent ConsensusContribute       (bytes32 indexed taskid, address indexed worker, bytes32 resultHash);\n\tevent ConsensusRevealConsensus  (bytes32 indexed taskid, bytes32 consensus);\n\tevent ConsensusReveal           (bytes32 indexed taskid, address indexed worker, bytes32 result);\n\tevent ConsensusReopen           (bytes32 indexed taskid);\n\tevent ConsensusFinalized        (bytes32 indexed taskid, string stdout, string stderr, string uri);\n\tevent ConsensusClaimed          (bytes32 indexed taskid);\n\tevent AccurateContribution      (bytes32 indexed taskid, address indexed worker);\n\tevent FaultyContribution        (bytes32 indexed taskid, address indexed worker);\n\n\tevent WorkerSubscription  (address indexed pool, address worker);\n\tevent WorkerUnsubscription(address indexed pool, address worker);\n\tevent WorkerEviction      (address indexed pool, address worker);\n\n\t/***************************************************************************\n\t *                                Modifiers                                *\n\t ***************************************************************************/\n\tmodifier onlyScheduler(bytes32 _taskid)\n\t{\n\t\trequire(msg.sender == iexecclerk.viewDeal(m_tasks[_taskid].dealid).pool.owner);\n\t\t_;\n\t}\n\n\t/***************************************************************************\n\t *                               Constructor                               *\n\t ***************************************************************************/\n\tconstructor()\n\tpublic\n\t{\n\t}\n\n\tfunction attachContracts(\n\t\taddress _iexecclerkAddress,\n\t\taddress _dappRegistryAddress,\n\t\taddress _dataRegistryAddress,\n\t\taddress _poolRegistryAddress)\n\tpublic onlyOwner\n\t{\n\t\trequire(address(iexecclerk) == address(0));\n\t\tiexecclerk   = IexecClerk  (_iexecclerkAddress  );\n\t\tdappregistry = RegistryBase(_dappRegistryAddress);\n\t\tdataregistry = RegistryBase(_dataRegistryAddress);\n\t\tpoolregistry = RegistryBase(_poolRegistryAddress);\n\t}\n\n\t/***************************************************************************\n\t *                                Accessors                                *\n\t ***************************************************************************/\n\tfunction viewTask(bytes32 _taskid)\n\tpublic view returns (IexecODBLibCore.Task)\n\t{\n\t\treturn m_tasks[_taskid];\n\t}\n\n\tfunction viewContribution(bytes32 _taskid, address _worker)\n\tpublic view returns (IexecODBLibCore.Contribution)\n\t{\n\t\treturn m_contributions[_taskid][_worker];\n\t}\n\n\tfunction viewScore(address _worker)\n\tpublic view returns (uint256)\n\t{\n\t\treturn m_workerScores[_worker];\n\t}\n\n\tfunction viewAffectation(address _worker)\n\tpublic view returns (Pool)\n\t{\n\t\treturn Pool(m_workerAffectations[_worker]);\n\t}\n\n\tfunction checkResources(address daap, address data, address pool)\n\tpublic view returns (bool)\n\t{\n\t\trequire(                      dappregistry.isRegistered(daap));\n\t\trequire(data == address(0) || dataregistry.isRegistered(data));\n\t\trequire(                      poolregistry.isRegistered(pool));\n\t\treturn true;\n\t}\n\n\t/***************************************************************************\n\t *                            Consensus methods                            *\n\t ***************************************************************************/\n\tfunction initialize(bytes32 _dealid, uint256 idx)\n\tpublic returns (bytes32)\n\t{\n\t\tIexecODBLibCore.Config memory config = iexecclerk.viewConfig(_dealid);\n\n\t\trequire(idx >= config.botFirst                    );\n\t\trequire(idx <  config.botFirst.add(config.botSize));\n\n\t\tbytes32 taskid = keccak256(abi.encodePacked(_dealid, idx));\n\n\t\tIexecODBLibCore.Task storage task = m_tasks[taskid];\n\t\trequire(task.status == IexecODBLibCore.TaskStatusEnum.UNSET);\n\t\ttask.status            = IexecODBLibCore.TaskStatusEnum.ACTIVE;\n\t\ttask.dealid            = _dealid;\n\t\ttask.idx               = idx;\n\t\ttask.consensusDeadline = viewCategory(config.category).workClockTimeRef\n\t\t                         .mul(CONSENSUS_DURATION_RATIO)\n\t\t                         .add(config.startTime);\n\n\t\temit ConsensusInitialize(taskid, iexecclerk.viewDeal(_dealid).pool.pointer);\n\n\t\treturn taskid;\n\t}\n\n\tfunction signedContribute(\n\t\tbytes32                     _taskid,\n\t\tbytes32                     _resultHash,\n\t\tbytes32                     _resultSign,\n\t\taddress                     _enclaveChallenge,\n\t\tIexecODBLibOrders.signature _enclaveSign,\n\t\tIexecODBLibOrders.signature _poolSign)\n\tpublic\n\t{\n\t\tIexecODBLibCore.Task         storage task         = m_tasks[_taskid];\n\t\tIexecODBLibCore.Contribution storage contribution = m_contributions[_taskid][msg.sender];\n\t\tIexecODBLibCore.Deal         memory  deal         = iexecclerk.viewDeal(task.dealid);\n\n\t\trequire(task.status            == IexecODBLibCore.TaskStatusEnum.ACTIVE       );\n\t\trequire(task.consensusDeadline >  now                                         );\n\t\trequire(contribution.status    == IexecODBLibCore.ContributionStatusEnum.UNSET);\n\n\t\t// Check that the worker + taskid + enclave combo is authorized to contribute (scheduler signature)\n\t\t// Skip check if authorized?\n\t\trequire(deal.pool.owner == ecrecover(\n\t\t\tkeccak256(abi.encodePacked(\n\t\t\t\t\"\\x19Ethereum Signed Message:\\n32\",\n\t\t\t\tkeccak256(abi.encodePacked(\n\t\t\t\t\tmsg.sender,\n\t\t\t\t\t_taskid,\n\t\t\t\t\t_enclaveChallenge\n\t\t\t\t))\n\t\t\t)),\n\t\t\t_poolSign.v,\n\t\t\t_poolSign.r,\n\t\t\t_poolSign.s)\n\t\t);\n\n\t\t// worker must be subscribed to the pool, keep?\n\t\trequire(m_workerAffectations[msg.sender] == deal.pool.pointer);\n\n\t\t// Not needed\n\t\t/* require(_resultHash != 0x0); */\n\t\t/* require(_resultSign != 0x0); */\n\n\t\t// need enclave challenge if tag is set\n\t\trequire(_enclaveChallenge != address(0) || deal.tag & 0x1 == 0);\n\n\t\t// Check enclave signature\n\t\tif (_enclaveChallenge != address(0))\n\t\t{\n\t\t\trequire(_enclaveChallenge == ecrecover(\n\t\t\t\tkeccak256(abi.encodePacked(\n\t\t\t\t\t\"\\x19Ethereum Signed Message:\\n32\",\n\t\t\t\t\tkeccak256(abi.encodePacked(\n\t\t\t\t\t_resultHash,\n\t\t\t\t\t_resultSign\n\t\t\t\t\t))\n\t\t\t\t)),\n\t\t\t\t_enclaveSign.v,\n\t\t\t\t_enclaveSign.r,\n\t\t\t\t_enclaveSign.s)\n\t\t\t);\n\t\t}\n\n\t\t// update contribution entry\n\t\tcontribution.status           = IexecODBLibCore.ContributionStatusEnum.CONTRIBUTED;\n\t\tcontribution.enclaveChallenge = _enclaveChallenge;\n\t\tcontribution.resultHash       = _resultHash;\n\t\tcontribution.resultSign       = _resultSign;\n\t\tcontribution.score            = m_workerScores[msg.sender].mul(contribution.enclaveChallenge != address(0) ? 3 : 1);\n\t\tcontribution.weight           = 1 + contribution.score.log();\n\t\ttask.contributors.push(msg.sender);\n\n\t\tiexecclerk.lockContribution(task.dealid, msg.sender);\n\n\t\temit ConsensusContribute(_taskid, msg.sender, _resultHash);\n\t}\n\n\tfunction revealConsensus(\n\t\tbytes32 _taskid,\n\t\tbytes32 _consensus)\n\tpublic onlyScheduler(_taskid)\n\t{\n\t\tIexecODBLibCore.Task storage task = m_tasks[_taskid];\n\t\trequire(task.status            == IexecODBLibCore.TaskStatusEnum.ACTIVE);\n\t\trequire(task.consensusDeadline >  now                                  );\n\n\t\tuint256 winnerCounter = 0;\n\t\tfor (uint256 i = 0; i<task.contributors.length; ++i)\n\t\t{\n\t\t\taddress w = task.contributors[i];\n\t\t\tif (\n\t\t\t\tm_contributions[_taskid][w].resultHash == _consensus\n\t\t\t\t&&\n\t\t\t\tm_contributions[_taskid][w].status == IexecODBLibCore.ContributionStatusEnum.CONTRIBUTED // REJECTED contribution must not be count\n\t\t\t)\n\t\t\t{\n\t\t\t\twinnerCounter = winnerCounter.add(1);\n\t\t\t}\n\t\t}\n\t\trequire(winnerCounter > 0); // you cannot revealConsensus if no worker has contributed to this hash\n\n\t\ttask.status         = IexecODBLibCore.TaskStatusEnum.REVEALING;\n\t\ttask.consensusValue = _consensus;\n\t\ttask.revealDeadline = viewCategory(iexecclerk.viewConfig(task.dealid).category).workClockTimeRef\n\t\t                           .mul(REVEAL_DURATION_RATIO)\n\t\t                           .add(now);\n\t\ttask.revealCounter  = 0;\n\t\ttask.winnerCounter  = winnerCounter;\n\n\t\temit ConsensusRevealConsensus(_taskid, _consensus);\n\t}\n\n\tfunction reveal(\n\t\tbytes32 _taskid,\n\t\tbytes32 _result)\n\t\t/*\n\t\t// TODO: results for oracle?\n\t\tbytes _result)\n\t\t*/\n\tpublic // worker\n\t{\n\t\tIexecODBLibCore.Task         storage task         = m_tasks[_taskid];\n\t\tIexecODBLibCore.Contribution storage contribution = m_contributions[_taskid][msg.sender];\n\t\trequire(task.status             == IexecODBLibCore.TaskStatusEnum.REVEALING            );\n\t\trequire(task.consensusDeadline  >  now                                                 );\n\t\trequire(task.revealDeadline     >  now                                                 );\n\t\trequire(contribution.status     == IexecODBLibCore.ContributionStatusEnum.CONTRIBUTED  );\n\t\trequire(contribution.resultHash == task.consensusValue                                 );\n\t\trequire(contribution.resultHash == keccak256(abi.encodePacked(            _result))    );\n\t\trequire(contribution.resultSign == keccak256(abi.encodePacked(msg.sender, _result))    );\n\n\t\tcontribution.status     = IexecODBLibCore.ContributionStatusEnum.PROVED;\n\t\ttask.revealCounter = task.revealCounter.add(1);\n\n\t\t/*\n\t\t// TODO: results for oracle?\n\t\tif (task.result == bytes(0)) task.result = _results;\n\t\t*/\n\n\t\temit ConsensusReveal(_taskid, msg.sender, _result);\n\t}\n\n\tfunction reopen(\n\t\tbytes32 _taskid)\n\tpublic onlyScheduler(_taskid)\n\t{\n\t\tIexecODBLibCore.Task storage task = m_tasks[_taskid];\n\t\trequire(task.status            == IexecODBLibCore.TaskStatusEnum.REVEALING);\n\t\trequire(task.consensusDeadline >  now                                     );\n\t\trequire(task.revealDeadline    <= now\n\t\t     && task.revealCounter     == 0                                       );\n\n\t\tfor (uint256 i = 0; i < task.contributors.length; ++i)\n\t\t{\n\t\t\taddress worker = task.contributors[i];\n\t\t\tif (m_contributions[_taskid][worker].resultHash == task.consensusValue)\n\t\t\t{\n\t\t\t\tm_contributions[_taskid][worker].status = IexecODBLibCore.ContributionStatusEnum.REJECTED;\n\t\t\t}\n\t\t}\n\n\t\ttask.status         = IexecODBLibCore.TaskStatusEnum.ACTIVE;\n\t\ttask.consensusValue = 0x0;\n\t\ttask.revealDeadline = 0;\n\t\ttask.winnerCounter  = 0;\n\n\t\temit ConsensusReopen(_taskid);\n\t}\n\n\tfunction finalizeWork(\n\t\tbytes32 _taskid,\n\t\tstring  _stdout,\n\t\tstring  _stderr,\n\t\tstring  _uri)\n\tpublic onlyScheduler(_taskid)\n\t{\n\t\tIexecODBLibCore.Task storage task = m_tasks[_taskid];\n\t\trequire(task.status            == IexecODBLibCore.TaskStatusEnum.REVEALING);\n\t\trequire(task.consensusDeadline >  now                                 );\n\t\trequire(task.revealCounter     == task.winnerCounter\n\t\t    || (task.revealCounter     >  0  && task.revealDeadline <= now)   );\n\n\t\ttask.status = IexecODBLibCore.TaskStatusEnum.COMPLETED;\n\n\t\t/**\n\t\t * Stake and reward management\n\t\t */\n\t\tiexecclerk.successWork(task.dealid);\n\t\t__distributeRewards(_taskid);\n\n\t\temit ConsensusFinalized(_taskid, _stdout, _stderr, _uri);\n\t}\n\n\t/*\n\tfunction resultFor(bytes32 id) external view returns (bytes result)\n\t{\n\t\tIexecODBLibCore.Task storage task = m_tasks[id];\n\t\trequire(task.status == IexecODBLibCore.TaskStatusEnum.COMPLETED);\n\t\treturn task.results;\n\t}\n\t*/\n\n\tfunction claimfailed(\n\t\tbytes32 _taskid)\n\tpublic\n\t{\n\t\tIexecODBLibCore.Task storage task = m_tasks[_taskid];\n\t\trequire(task.status == IexecODBLibCore.TaskStatusEnum.ACTIVE\n\t\t     || task.status == IexecODBLibCore.TaskStatusEnum.REVEALING);\n\t\trequire(task.consensusDeadline <= now);\n\n\t\ttask.status = IexecODBLibCore.TaskStatusEnum.FAILLED;\n\n\t\t/**\n\t\t * Stake management\n\t\t */\n\t\tiexecclerk.failedWork(task.dealid);\n\t\tfor (uint256 i = 0; i < task.contributors.length; ++i)\n\t\t{\n\t\t\taddress worker = task.contributors[i];\n\t\t\tiexecclerk.unlockContribution(task.dealid, worker);\n\t\t}\n\n\t\temit ConsensusClaimed(_taskid);\n\t}\n\n\tfunction __distributeRewards(bytes32 _taskid)\n\tprivate\n\t{\n\t\tIexecODBLibCore.Task   memory task   = m_tasks[_taskid];\n\t\tIexecODBLibCore.Config memory config = iexecclerk.viewConfig(task.dealid);\n\n\t\tuint256 i;\n\t\taddress worker;\n\n\t\tuint256 totalWeight = 0;\n\t\tuint256 totalReward = iexecclerk.viewDeal(task.dealid).pool.price;\n\n\t\tfor (i = 0; i<task.contributors.length; ++i)\n\t\t{\n\t\t\tworker = task.contributors[i];\n\t\t\tif (m_contributions[_taskid][worker].status == IexecODBLibCore.ContributionStatusEnum.PROVED)\n\t\t\t{\n\t\t\t\ttotalWeight = totalWeight.add(m_contributions[_taskid][worker].weight);\n\t\t\t}\n\t\t\telse // ContributionStatusEnum.REJECT or ContributionStatusEnum.CONTRIBUTED (not revealed)\n\t\t\t{\n\t\t\t\ttotalReward = totalReward.add(config.workerStake);\n\t\t\t}\n\t\t}\n\t\trequire(totalWeight > 0);\n\n\t\t// compute how much is going to the workers\n\t\tuint256 workersReward = totalReward.percentage(uint256(100).sub(config.schedulerRewardRatio));\n\n\t\tfor (i = 0; i<task.contributors.length; ++i)\n\t\t{\n\t\t\tworker = task.contributors[i];\n\t\t\tif (m_contributions[_taskid][worker].status == IexecODBLibCore.ContributionStatusEnum.PROVED)\n\t\t\t{\n\t\t\t\tuint256 workerReward = workersReward.mulByFraction(m_contributions[_taskid][worker].weight, totalWeight);\n\t\t\t\ttotalReward          = totalReward.sub(workerReward);\n\n\t\t\t\tiexecclerk.unlockAndRewardForContribution(task.dealid, worker, workerReward);\n\t\t\t\tm_workerScores[worker] = m_workerScores[worker].add(1);\n\t\t\t\temit AccurateContribution(_taskid, worker);\n\t\t\t}\n\t\t\telse // WorkStatusEnum.POCO_REJECT or ContributionStatusEnum.CONTRIBUTED (not revealed)\n\t\t\t{\n\t\t\t\t// No Reward\n\t\t\t\tiexecclerk.seizeContribution(task.dealid, worker);\n\t\t\t\tm_workerScores[worker] = m_workerScores[worker].sub(m_workerScores[worker].min(SCORE_UNITARY_SLASH));\n\t\t\t\temit FaultyContribution(_taskid, worker);\n\t\t\t}\n\t\t}\n\t\t// totalReward now contains the scheduler share\n\t\tiexecclerk.rewardForScheduling(task.dealid, totalReward);\n\t}\n\n\t/***************************************************************************\n\t *                       Worker affectation methods                        *\n\t ***************************************************************************/\n\tfunction subscribe(Pool _pool)\n\tpublic returns (bool)\n\t{\n\t\t// check pools validity\n\t\trequire(poolregistry.isRegistered(_pool));\n\n\t\t// check worker is not previously affected: AUTO unsubscribe ???\n\t\trequire(m_workerAffectations[msg.sender] == address(0));\n\n\t\t// Lock stake & check funds/reputation\n\t\tiexecclerk.lockSubscription(msg.sender, _pool.m_subscriptionLockStakePolicy());\n\t\trequire(iexecclerk.viewAccount(msg.sender).stake >= _pool.m_subscriptionMinimumStakePolicy());\n\t\trequire(m_workerScores[msg.sender]               >= _pool.m_subscriptionMinimumScorePolicy());\n\n\t\t// update affectation\n\t\tm_workerAffectations[msg.sender] = address(_pool);\n\n\t\temit WorkerSubscription(address(_pool), msg.sender);\n\t\treturn true;\n\t}\n\n\tfunction unsubscribe()\n\tpublic returns (bool)\n\t{\n\t\t// check affectation\n\t\tPool pool = Pool(m_workerAffectations[msg.sender]);\n\t\trequire(address(pool) != address(0));\n\n\t\t// Unlock stake\n\t\tiexecclerk.unlockSubscription(msg.sender, pool.m_subscriptionLockStakePolicy());\n\n\t\t// update affectation\n\t\tm_workerAffectations[msg.sender] = address(0);\n\n\t\temit WorkerUnsubscription(address(pool), msg.sender);\n\t\treturn true;\n\t}\n\n\tfunction evict(address _worker)\n\tpublic returns (bool)\n\t{\n\t\t// check affectation & authorization\n\t\tPool pool = Pool(m_workerAffectations[_worker]);\n\t\trequire(address(pool)  != address(0));\n\t\trequire(pool.m_owner() == msg.sender);\n\n\t\t// Unlock stake\n\t\tiexecclerk.unlockSubscription(_worker, pool.m_subscriptionLockStakePolicy());\n\n\t\t// update affectation\n\t\tm_workerAffectations[_worker] = address(0);\n\n\t\temit WorkerEviction(address(pool), _worker);\n\t\treturn true;\n\t}\n}\n",
  "sourcePath": "/home/amxx/Work/iExec/code/PoCo-dev/contracts/IexecHub.sol",
  "compiler": {
    "name": "solc",
    "version": "0.4.25+commit.59dbf8f1.Emscripten.clang"
  },
  "schemaVersion": "3.0.0-beta.1",
  "updatedAt": "2018-10-05T12:37:37.150Z"
}