{
  "contractName": "IexecClerk",
  "abi": [
    {
      "constant": true,
      "inputs": [],
      "name": "EIP712DOMAIN_SEPARATOR",
      "outputs": [
        {
          "name": "",
          "type": "bytes32"
        }
      ],
      "payable": false,
      "stateMutability": "view",
      "type": "function"
    },
    {
      "constant": false,
      "inputs": [
        {
          "name": "_amount",
          "type": "uint256"
        }
      ],
      "name": "withdraw",
      "outputs": [
        {
          "name": "",
          "type": "bool"
        }
      ],
      "payable": false,
      "stateMutability": "nonpayable",
      "type": "function"
    },
    {
      "constant": true,
      "inputs": [
        {
          "name": "",
          "type": "bytes32"
        }
      ],
      "name": "m_presigned",
      "outputs": [
        {
          "name": "",
          "type": "bool"
        }
      ],
      "payable": false,
      "stateMutability": "view",
      "type": "function"
    },
    {
      "constant": true,
      "inputs": [],
      "name": "KITTY_RATIO",
      "outputs": [
        {
          "name": "",
          "type": "uint256"
        }
      ],
      "payable": false,
      "stateMutability": "view",
      "type": "function"
    },
    {
      "constant": true,
      "inputs": [
        {
          "name": "_user",
          "type": "address"
        }
      ],
      "name": "viewAccount",
      "outputs": [
        {
          "components": [
            {
              "name": "stake",
              "type": "uint256"
            },
            {
              "name": "locked",
              "type": "uint256"
            }
          ],
          "name": "",
          "type": "tuple"
        }
      ],
      "payable": false,
      "stateMutability": "view",
      "type": "function"
    },
    {
      "constant": true,
      "inputs": [],
      "name": "POOL_STAKE_RATIO",
      "outputs": [
        {
          "name": "",
          "type": "uint256"
        }
      ],
      "payable": false,
      "stateMutability": "view",
      "type": "function"
    },
    {
      "constant": true,
      "inputs": [
        {
          "name": "",
          "type": "bytes32"
        }
      ],
      "name": "m_deals",
      "outputs": [
        {
          "components": [
            {
              "name": "pointer",
              "type": "address"
            },
            {
              "name": "owner",
              "type": "address"
            },
            {
              "name": "price",
              "type": "uint256"
            }
          ],
          "name": "dapp",
          "type": "tuple"
        },
        {
          "components": [
            {
              "name": "pointer",
              "type": "address"
            },
            {
              "name": "owner",
              "type": "address"
            },
            {
              "name": "price",
              "type": "uint256"
            }
          ],
          "name": "data",
          "type": "tuple"
        },
        {
          "components": [
            {
              "name": "pointer",
              "type": "address"
            },
            {
              "name": "owner",
              "type": "address"
            },
            {
              "name": "price",
              "type": "uint256"
            }
          ],
          "name": "pool",
          "type": "tuple"
        },
        {
          "name": "trust",
          "type": "uint256"
        },
        {
          "name": "tag",
          "type": "uint256"
        },
        {
          "name": "requester",
          "type": "address"
        },
        {
          "name": "beneficiary",
          "type": "address"
        },
        {
          "name": "callback",
          "type": "address"
        },
        {
          "name": "params",
          "type": "string"
        }
      ],
      "payable": false,
      "stateMutability": "view",
      "type": "function"
    },
    {
      "constant": true,
      "inputs": [],
      "name": "iexechub",
      "outputs": [
        {
          "name": "",
          "type": "address"
        }
      ],
      "payable": false,
      "stateMutability": "view",
      "type": "function"
    },
    {
      "constant": true,
      "inputs": [
        {
          "name": "_user",
          "type": "address"
        }
      ],
      "name": "viewAccountLegacy",
      "outputs": [
        {
          "name": "stake",
          "type": "uint256"
        },
        {
          "name": "locked",
          "type": "uint256"
        }
      ],
      "payable": false,
      "stateMutability": "view",
      "type": "function"
    },
    {
      "constant": true,
      "inputs": [],
      "name": "rlc",
      "outputs": [
        {
          "name": "",
          "type": "address"
        }
      ],
      "payable": false,
      "stateMutability": "view",
      "type": "function"
    },
    {
      "constant": false,
      "inputs": [
        {
          "name": "_amount",
          "type": "uint256"
        }
      ],
      "name": "deposit",
      "outputs": [
        {
          "name": "",
          "type": "bool"
        }
      ],
      "payable": false,
      "stateMutability": "nonpayable",
      "type": "function"
    },
    {
      "constant": true,
      "inputs": [
        {
          "name": "",
          "type": "address"
        }
      ],
      "name": "m_accounts",
      "outputs": [
        {
          "name": "stake",
          "type": "uint256"
        },
        {
          "name": "locked",
          "type": "uint256"
        }
      ],
      "payable": false,
      "stateMutability": "view",
      "type": "function"
    },
    {
      "constant": true,
      "inputs": [
        {
          "name": "",
          "type": "bytes32"
        },
        {
          "name": "",
          "type": "uint256"
        }
      ],
      "name": "m_userdeals",
      "outputs": [
        {
          "name": "",
          "type": "bytes32"
        }
      ],
      "payable": false,
      "stateMutability": "view",
      "type": "function"
    },
    {
      "constant": true,
      "inputs": [
        {
          "name": "",
          "type": "bytes32"
        }
      ],
      "name": "m_configs",
      "outputs": [
        {
          "name": "category",
          "type": "uint256"
        },
        {
          "name": "startTime",
          "type": "uint256"
        },
        {
          "name": "botFirst",
          "type": "uint256"
        },
        {
          "name": "botSize",
          "type": "uint256"
        },
        {
          "name": "workerStake",
          "type": "uint256"
        },
        {
          "name": "schedulerRewardRatio",
          "type": "uint256"
        }
      ],
      "payable": false,
      "stateMutability": "view",
      "type": "function"
    },
    {
      "constant": true,
      "inputs": [],
      "name": "KITTY_MIN",
      "outputs": [
        {
          "name": "",
          "type": "uint256"
        }
      ],
      "payable": false,
      "stateMutability": "view",
      "type": "function"
    },
    {
      "constant": true,
      "inputs": [
        {
          "name": "",
          "type": "bytes32"
        }
      ],
      "name": "m_consumed",
      "outputs": [
        {
          "name": "",
          "type": "uint256"
        }
      ],
      "payable": false,
      "stateMutability": "view",
      "type": "function"
    },
    {
      "inputs": [
        {
          "name": "_rlctoken",
          "type": "address"
        },
        {
          "name": "_iexechub",
          "type": "address"
        }
      ],
      "payable": false,
      "stateMutability": "nonpayable",
      "type": "constructor"
    },
    {
      "anonymous": false,
      "inputs": [
        {
          "indexed": false,
          "name": "dealid",
          "type": "bytes32"
        },
        {
          "indexed": false,
          "name": "dappHash",
          "type": "bytes32"
        },
        {
          "indexed": false,
          "name": "dataHash",
          "type": "bytes32"
        },
        {
          "indexed": false,
          "name": "poolHash",
          "type": "bytes32"
        },
        {
          "indexed": false,
          "name": "userHash",
          "type": "bytes32"
        },
        {
          "indexed": false,
          "name": "volume",
          "type": "uint256"
        }
      ],
      "name": "OrdersMatched",
      "type": "event"
    },
    {
      "anonymous": false,
      "inputs": [
        {
          "indexed": false,
          "name": "dappHash",
          "type": "bytes32"
        }
      ],
      "name": "ClosedDappOrder",
      "type": "event"
    },
    {
      "anonymous": false,
      "inputs": [
        {
          "indexed": false,
          "name": "dataHash",
          "type": "bytes32"
        }
      ],
      "name": "ClosedDataOrder",
      "type": "event"
    },
    {
      "anonymous": false,
      "inputs": [
        {
          "indexed": false,
          "name": "poolHash",
          "type": "bytes32"
        }
      ],
      "name": "ClosedPoolOrder",
      "type": "event"
    },
    {
      "anonymous": false,
      "inputs": [
        {
          "indexed": false,
          "name": "userHash",
          "type": "bytes32"
        }
      ],
      "name": "ClosedUserOrder",
      "type": "event"
    },
    {
      "anonymous": false,
      "inputs": [
        {
          "indexed": true,
          "name": "pool",
          "type": "address"
        },
        {
          "indexed": false,
          "name": "dealid",
          "type": "bytes32"
        }
      ],
      "name": "SchedulerNotice",
      "type": "event"
    },
    {
      "anonymous": false,
      "inputs": [
        {
          "indexed": false,
          "name": "owner",
          "type": "address"
        },
        {
          "indexed": false,
          "name": "amount",
          "type": "uint256"
        }
      ],
      "name": "Deposit",
      "type": "event"
    },
    {
      "anonymous": false,
      "inputs": [
        {
          "indexed": false,
          "name": "owner",
          "type": "address"
        },
        {
          "indexed": false,
          "name": "amount",
          "type": "uint256"
        }
      ],
      "name": "Withdraw",
      "type": "event"
    },
    {
      "anonymous": false,
      "inputs": [
        {
          "indexed": false,
          "name": "user",
          "type": "address"
        },
        {
          "indexed": false,
          "name": "amount",
          "type": "uint256"
        }
      ],
      "name": "Reward",
      "type": "event"
    },
    {
      "anonymous": false,
      "inputs": [
        {
          "indexed": false,
          "name": "user",
          "type": "address"
        },
        {
          "indexed": false,
          "name": "amount",
          "type": "uint256"
        }
      ],
      "name": "Seize",
      "type": "event"
    },
    {
      "constant": true,
      "inputs": [
        {
          "name": "_id",
          "type": "bytes32"
        }
      ],
      "name": "viewUserDeals",
      "outputs": [
        {
          "name": "",
          "type": "bytes32[]"
        }
      ],
      "payable": false,
      "stateMutability": "view",
      "type": "function"
    },
    {
      "constant": true,
      "inputs": [
        {
          "name": "_id",
          "type": "bytes32"
        }
      ],
      "name": "viewDeal",
      "outputs": [
        {
          "components": [
            {
              "components": [
                {
                  "name": "pointer",
                  "type": "address"
                },
                {
                  "name": "owner",
                  "type": "address"
                },
                {
                  "name": "price",
                  "type": "uint256"
                }
              ],
              "name": "dapp",
              "type": "tuple"
            },
            {
              "components": [
                {
                  "name": "pointer",
                  "type": "address"
                },
                {
                  "name": "owner",
                  "type": "address"
                },
                {
                  "name": "price",
                  "type": "uint256"
                }
              ],
              "name": "data",
              "type": "tuple"
            },
            {
              "components": [
                {
                  "name": "pointer",
                  "type": "address"
                },
                {
                  "name": "owner",
                  "type": "address"
                },
                {
                  "name": "price",
                  "type": "uint256"
                }
              ],
              "name": "pool",
              "type": "tuple"
            },
            {
              "name": "trust",
              "type": "uint256"
            },
            {
              "name": "tag",
              "type": "uint256"
            },
            {
              "name": "requester",
              "type": "address"
            },
            {
              "name": "beneficiary",
              "type": "address"
            },
            {
              "name": "callback",
              "type": "address"
            },
            {
              "name": "params",
              "type": "string"
            }
          ],
          "name": "",
          "type": "tuple"
        }
      ],
      "payable": false,
      "stateMutability": "view",
      "type": "function"
    },
    {
      "constant": true,
      "inputs": [
        {
          "name": "_id",
          "type": "bytes32"
        }
      ],
      "name": "viewConfig",
      "outputs": [
        {
          "components": [
            {
              "name": "category",
              "type": "uint256"
            },
            {
              "name": "startTime",
              "type": "uint256"
            },
            {
              "name": "botFirst",
              "type": "uint256"
            },
            {
              "name": "botSize",
              "type": "uint256"
            },
            {
              "name": "workerStake",
              "type": "uint256"
            },
            {
              "name": "schedulerRewardRatio",
              "type": "uint256"
            }
          ],
          "name": "",
          "type": "tuple"
        }
      ],
      "payable": false,
      "stateMutability": "view",
      "type": "function"
    },
    {
      "constant": true,
      "inputs": [
        {
          "name": "_restriction",
          "type": "address"
        },
        {
          "name": "_candidate",
          "type": "address"
        },
        {
          "name": "_mask",
          "type": "bytes1"
        }
      ],
      "name": "checkRestriction",
      "outputs": [
        {
          "name": "",
          "type": "bool"
        }
      ],
      "payable": false,
      "stateMutability": "view",
      "type": "function"
    },
    {
      "constant": true,
      "inputs": [
        {
          "name": "_signer",
          "type": "address"
        },
        {
          "name": "_hash",
          "type": "bytes32"
        },
        {
          "components": [
            {
              "name": "v",
              "type": "uint8"
            },
            {
              "name": "r",
              "type": "bytes32"
            },
            {
              "name": "s",
              "type": "bytes32"
            }
          ],
          "name": "_signature",
          "type": "tuple"
        }
      ],
      "name": "verify",
      "outputs": [
        {
          "name": "",
          "type": "bool"
        }
      ],
      "payable": false,
      "stateMutability": "view",
      "type": "function"
    },
    {
      "constant": false,
      "inputs": [
        {
          "components": [
            {
              "name": "dapp",
              "type": "address"
            },
            {
              "name": "dappprice",
              "type": "uint256"
            },
            {
              "name": "volume",
              "type": "uint256"
            },
            {
              "name": "datarestrict",
              "type": "address"
            },
            {
              "name": "poolrestrict",
              "type": "address"
            },
            {
              "name": "userrestrict",
              "type": "address"
            },
            {
              "name": "salt",
              "type": "bytes32"
            },
            {
              "components": [
                {
                  "name": "v",
                  "type": "uint8"
                },
                {
                  "name": "r",
                  "type": "bytes32"
                },
                {
                  "name": "s",
                  "type": "bytes32"
                }
              ],
              "name": "sign",
              "type": "tuple"
            }
          ],
          "name": "_dapporder",
          "type": "tuple"
        }
      ],
      "name": "signDappOrder",
      "outputs": [
        {
          "name": "",
          "type": "bool"
        }
      ],
      "payable": false,
      "stateMutability": "nonpayable",
      "type": "function"
    },
    {
      "constant": false,
      "inputs": [
        {
          "components": [
            {
              "name": "data",
              "type": "address"
            },
            {
              "name": "dataprice",
              "type": "uint256"
            },
            {
              "name": "volume",
              "type": "uint256"
            },
            {
              "name": "dapprestrict",
              "type": "address"
            },
            {
              "name": "poolrestrict",
              "type": "address"
            },
            {
              "name": "userrestrict",
              "type": "address"
            },
            {
              "name": "salt",
              "type": "bytes32"
            },
            {
              "components": [
                {
                  "name": "v",
                  "type": "uint8"
                },
                {
                  "name": "r",
                  "type": "bytes32"
                },
                {
                  "name": "s",
                  "type": "bytes32"
                }
              ],
              "name": "sign",
              "type": "tuple"
            }
          ],
          "name": "_dataorder",
          "type": "tuple"
        }
      ],
      "name": "signDataOrder",
      "outputs": [
        {
          "name": "",
          "type": "bool"
        }
      ],
      "payable": false,
      "stateMutability": "nonpayable",
      "type": "function"
    },
    {
      "constant": false,
      "inputs": [
        {
          "components": [
            {
              "name": "pool",
              "type": "address"
            },
            {
              "name": "poolprice",
              "type": "uint256"
            },
            {
              "name": "volume",
              "type": "uint256"
            },
            {
              "name": "category",
              "type": "uint256"
            },
            {
              "name": "trust",
              "type": "uint256"
            },
            {
              "name": "tag",
              "type": "uint256"
            },
            {
              "name": "dapprestrict",
              "type": "address"
            },
            {
              "name": "datarestrict",
              "type": "address"
            },
            {
              "name": "userrestrict",
              "type": "address"
            },
            {
              "name": "salt",
              "type": "bytes32"
            },
            {
              "components": [
                {
                  "name": "v",
                  "type": "uint8"
                },
                {
                  "name": "r",
                  "type": "bytes32"
                },
                {
                  "name": "s",
                  "type": "bytes32"
                }
              ],
              "name": "sign",
              "type": "tuple"
            }
          ],
          "name": "_poolorder",
          "type": "tuple"
        }
      ],
      "name": "signPoolOrder",
      "outputs": [
        {
          "name": "",
          "type": "bool"
        }
      ],
      "payable": false,
      "stateMutability": "nonpayable",
      "type": "function"
    },
    {
      "constant": false,
      "inputs": [
        {
          "components": [
            {
              "name": "dapp",
              "type": "address"
            },
            {
              "name": "dappmaxprice",
              "type": "uint256"
            },
            {
              "name": "data",
              "type": "address"
            },
            {
              "name": "datamaxprice",
              "type": "uint256"
            },
            {
              "name": "pool",
              "type": "address"
            },
            {
              "name": "poolmaxprice",
              "type": "uint256"
            },
            {
              "name": "requester",
              "type": "address"
            },
            {
              "name": "volume",
              "type": "uint256"
            },
            {
              "name": "category",
              "type": "uint256"
            },
            {
              "name": "trust",
              "type": "uint256"
            },
            {
              "name": "tag",
              "type": "uint256"
            },
            {
              "name": "beneficiary",
              "type": "address"
            },
            {
              "name": "callback",
              "type": "address"
            },
            {
              "name": "params",
              "type": "string"
            },
            {
              "name": "salt",
              "type": "bytes32"
            },
            {
              "components": [
                {
                  "name": "v",
                  "type": "uint8"
                },
                {
                  "name": "r",
                  "type": "bytes32"
                },
                {
                  "name": "s",
                  "type": "bytes32"
                }
              ],
              "name": "sign",
              "type": "tuple"
            }
          ],
          "name": "_userorder",
          "type": "tuple"
        }
      ],
      "name": "signUserOrder",
      "outputs": [
        {
          "name": "",
          "type": "bool"
        }
      ],
      "payable": false,
      "stateMutability": "nonpayable",
      "type": "function"
    },
    {
      "constant": false,
      "inputs": [
        {
          "components": [
            {
              "name": "dapp",
              "type": "address"
            },
            {
              "name": "dappprice",
              "type": "uint256"
            },
            {
              "name": "volume",
              "type": "uint256"
            },
            {
              "name": "datarestrict",
              "type": "address"
            },
            {
              "name": "poolrestrict",
              "type": "address"
            },
            {
              "name": "userrestrict",
              "type": "address"
            },
            {
              "name": "salt",
              "type": "bytes32"
            },
            {
              "components": [
                {
                  "name": "v",
                  "type": "uint8"
                },
                {
                  "name": "r",
                  "type": "bytes32"
                },
                {
                  "name": "s",
                  "type": "bytes32"
                }
              ],
              "name": "sign",
              "type": "tuple"
            }
          ],
          "name": "_dapporder",
          "type": "tuple"
        },
        {
          "components": [
            {
              "name": "data",
              "type": "address"
            },
            {
              "name": "dataprice",
              "type": "uint256"
            },
            {
              "name": "volume",
              "type": "uint256"
            },
            {
              "name": "dapprestrict",
              "type": "address"
            },
            {
              "name": "poolrestrict",
              "type": "address"
            },
            {
              "name": "userrestrict",
              "type": "address"
            },
            {
              "name": "salt",
              "type": "bytes32"
            },
            {
              "components": [
                {
                  "name": "v",
                  "type": "uint8"
                },
                {
                  "name": "r",
                  "type": "bytes32"
                },
                {
                  "name": "s",
                  "type": "bytes32"
                }
              ],
              "name": "sign",
              "type": "tuple"
            }
          ],
          "name": "_dataorder",
          "type": "tuple"
        },
        {
          "components": [
            {
              "name": "pool",
              "type": "address"
            },
            {
              "name": "poolprice",
              "type": "uint256"
            },
            {
              "name": "volume",
              "type": "uint256"
            },
            {
              "name": "category",
              "type": "uint256"
            },
            {
              "name": "trust",
              "type": "uint256"
            },
            {
              "name": "tag",
              "type": "uint256"
            },
            {
              "name": "dapprestrict",
              "type": "address"
            },
            {
              "name": "datarestrict",
              "type": "address"
            },
            {
              "name": "userrestrict",
              "type": "address"
            },
            {
              "name": "salt",
              "type": "bytes32"
            },
            {
              "components": [
                {
                  "name": "v",
                  "type": "uint8"
                },
                {
                  "name": "r",
                  "type": "bytes32"
                },
                {
                  "name": "s",
                  "type": "bytes32"
                }
              ],
              "name": "sign",
              "type": "tuple"
            }
          ],
          "name": "_poolorder",
          "type": "tuple"
        },
        {
          "components": [
            {
              "name": "dapp",
              "type": "address"
            },
            {
              "name": "dappmaxprice",
              "type": "uint256"
            },
            {
              "name": "data",
              "type": "address"
            },
            {
              "name": "datamaxprice",
              "type": "uint256"
            },
            {
              "name": "pool",
              "type": "address"
            },
            {
              "name": "poolmaxprice",
              "type": "uint256"
            },
            {
              "name": "requester",
              "type": "address"
            },
            {
              "name": "volume",
              "type": "uint256"
            },
            {
              "name": "category",
              "type": "uint256"
            },
            {
              "name": "trust",
              "type": "uint256"
            },
            {
              "name": "tag",
              "type": "uint256"
            },
            {
              "name": "beneficiary",
              "type": "address"
            },
            {
              "name": "callback",
              "type": "address"
            },
            {
              "name": "params",
              "type": "string"
            },
            {
              "name": "salt",
              "type": "bytes32"
            },
            {
              "components": [
                {
                  "name": "v",
                  "type": "uint8"
                },
                {
                  "name": "r",
                  "type": "bytes32"
                },
                {
                  "name": "s",
                  "type": "bytes32"
                }
              ],
              "name": "sign",
              "type": "tuple"
            }
          ],
          "name": "_userorder",
          "type": "tuple"
        }
      ],
      "name": "matchOrders",
      "outputs": [
        {
          "name": "",
          "type": "bytes32"
        }
      ],
      "payable": false,
      "stateMutability": "nonpayable",
      "type": "function"
    },
    {
      "constant": false,
      "inputs": [
        {
          "components": [
            {
              "name": "dapp",
              "type": "address"
            },
            {
              "name": "dappprice",
              "type": "uint256"
            },
            {
              "name": "volume",
              "type": "uint256"
            },
            {
              "name": "datarestrict",
              "type": "address"
            },
            {
              "name": "poolrestrict",
              "type": "address"
            },
            {
              "name": "userrestrict",
              "type": "address"
            },
            {
              "name": "salt",
              "type": "bytes32"
            },
            {
              "components": [
                {
                  "name": "v",
                  "type": "uint8"
                },
                {
                  "name": "r",
                  "type": "bytes32"
                },
                {
                  "name": "s",
                  "type": "bytes32"
                }
              ],
              "name": "sign",
              "type": "tuple"
            }
          ],
          "name": "_dapporder",
          "type": "tuple"
        }
      ],
      "name": "cancelDappOrder",
      "outputs": [
        {
          "name": "",
          "type": "bool"
        }
      ],
      "payable": false,
      "stateMutability": "nonpayable",
      "type": "function"
    },
    {
      "constant": false,
      "inputs": [
        {
          "components": [
            {
              "name": "data",
              "type": "address"
            },
            {
              "name": "dataprice",
              "type": "uint256"
            },
            {
              "name": "volume",
              "type": "uint256"
            },
            {
              "name": "dapprestrict",
              "type": "address"
            },
            {
              "name": "poolrestrict",
              "type": "address"
            },
            {
              "name": "userrestrict",
              "type": "address"
            },
            {
              "name": "salt",
              "type": "bytes32"
            },
            {
              "components": [
                {
                  "name": "v",
                  "type": "uint8"
                },
                {
                  "name": "r",
                  "type": "bytes32"
                },
                {
                  "name": "s",
                  "type": "bytes32"
                }
              ],
              "name": "sign",
              "type": "tuple"
            }
          ],
          "name": "_dataorder",
          "type": "tuple"
        }
      ],
      "name": "cancelDataOrder",
      "outputs": [
        {
          "name": "",
          "type": "bool"
        }
      ],
      "payable": false,
      "stateMutability": "nonpayable",
      "type": "function"
    },
    {
      "constant": false,
      "inputs": [
        {
          "components": [
            {
              "name": "pool",
              "type": "address"
            },
            {
              "name": "poolprice",
              "type": "uint256"
            },
            {
              "name": "volume",
              "type": "uint256"
            },
            {
              "name": "category",
              "type": "uint256"
            },
            {
              "name": "trust",
              "type": "uint256"
            },
            {
              "name": "tag",
              "type": "uint256"
            },
            {
              "name": "dapprestrict",
              "type": "address"
            },
            {
              "name": "datarestrict",
              "type": "address"
            },
            {
              "name": "userrestrict",
              "type": "address"
            },
            {
              "name": "salt",
              "type": "bytes32"
            },
            {
              "components": [
                {
                  "name": "v",
                  "type": "uint8"
                },
                {
                  "name": "r",
                  "type": "bytes32"
                },
                {
                  "name": "s",
                  "type": "bytes32"
                }
              ],
              "name": "sign",
              "type": "tuple"
            }
          ],
          "name": "_poolorder",
          "type": "tuple"
        }
      ],
      "name": "cancelPoolOrder",
      "outputs": [
        {
          "name": "",
          "type": "bool"
        }
      ],
      "payable": false,
      "stateMutability": "nonpayable",
      "type": "function"
    },
    {
      "constant": false,
      "inputs": [
        {
          "components": [
            {
              "name": "dapp",
              "type": "address"
            },
            {
              "name": "dappmaxprice",
              "type": "uint256"
            },
            {
              "name": "data",
              "type": "address"
            },
            {
              "name": "datamaxprice",
              "type": "uint256"
            },
            {
              "name": "pool",
              "type": "address"
            },
            {
              "name": "poolmaxprice",
              "type": "uint256"
            },
            {
              "name": "requester",
              "type": "address"
            },
            {
              "name": "volume",
              "type": "uint256"
            },
            {
              "name": "category",
              "type": "uint256"
            },
            {
              "name": "trust",
              "type": "uint256"
            },
            {
              "name": "tag",
              "type": "uint256"
            },
            {
              "name": "beneficiary",
              "type": "address"
            },
            {
              "name": "callback",
              "type": "address"
            },
            {
              "name": "params",
              "type": "string"
            },
            {
              "name": "salt",
              "type": "bytes32"
            },
            {
              "components": [
                {
                  "name": "v",
                  "type": "uint8"
                },
                {
                  "name": "r",
                  "type": "bytes32"
                },
                {
                  "name": "s",
                  "type": "bytes32"
                }
              ],
              "name": "sign",
              "type": "tuple"
            }
          ],
          "name": "_userorder",
          "type": "tuple"
        }
      ],
      "name": "cancelUserOrder",
      "outputs": [
        {
          "name": "",
          "type": "bool"
        }
      ],
      "payable": false,
      "stateMutability": "nonpayable",
      "type": "function"
    },
    {
      "constant": false,
      "inputs": [
        {
          "name": "_worker",
          "type": "address"
        },
        {
          "name": "_amount",
          "type": "uint256"
        }
      ],
      "name": "lockSubscription",
      "outputs": [],
      "payable": false,
      "stateMutability": "nonpayable",
      "type": "function"
    },
    {
      "constant": false,
      "inputs": [
        {
          "name": "_worker",
          "type": "address"
        },
        {
          "name": "_amount",
          "type": "uint256"
        }
      ],
      "name": "unlockSubscription",
      "outputs": [],
      "payable": false,
      "stateMutability": "nonpayable",
      "type": "function"
    },
    {
      "constant": false,
      "inputs": [
        {
          "name": "_dealid",
          "type": "bytes32"
        },
        {
          "name": "_worker",
          "type": "address"
        }
      ],
      "name": "lockContribution",
      "outputs": [],
      "payable": false,
      "stateMutability": "nonpayable",
      "type": "function"
    },
    {
      "constant": false,
      "inputs": [
        {
          "name": "_dealid",
          "type": "bytes32"
        },
        {
          "name": "_worker",
          "type": "address"
        }
      ],
      "name": "unlockContribution",
      "outputs": [],
      "payable": false,
      "stateMutability": "nonpayable",
      "type": "function"
    },
    {
      "constant": false,
      "inputs": [
        {
          "name": "_dealid",
          "type": "bytes32"
        },
        {
          "name": "_worker",
          "type": "address"
        },
        {
          "name": "_amount",
          "type": "uint256"
        }
      ],
      "name": "unlockAndRewardForContribution",
      "outputs": [],
      "payable": false,
      "stateMutability": "nonpayable",
      "type": "function"
    },
    {
      "constant": false,
      "inputs": [
        {
          "name": "_dealid",
          "type": "bytes32"
        },
        {
          "name": "_worker",
          "type": "address"
        }
      ],
      "name": "seizeContribution",
      "outputs": [],
      "payable": false,
      "stateMutability": "nonpayable",
      "type": "function"
    },
    {
      "constant": false,
      "inputs": [
        {
          "name": "_dealid",
          "type": "bytes32"
        },
        {
          "name": "_amount",
          "type": "uint256"
        }
      ],
      "name": "rewardForScheduling",
      "outputs": [],
      "payable": false,
      "stateMutability": "nonpayable",
      "type": "function"
    },
    {
      "constant": false,
      "inputs": [
        {
          "name": "_dealid",
          "type": "bytes32"
        }
      ],
      "name": "successWork",
      "outputs": [],
      "payable": false,
      "stateMutability": "nonpayable",
      "type": "function"
    },
    {
      "constant": false,
      "inputs": [
        {
          "name": "_dealid",
          "type": "bytes32"
        }
      ],
      "name": "failedWork",
      "outputs": [],
      "payable": false,
      "stateMutability": "nonpayable",
      "type": "function"
    }
  ],
  "bytecode": "0x60806040523480156200001157600080fd5b50604051604080620046218339810180604052620000339190810190620001e7565b8082600160a060020a03811615156200004b57600080fd5b60008054600160a060020a031916600160a060020a03928316179055811615156200007557600080fd5b60028054600160a060020a031916600160a060020a03929092169190911790556040805160c0810182526008608082019081527f69457865634f444200000000000000000000000000000000000000000000000060a0830152815281518083018352600981527f332e302d616c706861000000000000000000000000000000000000000000000060208083019190915282015260038183015230606082015290517feca34ccf00000000000000000000000000000000000000000000000000000000815273__IexecODBLibOrders_____________________9163eca34ccf9162000164919060040162000310565b60206040518083038186803b1580156200017d57600080fd5b505af415801562000192573d6000803e3d6000fd5b505050506040513d601f19601f82011682018060405250620001b8919081019062000226565b60035550620003739050565b6000620001d2825162000327565b9392505050565b6000620001d2825162000333565b60008060408385031215620001fb57600080fd5b6000620002098585620001c4565b92505060206200021c85828601620001c4565b9150509250929050565b6000602082840312156200023957600080fd5b6000620002478484620001d9565b949350505050565b6200025a8162000327565b82525050565b60006200026d8262000323565b8084526200028381602086016020860162000336565b6200028e8162000369565b9093016020019392505050565b8051608080845260009190840190620002b5828262000260565b91505060208301518482036020860152620002d1828262000260565b9150506040830151620002e8604086018262000305565b506060830151620002fd60608601826200024f565b509392505050565b6200025a8162000333565b60208082528101620001d281846200029b565b5190565b600160a060020a031690565b90565b60005b838110156200035357818101518382015260200162000339565b8381111562000363576000848401525b50505050565b601f01601f191690565b61429e80620003836000396000f3006080604052600436106101c95763ffffffff60e060020a60003504166303eb9d3781146101ce578063047411e7146102045780630d0c233c146102265780630db73bfe146102485780632090d240146102685780632e1a7d4d1461028857806343f2c970146102a85780634a8e362e146102c85780634dad2ccb146102e857806351152de1146103085780635d0c812f1461031d57806368c317851461033d5780636b55f4a51461035d5780636eb528b51461038a578063709ce02b146103aa578063728e2ca0146103bf57806383729251146103f4578063858fb57c1461041457806388044a7d1461043457806389d247a2146104545780638d52e41314610481578063920d662c146104a357806399b5d6ac146104c3578063a578dee5146104e3578063b017c03614610511578063b6b55f2514610526578063b74861b214610546578063be02ee6e14610573578063c38da09614610593578063c3ee9d3b146105b3578063c8d96729146105d3578063cdb8079b14610600578063d7c80a4214610620578063dfafe2d714610652578063e2e7a8c114610672578063e3035ace14610687578063e798491a146106a7578063e7aa23e9146106c7578063f7c801ac146106e7575b600080fd5b3480156101da57600080fd5b506101ee6101e9366004613926565b610707565b6040516101fb9190613fce565b60405180910390f35b34801561021057600080fd5b506102196108a7565b6040516101fb9190613fdc565b34801561023257600080fd5b50610246610241366004613894565b6108ad565b005b34801561025457600080fd5b506101ee61026336600461379f565b6108e5565b34801561027457600080fd5b50610219610283366004613945565b610a1d565b34801561029457600080fd5b506101ee6102a3366004613858565b6118e6565b3480156102b457600080fd5b506101ee6102c3366004613858565b6119fe565b3480156102d457600080fd5b506102466102e3366004613907565b611a13565b3480156102f457600080fd5b506101ee610303366004613926565b611a4f565b34801561031457600080fd5b50610219611baf565b34801561032957600080fd5b50610246610338366004613858565b611bb4565b34801561034957600080fd5b506101ee6103583660046139c2565b611dd2565b34801561036957600080fd5b5061037d61037836600461370e565b611f62565b6040516101fb9190614087565b34801561039657600080fd5b506102466103a5366004613894565b611f9d565b3480156103b657600080fd5b50610219611fd1565b3480156103cb57600080fd5b506103df6103da366004613858565b611fd6565b6040516101fb999897969594939291906140d2565b34801561040057600080fd5b5061024661040f3660046138c4565b612119565b34801561042057600080fd5b5061024661042f3660046137e2565b61215c565b34801561044057600080fd5b5061024661044f366004613858565b61217d565b34801561046057600080fd5b5061047461046f366004613858565b6123b0565b6040516101fb9190613fbd565b34801561048d57600080fd5b50610496612413565b6040516101fb9190614079565b3480156104af57600080fd5b506101ee6104be3660046139c2565b612422565b3480156104cf57600080fd5b506101ee6104de366004613926565b61250b565b3480156104ef57600080fd5b506105036104fe36600461370e565b6125f4565b6040516101fb929190614174565b34801561051d57600080fd5b50610496612617565b34801561053257600080fd5b506101ee610541366004613858565b612626565b34801561055257600080fd5b50610566610561366004613858565b612735565b6040516101fb91906140b2565b34801561057f57600080fd5b5061050361058e36600461370e565b6128b3565b34801561059f57600080fd5b506102466105ae3660046137e2565b6128cc565b3480156105bf57600080fd5b506101ee6105ce366004613752565b6128ed565b3480156105df57600080fd5b506105f36105ee366004613858565b612a05565b6040516101fb9190614095565b34801561060c57600080fd5b5061021961061b366004613907565b612a66565b34801561062c57600080fd5b5061064061063b366004613858565b612a96565b6040516101fb96959493929190613fea565b34801561065e57600080fd5b506101ee61066d3660046139e1565b612acb565b34801561067e57600080fd5b50610219612b40565b34801561069357600080fd5b506102196106a2366004613858565b612b46565b3480156106b357600080fd5b506102466106c2366004613894565b612b58565b3480156106d357600080fd5b506101ee6106e2366004613926565b612b8c565b3480156106f357600080fd5b506101ee6107023660046139e1565b612d1b565b6000808260000151600160a060020a031663deff41c16040518163ffffffff1660e060020a028152600401602060405180830381600087803b15801561074c57600080fd5b505af1158015610760573d6000803e3d6000fd5b505050506040513d601f19601f820116820180604052506107849190810190613734565b600160a060020a0316331461079857600080fd5b6040517f6f567cf900000000000000000000000000000000000000000000000000000000815273__IexecODBLibOrders_____________________90636f567cf9906107e89086906004016140a3565b60206040518083038186803b15801561080057600080fd5b505af4158015610814573d6000803e3d6000fd5b505050506040513d601f19601f820116820180604052506108389190810190613876565b905061084933828560e001516108e5565b151561085457600080fd5b6040808401516000838152600760205282902055517f7b8ebecbefabdf22486f6714c12cbc538644c194689c3a7bd5e98453a35ebdeb90610896908390613fdc565b60405180910390a150600192915050565b60035481565b600254600160a060020a031633146108c457600080fd5b6000828152600660205260409020600401546108e1908290612e46565b5050565b600354604080517f1901000000000000000000000000000000000000000000000000000000000000602080830191909152602282019390935260428082018690528251808303909101815260629091019182905280516000936001939182918401908083835b6020831061096a5780518252601f19909201916020918201910161094b565b51815160209384036101000a60001901801990921691161790526040805192909401829003822089518a8301518b8701516000865294909301958690526109b8975090955093909250614044565b60206040516020810390808403906000865af11580156109dc573d6000803e3d6000fd5b50505060206040510351600160a060020a031684600160a060020a03161480610a13575060008381526008602052604090205460ff165b90505b9392505050565b6000610a276130eb565b6000806000808760600151876101000151141515610a4457600080fd5b60808801516101208801511115610a5a57600080fd5b60a088015161014088015114610a6f57600080fd5b6020808b0151908801511015610a8457600080fd5b602089015160608801511015610a9957600080fd5b602088015160a08801511015610aae57600080fd5b89518751600160a060020a03908116911614610ac957600080fd5b88516040880151600160a060020a03908116911614610ae757600080fd5b60808701518851610afd919060f860020a6128ed565b1515610b0857600080fd5b60608a01518951610b1e919060f860020a6128ed565b1515610b2957600080fd5b60808a01518851610b3f919060f860020a6128ed565b1515610b4a57600080fd5b610b648a60a001518860c00151600160f860020a026128ed565b1515610b6f57600080fd5b60608901518a51610b85919060f860020a6128ed565b1515610b9057600080fd5b60808901518851610ba6919060f860020a6128ed565b1515610bb157600080fd5b610bcb8960a001518860c00151600160f860020a026128ed565b1515610bd657600080fd5b60c08801518a51610bec919060f860020a6128ed565b1515610bf757600080fd5b60e08801518951610c0d919060f860020a6128ed565b1515610c1857600080fd5b610c338861010001518860c00151600160f860020a026128ed565b1515610c3e57600080fd5b6002548a518a518a516040517f097d630d000000000000000000000000000000000000000000000000000000008152600160a060020a039094169363097d630d93610c8f9390929091600401613f52565b602060405180830381600087803b158015610ca957600080fd5b505af1158015610cbd573d6000803e3d6000fd5b505050506040513d601f19601f82011682018060405250610ce1919081019061381c565b1515610cec57600080fd5b8851600160a060020a0316151560e08601526040517f6f567cf900000000000000000000000000000000000000000000000000000000815273__IexecODBLibOrders_____________________90636f567cf990610d4e908d906004016140a3565b60206040518083038186803b158015610d6657600080fd5b505af4158015610d7a573d6000803e3d6000fd5b505050506040513d601f19601f82011682018060405250610d9e9190810190613876565b85528951604080517fdeff41c10000000000000000000000000000000000000000000000000000000081529051600160a060020a039092169163deff41c1916004808201926020929091908290030181600087803b158015610dff57600080fd5b505af1158015610e13573d6000803e3d6000fd5b505050506040513d601f19601f82011682018060405250610e379190810190613734565b600160a060020a031660808601819052855160e08c0151610e599291906108e5565b1515610e6457600080fd5b8460e0015115610fd8576040517f6248b21700000000000000000000000000000000000000000000000000000000815273__IexecODBLibOrders_____________________90636248b21790610ebe908c906004016140a3565b60206040518083038186803b158015610ed657600080fd5b505af4158015610eea573d6000803e3d6000fd5b505050506040513d601f19601f82011682018060405250610f0e9190810190613876565b6020808701919091528951604080517fdeff41c10000000000000000000000000000000000000000000000000000000081529051600160a060020a039092169263deff41c1926004808401938290030181600087803b158015610f7057600080fd5b505af1158015610f84573d6000803e3d6000fd5b505050506040513d601f19601f82011682018060405250610fa89190810190613734565b600160a060020a031660a08601819052602086015160e08b0151610fcd9291906108e5565b1515610fd857600080fd5b6040517f9810b35400000000000000000000000000000000000000000000000000000000815273__IexecODBLibOrders_____________________90639810b35490611028908b906004016140c3565b60206040518083038186803b15801561104057600080fd5b505af4158015611054573d6000803e3d6000fd5b505050506040513d601f19601f820116820180604052506110789190810190613876565b604080870191909152885181517fdeff41c10000000000000000000000000000000000000000000000000000000081529151600160a060020a039091169163deff41c19160048083019260209291908290030181600087803b1580156110dd57600080fd5b505af11580156110f1573d6000803e3d6000fd5b505050506040513d601f19601f820116820180604052506111159190810190613734565b600160a060020a031660c0860181905260408601516101408a015161113b9291906108e5565b151561114657600080fd5b6040517f6dfd20e500000000000000000000000000000000000000000000000000000000815273__IexecODBLibOrders_____________________90636dfd20e590611196908a90600401614163565b60206040518083038186803b1580156111ae57600080fd5b505af41580156111c2573d6000803e3d6000fd5b505050506040513d601f19601f820116820180604052506111e69190810190613876565b6060860181905260c08801516101e089015161120292906108e5565b151561120d57600080fd5b84516000908152600760205260409081902054908b01516112339163ffffffff612ed016565b93508460e001516112445783611280565b6020808601516000908152600790915260409081902054908a015161128091611273919063ffffffff612ed016565b859063ffffffff612ee716565b6040808701516000908152600760205281902054908a01519195506112ae916112739163ffffffff612ed016565b606086015160009081526007602052604090205460e08901519195506112dd916112739163ffffffff612ed016565b9350600084116112ec57600080fd5b6060808601516000818152600760209081526040918290205482518083019490945283830152815180840383018152929093019081905281519192909182918401908083835b602083106113515780518252601f199092019160209182019101611332565b6001836020036101000a03801982511681845116808217855250505050505090500191505060405180910390209250600560008460001916600019168152602001908152602001600020915089600001518260000160000160006101000a815481600160a060020a030219169083600160a060020a0316021790555084608001518260000160010160006101000a815481600160a060020a030219169083600160a060020a03160217905550896020015182600001600201819055508460a001518260030160010160006101000a815481600160a060020a030219169083600160a060020a0316021790555088600001518260030160000160006101000a815481600160a060020a030219169083600160a060020a031602179055508460e0015161147d576000611483565b88602001515b6005830155875160068301805473ffffffffffffffffffffffffffffffffffffffff19908116600160a060020a039384161790915560c08781015160078601805484169185169190911790556020808c0151600887015560808c0151600987015560a08c0151600a870155908a0151600b8601805484169185169190911790556101608a0151600c8601805484169185169190911790556101808a0151600d8601805490931693169290921790556101a0880151805161154992600e860192019061312f565b505060008281526006602090815260408083206060808c01518255426001830155880151845260078352818420546002820155600381018790558a5182517fb55e75af0000000000000000000000000000000000000000000000000000000081529251919461162c94600160a060020a039092169363b55e75af936004808301949391928390030190829087803b1580156115e357600080fd5b505af11580156115f7573d6000803e3d6000fd5b505050506040513d601f19601f8201168201806040525061161b9190810190613876565b60208a01519063ffffffff612efd16565b81600401819055508760000151600160a060020a03166387639c686040518163ffffffff1660e060020a028152600401602060405180830381600087803b15801561167657600080fd5b505af115801561168a573d6000803e3d6000fd5b505050506040513d601f19601f820116820180604052506116ae9190810190613876565b6005820155606085015160009081526004602090815260408083208054600181018255908452828420018690558751835260079091529020546116f7908563ffffffff612f0b16565b855160009081526007602052604090205560e085015161173f9061171c57600061171e565b845b6020808801516000908152600790915260409020549063ffffffff612f0b16565b602080870151600090815260079091526040808220929092558187015181522054611770908563ffffffff612f0b16565b6040808701516000908152600760205281812092909255606087015182529020546117a1908563ffffffff612f0b16565b6060860151600090815260076020526040902055600b82015460088301546005840154600285015461180f93600160a060020a03169261180a9289926117fe92916117f2919063ffffffff612f0b16565b9063ffffffff612f0b16565b9063ffffffff612f2516565b612f50565b6007820154600883015461183e91600160a060020a03169061180a9087906117fe90601e63ffffffff612efd16565b6006820154604051600160a060020a03909116907f692ad61076dceddd0f1a861f737553dd61fc8501cf4190d29c4e90af6607f7659061187f908690613fdc565b60405180910390a27fd811b592ed0899225773e8933d8df64bd0b62761a9d7aad4ed5b22735f4610a4838660000151876020015188604001518960600151896040516118d096959493929190613fea565b60405180910390a1509098975050505050505050565b33600090815260016020526040812054611906908363ffffffff612ed016565b33600081815260016020526040808220939093555491517fa9059cbb000000000000000000000000000000000000000000000000000000008152600160a060020a039092169163a9059cbb91611960918690600401613fa2565b602060405180830381600087803b15801561197a57600080fd5b505af115801561198e573d6000803e3d6000fd5b505050506040513d601f19601f820116820180604052506119b2919081019061381c565b15156119bd57600080fd5b7f884edad9ce6fa2440d8a54cc123490eb96d2768479d49ff9c7366125a942436433836040516119ee929190613fa2565b60405180910390a1506001919050565b60086020526000908152604090205460ff1681565b600254600160a060020a03163314611a2a57600080fd5b6000828152600560205260409020600701546108e190600160a060020a031682612fcd565b60008160000151600160a060020a031663deff41c16040518163ffffffff1660e060020a028152600401602060405180830381600087803b158015611a9357600080fd5b505af1158015611aa7573d6000803e3d6000fd5b505050506040513d601f19601f82011682018060405250611acb9190810190613734565b600160a060020a03163314611adf57600080fd5b6040517f6f567cf900000000000000000000000000000000000000000000000000000000815260019060089060009073__IexecODBLibOrders_____________________90636f567cf990611b389088906004016140a3565b60206040518083038186803b158015611b5057600080fd5b505af4158015611b64573d6000803e3d6000fd5b505050506040513d601f19601f82011682018060405250611b889190810190613876565b81526020810191909152604001600020805460ff1916911515919091179055506001919050565b600a81565b611bbc6131ad565b6002546000908190600160a060020a03163314611bd857600080fd5b6000848152600560208181526040928390208351610180810185528154600160a060020a0390811661012083019081526001808501548316610140850152600280860154610160860152918452875160608181018a52600387015485168252600487015485168289015297860154818a0152848701528751808801895260068601548416815260078601548416818801526008860154818a015284890152600985015496840196909652600a8401546080840152600b840154821660a0840152600c840154821660c0840152600d84015490911660e0830152600e830180548751601f9782161561010090810260001901909216939093049687018690048602830186019097528582529195929492860193909290830182828015611d3e5780601f10611d1357610100808354040283529160200191611d3e565b820191906000526020600020905b815481529060010190602001808311611d2157829003601f168201915b5050505050815250509250611d788360400151604001516117f2856020015160400151866000015160400151612f0b90919063ffffffff16565b6040808501510151909250611d9490601e63ffffffff612efd16565b9050611da48360a0015183613044565b611db683604001516020015182612e46565b611dc1600082612fcd565b611dcc600082612f50565b50505050565b6000808260000151600160a060020a031663deff41c16040518163ffffffff1660e060020a028152600401602060405180830381600087803b158015611e1757600080fd5b505af1158015611e2b573d6000803e3d6000fd5b505050506040513d601f19601f82011682018060405250611e4f9190810190613734565b600160a060020a03163314611e6357600080fd5b6040517f9810b35400000000000000000000000000000000000000000000000000000000815273__IexecODBLibOrders_____________________90639810b35490611eb39086906004016140c3565b60206040518083038186803b158015611ecb57600080fd5b505af4158015611edf573d6000803e3d6000fd5b505050506040513d601f19601f82011682018060405250611f039190810190613876565b9050611f1533828561014001516108e5565b1515611f2057600080fd5b6040808401516000838152600760205282902055517f9d8cdb3b6f54ac32537800a67bba0bc91704893c6ebbc14f42f67fef6d5dfad390610896908390613fdc565b611f6a613227565b50600160a060020a0316600090815260016020818152604092839020835180850190945280548452909101549082015290565b600254600160a060020a03163314611fb457600080fd5b6000828152600660205260409020600401546108e1908290613044565b601e81565b6005602081815260009283526040928390208351606080820186528254600160a060020a039081168352600180850154821684870152600280860154858a015288518085018a52600387015484168152600487015484168189015297860154888a01528851938401895260068601548316845260078601548316848801526008860154848a01526009860154600a870154600b880154600c890154600d8a0154600e8b0180548f516101009982161599909902600019011696909604601f81018d90048d0288018d01909e528d8752989c979a93999298918716979087169691909116949193919283018282801561210f5780601f106120e45761010080835404028352916020019161210f565b820191906000526020600020905b8154815290600101906020018083116120f257829003601f168201915b5050505050905089565b600254600160a060020a0316331461213057600080fd5b60008381526006602052604090206004015461214d908390613044565b6121578282612fcd565b505050565b600254600160a060020a0316331461217357600080fd5b6108e18282613044565b6121856131ad565b6002546000908190600160a060020a031633146121a157600080fd5b6000848152600560208181526040928390208351610180810185528154600160a060020a0390811661012083019081526001808501548316610140850152600280860154610160860152918452875160608181018a52600387015485168252600487015485168289015297860154818a0152848701528751808801895260068601548416815260078601548416818801526008860154818a015284890152600985015496840196909652600a8401546080840152600b840154821660a0840152600c840154821660c0840152600d84015490911660e0830152600e830180548751601f97821615610100908102600019019092169390930496870186900486028301860190975285825291959294928601939092908301828280156123075780601f106122dc57610100808354040283529160200191612307565b820191906000526020600020905b8154815290600101906020018083116122ea57829003601f168201915b50505050508152505092506123418360400151604001516117f2856020015160400151866000015160400151612f0b90919063ffffffff16565b604080850151015190925061235d90601e63ffffffff612efd16565b905061236d8360a0015183612e46565b61237f83604001516020015182613044565b825160208101516040909101516123969190612fcd565b611dcc836020015160200151846020015160400151612fcd565b60008181526004602090815260409182902080548351818402810184019094528084526060939283018282801561240757602002820191906000526020600020905b815481526001909101906020018083116123f2575b50505050509050919050565b600254600160a060020a031681565b60008160000151600160a060020a031663deff41c16040518163ffffffff1660e060020a028152600401602060405180830381600087803b15801561246657600080fd5b505af115801561247a573d6000803e3d6000fd5b505050506040513d601f19601f8201168201806040525061249e9190810190613734565b600160a060020a031633146124b257600080fd5b6040517f9810b35400000000000000000000000000000000000000000000000000000000815260019060089060009073__IexecODBLibOrders_____________________90639810b35490611b389088906004016140c3565b60008160000151600160a060020a031663deff41c16040518163ffffffff1660e060020a028152600401602060405180830381600087803b15801561254f57600080fd5b505af1158015612563573d6000803e3d6000fd5b505050506040513d601f19601f820116820180604052506125879190810190613734565b600160a060020a0316331461259b57600080fd5b6040517f6248b21700000000000000000000000000000000000000000000000000000000815260019060089060009073__IexecODBLibOrders_____________________90636248b21790611b389088906004016140a3565b600160a060020a0316600090815260016020819052604090912080549101549091565b600054600160a060020a031681565b600080546040517f23b872dd000000000000000000000000000000000000000000000000000000008152600160a060020a03909116906323b872dd9061267490339030908790600401613f7a565b602060405180830381600087803b15801561268e57600080fd5b505af11580156126a2573d6000803e3d6000fd5b505050506040513d601f19601f820116820180604052506126c6919081019061381c565b15156126d157600080fd5b336000908152600160205260409020546126f1908363ffffffff612f0b16565b33600081815260016020526040908190209290925590517fe1fffcc4923d04b559f4d29a8bfc6cda04eb5b0d3c460751c2402c5c5cc9109c916119ee918590613fa2565b61273d6131ad565b6000828152600560208181526040928390208351610180810185528154600160a060020a0390811661012083019081526001808501548316610140850152600280860154610160860152918452875160608181018a52600387015485168252600487015485168289015297860154818a0152848701528751808801895260068601548416815260078601548416818801526008860154818a015284890152600985015496840196909652600a8401546080840152600b840154821660a0840152600c840154821660c0840152600d84015490911660e0830152600e830180548751601f97821615610100908102600019019092169390930496870186900486028301860190975285825291959294928601939092908301828280156128a35780601f10612878576101008083540402835291602001916128a3565b820191906000526020600020905b81548152906001019060200180831161288657829003601f168201915b5050505050815250509050919050565b6001602081905260009182526040909120805491015482565b600254600160a060020a031633146128e357600080fd5b6108e18282612f50565b6000600160a060020a0384161580612916575082600160a060020a031684600160a060020a0316145b80610a1357506040517f7ad8f72d0000000000000000000000000000000000000000000000000000000081527fff000000000000000000000000000000000000000000000000000000000000008316908390600160a060020a03871690637ad8f72d90612987908890600401613f44565b602060405180830381600087803b1580156129a157600080fd5b505af11580156129b5573d6000803e3d6000fd5b505050506040513d601f19601f820116820180604052506129d9919081019061383a565b167fff000000000000000000000000000000000000000000000000000000000000001614949350505050565b612a0d61323e565b50600090815260066020908152604091829020825160c08101845281548152600182015492810192909252600281015492820192909252600382015460608201526004820154608082015260059091015460a082015290565b600460205281600052604060002081815481101515612a8157fe5b90600052602060002001600091509150505481565b600660205260009081526040902080546001820154600283015460038401546004850154600590950154939492939192909186565b60c0810151600090600160a060020a03163314612ae757600080fd5b6040517f6dfd20e500000000000000000000000000000000000000000000000000000000815260019060089060009073__IexecODBLibOrders_____________________90636dfd20e590611b38908890600401614163565b6103e881565b60076020526000908152604090205481565b600254600160a060020a03163314612b6f57600080fd5b6000828152600660205260409020600401546108e1908290612f50565b6000808260000151600160a060020a031663deff41c16040518163ffffffff1660e060020a028152600401602060405180830381600087803b158015612bd157600080fd5b505af1158015612be5573d6000803e3d6000fd5b505050506040513d601f19601f82011682018060405250612c099190810190613734565b600160a060020a03163314612c1d57600080fd5b6040517f6248b21700000000000000000000000000000000000000000000000000000000815273__IexecODBLibOrders_____________________90636248b21790612c6d9086906004016140a3565b60206040518083038186803b158015612c8557600080fd5b505af4158015612c99573d6000803e3d6000fd5b505050506040513d601f19601f82011682018060405250612cbd9190810190613876565b9050612cce33828560e001516108e5565b1515612cd957600080fd5b6040808401516000838152600760205282902055517f0a8c558b1b6592c45f2352aca7c63441b623771b2d1fef0c152c39e3d0e57dd690610896908390613fdc565b6000808260c00151600160a060020a031633600160a060020a0316141515612d4257600080fd5b6040517f6dfd20e500000000000000000000000000000000000000000000000000000000815273__IexecODBLibOrders_____________________90636dfd20e590612d92908690600401614163565b60206040518083038186803b158015612daa57600080fd5b505af4158015612dbe573d6000803e3d6000fd5b505050506040513d601f19601f82011682018060405250612de29190810190613876565b9050612df43382856101e001516108e5565b1515612dff57600080fd5b60e08301516000828152600760205260409081902091909155517fbcb414cf94dea645edd01839a2ffb0873b4c5de2edb7b8f4764e9b3921613f1190610896908390613fdc565b600160a060020a03821660009081526001602081905260409091200154612e73908263ffffffff612ed016565b600160a060020a0383166000908152600160208190526040918290200191909155517f4051ba94e08bb094159fc38391422b4b8ccfd2b1f8919c0eb37bb042d4b9cd8e90612ec49084908490613fa2565b60405180910390a15050565b600082821115612edc57fe5b508082035b92915050565b6000818310612ef65781610a16565b5090919050565b6000610a16838360646130c4565b600082820183811015612f1a57fe5b8091505b5092915050565b600080831515612f385760009150612f1e565b50828202828482811515612f4857fe5b0414612f1a57fe5b600160a060020a038216600090815260016020526040902054612f79908263ffffffff612ed016565b600160a060020a03831660009081526001602081905260409091209182550154612fa9908263ffffffff612f0b16565b600160a060020a039092166000908152600160208190526040909120019190915550565b600160a060020a038216600090815260016020526040902054612ff6908263ffffffff612f0b16565b600160a060020a0383166000908152600160205260409081902091909155517f619caafabdd75649b302ba8419e48cccf64f37f1983ac4727cfb38b57703ffc990612ec49084908490613fa2565b600160a060020a03821660009081526001602081905260409091200154613071908263ffffffff612ed016565b600160a060020a038316600090815260016020819052604090912090810191909155546130a4908263ffffffff612f0b16565b600160a060020a0390921660009081526001602052604090209190915550565b6000610a136130d38585612f25565b8360008082848115156130e257fe5b04949350505050565b6040805161010081018252600080825260208201819052918101829052606081018290526080810182905260a0810182905260c0810182905260e081019190915290565b828054600181600116156101000203166002900490600052602060002090601f016020900481019282601f1061317057805160ff191683800117855561319d565b8280016001018555821561319d579182015b8281111561319d578251825591602001919060010190613182565b506131a9929150613275565b5090565b6101e0604051908101604052806131c2613292565b81526020016131cf613292565b81526020016131dc613292565b815260200160008152602001600081526020016000600160a060020a031681526020016000600160a060020a031681526020016000600160a060020a03168152602001606081525090565b604080518082019091526000808252602082015290565b60c0604051908101604052806000815260200160008152602001600081526020016000815260200160008152602001600081525090565b61328f91905b808211156131a9576000815560010161327b565b90565b604080516060810182526000808252602082018190529181019190915290565b6000610a1682356141db565b6000610a1682516141db565b6000610a1682516141e7565b6000610a1682356141f2565b6000610a1682516141f2565b6000610a16823561328f565b6000610a16825161328f565b6000601f8201831361331757600080fd5b813561332a613325826141a9565b614182565b9150808252602083016020830185838301111561334657600080fd5b613351838284614222565b50505092915050565b6000610140828403121561336d57600080fd5b613378610100614182565b9050600061338684846132b2565b8252506020613397848483016132ee565b60208301525060406133ab848285016132ee565b60408301525060606133bf848285016132b2565b60608301525060806133d3848285016132b2565b60808301525060a06133e7848285016132b2565b60a08301525060c06133fb848285016132ee565b60c08301525060e061340f848285016136a7565b60e08301525092915050565b60006101a0828403121561342e57600080fd5b613439610160614182565b9050600061344784846132b2565b8252506020613458848483016132ee565b602083015250604061346c848285016132ee565b6040830152506060613480848285016132ee565b6060830152506080613494848285016132ee565b60808301525060a06134a8848285016132ee565b60a08301525060c06134bc848285016132b2565b60c08301525060e06134d0848285016132b2565b60e0830152506101006134e5848285016132b2565b610100830152506101206134fb848285016132ee565b61012083015250610140613511848285016136a7565b6101408301525092915050565b6000610240828403121561353157600080fd5b61353c610200614182565b9050600061354a84846132b2565b825250602061355b848483016132ee565b602083015250604061356f848285016132b2565b6040830152506060613583848285016132ee565b6060830152506080613597848285016132b2565b60808301525060a06135ab848285016132ee565b60a08301525060c06135bf848285016132b2565b60c08301525060e06135d3848285016132ee565b60e0830152506101006135e8848285016132ee565b610100830152506101206135fe848285016132ee565b61012083015250610140613614848285016132ee565b6101408301525061016061362a848285016132b2565b61016083015250610180613640848285016132b2565b610180830152506101a082013567ffffffffffffffff81111561366257600080fd5b61366e84828501613306565b6101a0830152506101c0613684848285016132ee565b6101c0830152506101e061369a848285016136a7565b6101e08301525092915050565b6000606082840312156136b957600080fd5b6136c36060614182565b905060006136d18484613702565b82525060206136e2848483016132ee565b60208301525060406136f6848285016132ee565b60408301525092915050565b6000610a1682356141ec565b60006020828403121561372057600080fd5b600061372c84846132b2565b949350505050565b60006020828403121561374657600080fd5b600061372c84846132be565b60008060006060848603121561376757600080fd5b600061377386866132b2565b9350506020613784868287016132b2565b9250506040613795868287016132d6565b9150509250925092565b600080600060a084860312156137b457600080fd5b60006137c086866132b2565b93505060206137d1868287016132ee565b9250506040613795868287016136a7565b600080604083850312156137f557600080fd5b600061380185856132b2565b9250506020613812858286016132ee565b9150509250929050565b60006020828403121561382e57600080fd5b600061372c84846132ca565b60006020828403121561384c57600080fd5b600061372c84846132e2565b60006020828403121561386a57600080fd5b600061372c84846132ee565b60006020828403121561388857600080fd5b600061372c84846132fa565b600080604083850312156138a757600080fd5b60006138b385856132ee565b9250506020613812858286016132b2565b6000806000606084860312156138d957600080fd5b60006138e586866132ee565b93505060206138f6868287016132b2565b9250506040613795868287016132ee565b6000806040838503121561391a57600080fd5b600061380185856132ee565b6000610140828403121561393957600080fd5b600061372c848461335a565b600080600080610440858703121561395c57600080fd5b6000613968878761335a565b94505061014061397a8782880161335a565b93505061028061398c8782880161341b565b92505061042085013567ffffffffffffffff8111156139aa57600080fd5b6139b68782880161351e565b91505092959194509250565b60006101a082840312156139d557600080fd5b600061372c848461341b565b6000602082840312156139f357600080fd5b813567ffffffffffffffff811115613a0a57600080fd5b61372c8482850161351e565b613a1f816141db565b82525050565b6000613a30826141d7565b808452602084019350613a42836141d1565b60005b82811015613a7257613a58868351613a85565b613a61826141d1565b602096909601959150600101613a45565b5093949350505050565b613a1f816141e7565b613a1f8161328f565b613a1f81614217565b6000613aa2826141d7565b808452613ab681602086016020860161422e565b613abf8161425a565b9093016020019392505050565b80516040830190613add8482613a85565b506020820151611dcc6020850182613a85565b805160c0830190613b018482613a85565b506020820151613b146020850182613a85565b506040820151613b276040850182613a85565b506060820151613b3a6060850182613a85565b506080820151613b4d6080850182613a85565b5060a0820151611dcc60a0850182613a85565b8051610140830190613b728482613a16565b506020820151613b856020850182613a85565b506040820151613b986040850182613a85565b506060820151613bab6060850182613a16565b506080820151613bbe6080850182613a16565b5060a0820151613bd160a0850182613a16565b5060c0820151613be460c0850182613a85565b5060e0820151611dcc60e0850182613f17565b80516000906101e0840190613c0c8582613d8f565b506020830151613c1f6060860182613d8f565b506040830151613c3260c0860182613d8f565b506060830151613c46610120860182613a85565b506080830151613c5a610140860182613a85565b5060a0830151613c6e610160860182613a16565b5060c0830151613c82610180860182613a16565b5060e0830151613c966101a0860182613a16565b506101008301518482036101c0860152613cb08282613a97565b95945050505050565b80516101a0830190613ccb8482613a16565b506020820151613cde6020850182613a85565b506040820151613cf16040850182613a85565b506060820151613d046060850182613a85565b506080820151613d176080850182613a85565b5060a0820151613d2a60a0850182613a85565b5060c0820151613d3d60c0850182613a16565b5060e0820151613d5060e0850182613a16565b50610100820151613d65610100850182613a16565b50610120820151613d7a610120850182613a85565b50610140820151611dcc610140850182613f17565b80516060830190613da08482613a16565b506020820151613db36020850182613a16565b506040820151611dcc6040850182613a85565b8051600090610240840190613ddb8582613a16565b506020830151613dee6020860182613a85565b506040830151613e016040860182613a16565b506060830151613e146060860182613a85565b506080830151613e276080860182613a16565b5060a0830151613e3a60a0860182613a85565b5060c0830151613e4d60c0860182613a16565b5060e0830151613e6060e0860182613a85565b50610100830151613e75610100860182613a85565b50610120830151613e8a610120860182613a85565b50610140830151613e9f610140860182613a85565b50610160830151613eb4610160860182613a16565b50610180830151613ec9610180860182613a16565b506101a08301518482036101a0860152613ee38282613a97565b9150506101c0830151613efa6101c0860182613a85565b506101e0830151613f0f6101e0860182613f17565b509392505050565b80516060830190613f288482613f3b565b506020820151613db36020850182613a85565b613a1f816141ec565b60208101612ee18284613a16565b60608101613f608286613a16565b613f6d6020830185613a16565b61372c6040830184613a16565b60608101613f888286613a16565b613f956020830185613a16565b61372c6040830184613a85565b60408101613fb08285613a16565b610a166020830184613a85565b60208082528101610a168184613a25565b60208101612ee18284613a7c565b60208101612ee18284613a85565b60c08101613ff88289613a85565b6140056020830188613a85565b6140126040830187613a85565b61401f6060830186613a85565b61402c6080830185613a85565b61403960a0830184613a85565b979650505050505050565b608081016140528287613a85565b61405f6020830186613f3b565b61406c6040830185613a85565b613cb06060830184613a85565b60208101612ee18284613a8e565b60408101612ee18284613acc565b60c08101612ee18284613af0565b6101408101612ee18284613b60565b60208082528101610a168184613bf7565b6101a08101612ee18284613cb9565b6101e081016140e1828c613d8f565b6140ee606083018b613d8f565b6140fb60c083018a613d8f565b614109610120830189613a85565b614117610140830188613a85565b614125610160830187613a16565b614133610180830186613a16565b6141416101a0830185613a16565b8181036101c08301526141548184613a97565b9b9a5050505050505050505050565b60208082528101610a168184613dc6565b60408101613fb08285613a85565b60405181810167ffffffffffffffff811182821017156141a157600080fd5b604052919050565b600067ffffffffffffffff8211156141c057600080fd5b506020601f91909101601f19160190565b60200190565b5190565b600160a060020a031690565b151590565b60ff1690565b7fff000000000000000000000000000000000000000000000000000000000000001690565b6000612ee1826141db565b82818337506000910152565b60005b83811015614249578181015183820152602001614231565b83811115611dcc5750506000910152565b601f01601f1916905600a265627a7a723058202e53b37efb3af00c77b5a72ec2fc334d8827af4f0d3fde8006852b444c64b4636c6578706572696d656e74616cf50037",
  "source": "pragma solidity ^0.4.24;\npragma experimental ABIEncoderV2;\n\nimport \"./tools/IexecODBLibCore.sol\";\nimport \"./tools/IexecODBLibOrders.sol\";\nimport \"./tools/SafeMathOZ.sol\";\n\nimport \"./Escrow.sol\";\nimport \"./IexecHubAccessor.sol\";\n\nimport \"./registries/Dapp.sol\";\nimport \"./registries/Data.sol\";\nimport \"./registries/Pool.sol\";\n\nimport \"./permissions/GroupInterface.sol\";\n\ncontract IexecClerk is Escrow, IexecHubAccessor\n{\n\tusing SafeMathOZ for uint256;\n\tusing IexecODBLibOrders for *;\n\n\t/***************************************************************************\n\t *                                Constants                                *\n\t ***************************************************************************/\n\tuint256 public constant POOL_STAKE_RATIO = 30;\n\tuint256 public constant KITTY_RATIO      = 10;\n\tuint256 public constant KITTY_MIN        = 1000;\n\n\t/***************************************************************************\n\t *                            EIP712 signature                             *\n\t ***************************************************************************/\n\tbytes32 public /* immutable */ EIP712DOMAIN_SEPARATOR;\n\n\t/***************************************************************************\n\t *                               Clerk data                                *\n\t ***************************************************************************/\n\tmapping(bytes32 => bytes32[]             ) public m_userdeals;\n\tmapping(bytes32 => IexecODBLibCore.Deal  ) public m_deals;\n\tmapping(bytes32 => IexecODBLibCore.Config) public m_configs;\n\tmapping(bytes32 => uint256               ) public m_consumed;\n\tmapping(bytes32 => bool                  ) public m_presigned;\n\n\t/***************************************************************************\n\t *                                 Events                                  *\n\t ***************************************************************************/\n\tevent OrdersMatched  (bytes32 dealid,\n\t                      bytes32 dappHash,\n\t                      bytes32 dataHash,\n\t                      bytes32 poolHash,\n\t                      bytes32 userHash,\n\t\t\t\t\t\t\t\t\t\t\t\tuint256 volume);\n\tevent ClosedDappOrder(bytes32 dappHash);\n\tevent ClosedDataOrder(bytes32 dataHash);\n\tevent ClosedPoolOrder(bytes32 poolHash);\n\tevent ClosedUserOrder(bytes32 userHash);\n\n\tevent SchedulerNotice(address indexed pool, bytes32 dealid);\n\n\t/***************************************************************************\n\t *                               Constructor                               *\n\t ***************************************************************************/\n\tconstructor(\n\t\taddress _rlctoken,\n\t\taddress _iexechub)\n\tpublic\n\tEscrow(_rlctoken)\n\tIexecHubAccessor(_iexechub)\n\t{\n\t\tEIP712DOMAIN_SEPARATOR = IexecODBLibOrders.EIP712Domain({\n\t\t\tname:              \"iExecODB\"\n\t\t, version:           \"3.0-alpha\"\n\t\t, chainId:           3\n\t\t, verifyingContract: this\n\t\t}).hash();\n\t}\n\n\t/***************************************************************************\n\t *                                Accessor                                 *\n\t ***************************************************************************/\n\tfunction viewUserDeals(bytes32 _id)\n\tpublic view returns (bytes32[])\n\t{\n\t\treturn m_userdeals[_id];\n\t}\n\n\tfunction viewDeal(bytes32 _id)\n\tpublic view returns (IexecODBLibCore.Deal)\n\t{\n\t\treturn m_deals[_id];\n\t}\n\n\tfunction viewConfig(bytes32 _id)\n\tpublic view returns (IexecODBLibCore.Config)\n\t{\n\t\treturn m_configs[_id];\n\t}\n\n\t/***************************************************************************\n\t *                         Enterprise restriction                          *\n\t ***************************************************************************/\n\t/*\n\tfunction isContract(address addr)\n\tpublic view returns (bool)\n\t{\n\t\tassert(false);\n\t\tuint size;\n\t\tassembly { size := extcodesize(addr) }\n\t\treturn size > 0;\n\t}\n\t*/\n\n\t// Fails fail for wrong simple addresses\n\tfunction checkRestriction(address _restriction, address _candidate, bytes1 _mask)\n\tpublic view returns (bool)\n\t{\n\t\treturn _restriction == address(0) // No restriction\n\t\t    || _restriction == _candidate // Simple address\n\t\t    || GroupInterface(_restriction).viewPermissions(_candidate) & _mask == _mask;  // Permission group\n\t}\n\n\t/***************************************************************************\n\t *                       Hashing and signature tools                       *\n\t ***************************************************************************/\n\tfunction verify(\n\t\taddress                     _signer,\n\t\tbytes32                     _hash,\n\t\tIexecODBLibOrders.signature _signature)\n\tpublic view returns (bool)\n\t{\n\t\treturn _signer == ecrecover(\n\t\t\tkeccak256(abi.encodePacked(\"\\x19\\x01\", EIP712DOMAIN_SEPARATOR, _hash)),\n\t\t\t_signature.v,\n\t\t\t_signature.r,\n\t\t\t_signature.s\n\t\t) || m_presigned[_hash];\n\t}\n\n\t/***************************************************************************\n\t *                            pre-signing tools                            *\n\t ***************************************************************************/\n\tfunction signDappOrder(IexecODBLibOrders.DappOrder _dapporder)\n\tpublic returns (bool)\n\t{\n\t\trequire(msg.sender == Dapp(_dapporder.dapp).m_owner());\n\t\tm_presigned[_dapporder.hash()] = true;\n\t\treturn true;\n\t}\n\n\tfunction signDataOrder(IexecODBLibOrders.DataOrder _dataorder)\n\tpublic returns (bool)\n\t{\n\t\trequire(msg.sender == Data(_dataorder.data).m_owner());\n\t\tm_presigned[_dataorder.hash()] = true;\n\t\treturn true;\n\t}\n\n\tfunction signPoolOrder(IexecODBLibOrders.PoolOrder _poolorder)\n\tpublic returns (bool)\n\t{\n\t\trequire(msg.sender == Pool(_poolorder.pool).m_owner());\n\t\tm_presigned[_poolorder.hash()] = true;\n\t\treturn true;\n\t}\n\n\tfunction signUserOrder(IexecODBLibOrders.UserOrder _userorder)\n\tpublic returns (bool)\n\t{\n\t\trequire(msg.sender == _userorder.requester);\n\t\tm_presigned[_userorder.hash()] = true;\n\t\treturn true;\n\t}\n\n\t/***************************************************************************\n\t *                              Clerk methods                              *\n\t ***************************************************************************/\n\tstruct Identities\n\t{\n\t\tbytes32 dappHash;\n\t\tbytes32 dataHash;\n\t\tbytes32 poolHash;\n\t\tbytes32 userHash;\n\t\taddress dappOwner;\n\t\taddress dataOwner;\n\t\taddress poolOwner;\n\t\tbool    hasData;\n\t}\n\n\tfunction matchOrders(\n\t\tIexecODBLibOrders.DappOrder _dapporder,\n\t\tIexecODBLibOrders.DataOrder _dataorder,\n\t\tIexecODBLibOrders.PoolOrder _poolorder,\n\t\tIexecODBLibOrders.UserOrder _userorder)\n\tpublic returns (bytes32)\n\t{\n\t\t/**\n\t\t * Check orders compatibility\n\t\t */\n\n\t\t// computation environment & allowed enough funds\n\t\trequire(_userorder.category     == _poolorder.category );\n\t\trequire(_userorder.trust        <= _poolorder.trust    );\n\t\trequire(_userorder.tag          == _poolorder.tag      );\n\t\trequire(_userorder.dappmaxprice >= _dapporder.dappprice);\n\t\trequire(_userorder.datamaxprice >= _dataorder.dataprice);\n\t\trequire(_userorder.poolmaxprice >= _poolorder.poolprice);\n\n\t\t// Check matching and restrictions\n\t\trequire(_userorder.dapp == _dapporder.dapp);\n\t\trequire(_userorder.data == _dataorder.data);\n\t\trequire(checkRestriction(_userorder.pool,         _poolorder.pool,      0x01 /*IexecPermission.SUBMIT*/ )); // userorder.pool is a restriction\n\t\trequire(checkRestriction(_dapporder.datarestrict, _dataorder.data,      0x01 /*IexecPermission.SUBMIT*/ ));\n\t\trequire(checkRestriction(_dapporder.poolrestrict, _poolorder.pool,      0x01 /*IexecPermission.SUBMIT*/ ));\n\t\trequire(checkRestriction(_dapporder.userrestrict, _userorder.requester, 0x01 /*IexecPermission.SUBMIT*/ ));\n\t\trequire(checkRestriction(_dataorder.dapprestrict, _dapporder.dapp,      0x01 /*IexecPermission.SUBMIT*/ ));\n\t\trequire(checkRestriction(_dataorder.poolrestrict, _poolorder.pool,      0x01 /*IexecPermission.SUBMIT*/ ));\n\t\trequire(checkRestriction(_dataorder.userrestrict, _userorder.requester, 0x01 /*IexecPermission.SUBMIT*/ ));\n\t\trequire(checkRestriction(_poolorder.dapprestrict, _dapporder.dapp,      0x01 /*IexecPermission.SUBMIT*/ ));\n\t\trequire(checkRestriction(_poolorder.datarestrict, _dataorder.data,      0x01 /*IexecPermission.SUBMIT*/ ));\n\t\trequire(checkRestriction(_poolorder.userrestrict, _userorder.requester, 0x01 /*IexecPermission.SUBMIT*/ ));\n\n\t\trequire(iexechub.checkResources(_dapporder.dapp, _dataorder.data, _poolorder.pool));\n\n\t\t/**\n\t\t * Check orders authenticity\n\t\t */\n\t\tIdentities memory ids;\n\t\tids.hasData = _dataorder.data != address(0);\n\n\t\t// dapp\n\t\tids.dappHash  = _dapporder.hash();\n\t\tids.dappOwner = Dapp(_dapporder.dapp).m_owner();\n\t\trequire(verify(ids.dappOwner, ids.dappHash, _dapporder.sign));\n\n\t\t// data\n\t\tif (ids.hasData) // only check if dataset is enabled\n\t\t{\n\t\t\tids.dataHash  = _dataorder.hash();\n\t\t\tids.dataOwner = Data(_dataorder.data).m_owner();\n\t\t\trequire(verify(ids.dataOwner, ids.dataHash, _dataorder.sign));\n\t\t}\n\n\t\t// pool\n\t\tids.poolHash  = _poolorder.hash();\n\t\tids.poolOwner = Pool(_poolorder.pool).m_owner();\n\t\trequire(verify(ids.poolOwner, ids.poolHash, _poolorder.sign));\n\n\t\t// user\n\t\tids.userHash = _userorder.hash();\n\t\trequire(verify(_userorder.requester, ids.userHash, _userorder.sign));\n\n\t\t/**\n\t\t * Check availability\n\t\t */\n\t\t// require(m_consumed[hashes[0]] < _dapporder.volume); // checked by volume\n\t\t// require(m_consumed[hashes[1]] < _dataorder.volume); // checked by volume\n\t\t// require(m_consumed[hashes[2]] < _poolorder.volume); // checked by volume\n\t\t// require(m_consumed[hashes[3]] < _userorder.volume); // checked by volume\n\t\tuint256 volume;\n\t\tvolume =                          _dapporder.volume.sub(m_consumed[ids.dappHash]);\n\t\tvolume = ids.hasData ? volume.min(_dataorder.volume.sub(m_consumed[ids.dataHash])) : volume;\n\t\tvolume =               volume.min(_poolorder.volume.sub(m_consumed[ids.poolHash]));\n\t\tvolume =               volume.min(_userorder.volume.sub(m_consumed[ids.userHash]));\n\t\trequire(volume > 0);\n\n\t\t/**\n\t\t * Record\n\t\t */\n\t\tbytes32 dealid = keccak256(abi.encodePacked(\n\t\t\tids.userHash,            // userHash\n\t\t\tm_consumed[ids.userHash] // idx of first subtask\n\t\t));\n\n\t\tIexecODBLibCore.Deal storage deal = m_deals[dealid];\n\t\tdeal.dapp.pointer = _dapporder.dapp;\n\t\tdeal.dapp.owner   = ids.dappOwner;\n\t\tdeal.dapp.price   = _dapporder.dappprice;\n\t\tdeal.data.owner   = ids.dataOwner;\n\t\tdeal.data.pointer = _dataorder.data;\n\t\tdeal.data.price   = ids.hasData ? _dataorder.dataprice : 0;\n\t\tdeal.pool.pointer = _poolorder.pool;\n\t\tdeal.pool.owner   = ids.poolOwner;\n\t\tdeal.pool.price   = _poolorder.poolprice;\n\t\tdeal.trust        = _poolorder.trust;\n\t\tdeal.tag          = _poolorder.tag;\n\t\tdeal.requester    = _userorder.requester;\n\t\tdeal.beneficiary  = _userorder.beneficiary;\n\t\tdeal.callback     = _userorder.callback;\n\t\tdeal.params       = _userorder.params;\n\n\t\tIexecODBLibCore.Config storage config = m_configs[dealid];\n\t\tconfig.category             = _poolorder.category;\n\t\tconfig.startTime            = now;\n\t\tconfig.botFirst             = m_consumed[ids.userHash];\n\t\tconfig.botSize              = volume;\n\t\tconfig.workerStake          = _poolorder.poolprice.percentage(Pool(_poolorder.pool).m_workerStakeRatioPolicy());\n\t\tconfig.schedulerRewardRatio = Pool(_poolorder.pool).m_schedulerRewardRatioPolicy();\n\n\t\tm_userdeals[ids.userHash].push(dealid);\n\n\t\t/**\n\t\t * Update consumed\n\t\t */\n\t\tm_consumed[ids.dappHash] = m_consumed[ids.dappHash].add(              volume    );\n\t\tm_consumed[ids.dataHash] = m_consumed[ids.dataHash].add(ids.hasData ? volume : 0);\n\t\tm_consumed[ids.poolHash] = m_consumed[ids.poolHash].add(              volume    );\n\t\tm_consumed[ids.userHash] = m_consumed[ids.userHash].add(              volume    );\n\n\t\t/**\n\t\t * Lock\n\t\t */\n\t\tlock(\n\t\t\tdeal.requester,\n\t\t\tdeal.dapp.price\n\t\t\t.add(deal.data.price)\n\t\t\t.add(deal.pool.price)\n\t\t\t.mul(volume)\n\t\t);\n\t\tlock(\n\t\t\tdeal.pool.owner,\n\t\t\tdeal.pool.price\n\t\t\t.percentage(POOL_STAKE_RATIO) // ORDER IS IMPORTANT HERE!\n\t\t\t.mul(volume)                  // ORDER IS IMPORTANT HERE!\n\t\t);\n\n\t\t/**\n\t\t * Advertize deal\n\t\t */\n\t\temit SchedulerNotice(deal.pool.pointer, dealid);\n\n\t\t/**\n\t\t * Advertize consumption\n\t\t */\n\t\temit OrdersMatched(\n\t\t\tdealid,\n\t\t\tids.dappHash,\n\t\t\tids.dataHash,\n\t\t\tids.poolHash,\n\t\t\tids.userHash,\n\t\t\tvolume\n\t\t);\n\n\t\treturn dealid;\n\t}\n\n\tfunction cancelDappOrder(IexecODBLibOrders.DappOrder _dapporder)\n\tpublic returns (bool)\n\t{\n\t\t/**\n\t\t * Only Dapp owner can cancel\n\t\t */\n\t\trequire(msg.sender == Dapp(_dapporder.dapp).m_owner());\n\n\t\t/**\n\t\t * Check authenticity\n\t\t */\n\t\tbytes32 dapporderHash = _dapporder.hash();\n\t\trequire(verify(\n\t\t\tmsg.sender, // dapp owner\n\t\t\tdapporderHash,\n\t\t\t_dapporder.sign\n\t\t));\n\n\t\t/**\n\t\t * Cancel market by marking it consumed\n\t\t */\n\t\tm_consumed[dapporderHash] = _dapporder.volume;\n\n\t\temit ClosedDappOrder(dapporderHash);\n\t\treturn true;\n\t}\n\n\tfunction cancelDataOrder(IexecODBLibOrders.DataOrder _dataorder)\n\tpublic returns (bool)\n\t{\n\t\t/**\n\t\t * Only dataset owner can cancel\n\t\t */\n\t\trequire(msg.sender == Data(_dataorder.data).m_owner());\n\n\t\t/**\n\t\t * Check authenticity\n\t\t */\n\t\tbytes32 dataorderHash = _dataorder.hash();\n\t\trequire(verify(\n\t\t\tmsg.sender, // dataset owner\n\t\t\tdataorderHash,\n\t\t\t_dataorder.sign\n\t\t));\n\n\t\t/**\n\t\t * Cancel market by marking it consumed\n\t\t */\n\t\tm_consumed[dataorderHash] = _dataorder.volume;\n\n\t\temit ClosedDataOrder(dataorderHash);\n\t\treturn true;\n\t}\n\n\tfunction cancelPoolOrder(IexecODBLibOrders.PoolOrder _poolorder)\n\tpublic returns (bool)\n\t{\n\t\t/**\n\t\t * Only workerpool owner can cancel\n\t\t */\n\t\trequire(msg.sender == Pool(_poolorder.pool).m_owner());\n\n\t\t/**\n\t\t * Check authenticity\n\t\t */\n\t\tbytes32 poolorderHash = _poolorder.hash();\n\t\trequire(verify(\n\t\t\tmsg.sender, // workerpool owner\n\t\t\tpoolorderHash,\n\t\t\t_poolorder.sign\n\t\t));\n\n\t\t/**\n\t\t * Cancel market by marking it consumed\n\t\t */\n\t\tm_consumed[poolorderHash] = _poolorder.volume;\n\n\t\temit ClosedPoolOrder(poolorderHash);\n\t\treturn true;\n\t}\n\n\tfunction cancelUserOrder(IexecODBLibOrders.UserOrder _userorder)\n\tpublic returns (bool)\n\t{\n\t\t/**\n\t\t * Only requester can cancel\n\t\t */\n\t\trequire(msg.sender == _userorder.requester);\n\n\t\t/**\n\t\t * Check authenticity\n\t\t */\n\t\tbytes32 userorderHash = _userorder.hash();\n\t\trequire(verify(\n\t\t\tmsg.sender, // requester\n\t\t\tuserorderHash,\n\t\t\t_userorder.sign\n\t\t));\n\n\t\t/**\n\t\t * Cancel market by marking it consumed\n\t\t */\n\t\tm_consumed[userorderHash] = _userorder.volume;\n\n\t\temit ClosedUserOrder(userorderHash);\n\t\treturn true;\n\t}\n\n\t/***************************************************************************\n\t *                     Escrow overhead for affectation                     *\n\t ***************************************************************************/\n\tfunction lockSubscription  (address _worker, uint256 _amount) public onlyIexecHub { lock(_worker, _amount);   }\n\tfunction unlockSubscription(address _worker, uint256 _amount) public onlyIexecHub { unlock(_worker, _amount); }\n\n\t/***************************************************************************\n\t *                    Escrow overhead for contribution                     *\n\t ***************************************************************************/\n\tfunction lockContribution(bytes32 _dealid, address _worker)\n\tpublic onlyIexecHub\n\t{\n\t\tlock(_worker, m_configs[_dealid].workerStake);\n\t}\n\n\tfunction unlockContribution(bytes32 _dealid, address _worker)\n\tpublic onlyIexecHub\n\t{\n\t\tunlock(_worker, m_configs[_dealid].workerStake);\n\t}\n\n\tfunction unlockAndRewardForContribution(bytes32 _dealid, address _worker, uint256 _amount)\n\tpublic onlyIexecHub\n\t{\n\t\tunlock(_worker, m_configs[_dealid].workerStake);\n\t\treward(_worker, _amount);\n\t}\n\n\tfunction seizeContribution(bytes32 _dealid, address _worker)\n\tpublic onlyIexecHub\n\t{\n\t\tseize(_worker, m_configs[_dealid].workerStake);\n\t}\n\n\tfunction rewardForScheduling(bytes32 _dealid, uint256 _amount)\n\tpublic onlyIexecHub\n\t{\n\t\treward(m_deals[_dealid].pool.owner, _amount);\n\t}\n\n\tfunction successWork(bytes32 _dealid)\n\tpublic onlyIexecHub\n\t{\n\t\tIexecODBLibCore.Deal memory deal = m_deals[_dealid];\n\n\t\tuint256 userstake = deal.dapp.price\n\t\t                    .add(deal.data.price)\n\t\t                    .add(deal.pool.price);\n\t\tuint256 poolstake = deal.pool.price\n\t\t                    .percentage(POOL_STAKE_RATIO);\n\n\t\tseize (deal.requester,  userstake);\n\t\tunlock(deal.pool.owner, poolstake);\n\t\treward(deal.dapp.owner, deal.dapp.price);\n\t\treward(deal.data.owner, deal.data.price);\n\t\t// pool reward performed by consensus manager\n\n/*\n\t\tuint256 kitty = viewAccount(address(0)).locked;\n\t\tif (kitty > 0)\n\t\t{\n\t\t\tkitty = kitty\n\t\t\t        .percentage(KITTY_RATIO) // fraction\n\t\t\t        .max(KITTY_MIN)          // at least this\n\t\t\t        .min(kitty);             // but not more than available\n\t\t\tseize (address(0),      kitty);\n\t\t\treward(deal.pool.owner, kitty);\n\t\t}\n*/\n\t}\n\n\tfunction failedWork(bytes32 _dealid)\n\tpublic onlyIexecHub\n\t{\n\t\tIexecODBLibCore.Deal memory deal = m_deals[_dealid];\n\n\t\tuint256 userstake = deal.dapp.price\n\t\t                    .add(deal.data.price)\n\t\t                    .add(deal.pool.price);\n\t\tuint256 poolstake = deal.pool.price\n\t\t                    .percentage(POOL_STAKE_RATIO);\n\n\t\tunlock(deal.requester,  userstake);\n\t\tseize (deal.pool.owner, poolstake);\n\t\treward(address(0),      poolstake); //  Kitty / Burn\n\t\tlock  (address(0),      poolstake); //  Kitty / Burn\n\t}\n\n}\n",
  "sourcePath": "/home/amxx/Work/iExec/code/PoCo-dev/contracts/IexecClerk.sol",
  "compiler": {
    "name": "solc",
    "version": "0.4.25+commit.59dbf8f1.Emscripten.clang"
  },
  "schemaVersion": "3.0.0-beta.1",
  "updatedAt": "2018-10-05T12:37:37.137Z"
}