{
  "contractName": "IexecHub",
  "abi": [
    {
      "constant": true,
      "inputs": [],
      "name": "dataregistry",
      "outputs": [
        {
          "name": "",
          "type": "address"
        }
      ],
      "payable": false,
      "stateMutability": "view",
      "type": "function"
    },
    {
      "constant": false,
      "inputs": [
        {
          "name": "name",
          "type": "string"
        },
        {
          "name": "description",
          "type": "string"
        },
        {
          "name": "workClockTimeRef",
          "type": "uint256"
        }
      ],
      "name": "createCategory",
      "outputs": [
        {
          "name": "",
          "type": "uint256"
        }
      ],
      "payable": false,
      "stateMutability": "nonpayable",
      "type": "function"
    },
    {
      "constant": true,
      "inputs": [],
      "name": "dappregistry",
      "outputs": [
        {
          "name": "",
          "type": "address"
        }
      ],
      "payable": false,
      "stateMutability": "view",
      "type": "function"
    },
    {
      "constant": true,
      "inputs": [],
      "name": "CONSENSUS_DURATION_RATIO",
      "outputs": [
        {
          "name": "",
          "type": "uint256"
        }
      ],
      "payable": false,
      "stateMutability": "view",
      "type": "function"
    },
    {
      "constant": true,
      "inputs": [],
      "name": "poolregistry",
      "outputs": [
        {
          "name": "",
          "type": "address"
        }
      ],
      "payable": false,
      "stateMutability": "view",
      "type": "function"
    },
    {
      "constant": true,
      "inputs": [
        {
          "name": "_catid",
          "type": "uint256"
        }
      ],
      "name": "viewCategory",
      "outputs": [
        {
          "components": [
            {
              "name": "name",
              "type": "string"
            },
            {
              "name": "description",
              "type": "string"
            },
            {
              "name": "workClockTimeRef",
              "type": "uint256"
            }
          ],
          "name": "",
          "type": "tuple"
        }
      ],
      "payable": false,
      "stateMutability": "view",
      "type": "function"
    },
    {
      "constant": true,
      "inputs": [],
      "name": "SCORE_UNITARY_SLASH",
      "outputs": [
        {
          "name": "",
          "type": "uint256"
        }
      ],
      "payable": false,
      "stateMutability": "view",
      "type": "function"
    },
    {
      "constant": true,
      "inputs": [
        {
          "name": "",
          "type": "address"
        }
      ],
      "name": "m_workerScores",
      "outputs": [
        {
          "name": "",
          "type": "uint256"
        }
      ],
      "payable": false,
      "stateMutability": "view",
      "type": "function"
    },
    {
      "constant": true,
      "inputs": [
        {
          "name": "",
          "type": "bytes32"
        },
        {
          "name": "",
          "type": "address"
        }
      ],
      "name": "m_contributions",
      "outputs": [
        {
          "name": "status",
          "type": "uint8"
        },
        {
          "name": "resultHash",
          "type": "bytes32"
        },
        {
          "name": "resultSign",
          "type": "bytes32"
        },
        {
          "name": "enclaveChallenge",
          "type": "address"
        },
        {
          "name": "score",
          "type": "uint256"
        },
        {
          "name": "weight",
          "type": "uint256"
        }
      ],
      "payable": false,
      "stateMutability": "view",
      "type": "function"
    },
    {
      "constant": true,
      "inputs": [],
      "name": "iexecclerk",
      "outputs": [
        {
          "name": "",
          "type": "address"
        }
      ],
      "payable": false,
      "stateMutability": "view",
      "type": "function"
    },
    {
      "constant": true,
      "inputs": [],
      "name": "countCategory",
      "outputs": [
        {
          "name": "",
          "type": "uint256"
        }
      ],
      "payable": false,
      "stateMutability": "view",
      "type": "function"
    },
    {
      "constant": true,
      "inputs": [],
      "name": "m_owner",
      "outputs": [
        {
          "name": "",
          "type": "address"
        }
      ],
      "payable": false,
      "stateMutability": "view",
      "type": "function"
    },
    {
      "constant": true,
      "inputs": [],
      "name": "REVEAL_DURATION_RATIO",
      "outputs": [
        {
          "name": "",
          "type": "uint256"
        }
      ],
      "payable": false,
      "stateMutability": "view",
      "type": "function"
    },
    {
      "constant": true,
      "inputs": [
        {
          "name": "",
          "type": "uint256"
        }
      ],
      "name": "m_categories",
      "outputs": [
        {
          "name": "name",
          "type": "string"
        },
        {
          "name": "description",
          "type": "string"
        },
        {
          "name": "workClockTimeRef",
          "type": "uint256"
        }
      ],
      "payable": false,
      "stateMutability": "view",
      "type": "function"
    },
    {
      "constant": true,
      "inputs": [
        {
          "name": "",
          "type": "bytes32"
        }
      ],
      "name": "m_tasks",
      "outputs": [
        {
          "name": "status",
          "type": "uint8"
        },
        {
          "name": "dealid",
          "type": "bytes32"
        },
        {
          "name": "idx",
          "type": "uint256"
        },
        {
          "name": "consensusDeadline",
          "type": "uint256"
        },
        {
          "name": "consensusValue",
          "type": "bytes32"
        },
        {
          "name": "revealDeadline",
          "type": "uint256"
        },
        {
          "name": "revealCounter",
          "type": "uint256"
        },
        {
          "name": "winnerCounter",
          "type": "uint256"
        }
      ],
      "payable": false,
      "stateMutability": "view",
      "type": "function"
    },
    {
      "constant": false,
      "inputs": [
        {
          "name": "_newOwner",
          "type": "address"
        }
      ],
      "name": "transferOwnership",
      "outputs": [],
      "payable": false,
      "stateMutability": "nonpayable",
      "type": "function"
    },
    {
      "constant": true,
      "inputs": [
        {
          "name": "",
          "type": "address"
        }
      ],
      "name": "m_workerAffectations",
      "outputs": [
        {
          "name": "",
          "type": "address"
        }
      ],
      "payable": false,
      "stateMutability": "view",
      "type": "function"
    },
    {
      "inputs": [],
      "payable": false,
      "stateMutability": "nonpayable",
      "type": "constructor"
    },
    {
      "anonymous": false,
      "inputs": [
        {
          "indexed": true,
          "name": "taskid",
          "type": "bytes32"
        },
        {
          "indexed": true,
          "name": "pool",
          "type": "address"
        }
      ],
      "name": "ConsensusInitialize",
      "type": "event"
    },
    {
      "anonymous": false,
      "inputs": [
        {
          "indexed": true,
          "name": "taskid",
          "type": "bytes32"
        },
        {
          "indexed": true,
          "name": "worker",
          "type": "address"
        }
      ],
      "name": "ConsensusAllowContribution",
      "type": "event"
    },
    {
      "anonymous": false,
      "inputs": [
        {
          "indexed": true,
          "name": "taskid",
          "type": "bytes32"
        },
        {
          "indexed": true,
          "name": "worker",
          "type": "address"
        },
        {
          "indexed": false,
          "name": "resultHash",
          "type": "bytes32"
        }
      ],
      "name": "ConsensusContribute",
      "type": "event"
    },
    {
      "anonymous": false,
      "inputs": [
        {
          "indexed": true,
          "name": "taskid",
          "type": "bytes32"
        },
        {
          "indexed": false,
          "name": "consensus",
          "type": "bytes32"
        }
      ],
      "name": "ConsensusRevealConsensus",
      "type": "event"
    },
    {
      "anonymous": false,
      "inputs": [
        {
          "indexed": true,
          "name": "taskid",
          "type": "bytes32"
        },
        {
          "indexed": true,
          "name": "worker",
          "type": "address"
        },
        {
          "indexed": false,
          "name": "result",
          "type": "bytes32"
        }
      ],
      "name": "ConsensusReveal",
      "type": "event"
    },
    {
      "anonymous": false,
      "inputs": [
        {
          "indexed": true,
          "name": "taskid",
          "type": "bytes32"
        }
      ],
      "name": "ConsensusReopen",
      "type": "event"
    },
    {
      "anonymous": false,
      "inputs": [
        {
          "indexed": true,
          "name": "taskid",
          "type": "bytes32"
        },
        {
          "indexed": false,
          "name": "stdout",
          "type": "string"
        },
        {
          "indexed": false,
          "name": "stderr",
          "type": "string"
        },
        {
          "indexed": false,
          "name": "uri",
          "type": "string"
        }
      ],
      "name": "ConsensusFinalized",
      "type": "event"
    },
    {
      "anonymous": false,
      "inputs": [
        {
          "indexed": true,
          "name": "taskid",
          "type": "bytes32"
        }
      ],
      "name": "ConsensusClaimed",
      "type": "event"
    },
    {
      "anonymous": false,
      "inputs": [
        {
          "indexed": true,
          "name": "taskid",
          "type": "bytes32"
        },
        {
          "indexed": true,
          "name": "worker",
          "type": "address"
        }
      ],
      "name": "AccurateContribution",
      "type": "event"
    },
    {
      "anonymous": false,
      "inputs": [
        {
          "indexed": true,
          "name": "taskid",
          "type": "bytes32"
        },
        {
          "indexed": true,
          "name": "worker",
          "type": "address"
        }
      ],
      "name": "FaultyContribution",
      "type": "event"
    },
    {
      "anonymous": false,
      "inputs": [
        {
          "indexed": true,
          "name": "pool",
          "type": "address"
        },
        {
          "indexed": false,
          "name": "worker",
          "type": "address"
        }
      ],
      "name": "WorkerSubscription",
      "type": "event"
    },
    {
      "anonymous": false,
      "inputs": [
        {
          "indexed": true,
          "name": "pool",
          "type": "address"
        },
        {
          "indexed": false,
          "name": "worker",
          "type": "address"
        }
      ],
      "name": "WorkerUnsubscription",
      "type": "event"
    },
    {
      "anonymous": false,
      "inputs": [
        {
          "indexed": true,
          "name": "pool",
          "type": "address"
        },
        {
          "indexed": false,
          "name": "worker",
          "type": "address"
        }
      ],
      "name": "WorkerEviction",
      "type": "event"
    },
    {
      "anonymous": false,
      "inputs": [
        {
          "indexed": false,
          "name": "catid",
          "type": "uint256"
        },
        {
          "indexed": false,
          "name": "name",
          "type": "string"
        },
        {
          "indexed": false,
          "name": "description",
          "type": "string"
        },
        {
          "indexed": false,
          "name": "workClockTimeRef",
          "type": "uint256"
        }
      ],
      "name": "CreateCategory",
      "type": "event"
    },
    {
      "anonymous": false,
      "inputs": [
        {
          "indexed": true,
          "name": "previousOwner",
          "type": "address"
        },
        {
          "indexed": true,
          "name": "newOwner",
          "type": "address"
        }
      ],
      "name": "OwnershipTransferred",
      "type": "event"
    },
    {
      "constant": false,
      "inputs": [
        {
          "name": "_iexecclerkAddress",
          "type": "address"
        },
        {
          "name": "_dappRegistryAddress",
          "type": "address"
        },
        {
          "name": "_dataRegistryAddress",
          "type": "address"
        },
        {
          "name": "_poolRegistryAddress",
          "type": "address"
        }
      ],
      "name": "attachContracts",
      "outputs": [],
      "payable": false,
      "stateMutability": "nonpayable",
      "type": "function"
    },
    {
      "constant": true,
      "inputs": [
        {
          "name": "_taskid",
          "type": "bytes32"
        }
      ],
      "name": "viewTask",
      "outputs": [
        {
          "components": [
            {
              "name": "status",
              "type": "uint8"
            },
            {
              "name": "dealid",
              "type": "bytes32"
            },
            {
              "name": "idx",
              "type": "uint256"
            },
            {
              "name": "consensusDeadline",
              "type": "uint256"
            },
            {
              "name": "consensusValue",
              "type": "bytes32"
            },
            {
              "name": "revealDeadline",
              "type": "uint256"
            },
            {
              "name": "revealCounter",
              "type": "uint256"
            },
            {
              "name": "winnerCounter",
              "type": "uint256"
            },
            {
              "name": "contributors",
              "type": "address[]"
            }
          ],
          "name": "",
          "type": "tuple"
        }
      ],
      "payable": false,
      "stateMutability": "view",
      "type": "function"
    },
    {
      "constant": true,
      "inputs": [
        {
          "name": "_taskid",
          "type": "bytes32"
        },
        {
          "name": "_worker",
          "type": "address"
        }
      ],
      "name": "viewContribution",
      "outputs": [
        {
          "components": [
            {
              "name": "status",
              "type": "uint8"
            },
            {
              "name": "resultHash",
              "type": "bytes32"
            },
            {
              "name": "resultSign",
              "type": "bytes32"
            },
            {
              "name": "enclaveChallenge",
              "type": "address"
            },
            {
              "name": "score",
              "type": "uint256"
            },
            {
              "name": "weight",
              "type": "uint256"
            }
          ],
          "name": "",
          "type": "tuple"
        }
      ],
      "payable": false,
      "stateMutability": "view",
      "type": "function"
    },
    {
      "constant": true,
      "inputs": [
        {
          "name": "_worker",
          "type": "address"
        }
      ],
      "name": "viewScore",
      "outputs": [
        {
          "name": "",
          "type": "uint256"
        }
      ],
      "payable": false,
      "stateMutability": "view",
      "type": "function"
    },
    {
      "constant": true,
      "inputs": [
        {
          "name": "_worker",
          "type": "address"
        }
      ],
      "name": "viewAffectation",
      "outputs": [
        {
          "name": "",
          "type": "address"
        }
      ],
      "payable": false,
      "stateMutability": "view",
      "type": "function"
    },
    {
      "constant": true,
      "inputs": [
        {
          "name": "daap",
          "type": "address"
        },
        {
          "name": "data",
          "type": "address"
        },
        {
          "name": "pool",
          "type": "address"
        }
      ],
      "name": "checkResources",
      "outputs": [
        {
          "name": "",
          "type": "bool"
        }
      ],
      "payable": false,
      "stateMutability": "view",
      "type": "function"
    },
    {
      "constant": false,
      "inputs": [
        {
          "name": "_dealid",
          "type": "bytes32"
        },
        {
          "name": "idx",
          "type": "uint256"
        }
      ],
      "name": "initialize",
      "outputs": [
        {
          "name": "",
          "type": "bytes32"
        }
      ],
      "payable": false,
      "stateMutability": "nonpayable",
      "type": "function"
    },
    {
      "constant": false,
      "inputs": [
        {
          "name": "_taskid",
          "type": "bytes32"
        },
        {
          "name": "_resultHash",
          "type": "bytes32"
        },
        {
          "name": "_resultSign",
          "type": "bytes32"
        },
        {
          "name": "_enclaveChallenge",
          "type": "address"
        },
        {
          "components": [
            {
              "name": "v",
              "type": "uint8"
            },
            {
              "name": "r",
              "type": "bytes32"
            },
            {
              "name": "s",
              "type": "bytes32"
            }
          ],
          "name": "_enclaveSign",
          "type": "tuple"
        },
        {
          "components": [
            {
              "name": "v",
              "type": "uint8"
            },
            {
              "name": "r",
              "type": "bytes32"
            },
            {
              "name": "s",
              "type": "bytes32"
            }
          ],
          "name": "_poolSign",
          "type": "tuple"
        }
      ],
      "name": "signedContribute",
      "outputs": [],
      "payable": false,
      "stateMutability": "nonpayable",
      "type": "function"
    },
    {
      "constant": false,
      "inputs": [
        {
          "name": "_taskid",
          "type": "bytes32"
        },
        {
          "name": "_consensus",
          "type": "bytes32"
        }
      ],
      "name": "revealConsensus",
      "outputs": [],
      "payable": false,
      "stateMutability": "nonpayable",
      "type": "function"
    },
    {
      "constant": false,
      "inputs": [
        {
          "name": "_taskid",
          "type": "bytes32"
        },
        {
          "name": "_result",
          "type": "bytes32"
        }
      ],
      "name": "reveal",
      "outputs": [],
      "payable": false,
      "stateMutability": "nonpayable",
      "type": "function"
    },
    {
      "constant": false,
      "inputs": [
        {
          "name": "_taskid",
          "type": "bytes32"
        }
      ],
      "name": "reopen",
      "outputs": [],
      "payable": false,
      "stateMutability": "nonpayable",
      "type": "function"
    },
    {
      "constant": false,
      "inputs": [
        {
          "name": "_taskid",
          "type": "bytes32"
        },
        {
          "name": "_stdout",
          "type": "string"
        },
        {
          "name": "_stderr",
          "type": "string"
        },
        {
          "name": "_uri",
          "type": "string"
        }
      ],
      "name": "finalizeWork",
      "outputs": [],
      "payable": false,
      "stateMutability": "nonpayable",
      "type": "function"
    },
    {
      "constant": false,
      "inputs": [
        {
          "name": "_taskid",
          "type": "bytes32"
        }
      ],
      "name": "claimfailed",
      "outputs": [],
      "payable": false,
      "stateMutability": "nonpayable",
      "type": "function"
    },
    {
      "constant": false,
      "inputs": [
        {
          "name": "_pool",
          "type": "address"
        }
      ],
      "name": "subscribe",
      "outputs": [
        {
          "name": "",
          "type": "bool"
        }
      ],
      "payable": false,
      "stateMutability": "nonpayable",
      "type": "function"
    },
    {
      "constant": false,
      "inputs": [],
      "name": "unsubscribe",
      "outputs": [
        {
          "name": "",
          "type": "bool"
        }
      ],
      "payable": false,
      "stateMutability": "nonpayable",
      "type": "function"
    },
    {
      "constant": false,
      "inputs": [
        {
          "name": "_worker",
          "type": "address"
        }
      ],
      "name": "evict",
      "outputs": [
        {
          "name": "",
          "type": "bool"
        }
      ],
      "payable": false,
      "stateMutability": "nonpayable",
      "type": "function"
    }
  ],
  "bytecode": "0x608060405234801561001057600080fd5b5060008054600160a060020a031916331790556142e9806100326000396000f3006080604052600436106101875763ffffffff60e060020a600035041663097d630d811461018c5780631e99f54f146101c25780632641ad78146101e4578063298503d914610204578063313ecd9d1461023157806341a7726a1461024657806345b99d28146102665780634704511d1461027b5780634e1569351461029d5780634f5f44ec146102b25780635b36c66b146102df5780635f688cf7146102ff578063747bcd721461031f5780637858c11e1461033457806378fbba54146103545780637fdc7e7c14610374578063adccf0d5146103a6578063b01c6846146103d3578063b9a11e21146103e8578063c140996f14610408578063db230b521461041d578063deff41c11461043d578063e4fe52ac1461045f578063e741363b1461047f578063e9ebbaf8146104ac578063ea55ce85146104c1578063eeeb2ba0146104e1578063f2becc8714610510578063f2fde38b14610544578063f6c68e1014610564578063fc334e8c14610584578063fcae4484146105a4578063ff816a4f146105b9575b600080fd5b34801561019857600080fd5b506101ac6101a736600461394f565b6105d9565b6040516101b99190613f63565b60405180910390f35b3480156101ce57600080fd5b506101d76107a5565b6040516101b99190614005565b3480156101f057600080fd5b506101ac6101ff366004613913565b6107b4565b34801561021057600080fd5b5061022461021f366004613be6565b6109c9565b6040516101b99190613f71565b34801561023d57600080fd5b506101d7610ab6565b34801561025257600080fd5b506101ac610261366004613bc8565b610ac5565b34801561027257600080fd5b50610224610e80565b34801561028757600080fd5b5061029b61029636600461399c565b610e85565b005b3480156102a957600080fd5b506101d7610f02565b3480156102be57600080fd5b506102d26102cd366004613a1b565b610f11565b6040516101b99190614151565b3480156102eb57600080fd5b506102246102fa366004613a73565b611086565b34801561030b57600080fd5b506101d761031a366004613913565b611342565b34801561032b57600080fd5b50610224611360565b34801561034057600080fd5b5061022461034f366004613913565b611365565b34801561036057600080fd5b5061029b61036f366004613a1b565b611377565b34801561038057600080fd5b5061039461038f366004613a39565b611549565b6040516101b996959493929190614013565b3480156103b257600080fd5b506103c66103c1366004613a1b565b611597565b6040516101b99190614170565b3480156103df57600080fd5b506101d7611690565b3480156103f457600080fd5b5061029b610403366004613aa3565b61169f565b34801561041457600080fd5b50610224611cc1565b34801561042957600080fd5b50610224610438366004613913565b611cc8565b34801561044957600080fd5b50610452611ce3565b6040516101b99190613f3a565b34801561046b57600080fd5b5061029b61047a366004613b2b565b611cf2565b34801561048b57600080fd5b5061049f61049a366004613a39565b611ef4565b6040516101b99190614162565b3480156104b857600080fd5b50610224611f8e565b3480156104cd57600080fd5b5061029b6104dc366004613a73565b611f93565b3480156104ed57600080fd5b506105016104fc366004613a1b565b612275565b6040516101b99392919061411d565b34801561051c57600080fd5b5061053061052b366004613a1b565b6123ca565b6040516101b998979695949392919061406d565b34801561055057600080fd5b5061029b61055f366004613913565b612413565b34801561057057600080fd5b5061029b61057f366004613a1b565b61249a565b34801561059057600080fd5b5061029b61059f366004613a73565b61269f565b3480156105b057600080fd5b506101ac6128b6565b3480156105c557600080fd5b506104526105d4366004613913565b612a30565b60035460405160e060020a63c3c5a547028152600091600160a060020a03169063c3c5a5479061060d908790600401613f3a565b602060405180830381600087803b15801561062757600080fd5b505af115801561063b573d6000803e3d6000fd5b505050506040513d601f19601f8201168201806040525061065f91908101906139fd565b151561066a57600080fd5b600160a060020a03831615806106ff57506004805460405160e060020a63c3c5a547028152600160a060020a039091169163c3c5a547916106ad91879101613f3a565b602060405180830381600087803b1580156106c757600080fd5b505af11580156106db573d6000803e3d6000fd5b505050506040513d601f19601f820116820180604052506106ff91908101906139fd565b151561070a57600080fd5b60055460405160e060020a63c3c5a547028152600160a060020a039091169063c3c5a5479061073d908590600401613f3a565b602060405180830381600087803b15801561075757600080fd5b505af115801561076b573d6000803e3d6000fd5b505050506040513d601f19601f8201168201806040525061078f91908101906139fd565b151561079a57600080fd5b5060015b9392505050565b600454600160a060020a031681565b600160a060020a038082166000908152600960205260408120549091168015156107dd57600080fd5b33600160a060020a031681600160a060020a031663deff41c16040518163ffffffff1660e060020a028152600401602060405180830381600087803b15801561082557600080fd5b505af1158015610839573d6000803e3d6000fd5b505050506040513d601f19601f8201168201806040525061085d9190810190613931565b600160a060020a03161461087057600080fd5b600260009054906101000a9004600160a060020a0316600160a060020a031663858fb57c8483600160a060020a031663e2d36ef56040518163ffffffff1660e060020a028152600401602060405180830381600087803b1580156108d357600080fd5b505af11580156108e7573d6000803e3d6000fd5b505050506040513d601f19601f8201168201806040525061090b9190810190613cc9565b6040518363ffffffff1660e060020a02815260040161092b929190613f48565b600060405180830381600087803b15801561094557600080fd5b505af1158015610959573d6000803e3d6000fd5b505050600160a060020a03808516600090815260096020526040908190208054600160a060020a03191690555190831691507f34a1851ba7e964fceb44d895ae72310f00eaf8fd0d65d6f4994d7558bd123eae906109b8908690613f3a565b60405180910390a250600192915050565b600080548190600160a060020a031633146109e357600080fd5b6040805160608101825286815260208082018790529181018590526001805480820180835560009290925282518051929460039092027fb10e2d527612073b26eecdfd717e6a320cf44b4afac2b0732d9fcbe2b7fa0cf60192610a4992849201906133a1565b506020828101518051610a6292600185019201906133a1565b5060408201518160020155505090507f62bf08360c9d561749c54eaf4f8bf8cb6c8b6f4f40607bcec39a8172e714d25c81868686604051610aa69493929190614181565b60405180910390a1949350505050565b600354600160a060020a031681565b60055460405160e060020a63c3c5a547028152600091600160a060020a03169063c3c5a54790610af9908590600401614005565b602060405180830381600087803b158015610b1357600080fd5b505af1158015610b27573d6000803e3d6000fd5b505050506040513d601f19601f82011682018060405250610b4b91908101906139fd565b1515610b5657600080fd5b33600090815260096020526040902054600160a060020a031615610b7957600080fd5b600260009054906101000a9004600160a060020a0316600160a060020a031663c38da0963384600160a060020a031663e2d36ef56040518163ffffffff1660e060020a028152600401602060405180830381600087803b158015610bdc57600080fd5b505af1158015610bf0573d6000803e3d6000fd5b505050506040513d601f19601f82011682018060405250610c149190810190613cc9565b6040518363ffffffff1660e060020a028152600401610c34929190613f48565b600060405180830381600087803b158015610c4e57600080fd5b505af1158015610c62573d6000803e3d6000fd5b5050505081600160a060020a0316636ab6936a6040518163ffffffff1660e060020a028152600401602060405180830381600087803b158015610ca457600080fd5b505af1158015610cb8573d6000803e3d6000fd5b505050506040513d601f19601f82011682018060405250610cdc9190810190613cc9565b6002546040517f6b55f4a5000000000000000000000000000000000000000000000000000000008152600160a060020a0390911690636b55f4a590610d25903390600401613f3a565b6040805180830381600087803b158015610d3e57600080fd5b505af1158015610d52573d6000803e3d6000fd5b505050506040513d601f19601f82011682018060405250610d769190810190613c58565b511015610d8257600080fd5b81600160a060020a031663cc6f06a36040518163ffffffff1660e060020a028152600401602060405180830381600087803b158015610dc057600080fd5b505af1158015610dd4573d6000803e3d6000fd5b505050506040513d601f19601f82011682018060405250610df89190810190613cc9565b336000908152600860205260409020541015610e1357600080fd5b33600081815260096020526040908190208054600160a060020a031916600160a060020a038616908117909155905190917fa3974a24374c249e652605b8c9507c8e427206e633a0f29fe4cafa025662543791610e709190613f3a565b60405180910390a2506001919050565b600a81565b600054600160a060020a03163314610e9c57600080fd5b600254600160a060020a031615610eb257600080fd5b60028054600160a060020a03958616600160a060020a0319918216179091556003805494861694821694909417909355600480549285169284169290921790915560058054919093169116179055565b600554600160a060020a031681565b610f1961341b565b6001805483908110610f2757fe5b600091825260209182902060408051600393909302909101805460026001821615610100026000190190911604601f8101859004909402830160809081019092526060830184815292939092849290918491840182828015610fca5780601f10610f9f57610100808354040283529160200191610fca565b820191906000526020600020905b815481529060010190602001808311610fad57829003601f168201915b50505050508152602001600182018054600181600116156101000203166002900480601f01602080910402602001604051908101604052809291908181526020018280546001816001161561010002031660029004801561106c5780601f106110415761010080835404028352916020019161106c565b820191906000526020600020905b81548152906001019060200180831161104f57829003601f168201915b505050505081526020016002820154815250509050919050565b600061109061343d565b6002546040517fc8d967290000000000000000000000000000000000000000000000000000000081526000918291600160a060020a039091169063c8d96729906110de908990600401613f71565b60c060405180830381600087803b1580156110f857600080fd5b505af115801561110c573d6000803e3d6000fd5b505050506040513d601f19601f820116820180604052506111309190810190613c76565b604081015190935085101561114457600080fd5b6060830151604084015161115d9163ffffffff612a4b16565b851061116857600080fd5b604080516020808201899052818301889052825180830384018152606090920192839052815191929182918401908083835b602083106111b95780518252601f19909201916020918201910161119a565b51815160209384036101000a60001901801990921691161790526040805192909401829003909120600081815260069092529281209296509194509092506111ff915050565b815460ff16600481111561120f57fe5b1461121957600080fd5b805460ff1916600190811782558101869055600281018590556020830151835161126a919061125e90600a9061124e90610f11565b604001519063ffffffff612a6516565b9063ffffffff612a4b16565b600382015560025460405160e160020a635ba430d9028152600160a060020a039091169063b74861b2906112a2908990600401613f71565b600060405180830381600087803b1580156112bc57600080fd5b505af11580156112d0573d6000803e3d6000fd5b505050506040513d6000823e601f3d908101601f191682016040526112f89190810190613c94565b604090810151519051600160a060020a039091169083907f78c5f70e9451a4a7c0628d57299897e0e5eee0504ab1824bb0989b08978db47c90600090a38193505b50505092915050565b600160a060020a039081166000908152600960205260409020541690565b603281565b60086020526000908152604090205481565b600081815260066020526040812090806001835460ff16600481111561139957fe5b14806113b457506002835460ff1660048111156113b257fe5b145b15156113bf57600080fd5b60038301544210156113d057600080fd5b825460ff19166004908117845560025460018501546040517f5d0c812f000000000000000000000000000000000000000000000000000000008152600160a060020a0390921692635d0c812f92611428929101613f71565b600060405180830381600087803b15801561144257600080fd5b505af1158015611456573d6000803e3d6000fd5b50505050600091505b6008830154821015611518576008830180548390811061147b57fe5b60009182526020909120015460025460018501546040517f6eb528b5000000000000000000000000000000000000000000000000000000008152600160a060020a0393841694509290911691636eb528b5916114db918590600401613f7f565b600060405180830381600087803b1580156114f557600080fd5b505af1158015611509573d6000803e3d6000fd5b5050505081600101915061145f565b60405184907f7dfe63380371e82927224a64d2040f5820e8b1118d55c138e045175c325d66f190600090a250505050565b600760209081526000928352604080842090915290825290208054600182015460028301546003840154600485015460059095015460ff9094169492939192600160a060020a039091169186565b61159f613474565b60008281526006602052604090819020815161012081019092528054829060ff1660048111156115cb57fe5b60048111156115d657fe5b8152600182015460208083019190915260028301546040808401919091526003840154606084015260048401546080840152600584015460a0840152600684015460c0840152600784015460e084015260088401805482518185028101850190935280835261010090940193919290919083018282801561168057602002820191906000526020600020905b8154600160a060020a03168152600190910190602001808311611662575b5050505050815250509050919050565b600254600160a060020a031681565b6000806116aa6134c7565b600089815260066020908152604080832060078352818420338552909252918290206002546001830154935160e160020a635ba430d9028152929650909450600160a060020a03169163b74861b2916117069190600401613f71565b600060405180830381600087803b15801561172057600080fd5b505af1158015611734573d6000803e3d6000fd5b505050506040513d6000823e601f3d908101601f1916820160405261175c9190810190613c94565b90506001835460ff16600481111561177057fe5b1461177a57600080fd5b6003830154421061178a57600080fd5b6000825460ff16600381111561179c57fe5b146117a657600080fd5b604080516c01000000000000000000000000338102602080840191909152603483018d9052600160a060020a038a169091026054830152825160488184030181526068909201928390528151600193918291908401908083835b6020831061181f5780518252601f199092019160209182019101611800565b51815160209384036101000a6000190180199092169116179052604080519290940182900382207f19457468657265756d205369676e6564204d6573736167653a0a33320000000083830152603c8084019190915284518084039091018152605c9092019384905281519195509293508392850191508083835b602083106118b85780518252601f199092019160209182019101611899565b51815160209384036101000a6000190180199092169116179052604080519290940182900382208b518c8301518d870151600086529490930195869052611906975090955093909250613fd0565b60206040516020810390808403906000865af115801561192a573d6000803e3d6000fd5b50505060206040510351600160a060020a0316816040015160200151600160a060020a031614151561195b57600080fd5b6040808201515133600090815260096020529190912054600160a060020a0390811691161461198957600080fd5b600160a060020a0386161515806119a557506080810151600116155b15156119b057600080fd5b600160a060020a03861615611b46576040805160208082018b90528183018a90528251808303840181526060909201928390528151600193918291908401908083835b60208310611a125780518252601f1990920191602091820191016119f3565b51815160209384036101000a6000190180199092169116179052604080519290940182900382207f19457468657265756d205369676e6564204d6573736167653a0a33320000000083830152603c8084019190915284518084039091018152605c9092019384905281519195509293508392850191508083835b60208310611aab5780518252601f199092019160209182019101611a8c565b51815160209384036101000a6000190180199092169116179052604080519290940182900382208c518d8301518e870151600086529490930195869052611af9975090955093909250613fd0565b60206040516020810390808403906000865af1158015611b1d573d6000803e3d6000fd5b50505060206040510351600160a060020a031686600160a060020a0316141515611b4657600080fd5b8154600160ff1990911681178355600383018054600160a060020a031916600160a060020a0389811691909117918290559184018a905560028401899055611bb891161515611b96576001611b99565b60035b336000908152600860205260409020549060ff1663ffffffff612a6516565b60048301819055611bc890612a90565b60019081016005840155600884018054808301825560009182526020909120018054600160a060020a03191633908117909155600254918501546040517fe798491a000000000000000000000000000000000000000000000000000000008152600160a060020a03939093169263e798491a92611c489291600401613f7f565b600060405180830381600087803b158015611c6257600080fd5b505af1158015611c76573d6000803e3d6000fd5b50506040513392508b91507f658e21144c13c57abb260c322fd12619a96d563ee949692a57c50bb53cd9d31690611cae908c90613f71565b60405180910390a3505050505050505050565b6001545b90565b600160a060020a031660009081526008602052604090205490565b600054600160a060020a031681565b60025460008581526006602052604080822060010154905160e160020a635ba430d902815291928792600160a060020a039091169163b74861b291611d3a9190600401613f71565b600060405180830381600087803b158015611d5457600080fd5b505af1158015611d68573d6000803e3d6000fd5b505050506040513d6000823e601f3d908101601f19168201604052611d909190810190613c94565b6040015160200151600160a060020a03163314611dac57600080fd5b600086815260066020526040902091506002825460ff166004811115611dce57fe5b14611dd857600080fd5b60038201544210611de857600080fd5b816007015482600601541480611e11575060008260060154118015611e11575042826005015411155b1515611e1c57600080fd5b815460ff1916600317825560025460018301546040517f88044a7d000000000000000000000000000000000000000000000000000000008152600160a060020a03909216916388044a7d91611e7391600401613f71565b600060405180830381600087803b158015611e8d57600080fd5b505af1158015611ea1573d6000803e3d6000fd5b50505050611eae86612c93565b60405186907fdcd05cde82529485314f76a706901b73f7250e5b9a44ac9af6bffc9830f25d8490611ee4908890889088906140e4565b60405180910390a2505050505050565b611efc613541565b6000838152600760209081526040808320600160a060020a038616845290915290819020815160c081019092528054829060ff166003811115611f3b57fe5b6003811115611f4657fe5b815260018201546020820152600282015460408201526003820154600160a060020a031660608201526004820154608082015260059091015460a09091015290505b92915050565b600281565b60025460008381526006602052604080822060010154905160e160020a635ba430d902815291928392839283928892600160a060020a039091169163b74861b291611fe19190600401613f71565b600060405180830381600087803b158015611ffb57600080fd5b505af115801561200f573d6000803e3d6000fd5b505050506040513d6000823e601f3d908101601f191682016040526120379190810190613c94565b6040015160200151600160a060020a0316331461205357600080fd5b600087815260066020526040902094506001855460ff16600481111561207557fe5b1461207f57600080fd5b6003850154421061208f57600080fd5b60009350600092505b600885015483101561214b57600885018054849081106120b457fe5b6000918252602080832090910154898352600782526040808420600160a060020a039092168085529190925291206001015490925086148015612127575060016000888152600760209081526040808320600160a060020a038716845290915290205460ff16600381111561212557fe5b145b156121405761213d84600163ffffffff612a4b16565b93505b826001019250612098565b6000841161215857600080fd5b845460ff1916600290811786556004808701889055815460018801546040517fc8d9672900000000000000000000000000000000000000000000000000000000815261221f94429461125e94919361124e93600160a060020a039093169263c8d96729926121c7929101613f71565b60c060405180830381600087803b1580156121e157600080fd5b505af11580156121f5573d6000803e3d6000fd5b505050506040513d601f19601f820116820180604052506122199190810190613c76565b51610f11565b6005860155600060068601556007850184905560405187907f377ad932b199c2a5b63fae02ae33b3ff0869c34356754d53fc8cb652a47392ad90612264908990613f71565b60405180910390a250505050505050565b600180548290811061228357fe5b60009182526020918290206003919091020180546040805160026001841615610100026000190190931692909204601f81018590048502830185019091528082529193509183919083018282801561231c5780601f106122f15761010080835404028352916020019161231c565b820191906000526020600020905b8154815290600101906020018083116122ff57829003601f168201915b505050505090806001018054600181600116156101000203166002900480601f0160208091040260200160405190810160405280929190818152602001828054600181600116156101000203166002900480156123ba5780601f1061238f576101008083540402835291602001916123ba565b820191906000526020600020905b81548152906001019060200180831161239d57829003601f168201915b5050505050908060020154905083565b60066020819052600091825260409091208054600182015460028301546003840154600485015460058601549686015460079096015460ff909516969395929491939092909188565b600054600160a060020a0316331461242a57600080fd5b600160a060020a038116151561243f57600080fd5b60008054604051600160a060020a03808516939216917f8be0079c531659141344cd1fd0a4f28419497f9722a3daafe3b4186f6b6457e091a360008054600160a060020a031916600160a060020a0392909216919091179055565b60025460008281526006602052604080822060010154905160e160020a635ba430d90281529192839283928692600160a060020a03169163b74861b2916124e391600401613f71565b600060405180830381600087803b1580156124fd57600080fd5b505af1158015612511573d6000803e3d6000fd5b505050506040513d6000823e601f3d908101601f191682016040526125399190810190613c94565b6040015160200151600160a060020a0316331461255557600080fd5b600085815260066020526040902093506002845460ff16600481111561257757fe5b1461258157600080fd5b6003840154421061259157600080fd5b428460050154111580156125a757506006840154155b15156125b257600080fd5b600092505b600884015483101561264e57600884018054849081106125d357fe5b60009182526020808320909101546004870154888452600783526040808520600160a060020a039093168086529290935291909220600101549193501415612643576000858152600760209081526040808320600160a060020a03861684529091529020805460ff191660031790555b8260010192506125b7565b835460ff19166001178455600060048501819055600585018190556007850181905560405186917f05640b80f03fb1305ea8389f21525abf1e571a12574911be9e36545abad3129391a25050505050565b6000828152600660209081526040808320600783528184203385529092529091206002825460ff1660048111156126d257fe5b146126dc57600080fd5b600382015442106126ec57600080fd5b600582015442106126fc57600080fd5b6001815460ff16600381111561270e57fe5b1461271857600080fd5b600482015460018201541461272c57600080fd5b60408051602080820186905282518083038201815291830192839052815191929182918401908083835b602083106127755780518252601f199092019160209182019101612756565b5181516020939093036101000a6000190180199091169216919091179052604051920182900390912060018501541492506127b291505057600080fd5b604080516c010000000000000000000000003302602080830191909152603480830187905283518084039091018152605490920192839052815191929182918401908083835b602083106128175780518252601f1990920191602091820191016127f8565b5181516020939093036101000a60001901801990911692169190911790526040519201829003909120600285015414925061285491505057600080fd5b805460ff19166002178155600682015461286f906001612a4b565b6006830155604051339085907f6015745e681a62abea4683f9e7537f49cbe7c45deb000bdaf9abf069896cd955906128a8908790613f71565b60405180910390a350505050565b33600090815260096020526040812054600160a060020a03168015156128db57600080fd5b600260009054906101000a9004600160a060020a0316600160a060020a031663858fb57c3383600160a060020a031663e2d36ef56040518163ffffffff1660e060020a028152600401602060405180830381600087803b15801561293e57600080fd5b505af1158015612952573d6000803e3d6000fd5b505050506040513d601f19601f820116820180604052506129769190810190613cc9565b6040518363ffffffff1660e060020a028152600401612996929190613f48565b600060405180830381600087803b1580156129b057600080fd5b505af11580156129c4573d6000803e3d6000fd5b505033600081815260096020526040908190208054600160a060020a031916905551600160a060020a03851693507f59c4939508149b103b5e3a2e3f385ff89014721ec611b843a954ba6b87e5fa1a9250612a1f9190613f3a565b60405180910390a2600191505b5090565b600960205260009081526040902054600160a060020a031681565b600082820183811015612a5a57fe5b8091505b5092915050565b600080831515612a785760009150612a5e565b50828202828482811515612a8857fe5b0414612a5a57fe5b604080517ff8f9cbfae6cc78fbefe7cdc3a1793dfcf4f0e8bbd8cec470b6a28a7a5a3e1efd81527ff5ecf1b3e9debc68e1d9cfabc5997135bfb7a7a3938b7b606b5b4b3f2f1f0ffe60208201527ff6e4ed9ff2d6b458eadcdf97bd91692de2d4da8fd2d0ac50c6ae9a8272523616818301527fc8c0b887b0a8a4489c948c7f847c6125746c645c544c444038302820181008ff60608201527ff7cae577eec2a03cf3bad76fb589591debb2dd67e0aa9834bea6925f6a4a2e0e60808201527fe39ed557db96902cd38ed14fad815115c786af479b7e8324736353433727170760a08201527fc976c13bb96e881cb166a933a55e490d9d56952b8d4e801485467d236242260660c08201527f753a6d1b65325d0c552a4d1345224105391a310b29122104190a11030902010060e08201526101008082019092527f0100000000000000000000000000000000000000000000000000000000000000600170010000000000000000000000000000000068010000000000000000640100000000620100006010600460026000198c019081041790810417908104178881041790810417908104179081041790810417017e818283848586878898a8b8c8d8e8f929395969799a9b9d9e9faaeb6bedeeff0281900460ff0390910151047f8000000000000000000000000000000000000000000000000000000000000000909211020190565b612c9b613474565b612ca361343d565b600083815260066020526040808220815161012081019092528054839283928392839283929091829060ff166004811115612cda57fe5b6004811115612ce557fe5b8152600182015460208083019190915260028301546040808401919091526003840154606084015260048401546080840152600584015460a0840152600684015460c0840152600784015460e0840152600884018054825181850281018501909352808352610100909401939192909190830182828015612d8f57602002820191906000526020600020905b8154600160a060020a03168152600190910190602001808311612d71575b50505091909252505060025460208301516040517fc8d96729000000000000000000000000000000000000000000000000000000008152939b50600160a060020a039091169263c8d967299250612de99190600401613f71565b60c060405180830381600087803b158015612e0357600080fd5b505af1158015612e17573d6000803e3d6000fd5b505050506040513d601f19601f82011682018060405250612e3b9190810190613c76565b60025460208a015160405160e160020a635ba430d902815292995060009650600160a060020a039091169163b74861b291612e7891600401613f71565b600060405180830381600087803b158015612e9257600080fd5b505af1158015612ea6573d6000803e3d6000fd5b505050506040513d6000823e601f3d908101601f19168201604052612ece9190810190613c94565b60400151604001519250600095505b87610100015151861015612fa457610100880151805187908110612efd57fe5b602090810290910101519450600260008a8152600760209081526040808320600160a060020a038a16845290915290205460ff166003811115612f3c57fe5b1415612f80576000898152600760209081526040808320600160a060020a0389168452909152902060050154612f7990859063ffffffff612a4b16565b9350612f99565b6080870151612f9690849063ffffffff612a4b16565b92505b856001019550612edd565b60008411612fb157600080fd5b612fd9612fcc8860a00151606461333b90919063ffffffff16565b849063ffffffff61334d16565b9150600095505b876101000151518610156132b05761010088015180518790811061300057fe5b602090810290910101519450600260008a8152600760209081526040808320600160a060020a038a16845290915290205460ff16600381111561303f57fe5b141561318a576000898152600760209081526040808320600160a060020a038916845290915290206005015461307d9083908663ffffffff61335716565b905061308f838263ffffffff61333b16565b60025460208a01516040517f83729251000000000000000000000000000000000000000000000000000000008152929550600160a060020a03909116916383729251916130e29189908690600401613f9a565b600060405180830381600087803b1580156130fc57600080fd5b505af1158015613110573d6000803e3d6000fd5b505050600160a060020a03861660009081526008602052604090205461313e9150600163ffffffff612a4b16565b600160a060020a03861660008181526008602052604080822093909355915190918b917fec4b8b967fd4d4d4a20f52e4196809830e91c3ab6be74b2278c88217c030a9039190a36132a5565b60025460208901516040517f0d0c233c000000000000000000000000000000000000000000000000000000008152600160a060020a0390921691630d0c233c916131d8918990600401613f7f565b600060405180830381600087803b1580156131f257600080fd5b505af1158015613206573d6000803e3d6000fd5b505050600160a060020a03861660009081526008602052604090205461325d915061323890603263ffffffff61337416565b600160a060020a0387166000908152600860205260409020549063ffffffff61333b16565b600160a060020a03861660008181526008602052604080822093909355915190918b917fdc393bb39360ed615235788315b4656637a4f73d23c52bd35b195c01338e803e9190a35b856001019550612fe0565b60025460208901516040517f4a8e362e000000000000000000000000000000000000000000000000000000008152600160a060020a0390921691634a8e362e916132fe918790600401613fc2565b600060405180830381600087803b15801561331857600080fd5b505af115801561332c573d6000803e3d6000fd5b50505050505050505050505050565b60008282111561334757fe5b50900390565b600061079e838360645b600061336c6133668585612a65565b8361338a565b949350505050565b6000818310613383578161079e565b5090919050565b600080828481151561339857fe5b04949350505050565b828054600181600116156101000203166002900490600052602060002090601f016020900481019282601f106133e257805160ff191683800117855561340f565b8280016001018555821561340f579182015b8281111561340f5782518255916020019190600101906133f4565b50612a2c929150613578565b6060604051908101604052806060815260200160608152602001600081525090565b60c0604051908101604052806000815260200160008152602001600081526020016000815260200160008152602001600081525090565b604080516101208101909152806000815260200160008019168152602001600081526020016000815260200160008019168152602001600081526020016000815260200160008152602001606081525090565b6101e0604051908101604052806134dc613592565b81526020016134e9613592565b81526020016134f6613592565b815260200160008152602001600081526020016000600160a060020a031681526020016000600160a060020a031681526020016000600160a060020a03168152602001606081525090565b6040805160c08101909152806000815260006020820181905260408201819052606082018190526080820181905260a09091015290565b611cc591905b80821115612a2c576000815560010161357e565b604080516060810182526000808252602082018190529181019190915290565b600061079e823561421d565b600061079e825161421d565b600061079e8251614229565b600061079e8235611cc5565b600061079e823561424c565b6000601f820183136135ff57600080fd5b815161361261360d826141eb565b6141c4565b9150808252602083016020830185838301111561362e57600080fd5b611339838284614279565b6000601f8201831361364a57600080fd5b813561365861360d826141eb565b9150808252602083016020830185838301111561367457600080fd5b61133983828461426d565b60006040828403121561369157600080fd5b61369b60406141c4565b905060006136a984846138fb565b82525060206136ba848483016138fb565b60208301525092915050565b600060c082840312156136d857600080fd5b6136e260c06141c4565b905060006136f084846138fb565b8252506020613701848483016138fb565b6020830152506040613715848285016138fb565b6040830152506060613729848285016138fb565b606083015250608061373d848285016138fb565b60808301525060a0613751848285016138fb565b60a08301525092915050565b60006101e0828403121561377057600080fd5b61377b6101206141c4565b905060006137898484613851565b825250606061379a84848301613851565b60208301525060c06137ae84828501613851565b6040830152506101206137c3848285016138fb565b6060830152506101406137d8848285016138fb565b6080830152506101606137ed848285016135be565b60a083015250610180613802848285016135be565b60c0830152506101a0613817848285016135be565b60e0830152506101c082015167ffffffffffffffff81111561383857600080fd5b613844848285016135ee565b6101008301525092915050565b60006060828403121561386357600080fd5b61386d60606141c4565b9050600061387b84846135be565b825250602061388c848483016135be565b60208301525060406138a0848285016138fb565b60408301525092915050565b6000606082840312156138be57600080fd5b6138c860606141c4565b905060006138d68484613907565b82525060206138e7848483016135d6565b60208301525060406138a0848285016135d6565b600061079e8251611cc5565b600061079e8235614246565b60006020828403121561392557600080fd5b600061336c84846135b2565b60006020828403121561394357600080fd5b600061336c84846135be565b60008060006060848603121561396457600080fd5b600061397086866135b2565b9350506020613981868287016135b2565b9250506040613992868287016135b2565b9150509250925092565b600080600080608085870312156139b257600080fd5b60006139be87876135b2565b94505060206139cf878288016135b2565b93505060406139e0878288016135b2565b92505060606139f1878288016135b2565b91505092959194509250565b600060208284031215613a0f57600080fd5b600061336c84846135ca565b600060208284031215613a2d57600080fd5b600061336c84846135d6565b60008060408385031215613a4c57600080fd5b6000613a5885856135d6565b9250506020613a69858286016135b2565b9150509250929050565b60008060408385031215613a8657600080fd5b6000613a9285856135d6565b9250506020613a69858286016135d6565b6000806000806000806101408789031215613abd57600080fd5b6000613ac989896135d6565b9650506020613ada89828a016135d6565b9550506040613aeb89828a016135d6565b9450506060613afc89828a016135b2565b9350506080613b0d89828a016138ac565b92505060e0613b1e89828a016138ac565b9150509295509295509295565b60008060008060808587031215613b4157600080fd5b6000613b4d87876135d6565b945050602085013567ffffffffffffffff811115613b6a57600080fd5b613b7687828801613639565b935050604085013567ffffffffffffffff811115613b9357600080fd5b613b9f87828801613639565b925050606085013567ffffffffffffffff811115613bbc57600080fd5b6139f187828801613639565b600060208284031215613bda57600080fd5b600061336c84846135e2565b600080600060608486031215613bfb57600080fd5b833567ffffffffffffffff811115613c1257600080fd5b613c1e86828701613639565b935050602084013567ffffffffffffffff811115613c3b57600080fd5b613c4786828701613639565b9250506040613992868287016135d6565b600060408284031215613c6a57600080fd5b600061336c848461367f565b600060c08284031215613c8857600080fd5b600061336c84846136c6565b600060208284031215613ca657600080fd5b815167ffffffffffffffff811115613cbd57600080fd5b61336c8482850161375d565b600060208284031215613cdb57600080fd5b600061336c84846138fb565b613cf08161421d565b82525050565b6000613d0182614219565b808452602084019350613d1383614213565b60005b82811015613d4357613d29868351613ce7565b613d3282614213565b602096909601959150600101613d16565b5093949350505050565b613cf081614229565b613cf081611cc5565b613cf08161424c565b613cf081614257565b613cf081614262565b6000613d8582614219565b808452613d99816020860160208601614279565b613da2816142a5565b9093016020019392505050565b8051606080845260009190840190613dc78282613d7a565b91505060208301518482036020860152613de18282613d7a565b9150506040830151613df66040860182613d56565b509392505050565b805160c0830190613e0f8482613d68565b506020820151613e226020850182613d56565b506040820151613e356040850182613d56565b506060820151613e486060850182613ce7565b506080820151613e5b6080850182613d56565b5060a0820151613e6e60a0850182613d56565b50505050565b8051600090610120840190613e898582613d71565b506020830151613e9c6020860182613d56565b506040830151613eaf6040860182613d56565b506060830151613ec26060860182613d56565b506080830151613ed56080860182613d56565b5060a0830151613ee860a0860182613d56565b5060c0830151613efb60c0860182613d56565b5060e0830151613f0e60e0860182613d56565b50610100830151848203610100860152613f288282613cf6565b95945050505050565b613cf081614246565b60208101611f888284613ce7565b60408101613f568285613ce7565b61079e6020830184613d56565b60208101611f888284613d4d565b60208101611f888284613d56565b60408101613f8d8285613d56565b61079e6020830184613ce7565b60608101613fa88286613d56565b613fb56020830185613ce7565b61336c6040830184613d56565b60408101613f568285613d56565b60808101613fde8287613d56565b613feb6020830186613f31565b613ff86040830185613d56565b613f286060830184613d56565b60208101611f888284613d5f565b60c081016140218289613d68565b61402e6020830188613d56565b61403b6040830187613d56565b6140486060830186613ce7565b6140556080830185613d56565b61406260a0830184613d56565b979650505050505050565b610100810161407c828b613d71565b614089602083018a613d56565b6140966040830189613d56565b6140a36060830188613d56565b6140b06080830187613d56565b6140bd60a0830186613d56565b6140ca60c0830185613d56565b6140d760e0830184613d56565b9998505050505050505050565b606080825281016140f58186613d7a565b905081810360208301526141098185613d7a565b90508181036040830152613f288184613d7a565b6060808252810161412e8186613d7a565b905081810360208301526141428185613d7a565b905061336c6040830184613d56565b6020808252810161079e8184613daf565b60c08101611f888284613dfe565b6020808252810161079e8184613e74565b6080810161418f8287613d56565b81810360208301526141a18186613d7a565b905081810360408301526141b58185613d7a565b9050613f286060830184613d56565b60405181810167ffffffffffffffff811182821017156141e357600080fd5b604052919050565b600067ffffffffffffffff82111561420257600080fd5b506020601f91909101601f19160190565b60200190565b5190565b600160a060020a031690565b151590565b600060048210612a2c57fe5b600060058210612a2c57fe5b60ff1690565b6000611f888261421d565b6000611f888261422e565b6000611f888261423a565b82818337506000910152565b60005b8381101561429457818101518382015260200161427c565b83811115613e6e5750506000910152565b601f01601f1916905600a265627a7a72305820f09a16dcb4f02450d88d41f9dbe0314b756307522342cbbff2982c093f6f79f36c6578706572696d656e74616cf50037",
  "source": "pragma solidity ^0.4.24;\npragma experimental ABIEncoderV2;\n\nimport \"./tools/IexecODBLibCore.sol\";\nimport \"./tools/IexecODBLibOrders.sol\";\nimport \"./tools/SafeMathOZ.sol\";\n\nimport \"./CategoryManager.sol\";\n\nimport \"./IexecClerk.sol\";\nimport \"./registries/RegistryBase.sol\";\n/* import \"./registries/DappRegistry.sol\"; */\n/* import \"./registries/DataRegistry.sol\"; */\n/* import \"./registries/PoolRegistry.sol\"; */\n\ncontract IexecHub is CategoryManager\n{\n\tusing SafeMathOZ for uint256;\n\n\t/***************************************************************************\n\t *                                Constants                                *\n\t ***************************************************************************/\n\tuint256 public constant SCORE_UNITARY_SLASH      = 50;\n\tuint256 public constant CONSENSUS_DURATION_RATIO = 10;\n\tuint256 public constant REVEAL_DURATION_RATIO    = 2;\n\n\t/***************************************************************************\n\t *                             Other contracts                             *\n\t ***************************************************************************/\n\tIexecClerk   public iexecclerk;\n\tRegistryBase public dappregistry;\n\tRegistryBase public dataregistry;\n\tRegistryBase public poolregistry;\n\t/* DappRegistry dappregistry; */\n\t/* DataRegistry dataregistry; */\n\t/* PoolRegistry poolregistry; */\n\n\t/***************************************************************************\n\t *                               Consensuses                               *\n\t ***************************************************************************/\n\tmapping(bytes32 => IexecODBLibCore.Task)                             public m_tasks;\n\tmapping(bytes32 => mapping(address => IexecODBLibCore.Contribution)) public m_contributions;\n\n\t/***************************************************************************\n\t *                                 Workers                                 *\n\t ***************************************************************************/\n\tmapping(address => uint256) public m_workerScores;\n\tmapping(address => address) public m_workerAffectations;\n\n\t/***************************************************************************\n\t *                                 Events                                  *\n\t ***************************************************************************/\n\tevent ConsensusInitialize       (bytes32 indexed taskid, address indexed pool);\n\tevent ConsensusAllowContribution(bytes32 indexed taskid, address indexed worker);\n\tevent ConsensusContribute       (bytes32 indexed taskid, address indexed worker, bytes32 resultHash);\n\tevent ConsensusRevealConsensus  (bytes32 indexed taskid, bytes32 consensus);\n\tevent ConsensusReveal           (bytes32 indexed taskid, address indexed worker, bytes32 result);\n\tevent ConsensusReopen           (bytes32 indexed taskid);\n\tevent ConsensusFinalized        (bytes32 indexed taskid, string stdout, string stderr, string uri);\n\tevent ConsensusClaimed          (bytes32 indexed taskid);\n\tevent AccurateContribution      (bytes32 indexed taskid, address indexed worker);\n\tevent FaultyContribution        (bytes32 indexed taskid, address indexed worker);\n\n\tevent WorkerSubscription  (address indexed pool, address worker);\n\tevent WorkerUnsubscription(address indexed pool, address worker);\n\tevent WorkerEviction      (address indexed pool, address worker);\n\n\t/***************************************************************************\n\t *                                Modifiers                                *\n\t ***************************************************************************/\n\tmodifier onlyScheduler(bytes32 _taskid)\n\t{\n\t\trequire(msg.sender == iexecclerk.viewDeal(m_tasks[_taskid].dealid).pool.owner);\n\t\t_;\n\t}\n\n\t/***************************************************************************\n\t *                               Constructor                               *\n\t ***************************************************************************/\n\tconstructor()\n\tpublic\n\t{\n\t}\n\n\tfunction attachContracts(\n\t\taddress _iexecclerkAddress,\n\t\taddress _dappRegistryAddress,\n\t\taddress _dataRegistryAddress,\n\t\taddress _poolRegistryAddress)\n\tpublic onlyOwner\n\t{\n\t\trequire(address(iexecclerk) == address(0));\n\t\tiexecclerk   = IexecClerk  (_iexecclerkAddress  );\n\t\tdappregistry = RegistryBase(_dappRegistryAddress);\n\t\tdataregistry = RegistryBase(_dataRegistryAddress);\n\t\tpoolregistry = RegistryBase(_poolRegistryAddress);\n\t}\n\n\t/***************************************************************************\n\t *                                Accessors                                *\n\t ***************************************************************************/\n\tfunction viewTask(bytes32 _taskid)\n\tpublic view returns (IexecODBLibCore.Task)\n\t{\n\t\treturn m_tasks[_taskid];\n\t}\n\n\tfunction viewContribution(bytes32 _taskid, address _worker)\n\tpublic view returns (IexecODBLibCore.Contribution)\n\t{\n\t\treturn m_contributions[_taskid][_worker];\n\t}\n\n\tfunction viewScore(address _worker)\n\tpublic view returns (uint256)\n\t{\n\t\treturn m_workerScores[_worker];\n\t}\n\n\tfunction viewAffectation(address _worker)\n\tpublic view returns (Pool)\n\t{\n\t\treturn Pool(m_workerAffectations[_worker]);\n\t}\n\n\tfunction checkResources(address daap, address data, address pool)\n\tpublic view returns (bool)\n\t{\n\t\trequire(                      dappregistry.isRegistered(daap));\n\t\trequire(data == address(0) || dataregistry.isRegistered(data));\n\t\trequire(                      poolregistry.isRegistered(pool));\n\t\treturn true;\n\t}\n\n\t/***************************************************************************\n\t *                            Consensus methods                            *\n\t ***************************************************************************/\n\tfunction initialize(bytes32 _dealid, uint256 idx)\n\tpublic returns (bytes32)\n\t{\n\t\tIexecODBLibCore.Config memory config = iexecclerk.viewConfig(_dealid);\n\n\t\trequire(idx >= config.botFirst                    );\n\t\trequire(idx <  config.botFirst.add(config.botSize));\n\n\t\tbytes32 taskid = keccak256(abi.encodePacked(_dealid, idx));\n\n\t\tIexecODBLibCore.Task storage task = m_tasks[taskid];\n\t\trequire(task.status == IexecODBLibCore.TaskStatusEnum.UNSET);\n\t\ttask.status            = IexecODBLibCore.TaskStatusEnum.ACTIVE;\n\t\ttask.dealid            = _dealid;\n\t\ttask.idx               = idx;\n\t\ttask.consensusDeadline = viewCategory(config.category).workClockTimeRef\n\t\t                         .mul(CONSENSUS_DURATION_RATIO)\n\t\t                         .add(config.startTime);\n\n\t\temit ConsensusInitialize(taskid, iexecclerk.viewDeal(_dealid).pool.pointer);\n\n\t\treturn taskid;\n\t}\n\n\tfunction signedContribute(\n\t\tbytes32                     _taskid,\n\t\tbytes32                     _resultHash,\n\t\tbytes32                     _resultSign,\n\t\taddress                     _enclaveChallenge,\n\t\tIexecODBLibOrders.signature _enclaveSign,\n\t\tIexecODBLibOrders.signature _poolSign)\n\tpublic\n\t{\n\t\tIexecODBLibCore.Task         storage task         = m_tasks[_taskid];\n\t\tIexecODBLibCore.Contribution storage contribution = m_contributions[_taskid][msg.sender];\n\t\tIexecODBLibCore.Deal         memory  deal         = iexecclerk.viewDeal(task.dealid);\n\n\t\trequire(task.status            == IexecODBLibCore.TaskStatusEnum.ACTIVE       );\n\t\trequire(task.consensusDeadline >  now                                         );\n\t\trequire(contribution.status    == IexecODBLibCore.ContributionStatusEnum.UNSET);\n\n\t\t// Check that the worker + taskid + enclave combo is authorized to contribute (scheduler signature)\n\t\t// Skip check if authorized?\n\t\trequire(deal.pool.owner == ecrecover(\n\t\t\tkeccak256(abi.encodePacked(\n\t\t\t\t\"\\x19Ethereum Signed Message:\\n32\",\n\t\t\t\tkeccak256(abi.encodePacked(\n\t\t\t\t\tmsg.sender,\n\t\t\t\t\t_taskid,\n\t\t\t\t\t_enclaveChallenge\n\t\t\t\t))\n\t\t\t)),\n\t\t\t_poolSign.v,\n\t\t\t_poolSign.r,\n\t\t\t_poolSign.s)\n\t\t);\n\n\t\t// worker must be subscribed to the pool, keep?\n\t\trequire(m_workerAffectations[msg.sender] == deal.pool.pointer);\n\n\t\t// Not needed\n\t\t/* require(_resultHash != 0x0); */\n\t\t/* require(_resultSign != 0x0); */\n\n\t\t// need enclave challenge if tag is set\n\t\trequire(_enclaveChallenge != address(0) || deal.tag & 0x1 == 0);\n\n\t\t// Check enclave signature\n\t\tif (_enclaveChallenge != address(0))\n\t\t{\n\t\t\trequire(_enclaveChallenge == ecrecover(\n\t\t\t\tkeccak256(abi.encodePacked(\n\t\t\t\t\t\"\\x19Ethereum Signed Message:\\n32\",\n\t\t\t\t\tkeccak256(abi.encodePacked(\n\t\t\t\t\t_resultHash,\n\t\t\t\t\t_resultSign\n\t\t\t\t\t))\n\t\t\t\t)),\n\t\t\t\t_enclaveSign.v,\n\t\t\t\t_enclaveSign.r,\n\t\t\t\t_enclaveSign.s)\n\t\t\t);\n\t\t}\n\n\t\t// update contribution entry\n\t\tcontribution.status           = IexecODBLibCore.ContributionStatusEnum.CONTRIBUTED;\n\t\tcontribution.enclaveChallenge = _enclaveChallenge;\n\t\tcontribution.resultHash       = _resultHash;\n\t\tcontribution.resultSign       = _resultSign;\n\t\tcontribution.score            = m_workerScores[msg.sender].mul(contribution.enclaveChallenge != address(0) ? 3 : 1);\n\t\tcontribution.weight           = 1 + contribution.score.log();\n\t\ttask.contributors.push(msg.sender);\n\n\t\tiexecclerk.lockContribution(task.dealid, msg.sender);\n\n\t\temit ConsensusContribute(_taskid, msg.sender, _resultHash);\n\t}\n\n\tfunction revealConsensus(\n\t\tbytes32 _taskid,\n\t\tbytes32 _consensus)\n\tpublic onlyScheduler(_taskid)\n\t{\n\t\tIexecODBLibCore.Task storage task = m_tasks[_taskid];\n\t\trequire(task.status            == IexecODBLibCore.TaskStatusEnum.ACTIVE);\n\t\trequire(task.consensusDeadline >  now                                  );\n\n\t\tuint256 winnerCounter = 0;\n\t\tfor (uint256 i = 0; i<task.contributors.length; ++i)\n\t\t{\n\t\t\taddress w = task.contributors[i];\n\t\t\tif (\n\t\t\t\tm_contributions[_taskid][w].resultHash == _consensus\n\t\t\t\t&&\n\t\t\t\tm_contributions[_taskid][w].status == IexecODBLibCore.ContributionStatusEnum.CONTRIBUTED // REJECTED contribution must not be count\n\t\t\t)\n\t\t\t{\n\t\t\t\twinnerCounter = winnerCounter.add(1);\n\t\t\t}\n\t\t}\n\t\trequire(winnerCounter > 0); // you cannot revealConsensus if no worker has contributed to this hash\n\n\t\ttask.status         = IexecODBLibCore.TaskStatusEnum.REVEALING;\n\t\ttask.consensusValue = _consensus;\n\t\ttask.revealDeadline = viewCategory(iexecclerk.viewConfig(task.dealid).category).workClockTimeRef\n\t\t                           .mul(REVEAL_DURATION_RATIO)\n\t\t                           .add(now);\n\t\ttask.revealCounter  = 0;\n\t\ttask.winnerCounter  = winnerCounter;\n\n\t\temit ConsensusRevealConsensus(_taskid, _consensus);\n\t}\n\n\tfunction reveal(\n\t\tbytes32 _taskid,\n\t\tbytes32 _result)\n\t\t/*\n\t\t// TODO: results for oracle?\n\t\tbytes _result)\n\t\t*/\n\tpublic // worker\n\t{\n\t\tIexecODBLibCore.Task         storage task         = m_tasks[_taskid];\n\t\tIexecODBLibCore.Contribution storage contribution = m_contributions[_taskid][msg.sender];\n\t\trequire(task.status             == IexecODBLibCore.TaskStatusEnum.REVEALING            );\n\t\trequire(task.consensusDeadline  >  now                                                 );\n\t\trequire(task.revealDeadline     >  now                                                 );\n\t\trequire(contribution.status     == IexecODBLibCore.ContributionStatusEnum.CONTRIBUTED  );\n\t\trequire(contribution.resultHash == task.consensusValue                                 );\n\t\trequire(contribution.resultHash == keccak256(abi.encodePacked(            _result))    );\n\t\trequire(contribution.resultSign == keccak256(abi.encodePacked(msg.sender, _result))    );\n\n\t\tcontribution.status     = IexecODBLibCore.ContributionStatusEnum.PROVED;\n\t\ttask.revealCounter = task.revealCounter.add(1);\n\n\t\t/*\n\t\t// TODO: results for oracle?\n\t\tif (task.result == bytes(0)) task.result = _results;\n\t\t*/\n\n\t\temit ConsensusReveal(_taskid, msg.sender, _result);\n\t}\n\n\tfunction reopen(\n\t\tbytes32 _taskid)\n\tpublic onlyScheduler(_taskid)\n\t{\n\t\tIexecODBLibCore.Task storage task = m_tasks[_taskid];\n\t\trequire(task.status            == IexecODBLibCore.TaskStatusEnum.REVEALING);\n\t\trequire(task.consensusDeadline >  now                                     );\n\t\trequire(task.revealDeadline    <= now\n\t\t     && task.revealCounter     == 0                                       );\n\n\t\tfor (uint256 i = 0; i < task.contributors.length; ++i)\n\t\t{\n\t\t\taddress worker = task.contributors[i];\n\t\t\tif (m_contributions[_taskid][worker].resultHash == task.consensusValue)\n\t\t\t{\n\t\t\t\tm_contributions[_taskid][worker].status = IexecODBLibCore.ContributionStatusEnum.REJECTED;\n\t\t\t}\n\t\t}\n\n\t\ttask.status         = IexecODBLibCore.TaskStatusEnum.ACTIVE;\n\t\ttask.consensusValue = 0x0;\n\t\ttask.revealDeadline = 0;\n\t\ttask.winnerCounter  = 0;\n\n\t\temit ConsensusReopen(_taskid);\n\t}\n\n\tfunction finalizeWork(\n\t\tbytes32 _taskid,\n\t\tstring  _stdout,\n\t\tstring  _stderr,\n\t\tstring  _uri)\n\tpublic onlyScheduler(_taskid)\n\t{\n\t\tIexecODBLibCore.Task storage task = m_tasks[_taskid];\n\t\trequire(task.status            == IexecODBLibCore.TaskStatusEnum.REVEALING);\n\t\trequire(task.consensusDeadline >  now                                 );\n\t\trequire(task.revealCounter     == task.winnerCounter\n\t\t    || (task.revealCounter     >  0  && task.revealDeadline <= now)   );\n\n\t\ttask.status = IexecODBLibCore.TaskStatusEnum.COMPLETED;\n\n\t\t/**\n\t\t * Stake and reward management\n\t\t */\n\t\tiexecclerk.successWork(task.dealid);\n\t\t__distributeRewards(_taskid);\n\n\t\temit ConsensusFinalized(_taskid, _stdout, _stderr, _uri);\n\t}\n\n\t/*\n\tfunction resultFor(bytes32 id) external view returns (bytes result)\n\t{\n\t\tIexecODBLibCore.Task storage task = m_tasks[id];\n\t\trequire(task.status == IexecODBLibCore.TaskStatusEnum.COMPLETED);\n\t\treturn task.results;\n\t}\n\t*/\n\n\tfunction claimfailed(\n\t\tbytes32 _taskid)\n\tpublic\n\t{\n\t\tIexecODBLibCore.Task storage task = m_tasks[_taskid];\n\t\trequire(task.status == IexecODBLibCore.TaskStatusEnum.ACTIVE\n\t\t     || task.status == IexecODBLibCore.TaskStatusEnum.REVEALING);\n\t\trequire(task.consensusDeadline <= now);\n\n\t\ttask.status = IexecODBLibCore.TaskStatusEnum.FAILLED;\n\n\t\t/**\n\t\t * Stake management\n\t\t */\n\t\tiexecclerk.failedWork(task.dealid);\n\t\tfor (uint256 i = 0; i < task.contributors.length; ++i)\n\t\t{\n\t\t\taddress worker = task.contributors[i];\n\t\t\tiexecclerk.unlockContribution(task.dealid, worker);\n\t\t}\n\n\t\temit ConsensusClaimed(_taskid);\n\t}\n\n\tfunction __distributeRewards(bytes32 _taskid)\n\tprivate\n\t{\n\t\tIexecODBLibCore.Task   memory task   = m_tasks[_taskid];\n\t\tIexecODBLibCore.Config memory config = iexecclerk.viewConfig(task.dealid);\n\n\t\tuint256 i;\n\t\taddress worker;\n\n\t\tuint256 totalWeight = 0;\n\t\tuint256 totalReward = iexecclerk.viewDeal(task.dealid).pool.price;\n\n\t\tfor (i = 0; i<task.contributors.length; ++i)\n\t\t{\n\t\t\tworker = task.contributors[i];\n\t\t\tif (m_contributions[_taskid][worker].status == IexecODBLibCore.ContributionStatusEnum.PROVED)\n\t\t\t{\n\t\t\t\ttotalWeight = totalWeight.add(m_contributions[_taskid][worker].weight);\n\t\t\t}\n\t\t\telse // ContributionStatusEnum.REJECT or ContributionStatusEnum.CONTRIBUTED (not revealed)\n\t\t\t{\n\t\t\t\ttotalReward = totalReward.add(config.workerStake);\n\t\t\t}\n\t\t}\n\t\trequire(totalWeight > 0);\n\n\t\t// compute how much is going to the workers\n\t\tuint256 workersReward = totalReward.percentage(uint256(100).sub(config.schedulerRewardRatio));\n\n\t\tfor (i = 0; i<task.contributors.length; ++i)\n\t\t{\n\t\t\tworker = task.contributors[i];\n\t\t\tif (m_contributions[_taskid][worker].status == IexecODBLibCore.ContributionStatusEnum.PROVED)\n\t\t\t{\n\t\t\t\tuint256 workerReward = workersReward.mulByFraction(m_contributions[_taskid][worker].weight, totalWeight);\n\t\t\t\ttotalReward          = totalReward.sub(workerReward);\n\n\t\t\t\tiexecclerk.unlockAndRewardForContribution(task.dealid, worker, workerReward);\n\t\t\t\tm_workerScores[worker] = m_workerScores[worker].add(1);\n\t\t\t\temit AccurateContribution(_taskid, worker);\n\t\t\t}\n\t\t\telse // WorkStatusEnum.POCO_REJECT or ContributionStatusEnum.CONTRIBUTED (not revealed)\n\t\t\t{\n\t\t\t\t// No Reward\n\t\t\t\tiexecclerk.seizeContribution(task.dealid, worker);\n\t\t\t\tm_workerScores[worker] = m_workerScores[worker].sub(m_workerScores[worker].min(SCORE_UNITARY_SLASH));\n\t\t\t\temit FaultyContribution(_taskid, worker);\n\t\t\t}\n\t\t}\n\t\t// totalReward now contains the scheduler share\n\t\tiexecclerk.rewardForScheduling(task.dealid, totalReward);\n\t}\n\n\t/***************************************************************************\n\t *                       Worker affectation methods                        *\n\t ***************************************************************************/\n\tfunction subscribe(Pool _pool)\n\tpublic returns (bool)\n\t{\n\t\t// check pools validity\n\t\trequire(poolregistry.isRegistered(_pool));\n\n\t\t// check worker is not previously affected: AUTO unsubscribe ???\n\t\trequire(m_workerAffectations[msg.sender] == address(0));\n\n\t\t// Lock stake & check funds/reputation\n\t\tiexecclerk.lockSubscription(msg.sender, _pool.m_subscriptionLockStakePolicy());\n\t\trequire(iexecclerk.viewAccount(msg.sender).stake >= _pool.m_subscriptionMinimumStakePolicy());\n\t\trequire(m_workerScores[msg.sender]               >= _pool.m_subscriptionMinimumScorePolicy());\n\n\t\t// update affectation\n\t\tm_workerAffectations[msg.sender] = address(_pool);\n\n\t\temit WorkerSubscription(address(_pool), msg.sender);\n\t\treturn true;\n\t}\n\n\tfunction unsubscribe()\n\tpublic returns (bool)\n\t{\n\t\t// check affectation\n\t\tPool pool = Pool(m_workerAffectations[msg.sender]);\n\t\trequire(address(pool) != address(0));\n\n\t\t// Unlock stake\n\t\tiexecclerk.unlockSubscription(msg.sender, pool.m_subscriptionLockStakePolicy());\n\n\t\t// update affectation\n\t\tm_workerAffectations[msg.sender] = address(0);\n\n\t\temit WorkerUnsubscription(address(pool), msg.sender);\n\t\treturn true;\n\t}\n\n\tfunction evict(address _worker)\n\tpublic returns (bool)\n\t{\n\t\t// check affectation & authorization\n\t\tPool pool = Pool(m_workerAffectations[_worker]);\n\t\trequire(address(pool)  != address(0));\n\t\trequire(pool.m_owner() == msg.sender);\n\n\t\t// Unlock stake\n\t\tiexecclerk.unlockSubscription(_worker, pool.m_subscriptionLockStakePolicy());\n\n\t\t// update affectation\n\t\tm_workerAffectations[_worker] = address(0);\n\n\t\temit WorkerEviction(address(pool), _worker);\n\t\treturn true;\n\t}\n}\n",
  "sourcePath": "/home/amxx/Work/iExec/code/PoCo-dev/contracts/IexecHub.sol",
  "compiler": {
    "name": "solc",
    "version": "0.4.24+commit.e67f0147.Emscripten.clang"
  },
  "schemaVersion": "2.0.1",
  "updatedAt": "2018-10-10T21:45:53.196Z"
}