{
  "contractName": "IntersectionGroup",
  "abi": [
    {
      "constant": true,
      "inputs": [
        {
          "name": "",
          "type": "uint256"
        }
      ],
      "name": "m_subgroups",
      "outputs": [
        {
          "name": "",
          "type": "address"
        }
      ],
      "payable": false,
      "stateMutability": "view",
      "type": "function"
    },
    {
      "constant": true,
      "inputs": [],
      "name": "m_owner",
      "outputs": [
        {
          "name": "",
          "type": "address"
        }
      ],
      "payable": false,
      "stateMutability": "view",
      "type": "function"
    },
    {
      "constant": false,
      "inputs": [
        {
          "name": "_newOwner",
          "type": "address"
        }
      ],
      "name": "transferOwnership",
      "outputs": [],
      "payable": false,
      "stateMutability": "nonpayable",
      "type": "function"
    },
    {
      "inputs": [],
      "payable": false,
      "stateMutability": "nonpayable",
      "type": "constructor"
    },
    {
      "anonymous": false,
      "inputs": [
        {
          "indexed": true,
          "name": "previousOwner",
          "type": "address"
        },
        {
          "indexed": true,
          "name": "newOwner",
          "type": "address"
        }
      ],
      "name": "OwnershipTransferred",
      "type": "event"
    },
    {
      "constant": false,
      "inputs": [
        {
          "name": "_subgroups",
          "type": "address[]"
        }
      ],
      "name": "setSubGroup",
      "outputs": [],
      "payable": false,
      "stateMutability": "nonpayable",
      "type": "function"
    },
    {
      "constant": true,
      "inputs": [
        {
          "name": "_user",
          "type": "address"
        }
      ],
      "name": "viewPermissions",
      "outputs": [
        {
          "name": "",
          "type": "bytes1"
        }
      ],
      "payable": false,
      "stateMutability": "view",
      "type": "function"
    }
  ],
  "bytecode": "0x608060405234801561001057600080fd5b5060008054600160a060020a03191633179055610646806100326000396000f30060806040526004361061006c5763ffffffff7c0100000000000000000000000000000000000000000000000000000000600035041663638e6cb481146100715780637ad8f72d146100a757806382dc2cee146100d4578063deff41c1146100f6578063f2fde38b14610118575b600080fd5b34801561007d57600080fd5b5061009161008c366004610519565b610138565b60405161009e919061057a565b60405180910390f35b3480156100b357600080fd5b506100c76100c23660046104a0565b610160565b60405161009e919061056c565b3480156100e057600080fd5b506100f46100ef3660046104c6565b610273565b005b34801561010257600080fd5b5061010b6102a1565b60405161009e9190610558565b34801561012457600080fd5b506100f46101333660046104a0565b6102b0565b600180548290811061014657fe5b600091825260209091200154600160a060020a0316905081565b600154600090819081901515610179576000925061026c565b507fff00000000000000000000000000000000000000000000000000000000000000905060005b6001548110156102685760018054829081106101b857fe5b6000918252602090912001546040517f7ad8f72d000000000000000000000000000000000000000000000000000000008152600160a060020a0390911690637ad8f72d9061020a908790600401610558565b602060405180830381600087803b15801561022457600080fd5b505af1158015610238573d6000803e3d6000fd5b505050506040513d601f19601f8201168201806040525061025c91908101906104fb565b909116906001016101a0565b8192505b5050919050565b600054600160a060020a0316331461028a57600080fd5b805161029d906001906020840190610344565b5050565b600054600160a060020a031681565b600054600160a060020a031633146102c757600080fd5b600160a060020a03811615156102dc57600080fd5b60008054604051600160a060020a03808516939216917f8be0079c531659141344cd1fd0a4f28419497f9722a3daafe3b4186f6b6457e091a36000805473ffffffffffffffffffffffffffffffffffffffff1916600160a060020a0392909216919091179055565b8280548282559060005260206000209081019282156103a6579160200282015b828111156103a6578251825473ffffffffffffffffffffffffffffffffffffffff1916600160a060020a03909116178255602090920191600190910190610364565b506103b29291506103b6565b5090565b6103e791905b808211156103b257805473ffffffffffffffffffffffffffffffffffffffff191681556001016103bc565b90565b60006103f682356105d0565b9392505050565b6000601f8201831361040e57600080fd5b813561042161041c826105af565b610588565b9150818183526020840193506020810190508385602084028201111561044657600080fd5b60005b83811015610472578161045c8882610488565b8452506020928301929190910190600101610449565b5050505092915050565b60006103f682516105dc565b60006103f68235610601565b60006103f682356103e7565b6000602082840312156104b257600080fd5b60006104be84846103ea565b949350505050565b6000602082840312156104d857600080fd5b813567ffffffffffffffff8111156104ef57600080fd5b6104be848285016103fd565b60006020828403121561050d57600080fd5b60006104be848461047c565b60006020828403121561052b57600080fd5b60006104be8484610494565b610540816105d0565b82525050565b610540816105dc565b61054081610601565b602081016105668284610537565b92915050565b602081016105668284610546565b60208101610566828461054f565b60405181810167ffffffffffffffff811182821017156105a757600080fd5b604052919050565b600067ffffffffffffffff8211156105c657600080fd5b5060209081020190565b600160a060020a031690565b7fff000000000000000000000000000000000000000000000000000000000000001690565b6000610566826105d05600a265627a7a7230582006a0a600567fd7cbb34b66210da34f514ffdaec6afa6940a235e0be448f517316c6578706572696d656e74616cf50037",
  "source": "pragma solidity ^0.4.24;\npragma experimental ABIEncoderV2;\n\nimport './GroupInterface.sol';\nimport '../tools/Ownable.sol';\n\ncontract IntersectionGroup is GroupInterface, OwnableMutable\n{\n\tGroupInterface[] public m_subgroups;\n\n\t/**\n\t * Constructor\n\t */\n\tconstructor() public {}\n\n\tfunction setSubGroup(GroupInterface[] _subgroups)\n\tpublic onlyOwner\n\t{\n\t\tm_subgroups = _subgroups;\n\t}\n\tfunction viewPermissions(address _user)\n\tpublic view returns (bytes1)\n\t{\n\t\tif (m_subgroups.length == 0) return bytes1(0);\n\n\t\tbytes1 permissions = bytes1(-1);\n\t\tfor (uint256 i = 0; i<m_subgroups.length; ++i)\n\t\t{\n\t\t\tpermissions = permissions & m_subgroups[i].viewPermissions(_user);\n\t\t}\n\t\treturn permissions;\n\t}\n}\n",
  "sourcePath": "/home/amxx/Work/iExec/code/PoCo-dev/contracts/permissions/IntersectionGroup.sol",
  "compiler": {
    "name": "solc",
    "version": "0.4.24+commit.e67f0147.Emscripten.clang"
  },
  "schemaVersion": "2.0.1",
  "updatedAt": "2018-10-08T22:53:23.512Z"
}