{
  "contractName": "OwnableImmutable",
  "abi": [
    {
      "constant": true,
      "inputs": [],
      "name": "m_owner",
      "outputs": [
        {
          "name": "",
          "type": "address"
        }
      ],
      "payable": false,
      "stateMutability": "view",
      "type": "function"
    },
    {
      "inputs": [
        {
          "name": "_owner",
          "type": "address"
        }
      ],
      "payable": false,
      "stateMutability": "nonpayable",
      "type": "constructor"
    }
  ],
  "bytecode": "0x608060405234801561001057600080fd5b50604051602080610117833981016040525160008054600160a060020a03909216600160a060020a031990921691909117905560c6806100516000396000f300608060405260043610603e5763ffffffff7c0100000000000000000000000000000000000000000000000000000000600035041663deff41c181146043575b600080fd5b348015604e57600080fd5b506055607e565b6040805173ffffffffffffffffffffffffffffffffffffffff9092168252519081900360200190f35b60005473ffffffffffffffffffffffffffffffffffffffff16815600a165627a7a723058200f8ada0a3cfa514010a11f0fe05b3d77559c0994bc921d55de0594ef260996b50029",
  "source": "pragma solidity ^0.4.24;\n\ncontract OwnableImmutable\n{\n\taddress public m_owner;\n\n\t/**\n\t * @dev Throws if called by any account other than the owner.\n\t */\n\tmodifier onlyOwner()\n\t{\n\t\trequire(msg.sender == m_owner);\n\t\t_;\n\t}\n\n\t/**\n\t * @dev The Ownable constructor sets the original `owner` of the contract to the sender\n\t * account.\n\t */\n\tconstructor(address _owner) public\n\t{\n\t\tm_owner = _owner;\n\t}\n}\n\ncontract OwnableMutable is OwnableImmutable\n{\n\tevent OwnershipTransferred(address indexed previousOwner, address indexed newOwner);\n\n\t/**\n\t * @dev The Ownable constructor sets the original `owner` of the contract to the sender\n\t * account.\n\t */\n\tconstructor() public\n\tOwnableImmutable(msg.sender)\n\t{\n\t}\n\n\t/**\n\t * @dev Allows the current owner to transfer control of the contract to a newOwner.\n\t * @param _newOwner The address to transfer ownership to.\n\t */\n\tfunction transferOwnership(address _newOwner)\n\tpublic onlyOwner\n\t{\n\t\trequire(_newOwner != address(0));\n\t\temit OwnershipTransferred(m_owner, _newOwner);\n\t\tm_owner = _newOwner;\n\t}\n}\n",
  "sourcePath": "/home/amxx/Work/iExec/code/PoCo-dev/contracts/tools/Ownable.sol",
  "compiler": {
    "name": "solc",
    "version": "0.4.25+commit.59dbf8f1.Emscripten.clang"
  },
  "schemaVersion": "3.0.0-beta.1",
  "updatedAt": "2018-10-05T12:37:37.184Z"
}