{
  "contractName": "PoolRegistry",
  "abi": [
    {
      "constant": true,
      "inputs": [
        {
          "name": "",
          "type": "address"
        },
        {
          "name": "",
          "type": "uint256"
        }
      ],
      "name": "m_byOwnerByIndex",
      "outputs": [
        {
          "name": "",
          "type": "address"
        }
      ],
      "payable": false,
      "stateMutability": "view",
      "type": "function"
    },
    {
      "constant": true,
      "inputs": [
        {
          "name": "",
          "type": "address"
        }
      ],
      "name": "m_countByOwner",
      "outputs": [
        {
          "name": "",
          "type": "uint256"
        }
      ],
      "payable": false,
      "stateMutability": "view",
      "type": "function"
    },
    {
      "constant": true,
      "inputs": [
        {
          "name": "_owner",
          "type": "address"
        },
        {
          "name": "_index",
          "type": "uint256"
        }
      ],
      "name": "viewEntry",
      "outputs": [
        {
          "name": "",
          "type": "address"
        }
      ],
      "payable": false,
      "stateMutability": "view",
      "type": "function"
    },
    {
      "constant": true,
      "inputs": [
        {
          "name": "_owner",
          "type": "address"
        }
      ],
      "name": "viewCount",
      "outputs": [
        {
          "name": "",
          "type": "uint256"
        }
      ],
      "payable": false,
      "stateMutability": "view",
      "type": "function"
    },
    {
      "constant": true,
      "inputs": [
        {
          "name": "_entry",
          "type": "address"
        }
      ],
      "name": "isRegistered",
      "outputs": [
        {
          "name": "",
          "type": "bool"
        }
      ],
      "payable": false,
      "stateMutability": "view",
      "type": "function"
    },
    {
      "constant": true,
      "inputs": [
        {
          "name": "",
          "type": "address"
        }
      ],
      "name": "m_registered",
      "outputs": [
        {
          "name": "",
          "type": "bool"
        }
      ],
      "payable": false,
      "stateMutability": "view",
      "type": "function"
    },
    {
      "inputs": [],
      "payable": false,
      "stateMutability": "nonpayable",
      "type": "constructor"
    },
    {
      "anonymous": false,
      "inputs": [
        {
          "indexed": true,
          "name": "poolOwner",
          "type": "address"
        },
        {
          "indexed": true,
          "name": "pool",
          "type": "address"
        },
        {
          "indexed": false,
          "name": "poolDescription",
          "type": "string"
        }
      ],
      "name": "CreatePool",
      "type": "event"
    },
    {
      "constant": false,
      "inputs": [
        {
          "name": "_poolOwner",
          "type": "address"
        },
        {
          "name": "_poolDescription",
          "type": "string"
        },
        {
          "name": "_subscriptionLockStakePolicy",
          "type": "uint256"
        },
        {
          "name": "_subscriptionMinimumStakePolicy",
          "type": "uint256"
        },
        {
          "name": "_subscriptionMinimumScorePolicy",
          "type": "uint256"
        }
      ],
      "name": "createPool",
      "outputs": [
        {
          "name": "",
          "type": "address"
        }
      ],
      "payable": false,
      "stateMutability": "nonpayable",
      "type": "function"
    }
  ],
  "bytecode": "0x608060405234801561001057600080fd5b50610f0e806100206000396000f3006080604052600436106200008a5763ffffffff7c0100000000000000000000000000000000000000000000000000000000600035041663045af4e381146200008f57806340302a0e14620000cc5780635a192731146200010057806365a2c1041462000134578063c0a8cae21462000159578063c3c5a547146200017e578063cf4ba23f14620001b2575b600080fd5b3480156200009c57600080fd5b50620000b4620000ae36600462000538565b620001d7565b604051620000c39190620005e4565b60405180910390f35b348015620000d957600080fd5b50620000f1620000eb36600462000476565b620001fd565b604051620000c3919062000684565b3480156200010d57600080fd5b50620001256200011f3660046200049f565b6200020f565b604051620000c3919062000661565b3480156200014157600080fd5b50620000b46200015336600462000538565b620002c0565b3480156200016657600080fd5b50620000f16200017836600462000476565b620002ed565b3480156200018b57600080fd5b50620001a36200019d36600462000476565b62000308565b604051620000c3919062000651565b348015620001bf57600080fd5b50620001a3620001d136600462000476565b62000326565b6001602090815260009283526040808420909152908252902054600160a060020a031681565b60006020819052908152604090205481565b600080868686868662000221620003ed565b62000231959493929190620005f4565b604051809103906000f0801580156200024e573d6000803e3d6000fd5b5090506200025d81886200033b565b15156200026957600080fd5b80600160a060020a031687600160a060020a03167f469b39a77dd70dcd37a023d26c3d9e21fe2063ada30919ffca5db3c27c4cf71588604051620002ae919062000671565b60405180910390a39695505050505050565b600160a060020a038083166000908152600160209081526040808320858452909152902054165b92915050565b600160a060020a031660009081526020819052604090205490565b600160a060020a031660009081526002602052604090205460ff1690565b60026020526000908152604090205460ff1681565b600160a060020a03811660009081526020819052604081205481906200036990600163ffffffff620003d616565b600160a060020a039384166000908152602081815260408083208490556001808352818420948452938252808320805473ffffffffffffffffffffffffffffffffffffffff191698909716978817909655958152600290955292909320805460ff19168317905550919050565b600082820183811015620003e657fe5b9392505050565b604051610781806200075483390190565b6000620003e68235620006e9565b6000601f820183136200041e57600080fd5b8135620004356200042f82620006bc565b62000694565b915080825260208301602083018583830111156200045257600080fd5b6200045f8382846200070a565b50505092915050565b6000620003e68235620006fa565b6000602082840312156200048957600080fd5b6000620004978484620003fe565b949350505050565b600080600080600060a08688031215620004b857600080fd5b6000620004c68888620003fe565b955050602086013567ffffffffffffffff811115620004e457600080fd5b620004f2888289016200040c565b9450506040620005058882890162000468565b9350506060620005188882890162000468565b92505060806200052b8882890162000468565b9150509295509295909350565b600080604083850312156200054c57600080fd5b60006200055a8585620003fe565b92505060206200056d8582860162000468565b9150509250929050565b6200058281620006e9565b82525050565b6200058281620006f5565b6200058281620006fd565b6000620005ab82620006e5565b808452620005c181602086016020860162000716565b620005cc8162000749565b9093016020019392505050565b6200058281620006fa565b60208101620002e7828462000577565b60a0810162000604828862000577565b81810360208301526200061881876200059e565b9050620006296040830186620005d9565b620006386060830185620005d9565b620006476080830184620005d9565b9695505050505050565b60208101620002e7828462000588565b60208101620002e7828462000593565b60208082528101620003e681846200059e565b60208101620002e78284620005d9565b60405181810167ffffffffffffffff81118282101715620006b457600080fd5b604052919050565b600067ffffffffffffffff821115620006d457600080fd5b506020601f91909101601f19160190565b5190565b600160a060020a031690565b151590565b90565b6000620002e782620006e9565b82818337506000910152565b60005b838110156200073357818101518382015260200162000719565b8381111562000743576000848401525b50505050565b601f01601f1916905600608060405234801561001057600080fd5b506040516107813803806107818339810180604052610032919081019061018d565b60008054600160a060020a031916600160a060020a038716179055835161006090600190602087019061007f565b50601e6002556001600355600492909255600555600655506102a29050565b828054600181600116156101000203166002900490600052602060002090601f016020900481019282601f106100c057805160ff19168380011785556100ed565b828001600101855582156100ed579182015b828111156100ed5782518255916020019190600101906100d2565b506100f99291506100fd565b5090565b61011791905b808211156100f95760008155600101610103565b90565b60006101268251610266565b9392505050565b6000601f8201831361013e57600080fd5b815161015161014c8261023f565b610219565b9150808252602083016020830185838301111561016d57600080fd5b610178838284610272565b50505092915050565b60006101268251610117565b600080600080600060a086880312156101a557600080fd5b60006101b1888861011a565b95505060208601516001604060020a038111156101cd57600080fd5b6101d98882890161012d565b94505060406101ea88828901610181565b93505060606101fb88828901610181565b925050608061020c88828901610181565b9150509295509295909350565b6040518181016001604060020a038111828210171561023757600080fd5b604052919050565b60006001604060020a0382111561025557600080fd5b506020601f91909101601f19160190565b600160a060020a031690565b60005b8381101561028d578181015183820152602001610275565b8381111561029c576000848401525b50505050565b6104d0806102b16000396000f30060806040526004361061008d5763ffffffff7c01000000000000000000000000000000000000000000000000000000006000350416636ab6936a81146100925780637171a364146100bd57806387639c68146100df5780639de77df2146100f4578063b55e75af14610116578063cc6f06a31461012b578063deff41c114610140578063e2d36ef514610162575b600080fd5b34801561009e57600080fd5b506100a7610177565b6040516100b491906103b7565b60405180910390f35b3480156100c957600080fd5b506100dd6100d83660046102e4565b61017d565b005b3480156100eb57600080fd5b506100a7610210565b34801561010057600080fd5b50610109610216565b6040516100b491906103a6565b34801561012257600080fd5b506100a76102a3565b34801561013757600080fd5b506100a76102a9565b34801561014c57600080fd5b506101556102af565b6040516100b49190610392565b34801561016e57600080fd5b506100a76102cb565b60055481565b60005473ffffffffffffffffffffffffffffffffffffffff1633146101a157600080fd5b60648311156101af57600080fd5b7f8ea2ca230e795967c2a1206312baed236d837f2f55d5fe9559ea806c57702a5f600254856003548660055487600654886040516101f49897969594939291906103c5565b60405180910390a1600293909355600391909155600555600655565b60035481565b60018054604080516020600284861615610100026000190190941693909304601f8101849004840282018401909252818152929183018282801561029b5780601f106102705761010080835404028352916020019161029b565b820191906000526020600020905b81548152906001019060200180831161027e57829003601f168201915b505050505081565b60025481565b60065481565b60005473ffffffffffffffffffffffffffffffffffffffff1681565b60045481565b60006102dd8235610459565b9392505050565b600080600080608085870312156102fa57600080fd5b600061030687876102d1565b9450506020610317878288016102d1565b9350506040610328878288016102d1565b9250506060610339878288016102d1565b91505092959194509250565b61034e81610440565b82525050565b600061035f8261043c565b80845261037381602086016020860161045c565b61037c8161048c565b9093016020019392505050565b61034e81610459565b602081016103a08284610345565b92915050565b602080825281016102dd8184610354565b602081016103a08284610389565b61010081016103d4828b610389565b6103e1602083018a610389565b6103ee6040830189610389565b6103fb6060830188610389565b6104086080830187610389565b61041560a0830186610389565b61042260c0830185610389565b61042f60e0830184610389565b9998505050505050505050565b5190565b73ffffffffffffffffffffffffffffffffffffffff1690565b90565b60005b8381101561047757818101518382015260200161045f565b83811115610486576000848401525b50505050565b601f01601f1916905600a265627a7a72305820b3bc24aef9c6953ef5d11f9e811e900c34d3176d56e4b4a9c1bafa0af8683b756c6578706572696d656e74616cf50037a265627a7a723058205d73680b78724fbe7b452f31b8be95a15cd65d97cfdff896143b17645e78c17d6c6578706572696d656e74616cf50037",
  "source": "pragma solidity ^0.4.24;\npragma experimental ABIEncoderV2;\n\nimport './Pool.sol';\nimport './RegistryBase.sol';\n\ncontract PoolRegistry is RegistryBase //, OwnableMutable // is Owned by IexecHub\n{\n\tevent CreatePool(address indexed poolOwner, address indexed pool, string poolDescription);\n\n\t/**\n\t * Constructor\n\t */\n\tconstructor()\n\tpublic\n\t{\n\t}\n\n\t/**\n\t * Pool creation\n\t */\n\tfunction createPool(\n\t\taddress _poolOwner,\n\t\tstring  _poolDescription,\n\t\tuint256 _subscriptionLockStakePolicy,\n\t\tuint256 _subscriptionMinimumStakePolicy,\n\t\tuint256 _subscriptionMinimumScorePolicy)\n\tpublic /* onlyOwner /*owner == IexecHub*/ returns (Pool)\n\t{\n\t\tPool newPool = new Pool(\n\t\t\t_poolOwner,\n\t\t\t_poolDescription,\n\t\t\t_subscriptionLockStakePolicy,\n\t\t\t_subscriptionMinimumStakePolicy,\n\t\t\t_subscriptionMinimumScorePolicy\n\t\t);\n\t\trequire(insert(newPool, _poolOwner));\n\t\temit CreatePool(_poolOwner, newPool, _poolDescription);\n\t\treturn newPool;\n\t}\n}\n",
  "sourcePath": "/home/amxx/Work/iExec/code/PoCo-dev/contracts/registries/PoolRegistry.sol",
  "compiler": {
    "name": "solc",
    "version": "0.4.25+commit.59dbf8f1.Emscripten.clang"
  },
  "schemaVersion": "3.0.0-beta.1",
  "updatedAt": "2018-10-05T12:37:37.178Z"
}