{
  "contractName": "Pool",
  "abi": [
    {
      "constant": true,
      "inputs": [],
      "name": "m_subscriptionMinimumStakePolicy",
      "outputs": [
        {
          "name": "",
          "type": "uint256"
        }
      ],
      "payable": false,
      "stateMutability": "view",
      "type": "function"
    },
    {
      "constant": true,
      "inputs": [],
      "name": "m_schedulerRewardRatioPolicy",
      "outputs": [
        {
          "name": "",
          "type": "uint256"
        }
      ],
      "payable": false,
      "stateMutability": "view",
      "type": "function"
    },
    {
      "constant": true,
      "inputs": [],
      "name": "m_poolDescription",
      "outputs": [
        {
          "name": "",
          "type": "string"
        }
      ],
      "payable": false,
      "stateMutability": "view",
      "type": "function"
    },
    {
      "constant": true,
      "inputs": [],
      "name": "m_workerStakeRatioPolicy",
      "outputs": [
        {
          "name": "",
          "type": "uint256"
        }
      ],
      "payable": false,
      "stateMutability": "view",
      "type": "function"
    },
    {
      "constant": true,
      "inputs": [],
      "name": "m_subscriptionMinimumScorePolicy",
      "outputs": [
        {
          "name": "",
          "type": "uint256"
        }
      ],
      "payable": false,
      "stateMutability": "view",
      "type": "function"
    },
    {
      "constant": true,
      "inputs": [],
      "name": "m_owner",
      "outputs": [
        {
          "name": "",
          "type": "address"
        }
      ],
      "payable": false,
      "stateMutability": "view",
      "type": "function"
    },
    {
      "constant": true,
      "inputs": [],
      "name": "m_subscriptionLockStakePolicy",
      "outputs": [
        {
          "name": "",
          "type": "uint256"
        }
      ],
      "payable": false,
      "stateMutability": "view",
      "type": "function"
    },
    {
      "inputs": [
        {
          "name": "_poolOwner",
          "type": "address"
        },
        {
          "name": "_poolDescription",
          "type": "string"
        },
        {
          "name": "_subscriptionLockStakePolicy",
          "type": "uint256"
        },
        {
          "name": "_subscriptionMinimumStakePolicy",
          "type": "uint256"
        },
        {
          "name": "_subscriptionMinimumScorePolicy",
          "type": "uint256"
        }
      ],
      "payable": false,
      "stateMutability": "nonpayable",
      "type": "constructor"
    },
    {
      "anonymous": false,
      "inputs": [
        {
          "indexed": false,
          "name": "oldWorkerStakeRatioPolicy",
          "type": "uint256"
        },
        {
          "indexed": false,
          "name": "newWorkerStakeRatioPolicy",
          "type": "uint256"
        },
        {
          "indexed": false,
          "name": "oldSchedulerRewardRatioPolicy",
          "type": "uint256"
        },
        {
          "indexed": false,
          "name": "newSchedulerRewardRatioPolicy",
          "type": "uint256"
        },
        {
          "indexed": false,
          "name": "oldSubscriptionMinimumStakePolicy",
          "type": "uint256"
        },
        {
          "indexed": false,
          "name": "newSubscriptionMinimumStakePolicy",
          "type": "uint256"
        },
        {
          "indexed": false,
          "name": "oldSubscriptionMinimumScorePolicy",
          "type": "uint256"
        },
        {
          "indexed": false,
          "name": "newSubscriptionMinimumScorePolicy",
          "type": "uint256"
        }
      ],
      "name": "PoolPolicyUpdate",
      "type": "event"
    },
    {
      "constant": false,
      "inputs": [
        {
          "name": "_newWorkerStakeRatioPolicy",
          "type": "uint256"
        },
        {
          "name": "_newSchedulerRewardRatioPolicy",
          "type": "uint256"
        },
        {
          "name": "_newSubscriptionMinimumStakePolicy",
          "type": "uint256"
        },
        {
          "name": "_newSubscriptionMinimumScorePolicy",
          "type": "uint256"
        }
      ],
      "name": "changePoolPolicy",
      "outputs": [],
      "payable": false,
      "stateMutability": "nonpayable",
      "type": "function"
    }
  ],
  "bytecode": "0x608060405234801561001057600080fd5b506040516107813803806107818339810180604052610032919081019061018d565b60008054600160a060020a031916600160a060020a038716179055835161006090600190602087019061007f565b50601e6002556001600355600492909255600555600655506102a29050565b828054600181600116156101000203166002900490600052602060002090601f016020900481019282601f106100c057805160ff19168380011785556100ed565b828001600101855582156100ed579182015b828111156100ed5782518255916020019190600101906100d2565b506100f99291506100fd565b5090565b61011791905b808211156100f95760008155600101610103565b90565b60006101268251610266565b9392505050565b6000601f8201831361013e57600080fd5b815161015161014c8261023f565b610219565b9150808252602083016020830185838301111561016d57600080fd5b610178838284610272565b50505092915050565b60006101268251610117565b600080600080600060a086880312156101a557600080fd5b60006101b1888861011a565b95505060208601516001604060020a038111156101cd57600080fd5b6101d98882890161012d565b94505060406101ea88828901610181565b93505060606101fb88828901610181565b925050608061020c88828901610181565b9150509295509295909350565b6040518181016001604060020a038111828210171561023757600080fd5b604052919050565b60006001604060020a0382111561025557600080fd5b506020601f91909101601f19160190565b600160a060020a031690565b60005b8381101561028d578181015183820152602001610275565b8381111561029c576000848401525b50505050565b6104d0806102b16000396000f30060806040526004361061008d5763ffffffff7c01000000000000000000000000000000000000000000000000000000006000350416636ab6936a81146100925780637171a364146100bd57806387639c68146100df5780639de77df2146100f4578063b55e75af14610116578063cc6f06a31461012b578063deff41c114610140578063e2d36ef514610162575b600080fd5b34801561009e57600080fd5b506100a7610177565b6040516100b491906103b7565b60405180910390f35b3480156100c957600080fd5b506100dd6100d83660046102e4565b61017d565b005b3480156100eb57600080fd5b506100a7610210565b34801561010057600080fd5b50610109610216565b6040516100b491906103a6565b34801561012257600080fd5b506100a76102a3565b34801561013757600080fd5b506100a76102a9565b34801561014c57600080fd5b506101556102af565b6040516100b49190610392565b34801561016e57600080fd5b506100a76102cb565b60055481565b60005473ffffffffffffffffffffffffffffffffffffffff1633146101a157600080fd5b60648311156101af57600080fd5b7f8ea2ca230e795967c2a1206312baed236d837f2f55d5fe9559ea806c57702a5f600254856003548660055487600654886040516101f49897969594939291906103c5565b60405180910390a1600293909355600391909155600555600655565b60035481565b60018054604080516020600284861615610100026000190190941693909304601f8101849004840282018401909252818152929183018282801561029b5780601f106102705761010080835404028352916020019161029b565b820191906000526020600020905b81548152906001019060200180831161027e57829003601f168201915b505050505081565b60025481565b60065481565b60005473ffffffffffffffffffffffffffffffffffffffff1681565b60045481565b60006102dd8235610459565b9392505050565b600080600080608085870312156102fa57600080fd5b600061030687876102d1565b9450506020610317878288016102d1565b9350506040610328878288016102d1565b9250506060610339878288016102d1565b91505092959194509250565b61034e81610440565b82525050565b600061035f8261043c565b80845261037381602086016020860161045c565b61037c8161048c565b9093016020019392505050565b61034e81610459565b602081016103a08284610345565b92915050565b602080825281016102dd8184610354565b602081016103a08284610389565b61010081016103d4828b610389565b6103e1602083018a610389565b6103ee6040830189610389565b6103fb6060830188610389565b6104086080830187610389565b61041560a0830186610389565b61042260c0830185610389565b61042f60e0830184610389565b9998505050505050505050565b5190565b73ffffffffffffffffffffffffffffffffffffffff1690565b90565b60005b8381101561047757818101518382015260200161045f565b83811115610486576000848401525b50505050565b601f01601f1916905600a265627a7a72305820b3bc24aef9c6953ef5d11f9e811e900c34d3176d56e4b4a9c1bafa0af8683b756c6578706572696d656e74616cf50037",
  "source": "pragma solidity ^0.4.24;\npragma experimental ABIEncoderV2;\n\nimport '../tools/Ownable.sol';\nimport '../tools/SafeMathOZ.sol';\n\ncontract Pool is OwnableImmutable\n{\n\tusing SafeMathOZ for uint256;\n\n\t/**\n\t * Parameters\n\t */\n\tstring  public m_poolDescription;\n\tuint256 public m_workerStakeRatioPolicy;         // % of reward to stake\n\tuint256 public m_schedulerRewardRatioPolicy;     // % of reward given to scheduler\n\tuint256 public m_subscriptionLockStakePolicy;    // Stake locked when in workerpool - Constant set by constructor, do not update\n\tuint256 public m_subscriptionMinimumStakePolicy; // Minimum stake for subscribing\n\tuint256 public m_subscriptionMinimumScorePolicy; // Minimum score for subscribing\n\n\t/**\n\t * Events\n\t */\n\tevent PoolPolicyUpdate(\n\t\tuint256 oldWorkerStakeRatioPolicy,         uint256 newWorkerStakeRatioPolicy,\n\t\tuint256 oldSchedulerRewardRatioPolicy,     uint256 newSchedulerRewardRatioPolicy,\n\t\tuint256 oldSubscriptionMinimumStakePolicy, uint256 newSubscriptionMinimumStakePolicy,\n\t\tuint256 oldSubscriptionMinimumScorePolicy, uint256 newSubscriptionMinimumScorePolicy);\n\n\t/**\n\t * Constructor\n\t */\n\tconstructor(\n\t\taddress _poolOwner,\n\t\tstring  _poolDescription,\n\t\tuint256 _subscriptionLockStakePolicy,\n\t\tuint256 _subscriptionMinimumStakePolicy,\n\t\tuint256 _subscriptionMinimumScorePolicy)\n\tpublic\n\tOwnableImmutable(_poolOwner)\n\t{\n\t\tm_poolDescription                = _poolDescription;\n\t\tm_workerStakeRatioPolicy         = 30;                               // mutable\n\t\tm_schedulerRewardRatioPolicy     = 1;                                // mutable\n\t\tm_subscriptionLockStakePolicy    = _subscriptionLockStakePolicy;     // constant\n\t\tm_subscriptionMinimumStakePolicy = _subscriptionMinimumStakePolicy;  // mutable\n\t\tm_subscriptionMinimumScorePolicy = _subscriptionMinimumScorePolicy;  // mutable\n\t}\n\n\tfunction changePoolPolicy(\n\t\tuint256 _newWorkerStakeRatioPolicy,\n\t\tuint256 _newSchedulerRewardRatioPolicy,\n\t\tuint256 _newSubscriptionMinimumStakePolicy,\n\t\tuint256 _newSubscriptionMinimumScorePolicy)\n\tpublic onlyOwner\n\t{\n\t\trequire(_newSchedulerRewardRatioPolicy <= 100);\n\n\t\temit PoolPolicyUpdate(\n\t\t\tm_workerStakeRatioPolicy,         _newWorkerStakeRatioPolicy,\n\t\t\tm_schedulerRewardRatioPolicy,     _newSchedulerRewardRatioPolicy,\n\t\t\tm_subscriptionMinimumStakePolicy, _newSubscriptionMinimumStakePolicy,\n\t\t\tm_subscriptionMinimumScorePolicy, _newSubscriptionMinimumScorePolicy\n\t\t);\n\n\t\tm_workerStakeRatioPolicy         = _newWorkerStakeRatioPolicy;\n\t\tm_schedulerRewardRatioPolicy     = _newSchedulerRewardRatioPolicy;\n\t\tm_subscriptionMinimumStakePolicy = _newSubscriptionMinimumStakePolicy;\n\t\tm_subscriptionMinimumScorePolicy = _newSubscriptionMinimumScorePolicy;\n\t}\n\n}\n",
  "sourcePath": "/home/amxx/Work/iExec/code/PoCo-dev/contracts/registries/Pool.sol",
  "compiler": {
    "name": "solc",
    "version": "0.4.25+commit.59dbf8f1.Emscripten.clang"
  },
  "schemaVersion": "3.0.0-beta.1",
  "updatedAt": "2018-10-05T12:37:37.177Z"
}