{
  "contractName": "RegistryBase",
  "abi": [
    {
      "constant": true,
      "inputs": [
        {
          "name": "",
          "type": "address"
        },
        {
          "name": "",
          "type": "uint256"
        }
      ],
      "name": "m_byOwnerByIndex",
      "outputs": [
        {
          "name": "",
          "type": "address"
        }
      ],
      "payable": false,
      "stateMutability": "view",
      "type": "function"
    },
    {
      "constant": true,
      "inputs": [
        {
          "name": "",
          "type": "address"
        }
      ],
      "name": "m_countByOwner",
      "outputs": [
        {
          "name": "",
          "type": "uint256"
        }
      ],
      "payable": false,
      "stateMutability": "view",
      "type": "function"
    },
    {
      "constant": true,
      "inputs": [
        {
          "name": "",
          "type": "address"
        }
      ],
      "name": "m_registered",
      "outputs": [
        {
          "name": "",
          "type": "bool"
        }
      ],
      "payable": false,
      "stateMutability": "view",
      "type": "function"
    },
    {
      "inputs": [],
      "payable": false,
      "stateMutability": "nonpayable",
      "type": "constructor"
    },
    {
      "constant": true,
      "inputs": [
        {
          "name": "_entry",
          "type": "address"
        }
      ],
      "name": "isRegistered",
      "outputs": [
        {
          "name": "",
          "type": "bool"
        }
      ],
      "payable": false,
      "stateMutability": "view",
      "type": "function"
    },
    {
      "constant": true,
      "inputs": [
        {
          "name": "_owner",
          "type": "address"
        },
        {
          "name": "_index",
          "type": "uint256"
        }
      ],
      "name": "viewEntry",
      "outputs": [
        {
          "name": "",
          "type": "address"
        }
      ],
      "payable": false,
      "stateMutability": "view",
      "type": "function"
    },
    {
      "constant": true,
      "inputs": [
        {
          "name": "_owner",
          "type": "address"
        }
      ],
      "name": "viewCount",
      "outputs": [
        {
          "name": "",
          "type": "uint256"
        }
      ],
      "payable": false,
      "stateMutability": "view",
      "type": "function"
    }
  ],
  "bytecode": "0x608060405234801561001057600080fd5b50610378806100206000396000f3006080604052600436106100775763ffffffff7c0100000000000000000000000000000000000000000000000000000000600035041663045af4e3811461007c57806340302a0e146100b257806365a2c104146100df578063c0a8cae2146100ff578063c3c5a5471461011f578063cf4ba23f1461014c575b600080fd5b34801561008857600080fd5b5061009c610097366004610298565b61016c565b6040516100a991906102f3565b60405180910390f35b3480156100be57600080fd5b506100d26100cd366004610272565b61019f565b6040516100a9919061030f565b3480156100eb57600080fd5b5061009c6100fa366004610298565b6101b1565b34801561010b57600080fd5b506100d261011a366004610272565b6101eb565b34801561012b57600080fd5b5061013f61013a366004610272565b610213565b6040516100a99190610301565b34801561015857600080fd5b5061013f610167366004610272565b61023e565b600160209081526000928352604080842090915290825290205473ffffffffffffffffffffffffffffffffffffffff1681565b60006020819052908152604090205481565b73ffffffffffffffffffffffffffffffffffffffff8083166000908152600160209081526040808320858452909152902054165b92915050565b73ffffffffffffffffffffffffffffffffffffffff1660009081526020819052604090205490565b73ffffffffffffffffffffffffffffffffffffffff1660009081526002602052604090205460ff1690565b60026020526000908152604090205460ff1681565b600061025f823561031d565b9392505050565b600061025f823561033b565b60006020828403121561028457600080fd5b60006102908484610253565b949350505050565b600080604083850312156102ab57600080fd5b60006102b78585610253565b92505060206102c885828601610266565b9150509250929050565b6102db8161031d565b82525050565b6102db81610336565b6102db8161033b565b602081016101e582846102d2565b602081016101e582846102e1565b602081016101e582846102ea565b73ffffffffffffffffffffffffffffffffffffffff1690565b151590565b905600a265627a7a7230582068a8109fc460f6ab40c7271a07cc47903909e99c06062a091ae1da24d0441f806c6578706572696d656e74616cf50037",
  "source": "pragma solidity ^0.4.24;\npragma experimental ABIEncoderV2;\n\nimport '../tools/Ownable.sol';\nimport '../tools/SafeMathOZ.sol';\n\ncontract RegistryBase\n{\n\n\tusing SafeMathOZ for uint256;\n\n\t/**\n\t * Members\n\t */\n\tmapping(address => uint256                    ) public m_countByOwner;\n\tmapping(address => mapping(uint256 => address)) public m_byOwnerByIndex;\n\tmapping(address => bool                       ) public m_registered;\n\n\t/**\n\t * Constructor\n\t */\n\tconstructor()\n\tpublic\n\t{\n\t}\n\n\t/**\n\t * Accessors\n\t */\n\tfunction isRegistered(address _entry)\n\tpublic view returns (bool)\n\t{\n\t\treturn m_registered[_entry];\n\t}\n\n\tfunction viewEntry(address _owner, uint256 _index)\n\tpublic view returns (address)\n\t{\n\t\treturn m_byOwnerByIndex[_owner][_index];\n\t}\n\n\tfunction viewCount(address _owner)\n\tpublic view returns (uint256)\n\t{\n\t\treturn m_countByOwner[_owner];\n\t}\n\n\t/**\n\t * Internal\n\t */\n\tfunction insert(\n\t\taddress _entry,\n\t\taddress _owner)\n\tinternal returns (bool)\n\t{\n\t\tuint id = m_countByOwner[_owner].add(1);\n\t\tm_countByOwner  [_owner]     = id;\n\t\tm_byOwnerByIndex[_owner][id] = _entry;\n\t\tm_registered    [_entry]     = true;\n\t\treturn true;\n\t}\n}\n",
  "sourcePath": "/home/amxx/Work/iExec/code/PoCo-dev/contracts/registries/RegistryBase.sol",
  "compiler": {
    "name": "solc",
    "version": "0.4.25+commit.59dbf8f1.Emscripten.clang"
  },
  "schemaVersion": "3.0.0-beta.1",
  "updatedAt": "2018-10-05T12:37:37.179Z"
}