{
  "contractName": "TestContract",
  "abi": [
    {
      "constant": true,
      "inputs": [],
      "name": "EIP712DOMAIN_SEPARATOR",
      "outputs": [
        {
          "name": "",
          "type": "bytes32"
        }
      ],
      "payable": false,
      "stateMutability": "view",
      "type": "function"
    },
    {
      "inputs": [],
      "payable": false,
      "stateMutability": "nonpayable",
      "type": "constructor"
    },
    {
      "constant": true,
      "inputs": [
        {
          "components": [
            {
              "name": "dapp",
              "type": "address"
            },
            {
              "name": "dappprice",
              "type": "uint256"
            },
            {
              "name": "volume",
              "type": "uint256"
            },
            {
              "name": "datarestrict",
              "type": "address"
            },
            {
              "name": "poolrestrict",
              "type": "address"
            },
            {
              "name": "userrestrict",
              "type": "address"
            },
            {
              "name": "salt",
              "type": "bytes32"
            },
            {
              "components": [
                {
                  "name": "v",
                  "type": "uint8"
                },
                {
                  "name": "r",
                  "type": "bytes32"
                },
                {
                  "name": "s",
                  "type": "bytes32"
                }
              ],
              "name": "sign",
              "type": "tuple"
            }
          ],
          "name": "_dapporder",
          "type": "tuple"
        }
      ],
      "name": "getDappOrderHash",
      "outputs": [
        {
          "name": "",
          "type": "bytes32"
        }
      ],
      "payable": false,
      "stateMutability": "pure",
      "type": "function"
    },
    {
      "constant": true,
      "inputs": [
        {
          "components": [
            {
              "name": "data",
              "type": "address"
            },
            {
              "name": "dataprice",
              "type": "uint256"
            },
            {
              "name": "volume",
              "type": "uint256"
            },
            {
              "name": "dapprestrict",
              "type": "address"
            },
            {
              "name": "poolrestrict",
              "type": "address"
            },
            {
              "name": "userrestrict",
              "type": "address"
            },
            {
              "name": "salt",
              "type": "bytes32"
            },
            {
              "components": [
                {
                  "name": "v",
                  "type": "uint8"
                },
                {
                  "name": "r",
                  "type": "bytes32"
                },
                {
                  "name": "s",
                  "type": "bytes32"
                }
              ],
              "name": "sign",
              "type": "tuple"
            }
          ],
          "name": "_dataorder",
          "type": "tuple"
        }
      ],
      "name": "getDataOrderHash",
      "outputs": [
        {
          "name": "",
          "type": "bytes32"
        }
      ],
      "payable": false,
      "stateMutability": "pure",
      "type": "function"
    },
    {
      "constant": true,
      "inputs": [
        {
          "components": [
            {
              "name": "pool",
              "type": "address"
            },
            {
              "name": "poolprice",
              "type": "uint256"
            },
            {
              "name": "volume",
              "type": "uint256"
            },
            {
              "name": "category",
              "type": "uint256"
            },
            {
              "name": "trust",
              "type": "uint256"
            },
            {
              "name": "tag",
              "type": "uint256"
            },
            {
              "name": "dapprestrict",
              "type": "address"
            },
            {
              "name": "datarestrict",
              "type": "address"
            },
            {
              "name": "userrestrict",
              "type": "address"
            },
            {
              "name": "salt",
              "type": "bytes32"
            },
            {
              "components": [
                {
                  "name": "v",
                  "type": "uint8"
                },
                {
                  "name": "r",
                  "type": "bytes32"
                },
                {
                  "name": "s",
                  "type": "bytes32"
                }
              ],
              "name": "sign",
              "type": "tuple"
            }
          ],
          "name": "_poolorder",
          "type": "tuple"
        }
      ],
      "name": "getPoolOrderHash",
      "outputs": [
        {
          "name": "",
          "type": "bytes32"
        }
      ],
      "payable": false,
      "stateMutability": "pure",
      "type": "function"
    },
    {
      "constant": true,
      "inputs": [
        {
          "components": [
            {
              "name": "dapp",
              "type": "address"
            },
            {
              "name": "dappmaxprice",
              "type": "uint256"
            },
            {
              "name": "data",
              "type": "address"
            },
            {
              "name": "datamaxprice",
              "type": "uint256"
            },
            {
              "name": "pool",
              "type": "address"
            },
            {
              "name": "poolmaxprice",
              "type": "uint256"
            },
            {
              "name": "requester",
              "type": "address"
            },
            {
              "name": "volume",
              "type": "uint256"
            },
            {
              "name": "category",
              "type": "uint256"
            },
            {
              "name": "trust",
              "type": "uint256"
            },
            {
              "name": "tag",
              "type": "uint256"
            },
            {
              "name": "beneficiary",
              "type": "address"
            },
            {
              "name": "callback",
              "type": "address"
            },
            {
              "name": "params",
              "type": "string"
            },
            {
              "name": "salt",
              "type": "bytes32"
            },
            {
              "components": [
                {
                  "name": "v",
                  "type": "uint8"
                },
                {
                  "name": "r",
                  "type": "bytes32"
                },
                {
                  "name": "s",
                  "type": "bytes32"
                }
              ],
              "name": "sign",
              "type": "tuple"
            }
          ],
          "name": "_userorder",
          "type": "tuple"
        }
      ],
      "name": "getUserOrderHash",
      "outputs": [
        {
          "name": "",
          "type": "bytes32"
        }
      ],
      "payable": false,
      "stateMutability": "pure",
      "type": "function"
    },
    {
      "constant": true,
      "inputs": [
        {
          "name": "_signer",
          "type": "address"
        },
        {
          "name": "_hash",
          "type": "bytes32"
        },
        {
          "components": [
            {
              "name": "v",
              "type": "uint8"
            },
            {
              "name": "r",
              "type": "bytes32"
            },
            {
              "name": "s",
              "type": "bytes32"
            }
          ],
          "name": "_signature",
          "type": "tuple"
        }
      ],
      "name": "verifySignature",
      "outputs": [
        {
          "name": "",
          "type": "bool"
        }
      ],
      "payable": false,
      "stateMutability": "view",
      "type": "function"
    },
    {
      "constant": true,
      "inputs": [
        {
          "components": [
            {
              "name": "dapp",
              "type": "address"
            },
            {
              "name": "dappprice",
              "type": "uint256"
            },
            {
              "name": "volume",
              "type": "uint256"
            },
            {
              "name": "datarestrict",
              "type": "address"
            },
            {
              "name": "poolrestrict",
              "type": "address"
            },
            {
              "name": "userrestrict",
              "type": "address"
            },
            {
              "name": "salt",
              "type": "bytes32"
            },
            {
              "components": [
                {
                  "name": "v",
                  "type": "uint8"
                },
                {
                  "name": "r",
                  "type": "bytes32"
                },
                {
                  "name": "s",
                  "type": "bytes32"
                }
              ],
              "name": "sign",
              "type": "tuple"
            }
          ],
          "name": "_dapporder",
          "type": "tuple"
        }
      ],
      "name": "checkDappOrder",
      "outputs": [
        {
          "name": "",
          "type": "bool"
        }
      ],
      "payable": false,
      "stateMutability": "view",
      "type": "function"
    },
    {
      "constant": true,
      "inputs": [
        {
          "components": [
            {
              "name": "data",
              "type": "address"
            },
            {
              "name": "dataprice",
              "type": "uint256"
            },
            {
              "name": "volume",
              "type": "uint256"
            },
            {
              "name": "dapprestrict",
              "type": "address"
            },
            {
              "name": "poolrestrict",
              "type": "address"
            },
            {
              "name": "userrestrict",
              "type": "address"
            },
            {
              "name": "salt",
              "type": "bytes32"
            },
            {
              "components": [
                {
                  "name": "v",
                  "type": "uint8"
                },
                {
                  "name": "r",
                  "type": "bytes32"
                },
                {
                  "name": "s",
                  "type": "bytes32"
                }
              ],
              "name": "sign",
              "type": "tuple"
            }
          ],
          "name": "_dataorder",
          "type": "tuple"
        }
      ],
      "name": "checkDataOrder",
      "outputs": [
        {
          "name": "",
          "type": "bool"
        }
      ],
      "payable": false,
      "stateMutability": "view",
      "type": "function"
    },
    {
      "constant": true,
      "inputs": [
        {
          "components": [
            {
              "name": "pool",
              "type": "address"
            },
            {
              "name": "poolprice",
              "type": "uint256"
            },
            {
              "name": "volume",
              "type": "uint256"
            },
            {
              "name": "category",
              "type": "uint256"
            },
            {
              "name": "trust",
              "type": "uint256"
            },
            {
              "name": "tag",
              "type": "uint256"
            },
            {
              "name": "dapprestrict",
              "type": "address"
            },
            {
              "name": "datarestrict",
              "type": "address"
            },
            {
              "name": "userrestrict",
              "type": "address"
            },
            {
              "name": "salt",
              "type": "bytes32"
            },
            {
              "components": [
                {
                  "name": "v",
                  "type": "uint8"
                },
                {
                  "name": "r",
                  "type": "bytes32"
                },
                {
                  "name": "s",
                  "type": "bytes32"
                }
              ],
              "name": "sign",
              "type": "tuple"
            }
          ],
          "name": "_poolorder",
          "type": "tuple"
        }
      ],
      "name": "checkPoolOrder",
      "outputs": [
        {
          "name": "",
          "type": "bool"
        }
      ],
      "payable": false,
      "stateMutability": "view",
      "type": "function"
    },
    {
      "constant": true,
      "inputs": [
        {
          "components": [
            {
              "name": "dapp",
              "type": "address"
            },
            {
              "name": "dappmaxprice",
              "type": "uint256"
            },
            {
              "name": "data",
              "type": "address"
            },
            {
              "name": "datamaxprice",
              "type": "uint256"
            },
            {
              "name": "pool",
              "type": "address"
            },
            {
              "name": "poolmaxprice",
              "type": "uint256"
            },
            {
              "name": "requester",
              "type": "address"
            },
            {
              "name": "volume",
              "type": "uint256"
            },
            {
              "name": "category",
              "type": "uint256"
            },
            {
              "name": "trust",
              "type": "uint256"
            },
            {
              "name": "tag",
              "type": "uint256"
            },
            {
              "name": "beneficiary",
              "type": "address"
            },
            {
              "name": "callback",
              "type": "address"
            },
            {
              "name": "params",
              "type": "string"
            },
            {
              "name": "salt",
              "type": "bytes32"
            },
            {
              "components": [
                {
                  "name": "v",
                  "type": "uint8"
                },
                {
                  "name": "r",
                  "type": "bytes32"
                },
                {
                  "name": "s",
                  "type": "bytes32"
                }
              ],
              "name": "sign",
              "type": "tuple"
            }
          ],
          "name": "_userorder",
          "type": "tuple"
        }
      ],
      "name": "checkUserOrder",
      "outputs": [
        {
          "name": "",
          "type": "bool"
        }
      ],
      "payable": false,
      "stateMutability": "view",
      "type": "function"
    }
  ],
  "bytecode": "0x60806040523480156200001157600080fd5b506040805160c0810182526008608082019081527f69457865634f444200000000000000000000000000000000000000000000000060a0830152815281518083018352600981527f332e302d616c706861000000000000000000000000000000000000000000000060208281019190915282015260018183015230606082015290517feca34ccf00000000000000000000000000000000000000000000000000000000815273__IexecODBLibOrders_____________________9163eca34ccf91620000e191906004016200023d565b60206040518083038186803b158015620000fa57600080fd5b505af41580156200010f573d6000803e3d6000fd5b505050506040513d601f19601f8201168201806040525062000135919081019062000153565b600055620002a0565b60006200014c825162000260565b9392505050565b6000602082840312156200016657600080fd5b60006200017484846200013e565b949350505050565b620001878162000254565b82525050565b60006200019a8262000250565b808452620001b081602086016020860162000263565b620001bb8162000296565b9093016020019392505050565b8051608080845260009190840190620001e282826200018d565b91505060208301518482036020860152620001fe82826200018d565b915050604083015162000215604086018262000232565b5060608301516200022a60608601826200017c565b509392505050565b620001878162000260565b602080825281016200014c8184620001c8565b5190565b600160a060020a031690565b90565b60005b838110156200028057818101518382015260200162000266565b8381111562000290576000848401525b50505050565b601f01601f191690565b6112e080620002b06000396000f30060806040526004361061008a5763ffffffff60e060020a600035041663047411e7811461008f5780631f9ff938146100ba578063279ce51b146100da57806333c39694146100fa578063683da5411461011a57806370113f881461013a578063976112d014610167578063b6963a1214610187578063df624f15146101a7578063fd8bd39a146101c7575b600080fd5b34801561009b57600080fd5b506100a46101e7565b6040516100b1919061116f565b60405180910390f35b3480156100c657600080fd5b506100a46100d5366004610db3565b6101ed565b3480156100e657600080fd5b506100a46100f5366004610d94565b610296565b34801561010657600080fd5b506100a4610115366004610d94565b6102e9565b34801561012657600080fd5b506100a4610135366004610dd2565b61033c565b34801561014657600080fd5b5061015a610155366004610dd2565b61038f565b6040516100b19190611161565b34801561017357600080fd5b5061015a610182366004610d94565b610446565b34801561019357600080fd5b5061015a6101a2366004610d94565b61057c565b3480156101b357600080fd5b5061015a6101c2366004610db3565b610658565b3480156101d357600080fd5b5061015a6101e2366004610d29565b61078b565b60005481565b6040517f9810b35400000000000000000000000000000000000000000000000000000000815260009073__IexecODBLibOrders_____________________90639810b354906102409085906004016111ca565b60206040518083038186803b15801561025857600080fd5b505af415801561026c573d6000803e3d6000fd5b505050506040513d601f19601f820116820180604052506102909190810190610d76565b92915050565b6040517f6f567cf900000000000000000000000000000000000000000000000000000000815260009073__IexecODBLibOrders_____________________90636f567cf9906102409085906004016111bb565b6040517f6248b21700000000000000000000000000000000000000000000000000000000815260009073__IexecODBLibOrders_____________________90636248b217906102409085906004016111bb565b6040517f6dfd20e500000000000000000000000000000000000000000000000000000000815260009073__IexecODBLibOrders_____________________90636dfd20e5906102409085906004016111d9565b60c08101516040517f6dfd20e50000000000000000000000000000000000000000000000000000000081526000916102909173__IexecODBLibOrders_____________________90636dfd20e5906103eb9087906004016111d9565b60206040518083038186803b15801561040357600080fd5b505af4158015610417573d6000803e3d6000fd5b505050506040513d601f19601f8201168201806040525061043b9190810190610d76565b846101e0015161078b565b6000610290826000015173ffffffffffffffffffffffffffffffffffffffff1663deff41c16040518163ffffffff1660e060020a028152600401602060405180830381600087803b15801561049a57600080fd5b505af11580156104ae573d6000803e3d6000fd5b505050506040513d601f19601f820116820180604052506104d29190810190610d03565b6040517f6f567cf900000000000000000000000000000000000000000000000000000000815273__IexecODBLibOrders_____________________90636f567cf9906105229087906004016111bb565b60206040518083038186803b15801561053a57600080fd5b505af415801561054e573d6000803e3d6000fd5b505050506040513d601f19601f820116820180604052506105729190810190610d76565b8460e0015161078b565b6000610290826000015173ffffffffffffffffffffffffffffffffffffffff1663deff41c16040518163ffffffff1660e060020a028152600401602060405180830381600087803b1580156105d057600080fd5b505af11580156105e4573d6000803e3d6000fd5b505050506040513d601f19601f820116820180604052506106089190810190610d03565b6040517f6248b21700000000000000000000000000000000000000000000000000000000815273__IexecODBLibOrders_____________________90636248b217906105229087906004016111bb565b6000610290826000015173ffffffffffffffffffffffffffffffffffffffff1663deff41c16040518163ffffffff1660e060020a028152600401602060405180830381600087803b1580156106ac57600080fd5b505af11580156106c0573d6000803e3d6000fd5b505050506040513d601f19601f820116820180604052506106e49190810190610d03565b6040517f9810b35400000000000000000000000000000000000000000000000000000000815273__IexecODBLibOrders_____________________90639810b354906107349087906004016111ca565b60206040518083038186803b15801561074c57600080fd5b505af4158015610760573d6000803e3d6000fd5b505050506040513d601f19601f820116820180604052506107849190810190610d76565b8461014001515b60008054604080517f1901000000000000000000000000000000000000000000000000000000000000602080830191909152602282019390935260428082018790528251808303909101815260629091019182905280516001939192918291908401908083835b602083106108115780518252601f1990920191602091820191016107f2565b51815160209384036101000a60001901801990921691161790526040805192909401829003822089518a8301518b87015160008652949093019586905261085f97509095509390925061117d565b60206040516020810390808403906000865af1158015610883573d6000803e3d6000fd5b5050506020604051035173ffffffffffffffffffffffffffffffffffffffff168473ffffffffffffffffffffffffffffffffffffffff161490509392505050565b60006108d0823561123d565b9392505050565b60006108d0825161123d565b60006108d0823561125b565b60006108d0825161125b565b6000601f8201831361090c57600080fd5b813561091f61091a82611211565b6111ea565b9150808252602083016020830185838301111561093b57600080fd5b610946838284611264565b50505092915050565b6000610140828403121561096257600080fd5b61096d6101006111ea565b9050600061097b84846108c4565b825250602061098c848483016108e3565b60208301525060406109a0848285016108e3565b60408301525060606109b4848285016108c4565b60608301525060806109c8848285016108c4565b60808301525060a06109dc848285016108c4565b60a08301525060c06109f0848285016108e3565b60c08301525060e0610a0484828501610c9c565b60e08301525092915050565b60006101a08284031215610a2357600080fd5b610a2e6101606111ea565b90506000610a3c84846108c4565b8252506020610a4d848483016108e3565b6020830152506040610a61848285016108e3565b6040830152506060610a75848285016108e3565b6060830152506080610a89848285016108e3565b60808301525060a0610a9d848285016108e3565b60a08301525060c0610ab1848285016108c4565b60c08301525060e0610ac5848285016108c4565b60e083015250610100610ada848285016108c4565b61010083015250610120610af0848285016108e3565b61012083015250610140610b0684828501610c9c565b6101408301525092915050565b60006102408284031215610b2657600080fd5b610b316102006111ea565b90506000610b3f84846108c4565b8252506020610b50848483016108e3565b6020830152506040610b64848285016108c4565b6040830152506060610b78848285016108e3565b6060830152506080610b8c848285016108c4565b60808301525060a0610ba0848285016108e3565b60a08301525060c0610bb4848285016108c4565b60c08301525060e0610bc8848285016108e3565b60e083015250610100610bdd848285016108e3565b61010083015250610120610bf3848285016108e3565b61012083015250610140610c09848285016108e3565b61014083015250610160610c1f848285016108c4565b61016083015250610180610c35848285016108c4565b610180830152506101a082013567ffffffffffffffff811115610c5757600080fd5b610c63848285016108fb565b6101a0830152506101c0610c79848285016108e3565b6101c0830152506101e0610c8f84828501610c9c565b6101e08301525092915050565b600060608284031215610cae57600080fd5b610cb860606111ea565b90506000610cc68484610cf7565b8252506020610cd7848483016108e3565b6020830152506040610ceb848285016108e3565b60408301525092915050565b60006108d0823561125e565b600060208284031215610d1557600080fd5b6000610d2184846108d7565b949350505050565b600080600060a08486031215610d3e57600080fd5b6000610d4a86866108c4565b9350506020610d5b868287016108e3565b9250506040610d6c86828701610c9c565b9150509250925092565b600060208284031215610d8857600080fd5b6000610d2184846108ef565b60006101408284031215610da757600080fd5b6000610d21848461094f565b60006101a08284031215610dc657600080fd5b6000610d218484610a10565b600060208284031215610de457600080fd5b813567ffffffffffffffff811115610dfb57600080fd5b610d2184828501610b13565b610e108161123d565b82525050565b610e1081611256565b610e108161125b565b6000610e3382611239565b808452610e47816020860160208601611270565b610e508161129c565b9093016020019392505050565b8051610140830190610e6f8482610e07565b506020820151610e826020850182610e1f565b506040820151610e956040850182610e1f565b506060820151610ea86060850182610e07565b506080820151610ebb6080850182610e07565b5060a0820151610ece60a0850182610e07565b5060c0820151610ee160c0850182610e1f565b5060e0820151610ef460e0850182611121565b50505050565b80516101a0830190610f0c8482610e07565b506020820151610f1f6020850182610e1f565b506040820151610f326040850182610e1f565b506060820151610f456060850182610e1f565b506080820151610f586080850182610e1f565b5060a0820151610f6b60a0850182610e1f565b5060c0820151610f7e60c0850182610e07565b5060e0820151610f9160e0850182610e07565b50610100820151610fa6610100850182610e07565b50610120820151610fbb610120850182610e1f565b50610140820151610ef4610140850182611121565b8051600090610240840190610fe58582610e07565b506020830151610ff86020860182610e1f565b50604083015161100b6040860182610e07565b50606083015161101e6060860182610e1f565b5060808301516110316080860182610e07565b5060a083015161104460a0860182610e1f565b5060c083015161105760c0860182610e07565b5060e083015161106a60e0860182610e1f565b5061010083015161107f610100860182610e1f565b50610120830151611094610120860182610e1f565b506101408301516110a9610140860182610e1f565b506101608301516110be610160860182610e07565b506101808301516110d3610180860182610e07565b506101a08301518482036101a08601526110ed8282610e28565b9150506101c08301516111046101c0860182610e1f565b506101e08301516111196101e0860182611121565b509392505050565b805160608301906111328482611158565b5060208201516111456020850182610e1f565b506040820151610ef46040850182610e1f565b610e108161125e565b602081016102908284610e16565b602081016102908284610e1f565b6080810161118b8287610e1f565b6111986020830186611158565b6111a56040830185610e1f565b6111b26060830184610e1f565b95945050505050565b61014081016102908284610e5d565b6101a081016102908284610efa565b602080825281016108d08184610fd0565b60405181810167ffffffffffffffff8111828210171561120957600080fd5b604052919050565b600067ffffffffffffffff82111561122857600080fd5b506020601f91909101601f19160190565b5190565b73ffffffffffffffffffffffffffffffffffffffff1690565b151590565b90565b60ff1690565b82818337506000910152565b60005b8381101561128b578181015183820152602001611273565b83811115610ef45750506000910152565b601f01601f1916905600a265627a7a723058202de4493722963e9059cb7be3b7f9c0c4711bb080b3f0147f969d981b623d0d836c6578706572696d656e74616cf50037",
  "source": "pragma solidity ^0.4.24;\npragma experimental ABIEncoderV2;\n\nimport \"./tools/IexecODBLibOrders.sol\";\n\nimport \"./registries/Dapp.sol\";\nimport \"./registries/Data.sol\";\nimport \"./registries/Pool.sol\";\n\ncontract TestContract\n{\n\tusing IexecODBLibOrders for *;\n\n\t/***************************************************************************\n\t *                                Lib Proxy                                *\n\t ***************************************************************************/\n\tfunction getDappOrderHash(IexecODBLibOrders.DappOrder _dapporder) public pure returns (bytes32) { return _dapporder.hash(); }\n\tfunction getDataOrderHash(IexecODBLibOrders.DataOrder _dataorder) public pure returns (bytes32) { return _dataorder.hash(); }\n\tfunction getPoolOrderHash(IexecODBLibOrders.PoolOrder _poolorder) public pure returns (bytes32) { return _poolorder.hash(); }\n\tfunction getUserOrderHash(IexecODBLibOrders.UserOrder _userorder) public pure returns (bytes32) { return _userorder.hash(); }\n\n\t/***************************************************************************\n\t *                            EIP712 signature                             *\n\t ***************************************************************************/\n\tbytes32 public EIP712DOMAIN_SEPARATOR;\n\n\tfunction verifySignature(\n\t\taddress _signer,\n\t\tbytes32 _hash,\n\t\tIexecODBLibOrders.signature _signature)\n\tpublic view returns (bool)\n\t{\n\t\treturn _signer == ecrecover(keccak256(abi.encodePacked(\"\\x19\\x01\", EIP712DOMAIN_SEPARATOR, _hash)), _signature.v, _signature.r, _signature.s);\n\t}\n\n\tfunction checkDappOrder(IexecODBLibOrders.DappOrder _dapporder) public view returns (bool) { return verifySignature(Dapp(_dapporder.dapp).m_owner(), _dapporder.hash(), _dapporder.sign); }\n\tfunction checkDataOrder(IexecODBLibOrders.DataOrder _dataorder) public view returns (bool) { return verifySignature(Data(_dataorder.data).m_owner(), _dataorder.hash(), _dataorder.sign); }\n\tfunction checkPoolOrder(IexecODBLibOrders.PoolOrder _poolorder) public view returns (bool) { return verifySignature(Pool(_poolorder.pool).m_owner(), _poolorder.hash(), _poolorder.sign); }\n\tfunction checkUserOrder(IexecODBLibOrders.UserOrder _userorder) public view returns (bool) { return verifySignature(_userorder.requester,            _userorder.hash(), _userorder.sign); }\n\n\t/***************************************************************************\n\t *                               Constructor                               *\n\t ***************************************************************************/\n\n\t// constructor(EIP712Domain _domain) public { EIP712DOMAIN_SEPARATOR = domain.hash(); }\n\n\tconstructor()\n\tpublic\n\t{\n\t\tEIP712DOMAIN_SEPARATOR = IexecODBLibOrders.EIP712Domain({\n\t\t\tname:              \"iExecODB\"\n\t\t, version:           \"3.0-alpha\"\n\t\t, chainId:           1\n\t\t, verifyingContract: this\n\t\t}).hash();\n\t}\n\n\n}\n",
  "sourcePath": "/home/amxx/Work/iExec/code/PoCo-dev/contracts/TestContract.sol",
  "compiler": {
    "name": "solc",
    "version": "0.4.25+commit.59dbf8f1.Emscripten.clang"
  },
  "schemaVersion": "3.0.0-beta.1",
  "updatedAt": "2018-10-05T12:37:37.169Z"
}