{
  "contractName": "UnionGroup",
  "abi": [
    {
      "constant": true,
      "inputs": [
        {
          "name": "",
          "type": "uint256"
        }
      ],
      "name": "m_subgroups",
      "outputs": [
        {
          "name": "",
          "type": "address"
        }
      ],
      "payable": false,
      "stateMutability": "view",
      "type": "function"
    },
    {
      "constant": true,
      "inputs": [],
      "name": "m_owner",
      "outputs": [
        {
          "name": "",
          "type": "address"
        }
      ],
      "payable": false,
      "stateMutability": "view",
      "type": "function"
    },
    {
      "constant": false,
      "inputs": [
        {
          "name": "_newOwner",
          "type": "address"
        }
      ],
      "name": "transferOwnership",
      "outputs": [],
      "payable": false,
      "stateMutability": "nonpayable",
      "type": "function"
    },
    {
      "inputs": [],
      "payable": false,
      "stateMutability": "nonpayable",
      "type": "constructor"
    },
    {
      "anonymous": false,
      "inputs": [
        {
          "indexed": true,
          "name": "previousOwner",
          "type": "address"
        },
        {
          "indexed": true,
          "name": "newOwner",
          "type": "address"
        }
      ],
      "name": "OwnershipTransferred",
      "type": "event"
    },
    {
      "constant": false,
      "inputs": [
        {
          "name": "_subgroups",
          "type": "address[]"
        }
      ],
      "name": "setSubGroup",
      "outputs": [],
      "payable": false,
      "stateMutability": "nonpayable",
      "type": "function"
    },
    {
      "constant": true,
      "inputs": [
        {
          "name": "_user",
          "type": "address"
        }
      ],
      "name": "viewPermissions",
      "outputs": [
        {
          "name": "",
          "type": "bytes1"
        }
      ],
      "payable": false,
      "stateMutability": "view",
      "type": "function"
    }
  ],
  "bytecode": "0x608060405234801561001057600080fd5b5060008054600160a060020a03191633179055610607806100326000396000f30060806040526004361061006c5763ffffffff7c0100000000000000000000000000000000000000000000000000000000600035041663638e6cb481146100715780637ad8f72d146100a757806382dc2cee146100d4578063deff41c1146100f6578063f2fde38b14610118575b600080fd5b34801561007d57600080fd5b5061009161008c3660046104da565b610138565b60405161009e919061053b565b60405180910390f35b3480156100b357600080fd5b506100c76100c2366004610461565b610160565b60405161009e919061052d565b3480156100e057600080fd5b506100f46100ef366004610487565b610234565b005b34801561010257600080fd5b5061010b610262565b60405161009e9190610519565b34801561012457600080fd5b506100f4610133366004610461565b610271565b600180548290811061014657fe5b600091825260209091200154600160a060020a0316905081565b600080805b60015481101561022d57600180548290811061017d57fe5b6000918252602090912001546040517f7ad8f72d000000000000000000000000000000000000000000000000000000008152600160a060020a0390911690637ad8f72d906101cf908790600401610519565b602060405180830381600087803b1580156101e957600080fd5b505af11580156101fd573d6000803e3d6000fd5b505050506040513d601f19601f8201168201806040525061022191908101906104bc565b90911790600101610165565b5092915050565b600054600160a060020a0316331461024b57600080fd5b805161025e906001906020840190610305565b5050565b600054600160a060020a031681565b600054600160a060020a0316331461028857600080fd5b600160a060020a038116151561029d57600080fd5b60008054604051600160a060020a03808516939216917f8be0079c531659141344cd1fd0a4f28419497f9722a3daafe3b4186f6b6457e091a36000805473ffffffffffffffffffffffffffffffffffffffff1916600160a060020a0392909216919091179055565b828054828255906000526020600020908101928215610367579160200282015b82811115610367578251825473ffffffffffffffffffffffffffffffffffffffff1916600160a060020a03909116178255602090920191600190910190610325565b50610373929150610377565b5090565b6103a891905b8082111561037357805473ffffffffffffffffffffffffffffffffffffffff1916815560010161037d565b90565b60006103b78235610591565b9392505050565b6000601f820183136103cf57600080fd5b81356103e26103dd82610570565b610549565b9150818183526020840193506020810190508385602084028201111561040757600080fd5b60005b83811015610433578161041d8882610449565b845250602092830192919091019060010161040a565b5050505092915050565b60006103b7825161059d565b60006103b782356105c2565b60006103b782356103a8565b60006020828403121561047357600080fd5b600061047f84846103ab565b949350505050565b60006020828403121561049957600080fd5b813567ffffffffffffffff8111156104b057600080fd5b61047f848285016103be565b6000602082840312156104ce57600080fd5b600061047f848461043d565b6000602082840312156104ec57600080fd5b600061047f8484610455565b61050181610591565b82525050565b6105018161059d565b610501816105c2565b6020810161052782846104f8565b92915050565b602081016105278284610507565b602081016105278284610510565b60405181810167ffffffffffffffff8111828210171561056857600080fd5b604052919050565b600067ffffffffffffffff82111561058757600080fd5b5060209081020190565b600160a060020a031690565b7fff000000000000000000000000000000000000000000000000000000000000001690565b6000610527826105915600a265627a7a72305820ef2e96e9291ab875213a395e1ec8ff7102556816be94996fdfb510d823593be26c6578706572696d656e74616cf50037",
  "source": "pragma solidity ^0.4.24;\npragma experimental ABIEncoderV2;\n\nimport './GroupInterface.sol';\nimport '../tools/Ownable.sol';\n\ncontract UnionGroup is GroupInterface, OwnableMutable\n{\n\tGroupInterface[] public m_subgroups;\n\n\t/**\n\t * Constructor\n\t */\n\tconstructor() public {}\n\n\tfunction setSubGroup(GroupInterface[] _subgroups)\n\tpublic onlyOwner\n\t{\n\t\tm_subgroups = _subgroups;\n\t}\n\tfunction viewPermissions(address _user)\n\tpublic view returns (bytes1)\n\t{\n\t\tbytes1 permissions = bytes1(0);\n\t\tfor (uint256 i = 0; i<m_subgroups.length; ++i)\n\t\t{\n\t\t\tpermissions = permissions | m_subgroups[i].viewPermissions(_user);\n\t\t}\n\t\treturn permissions;\n\t}\n}\n\ncontract IntersectionGroup is GroupInterface, OwnableMutable\n{\n\tGroupInterface[] public m_subgroups;\n\n\t/**\n\t * Constructor\n\t */\n\tconstructor() public {}\n\n\tfunction setSubGroup(GroupInterface[] _subgroups)\n\tpublic onlyOwner\n\t{\n\t\tm_subgroups = _subgroups;\n\t}\n\tfunction viewPermissions(address _user)\n\tpublic view returns (bytes1)\n\t{\n\t\tif (m_subgroups.length == 0) return bytes1(0);\n\n\t\tbytes1 permissions = bytes1(-1);\n\t\tfor (uint256 i = 0; i<m_subgroups.length; ++i)\n\t\t{\n\t\t\tpermissions = permissions & m_subgroups[i].viewPermissions(_user);\n\t\t}\n\t\treturn permissions;\n\t}\n}\n",
  "sourcePath": "/home/amxx/Work/iExec/code/PoCo-dev/contracts/permissions/UnionGroup.sol",
  "compiler": {
    "name": "solc",
    "version": "0.4.24+commit.e67f0147.Emscripten.clang"
  },
  "schemaVersion": "2.0.1",
  "updatedAt": "2018-10-08T22:53:16.076Z"
}