{
  "_format": "hh-sol-artifact-1",
  "contractName": "IexecConfigurationExtraFacet",
  "sourceName": "contracts/facets/IexecConfigurationExtraFacet.sol",
  "abi": [
    {
      "inputs": [
        {
          "internalType": "address",
          "name": "_appregistryAddress",
          "type": "address"
        },
        {
          "internalType": "address",
          "name": "_datasetregistryAddress",
          "type": "address"
        },
        {
          "internalType": "address",
          "name": "_workerpoolregistryAddress",
          "type": "address"
        }
      ],
      "name": "changeRegistries",
      "outputs": [],
      "stateMutability": "nonpayable",
      "type": "function"
    }
  ],
  "bytecode": "0x608060405234801561001057600080fd5b50610267806100206000396000f3fe608060405234801561001057600080fd5b506004361061002b5760003560e01c80630e7c403314610030575b600080fd5b61004361003e36600461019a565b610045565b005b61004d6100d7565b6001600160a01b031661005e61014f565b6001600160a01b03161461008d5760405162461bcd60e51b8152600401610084906101e4565b60405180910390fd5b6000610097610153565b80546001600160a01b03199081166001600160a01b0396871617825560018201805482169587169590951790945560020180549093169190931617905550565b6000306001600160a01b0316638da5cb5b6040518163ffffffff1660e01b815260040160206040518083038186803b15801561011257600080fd5b505afa158015610126573d6000803e3d6000fd5b505050506040513d601f19601f8201168201806040525081019061014a9190610177565b905090565b3390565b7f5862653c6982c162832160cf30593645e8487b257e44d77cdd6b51eee2651b0090565b600060208284031215610188578081fd5b815161019381610219565b9392505050565b6000806000606084860312156101ae578182fd5b83356101b981610219565b925060208401356101c981610219565b915060408401356101d981610219565b809150509250925092565b6020808252818101527f4f776e61626c653a2063616c6c6572206973206e6f7420746865206f776e6572604082015260600190565b6001600160a01b038116811461022e57600080fd5b5056fea2646970667358221220f80a027b98cb0e480a020b3bf5bd883158461a41ea5666002f04277912688fc964736f6c634300060c0033",
  "linkReferences": {},
  "deployedLinkReferences": {}
}